{
  "contractName": "PixelPuckPlayer",
  "abi": [
    {
      "inputs": [
        {
          "internalType": "string",
          "name": "name",
          "type": "string"
        },
        {
          "internalType": "string",
          "name": "symbol",
          "type": "string"
        }
      ],
      "stateMutability": "nonpayable",
      "type": "constructor"
    },
    {
      "anonymous": false,
      "inputs": [
        {
          "indexed": true,
          "internalType": "address",
          "name": "owner",
          "type": "address"
        },
        {
          "indexed": true,
          "internalType": "address",
          "name": "approved",
          "type": "address"
        },
        {
          "indexed": true,
          "internalType": "uint256",
          "name": "tokenId",
          "type": "uint256"
        }
      ],
      "name": "Approval",
      "type": "event"
    },
    {
      "anonymous": false,
      "inputs": [
        {
          "indexed": true,
          "internalType": "address",
          "name": "owner",
          "type": "address"
        },
        {
          "indexed": true,
          "internalType": "address",
          "name": "operator",
          "type": "address"
        },
        {
          "indexed": false,
          "internalType": "bool",
          "name": "approved",
          "type": "bool"
        }
      ],
      "name": "ApprovalForAll",
      "type": "event"
    },
    {
      "anonymous": false,
      "inputs": [
        {
          "indexed": false,
          "internalType": "uint256",
          "name": "indexId",
          "type": "uint256"
        },
        {
          "indexed": false,
          "internalType": "uint256",
          "name": "offence",
          "type": "uint256"
        },
        {
          "indexed": false,
          "internalType": "uint256",
          "name": "defence",
          "type": "uint256"
        },
        {
          "indexed": false,
          "internalType": "uint256",
          "name": "dna",
          "type": "uint256"
        },
        {
          "indexed": false,
          "internalType": "uint256",
          "name": "playertype",
          "type": "uint256"
        }
      ],
      "name": "NewPlayer",
      "type": "event"
    },
    {
      "anonymous": false,
      "inputs": [
        {
          "indexed": true,
          "internalType": "address",
          "name": "previousOwner",
          "type": "address"
        },
        {
          "indexed": true,
          "internalType": "address",
          "name": "newOwner",
          "type": "address"
        }
      ],
      "name": "OwnershipTransferred",
      "type": "event"
    },
    {
      "anonymous": false,
      "inputs": [
        {
          "indexed": true,
          "internalType": "address",
          "name": "from",
          "type": "address"
        },
        {
          "indexed": true,
          "internalType": "address",
          "name": "to",
          "type": "address"
        },
        {
          "indexed": true,
          "internalType": "uint256",
          "name": "tokenId",
          "type": "uint256"
        }
      ],
      "name": "Transfer",
      "type": "event"
    },
    {
      "inputs": [
        {
          "internalType": "address",
          "name": "to",
          "type": "address"
        },
        {
          "internalType": "uint256",
          "name": "tokenId",
          "type": "uint256"
        }
      ],
      "name": "approve",
      "outputs": [],
      "stateMutability": "nonpayable",
      "type": "function"
    },
    {
      "inputs": [
        {
          "internalType": "address",
          "name": "owner",
          "type": "address"
        }
      ],
      "name": "balanceOf",
      "outputs": [
        {
          "internalType": "uint256",
          "name": "",
          "type": "uint256"
        }
      ],
      "stateMutability": "view",
      "type": "function",
      "constant": true
    },
    {
      "inputs": [
        {
          "internalType": "uint256",
          "name": "tokenId",
          "type": "uint256"
        }
      ],
      "name": "getApproved",
      "outputs": [
        {
          "internalType": "address",
          "name": "",
          "type": "address"
        }
      ],
      "stateMutability": "view",
      "type": "function",
      "constant": true
    },
    {
      "inputs": [
        {
          "internalType": "address",
          "name": "owner",
          "type": "address"
        },
        {
          "internalType": "address",
          "name": "operator",
          "type": "address"
        }
      ],
      "name": "isApprovedForAll",
      "outputs": [
        {
          "internalType": "bool",
          "name": "",
          "type": "bool"
        }
      ],
      "stateMutability": "view",
      "type": "function",
      "constant": true
    },
    {
      "inputs": [],
      "name": "name",
      "outputs": [
        {
          "internalType": "string",
          "name": "",
          "type": "string"
        }
      ],
      "stateMutability": "view",
      "type": "function",
      "constant": true
    },
    {
      "inputs": [],
      "name": "owner",
      "outputs": [
        {
          "internalType": "address",
          "name": "",
          "type": "address"
        }
      ],
      "stateMutability": "view",
      "type": "function",
      "constant": true
    },
    {
      "inputs": [
        {
          "internalType": "uint256",
          "name": "tokenId",
          "type": "uint256"
        }
      ],
      "name": "ownerOf",
      "outputs": [
        {
          "internalType": "address",
          "name": "",
          "type": "address"
        }
      ],
      "stateMutability": "view",
      "type": "function",
      "constant": true
    },
    {
      "inputs": [],
      "name": "renounceOwnership",
      "outputs": [],
      "stateMutability": "nonpayable",
      "type": "function"
    },
    {
      "inputs": [
        {
          "internalType": "address",
          "name": "from",
          "type": "address"
        },
        {
          "internalType": "address",
          "name": "to",
          "type": "address"
        },
        {
          "internalType": "uint256",
          "name": "tokenId",
          "type": "uint256"
        }
      ],
      "name": "safeTransferFrom",
      "outputs": [],
      "stateMutability": "nonpayable",
      "type": "function"
    },
    {
      "inputs": [
        {
          "internalType": "address",
          "name": "from",
          "type": "address"
        },
        {
          "internalType": "address",
          "name": "to",
          "type": "address"
        },
        {
          "internalType": "uint256",
          "name": "tokenId",
          "type": "uint256"
        },
        {
          "internalType": "bytes",
          "name": "_data",
          "type": "bytes"
        }
      ],
      "name": "safeTransferFrom",
      "outputs": [],
      "stateMutability": "nonpayable",
      "type": "function"
    },
    {
      "inputs": [
        {
          "internalType": "address",
          "name": "operator",
          "type": "address"
        },
        {
          "internalType": "bool",
          "name": "approved",
          "type": "bool"
        }
      ],
      "name": "setApprovalForAll",
      "outputs": [],
      "stateMutability": "nonpayable",
      "type": "function"
    },
    {
      "inputs": [
        {
          "internalType": "bytes4",
          "name": "interfaceId",
          "type": "bytes4"
        }
      ],
      "name": "supportsInterface",
      "outputs": [
        {
          "internalType": "bool",
          "name": "",
          "type": "bool"
        }
      ],
      "stateMutability": "view",
      "type": "function",
      "constant": true
    },
    {
      "inputs": [],
      "name": "symbol",
      "outputs": [
        {
          "internalType": "string",
          "name": "",
          "type": "string"
        }
      ],
      "stateMutability": "view",
      "type": "function",
      "constant": true
    },
    {
      "inputs": [
        {
          "internalType": "uint256",
          "name": "tokenId",
          "type": "uint256"
        }
      ],
      "name": "tokenURI",
      "outputs": [
        {
          "internalType": "string",
          "name": "",
          "type": "string"
        }
      ],
      "stateMutability": "view",
      "type": "function",
      "constant": true
    },
    {
      "inputs": [
        {
          "internalType": "address",
          "name": "from",
          "type": "address"
        },
        {
          "internalType": "address",
          "name": "to",
          "type": "address"
        },
        {
          "internalType": "uint256",
          "name": "tokenId",
          "type": "uint256"
        }
      ],
      "name": "transferFrom",
      "outputs": [],
      "stateMutability": "nonpayable",
      "type": "function"
    },
    {
      "inputs": [
        {
          "internalType": "address",
          "name": "newOwner",
          "type": "address"
        }
      ],
      "name": "transferOwnership",
      "outputs": [],
      "stateMutability": "nonpayable",
      "type": "function"
    },
    {
      "inputs": [
        {
          "internalType": "uint256",
          "name": "tokenId",
          "type": "uint256"
        }
      ],
      "name": "getTokenDetails",
      "outputs": [
        {
          "components": [
            {
              "internalType": "uint256",
              "name": "offence",
              "type": "uint256"
            },
            {
              "internalType": "uint256",
              "name": "defence",
              "type": "uint256"
            },
            {
              "internalType": "uint256",
              "name": "dna",
              "type": "uint256"
            },
            {
              "internalType": "uint256",
              "name": "playertype",
              "type": "uint256"
            },
            {
              "internalType": "uint256",
              "name": "teamId",
              "type": "uint256"
            },
            {
              "internalType": "uint256",
              "name": "jerseyId",
              "type": "uint256"
            },
            {
              "internalType": "uint256",
              "name": "mainColor",
              "type": "uint256"
            },
            {
              "internalType": "uint256",
              "name": "injuryTimestamp",
              "type": "uint256"
            },
            {
              "internalType": "uint256",
              "name": "injuredTime",
              "type": "uint256"
            }
          ],
          "internalType": "struct PixelPuckPlayer.Player",
          "name": "",
          "type": "tuple"
        }
      ],
      "stateMutability": "view",
      "type": "function",
      "constant": true
    },
    {
      "inputs": [],
      "name": "mintOffence",
      "outputs": [],
      "stateMutability": "nonpayable",
      "type": "function"
    },
    {
      "inputs": [],
      "name": "mintDefence",
      "outputs": [],
      "stateMutability": "nonpayable",
      "type": "function"
    },
    {
      "inputs": [],
      "name": "mintGoalie",
      "outputs": [],
      "stateMutability": "nonpayable",
      "type": "function"
    },
    {
      "inputs": [
        {
          "internalType": "uint256",
          "name": "_index",
          "type": "uint256"
        }
      ],
      "name": "tokenByIndex",
      "outputs": [
        {
          "internalType": "uint256",
          "name": "",
          "type": "uint256"
        }
      ],
      "stateMutability": "view",
      "type": "function",
      "constant": true
    },
    {
      "inputs": [
        {
          "internalType": "address",
          "name": "user",
          "type": "address"
        }
      ],
      "name": "getAllTokensForUser",
      "outputs": [
        {
          "internalType": "uint256[]",
          "name": "",
          "type": "uint256[]"
        }
      ],
      "stateMutability": "view",
      "type": "function",
      "constant": true
    }
  ],
  "bytecode": "0x6080604052601c600755600754600a6200001a919062000458565b60085560006009553480156200002f57600080fd5b5060405162003e6238038062003e62833981810160405281019062000055919062000319565b6040518060400160405280601181526020017f506978656c205075636b20506c617965720000000000000000000000000000008152506040518060400160405280600381526020017f50505000000000000000000000000000000000000000000000000000000000008152508160009080519060200190620000d9929190620001eb565b508060019080519060200190620000f2929190620001eb565b50505062000115620001096200011d60201b60201c565b6200012560201b60201c565b505062000700565b600033905090565b6000600660009054906101000a900473ffffffffffffffffffffffffffffffffffffffff16905081600660006101000a81548173ffffffffffffffffffffffffffffffffffffffff021916908373ffffffffffffffffffffffffffffffffffffffff1602179055508173ffffffffffffffffffffffffffffffffffffffff168173ffffffffffffffffffffffffffffffffffffffff167f8be0079c531659141344cd1fd0a4f28419497f9722a3daafe3b4186f6b6457e060405160405180910390a35050565b828054620001f990620005d5565b90600052602060002090601f0160209004810192826200021d576000855562000269565b82601f106200023857805160ff191683800117855562000269565b8280016001018555821562000269579182015b82811115620002685782518255916020019190600101906200024b565b5b5090506200027891906200027c565b5090565b5b80821115620002975760008160009055506001016200027d565b5090565b6000620002b2620002ac84620003c7565b6200039e565b905082815260208101848484011115620002d157620002d0620006d3565b5b620002de8482856200059f565b509392505050565b600082601f830112620002fe57620002fd620006ce565b5b8151620003108482602086016200029b565b91505092915050565b60008060408385031215620003335762000332620006dd565b5b600083015167ffffffffffffffff811115620003545762000353620006d8565b5b6200036285828601620002e6565b925050602083015167ffffffffffffffff811115620003865762000385620006d8565b5b6200039485828601620002e6565b9150509250929050565b6000620003aa620003bd565b9050620003b882826200060b565b919050565b6000604051905090565b600067ffffffffffffffff821115620003e557620003e46200069f565b5b620003f082620006e2565b9050602081019050919050565b6000808291508390505b60018511156200044f5780860481111562000427576200042662000641565b5b6001851615620004375780820291505b80810290506200044785620006f3565b945062000407565b94509492505050565b6000620004658262000595565b9150620004728362000595565b9250620004a17fffffffffffffffffffffffffffffffffffffffffffffffffffffffffffffffff8484620004a9565b905092915050565b600082620004bb57600190506200058e565b81620004cb57600090506200058e565b8160018114620004e45760028114620004ef5762000525565b60019150506200058e565b60ff84111562000504576200050362000641565b5b8360020a9150848211156200051e576200051d62000641565b5b506200058e565b5060208310610133831016604e8410600b84101617156200055f5782820a90508381111562000559576200055862000641565b5b6200058e565b6200056e8484846001620003fd565b9250905081840481111562000588576200058762000641565b5b81810290505b9392505050565b6000819050919050565b60005b83811015620005bf578082015181840152602081019050620005a2565b83811115620005cf576000848401525b50505050565b60006002820490506001821680620005ee57607f821691505b6020821081141562000605576200060462000670565b5b50919050565b6200061682620006e2565b810181811067ffffffffffffffff821117156200063857620006376200069f565b5b80604052505050565b7f4e487b7100000000000000000000000000000000000000000000000000000000600052601160045260246000fd5b7f4e487b7100000000000000000000000000000000000000000000000000000000600052602260045260246000fd5b7f4e487b7100000000000000000000000000000000000000000000000000000000600052604160045260246000fd5b600080fd5b600080fd5b600080fd5b600080fd5b6000601f19601f8301169050919050565b60008160011c9050919050565b61375280620007106000396000f3fe608060405234801561001057600080fd5b50600436106101425760003560e01c806389c6e9bc116100b8578063b06765411161007c578063b06765411461034f578063b88d4fde14610359578063c1e0372814610375578063c87b56dd146103a5578063e985e9c5146103d5578063f2fde38b1461040557610142565b806389c6e9bc146102e35780638da5cb5b146102ed5780638e61f66d1461030b57806395d89b4114610315578063a22cb4651461033357610142565b806342842e0e1161010a57806342842e0e146101fd5780634f6ccce7146102195780636352211e1461024957806370a0823114610279578063715018a6146102a957806382de8fe9146102b357610142565b806301ffc9a71461014757806306fdde0314610177578063081812fc14610195578063095ea7b3146101c557806323b872dd146101e1575b600080fd5b610161600480360381019061015c919061252f565b610421565b60405161016e9190612b36565b60405180910390f35b61017f610503565b60405161018c9190612b51565b60405180910390f35b6101af60048036038101906101aa9190612589565b610595565b6040516101bc9190612aad565b60405180910390f35b6101df60048036038101906101da91906124ef565b61061a565b005b6101fb60048036038101906101f691906123d9565b610732565b005b610217600480360381019061021291906123d9565b610792565b005b610233600480360381019061022e9190612589565b6107b2565b6040516102409190612d8f565b60405180910390f35b610263600480360381019061025e9190612589565b6107b9565b6040516102709190612aad565b60405180910390f35b610293600480360381019061028e919061236c565b61086b565b6040516102a09190612d8f565b60405180910390f35b6102b1610923565b005b6102cd60048036038101906102c8919061236c565b6109ab565b6040516102da9190612b14565b60405180910390f35b6102eb610b01565b005b6102f5610cca565b6040516103029190612aad565b60405180910390f35b610313610cf4565b005b61031d610eb2565b60405161032a9190612b51565b60405180910390f35b61034d600480360381019061034891906124af565b610f44565b005b6103576110c5565b005b610373600480360381019061036e919061242c565b61128e565b005b61038f600480360381019061038a9190612589565b6112f0565b60405161039c9190612d73565b60405180910390f35b6103bf60048036038101906103ba9190612589565b611378565b6040516103cc9190612b51565b60405180910390f35b6103ef60048036038101906103ea9190612399565b61141f565b6040516103fc9190612b36565b60405180910390f35b61041f600480360381019061041a919061236c565b6114b3565b005b60007f80ac58cd000000000000000000000000000000000000000000000000000000007bffffffffffffffffffffffffffffffffffffffffffffffffffffffff1916827bffffffffffffffffffffffffffffffffffffffffffffffffffffffff191614806104ec57507f5b5e139f000000000000000000000000000000000000000000000000000000007bffffffffffffffffffffffffffffffffffffffffffffffffffffffff1916827bffffffffffffffffffffffffffffffffffffffffffffffffffffffff1916145b806104fc57506104fb826115ab565b5b9050919050565b60606000805461051290613040565b80601f016020809104026020016040519081016040528092919081815260200182805461053e90613040565b801561058b5780601f106105605761010080835404028352916020019161058b565b820191906000526020600020905b81548152906001019060200180831161056e57829003601f168201915b5050505050905090565b60006105a082611615565b6105df576040517f08c379a00000000000000000000000000000000000000000000000000000000081526004016105d690612cb3565b60405180910390fd5b6004600083815260200190815260200160002060009054906101000a900473ffffffffffffffffffffffffffffffffffffffff169050919050565b6000610625826107b9565b90508073ffffffffffffffffffffffffffffffffffffffff168373ffffffffffffffffffffffffffffffffffffffff161415610696576040517f08c379a000000000000000000000000000000000000000000000000000000000815260040161068d90612d33565b60405180910390fd5b8073ffffffffffffffffffffffffffffffffffffffff166106b5611681565b73ffffffffffffffffffffffffffffffffffffffff1614806106e457506106e3816106de611681565b61141f565b5b610723576040517f08c379a000000000000000000000000000000000000000000000000000000000815260040161071a90612c33565b60405180910390fd5b61072d8383611689565b505050565b61074361073d611681565b82611742565b610782576040517f08c379a000000000000000000000000000000000000000000000000000000000815260040161077990612d53565b60405180910390fd5b61078d838383611820565b505050565b6107ad8383836040518060200160405280600081525061128e565b505050565b6000919050565b6000806002600084815260200190815260200160002060009054906101000a900473ffffffffffffffffffffffffffffffffffffffff169050600073ffffffffffffffffffffffffffffffffffffffff168173ffffffffffffffffffffffffffffffffffffffff161415610862576040517f08c379a000000000000000000000000000000000000000000000000000000000815260040161085990612c73565b60405180910390fd5b80915050919050565b60008073ffffffffffffffffffffffffffffffffffffffff168273ffffffffffffffffffffffffffffffffffffffff1614156108dc576040517f08c379a00000000000000000000000000000000000000000000000000000000081526004016108d390612c53565b60405180910390fd5b600360008373ffffffffffffffffffffffffffffffffffffffff1673ffffffffffffffffffffffffffffffffffffffff168152602001908152602001600020549050919050565b61092b611681565b73ffffffffffffffffffffffffffffffffffffffff16610949610cca565b73ffffffffffffffffffffffffffffffffffffffff161461099f576040517f08c379a000000000000000000000000000000000000000000000000000000000815260040161099690612cd3565b60405180910390fd5b6109a96000611a7c565b565b606060006109b88361086b565b90506000811415610a1557600067ffffffffffffffff8111156109de576109dd613207565b5b604051908082528060200260200182016040528015610a0c5781602001602082028036833780820191505090505b50915050610afc565b60008167ffffffffffffffff811115610a3157610a30613207565b5b604051908082528060200260200182016040528015610a5f5781602001602082028036833780820191505090505b509050600060095490506000805b82811015610af3578673ffffffffffffffffffffffffffffffffffffffff16610a95826107b9565b73ffffffffffffffffffffffffffffffffffffffff161415610ae05780848381518110610ac557610ac46131d8565b5b6020026020010181815250508180610adc906130a3565b9250505b8080610aeb906130a3565b915050610a6d565b83955050505050505b919050565b610b09611681565b73ffffffffffffffffffffffffffffffffffffffff16610b27610cca565b73ffffffffffffffffffffffffffffffffffffffff1614610b7d576040517f08c379a0000000000000000000000000000000000000000000000000000000008152600401610b7490612cd3565b60405180910390fd5b6000610b87611b42565b90506000610b93611ba0565b90506000610b9f611be4565b9050600060019050604051806101200160405280858152602001848152602001838152602001828152602001600081526020016000815260200160008152602001600081526020016000815250600a60006009548152602001908152602001600020600082015181600001556020820151816001015560408201518160020155606082015181600301556080820151816004015560a0820151816005015560c0820151816006015560e082015181600701556101008201518160080155905050610c6b33600954611c2b565b7f37b0c509798077b35a44163c4505e5782e0786e4dfbaebef824069d9af303e9260095485858585604051610ca4959493929190612daa565b60405180910390a160096000815480929190610cbf906130a3565b919050555050505050565b6000600660009054906101000a900473ffffffffffffffffffffffffffffffffffffffff16905090565b610cfc611681565b73ffffffffffffffffffffffffffffffffffffffff16610d1a610cca565b73ffffffffffffffffffffffffffffffffffffffff1614610d70576040517f08c379a0000000000000000000000000000000000000000000000000000000008152600401610d6790612cd3565b60405180910390fd5b600080610d7b611c49565b90506000610d87611be4565b9050600060039050604051806101200160405280858152602001848152602001838152602001828152602001600081526020016000815260200160008152602001600081526020016000815250600a60006009548152602001908152602001600020600082015181600001556020820151816001015560408201518160020155606082015181600301556080820151816004015560a0820151816005015560c0820151816006015560e082015181600701556101008201518160080155905050610e5333600954611c2b565b7f37b0c509798077b35a44163c4505e5782e0786e4dfbaebef824069d9af303e9260095485858585604051610e8c959493929190612daa565b60405180910390a160096000815480929190610ea7906130a3565b919050555050505050565b606060018054610ec190613040565b80601f0160208091040260200160405190810160405280929190818152602001828054610eed90613040565b8015610f3a5780601f10610f0f57610100808354040283529160200191610f3a565b820191906000526020600020905b815481529060010190602001808311610f1d57829003601f168201915b5050505050905090565b610f4c611681565b73ffffffffffffffffffffffffffffffffffffffff168273ffffffffffffffffffffffffffffffffffffffff161415610fba576040517f08c379a0000000000000000000000000000000000000000000000000000000008152600401610fb190612bf3565b60405180910390fd5b8060056000610fc7611681565b73ffffffffffffffffffffffffffffffffffffffff1673ffffffffffffffffffffffffffffffffffffffff16815260200190815260200160002060008473ffffffffffffffffffffffffffffffffffffffff1673ffffffffffffffffffffffffffffffffffffffff16815260200190815260200160002060006101000a81548160ff0219169083151502179055508173ffffffffffffffffffffffffffffffffffffffff16611074611681565b73ffffffffffffffffffffffffffffffffffffffff167f17307eab39ab6107e8899845ad3d59bd9653f200f220920489ca2b5937696c31836040516110b99190612b36565b60405180910390a35050565b6110cd611681565b73ffffffffffffffffffffffffffffffffffffffff166110eb610cca565b73ffffffffffffffffffffffffffffffffffffffff1614611141576040517f08c379a000000000000000000000000000000000000000000000000000000000815260040161113890612cd3565b60405180910390fd5b600061114b611ba0565b90506000611157611b42565b90506000611163611be4565b9050600060029050604051806101200160405280858152602001848152602001838152602001828152602001600081526020016000815260200160008152602001600081526020016000815250600a60006009548152602001908152602001600020600082015181600001556020820151816001015560408201518160020155606082015181600301556080820151816004015560a0820151816005015560c0820151816006015560e08201518160070155610100820151816008015590505061122f33600954611c2b565b7f37b0c509798077b35a44163c4505e5782e0786e4dfbaebef824069d9af303e9260095485858585604051611268959493929190612daa565b60405180910390a160096000815480929190611283906130a3565b919050555050505050565b61129f611299611681565b83611742565b6112de576040517f08c379a00000000000000000000000000000000000000000000000000000000081526004016112d590612d53565b60405180910390fd5b6112ea84848484611c9b565b50505050565b6112f8612247565b600a60008381526020019081526020016000206040518061012001604052908160008201548152602001600182015481526020016002820154815260200160038201548152602001600482015481526020016005820154815260200160068201548152602001600782015481526020016008820154815250509050919050565b606061138382611615565b6113c2576040517f08c379a00000000000000000000000000000000000000000000000000000000081526004016113b990612d13565b60405180910390fd5b60006113cc611cf7565b905060008151116113ec5760405180602001604052806000815250611417565b806113f684611d0e565b604051602001611407929190612a20565b6040516020818303038152906040525b915050919050565b6000600560008473ffffffffffffffffffffffffffffffffffffffff1673ffffffffffffffffffffffffffffffffffffffff16815260200190815260200160002060008373ffffffffffffffffffffffffffffffffffffffff1673ffffffffffffffffffffffffffffffffffffffff16815260200190815260200160002060009054906101000a900460ff16905092915050565b6114bb611681565b73ffffffffffffffffffffffffffffffffffffffff166114d9610cca565b73ffffffffffffffffffffffffffffffffffffffff161461152f576040517f08c379a000000000000000000000000000000000000000000000000000000000815260040161152690612cd3565b60405180910390fd5b600073ffffffffffffffffffffffffffffffffffffffff168173ffffffffffffffffffffffffffffffffffffffff16141561159f576040517f08c379a000000000000000000000000000000000000000000000000000000000815260040161159690612b93565b60405180910390fd5b6115a881611a7c565b50565b60007f01ffc9a7000000000000000000000000000000000000000000000000000000007bffffffffffffffffffffffffffffffffffffffffffffffffffffffff1916827bffffffffffffffffffffffffffffffffffffffffffffffffffffffff1916149050919050565b60008073ffffffffffffffffffffffffffffffffffffffff166002600084815260200190815260200160002060009054906101000a900473ffffffffffffffffffffffffffffffffffffffff1673ffffffffffffffffffffffffffffffffffffffff1614159050919050565b600033905090565b816004600083815260200190815260200160002060006101000a81548173ffffffffffffffffffffffffffffffffffffffff021916908373ffffffffffffffffffffffffffffffffffffffff160217905550808273ffffffffffffffffffffffffffffffffffffffff166116fc836107b9565b73ffffffffffffffffffffffffffffffffffffffff167f8c5be1e5ebec7d5bd14f71427d1e84f3dd0314c0f7b2291e5b200ac8c7c3b92560405160405180910390a45050565b600061174d82611615565b61178c576040517f08c379a000000000000000000000000000000000000000000000000000000000815260040161178390612c13565b60405180910390fd5b6000611797836107b9565b90508073ffffffffffffffffffffffffffffffffffffffff168473ffffffffffffffffffffffffffffffffffffffff16148061180657508373ffffffffffffffffffffffffffffffffffffffff166117ee84610595565b73ffffffffffffffffffffffffffffffffffffffff16145b806118175750611816818561141f565b5b91505092915050565b8273ffffffffffffffffffffffffffffffffffffffff16611840826107b9565b73ffffffffffffffffffffffffffffffffffffffff1614611896576040517f08c379a000000000000000000000000000000000000000000000000000000000815260040161188d90612cf3565b60405180910390fd5b600073ffffffffffffffffffffffffffffffffffffffff168273ffffffffffffffffffffffffffffffffffffffff161415611906576040517f08c379a00000000000000000000000000000000000000000000000000000000081526004016118fd90612bd3565b60405180910390fd5b611911838383611e6f565b61191c600082611689565b6001600360008573ffffffffffffffffffffffffffffffffffffffff1673ffffffffffffffffffffffffffffffffffffffff168152602001908152602001600020600082825461196c9190612f56565b925050819055506001600360008473ffffffffffffffffffffffffffffffffffffffff1673ffffffffffffffffffffffffffffffffffffffff16815260200190815260200160002060008282546119c39190612ecf565b92505081905550816002600083815260200190815260200160002060006101000a81548173ffffffffffffffffffffffffffffffffffffffff021916908373ffffffffffffffffffffffffffffffffffffffff160217905550808273ffffffffffffffffffffffffffffffffffffffff168473ffffffffffffffffffffffffffffffffffffffff167fddf252ad1be2c89b69c2b068fc378daa952ba7f163c4a11628f55a4df523b3ef60405160405180910390a4505050565b6000600660009054906101000a900473ffffffffffffffffffffffffffffffffffffffff16905081600660006101000a81548173ffffffffffffffffffffffffffffffffffffffff021916908373ffffffffffffffffffffffffffffffffffffffff1602179055508173ffffffffffffffffffffffffffffffffffffffff168173ffffffffffffffffffffffffffffffffffffffff167f8be0079c531659141344cd1fd0a4f28419497f9722a3daafe3b4186f6b6457e060405160405180910390a35050565b600080603244600742611b55919061311a565b33604051602001611b6893929190612a70565b6040516020818303038152906040528051906020012060001c611b8b919061311a565b9050603281611b9a9190612ecf565b91505090565b60008060324233604051602001611bb8929190612a44565b6040516020818303038152906040528051906020012060001c611bdb919061311a565b90508091505090565b600080424433604051602001611bfc93929190612a70565b6040516020818303038152906040528051906020012060001c905060085481611c25919061311a565b91505090565b611c45828260405180602001604052806000815250611e74565b5050565b6000806019424433604051602001611c6393929190612a70565b6040516020818303038152906040528051906020012060001c611c86919061311a565b9050604b81611c959190612ecf565b91505090565b611ca6848484611820565b611cb284848484611ecf565b611cf1576040517f08c379a0000000000000000000000000000000000000000000000000000000008152600401611ce890612b73565b60405180910390fd5b50505050565b606060405180602001604052806000815250905090565b60606000821415611d56576040518060400160405280600181526020017f30000000000000000000000000000000000000000000000000000000000000008152509050611e6a565b600082905060005b60008214611d88578080611d71906130a3565b915050600a82611d819190612f25565b9150611d5e565b60008167ffffffffffffffff811115611da457611da3613207565b5b6040519080825280601f01601f191660200182016040528015611dd65781602001600182028036833780820191505090505b5090505b60008514611e6357600182611def9190612f56565b9150600a85611dfe919061311a565b6030611e0a9190612ecf565b60f81b818381518110611e2057611e1f6131d8565b5b60200101907effffffffffffffffffffffffffffffffffffffffffffffffffffffffffffff1916908160001a905350600a85611e5c9190612f25565b9450611dda565b8093505050505b919050565b505050565b611e7e8383612066565b611e8b6000848484611ecf565b611eca576040517f08c379a0000000000000000000000000000000000000000000000000000000008152600401611ec190612b73565b60405180910390fd5b505050565b6000611ef08473ffffffffffffffffffffffffffffffffffffffff16612234565b15612059578373ffffffffffffffffffffffffffffffffffffffff1663150b7a02611f19611681565b8786866040518563ffffffff1660e01b8152600401611f3b9493929190612ac8565b602060405180830381600087803b158015611f5557600080fd5b505af1925050508015611f8657506040513d601f19601f82011682018060405250810190611f83919061255c565b60015b612009573d8060008114611fb6576040519150601f19603f3d011682016040523d82523d6000602084013e611fbb565b606091505b50600081511415612001576040517f08c379a0000000000000000000000000000000000000000000000000000000008152600401611ff890612b73565b60405180910390fd5b805181602001fd5b63150b7a0260e01b7bffffffffffffffffffffffffffffffffffffffffffffffffffffffff1916817bffffffffffffffffffffffffffffffffffffffffffffffffffffffff19161491505061205e565b600190505b949350505050565b600073ffffffffffffffffffffffffffffffffffffffff168273ffffffffffffffffffffffffffffffffffffffff1614156120d6576040517f08c379a00000000000000000000000000000000000000000000000000000000081526004016120cd90612c93565b60405180910390fd5b6120df81611615565b1561211f576040517f08c379a000000000000000000000000000000000000000000000000000000000815260040161211690612bb3565b60405180910390fd5b61212b60008383611e6f565b6001600360008473ffffffffffffffffffffffffffffffffffffffff1673ffffffffffffffffffffffffffffffffffffffff168152602001908152602001600020600082825461217b9190612ecf565b92505081905550816002600083815260200190815260200160002060006101000a81548173ffffffffffffffffffffffffffffffffffffffff021916908373ffffffffffffffffffffffffffffffffffffffff160217905550808273ffffffffffffffffffffffffffffffffffffffff16600073ffffffffffffffffffffffffffffffffffffffff167fddf252ad1be2c89b69c2b068fc378daa952ba7f163c4a11628f55a4df523b3ef60405160405180910390a45050565b600080823b905060008111915050919050565b6040518061012001604052806000815260200160008152602001600081526020016000815260200160008152602001600081526020016000815260200160008152602001600081525090565b60006122a66122a184612e22565b612dfd565b9050828152602081018484840111156122c2576122c161323b565b5b6122cd848285612ffe565b509392505050565b6000813590506122e4816136c0565b92915050565b6000813590506122f9816136d7565b92915050565b60008135905061230e816136ee565b92915050565b600081519050612323816136ee565b92915050565b600082601f83011261233e5761233d613236565b5b813561234e848260208601612293565b91505092915050565b60008135905061236681613705565b92915050565b60006020828403121561238257612381613245565b5b6000612390848285016122d5565b91505092915050565b600080604083850312156123b0576123af613245565b5b60006123be858286016122d5565b92505060206123cf858286016122d5565b9150509250929050565b6000806000606084860312156123f2576123f1613245565b5b6000612400868287016122d5565b9350506020612411868287016122d5565b925050604061242286828701612357565b9150509250925092565b6000806000806080858703121561244657612445613245565b5b6000612454878288016122d5565b9450506020612465878288016122d5565b935050604061247687828801612357565b925050606085013567ffffffffffffffff81111561249757612496613240565b5b6124a387828801612329565b91505092959194509250565b600080604083850312156124c6576124c5613245565b5b60006124d4858286016122d5565b92505060206124e5858286016122ea565b9150509250929050565b6000806040838503121561250657612505613245565b5b6000612514858286016122d5565b925050602061252585828601612357565b9150509250929050565b60006020828403121561254557612544613245565b5b6000612553848285016122ff565b91505092915050565b60006020828403121561257257612571613245565b5b600061258084828501612314565b91505092915050565b60006020828403121561259f5761259e613245565b5b60006125ad84828501612357565b91505092915050565b60006125c283836129eb565b60208301905092915050565b6125d781612f8a565b82525050565b6125ee6125e982612f8a565b6130ec565b82525050565b60006125ff82612e63565b6126098185612e91565b935061261483612e53565b8060005b8381101561264557815161262c88826125b6565b975061263783612e84565b925050600181019050612618565b5085935050505092915050565b61265b81612f9c565b82525050565b600061266c82612e6e565b6126768185612ea2565b935061268681856020860161300d565b61268f8161324a565b840191505092915050565b60006126a582612e79565b6126af8185612eb3565b93506126bf81856020860161300d565b6126c88161324a565b840191505092915050565b60006126de82612e79565b6126e88185612ec4565b93506126f881856020860161300d565b80840191505092915050565b6000612711603283612eb3565b915061271c82613268565b604082019050919050565b6000612734602683612eb3565b915061273f826132b7565b604082019050919050565b6000612757601c83612eb3565b915061276282613306565b602082019050919050565b600061277a602483612eb3565b91506127858261332f565b604082019050919050565b600061279d601983612eb3565b91506127a88261337e565b602082019050919050565b60006127c0602c83612eb3565b91506127cb826133a7565b604082019050919050565b60006127e3603883612eb3565b91506127ee826133f6565b604082019050919050565b6000612806602a83612eb3565b915061281182613445565b604082019050919050565b6000612829602983612eb3565b915061283482613494565b604082019050919050565b600061284c602083612eb3565b9150612857826134e3565b602082019050919050565b600061286f602c83612eb3565b915061287a8261350c565b604082019050919050565b6000612892602083612eb3565b915061289d8261355b565b602082019050919050565b60006128b5602983612eb3565b91506128c082613584565b604082019050919050565b60006128d8602f83612eb3565b91506128e3826135d3565b604082019050919050565b60006128fb602183612eb3565b915061290682613622565b604082019050919050565b600061291e603183612eb3565b915061292982613671565b604082019050919050565b6101208201600082015161294b60008501826129eb565b50602082015161295e60208501826129eb565b50604082015161297160408501826129eb565b50606082015161298460608501826129eb565b50608082015161299760808501826129eb565b5060a08201516129aa60a08501826129eb565b5060c08201516129bd60c08501826129eb565b5060e08201516129d060e08501826129eb565b506101008201516129e56101008501826129eb565b50505050565b6129f481612ff4565b82525050565b612a0381612ff4565b82525050565b612a1a612a1582612ff4565b613110565b82525050565b6000612a2c82856126d3565b9150612a3882846126d3565b91508190509392505050565b6000612a508285612a09565b602082019150612a6082846125dd565b6014820191508190509392505050565b6000612a7c8286612a09565b602082019150612a8c8285612a09565b602082019150612a9c82846125dd565b601482019150819050949350505050565b6000602082019050612ac260008301846125ce565b92915050565b6000608082019050612add60008301876125ce565b612aea60208301866125ce565b612af760408301856129fa565b8181036060830152612b098184612661565b905095945050505050565b60006020820190508181036000830152612b2e81846125f4565b905092915050565b6000602082019050612b4b6000830184612652565b92915050565b60006020820190508181036000830152612b6b818461269a565b905092915050565b60006020820190508181036000830152612b8c81612704565b9050919050565b60006020820190508181036000830152612bac81612727565b9050919050565b60006020820190508181036000830152612bcc8161274a565b9050919050565b60006020820190508181036000830152612bec8161276d565b9050919050565b60006020820190508181036000830152612c0c81612790565b9050919050565b60006020820190508181036000830152612c2c816127b3565b9050919050565b60006020820190508181036000830152612c4c816127d6565b9050919050565b60006020820190508181036000830152612c6c816127f9565b9050919050565b60006020820190508181036000830152612c8c8161281c565b9050919050565b60006020820190508181036000830152612cac8161283f565b9050919050565b60006020820190508181036000830152612ccc81612862565b9050919050565b60006020820190508181036000830152612cec81612885565b9050919050565b60006020820190508181036000830152612d0c816128a8565b9050919050565b60006020820190508181036000830152612d2c816128cb565b9050919050565b60006020820190508181036000830152612d4c816128ee565b9050919050565b60006020820190508181036000830152612d6c81612911565b9050919050565b600061012082019050612d896000830184612934565b92915050565b6000602082019050612da460008301846129fa565b92915050565b600060a082019050612dbf60008301886129fa565b612dcc60208301876129fa565b612dd960408301866129fa565b612de660608301856129fa565b612df360808301846129fa565b9695505050505050565b6000612e07612e18565b9050612e138282613072565b919050565b6000604051905090565b600067ffffffffffffffff821115612e3d57612e3c613207565b5b612e468261324a565b9050602081019050919050565b6000819050602082019050919050565b600081519050919050565b600081519050919050565b600081519050919050565b6000602082019050919050565b600082825260208201905092915050565b600082825260208201905092915050565b600082825260208201905092915050565b600081905092915050565b6000612eda82612ff4565b9150612ee583612ff4565b9250827fffffffffffffffffffffffffffffffffffffffffffffffffffffffffffffffff03821115612f1a57612f1961314b565b5b828201905092915050565b6000612f3082612ff4565b9150612f3b83612ff4565b925082612f4b57612f4a61317a565b5b828204905092915050565b6000612f6182612ff4565b9150612f6c83612ff4565b925082821015612f7f57612f7e61314b565b5b828203905092915050565b6000612f9582612fd4565b9050919050565b60008115159050919050565b60007fffffffff0000000000000000000000000000000000000000000000000000000082169050919050565b600073ffffffffffffffffffffffffffffffffffffffff82169050919050565b6000819050919050565b82818337600083830152505050565b60005b8381101561302b578082015181840152602081019050613010565b8381111561303a576000848401525b50505050565b6000600282049050600182168061305857607f821691505b6020821081141561306c5761306b6131a9565b5b50919050565b61307b8261324a565b810181811067ffffffffffffffff8211171561309a57613099613207565b5b80604052505050565b60006130ae82612ff4565b91507fffffffffffffffffffffffffffffffffffffffffffffffffffffffffffffffff8214156130e1576130e061314b565b5b600182019050919050565b60006130f7826130fe565b9050919050565b60006131098261325b565b9050919050565b6000819050919050565b600061312582612ff4565b915061313083612ff4565b9250826131405761313f61317a565b5b828206905092915050565b7f4e487b7100000000000000000000000000000000000000000000000000000000600052601160045260246000fd5b7f4e487b7100000000000000000000000000000000000000000000000000000000600052601260045260246000fd5b7f4e487b7100000000000000000000000000000000000000000000000000000000600052602260045260246000fd5b7f4e487b7100000000000000000000000000000000000000000000000000000000600052603260045260246000fd5b7f4e487b7100000000000000000000000000000000000000000000000000000000600052604160045260246000fd5b600080fd5b600080fd5b600080fd5b600080fd5b6000601f19601f8301169050919050565b60008160601b9050919050565b7f4552433732313a207472616e7366657220746f206e6f6e20455243373231526560008201527f63656976657220696d706c656d656e7465720000000000000000000000000000602082015250565b7f4f776e61626c653a206e6577206f776e657220697320746865207a65726f206160008201527f6464726573730000000000000000000000000000000000000000000000000000602082015250565b7f4552433732313a20746f6b656e20616c7265616479206d696e74656400000000600082015250565b7f4552433732313a207472616e7366657220746f20746865207a65726f2061646460008201527f7265737300000000000000000000000000000000000000000000000000000000602082015250565b7f4552433732313a20617070726f766520746f2063616c6c657200000000000000600082015250565b7f4552433732313a206f70657261746f7220717565727920666f72206e6f6e657860008201527f697374656e7420746f6b656e0000000000000000000000000000000000000000602082015250565b7f4552433732313a20617070726f76652063616c6c6572206973206e6f74206f7760008201527f6e6572206e6f7220617070726f76656420666f7220616c6c0000000000000000602082015250565b7f4552433732313a2062616c616e636520717565727920666f7220746865207a6560008201527f726f206164647265737300000000000000000000000000000000000000000000602082015250565b7f4552433732313a206f776e657220717565727920666f72206e6f6e657869737460008201527f656e7420746f6b656e0000000000000000000000000000000000000000000000602082015250565b7f4552433732313a206d696e7420746f20746865207a65726f2061646472657373600082015250565b7f4552433732313a20617070726f76656420717565727920666f72206e6f6e657860008201527f697374656e7420746f6b656e0000000000000000000000000000000000000000602082015250565b7f4f776e61626c653a2063616c6c6572206973206e6f7420746865206f776e6572600082015250565b7f4552433732313a207472616e73666572206f6620746f6b656e2074686174206960008201527f73206e6f74206f776e0000000000000000000000000000000000000000000000602082015250565b7f4552433732314d657461646174613a2055524920717565727920666f72206e6f60008201527f6e6578697374656e7420746f6b656e0000000000000000000000000000000000602082015250565b7f4552433732313a20617070726f76616c20746f2063757272656e74206f776e6560008201527f7200000000000000000000000000000000000000000000000000000000000000602082015250565b7f4552433732313a207472616e736665722063616c6c6572206973206e6f74206f60008201527f776e6572206e6f7220617070726f766564000000000000000000000000000000602082015250565b6136c981612f8a565b81146136d457600080fd5b50565b6136e081612f9c565b81146136eb57600080fd5b50565b6136f781612fa8565b811461370257600080fd5b50565b61370e81612ff4565b811461371957600080fd5b5056fea26469706673582212209353c6c93d50dfc09bd526569c5d739c08837f523305a832fd04e510f410862664736f6c63430008060033",
  "immutableReferences": {},
  "source": "// SPDX-License-Identifier: MIT\r\npragma solidity >=0.4.22 <0.9.0;\r\n\r\nimport \"../node_modules/@openzeppelin/contracts/token/ERC721/ERC721.sol\";\r\nimport \"../node_modules/@openzeppelin/contracts/access/Ownable.sol\";\r\n\r\n\r\ncontract PixelPuckPlayer is ERC721, Ownable {\r\n\r\n    uint dnaDigits = 28;\r\n    uint dnaModulus = 10 ** dnaDigits;\r\n    \r\n    event NewPlayer(uint indexId, uint offence, uint defence, uint dna, uint playertype);\r\n\r\n    struct Player{\r\n        uint offence;\r\n        uint defence;\r\n        uint dna;\r\n        uint playertype;\r\n        uint teamId;\r\n        uint jerseyId;\r\n        uint mainColor;\r\n        uint injuryTimestamp;\r\n        uint injuredTime;\r\n    }\r\n\r\n    uint nextId = 0;\r\n\r\n    mapping (uint => Player ) private _tokenDetails;\r\n\r\n    constructor(string memory name, string memory symbol) ERC721(\"Pixel Puck Player\", \"PPP\"){\r\n\r\n    }\r\n\r\n    function getTokenDetails(uint tokenId) public view returns (Player memory){\r\n        return _tokenDetails[tokenId];\r\n    }\r\n\r\n    function _generateRandDna () private view returns (uint){\r\n        uint rand = uint(keccak256(abi.encodePacked(block.timestamp, block.difficulty, msg.sender)));\r\n        return rand % dnaModulus;\r\n    }\r\n\r\n    function _generateRandPrimaryAtrrib () private view returns (uint){\r\n    uint primaryAttrib =  uint(keccak256(abi.encodePacked(block.difficulty, block.timestamp % 7, msg.sender))) % 50;\r\n    return primaryAttrib + 50;\r\n    }\r\n\r\n    function _generateRandSecondaryAtrrib () private view returns (uint){\r\n    uint secondaryAttrib =  uint(keccak256(abi.encodePacked(block.timestamp, msg.sender))) % 50;\r\n    return secondaryAttrib;\r\n    }\r\n\r\n    function _generateRandGoalieDefence () private view returns (uint){\r\n    uint secondaryAttrib =  uint(keccak256(abi.encodePacked(block.timestamp, block.difficulty, msg.sender))) % 25;\r\n    return secondaryAttrib + 75;\r\n    }\r\n\r\n    function mintOffence() public onlyOwner {\r\n        uint offenceScore = _generateRandPrimaryAtrrib();\r\n        uint defenceScore = _generateRandSecondaryAtrrib();\r\n        uint playerDna = _generateRandDna();\r\n        uint playerType = 1;\r\n        _tokenDetails[nextId] = Player(offenceScore, defenceScore, playerDna, playerType,0,0,0,0,0);\r\n        _safeMint(msg.sender, nextId);\r\n        emit NewPlayer(nextId, offenceScore, defenceScore, playerDna, playerType);\r\n        nextId++;\r\n    }\r\n\r\n    function mintDefence() public onlyOwner {\r\n        uint offenceScore = _generateRandSecondaryAtrrib();\r\n        uint defenceScore = _generateRandPrimaryAtrrib();\r\n        uint playerDna = _generateRandDna();\r\n        uint playerType = 2;\r\n        _tokenDetails[nextId] = Player(offenceScore, defenceScore, playerDna, playerType,0,0,0,0,0);\r\n        _safeMint(msg.sender, nextId);\r\n        emit NewPlayer(nextId, offenceScore, defenceScore, playerDna, playerType);\r\n        nextId++;\r\n    }\r\n\r\n    function mintGoalie() public onlyOwner {\r\n        uint offenceScore = 0;\r\n        uint defenceScore = _generateRandGoalieDefence();\r\n        uint playerDna = _generateRandDna();\r\n        uint playerType = 3;\r\n        _tokenDetails[nextId] = Player(offenceScore, defenceScore, playerDna, playerType,0,0,0,0,0);\r\n        _safeMint(msg.sender, nextId);\r\n        emit NewPlayer(nextId, offenceScore, defenceScore, playerDna, playerType);\r\n        nextId++;\r\n    }\r\n\r\n    // function assignToTeam(uint _tokenId, uint _teamId) public onlyOwner {\r\n    //    Player storage player =  _tokenDetails[_tokenId]._teamId;\r\n    // }\r\n    \r\n    function tokenByIndex(uint256 _index) external view returns (uint256) {\r\n            \r\n    \r\n    }\r\n\r\n    function getAllTokensForUser(address user) public view returns (uint256[] memory){\r\n        uint256 tokenCount = balanceOf(user);\r\n        if(tokenCount == 0){\r\n            return new uint256[](0);\r\n        }\r\n        else{\r\n            uint[] memory result = new uint256[](tokenCount);\r\n            uint256 totalPlayers = nextId;\r\n            uint256 resultIndex = 0;\r\n            uint256 i;\r\n            for(i = 0; i < totalPlayers; i++){\r\n                if(ownerOf(i) == user){\r\n                    result[resultIndex] = i;\r\n                    resultIndex++;\r\n                }\r\n                \r\n            }\r\n            return result;\r\n        }\r\n    }\r\n\r\n}\r\n",
  "sourcePath": "C:\\Zprojects\\puck-buddies\\contracts\\PixelPuckPlayer.sol",
  "compiler": {
    "name": "solc",
    "version": "0.8.6+commit.11564f7e.Emscripten.clang"
  },
  "schemaVersion": "3.4.2",
  "updatedAt": "2021-08-18T07:47:17.537Z",
  "networkType": "ethereum",
  "devdoc": {
    "kind": "dev",
    "methods": {
      "approve(address,uint256)": {
        "details": "See {IERC721-approve}."
      },
      "balanceOf(address)": {
        "details": "See {IERC721-balanceOf}."
      },
      "getApproved(uint256)": {
        "details": "See {IERC721-getApproved}."
      },
      "isApprovedForAll(address,address)": {
        "details": "See {IERC721-isApprovedForAll}."
      },
      "name()": {
        "details": "See {IERC721Metadata-name}."
      },
      "owner()": {
        "details": "Returns the address of the current owner."
      },
      "ownerOf(uint256)": {
        "details": "See {IERC721-ownerOf}."
      },
      "renounceOwnership()": {
        "details": "Leaves the contract without owner. It will not be possible to call `onlyOwner` functions anymore. Can only be called by the current owner. NOTE: Renouncing ownership will leave the contract without an owner, thereby removing any functionality that is only available to the owner."
      },
      "safeTransferFrom(address,address,uint256)": {
        "details": "See {IERC721-safeTransferFrom}."
      },
      "safeTransferFrom(address,address,uint256,bytes)": {
        "details": "See {IERC721-safeTransferFrom}."
      },
      "setApprovalForAll(address,bool)": {
        "details": "See {IERC721-setApprovalForAll}."
      },
      "supportsInterface(bytes4)": {
        "details": "See {IERC165-supportsInterface}."
      },
      "symbol()": {
        "details": "See {IERC721Metadata-symbol}."
      },
      "tokenURI(uint256)": {
        "details": "See {IERC721Metadata-tokenURI}."
      },
      "transferFrom(address,address,uint256)": {
        "details": "See {IERC721-transferFrom}."
      },
      "transferOwnership(address)": {
        "details": "Transfers ownership of the contract to a new account (`newOwner`). Can only be called by the current owner."
      }
    },
    "version": 1
  },
  "userdoc": {
    "kind": "user",
    "methods": {},
    "version": 1
  }
}