{
	"data": {
		"bytecode": {
			"linkReferences": {},
			"object": "60806040523480156200001157600080fd5b50604051620013aa380380620013aa833981810160405281019062000037919062000118565b336000806101000a81548173ffffffffffffffffffffffffffffffffffffffff021916908373ffffffffffffffffffffffffffffffffffffffff16021790555081600260006101000a81548173ffffffffffffffffffffffffffffffffffffffff021916908373ffffffffffffffffffffffffffffffffffffffff16021790555080600160006101000a81548173ffffffffffffffffffffffffffffffffffffffff021916908373ffffffffffffffffffffffffffffffffffffffff1602179055505050620001b2565b600081519050620001128162000198565b92915050565b6000806040838503121562000132576200013162000193565b5b6000620001428582860162000101565b9250506020620001558582860162000101565b9150509250929050565b60006200016c8262000173565b9050919050565b600073ffffffffffffffffffffffffffffffffffffffff82169050919050565b600080fd5b620001a3816200015f565b8114620001af57600080fd5b50565b6111e880620001c26000396000f3fe608060405234801561001057600080fd5b506004361061009e5760003560e01c8063e638ded311610066578063e638ded314610157578063ec1de0c214610173578063f23a6e6114610191578063f61a2ea8146101c1578063f851a440146101f15761009e565b806301ffc9a7146100a357806321d7dc3d146100d35780637db31711146100ef578063ae90235a1461010b578063bc197c8114610127575b600080fd5b6100bd60048036038101906100b89190610af4565b61020f565b6040516100ca9190610d72565b60405180910390f35b6100ed60048036038101906100e89190610b7b565b610289565b005b61010960048036038101906101049190610b21565b6104bd565b005b61012560048036038101906101209190610961565b610554565b005b610141600480360381019061013c919061098e565b610626565b60405161014e9190610d8d565b60405180910390f35b610171600480360381019061016c9190610961565b61063b565b005b61017b61070d565b6040516101889190610c7e565b60405180910390f35b6101ab60048036038101906101a69190610a5d565b610715565b6040516101b89190610d8d565b60405180910390f35b6101db60048036038101906101d69190610b21565b61072a565b6040516101e89190610de8565b60405180910390f35b6101f9610771565b6040516102069190610c7e565b60405180910390f35b60007f4e2312e0000000000000000000000000000000000000000000000000000000007bffffffffffffffffffffffffffffffffffffffffffffffffffffffff1916827bffffffffffffffffffffffffffffffffffffffffffffffffffffffff19161480610282575061028182610795565b5b9050919050565b60006102948361072a565b90508181146102d8576040517f08c379a00000000000000000000000000000000000000000000000000000000081526004016102cf90610da8565b60405180910390fd5b60018060009054906101000a900473ffffffffffffffffffffffffffffffffffffffff1673ffffffffffffffffffffffffffffffffffffffff1662fdd58e30866040518363ffffffff1660e01b8152600401610335929190610d49565b60206040518083038186803b15801561034d57600080fd5b505afa158015610361573d6000803e3d6000fd5b505050506040513d601f19601f820116820180604052508101906103859190610b4e565b101561039057600080fd5b600260009054906101000a900473ffffffffffffffffffffffffffffffffffffffff1673ffffffffffffffffffffffffffffffffffffffff1663f242432a33306000866040518563ffffffff1660e01b81526004016103f29493929190610c99565b600060405180830381600087803b15801561040c57600080fd5b505af1158015610420573d6000803e3d6000fd5b50505050600160009054906101000a900473ffffffffffffffffffffffffffffffffffffffff1673ffffffffffffffffffffffffffffffffffffffff1663f242432a30338660016040518563ffffffff1660e01b81526004016104869493929190610cf1565b600060405180830381600087803b1580156104a057600080fd5b505af11580156104b4573d6000803e3d6000fd5b50505050505050565b600160009054906101000a900473ffffffffffffffffffffffffffffffffffffffff1673ffffffffffffffffffffffffffffffffffffffff1663f242432a30338460016040518563ffffffff1660e01b815260040161051f9493929190610cf1565b600060405180830381600087803b15801561053957600080fd5b505af115801561054d573d6000803e3d6000fd5b5050505050565b60008054906101000a900473ffffffffffffffffffffffffffffffffffffffff1673ffffffffffffffffffffffffffffffffffffffff163373ffffffffffffffffffffffffffffffffffffffff16146105e2576040517f08c379a00000000000000000000000000000000000000000000000000000000081526004016105d990610dc8565b60405180910390fd5b80600160006101000a81548173ffffffffffffffffffffffffffffffffffffffff021916908373ffffffffffffffffffffffffffffffffffffffff16021790555050565b600063bc197c8160e01b905095945050505050565b60008054906101000a900473ffffffffffffffffffffffffffffffffffffffff1673ffffffffffffffffffffffffffffffffffffffff163373ffffffffffffffffffffffffffffffffffffffff16146106c9576040517f08c379a00000000000000000000000000000000000000000000000000000000081526004016106c090610dc8565b60405180910390fd5b80600260006101000a81548173ffffffffffffffffffffffffffffffffffffffff021916908373ffffffffffffffffffffffffffffffffffffffff16021790555050565b600030905090565b600063f23a6e6160e01b905095945050505050565b60008060648361073a9190610ea7565b905060006305f5e1008261074e919061100a565b90506000655af3107a4000826107649190610ed8565b9050809350505050919050565b60008054906101000a900473ffffffffffffffffffffffffffffffffffffffff1681565b60007f01ffc9a7000000000000000000000000000000000000000000000000000000007bffffffffffffffffffffffffffffffffffffffffffffffffffffffff1916827bffffffffffffffffffffffffffffffffffffffffffffffffffffffff1916149050919050565b600061081261080d84610e28565b610e03565b90508083825260208201905082856020860282011115610835576108346110cd565b5b60005b85811015610865578161084b8882610937565b845260208401935060208301925050600181019050610838565b5050509392505050565b600061088261087d84610e54565b610e03565b90508281526020810184848401111561089e5761089d6110d2565b5b6108a9848285610fca565b509392505050565b6000813590506108c08161116d565b92915050565b600082601f8301126108db576108da6110c8565b5b81356108eb8482602086016107ff565b91505092915050565b60008135905061090381611184565b92915050565b600082601f83011261091e5761091d6110c8565b5b813561092e84826020860161086f565b91505092915050565b6000813590506109468161119b565b92915050565b60008151905061095b8161119b565b92915050565b600060208284031215610977576109766110dc565b5b6000610985848285016108b1565b91505092915050565b600080600080600060a086880312156109aa576109a96110dc565b5b60006109b8888289016108b1565b95505060206109c9888289016108b1565b945050604086013567ffffffffffffffff8111156109ea576109e96110d7565b5b6109f6888289016108c6565b935050606086013567ffffffffffffffff811115610a1757610a166110d7565b5b610a23888289016108c6565b925050608086013567ffffffffffffffff811115610a4457610a436110d7565b5b610a5088828901610909565b9150509295509295909350565b600080600080600060a08688031215610a7957610a786110dc565b5b6000610a87888289016108b1565b9550506020610a98888289016108b1565b9450506040610aa988828901610937565b9350506060610aba88828901610937565b925050608086013567ffffffffffffffff811115610adb57610ada6110d7565b5b610ae788828901610909565b9150509295509295909350565b600060208284031215610b0a57610b096110dc565b5b6000610b18848285016108f4565b91505092915050565b600060208284031215610b3757610b366110dc565b5b6000610b4584828501610937565b91505092915050565b600060208284031215610b6457610b636110dc565b5b6000610b728482850161094c565b91505092915050565b60008060408385031215610b9257610b916110dc565b5b6000610ba085828601610937565b9250506020610bb185828601610937565b9150509250929050565b610bc481610f32565b82525050565b610bd381610f44565b82525050565b610be281610f50565b82525050565b610bf181610fa6565b82525050565b610c0081610fb8565b82525050565b6000610c13602883610e96565b9150610c1e826110f2565b604082019050919050565b6000610c36600083610e85565b9150610c4182611141565b600082019050919050565b6000610c59602083610e96565b9150610c6482611144565b602082019050919050565b610c7881610f9c565b82525050565b6000602082019050610c936000830184610bbb565b92915050565b600060a082019050610cae6000830187610bbb565b610cbb6020830186610bbb565b610cc86040830185610be8565b610cd56060830184610c6f565b8181036080830152610ce681610c29565b905095945050505050565b600060a082019050610d066000830187610bbb565b610d136020830186610bbb565b610d206040830185610c6f565b610d2d6060830184610bf7565b8181036080830152610d3e81610c29565b905095945050505050565b6000604082019050610d5e6000830185610bbb565b610d6b6020830184610c6f565b9392505050565b6000602082019050610d876000830184610bca565b92915050565b6000602082019050610da26000830184610bd9565b92915050565b60006020820190508181036000830152610dc181610c06565b9050919050565b60006020820190508181036000830152610de181610c4c565b9050919050565b6000602082019050610dfd6000830184610c6f565b92915050565b6000610e0d610e1e565b9050610e198282610fd9565b919050565b6000604051905090565b600067ffffffffffffffff821115610e4357610e42611099565b5b602082029050602081019050919050565b600067ffffffffffffffff821115610e6f57610e6e611099565b5b610e78826110e1565b9050602081019050919050565b600082825260208201905092915050565b600082825260208201905092915050565b6000610eb282610f9c565b9150610ebd83610f9c565b925082610ecd57610ecc61106a565b5b828204905092915050565b6000610ee382610f9c565b9150610eee83610f9c565b9250817fffffffffffffffffffffffffffffffffffffffffffffffffffffffffffffffff0483118215151615610f2757610f2661103b565b5b828202905092915050565b6000610f3d82610f7c565b9050919050565b60008115159050919050565b60007fffffffff0000000000000000000000000000000000000000000000000000000082169050919050565b600073ffffffffffffffffffffffffffffffffffffffff82169050919050565b6000819050919050565b6000610fb182610f9c565b9050919050565b6000610fc382610f9c565b9050919050565b82818337600083830152505050565b610fe2826110e1565b810181811067ffffffffffffffff8211171561100157611000611099565b5b80604052505050565b600061101582610f9c565b915061102083610f9c565b9250826110305761102f61106a565b5b828206905092915050565b7f4e487b7100000000000000000000000000000000000000000000000000000000600052601160045260246000fd5b7f4e487b7100000000000000000000000000000000000000000000000000000000600052601260045260246000fd5b7f4e487b7100000000000000000000000000000000000000000000000000000000600052604160045260246000fd5b600080fd5b600080fd5b600080fd5b600080fd5b600080fd5b6000601f19601f8301169050919050565b7f56616c75652073656e7420646f6573206e6f74206d617463682072657175697260008201527f65642076616c7565000000000000000000000000000000000000000000000000602082015250565b50565b7f4f6e6c792041646d696e2063616e20706572666f726d20746869732063616c6c600082015250565b61117681610f32565b811461118157600080fd5b50565b61118d81610f50565b811461119857600080fd5b50565b6111a481610f9c565b81146111af57600080fd5b5056fea264697066735822122061b5bc1c6439f34a4651a3ffdb583590d542591f320b935e92021d54fac1f0b764736f6c63430008070033",
			"opcodes": "PUSH1 0x80 PUSH1 0x40 MSTORE CALLVALUE DUP1 ISZERO PUSH3 0x11 JUMPI PUSH1 0x0 DUP1 REVERT JUMPDEST POP PUSH1 0x40 MLOAD PUSH3 0x13AA CODESIZE SUB DUP1 PUSH3 0x13AA DUP4 CODECOPY DUP2 DUP2 ADD PUSH1 0x40 MSTORE DUP2 ADD SWAP1 PUSH3 0x37 SWAP2 SWAP1 PUSH3 0x118 JUMP JUMPDEST CALLER PUSH1 0x0 DUP1 PUSH2 0x100 EXP DUP2 SLOAD DUP2 PUSH20 0xFFFFFFFFFFFFFFFFFFFFFFFFFFFFFFFFFFFFFFFF MUL NOT AND SWAP1 DUP4 PUSH20 0xFFFFFFFFFFFFFFFFFFFFFFFFFFFFFFFFFFFFFFFF AND MUL OR SWAP1 SSTORE POP DUP2 PUSH1 0x2 PUSH1 0x0 PUSH2 0x100 EXP DUP2 SLOAD DUP2 PUSH20 0xFFFFFFFFFFFFFFFFFFFFFFFFFFFFFFFFFFFFFFFF MUL NOT AND SWAP1 DUP4 PUSH20 0xFFFFFFFFFFFFFFFFFFFFFFFFFFFFFFFFFFFFFFFF AND MUL OR SWAP1 SSTORE POP DUP1 PUSH1 0x1 PUSH1 0x0 PUSH2 0x100 EXP DUP2 SLOAD DUP2 PUSH20 0xFFFFFFFFFFFFFFFFFFFFFFFFFFFFFFFFFFFFFFFF MUL NOT AND SWAP1 DUP4 PUSH20 0xFFFFFFFFFFFFFFFFFFFFFFFFFFFFFFFFFFFFFFFF AND MUL OR SWAP1 SSTORE POP POP POP PUSH3 0x1B2 JUMP JUMPDEST PUSH1 0x0 DUP2 MLOAD SWAP1 POP PUSH3 0x112 DUP2 PUSH3 0x198 JUMP JUMPDEST SWAP3 SWAP2 POP POP JUMP JUMPDEST PUSH1 0x0 DUP1 PUSH1 0x40 DUP4 DUP6 SUB SLT ISZERO PUSH3 0x132 JUMPI PUSH3 0x131 PUSH3 0x193 JUMP JUMPDEST JUMPDEST PUSH1 0x0 PUSH3 0x142 DUP6 DUP3 DUP7 ADD PUSH3 0x101 JUMP JUMPDEST SWAP3 POP POP PUSH1 0x20 PUSH3 0x155 DUP6 DUP3 DUP7 ADD PUSH3 0x101 JUMP JUMPDEST SWAP2 POP POP SWAP3 POP SWAP3 SWAP1 POP JUMP JUMPDEST PUSH1 0x0 PUSH3 0x16C DUP3 PUSH3 0x173 JUMP JUMPDEST SWAP1 POP SWAP2 SWAP1 POP JUMP JUMPDEST PUSH1 0x0 PUSH20 0xFFFFFFFFFFFFFFFFFFFFFFFFFFFFFFFFFFFFFFFF DUP3 AND SWAP1 POP SWAP2 SWAP1 POP JUMP JUMPDEST PUSH1 0x0 DUP1 REVERT JUMPDEST PUSH3 0x1A3 DUP2 PUSH3 0x15F JUMP JUMPDEST DUP2 EQ PUSH3 0x1AF JUMPI PUSH1 0x0 DUP1 REVERT JUMPDEST POP JUMP JUMPDEST PUSH2 0x11E8 DUP1 PUSH3 0x1C2 PUSH1 0x0 CODECOPY PUSH1 0x0 RETURN INVALID PUSH1 0x80 PUSH1 0x40 MSTORE CALLVALUE DUP1 ISZERO PUSH2 0x10 JUMPI PUSH1 0x0 DUP1 REVERT JUMPDEST POP PUSH1 0x4 CALLDATASIZE LT PUSH2 0x9E JUMPI PUSH1 0x0 CALLDATALOAD PUSH1 0xE0 SHR DUP1 PUSH4 0xE638DED3 GT PUSH2 0x66 JUMPI DUP1 PUSH4 0xE638DED3 EQ PUSH2 0x157 JUMPI DUP1 PUSH4 0xEC1DE0C2 EQ PUSH2 0x173 JUMPI DUP1 PUSH4 0xF23A6E61 EQ PUSH2 0x191 JUMPI DUP1 PUSH4 0xF61A2EA8 EQ PUSH2 0x1C1 JUMPI DUP1 PUSH4 0xF851A440 EQ PUSH2 0x1F1 JUMPI PUSH2 0x9E JUMP JUMPDEST DUP1 PUSH4 0x1FFC9A7 EQ PUSH2 0xA3 JUMPI DUP1 PUSH4 0x21D7DC3D EQ PUSH2 0xD3 JUMPI DUP1 PUSH4 0x7DB31711 EQ PUSH2 0xEF JUMPI DUP1 PUSH4 0xAE90235A EQ PUSH2 0x10B JUMPI DUP1 PUSH4 0xBC197C81 EQ PUSH2 0x127 JUMPI JUMPDEST PUSH1 0x0 DUP1 REVERT JUMPDEST PUSH2 0xBD PUSH1 0x4 DUP1 CALLDATASIZE SUB DUP2 ADD SWAP1 PUSH2 0xB8 SWAP2 SWAP1 PUSH2 0xAF4 JUMP JUMPDEST PUSH2 0x20F JUMP JUMPDEST PUSH1 0x40 MLOAD PUSH2 0xCA SWAP2 SWAP1 PUSH2 0xD72 JUMP JUMPDEST PUSH1 0x40 MLOAD DUP1 SWAP2 SUB SWAP1 RETURN JUMPDEST PUSH2 0xED PUSH1 0x4 DUP1 CALLDATASIZE SUB DUP2 ADD SWAP1 PUSH2 0xE8 SWAP2 SWAP1 PUSH2 0xB7B JUMP JUMPDEST PUSH2 0x289 JUMP JUMPDEST STOP JUMPDEST PUSH2 0x109 PUSH1 0x4 DUP1 CALLDATASIZE SUB DUP2 ADD SWAP1 PUSH2 0x104 SWAP2 SWAP1 PUSH2 0xB21 JUMP JUMPDEST PUSH2 0x4BD JUMP JUMPDEST STOP JUMPDEST PUSH2 0x125 PUSH1 0x4 DUP1 CALLDATASIZE SUB DUP2 ADD SWAP1 PUSH2 0x120 SWAP2 SWAP1 PUSH2 0x961 JUMP JUMPDEST PUSH2 0x554 JUMP JUMPDEST STOP JUMPDEST PUSH2 0x141 PUSH1 0x4 DUP1 CALLDATASIZE SUB DUP2 ADD SWAP1 PUSH2 0x13C SWAP2 SWAP1 PUSH2 0x98E JUMP JUMPDEST PUSH2 0x626 JUMP JUMPDEST PUSH1 0x40 MLOAD PUSH2 0x14E SWAP2 SWAP1 PUSH2 0xD8D JUMP JUMPDEST PUSH1 0x40 MLOAD DUP1 SWAP2 SUB SWAP1 RETURN JUMPDEST PUSH2 0x171 PUSH1 0x4 DUP1 CALLDATASIZE SUB DUP2 ADD SWAP1 PUSH2 0x16C SWAP2 SWAP1 PUSH2 0x961 JUMP JUMPDEST PUSH2 0x63B JUMP JUMPDEST STOP JUMPDEST PUSH2 0x17B PUSH2 0x70D JUMP JUMPDEST PUSH1 0x40 MLOAD PUSH2 0x188 SWAP2 SWAP1 PUSH2 0xC7E JUMP JUMPDEST PUSH1 0x40 MLOAD DUP1 SWAP2 SUB SWAP1 RETURN JUMPDEST PUSH2 0x1AB PUSH1 0x4 DUP1 CALLDATASIZE SUB DUP2 ADD SWAP1 PUSH2 0x1A6 SWAP2 SWAP1 PUSH2 0xA5D JUMP JUMPDEST PUSH2 0x715 JUMP JUMPDEST PUSH1 0x40 MLOAD PUSH2 0x1B8 SWAP2 SWAP1 PUSH2 0xD8D JUMP JUMPDEST PUSH1 0x40 MLOAD DUP1 SWAP2 SUB SWAP1 RETURN JUMPDEST PUSH2 0x1DB PUSH1 0x4 DUP1 CALLDATASIZE SUB DUP2 ADD SWAP1 PUSH2 0x1D6 SWAP2 SWAP1 PUSH2 0xB21 JUMP JUMPDEST PUSH2 0x72A JUMP JUMPDEST PUSH1 0x40 MLOAD PUSH2 0x1E8 SWAP2 SWAP1 PUSH2 0xDE8 JUMP JUMPDEST PUSH1 0x40 MLOAD DUP1 SWAP2 SUB SWAP1 RETURN JUMPDEST PUSH2 0x1F9 PUSH2 0x771 JUMP JUMPDEST PUSH1 0x40 MLOAD PUSH2 0x206 SWAP2 SWAP1 PUSH2 0xC7E JUMP JUMPDEST PUSH1 0x40 MLOAD DUP1 SWAP2 SUB SWAP1 RETURN JUMPDEST PUSH1 0x0 PUSH32 0x4E2312E000000000000000000000000000000000000000000000000000000000 PUSH28 0xFFFFFFFFFFFFFFFFFFFFFFFFFFFFFFFFFFFFFFFFFFFFFFFFFFFFFFFF NOT AND DUP3 PUSH28 0xFFFFFFFFFFFFFFFFFFFFFFFFFFFFFFFFFFFFFFFFFFFFFFFFFFFFFFFF NOT AND EQ DUP1 PUSH2 0x282 JUMPI POP PUSH2 0x281 DUP3 PUSH2 0x795 JUMP JUMPDEST JUMPDEST SWAP1 POP SWAP2 SWAP1 POP JUMP JUMPDEST PUSH1 0x0 PUSH2 0x294 DUP4 PUSH2 0x72A JUMP JUMPDEST SWAP1 POP DUP2 DUP2 EQ PUSH2 0x2D8 JUMPI PUSH1 0x40 MLOAD PUSH32 0x8C379A000000000000000000000000000000000000000000000000000000000 DUP2 MSTORE PUSH1 0x4 ADD PUSH2 0x2CF SWAP1 PUSH2 0xDA8 JUMP JUMPDEST PUSH1 0x40 MLOAD DUP1 SWAP2 SUB SWAP1 REVERT JUMPDEST PUSH1 0x1 DUP1 PUSH1 0x0 SWAP1 SLOAD SWAP1 PUSH2 0x100 EXP SWAP1 DIV PUSH20 0xFFFFFFFFFFFFFFFFFFFFFFFFFFFFFFFFFFFFFFFF AND PUSH20 0xFFFFFFFFFFFFFFFFFFFFFFFFFFFFFFFFFFFFFFFF AND PUSH3 0xFDD58E ADDRESS DUP7 PUSH1 0x40 MLOAD DUP4 PUSH4 0xFFFFFFFF AND PUSH1 0xE0 SHL DUP2 MSTORE PUSH1 0x4 ADD PUSH2 0x335 SWAP3 SWAP2 SWAP1 PUSH2 0xD49 JUMP JUMPDEST PUSH1 0x20 PUSH1 0x40 MLOAD DUP1 DUP4 SUB DUP2 DUP7 DUP1 EXTCODESIZE ISZERO DUP1 ISZERO PUSH2 0x34D JUMPI PUSH1 0x0 DUP1 REVERT JUMPDEST POP GAS STATICCALL ISZERO DUP1 ISZERO PUSH2 0x361 JUMPI RETURNDATASIZE PUSH1 0x0 DUP1 RETURNDATACOPY RETURNDATASIZE PUSH1 0x0 REVERT JUMPDEST POP POP POP POP PUSH1 0x40 MLOAD RETURNDATASIZE PUSH1 0x1F NOT PUSH1 0x1F DUP3 ADD AND DUP3 ADD DUP1 PUSH1 0x40 MSTORE POP DUP2 ADD SWAP1 PUSH2 0x385 SWAP2 SWAP1 PUSH2 0xB4E JUMP JUMPDEST LT ISZERO PUSH2 0x390 JUMPI PUSH1 0x0 DUP1 REVERT JUMPDEST PUSH1 0x2 PUSH1 0x0 SWAP1 SLOAD SWAP1 PUSH2 0x100 EXP SWAP1 DIV PUSH20 0xFFFFFFFFFFFFFFFFFFFFFFFFFFFFFFFFFFFFFFFF AND PUSH20 0xFFFFFFFFFFFFFFFFFFFFFFFFFFFFFFFFFFFFFFFF AND PUSH4 0xF242432A CALLER ADDRESS PUSH1 0x0 DUP7 PUSH1 0x40 MLOAD DUP6 PUSH4 0xFFFFFFFF AND PUSH1 0xE0 SHL DUP2 MSTORE PUSH1 0x4 ADD PUSH2 0x3F2 SWAP5 SWAP4 SWAP3 SWAP2 SWAP1 PUSH2 0xC99 JUMP JUMPDEST PUSH1 0x0 PUSH1 0x40 MLOAD DUP1 DUP4 SUB DUP2 PUSH1 0x0 DUP8 DUP1 EXTCODESIZE ISZERO DUP1 ISZERO PUSH2 0x40C JUMPI PUSH1 0x0 DUP1 REVERT JUMPDEST POP GAS CALL ISZERO DUP1 ISZERO PUSH2 0x420 JUMPI RETURNDATASIZE PUSH1 0x0 DUP1 RETURNDATACOPY RETURNDATASIZE PUSH1 0x0 REVERT JUMPDEST POP POP POP POP PUSH1 0x1 PUSH1 0x0 SWAP1 SLOAD SWAP1 PUSH2 0x100 EXP SWAP1 DIV PUSH20 0xFFFFFFFFFFFFFFFFFFFFFFFFFFFFFFFFFFFFFFFF AND PUSH20 0xFFFFFFFFFFFFFFFFFFFFFFFFFFFFFFFFFFFFFFFF AND PUSH4 0xF242432A ADDRESS CALLER DUP7 PUSH1 0x1 PUSH1 0x40 MLOAD DUP6 PUSH4 0xFFFFFFFF AND PUSH1 0xE0 SHL DUP2 MSTORE PUSH1 0x4 ADD PUSH2 0x486 SWAP5 SWAP4 SWAP3 SWAP2 SWAP1 PUSH2 0xCF1 JUMP JUMPDEST PUSH1 0x0 PUSH1 0x40 MLOAD DUP1 DUP4 SUB DUP2 PUSH1 0x0 DUP8 DUP1 EXTCODESIZE ISZERO DUP1 ISZERO PUSH2 0x4A0 JUMPI PUSH1 0x0 DUP1 REVERT JUMPDEST POP GAS CALL ISZERO DUP1 ISZERO PUSH2 0x4B4 JUMPI RETURNDATASIZE PUSH1 0x0 DUP1 RETURNDATACOPY RETURNDATASIZE PUSH1 0x0 REVERT JUMPDEST POP POP POP POP POP POP POP JUMP JUMPDEST PUSH1 0x1 PUSH1 0x0 SWAP1 SLOAD SWAP1 PUSH2 0x100 EXP SWAP1 DIV PUSH20 0xFFFFFFFFFFFFFFFFFFFFFFFFFFFFFFFFFFFFFFFF AND PUSH20 0xFFFFFFFFFFFFFFFFFFFFFFFFFFFFFFFFFFFFFFFF AND PUSH4 0xF242432A ADDRESS CALLER DUP5 PUSH1 0x1 PUSH1 0x40 MLOAD DUP6 PUSH4 0xFFFFFFFF AND PUSH1 0xE0 SHL DUP2 MSTORE PUSH1 0x4 ADD PUSH2 0x51F SWAP5 SWAP4 SWAP3 SWAP2 SWAP1 PUSH2 0xCF1 JUMP JUMPDEST PUSH1 0x0 PUSH1 0x40 MLOAD DUP1 DUP4 SUB DUP2 PUSH1 0x0 DUP8 DUP1 EXTCODESIZE ISZERO DUP1 ISZERO PUSH2 0x539 JUMPI PUSH1 0x0 DUP1 REVERT JUMPDEST POP GAS CALL ISZERO DUP1 ISZERO PUSH2 0x54D JUMPI RETURNDATASIZE PUSH1 0x0 DUP1 RETURNDATACOPY RETURNDATASIZE PUSH1 0x0 REVERT JUMPDEST POP POP POP POP POP JUMP JUMPDEST PUSH1 0x0 DUP1 SLOAD SWAP1 PUSH2 0x100 EXP SWAP1 DIV PUSH20 0xFFFFFFFFFFFFFFFFFFFFFFFFFFFFFFFFFFFFFFFF AND PUSH20 0xFFFFFFFFFFFFFFFFFFFFFFFFFFFFFFFFFFFFFFFF AND CALLER PUSH20 0xFFFFFFFFFFFFFFFFFFFFFFFFFFFFFFFFFFFFFFFF AND EQ PUSH2 0x5E2 JUMPI PUSH1 0x40 MLOAD PUSH32 0x8C379A000000000000000000000000000000000000000000000000000000000 DUP2 MSTORE PUSH1 0x4 ADD PUSH2 0x5D9 SWAP1 PUSH2 0xDC8 JUMP JUMPDEST PUSH1 0x40 MLOAD DUP1 SWAP2 SUB SWAP1 REVERT JUMPDEST DUP1 PUSH1 0x1 PUSH1 0x0 PUSH2 0x100 EXP DUP2 SLOAD DUP2 PUSH20 0xFFFFFFFFFFFFFFFFFFFFFFFFFFFFFFFFFFFFFFFF MUL NOT AND SWAP1 DUP4 PUSH20 0xFFFFFFFFFFFFFFFFFFFFFFFFFFFFFFFFFFFFFFFF AND MUL OR SWAP1 SSTORE POP POP JUMP JUMPDEST PUSH1 0x0 PUSH4 0xBC197C81 PUSH1 0xE0 SHL SWAP1 POP SWAP6 SWAP5 POP POP POP POP POP JUMP JUMPDEST PUSH1 0x0 DUP1 SLOAD SWAP1 PUSH2 0x100 EXP SWAP1 DIV PUSH20 0xFFFFFFFFFFFFFFFFFFFFFFFFFFFFFFFFFFFFFFFF AND PUSH20 0xFFFFFFFFFFFFFFFFFFFFFFFFFFFFFFFFFFFFFFFF AND CALLER PUSH20 0xFFFFFFFFFFFFFFFFFFFFFFFFFFFFFFFFFFFFFFFF AND EQ PUSH2 0x6C9 JUMPI PUSH1 0x40 MLOAD PUSH32 0x8C379A000000000000000000000000000000000000000000000000000000000 DUP2 MSTORE PUSH1 0x4 ADD PUSH2 0x6C0 SWAP1 PUSH2 0xDC8 JUMP JUMPDEST PUSH1 0x40 MLOAD DUP1 SWAP2 SUB SWAP1 REVERT JUMPDEST DUP1 PUSH1 0x2 PUSH1 0x0 PUSH2 0x100 EXP DUP2 SLOAD DUP2 PUSH20 0xFFFFFFFFFFFFFFFFFFFFFFFFFFFFFFFFFFFFFFFF MUL NOT AND SWAP1 DUP4 PUSH20 0xFFFFFFFFFFFFFFFFFFFFFFFFFFFFFFFFFFFFFFFF AND MUL OR SWAP1 SSTORE POP POP JUMP JUMPDEST PUSH1 0x0 ADDRESS SWAP1 POP SWAP1 JUMP JUMPDEST PUSH1 0x0 PUSH4 0xF23A6E61 PUSH1 0xE0 SHL SWAP1 POP SWAP6 SWAP5 POP POP POP POP POP JUMP JUMPDEST PUSH1 0x0 DUP1 PUSH1 0x64 DUP4 PUSH2 0x73A SWAP2 SWAP1 PUSH2 0xEA7 JUMP JUMPDEST SWAP1 POP PUSH1 0x0 PUSH4 0x5F5E100 DUP3 PUSH2 0x74E SWAP2 SWAP1 PUSH2 0x100A JUMP JUMPDEST SWAP1 POP PUSH1 0x0 PUSH6 0x5AF3107A4000 DUP3 PUSH2 0x764 SWAP2 SWAP1 PUSH2 0xED8 JUMP JUMPDEST SWAP1 POP DUP1 SWAP4 POP POP POP POP SWAP2 SWAP1 POP JUMP JUMPDEST PUSH1 0x0 DUP1 SLOAD SWAP1 PUSH2 0x100 EXP SWAP1 DIV PUSH20 0xFFFFFFFFFFFFFFFFFFFFFFFFFFFFFFFFFFFFFFFF AND DUP2 JUMP JUMPDEST PUSH1 0x0 PUSH32 0x1FFC9A700000000000000000000000000000000000000000000000000000000 PUSH28 0xFFFFFFFFFFFFFFFFFFFFFFFFFFFFFFFFFFFFFFFFFFFFFFFFFFFFFFFF NOT AND DUP3 PUSH28 0xFFFFFFFFFFFFFFFFFFFFFFFFFFFFFFFFFFFFFFFFFFFFFFFFFFFFFFFF NOT AND EQ SWAP1 POP SWAP2 SWAP1 POP JUMP JUMPDEST PUSH1 0x0 PUSH2 0x812 PUSH2 0x80D DUP5 PUSH2 0xE28 JUMP JUMPDEST PUSH2 0xE03 JUMP JUMPDEST SWAP1 POP DUP1 DUP4 DUP3 MSTORE PUSH1 0x20 DUP3 ADD SWAP1 POP DUP3 DUP6 PUSH1 0x20 DUP7 MUL DUP3 ADD GT ISZERO PUSH2 0x835 JUMPI PUSH2 0x834 PUSH2 0x10CD JUMP JUMPDEST JUMPDEST PUSH1 0x0 JUMPDEST DUP6 DUP2 LT ISZERO PUSH2 0x865 JUMPI DUP2 PUSH2 0x84B DUP9 DUP3 PUSH2 0x937 JUMP JUMPDEST DUP5 MSTORE PUSH1 0x20 DUP5 ADD SWAP4 POP PUSH1 0x20 DUP4 ADD SWAP3 POP POP PUSH1 0x1 DUP2 ADD SWAP1 POP PUSH2 0x838 JUMP JUMPDEST POP POP POP SWAP4 SWAP3 POP POP POP JUMP JUMPDEST PUSH1 0x0 PUSH2 0x882 PUSH2 0x87D DUP5 PUSH2 0xE54 JUMP JUMPDEST PUSH2 0xE03 JUMP JUMPDEST SWAP1 POP DUP3 DUP2 MSTORE PUSH1 0x20 DUP2 ADD DUP5 DUP5 DUP5 ADD GT ISZERO PUSH2 0x89E JUMPI PUSH2 0x89D PUSH2 0x10D2 JUMP JUMPDEST JUMPDEST PUSH2 0x8A9 DUP5 DUP3 DUP6 PUSH2 0xFCA JUMP JUMPDEST POP SWAP4 SWAP3 POP POP POP JUMP JUMPDEST PUSH1 0x0 DUP2 CALLDATALOAD SWAP1 POP PUSH2 0x8C0 DUP2 PUSH2 0x116D JUMP JUMPDEST SWAP3 SWAP2 POP POP JUMP JUMPDEST PUSH1 0x0 DUP3 PUSH1 0x1F DUP4 ADD SLT PUSH2 0x8DB JUMPI PUSH2 0x8DA PUSH2 0x10C8 JUMP JUMPDEST JUMPDEST DUP2 CALLDATALOAD PUSH2 0x8EB DUP5 DUP3 PUSH1 0x20 DUP7 ADD PUSH2 0x7FF JUMP JUMPDEST SWAP2 POP POP SWAP3 SWAP2 POP POP JUMP JUMPDEST PUSH1 0x0 DUP2 CALLDATALOAD SWAP1 POP PUSH2 0x903 DUP2 PUSH2 0x1184 JUMP JUMPDEST SWAP3 SWAP2 POP POP JUMP JUMPDEST PUSH1 0x0 DUP3 PUSH1 0x1F DUP4 ADD SLT PUSH2 0x91E JUMPI PUSH2 0x91D PUSH2 0x10C8 JUMP JUMPDEST JUMPDEST DUP2 CALLDATALOAD PUSH2 0x92E DUP5 DUP3 PUSH1 0x20 DUP7 ADD PUSH2 0x86F JUMP JUMPDEST SWAP2 POP POP SWAP3 SWAP2 POP POP JUMP JUMPDEST PUSH1 0x0 DUP2 CALLDATALOAD SWAP1 POP PUSH2 0x946 DUP2 PUSH2 0x119B JUMP JUMPDEST SWAP3 SWAP2 POP POP JUMP JUMPDEST PUSH1 0x0 DUP2 MLOAD SWAP1 POP PUSH2 0x95B DUP2 PUSH2 0x119B JUMP JUMPDEST SWAP3 SWAP2 POP POP JUMP JUMPDEST PUSH1 0x0 PUSH1 0x20 DUP3 DUP5 SUB SLT ISZERO PUSH2 0x977 JUMPI PUSH2 0x976 PUSH2 0x10DC JUMP JUMPDEST JUMPDEST PUSH1 0x0 PUSH2 0x985 DUP5 DUP3 DUP6 ADD PUSH2 0x8B1 JUMP JUMPDEST SWAP2 POP POP SWAP3 SWAP2 POP POP JUMP JUMPDEST PUSH1 0x0 DUP1 PUSH1 0x0 DUP1 PUSH1 0x0 PUSH1 0xA0 DUP7 DUP9 SUB SLT ISZERO PUSH2 0x9AA JUMPI PUSH2 0x9A9 PUSH2 0x10DC JUMP JUMPDEST JUMPDEST PUSH1 0x0 PUSH2 0x9B8 DUP9 DUP3 DUP10 ADD PUSH2 0x8B1 JUMP JUMPDEST SWAP6 POP POP PUSH1 0x20 PUSH2 0x9C9 DUP9 DUP3 DUP10 ADD PUSH2 0x8B1 JUMP JUMPDEST SWAP5 POP POP PUSH1 0x40 DUP7 ADD CALLDATALOAD PUSH8 0xFFFFFFFFFFFFFFFF DUP2 GT ISZERO PUSH2 0x9EA JUMPI PUSH2 0x9E9 PUSH2 0x10D7 JUMP JUMPDEST JUMPDEST PUSH2 0x9F6 DUP9 DUP3 DUP10 ADD PUSH2 0x8C6 JUMP JUMPDEST SWAP4 POP POP PUSH1 0x60 DUP7 ADD CALLDATALOAD PUSH8 0xFFFFFFFFFFFFFFFF DUP2 GT ISZERO PUSH2 0xA17 JUMPI PUSH2 0xA16 PUSH2 0x10D7 JUMP JUMPDEST JUMPDEST PUSH2 0xA23 DUP9 DUP3 DUP10 ADD PUSH2 0x8C6 JUMP JUMPDEST SWAP3 POP POP PUSH1 0x80 DUP7 ADD CALLDATALOAD PUSH8 0xFFFFFFFFFFFFFFFF DUP2 GT ISZERO PUSH2 0xA44 JUMPI PUSH2 0xA43 PUSH2 0x10D7 JUMP JUMPDEST JUMPDEST PUSH2 0xA50 DUP9 DUP3 DUP10 ADD PUSH2 0x909 JUMP JUMPDEST SWAP2 POP POP SWAP3 SWAP6 POP SWAP3 SWAP6 SWAP1 SWAP4 POP JUMP JUMPDEST PUSH1 0x0 DUP1 PUSH1 0x0 DUP1 PUSH1 0x0 PUSH1 0xA0 DUP7 DUP9 SUB SLT ISZERO PUSH2 0xA79 JUMPI PUSH2 0xA78 PUSH2 0x10DC JUMP JUMPDEST JUMPDEST PUSH1 0x0 PUSH2 0xA87 DUP9 DUP3 DUP10 ADD PUSH2 0x8B1 JUMP JUMPDEST SWAP6 POP POP PUSH1 0x20 PUSH2 0xA98 DUP9 DUP3 DUP10 ADD PUSH2 0x8B1 JUMP JUMPDEST SWAP5 POP POP PUSH1 0x40 PUSH2 0xAA9 DUP9 DUP3 DUP10 ADD PUSH2 0x937 JUMP JUMPDEST SWAP4 POP POP PUSH1 0x60 PUSH2 0xABA DUP9 DUP3 DUP10 ADD PUSH2 0x937 JUMP JUMPDEST SWAP3 POP POP PUSH1 0x80 DUP7 ADD CALLDATALOAD PUSH8 0xFFFFFFFFFFFFFFFF DUP2 GT ISZERO PUSH2 0xADB JUMPI PUSH2 0xADA PUSH2 0x10D7 JUMP JUMPDEST JUMPDEST PUSH2 0xAE7 DUP9 DUP3 DUP10 ADD PUSH2 0x909 JUMP JUMPDEST SWAP2 POP POP SWAP3 SWAP6 POP SWAP3 SWAP6 SWAP1 SWAP4 POP JUMP JUMPDEST PUSH1 0x0 PUSH1 0x20 DUP3 DUP5 SUB SLT ISZERO PUSH2 0xB0A JUMPI PUSH2 0xB09 PUSH2 0x10DC JUMP JUMPDEST JUMPDEST PUSH1 0x0 PUSH2 0xB18 DUP5 DUP3 DUP6 ADD PUSH2 0x8F4 JUMP JUMPDEST SWAP2 POP POP SWAP3 SWAP2 POP POP JUMP JUMPDEST PUSH1 0x0 PUSH1 0x20 DUP3 DUP5 SUB SLT ISZERO PUSH2 0xB37 JUMPI PUSH2 0xB36 PUSH2 0x10DC JUMP JUMPDEST JUMPDEST PUSH1 0x0 PUSH2 0xB45 DUP5 DUP3 DUP6 ADD PUSH2 0x937 JUMP JUMPDEST SWAP2 POP POP SWAP3 SWAP2 POP POP JUMP JUMPDEST PUSH1 0x0 PUSH1 0x20 DUP3 DUP5 SUB SLT ISZERO PUSH2 0xB64 JUMPI PUSH2 0xB63 PUSH2 0x10DC JUMP JUMPDEST JUMPDEST PUSH1 0x0 PUSH2 0xB72 DUP5 DUP3 DUP6 ADD PUSH2 0x94C JUMP JUMPDEST SWAP2 POP POP SWAP3 SWAP2 POP POP JUMP JUMPDEST PUSH1 0x0 DUP1 PUSH1 0x40 DUP4 DUP6 SUB SLT ISZERO PUSH2 0xB92 JUMPI PUSH2 0xB91 PUSH2 0x10DC JUMP JUMPDEST JUMPDEST PUSH1 0x0 PUSH2 0xBA0 DUP6 DUP3 DUP7 ADD PUSH2 0x937 JUMP JUMPDEST SWAP3 POP POP PUSH1 0x20 PUSH2 0xBB1 DUP6 DUP3 DUP7 ADD PUSH2 0x937 JUMP JUMPDEST SWAP2 POP POP SWAP3 POP SWAP3 SWAP1 POP JUMP JUMPDEST PUSH2 0xBC4 DUP2 PUSH2 0xF32 JUMP JUMPDEST DUP3 MSTORE POP POP JUMP JUMPDEST PUSH2 0xBD3 DUP2 PUSH2 0xF44 JUMP JUMPDEST DUP3 MSTORE POP POP JUMP JUMPDEST PUSH2 0xBE2 DUP2 PUSH2 0xF50 JUMP JUMPDEST DUP3 MSTORE POP POP JUMP JUMPDEST PUSH2 0xBF1 DUP2 PUSH2 0xFA6 JUMP JUMPDEST DUP3 MSTORE POP POP JUMP JUMPDEST PUSH2 0xC00 DUP2 PUSH2 0xFB8 JUMP JUMPDEST DUP3 MSTORE POP POP JUMP JUMPDEST PUSH1 0x0 PUSH2 0xC13 PUSH1 0x28 DUP4 PUSH2 0xE96 JUMP JUMPDEST SWAP2 POP PUSH2 0xC1E DUP3 PUSH2 0x10F2 JUMP JUMPDEST PUSH1 0x40 DUP3 ADD SWAP1 POP SWAP2 SWAP1 POP JUMP JUMPDEST PUSH1 0x0 PUSH2 0xC36 PUSH1 0x0 DUP4 PUSH2 0xE85 JUMP JUMPDEST SWAP2 POP PUSH2 0xC41 DUP3 PUSH2 0x1141 JUMP JUMPDEST PUSH1 0x0 DUP3 ADD SWAP1 POP SWAP2 SWAP1 POP JUMP JUMPDEST PUSH1 0x0 PUSH2 0xC59 PUSH1 0x20 DUP4 PUSH2 0xE96 JUMP JUMPDEST SWAP2 POP PUSH2 0xC64 DUP3 PUSH2 0x1144 JUMP JUMPDEST PUSH1 0x20 DUP3 ADD SWAP1 POP SWAP2 SWAP1 POP JUMP JUMPDEST PUSH2 0xC78 DUP2 PUSH2 0xF9C JUMP JUMPDEST DUP3 MSTORE POP POP JUMP JUMPDEST PUSH1 0x0 PUSH1 0x20 DUP3 ADD SWAP1 POP PUSH2 0xC93 PUSH1 0x0 DUP4 ADD DUP5 PUSH2 0xBBB JUMP JUMPDEST SWAP3 SWAP2 POP POP JUMP JUMPDEST PUSH1 0x0 PUSH1 0xA0 DUP3 ADD SWAP1 POP PUSH2 0xCAE PUSH1 0x0 DUP4 ADD DUP8 PUSH2 0xBBB JUMP JUMPDEST PUSH2 0xCBB PUSH1 0x20 DUP4 ADD DUP7 PUSH2 0xBBB JUMP JUMPDEST PUSH2 0xCC8 PUSH1 0x40 DUP4 ADD DUP6 PUSH2 0xBE8 JUMP JUMPDEST PUSH2 0xCD5 PUSH1 0x60 DUP4 ADD DUP5 PUSH2 0xC6F JUMP JUMPDEST DUP2 DUP2 SUB PUSH1 0x80 DUP4 ADD MSTORE PUSH2 0xCE6 DUP2 PUSH2 0xC29 JUMP JUMPDEST SWAP1 POP SWAP6 SWAP5 POP POP POP POP POP JUMP JUMPDEST PUSH1 0x0 PUSH1 0xA0 DUP3 ADD SWAP1 POP PUSH2 0xD06 PUSH1 0x0 DUP4 ADD DUP8 PUSH2 0xBBB JUMP JUMPDEST PUSH2 0xD13 PUSH1 0x20 DUP4 ADD DUP7 PUSH2 0xBBB JUMP JUMPDEST PUSH2 0xD20 PUSH1 0x40 DUP4 ADD DUP6 PUSH2 0xC6F JUMP JUMPDEST PUSH2 0xD2D PUSH1 0x60 DUP4 ADD DUP5 PUSH2 0xBF7 JUMP JUMPDEST DUP2 DUP2 SUB PUSH1 0x80 DUP4 ADD MSTORE PUSH2 0xD3E DUP2 PUSH2 0xC29 JUMP JUMPDEST SWAP1 POP SWAP6 SWAP5 POP POP POP POP POP JUMP JUMPDEST PUSH1 0x0 PUSH1 0x40 DUP3 ADD SWAP1 POP PUSH2 0xD5E PUSH1 0x0 DUP4 ADD DUP6 PUSH2 0xBBB JUMP JUMPDEST PUSH2 0xD6B PUSH1 0x20 DUP4 ADD DUP5 PUSH2 0xC6F JUMP JUMPDEST SWAP4 SWAP3 POP POP POP JUMP JUMPDEST PUSH1 0x0 PUSH1 0x20 DUP3 ADD SWAP1 POP PUSH2 0xD87 PUSH1 0x0 DUP4 ADD DUP5 PUSH2 0xBCA JUMP JUMPDEST SWAP3 SWAP2 POP POP JUMP JUMPDEST PUSH1 0x0 PUSH1 0x20 DUP3 ADD SWAP1 POP PUSH2 0xDA2 PUSH1 0x0 DUP4 ADD DUP5 PUSH2 0xBD9 JUMP JUMPDEST SWAP3 SWAP2 POP POP JUMP JUMPDEST PUSH1 0x0 PUSH1 0x20 DUP3 ADD SWAP1 POP DUP2 DUP2 SUB PUSH1 0x0 DUP4 ADD MSTORE PUSH2 0xDC1 DUP2 PUSH2 0xC06 JUMP JUMPDEST SWAP1 POP SWAP2 SWAP1 POP JUMP JUMPDEST PUSH1 0x0 PUSH1 0x20 DUP3 ADD SWAP1 POP DUP2 DUP2 SUB PUSH1 0x0 DUP4 ADD MSTORE PUSH2 0xDE1 DUP2 PUSH2 0xC4C JUMP JUMPDEST SWAP1 POP SWAP2 SWAP1 POP JUMP JUMPDEST PUSH1 0x0 PUSH1 0x20 DUP3 ADD SWAP1 POP PUSH2 0xDFD PUSH1 0x0 DUP4 ADD DUP5 PUSH2 0xC6F JUMP JUMPDEST SWAP3 SWAP2 POP POP JUMP JUMPDEST PUSH1 0x0 PUSH2 0xE0D PUSH2 0xE1E JUMP JUMPDEST SWAP1 POP PUSH2 0xE19 DUP3 DUP3 PUSH2 0xFD9 JUMP JUMPDEST SWAP2 SWAP1 POP JUMP JUMPDEST PUSH1 0x0 PUSH1 0x40 MLOAD SWAP1 POP SWAP1 JUMP JUMPDEST PUSH1 0x0 PUSH8 0xFFFFFFFFFFFFFFFF DUP3 GT ISZERO PUSH2 0xE43 JUMPI PUSH2 0xE42 PUSH2 0x1099 JUMP JUMPDEST JUMPDEST PUSH1 0x20 DUP3 MUL SWAP1 POP PUSH1 0x20 DUP2 ADD SWAP1 POP SWAP2 SWAP1 POP JUMP JUMPDEST PUSH1 0x0 PUSH8 0xFFFFFFFFFFFFFFFF DUP3 GT ISZERO PUSH2 0xE6F JUMPI PUSH2 0xE6E PUSH2 0x1099 JUMP JUMPDEST JUMPDEST PUSH2 0xE78 DUP3 PUSH2 0x10E1 JUMP JUMPDEST SWAP1 POP PUSH1 0x20 DUP2 ADD SWAP1 POP SWAP2 SWAP1 POP JUMP JUMPDEST PUSH1 0x0 DUP3 DUP3 MSTORE PUSH1 0x20 DUP3 ADD SWAP1 POP SWAP3 SWAP2 POP POP JUMP JUMPDEST PUSH1 0x0 DUP3 DUP3 MSTORE PUSH1 0x20 DUP3 ADD SWAP1 POP SWAP3 SWAP2 POP POP JUMP JUMPDEST PUSH1 0x0 PUSH2 0xEB2 DUP3 PUSH2 0xF9C JUMP JUMPDEST SWAP2 POP PUSH2 0xEBD DUP4 PUSH2 0xF9C JUMP JUMPDEST SWAP3 POP DUP3 PUSH2 0xECD JUMPI PUSH2 0xECC PUSH2 0x106A JUMP JUMPDEST JUMPDEST DUP3 DUP3 DIV SWAP1 POP SWAP3 SWAP2 POP POP JUMP JUMPDEST PUSH1 0x0 PUSH2 0xEE3 DUP3 PUSH2 0xF9C JUMP JUMPDEST SWAP2 POP PUSH2 0xEEE DUP4 PUSH2 0xF9C JUMP JUMPDEST SWAP3 POP DUP2 PUSH32 0xFFFFFFFFFFFFFFFFFFFFFFFFFFFFFFFFFFFFFFFFFFFFFFFFFFFFFFFFFFFFFFFF DIV DUP4 GT DUP3 ISZERO ISZERO AND ISZERO PUSH2 0xF27 JUMPI PUSH2 0xF26 PUSH2 0x103B JUMP JUMPDEST JUMPDEST DUP3 DUP3 MUL SWAP1 POP SWAP3 SWAP2 POP POP JUMP JUMPDEST PUSH1 0x0 PUSH2 0xF3D DUP3 PUSH2 0xF7C JUMP JUMPDEST SWAP1 POP SWAP2 SWAP1 POP JUMP JUMPDEST PUSH1 0x0 DUP2 ISZERO ISZERO SWAP1 POP SWAP2 SWAP1 POP JUMP JUMPDEST PUSH1 0x0 PUSH32 0xFFFFFFFF00000000000000000000000000000000000000000000000000000000 DUP3 AND SWAP1 POP SWAP2 SWAP1 POP JUMP JUMPDEST PUSH1 0x0 PUSH20 0xFFFFFFFFFFFFFFFFFFFFFFFFFFFFFFFFFFFFFFFF DUP3 AND SWAP1 POP SWAP2 SWAP1 POP JUMP JUMPDEST PUSH1 0x0 DUP2 SWAP1 POP SWAP2 SWAP1 POP JUMP JUMPDEST PUSH1 0x0 PUSH2 0xFB1 DUP3 PUSH2 0xF9C JUMP JUMPDEST SWAP1 POP SWAP2 SWAP1 POP JUMP JUMPDEST PUSH1 0x0 PUSH2 0xFC3 DUP3 PUSH2 0xF9C JUMP JUMPDEST SWAP1 POP SWAP2 SWAP1 POP JUMP JUMPDEST DUP3 DUP2 DUP4 CALLDATACOPY PUSH1 0x0 DUP4 DUP4 ADD MSTORE POP POP POP JUMP JUMPDEST PUSH2 0xFE2 DUP3 PUSH2 0x10E1 JUMP JUMPDEST DUP2 ADD DUP2 DUP2 LT PUSH8 0xFFFFFFFFFFFFFFFF DUP3 GT OR ISZERO PUSH2 0x1001 JUMPI PUSH2 0x1000 PUSH2 0x1099 JUMP JUMPDEST JUMPDEST DUP1 PUSH1 0x40 MSTORE POP POP POP JUMP JUMPDEST PUSH1 0x0 PUSH2 0x1015 DUP3 PUSH2 0xF9C JUMP JUMPDEST SWAP2 POP PUSH2 0x1020 DUP4 PUSH2 0xF9C JUMP JUMPDEST SWAP3 POP DUP3 PUSH2 0x1030 JUMPI PUSH2 0x102F PUSH2 0x106A JUMP JUMPDEST JUMPDEST DUP3 DUP3 MOD SWAP1 POP SWAP3 SWAP2 POP POP JUMP JUMPDEST PUSH32 0x4E487B7100000000000000000000000000000000000000000000000000000000 PUSH1 0x0 MSTORE PUSH1 0x11 PUSH1 0x4 MSTORE PUSH1 0x24 PUSH1 0x0 REVERT JUMPDEST PUSH32 0x4E487B7100000000000000000000000000000000000000000000000000000000 PUSH1 0x0 MSTORE PUSH1 0x12 PUSH1 0x4 MSTORE PUSH1 0x24 PUSH1 0x0 REVERT JUMPDEST PUSH32 0x4E487B7100000000000000000000000000000000000000000000000000000000 PUSH1 0x0 MSTORE PUSH1 0x41 PUSH1 0x4 MSTORE PUSH1 0x24 PUSH1 0x0 REVERT JUMPDEST PUSH1 0x0 DUP1 REVERT JUMPDEST PUSH1 0x0 DUP1 REVERT JUMPDEST PUSH1 0x0 DUP1 REVERT JUMPDEST PUSH1 0x0 DUP1 REVERT JUMPDEST PUSH1 0x0 DUP1 REVERT JUMPDEST PUSH1 0x0 PUSH1 0x1F NOT PUSH1 0x1F DUP4 ADD AND SWAP1 POP SWAP2 SWAP1 POP JUMP JUMPDEST PUSH32 0x56616C75652073656E7420646F6573206E6F74206D6174636820726571756972 PUSH1 0x0 DUP3 ADD MSTORE PUSH32 0x65642076616C7565000000000000000000000000000000000000000000000000 PUSH1 0x20 DUP3 ADD MSTORE POP JUMP JUMPDEST POP JUMP JUMPDEST PUSH32 0x4F6E6C792041646D696E2063616E20706572666F726D20746869732063616C6C PUSH1 0x0 DUP3 ADD MSTORE POP JUMP JUMPDEST PUSH2 0x1176 DUP2 PUSH2 0xF32 JUMP JUMPDEST DUP2 EQ PUSH2 0x1181 JUMPI PUSH1 0x0 DUP1 REVERT JUMPDEST POP JUMP JUMPDEST PUSH2 0x118D DUP2 PUSH2 0xF50 JUMP JUMPDEST DUP2 EQ PUSH2 0x1198 JUMPI PUSH1 0x0 DUP1 REVERT JUMPDEST POP JUMP JUMPDEST PUSH2 0x11A4 DUP2 PUSH2 0xF9C JUMP JUMPDEST DUP2 EQ PUSH2 0x11AF JUMPI PUSH1 0x0 DUP1 REVERT JUMPDEST POP JUMP INVALID LOG2 PUSH5 0x6970667358 0x22 SLT KECCAK256 PUSH2 0xB5BC SHR PUSH5 0x39F34A4651 LOG3 SELFDESTRUCT 0xDB PC CALLDATALOAD SWAP1 0xD5 TIMESTAMP MSIZE 0x1F ORIGIN SIGNEXTEND SWAP4 0x5E SWAP3 MUL SAR SLOAD STATICCALL 0xC1 CREATE 0xB7 PUSH5 0x736F6C6343 STOP ADDMOD SMOD STOP CALLER "
		},
		"gasEstimates": {
			"creation": {
				"codeDepositCost": "916800",
				"executionCost": "infinite",
				"totalCost": "infinite"
			},
			"external": {
				"admin()": "2599",
				"buyItems(uint256,uint256)": "infinite",
				"calculateWeiFromSku(uint256)": "infinite",
				"getPBXPShopHolderAddress()": "407",
				"onERC1155BatchReceived(address,address,uint256[],uint256[],bytes)": "infinite",
				"onERC1155Received(address,address,uint256,uint256,bytes)": "infinite",
				"supportsInterface(bytes4)": "728",
				"transferMatchupToken(uint256)": "infinite",
				"updatePBXPTokenAddress(address)": "26889",
				"updateProShopAddress(address)": "26956"
			}
		},
		"methodIdentifiers": {
			"admin()": "f851a440",
			"buyItems(uint256,uint256)": "21d7dc3d",
			"calculateWeiFromSku(uint256)": "f61a2ea8",
			"getPBXPShopHolderAddress()": "ec1de0c2",
			"onERC1155BatchReceived(address,address,uint256[],uint256[],bytes)": "bc197c81",
			"onERC1155Received(address,address,uint256,uint256,bytes)": "f23a6e61",
			"supportsInterface(bytes4)": "01ffc9a7",
			"transferMatchupToken(uint256)": "7db31711",
			"updatePBXPTokenAddress(address)": "e638ded3",
			"updateProShopAddress(address)": "ae90235a"
		}
	},
	"abi": [
		{
			"inputs": [
				{
					"internalType": "address",
					"name": "_pbxpAddress",
					"type": "address"
				},
				{
					"internalType": "address",
					"name": "_pbxpShopaddress",
					"type": "address"
				}
			],
			"stateMutability": "nonpayable",
			"type": "constructor"
		},
		{
			"inputs": [],
			"name": "admin",
			"outputs": [
				{
					"internalType": "address",
					"name": "",
					"type": "address"
				}
			],
			"stateMutability": "view",
			"type": "function"
		},
		{
			"inputs": [
				{
					"internalType": "uint256",
					"name": "sku",
					"type": "uint256"
				},
				{
					"internalType": "uint256",
					"name": "value",
					"type": "uint256"
				}
			],
			"name": "buyItems",
			"outputs": [],
			"stateMutability": "nonpayable",
			"type": "function"
		},
		{
			"inputs": [
				{
					"internalType": "uint256",
					"name": "input",
					"type": "uint256"
				}
			],
			"name": "calculateWeiFromSku",
			"outputs": [
				{
					"internalType": "uint256",
					"name": "",
					"type": "uint256"
				}
			],
			"stateMutability": "pure",
			"type": "function"
		},
		{
			"inputs": [],
			"name": "getPBXPShopHolderAddress",
			"outputs": [
				{
					"internalType": "address",
					"name": "",
					"type": "address"
				}
			],
			"stateMutability": "view",
			"type": "function"
		},
		{
			"inputs": [
				{
					"internalType": "address",
					"name": "",
					"type": "address"
				},
				{
					"internalType": "address",
					"name": "",
					"type": "address"
				},
				{
					"internalType": "uint256[]",
					"name": "",
					"type": "uint256[]"
				},
				{
					"internalType": "uint256[]",
					"name": "",
					"type": "uint256[]"
				},
				{
					"internalType": "bytes",
					"name": "",
					"type": "bytes"
				}
			],
			"name": "onERC1155BatchReceived",
			"outputs": [
				{
					"internalType": "bytes4",
					"name": "",
					"type": "bytes4"
				}
			],
			"stateMutability": "nonpayable",
			"type": "function"
		},
		{
			"inputs": [
				{
					"internalType": "address",
					"name": "",
					"type": "address"
				},
				{
					"internalType": "address",
					"name": "",
					"type": "address"
				},
				{
					"internalType": "uint256",
					"name": "",
					"type": "uint256"
				},
				{
					"internalType": "uint256",
					"name": "",
					"type": "uint256"
				},
				{
					"internalType": "bytes",
					"name": "",
					"type": "bytes"
				}
			],
			"name": "onERC1155Received",
			"outputs": [
				{
					"internalType": "bytes4",
					"name": "",
					"type": "bytes4"
				}
			],
			"stateMutability": "nonpayable",
			"type": "function"
		},
		{
			"inputs": [
				{
					"internalType": "bytes4",
					"name": "interfaceId",
					"type": "bytes4"
				}
			],
			"name": "supportsInterface",
			"outputs": [
				{
					"internalType": "bool",
					"name": "",
					"type": "bool"
				}
			],
			"stateMutability": "view",
			"type": "function"
		},
		{
			"inputs": [
				{
					"internalType": "uint256",
					"name": "sku",
					"type": "uint256"
				}
			],
			"name": "transferMatchupToken",
			"outputs": [],
			"stateMutability": "nonpayable",
			"type": "function"
		},
		{
			"inputs": [
				{
					"internalType": "address",
					"name": "_pbxpAddress",
					"type": "address"
				}
			],
			"name": "updatePBXPTokenAddress",
			"outputs": [],
			"stateMutability": "nonpayable",
			"type": "function"
		},
		{
			"inputs": [
				{
					"internalType": "address",
					"name": "_pbxpShopaddress",
					"type": "address"
				}
			],
			"name": "updateProShopAddress",
			"outputs": [],
			"stateMutability": "nonpayable",
			"type": "function"
		}
	]
}