{
  "contractName": "BuddiesICO",
  "abi": [
    {
      "inputs": [
        {
          "internalType": "address",
          "name": "_buddiesCoinAddress",
          "type": "address"
        },
        {
          "internalType": "uint256",
          "name": "_budsPerBNB",
          "type": "uint256"
        }
      ],
      "stateMutability": "nonpayable",
      "type": "constructor"
    },
    {
      "inputs": [],
      "name": "admin",
      "outputs": [
        {
          "internalType": "address",
          "name": "",
          "type": "address"
        }
      ],
      "stateMutability": "view",
      "type": "function",
      "constant": true
    },
    {
      "inputs": [],
      "name": "buddies",
      "outputs": [
        {
          "internalType": "contract IERC20",
          "name": "",
          "type": "address"
        }
      ],
      "stateMutability": "view",
      "type": "function",
      "constant": true
    },
    {
      "inputs": [
        {
          "internalType": "address",
          "name": "_adminAddress",
          "type": "address"
        }
      ],
      "name": "updateAdmin",
      "outputs": [],
      "stateMutability": "nonpayable",
      "type": "function"
    },
    {
      "inputs": [
        {
          "internalType": "uint256",
          "name": "_budsPerBNB",
          "type": "uint256"
        }
      ],
      "name": "updateBudsPerBNB",
      "outputs": [],
      "stateMutability": "nonpayable",
      "type": "function"
    },
    {
      "inputs": [],
      "name": "getBuddiesICOAddress",
      "outputs": [
        {
          "internalType": "address",
          "name": "",
          "type": "address"
        }
      ],
      "stateMutability": "view",
      "type": "function",
      "constant": true
    },
    {
      "inputs": [],
      "name": "getBudsPerBNB",
      "outputs": [
        {
          "internalType": "uint256",
          "name": "",
          "type": "uint256"
        }
      ],
      "stateMutability": "view",
      "type": "function",
      "constant": true
    },
    {
      "inputs": [],
      "name": "getBudsSold",
      "outputs": [
        {
          "internalType": "uint256",
          "name": "",
          "type": "uint256"
        }
      ],
      "stateMutability": "view",
      "type": "function",
      "constant": true
    },
    {
      "inputs": [],
      "name": "getBudsBalance",
      "outputs": [
        {
          "internalType": "uint256",
          "name": "",
          "type": "uint256"
        }
      ],
      "stateMutability": "view",
      "type": "function",
      "constant": true
    },
    {
      "inputs": [],
      "name": "buyBuddies",
      "outputs": [],
      "stateMutability": "payable",
      "type": "function",
      "payable": true
    },
    {
      "inputs": [],
      "name": "getBNBBalance",
      "outputs": [
        {
          "internalType": "uint256",
          "name": "",
          "type": "uint256"
        }
      ],
      "stateMutability": "view",
      "type": "function",
      "constant": true
    },
    {
      "inputs": [
        {
          "internalType": "address payable",
          "name": "_to",
          "type": "address"
        },
        {
          "internalType": "uint256",
          "name": "_amount",
          "type": "uint256"
        }
      ],
      "name": "transferBNB",
      "outputs": [],
      "stateMutability": "nonpayable",
      "type": "function"
    }
  ],
  "bytecode": "0x60806040523480156200001157600080fd5b5060405162000d7338038062000d738339818101604052810190620000379190620000f6565b33600160006101000a81548173ffffffffffffffffffffffffffffffffffffffff021916908373ffffffffffffffffffffffffffffffffffffffff16021790555081600260006101000a81548173ffffffffffffffffffffffffffffffffffffffff021916908373ffffffffffffffffffffffffffffffffffffffff160217905550806000819055505050620001b4565b600081519050620000d98162000180565b92915050565b600081519050620000f0816200019a565b92915050565b6000806040838503121562000110576200010f6200017b565b5b60006200012085828601620000c8565b92505060206200013385828601620000df565b9150509250929050565b60006200014a8262000151565b9050919050565b600073ffffffffffffffffffffffffffffffffffffffff82169050919050565b6000819050919050565b600080fd5b6200018b816200013d565b81146200019757600080fd5b50565b620001a58162000171565b8114620001b157600080fd5b50565b610baf80620001c46000396000f3fe60806040526004361061009c5760003560e01c806387feab7f1161006457806387feab7f14610176578063888ea45d146101a1578063e2f273bd146101ab578063eb17fba3146101d4578063f851a440146101fd578063f89879aa146102285761009c565b806347dcd2df146100a15780634a594c12146100cc5780635583825c146100f75780636cf0fd6e146101225780638491f2141461014b575b600080fd5b3480156100ad57600080fd5b506100b6610253565b6040516100c39190610966565b60405180910390f35b3480156100d857600080fd5b506100e161025c565b6040516100ee919061092b565b60405180910390f35b34801561010357600080fd5b5061010c610282565b6040516101199190610966565b60405180910390f35b34801561012e57600080fd5b506101496004803603810190610144919061083d565b61028c565b005b34801561015757600080fd5b50610160610326565b60405161016d9190610966565b60405180910390f35b34801561018257600080fd5b5061018b6103d8565b60405161019891906108e7565b60405180910390f35b6101a96103e0565b005b3480156101b757600080fd5b506101d260048036038101906101cd91906107a3565b6104cd565b005b3480156101e057600080fd5b506101fb60048036038101906101f691906107d0565b6105a1565b005b34801561020957600080fd5b5061021261067c565b60405161021f91906108e7565b60405180910390f35b34801561023457600080fd5b5061023d6106a2565b60405161024a9190610966565b60405180910390f35b60008054905090565b600260009054906101000a900473ffffffffffffffffffffffffffffffffffffffff1681565b6000600354905090565b3373ffffffffffffffffffffffffffffffffffffffff16600160009054906101000a900473ffffffffffffffffffffffffffffffffffffffff1673ffffffffffffffffffffffffffffffffffffffff161461031c576040517f08c379a000000000000000000000000000000000000000000000000000000000815260040161031390610946565b60405180910390fd5b8060008190555050565b6000600260009054906101000a900473ffffffffffffffffffffffffffffffffffffffff1673ffffffffffffffffffffffffffffffffffffffff166370a08231306040518263ffffffff1660e01b815260040161038391906108e7565b60206040518083038186803b15801561039b57600080fd5b505afa1580156103af573d6000803e3d6000fd5b505050506040513d601f19601f820116820180604052508101906103d3919061086a565b905090565b600030905090565b600034116103ed57600080fd5b600260009054906101000a900473ffffffffffffffffffffffffffffffffffffffff1673ffffffffffffffffffffffffffffffffffffffff1663a9059cbb336000543461043a91906109e8565b6040518363ffffffff1660e01b8152600401610457929190610902565b602060405180830381600087803b15801561047157600080fd5b505af1158015610485573d6000803e3d6000fd5b505050506040513d601f19601f820116820180604052508101906104a99190610810565b50600054346104b891906109e8565b6003546104c59190610992565b600381905550565b3373ffffffffffffffffffffffffffffffffffffffff16600160009054906101000a900473ffffffffffffffffffffffffffffffffffffffff1673ffffffffffffffffffffffffffffffffffffffff161461055d576040517f08c379a000000000000000000000000000000000000000000000000000000000815260040161055490610946565b60405180910390fd5b80600160006101000a81548173ffffffffffffffffffffffffffffffffffffffff021916908373ffffffffffffffffffffffffffffffffffffffff16021790555050565b3373ffffffffffffffffffffffffffffffffffffffff16600160009054906101000a900473ffffffffffffffffffffffffffffffffffffffff1673ffffffffffffffffffffffffffffffffffffffff1614610631576040517f08c379a000000000000000000000000000000000000000000000000000000000815260040161062890610946565b60405180910390fd5b8173ffffffffffffffffffffffffffffffffffffffff166108fc829081150290604051600060405180830381858888f19350505050158015610677573d6000803e3d6000fd5b505050565b600160009054906101000a900473ffffffffffffffffffffffffffffffffffffffff1681565b60003373ffffffffffffffffffffffffffffffffffffffff16600160009054906101000a900473ffffffffffffffffffffffffffffffffffffffff1673ffffffffffffffffffffffffffffffffffffffff1614610734576040517f08c379a000000000000000000000000000000000000000000000000000000000815260040161072b90610946565b60405180910390fd5b47905090565b60008135905061074981610b1d565b92915050565b60008135905061075e81610b34565b92915050565b60008151905061077381610b4b565b92915050565b60008135905061078881610b62565b92915050565b60008151905061079d81610b62565b92915050565b6000602082840312156107b9576107b8610aef565b5b60006107c78482850161073a565b91505092915050565b600080604083850312156107e7576107e6610aef565b5b60006107f58582860161074f565b925050602061080685828601610779565b9150509250929050565b60006020828403121561082657610825610aef565b5b600061083484828501610764565b91505092915050565b60006020828403121561085357610852610aef565b5b600061086184828501610779565b91505092915050565b6000602082840312156108805761087f610aef565b5b600061088e8482850161078e565b91505092915050565b6108a081610a42565b82525050565b6108af81610a9c565b82525050565b60006108c2600183610981565b91506108cd82610af4565b602082019050919050565b6108e181610a92565b82525050565b60006020820190506108fc6000830184610897565b92915050565b60006040820190506109176000830185610897565b61092460208301846108d8565b9392505050565b600060208201905061094060008301846108a6565b92915050565b6000602082019050818103600083015261095f816108b5565b9050919050565b600060208201905061097b60008301846108d8565b92915050565b600082825260208201905092915050565b600061099d82610a92565b91506109a883610a92565b9250827fffffffffffffffffffffffffffffffffffffffffffffffffffffffffffffffff038211156109dd576109dc610ac0565b5b828201905092915050565b60006109f382610a92565b91506109fe83610a92565b9250817fffffffffffffffffffffffffffffffffffffffffffffffffffffffffffffffff0483118215151615610a3757610a36610ac0565b5b828202905092915050565b6000610a4d82610a72565b9050919050565b6000610a5f82610a72565b9050919050565b60008115159050919050565b600073ffffffffffffffffffffffffffffffffffffffff82169050919050565b6000819050919050565b6000610aa782610aae565b9050919050565b6000610ab982610a72565b9050919050565b7f4e487b7100000000000000000000000000000000000000000000000000000000600052601160045260246000fd5b600080fd5b7f6100000000000000000000000000000000000000000000000000000000000000600082015250565b610b2681610a42565b8114610b3157600080fd5b50565b610b3d81610a54565b8114610b4857600080fd5b50565b610b5481610a66565b8114610b5f57600080fd5b50565b610b6b81610a92565b8114610b7657600080fd5b5056fea264697066735822122022dc1594b2e9bab0c3792532053c3a949cac98fb99908e0bfac30e96d09c13ee64736f6c63430008060033",
  "immutableReferences": {},
  "source": "// SPDX-License-Identifier: MIT\r\npragma solidity >=0.4.22 <0.9.0;\r\nimport \"../node_modules/@openzeppelin/contracts/token/ERC20/IERC20.sol\";\r\n\r\ncontract BuddiesICO {\r\n    uint budsPerBNB;\r\n    address public admin;\r\n    IERC20 public buddies;\r\n    uint budsSold;\r\n\r\n    constructor (address _buddiesCoinAddress, uint _budsPerBNB) {\r\n        admin = msg.sender;\r\n        buddies = IERC20(_buddiesCoinAddress);\r\n        budsPerBNB = _budsPerBNB;\r\n    }\r\n\r\n    modifier onlyAdmin() {\r\n        require(admin == msg.sender, \"a\" );\r\n        _;\r\n    }\r\n\r\n    function updateAdmin(address _adminAddress) external onlyAdmin {\r\n        admin = _adminAddress;\r\n    }\r\n\r\n    function updateBudsPerBNB(uint _budsPerBNB) external onlyAdmin {\r\n        budsPerBNB = _budsPerBNB;\r\n    }\r\n\r\n    function getBuddiesICOAddress() external view returns (address) {\r\n        return address(this);\r\n    }\r\n\r\n    function getBudsPerBNB() external view returns (uint) {\r\n        return budsPerBNB;\r\n    }\r\n\r\n     function getBudsSold() external view returns (uint) {\r\n        return budsSold;\r\n    }\r\n\r\n    function getBudsBalance() external view returns (uint) {\r\n        return buddies.balanceOf(address(this));\r\n    }\r\n\r\n    function buyBuddies() external payable {\r\n        require(msg.value > 0);\r\n        buddies.transfer(msg.sender, (msg.value*budsPerBNB));\r\n        budsSold = budsSold + msg.value*budsPerBNB;\r\n    }\r\n\r\n    function getBNBBalance() external view onlyAdmin returns (uint) {\r\n        return address(this).balance;\r\n    }\r\n\r\n    function transferBNB(address payable _to, uint _amount) external onlyAdmin {\r\n        _to.transfer(_amount);\r\n    }\r\n\r\n}\r\n",
  "sourcePath": "D:\\Projects\\puck-buddies\\contracts\\BuddiesISO.sol",
  "compiler": {
    "name": "solc",
    "version": "0.8.6+commit.11564f7e.Emscripten.clang"
  },
  "schemaVersion": "3.4.3",
  "updatedAt": "2021-12-29T02:49:37.279Z",
  "networkType": "ethereum",
  "devdoc": {
    "kind": "dev",
    "methods": {},
    "version": 1
  },
  "userdoc": {
    "kind": "user",
    "methods": {},
    "version": 1
  }
}