{
  "contractName": "BuddiesICO",
  "abi": [
    {
      "inputs": [
        {
          "internalType": "address",
          "name": "_buddiesCoinAddress",
          "type": "address"
        },
        {
          "internalType": "uint256",
          "name": "_budsPerBNB",
          "type": "uint256"
        }
      ],
      "stateMutability": "nonpayable",
      "type": "constructor"
    },
    {
      "inputs": [],
      "name": "admin",
      "outputs": [
        {
          "internalType": "address",
          "name": "",
          "type": "address"
        }
      ],
      "stateMutability": "view",
      "type": "function",
      "constant": true
    },
    {
      "inputs": [],
      "name": "buddies",
      "outputs": [
        {
          "internalType": "contract IERC20",
          "name": "",
          "type": "address"
        }
      ],
      "stateMutability": "view",
      "type": "function",
      "constant": true
    },
    {
      "inputs": [
        {
          "internalType": "address",
          "name": "_adminAddress",
          "type": "address"
        }
      ],
      "name": "updateAdmin",
      "outputs": [],
      "stateMutability": "nonpayable",
      "type": "function"
    },
    {
      "inputs": [
        {
          "internalType": "uint256",
          "name": "_budsPerBNB",
          "type": "uint256"
        }
      ],
      "name": "updateBudsPerBNB",
      "outputs": [],
      "stateMutability": "nonpayable",
      "type": "function"
    },
    {
      "inputs": [],
      "name": "getBuddiesICOAddress",
      "outputs": [
        {
          "internalType": "address",
          "name": "",
          "type": "address"
        }
      ],
      "stateMutability": "view",
      "type": "function",
      "constant": true
    },
    {
      "inputs": [],
      "name": "getBudsPerBNB",
      "outputs": [
        {
          "internalType": "uint256",
          "name": "",
          "type": "uint256"
        }
      ],
      "stateMutability": "view",
      "type": "function",
      "constant": true
    },
    {
      "inputs": [],
      "name": "getBudsSold",
      "outputs": [
        {
          "internalType": "uint256",
          "name": "",
          "type": "uint256"
        }
      ],
      "stateMutability": "view",
      "type": "function",
      "constant": true
    },
    {
      "inputs": [],
      "name": "buyBuddies",
      "outputs": [],
      "stateMutability": "payable",
      "type": "function",
      "payable": true
    },
    {
      "inputs": [],
      "name": "getBNBBalance",
      "outputs": [
        {
          "internalType": "uint256",
          "name": "",
          "type": "uint256"
        }
      ],
      "stateMutability": "view",
      "type": "function",
      "constant": true
    },
    {
      "inputs": [],
      "name": "getBudsBalance",
      "outputs": [
        {
          "internalType": "uint256",
          "name": "",
          "type": "uint256"
        }
      ],
      "stateMutability": "view",
      "type": "function",
      "constant": true
    },
    {
      "inputs": [
        {
          "internalType": "address payable",
          "name": "_to",
          "type": "address"
        },
        {
          "internalType": "uint256",
          "name": "_amount",
          "type": "uint256"
        }
      ],
      "name": "transferBNB",
      "outputs": [],
      "stateMutability": "nonpayable",
      "type": "function"
    },
    {
      "inputs": [
        {
          "internalType": "uint256",
          "name": "_amount",
          "type": "uint256"
        }
      ],
      "name": "transferBUDS",
      "outputs": [],
      "stateMutability": "nonpayable",
      "type": "function"
    }
  ],
  "bytecode": "0x60806040523480156200001157600080fd5b5060405162000eea38038062000eea8339818101604052810190620000379190620000f6565b33600160006101000a81548173ffffffffffffffffffffffffffffffffffffffff021916908373ffffffffffffffffffffffffffffffffffffffff16021790555081600260006101000a81548173ffffffffffffffffffffffffffffffffffffffff021916908373ffffffffffffffffffffffffffffffffffffffff160217905550806000819055505050620001b4565b600081519050620000d98162000180565b92915050565b600081519050620000f0816200019a565b92915050565b6000806040838503121562000110576200010f6200017b565b5b60006200012085828601620000c8565b92505060206200013385828601620000df565b9150509250929050565b60006200014a8262000151565b9050919050565b600073ffffffffffffffffffffffffffffffffffffffff82169050919050565b6000819050919050565b600080fd5b6200018b816200013d565b81146200019757600080fd5b50565b620001a58162000171565b8114620001b157600080fd5b50565b610d2680620001c46000396000f3fe6080604052600436106100a75760003560e01c8063888ea45d11610064578063888ea45d146101ac57806395e03eb4146101b6578063e2f273bd146101df578063eb17fba314610208578063f851a44014610231578063f89879aa1461025c576100a7565b806347dcd2df146100ac5780634a594c12146100d75780635583825c146101025780636cf0fd6e1461012d5780638491f2141461015657806387feab7f14610181575b600080fd5b3480156100b857600080fd5b506100c1610287565b6040516100ce9190610add565b60405180910390f35b3480156100e357600080fd5b506100ec610290565b6040516100f99190610aa2565b60405180910390f35b34801561010e57600080fd5b506101176102b6565b6040516101249190610add565b60405180910390f35b34801561013957600080fd5b50610154600480360381019061014f91906109b4565b6102c0565b005b34801561016257600080fd5b5061016b61035a565b6040516101789190610add565b60405180910390f35b34801561018d57600080fd5b5061019661040c565b6040516101a39190610a5e565b60405180910390f35b6101b4610414565b005b3480156101c257600080fd5b506101dd60048036038101906101d891906109b4565b610501565b005b3480156101eb57600080fd5b506102066004803603810190610201919061091a565b610644565b005b34801561021457600080fd5b5061022f600480360381019061022a9190610947565b610718565b005b34801561023d57600080fd5b506102466107f3565b6040516102539190610a5e565b60405180910390f35b34801561026857600080fd5b50610271610819565b60405161027e9190610add565b60405180910390f35b60008054905090565b600260009054906101000a900473ffffffffffffffffffffffffffffffffffffffff1681565b6000600354905090565b3373ffffffffffffffffffffffffffffffffffffffff16600160009054906101000a900473ffffffffffffffffffffffffffffffffffffffff1673ffffffffffffffffffffffffffffffffffffffff1614610350576040517f08c379a000000000000000000000000000000000000000000000000000000000815260040161034790610abd565b60405180910390fd5b8060008190555050565b6000600260009054906101000a900473ffffffffffffffffffffffffffffffffffffffff1673ffffffffffffffffffffffffffffffffffffffff166370a08231306040518263ffffffff1660e01b81526004016103b79190610a5e565b60206040518083038186803b1580156103cf57600080fd5b505afa1580156103e3573d6000803e3d6000fd5b505050506040513d601f19601f8201168201806040525081019061040791906109e1565b905090565b600030905090565b6000341161042157600080fd5b600260009054906101000a900473ffffffffffffffffffffffffffffffffffffffff1673ffffffffffffffffffffffffffffffffffffffff1663a9059cbb336000543461046e9190610b5f565b6040518363ffffffff1660e01b815260040161048b929190610a79565b602060405180830381600087803b1580156104a557600080fd5b505af11580156104b9573d6000803e3d6000fd5b505050506040513d601f19601f820116820180604052508101906104dd9190610987565b50600054346104ec9190610b5f565b6003546104f99190610b09565b600381905550565b3373ffffffffffffffffffffffffffffffffffffffff16600160009054906101000a900473ffffffffffffffffffffffffffffffffffffffff1673ffffffffffffffffffffffffffffffffffffffff1614610591576040517f08c379a000000000000000000000000000000000000000000000000000000000815260040161058890610abd565b60405180910390fd5b600260009054906101000a900473ffffffffffffffffffffffffffffffffffffffff1673ffffffffffffffffffffffffffffffffffffffff1663a9059cbb33836040518363ffffffff1660e01b81526004016105ee929190610a79565b602060405180830381600087803b15801561060857600080fd5b505af115801561061c573d6000803e3d6000fd5b505050506040513d601f19601f820116820180604052508101906106409190610987565b5050565b3373ffffffffffffffffffffffffffffffffffffffff16600160009054906101000a900473ffffffffffffffffffffffffffffffffffffffff1673ffffffffffffffffffffffffffffffffffffffff16146106d4576040517f08c379a00000000000000000000000000000000000000000000000000000000081526004016106cb90610abd565b60405180910390fd5b80600160006101000a81548173ffffffffffffffffffffffffffffffffffffffff021916908373ffffffffffffffffffffffffffffffffffffffff16021790555050565b3373ffffffffffffffffffffffffffffffffffffffff16600160009054906101000a900473ffffffffffffffffffffffffffffffffffffffff1673ffffffffffffffffffffffffffffffffffffffff16146107a8576040517f08c379a000000000000000000000000000000000000000000000000000000000815260040161079f90610abd565b60405180910390fd5b8173ffffffffffffffffffffffffffffffffffffffff166108fc829081150290604051600060405180830381858888f193505050501580156107ee573d6000803e3d6000fd5b505050565b600160009054906101000a900473ffffffffffffffffffffffffffffffffffffffff1681565b60003373ffffffffffffffffffffffffffffffffffffffff16600160009054906101000a900473ffffffffffffffffffffffffffffffffffffffff1673ffffffffffffffffffffffffffffffffffffffff16146108ab576040517f08c379a00000000000000000000000000000000000000000000000000000000081526004016108a290610abd565b60405180910390fd5b47905090565b6000813590506108c081610c94565b92915050565b6000813590506108d581610cab565b92915050565b6000815190506108ea81610cc2565b92915050565b6000813590506108ff81610cd9565b92915050565b60008151905061091481610cd9565b92915050565b6000602082840312156109305761092f610c66565b5b600061093e848285016108b1565b91505092915050565b6000806040838503121561095e5761095d610c66565b5b600061096c858286016108c6565b925050602061097d858286016108f0565b9150509250929050565b60006020828403121561099d5761099c610c66565b5b60006109ab848285016108db565b91505092915050565b6000602082840312156109ca576109c9610c66565b5b60006109d8848285016108f0565b91505092915050565b6000602082840312156109f7576109f6610c66565b5b6000610a0584828501610905565b91505092915050565b610a1781610bb9565b82525050565b610a2681610c13565b82525050565b6000610a39600183610af8565b9150610a4482610c6b565b602082019050919050565b610a5881610c09565b82525050565b6000602082019050610a736000830184610a0e565b92915050565b6000604082019050610a8e6000830185610a0e565b610a9b6020830184610a4f565b9392505050565b6000602082019050610ab76000830184610a1d565b92915050565b60006020820190508181036000830152610ad681610a2c565b9050919050565b6000602082019050610af26000830184610a4f565b92915050565b600082825260208201905092915050565b6000610b1482610c09565b9150610b1f83610c09565b9250827fffffffffffffffffffffffffffffffffffffffffffffffffffffffffffffffff03821115610b5457610b53610c37565b5b828201905092915050565b6000610b6a82610c09565b9150610b7583610c09565b9250817fffffffffffffffffffffffffffffffffffffffffffffffffffffffffffffffff0483118215151615610bae57610bad610c37565b5b828202905092915050565b6000610bc482610be9565b9050919050565b6000610bd682610be9565b9050919050565b60008115159050919050565b600073ffffffffffffffffffffffffffffffffffffffff82169050919050565b6000819050919050565b6000610c1e82610c25565b9050919050565b6000610c3082610be9565b9050919050565b7f4e487b7100000000000000000000000000000000000000000000000000000000600052601160045260246000fd5b600080fd5b7f6100000000000000000000000000000000000000000000000000000000000000600082015250565b610c9d81610bb9565b8114610ca857600080fd5b50565b610cb481610bcb565b8114610cbf57600080fd5b50565b610ccb81610bdd565b8114610cd657600080fd5b50565b610ce281610c09565b8114610ced57600080fd5b5056fea2646970667358221220d4632a500d0710569b436a8076080ccb1392dfac6a337d2445527997593322d564736f6c63430008060033",
  "immutableReferences": {},
  "source": "// SPDX-License-Identifier: MIT\r\npragma solidity >=0.4.22 <0.9.0;\r\nimport \"../node_modules/@openzeppelin/contracts/token/ERC20/IERC20.sol\";\r\n\r\ncontract BuddiesICO {\r\n    uint budsPerBNB;\r\n    address public admin;\r\n    IERC20 public buddies;\r\n    uint budsSold;\r\n\r\n    constructor (address _buddiesCoinAddress, uint _budsPerBNB) {\r\n        admin = msg.sender;\r\n        buddies = IERC20(_buddiesCoinAddress);\r\n        budsPerBNB = _budsPerBNB;\r\n    }\r\n\r\n    modifier onlyAdmin() {\r\n        require(admin == msg.sender, \"a\" );\r\n        _;\r\n    }\r\n\r\n    function updateAdmin(address _adminAddress) external onlyAdmin {\r\n        admin = _adminAddress;\r\n    }\r\n\r\n    function updateBudsPerBNB(uint _budsPerBNB) external onlyAdmin {\r\n        budsPerBNB = _budsPerBNB;\r\n    }\r\n\r\n    function getBuddiesICOAddress() external view returns (address) {\r\n        return address(this);\r\n    }\r\n\r\n    function getBudsPerBNB() external view returns (uint) {\r\n        return budsPerBNB;\r\n    }\r\n\r\n     function getBudsSold() external view returns (uint) {\r\n        return budsSold;\r\n    }\r\n\r\n    function buyBuddies() external payable {\r\n        require(msg.value > 0);\r\n        buddies.transfer(msg.sender, (msg.value*budsPerBNB));\r\n        budsSold = budsSold + msg.value*budsPerBNB;\r\n    }\r\n\r\n    function getBNBBalance() external view onlyAdmin returns (uint) {\r\n        return address(this).balance;\r\n    }\r\n    \r\n    function getBudsBalance() external view returns (uint) {\r\n        return buddies.balanceOf(address(this));\r\n    }\r\n\r\n    function transferBNB(address payable _to, uint _amount) external onlyAdmin {\r\n        _to.transfer(_amount);\r\n    }\r\n\r\n    function transferBUDS(uint _amount) external onlyAdmin {\r\n        buddies.transfer(msg.sender, _amount);\r\n    }\r\n\r\n}\r\n",
  "sourcePath": "O:\\Projects\\puck-buddies\\contracts\\BuddiesISO.sol",
  "compiler": {
    "name": "solc",
    "version": "0.8.6+commit.11564f7e.Emscripten.clang"
  },
  "schemaVersion": "3.4.3",
  "updatedAt": "2022-01-07T21:58:20.325Z",
  "networkType": "ethereum",
  "devdoc": {
    "kind": "dev",
    "methods": {},
    "version": 1
  },
  "userdoc": {
    "kind": "user",
    "methods": {},
    "version": 1
  }
}