{
  "contractName": "PBBuddies",
  "abi": [
    {
      "inputs": [],
      "stateMutability": "nonpayable",
      "type": "constructor"
    },
    {
      "anonymous": false,
      "inputs": [
        {
          "indexed": true,
          "internalType": "address",
          "name": "owner",
          "type": "address"
        },
        {
          "indexed": true,
          "internalType": "address",
          "name": "spender",
          "type": "address"
        },
        {
          "indexed": false,
          "internalType": "uint256",
          "name": "value",
          "type": "uint256"
        }
      ],
      "name": "Approval",
      "type": "event"
    },
    {
      "anonymous": false,
      "inputs": [
        {
          "indexed": true,
          "internalType": "address",
          "name": "from",
          "type": "address"
        },
        {
          "indexed": true,
          "internalType": "address",
          "name": "to",
          "type": "address"
        },
        {
          "indexed": false,
          "internalType": "uint256",
          "name": "value",
          "type": "uint256"
        }
      ],
      "name": "Transfer",
      "type": "event"
    },
    {
      "inputs": [],
      "name": "admin",
      "outputs": [
        {
          "internalType": "address",
          "name": "",
          "type": "address"
        }
      ],
      "stateMutability": "view",
      "type": "function",
      "constant": true
    },
    {
      "inputs": [
        {
          "internalType": "address",
          "name": "owner",
          "type": "address"
        },
        {
          "internalType": "address",
          "name": "spender",
          "type": "address"
        }
      ],
      "name": "allowance",
      "outputs": [
        {
          "internalType": "uint256",
          "name": "",
          "type": "uint256"
        }
      ],
      "stateMutability": "view",
      "type": "function",
      "constant": true
    },
    {
      "inputs": [
        {
          "internalType": "address",
          "name": "spender",
          "type": "address"
        },
        {
          "internalType": "uint256",
          "name": "amount",
          "type": "uint256"
        }
      ],
      "name": "approve",
      "outputs": [
        {
          "internalType": "bool",
          "name": "",
          "type": "bool"
        }
      ],
      "stateMutability": "nonpayable",
      "type": "function"
    },
    {
      "inputs": [
        {
          "internalType": "address",
          "name": "account",
          "type": "address"
        }
      ],
      "name": "balanceOf",
      "outputs": [
        {
          "internalType": "uint256",
          "name": "",
          "type": "uint256"
        }
      ],
      "stateMutability": "view",
      "type": "function",
      "constant": true
    },
    {
      "inputs": [],
      "name": "decimals",
      "outputs": [
        {
          "internalType": "uint8",
          "name": "",
          "type": "uint8"
        }
      ],
      "stateMutability": "view",
      "type": "function",
      "constant": true
    },
    {
      "inputs": [
        {
          "internalType": "address",
          "name": "spender",
          "type": "address"
        },
        {
          "internalType": "uint256",
          "name": "subtractedValue",
          "type": "uint256"
        }
      ],
      "name": "decreaseAllowance",
      "outputs": [
        {
          "internalType": "bool",
          "name": "",
          "type": "bool"
        }
      ],
      "stateMutability": "nonpayable",
      "type": "function"
    },
    {
      "inputs": [
        {
          "internalType": "address",
          "name": "spender",
          "type": "address"
        },
        {
          "internalType": "uint256",
          "name": "addedValue",
          "type": "uint256"
        }
      ],
      "name": "increaseAllowance",
      "outputs": [
        {
          "internalType": "bool",
          "name": "",
          "type": "bool"
        }
      ],
      "stateMutability": "nonpayable",
      "type": "function"
    },
    {
      "inputs": [],
      "name": "name",
      "outputs": [
        {
          "internalType": "string",
          "name": "",
          "type": "string"
        }
      ],
      "stateMutability": "view",
      "type": "function",
      "constant": true
    },
    {
      "inputs": [],
      "name": "symbol",
      "outputs": [
        {
          "internalType": "string",
          "name": "",
          "type": "string"
        }
      ],
      "stateMutability": "view",
      "type": "function",
      "constant": true
    },
    {
      "inputs": [],
      "name": "totalSupply",
      "outputs": [
        {
          "internalType": "uint256",
          "name": "",
          "type": "uint256"
        }
      ],
      "stateMutability": "view",
      "type": "function",
      "constant": true
    },
    {
      "inputs": [
        {
          "internalType": "address",
          "name": "recipient",
          "type": "address"
        },
        {
          "internalType": "uint256",
          "name": "amount",
          "type": "uint256"
        }
      ],
      "name": "transfer",
      "outputs": [
        {
          "internalType": "bool",
          "name": "",
          "type": "bool"
        }
      ],
      "stateMutability": "nonpayable",
      "type": "function"
    },
    {
      "inputs": [
        {
          "internalType": "address",
          "name": "sender",
          "type": "address"
        },
        {
          "internalType": "address",
          "name": "recipient",
          "type": "address"
        },
        {
          "internalType": "uint256",
          "name": "amount",
          "type": "uint256"
        }
      ],
      "name": "transferFrom",
      "outputs": [
        {
          "internalType": "bool",
          "name": "",
          "type": "bool"
        }
      ],
      "stateMutability": "nonpayable",
      "type": "function"
    },
    {
      "inputs": [
        {
          "internalType": "uint256",
          "name": "amount",
          "type": "uint256"
        }
      ],
      "name": "burn",
      "outputs": [],
      "stateMutability": "nonpayable",
      "type": "function"
    },
    {
      "inputs": [],
      "name": "getBuddiesAddress",
      "outputs": [
        {
          "internalType": "address",
          "name": "",
          "type": "address"
        }
      ],
      "stateMutability": "view",
      "type": "function",
      "constant": true
    }
  ],
  "bytecode": "0x60806040523480156200001157600080fd5b506040518060400160405280600781526020017f42756464696573000000000000000000000000000000000000000000000000008152506040518060400160405280600781526020017f425544444945530000000000000000000000000000000000000000000000000081525081600390805190602001906200009692919062000299565b508060049080519060200190620000af92919062000299565b505050620000cf336a115eec47f6cf7e350000006200011660201b60201c565b33600560006101000a81548173ffffffffffffffffffffffffffffffffffffffff021916908373ffffffffffffffffffffffffffffffffffffffff160217905550620004f5565b600073ffffffffffffffffffffffffffffffffffffffff168273ffffffffffffffffffffffffffffffffffffffff16141562000189576040517f08c379a0000000000000000000000000000000000000000000000000000000008152600401620001809062000381565b60405180910390fd5b6200019d600083836200028f60201b60201c565b8060026000828254620001b19190620003d1565b92505081905550806000808473ffffffffffffffffffffffffffffffffffffffff1673ffffffffffffffffffffffffffffffffffffffff1681526020019081526020016000206000828254620002089190620003d1565b925050819055508173ffffffffffffffffffffffffffffffffffffffff16600073ffffffffffffffffffffffffffffffffffffffff167fddf252ad1be2c89b69c2b068fc378daa952ba7f163c4a11628f55a4df523b3ef836040516200026f9190620003a3565b60405180910390a36200028b600083836200029460201b60201c565b5050565b505050565b505050565b828054620002a79062000438565b90600052602060002090601f016020900481019282620002cb576000855562000317565b82601f10620002e657805160ff191683800117855562000317565b8280016001018555821562000317579182015b8281111562000316578251825591602001919060010190620002f9565b5b5090506200032691906200032a565b5090565b5b80821115620003455760008160009055506001016200032b565b5090565b600062000358601f83620003c0565b91506200036582620004cc565b602082019050919050565b6200037b816200042e565b82525050565b600060208201905081810360008301526200039c8162000349565b9050919050565b6000602082019050620003ba600083018462000370565b92915050565b600082825260208201905092915050565b6000620003de826200042e565b9150620003eb836200042e565b9250827fffffffffffffffffffffffffffffffffffffffffffffffffffffffffffffffff038211156200042357620004226200046e565b5b828201905092915050565b6000819050919050565b600060028204905060018216806200045157607f821691505b602082108114156200046857620004676200049d565b5b50919050565b7f4e487b7100000000000000000000000000000000000000000000000000000000600052601160045260246000fd5b7f4e487b7100000000000000000000000000000000000000000000000000000000600052602260045260246000fd5b7f45524332303a206d696e7420746f20746865207a65726f206164647265737300600082015250565b61180480620005056000396000f3fe608060405234801561001057600080fd5b50600436106100ea5760003560e01c80635016f88e1161008c578063a457c2d711610066578063a457c2d714610261578063a9059cbb14610291578063dd62ed3e146102c1578063f851a440146102f1576100ea565b80635016f88e146101f557806370a082311461021357806395d89b4114610243576100ea565b806323b872dd116100c857806323b872dd1461015b578063313ce5671461018b57806339509351146101a957806342966c68146101d9576100ea565b806306fdde03146100ef578063095ea7b31461010d57806318160ddd1461013d575b600080fd5b6100f761030f565b604051610104919061118d565b60405180910390f35b61012760048036038101906101229190610f3a565b6103a1565b6040516101349190611172565b60405180910390f35b6101456103bf565b60405161015291906112cf565b60405180910390f35b61017560048036038101906101709190610ee7565b6103c9565b6040516101829190611172565b60405180910390f35b6101936104c1565b6040516101a091906112ea565b60405180910390f35b6101c360048036038101906101be9190610f3a565b6104ca565b6040516101d09190611172565b60405180910390f35b6101f360048036038101906101ee9190610f7a565b610576565b005b6101fd610583565b60405161020a9190611157565b60405180910390f35b61022d60048036038101906102289190610e7a565b61058b565b60405161023a91906112cf565b60405180910390f35b61024b6105d3565b604051610258919061118d565b60405180910390f35b61027b60048036038101906102769190610f3a565b610665565b6040516102889190611172565b60405180910390f35b6102ab60048036038101906102a69190610f3a565b610750565b6040516102b89190611172565b60405180910390f35b6102db60048036038101906102d69190610ea7565b61076e565b6040516102e891906112cf565b60405180910390f35b6102f96107f5565b6040516103069190611157565b60405180910390f35b60606003805461031e90611433565b80601f016020809104026020016040519081016040528092919081815260200182805461034a90611433565b80156103975780601f1061036c57610100808354040283529160200191610397565b820191906000526020600020905b81548152906001019060200180831161037a57829003601f168201915b5050505050905090565b60006103b56103ae61081b565b8484610823565b6001905092915050565b6000600254905090565b60006103d68484846109ee565b6000600160008673ffffffffffffffffffffffffffffffffffffffff1673ffffffffffffffffffffffffffffffffffffffff168152602001908152602001600020600061042161081b565b73ffffffffffffffffffffffffffffffffffffffff1673ffffffffffffffffffffffffffffffffffffffff168152602001908152602001600020549050828110156104a1576040517f08c379a00000000000000000000000000000000000000000000000000000000081526004016104989061122f565b60405180910390fd5b6104b5856104ad61081b565b858403610823565b60019150509392505050565b60006012905090565b600061056c6104d761081b565b8484600160006104e561081b565b73ffffffffffffffffffffffffffffffffffffffff1673ffffffffffffffffffffffffffffffffffffffff16815260200190815260200160002060008873ffffffffffffffffffffffffffffffffffffffff1673ffffffffffffffffffffffffffffffffffffffff168152602001908152602001600020546105679190611321565b610823565b6001905092915050565b6105803382610c6f565b50565b600030905090565b60008060008373ffffffffffffffffffffffffffffffffffffffff1673ffffffffffffffffffffffffffffffffffffffff168152602001908152602001600020549050919050565b6060600480546105e290611433565b80601f016020809104026020016040519081016040528092919081815260200182805461060e90611433565b801561065b5780601f106106305761010080835404028352916020019161065b565b820191906000526020600020905b81548152906001019060200180831161063e57829003601f168201915b5050505050905090565b6000806001600061067461081b565b73ffffffffffffffffffffffffffffffffffffffff1673ffffffffffffffffffffffffffffffffffffffff16815260200190815260200160002060008573ffffffffffffffffffffffffffffffffffffffff1673ffffffffffffffffffffffffffffffffffffffff16815260200190815260200160002054905082811015610731576040517f08c379a0000000000000000000000000000000000000000000000000000000008152600401610728906112af565b60405180910390fd5b61074561073c61081b565b85858403610823565b600191505092915050565b600061076461075d61081b565b84846109ee565b6001905092915050565b6000600160008473ffffffffffffffffffffffffffffffffffffffff1673ffffffffffffffffffffffffffffffffffffffff16815260200190815260200160002060008373ffffffffffffffffffffffffffffffffffffffff1673ffffffffffffffffffffffffffffffffffffffff16815260200190815260200160002054905092915050565b600560009054906101000a900473ffffffffffffffffffffffffffffffffffffffff1681565b600033905090565b600073ffffffffffffffffffffffffffffffffffffffff168373ffffffffffffffffffffffffffffffffffffffff161415610893576040517f08c379a000000000000000000000000000000000000000000000000000000000815260040161088a9061128f565b60405180910390fd5b600073ffffffffffffffffffffffffffffffffffffffff168273ffffffffffffffffffffffffffffffffffffffff161415610903576040517f08c379a00000000000000000000000000000000000000000000000000000000081526004016108fa906111ef565b60405180910390fd5b80600160008573ffffffffffffffffffffffffffffffffffffffff1673ffffffffffffffffffffffffffffffffffffffff16815260200190815260200160002060008473ffffffffffffffffffffffffffffffffffffffff1673ffffffffffffffffffffffffffffffffffffffff168152602001908152602001600020819055508173ffffffffffffffffffffffffffffffffffffffff168373ffffffffffffffffffffffffffffffffffffffff167f8c5be1e5ebec7d5bd14f71427d1e84f3dd0314c0f7b2291e5b200ac8c7c3b925836040516109e191906112cf565b60405180910390a3505050565b600073ffffffffffffffffffffffffffffffffffffffff168373ffffffffffffffffffffffffffffffffffffffff161415610a5e576040517f08c379a0000000000000000000000000000000000000000000000000000000008152600401610a559061126f565b60405180910390fd5b600073ffffffffffffffffffffffffffffffffffffffff168273ffffffffffffffffffffffffffffffffffffffff161415610ace576040517f08c379a0000000000000000000000000000000000000000000000000000000008152600401610ac5906111af565b60405180910390fd5b610ad9838383610e46565b60008060008573ffffffffffffffffffffffffffffffffffffffff1673ffffffffffffffffffffffffffffffffffffffff16815260200190815260200160002054905081811015610b5f576040517f08c379a0000000000000000000000000000000000000000000000000000000008152600401610b569061120f565b60405180910390fd5b8181036000808673ffffffffffffffffffffffffffffffffffffffff1673ffffffffffffffffffffffffffffffffffffffff16815260200190815260200160002081905550816000808573ffffffffffffffffffffffffffffffffffffffff1673ffffffffffffffffffffffffffffffffffffffff1681526020019081526020016000206000828254610bf29190611321565b925050819055508273ffffffffffffffffffffffffffffffffffffffff168473ffffffffffffffffffffffffffffffffffffffff167fddf252ad1be2c89b69c2b068fc378daa952ba7f163c4a11628f55a4df523b3ef84604051610c5691906112cf565b60405180910390a3610c69848484610e4b565b50505050565b600073ffffffffffffffffffffffffffffffffffffffff168273ffffffffffffffffffffffffffffffffffffffff161415610cdf576040517f08c379a0000000000000000000000000000000000000000000000000000000008152600401610cd69061124f565b60405180910390fd5b610ceb82600083610e46565b60008060008473ffffffffffffffffffffffffffffffffffffffff1673ffffffffffffffffffffffffffffffffffffffff16815260200190815260200160002054905081811015610d71576040517f08c379a0000000000000000000000000000000000000000000000000000000008152600401610d68906111cf565b60405180910390fd5b8181036000808573ffffffffffffffffffffffffffffffffffffffff1673ffffffffffffffffffffffffffffffffffffffff168152602001908152602001600020819055508160026000828254610dc89190611377565b92505081905550600073ffffffffffffffffffffffffffffffffffffffff168373ffffffffffffffffffffffffffffffffffffffff167fddf252ad1be2c89b69c2b068fc378daa952ba7f163c4a11628f55a4df523b3ef84604051610e2d91906112cf565b60405180910390a3610e4183600084610e4b565b505050565b505050565b505050565b600081359050610e5f816117a0565b92915050565b600081359050610e74816117b7565b92915050565b600060208284031215610e9057610e8f6114c3565b5b6000610e9e84828501610e50565b91505092915050565b60008060408385031215610ebe57610ebd6114c3565b5b6000610ecc85828601610e50565b9250506020610edd85828601610e50565b9150509250929050565b600080600060608486031215610f0057610eff6114c3565b5b6000610f0e86828701610e50565b9350506020610f1f86828701610e50565b9250506040610f3086828701610e65565b9150509250925092565b60008060408385031215610f5157610f506114c3565b5b6000610f5f85828601610e50565b9250506020610f7085828601610e65565b9150509250929050565b600060208284031215610f9057610f8f6114c3565b5b6000610f9e84828501610e65565b91505092915050565b610fb0816113ab565b82525050565b610fbf816113bd565b82525050565b6000610fd082611305565b610fda8185611310565b9350610fea818560208601611400565b610ff3816114c8565b840191505092915050565b600061100b602383611310565b9150611016826114d9565b604082019050919050565b600061102e602283611310565b915061103982611528565b604082019050919050565b6000611051602283611310565b915061105c82611577565b604082019050919050565b6000611074602683611310565b915061107f826115c6565b604082019050919050565b6000611097602883611310565b91506110a282611615565b604082019050919050565b60006110ba602183611310565b91506110c582611664565b604082019050919050565b60006110dd602583611310565b91506110e8826116b3565b604082019050919050565b6000611100602483611310565b915061110b82611702565b604082019050919050565b6000611123602583611310565b915061112e82611751565b604082019050919050565b611142816113e9565b82525050565b611151816113f3565b82525050565b600060208201905061116c6000830184610fa7565b92915050565b60006020820190506111876000830184610fb6565b92915050565b600060208201905081810360008301526111a78184610fc5565b905092915050565b600060208201905081810360008301526111c881610ffe565b9050919050565b600060208201905081810360008301526111e881611021565b9050919050565b6000602082019050818103600083015261120881611044565b9050919050565b6000602082019050818103600083015261122881611067565b9050919050565b600060208201905081810360008301526112488161108a565b9050919050565b60006020820190508181036000830152611268816110ad565b9050919050565b60006020820190508181036000830152611288816110d0565b9050919050565b600060208201905081810360008301526112a8816110f3565b9050919050565b600060208201905081810360008301526112c881611116565b9050919050565b60006020820190506112e46000830184611139565b92915050565b60006020820190506112ff6000830184611148565b92915050565b600081519050919050565b600082825260208201905092915050565b600061132c826113e9565b9150611337836113e9565b9250827fffffffffffffffffffffffffffffffffffffffffffffffffffffffffffffffff0382111561136c5761136b611465565b5b828201905092915050565b6000611382826113e9565b915061138d836113e9565b9250828210156113a05761139f611465565b5b828203905092915050565b60006113b6826113c9565b9050919050565b60008115159050919050565b600073ffffffffffffffffffffffffffffffffffffffff82169050919050565b6000819050919050565b600060ff82169050919050565b60005b8381101561141e578082015181840152602081019050611403565b8381111561142d576000848401525b50505050565b6000600282049050600182168061144b57607f821691505b6020821081141561145f5761145e611494565b5b50919050565b7f4e487b7100000000000000000000000000000000000000000000000000000000600052601160045260246000fd5b7f4e487b7100000000000000000000000000000000000000000000000000000000600052602260045260246000fd5b600080fd5b6000601f19601f8301169050919050565b7f45524332303a207472616e7366657220746f20746865207a65726f206164647260008201527f6573730000000000000000000000000000000000000000000000000000000000602082015250565b7f45524332303a206275726e20616d6f756e7420657863656564732062616c616e60008201527f6365000000000000000000000000000000000000000000000000000000000000602082015250565b7f45524332303a20617070726f766520746f20746865207a65726f20616464726560008201527f7373000000000000000000000000000000000000000000000000000000000000602082015250565b7f45524332303a207472616e7366657220616d6f756e742065786365656473206260008201527f616c616e63650000000000000000000000000000000000000000000000000000602082015250565b7f45524332303a207472616e7366657220616d6f756e742065786365656473206160008201527f6c6c6f77616e6365000000000000000000000000000000000000000000000000602082015250565b7f45524332303a206275726e2066726f6d20746865207a65726f2061646472657360008201527f7300000000000000000000000000000000000000000000000000000000000000602082015250565b7f45524332303a207472616e736665722066726f6d20746865207a65726f20616460008201527f6472657373000000000000000000000000000000000000000000000000000000602082015250565b7f45524332303a20617070726f76652066726f6d20746865207a65726f2061646460008201527f7265737300000000000000000000000000000000000000000000000000000000602082015250565b7f45524332303a2064656372656173656420616c6c6f77616e63652062656c6f7760008201527f207a65726f000000000000000000000000000000000000000000000000000000602082015250565b6117a9816113ab565b81146117b457600080fd5b50565b6117c0816113e9565b81146117cb57600080fd5b5056fea264697066735822122022f3f8a63c3ada3f06eebab7f655138f5f5373c94f8ab52239a5027a712b5fba64736f6c63430008060033",
  "immutableReferences": {},
  "source": "// SPDX-License-Identifier: MIT\r\npragma solidity >=0.4.22 <0.9.0;\r\n\r\nimport '../node_modules/@openzeppelin/contracts/token/ERC20/ERC20.sol';\r\n\r\ncontract PBBuddies is ERC20 {\r\n    address public admin;\r\n   constructor () ERC20('Buddies', 'BUDDIES') {\r\n       _mint(msg.sender, 21000000 * 10 ** 18);\r\n       admin = msg.sender;\r\n   }\r\n   \r\n   function burn(uint amount) external {\r\n       _burn(msg.sender, amount);\r\n   }\r\n    \r\n   function getBuddiesAddress() external view returns (address) {\r\n       return address(this);\r\n   }\r\n}",
  "sourcePath": "O:\\Projects\\puck-buddies\\contracts\\PBBuddies.sol",
  "compiler": {
    "name": "solc",
    "version": "0.8.6+commit.11564f7e.Emscripten.clang"
  },
  "schemaVersion": "3.4.3",
  "updatedAt": "2022-01-07T04:17:56.716Z",
  "networkType": "ethereum",
  "devdoc": {
    "kind": "dev",
    "methods": {
      "allowance(address,address)": {
        "details": "See {IERC20-allowance}."
      },
      "approve(address,uint256)": {
        "details": "See {IERC20-approve}. Requirements: - `spender` cannot be the zero address."
      },
      "balanceOf(address)": {
        "details": "See {IERC20-balanceOf}."
      },
      "decimals()": {
        "details": "Returns the number of decimals used to get its user representation. For example, if `decimals` equals `2`, a balance of `505` tokens should be displayed to a user as `5,05` (`505 / 10 ** 2`). Tokens usually opt for a value of 18, imitating the relationship between Ether and Wei. This is the value {ERC20} uses, unless this function is overridden; NOTE: This information is only used for _display_ purposes: it in no way affects any of the arithmetic of the contract, including {IERC20-balanceOf} and {IERC20-transfer}."
      },
      "decreaseAllowance(address,uint256)": {
        "details": "Atomically decreases the allowance granted to `spender` by the caller. This is an alternative to {approve} that can be used as a mitigation for problems described in {IERC20-approve}. Emits an {Approval} event indicating the updated allowance. Requirements: - `spender` cannot be the zero address. - `spender` must have allowance for the caller of at least `subtractedValue`."
      },
      "increaseAllowance(address,uint256)": {
        "details": "Atomically increases the allowance granted to `spender` by the caller. This is an alternative to {approve} that can be used as a mitigation for problems described in {IERC20-approve}. Emits an {Approval} event indicating the updated allowance. Requirements: - `spender` cannot be the zero address."
      },
      "name()": {
        "details": "Returns the name of the token."
      },
      "symbol()": {
        "details": "Returns the symbol of the token, usually a shorter version of the name."
      },
      "totalSupply()": {
        "details": "See {IERC20-totalSupply}."
      },
      "transfer(address,uint256)": {
        "details": "See {IERC20-transfer}. Requirements: - `recipient` cannot be the zero address. - the caller must have a balance of at least `amount`."
      },
      "transferFrom(address,address,uint256)": {
        "details": "See {IERC20-transferFrom}. Emits an {Approval} event indicating the updated allowance. This is not required by the EIP. See the note at the beginning of {ERC20}. Requirements: - `sender` and `recipient` cannot be the zero address. - `sender` must have a balance of at least `amount`. - the caller must have allowance for ``sender``'s tokens of at least `amount`."
      }
    },
    "version": 1
  },
  "userdoc": {
    "kind": "user",
    "methods": {},
    "version": 1
  }
}