{
  "contractName": "PBMatchups",
  "abi": [
    {
      "inputs": [
        {
          "internalType": "address",
          "name": "_buddiesCoinAddress",
          "type": "address"
        },
        {
          "internalType": "address",
          "name": "_feesAddress",
          "type": "address"
        },
        {
          "internalType": "address",
          "name": "_pbTeamsAddress",
          "type": "address"
        },
        {
          "internalType": "address",
          "name": "_pbMatchupValidationAddress",
          "type": "address"
        }
      ],
      "stateMutability": "nonpayable",
      "type": "constructor"
    },
    {
      "anonymous": false,
      "inputs": [
        {
          "indexed": true,
          "internalType": "address",
          "name": "owner",
          "type": "address"
        },
        {
          "indexed": true,
          "internalType": "address",
          "name": "approved",
          "type": "address"
        },
        {
          "indexed": true,
          "internalType": "uint256",
          "name": "tokenId",
          "type": "uint256"
        }
      ],
      "name": "Approval",
      "type": "event"
    },
    {
      "anonymous": false,
      "inputs": [
        {
          "indexed": true,
          "internalType": "address",
          "name": "owner",
          "type": "address"
        },
        {
          "indexed": true,
          "internalType": "address",
          "name": "operator",
          "type": "address"
        },
        {
          "indexed": false,
          "internalType": "bool",
          "name": "approved",
          "type": "bool"
        }
      ],
      "name": "ApprovalForAll",
      "type": "event"
    },
    {
      "anonymous": false,
      "inputs": [
        {
          "indexed": false,
          "internalType": "uint256",
          "name": "id",
          "type": "uint256"
        },
        {
          "indexed": false,
          "internalType": "uint256",
          "name": "teamId",
          "type": "uint256"
        },
        {
          "indexed": false,
          "internalType": "uint256",
          "name": "t1stats",
          "type": "uint256"
        },
        {
          "indexed": false,
          "internalType": "uint256",
          "name": "t2stats",
          "type": "uint256"
        },
        {
          "indexed": false,
          "internalType": "uint256",
          "name": "t1AttackBP",
          "type": "uint256"
        },
        {
          "indexed": false,
          "internalType": "uint256",
          "name": "t2AttackBP",
          "type": "uint256"
        },
        {
          "indexed": false,
          "internalType": "uint256",
          "name": "oddsMod",
          "type": "uint256"
        },
        {
          "indexed": false,
          "internalType": "uint256",
          "name": "result",
          "type": "uint256"
        },
        {
          "indexed": false,
          "internalType": "bool",
          "name": "isWinner",
          "type": "bool"
        }
      ],
      "name": "NewMatchup",
      "type": "event"
    },
    {
      "anonymous": false,
      "inputs": [
        {
          "indexed": true,
          "internalType": "address",
          "name": "from",
          "type": "address"
        },
        {
          "indexed": true,
          "internalType": "address",
          "name": "to",
          "type": "address"
        },
        {
          "indexed": true,
          "internalType": "uint256",
          "name": "tokenId",
          "type": "uint256"
        }
      ],
      "name": "Transfer",
      "type": "event"
    },
    {
      "anonymous": false,
      "inputs": [
        {
          "indexed": false,
          "internalType": "bool",
          "name": "creatorIswinner",
          "type": "bool"
        },
        {
          "indexed": false,
          "internalType": "uint256",
          "name": "prize",
          "type": "uint256"
        },
        {
          "indexed": false,
          "internalType": "uint256",
          "name": "t1OStats",
          "type": "uint256"
        },
        {
          "indexed": false,
          "internalType": "uint256",
          "name": "t1DStats",
          "type": "uint256"
        },
        {
          "indexed": false,
          "internalType": "uint256",
          "name": "t2OStats",
          "type": "uint256"
        },
        {
          "indexed": false,
          "internalType": "uint256",
          "name": "t2DStats",
          "type": "uint256"
        },
        {
          "indexed": false,
          "internalType": "uint256",
          "name": "winningBp",
          "type": "uint256"
        },
        {
          "indexed": false,
          "internalType": "uint256",
          "name": "randResult",
          "type": "uint256"
        }
      ],
      "name": "winResult",
      "type": "event"
    },
    {
      "inputs": [
        {
          "internalType": "address",
          "name": "to",
          "type": "address"
        },
        {
          "internalType": "uint256",
          "name": "tokenId",
          "type": "uint256"
        }
      ],
      "name": "approve",
      "outputs": [],
      "stateMutability": "nonpayable",
      "type": "function"
    },
    {
      "inputs": [
        {
          "internalType": "address",
          "name": "owner",
          "type": "address"
        }
      ],
      "name": "balanceOf",
      "outputs": [
        {
          "internalType": "uint256",
          "name": "",
          "type": "uint256"
        }
      ],
      "stateMutability": "view",
      "type": "function",
      "constant": true
    },
    {
      "inputs": [],
      "name": "buddies",
      "outputs": [
        {
          "internalType": "contract IERC20",
          "name": "",
          "type": "address"
        }
      ],
      "stateMutability": "view",
      "type": "function",
      "constant": true
    },
    {
      "inputs": [
        {
          "internalType": "uint256",
          "name": "tokenId",
          "type": "uint256"
        }
      ],
      "name": "getApproved",
      "outputs": [
        {
          "internalType": "address",
          "name": "",
          "type": "address"
        }
      ],
      "stateMutability": "view",
      "type": "function",
      "constant": true
    },
    {
      "inputs": [
        {
          "internalType": "address",
          "name": "owner",
          "type": "address"
        },
        {
          "internalType": "address",
          "name": "operator",
          "type": "address"
        }
      ],
      "name": "isApprovedForAll",
      "outputs": [
        {
          "internalType": "bool",
          "name": "",
          "type": "bool"
        }
      ],
      "stateMutability": "view",
      "type": "function",
      "constant": true
    },
    {
      "inputs": [],
      "name": "name",
      "outputs": [
        {
          "internalType": "string",
          "name": "",
          "type": "string"
        }
      ],
      "stateMutability": "view",
      "type": "function",
      "constant": true
    },
    {
      "inputs": [
        {
          "internalType": "uint256",
          "name": "tokenId",
          "type": "uint256"
        }
      ],
      "name": "ownerOf",
      "outputs": [
        {
          "internalType": "address",
          "name": "",
          "type": "address"
        }
      ],
      "stateMutability": "view",
      "type": "function",
      "constant": true
    },
    {
      "inputs": [],
      "name": "pbMatchupValidation",
      "outputs": [
        {
          "internalType": "contract PBMatchupValidation",
          "name": "",
          "type": "address"
        }
      ],
      "stateMutability": "view",
      "type": "function",
      "constant": true
    },
    {
      "inputs": [],
      "name": "pbMatchupsMarket",
      "outputs": [
        {
          "internalType": "contract PBMatchupsMarket",
          "name": "",
          "type": "address"
        }
      ],
      "stateMutability": "view",
      "type": "function",
      "constant": true
    },
    {
      "inputs": [],
      "name": "pbTeams",
      "outputs": [
        {
          "internalType": "contract PBTeams",
          "name": "",
          "type": "address"
        }
      ],
      "stateMutability": "view",
      "type": "function",
      "constant": true
    },
    {
      "inputs": [
        {
          "internalType": "address",
          "name": "from",
          "type": "address"
        },
        {
          "internalType": "address",
          "name": "to",
          "type": "address"
        },
        {
          "internalType": "uint256",
          "name": "tokenId",
          "type": "uint256"
        }
      ],
      "name": "safeTransferFrom",
      "outputs": [],
      "stateMutability": "nonpayable",
      "type": "function"
    },
    {
      "inputs": [
        {
          "internalType": "address",
          "name": "from",
          "type": "address"
        },
        {
          "internalType": "address",
          "name": "to",
          "type": "address"
        },
        {
          "internalType": "uint256",
          "name": "tokenId",
          "type": "uint256"
        },
        {
          "internalType": "bytes",
          "name": "_data",
          "type": "bytes"
        }
      ],
      "name": "safeTransferFrom",
      "outputs": [],
      "stateMutability": "nonpayable",
      "type": "function"
    },
    {
      "inputs": [
        {
          "internalType": "address",
          "name": "operator",
          "type": "address"
        },
        {
          "internalType": "bool",
          "name": "approved",
          "type": "bool"
        }
      ],
      "name": "setApprovalForAll",
      "outputs": [],
      "stateMutability": "nonpayable",
      "type": "function"
    },
    {
      "inputs": [
        {
          "internalType": "bytes4",
          "name": "interfaceId",
          "type": "bytes4"
        }
      ],
      "name": "supportsInterface",
      "outputs": [
        {
          "internalType": "bool",
          "name": "",
          "type": "bool"
        }
      ],
      "stateMutability": "view",
      "type": "function",
      "constant": true
    },
    {
      "inputs": [],
      "name": "symbol",
      "outputs": [
        {
          "internalType": "string",
          "name": "",
          "type": "string"
        }
      ],
      "stateMutability": "view",
      "type": "function",
      "constant": true
    },
    {
      "inputs": [
        {
          "internalType": "uint256",
          "name": "tokenId",
          "type": "uint256"
        }
      ],
      "name": "tokenURI",
      "outputs": [
        {
          "internalType": "string",
          "name": "",
          "type": "string"
        }
      ],
      "stateMutability": "view",
      "type": "function",
      "constant": true
    },
    {
      "inputs": [
        {
          "internalType": "address",
          "name": "from",
          "type": "address"
        },
        {
          "internalType": "address",
          "name": "to",
          "type": "address"
        },
        {
          "internalType": "uint256",
          "name": "tokenId",
          "type": "uint256"
        }
      ],
      "name": "transferFrom",
      "outputs": [],
      "stateMutability": "nonpayable",
      "type": "function"
    },
    {
      "inputs": [],
      "name": "isAdmin",
      "outputs": [
        {
          "internalType": "bool",
          "name": "",
          "type": "bool"
        }
      ],
      "stateMutability": "view",
      "type": "function",
      "constant": true
    },
    {
      "inputs": [],
      "name": "getPbMatchupsAddress",
      "outputs": [
        {
          "internalType": "address",
          "name": "",
          "type": "address"
        }
      ],
      "stateMutability": "view",
      "type": "function",
      "constant": true
    },
    {
      "inputs": [
        {
          "internalType": "address",
          "name": "_pbMatchupsMarketAddress",
          "type": "address"
        }
      ],
      "name": "updateMatchupsMarketAddress",
      "outputs": [],
      "stateMutability": "nonpayable",
      "type": "function"
    },
    {
      "inputs": [
        {
          "internalType": "address",
          "name": "_buddiesCoinAddress",
          "type": "address"
        }
      ],
      "name": "updateBuddiesCoinAddress",
      "outputs": [],
      "stateMutability": "nonpayable",
      "type": "function"
    },
    {
      "inputs": [
        {
          "internalType": "address",
          "name": "_pbMatchupValidationAddress",
          "type": "address"
        }
      ],
      "name": "updatePBMatchupValidationAddress",
      "outputs": [],
      "stateMutability": "nonpayable",
      "type": "function"
    },
    {
      "inputs": [],
      "name": "getFeePercent",
      "outputs": [
        {
          "internalType": "uint256",
          "name": "",
          "type": "uint256"
        }
      ],
      "stateMutability": "view",
      "type": "function",
      "constant": true
    },
    {
      "inputs": [
        {
          "internalType": "uint256",
          "name": "newFee",
          "type": "uint256"
        }
      ],
      "name": "updateFeePercent",
      "outputs": [],
      "stateMutability": "nonpayable",
      "type": "function"
    },
    {
      "inputs": [
        {
          "internalType": "address",
          "name": "user",
          "type": "address"
        }
      ],
      "name": "getAllTokensForUser",
      "outputs": [
        {
          "internalType": "uint256[]",
          "name": "",
          "type": "uint256[]"
        }
      ],
      "stateMutability": "view",
      "type": "function",
      "constant": true
    },
    {
      "inputs": [
        {
          "internalType": "uint256",
          "name": "tokenId",
          "type": "uint256"
        }
      ],
      "name": "getTokenDetails",
      "outputs": [
        {
          "components": [
            {
              "internalType": "uint256",
              "name": "matchId",
              "type": "uint256"
            },
            {
              "internalType": "address",
              "name": "creator",
              "type": "address"
            },
            {
              "internalType": "address",
              "name": "challenger",
              "type": "address"
            },
            {
              "internalType": "bool",
              "name": "active",
              "type": "bool"
            },
            {
              "internalType": "uint256",
              "name": "teamId",
              "type": "uint256"
            },
            {
              "internalType": "uint256",
              "name": "teamDna",
              "type": "uint256"
            },
            {
              "internalType": "uint256",
              "name": "timestamp",
              "type": "uint256"
            },
            {
              "internalType": "uint256",
              "name": "t1OStats",
              "type": "uint256"
            },
            {
              "internalType": "uint256",
              "name": "t1DStats",
              "type": "uint256"
            },
            {
              "internalType": "uint256",
              "name": "t2OStats",
              "type": "uint256"
            },
            {
              "internalType": "uint256",
              "name": "t2DStats",
              "type": "uint256"
            },
            {
              "internalType": "bool",
              "name": "creatorIsWinner",
              "type": "bool"
            },
            {
              "internalType": "uint256",
              "name": "buddiesAmount",
              "type": "uint256"
            }
          ],
          "internalType": "struct PBMatchups.Matchup",
          "name": "",
          "type": "tuple"
        }
      ],
      "stateMutability": "view",
      "type": "function",
      "constant": true
    },
    {
      "inputs": [
        {
          "internalType": "uint256",
          "name": "teamId",
          "type": "uint256"
        },
        {
          "internalType": "uint256",
          "name": "buddiesSent",
          "type": "uint256"
        }
      ],
      "name": "createMatchup",
      "outputs": [],
      "stateMutability": "nonpayable",
      "type": "function"
    },
    {
      "inputs": [
        {
          "internalType": "uint256",
          "name": "buddiesSent",
          "type": "uint256"
        },
        {
          "internalType": "uint256",
          "name": "pvpmatchupId",
          "type": "uint256"
        },
        {
          "internalType": "uint256",
          "name": "chalTeamId",
          "type": "uint256"
        },
        {
          "internalType": "uint256[]",
          "name": "playerIdArray",
          "type": "uint256[]"
        }
      ],
      "name": "PvPHitTheIce",
      "outputs": [],
      "stateMutability": "nonpayable",
      "type": "function"
    },
    {
      "inputs": [
        {
          "internalType": "uint256",
          "name": "pOP",
          "type": "uint256"
        },
        {
          "internalType": "uint256",
          "name": "pDP",
          "type": "uint256"
        },
        {
          "internalType": "uint256",
          "name": "cOP",
          "type": "uint256"
        },
        {
          "internalType": "uint256",
          "name": "cDP",
          "type": "uint256"
        }
      ],
      "name": "getWinningBP",
      "outputs": [
        {
          "internalType": "uint256",
          "name": "",
          "type": "uint256"
        }
      ],
      "stateMutability": "view",
      "type": "function",
      "constant": true
    },
    {
      "inputs": [],
      "name": "generateResult",
      "outputs": [
        {
          "internalType": "uint256",
          "name": "",
          "type": "uint256"
        }
      ],
      "stateMutability": "view",
      "type": "function",
      "constant": true
    },
    {
      "inputs": [
        {
          "internalType": "uint256",
          "name": "matchId",
          "type": "uint256"
        }
      ],
      "name": "cancelMatchup",
      "outputs": [],
      "stateMutability": "nonpayable",
      "type": "function"
    }
  ],
  "bytecode": "0x608060405261018d6009556101bf600a556000600b556004600c556096600d5560af600e55604b600f5560636010556101bf60115560e0601255600a601355600a60145560006015556000601c553480156200005a57600080fd5b506040516200573a3803806200573a833981810160405281019062000080919062000336565b6040518060400160405280601481526020017f5075636b2042756464696573204d6174636875700000000000000000000000008152506040518060400160405280600381526020017f50424d00000000000000000000000000000000000000000000000000000000008152508160009080519060200190620001049291906200026f565b5080600190805190602001906200011d9291906200026f565b50505033600660006101000a81548173ffffffffffffffffffffffffffffffffffffffff021916908373ffffffffffffffffffffffffffffffffffffffff16021790555082600860006101000a81548173ffffffffffffffffffffffffffffffffffffffff021916908373ffffffffffffffffffffffffffffffffffffffff16021790555083601860006101000a81548173ffffffffffffffffffffffffffffffffffffffff021916908373ffffffffffffffffffffffffffffffffffffffff16021790555081601960006101000a81548173ffffffffffffffffffffffffffffffffffffffff021916908373ffffffffffffffffffffffffffffffffffffffff16021790555080601b60006101000a81548173ffffffffffffffffffffffffffffffffffffffff021916908373ffffffffffffffffffffffffffffffffffffffff1602179055505050505062000460565b8280546200027d90620003dc565b90600052602060002090601f016020900481019282620002a15760008555620002ed565b82601f10620002bc57805160ff1916838001178555620002ed565b82800160010185558215620002ed579182015b82811115620002ec578251825591602001919060010190620002cf565b5b509050620002fc919062000300565b5090565b5b808211156200031b57600081600090555060010162000301565b5090565b600081519050620003308162000446565b92915050565b6000806000806080858703121562000353576200035262000441565b5b600062000363878288016200031f565b945050602062000376878288016200031f565b935050604062000389878288016200031f565b92505060606200039c878288016200031f565b91505092959194509250565b6000620003b582620003bc565b9050919050565b600073ffffffffffffffffffffffffffffffffffffffff82169050919050565b60006002820490506001821680620003f557607f821691505b602082108114156200040c576200040b62000412565b5b50919050565b7f4e487b7100000000000000000000000000000000000000000000000000000000600052602260045260246000fd5b600080fd5b6200045181620003a8565b81146200045d57600080fd5b50565b6152ca80620004706000396000f3fe608060405234801561001057600080fd5b50600436106101e55760003560e01c806370a082311161010f578063b88d4fde116100a2578063c87b56dd11610071578063c87b56dd1461057c578063e00c01c5146105ac578063e985e9c5146105ca578063f05c5fed146105fa576101e5565b8063b88d4fde146104f6578063b8a2f7a314610512578063be74264d1461052e578063c1e037281461054c576101e5565b806395d89b41116100de57806395d89b4114610482578063a22cb465146104a0578063b54f8500146104bc578063b6db75a0146104d8576101e5565b806370a08231146103ea5780638020da831461041a57806382de8fe91461043657806389bf0f0d14610466576101e5565b806323b872dd116101875780634e89c4e4116101565780634e89c4e4146103505780635d632faf1461036e5780636352211e1461038a57806363bf69ec146103ba576101e5565b806323b872dd146102dc5780632a73e656146102f857806342842e0e146103165780634a594c1214610332576101e5565b8063095ea7b3116101c3578063095ea7b314610268578063174f0b2c1461028457806319b0b9f4146102a05780631dbe2e0e146102be576101e5565b806301ffc9a7146101ea57806306fdde031461021a578063081812fc14610238575b600080fd5b61020460048036038101906101ff9190613a6f565b610616565b60405161021191906143a3565b60405180910390f35b6102226106f8565b60405161022f91906144a8565b60405180910390f35b610252600480360381019061024d9190613af7565b61078a565b60405161025f9190614291565b60405180910390f35b610282600480360381019061027d9190613a02565b61080f565b005b61029e60048036038101906102999190613b51565b610927565b005b6102a8610fbc565b6040516102b59190614472565b60405180910390f35b6102c6610fe2565b6040516102d39190614766565b60405180910390f35b6102f660048036038101906102f191906138ec565b61106c565b005b6103006110cc565b60405161030d9190614457565b60405180910390f35b610330600480360381019061032b91906138ec565b6110f2565b005b61033a611112565b604051610347919061443c565b60405180910390f35b610358611138565b6040516103659190614291565b60405180910390f35b6103886004803603810190610383919061387f565b611140565b005b6103a4600480360381019061039f9190613af7565b611214565b6040516103b19190614291565b60405180910390f35b6103d460048036038101906103cf9190613c14565b6112c6565b6040516103e19190614766565b60405180910390f35b61040460048036038101906103ff919061387f565b6113c3565b6040516104119190614766565b60405180910390f35b610434600480360381019061042f919061387f565b61147b565b005b610450600480360381019061044b919061387f565b611590565b60405161045d9190614381565b60405180910390f35b610480600480360381019061047b919061387f565b6116e6565b005b61048a6117ba565b60405161049791906144a8565b60405180910390f35b6104ba60048036038101906104b591906139c2565b61184c565b005b6104d660048036038101906104d19190613af7565b6119cd565b005b6104e0611b79565b6040516104ed91906143a3565b60405180910390f35b610510600480360381019061050b919061393f565b611be2565b005b61052c60048036038101906105279190613b91565b611c44565b005b610536612705565b6040516105439190614766565b60405180910390f35b61056660048036038101906105619190613af7565b61270f565b604051610573919061474a565b60405180910390f35b61059660048036038101906105919190613af7565b612879565b6040516105a391906144a8565b60405180910390f35b6105b4612920565b6040516105c1919061448d565b60405180910390f35b6105e460048036038101906105df91906138ac565b612946565b6040516105f191906143a3565b60405180910390f35b610614600480360381019061060f9190613af7565b6129da565b005b60007f80ac58cd000000000000000000000000000000000000000000000000000000007bffffffffffffffffffffffffffffffffffffffffffffffffffffffff1916827bffffffffffffffffffffffffffffffffffffffffffffffffffffffff191614806106e157507f5b5e139f000000000000000000000000000000000000000000000000000000007bffffffffffffffffffffffffffffffffffffffffffffffffffffffff1916827bffffffffffffffffffffffffffffffffffffffffffffffffffffffff1916145b806106f157506106f082612a74565b5b9050919050565b60606000805461070790614b0a565b80601f016020809104026020016040519081016040528092919081815260200182805461073390614b0a565b80156107805780601f1061075557610100808354040283529160200191610780565b820191906000526020600020905b81548152906001019060200180831161076357829003601f168201915b5050505050905090565b600061079582612ade565b6107d4576040517f08c379a00000000000000000000000000000000000000000000000000000000081526004016107cb9061462a565b60405180910390fd5b6004600083815260200190815260200160002060009054906101000a900473ffffffffffffffffffffffffffffffffffffffff169050919050565b600061081a82611214565b90508073ffffffffffffffffffffffffffffffffffffffff168373ffffffffffffffffffffffffffffffffffffffff16141561088b576040517f08c379a0000000000000000000000000000000000000000000000000000000008152600401610882906146aa565b60405180910390fd5b8073ffffffffffffffffffffffffffffffffffffffff166108aa612b4a565b73ffffffffffffffffffffffffffffffffffffffff1614806108d957506108d8816108d3612b4a565b612946565b5b610918576040517f08c379a000000000000000000000000000000000000000000000000000000000815260040161090f906145aa565b60405180910390fd5b6109228383612b52565b505050565b6000601860009054906101000a900473ffffffffffffffffffffffffffffffffffffffff1673ffffffffffffffffffffffffffffffffffffffff1663dd62ed3e33306040518363ffffffff1660e01b81526004016109869291906142ac565b60206040518083038186803b15801561099e57600080fd5b505afa1580156109b2573d6000803e3d6000fd5b505050506040513d601f19601f820116820180604052508101906109d69190613b24565b9050818110156109e557600080fd5b6109ef6016612c0b565b6000601960009054906101000a900473ffffffffffffffffffffffffffffffffffffffff1673ffffffffffffffffffffffffffffffffffffffff1663c1e03728856040518263ffffffff1660e01b8152600401610a4c9190614766565b6101606040518083038186803b158015610a6557600080fd5b505afa158015610a79573d6000803e3d6000fd5b505050506040513d601f19601f82011682018060405250810190610a9d9190613ac9565b6020015190506000601960009054906101000a900473ffffffffffffffffffffffffffffffffffffffff1673ffffffffffffffffffffffffffffffffffffffff1663c1e03728866040518263ffffffff1660e01b8152600401610b009190614766565b6101606040518083038186803b158015610b1957600080fd5b505afa158015610b2d573d6000803e3d6000fd5b505050506040513d601f19601f82011682018060405250810190610b519190613ac9565b6040015190506000601960009054906101000a900473ffffffffffffffffffffffffffffffffffffffff1673ffffffffffffffffffffffffffffffffffffffff1663c1e03728876040518263ffffffff1660e01b8152600401610bb49190614766565b6101606040518083038186803b158015610bcd57600080fd5b505afa158015610be1573d6000803e3d6000fd5b505050506040513d601f19601f82011682018060405250810190610c059190613ac9565b606001519050601860009054906101000a900473ffffffffffffffffffffffffffffffffffffffff1673ffffffffffffffffffffffffffffffffffffffff166323b872dd3330886040518463ffffffff1660e01b8152600401610c6a939291906142d5565b602060405180830381600087803b158015610c8457600080fd5b505af1158015610c98573d6000803e3d6000fd5b505050506040513d601f19601f82011682018060405250810190610cbc9190613a42565b50601860009054906101000a900473ffffffffffffffffffffffffffffffffffffffff1673ffffffffffffffffffffffffffffffffffffffff1663095ea7b330876040518363ffffffff1660e01b8152600401610d1a929190614358565b602060405180830381600087803b158015610d3457600080fd5b505af1158015610d48573d6000803e3d6000fd5b505050506040513d601f19601f82011682018060405250810190610d6c9190613a42565b50604051806101a00160405280601c5481526020013373ffffffffffffffffffffffffffffffffffffffff168152602001600073ffffffffffffffffffffffffffffffffffffffff168152602001600115158152602001878152602001848152602001428152602001838152602001828152602001600081526020016000815260200160001515815260200186815250601d6000601c5481526020019081526020016000206000820151816000015560208201518160010160006101000a81548173ffffffffffffffffffffffffffffffffffffffff021916908373ffffffffffffffffffffffffffffffffffffffff16021790555060408201518160020160006101000a81548173ffffffffffffffffffffffffffffffffffffffff021916908373ffffffffffffffffffffffffffffffffffffffff16021790555060608201518160020160146101000a81548160ff0219169083151502179055506080820151816003015560a0820151816004015560c0820151816005015560e0820151816006015561010082015181600701556101208201518160080155610140820151816009015561016082015181600a0160006101000a81548160ff02191690831515021790555061018082015181600b0155905050610f6f600760009054906101000a900473ffffffffffffffffffffffffffffffffffffffff16601c54612c21565b610f9c600760009054906101000a900473ffffffffffffffffffffffffffffffffffffffff16600161184c565b601c6000815480929190610faf90614b6d565b9190505550505050505050565b601a60009054906101000a900473ffffffffffffffffffffffffffffffffffffffff1681565b60008060005b600c548110156110515761271081600b54423360405160200161100e9493929190614243565b6040516020818303038152906040528051906020012060001c6110319190614be4565b8261103c91906148af565b9150808061104990614b6d565b915050610fe8565b6000600c54836110619190614905565b905080935050505090565b61107d611077612b4a565b82612c3f565b6110bc576040517f08c379a00000000000000000000000000000000000000000000000000000000081526004016110b3906146ea565b60405180910390fd5b6110c7838383612d1d565b505050565b601b60009054906101000a900473ffffffffffffffffffffffffffffffffffffffff1681565b61110d83838360405180602001604052806000815250611be2565b505050565b601860009054906101000a900473ffffffffffffffffffffffffffffffffffffffff1681565b600030905090565b3373ffffffffffffffffffffffffffffffffffffffff16600660009054906101000a900473ffffffffffffffffffffffffffffffffffffffff1673ffffffffffffffffffffffffffffffffffffffff16146111d0576040517f08c379a00000000000000000000000000000000000000000000000000000000081526004016111c79061452a565b60405180910390fd5b80601860006101000a81548173ffffffffffffffffffffffffffffffffffffffff021916908373ffffffffffffffffffffffffffffffffffffffff16021790555050565b6000806002600084815260200190815260200160002060009054906101000a900473ffffffffffffffffffffffffffffffffffffffff169050600073ffffffffffffffffffffffffffffffffffffffff168173ffffffffffffffffffffffffffffffffffffffff1614156112bd576040517f08c379a00000000000000000000000000000000000000000000000000000000081526004016112b4906145ea565b60405180910390fd5b80915050919050565b600080600954612710876112da9190614936565b6112e49190614905565b90506000600a54612710876112f99190614936565b6113039190614905565b905060006009546127108760095461131b9190614990565b6113259190614936565b61132f9190614905565b90506000600a5461271087600a546113479190614990565b6113519190614936565b61135b9190614905565b905060006002848661136d91906148af565b6113779190614905565b905060006002838561138991906148af565b6113939190614905565b90506000600282846113a591906148af565b6113af9190614905565b905080975050505050505050949350505050565b60008073ffffffffffffffffffffffffffffffffffffffff168273ffffffffffffffffffffffffffffffffffffffff161415611434576040517f08c379a000000000000000000000000000000000000000000000000000000000815260040161142b906145ca565b60405180910390fd5b600360008373ffffffffffffffffffffffffffffffffffffffff1673ffffffffffffffffffffffffffffffffffffffff168152602001908152602001600020549050919050565b3373ffffffffffffffffffffffffffffffffffffffff16600660009054906101000a900473ffffffffffffffffffffffffffffffffffffffff1673ffffffffffffffffffffffffffffffffffffffff161461150b576040517f08c379a00000000000000000000000000000000000000000000000000000000081526004016115029061452a565b60405180910390fd5b80601a60006101000a81548173ffffffffffffffffffffffffffffffffffffffff021916908373ffffffffffffffffffffffffffffffffffffffff16021790555080600760006101000a81548173ffffffffffffffffffffffffffffffffffffffff021916908373ffffffffffffffffffffffffffffffffffffffff16021790555050565b6060600061159d836113c3565b905060008114156115fa57600067ffffffffffffffff8111156115c3576115c2614cd1565b5b6040519080825280602002602001820160405280156115f15781602001602082028036833780820191505090505b509150506116e1565b60008167ffffffffffffffff81111561161657611615614cd1565b5b6040519080825280602002602001820160405280156116445781602001602082028036833780820191505090505b5090506000601c5490506000805b828110156116d8578673ffffffffffffffffffffffffffffffffffffffff1661167a82611214565b73ffffffffffffffffffffffffffffffffffffffff1614156116c557808483815181106116aa576116a9614ca2565b5b60200260200101818152505081806116c190614b6d565b9250505b80806116d090614b6d565b915050611652565b83955050505050505b919050565b3373ffffffffffffffffffffffffffffffffffffffff16600660009054906101000a900473ffffffffffffffffffffffffffffffffffffffff1673ffffffffffffffffffffffffffffffffffffffff1614611776576040517f08c379a000000000000000000000000000000000000000000000000000000000815260040161176d9061452a565b60405180910390fd5b80601b60006101000a81548173ffffffffffffffffffffffffffffffffffffffff021916908373ffffffffffffffffffffffffffffffffffffffff16021790555050565b6060600180546117c990614b0a565b80601f01602080910402602001604051908101604052809291908181526020018280546117f590614b0a565b80156118425780601f1061181757610100808354040283529160200191611842565b820191906000526020600020905b81548152906001019060200180831161182557829003601f168201915b5050505050905090565b611854612b4a565b73ffffffffffffffffffffffffffffffffffffffff168273ffffffffffffffffffffffffffffffffffffffff1614156118c2576040517f08c379a00000000000000000000000000000000000000000000000000000000081526004016118b99061456a565b60405180910390fd5b80600560006118cf612b4a565b73ffffffffffffffffffffffffffffffffffffffff1673ffffffffffffffffffffffffffffffffffffffff16815260200190815260200160002060008473ffffffffffffffffffffffffffffffffffffffff1673ffffffffffffffffffffffffffffffffffffffff16815260200190815260200160002060006101000a81548160ff0219169083151502179055508173ffffffffffffffffffffffffffffffffffffffff1661197c612b4a565b73ffffffffffffffffffffffffffffffffffffffff167f17307eab39ab6107e8899845ad3d59bd9653f200f220920489ca2b5937696c31836040516119c191906143a3565b60405180910390a35050565b6000601d600083815260200190815260200160002090503373ffffffffffffffffffffffffffffffffffffffff16601d600084815260200190815260200160002060010160009054906101000a900473ffffffffffffffffffffffffffffffffffffffff1673ffffffffffffffffffffffffffffffffffffffff1614611a88576040517f08c379a0000000000000000000000000000000000000000000000000000000008152600401611a7f9061470a565b60405180910390fd5b601860009054906101000a900473ffffffffffffffffffffffffffffffffffffffff1673ffffffffffffffffffffffffffffffffffffffff1663a9059cbb33601d6000868152602001908152602001600020600b01546040518363ffffffff1660e01b8152600401611afb929190614358565b602060405180830381600087803b158015611b1557600080fd5b505af1158015611b29573d6000803e3d6000fd5b505050506040513d601f19601f82011682018060405250810190611b4d9190613a42565b50611b586017612c0b565b60008160020160146101000a81548160ff0219169083151502179055505050565b60003373ffffffffffffffffffffffffffffffffffffffff16600660009054906101000a900473ffffffffffffffffffffffffffffffffffffffff1673ffffffffffffffffffffffffffffffffffffffff161415611bda5760019050611bdf565b600090505b90565b611bf3611bed612b4a565b83612c3f565b611c32576040517f08c379a0000000000000000000000000000000000000000000000000000000008152600401611c29906146ea565b60405180910390fd5b611c3e84848484612f79565b50505050565b6000601860009054906101000a900473ffffffffffffffffffffffffffffffffffffffff1673ffffffffffffffffffffffffffffffffffffffff1663dd62ed3e33306040518363ffffffff1660e01b8152600401611ca39291906142ac565b60206040518083038186803b158015611cbb57600080fd5b505afa158015611ccf573d6000803e3d6000fd5b505050506040513d601f19601f82011682018060405250810190611cf39190613b24565b905084811015611d38576040517f08c379a0000000000000000000000000000000000000000000000000000000008152600401611d2f9061472a565b60405180910390fd5b6000601d6000868152602001908152602001600020905060011515601b60009054906101000a900473ffffffffffffffffffffffffffffffffffffffff1673ffffffffffffffffffffffffffffffffffffffff166332dae5728360030154866040518363ffffffff1660e01b8152600401611db4929190614781565b60206040518083038186803b158015611dcc57600080fd5b505afa158015611de0573d6000803e3d6000fd5b505050506040513d601f19601f82011682018060405250810190611e049190613a42565b151514611e46576040517f08c379a0000000000000000000000000000000000000000000000000000000008152600401611e3d906144ea565b60405180910390fd5b600115158160020160149054906101000a900460ff16151514611e9e576040517f08c379a0000000000000000000000000000000000000000000000000000000008152600401611e959061464a565b60405180910390fd5b8581600b015414611ee4576040517f08c379a0000000000000000000000000000000000000000000000000000000008152600401611edb906146ca565b60405180910390fd5b601860009054906101000a900473ffffffffffffffffffffffffffffffffffffffff1673ffffffffffffffffffffffffffffffffffffffff166323b872dd3330896040518463ffffffff1660e01b8152600401611f43939291906142d5565b602060405180830381600087803b158015611f5d57600080fd5b505af1158015611f71573d6000803e3d6000fd5b505050506040513d601f19601f82011682018060405250810190611f959190613a42565b50601860009054906101000a900473ffffffffffffffffffffffffffffffffffffffff1673ffffffffffffffffffffffffffffffffffffffff1663095ea7b330886040518363ffffffff1660e01b8152600401611ff3929190614358565b602060405180830381600087803b15801561200d57600080fd5b505af1158015612021573d6000803e3d6000fd5b505050506040513d601f19601f820116820180604052508101906120459190613a42565b50338160020160006101000a81548173ffffffffffffffffffffffffffffffffffffffff021916908373ffffffffffffffffffffffffffffffffffffffff160217905550601960009054906101000a900473ffffffffffffffffffffffffffffffffffffffff1673ffffffffffffffffffffffffffffffffffffffff1663c1e03728856040518263ffffffff1660e01b81526004016120e49190614766565b6101606040518083038186803b1580156120fd57600080fd5b505afa158015612111573d6000803e3d6000fd5b505050506040513d601f19601f820116820180604052508101906121359190613ac9565b604001518160080181905550601960009054906101000a900473ffffffffffffffffffffffffffffffffffffffff1673ffffffffffffffffffffffffffffffffffffffff1663c1e03728856040518263ffffffff1660e01b815260040161219c9190614766565b6101606040518083038186803b1580156121b557600080fd5b505afa1580156121c9573d6000803e3d6000fd5b505050506040513d601f19601f820116820180604052508101906121ed9190613ac9565b606001518160090181905550600061221782600601548360070154846008015485600901546112c6565b90506000612223610fe2565b9050600082821061244b57600184600a0160006101000a81548160ff02191690831515021790555061271060145461271061225e9190614990565b600286600b015461226f9190614936565b6122799190614936565b6122839190614905565b9050601860009054906101000a900473ffffffffffffffffffffffffffffffffffffffff1673ffffffffffffffffffffffffffffffffffffffff1663a9059cbb8560010160009054906101000a900473ffffffffffffffffffffffffffffffffffffffff16836040518363ffffffff1660e01b8152600401612306929190614358565b602060405180830381600087803b15801561232057600080fd5b505af1158015612334573d6000803e3d6000fd5b505050506040513d601f19601f820116820180604052508101906123589190613a42565b50601860009054906101000a900473ffffffffffffffffffffffffffffffffffffffff1673ffffffffffffffffffffffffffffffffffffffff1663a9059cbb600860009054906101000a900473ffffffffffffffffffffffffffffffffffffffff1683600288600b01546123cc9190614936565b6123d69190614990565b6040518363ffffffff1660e01b81526004016123f3929190614358565b602060405180830381600087803b15801561240d57600080fd5b505af1158015612421573d6000803e3d6000fd5b505050506040513d601f19601f820116820180604052508101906124459190613a42565b5061266d565b8282101561266c57600084600a0160006101000a81548160ff0219169083151502179055506127106014546127106124839190614990565b600286600b01546124949190614936565b61249e9190614936565b6124a89190614905565b9050601860009054906101000a900473ffffffffffffffffffffffffffffffffffffffff1673ffffffffffffffffffffffffffffffffffffffff1663a9059cbb8560020160009054906101000a900473ffffffffffffffffffffffffffffffffffffffff16836040518363ffffffff1660e01b815260040161252b929190614358565b602060405180830381600087803b15801561254557600080fd5b505af1158015612559573d6000803e3d6000fd5b505050506040513d601f19601f8201168201806040525081019061257d9190613a42565b50601860009054906101000a900473ffffffffffffffffffffffffffffffffffffffff1673ffffffffffffffffffffffffffffffffffffffff1663a9059cbb600860009054906101000a900473ffffffffffffffffffffffffffffffffffffffff1683600288600b01546125f19190614936565b6125fb9190614990565b6040518363ffffffff1660e01b8152600401612618929190614358565b602060405180830381600087803b15801561263257600080fd5b505af1158015612646573d6000803e3d6000fd5b505050506040513d601f19601f8201168201806040525081019061266a9190613a42565b505b5b6126776017612c0b565b60008460020160146101000a81548160ff0219169083151502179055507f2f5bc7950fee04d7d1e6f66f582f6d7ff8b9eb1016c1f2034773e7d54057d75384600a0160009054906101000a900460ff1682866006015487600701548860080154896009015489896040516126f29897969594939291906143be565b60405180910390a1505050505050505050565b6000601454905090565b612717613525565b601d6000838152602001908152602001600020604051806101a0016040529081600082015481526020016001820160009054906101000a900473ffffffffffffffffffffffffffffffffffffffff1673ffffffffffffffffffffffffffffffffffffffff1673ffffffffffffffffffffffffffffffffffffffff1681526020016002820160009054906101000a900473ffffffffffffffffffffffffffffffffffffffff1673ffffffffffffffffffffffffffffffffffffffff1673ffffffffffffffffffffffffffffffffffffffff1681526020016002820160149054906101000a900460ff1615151515815260200160038201548152602001600482015481526020016005820154815260200160068201548152602001600782015481526020016008820154815260200160098201548152602001600a820160009054906101000a900460ff16151515158152602001600b820154815250509050919050565b606061288482612ade565b6128c3576040517f08c379a00000000000000000000000000000000000000000000000000000000081526004016128ba9061468a565b60405180910390fd5b60006128cd612fd5565b905060008151116128ed5760405180602001604052806000815250612918565b806128f784612fec565b60405160200161290892919061421f565b6040516020818303038152906040525b915050919050565b601960009054906101000a900473ffffffffffffffffffffffffffffffffffffffff1681565b6000600560008473ffffffffffffffffffffffffffffffffffffffff1673ffffffffffffffffffffffffffffffffffffffff16815260200190815260200160002060008373ffffffffffffffffffffffffffffffffffffffff1673ffffffffffffffffffffffffffffffffffffffff16815260200190815260200160002060009054906101000a900460ff16905092915050565b3373ffffffffffffffffffffffffffffffffffffffff16600660009054906101000a900473ffffffffffffffffffffffffffffffffffffffff1673ffffffffffffffffffffffffffffffffffffffff1614612a6a576040517f08c379a0000000000000000000000000000000000000000000000000000000008152600401612a619061452a565b60405180910390fd5b8060148190555050565b60007f01ffc9a7000000000000000000000000000000000000000000000000000000007bffffffffffffffffffffffffffffffffffffffffffffffffffffffff1916827bffffffffffffffffffffffffffffffffffffffffffffffffffffffff1916149050919050565b60008073ffffffffffffffffffffffffffffffffffffffff166002600084815260200190815260200160002060009054906101000a900473ffffffffffffffffffffffffffffffffffffffff1673ffffffffffffffffffffffffffffffffffffffff1614159050919050565b600033905090565b816004600083815260200190815260200160002060006101000a81548173ffffffffffffffffffffffffffffffffffffffff021916908373ffffffffffffffffffffffffffffffffffffffff160217905550808273ffffffffffffffffffffffffffffffffffffffff16612bc583611214565b73ffffffffffffffffffffffffffffffffffffffff167f8c5be1e5ebec7d5bd14f71427d1e84f3dd0314c0f7b2291e5b200ac8c7c3b92560405160405180910390a45050565b6001816000016000828254019250508190555050565b612c3b82826040518060200160405280600081525061314d565b5050565b6000612c4a82612ade565b612c89576040517f08c379a0000000000000000000000000000000000000000000000000000000008152600401612c809061458a565b60405180910390fd5b6000612c9483611214565b90508073ffffffffffffffffffffffffffffffffffffffff168473ffffffffffffffffffffffffffffffffffffffff161480612d0357508373ffffffffffffffffffffffffffffffffffffffff16612ceb8461078a565b73ffffffffffffffffffffffffffffffffffffffff16145b80612d145750612d138185612946565b5b91505092915050565b8273ffffffffffffffffffffffffffffffffffffffff16612d3d82611214565b73ffffffffffffffffffffffffffffffffffffffff1614612d93576040517f08c379a0000000000000000000000000000000000000000000000000000000008152600401612d8a9061466a565b60405180910390fd5b600073ffffffffffffffffffffffffffffffffffffffff168273ffffffffffffffffffffffffffffffffffffffff161415612e03576040517f08c379a0000000000000000000000000000000000000000000000000000000008152600401612dfa9061454a565b60405180910390fd5b612e0e8383836131a8565b612e19600082612b52565b6001600360008573ffffffffffffffffffffffffffffffffffffffff1673ffffffffffffffffffffffffffffffffffffffff1681526020019081526020016000206000828254612e699190614990565b925050819055506001600360008473ffffffffffffffffffffffffffffffffffffffff1673ffffffffffffffffffffffffffffffffffffffff1681526020019081526020016000206000828254612ec091906148af565b92505081905550816002600083815260200190815260200160002060006101000a81548173ffffffffffffffffffffffffffffffffffffffff021916908373ffffffffffffffffffffffffffffffffffffffff160217905550808273ffffffffffffffffffffffffffffffffffffffff168473ffffffffffffffffffffffffffffffffffffffff167fddf252ad1be2c89b69c2b068fc378daa952ba7f163c4a11628f55a4df523b3ef60405160405180910390a4505050565b612f84848484612d1d565b612f90848484846131ad565b612fcf576040517f08c379a0000000000000000000000000000000000000000000000000000000008152600401612fc6906144ca565b60405180910390fd5b50505050565b606060405180602001604052806000815250905090565b60606000821415613034576040518060400160405280600181526020017f30000000000000000000000000000000000000000000000000000000000000008152509050613148565b600082905060005b6000821461306657808061304f90614b6d565b915050600a8261305f9190614905565b915061303c565b60008167ffffffffffffffff81111561308257613081614cd1565b5b6040519080825280601f01601f1916602001820160405280156130b45781602001600182028036833780820191505090505b5090505b60008514613141576001826130cd9190614990565b9150600a856130dc9190614be4565b60306130e891906148af565b60f81b8183815181106130fe576130fd614ca2565b5b60200101907effffffffffffffffffffffffffffffffffffffffffffffffffffffffffffff1916908160001a905350600a8561313a9190614905565b94506130b8565b8093505050505b919050565b6131578383613344565b61316460008484846131ad565b6131a3576040517f08c379a000000000000000000000000000000000000000000000000000000000815260040161319a906144ca565b60405180910390fd5b505050565b505050565b60006131ce8473ffffffffffffffffffffffffffffffffffffffff16613512565b15613337578373ffffffffffffffffffffffffffffffffffffffff1663150b7a026131f7612b4a565b8786866040518563ffffffff1660e01b8152600401613219949392919061430c565b602060405180830381600087803b15801561323357600080fd5b505af192505050801561326457506040513d601f19601f820116820180604052508101906132619190613a9c565b60015b6132e7573d8060008114613294576040519150601f19603f3d011682016040523d82523d6000602084013e613299565b606091505b506000815114156132df576040517f08c379a00000000000000000000000000000000000000000000000000000000081526004016132d6906144ca565b60405180910390fd5b805181602001fd5b63150b7a0260e01b7bffffffffffffffffffffffffffffffffffffffffffffffffffffffff1916817bffffffffffffffffffffffffffffffffffffffffffffffffffffffff19161491505061333c565b600190505b949350505050565b600073ffffffffffffffffffffffffffffffffffffffff168273ffffffffffffffffffffffffffffffffffffffff1614156133b4576040517f08c379a00000000000000000000000000000000000000000000000000000000081526004016133ab9061460a565b60405180910390fd5b6133bd81612ade565b156133fd576040517f08c379a00000000000000000000000000000000000000000000000000000000081526004016133f49061450a565b60405180910390fd5b613409600083836131a8565b6001600360008473ffffffffffffffffffffffffffffffffffffffff1673ffffffffffffffffffffffffffffffffffffffff168152602001908152602001600020600082825461345991906148af565b92505081905550816002600083815260200190815260200160002060006101000a81548173ffffffffffffffffffffffffffffffffffffffff021916908373ffffffffffffffffffffffffffffffffffffffff160217905550808273ffffffffffffffffffffffffffffffffffffffff16600073ffffffffffffffffffffffffffffffffffffffff167fddf252ad1be2c89b69c2b068fc378daa952ba7f163c4a11628f55a4df523b3ef60405160405180910390a45050565b600080823b905060008111915050919050565b604051806101a0016040528060008152602001600073ffffffffffffffffffffffffffffffffffffffff168152602001600073ffffffffffffffffffffffffffffffffffffffff16815260200160001515815260200160008152602001600081526020016000815260200160008152602001600081526020016000815260200160008152602001600015158152602001600081525090565b60006135d06135cb846147d6565b6147b1565b905080838252602082019050828560208602820111156135f3576135f2614d0a565b5b60005b8581101561362357816136098882613855565b8452602084019350602083019250506001810190506135f6565b5050509392505050565b600061364061363b84614802565b6147b1565b90508281526020810184848401111561365c5761365b614d0f565b5b613667848285614ac8565b509392505050565b60008135905061367e81615238565b92915050565b60008151905061369381615238565b92915050565b600082601f8301126136ae576136ad614d00565b5b81356136be8482602086016135bd565b91505092915050565b6000813590506136d68161524f565b92915050565b6000815190506136eb8161524f565b92915050565b60008135905061370081615266565b92915050565b60008151905061371581615266565b92915050565b600082601f8301126137305761372f614d00565b5b813561374084826020860161362d565b91505092915050565b600061016082840312156137605761375f614d05565b5b61376b6101606147b1565b9050600061377b8482850161386a565b600083015250602061378f8482850161386a565b60208301525060406137a38482850161386a565b60408301525060606137b78482850161386a565b60608301525060806137cb8482850161386a565b60808301525060a06137df8482850161386a565b60a08301525060c06137f38482850161386a565b60c08301525060e0613807848285016136dc565b60e08301525061010061381c848285016136dc565b61010083015250610120613832848285016136dc565b6101208301525061014061384884828501613684565b6101408301525092915050565b6000813590506138648161527d565b92915050565b6000815190506138798161527d565b92915050565b60006020828403121561389557613894614d19565b5b60006138a38482850161366f565b91505092915050565b600080604083850312156138c3576138c2614d19565b5b60006138d18582860161366f565b92505060206138e28582860161366f565b9150509250929050565b60008060006060848603121561390557613904614d19565b5b60006139138682870161366f565b93505060206139248682870161366f565b925050604061393586828701613855565b9150509250925092565b6000806000806080858703121561395957613958614d19565b5b60006139678782880161366f565b94505060206139788782880161366f565b935050604061398987828801613855565b925050606085013567ffffffffffffffff8111156139aa576139a9614d14565b5b6139b68782880161371b565b91505092959194509250565b600080604083850312156139d9576139d8614d19565b5b60006139e78582860161366f565b92505060206139f8858286016136c7565b9150509250929050565b60008060408385031215613a1957613a18614d19565b5b6000613a278582860161366f565b9250506020613a3885828601613855565b9150509250929050565b600060208284031215613a5857613a57614d19565b5b6000613a66848285016136dc565b91505092915050565b600060208284031215613a8557613a84614d19565b5b6000613a93848285016136f1565b91505092915050565b600060208284031215613ab257613ab1614d19565b5b6000613ac084828501613706565b91505092915050565b60006101608284031215613ae057613adf614d19565b5b6000613aee84828501613749565b91505092915050565b600060208284031215613b0d57613b0c614d19565b5b6000613b1b84828501613855565b91505092915050565b600060208284031215613b3a57613b39614d19565b5b6000613b488482850161386a565b91505092915050565b60008060408385031215613b6857613b67614d19565b5b6000613b7685828601613855565b9250506020613b8785828601613855565b9150509250929050565b60008060008060808587031215613bab57613baa614d19565b5b6000613bb987828801613855565b9450506020613bca87828801613855565b9350506040613bdb87828801613855565b925050606085013567ffffffffffffffff811115613bfc57613bfb614d14565b5b613c0887828801613699565b91505092959194509250565b60008060008060808587031215613c2e57613c2d614d19565b5b6000613c3c87828801613855565b9450506020613c4d87828801613855565b9350506040613c5e87828801613855565b9250506060613c6f87828801613855565b91505092959194509250565b6000613c8783836141ea565b60208301905092915050565b613c9c816149c4565b82525050565b613cab816149c4565b82525050565b613cc2613cbd826149c4565b614bb6565b82525050565b6000613cd382614843565b613cdd8185614871565b9350613ce883614833565b8060005b83811015613d19578151613d008882613c7b565b9750613d0b83614864565b925050600181019050613cec565b5085935050505092915050565b613d2f816149d6565b82525050565b613d3e816149d6565b82525050565b6000613d4f8261484e565b613d598185614882565b9350613d69818560208601614ad7565b613d7281614d1e565b840191505092915050565b613d8681614a38565b82525050565b613d9581614a5c565b82525050565b613da481614a80565b82525050565b613db381614aa4565b82525050565b6000613dc482614859565b613dce8185614893565b9350613dde818560208601614ad7565b613de781614d1e565b840191505092915050565b6000613dfd82614859565b613e0781856148a4565b9350613e17818560208601614ad7565b80840191505092915050565b6000613e30603283614893565b9150613e3b82614d3c565b604082019050919050565b6000613e53600283614893565b9150613e5e82614d8b565b602082019050919050565b6000613e76601c83614893565b9150613e8182614db4565b602082019050919050565b6000613e99600183614893565b9150613ea482614ddd565b602082019050919050565b6000613ebc602483614893565b9150613ec782614e06565b604082019050919050565b6000613edf601983614893565b9150613eea82614e55565b602082019050919050565b6000613f02602c83614893565b9150613f0d82614e7e565b604082019050919050565b6000613f25603883614893565b9150613f3082614ecd565b604082019050919050565b6000613f48602a83614893565b9150613f5382614f1c565b604082019050919050565b6000613f6b602983614893565b9150613f7682614f6b565b604082019050919050565b6000613f8e602083614893565b9150613f9982614fba565b602082019050919050565b6000613fb1602c83614893565b9150613fbc82614fe3565b604082019050919050565b6000613fd4600283614893565b9150613fdf82615032565b602082019050919050565b6000613ff7602983614893565b91506140028261505b565b604082019050919050565b600061401a602f83614893565b9150614025826150aa565b604082019050919050565b600061403d602183614893565b9150614048826150f9565b604082019050919050565b6000614060600283614893565b915061406b82615148565b602082019050919050565b6000614083603183614893565b915061408e82615171565b604082019050919050565b60006140a6602e83614893565b91506140b1826151c0565b604082019050919050565b60006140c9600283614893565b91506140d48261520f565b602082019050919050565b6101a0820160008201516140f660008501826141ea565b5060208201516141096020850182613c93565b50604082015161411c6040850182613c93565b50606082015161412f6060850182613d26565b50608082015161414260808501826141ea565b5060a082015161415560a08501826141ea565b5060c082015161416860c08501826141ea565b5060e082015161417b60e08501826141ea565b506101008201516141906101008501826141ea565b506101208201516141a56101208501826141ea565b506101408201516141ba6101408501826141ea565b506101608201516141cf610160850182613d26565b506101808201516141e46101808501826141ea565b50505050565b6141f381614a2e565b82525050565b61420281614a2e565b82525050565b61421961421482614a2e565b614bda565b82525050565b600061422b8285613df2565b91506142378284613df2565b91508190509392505050565b600061424f8287614208565b60208201915061425f8286614208565b60208201915061426f8285614208565b60208201915061427f8284613cb1565b60148201915081905095945050505050565b60006020820190506142a66000830184613ca2565b92915050565b60006040820190506142c16000830185613ca2565b6142ce6020830184613ca2565b9392505050565b60006060820190506142ea6000830186613ca2565b6142f76020830185613ca2565b61430460408301846141f9565b949350505050565b60006080820190506143216000830187613ca2565b61432e6020830186613ca2565b61433b60408301856141f9565b818103606083015261434d8184613d44565b905095945050505050565b600060408201905061436d6000830185613ca2565b61437a60208301846141f9565b9392505050565b6000602082019050818103600083015261439b8184613cc8565b905092915050565b60006020820190506143b86000830184613d35565b92915050565b6000610100820190506143d4600083018b613d35565b6143e1602083018a6141f9565b6143ee60408301896141f9565b6143fb60608301886141f9565b61440860808301876141f9565b61441560a08301866141f9565b61442260c08301856141f9565b61442f60e08301846141f9565b9998505050505050505050565b60006020820190506144516000830184613d7d565b92915050565b600060208201905061446c6000830184613d8c565b92915050565b60006020820190506144876000830184613d9b565b92915050565b60006020820190506144a26000830184613daa565b92915050565b600060208201905081810360008301526144c28184613db9565b905092915050565b600060208201905081810360008301526144e381613e23565b9050919050565b6000602082019050818103600083015261450381613e46565b9050919050565b6000602082019050818103600083015261452381613e69565b9050919050565b6000602082019050818103600083015261454381613e8c565b9050919050565b6000602082019050818103600083015261456381613eaf565b9050919050565b6000602082019050818103600083015261458381613ed2565b9050919050565b600060208201905081810360008301526145a381613ef5565b9050919050565b600060208201905081810360008301526145c381613f18565b9050919050565b600060208201905081810360008301526145e381613f3b565b9050919050565b6000602082019050818103600083015261460381613f5e565b9050919050565b6000602082019050818103600083015261462381613f81565b9050919050565b6000602082019050818103600083015261464381613fa4565b9050919050565b6000602082019050818103600083015261466381613fc7565b9050919050565b6000602082019050818103600083015261468381613fea565b9050919050565b600060208201905081810360008301526146a38161400d565b9050919050565b600060208201905081810360008301526146c381614030565b9050919050565b600060208201905081810360008301526146e381614053565b9050919050565b6000602082019050818103600083015261470381614076565b9050919050565b6000602082019050818103600083015261472381614099565b9050919050565b60006020820190508181036000830152614743816140bc565b9050919050565b60006101a08201905061476060008301846140df565b92915050565b600060208201905061477b60008301846141f9565b92915050565b600060408201905061479660008301856141f9565b81810360208301526147a88184613cc8565b90509392505050565b60006147bb6147cc565b90506147c78282614b3c565b919050565b6000604051905090565b600067ffffffffffffffff8211156147f1576147f0614cd1565b5b602082029050602081019050919050565b600067ffffffffffffffff82111561481d5761481c614cd1565b5b61482682614d1e565b9050602081019050919050565b6000819050602082019050919050565b600081519050919050565b600081519050919050565b600081519050919050565b6000602082019050919050565b600082825260208201905092915050565b600082825260208201905092915050565b600082825260208201905092915050565b600081905092915050565b60006148ba82614a2e565b91506148c583614a2e565b9250827fffffffffffffffffffffffffffffffffffffffffffffffffffffffffffffffff038211156148fa576148f9614c15565b5b828201905092915050565b600061491082614a2e565b915061491b83614a2e565b92508261492b5761492a614c44565b5b828204905092915050565b600061494182614a2e565b915061494c83614a2e565b9250817fffffffffffffffffffffffffffffffffffffffffffffffffffffffffffffffff048311821515161561498557614984614c15565b5b828202905092915050565b600061499b82614a2e565b91506149a683614a2e565b9250828210156149b9576149b8614c15565b5b828203905092915050565b60006149cf82614a0e565b9050919050565b60008115159050919050565b60007fffffffff0000000000000000000000000000000000000000000000000000000082169050919050565b600073ffffffffffffffffffffffffffffffffffffffff82169050919050565b6000819050919050565b6000614a4382614a4a565b9050919050565b6000614a5582614a0e565b9050919050565b6000614a6782614a6e565b9050919050565b6000614a7982614a0e565b9050919050565b6000614a8b82614a92565b9050919050565b6000614a9d82614a0e565b9050919050565b6000614aaf82614ab6565b9050919050565b6000614ac182614a0e565b9050919050565b82818337600083830152505050565b60005b83811015614af5578082015181840152602081019050614ada565b83811115614b04576000848401525b50505050565b60006002820490506001821680614b2257607f821691505b60208210811415614b3657614b35614c73565b5b50919050565b614b4582614d1e565b810181811067ffffffffffffffff82111715614b6457614b63614cd1565b5b80604052505050565b6000614b7882614a2e565b91507fffffffffffffffffffffffffffffffffffffffffffffffffffffffffffffffff821415614bab57614baa614c15565b5b600182019050919050565b6000614bc182614bc8565b9050919050565b6000614bd382614d2f565b9050919050565b6000819050919050565b6000614bef82614a2e565b9150614bfa83614a2e565b925082614c0a57614c09614c44565b5b828206905092915050565b7f4e487b7100000000000000000000000000000000000000000000000000000000600052601160045260246000fd5b7f4e487b7100000000000000000000000000000000000000000000000000000000600052601260045260246000fd5b7f4e487b7100000000000000000000000000000000000000000000000000000000600052602260045260246000fd5b7f4e487b7100000000000000000000000000000000000000000000000000000000600052603260045260246000fd5b7f4e487b7100000000000000000000000000000000000000000000000000000000600052604160045260246000fd5b600080fd5b600080fd5b600080fd5b600080fd5b600080fd5b600080fd5b6000601f19601f8301169050919050565b60008160601b9050919050565b7f4552433732313a207472616e7366657220746f206e6f6e20455243373231526560008201527f63656976657220696d706c656d656e7465720000000000000000000000000000602082015250565b7f4e36000000000000000000000000000000000000000000000000000000000000600082015250565b7f4552433732313a20746f6b656e20616c7265616479206d696e74656400000000600082015250565b7f6100000000000000000000000000000000000000000000000000000000000000600082015250565b7f4552433732313a207472616e7366657220746f20746865207a65726f2061646460008201527f7265737300000000000000000000000000000000000000000000000000000000602082015250565b7f4552433732313a20617070726f766520746f2063616c6c657200000000000000600082015250565b7f4552433732313a206f70657261746f7220717565727920666f72206e6f6e657860008201527f697374656e7420746f6b656e0000000000000000000000000000000000000000602082015250565b7f4552433732313a20617070726f76652063616c6c6572206973206e6f74206f7760008201527f6e6572206e6f7220617070726f76656420666f7220616c6c0000000000000000602082015250565b7f4552433732313a2062616c616e636520717565727920666f7220746865207a6560008201527f726f206164647265737300000000000000000000000000000000000000000000602082015250565b7f4552433732313a206f776e657220717565727920666f72206e6f6e657869737460008201527f656e7420746f6b656e0000000000000000000000000000000000000000000000602082015250565b7f4552433732313a206d696e7420746f20746865207a65726f2061646472657373600082015250565b7f4552433732313a20617070726f76656420717565727920666f72206e6f6e657860008201527f697374656e7420746f6b656e0000000000000000000000000000000000000000602082015250565b7f4e32000000000000000000000000000000000000000000000000000000000000600082015250565b7f4552433732313a207472616e73666572206f6620746f6b656e2074686174206960008201527f73206e6f74206f776e0000000000000000000000000000000000000000000000602082015250565b7f4552433732314d657461646174613a2055524920717565727920666f72206e6f60008201527f6e6578697374656e7420746f6b656e0000000000000000000000000000000000602082015250565b7f4552433732313a20617070726f76616c20746f2063757272656e74206f776e6560008201527f7200000000000000000000000000000000000000000000000000000000000000602082015250565b7f4e35000000000000000000000000000000000000000000000000000000000000600082015250565b7f4552433732313a207472616e736665722063616c6c6572206973206e6f74206f60008201527f776e6572206e6f7220617070726f766564000000000000000000000000000000602082015250565b7f4f6e6c79207468652063726561746f72206f662074686973206d61746368757060008201527f2063616e2063616e63656c206974000000000000000000000000000000000000602082015250565b7f4e31000000000000000000000000000000000000000000000000000000000000600082015250565b615241816149c4565b811461524c57600080fd5b50565b615258816149d6565b811461526357600080fd5b50565b61526f816149e2565b811461527a57600080fd5b50565b61528681614a2e565b811461529157600080fd5b5056fea2646970667358221220e26ac92869de7957c1f1090cef8507c1834b6eeaa13ccc834c1bc36c9d0c54a264736f6c63430008060033",
  "immutableReferences": {},
  "source": "// SPDX-License-Identifier: GPL-3.0\r\n\r\npragma solidity >=0.7.0 <0.9.0;\r\nimport \"../node_modules/@openzeppelin/contracts/token/ERC721/ERC721.sol\";\r\nimport \"../node_modules/@openzeppelin/contracts/token/ERC20/IERC20.sol\";\r\nimport \"../contracts/PBMatchupsMarket.sol\";\r\nimport \"../contracts/PBTeams.sol\";\r\nimport \"../node_modules/@openzeppelin/contracts/utils/Counters.sol\";\r\nimport \"../contracts/PBMatchupValidation.sol\";\r\n\r\ncontract PBMatchups is ERC721 {\r\n    \r\n    address admin;\r\n    address matchupsMarket;\r\n    address feesAddress;\r\n    uint maxOpScore = 397;\r\n    uint maxDpScore = 447;\r\n    uint nonce = 0;\r\n    uint bellCurveIterations = 4;\r\n    uint OPmin = 150;\r\n    uint DPmin = 175;\r\n    uint GPmin = 75;\r\n    uint GPmax = 99;\r\n    uint pointsMax = 447;\r\n    uint controlNumber = 224;\r\n    uint opportunityAdjust = 10;\r\n    uint feePercent = 10; // 100 is 1%, 10 is 0.1%, 1 is 0.01%\r\n    uint activeMatches = 0;\r\n    using Counters for Counters.Counter;\r\n    Counters.Counter private _matchupsCreated;\r\n    Counters.Counter private _matchupsCompleted;\r\n    IERC20 public buddies;\r\n    PBTeams public pbTeams;\r\n    PBMatchupsMarket public pbMatchupsMarket;\r\n    PBMatchupValidation public pbMatchupValidation;\r\n\r\n    \r\nevent NewMatchup(uint id, uint teamId, uint t1stats, uint t2stats, uint t1AttackBP, uint t2AttackBP, uint oddsMod, uint result, bool isWinner);\r\n    \r\nstruct Matchup{\r\n        uint matchId;\r\n        address creator;\r\n        address challenger;\r\n        bool active;\r\n        uint teamId;\r\n        uint teamDna;\r\n        uint timestamp;\r\n        uint t1OStats;\r\n        uint t1DStats;\r\n        uint t2OStats;\r\n        uint t2DStats;\r\n        bool creatorIsWinner;\r\n        uint buddiesAmount;\r\n    }\r\n    \r\n    uint nextId = 0;\r\n    \r\n    mapping (uint => Matchup) private _matchupDetails;\r\n\r\n    event winResult(bool creatorIswinner, uint prize, uint t1OStats, uint t1DStats, uint t2OStats, uint t2DStats, uint winningBp, uint randResult);\r\n    \r\n    constructor(address _buddiesCoinAddress, address _feesAddress, address _pbTeamsAddress, address _pbMatchupValidationAddress) ERC721(\"Puck Buddies Matchup\", \"PBM\") {\r\n        admin = msg.sender;\r\n        feesAddress = _feesAddress;\r\n        buddies = IERC20(_buddiesCoinAddress);\r\n        pbTeams = PBTeams(_pbTeamsAddress);\r\n        pbMatchupValidation = PBMatchupValidation(_pbMatchupValidationAddress);\r\n    }\r\n    \r\n    modifier onlyAdmin() {\r\n        require(admin == msg.sender, \"a\" );\r\n        _;\r\n    }\r\n    \r\n    function isAdmin() public view returns (bool){\r\n        if(admin == msg.sender){\r\n            return true;\r\n        } else return false;\r\n    }\r\n\r\n    function getPbMatchupsAddress() public view returns (address){\r\n        return address(this);\r\n    }\r\n\r\n    function updateMatchupsMarketAddress(address _pbMatchupsMarketAddress) external onlyAdmin {\r\n        pbMatchupsMarket = PBMatchupsMarket(_pbMatchupsMarketAddress);\r\n        matchupsMarket = _pbMatchupsMarketAddress;\r\n    }\r\n\r\n    function updateBuddiesCoinAddress(address _buddiesCoinAddress) external onlyAdmin {\r\n        buddies = IERC20(_buddiesCoinAddress);\r\n    } \r\n\r\n    function updatePBMatchupValidationAddress(address _pbMatchupValidationAddress) external onlyAdmin {\r\n        pbMatchupValidation = PBMatchupValidation(_pbMatchupValidationAddress);\r\n    }\r\n\r\n    function getFeePercent() public view returns(uint){\r\n        return feePercent;\r\n    }\r\n\r\n    function updateFeePercent(uint newFee) external onlyAdmin {\r\n        feePercent = newFee;\r\n    }\r\n\r\n    function getAllTokensForUser(address user) public view returns (uint256[] memory){\r\n        uint256 tokenCount = balanceOf(user);\r\n        if(tokenCount == 0){\r\n            return new uint256[](0);\r\n        }\r\n        else{\r\n            uint[] memory result = new uint256[](tokenCount);\r\n            uint256 totalMatches = nextId;\r\n            uint256 resultIndex = 0;\r\n            uint256 i;\r\n            for(i = 0; i < totalMatches; i++){\r\n                if(ownerOf(i) == user){\r\n                    result[resultIndex] = i;\r\n                    resultIndex++;\r\n                }\r\n                \r\n            }\r\n            return result;\r\n        }\r\n    }\r\n\r\n    //Dont delete this code yet. Use PBProShop getProShopMarketPlaceItems to refactor the code above\r\n\r\n    // function getAllValidTokens() public view returns (uint256[] memory){\r\n    //     uint tokenCount = _matchupsCreated.current() - _matchupsCompleted.current();\r\n    //     if(tokenCount == 0){\r\n    //         return new uint256[](0);\r\n    //     }\r\n    //     else{\r\n    //         uint[] memory result = new uint256[](tokenCount);\r\n    //         uint256 totalMatches = nextId;\r\n    //         uint256 resultIndex = 0;\r\n    //         for(uint i = 0; i < totalMatches; i++){\r\n    //             if(_matchupDetails[i+1].active == true){\r\n    //                 result[resultIndex] = i;\r\n    //                 resultIndex++;\r\n    //             }\r\n                \r\n    //         }\r\n    //         return result;\r\n    //     }\r\n    // }\r\n\r\n    function getTokenDetails(uint tokenId) public view returns (Matchup memory){\r\n        return _matchupDetails[tokenId];\r\n    }\r\n\r\n    function createMatchup(uint teamId, uint buddiesSent) public {\r\n        //require(pbMatchupValidation.varifyPlayerAgesOnTeam(teamId) == true, \"N6\");\r\n        uint allowance = buddies.allowance(msg.sender, address(this));\r\n        require(allowance >= buddiesSent);\r\n        _matchupsCreated.increment();\r\n        uint teamDna = pbTeams.getTokenDetails(teamId).teamDna;\r\n        uint teamOp = pbTeams.getTokenDetails(teamId).teamTotalOP;\r\n        uint teamDp = pbTeams.getTokenDetails(teamId).teamTotalDP;\r\n        buddies.transferFrom(msg.sender, address(this), buddiesSent);\r\n        buddies.approve(address(this), buddiesSent);\r\n        _matchupDetails[nextId] = Matchup(\r\n                            nextId,\r\n                            msg.sender,\r\n                            0x0000000000000000000000000000000000000000,\r\n                            true,\r\n                            teamId,\r\n                            teamDna,\r\n                            block.timestamp,\r\n                            teamOp,\r\n                            teamDp,\r\n                            0,\r\n                            0,\r\n                            false,\r\n                            buddiesSent\r\n                            );\r\n\r\n        _safeMint(matchupsMarket, nextId);\r\n        setApprovalForAll(matchupsMarket, true);\r\n        nextId++;      \r\n    }\r\n\r\n    function PvPHitTheIce(uint buddiesSent, uint pvpmatchupId, uint chalTeamId, uint[] memory playerIdArray) public {\r\n        //require(pbMatchupValidation.varifyPlayerAgesOnTeam(chalTeamId) == true, \"N6\");\r\n        uint allowance = buddies.allowance(msg.sender, address(this));\r\n        require(allowance >= buddiesSent, \"N1\");\r\n        Matchup storage pvpMatchup = _matchupDetails[pvpmatchupId];\r\n        require(pbMatchupValidation.varifyPlayerAgesOnTeam(pvpMatchup.teamId, playerIdArray) == true, \"N6\");\r\n        require(pvpMatchup.active == true,\"N2\");\r\n        require(pvpMatchup.buddiesAmount == buddiesSent,\"N5\");\r\n        buddies.transferFrom(msg.sender, address(this), buddiesSent);\r\n        buddies.approve(address(this), buddiesSent);\r\n        pvpMatchup.challenger = msg.sender;\r\n        pvpMatchup.t2OStats = pbTeams.getTokenDetails(chalTeamId).teamTotalOP;\r\n        pvpMatchup.t2DStats = pbTeams.getTokenDetails(chalTeamId).teamTotalDP;\r\n        uint winningBp = getWinningBP(pvpMatchup.t1OStats, pvpMatchup.t1DStats, pvpMatchup.t2OStats, pvpMatchup.t2DStats);\r\n        uint randResult = generateResult();\r\n        uint prize;\r\n        if(randResult >= winningBp){\r\n            pvpMatchup.creatorIsWinner = true;\r\n            prize = ((pvpMatchup.buddiesAmount *2)*((10000-feePercent))/10000);\r\n            buddies.transfer(pvpMatchup.creator, prize);\r\n            buddies.transfer(feesAddress, (pvpMatchup.buddiesAmount *2) - (prize));             \r\n        }else if(randResult < winningBp){\r\n            pvpMatchup.creatorIsWinner = false;\r\n            prize = ((pvpMatchup.buddiesAmount *2)*((10000-feePercent))/10000);\r\n            buddies.transfer(pvpMatchup.challenger, prize);\r\n            buddies.transfer(feesAddress, (pvpMatchup.buddiesAmount *2) - (prize));\r\n        }\r\n        _matchupsCompleted.increment();\r\n        pvpMatchup.active = false; \r\n        emit winResult(pvpMatchup.creatorIsWinner, prize, pvpMatchup.t1OStats, pvpMatchup.t1DStats, pvpMatchup.t2OStats, pvpMatchup.t2DStats, winningBp, randResult);\r\n    }\r\n    \r\n    function getWinningBP(uint pOP, uint pDP, uint cOP, uint cDP) public view returns (uint){\r\n     uint pOPpercent = (pOP*10000)/maxOpScore;\r\n     uint pDPpercent = (pDP*10000)/maxDpScore;\r\n     uint cOPpercent = (((maxOpScore-cOP)*10000)/maxOpScore);\r\n     uint cDPpercent = (((maxDpScore-cDP)*10000)/maxDpScore);\r\n     uint pBP = (pOPpercent+pDPpercent)/2;\r\n     uint cBP = (cOPpercent+cDPpercent)/2;\r\n     uint winningBreakPoint = (pBP+cBP)/2;\r\n     return winningBreakPoint;\r\n}\r\n\r\n    function generateResult() public view returns (uint){\r\n        uint operator;\r\n        uint i;\r\n        for(i = 0; i < bellCurveIterations; i++){\r\n            operator = operator + (uint(keccak256(abi.encodePacked(i, nonce, block.timestamp, msg.sender))) % 10000);\r\n        }\r\n        uint result = operator/bellCurveIterations;\r\n        return result;\r\n    }\r\n\r\n    function generateRandomStat(uint mod) private view returns (uint) {\r\n        uint operator = 0;\r\n        uint i;\r\n        for( i = 0; i < bellCurveIterations; i++) {\r\n            operator = operator + (uint(keccak256(abi.encodePacked(i, block.timestamp,  msg.sender))) % mod);\r\n        }\r\n        uint result = operator/bellCurveIterations;\r\n        return result;\r\n    }\r\n\r\n    function cancelMatchup(uint matchId) public {\r\n        Matchup storage pvpMatchup = _matchupDetails[matchId];\r\n        require (_matchupDetails[matchId].creator == msg.sender, \"Only the creator of this matchup can cancel it\");\r\n         buddies.transfer(msg.sender, _matchupDetails[matchId].buddiesAmount);\r\n         _matchupsCompleted.increment();\r\n         pvpMatchup.active = false;\r\n    }\r\n    \r\n}",
  "sourcePath": "O:\\Projects\\puck-buddies\\contracts\\PBMatchups.sol",
  "compiler": {
    "name": "solc",
    "version": "0.8.6+commit.11564f7e.Emscripten.clang"
  },
  "schemaVersion": "3.4.3",
  "updatedAt": "2022-01-04T04:51:34.983Z",
  "networkType": "ethereum",
  "devdoc": {
    "kind": "dev",
    "methods": {
      "approve(address,uint256)": {
        "details": "See {IERC721-approve}."
      },
      "balanceOf(address)": {
        "details": "See {IERC721-balanceOf}."
      },
      "getApproved(uint256)": {
        "details": "See {IERC721-getApproved}."
      },
      "isApprovedForAll(address,address)": {
        "details": "See {IERC721-isApprovedForAll}."
      },
      "name()": {
        "details": "See {IERC721Metadata-name}."
      },
      "ownerOf(uint256)": {
        "details": "See {IERC721-ownerOf}."
      },
      "safeTransferFrom(address,address,uint256)": {
        "details": "See {IERC721-safeTransferFrom}."
      },
      "safeTransferFrom(address,address,uint256,bytes)": {
        "details": "See {IERC721-safeTransferFrom}."
      },
      "setApprovalForAll(address,bool)": {
        "details": "See {IERC721-setApprovalForAll}."
      },
      "supportsInterface(bytes4)": {
        "details": "See {IERC165-supportsInterface}."
      },
      "symbol()": {
        "details": "See {IERC721Metadata-symbol}."
      },
      "tokenURI(uint256)": {
        "details": "See {IERC721Metadata-tokenURI}."
      },
      "transferFrom(address,address,uint256)": {
        "details": "See {IERC721-transferFrom}."
      }
    },
    "version": 1
  },
  "userdoc": {
    "kind": "user",
    "methods": {},
    "version": 1
  }
}