{
  "contractName": "PBMatchupsMarket",
  "abi": [
    {
      "inputs": [],
      "name": "getPBMatchupsMarketAddress",
      "outputs": [
        {
          "internalType": "address",
          "name": "",
          "type": "address"
        }
      ],
      "stateMutability": "view",
      "type": "function",
      "constant": true
    },
    {
      "inputs": [
        {
          "internalType": "address",
          "name": "",
          "type": "address"
        },
        {
          "internalType": "address",
          "name": "",
          "type": "address"
        },
        {
          "internalType": "uint256",
          "name": "",
          "type": "uint256"
        },
        {
          "internalType": "bytes",
          "name": "",
          "type": "bytes"
        }
      ],
      "name": "onERC721Received",
      "outputs": [
        {
          "internalType": "bytes4",
          "name": "",
          "type": "bytes4"
        }
      ],
      "stateMutability": "nonpayable",
      "type": "function"
    }
  ],
  "bytecode": "0x608060405234801561001057600080fd5b506103cc806100206000396000f3fe608060405234801561001057600080fd5b50600436106100365760003560e01c8063150b7a021461003b57806389655c2d1461006b575b600080fd5b6100556004803603810190610050919061013f565b610089565b60405161006291906101fb565b60405180910390f35b61007361009d565b60405161008091906101e0565b60405180910390f35b600063150b7a0260e01b9050949350505050565b600030905090565b60006100b86100b38461023b565b610216565b9050828152602081018484840111156100d4576100d3610348565b5b6100df8482856102d4565b509392505050565b6000813590506100f681610368565b92915050565b600082601f83011261011157610110610343565b5b81356101218482602086016100a5565b91505092915050565b6000813590506101398161037f565b92915050565b6000806000806080858703121561015957610158610352565b5b6000610167878288016100e7565b9450506020610178878288016100e7565b93505060406101898782880161012a565b925050606085013567ffffffffffffffff8111156101aa576101a961034d565b5b6101b6878288016100fc565b91505092959194509250565b6101cb8161026c565b82525050565b6101da8161027e565b82525050565b60006020820190506101f560008301846101c2565b92915050565b600060208201905061021060008301846101d1565b92915050565b6000610220610231565b905061022c82826102e3565b919050565b6000604051905090565b600067ffffffffffffffff82111561025657610255610314565b5b61025f82610357565b9050602081019050919050565b6000610277826102aa565b9050919050565b60007fffffffff0000000000000000000000000000000000000000000000000000000082169050919050565b600073ffffffffffffffffffffffffffffffffffffffff82169050919050565b6000819050919050565b82818337600083830152505050565b6102ec82610357565b810181811067ffffffffffffffff8211171561030b5761030a610314565b5b80604052505050565b7f4e487b7100000000000000000000000000000000000000000000000000000000600052604160045260246000fd5b600080fd5b600080fd5b600080fd5b600080fd5b6000601f19601f8301169050919050565b6103718161026c565b811461037c57600080fd5b50565b610388816102ca565b811461039357600080fd5b5056fea2646970667358221220261955c2fe32c5c1316dbb80cef5118c71f92414260fcdbb3f3722e6ae0e871964736f6c63430008060033",
  "immutableReferences": {},
  "source": "// SPDX-License-Identifier: MIT\r\npragma solidity >=0.4.22 <0.9.0;\r\n\r\nimport \"../node_modules/@openzeppelin/contracts/token/ERC721/IERC721Receiver.sol\";\r\n\r\ncontract PBMatchupsMarket is IERC721Receiver {\r\n\r\n    function getPBMatchupsMarketAddress() public view returns (address) {\r\n        return address(this);\r\n    }\r\n\r\n    function onERC721Received(address, address, uint256, bytes memory) public virtual override returns (bytes4) {\r\n        return this.onERC721Received.selector;\r\n    }\r\n\r\n\r\n}",
  "sourcePath": "O:\\Projects\\puck-buddies\\contracts\\PBMatchupsMarket.sol",
  "compiler": {
    "name": "solc",
    "version": "0.8.6+commit.11564f7e.Emscripten.clang"
  },
  "schemaVersion": "3.4.3",
  "updatedAt": "2021-11-05T12:07:33.985Z",
  "networkType": "ethereum",
  "devdoc": {
    "kind": "dev",
    "methods": {},
    "version": 1
  },
  "userdoc": {
    "kind": "user",
    "methods": {},
    "version": 1
  }
}