{
  "contractName": "PBMatchupValidation",
  "abi": [
    {
      "inputs": [
        {
          "internalType": "address",
          "name": "_pbTeamsAddress",
          "type": "address"
        },
        {
          "internalType": "address",
          "name": "_pbPlayersAddress",
          "type": "address"
        }
      ],
      "stateMutability": "nonpayable",
      "type": "constructor"
    },
    {
      "inputs": [],
      "name": "pbPlayers",
      "outputs": [
        {
          "internalType": "contract PBPlayers",
          "name": "",
          "type": "address"
        }
      ],
      "stateMutability": "view",
      "type": "function",
      "constant": true
    },
    {
      "inputs": [],
      "name": "pbTeams",
      "outputs": [
        {
          "internalType": "contract PBTeams",
          "name": "",
          "type": "address"
        }
      ],
      "stateMutability": "view",
      "type": "function",
      "constant": true
    },
    {
      "inputs": [],
      "name": "getPBMatchupsAddress",
      "outputs": [
        {
          "internalType": "address",
          "name": "",
          "type": "address"
        }
      ],
      "stateMutability": "view",
      "type": "function",
      "constant": true
    },
    {
      "inputs": [
        {
          "internalType": "address",
          "name": "_pbTeamsAddress",
          "type": "address"
        }
      ],
      "name": "updatePBTeamsAddress",
      "outputs": [],
      "stateMutability": "nonpayable",
      "type": "function"
    },
    {
      "inputs": [
        {
          "internalType": "address",
          "name": "_pbPlayersAddress",
          "type": "address"
        }
      ],
      "name": "updatePBPlayersAddress",
      "outputs": [],
      "stateMutability": "nonpayable",
      "type": "function"
    },
    {
      "inputs": [
        {
          "internalType": "uint256",
          "name": "teamId",
          "type": "uint256"
        },
        {
          "internalType": "uint256[]",
          "name": "playerIds",
          "type": "uint256[]"
        }
      ],
      "name": "varifyPlayerAgesOnTeam",
      "outputs": [
        {
          "internalType": "bool",
          "name": "",
          "type": "bool"
        }
      ],
      "stateMutability": "view",
      "type": "function",
      "constant": true
    }
  ],
  "bytecode": "0x608060405234801561001057600080fd5b50604051610d6a380380610d6a83398181016040528101906100329190610110565b336000806101000a81548173ffffffffffffffffffffffffffffffffffffffff021916908373ffffffffffffffffffffffffffffffffffffffff16021790555081600160006101000a81548173ffffffffffffffffffffffffffffffffffffffff021916908373ffffffffffffffffffffffffffffffffffffffff16021790555080600260006101000a81548173ffffffffffffffffffffffffffffffffffffffff021916908373ffffffffffffffffffffffffffffffffffffffff160217905550505061019e565b60008151905061010a81610187565b92915050565b6000806040838503121561012757610126610182565b5b6000610135858286016100fb565b9250506020610146858286016100fb565b9150509250929050565b600061015b82610162565b9050919050565b600073ffffffffffffffffffffffffffffffffffffffff82169050919050565b600080fd5b61019081610150565b811461019b57600080fd5b50565b610bbd806101ad6000396000f3fe608060405234801561001057600080fd5b50600436106100625760003560e01c806332dae5721461006757806363eaef5a146100975780636bf082da146100b55780639616cc94146100d1578063e00c01c5146100ed578063e80826431461010b575b600080fd5b610081600480360381019061007c9190610776565b610129565b60405161008e919061085b565b60405180910390f35b61009f610324565b6040516100ac9190610876565b60405180910390f35b6100cf60048036038101906100ca919061071b565b61034a565b005b6100eb60048036038101906100e6919061071b565b61041c565b005b6100f56104ee565b6040516101029190610891565b60405180910390f35b610113610514565b6040516101209190610840565b60405180910390f35b60008060008091505b60068210156103035784600260009054906101000a900473ffffffffffffffffffffffffffffffffffffffff1673ffffffffffffffffffffffffffffffffffffffff1663c1e0372886858151811061018d5761018c610a82565b5b60200260200101516040518263ffffffff1660e01b81526004016101b191906108cc565b6101806040518083038186803b1580156101ca57600080fd5b505afa1580156101de573d6000803e3d6000fd5b505050506040513d601f19601f820116820180604052508101906102029190610748565b608001511480156102dc575042600260009054906101000a900473ffffffffffffffffffffffffffffffffffffffff1673ffffffffffffffffffffffffffffffffffffffff1663c1e037288685815181106102605761025f610a82565b5b60200260200101516040518263ffffffff1660e01b815260040161028491906108cc565b6101806040518083038186803b15801561029d57600080fd5b505afa1580156102b1573d6000803e3d6000fd5b505050506040513d601f19601f820116820180604052508101906102d59190610748565b6101000151115b156102f05780806102ec90610a0a565b9150505b81806102fb90610a0a565b925050610132565b60068114156103175760019250505061031e565b6000925050505b92915050565b600260009054906101000a900473ffffffffffffffffffffffffffffffffffffffff1681565b3373ffffffffffffffffffffffffffffffffffffffff1660008054906101000a900473ffffffffffffffffffffffffffffffffffffffff1673ffffffffffffffffffffffffffffffffffffffff16146103d8576040517f08c379a00000000000000000000000000000000000000000000000000000000081526004016103cf906108ac565b60405180910390fd5b80600160006101000a81548173ffffffffffffffffffffffffffffffffffffffff021916908373ffffffffffffffffffffffffffffffffffffffff16021790555050565b3373ffffffffffffffffffffffffffffffffffffffff1660008054906101000a900473ffffffffffffffffffffffffffffffffffffffff1673ffffffffffffffffffffffffffffffffffffffff16146104aa576040517f08c379a00000000000000000000000000000000000000000000000000000000081526004016104a1906108ac565b60405180910390fd5b80600260006101000a81548173ffffffffffffffffffffffffffffffffffffffff021916908373ffffffffffffffffffffffffffffffffffffffff16021790555050565b600160009054906101000a900473ffffffffffffffffffffffffffffffffffffffff1681565b600030905090565b600061052f61052a8461090c565b6108e7565b9050808382526020820190508285602086028201111561055257610551610aea565b5b60005b85811015610582578161056888826106f1565b845260208401935060208301925050600181019050610555565b5050509392505050565b60008135905061059b81610b59565b92915050565b600082601f8301126105b6576105b5610ae0565b5b81356105c684826020860161051c565b91505092915050565b600061018082840312156105e6576105e5610ae5565b5b6105f16101806108e7565b9050600061060184828501610706565b600083015250602061061584828501610706565b602083015250604061062984828501610706565b604083015250606061063d84828501610706565b606083015250608061065184828501610706565b60808301525060a061066584828501610706565b60a08301525060c061067984828501610706565b60c08301525060e061068d84828501610706565b60e0830152506101006106a284828501610706565b610100830152506101206106b884828501610706565b610120830152506101406106ce84828501610706565b610140830152506101606106e484828501610706565b6101608301525092915050565b60008135905061070081610b70565b92915050565b60008151905061071581610b70565b92915050565b60006020828403121561073157610730610af4565b5b600061073f8482850161058c565b91505092915050565b6000610180828403121561075f5761075e610af4565b5b600061076d848285016105cf565b91505092915050565b6000806040838503121561078d5761078c610af4565b5b600061079b858286016106f1565b925050602083013567ffffffffffffffff8111156107bc576107bb610aef565b5b6107c8858286016105a1565b9150509250929050565b6107db81610949565b82525050565b6107ea8161095b565b82525050565b6107f981610991565b82525050565b610808816109b5565b82525050565b600061081b603d83610938565b915061082682610b0a565b604082019050919050565b61083a81610987565b82525050565b600060208201905061085560008301846107d2565b92915050565b600060208201905061087060008301846107e1565b92915050565b600060208201905061088b60008301846107f0565b92915050565b60006020820190506108a660008301846107ff565b92915050565b600060208201905081810360008301526108c58161080e565b9050919050565b60006020820190506108e16000830184610831565b92915050565b60006108f1610902565b90506108fd82826109d9565b919050565b6000604051905090565b600067ffffffffffffffff82111561092757610926610ab1565b5b602082029050602081019050919050565b600082825260208201905092915050565b600061095482610967565b9050919050565b60008115159050919050565b600073ffffffffffffffffffffffffffffffffffffffff82169050919050565b6000819050919050565b600061099c826109a3565b9050919050565b60006109ae82610967565b9050919050565b60006109c0826109c7565b9050919050565b60006109d282610967565b9050919050565b6109e282610af9565b810181811067ffffffffffffffff82111715610a0157610a00610ab1565b5b80604052505050565b6000610a1582610987565b91507fffffffffffffffffffffffffffffffffffffffffffffffffffffffffffffffff821415610a4857610a47610a53565b5b600182019050919050565b7f4e487b7100000000000000000000000000000000000000000000000000000000600052601160045260246000fd5b7f4e487b7100000000000000000000000000000000000000000000000000000000600052603260045260246000fd5b7f4e487b7100000000000000000000000000000000000000000000000000000000600052604160045260246000fd5b600080fd5b600080fd5b600080fd5b600080fd5b600080fd5b6000601f19601f8301169050919050565b7f546869732066756e6374696f6e206973206f6e6c792061636365737361626c6560008201527f206279207468652061646d696e206f662074686520636f6e7472616374000000602082015250565b610b6281610949565b8114610b6d57600080fd5b50565b610b7981610987565b8114610b8457600080fd5b5056fea264697066735822122018da59a145710b0ec15811638f1ec977cf30a0a99728d83e06b0acf222744da664736f6c63430008060033",
  "immutableReferences": {},
  "source": "// SPDX-License-Identifier: MIT\r\npragma solidity >=0.4.22 <0.9.0;\r\n\r\nimport \"../contracts/PBTeams.sol\";\r\nimport \"../contracts/PBPlayers.sol\";\r\n\r\ncontract PBMatchupValidation {\r\n\r\n    address admin;\r\n    PBTeams public pbTeams;\r\n    PBPlayers public pbPlayers;\r\n\r\nconstructor (address _pbTeamsAddress, address _pbPlayersAddress){\r\n    admin = msg.sender;\r\n    pbTeams = PBTeams(_pbTeamsAddress);\r\n    pbPlayers = PBPlayers(_pbPlayersAddress);\r\n}\r\n\r\nmodifier onlyAdmin() {\r\n    require(admin == msg.sender, \"This function is only accessable by the admin of the contract\" );\r\n    _;\r\n}\r\n\r\nfunction getPBMatchupsAddress() public view returns (address){\r\n    return address(this);\r\n}\r\n\r\nfunction updatePBTeamsAddress (address _pbTeamsAddress) public onlyAdmin {\r\n    pbTeams = PBTeams(_pbTeamsAddress);\r\n}\r\n\r\nfunction updatePBPlayersAddress (address _pbPlayersAddress) public onlyAdmin {\r\n   pbPlayers = PBPlayers(_pbPlayersAddress);\r\n}\r\n\r\nfunction varifyPlayerAgesOnTeam(uint teamId, uint[] memory playerIds) public view returns (bool){\r\n    uint i;\r\n    uint playerCount = 0;\r\n    for(i = 0; i < 6; i++){\r\n        if(pbPlayers.getTokenDetails(playerIds[i]).teamId == teamId && pbPlayers.getTokenDetails(playerIds[i]).ageoutTimestamp > block.timestamp){ // && pbPlayers.getTokenDetails(i).ageoutTimestamp > block.timestamp\r\n                playerCount++;\r\n            }            \r\n        }\r\n        if(playerCount == 6){\r\n            return true;\r\n        }else{\r\n            return false;\r\n        }    \r\n    }\r\n}",
  "sourcePath": "O:\\Projects\\puck-buddies\\contracts\\PBMatchupValidation.sol",
  "compiler": {
    "name": "solc",
    "version": "0.8.6+commit.11564f7e.Emscripten.clang"
  },
  "schemaVersion": "3.4.3",
  "updatedAt": "2021-11-22T07:37:44.854Z",
  "networkType": "ethereum",
  "devdoc": {
    "kind": "dev",
    "methods": {},
    "version": 1
  },
  "userdoc": {
    "kind": "user",
    "methods": {},
    "version": 1
  }
}