{
  "contractName": "PBPlayers",
  "abi": [
    {
      "inputs": [
        {
          "internalType": "address",
          "name": "_buddiesCoinAddress",
          "type": "address"
        },
        {
          "internalType": "uint256",
          "name": "_mintCost1",
          "type": "uint256"
        },
        {
          "internalType": "uint256",
          "name": "_mintCost2",
          "type": "uint256"
        },
        {
          "internalType": "uint256",
          "name": "_mintCost3",
          "type": "uint256"
        },
        {
          "internalType": "uint256",
          "name": "_ageoutSeconds",
          "type": "uint256"
        }
      ],
      "stateMutability": "nonpayable",
      "type": "constructor"
    },
    {
      "anonymous": false,
      "inputs": [
        {
          "indexed": true,
          "internalType": "address",
          "name": "owner",
          "type": "address"
        },
        {
          "indexed": true,
          "internalType": "address",
          "name": "approved",
          "type": "address"
        },
        {
          "indexed": true,
          "internalType": "uint256",
          "name": "tokenId",
          "type": "uint256"
        }
      ],
      "name": "Approval",
      "type": "event"
    },
    {
      "anonymous": false,
      "inputs": [
        {
          "indexed": true,
          "internalType": "address",
          "name": "owner",
          "type": "address"
        },
        {
          "indexed": true,
          "internalType": "address",
          "name": "operator",
          "type": "address"
        },
        {
          "indexed": false,
          "internalType": "bool",
          "name": "approved",
          "type": "bool"
        }
      ],
      "name": "ApprovalForAll",
      "type": "event"
    },
    {
      "anonymous": false,
      "inputs": [
        {
          "indexed": true,
          "internalType": "address",
          "name": "from",
          "type": "address"
        },
        {
          "indexed": true,
          "internalType": "address",
          "name": "to",
          "type": "address"
        },
        {
          "indexed": true,
          "internalType": "uint256",
          "name": "tokenId",
          "type": "uint256"
        }
      ],
      "name": "Transfer",
      "type": "event"
    },
    {
      "anonymous": false,
      "inputs": [
        {
          "indexed": false,
          "internalType": "uint256",
          "name": "tokenId",
          "type": "uint256"
        }
      ],
      "name": "newSuperstar",
      "type": "event"
    },
    {
      "inputs": [
        {
          "internalType": "uint256",
          "name": "",
          "type": "uint256"
        }
      ],
      "name": "_tokenDetails",
      "outputs": [
        {
          "internalType": "uint256",
          "name": "offence",
          "type": "uint256"
        },
        {
          "internalType": "uint256",
          "name": "defence",
          "type": "uint256"
        },
        {
          "internalType": "uint256",
          "name": "dna",
          "type": "uint256"
        },
        {
          "internalType": "uint256",
          "name": "playertype",
          "type": "uint256"
        },
        {
          "internalType": "uint256",
          "name": "teamId",
          "type": "uint256"
        },
        {
          "internalType": "uint256",
          "name": "teamDna",
          "type": "uint256"
        },
        {
          "internalType": "uint256",
          "name": "position",
          "type": "uint256"
        },
        {
          "internalType": "uint256",
          "name": "mainColor",
          "type": "uint256"
        },
        {
          "internalType": "uint256",
          "name": "ageoutTimestamp",
          "type": "uint256"
        },
        {
          "internalType": "uint256",
          "name": "draftTimestamp",
          "type": "uint256"
        },
        {
          "internalType": "uint256",
          "name": "equippedJersey",
          "type": "uint256"
        },
        {
          "internalType": "uint256",
          "name": "equippedToken",
          "type": "uint256"
        }
      ],
      "stateMutability": "view",
      "type": "function",
      "constant": true
    },
    {
      "inputs": [
        {
          "internalType": "address",
          "name": "to",
          "type": "address"
        },
        {
          "internalType": "uint256",
          "name": "tokenId",
          "type": "uint256"
        }
      ],
      "name": "approve",
      "outputs": [],
      "stateMutability": "nonpayable",
      "type": "function"
    },
    {
      "inputs": [
        {
          "internalType": "address",
          "name": "owner",
          "type": "address"
        }
      ],
      "name": "balanceOf",
      "outputs": [
        {
          "internalType": "uint256",
          "name": "",
          "type": "uint256"
        }
      ],
      "stateMutability": "view",
      "type": "function",
      "constant": true
    },
    {
      "inputs": [],
      "name": "buddies",
      "outputs": [
        {
          "internalType": "contract IERC20",
          "name": "",
          "type": "address"
        }
      ],
      "stateMutability": "view",
      "type": "function",
      "constant": true
    },
    {
      "inputs": [
        {
          "internalType": "uint256",
          "name": "tokenId",
          "type": "uint256"
        }
      ],
      "name": "getApproved",
      "outputs": [
        {
          "internalType": "address",
          "name": "",
          "type": "address"
        }
      ],
      "stateMutability": "view",
      "type": "function",
      "constant": true
    },
    {
      "inputs": [
        {
          "internalType": "address",
          "name": "owner",
          "type": "address"
        },
        {
          "internalType": "address",
          "name": "operator",
          "type": "address"
        }
      ],
      "name": "isApprovedForAll",
      "outputs": [
        {
          "internalType": "bool",
          "name": "",
          "type": "bool"
        }
      ],
      "stateMutability": "view",
      "type": "function",
      "constant": true
    },
    {
      "inputs": [],
      "name": "name",
      "outputs": [
        {
          "internalType": "string",
          "name": "",
          "type": "string"
        }
      ],
      "stateMutability": "view",
      "type": "function",
      "constant": true
    },
    {
      "inputs": [
        {
          "internalType": "uint256",
          "name": "tokenId",
          "type": "uint256"
        }
      ],
      "name": "ownerOf",
      "outputs": [
        {
          "internalType": "address",
          "name": "",
          "type": "address"
        }
      ],
      "stateMutability": "view",
      "type": "function",
      "constant": true
    },
    {
      "inputs": [],
      "name": "pbPlayerMarketplace",
      "outputs": [
        {
          "internalType": "contract PBPlayerMarketplace",
          "name": "",
          "type": "address"
        }
      ],
      "stateMutability": "view",
      "type": "function",
      "constant": true
    },
    {
      "inputs": [],
      "name": "pbProShopFactory",
      "outputs": [
        {
          "internalType": "contract PBProShopFactory",
          "name": "",
          "type": "address"
        }
      ],
      "stateMutability": "view",
      "type": "function",
      "constant": true
    },
    {
      "inputs": [],
      "name": "pbTeams",
      "outputs": [
        {
          "internalType": "contract PBTeams",
          "name": "",
          "type": "address"
        }
      ],
      "stateMutability": "view",
      "type": "function",
      "constant": true
    },
    {
      "inputs": [],
      "name": "pbxp",
      "outputs": [
        {
          "internalType": "contract PBXP",
          "name": "",
          "type": "address"
        }
      ],
      "stateMutability": "view",
      "type": "function",
      "constant": true
    },
    {
      "inputs": [
        {
          "internalType": "address",
          "name": "from",
          "type": "address"
        },
        {
          "internalType": "address",
          "name": "to",
          "type": "address"
        },
        {
          "internalType": "uint256",
          "name": "tokenId",
          "type": "uint256"
        }
      ],
      "name": "safeTransferFrom",
      "outputs": [],
      "stateMutability": "nonpayable",
      "type": "function"
    },
    {
      "inputs": [
        {
          "internalType": "address",
          "name": "from",
          "type": "address"
        },
        {
          "internalType": "address",
          "name": "to",
          "type": "address"
        },
        {
          "internalType": "uint256",
          "name": "tokenId",
          "type": "uint256"
        },
        {
          "internalType": "bytes",
          "name": "_data",
          "type": "bytes"
        }
      ],
      "name": "safeTransferFrom",
      "outputs": [],
      "stateMutability": "nonpayable",
      "type": "function"
    },
    {
      "inputs": [
        {
          "internalType": "address",
          "name": "operator",
          "type": "address"
        },
        {
          "internalType": "bool",
          "name": "approved",
          "type": "bool"
        }
      ],
      "name": "setApprovalForAll",
      "outputs": [],
      "stateMutability": "nonpayable",
      "type": "function"
    },
    {
      "inputs": [
        {
          "internalType": "bytes4",
          "name": "interfaceId",
          "type": "bytes4"
        }
      ],
      "name": "supportsInterface",
      "outputs": [
        {
          "internalType": "bool",
          "name": "",
          "type": "bool"
        }
      ],
      "stateMutability": "view",
      "type": "function",
      "constant": true
    },
    {
      "inputs": [],
      "name": "symbol",
      "outputs": [
        {
          "internalType": "string",
          "name": "",
          "type": "string"
        }
      ],
      "stateMutability": "view",
      "type": "function",
      "constant": true
    },
    {
      "inputs": [
        {
          "internalType": "uint256",
          "name": "tokenId",
          "type": "uint256"
        }
      ],
      "name": "tokenURI",
      "outputs": [
        {
          "internalType": "string",
          "name": "",
          "type": "string"
        }
      ],
      "stateMutability": "view",
      "type": "function",
      "constant": true
    },
    {
      "inputs": [
        {
          "internalType": "address",
          "name": "from",
          "type": "address"
        },
        {
          "internalType": "address",
          "name": "to",
          "type": "address"
        },
        {
          "internalType": "uint256",
          "name": "tokenId",
          "type": "uint256"
        }
      ],
      "name": "transferFrom",
      "outputs": [],
      "stateMutability": "nonpayable",
      "type": "function"
    },
    {
      "inputs": [],
      "name": "isAdmin",
      "outputs": [
        {
          "internalType": "bool",
          "name": "",
          "type": "bool"
        }
      ],
      "stateMutability": "view",
      "type": "function",
      "constant": true
    },
    {
      "inputs": [],
      "name": "getPBPlayersAddress",
      "outputs": [
        {
          "internalType": "address",
          "name": "",
          "type": "address"
        }
      ],
      "stateMutability": "view",
      "type": "function",
      "constant": true
    },
    {
      "inputs": [
        {
          "internalType": "address",
          "name": "_buddiesCoinAddress",
          "type": "address"
        }
      ],
      "name": "updateBuddiesCoinAddress",
      "outputs": [],
      "stateMutability": "nonpayable",
      "type": "function"
    },
    {
      "inputs": [
        {
          "internalType": "address",
          "name": "_pbTeamsAddress",
          "type": "address"
        }
      ],
      "name": "updatePBTeamsAddress",
      "outputs": [],
      "stateMutability": "nonpayable",
      "type": "function"
    },
    {
      "inputs": [
        {
          "internalType": "address",
          "name": "_proshopAddress",
          "type": "address"
        }
      ],
      "name": "updatePBProShopFactoryAddress",
      "outputs": [],
      "stateMutability": "nonpayable",
      "type": "function"
    },
    {
      "inputs": [
        {
          "internalType": "address",
          "name": "_pbPlayerMarketplaceAddress",
          "type": "address"
        }
      ],
      "name": "updatePBPlayerMarketplaceAddress",
      "outputs": [],
      "stateMutability": "nonpayable",
      "type": "function"
    },
    {
      "inputs": [
        {
          "internalType": "address",
          "name": "_pbxpAddress",
          "type": "address"
        }
      ],
      "name": "updatePBXPaddress",
      "outputs": [],
      "stateMutability": "nonpayable",
      "type": "function"
    },
    {
      "inputs": [
        {
          "internalType": "uint256",
          "name": "_mintCost1",
          "type": "uint256"
        },
        {
          "internalType": "uint256",
          "name": "_mintCost2",
          "type": "uint256"
        },
        {
          "internalType": "uint256",
          "name": "_mintCost3",
          "type": "uint256"
        },
        {
          "internalType": "uint256",
          "name": "_ageoutSeconds",
          "type": "uint256"
        }
      ],
      "name": "updateVariables",
      "outputs": [],
      "stateMutability": "nonpayable",
      "type": "function"
    },
    {
      "inputs": [],
      "name": "getMintingCosts",
      "outputs": [
        {
          "internalType": "uint256",
          "name": "",
          "type": "uint256"
        },
        {
          "internalType": "uint256",
          "name": "",
          "type": "uint256"
        },
        {
          "internalType": "uint256",
          "name": "",
          "type": "uint256"
        },
        {
          "internalType": "uint256",
          "name": "",
          "type": "uint256"
        }
      ],
      "stateMutability": "view",
      "type": "function",
      "constant": true
    },
    {
      "inputs": [],
      "name": "getNextId",
      "outputs": [
        {
          "internalType": "uint256",
          "name": "",
          "type": "uint256"
        }
      ],
      "stateMutability": "view",
      "type": "function",
      "constant": true
    },
    {
      "inputs": [
        {
          "internalType": "uint256",
          "name": "tokenId",
          "type": "uint256"
        }
      ],
      "name": "getTokenDetails",
      "outputs": [
        {
          "components": [
            {
              "internalType": "uint256",
              "name": "offence",
              "type": "uint256"
            },
            {
              "internalType": "uint256",
              "name": "defence",
              "type": "uint256"
            },
            {
              "internalType": "uint256",
              "name": "dna",
              "type": "uint256"
            },
            {
              "internalType": "uint256",
              "name": "playertype",
              "type": "uint256"
            },
            {
              "internalType": "uint256",
              "name": "teamId",
              "type": "uint256"
            },
            {
              "internalType": "uint256",
              "name": "teamDna",
              "type": "uint256"
            },
            {
              "internalType": "uint256",
              "name": "position",
              "type": "uint256"
            },
            {
              "internalType": "uint256",
              "name": "mainColor",
              "type": "uint256"
            },
            {
              "internalType": "uint256",
              "name": "ageoutTimestamp",
              "type": "uint256"
            },
            {
              "internalType": "uint256",
              "name": "draftTimestamp",
              "type": "uint256"
            },
            {
              "internalType": "uint256",
              "name": "equippedJersey",
              "type": "uint256"
            },
            {
              "internalType": "uint256",
              "name": "equippedToken",
              "type": "uint256"
            }
          ],
          "internalType": "struct PBPlayers.Player",
          "name": "",
          "type": "tuple"
        }
      ],
      "stateMutability": "view",
      "type": "function",
      "constant": true
    },
    {
      "inputs": [
        {
          "internalType": "uint256",
          "name": "value",
          "type": "uint256"
        },
        {
          "internalType": "uint256",
          "name": "playerType",
          "type": "uint256"
        }
      ],
      "name": "mintPlayer",
      "outputs": [],
      "stateMutability": "nonpayable",
      "type": "function"
    },
    {
      "inputs": [
        {
          "internalType": "uint256",
          "name": "_op",
          "type": "uint256"
        },
        {
          "internalType": "uint256",
          "name": "_dp",
          "type": "uint256"
        },
        {
          "internalType": "address",
          "name": "minter",
          "type": "address"
        },
        {
          "internalType": "uint256",
          "name": "playerType",
          "type": "uint256"
        },
        {
          "internalType": "uint256",
          "name": "teamId",
          "type": "uint256"
        },
        {
          "internalType": "uint256",
          "name": "teamDna",
          "type": "uint256"
        },
        {
          "internalType": "uint256",
          "name": "teamPos",
          "type": "uint256"
        }
      ],
      "name": "mintPlayerToTeam",
      "outputs": [
        {
          "internalType": "uint256",
          "name": "",
          "type": "uint256"
        },
        {
          "internalType": "uint256",
          "name": "",
          "type": "uint256"
        }
      ],
      "stateMutability": "nonpayable",
      "type": "function"
    },
    {
      "inputs": [
        {
          "internalType": "uint256",
          "name": "a",
          "type": "uint256"
        }
      ],
      "name": "_randHelper",
      "outputs": [
        {
          "internalType": "uint256",
          "name": "",
          "type": "uint256"
        }
      ],
      "stateMutability": "view",
      "type": "function",
      "constant": true
    },
    {
      "inputs": [
        {
          "internalType": "address",
          "name": "playerOwner",
          "type": "address"
        },
        {
          "internalType": "uint256",
          "name": "opScore",
          "type": "uint256"
        },
        {
          "internalType": "uint256",
          "name": "dpScore",
          "type": "uint256"
        },
        {
          "internalType": "uint256",
          "name": "dna",
          "type": "uint256"
        },
        {
          "internalType": "uint256",
          "name": "playerType",
          "type": "uint256"
        }
      ],
      "name": "mintSuperstar",
      "outputs": [],
      "stateMutability": "nonpayable",
      "type": "function"
    },
    {
      "inputs": [
        {
          "internalType": "address",
          "name": "user",
          "type": "address"
        }
      ],
      "name": "getAllTokensForUser",
      "outputs": [
        {
          "internalType": "uint256[]",
          "name": "",
          "type": "uint256[]"
        }
      ],
      "stateMutability": "view",
      "type": "function",
      "constant": true
    },
    {
      "inputs": [
        {
          "internalType": "uint256",
          "name": "tokenId",
          "type": "uint256"
        },
        {
          "internalType": "address",
          "name": "newOwner",
          "type": "address"
        }
      ],
      "name": "giftPlayer",
      "outputs": [],
      "stateMutability": "nonpayable",
      "type": "function"
    },
    {
      "inputs": [
        {
          "internalType": "uint256",
          "name": "token",
          "type": "uint256"
        },
        {
          "internalType": "uint256",
          "name": "sku",
          "type": "uint256"
        },
        {
          "internalType": "uint256",
          "name": "playerid",
          "type": "uint256"
        }
      ],
      "name": "updateEquipment",
      "outputs": [],
      "stateMutability": "nonpayable",
      "type": "function"
    },
    {
      "inputs": [
        {
          "internalType": "uint256",
          "name": "playerid",
          "type": "uint256"
        }
      ],
      "name": "removeEquipment",
      "outputs": [],
      "stateMutability": "nonpayable",
      "type": "function"
    },
    {
      "inputs": [
        {
          "internalType": "uint256",
          "name": "teamId",
          "type": "uint256"
        },
        {
          "internalType": "uint256",
          "name": "position",
          "type": "uint256"
        },
        {
          "internalType": "uint256",
          "name": "playerid",
          "type": "uint256"
        },
        {
          "internalType": "uint256",
          "name": "teamDna",
          "type": "uint256"
        }
      ],
      "name": "assignToTeam",
      "outputs": [],
      "stateMutability": "nonpayable",
      "type": "function"
    },
    {
      "inputs": [
        {
          "internalType": "uint256",
          "name": "teamId",
          "type": "uint256"
        },
        {
          "internalType": "uint256",
          "name": "playerid",
          "type": "uint256"
        }
      ],
      "name": "removeFromTeam",
      "outputs": [],
      "stateMutability": "nonpayable",
      "type": "function"
    },
    {
      "inputs": [
        {
          "internalType": "uint256",
          "name": "tokenId",
          "type": "uint256"
        },
        {
          "internalType": "uint256",
          "name": "qty",
          "type": "uint256"
        },
        {
          "internalType": "address",
          "name": "owner",
          "type": "address"
        }
      ],
      "name": "addOp",
      "outputs": [],
      "stateMutability": "nonpayable",
      "type": "function"
    },
    {
      "inputs": [
        {
          "internalType": "uint256",
          "name": "tokenId",
          "type": "uint256"
        },
        {
          "internalType": "uint256",
          "name": "qty",
          "type": "uint256"
        },
        {
          "internalType": "address",
          "name": "owner",
          "type": "address"
        }
      ],
      "name": "addDp",
      "outputs": [],
      "stateMutability": "nonpayable",
      "type": "function"
    },
    {
      "inputs": [
        {
          "internalType": "address",
          "name": "sender",
          "type": "address"
        },
        {
          "internalType": "uint256",
          "name": "randHelper",
          "type": "uint256"
        }
      ],
      "name": "_generateRandDna",
      "outputs": [
        {
          "internalType": "uint256",
          "name": "",
          "type": "uint256"
        }
      ],
      "stateMutability": "view",
      "type": "function",
      "constant": true
    },
    {
      "inputs": [
        {
          "internalType": "address",
          "name": "sender",
          "type": "address"
        },
        {
          "internalType": "uint256",
          "name": "mod",
          "type": "uint256"
        },
        {
          "internalType": "uint256",
          "name": "base",
          "type": "uint256"
        },
        {
          "internalType": "uint256",
          "name": "randHelper",
          "type": "uint256"
        }
      ],
      "name": "_generateRandAtrrib",
      "outputs": [
        {
          "internalType": "uint256",
          "name": "",
          "type": "uint256"
        }
      ],
      "stateMutability": "view",
      "type": "function",
      "constant": true
    },
    {
      "inputs": [
        {
          "internalType": "uint256",
          "name": "_teamId",
          "type": "uint256"
        }
      ],
      "name": "getTeamOP",
      "outputs": [
        {
          "internalType": "uint256",
          "name": "",
          "type": "uint256"
        }
      ],
      "stateMutability": "view",
      "type": "function",
      "constant": true
    },
    {
      "inputs": [
        {
          "internalType": "uint256",
          "name": "_teamId",
          "type": "uint256"
        }
      ],
      "name": "getTeamDP",
      "outputs": [
        {
          "internalType": "uint256",
          "name": "",
          "type": "uint256"
        }
      ],
      "stateMutability": "view",
      "type": "function",
      "constant": true
    }
  ],
  "bytecode": "0x6080604052601c600e55600e54600a6200001a919062000364565b600f55600460105560006017553480156200003457600080fd5b50604051620065a6380380620065a683398181016040528101906200005a919062000281565b6040518060400160405280601181526020017f506978656c205075636b20506c617965720000000000000000000000000000008152506040518060400160405280600381526020017f50505000000000000000000000000000000000000000000000000000000000008152508160009080519060200190620000de929190620001a3565b508060019080519060200190620000f7929190620001a3565b50505033600660006101000a81548173ffffffffffffffffffffffffffffffffffffffff021916908373ffffffffffffffffffffffffffffffffffffffff16021790555084601260006101000a81548173ffffffffffffffffffffffffffffffffffffffff021916908373ffffffffffffffffffffffffffffffffffffffff1602179055508360098190555082600a8190555081600b81905550806011819055505050505050620005b9565b828054620001b190620004df565b90600052602060002090601f016020900481019282620001d5576000855562000221565b82601f10620001f057805160ff191683800117855562000221565b8280016001018555821562000221579182015b828111156200022057825182559160200191906001019062000203565b5b50905062000230919062000234565b5090565b5b808211156200024f57600081600090555060010162000235565b5090565b600081519050620002648162000585565b92915050565b6000815190506200027b816200059f565b92915050565b600080600080600060a08688031215620002a0576200029f62000573565b5b6000620002b08882890162000253565b9550506020620002c3888289016200026a565b9450506040620002d6888289016200026a565b9350506060620002e9888289016200026a565b9250506080620002fc888289016200026a565b9150509295509295909350565b6000808291508390505b60018511156200035b5780860481111562000333576200033262000515565b5b6001851615620003435780820291505b8081029050620003538562000578565b945062000313565b94509492505050565b60006200037182620004d5565b91506200037e83620004d5565b9250620003ad7fffffffffffffffffffffffffffffffffffffffffffffffffffffffffffffffff8484620003b5565b905092915050565b600082620003c757600190506200049a565b81620003d757600090506200049a565b8160018114620003f05760028114620003fb5762000431565b60019150506200049a565b60ff84111562000410576200040f62000515565b5b8360020a9150848211156200042a576200042962000515565b5b506200049a565b5060208310610133831016604e8410600b84101617156200046b5782820a90508381111562000465576200046462000515565b5b6200049a565b6200047a848484600162000309565b9250905081840481111562000494576200049362000515565b5b81810290505b9392505050565b6000620004ae82620004b5565b9050919050565b600073ffffffffffffffffffffffffffffffffffffffff82169050919050565b6000819050919050565b60006002820490506001821680620004f857607f821691505b602082108114156200050f576200050e62000544565b5b50919050565b7f4e487b7100000000000000000000000000000000000000000000000000000000600052601160045260246000fd5b7f4e487b7100000000000000000000000000000000000000000000000000000000600052602260045260246000fd5b600080fd5b60008160011c9050919050565b6200059081620004a1565b81146200059c57600080fd5b50565b620005aa81620004d5565b8114620005b657600080fd5b50565b615fdd80620005c96000396000f3fe608060405234801561001057600080fd5b506004361061028a5760003560e01c806382de8fe91161015c578063c11550e4116100ce578063e00c01c511610087578063e00c01c51461082a578063e5d4f66b14610848578063e985e9c514610864578063efe6e41c14610894578063f0258a78146108b0578063f8966c4f146108cc5761028a565b8063c11550e41461072d578063c1e0372814610749578063c747517914610779578063c87b56dd146107a9578063c9483383146107d9578063d4536c4e146108095761028a565b8063a561c85111610120578063a561c8511461066b578063a8de071e14610689578063b42f6eb2146106b9578063b6db75a0146106d5578063b88d4fde146106f3578063bc9683261461070f5761028a565b806382de8fe9146105aa57806385f7229a146105da57806395d89b4114610615578063a22cb46514610633578063a2a8728d1461064f5761028a565b80634a594c12116102005780636bf082da116101b95780636bf082da146104d557806370a08231146104f1578063721f77971461052157806373034d081461053f5780637b05f7ac1461055d5780637c6e686f1461058e5761028a565b80634a594c12146103ef5780635d632faf1461040d578063601fac201461042957806362268169146104595780636352211e146104755780636ba1df63146104a55761028a565b806318894cf81161025257806318894cf81461034557806323b872dd1461036357806326d58a7b1461037f5780632919e4ff1461039b5780632bc3c2f9146103b757806342842e0e146103d35761028a565b806301ffc9a71461028f57806306fdde03146102bf578063081812fc146102dd578063095ea7b31461030d578063143c806314610329575b600080fd5b6102a960048036038101906102a49190614696565b6108e8565b6040516102b691906150c4565b60405180910390f35b6102c76109ca565b6040516102d49190615166565b60405180910390f35b6102f760048036038101906102f2919061471e565b610a5c565b6040516103049190614fb2565b60405180910390f35b61032760048036038101906103229190614547565b610ae1565b005b610343600480360381019061033e91906143c4565b610bf9565b005b61034d610d0e565b60405161035a919061514b565b60405180910390f35b61037d60048036038101906103789190614431565b610d34565b005b610399600480360381019061039491906143c4565b610d94565b005b6103b560048036038101906103b091906145ee565b610e68565b005b6103d160048036038101906103cc91906148ed565b6112a8565b005b6103ed60048036038101906103e89190614431565b611431565b005b6103f7611451565b60405161040491906150df565b60405180910390f35b610427600480360381019061042291906143c4565b611477565b005b610443600480360381019061043e919061471e565b61154b565b60405161045091906153e4565b60405180910390f35b610473600480360381019061046e91906147b8565b6115ab565b005b61048f600480360381019061048a919061471e565b611bf9565b60405161049c9190614fb2565b60405180910390f35b6104bf60048036038101906104ba9190614547565b611cab565b6040516104cc91906153e4565b60405180910390f35b6104ef60048036038101906104ea91906143c4565b611cf7565b005b61050b600480360381019061050691906143c4565b611e0c565b60405161051891906153e4565b60405180910390f35b610529611ec4565b6040516105369190615115565b60405180910390f35b610547611eea565b60405161055491906150fa565b60405180910390f35b6105776004803603810190610572919061484b565b611f10565b60405161058592919061547b565b60405180910390f35b6105a860048036038101906105a39190614778565b612412565b005b6105c460048036038101906105bf91906143c4565b612471565b6040516105d191906150a2565b60405180910390f35b6105f460048036038101906105ef919061471e565b6125c7565b60405161060c9c9b9a999897969594939291906154e9565b60405180910390f35b61061d612627565b60405161062a9190615166565b60405180910390f35b61064d60048036038101906106489190614507565b6126b9565b005b610669600480360381019061066491906143c4565b61283a565b005b61067361290e565b6040516106809190614fb2565b60405180910390f35b6106a3600480360381019061069e9190614587565b612916565b6040516106b091906153e4565b60405180910390f35b6106d360048036038101906106ce9190614940565b6129b2565b005b6106dd612a64565b6040516106ea91906150c4565b60405180910390f35b61070d60048036038101906107089190614484565b612acd565b005b610717612b2f565b60405161072491906153e4565b60405180910390f35b610747600480360381019061074291906147b8565b612b39565b005b610763600480360381019061075e919061471e565b612d84565b60405161077091906153c8565b60405180910390f35b610793600480360381019061078e919061471e565b612e2a565b6040516107a091906153e4565b60405180910390f35b6107c360048036038101906107be919061471e565b612e8a565b6040516107d09190615166565b60405180910390f35b6107f360048036038101906107ee919061471e565b612f31565b60405161080091906153e4565b60405180910390f35b610811612f48565b60405161082194939291906154a4565b60405180910390f35b610832612f68565b60405161083f9190615130565b60405180910390f35b610862600480360381019061085d9190614940565b612f8e565b005b61087e600480360381019061087991906143f1565b6131d8565b60405161088b91906150c4565b60405180910390f35b6108ae60048036038101906108a991906147f8565b61326c565b005b6108ca60048036038101906108c591906147f8565b613403565b005b6108e660048036038101906108e1919061471e565b61359a565b005b60007f80ac58cd000000000000000000000000000000000000000000000000000000007bffffffffffffffffffffffffffffffffffffffffffffffffffffffff1916827bffffffffffffffffffffffffffffffffffffffffffffffffffffffff191614806109b357507f5b5e139f000000000000000000000000000000000000000000000000000000007bffffffffffffffffffffffffffffffffffffffffffffffffffffffff1916827bffffffffffffffffffffffffffffffffffffffffffffffffffffffff1916145b806109c357506109c2826136a4565b5b9050919050565b6060600080546109d99061589a565b80601f0160208091040260200160405190810160405280929190818152602001828054610a059061589a565b8015610a525780601f10610a2757610100808354040283529160200191610a52565b820191906000526020600020905b815481529060010190602001808311610a3557829003601f168201915b5050505050905090565b6000610a678261370e565b610aa6576040517f08c379a0000000000000000000000000000000000000000000000000000000008152600401610a9d90615328565b60405180910390fd5b6004600083815260200190815260200160002060009054906101000a900473ffffffffffffffffffffffffffffffffffffffff169050919050565b6000610aec82611bf9565b90508073ffffffffffffffffffffffffffffffffffffffff168373ffffffffffffffffffffffffffffffffffffffff161415610b5d576040517f08c379a0000000000000000000000000000000000000000000000000000000008152600401610b5490615388565b60405180910390fd5b8073ffffffffffffffffffffffffffffffffffffffff16610b7c61377a565b73ffffffffffffffffffffffffffffffffffffffff161480610bab5750610baa81610ba561377a565b6131d8565b5b610bea576040517f08c379a0000000000000000000000000000000000000000000000000000000008152600401610be1906152a8565b60405180910390fd5b610bf48383613782565b505050565b3373ffffffffffffffffffffffffffffffffffffffff16600660009054906101000a900473ffffffffffffffffffffffffffffffffffffffff1673ffffffffffffffffffffffffffffffffffffffff1614610c89576040517f08c379a0000000000000000000000000000000000000000000000000000000008152600401610c8090615208565b60405180910390fd5b80601660006101000a81548173ffffffffffffffffffffffffffffffffffffffff021916908373ffffffffffffffffffffffffffffffffffffffff16021790555080600860006101000a81548173ffffffffffffffffffffffffffffffffffffffff021916908373ffffffffffffffffffffffffffffffffffffffff16021790555050565b601660009054906101000a900473ffffffffffffffffffffffffffffffffffffffff1681565b610d45610d3f61377a565b8261383b565b610d84576040517f08c379a0000000000000000000000000000000000000000000000000000000008152600401610d7b906153a8565b60405180910390fd5b610d8f838383613919565b505050565b3373ffffffffffffffffffffffffffffffffffffffff16600660009054906101000a900473ffffffffffffffffffffffffffffffffffffffff1673ffffffffffffffffffffffffffffffffffffffff1614610e24576040517f08c379a0000000000000000000000000000000000000000000000000000000008152600401610e1b90615208565b60405180910390fd5b80601360006101000a81548173ffffffffffffffffffffffffffffffffffffffff021916908373ffffffffffffffffffffffffffffffffffffffff16021790555050565b3373ffffffffffffffffffffffffffffffffffffffff16600660009054906101000a900473ffffffffffffffffffffffffffffffffffffffff1673ffffffffffffffffffffffffffffffffffffffff1614610ef8576040517f08c379a0000000000000000000000000000000000000000000000000000000008152600401610eef90615208565b60405180910390fd5b6001811415610fff576040518061018001604052808581526020018481526020018381526020018281526020016000815260200160008152602001600081526020016000815260200160115442610f4f9190615675565b8152602001428152602001600081526020016000815250601860006017548152602001908152602001600020600082015181600001556020820151816001015560408201518160020155606082015181600301556080820151816004015560a0820151816005015560c0820151816006015560e082015181600701556101008201518160080155610120820151816009015561014082015181600a015561016082015181600b015590505061120b565b60028114156111065760405180610180016040528085815260200184815260200183815260200182815260200160008152602001600081526020016000815260200160008152602001601154426110569190615675565b8152602001428152602001600081526020016000815250601860006017548152602001908152602001600020600082015181600001556020820151816001015560408201518160020155606082015181600301556080820151816004015560a0820151816005015560c0820151816006015560e082015181600701556101008201518160080155610120820151816009015561014082015181600a015561016082015181600b015590505061120a565b600381141561120957604051806101800160405280858152602001848152602001838152602001828152602001600081526020016000815260200160008152602001600081526020016011544261115d9190615675565b8152602001428152602001600081526020016000815250601860006017548152602001908152602001600020600082015181600001556020820151816001015560408201518160020155606082015181600301556080820151816004015560a0820151816005015560c0820151816006015560e082015181600701556101008201518160080155610120820151816009015561014082015181600a015561016082015181600b01559050505b5b5b61121785601754613b75565b611244600c60009054906101000a900473ffffffffffffffffffffffffffffffffffffffff1660016126b9565b60176000815480929190611257906158fd565b91905055507f411b384f004565f47f0c20647f30c2d3554c24b48f62090ff947f6607ca96d56600160175461128c91906156fc565b60405161129991906153e4565b60405180910390a15050505050565b6000601360009054906101000a900473ffffffffffffffffffffffffffffffffffffffff1673ffffffffffffffffffffffffffffffffffffffff1662fdd58e33866040518363ffffffff1660e01b8152600401611306929190615079565b60206040518083038186803b15801561131e57600080fd5b505afa158015611332573d6000803e3d6000fd5b505050506040513d601f19601f82011682018060405250810190611356919061474b565b9050600181101561136657600080fd5b8260186000848152602001908152602001600020600a01819055508360186000848152602001908152602001600020600b0181905550601360009054906101000a900473ffffffffffffffffffffffffffffffffffffffff1673ffffffffffffffffffffffffffffffffffffffff1663f367f20c33866040518363ffffffff1660e01b81526004016113f9929190615079565b600060405180830381600087803b15801561141357600080fd5b505af1158015611427573d6000803e3d6000fd5b5050505050505050565b61144c83838360405180602001604052806000815250612acd565b505050565b601260009054906101000a900473ffffffffffffffffffffffffffffffffffffffff1681565b3373ffffffffffffffffffffffffffffffffffffffff16600660009054906101000a900473ffffffffffffffffffffffffffffffffffffffff1673ffffffffffffffffffffffffffffffffffffffff1614611507576040517f08c379a00000000000000000000000000000000000000000000000000000000081526004016114fe90615208565b60405180910390fd5b80601260006101000a81548173ffffffffffffffffffffffffffffffffffffffff021916908373ffffffffffffffffffffffffffffffffffffffff16021790555050565b6000806000905060005b6017548110156115a1578361156982612d84565b60800151141561158e5761157c81612d84565b600001518261158b9190615675565b91505b8080611599906158fd565b915050611555565b8192505050919050565b6000601754141561164757600660009054906101000a900473ffffffffffffffffffffffffffffffffffffffff1673ffffffffffffffffffffffffffffffffffffffff163373ffffffffffffffffffffffffffffffffffffffff1614611646576040517f08c379a000000000000000000000000000000000000000000000000000000000815260040161163d90615208565b60405180910390fd5b5b6000601260009054906101000a900473ffffffffffffffffffffffffffffffffffffffff1673ffffffffffffffffffffffffffffffffffffffff1663dd62ed3e33306040518363ffffffff1660e01b81526004016116a6929190614fcd565b60206040518083038186803b1580156116be57600080fd5b505afa1580156116d2573d6000803e3d6000fd5b505050506040513d601f19601f820116820180604052508101906116f6919061474b565b90508281101561173b576040517f08c379a000000000000000000000000000000000000000000000000000000000815260040161173290615188565b60405180910390fd5b601260009054906101000a900473ffffffffffffffffffffffffffffffffffffffff1673ffffffffffffffffffffffffffffffffffffffff166323b872dd3330866040518463ffffffff1660e01b815260040161179a93929190614ff6565b602060405180830381600087803b1580156117b457600080fd5b505af11580156117c8573d6000803e3d6000fd5b505050506040513d601f19601f820116820180604052508101906117ec9190614669565b50600182141561193157604051806101800160405280611818336032806118136001612f31565b612916565b8152602001611834336032600061182f6002612f31565b612916565b815260200161184c336118476001612f31565b611cab565b815260200183815260200160008152602001600081526020016000815260200160008152602001601154426118819190615675565b8152602001428152602001600081526020016000815250601860006017548152602001908152602001600020600082015181600001556020820151816001015560408201518160020155606082015181600301556080820151816004015560a0820151816005015560c0820151816006015560e082015181600701556101008201518160080155610120820151816009015561014082015181600a015561016082015181600b0155905050611ba3565b6002821415611a755760405180610180016040528061195d33603260006119586003612f31565b612916565b8152602001611978336032806119736004612f31565b612916565b81526020016119903361198b6003612f31565b611cab565b815260200183815260200160008152602001600081526020016000815260200160008152602001601154426119c59190615675565b8152602001428152602001600081526020016000815250601860006017548152602001908152602001600020600082015181600001556020820151816001015560408201518160020155606082015181600301556080820151816004015560a0820151816005015560c0820151816006015560e082015181600701556101008201518160080155610120820151816009015561014082015181600a015561016082015181600b0155905050611ba2565b6003821415611ba15760405180610180016040528060008152602001611aa8336019604b611aa36005612f31565b612916565b8152602001611ac033611abb6005612f31565b611cab565b81526020018381526020016000815260200160008152602001600081526020016000815260200160115442611af59190615675565b8152602001428152602001600081526020016000815250601860006017548152602001908152602001600020600082015181600001556020820151816001015560408201518160020155606082015181600301556080820151816004015560a0820151816005015560c0820151816006015560e082015181600701556101008201518160080155610120820151816009015561014082015181600a015561016082015181600b01559050505b5b5b611baf33601754613b75565b611bdc600c60009054906101000a900473ffffffffffffffffffffffffffffffffffffffff1660016126b9565b60176000815480929190611bef906158fd565b9190505550505050565b6000806002600084815260200190815260200160002060009054906101000a900473ffffffffffffffffffffffffffffffffffffffff169050600073ffffffffffffffffffffffffffffffffffffffff168173ffffffffffffffffffffffffffffffffffffffff161415611ca2576040517f08c379a0000000000000000000000000000000000000000000000000000000008152600401611c99906152e8565b60405180910390fd5b80915050919050565b60008042448585604051602001611cc59493929190614f05565b6040516020818303038152906040528051906020012060001c9050600f5481611cee9190615974565b91505092915050565b3373ffffffffffffffffffffffffffffffffffffffff16600660009054906101000a900473ffffffffffffffffffffffffffffffffffffffff1673ffffffffffffffffffffffffffffffffffffffff1614611d87576040517f08c379a0000000000000000000000000000000000000000000000000000000008152600401611d7e90615208565b60405180910390fd5b80601460006101000a81548173ffffffffffffffffffffffffffffffffffffffff021916908373ffffffffffffffffffffffffffffffffffffffff16021790555080600760006101000a81548173ffffffffffffffffffffffffffffffffffffffff021916908373ffffffffffffffffffffffffffffffffffffffff16021790555050565b60008073ffffffffffffffffffffffffffffffffffffffff168273ffffffffffffffffffffffffffffffffffffffff161415611e7d576040517f08c379a0000000000000000000000000000000000000000000000000000000008152600401611e74906152c8565b60405180910390fd5b600360008373ffffffffffffffffffffffffffffffffffffffff1673ffffffffffffffffffffffffffffffffffffffff168152602001908152602001600020549050919050565b601360009054906101000a900473ffffffffffffffffffffffffffffffffffffffff1681565b601560009054906101000a900473ffffffffffffffffffffffffffffffffffffffff1681565b6000803373ffffffffffffffffffffffffffffffffffffffff16600760009054906101000a900473ffffffffffffffffffffffffffffffffffffffff1673ffffffffffffffffffffffffffffffffffffffff1614611fa3576040517f08c379a0000000000000000000000000000000000000000000000000000000008152600401611f9a906151e8565b60405180910390fd5b6000601754141561203f57600660009054906101000a900473ffffffffffffffffffffffffffffffffffffffff1673ffffffffffffffffffffffffffffffffffffffff163373ffffffffffffffffffffffffffffffffffffffff161461203e576040517f08c379a000000000000000000000000000000000000000000000000000000000815260040161203590615208565b60405180910390fd5b5b6001861415612155576040518061018001604052808a81526020018981526020016120738961206e6001612f31565b611cab565b815260200187815260200186815260200185815260200184815260200160008152602001601154426120a59190615675565b8152602001428152602001600081526020016000815250601860006017548152602001908152602001600020600082015181600001556020820151816001015560408201518160020155606082015181600301556080820151816004015560a0820151816005015560c0820151816006015560e082015181600701556101008201518160080155610120820151816009015561014082015181600a015561016082015181600b015590505061237f565b600286141561226b576040518061018001604052808a8152602001898152602001612189896121846003612f31565b611cab565b815260200187815260200186815260200185815260200184815260200160008152602001601154426121bb9190615675565b8152602001428152602001600081526020016000815250601860006017548152602001908152602001600020600082015181600001556020820151816001015560408201518160020155606082015181600301556080820151816004015560a0820151816005015560c0820151816006015560e082015181600701556101008201518160080155610120820151816009015561014082015181600a015561016082015181600b015590505061237e565b600386141561237d576040518061018001604052808a815260200189815260200161229f8961229a6005612f31565b611cab565b815260200187815260200186815260200185815260200184815260200160008152602001601154426122d19190615675565b8152602001428152602001600081526020016000815250601860006017548152602001908152602001600020600082015181600001556020820151816001015560408201518160020155606082015181600301556080820151816004015560a0820151816005015560c0820151816006015560e082015181600701556101008201518160080155610120820151816009015561014082015181600a015561016082015181600b01559050505b5b5b61238b87601754613b75565b6123b8600c60009054906101000a900473ffffffffffffffffffffffffffffffffffffffff1660016126b9565b601760008154809291906123cb906158fd565b919050555060186000601754815260200190815260200160002060000154601860006017548152602001908152602001600020600101549150915097509795505050505050565b3373ffffffffffffffffffffffffffffffffffffffff1661243283611bf9565b73ffffffffffffffffffffffffffffffffffffffff161461245257600080fd5b61246d33828460405180602001604052806000815250612acd565b5050565b6060600061247e83611e0c565b905060008114156124db57600067ffffffffffffffff8111156124a4576124a3615a61565b5b6040519080825280602002602001820160405280156124d25781602001602082028036833780820191505090505b509150506125c2565b60008167ffffffffffffffff8111156124f7576124f6615a61565b5b6040519080825280602002602001820160405280156125255781602001602082028036833780820191505090505b509050600060175490506000805b828110156125b9578673ffffffffffffffffffffffffffffffffffffffff1661255b82611bf9565b73ffffffffffffffffffffffffffffffffffffffff1614156125a6578084838151811061258b5761258a615a32565b5b60200260200101818152505081806125a2906158fd565b9250505b80806125b1906158fd565b915050612533565b83955050505050505b919050565b601860205280600052604060002060009150905080600001549080600101549080600201549080600301549080600401549080600501549080600601549080600701549080600801549080600901549080600a01549080600b015490508c565b6060600180546126369061589a565b80601f01602080910402602001604051908101604052809291908181526020018280546126629061589a565b80156126af5780601f10612684576101008083540402835291602001916126af565b820191906000526020600020905b81548152906001019060200180831161269257829003601f168201915b5050505050905090565b6126c161377a565b73ffffffffffffffffffffffffffffffffffffffff168273ffffffffffffffffffffffffffffffffffffffff16141561272f576040517f08c379a000000000000000000000000000000000000000000000000000000000815260040161272690615268565b60405180910390fd5b806005600061273c61377a565b73ffffffffffffffffffffffffffffffffffffffff1673ffffffffffffffffffffffffffffffffffffffff16815260200190815260200160002060008473ffffffffffffffffffffffffffffffffffffffff1673ffffffffffffffffffffffffffffffffffffffff16815260200190815260200160002060006101000a81548160ff0219169083151502179055508173ffffffffffffffffffffffffffffffffffffffff166127e961377a565b73ffffffffffffffffffffffffffffffffffffffff167f17307eab39ab6107e8899845ad3d59bd9653f200f220920489ca2b5937696c318360405161282e91906150c4565b60405180910390a35050565b3373ffffffffffffffffffffffffffffffffffffffff16600660009054906101000a900473ffffffffffffffffffffffffffffffffffffffff1673ffffffffffffffffffffffffffffffffffffffff16146128ca576040517f08c379a00000000000000000000000000000000000000000000000000000000081526004016128c190615208565b60405180910390fd5b80601560006101000a81548173ffffffffffffffffffffffffffffffffffffffff021916908373ffffffffffffffffffffffffffffffffffffffff16021790555050565b600030905090565b6000806000905060005b6010548110156129875785848244428b604051602001612944959493929190614f53565b6040516020818303038152906040528051906020012060001c6129679190615974565b826129729190615675565b9150808061297f906158fd565b915050612920565b60006010548361299791906156cb565b905085816129a59190615675565b9350505050949350505050565b3373ffffffffffffffffffffffffffffffffffffffff16600660009054906101000a900473ffffffffffffffffffffffffffffffffffffffff1673ffffffffffffffffffffffffffffffffffffffff1614612a42576040517f08c379a0000000000000000000000000000000000000000000000000000000008152600401612a3990615208565b60405180910390fd5b8360098190555082600a8190555081600b819055508060118190555050505050565b60003373ffffffffffffffffffffffffffffffffffffffff16600660009054906101000a900473ffffffffffffffffffffffffffffffffffffffff1673ffffffffffffffffffffffffffffffffffffffff161415612ac55760019050612aca565b600090505b90565b612ade612ad861377a565b8361383b565b612b1d576040517f08c379a0000000000000000000000000000000000000000000000000000000008152600401612b14906153a8565b60405180910390fd5b612b2984848484613b93565b50505050565b6000601754905090565b3373ffffffffffffffffffffffffffffffffffffffff16612b5982611bf9565b73ffffffffffffffffffffffffffffffffffffffff1614612b7957600080fd5b3373ffffffffffffffffffffffffffffffffffffffff16601460009054906101000a900473ffffffffffffffffffffffffffffffffffffffff1673ffffffffffffffffffffffffffffffffffffffff1663c1e03728846040518263ffffffff1660e01b8152600401612beb91906153e4565b6101606040518083038186803b158015612c0457600080fd5b505afa158015612c18573d6000803e3d6000fd5b505050506040513d601f19601f82011682018060405250810190612c3c91906146f0565b610140015173ffffffffffffffffffffffffffffffffffffffff1614612c6157600080fd5b600060186000838152602001908152602001600020600401819055506000601860008381526020019081526020016000206006018190555060006018600083815260200190815260200160002060050181905550600060186000838152602001908152602001600020600001549050600060186000848152602001908152602001600020600101549050601460009054906101000a900473ffffffffffffffffffffffffffffffffffffffff1673ffffffffffffffffffffffffffffffffffffffff16635664eb36853385856040518563ffffffff1660e01b8152600401612d4c9493929190615436565b600060405180830381600087803b158015612d6657600080fd5b505af1158015612d7a573d6000803e3d6000fd5b5050505050505050565b612d8c61413f565b601860008381526020019081526020016000206040518061018001604052908160008201548152602001600182015481526020016002820154815260200160038201548152602001600482015481526020016005820154815260200160068201548152602001600782015481526020016008820154815260200160098201548152602001600a8201548152602001600b820154815250509050919050565b6000806000905060005b601754811015612e805783612e4882612d84565b608001511415612e6d57612e5b81612d84565b6020015182612e6a9190615675565b91505b8080612e78906158fd565b915050612e34565b8192505050919050565b6060612e958261370e565b612ed4576040517f08c379a0000000000000000000000000000000000000000000000000000000008152600401612ecb90615368565b60405180910390fd5b6000612ede613bef565b90506000815111612efe5760405180602001604052806000815250612f29565b80612f0884613c06565b604051602001612f19929190614ee1565b6040516020818303038152906040525b915050919050565b600060175482612f419190615675565b9050919050565b600080600080600954600a54600b54601154935093509350935090919293565b601460009054906101000a900473ffffffffffffffffffffffffffffffffffffffff1681565b3373ffffffffffffffffffffffffffffffffffffffff16612fae83611bf9565b73ffffffffffffffffffffffffffffffffffffffff1614612fce57600080fd5b3373ffffffffffffffffffffffffffffffffffffffff16601460009054906101000a900473ffffffffffffffffffffffffffffffffffffffff1673ffffffffffffffffffffffffffffffffffffffff1663c1e03728866040518263ffffffff1660e01b815260040161304091906153e4565b6101606040518083038186803b15801561305957600080fd5b505afa15801561306d573d6000803e3d6000fd5b505050506040513d601f19601f8201168201806040525081019061309191906146f0565b610140015173ffffffffffffffffffffffffffffffffffffffff16146130b657600080fd5b836018600084815260200190815260200160002060040181905550826018600084815260200190815260200160002060060181905550806018600084815260200190815260200160002060050181905550600060186000848152602001908152602001600020600001549050600060186000858152602001908152602001600020600101549050601460009054906101000a900473ffffffffffffffffffffffffffffffffffffffff1673ffffffffffffffffffffffffffffffffffffffff1663f971a2f8873385856040518563ffffffff1660e01b815260040161319e9493929190615436565b600060405180830381600087803b1580156131b857600080fd5b505af11580156131cc573d6000803e3d6000fd5b50505050505050505050565b6000600560008473ffffffffffffffffffffffffffffffffffffffff1673ffffffffffffffffffffffffffffffffffffffff16815260200190815260200160002060008373ffffffffffffffffffffffffffffffffffffffff1673ffffffffffffffffffffffffffffffffffffffff16815260200190815260200160002060009054906101000a900460ff16905092915050565b3373ffffffffffffffffffffffffffffffffffffffff16600860009054906101000a900473ffffffffffffffffffffffffffffffffffffffff1673ffffffffffffffffffffffffffffffffffffffff16146132fc576040517f08c379a00000000000000000000000000000000000000000000000000000000081526004016132f390615228565b60405180910390fd5b81601860008581526020019081526020016000206000015461331e9190615675565b601860008581526020019081526020016000206000018190555060006018600085815260200190815260200160002060040154146133fe57601460009054906101000a900473ffffffffffffffffffffffffffffffffffffffff1673ffffffffffffffffffffffffffffffffffffffff1663a1134de1601860008681526020019081526020016000206004015483856040518463ffffffff1660e01b81526004016133cb939291906153ff565b600060405180830381600087803b1580156133e557600080fd5b505af11580156133f9573d6000803e3d6000fd5b505050505b505050565b3373ffffffffffffffffffffffffffffffffffffffff16600860009054906101000a900473ffffffffffffffffffffffffffffffffffffffff1673ffffffffffffffffffffffffffffffffffffffff1614613493576040517f08c379a000000000000000000000000000000000000000000000000000000000815260040161348a90615228565b60405180910390fd5b8160186000858152602001908152602001600020600101546134b59190615675565b6018600085815260200190815260200160002060010181905550600060186000858152602001908152602001600020600401541461359557601460009054906101000a900473ffffffffffffffffffffffffffffffffffffffff1673ffffffffffffffffffffffffffffffffffffffff1663a6c456a9601860008681526020019081526020016000206004015483856040518463ffffffff1660e01b8152600401613562939291906153ff565b600060405180830381600087803b15801561357c57600080fd5b505af1158015613590573d6000803e3d6000fd5b505050505b505050565b600060186000838152602001908152602001600020600b015414156135be57600080fd5b600060186000838152602001908152602001600020600b01549050600060186000848152602001908152602001600020600a0181905550600060186000848152602001908152602001600020600b0181905550601360009054906101000a900473ffffffffffffffffffffffffffffffffffffffff1673ffffffffffffffffffffffffffffffffffffffff16634391d2b133836040518363ffffffff1660e01b815260040161366e929190615079565b600060405180830381600087803b15801561368857600080fd5b505af115801561369c573d6000803e3d6000fd5b505050505050565b60007f01ffc9a7000000000000000000000000000000000000000000000000000000007bffffffffffffffffffffffffffffffffffffffffffffffffffffffff1916827bffffffffffffffffffffffffffffffffffffffffffffffffffffffff1916149050919050565b60008073ffffffffffffffffffffffffffffffffffffffff166002600084815260200190815260200160002060009054906101000a900473ffffffffffffffffffffffffffffffffffffffff1673ffffffffffffffffffffffffffffffffffffffff1614159050919050565b600033905090565b816004600083815260200190815260200160002060006101000a81548173ffffffffffffffffffffffffffffffffffffffff021916908373ffffffffffffffffffffffffffffffffffffffff160217905550808273ffffffffffffffffffffffffffffffffffffffff166137f583611bf9565b73ffffffffffffffffffffffffffffffffffffffff167f8c5be1e5ebec7d5bd14f71427d1e84f3dd0314c0f7b2291e5b200ac8c7c3b92560405160405180910390a45050565b60006138468261370e565b613885576040517f08c379a000000000000000000000000000000000000000000000000000000000815260040161387c90615288565b60405180910390fd5b600061389083611bf9565b90508073ffffffffffffffffffffffffffffffffffffffff168473ffffffffffffffffffffffffffffffffffffffff1614806138ff57508373ffffffffffffffffffffffffffffffffffffffff166138e784610a5c565b73ffffffffffffffffffffffffffffffffffffffff16145b80613910575061390f81856131d8565b5b91505092915050565b8273ffffffffffffffffffffffffffffffffffffffff1661393982611bf9565b73ffffffffffffffffffffffffffffffffffffffff161461398f576040517f08c379a000000000000000000000000000000000000000000000000000000000815260040161398690615348565b60405180910390fd5b600073ffffffffffffffffffffffffffffffffffffffff168273ffffffffffffffffffffffffffffffffffffffff1614156139ff576040517f08c379a00000000000000000000000000000000000000000000000000000000081526004016139f690615248565b60405180910390fd5b613a0a838383613d67565b613a15600082613782565b6001600360008573ffffffffffffffffffffffffffffffffffffffff1673ffffffffffffffffffffffffffffffffffffffff1681526020019081526020016000206000828254613a6591906156fc565b925050819055506001600360008473ffffffffffffffffffffffffffffffffffffffff1673ffffffffffffffffffffffffffffffffffffffff1681526020019081526020016000206000828254613abc9190615675565b92505081905550816002600083815260200190815260200160002060006101000a81548173ffffffffffffffffffffffffffffffffffffffff021916908373ffffffffffffffffffffffffffffffffffffffff160217905550808273ffffffffffffffffffffffffffffffffffffffff168473ffffffffffffffffffffffffffffffffffffffff167fddf252ad1be2c89b69c2b068fc378daa952ba7f163c4a11628f55a4df523b3ef60405160405180910390a4505050565b613b8f828260405180602001604052806000815250613d6c565b5050565b613b9e848484613919565b613baa84848484613dc7565b613be9576040517f08c379a0000000000000000000000000000000000000000000000000000000008152600401613be0906151a8565b60405180910390fd5b50505050565b606060405180602001604052806000815250905090565b60606000821415613c4e576040518060400160405280600181526020017f30000000000000000000000000000000000000000000000000000000000000008152509050613d62565b600082905060005b60008214613c80578080613c69906158fd565b915050600a82613c7991906156cb565b9150613c56565b60008167ffffffffffffffff811115613c9c57613c9b615a61565b5b6040519080825280601f01601f191660200182016040528015613cce5781602001600182028036833780820191505090505b5090505b60008514613d5b57600182613ce791906156fc565b9150600a85613cf69190615974565b6030613d029190615675565b60f81b818381518110613d1857613d17615a32565b5b60200101907effffffffffffffffffffffffffffffffffffffffffffffffffffffffffffff1916908160001a905350600a85613d5491906156cb565b9450613cd2565b8093505050505b919050565b505050565b613d768383613f5e565b613d836000848484613dc7565b613dc2576040517f08c379a0000000000000000000000000000000000000000000000000000000008152600401613db9906151a8565b60405180910390fd5b505050565b6000613de88473ffffffffffffffffffffffffffffffffffffffff1661412c565b15613f51578373ffffffffffffffffffffffffffffffffffffffff1663150b7a02613e1161377a565b8786866040518563ffffffff1660e01b8152600401613e33949392919061502d565b602060405180830381600087803b158015613e4d57600080fd5b505af1925050508015613e7e57506040513d601f19601f82011682018060405250810190613e7b91906146c3565b60015b613f01573d8060008114613eae576040519150601f19603f3d011682016040523d82523d6000602084013e613eb3565b606091505b50600081511415613ef9576040517f08c379a0000000000000000000000000000000000000000000000000000000008152600401613ef0906151a8565b60405180910390fd5b805181602001fd5b63150b7a0260e01b7bffffffffffffffffffffffffffffffffffffffffffffffffffffffff1916817bffffffffffffffffffffffffffffffffffffffffffffffffffffffff191614915050613f56565b600190505b949350505050565b600073ffffffffffffffffffffffffffffffffffffffff168273ffffffffffffffffffffffffffffffffffffffff161415613fce576040517f08c379a0000000000000000000000000000000000000000000000000000000008152600401613fc590615308565b60405180910390fd5b613fd78161370e565b15614017576040517f08c379a000000000000000000000000000000000000000000000000000000000815260040161400e906151c8565b60405180910390fd5b61402360008383613d67565b6001600360008473ffffffffffffffffffffffffffffffffffffffff1673ffffffffffffffffffffffffffffffffffffffff16815260200190815260200160002060008282546140739190615675565b92505081905550816002600083815260200190815260200160002060006101000a81548173ffffffffffffffffffffffffffffffffffffffff021916908373ffffffffffffffffffffffffffffffffffffffff160217905550808273ffffffffffffffffffffffffffffffffffffffff16600073ffffffffffffffffffffffffffffffffffffffff167fddf252ad1be2c89b69c2b068fc378daa952ba7f163c4a11628f55a4df523b3ef60405160405180910390a45050565b600080823b905060008111915050919050565b6040518061018001604052806000815260200160008152602001600081526020016000815260200160008152602001600081526020016000815260200160008152602001600081526020016000815260200160008152602001600081525090565b60006141b36141ae846155c8565b6155a3565b9050828152602081018484840111156141cf576141ce615a9a565b5b6141da848285615858565b509392505050565b6000813590506141f181615f4b565b92915050565b60008151905061420681615f4b565b92915050565b60008135905061421b81615f62565b92915050565b60008151905061423081615f62565b92915050565b60008135905061424581615f79565b92915050565b60008151905061425a81615f79565b92915050565b600082601f83011261427557614274615a90565b5b81356142858482602086016141a0565b91505092915050565b600061016082840312156142a5576142a4615a95565b5b6142b06101606155a3565b905060006142c0848285016143af565b60008301525060206142d4848285016143af565b60208301525060406142e8848285016143af565b60408301525060606142fc848285016143af565b6060830152506080614310848285016143af565b60808301525060a0614324848285016143af565b60a08301525060c0614338848285016143af565b60c08301525060e061434c84828501614221565b60e08301525061010061436184828501614221565b6101008301525061012061437784828501614221565b6101208301525061014061438d848285016141f7565b6101408301525092915050565b6000813590506143a981615f90565b92915050565b6000815190506143be81615f90565b92915050565b6000602082840312156143da576143d9615aa4565b5b60006143e8848285016141e2565b91505092915050565b6000806040838503121561440857614407615aa4565b5b6000614416858286016141e2565b9250506020614427858286016141e2565b9150509250929050565b60008060006060848603121561444a57614449615aa4565b5b6000614458868287016141e2565b9350506020614469868287016141e2565b925050604061447a8682870161439a565b9150509250925092565b6000806000806080858703121561449e5761449d615aa4565b5b60006144ac878288016141e2565b94505060206144bd878288016141e2565b93505060406144ce8782880161439a565b925050606085013567ffffffffffffffff8111156144ef576144ee615a9f565b5b6144fb87828801614260565b91505092959194509250565b6000806040838503121561451e5761451d615aa4565b5b600061452c858286016141e2565b925050602061453d8582860161420c565b9150509250929050565b6000806040838503121561455e5761455d615aa4565b5b600061456c858286016141e2565b925050602061457d8582860161439a565b9150509250929050565b600080600080608085870312156145a1576145a0615aa4565b5b60006145af878288016141e2565b94505060206145c08782880161439a565b93505060406145d18782880161439a565b92505060606145e28782880161439a565b91505092959194509250565b600080600080600060a0868803121561460a57614609615aa4565b5b6000614618888289016141e2565b95505060206146298882890161439a565b945050604061463a8882890161439a565b935050606061464b8882890161439a565b925050608061465c8882890161439a565b9150509295509295909350565b60006020828403121561467f5761467e615aa4565b5b600061468d84828501614221565b91505092915050565b6000602082840312156146ac576146ab615aa4565b5b60006146ba84828501614236565b91505092915050565b6000602082840312156146d9576146d8615aa4565b5b60006146e78482850161424b565b91505092915050565b6000610160828403121561470757614706615aa4565b5b60006147158482850161428e565b91505092915050565b60006020828403121561473457614733615aa4565b5b60006147428482850161439a565b91505092915050565b60006020828403121561476157614760615aa4565b5b600061476f848285016143af565b91505092915050565b6000806040838503121561478f5761478e615aa4565b5b600061479d8582860161439a565b92505060206147ae858286016141e2565b9150509250929050565b600080604083850312156147cf576147ce615aa4565b5b60006147dd8582860161439a565b92505060206147ee8582860161439a565b9150509250929050565b60008060006060848603121561481157614810615aa4565b5b600061481f8682870161439a565b93505060206148308682870161439a565b9250506040614841868287016141e2565b9150509250925092565b600080600080600080600060e0888a03121561486a57614869615aa4565b5b60006148788a828b0161439a565b97505060206148898a828b0161439a565b965050604061489a8a828b016141e2565b95505060606148ab8a828b0161439a565b94505060806148bc8a828b0161439a565b93505060a06148cd8a828b0161439a565b92505060c06148de8a828b0161439a565b91505092959891949750929550565b60008060006060848603121561490657614905615aa4565b5b60006149148682870161439a565b93505060206149258682870161439a565b92505060406149368682870161439a565b9150509250925092565b6000806000806080858703121561495a57614959615aa4565b5b60006149688782880161439a565b94505060206149798782880161439a565b935050604061498a8782880161439a565b925050606061499b8782880161439a565b91505092959194509250565b60006149b38383614eac565b60208301905092915050565b6149c881615730565b82525050565b6149df6149da82615730565b615946565b82525050565b60006149f082615609565b6149fa8185615637565b9350614a05836155f9565b8060005b83811015614a36578151614a1d88826149a7565b9750614a288361562a565b925050600181019050614a09565b5085935050505092915050565b614a4c81615742565b82525050565b6000614a5d82615614565b614a678185615648565b9350614a77818560208601615867565b614a8081615aa9565b840191505092915050565b614a94816157a4565b82525050565b614aa3816157c8565b82525050565b614ab2816157ec565b82525050565b614ac181615810565b82525050565b614ad081615834565b82525050565b6000614ae18261561f565b614aeb8185615659565b9350614afb818560208601615867565b614b0481615aa9565b840191505092915050565b6000614b1a8261561f565b614b24818561566a565b9350614b34818560208601615867565b80840191505092915050565b6000614b4d600283615659565b9150614b5882615ac7565b602082019050919050565b6000614b70603283615659565b9150614b7b82615af0565b604082019050919050565b6000614b93601c83615659565b9150614b9e82615b3f565b602082019050919050565b6000614bb6600283615659565b9150614bc182615b68565b602082019050919050565b6000614bd9600283615659565b9150614be482615b91565b602082019050919050565b6000614bfc600283615659565b9150614c0782615bba565b602082019050919050565b6000614c1f602483615659565b9150614c2a82615be3565b604082019050919050565b6000614c42601983615659565b9150614c4d82615c32565b602082019050919050565b6000614c65602c83615659565b9150614c7082615c5b565b604082019050919050565b6000614c88603883615659565b9150614c9382615caa565b604082019050919050565b6000614cab602a83615659565b9150614cb682615cf9565b604082019050919050565b6000614cce602983615659565b9150614cd982615d48565b604082019050919050565b6000614cf1602083615659565b9150614cfc82615d97565b602082019050919050565b6000614d14602c83615659565b9150614d1f82615dc0565b604082019050919050565b6000614d37602983615659565b9150614d4282615e0f565b604082019050919050565b6000614d5a602f83615659565b9150614d6582615e5e565b604082019050919050565b6000614d7d602183615659565b9150614d8882615ead565b604082019050919050565b6000614da0603183615659565b9150614dab82615efc565b604082019050919050565b61018082016000820151614dcd6000850182614eac565b506020820151614de06020850182614eac565b506040820151614df36040850182614eac565b506060820151614e066060850182614eac565b506080820151614e196080850182614eac565b5060a0820151614e2c60a0850182614eac565b5060c0820151614e3f60c0850182614eac565b5060e0820151614e5260e0850182614eac565b50610100820151614e67610100850182614eac565b50610120820151614e7c610120850182614eac565b50610140820151614e91610140850182614eac565b50610160820151614ea6610160850182614eac565b50505050565b614eb58161579a565b82525050565b614ec48161579a565b82525050565b614edb614ed68261579a565b61596a565b82525050565b6000614eed8285614b0f565b9150614ef98284614b0f565b91508190509392505050565b6000614f118287614eca565b602082019150614f218286614eca565b602082019150614f3182856149ce565b601482019150614f418284614eca565b60208201915081905095945050505050565b6000614f5f8288614eca565b602082019150614f6f8287614eca565b602082019150614f7f8286614eca565b602082019150614f8f8285614eca565b602082019150614f9f82846149ce565b6014820191508190509695505050505050565b6000602082019050614fc760008301846149bf565b92915050565b6000604082019050614fe260008301856149bf565b614fef60208301846149bf565b9392505050565b600060608201905061500b60008301866149bf565b61501860208301856149bf565b6150256040830184614ebb565b949350505050565b600060808201905061504260008301876149bf565b61504f60208301866149bf565b61505c6040830185614ebb565b818103606083015261506e8184614a52565b905095945050505050565b600060408201905061508e60008301856149bf565b61509b6020830184614ebb565b9392505050565b600060208201905081810360008301526150bc81846149e5565b905092915050565b60006020820190506150d96000830184614a43565b92915050565b60006020820190506150f46000830184614a8b565b92915050565b600060208201905061510f6000830184614a9a565b92915050565b600060208201905061512a6000830184614aa9565b92915050565b60006020820190506151456000830184614ab8565b92915050565b60006020820190506151606000830184614ac7565b92915050565b600060208201905081810360008301526151808184614ad6565b905092915050565b600060208201905081810360008301526151a181614b40565b9050919050565b600060208201905081810360008301526151c181614b63565b9050919050565b600060208201905081810360008301526151e181614b86565b9050919050565b6000602082019050818103600083015261520181614ba9565b9050919050565b6000602082019050818103600083015261522181614bcc565b9050919050565b6000602082019050818103600083015261524181614bef565b9050919050565b6000602082019050818103600083015261526181614c12565b9050919050565b6000602082019050818103600083015261528181614c35565b9050919050565b600060208201905081810360008301526152a181614c58565b9050919050565b600060208201905081810360008301526152c181614c7b565b9050919050565b600060208201905081810360008301526152e181614c9e565b9050919050565b6000602082019050818103600083015261530181614cc1565b9050919050565b6000602082019050818103600083015261532181614ce4565b9050919050565b6000602082019050818103600083015261534181614d07565b9050919050565b6000602082019050818103600083015261536181614d2a565b9050919050565b6000602082019050818103600083015261538181614d4d565b9050919050565b600060208201905081810360008301526153a181614d70565b9050919050565b600060208201905081810360008301526153c181614d93565b9050919050565b6000610180820190506153de6000830184614db6565b92915050565b60006020820190506153f96000830184614ebb565b92915050565b60006060820190506154146000830186614ebb565b61542160208301856149bf565b61542e6040830184614ebb565b949350505050565b600060808201905061544b6000830187614ebb565b61545860208301866149bf565b6154656040830185614ebb565b6154726060830184614ebb565b95945050505050565b60006040820190506154906000830185614ebb565b61549d6020830184614ebb565b9392505050565b60006080820190506154b96000830187614ebb565b6154c66020830186614ebb565b6154d36040830185614ebb565b6154e06060830184614ebb565b95945050505050565b6000610180820190506154ff600083018f614ebb565b61550c602083018e614ebb565b615519604083018d614ebb565b615526606083018c614ebb565b615533608083018b614ebb565b61554060a083018a614ebb565b61554d60c0830189614ebb565b61555a60e0830188614ebb565b615568610100830187614ebb565b615576610120830186614ebb565b615584610140830185614ebb565b615592610160830184614ebb565b9d9c50505050505050505050505050565b60006155ad6155be565b90506155b982826158cc565b919050565b6000604051905090565b600067ffffffffffffffff8211156155e3576155e2615a61565b5b6155ec82615aa9565b9050602081019050919050565b6000819050602082019050919050565b600081519050919050565b600081519050919050565b600081519050919050565b6000602082019050919050565b600082825260208201905092915050565b600082825260208201905092915050565b600082825260208201905092915050565b600081905092915050565b60006156808261579a565b915061568b8361579a565b9250827fffffffffffffffffffffffffffffffffffffffffffffffffffffffffffffffff038211156156c0576156bf6159a5565b5b828201905092915050565b60006156d68261579a565b91506156e18361579a565b9250826156f1576156f06159d4565b5b828204905092915050565b60006157078261579a565b91506157128361579a565b925082821015615725576157246159a5565b5b828203905092915050565b600061573b8261577a565b9050919050565b60008115159050919050565b60007fffffffff0000000000000000000000000000000000000000000000000000000082169050919050565b600073ffffffffffffffffffffffffffffffffffffffff82169050919050565b6000819050919050565b60006157af826157b6565b9050919050565b60006157c18261577a565b9050919050565b60006157d3826157da565b9050919050565b60006157e58261577a565b9050919050565b60006157f7826157fe565b9050919050565b60006158098261577a565b9050919050565b600061581b82615822565b9050919050565b600061582d8261577a565b9050919050565b600061583f82615846565b9050919050565b60006158518261577a565b9050919050565b82818337600083830152505050565b60005b8381101561588557808201518184015260208101905061586a565b83811115615894576000848401525b50505050565b600060028204905060018216806158b257607f821691505b602082108114156158c6576158c5615a03565b5b50919050565b6158d582615aa9565b810181811067ffffffffffffffff821117156158f4576158f3615a61565b5b80604052505050565b60006159088261579a565b91507fffffffffffffffffffffffffffffffffffffffffffffffffffffffffffffffff82141561593b5761593a6159a5565b5b600182019050919050565b600061595182615958565b9050919050565b600061596382615aba565b9050919050565b6000819050919050565b600061597f8261579a565b915061598a8361579a565b92508261599a576159996159d4565b5b828206905092915050565b7f4e487b7100000000000000000000000000000000000000000000000000000000600052601160045260246000fd5b7f4e487b7100000000000000000000000000000000000000000000000000000000600052601260045260246000fd5b7f4e487b7100000000000000000000000000000000000000000000000000000000600052602260045260246000fd5b7f4e487b7100000000000000000000000000000000000000000000000000000000600052603260045260246000fd5b7f4e487b7100000000000000000000000000000000000000000000000000000000600052604160045260246000fd5b600080fd5b600080fd5b600080fd5b600080fd5b600080fd5b6000601f19601f8301169050919050565b60008160601b9050919050565b7f4231000000000000000000000000000000000000000000000000000000000000600082015250565b7f4552433732313a207472616e7366657220746f206e6f6e20455243373231526560008201527f63656976657220696d706c656d656e7465720000000000000000000000000000602082015250565b7f4552433732313a20746f6b656e20616c7265616479206d696e74656400000000600082015250565b7f5431000000000000000000000000000000000000000000000000000000000000600082015250565b7f4131000000000000000000000000000000000000000000000000000000000000600082015250565b7f5831000000000000000000000000000000000000000000000000000000000000600082015250565b7f4552433732313a207472616e7366657220746f20746865207a65726f2061646460008201527f7265737300000000000000000000000000000000000000000000000000000000602082015250565b7f4552433732313a20617070726f766520746f2063616c6c657200000000000000600082015250565b7f4552433732313a206f70657261746f7220717565727920666f72206e6f6e657860008201527f697374656e7420746f6b656e0000000000000000000000000000000000000000602082015250565b7f4552433732313a20617070726f76652063616c6c6572206973206e6f74206f7760008201527f6e6572206e6f7220617070726f76656420666f7220616c6c0000000000000000602082015250565b7f4552433732313a2062616c616e636520717565727920666f7220746865207a6560008201527f726f206164647265737300000000000000000000000000000000000000000000602082015250565b7f4552433732313a206f776e657220717565727920666f72206e6f6e657869737460008201527f656e7420746f6b656e0000000000000000000000000000000000000000000000602082015250565b7f4552433732313a206d696e7420746f20746865207a65726f2061646472657373600082015250565b7f4552433732313a20617070726f76656420717565727920666f72206e6f6e657860008201527f697374656e7420746f6b656e0000000000000000000000000000000000000000602082015250565b7f4552433732313a207472616e73666572206f6620746f6b656e2074686174206960008201527f73206e6f74206f776e0000000000000000000000000000000000000000000000602082015250565b7f4552433732314d657461646174613a2055524920717565727920666f72206e6f60008201527f6e6578697374656e7420746f6b656e0000000000000000000000000000000000602082015250565b7f4552433732313a20617070726f76616c20746f2063757272656e74206f776e6560008201527f7200000000000000000000000000000000000000000000000000000000000000602082015250565b7f4552433732313a207472616e736665722063616c6c6572206973206e6f74206f60008201527f776e6572206e6f7220617070726f766564000000000000000000000000000000602082015250565b615f5481615730565b8114615f5f57600080fd5b50565b615f6b81615742565b8114615f7657600080fd5b50565b615f828161574e565b8114615f8d57600080fd5b50565b615f998161579a565b8114615fa457600080fd5b5056fea2646970667358221220fafb02f6e185bd5ded2d3b611618f178e6fcad834807f976adaa42da52d556ca64736f6c63430008060033",
  "immutableReferences": {},
  "source": "// SPDX-License-Identifier: MIT\r\npragma solidity >=0.4.22 <0.9.0;\r\nimport \"../node_modules/@openzeppelin/contracts/token/ERC20/IERC20.sol\";\r\nimport \"../node_modules/@openzeppelin/contracts/token/ERC721/ERC721.sol\";\r\nimport \"../contracts/PBTeams.sol\";\r\nimport \"../contracts/PBProShopFactory.sol\";\r\nimport \"../contracts/PBPlayerMarketplace.sol\";\r\nimport \"../contracts/PBXP.sol\";\r\n\r\ncontract PBPlayers is ERC721 {\r\n\r\n    address admin;\r\n    address pbTeamsAddress;\r\n    address pbxpAddress;\r\n    uint mintCost1;\r\n    uint mintCost2;\r\n    uint mintCost3;\r\n    address marketplaceAddress;\r\n    address proshopAddress;\r\n    uint dnaDigits = 28;\r\n    uint dnaModulus = 10 ** dnaDigits;\r\n    uint bellCurveIterations = 4;\r\n    uint ageoutSeconds;\r\n    \r\n    IERC20 public buddies;\r\n    PBProShopFactory public pbProShopFactory;\r\n    PBTeams public pbTeams;\r\n    PBPlayerMarketplace public pbPlayerMarketplace;\r\n    PBXP public pbxp;\r\n    \r\n\r\n    struct Player{\r\n        uint offence;\r\n        uint defence;\r\n        uint dna;\r\n        uint playertype;\r\n        uint teamId;\r\n        uint teamDna;\r\n        uint position;\r\n        uint mainColor;\r\n        uint ageoutTimestamp;\r\n        uint draftTimestamp;\r\n        uint equippedJersey;\r\n        uint equippedToken;\r\n    }\r\n\r\n    uint nextId = 0;\r\n\r\n    event newSuperstar(uint tokenId);\r\n\r\n\r\n    mapping (uint => Player ) public _tokenDetails;\r\n\r\n    constructor(address _buddiesCoinAddress, uint _mintCost1, uint _mintCost2, uint _mintCost3, uint _ageoutSeconds) ERC721(\"Pixel Puck Player\", \"PPP\"){\r\n        admin = msg.sender;\r\n        buddies = IERC20(_buddiesCoinAddress);\r\n        mintCost1 = _mintCost1;\r\n        mintCost2 = _mintCost2;\r\n        mintCost3 = _mintCost3;\r\n        ageoutSeconds = _ageoutSeconds;\r\n    }\r\n\r\n    modifier onlyAdmin() {\r\n        require(admin == msg.sender, \"A1\" );\r\n        _;\r\n    }\r\n\r\n    modifier onlyTeams() {\r\n        require(pbTeamsAddress == msg.sender, \"T1\" );\r\n        _;\r\n    }\r\n\r\n    modifier onlyPBXP() {\r\n        require(pbxpAddress == msg.sender, \"X1\" );\r\n        _;\r\n    }\r\n\r\n    function isAdmin() public view returns (bool){\r\n        if(admin == msg.sender){\r\n            return true;\r\n        } else return false;\r\n    }\r\n\r\n    function getPBPlayersAddress() public view returns(address){\r\n        return address(this);\r\n    }\r\n    \r\n    function updateBuddiesCoinAddress(address _buddiesCoinAddress) onlyAdmin external {\r\n        buddies = IERC20(_buddiesCoinAddress);\r\n    }\r\n\r\n    function updatePBTeamsAddress(address _pbTeamsAddress) external onlyAdmin {\r\n        pbTeams = PBTeams(_pbTeamsAddress);\r\n        pbTeamsAddress = _pbTeamsAddress;\r\n    }\r\n\r\n    function updatePBProShopFactoryAddress(address _proshopAddress) external onlyAdmin {\r\n        pbProShopFactory = PBProShopFactory(_proshopAddress);\r\n    }\r\n\r\n    function updatePBPlayerMarketplaceAddress(address _pbPlayerMarketplaceAddress) external onlyAdmin {\r\n        pbPlayerMarketplace = PBPlayerMarketplace(_pbPlayerMarketplaceAddress);\r\n    }\r\n\r\n    function updatePBXPaddress(address _pbxpAddress) external onlyAdmin {\r\n        pbxp = PBXP(_pbxpAddress);\r\n        pbxpAddress = _pbxpAddress;\r\n    }\r\n\r\n    function updateVariables(uint _mintCost1, uint _mintCost2, uint _mintCost3, uint _ageoutSeconds) external onlyAdmin {\r\n        mintCost1 = _mintCost1;\r\n        mintCost2 = _mintCost2;\r\n        mintCost3 = _mintCost3;\r\n        ageoutSeconds = _ageoutSeconds;\r\n    }\r\n\r\n    function getMintingCosts() public view returns (uint, uint, uint, uint){\r\n            return (mintCost1, mintCost2, mintCost3, ageoutSeconds);\r\n    }\r\n\r\n    function getNextId() public view returns (uint){\r\n        return nextId;\r\n    }\r\n\r\n    function getTokenDetails(uint tokenId) public view returns (Player memory){\r\n        return _tokenDetails[tokenId];\r\n    }\r\n\r\n    function mintPlayer(uint value, uint playerType) external {\r\n        if(nextId == 0){\r\n            require(msg.sender == admin, \"A1\");\r\n        }\r\n        uint allowance = buddies.allowance(msg.sender, address(this));\r\n        require(allowance >= value, \"B1\");\r\n        buddies.transferFrom(msg.sender, address(this), value);\r\n        if(playerType == 1){\r\n            _tokenDetails[nextId] = Player(_generateRandAtrrib(msg.sender, 50, 50, _randHelper(1)), _generateRandAtrrib(msg.sender, 50, 0, _randHelper(2)), _generateRandDna(msg.sender, _randHelper(1)), playerType, 0,0,0,0,block.timestamp + ageoutSeconds,block.timestamp,0,0);\r\n        }else if(playerType == 2){\r\n             _tokenDetails[nextId] = Player(_generateRandAtrrib(msg.sender, 50, 0, _randHelper(3)), _generateRandAtrrib(msg.sender, 50, 50, _randHelper(4)), _generateRandDna(msg.sender, _randHelper(3)), playerType, 0,0,0,0,block.timestamp + ageoutSeconds,block.timestamp,0,0);\r\n        }else if (playerType == 3){\r\n             _tokenDetails[nextId] = Player(0, _generateRandAtrrib(msg.sender, 25, 75, _randHelper(5)), _generateRandDna(msg.sender, _randHelper(5)), playerType, 0,0,0,0,block.timestamp + ageoutSeconds,block.timestamp,0,0);\r\n        } \r\n        _safeMint(msg.sender, nextId);\r\n        setApprovalForAll(marketplaceAddress, true);\r\n        nextId++;\r\n    }\r\n\r\n     function mintPlayerToTeam(uint _op, uint _dp, address minter, uint playerType, uint teamId, uint teamDna, uint teamPos) public onlyTeams returns (uint, uint) {\r\n        if(nextId == 0){\r\n            require(msg.sender == admin, \"A1\");\r\n        }\r\n        if(playerType == 1) {\r\n            _tokenDetails[nextId] = Player(_op,_dp, _generateRandDna(minter, _randHelper(1)), playerType, teamId,teamDna,teamPos,0,block.timestamp + ageoutSeconds,block.timestamp,0,0);\r\n        } else if (playerType == 2){\r\n            _tokenDetails[nextId] = Player(_op,_dp, _generateRandDna(minter, _randHelper(3)), playerType, teamId,teamDna,teamPos,0,block.timestamp + ageoutSeconds,block.timestamp,0,0);\r\n        } else if (playerType == 3) {\r\n            _tokenDetails[nextId] = Player(_op,_dp, _generateRandDna(minter, _randHelper(5)), playerType, teamId,teamDna,teamPos,0,block.timestamp + ageoutSeconds,block.timestamp,0,0);\r\n        }        \r\n        _safeMint(minter, nextId);\r\n        setApprovalForAll(marketplaceAddress, true);\r\n        nextId++;\r\n        return (_tokenDetails[nextId].offence, _tokenDetails[nextId].defence);\r\n    }\r\n\r\n    function _randHelper(uint a) public view returns (uint){\r\n        return a + nextId;\r\n    }\r\n\r\n    function mintSuperstar(address playerOwner, uint opScore, uint dpScore, uint dna, uint playerType) external onlyAdmin {\r\n        if(playerType == 1){\r\n            _tokenDetails[nextId] = Player(opScore, dpScore, dna, playerType, 0,0,0,0,block.timestamp + ageoutSeconds,block.timestamp,0,0);\r\n        }else if(playerType == 2){\r\n            _tokenDetails[nextId] = Player(opScore, dpScore, dna, playerType, 0,0,0,0,block.timestamp + ageoutSeconds,block.timestamp,0,0);\r\n        }else if(playerType == 3){\r\n            _tokenDetails[nextId] = Player(opScore, dpScore, dna, playerType, 0,0,0,0,block.timestamp + ageoutSeconds,block.timestamp,0,0);\r\n        }\r\n        _safeMint(playerOwner, nextId);\r\n        setApprovalForAll(marketplaceAddress, true);\r\n        nextId++;\r\n        emit newSuperstar(nextId-1);\r\n    }\r\n\r\n    function getAllTokensForUser(address user) public view returns (uint256[] memory){\r\n        uint256 tokenCount = balanceOf(user);\r\n        if(tokenCount == 0){\r\n            return new uint256[](0);\r\n        }\r\n        else{\r\n            uint[] memory result = new uint256[](tokenCount);\r\n            uint256 totalPlayers = nextId;\r\n            uint256 resultIndex = 0;\r\n            uint256 i;\r\n            for(i = 0; i < totalPlayers; i++){\r\n                if(ownerOf(i) == user){\r\n                    result[resultIndex] = i;\r\n                    resultIndex++;\r\n                }\r\n                \r\n            }\r\n            return result;\r\n        }\r\n    }\r\n\r\n    function giftPlayer(uint tokenId, address newOwner) public {\r\n        require (ownerOf(tokenId) == msg.sender);\r\n        safeTransferFrom(msg.sender, newOwner, tokenId, \"\");\r\n    }\r\n\r\n    function updateEquipment(uint token, uint sku, uint playerid) public {\r\n        uint tokenBalance = pbProShopFactory.balanceOf(msg.sender, token);\r\n        require(tokenBalance >= 1);\r\n        _tokenDetails[playerid].equippedJersey = sku;\r\n        _tokenDetails[playerid].equippedToken = token;    \r\n        pbProShopFactory.burnOnEquip(msg.sender, token);\r\n    }\r\n\r\n    function removeEquipment(uint playerid) public {\r\n        require(_tokenDetails[playerid].equippedToken != 0);\r\n        uint returnToken;\r\n        returnToken = _tokenDetails[playerid].equippedToken;\r\n        _tokenDetails[playerid].equippedJersey = 0;\r\n        _tokenDetails[playerid].equippedToken = 0;    \r\n        pbProShopFactory.mintOnUnequip(msg.sender, returnToken);\r\n    }\r\n\r\n    function assignToTeam(uint teamId, uint position, uint playerid, uint teamDna) public {\r\n        require(ownerOf(playerid) == msg.sender);\r\n        require(pbTeams.getTokenDetails(teamId).ownerAddress == msg.sender);\r\n         _tokenDetails[playerid].teamId = teamId;\r\n         _tokenDetails[playerid].position = position;\r\n         _tokenDetails[playerid].teamDna = teamDna;\r\n         uint playerOp = _tokenDetails[playerid].offence;\r\n         uint playerDp = _tokenDetails[playerid].defence;\r\n         pbTeams.addStatsToTeam(teamId, msg.sender, playerOp, playerDp);\r\n    }\r\n\r\n    function removeFromTeam(uint teamId, uint playerid) public {\r\n        require(ownerOf(playerid) == msg.sender);\r\n        require(pbTeams.getTokenDetails(teamId).ownerAddress == msg.sender);\r\n         _tokenDetails[playerid].teamId = 0;\r\n         _tokenDetails[playerid].position = 0;\r\n         _tokenDetails[playerid].teamDna = 0;\r\n         uint playerOp = _tokenDetails[playerid].offence;\r\n         uint playerDp = _tokenDetails[playerid].defence;\r\n         pbTeams.removeStatsFromTeam(teamId, msg.sender, playerOp, playerDp);\r\n    }\r\n\r\n    function addOp(uint tokenId, uint qty, address owner) public onlyPBXP {\r\n       _tokenDetails[tokenId].offence = _tokenDetails[tokenId].offence + qty;\r\n       if(_tokenDetails[tokenId].teamId != 0){\r\n        pbTeams.addOPToTeam(_tokenDetails[tokenId].teamId,owner, qty);\r\n       }\r\n    }\r\n\r\n    function addDp(uint tokenId, uint qty, address owner) public onlyPBXP {\r\n       _tokenDetails[tokenId].defence = _tokenDetails[tokenId].defence + qty;\r\n       if(_tokenDetails[tokenId].teamId != 0){\r\n           pbTeams.addDPToTeam(_tokenDetails[tokenId].teamId, owner, qty);\r\n       }\r\n    }\r\n\r\n    function _generateRandDna (address sender, uint randHelper) public view returns (uint){\r\n        uint rand = uint(keccak256(abi.encodePacked(block.timestamp, block.difficulty, sender, randHelper)));\r\n        return rand % dnaModulus;\r\n    }\r\n\r\n    function _generateRandAtrrib (address sender, uint mod, uint base, uint randHelper) public view returns (uint){\r\n        uint operator = 0;\r\n        uint i;\r\n        for( i = 0; i < bellCurveIterations; i++) {\r\n            operator = operator + (uint(keccak256(abi.encodePacked(randHelper, i, block.difficulty, block.timestamp, sender))) % mod);\r\n        }\r\n        uint primaryAttrib = operator/bellCurveIterations;\r\n        return primaryAttrib + base;\r\n    }\r\n\r\n    function getTeamOP (uint _teamId) public view returns (uint) {\r\n            uint resultIndex = 0;\r\n            uint i;\r\n            for(i = 0; i < nextId; i++){\r\n                if(getTokenDetails(i).teamId == _teamId){\r\n                    resultIndex = resultIndex + getTokenDetails(i).offence; \r\n            }\r\n        }\r\n        return resultIndex;\r\n    }\r\n\r\n    function getTeamDP (uint _teamId) public view returns (uint) {\r\n            uint resultIndex = 0;\r\n            uint i;\r\n            for(i = 0; i < nextId; i++){\r\n                if(getTokenDetails(i).teamId == _teamId){\r\n                    resultIndex = resultIndex + getTokenDetails(i).defence; \r\n            }\r\n        }\r\n        return resultIndex;\r\n    }\r\n\r\n    // function withdrawBuddies(address payable _to, uint _amount) public onlyAdmin {\r\n    //     _to.transfer(_amount);\r\n    // }\r\n\r\n}\r\n",
  "sourcePath": "O:\\Projects\\puck-buddies\\contracts\\PBPlayers.sol",
  "compiler": {
    "name": "solc",
    "version": "0.8.6+commit.11564f7e.Emscripten.clang"
  },
  "schemaVersion": "3.4.3",
  "updatedAt": "2021-11-21T07:03:19.710Z",
  "networkType": "ethereum",
  "devdoc": {
    "kind": "dev",
    "methods": {
      "approve(address,uint256)": {
        "details": "See {IERC721-approve}."
      },
      "balanceOf(address)": {
        "details": "See {IERC721-balanceOf}."
      },
      "getApproved(uint256)": {
        "details": "See {IERC721-getApproved}."
      },
      "isApprovedForAll(address,address)": {
        "details": "See {IERC721-isApprovedForAll}."
      },
      "name()": {
        "details": "See {IERC721Metadata-name}."
      },
      "ownerOf(uint256)": {
        "details": "See {IERC721-ownerOf}."
      },
      "safeTransferFrom(address,address,uint256)": {
        "details": "See {IERC721-safeTransferFrom}."
      },
      "safeTransferFrom(address,address,uint256,bytes)": {
        "details": "See {IERC721-safeTransferFrom}."
      },
      "setApprovalForAll(address,bool)": {
        "details": "See {IERC721-setApprovalForAll}."
      },
      "supportsInterface(bytes4)": {
        "details": "See {IERC165-supportsInterface}."
      },
      "symbol()": {
        "details": "See {IERC721Metadata-symbol}."
      },
      "tokenURI(uint256)": {
        "details": "See {IERC721Metadata-tokenURI}."
      },
      "transferFrom(address,address,uint256)": {
        "details": "See {IERC721-transferFrom}."
      }
    },
    "version": 1
  },
  "userdoc": {
    "kind": "user",
    "methods": {},
    "version": 1
  }
}