{
  "contractName": "PBPlayers",
  "abi": [
    {
      "inputs": [
        {
          "internalType": "address",
          "name": "_buddiesCoinAddress",
          "type": "address"
        },
        {
          "internalType": "uint256",
          "name": "_mintCost1",
          "type": "uint256"
        },
        {
          "internalType": "uint256",
          "name": "_mintCost2",
          "type": "uint256"
        },
        {
          "internalType": "uint256",
          "name": "_mintCost3",
          "type": "uint256"
        },
        {
          "internalType": "uint256",
          "name": "_ageoutSeconds",
          "type": "uint256"
        }
      ],
      "stateMutability": "nonpayable",
      "type": "constructor"
    },
    {
      "anonymous": false,
      "inputs": [
        {
          "indexed": true,
          "internalType": "address",
          "name": "owner",
          "type": "address"
        },
        {
          "indexed": true,
          "internalType": "address",
          "name": "approved",
          "type": "address"
        },
        {
          "indexed": true,
          "internalType": "uint256",
          "name": "tokenId",
          "type": "uint256"
        }
      ],
      "name": "Approval",
      "type": "event"
    },
    {
      "anonymous": false,
      "inputs": [
        {
          "indexed": true,
          "internalType": "address",
          "name": "owner",
          "type": "address"
        },
        {
          "indexed": true,
          "internalType": "address",
          "name": "operator",
          "type": "address"
        },
        {
          "indexed": false,
          "internalType": "bool",
          "name": "approved",
          "type": "bool"
        }
      ],
      "name": "ApprovalForAll",
      "type": "event"
    },
    {
      "anonymous": false,
      "inputs": [
        {
          "indexed": true,
          "internalType": "address",
          "name": "from",
          "type": "address"
        },
        {
          "indexed": true,
          "internalType": "address",
          "name": "to",
          "type": "address"
        },
        {
          "indexed": true,
          "internalType": "uint256",
          "name": "tokenId",
          "type": "uint256"
        }
      ],
      "name": "Transfer",
      "type": "event"
    },
    {
      "anonymous": false,
      "inputs": [
        {
          "indexed": false,
          "internalType": "uint256",
          "name": "tokenId",
          "type": "uint256"
        }
      ],
      "name": "newSuperstar",
      "type": "event"
    },
    {
      "inputs": [
        {
          "internalType": "uint256",
          "name": "",
          "type": "uint256"
        }
      ],
      "name": "_tokenDetails",
      "outputs": [
        {
          "internalType": "uint256",
          "name": "offence",
          "type": "uint256"
        },
        {
          "internalType": "uint256",
          "name": "defence",
          "type": "uint256"
        },
        {
          "internalType": "uint256",
          "name": "dna",
          "type": "uint256"
        },
        {
          "internalType": "uint256",
          "name": "playertype",
          "type": "uint256"
        },
        {
          "internalType": "uint256",
          "name": "mainColor",
          "type": "uint256"
        },
        {
          "internalType": "uint256",
          "name": "ageoutTimestamp",
          "type": "uint256"
        },
        {
          "internalType": "uint256",
          "name": "draftTimestamp",
          "type": "uint256"
        },
        {
          "internalType": "uint256",
          "name": "equippedJersey",
          "type": "uint256"
        },
        {
          "internalType": "uint256",
          "name": "equippedToken",
          "type": "uint256"
        },
        {
          "internalType": "uint256",
          "name": "edition",
          "type": "uint256"
        }
      ],
      "stateMutability": "view",
      "type": "function",
      "constant": true
    },
    {
      "inputs": [
        {
          "internalType": "address",
          "name": "to",
          "type": "address"
        },
        {
          "internalType": "uint256",
          "name": "tokenId",
          "type": "uint256"
        }
      ],
      "name": "approve",
      "outputs": [],
      "stateMutability": "nonpayable",
      "type": "function"
    },
    {
      "inputs": [
        {
          "internalType": "address",
          "name": "owner",
          "type": "address"
        }
      ],
      "name": "balanceOf",
      "outputs": [
        {
          "internalType": "uint256",
          "name": "",
          "type": "uint256"
        }
      ],
      "stateMutability": "view",
      "type": "function",
      "constant": true
    },
    {
      "inputs": [],
      "name": "buddies",
      "outputs": [
        {
          "internalType": "contract IERC20",
          "name": "",
          "type": "address"
        }
      ],
      "stateMutability": "view",
      "type": "function",
      "constant": true
    },
    {
      "inputs": [
        {
          "internalType": "uint256",
          "name": "tokenId",
          "type": "uint256"
        }
      ],
      "name": "getApproved",
      "outputs": [
        {
          "internalType": "address",
          "name": "",
          "type": "address"
        }
      ],
      "stateMutability": "view",
      "type": "function",
      "constant": true
    },
    {
      "inputs": [
        {
          "internalType": "address",
          "name": "owner",
          "type": "address"
        },
        {
          "internalType": "address",
          "name": "operator",
          "type": "address"
        }
      ],
      "name": "isApprovedForAll",
      "outputs": [
        {
          "internalType": "bool",
          "name": "",
          "type": "bool"
        }
      ],
      "stateMutability": "view",
      "type": "function",
      "constant": true
    },
    {
      "inputs": [],
      "name": "name",
      "outputs": [
        {
          "internalType": "string",
          "name": "",
          "type": "string"
        }
      ],
      "stateMutability": "view",
      "type": "function",
      "constant": true
    },
    {
      "inputs": [
        {
          "internalType": "uint256",
          "name": "tokenId",
          "type": "uint256"
        }
      ],
      "name": "ownerOf",
      "outputs": [
        {
          "internalType": "address",
          "name": "",
          "type": "address"
        }
      ],
      "stateMutability": "view",
      "type": "function",
      "constant": true
    },
    {
      "inputs": [],
      "name": "pbPlayerMarketplace",
      "outputs": [
        {
          "internalType": "contract PBPlayerMarketplace",
          "name": "",
          "type": "address"
        }
      ],
      "stateMutability": "view",
      "type": "function",
      "constant": true
    },
    {
      "inputs": [],
      "name": "pbProShopFactory",
      "outputs": [
        {
          "internalType": "contract PBProShopFactory",
          "name": "",
          "type": "address"
        }
      ],
      "stateMutability": "view",
      "type": "function",
      "constant": true
    },
    {
      "inputs": [],
      "name": "pbTeams",
      "outputs": [
        {
          "internalType": "contract PBTeams",
          "name": "",
          "type": "address"
        }
      ],
      "stateMutability": "view",
      "type": "function",
      "constant": true
    },
    {
      "inputs": [],
      "name": "pbxp",
      "outputs": [
        {
          "internalType": "contract PBXP",
          "name": "",
          "type": "address"
        }
      ],
      "stateMutability": "view",
      "type": "function",
      "constant": true
    },
    {
      "inputs": [
        {
          "internalType": "address",
          "name": "from",
          "type": "address"
        },
        {
          "internalType": "address",
          "name": "to",
          "type": "address"
        },
        {
          "internalType": "uint256",
          "name": "tokenId",
          "type": "uint256"
        }
      ],
      "name": "safeTransferFrom",
      "outputs": [],
      "stateMutability": "nonpayable",
      "type": "function"
    },
    {
      "inputs": [
        {
          "internalType": "address",
          "name": "from",
          "type": "address"
        },
        {
          "internalType": "address",
          "name": "to",
          "type": "address"
        },
        {
          "internalType": "uint256",
          "name": "tokenId",
          "type": "uint256"
        },
        {
          "internalType": "bytes",
          "name": "_data",
          "type": "bytes"
        }
      ],
      "name": "safeTransferFrom",
      "outputs": [],
      "stateMutability": "nonpayable",
      "type": "function"
    },
    {
      "inputs": [
        {
          "internalType": "address",
          "name": "operator",
          "type": "address"
        },
        {
          "internalType": "bool",
          "name": "approved",
          "type": "bool"
        }
      ],
      "name": "setApprovalForAll",
      "outputs": [],
      "stateMutability": "nonpayable",
      "type": "function"
    },
    {
      "inputs": [
        {
          "internalType": "bytes4",
          "name": "interfaceId",
          "type": "bytes4"
        }
      ],
      "name": "supportsInterface",
      "outputs": [
        {
          "internalType": "bool",
          "name": "",
          "type": "bool"
        }
      ],
      "stateMutability": "view",
      "type": "function",
      "constant": true
    },
    {
      "inputs": [],
      "name": "symbol",
      "outputs": [
        {
          "internalType": "string",
          "name": "",
          "type": "string"
        }
      ],
      "stateMutability": "view",
      "type": "function",
      "constant": true
    },
    {
      "inputs": [
        {
          "internalType": "uint256",
          "name": "tokenId",
          "type": "uint256"
        }
      ],
      "name": "tokenURI",
      "outputs": [
        {
          "internalType": "string",
          "name": "",
          "type": "string"
        }
      ],
      "stateMutability": "view",
      "type": "function",
      "constant": true
    },
    {
      "inputs": [
        {
          "internalType": "address",
          "name": "from",
          "type": "address"
        },
        {
          "internalType": "address",
          "name": "to",
          "type": "address"
        },
        {
          "internalType": "uint256",
          "name": "tokenId",
          "type": "uint256"
        }
      ],
      "name": "transferFrom",
      "outputs": [],
      "stateMutability": "nonpayable",
      "type": "function"
    },
    {
      "inputs": [],
      "name": "isAdmin",
      "outputs": [
        {
          "internalType": "bool",
          "name": "",
          "type": "bool"
        }
      ],
      "stateMutability": "view",
      "type": "function",
      "constant": true
    },
    {
      "inputs": [],
      "name": "getPBPlayersAddress",
      "outputs": [
        {
          "internalType": "address",
          "name": "",
          "type": "address"
        }
      ],
      "stateMutability": "view",
      "type": "function",
      "constant": true
    },
    {
      "inputs": [
        {
          "internalType": "address",
          "name": "_buddiesCoinAddress",
          "type": "address"
        }
      ],
      "name": "updateBuddiesCoinAddress",
      "outputs": [],
      "stateMutability": "nonpayable",
      "type": "function"
    },
    {
      "inputs": [
        {
          "internalType": "address",
          "name": "_pbTeamsAddress",
          "type": "address"
        }
      ],
      "name": "updatePBTeamsAddress",
      "outputs": [],
      "stateMutability": "nonpayable",
      "type": "function"
    },
    {
      "inputs": [
        {
          "internalType": "address",
          "name": "_proshopAddress",
          "type": "address"
        }
      ],
      "name": "updatePBProShopFactoryAddress",
      "outputs": [],
      "stateMutability": "nonpayable",
      "type": "function"
    },
    {
      "inputs": [
        {
          "internalType": "address",
          "name": "_pbPlayerMarketplaceAddress",
          "type": "address"
        }
      ],
      "name": "updatePBPlayerMarketplaceAddress",
      "outputs": [],
      "stateMutability": "nonpayable",
      "type": "function"
    },
    {
      "inputs": [
        {
          "internalType": "address",
          "name": "_pbxpAddress",
          "type": "address"
        }
      ],
      "name": "updatePBXPaddress",
      "outputs": [],
      "stateMutability": "nonpayable",
      "type": "function"
    },
    {
      "inputs": [
        {
          "internalType": "uint256",
          "name": "_mintCost1",
          "type": "uint256"
        },
        {
          "internalType": "uint256",
          "name": "_mintCost2",
          "type": "uint256"
        },
        {
          "internalType": "uint256",
          "name": "_mintCost3",
          "type": "uint256"
        },
        {
          "internalType": "uint256",
          "name": "_ageoutSeconds",
          "type": "uint256"
        }
      ],
      "name": "updateVariables",
      "outputs": [],
      "stateMutability": "nonpayable",
      "type": "function"
    },
    {
      "inputs": [],
      "name": "getMintingCosts",
      "outputs": [
        {
          "internalType": "uint256",
          "name": "",
          "type": "uint256"
        },
        {
          "internalType": "uint256",
          "name": "",
          "type": "uint256"
        },
        {
          "internalType": "uint256",
          "name": "",
          "type": "uint256"
        },
        {
          "internalType": "uint256",
          "name": "",
          "type": "uint256"
        }
      ],
      "stateMutability": "view",
      "type": "function",
      "constant": true
    },
    {
      "inputs": [],
      "name": "getNextId",
      "outputs": [
        {
          "internalType": "uint256",
          "name": "",
          "type": "uint256"
        }
      ],
      "stateMutability": "view",
      "type": "function",
      "constant": true
    },
    {
      "inputs": [
        {
          "internalType": "uint256",
          "name": "tokenId",
          "type": "uint256"
        }
      ],
      "name": "getTokenDetails",
      "outputs": [
        {
          "components": [
            {
              "internalType": "uint256",
              "name": "offence",
              "type": "uint256"
            },
            {
              "internalType": "uint256",
              "name": "defence",
              "type": "uint256"
            },
            {
              "internalType": "uint256",
              "name": "dna",
              "type": "uint256"
            },
            {
              "internalType": "uint256",
              "name": "playertype",
              "type": "uint256"
            },
            {
              "internalType": "uint256",
              "name": "mainColor",
              "type": "uint256"
            },
            {
              "internalType": "uint256",
              "name": "ageoutTimestamp",
              "type": "uint256"
            },
            {
              "internalType": "uint256",
              "name": "draftTimestamp",
              "type": "uint256"
            },
            {
              "internalType": "uint256",
              "name": "equippedJersey",
              "type": "uint256"
            },
            {
              "internalType": "uint256",
              "name": "equippedToken",
              "type": "uint256"
            },
            {
              "internalType": "uint256",
              "name": "edition",
              "type": "uint256"
            }
          ],
          "internalType": "struct PBPlayers.Player",
          "name": "",
          "type": "tuple"
        }
      ],
      "stateMutability": "view",
      "type": "function",
      "constant": true
    },
    {
      "inputs": [
        {
          "internalType": "uint256",
          "name": "value",
          "type": "uint256"
        },
        {
          "internalType": "uint256",
          "name": "playerType",
          "type": "uint256"
        }
      ],
      "name": "mintPlayer",
      "outputs": [],
      "stateMutability": "nonpayable",
      "type": "function"
    },
    {
      "inputs": [
        {
          "internalType": "uint256",
          "name": "_op",
          "type": "uint256"
        },
        {
          "internalType": "uint256",
          "name": "_dp",
          "type": "uint256"
        },
        {
          "internalType": "address",
          "name": "minter",
          "type": "address"
        },
        {
          "internalType": "uint256",
          "name": "playerType",
          "type": "uint256"
        }
      ],
      "name": "mintSixPackPlayer",
      "outputs": [
        {
          "internalType": "uint256",
          "name": "",
          "type": "uint256"
        }
      ],
      "stateMutability": "nonpayable",
      "type": "function"
    },
    {
      "inputs": [
        {
          "internalType": "uint256",
          "name": "a",
          "type": "uint256"
        }
      ],
      "name": "_randHelper",
      "outputs": [
        {
          "internalType": "uint256",
          "name": "",
          "type": "uint256"
        }
      ],
      "stateMutability": "view",
      "type": "function",
      "constant": true
    },
    {
      "inputs": [
        {
          "internalType": "address",
          "name": "playerOwner",
          "type": "address"
        },
        {
          "internalType": "uint256",
          "name": "opScore",
          "type": "uint256"
        },
        {
          "internalType": "uint256",
          "name": "dpScore",
          "type": "uint256"
        },
        {
          "internalType": "uint256",
          "name": "dna",
          "type": "uint256"
        },
        {
          "internalType": "uint256",
          "name": "playerType",
          "type": "uint256"
        }
      ],
      "name": "mintSuperstar",
      "outputs": [],
      "stateMutability": "nonpayable",
      "type": "function"
    },
    {
      "inputs": [
        {
          "internalType": "address",
          "name": "user",
          "type": "address"
        }
      ],
      "name": "getAllTokensForUser",
      "outputs": [
        {
          "internalType": "uint256[]",
          "name": "",
          "type": "uint256[]"
        }
      ],
      "stateMutability": "view",
      "type": "function",
      "constant": true
    },
    {
      "inputs": [
        {
          "internalType": "uint256",
          "name": "tokenId",
          "type": "uint256"
        },
        {
          "internalType": "address",
          "name": "newOwner",
          "type": "address"
        }
      ],
      "name": "giftPlayer",
      "outputs": [],
      "stateMutability": "nonpayable",
      "type": "function"
    },
    {
      "inputs": [
        {
          "internalType": "uint256",
          "name": "token",
          "type": "uint256"
        },
        {
          "internalType": "uint256",
          "name": "sku",
          "type": "uint256"
        },
        {
          "internalType": "uint256",
          "name": "playerid",
          "type": "uint256"
        }
      ],
      "name": "updateEquipment",
      "outputs": [],
      "stateMutability": "nonpayable",
      "type": "function"
    },
    {
      "inputs": [
        {
          "internalType": "uint256",
          "name": "playerid",
          "type": "uint256"
        }
      ],
      "name": "removeEquipment",
      "outputs": [],
      "stateMutability": "nonpayable",
      "type": "function"
    },
    {
      "inputs": [
        {
          "internalType": "uint256",
          "name": "tokenId",
          "type": "uint256"
        },
        {
          "internalType": "uint256",
          "name": "qty",
          "type": "uint256"
        },
        {
          "internalType": "address",
          "name": "owner",
          "type": "address"
        }
      ],
      "name": "addOp",
      "outputs": [],
      "stateMutability": "nonpayable",
      "type": "function"
    },
    {
      "inputs": [
        {
          "internalType": "uint256",
          "name": "tokenId",
          "type": "uint256"
        },
        {
          "internalType": "uint256",
          "name": "qty",
          "type": "uint256"
        },
        {
          "internalType": "address",
          "name": "owner",
          "type": "address"
        }
      ],
      "name": "addDp",
      "outputs": [],
      "stateMutability": "nonpayable",
      "type": "function"
    },
    {
      "inputs": [
        {
          "internalType": "address",
          "name": "sender",
          "type": "address"
        },
        {
          "internalType": "uint256",
          "name": "randHelper",
          "type": "uint256"
        }
      ],
      "name": "_generateRandDna",
      "outputs": [
        {
          "internalType": "uint256",
          "name": "",
          "type": "uint256"
        }
      ],
      "stateMutability": "view",
      "type": "function",
      "constant": true
    },
    {
      "inputs": [
        {
          "internalType": "address",
          "name": "sender",
          "type": "address"
        },
        {
          "internalType": "uint256",
          "name": "mod",
          "type": "uint256"
        },
        {
          "internalType": "uint256",
          "name": "base",
          "type": "uint256"
        },
        {
          "internalType": "uint256",
          "name": "randHelper",
          "type": "uint256"
        }
      ],
      "name": "_generateRandAtrrib",
      "outputs": [
        {
          "internalType": "uint256",
          "name": "",
          "type": "uint256"
        }
      ],
      "stateMutability": "view",
      "type": "function",
      "constant": true
    },
    {
      "inputs": [],
      "name": "getCurrentEdition",
      "outputs": [
        {
          "internalType": "uint256",
          "name": "",
          "type": "uint256"
        }
      ],
      "stateMutability": "view",
      "type": "function",
      "constant": true
    },
    {
      "inputs": [
        {
          "internalType": "uint256",
          "name": "_edition",
          "type": "uint256"
        }
      ],
      "name": "updateCurrentEdition",
      "outputs": [],
      "stateMutability": "nonpayable",
      "type": "function"
    },
    {
      "inputs": [],
      "name": "getBNBBalance",
      "outputs": [
        {
          "internalType": "uint256",
          "name": "",
          "type": "uint256"
        }
      ],
      "stateMutability": "view",
      "type": "function",
      "constant": true
    },
    {
      "inputs": [],
      "name": "getBudsBalance",
      "outputs": [
        {
          "internalType": "uint256",
          "name": "",
          "type": "uint256"
        }
      ],
      "stateMutability": "view",
      "type": "function",
      "constant": true
    },
    {
      "inputs": [
        {
          "internalType": "address payable",
          "name": "_to",
          "type": "address"
        },
        {
          "internalType": "uint256",
          "name": "_amount",
          "type": "uint256"
        }
      ],
      "name": "transferBNB",
      "outputs": [],
      "stateMutability": "nonpayable",
      "type": "function"
    },
    {
      "inputs": [
        {
          "internalType": "uint256",
          "name": "_amount",
          "type": "uint256"
        }
      ],
      "name": "transferBUDS",
      "outputs": [],
      "stateMutability": "nonpayable",
      "type": "function"
    }
  ],
  "bytecode": "0x6080604052601e600e55600e54600a6200001a919062000369565b600f556004601055600160125560006018553480156200003957600080fd5b506040516200624d3803806200624d83398181016040528101906200005f919062000286565b6040518060400160405280601181526020017f506978656c205075636b20506c617965720000000000000000000000000000008152506040518060400160405280600381526020017f50505000000000000000000000000000000000000000000000000000000000008152508160009080519060200190620000e3929190620001a8565b508060019080519060200190620000fc929190620001a8565b50505033600660006101000a81548173ffffffffffffffffffffffffffffffffffffffff021916908373ffffffffffffffffffffffffffffffffffffffff16021790555084601360006101000a81548173ffffffffffffffffffffffffffffffffffffffff021916908373ffffffffffffffffffffffffffffffffffffffff1602179055508360098190555082600a8190555081600b81905550806011819055505050505050620005be565b828054620001b690620004e4565b90600052602060002090601f016020900481019282620001da576000855562000226565b82601f10620001f557805160ff191683800117855562000226565b8280016001018555821562000226579182015b828111156200022557825182559160200191906001019062000208565b5b50905062000235919062000239565b5090565b5b80821115620002545760008160009055506001016200023a565b5090565b60008151905062000269816200058a565b92915050565b6000815190506200028081620005a4565b92915050565b600080600080600060a08688031215620002a557620002a462000578565b5b6000620002b58882890162000258565b9550506020620002c8888289016200026f565b9450506040620002db888289016200026f565b9350506060620002ee888289016200026f565b925050608062000301888289016200026f565b9150509295509295909350565b6000808291508390505b600185111562000360578086048111156200033857620003376200051a565b5b6001851615620003485780820291505b808102905062000358856200057d565b945062000318565b94509492505050565b60006200037682620004da565b91506200038383620004da565b9250620003b27fffffffffffffffffffffffffffffffffffffffffffffffffffffffffffffffff8484620003ba565b905092915050565b600082620003cc57600190506200049f565b81620003dc57600090506200049f565b8160018114620003f55760028114620004005762000436565b60019150506200049f565b60ff8411156200041557620004146200051a565b5b8360020a9150848211156200042f576200042e6200051a565b5b506200049f565b5060208310610133831016604e8410600b8410161715620004705782820a9050838111156200046a57620004696200051a565b5b6200049f565b6200047f84848460016200030e565b925090508184048111156200049957620004986200051a565b5b81810290505b9392505050565b6000620004b382620004ba565b9050919050565b600073ffffffffffffffffffffffffffffffffffffffff82169050919050565b6000819050919050565b60006002820490506001821680620004fd57607f821691505b6020821081141562000514576200051362000549565b5b50919050565b7f4e487b7100000000000000000000000000000000000000000000000000000000600052601160045260246000fd5b7f4e487b7100000000000000000000000000000000000000000000000000000000600052602260045260246000fd5b600080fd5b60008160011c9050919050565b6200059581620004a6565b8114620005a157600080fd5b50565b620005af81620004da565b8114620005bb57600080fd5b50565b615c7f80620005ce6000396000f3fe608060405234801561001057600080fd5b50600436106102a05760003560e01c806382de8fe911610167578063bc968326116100ce578063e985e9c511610087578063e985e9c514610853578063eb17fba314610883578063efe6e41c1461089f578063f0258a78146108bb578063f8966c4f146108d7578063f89879aa146108f3576102a0565b8063bc96832614610766578063c1e0372814610784578063c87b56dd146107b4578063c9483383146107e4578063d4536c4e14610814578063e00c01c514610835576102a0565b8063a2a8728d11610120578063a2a8728d146106a6578063a561c851146106c2578063a8de071e146106e0578063b42f6eb214610710578063b6db75a01461072c578063b88d4fde1461074a576102a0565b806382de8fe9146105c95780638491f214146105f957806385f7229a1461061757806395d89b411461065057806395e03eb41461066e578063a22cb4651461068a576102a0565b80634a594c121161020b5780636bf082da116101c45780636bf082da146104f557806370a0823114610511578063721f77971461054157806373034d081461055f5780637a560b221461057d5780637c6e686f146105ad576102a0565b80634a594c121461042157806355de5a931461043f5780635d632faf1461045d57806362268169146104795780636352211e146104955780636ba1df63146104c5576102a0565b806318894cf81161025d57806318894cf81461037757806323b872dd1461039557806326d58a7b146103b15780632919e4ff146103cd5780632bc3c2f9146103e957806342842e0e14610405576102a0565b806301ffc9a7146102a557806306fdde03146102d5578063081812fc146102f3578063095ea7b314610323578063110114341461033f578063143c80631461035b575b600080fd5b6102bf60048036038101906102ba9190614326565b610911565b6040516102cc9190614d2a565b60405180910390f35b6102dd6109f3565b6040516102ea9190614dcc565b60405180910390f35b61030d60048036038101906103089190614380565b610a85565b60405161031a9190614c18565b60405180910390f35b61033d600480360381019061033891906141d7565b610b0a565b005b61035960048036038101906103549190614380565b610c22565b005b61037560048036038101906103709190614014565b610cbc565b005b61037f610dd1565b60405161038c9190614db1565b60405180910390f35b6103af60048036038101906103aa91906140c1565b610df7565b005b6103cb60048036038101906103c69190614014565b610e57565b005b6103e760048036038101906103e2919061427e565b610f2b565b005b61040360048036038101906103fe9190614514565b611302565b005b61041f600480360381019061041a91906140c1565b61148b565b005b6104296114ab565b6040516104369190614d45565b60405180910390f35b6104476114d1565b60405161045491906150aa565b60405180910390f35b61047760048036038101906104729190614014565b6114db565b005b610493600480360381019061048e919061441a565b6115af565b005b6104af60048036038101906104aa9190614380565b611b94565b6040516104bc9190614c18565b60405180910390f35b6104df60048036038101906104da91906141d7565b611c46565b6040516104ec91906150aa565b60405180910390f35b61050f600480360381019061050a9190614014565b611c92565b005b61052b60048036038101906105269190614014565b611da7565b60405161053891906150aa565b60405180910390f35b610549611e5f565b6040516105569190614d7b565b60405180910390f35b610567611e85565b6040516105749190614d60565b60405180910390f35b610597600480360381019061059291906144ad565b611eab565b6040516105a491906150aa565b60405180910390f35b6105c760048036038101906105c291906143da565b612315565b005b6105e360048036038101906105de9190614014565b612374565b6040516105f09190614d08565b60405180910390f35b6106016124ca565b60405161060e91906150aa565b60405180910390f35b610631600480360381019061062c9190614380565b61257c565b6040516106479a9998979695949392919061510a565b60405180910390f35b6106586125d0565b6040516106659190614dcc565b60405180910390f35b61068860048036038101906106839190614380565b612662565b005b6106a4600480360381019061069f9190614197565b6127a5565b005b6106c060048036038101906106bb9190614014565b612926565b005b6106ca6129fa565b6040516106d79190614c18565b60405180910390f35b6106fa60048036038101906106f59190614217565b612a02565b60405161070791906150aa565b60405180910390f35b61072a60048036038101906107259190614567565b612a9e565b005b610734612b50565b6040516107419190614d2a565b60405180910390f35b610764600480360381019061075f9190614114565b612bb9565b005b61076e612c1b565b60405161077b91906150aa565b60405180910390f35b61079e60048036038101906107999190614380565b612c25565b6040516107ab919061508e565b60405180910390f35b6107ce60048036038101906107c99190614380565b612cb7565b6040516107db9190614dcc565b60405180910390f35b6107fe60048036038101906107f99190614380565b612d5e565b60405161080b91906150aa565b60405180910390f35b61081c612d75565b60405161082c94939291906150c5565b60405180910390f35b61083d612d95565b60405161084a9190614d96565b60405180910390f35b61086d60048036038101906108689190614081565b612dbb565b60405161087a9190614d2a565b60405180910390f35b61089d60048036038101906108989190614041565b612e4f565b005b6108b960048036038101906108b4919061445a565b612f2a565b005b6108d560048036038101906108d0919061445a565b6130cb565b005b6108f160048036038101906108ec9190614380565b61326c565b005b6108fb613376565b60405161090891906150aa565b60405180910390f35b60007f80ac58cd000000000000000000000000000000000000000000000000000000007bffffffffffffffffffffffffffffffffffffffffffffffffffffffff1916827bffffffffffffffffffffffffffffffffffffffffffffffffffffffff191614806109dc57507f5b5e139f000000000000000000000000000000000000000000000000000000007bffffffffffffffffffffffffffffffffffffffffffffffffffffffff1916827bffffffffffffffffffffffffffffffffffffffffffffffffffffffff1916145b806109ec57506109eb8261340e565b5b9050919050565b606060008054610a02906154af565b80601f0160208091040260200160405190810160405280929190818152602001828054610a2e906154af565b8015610a7b5780601f10610a5057610100808354040283529160200191610a7b565b820191906000526020600020905b815481529060010190602001808311610a5e57829003601f168201915b5050505050905090565b6000610a9082613478565b610acf576040517f08c379a0000000000000000000000000000000000000000000000000000000008152600401610ac690614fae565b60405180910390fd5b6004600083815260200190815260200160002060009054906101000a900473ffffffffffffffffffffffffffffffffffffffff169050919050565b6000610b1582611b94565b90508073ffffffffffffffffffffffffffffffffffffffff168373ffffffffffffffffffffffffffffffffffffffff161415610b86576040517f08c379a0000000000000000000000000000000000000000000000000000000008152600401610b7d9061500e565b60405180910390fd5b8073ffffffffffffffffffffffffffffffffffffffff16610ba56134e4565b73ffffffffffffffffffffffffffffffffffffffff161480610bd45750610bd381610bce6134e4565b612dbb565b5b610c13576040517f08c379a0000000000000000000000000000000000000000000000000000000008152600401610c0a90614f2e565b60405180910390fd5b610c1d83836134ec565b505050565b3373ffffffffffffffffffffffffffffffffffffffff16600660009054906101000a900473ffffffffffffffffffffffffffffffffffffffff1673ffffffffffffffffffffffffffffffffffffffff1614610cb2576040517f08c379a0000000000000000000000000000000000000000000000000000000008152600401610ca990614e6e565b60405180910390fd5b8060128190555050565b3373ffffffffffffffffffffffffffffffffffffffff16600660009054906101000a900473ffffffffffffffffffffffffffffffffffffffff1673ffffffffffffffffffffffffffffffffffffffff1614610d4c576040517f08c379a0000000000000000000000000000000000000000000000000000000008152600401610d4390614e6e565b60405180910390fd5b80601760006101000a81548173ffffffffffffffffffffffffffffffffffffffff021916908373ffffffffffffffffffffffffffffffffffffffff16021790555080600860006101000a81548173ffffffffffffffffffffffffffffffffffffffff021916908373ffffffffffffffffffffffffffffffffffffffff16021790555050565b601760009054906101000a900473ffffffffffffffffffffffffffffffffffffffff1681565b610e08610e026134e4565b826135a5565b610e47576040517f08c379a0000000000000000000000000000000000000000000000000000000008152600401610e3e9061502e565b60405180910390fd5b610e52838383613683565b505050565b3373ffffffffffffffffffffffffffffffffffffffff16600660009054906101000a900473ffffffffffffffffffffffffffffffffffffffff1673ffffffffffffffffffffffffffffffffffffffff1614610ee7576040517f08c379a0000000000000000000000000000000000000000000000000000000008152600401610ede90614e6e565b60405180910390fd5b80601460006101000a81548173ffffffffffffffffffffffffffffffffffffffff021916908373ffffffffffffffffffffffffffffffffffffffff16021790555050565b3373ffffffffffffffffffffffffffffffffffffffff16600660009054906101000a900473ffffffffffffffffffffffffffffffffffffffff1673ffffffffffffffffffffffffffffffffffffffff1614610fbb576040517f08c379a0000000000000000000000000000000000000000000000000000000008152600401610fb290614e6e565b60405180910390fd5b600181141561109f576040518061014001604052808581526020018481526020018381526020018281526020016000815260200160115442610ffd9190615278565b81526020014281526020016000815260200160008152602001601254815250601960006018548152602001908152602001600020600082015181600001556020820151816001015560408201518160020155606082015181600301556080820151816004015560a0820151816005015560c0820151816006015560e0820151816007015561010082015181600801556101208201518160090155905050611265565b60028114156111835760405180610140016040528085815260200184815260200183815260200182815260200160008152602001601154426110e19190615278565b81526020014281526020016000815260200160008152602001601254815250601960006018548152602001908152602001600020600082015181600001556020820151816001015560408201518160020155606082015181600301556080820151816004015560a0820151816005015560c0820151816006015560e0820151816007015561010082015181600801556101208201518160090155905050611264565b60038114156112635760405180610140016040528085815260200184815260200183815260200182815260200160008152602001601154426111c59190615278565b81526020014281526020016000815260200160008152602001601254815250601960006018548152602001908152602001600020600082015181600001556020820151816001015560408201518160020155606082015181600301556080820151816004015560a0820151816005015560c0820151816006015560e08201518160070155610100820151816008015561012082015181600901559050505b5b5b611271856018546138df565b61129e600c60009054906101000a900473ffffffffffffffffffffffffffffffffffffffff1660016127a5565b601860008154809291906112b190615512565b91905055507f411b384f004565f47f0c20647f30c2d3554c24b48f62090ff947f6607ca96d5660016018546112e691906152ff565b6040516112f391906150aa565b60405180910390a15050505050565b6000601460009054906101000a900473ffffffffffffffffffffffffffffffffffffffff1673ffffffffffffffffffffffffffffffffffffffff1662fdd58e33866040518363ffffffff1660e01b8152600401611360929190614cdf565b60206040518083038186803b15801561137857600080fd5b505afa15801561138c573d6000803e3d6000fd5b505050506040513d601f19601f820116820180604052508101906113b091906143ad565b905060018110156113c057600080fd5b826019600084815260200190815260200160002060070181905550836019600084815260200190815260200160002060080181905550601460009054906101000a900473ffffffffffffffffffffffffffffffffffffffff1673ffffffffffffffffffffffffffffffffffffffff1663f367f20c33866040518363ffffffff1660e01b8152600401611453929190614cdf565b600060405180830381600087803b15801561146d57600080fd5b505af1158015611481573d6000803e3d6000fd5b5050505050505050565b6114a683838360405180602001604052806000815250612bb9565b505050565b601360009054906101000a900473ffffffffffffffffffffffffffffffffffffffff1681565b6000601254905090565b3373ffffffffffffffffffffffffffffffffffffffff16600660009054906101000a900473ffffffffffffffffffffffffffffffffffffffff1673ffffffffffffffffffffffffffffffffffffffff161461156b576040517f08c379a000000000000000000000000000000000000000000000000000000000815260040161156290614e6e565b60405180910390fd5b80601360006101000a81548173ffffffffffffffffffffffffffffffffffffffff021916908373ffffffffffffffffffffffffffffffffffffffff16021790555050565b6000601854141561164b57600660009054906101000a900473ffffffffffffffffffffffffffffffffffffffff1673ffffffffffffffffffffffffffffffffffffffff163373ffffffffffffffffffffffffffffffffffffffff161461164a576040517f08c379a000000000000000000000000000000000000000000000000000000000815260040161164190614e6e565b60405180910390fd5b5b6000601360009054906101000a900473ffffffffffffffffffffffffffffffffffffffff1673ffffffffffffffffffffffffffffffffffffffff1663dd62ed3e33306040518363ffffffff1660e01b81526004016116aa929190614c33565b60206040518083038186803b1580156116c257600080fd5b505afa1580156116d6573d6000803e3d6000fd5b505050506040513d601f19601f820116820180604052508101906116fa91906143ad565b90508281101561173f576040517f08c379a000000000000000000000000000000000000000000000000000000000815260040161173690614dee565b60405180910390fd5b601360009054906101000a900473ffffffffffffffffffffffffffffffffffffffff1673ffffffffffffffffffffffffffffffffffffffff166323b872dd3330866040518463ffffffff1660e01b815260040161179e93929190614c5c565b602060405180830381600087803b1580156117b857600080fd5b505af11580156117cc573d6000803e3d6000fd5b505050506040513d601f19601f820116820180604052508101906117f091906142f9565b5060018214156119125760405180610140016040528061181c336032806118176001612d5e565b612a02565b815260200161183833603260006118336002612d5e565b612a02565b81526020016118503361184b6001612d5e565b611c46565b815260200183815260200160008152602001601154426118709190615278565b81526020014281526020016000815260200160008152602001601254815250601960006018548152602001908152602001600020600082015181600001556020820151816001015560408201518160020155606082015181600301556080820151816004015560a0820151816005015560c0820151816006015560e0820151816007015561010082015181600801556101208201518160090155905050611b3e565b6002821415611a335760405180610140016040528061193e33603260006119396003612d5e565b612a02565b8152602001611959336032806119546004612d5e565b612a02565b81526020016119713361196c6003612d5e565b611c46565b815260200183815260200160008152602001601154426119919190615278565b81526020014281526020016000815260200160008152602001601254815250601960006018548152602001908152602001600020600082015181600001556020820151816001015560408201518160020155606082015181600301556080820151816004015560a0820151816005015560c0820151816006015560e0820151816007015561010082015181600801556101208201518160090155905050611b3d565b6003821415611b3c5760405180610140016040528060008152602001611a66336019604b611a616005612d5e565b612a02565b8152602001611a7e33611a796005612d5e565b611c46565b81526020018381526020016000815260200160115442611a9e9190615278565b81526020014281526020016000815260200160008152602001601254815250601960006018548152602001908152602001600020600082015181600001556020820151816001015560408201518160020155606082015181600301556080820151816004015560a0820151816005015560c0820151816006015560e08201518160070155610100820151816008015561012082015181600901559050505b5b5b611b4a336018546138df565b611b77600c60009054906101000a900473ffffffffffffffffffffffffffffffffffffffff1660016127a5565b60186000815480929190611b8a90615512565b9190505550505050565b6000806002600084815260200190815260200160002060009054906101000a900473ffffffffffffffffffffffffffffffffffffffff169050600073ffffffffffffffffffffffffffffffffffffffff168173ffffffffffffffffffffffffffffffffffffffff161415611c3d576040517f08c379a0000000000000000000000000000000000000000000000000000000008152600401611c3490614f6e565b60405180910390fd5b80915050919050565b60008042448585604051602001611c609493929190614b6b565b6040516020818303038152906040528051906020012060001c9050600f5481611c899190615589565b91505092915050565b3373ffffffffffffffffffffffffffffffffffffffff16600660009054906101000a900473ffffffffffffffffffffffffffffffffffffffff1673ffffffffffffffffffffffffffffffffffffffff1614611d22576040517f08c379a0000000000000000000000000000000000000000000000000000000008152600401611d1990614e6e565b60405180910390fd5b80601560006101000a81548173ffffffffffffffffffffffffffffffffffffffff021916908373ffffffffffffffffffffffffffffffffffffffff16021790555080600760006101000a81548173ffffffffffffffffffffffffffffffffffffffff021916908373ffffffffffffffffffffffffffffffffffffffff16021790555050565b60008073ffffffffffffffffffffffffffffffffffffffff168273ffffffffffffffffffffffffffffffffffffffff161415611e18576040517f08c379a0000000000000000000000000000000000000000000000000000000008152600401611e0f90614f4e565b60405180910390fd5b600360008373ffffffffffffffffffffffffffffffffffffffff1673ffffffffffffffffffffffffffffffffffffffff168152602001908152602001600020549050919050565b601460009054906101000a900473ffffffffffffffffffffffffffffffffffffffff1681565b601660009054906101000a900473ffffffffffffffffffffffffffffffffffffffff1681565b60003373ffffffffffffffffffffffffffffffffffffffff16600760009054906101000a900473ffffffffffffffffffffffffffffffffffffffff1673ffffffffffffffffffffffffffffffffffffffff1614611f3d576040517f08c379a0000000000000000000000000000000000000000000000000000000008152600401611f3490614e4e565b60405180910390fd5b60006018541415611fd957600660009054906101000a900473ffffffffffffffffffffffffffffffffffffffff1673ffffffffffffffffffffffffffffffffffffffff163373ffffffffffffffffffffffffffffffffffffffff1614611fd8576040517f08c379a0000000000000000000000000000000000000000000000000000000008152600401611fcf90614e6e565b60405180910390fd5b5b6000601854905060018314156120d4576040518061014001604052808781526020018681526020016120148661200f6001612d5e565b611c46565b815260200184815260200160008152602001601154426120349190615278565b8152602001428152602001600081526020016000815260200160125481525060196000838152602001908152602001600020600082015181600001556020820151816001015560408201518160020155606082015181600301556080820151816004015560a0820151816005015560c0820151816006015560e08201518160070155610100820151816008015561012082015181600901559050506122ba565b60028314156121c857604051806101400160405280878152602001868152602001612108866121036003612d5e565b611c46565b815260200184815260200160008152602001601154426121289190615278565b8152602001428152602001600081526020016000815260200160125481525060196000838152602001908152602001600020600082015181600001556020820151816001015560408201518160020155606082015181600301556080820151816004015560a0820151816005015560c0820151816006015560e08201518160070155610100820151816008015561012082015181600901559050506122b9565b60038314156122b8576040518061014001604052808781526020018681526020016121fc866121f76005612d5e565b611c46565b8152602001848152602001600081526020016011544261221c9190615278565b8152602001428152602001600081526020016000815260200160125481525060196000838152602001908152602001600020600082015181600001556020820151816001015560408201518160020155606082015181600301556080820151816004015560a0820151816005015560c0820151816006015560e08201518160070155610100820151816008015561012082015181600901559050505b5b5b6122c484826138df565b6122f1600c60009054906101000a900473ffffffffffffffffffffffffffffffffffffffff1660016127a5565b6018600081548092919061230490615512565b919050555080915050949350505050565b3373ffffffffffffffffffffffffffffffffffffffff1661233583611b94565b73ffffffffffffffffffffffffffffffffffffffff161461235557600080fd5b61237033828460405180602001604052806000815250612bb9565b5050565b6060600061238183611da7565b905060008114156123de57600067ffffffffffffffff8111156123a7576123a6615676565b5b6040519080825280602002602001820160405280156123d55781602001602082028036833780820191505090505b509150506124c5565b60008167ffffffffffffffff8111156123fa576123f9615676565b5b6040519080825280602002602001820160405280156124285781602001602082028036833780820191505090505b509050600060185490506000805b828110156124bc578673ffffffffffffffffffffffffffffffffffffffff1661245e82611b94565b73ffffffffffffffffffffffffffffffffffffffff1614156124a9578084838151811061248e5761248d615647565b5b60200260200101818152505081806124a590615512565b9250505b80806124b490615512565b915050612436565b83955050505050505b919050565b6000601360009054906101000a900473ffffffffffffffffffffffffffffffffffffffff1673ffffffffffffffffffffffffffffffffffffffff166370a08231306040518263ffffffff1660e01b81526004016125279190614c18565b60206040518083038186803b15801561253f57600080fd5b505afa158015612553573d6000803e3d6000fd5b505050506040513d601f19601f8201168201806040525081019061257791906143ad565b905090565b6019602052806000526040600020600091509050806000015490806001015490806002015490806003015490806004015490806005015490806006015490806007015490806008015490806009015490508a565b6060600180546125df906154af565b80601f016020809104026020016040519081016040528092919081815260200182805461260b906154af565b80156126585780601f1061262d57610100808354040283529160200191612658565b820191906000526020600020905b81548152906001019060200180831161263b57829003601f168201915b5050505050905090565b3373ffffffffffffffffffffffffffffffffffffffff16600660009054906101000a900473ffffffffffffffffffffffffffffffffffffffff1673ffffffffffffffffffffffffffffffffffffffff16146126f2576040517f08c379a00000000000000000000000000000000000000000000000000000000081526004016126e990614e6e565b60405180910390fd5b601360009054906101000a900473ffffffffffffffffffffffffffffffffffffffff1673ffffffffffffffffffffffffffffffffffffffff1663a9059cbb33836040518363ffffffff1660e01b815260040161274f929190614cdf565b602060405180830381600087803b15801561276957600080fd5b505af115801561277d573d6000803e3d6000fd5b505050506040513d601f19601f820116820180604052508101906127a191906142f9565b5050565b6127ad6134e4565b73ffffffffffffffffffffffffffffffffffffffff168273ffffffffffffffffffffffffffffffffffffffff16141561281b576040517f08c379a000000000000000000000000000000000000000000000000000000000815260040161281290614ece565b60405180910390fd5b80600560006128286134e4565b73ffffffffffffffffffffffffffffffffffffffff1673ffffffffffffffffffffffffffffffffffffffff16815260200190815260200160002060008473ffffffffffffffffffffffffffffffffffffffff1673ffffffffffffffffffffffffffffffffffffffff16815260200190815260200160002060006101000a81548160ff0219169083151502179055508173ffffffffffffffffffffffffffffffffffffffff166128d56134e4565b73ffffffffffffffffffffffffffffffffffffffff167f17307eab39ab6107e8899845ad3d59bd9653f200f220920489ca2b5937696c318360405161291a9190614d2a565b60405180910390a35050565b3373ffffffffffffffffffffffffffffffffffffffff16600660009054906101000a900473ffffffffffffffffffffffffffffffffffffffff1673ffffffffffffffffffffffffffffffffffffffff16146129b6576040517f08c379a00000000000000000000000000000000000000000000000000000000081526004016129ad90614e6e565b60405180910390fd5b80601660006101000a81548173ffffffffffffffffffffffffffffffffffffffff021916908373ffffffffffffffffffffffffffffffffffffffff16021790555050565b600030905090565b6000806000905060005b601054811015612a735785848244428b604051602001612a30959493929190614bb9565b6040516020818303038152906040528051906020012060001c612a539190615589565b82612a5e9190615278565b91508080612a6b90615512565b915050612a0c565b600060105483612a8391906152ce565b90508581612a919190615278565b9350505050949350505050565b3373ffffffffffffffffffffffffffffffffffffffff16600660009054906101000a900473ffffffffffffffffffffffffffffffffffffffff1673ffffffffffffffffffffffffffffffffffffffff1614612b2e576040517f08c379a0000000000000000000000000000000000000000000000000000000008152600401612b2590614e6e565b60405180910390fd5b8360098190555082600a8190555081600b819055508060118190555050505050565b60003373ffffffffffffffffffffffffffffffffffffffff16600660009054906101000a900473ffffffffffffffffffffffffffffffffffffffff1673ffffffffffffffffffffffffffffffffffffffff161415612bb15760019050612bb6565b600090505b90565b612bca612bc46134e4565b836135a5565b612c09576040517f08c379a0000000000000000000000000000000000000000000000000000000008152600401612c009061502e565b60405180910390fd5b612c15848484846138fd565b50505050565b6000601854905090565b612c2d613ea9565b60196000838152602001908152602001600020604051806101400160405290816000820154815260200160018201548152602001600282015481526020016003820154815260200160048201548152602001600582015481526020016006820154815260200160078201548152602001600882015481526020016009820154815250509050919050565b6060612cc282613478565b612d01576040517f08c379a0000000000000000000000000000000000000000000000000000000008152600401612cf890614fee565b60405180910390fd5b6000612d0b613959565b90506000815111612d2b5760405180602001604052806000815250612d56565b80612d3584613970565b604051602001612d46929190614b47565b6040516020818303038152906040525b915050919050565b600060185482612d6e9190615278565b9050919050565b600080600080600954600a54600b54601154935093509350935090919293565b601560009054906101000a900473ffffffffffffffffffffffffffffffffffffffff1681565b6000600560008473ffffffffffffffffffffffffffffffffffffffff1673ffffffffffffffffffffffffffffffffffffffff16815260200190815260200160002060008373ffffffffffffffffffffffffffffffffffffffff1673ffffffffffffffffffffffffffffffffffffffff16815260200190815260200160002060009054906101000a900460ff16905092915050565b3373ffffffffffffffffffffffffffffffffffffffff16600660009054906101000a900473ffffffffffffffffffffffffffffffffffffffff1673ffffffffffffffffffffffffffffffffffffffff1614612edf576040517f08c379a0000000000000000000000000000000000000000000000000000000008152600401612ed690614e6e565b60405180910390fd5b8173ffffffffffffffffffffffffffffffffffffffff166108fc829081150290604051600060405180830381858888f19350505050158015612f25573d6000803e3d6000fd5b505050565b3373ffffffffffffffffffffffffffffffffffffffff16600860009054906101000a900473ffffffffffffffffffffffffffffffffffffffff1673ffffffffffffffffffffffffffffffffffffffff1614612fba576040517f08c379a0000000000000000000000000000000000000000000000000000000008152600401612fb190614e8e565b60405180910390fd5b8073ffffffffffffffffffffffffffffffffffffffff16612fda84611b94565b73ffffffffffffffffffffffffffffffffffffffff1614613030576040517f08c379a00000000000000000000000000000000000000000000000000000000081526004016130279061506e565b60405180910390fd5b60636019600085815260200190815260200160002060000154111561308a576040517f08c379a00000000000000000000000000000000000000000000000000000000081526004016130819061504e565b60405180910390fd5b8160196000858152602001908152602001600020600001546130ac9190615278565b6019600085815260200190815260200160002060000181905550505050565b3373ffffffffffffffffffffffffffffffffffffffff16600860009054906101000a900473ffffffffffffffffffffffffffffffffffffffff1673ffffffffffffffffffffffffffffffffffffffff161461315b576040517f08c379a000000000000000000000000000000000000000000000000000000000815260040161315290614e8e565b60405180910390fd5b8073ffffffffffffffffffffffffffffffffffffffff1661317b84611b94565b73ffffffffffffffffffffffffffffffffffffffff16146131d1576040517f08c379a00000000000000000000000000000000000000000000000000000000081526004016131c89061506e565b60405180910390fd5b60636019600085815260200190815260200160002060010154111561322b576040517f08c379a000000000000000000000000000000000000000000000000000000000815260040161322290614f0e565b60405180910390fd5b81601960008581526020019081526020016000206001015461324d9190615278565b6019600085815260200190815260200160002060010181905550505050565b60006019600083815260200190815260200160002060080154141561329057600080fd5b6000601960008381526020019081526020016000206008015490506000601960008481526020019081526020016000206007018190555060006019600084815260200190815260200160002060080181905550601460009054906101000a900473ffffffffffffffffffffffffffffffffffffffff1673ffffffffffffffffffffffffffffffffffffffff16634391d2b133836040518363ffffffff1660e01b8152600401613340929190614cdf565b600060405180830381600087803b15801561335a57600080fd5b505af115801561336e573d6000803e3d6000fd5b505050505050565b60003373ffffffffffffffffffffffffffffffffffffffff16600660009054906101000a900473ffffffffffffffffffffffffffffffffffffffff1673ffffffffffffffffffffffffffffffffffffffff1614613408576040517f08c379a00000000000000000000000000000000000000000000000000000000081526004016133ff90614e6e565b60405180910390fd5b47905090565b60007f01ffc9a7000000000000000000000000000000000000000000000000000000007bffffffffffffffffffffffffffffffffffffffffffffffffffffffff1916827bffffffffffffffffffffffffffffffffffffffffffffffffffffffff1916149050919050565b60008073ffffffffffffffffffffffffffffffffffffffff166002600084815260200190815260200160002060009054906101000a900473ffffffffffffffffffffffffffffffffffffffff1673ffffffffffffffffffffffffffffffffffffffff1614159050919050565b600033905090565b816004600083815260200190815260200160002060006101000a81548173ffffffffffffffffffffffffffffffffffffffff021916908373ffffffffffffffffffffffffffffffffffffffff160217905550808273ffffffffffffffffffffffffffffffffffffffff1661355f83611b94565b73ffffffffffffffffffffffffffffffffffffffff167f8c5be1e5ebec7d5bd14f71427d1e84f3dd0314c0f7b2291e5b200ac8c7c3b92560405160405180910390a45050565b60006135b082613478565b6135ef576040517f08c379a00000000000000000000000000000000000000000000000000000000081526004016135e690614eee565b60405180910390fd5b60006135fa83611b94565b90508073ffffffffffffffffffffffffffffffffffffffff168473ffffffffffffffffffffffffffffffffffffffff16148061366957508373ffffffffffffffffffffffffffffffffffffffff1661365184610a85565b73ffffffffffffffffffffffffffffffffffffffff16145b8061367a57506136798185612dbb565b5b91505092915050565b8273ffffffffffffffffffffffffffffffffffffffff166136a382611b94565b73ffffffffffffffffffffffffffffffffffffffff16146136f9576040517f08c379a00000000000000000000000000000000000000000000000000000000081526004016136f090614fce565b60405180910390fd5b600073ffffffffffffffffffffffffffffffffffffffff168273ffffffffffffffffffffffffffffffffffffffff161415613769576040517f08c379a000000000000000000000000000000000000000000000000000000000815260040161376090614eae565b60405180910390fd5b613774838383613ad1565b61377f6000826134ec565b6001600360008573ffffffffffffffffffffffffffffffffffffffff1673ffffffffffffffffffffffffffffffffffffffff16815260200190815260200160002060008282546137cf91906152ff565b925050819055506001600360008473ffffffffffffffffffffffffffffffffffffffff1673ffffffffffffffffffffffffffffffffffffffff16815260200190815260200160002060008282546138269190615278565b92505081905550816002600083815260200190815260200160002060006101000a81548173ffffffffffffffffffffffffffffffffffffffff021916908373ffffffffffffffffffffffffffffffffffffffff160217905550808273ffffffffffffffffffffffffffffffffffffffff168473ffffffffffffffffffffffffffffffffffffffff167fddf252ad1be2c89b69c2b068fc378daa952ba7f163c4a11628f55a4df523b3ef60405160405180910390a4505050565b6138f9828260405180602001604052806000815250613ad6565b5050565b613908848484613683565b61391484848484613b31565b613953576040517f08c379a000000000000000000000000000000000000000000000000000000000815260040161394a90614e0e565b60405180910390fd5b50505050565b606060405180602001604052806000815250905090565b606060008214156139b8576040518060400160405280600181526020017f30000000000000000000000000000000000000000000000000000000000000008152509050613acc565b600082905060005b600082146139ea5780806139d390615512565b915050600a826139e391906152ce565b91506139c0565b60008167ffffffffffffffff811115613a0657613a05615676565b5b6040519080825280601f01601f191660200182016040528015613a385781602001600182028036833780820191505090505b5090505b60008514613ac557600182613a5191906152ff565b9150600a85613a609190615589565b6030613a6c9190615278565b60f81b818381518110613a8257613a81615647565b5b60200101907effffffffffffffffffffffffffffffffffffffffffffffffffffffffffffff1916908160001a905350600a85613abe91906152ce565b9450613a3c565b8093505050505b919050565b505050565b613ae08383613cc8565b613aed6000848484613b31565b613b2c576040517f08c379a0000000000000000000000000000000000000000000000000000000008152600401613b2390614e0e565b60405180910390fd5b505050565b6000613b528473ffffffffffffffffffffffffffffffffffffffff16613e96565b15613cbb578373ffffffffffffffffffffffffffffffffffffffff1663150b7a02613b7b6134e4565b8786866040518563ffffffff1660e01b8152600401613b9d9493929190614c93565b602060405180830381600087803b158015613bb757600080fd5b505af1925050508015613be857506040513d601f19601f82011682018060405250810190613be59190614353565b60015b613c6b573d8060008114613c18576040519150601f19603f3d011682016040523d82523d6000602084013e613c1d565b606091505b50600081511415613c63576040517f08c379a0000000000000000000000000000000000000000000000000000000008152600401613c5a90614e0e565b60405180910390fd5b805181602001fd5b63150b7a0260e01b7bffffffffffffffffffffffffffffffffffffffffffffffffffffffff1916817bffffffffffffffffffffffffffffffffffffffffffffffffffffffff191614915050613cc0565b600190505b949350505050565b600073ffffffffffffffffffffffffffffffffffffffff168273ffffffffffffffffffffffffffffffffffffffff161415613d38576040517f08c379a0000000000000000000000000000000000000000000000000000000008152600401613d2f90614f8e565b60405180910390fd5b613d4181613478565b15613d81576040517f08c379a0000000000000000000000000000000000000000000000000000000008152600401613d7890614e2e565b60405180910390fd5b613d8d60008383613ad1565b6001600360008473ffffffffffffffffffffffffffffffffffffffff1673ffffffffffffffffffffffffffffffffffffffff1681526020019081526020016000206000828254613ddd9190615278565b92505081905550816002600083815260200190815260200160002060006101000a81548173ffffffffffffffffffffffffffffffffffffffff021916908373ffffffffffffffffffffffffffffffffffffffff160217905550808273ffffffffffffffffffffffffffffffffffffffff16600073ffffffffffffffffffffffffffffffffffffffff167fddf252ad1be2c89b69c2b068fc378daa952ba7f163c4a11628f55a4df523b3ef60405160405180910390a45050565b600080823b905060008111915050919050565b604051806101400160405280600081526020016000815260200160008152602001600081526020016000815260200160008152602001600081526020016000815260200160008152602001600081525090565b6000613f0f613f0a846151cb565b6151a6565b905082815260208101848484011115613f2b57613f2a6156aa565b5b613f3684828561546d565b509392505050565b600081359050613f4d81615bd6565b92915050565b600081359050613f6281615bed565b92915050565b600081359050613f7781615c04565b92915050565b600081519050613f8c81615c04565b92915050565b600081359050613fa181615c1b565b92915050565b600081519050613fb681615c1b565b92915050565b600082601f830112613fd157613fd06156a5565b5b8135613fe1848260208601613efc565b91505092915050565b600081359050613ff981615c32565b92915050565b60008151905061400e81615c32565b92915050565b60006020828403121561402a576140296156b4565b5b600061403884828501613f3e565b91505092915050565b60008060408385031215614058576140576156b4565b5b600061406685828601613f53565b925050602061407785828601613fea565b9150509250929050565b60008060408385031215614098576140976156b4565b5b60006140a685828601613f3e565b92505060206140b785828601613f3e565b9150509250929050565b6000806000606084860312156140da576140d96156b4565b5b60006140e886828701613f3e565b93505060206140f986828701613f3e565b925050604061410a86828701613fea565b9150509250925092565b6000806000806080858703121561412e5761412d6156b4565b5b600061413c87828801613f3e565b945050602061414d87828801613f3e565b935050604061415e87828801613fea565b925050606085013567ffffffffffffffff81111561417f5761417e6156af565b5b61418b87828801613fbc565b91505092959194509250565b600080604083850312156141ae576141ad6156b4565b5b60006141bc85828601613f3e565b92505060206141cd85828601613f68565b9150509250929050565b600080604083850312156141ee576141ed6156b4565b5b60006141fc85828601613f3e565b925050602061420d85828601613fea565b9150509250929050565b60008060008060808587031215614231576142306156b4565b5b600061423f87828801613f3e565b945050602061425087828801613fea565b935050604061426187828801613fea565b925050606061427287828801613fea565b91505092959194509250565b600080600080600060a0868803121561429a576142996156b4565b5b60006142a888828901613f3e565b95505060206142b988828901613fea565b94505060406142ca88828901613fea565b93505060606142db88828901613fea565b92505060806142ec88828901613fea565b9150509295509295909350565b60006020828403121561430f5761430e6156b4565b5b600061431d84828501613f7d565b91505092915050565b60006020828403121561433c5761433b6156b4565b5b600061434a84828501613f92565b91505092915050565b600060208284031215614369576143686156b4565b5b600061437784828501613fa7565b91505092915050565b600060208284031215614396576143956156b4565b5b60006143a484828501613fea565b91505092915050565b6000602082840312156143c3576143c26156b4565b5b60006143d184828501613fff565b91505092915050565b600080604083850312156143f1576143f06156b4565b5b60006143ff85828601613fea565b925050602061441085828601613f3e565b9150509250929050565b60008060408385031215614431576144306156b4565b5b600061443f85828601613fea565b925050602061445085828601613fea565b9150509250929050565b600080600060608486031215614473576144726156b4565b5b600061448186828701613fea565b935050602061449286828701613fea565b92505060406144a386828701613f3e565b9150509250925092565b600080600080608085870312156144c7576144c66156b4565b5b60006144d587828801613fea565b94505060206144e687828801613fea565b93505060406144f787828801613f3e565b925050606061450887828801613fea565b91505092959194509250565b60008060006060848603121561452d5761452c6156b4565b5b600061453b86828701613fea565b935050602061454c86828701613fea565b925050604061455d86828701613fea565b9150509250925092565b60008060008060808587031215614581576145806156b4565b5b600061458f87828801613fea565b94505060206145a087828801613fea565b93505060406145b187828801613fea565b92505060606145c287828801613fea565b91505092959194509250565b60006145da8383614b12565b60208301905092915050565b6145ef81615333565b82525050565b61460661460182615333565b61555b565b82525050565b60006146178261520c565b614621818561523a565b935061462c836151fc565b8060005b8381101561465d57815161464488826145ce565b975061464f8361522d565b925050600181019050614630565b5085935050505092915050565b61467381615357565b82525050565b600061468482615217565b61468e818561524b565b935061469e81856020860161547c565b6146a7816156b9565b840191505092915050565b6146bb816153b9565b82525050565b6146ca816153dd565b82525050565b6146d981615401565b82525050565b6146e881615425565b82525050565b6146f781615449565b82525050565b600061470882615222565b614712818561525c565b935061472281856020860161547c565b61472b816156b9565b840191505092915050565b600061474182615222565b61474b818561526d565b935061475b81856020860161547c565b80840191505092915050565b600061477460028361525c565b915061477f826156d7565b602082019050919050565b600061479760328361525c565b91506147a282615700565b604082019050919050565b60006147ba601c8361525c565b91506147c58261574f565b602082019050919050565b60006147dd60028361525c565b91506147e882615778565b602082019050919050565b600061480060028361525c565b915061480b826157a1565b602082019050919050565b600061482360028361525c565b915061482e826157ca565b602082019050919050565b600061484660248361525c565b9150614851826157f3565b604082019050919050565b600061486960198361525c565b915061487482615842565b602082019050919050565b600061488c602c8361525c565b91506148978261586b565b604082019050919050565b60006148af60028361525c565b91506148ba826158ba565b602082019050919050565b60006148d260388361525c565b91506148dd826158e3565b604082019050919050565b60006148f5602a8361525c565b915061490082615932565b604082019050919050565b600061491860298361525c565b915061492382615981565b604082019050919050565b600061493b60208361525c565b9150614946826159d0565b602082019050919050565b600061495e602c8361525c565b9150614969826159f9565b604082019050919050565b600061498160298361525c565b915061498c82615a48565b604082019050919050565b60006149a4602f8361525c565b91506149af82615a97565b604082019050919050565b60006149c760218361525c565b91506149d282615ae6565b604082019050919050565b60006149ea60318361525c565b91506149f582615b35565b604082019050919050565b6000614a0d60028361525c565b9150614a1882615b84565b602082019050919050565b6000614a3060028361525c565b9150614a3b82615bad565b602082019050919050565b61014082016000820151614a5d6000850182614b12565b506020820151614a706020850182614b12565b506040820151614a836040850182614b12565b506060820151614a966060850182614b12565b506080820151614aa96080850182614b12565b5060a0820151614abc60a0850182614b12565b5060c0820151614acf60c0850182614b12565b5060e0820151614ae260e0850182614b12565b50610100820151614af7610100850182614b12565b50610120820151614b0c610120850182614b12565b50505050565b614b1b816153af565b82525050565b614b2a816153af565b82525050565b614b41614b3c826153af565b61557f565b82525050565b6000614b538285614736565b9150614b5f8284614736565b91508190509392505050565b6000614b778287614b30565b602082019150614b878286614b30565b602082019150614b9782856145f5565b601482019150614ba78284614b30565b60208201915081905095945050505050565b6000614bc58288614b30565b602082019150614bd58287614b30565b602082019150614be58286614b30565b602082019150614bf58285614b30565b602082019150614c0582846145f5565b6014820191508190509695505050505050565b6000602082019050614c2d60008301846145e6565b92915050565b6000604082019050614c4860008301856145e6565b614c5560208301846145e6565b9392505050565b6000606082019050614c7160008301866145e6565b614c7e60208301856145e6565b614c8b6040830184614b21565b949350505050565b6000608082019050614ca860008301876145e6565b614cb560208301866145e6565b614cc26040830185614b21565b8181036060830152614cd48184614679565b905095945050505050565b6000604082019050614cf460008301856145e6565b614d016020830184614b21565b9392505050565b60006020820190508181036000830152614d22818461460c565b905092915050565b6000602082019050614d3f600083018461466a565b92915050565b6000602082019050614d5a60008301846146b2565b92915050565b6000602082019050614d7560008301846146c1565b92915050565b6000602082019050614d9060008301846146d0565b92915050565b6000602082019050614dab60008301846146df565b92915050565b6000602082019050614dc660008301846146ee565b92915050565b60006020820190508181036000830152614de681846146fd565b905092915050565b60006020820190508181036000830152614e0781614767565b9050919050565b60006020820190508181036000830152614e278161478a565b9050919050565b60006020820190508181036000830152614e47816147ad565b9050919050565b60006020820190508181036000830152614e67816147d0565b9050919050565b60006020820190508181036000830152614e87816147f3565b9050919050565b60006020820190508181036000830152614ea781614816565b9050919050565b60006020820190508181036000830152614ec781614839565b9050919050565b60006020820190508181036000830152614ee78161485c565b9050919050565b60006020820190508181036000830152614f078161487f565b9050919050565b60006020820190508181036000830152614f27816148a2565b9050919050565b60006020820190508181036000830152614f47816148c5565b9050919050565b60006020820190508181036000830152614f67816148e8565b9050919050565b60006020820190508181036000830152614f878161490b565b9050919050565b60006020820190508181036000830152614fa78161492e565b9050919050565b60006020820190508181036000830152614fc781614951565b9050919050565b60006020820190508181036000830152614fe781614974565b9050919050565b6000602082019050818103600083015261500781614997565b9050919050565b60006020820190508181036000830152615027816149ba565b9050919050565b60006020820190508181036000830152615047816149dd565b9050919050565b6000602082019050818103600083015261506781614a00565b9050919050565b6000602082019050818103600083015261508781614a23565b9050919050565b6000610140820190506150a46000830184614a46565b92915050565b60006020820190506150bf6000830184614b21565b92915050565b60006080820190506150da6000830187614b21565b6150e76020830186614b21565b6150f46040830185614b21565b6151016060830184614b21565b95945050505050565b600061014082019050615120600083018d614b21565b61512d602083018c614b21565b61513a604083018b614b21565b615147606083018a614b21565b6151546080830189614b21565b61516160a0830188614b21565b61516e60c0830187614b21565b61517b60e0830186614b21565b615189610100830185614b21565b615197610120830184614b21565b9b9a5050505050505050505050565b60006151b06151c1565b90506151bc82826154e1565b919050565b6000604051905090565b600067ffffffffffffffff8211156151e6576151e5615676565b5b6151ef826156b9565b9050602081019050919050565b6000819050602082019050919050565b600081519050919050565b600081519050919050565b600081519050919050565b6000602082019050919050565b600082825260208201905092915050565b600082825260208201905092915050565b600082825260208201905092915050565b600081905092915050565b6000615283826153af565b915061528e836153af565b9250827fffffffffffffffffffffffffffffffffffffffffffffffffffffffffffffffff038211156152c3576152c26155ba565b5b828201905092915050565b60006152d9826153af565b91506152e4836153af565b9250826152f4576152f36155e9565b5b828204905092915050565b600061530a826153af565b9150615315836153af565b925082821015615328576153276155ba565b5b828203905092915050565b600061533e8261538f565b9050919050565b60006153508261538f565b9050919050565b60008115159050919050565b60007fffffffff0000000000000000000000000000000000000000000000000000000082169050919050565b600073ffffffffffffffffffffffffffffffffffffffff82169050919050565b6000819050919050565b60006153c4826153cb565b9050919050565b60006153d68261538f565b9050919050565b60006153e8826153ef565b9050919050565b60006153fa8261538f565b9050919050565b600061540c82615413565b9050919050565b600061541e8261538f565b9050919050565b600061543082615437565b9050919050565b60006154428261538f565b9050919050565b60006154548261545b565b9050919050565b60006154668261538f565b9050919050565b82818337600083830152505050565b60005b8381101561549a57808201518184015260208101905061547f565b838111156154a9576000848401525b50505050565b600060028204905060018216806154c757607f821691505b602082108114156154db576154da615618565b5b50919050565b6154ea826156b9565b810181811067ffffffffffffffff8211171561550957615508615676565b5b80604052505050565b600061551d826153af565b91507fffffffffffffffffffffffffffffffffffffffffffffffffffffffffffffffff8214156155505761554f6155ba565b5b600182019050919050565b60006155668261556d565b9050919050565b6000615578826156ca565b9050919050565b6000819050919050565b6000615594826153af565b915061559f836153af565b9250826155af576155ae6155e9565b5b828206905092915050565b7f4e487b7100000000000000000000000000000000000000000000000000000000600052601160045260246000fd5b7f4e487b7100000000000000000000000000000000000000000000000000000000600052601260045260246000fd5b7f4e487b7100000000000000000000000000000000000000000000000000000000600052602260045260246000fd5b7f4e487b7100000000000000000000000000000000000000000000000000000000600052603260045260246000fd5b7f4e487b7100000000000000000000000000000000000000000000000000000000600052604160045260246000fd5b600080fd5b600080fd5b600080fd5b600080fd5b6000601f19601f8301169050919050565b60008160601b9050919050565b7f4231000000000000000000000000000000000000000000000000000000000000600082015250565b7f4552433732313a207472616e7366657220746f206e6f6e20455243373231526560008201527f63656976657220696d706c656d656e7465720000000000000000000000000000602082015250565b7f4552433732313a20746f6b656e20616c7265616479206d696e74656400000000600082015250565b7f5431000000000000000000000000000000000000000000000000000000000000600082015250565b7f4131000000000000000000000000000000000000000000000000000000000000600082015250565b7f5831000000000000000000000000000000000000000000000000000000000000600082015250565b7f4552433732313a207472616e7366657220746f20746865207a65726f2061646460008201527f7265737300000000000000000000000000000000000000000000000000000000602082015250565b7f4552433732313a20617070726f766520746f2063616c6c657200000000000000600082015250565b7f4552433732313a206f70657261746f7220717565727920666f72206e6f6e657860008201527f697374656e7420746f6b656e0000000000000000000000000000000000000000602082015250565b7f5332000000000000000000000000000000000000000000000000000000000000600082015250565b7f4552433732313a20617070726f76652063616c6c6572206973206e6f74206f7760008201527f6e6572206e6f7220617070726f76656420666f7220616c6c0000000000000000602082015250565b7f4552433732313a2062616c616e636520717565727920666f7220746865207a6560008201527f726f206164647265737300000000000000000000000000000000000000000000602082015250565b7f4552433732313a206f776e657220717565727920666f72206e6f6e657869737460008201527f656e7420746f6b656e0000000000000000000000000000000000000000000000602082015250565b7f4552433732313a206d696e7420746f20746865207a65726f2061646472657373600082015250565b7f4552433732313a20617070726f76656420717565727920666f72206e6f6e657860008201527f697374656e7420746f6b656e0000000000000000000000000000000000000000602082015250565b7f4552433732313a207472616e73666572206f6620746f6b656e2074686174206960008201527f73206e6f74206f776e0000000000000000000000000000000000000000000000602082015250565b7f4552433732314d657461646174613a2055524920717565727920666f72206e6f60008201527f6e6578697374656e7420746f6b656e0000000000000000000000000000000000602082015250565b7f4552433732313a20617070726f76616c20746f2063757272656e74206f776e6560008201527f7200000000000000000000000000000000000000000000000000000000000000602082015250565b7f4552433732313a207472616e736665722063616c6c6572206973206e6f74206f60008201527f776e6572206e6f7220617070726f766564000000000000000000000000000000602082015250565b7f5331000000000000000000000000000000000000000000000000000000000000600082015250565b7f4f31000000000000000000000000000000000000000000000000000000000000600082015250565b615bdf81615333565b8114615bea57600080fd5b50565b615bf681615345565b8114615c0157600080fd5b50565b615c0d81615357565b8114615c1857600080fd5b50565b615c2481615363565b8114615c2f57600080fd5b50565b615c3b816153af565b8114615c4657600080fd5b5056fea26469706673582212204ce22a56aa0338158e28000c674ee92b5c78534b8eb64746ce2d198ceeff51b564736f6c63430008060033",
  "immutableReferences": {},
  "source": "// SPDX-License-Identifier: MIT\r\npragma solidity >=0.4.22 <0.9.0;\r\nimport \"../node_modules/@openzeppelin/contracts/token/ERC20/IERC20.sol\";\r\nimport \"../node_modules/@openzeppelin/contracts/token/ERC721/ERC721.sol\";\r\nimport \"../contracts/PBTeams.sol\";\r\nimport \"../contracts/PBProShopFactory.sol\";\r\nimport \"../contracts/PBPlayerMarketplace.sol\";\r\nimport \"../contracts/PBXP.sol\";\r\n\r\ncontract PBPlayers is ERC721 {\r\n\r\n    address admin;\r\n    address pbTeamsAddress;\r\n    address pbxpAddress;\r\n    uint mintCost1;\r\n    uint mintCost2;\r\n    uint mintCost3;\r\n    address marketplaceAddress;\r\n    address proshopAddress;\r\n    uint dnaDigits = 30;\r\n    uint dnaModulus = 10 ** dnaDigits;\r\n    uint bellCurveIterations = 4;\r\n    uint ageoutSeconds;\r\n    uint currentEdition = 1;\r\n    \r\n    IERC20 public buddies;\r\n    PBProShopFactory public pbProShopFactory;\r\n    PBTeams public pbTeams;\r\n    PBPlayerMarketplace public pbPlayerMarketplace;\r\n    PBXP public pbxp;\r\n    \r\n\r\n    struct Player{\r\n        uint offence;\r\n        uint defence;\r\n        uint dna;\r\n        uint playertype;\r\n        uint mainColor;\r\n        uint ageoutTimestamp;\r\n        uint draftTimestamp;\r\n        uint equippedJersey;\r\n        uint equippedToken;\r\n        uint edition;\r\n        \r\n    }\r\n\r\n    uint nextId = 0;\r\n\r\n    event newSuperstar(uint tokenId);\r\n\r\n\r\n    mapping (uint => Player ) public _tokenDetails;\r\n\r\n    constructor(address _buddiesCoinAddress, uint _mintCost1, uint _mintCost2, uint _mintCost3, uint _ageoutSeconds) ERC721(\"Pixel Puck Player\", \"PPP\"){\r\n        admin = msg.sender;\r\n        buddies = IERC20(_buddiesCoinAddress);\r\n        mintCost1 = _mintCost1;\r\n        mintCost2 = _mintCost2;\r\n        mintCost3 = _mintCost3;\r\n        ageoutSeconds = _ageoutSeconds;\r\n    }\r\n\r\n    modifier onlyAdmin() {\r\n        require(admin == msg.sender, \"A1\" );\r\n        _;\r\n    }\r\n\r\n    modifier onlyTeams() {\r\n        require(pbTeamsAddress == msg.sender, \"T1\" );\r\n        _;\r\n    }\r\n\r\n    modifier onlyPBXP() {\r\n        require(pbxpAddress == msg.sender, \"X1\" );\r\n        _;\r\n    }\r\n\r\n    function isAdmin() public view returns (bool){\r\n        if(admin == msg.sender){\r\n            return true;\r\n        } else return false;\r\n    }\r\n\r\n    function getPBPlayersAddress() public view returns(address){\r\n        return address(this);\r\n    }\r\n    \r\n    function updateBuddiesCoinAddress(address _buddiesCoinAddress) onlyAdmin external {\r\n        buddies = IERC20(_buddiesCoinAddress);\r\n    }\r\n\r\n    function updatePBTeamsAddress(address _pbTeamsAddress) external onlyAdmin {\r\n        pbTeams = PBTeams(_pbTeamsAddress);\r\n        pbTeamsAddress = _pbTeamsAddress;\r\n    }\r\n\r\n    function updatePBProShopFactoryAddress(address _proshopAddress) external onlyAdmin {\r\n        pbProShopFactory = PBProShopFactory(_proshopAddress);\r\n    }\r\n\r\n    function updatePBPlayerMarketplaceAddress(address _pbPlayerMarketplaceAddress) external onlyAdmin {\r\n        pbPlayerMarketplace = PBPlayerMarketplace(_pbPlayerMarketplaceAddress);\r\n    }\r\n\r\n    function updatePBXPaddress(address _pbxpAddress) external onlyAdmin {\r\n        pbxp = PBXP(_pbxpAddress);\r\n        pbxpAddress = _pbxpAddress;\r\n    }\r\n\r\n    function updateVariables(uint _mintCost1, uint _mintCost2, uint _mintCost3, uint _ageoutSeconds) external onlyAdmin {\r\n        mintCost1 = _mintCost1;\r\n        mintCost2 = _mintCost2;\r\n        mintCost3 = _mintCost3;\r\n        ageoutSeconds = _ageoutSeconds;\r\n    }\r\n\r\n    function getMintingCosts() public view returns (uint, uint, uint, uint){\r\n            return (mintCost1, mintCost2, mintCost3, ageoutSeconds);\r\n    }\r\n\r\n    function getNextId() public view returns (uint){\r\n        return nextId;\r\n    }\r\n\r\n    function getTokenDetails(uint tokenId) public view returns (Player memory){\r\n        return _tokenDetails[tokenId];\r\n    }\r\n\r\n    function mintPlayer(uint value, uint playerType) external {\r\n        if(nextId == 0){\r\n            require(msg.sender == admin, \"A1\");\r\n        }\r\n        uint allowance = buddies.allowance(msg.sender, address(this));\r\n        require(allowance >= value, \"B1\");\r\n        buddies.transferFrom(msg.sender, address(this), value);\r\n        if(playerType == 1){\r\n            _tokenDetails[nextId] = Player(_generateRandAtrrib(msg.sender, 50, 50, _randHelper(1)), _generateRandAtrrib(msg.sender, 50, 0, _randHelper(2)), _generateRandDna(msg.sender, _randHelper(1)), playerType,0,block.timestamp + ageoutSeconds,block.timestamp,0,0, currentEdition);\r\n        }else if(playerType == 2){\r\n             _tokenDetails[nextId] = Player(_generateRandAtrrib(msg.sender, 50, 0, _randHelper(3)), _generateRandAtrrib(msg.sender, 50, 50, _randHelper(4)), _generateRandDna(msg.sender, _randHelper(3)), playerType,0,block.timestamp + ageoutSeconds,block.timestamp,0,0, currentEdition);\r\n        }else if (playerType == 3){\r\n             _tokenDetails[nextId] = Player(0, _generateRandAtrrib(msg.sender, 25, 75, _randHelper(5)), _generateRandDna(msg.sender, _randHelper(5)), playerType,0,block.timestamp + ageoutSeconds,block.timestamp,0,0, currentEdition);\r\n        } \r\n        _safeMint(msg.sender, nextId);\r\n        setApprovalForAll(marketplaceAddress, true);\r\n        nextId++;\r\n    }\r\n\r\n     function mintSixPackPlayer(uint _op, uint _dp, address minter, uint playerType) public onlyTeams returns (uint) {\r\n        if(nextId == 0){\r\n            require(msg.sender == admin, \"A1\");\r\n        }\r\n        uint currentId = nextId;\r\n        if(playerType == 1) {\r\n            _tokenDetails[currentId] = Player(_op,_dp, _generateRandDna(minter, _randHelper(1)), playerType,0,block.timestamp + ageoutSeconds,block.timestamp,0,0, currentEdition);\r\n        } else if (playerType == 2){\r\n            _tokenDetails[currentId] = Player(_op,_dp, _generateRandDna(minter, _randHelper(3)), playerType,0,block.timestamp + ageoutSeconds,block.timestamp,0,0, currentEdition);\r\n        } else if (playerType == 3) {\r\n            _tokenDetails[currentId] = Player(_op,_dp, _generateRandDna(minter, _randHelper(5)), playerType,0,block.timestamp + ageoutSeconds,block.timestamp,0,0, currentEdition);\r\n        }        \r\n        _safeMint(minter, currentId);\r\n        setApprovalForAll(marketplaceAddress, true);\r\n        nextId++;\r\n        return (currentId);\r\n    }\r\n\r\n    function _randHelper(uint a) public view returns (uint){\r\n        return a + nextId;\r\n    }\r\n\r\n    function mintSuperstar(address playerOwner, uint opScore, uint dpScore, uint dna, uint playerType) external onlyAdmin {\r\n        if(playerType == 1){\r\n            _tokenDetails[nextId] = Player(opScore, dpScore, dna, playerType,0,block.timestamp + ageoutSeconds,block.timestamp,0,0, currentEdition);\r\n        }else if(playerType == 2){\r\n            _tokenDetails[nextId] = Player(opScore, dpScore, dna, playerType,0,block.timestamp + ageoutSeconds,block.timestamp,0,0, currentEdition);\r\n        }else if(playerType == 3){\r\n            _tokenDetails[nextId] = Player(opScore, dpScore, dna, playerType,0,block.timestamp + ageoutSeconds,block.timestamp,0,0, currentEdition);\r\n        }\r\n        _safeMint(playerOwner, nextId);\r\n        setApprovalForAll(marketplaceAddress, true);\r\n        nextId++;\r\n        emit newSuperstar(nextId-1);\r\n    }\r\n\r\n    function getAllTokensForUser(address user) public view returns (uint256[] memory){\r\n        uint256 tokenCount = balanceOf(user);\r\n        if(tokenCount == 0){\r\n            return new uint256[](0);\r\n        }\r\n        else{\r\n            uint[] memory result = new uint256[](tokenCount);\r\n            uint256 totalPlayers = nextId;\r\n            uint256 resultIndex = 0;\r\n            uint256 i;\r\n            for(i = 0; i < totalPlayers; i++){\r\n                if(ownerOf(i) == user){\r\n                    result[resultIndex] = i;\r\n                    resultIndex++;\r\n                }\r\n                \r\n            }\r\n            return result;\r\n        }\r\n    }\r\n\r\n    function giftPlayer(uint tokenId, address newOwner) public {\r\n        require (ownerOf(tokenId) == msg.sender);\r\n        safeTransferFrom(msg.sender, newOwner, tokenId, \"\");\r\n    }\r\n\r\n    function updateEquipment(uint token, uint sku, uint playerid) public {\r\n        uint tokenBalance = pbProShopFactory.balanceOf(msg.sender, token);\r\n        require(tokenBalance >= 1);\r\n        _tokenDetails[playerid].equippedJersey = sku;\r\n        _tokenDetails[playerid].equippedToken = token;     \r\n        pbProShopFactory.burnOnEquip(msg.sender, token);\r\n    }\r\n\r\n    function removeEquipment(uint playerid) public {\r\n        require(_tokenDetails[playerid].equippedToken != 0);\r\n        uint returnToken;\r\n        returnToken = _tokenDetails[playerid].equippedToken;\r\n        _tokenDetails[playerid].equippedJersey = 0;\r\n        _tokenDetails[playerid].equippedToken = 0;\r\n        pbProShopFactory.mintOnUnequip(msg.sender, returnToken);\r\n    }\r\n\r\n    function addOp(uint tokenId, uint qty, address owner) public onlyPBXP {\r\n        require(ownerOf(tokenId) == owner, \"O1\");\r\n        require(_tokenDetails[tokenId].offence <= 99, \"S1\");\r\n       _tokenDetails[tokenId].offence = _tokenDetails[tokenId].offence + qty;\r\n    }\r\n\r\n    function addDp(uint tokenId, uint qty, address owner) public onlyPBXP {\r\n        require(ownerOf(tokenId) == owner, \"O1\");\r\n        require(_tokenDetails[tokenId].defence <= 99, \"S2\");\r\n       _tokenDetails[tokenId].defence = _tokenDetails[tokenId].defence + qty;\r\n    }\r\n\r\n    function _generateRandDna (address sender, uint randHelper) public view returns (uint){\r\n        uint rand = uint(keccak256(abi.encodePacked(block.timestamp, block.difficulty, sender, randHelper)));\r\n        return rand % dnaModulus;\r\n    }\r\n\r\n    function _generateRandAtrrib (address sender, uint mod, uint base, uint randHelper) public view returns (uint){\r\n        uint operator = 0;\r\n        uint i;\r\n        for( i = 0; i < bellCurveIterations; i++) {\r\n            operator = operator + (uint(keccak256(abi.encodePacked(randHelper, i, block.difficulty, block.timestamp, sender))) % mod);\r\n        }\r\n        uint primaryAttrib = operator/bellCurveIterations;\r\n        return primaryAttrib + base;\r\n    }\r\n\r\n    function getCurrentEdition() external view returns (uint) {\r\n        return currentEdition;\r\n    }\r\n\r\n    function updateCurrentEdition(uint _edition) external onlyAdmin {\r\n        currentEdition =  _edition;\r\n    }\r\n\r\n    function getBNBBalance() external view onlyAdmin returns (uint) {\r\n        return address(this).balance;\r\n    }\r\n    \r\n    function getBudsBalance() external view returns (uint) {\r\n        return buddies.balanceOf(address(this));\r\n    }\r\n\r\n    function transferBNB(address payable _to, uint _amount) external onlyAdmin {\r\n        _to.transfer(_amount);\r\n    }\r\n\r\n    function transferBUDS(uint _amount) external onlyAdmin {\r\n        buddies.transfer(msg.sender, _amount);\r\n    }\r\n\r\n}\r\n",
  "sourcePath": "O:\\Projects\\puck-buddies\\contracts\\PBPlayers.sol",
  "compiler": {
    "name": "solc",
    "version": "0.8.6+commit.11564f7e.Emscripten.clang"
  },
  "schemaVersion": "3.4.3",
  "updatedAt": "2022-01-07T21:58:19.651Z",
  "networkType": "ethereum",
  "devdoc": {
    "kind": "dev",
    "methods": {
      "approve(address,uint256)": {
        "details": "See {IERC721-approve}."
      },
      "balanceOf(address)": {
        "details": "See {IERC721-balanceOf}."
      },
      "getApproved(uint256)": {
        "details": "See {IERC721-getApproved}."
      },
      "isApprovedForAll(address,address)": {
        "details": "See {IERC721-isApprovedForAll}."
      },
      "name()": {
        "details": "See {IERC721Metadata-name}."
      },
      "ownerOf(uint256)": {
        "details": "See {IERC721-ownerOf}."
      },
      "safeTransferFrom(address,address,uint256)": {
        "details": "See {IERC721-safeTransferFrom}."
      },
      "safeTransferFrom(address,address,uint256,bytes)": {
        "details": "See {IERC721-safeTransferFrom}."
      },
      "setApprovalForAll(address,bool)": {
        "details": "See {IERC721-setApprovalForAll}."
      },
      "supportsInterface(bytes4)": {
        "details": "See {IERC165-supportsInterface}."
      },
      "symbol()": {
        "details": "See {IERC721Metadata-symbol}."
      },
      "tokenURI(uint256)": {
        "details": "See {IERC721Metadata-tokenURI}."
      },
      "transferFrom(address,address,uint256)": {
        "details": "See {IERC721-transferFrom}."
      }
    },
    "version": 1
  },
  "userdoc": {
    "kind": "user",
    "methods": {},
    "version": 1
  }
}