{
  "contractName": "PBPlayers",
  "abi": [
    {
      "inputs": [
        {
          "internalType": "address",
          "name": "_buddiesCoinAddress",
          "type": "address"
        },
        {
          "internalType": "uint256",
          "name": "_mintCost1",
          "type": "uint256"
        },
        {
          "internalType": "uint256",
          "name": "_mintCost2",
          "type": "uint256"
        },
        {
          "internalType": "uint256",
          "name": "_mintCost3",
          "type": "uint256"
        },
        {
          "internalType": "uint256",
          "name": "_ageoutSeconds",
          "type": "uint256"
        }
      ],
      "stateMutability": "nonpayable",
      "type": "constructor"
    },
    {
      "anonymous": false,
      "inputs": [
        {
          "indexed": true,
          "internalType": "address",
          "name": "owner",
          "type": "address"
        },
        {
          "indexed": true,
          "internalType": "address",
          "name": "approved",
          "type": "address"
        },
        {
          "indexed": true,
          "internalType": "uint256",
          "name": "tokenId",
          "type": "uint256"
        }
      ],
      "name": "Approval",
      "type": "event"
    },
    {
      "anonymous": false,
      "inputs": [
        {
          "indexed": true,
          "internalType": "address",
          "name": "owner",
          "type": "address"
        },
        {
          "indexed": true,
          "internalType": "address",
          "name": "operator",
          "type": "address"
        },
        {
          "indexed": false,
          "internalType": "bool",
          "name": "approved",
          "type": "bool"
        }
      ],
      "name": "ApprovalForAll",
      "type": "event"
    },
    {
      "anonymous": false,
      "inputs": [
        {
          "indexed": true,
          "internalType": "address",
          "name": "from",
          "type": "address"
        },
        {
          "indexed": true,
          "internalType": "address",
          "name": "to",
          "type": "address"
        },
        {
          "indexed": true,
          "internalType": "uint256",
          "name": "tokenId",
          "type": "uint256"
        }
      ],
      "name": "Transfer",
      "type": "event"
    },
    {
      "anonymous": false,
      "inputs": [
        {
          "indexed": false,
          "internalType": "uint256",
          "name": "tokenId",
          "type": "uint256"
        }
      ],
      "name": "newSuperstar",
      "type": "event"
    },
    {
      "inputs": [
        {
          "internalType": "uint256",
          "name": "",
          "type": "uint256"
        }
      ],
      "name": "_tokenDetails",
      "outputs": [
        {
          "internalType": "uint256",
          "name": "offence",
          "type": "uint256"
        },
        {
          "internalType": "uint256",
          "name": "defence",
          "type": "uint256"
        },
        {
          "internalType": "uint256",
          "name": "dna",
          "type": "uint256"
        },
        {
          "internalType": "uint256",
          "name": "playertype",
          "type": "uint256"
        },
        {
          "internalType": "uint256",
          "name": "teamId",
          "type": "uint256"
        },
        {
          "internalType": "uint256",
          "name": "teamDna",
          "type": "uint256"
        },
        {
          "internalType": "uint256",
          "name": "position",
          "type": "uint256"
        },
        {
          "internalType": "uint256",
          "name": "mainColor",
          "type": "uint256"
        },
        {
          "internalType": "uint256",
          "name": "ageoutTimestamp",
          "type": "uint256"
        },
        {
          "internalType": "uint256",
          "name": "draftTimestamp",
          "type": "uint256"
        },
        {
          "internalType": "uint256",
          "name": "equippedJersey",
          "type": "uint256"
        },
        {
          "internalType": "uint256",
          "name": "equippedToken",
          "type": "uint256"
        }
      ],
      "stateMutability": "view",
      "type": "function",
      "constant": true
    },
    {
      "inputs": [
        {
          "internalType": "address",
          "name": "to",
          "type": "address"
        },
        {
          "internalType": "uint256",
          "name": "tokenId",
          "type": "uint256"
        }
      ],
      "name": "approve",
      "outputs": [],
      "stateMutability": "nonpayable",
      "type": "function"
    },
    {
      "inputs": [
        {
          "internalType": "address",
          "name": "owner",
          "type": "address"
        }
      ],
      "name": "balanceOf",
      "outputs": [
        {
          "internalType": "uint256",
          "name": "",
          "type": "uint256"
        }
      ],
      "stateMutability": "view",
      "type": "function",
      "constant": true
    },
    {
      "inputs": [],
      "name": "buddies",
      "outputs": [
        {
          "internalType": "contract IERC20",
          "name": "",
          "type": "address"
        }
      ],
      "stateMutability": "view",
      "type": "function",
      "constant": true
    },
    {
      "inputs": [
        {
          "internalType": "uint256",
          "name": "tokenId",
          "type": "uint256"
        }
      ],
      "name": "getApproved",
      "outputs": [
        {
          "internalType": "address",
          "name": "",
          "type": "address"
        }
      ],
      "stateMutability": "view",
      "type": "function",
      "constant": true
    },
    {
      "inputs": [
        {
          "internalType": "address",
          "name": "owner",
          "type": "address"
        },
        {
          "internalType": "address",
          "name": "operator",
          "type": "address"
        }
      ],
      "name": "isApprovedForAll",
      "outputs": [
        {
          "internalType": "bool",
          "name": "",
          "type": "bool"
        }
      ],
      "stateMutability": "view",
      "type": "function",
      "constant": true
    },
    {
      "inputs": [],
      "name": "name",
      "outputs": [
        {
          "internalType": "string",
          "name": "",
          "type": "string"
        }
      ],
      "stateMutability": "view",
      "type": "function",
      "constant": true
    },
    {
      "inputs": [
        {
          "internalType": "uint256",
          "name": "tokenId",
          "type": "uint256"
        }
      ],
      "name": "ownerOf",
      "outputs": [
        {
          "internalType": "address",
          "name": "",
          "type": "address"
        }
      ],
      "stateMutability": "view",
      "type": "function",
      "constant": true
    },
    {
      "inputs": [],
      "name": "pbPlayerMarketplace",
      "outputs": [
        {
          "internalType": "contract PBPlayerMarketplace",
          "name": "",
          "type": "address"
        }
      ],
      "stateMutability": "view",
      "type": "function",
      "constant": true
    },
    {
      "inputs": [],
      "name": "pbProShopFactory",
      "outputs": [
        {
          "internalType": "contract PBProShopFactory",
          "name": "",
          "type": "address"
        }
      ],
      "stateMutability": "view",
      "type": "function",
      "constant": true
    },
    {
      "inputs": [],
      "name": "pbTeams",
      "outputs": [
        {
          "internalType": "contract PBTeams",
          "name": "",
          "type": "address"
        }
      ],
      "stateMutability": "view",
      "type": "function",
      "constant": true
    },
    {
      "inputs": [],
      "name": "pbxp",
      "outputs": [
        {
          "internalType": "contract PBXP",
          "name": "",
          "type": "address"
        }
      ],
      "stateMutability": "view",
      "type": "function",
      "constant": true
    },
    {
      "inputs": [
        {
          "internalType": "address",
          "name": "from",
          "type": "address"
        },
        {
          "internalType": "address",
          "name": "to",
          "type": "address"
        },
        {
          "internalType": "uint256",
          "name": "tokenId",
          "type": "uint256"
        }
      ],
      "name": "safeTransferFrom",
      "outputs": [],
      "stateMutability": "nonpayable",
      "type": "function"
    },
    {
      "inputs": [
        {
          "internalType": "address",
          "name": "from",
          "type": "address"
        },
        {
          "internalType": "address",
          "name": "to",
          "type": "address"
        },
        {
          "internalType": "uint256",
          "name": "tokenId",
          "type": "uint256"
        },
        {
          "internalType": "bytes",
          "name": "_data",
          "type": "bytes"
        }
      ],
      "name": "safeTransferFrom",
      "outputs": [],
      "stateMutability": "nonpayable",
      "type": "function"
    },
    {
      "inputs": [
        {
          "internalType": "address",
          "name": "operator",
          "type": "address"
        },
        {
          "internalType": "bool",
          "name": "approved",
          "type": "bool"
        }
      ],
      "name": "setApprovalForAll",
      "outputs": [],
      "stateMutability": "nonpayable",
      "type": "function"
    },
    {
      "inputs": [
        {
          "internalType": "bytes4",
          "name": "interfaceId",
          "type": "bytes4"
        }
      ],
      "name": "supportsInterface",
      "outputs": [
        {
          "internalType": "bool",
          "name": "",
          "type": "bool"
        }
      ],
      "stateMutability": "view",
      "type": "function",
      "constant": true
    },
    {
      "inputs": [],
      "name": "symbol",
      "outputs": [
        {
          "internalType": "string",
          "name": "",
          "type": "string"
        }
      ],
      "stateMutability": "view",
      "type": "function",
      "constant": true
    },
    {
      "inputs": [
        {
          "internalType": "uint256",
          "name": "tokenId",
          "type": "uint256"
        }
      ],
      "name": "tokenURI",
      "outputs": [
        {
          "internalType": "string",
          "name": "",
          "type": "string"
        }
      ],
      "stateMutability": "view",
      "type": "function",
      "constant": true
    },
    {
      "inputs": [
        {
          "internalType": "address",
          "name": "from",
          "type": "address"
        },
        {
          "internalType": "address",
          "name": "to",
          "type": "address"
        },
        {
          "internalType": "uint256",
          "name": "tokenId",
          "type": "uint256"
        }
      ],
      "name": "transferFrom",
      "outputs": [],
      "stateMutability": "nonpayable",
      "type": "function"
    },
    {
      "inputs": [],
      "name": "isAdmin",
      "outputs": [
        {
          "internalType": "bool",
          "name": "",
          "type": "bool"
        }
      ],
      "stateMutability": "view",
      "type": "function",
      "constant": true
    },
    {
      "inputs": [],
      "name": "getPBPlayersAddress",
      "outputs": [
        {
          "internalType": "address",
          "name": "",
          "type": "address"
        }
      ],
      "stateMutability": "view",
      "type": "function",
      "constant": true
    },
    {
      "inputs": [
        {
          "internalType": "address",
          "name": "_buddiesCoinAddress",
          "type": "address"
        }
      ],
      "name": "updateBuddiesCoinAddress",
      "outputs": [],
      "stateMutability": "nonpayable",
      "type": "function"
    },
    {
      "inputs": [
        {
          "internalType": "address",
          "name": "_pbTeamsAddress",
          "type": "address"
        }
      ],
      "name": "updatePBTeamsAddress",
      "outputs": [],
      "stateMutability": "nonpayable",
      "type": "function"
    },
    {
      "inputs": [
        {
          "internalType": "address",
          "name": "_proshopAddress",
          "type": "address"
        }
      ],
      "name": "updatePBProShopFactoryAddress",
      "outputs": [],
      "stateMutability": "nonpayable",
      "type": "function"
    },
    {
      "inputs": [
        {
          "internalType": "address",
          "name": "_pbPlayerMarketplaceAddress",
          "type": "address"
        }
      ],
      "name": "updatePBPlayerMarketplaceAddress",
      "outputs": [],
      "stateMutability": "nonpayable",
      "type": "function"
    },
    {
      "inputs": [
        {
          "internalType": "address",
          "name": "_pbxpAddress",
          "type": "address"
        }
      ],
      "name": "updatePBXPaddress",
      "outputs": [],
      "stateMutability": "nonpayable",
      "type": "function"
    },
    {
      "inputs": [
        {
          "internalType": "uint256",
          "name": "_mintCost1",
          "type": "uint256"
        },
        {
          "internalType": "uint256",
          "name": "_mintCost2",
          "type": "uint256"
        },
        {
          "internalType": "uint256",
          "name": "_mintCost3",
          "type": "uint256"
        },
        {
          "internalType": "uint256",
          "name": "_ageoutSeconds",
          "type": "uint256"
        }
      ],
      "name": "updateVariables",
      "outputs": [],
      "stateMutability": "nonpayable",
      "type": "function"
    },
    {
      "inputs": [],
      "name": "getMintingCosts",
      "outputs": [
        {
          "internalType": "uint256",
          "name": "",
          "type": "uint256"
        },
        {
          "internalType": "uint256",
          "name": "",
          "type": "uint256"
        },
        {
          "internalType": "uint256",
          "name": "",
          "type": "uint256"
        }
      ],
      "stateMutability": "view",
      "type": "function",
      "constant": true
    },
    {
      "inputs": [],
      "name": "getNextId",
      "outputs": [
        {
          "internalType": "uint256",
          "name": "",
          "type": "uint256"
        }
      ],
      "stateMutability": "view",
      "type": "function",
      "constant": true
    },
    {
      "inputs": [
        {
          "internalType": "uint256",
          "name": "tokenId",
          "type": "uint256"
        }
      ],
      "name": "getTokenDetails",
      "outputs": [
        {
          "components": [
            {
              "internalType": "uint256",
              "name": "offence",
              "type": "uint256"
            },
            {
              "internalType": "uint256",
              "name": "defence",
              "type": "uint256"
            },
            {
              "internalType": "uint256",
              "name": "dna",
              "type": "uint256"
            },
            {
              "internalType": "uint256",
              "name": "playertype",
              "type": "uint256"
            },
            {
              "internalType": "uint256",
              "name": "teamId",
              "type": "uint256"
            },
            {
              "internalType": "uint256",
              "name": "teamDna",
              "type": "uint256"
            },
            {
              "internalType": "uint256",
              "name": "position",
              "type": "uint256"
            },
            {
              "internalType": "uint256",
              "name": "mainColor",
              "type": "uint256"
            },
            {
              "internalType": "uint256",
              "name": "ageoutTimestamp",
              "type": "uint256"
            },
            {
              "internalType": "uint256",
              "name": "draftTimestamp",
              "type": "uint256"
            },
            {
              "internalType": "uint256",
              "name": "equippedJersey",
              "type": "uint256"
            },
            {
              "internalType": "uint256",
              "name": "equippedToken",
              "type": "uint256"
            }
          ],
          "internalType": "struct PBPlayers.Player",
          "name": "",
          "type": "tuple"
        }
      ],
      "stateMutability": "view",
      "type": "function",
      "constant": true
    },
    {
      "inputs": [
        {
          "internalType": "uint256",
          "name": "value",
          "type": "uint256"
        },
        {
          "internalType": "uint256",
          "name": "playerType",
          "type": "uint256"
        }
      ],
      "name": "mintPlayer",
      "outputs": [],
      "stateMutability": "nonpayable",
      "type": "function"
    },
    {
      "inputs": [
        {
          "internalType": "uint256",
          "name": "_op",
          "type": "uint256"
        },
        {
          "internalType": "uint256",
          "name": "_dp",
          "type": "uint256"
        },
        {
          "internalType": "address",
          "name": "minter",
          "type": "address"
        },
        {
          "internalType": "uint256",
          "name": "playerType",
          "type": "uint256"
        },
        {
          "internalType": "uint256",
          "name": "teamId",
          "type": "uint256"
        },
        {
          "internalType": "uint256",
          "name": "teamDna",
          "type": "uint256"
        },
        {
          "internalType": "uint256",
          "name": "teamPos",
          "type": "uint256"
        }
      ],
      "name": "mintPlayerToTeam",
      "outputs": [
        {
          "internalType": "uint256",
          "name": "",
          "type": "uint256"
        },
        {
          "internalType": "uint256",
          "name": "",
          "type": "uint256"
        }
      ],
      "stateMutability": "nonpayable",
      "type": "function"
    },
    {
      "inputs": [
        {
          "internalType": "uint256",
          "name": "a",
          "type": "uint256"
        }
      ],
      "name": "_randHelper",
      "outputs": [
        {
          "internalType": "uint256",
          "name": "",
          "type": "uint256"
        }
      ],
      "stateMutability": "view",
      "type": "function",
      "constant": true
    },
    {
      "inputs": [
        {
          "internalType": "address",
          "name": "playerOwner",
          "type": "address"
        },
        {
          "internalType": "uint256",
          "name": "opScore",
          "type": "uint256"
        },
        {
          "internalType": "uint256",
          "name": "dpScore",
          "type": "uint256"
        },
        {
          "internalType": "uint256",
          "name": "dna",
          "type": "uint256"
        },
        {
          "internalType": "uint256",
          "name": "playerType",
          "type": "uint256"
        }
      ],
      "name": "mintSuperstar",
      "outputs": [],
      "stateMutability": "nonpayable",
      "type": "function"
    },
    {
      "inputs": [
        {
          "internalType": "address",
          "name": "user",
          "type": "address"
        }
      ],
      "name": "getAllTokensForUser",
      "outputs": [
        {
          "internalType": "uint256[]",
          "name": "",
          "type": "uint256[]"
        }
      ],
      "stateMutability": "view",
      "type": "function",
      "constant": true
    },
    {
      "inputs": [
        {
          "internalType": "uint256",
          "name": "tokenId",
          "type": "uint256"
        },
        {
          "internalType": "address",
          "name": "newOwner",
          "type": "address"
        }
      ],
      "name": "giftPlayer",
      "outputs": [],
      "stateMutability": "nonpayable",
      "type": "function"
    },
    {
      "inputs": [
        {
          "internalType": "uint256",
          "name": "token",
          "type": "uint256"
        },
        {
          "internalType": "uint256",
          "name": "sku",
          "type": "uint256"
        },
        {
          "internalType": "uint256",
          "name": "playerid",
          "type": "uint256"
        }
      ],
      "name": "updateEquipment",
      "outputs": [],
      "stateMutability": "nonpayable",
      "type": "function"
    },
    {
      "inputs": [
        {
          "internalType": "uint256",
          "name": "playerid",
          "type": "uint256"
        }
      ],
      "name": "removeEquipment",
      "outputs": [],
      "stateMutability": "nonpayable",
      "type": "function"
    },
    {
      "inputs": [
        {
          "internalType": "uint256",
          "name": "teamId",
          "type": "uint256"
        },
        {
          "internalType": "uint256",
          "name": "position",
          "type": "uint256"
        },
        {
          "internalType": "uint256",
          "name": "playerid",
          "type": "uint256"
        },
        {
          "internalType": "uint256",
          "name": "teamDna",
          "type": "uint256"
        }
      ],
      "name": "assignToTeam",
      "outputs": [],
      "stateMutability": "nonpayable",
      "type": "function"
    },
    {
      "inputs": [
        {
          "internalType": "uint256",
          "name": "teamId",
          "type": "uint256"
        },
        {
          "internalType": "uint256",
          "name": "playerid",
          "type": "uint256"
        }
      ],
      "name": "removeFromTeam",
      "outputs": [],
      "stateMutability": "nonpayable",
      "type": "function"
    },
    {
      "inputs": [
        {
          "internalType": "uint256",
          "name": "tokenId",
          "type": "uint256"
        },
        {
          "internalType": "uint256",
          "name": "qty",
          "type": "uint256"
        },
        {
          "internalType": "address",
          "name": "owner",
          "type": "address"
        }
      ],
      "name": "addOp",
      "outputs": [],
      "stateMutability": "nonpayable",
      "type": "function"
    },
    {
      "inputs": [
        {
          "internalType": "uint256",
          "name": "tokenId",
          "type": "uint256"
        },
        {
          "internalType": "uint256",
          "name": "qty",
          "type": "uint256"
        },
        {
          "internalType": "address",
          "name": "owner",
          "type": "address"
        }
      ],
      "name": "addDp",
      "outputs": [],
      "stateMutability": "nonpayable",
      "type": "function"
    },
    {
      "inputs": [
        {
          "internalType": "address",
          "name": "sender",
          "type": "address"
        },
        {
          "internalType": "uint256",
          "name": "randHelper",
          "type": "uint256"
        }
      ],
      "name": "_generateRandDna",
      "outputs": [
        {
          "internalType": "uint256",
          "name": "",
          "type": "uint256"
        }
      ],
      "stateMutability": "view",
      "type": "function",
      "constant": true
    },
    {
      "inputs": [
        {
          "internalType": "address",
          "name": "sender",
          "type": "address"
        },
        {
          "internalType": "uint256",
          "name": "mod",
          "type": "uint256"
        },
        {
          "internalType": "uint256",
          "name": "base",
          "type": "uint256"
        },
        {
          "internalType": "uint256",
          "name": "randHelper",
          "type": "uint256"
        }
      ],
      "name": "_generateRandAtrrib",
      "outputs": [
        {
          "internalType": "uint256",
          "name": "",
          "type": "uint256"
        }
      ],
      "stateMutability": "view",
      "type": "function",
      "constant": true
    },
    {
      "inputs": [
        {
          "internalType": "uint256",
          "name": "_teamId",
          "type": "uint256"
        }
      ],
      "name": "getTeamOP",
      "outputs": [
        {
          "internalType": "uint256",
          "name": "",
          "type": "uint256"
        }
      ],
      "stateMutability": "view",
      "type": "function",
      "constant": true
    },
    {
      "inputs": [
        {
          "internalType": "uint256",
          "name": "_teamId",
          "type": "uint256"
        }
      ],
      "name": "getTeamDP",
      "outputs": [
        {
          "internalType": "uint256",
          "name": "",
          "type": "uint256"
        }
      ],
      "stateMutability": "view",
      "type": "function",
      "constant": true
    }
  ],
  "bytecode": "0x6080604052601c600e55600e54600a6200001a919062000364565b600f55600460105560006017553480156200003457600080fd5b50604051620065903803806200659083398181016040528101906200005a919062000281565b6040518060400160405280601181526020017f506978656c205075636b20506c617965720000000000000000000000000000008152506040518060400160405280600381526020017f50505000000000000000000000000000000000000000000000000000000000008152508160009080519060200190620000de929190620001a3565b508060019080519060200190620000f7929190620001a3565b50505033600660006101000a81548173ffffffffffffffffffffffffffffffffffffffff021916908373ffffffffffffffffffffffffffffffffffffffff16021790555084601260006101000a81548173ffffffffffffffffffffffffffffffffffffffff021916908373ffffffffffffffffffffffffffffffffffffffff1602179055508360098190555082600a8190555081600b81905550806011819055505050505050620005b9565b828054620001b190620004df565b90600052602060002090601f016020900481019282620001d5576000855562000221565b82601f10620001f057805160ff191683800117855562000221565b8280016001018555821562000221579182015b828111156200022057825182559160200191906001019062000203565b5b50905062000230919062000234565b5090565b5b808211156200024f57600081600090555060010162000235565b5090565b600081519050620002648162000585565b92915050565b6000815190506200027b816200059f565b92915050565b600080600080600060a08688031215620002a0576200029f62000573565b5b6000620002b08882890162000253565b9550506020620002c3888289016200026a565b9450506040620002d6888289016200026a565b9350506060620002e9888289016200026a565b9250506080620002fc888289016200026a565b9150509295509295909350565b6000808291508390505b60018511156200035b5780860481111562000333576200033262000515565b5b6001851615620003435780820291505b8081029050620003538562000578565b945062000313565b94509492505050565b60006200037182620004d5565b91506200037e83620004d5565b9250620003ad7fffffffffffffffffffffffffffffffffffffffffffffffffffffffffffffffff8484620003b5565b905092915050565b600082620003c757600190506200049a565b81620003d757600090506200049a565b8160018114620003f05760028114620003fb5762000431565b60019150506200049a565b60ff84111562000410576200040f62000515565b5b8360020a9150848211156200042a576200042962000515565b5b506200049a565b5060208310610133831016604e8410600b84101617156200046b5782820a90508381111562000465576200046462000515565b5b6200049a565b6200047a848484600162000309565b9250905081840481111562000494576200049362000515565b5b81810290505b9392505050565b6000620004ae82620004b5565b9050919050565b600073ffffffffffffffffffffffffffffffffffffffff82169050919050565b6000819050919050565b60006002820490506001821680620004f857607f821691505b602082108114156200050f576200050e62000544565b5b50919050565b7f4e487b7100000000000000000000000000000000000000000000000000000000600052601160045260246000fd5b7f4e487b7100000000000000000000000000000000000000000000000000000000600052602260045260246000fd5b600080fd5b60008160011c9050919050565b6200059081620004a1565b81146200059c57600080fd5b50565b620005aa81620004d5565b8114620005b657600080fd5b50565b615fc780620005c96000396000f3fe608060405234801561001057600080fd5b506004361061028a5760003560e01c806382de8fe91161015c578063c11550e4116100ce578063e00c01c511610087578063e00c01c514610829578063e5d4f66b14610847578063e985e9c514610863578063efe6e41c14610893578063f0258a78146108af578063f8966c4f146108cb5761028a565b8063c11550e41461072d578063c1e0372814610749578063c747517914610779578063c87b56dd146107a9578063c9483383146107d9578063d4536c4e146108095761028a565b8063a561c85111610120578063a561c8511461066b578063a8de071e14610689578063b42f6eb2146106b9578063b6db75a0146106d5578063b88d4fde146106f3578063bc9683261461070f5761028a565b806382de8fe9146105aa57806385f7229a146105da57806395d89b4114610615578063a22cb46514610633578063a2a8728d1461064f5761028a565b80634a594c12116102005780636bf082da116101b95780636bf082da146104d557806370a08231146104f1578063721f77971461052157806373034d081461053f5780637b05f7ac1461055d5780637c6e686f1461058e5761028a565b80634a594c12146103ef5780635d632faf1461040d578063601fac201461042957806362268169146104595780636352211e146104755780636ba1df63146104a55761028a565b806318894cf81161025257806318894cf81461034557806323b872dd1461036357806326d58a7b1461037f5780632919e4ff1461039b5780632bc3c2f9146103b757806342842e0e146103d35761028a565b806301ffc9a71461028f57806306fdde03146102bf578063081812fc146102dd578063095ea7b31461030d578063143c806314610329575b600080fd5b6102a960048036038101906102a4919061468e565b6108e7565b6040516102b691906150bc565b60405180910390f35b6102c76109c9565b6040516102d4919061515e565b60405180910390f35b6102f760048036038101906102f29190614716565b610a5b565b6040516103049190614faa565b60405180910390f35b6103276004803603810190610322919061453f565b610ae0565b005b610343600480360381019061033e91906143bc565b610bf8565b005b61034d610d0d565b60405161035a9190615143565b60405180910390f35b61037d60048036038101906103789190614429565b610d33565b005b610399600480360381019061039491906143bc565b610d93565b005b6103b560048036038101906103b091906145e6565b610e67565b005b6103d160048036038101906103cc91906148e5565b6112a7565b005b6103ed60048036038101906103e89190614429565b611430565b005b6103f7611450565b60405161040491906150d7565b60405180910390f35b610427600480360381019061042291906143bc565b611476565b005b610443600480360381019061043e9190614716565b61154a565b60405161045091906153dc565b60405180910390f35b610473600480360381019061046e91906147b0565b6115aa565b005b61048f600480360381019061048a9190614716565b611bf8565b60405161049c9190614faa565b60405180910390f35b6104bf60048036038101906104ba919061453f565b611caa565b6040516104cc91906153dc565b60405180910390f35b6104ef60048036038101906104ea91906143bc565b611cf6565b005b61050b600480360381019061050691906143bc565b611e0b565b60405161051891906153dc565b60405180910390f35b610529611ec3565b604051610536919061510d565b60405180910390f35b610547611ee9565b60405161055491906150f2565b60405180910390f35b61057760048036038101906105729190614843565b611f0f565b604051610585929190615473565b60405180910390f35b6105a860048036038101906105a39190614770565b612411565b005b6105c460048036038101906105bf91906143bc565b612470565b6040516105d1919061509a565b60405180910390f35b6105f460048036038101906105ef9190614716565b6125c6565b60405161060c9c9b9a999897969594939291906154d3565b60405180910390f35b61061d612626565b60405161062a919061515e565b60405180910390f35b61064d600480360381019061064891906144ff565b6126b8565b005b610669600480360381019061066491906143bc565b612839565b005b61067361290d565b6040516106809190614faa565b60405180910390f35b6106a3600480360381019061069e919061457f565b612915565b6040516106b091906153dc565b60405180910390f35b6106d360048036038101906106ce9190614938565b6129b1565b005b6106dd612a63565b6040516106ea91906150bc565b60405180910390f35b61070d6004803603810190610708919061447c565b612acc565b005b610717612b2e565b60405161072491906153dc565b60405180910390f35b610747600480360381019061074291906147b0565b612b38565b005b610763600480360381019061075e9190614716565b612d83565b60405161077091906153c0565b60405180910390f35b610793600480360381019061078e9190614716565b612e29565b6040516107a091906153dc565b60405180910390f35b6107c360048036038101906107be9190614716565b612e89565b6040516107d0919061515e565b60405180910390f35b6107f360048036038101906107ee9190614716565b612f30565b60405161080091906153dc565b60405180910390f35b610811612f47565b6040516108209392919061549c565b60405180910390f35b610831612f60565b60405161083e9190615128565b60405180910390f35b610861600480360381019061085c9190614938565b612f86565b005b61087d600480360381019061087891906143e9565b6131d0565b60405161088a91906150bc565b60405180910390f35b6108ad60048036038101906108a891906147f0565b613264565b005b6108c960048036038101906108c491906147f0565b6133fb565b005b6108e560048036038101906108e09190614716565b613592565b005b60007f80ac58cd000000000000000000000000000000000000000000000000000000007bffffffffffffffffffffffffffffffffffffffffffffffffffffffff1916827bffffffffffffffffffffffffffffffffffffffffffffffffffffffff191614806109b257507f5b5e139f000000000000000000000000000000000000000000000000000000007bffffffffffffffffffffffffffffffffffffffffffffffffffffffff1916827bffffffffffffffffffffffffffffffffffffffffffffffffffffffff1916145b806109c257506109c18261369c565b5b9050919050565b6060600080546109d890615884565b80601f0160208091040260200160405190810160405280929190818152602001828054610a0490615884565b8015610a515780601f10610a2657610100808354040283529160200191610a51565b820191906000526020600020905b815481529060010190602001808311610a3457829003601f168201915b5050505050905090565b6000610a6682613706565b610aa5576040517f08c379a0000000000000000000000000000000000000000000000000000000008152600401610a9c90615320565b60405180910390fd5b6004600083815260200190815260200160002060009054906101000a900473ffffffffffffffffffffffffffffffffffffffff169050919050565b6000610aeb82611bf8565b90508073ffffffffffffffffffffffffffffffffffffffff168373ffffffffffffffffffffffffffffffffffffffff161415610b5c576040517f08c379a0000000000000000000000000000000000000000000000000000000008152600401610b5390615380565b60405180910390fd5b8073ffffffffffffffffffffffffffffffffffffffff16610b7b613772565b73ffffffffffffffffffffffffffffffffffffffff161480610baa5750610ba981610ba4613772565b6131d0565b5b610be9576040517f08c379a0000000000000000000000000000000000000000000000000000000008152600401610be0906152a0565b60405180910390fd5b610bf3838361377a565b505050565b3373ffffffffffffffffffffffffffffffffffffffff16600660009054906101000a900473ffffffffffffffffffffffffffffffffffffffff1673ffffffffffffffffffffffffffffffffffffffff1614610c88576040517f08c379a0000000000000000000000000000000000000000000000000000000008152600401610c7f90615200565b60405180910390fd5b80601660006101000a81548173ffffffffffffffffffffffffffffffffffffffff021916908373ffffffffffffffffffffffffffffffffffffffff16021790555080600860006101000a81548173ffffffffffffffffffffffffffffffffffffffff021916908373ffffffffffffffffffffffffffffffffffffffff16021790555050565b601660009054906101000a900473ffffffffffffffffffffffffffffffffffffffff1681565b610d44610d3e613772565b82613833565b610d83576040517f08c379a0000000000000000000000000000000000000000000000000000000008152600401610d7a906153a0565b60405180910390fd5b610d8e838383613911565b505050565b3373ffffffffffffffffffffffffffffffffffffffff16600660009054906101000a900473ffffffffffffffffffffffffffffffffffffffff1673ffffffffffffffffffffffffffffffffffffffff1614610e23576040517f08c379a0000000000000000000000000000000000000000000000000000000008152600401610e1a90615200565b60405180910390fd5b80601360006101000a81548173ffffffffffffffffffffffffffffffffffffffff021916908373ffffffffffffffffffffffffffffffffffffffff16021790555050565b3373ffffffffffffffffffffffffffffffffffffffff16600660009054906101000a900473ffffffffffffffffffffffffffffffffffffffff1673ffffffffffffffffffffffffffffffffffffffff1614610ef7576040517f08c379a0000000000000000000000000000000000000000000000000000000008152600401610eee90615200565b60405180910390fd5b6001811415610ffe576040518061018001604052808581526020018481526020018381526020018281526020016000815260200160008152602001600081526020016000815260200160115442610f4e919061565f565b8152602001428152602001600081526020016000815250601860006017548152602001908152602001600020600082015181600001556020820151816001015560408201518160020155606082015181600301556080820151816004015560a0820151816005015560c0820151816006015560e082015181600701556101008201518160080155610120820151816009015561014082015181600a015561016082015181600b015590505061120a565b6002811415611105576040518061018001604052808581526020018481526020018381526020018281526020016000815260200160008152602001600081526020016000815260200160115442611055919061565f565b8152602001428152602001600081526020016000815250601860006017548152602001908152602001600020600082015181600001556020820151816001015560408201518160020155606082015181600301556080820151816004015560a0820151816005015560c0820151816006015560e082015181600701556101008201518160080155610120820151816009015561014082015181600a015561016082015181600b0155905050611209565b600381141561120857604051806101800160405280858152602001848152602001838152602001828152602001600081526020016000815260200160008152602001600081526020016011544261115c919061565f565b8152602001428152602001600081526020016000815250601860006017548152602001908152602001600020600082015181600001556020820151816001015560408201518160020155606082015181600301556080820151816004015560a0820151816005015560c0820151816006015560e082015181600701556101008201518160080155610120820151816009015561014082015181600a015561016082015181600b01559050505b5b5b61121685601754613b6d565b611243600c60009054906101000a900473ffffffffffffffffffffffffffffffffffffffff1660016126b8565b60176000815480929190611256906158e7565b91905055507f411b384f004565f47f0c20647f30c2d3554c24b48f62090ff947f6607ca96d56600160175461128b91906156e6565b60405161129891906153dc565b60405180910390a15050505050565b6000601360009054906101000a900473ffffffffffffffffffffffffffffffffffffffff1673ffffffffffffffffffffffffffffffffffffffff1662fdd58e33866040518363ffffffff1660e01b8152600401611305929190615071565b60206040518083038186803b15801561131d57600080fd5b505afa158015611331573d6000803e3d6000fd5b505050506040513d601f19601f820116820180604052508101906113559190614743565b9050600181101561136557600080fd5b8260186000848152602001908152602001600020600a01819055508360186000848152602001908152602001600020600b0181905550601360009054906101000a900473ffffffffffffffffffffffffffffffffffffffff1673ffffffffffffffffffffffffffffffffffffffff1663f367f20c33866040518363ffffffff1660e01b81526004016113f8929190615071565b600060405180830381600087803b15801561141257600080fd5b505af1158015611426573d6000803e3d6000fd5b5050505050505050565b61144b83838360405180602001604052806000815250612acc565b505050565b601260009054906101000a900473ffffffffffffffffffffffffffffffffffffffff1681565b3373ffffffffffffffffffffffffffffffffffffffff16600660009054906101000a900473ffffffffffffffffffffffffffffffffffffffff1673ffffffffffffffffffffffffffffffffffffffff1614611506576040517f08c379a00000000000000000000000000000000000000000000000000000000081526004016114fd90615200565b60405180910390fd5b80601260006101000a81548173ffffffffffffffffffffffffffffffffffffffff021916908373ffffffffffffffffffffffffffffffffffffffff16021790555050565b6000806000905060005b6017548110156115a0578361156882612d83565b60800151141561158d5761157b81612d83565b600001518261158a919061565f565b91505b8080611598906158e7565b915050611554565b8192505050919050565b6000601754141561164657600660009054906101000a900473ffffffffffffffffffffffffffffffffffffffff1673ffffffffffffffffffffffffffffffffffffffff163373ffffffffffffffffffffffffffffffffffffffff1614611645576040517f08c379a000000000000000000000000000000000000000000000000000000000815260040161163c90615200565b60405180910390fd5b5b6000601260009054906101000a900473ffffffffffffffffffffffffffffffffffffffff1673ffffffffffffffffffffffffffffffffffffffff1663dd62ed3e33306040518363ffffffff1660e01b81526004016116a5929190614fc5565b60206040518083038186803b1580156116bd57600080fd5b505afa1580156116d1573d6000803e3d6000fd5b505050506040513d601f19601f820116820180604052508101906116f59190614743565b90508281101561173a576040517f08c379a000000000000000000000000000000000000000000000000000000000815260040161173190615180565b60405180910390fd5b601260009054906101000a900473ffffffffffffffffffffffffffffffffffffffff1673ffffffffffffffffffffffffffffffffffffffff166323b872dd3330866040518463ffffffff1660e01b815260040161179993929190614fee565b602060405180830381600087803b1580156117b357600080fd5b505af11580156117c7573d6000803e3d6000fd5b505050506040513d601f19601f820116820180604052508101906117eb9190614661565b50600182141561193057604051806101800160405280611817336032806118126001612f30565b612915565b8152602001611833336032600061182e6002612f30565b612915565b815260200161184b336118466001612f30565b611caa565b81526020018381526020016000815260200160008152602001600081526020016000815260200160115442611880919061565f565b8152602001428152602001600081526020016000815250601860006017548152602001908152602001600020600082015181600001556020820151816001015560408201518160020155606082015181600301556080820151816004015560a0820151816005015560c0820151816006015560e082015181600701556101008201518160080155610120820151816009015561014082015181600a015561016082015181600b0155905050611ba2565b6002821415611a745760405180610180016040528061195c33603260006119576003612f30565b612915565b8152602001611977336032806119726004612f30565b612915565b815260200161198f3361198a6003612f30565b611caa565b815260200183815260200160008152602001600081526020016000815260200160008152602001601154426119c4919061565f565b8152602001428152602001600081526020016000815250601860006017548152602001908152602001600020600082015181600001556020820151816001015560408201518160020155606082015181600301556080820151816004015560a0820151816005015560c0820151816006015560e082015181600701556101008201518160080155610120820151816009015561014082015181600a015561016082015181600b0155905050611ba1565b6003821415611ba05760405180610180016040528060008152602001611aa7336019604b611aa26005612f30565b612915565b8152602001611abf33611aba6005612f30565b611caa565b81526020018381526020016000815260200160008152602001600081526020016000815260200160115442611af4919061565f565b8152602001428152602001600081526020016000815250601860006017548152602001908152602001600020600082015181600001556020820151816001015560408201518160020155606082015181600301556080820151816004015560a0820151816005015560c0820151816006015560e082015181600701556101008201518160080155610120820151816009015561014082015181600a015561016082015181600b01559050505b5b5b611bae33601754613b6d565b611bdb600c60009054906101000a900473ffffffffffffffffffffffffffffffffffffffff1660016126b8565b60176000815480929190611bee906158e7565b9190505550505050565b6000806002600084815260200190815260200160002060009054906101000a900473ffffffffffffffffffffffffffffffffffffffff169050600073ffffffffffffffffffffffffffffffffffffffff168173ffffffffffffffffffffffffffffffffffffffff161415611ca1576040517f08c379a0000000000000000000000000000000000000000000000000000000008152600401611c98906152e0565b60405180910390fd5b80915050919050565b60008042448585604051602001611cc49493929190614efd565b6040516020818303038152906040528051906020012060001c9050600f5481611ced919061595e565b91505092915050565b3373ffffffffffffffffffffffffffffffffffffffff16600660009054906101000a900473ffffffffffffffffffffffffffffffffffffffff1673ffffffffffffffffffffffffffffffffffffffff1614611d86576040517f08c379a0000000000000000000000000000000000000000000000000000000008152600401611d7d90615200565b60405180910390fd5b80601460006101000a81548173ffffffffffffffffffffffffffffffffffffffff021916908373ffffffffffffffffffffffffffffffffffffffff16021790555080600760006101000a81548173ffffffffffffffffffffffffffffffffffffffff021916908373ffffffffffffffffffffffffffffffffffffffff16021790555050565b60008073ffffffffffffffffffffffffffffffffffffffff168273ffffffffffffffffffffffffffffffffffffffff161415611e7c576040517f08c379a0000000000000000000000000000000000000000000000000000000008152600401611e73906152c0565b60405180910390fd5b600360008373ffffffffffffffffffffffffffffffffffffffff1673ffffffffffffffffffffffffffffffffffffffff168152602001908152602001600020549050919050565b601360009054906101000a900473ffffffffffffffffffffffffffffffffffffffff1681565b601560009054906101000a900473ffffffffffffffffffffffffffffffffffffffff1681565b6000803373ffffffffffffffffffffffffffffffffffffffff16600760009054906101000a900473ffffffffffffffffffffffffffffffffffffffff1673ffffffffffffffffffffffffffffffffffffffff1614611fa2576040517f08c379a0000000000000000000000000000000000000000000000000000000008152600401611f99906151e0565b60405180910390fd5b6000601754141561203e57600660009054906101000a900473ffffffffffffffffffffffffffffffffffffffff1673ffffffffffffffffffffffffffffffffffffffff163373ffffffffffffffffffffffffffffffffffffffff161461203d576040517f08c379a000000000000000000000000000000000000000000000000000000000815260040161203490615200565b60405180910390fd5b5b6001861415612154576040518061018001604052808a81526020018981526020016120728961206d6001612f30565b611caa565b815260200187815260200186815260200185815260200184815260200160008152602001601154426120a4919061565f565b8152602001428152602001600081526020016000815250601860006017548152602001908152602001600020600082015181600001556020820151816001015560408201518160020155606082015181600301556080820151816004015560a0820151816005015560c0820151816006015560e082015181600701556101008201518160080155610120820151816009015561014082015181600a015561016082015181600b015590505061237e565b600286141561226a576040518061018001604052808a8152602001898152602001612188896121836003612f30565b611caa565b815260200187815260200186815260200185815260200184815260200160008152602001601154426121ba919061565f565b8152602001428152602001600081526020016000815250601860006017548152602001908152602001600020600082015181600001556020820151816001015560408201518160020155606082015181600301556080820151816004015560a0820151816005015560c0820151816006015560e082015181600701556101008201518160080155610120820151816009015561014082015181600a015561016082015181600b015590505061237d565b600386141561237c576040518061018001604052808a815260200189815260200161229e896122996005612f30565b611caa565b815260200187815260200186815260200185815260200184815260200160008152602001601154426122d0919061565f565b8152602001428152602001600081526020016000815250601860006017548152602001908152602001600020600082015181600001556020820151816001015560408201518160020155606082015181600301556080820151816004015560a0820151816005015560c0820151816006015560e082015181600701556101008201518160080155610120820151816009015561014082015181600a015561016082015181600b01559050505b5b5b61238a87601754613b6d565b6123b7600c60009054906101000a900473ffffffffffffffffffffffffffffffffffffffff1660016126b8565b601760008154809291906123ca906158e7565b919050555060186000601754815260200190815260200160002060000154601860006017548152602001908152602001600020600101549150915097509795505050505050565b3373ffffffffffffffffffffffffffffffffffffffff1661243183611bf8565b73ffffffffffffffffffffffffffffffffffffffff161461245157600080fd5b61246c33828460405180602001604052806000815250612acc565b5050565b6060600061247d83611e0b565b905060008114156124da57600067ffffffffffffffff8111156124a3576124a2615a4b565b5b6040519080825280602002602001820160405280156124d15781602001602082028036833780820191505090505b509150506125c1565b60008167ffffffffffffffff8111156124f6576124f5615a4b565b5b6040519080825280602002602001820160405280156125245781602001602082028036833780820191505090505b509050600060175490506000805b828110156125b8578673ffffffffffffffffffffffffffffffffffffffff1661255a82611bf8565b73ffffffffffffffffffffffffffffffffffffffff1614156125a5578084838151811061258a57612589615a1c565b5b60200260200101818152505081806125a1906158e7565b9250505b80806125b0906158e7565b915050612532565b83955050505050505b919050565b601860205280600052604060002060009150905080600001549080600101549080600201549080600301549080600401549080600501549080600601549080600701549080600801549080600901549080600a01549080600b015490508c565b60606001805461263590615884565b80601f016020809104026020016040519081016040528092919081815260200182805461266190615884565b80156126ae5780601f10612683576101008083540402835291602001916126ae565b820191906000526020600020905b81548152906001019060200180831161269157829003601f168201915b5050505050905090565b6126c0613772565b73ffffffffffffffffffffffffffffffffffffffff168273ffffffffffffffffffffffffffffffffffffffff16141561272e576040517f08c379a000000000000000000000000000000000000000000000000000000000815260040161272590615260565b60405180910390fd5b806005600061273b613772565b73ffffffffffffffffffffffffffffffffffffffff1673ffffffffffffffffffffffffffffffffffffffff16815260200190815260200160002060008473ffffffffffffffffffffffffffffffffffffffff1673ffffffffffffffffffffffffffffffffffffffff16815260200190815260200160002060006101000a81548160ff0219169083151502179055508173ffffffffffffffffffffffffffffffffffffffff166127e8613772565b73ffffffffffffffffffffffffffffffffffffffff167f17307eab39ab6107e8899845ad3d59bd9653f200f220920489ca2b5937696c318360405161282d91906150bc565b60405180910390a35050565b3373ffffffffffffffffffffffffffffffffffffffff16600660009054906101000a900473ffffffffffffffffffffffffffffffffffffffff1673ffffffffffffffffffffffffffffffffffffffff16146128c9576040517f08c379a00000000000000000000000000000000000000000000000000000000081526004016128c090615200565b60405180910390fd5b80601560006101000a81548173ffffffffffffffffffffffffffffffffffffffff021916908373ffffffffffffffffffffffffffffffffffffffff16021790555050565b600030905090565b6000806000905060005b6010548110156129865785848244428b604051602001612943959493929190614f4b565b6040516020818303038152906040528051906020012060001c612966919061595e565b82612971919061565f565b9150808061297e906158e7565b91505061291f565b60006010548361299691906156b5565b905085816129a4919061565f565b9350505050949350505050565b3373ffffffffffffffffffffffffffffffffffffffff16600660009054906101000a900473ffffffffffffffffffffffffffffffffffffffff1673ffffffffffffffffffffffffffffffffffffffff1614612a41576040517f08c379a0000000000000000000000000000000000000000000000000000000008152600401612a3890615200565b60405180910390fd5b8360098190555082600a8190555081600b819055508060118190555050505050565b60003373ffffffffffffffffffffffffffffffffffffffff16600660009054906101000a900473ffffffffffffffffffffffffffffffffffffffff1673ffffffffffffffffffffffffffffffffffffffff161415612ac45760019050612ac9565b600090505b90565b612add612ad7613772565b83613833565b612b1c576040517f08c379a0000000000000000000000000000000000000000000000000000000008152600401612b13906153a0565b60405180910390fd5b612b2884848484613b8b565b50505050565b6000601754905090565b3373ffffffffffffffffffffffffffffffffffffffff16612b5882611bf8565b73ffffffffffffffffffffffffffffffffffffffff1614612b7857600080fd5b3373ffffffffffffffffffffffffffffffffffffffff16601460009054906101000a900473ffffffffffffffffffffffffffffffffffffffff1673ffffffffffffffffffffffffffffffffffffffff1663c1e03728846040518263ffffffff1660e01b8152600401612bea91906153dc565b6101606040518083038186803b158015612c0357600080fd5b505afa158015612c17573d6000803e3d6000fd5b505050506040513d601f19601f82011682018060405250810190612c3b91906146e8565b610140015173ffffffffffffffffffffffffffffffffffffffff1614612c6057600080fd5b600060186000838152602001908152602001600020600401819055506000601860008381526020019081526020016000206006018190555060006018600083815260200190815260200160002060050181905550600060186000838152602001908152602001600020600001549050600060186000848152602001908152602001600020600101549050601460009054906101000a900473ffffffffffffffffffffffffffffffffffffffff1673ffffffffffffffffffffffffffffffffffffffff16635664eb36853385856040518563ffffffff1660e01b8152600401612d4b949392919061542e565b600060405180830381600087803b158015612d6557600080fd5b505af1158015612d79573d6000803e3d6000fd5b5050505050505050565b612d8b614137565b601860008381526020019081526020016000206040518061018001604052908160008201548152602001600182015481526020016002820154815260200160038201548152602001600482015481526020016005820154815260200160068201548152602001600782015481526020016008820154815260200160098201548152602001600a8201548152602001600b820154815250509050919050565b6000806000905060005b601754811015612e7f5783612e4782612d83565b608001511415612e6c57612e5a81612d83565b6020015182612e69919061565f565b91505b8080612e77906158e7565b915050612e33565b8192505050919050565b6060612e9482613706565b612ed3576040517f08c379a0000000000000000000000000000000000000000000000000000000008152600401612eca90615360565b60405180910390fd5b6000612edd613be7565b90506000815111612efd5760405180602001604052806000815250612f28565b80612f0784613bfe565b604051602001612f18929190614ed9565b6040516020818303038152906040525b915050919050565b600060175482612f40919061565f565b9050919050565b6000806000600954600a54600b54925092509250909192565b601460009054906101000a900473ffffffffffffffffffffffffffffffffffffffff1681565b3373ffffffffffffffffffffffffffffffffffffffff16612fa683611bf8565b73ffffffffffffffffffffffffffffffffffffffff1614612fc657600080fd5b3373ffffffffffffffffffffffffffffffffffffffff16601460009054906101000a900473ffffffffffffffffffffffffffffffffffffffff1673ffffffffffffffffffffffffffffffffffffffff1663c1e03728866040518263ffffffff1660e01b815260040161303891906153dc565b6101606040518083038186803b15801561305157600080fd5b505afa158015613065573d6000803e3d6000fd5b505050506040513d601f19601f8201168201806040525081019061308991906146e8565b610140015173ffffffffffffffffffffffffffffffffffffffff16146130ae57600080fd5b836018600084815260200190815260200160002060040181905550826018600084815260200190815260200160002060060181905550806018600084815260200190815260200160002060050181905550600060186000848152602001908152602001600020600001549050600060186000858152602001908152602001600020600101549050601460009054906101000a900473ffffffffffffffffffffffffffffffffffffffff1673ffffffffffffffffffffffffffffffffffffffff1663f971a2f8873385856040518563ffffffff1660e01b8152600401613196949392919061542e565b600060405180830381600087803b1580156131b057600080fd5b505af11580156131c4573d6000803e3d6000fd5b50505050505050505050565b6000600560008473ffffffffffffffffffffffffffffffffffffffff1673ffffffffffffffffffffffffffffffffffffffff16815260200190815260200160002060008373ffffffffffffffffffffffffffffffffffffffff1673ffffffffffffffffffffffffffffffffffffffff16815260200190815260200160002060009054906101000a900460ff16905092915050565b3373ffffffffffffffffffffffffffffffffffffffff16600860009054906101000a900473ffffffffffffffffffffffffffffffffffffffff1673ffffffffffffffffffffffffffffffffffffffff16146132f4576040517f08c379a00000000000000000000000000000000000000000000000000000000081526004016132eb90615220565b60405180910390fd5b816018600085815260200190815260200160002060000154613316919061565f565b601860008581526020019081526020016000206000018190555060006018600085815260200190815260200160002060040154146133f657601460009054906101000a900473ffffffffffffffffffffffffffffffffffffffff1673ffffffffffffffffffffffffffffffffffffffff1663a1134de1601860008681526020019081526020016000206004015483856040518463ffffffff1660e01b81526004016133c3939291906153f7565b600060405180830381600087803b1580156133dd57600080fd5b505af11580156133f1573d6000803e3d6000fd5b505050505b505050565b3373ffffffffffffffffffffffffffffffffffffffff16600860009054906101000a900473ffffffffffffffffffffffffffffffffffffffff1673ffffffffffffffffffffffffffffffffffffffff161461348b576040517f08c379a000000000000000000000000000000000000000000000000000000000815260040161348290615220565b60405180910390fd5b8160186000858152602001908152602001600020600101546134ad919061565f565b6018600085815260200190815260200160002060010181905550600060186000858152602001908152602001600020600401541461358d57601460009054906101000a900473ffffffffffffffffffffffffffffffffffffffff1673ffffffffffffffffffffffffffffffffffffffff1663a6c456a9601860008681526020019081526020016000206004015483856040518463ffffffff1660e01b815260040161355a939291906153f7565b600060405180830381600087803b15801561357457600080fd5b505af1158015613588573d6000803e3d6000fd5b505050505b505050565b600060186000838152602001908152602001600020600b015414156135b657600080fd5b600060186000838152602001908152602001600020600b01549050600060186000848152602001908152602001600020600a0181905550600060186000848152602001908152602001600020600b0181905550601360009054906101000a900473ffffffffffffffffffffffffffffffffffffffff1673ffffffffffffffffffffffffffffffffffffffff16634391d2b133836040518363ffffffff1660e01b8152600401613666929190615071565b600060405180830381600087803b15801561368057600080fd5b505af1158015613694573d6000803e3d6000fd5b505050505050565b60007f01ffc9a7000000000000000000000000000000000000000000000000000000007bffffffffffffffffffffffffffffffffffffffffffffffffffffffff1916827bffffffffffffffffffffffffffffffffffffffffffffffffffffffff1916149050919050565b60008073ffffffffffffffffffffffffffffffffffffffff166002600084815260200190815260200160002060009054906101000a900473ffffffffffffffffffffffffffffffffffffffff1673ffffffffffffffffffffffffffffffffffffffff1614159050919050565b600033905090565b816004600083815260200190815260200160002060006101000a81548173ffffffffffffffffffffffffffffffffffffffff021916908373ffffffffffffffffffffffffffffffffffffffff160217905550808273ffffffffffffffffffffffffffffffffffffffff166137ed83611bf8565b73ffffffffffffffffffffffffffffffffffffffff167f8c5be1e5ebec7d5bd14f71427d1e84f3dd0314c0f7b2291e5b200ac8c7c3b92560405160405180910390a45050565b600061383e82613706565b61387d576040517f08c379a000000000000000000000000000000000000000000000000000000000815260040161387490615280565b60405180910390fd5b600061388883611bf8565b90508073ffffffffffffffffffffffffffffffffffffffff168473ffffffffffffffffffffffffffffffffffffffff1614806138f757508373ffffffffffffffffffffffffffffffffffffffff166138df84610a5b565b73ffffffffffffffffffffffffffffffffffffffff16145b80613908575061390781856131d0565b5b91505092915050565b8273ffffffffffffffffffffffffffffffffffffffff1661393182611bf8565b73ffffffffffffffffffffffffffffffffffffffff1614613987576040517f08c379a000000000000000000000000000000000000000000000000000000000815260040161397e90615340565b60405180910390fd5b600073ffffffffffffffffffffffffffffffffffffffff168273ffffffffffffffffffffffffffffffffffffffff1614156139f7576040517f08c379a00000000000000000000000000000000000000000000000000000000081526004016139ee90615240565b60405180910390fd5b613a02838383613d5f565b613a0d60008261377a565b6001600360008573ffffffffffffffffffffffffffffffffffffffff1673ffffffffffffffffffffffffffffffffffffffff1681526020019081526020016000206000828254613a5d91906156e6565b925050819055506001600360008473ffffffffffffffffffffffffffffffffffffffff1673ffffffffffffffffffffffffffffffffffffffff1681526020019081526020016000206000828254613ab4919061565f565b92505081905550816002600083815260200190815260200160002060006101000a81548173ffffffffffffffffffffffffffffffffffffffff021916908373ffffffffffffffffffffffffffffffffffffffff160217905550808273ffffffffffffffffffffffffffffffffffffffff168473ffffffffffffffffffffffffffffffffffffffff167fddf252ad1be2c89b69c2b068fc378daa952ba7f163c4a11628f55a4df523b3ef60405160405180910390a4505050565b613b87828260405180602001604052806000815250613d64565b5050565b613b96848484613911565b613ba284848484613dbf565b613be1576040517f08c379a0000000000000000000000000000000000000000000000000000000008152600401613bd8906151a0565b60405180910390fd5b50505050565b606060405180602001604052806000815250905090565b60606000821415613c46576040518060400160405280600181526020017f30000000000000000000000000000000000000000000000000000000000000008152509050613d5a565b600082905060005b60008214613c78578080613c61906158e7565b915050600a82613c7191906156b5565b9150613c4e565b60008167ffffffffffffffff811115613c9457613c93615a4b565b5b6040519080825280601f01601f191660200182016040528015613cc65781602001600182028036833780820191505090505b5090505b60008514613d5357600182613cdf91906156e6565b9150600a85613cee919061595e565b6030613cfa919061565f565b60f81b818381518110613d1057613d0f615a1c565b5b60200101907effffffffffffffffffffffffffffffffffffffffffffffffffffffffffffff1916908160001a905350600a85613d4c91906156b5565b9450613cca565b8093505050505b919050565b505050565b613d6e8383613f56565b613d7b6000848484613dbf565b613dba576040517f08c379a0000000000000000000000000000000000000000000000000000000008152600401613db1906151a0565b60405180910390fd5b505050565b6000613de08473ffffffffffffffffffffffffffffffffffffffff16614124565b15613f49578373ffffffffffffffffffffffffffffffffffffffff1663150b7a02613e09613772565b8786866040518563ffffffff1660e01b8152600401613e2b9493929190615025565b602060405180830381600087803b158015613e4557600080fd5b505af1925050508015613e7657506040513d601f19601f82011682018060405250810190613e7391906146bb565b60015b613ef9573d8060008114613ea6576040519150601f19603f3d011682016040523d82523d6000602084013e613eab565b606091505b50600081511415613ef1576040517f08c379a0000000000000000000000000000000000000000000000000000000008152600401613ee8906151a0565b60405180910390fd5b805181602001fd5b63150b7a0260e01b7bffffffffffffffffffffffffffffffffffffffffffffffffffffffff1916817bffffffffffffffffffffffffffffffffffffffffffffffffffffffff191614915050613f4e565b600190505b949350505050565b600073ffffffffffffffffffffffffffffffffffffffff168273ffffffffffffffffffffffffffffffffffffffff161415613fc6576040517f08c379a0000000000000000000000000000000000000000000000000000000008152600401613fbd90615300565b60405180910390fd5b613fcf81613706565b1561400f576040517f08c379a0000000000000000000000000000000000000000000000000000000008152600401614006906151c0565b60405180910390fd5b61401b60008383613d5f565b6001600360008473ffffffffffffffffffffffffffffffffffffffff1673ffffffffffffffffffffffffffffffffffffffff168152602001908152602001600020600082825461406b919061565f565b92505081905550816002600083815260200190815260200160002060006101000a81548173ffffffffffffffffffffffffffffffffffffffff021916908373ffffffffffffffffffffffffffffffffffffffff160217905550808273ffffffffffffffffffffffffffffffffffffffff16600073ffffffffffffffffffffffffffffffffffffffff167fddf252ad1be2c89b69c2b068fc378daa952ba7f163c4a11628f55a4df523b3ef60405160405180910390a45050565b600080823b905060008111915050919050565b6040518061018001604052806000815260200160008152602001600081526020016000815260200160008152602001600081526020016000815260200160008152602001600081526020016000815260200160008152602001600081525090565b60006141ab6141a6846155b2565b61558d565b9050828152602081018484840111156141c7576141c6615a84565b5b6141d2848285615842565b509392505050565b6000813590506141e981615f35565b92915050565b6000815190506141fe81615f35565b92915050565b60008135905061421381615f4c565b92915050565b60008151905061422881615f4c565b92915050565b60008135905061423d81615f63565b92915050565b60008151905061425281615f63565b92915050565b600082601f83011261426d5761426c615a7a565b5b813561427d848260208601614198565b91505092915050565b6000610160828403121561429d5761429c615a7f565b5b6142a861016061558d565b905060006142b8848285016143a7565b60008301525060206142cc848285016143a7565b60208301525060406142e0848285016143a7565b60408301525060606142f4848285016143a7565b6060830152506080614308848285016143a7565b60808301525060a061431c848285016143a7565b60a08301525060c0614330848285016143a7565b60c08301525060e061434484828501614219565b60e08301525061010061435984828501614219565b6101008301525061012061436f84828501614219565b61012083015250610140614385848285016141ef565b6101408301525092915050565b6000813590506143a181615f7a565b92915050565b6000815190506143b681615f7a565b92915050565b6000602082840312156143d2576143d1615a8e565b5b60006143e0848285016141da565b91505092915050565b60008060408385031215614400576143ff615a8e565b5b600061440e858286016141da565b925050602061441f858286016141da565b9150509250929050565b60008060006060848603121561444257614441615a8e565b5b6000614450868287016141da565b9350506020614461868287016141da565b925050604061447286828701614392565b9150509250925092565b6000806000806080858703121561449657614495615a8e565b5b60006144a4878288016141da565b94505060206144b5878288016141da565b93505060406144c687828801614392565b925050606085013567ffffffffffffffff8111156144e7576144e6615a89565b5b6144f387828801614258565b91505092959194509250565b6000806040838503121561451657614515615a8e565b5b6000614524858286016141da565b925050602061453585828601614204565b9150509250929050565b6000806040838503121561455657614555615a8e565b5b6000614564858286016141da565b925050602061457585828601614392565b9150509250929050565b6000806000806080858703121561459957614598615a8e565b5b60006145a7878288016141da565b94505060206145b887828801614392565b93505060406145c987828801614392565b92505060606145da87828801614392565b91505092959194509250565b600080600080600060a0868803121561460257614601615a8e565b5b6000614610888289016141da565b955050602061462188828901614392565b945050604061463288828901614392565b935050606061464388828901614392565b925050608061465488828901614392565b9150509295509295909350565b60006020828403121561467757614676615a8e565b5b600061468584828501614219565b91505092915050565b6000602082840312156146a4576146a3615a8e565b5b60006146b28482850161422e565b91505092915050565b6000602082840312156146d1576146d0615a8e565b5b60006146df84828501614243565b91505092915050565b600061016082840312156146ff576146fe615a8e565b5b600061470d84828501614286565b91505092915050565b60006020828403121561472c5761472b615a8e565b5b600061473a84828501614392565b91505092915050565b60006020828403121561475957614758615a8e565b5b6000614767848285016143a7565b91505092915050565b6000806040838503121561478757614786615a8e565b5b600061479585828601614392565b92505060206147a6858286016141da565b9150509250929050565b600080604083850312156147c7576147c6615a8e565b5b60006147d585828601614392565b92505060206147e685828601614392565b9150509250929050565b60008060006060848603121561480957614808615a8e565b5b600061481786828701614392565b935050602061482886828701614392565b9250506040614839868287016141da565b9150509250925092565b600080600080600080600060e0888a03121561486257614861615a8e565b5b60006148708a828b01614392565b97505060206148818a828b01614392565b96505060406148928a828b016141da565b95505060606148a38a828b01614392565b94505060806148b48a828b01614392565b93505060a06148c58a828b01614392565b92505060c06148d68a828b01614392565b91505092959891949750929550565b6000806000606084860312156148fe576148fd615a8e565b5b600061490c86828701614392565b935050602061491d86828701614392565b925050604061492e86828701614392565b9150509250925092565b6000806000806080858703121561495257614951615a8e565b5b600061496087828801614392565b945050602061497187828801614392565b935050604061498287828801614392565b925050606061499387828801614392565b91505092959194509250565b60006149ab8383614ea4565b60208301905092915050565b6149c08161571a565b82525050565b6149d76149d28261571a565b615930565b82525050565b60006149e8826155f3565b6149f28185615621565b93506149fd836155e3565b8060005b83811015614a2e578151614a15888261499f565b9750614a2083615614565b925050600181019050614a01565b5085935050505092915050565b614a448161572c565b82525050565b6000614a55826155fe565b614a5f8185615632565b9350614a6f818560208601615851565b614a7881615a93565b840191505092915050565b614a8c8161578e565b82525050565b614a9b816157b2565b82525050565b614aaa816157d6565b82525050565b614ab9816157fa565b82525050565b614ac88161581e565b82525050565b6000614ad982615609565b614ae38185615643565b9350614af3818560208601615851565b614afc81615a93565b840191505092915050565b6000614b1282615609565b614b1c8185615654565b9350614b2c818560208601615851565b80840191505092915050565b6000614b45600283615643565b9150614b5082615ab1565b602082019050919050565b6000614b68603283615643565b9150614b7382615ada565b604082019050919050565b6000614b8b601c83615643565b9150614b9682615b29565b602082019050919050565b6000614bae600283615643565b9150614bb982615b52565b602082019050919050565b6000614bd1600283615643565b9150614bdc82615b7b565b602082019050919050565b6000614bf4600283615643565b9150614bff82615ba4565b602082019050919050565b6000614c17602483615643565b9150614c2282615bcd565b604082019050919050565b6000614c3a601983615643565b9150614c4582615c1c565b602082019050919050565b6000614c5d602c83615643565b9150614c6882615c45565b604082019050919050565b6000614c80603883615643565b9150614c8b82615c94565b604082019050919050565b6000614ca3602a83615643565b9150614cae82615ce3565b604082019050919050565b6000614cc6602983615643565b9150614cd182615d32565b604082019050919050565b6000614ce9602083615643565b9150614cf482615d81565b602082019050919050565b6000614d0c602c83615643565b9150614d1782615daa565b604082019050919050565b6000614d2f602983615643565b9150614d3a82615df9565b604082019050919050565b6000614d52602f83615643565b9150614d5d82615e48565b604082019050919050565b6000614d75602183615643565b9150614d8082615e97565b604082019050919050565b6000614d98603183615643565b9150614da382615ee6565b604082019050919050565b61018082016000820151614dc56000850182614ea4565b506020820151614dd86020850182614ea4565b506040820151614deb6040850182614ea4565b506060820151614dfe6060850182614ea4565b506080820151614e116080850182614ea4565b5060a0820151614e2460a0850182614ea4565b5060c0820151614e3760c0850182614ea4565b5060e0820151614e4a60e0850182614ea4565b50610100820151614e5f610100850182614ea4565b50610120820151614e74610120850182614ea4565b50610140820151614e89610140850182614ea4565b50610160820151614e9e610160850182614ea4565b50505050565b614ead81615784565b82525050565b614ebc81615784565b82525050565b614ed3614ece82615784565b615954565b82525050565b6000614ee58285614b07565b9150614ef18284614b07565b91508190509392505050565b6000614f098287614ec2565b602082019150614f198286614ec2565b602082019150614f2982856149c6565b601482019150614f398284614ec2565b60208201915081905095945050505050565b6000614f578288614ec2565b602082019150614f678287614ec2565b602082019150614f778286614ec2565b602082019150614f878285614ec2565b602082019150614f9782846149c6565b6014820191508190509695505050505050565b6000602082019050614fbf60008301846149b7565b92915050565b6000604082019050614fda60008301856149b7565b614fe760208301846149b7565b9392505050565b600060608201905061500360008301866149b7565b61501060208301856149b7565b61501d6040830184614eb3565b949350505050565b600060808201905061503a60008301876149b7565b61504760208301866149b7565b6150546040830185614eb3565b81810360608301526150668184614a4a565b905095945050505050565b600060408201905061508660008301856149b7565b6150936020830184614eb3565b9392505050565b600060208201905081810360008301526150b481846149dd565b905092915050565b60006020820190506150d16000830184614a3b565b92915050565b60006020820190506150ec6000830184614a83565b92915050565b60006020820190506151076000830184614a92565b92915050565b60006020820190506151226000830184614aa1565b92915050565b600060208201905061513d6000830184614ab0565b92915050565b60006020820190506151586000830184614abf565b92915050565b600060208201905081810360008301526151788184614ace565b905092915050565b6000602082019050818103600083015261519981614b38565b9050919050565b600060208201905081810360008301526151b981614b5b565b9050919050565b600060208201905081810360008301526151d981614b7e565b9050919050565b600060208201905081810360008301526151f981614ba1565b9050919050565b6000602082019050818103600083015261521981614bc4565b9050919050565b6000602082019050818103600083015261523981614be7565b9050919050565b6000602082019050818103600083015261525981614c0a565b9050919050565b6000602082019050818103600083015261527981614c2d565b9050919050565b6000602082019050818103600083015261529981614c50565b9050919050565b600060208201905081810360008301526152b981614c73565b9050919050565b600060208201905081810360008301526152d981614c96565b9050919050565b600060208201905081810360008301526152f981614cb9565b9050919050565b6000602082019050818103600083015261531981614cdc565b9050919050565b6000602082019050818103600083015261533981614cff565b9050919050565b6000602082019050818103600083015261535981614d22565b9050919050565b6000602082019050818103600083015261537981614d45565b9050919050565b6000602082019050818103600083015261539981614d68565b9050919050565b600060208201905081810360008301526153b981614d8b565b9050919050565b6000610180820190506153d66000830184614dae565b92915050565b60006020820190506153f16000830184614eb3565b92915050565b600060608201905061540c6000830186614eb3565b61541960208301856149b7565b6154266040830184614eb3565b949350505050565b60006080820190506154436000830187614eb3565b61545060208301866149b7565b61545d6040830185614eb3565b61546a6060830184614eb3565b95945050505050565b60006040820190506154886000830185614eb3565b6154956020830184614eb3565b9392505050565b60006060820190506154b16000830186614eb3565b6154be6020830185614eb3565b6154cb6040830184614eb3565b949350505050565b6000610180820190506154e9600083018f614eb3565b6154f6602083018e614eb3565b615503604083018d614eb3565b615510606083018c614eb3565b61551d608083018b614eb3565b61552a60a083018a614eb3565b61553760c0830189614eb3565b61554460e0830188614eb3565b615552610100830187614eb3565b615560610120830186614eb3565b61556e610140830185614eb3565b61557c610160830184614eb3565b9d9c50505050505050505050505050565b60006155976155a8565b90506155a382826158b6565b919050565b6000604051905090565b600067ffffffffffffffff8211156155cd576155cc615a4b565b5b6155d682615a93565b9050602081019050919050565b6000819050602082019050919050565b600081519050919050565b600081519050919050565b600081519050919050565b6000602082019050919050565b600082825260208201905092915050565b600082825260208201905092915050565b600082825260208201905092915050565b600081905092915050565b600061566a82615784565b915061567583615784565b9250827fffffffffffffffffffffffffffffffffffffffffffffffffffffffffffffffff038211156156aa576156a961598f565b5b828201905092915050565b60006156c082615784565b91506156cb83615784565b9250826156db576156da6159be565b5b828204905092915050565b60006156f182615784565b91506156fc83615784565b92508282101561570f5761570e61598f565b5b828203905092915050565b600061572582615764565b9050919050565b60008115159050919050565b60007fffffffff0000000000000000000000000000000000000000000000000000000082169050919050565b600073ffffffffffffffffffffffffffffffffffffffff82169050919050565b6000819050919050565b6000615799826157a0565b9050919050565b60006157ab82615764565b9050919050565b60006157bd826157c4565b9050919050565b60006157cf82615764565b9050919050565b60006157e1826157e8565b9050919050565b60006157f382615764565b9050919050565b60006158058261580c565b9050919050565b600061581782615764565b9050919050565b600061582982615830565b9050919050565b600061583b82615764565b9050919050565b82818337600083830152505050565b60005b8381101561586f578082015181840152602081019050615854565b8381111561587e576000848401525b50505050565b6000600282049050600182168061589c57607f821691505b602082108114156158b0576158af6159ed565b5b50919050565b6158bf82615a93565b810181811067ffffffffffffffff821117156158de576158dd615a4b565b5b80604052505050565b60006158f282615784565b91507fffffffffffffffffffffffffffffffffffffffffffffffffffffffffffffffff8214156159255761592461598f565b5b600182019050919050565b600061593b82615942565b9050919050565b600061594d82615aa4565b9050919050565b6000819050919050565b600061596982615784565b915061597483615784565b925082615984576159836159be565b5b828206905092915050565b7f4e487b7100000000000000000000000000000000000000000000000000000000600052601160045260246000fd5b7f4e487b7100000000000000000000000000000000000000000000000000000000600052601260045260246000fd5b7f4e487b7100000000000000000000000000000000000000000000000000000000600052602260045260246000fd5b7f4e487b7100000000000000000000000000000000000000000000000000000000600052603260045260246000fd5b7f4e487b7100000000000000000000000000000000000000000000000000000000600052604160045260246000fd5b600080fd5b600080fd5b600080fd5b600080fd5b600080fd5b6000601f19601f8301169050919050565b60008160601b9050919050565b7f4231000000000000000000000000000000000000000000000000000000000000600082015250565b7f4552433732313a207472616e7366657220746f206e6f6e20455243373231526560008201527f63656976657220696d706c656d656e7465720000000000000000000000000000602082015250565b7f4552433732313a20746f6b656e20616c7265616479206d696e74656400000000600082015250565b7f5431000000000000000000000000000000000000000000000000000000000000600082015250565b7f4131000000000000000000000000000000000000000000000000000000000000600082015250565b7f5831000000000000000000000000000000000000000000000000000000000000600082015250565b7f4552433732313a207472616e7366657220746f20746865207a65726f2061646460008201527f7265737300000000000000000000000000000000000000000000000000000000602082015250565b7f4552433732313a20617070726f766520746f2063616c6c657200000000000000600082015250565b7f4552433732313a206f70657261746f7220717565727920666f72206e6f6e657860008201527f697374656e7420746f6b656e0000000000000000000000000000000000000000602082015250565b7f4552433732313a20617070726f76652063616c6c6572206973206e6f74206f7760008201527f6e6572206e6f7220617070726f76656420666f7220616c6c0000000000000000602082015250565b7f4552433732313a2062616c616e636520717565727920666f7220746865207a6560008201527f726f206164647265737300000000000000000000000000000000000000000000602082015250565b7f4552433732313a206f776e657220717565727920666f72206e6f6e657869737460008201527f656e7420746f6b656e0000000000000000000000000000000000000000000000602082015250565b7f4552433732313a206d696e7420746f20746865207a65726f2061646472657373600082015250565b7f4552433732313a20617070726f76656420717565727920666f72206e6f6e657860008201527f697374656e7420746f6b656e0000000000000000000000000000000000000000602082015250565b7f4552433732313a207472616e73666572206f6620746f6b656e2074686174206960008201527f73206e6f74206f776e0000000000000000000000000000000000000000000000602082015250565b7f4552433732314d657461646174613a2055524920717565727920666f72206e6f60008201527f6e6578697374656e7420746f6b656e0000000000000000000000000000000000602082015250565b7f4552433732313a20617070726f76616c20746f2063757272656e74206f776e6560008201527f7200000000000000000000000000000000000000000000000000000000000000602082015250565b7f4552433732313a207472616e736665722063616c6c6572206973206e6f74206f60008201527f776e6572206e6f7220617070726f766564000000000000000000000000000000602082015250565b615f3e8161571a565b8114615f4957600080fd5b50565b615f558161572c565b8114615f6057600080fd5b50565b615f6c81615738565b8114615f7757600080fd5b50565b615f8381615784565b8114615f8e57600080fd5b5056fea26469706673582212204c76951e66399e1e319bbe99ab26ad3b9be1bd4fc92ecf075f9d10ed5c8f0dc964736f6c63430008060033",
  "immutableReferences": {},
  "source": "// SPDX-License-Identifier: MIT\r\npragma solidity >=0.4.22 <0.9.0;\r\nimport \"../node_modules/@openzeppelin/contracts/token/ERC20/IERC20.sol\";\r\nimport \"../node_modules/@openzeppelin/contracts/token/ERC721/ERC721.sol\";\r\nimport \"../contracts/PBTeams.sol\";\r\nimport \"../contracts/PBProShopFactory.sol\";\r\nimport \"../contracts/PBPlayerMarketplace.sol\";\r\nimport \"../contracts/PBXP.sol\";\r\n\r\ncontract PBPlayers is ERC721 {\r\n\r\n    address admin;\r\n    address pbTeamsAddress;\r\n    address pbxpAddress;\r\n    uint mintCost1;\r\n    uint mintCost2;\r\n    uint mintCost3;\r\n    address marketplaceAddress;\r\n    address proshopAddress;\r\n    uint dnaDigits = 28;\r\n    uint dnaModulus = 10 ** dnaDigits;\r\n    uint bellCurveIterations = 4;\r\n    uint ageoutSeconds;\r\n    \r\n    IERC20 public buddies;\r\n    PBProShopFactory public pbProShopFactory;\r\n    PBTeams public pbTeams;\r\n    PBPlayerMarketplace public pbPlayerMarketplace;\r\n    PBXP public pbxp;\r\n    \r\n\r\n    struct Player{\r\n        uint offence;\r\n        uint defence;\r\n        uint dna;\r\n        uint playertype;\r\n        uint teamId;\r\n        uint teamDna;\r\n        uint position;\r\n        uint mainColor;\r\n        uint ageoutTimestamp;\r\n        uint draftTimestamp;\r\n        uint equippedJersey;\r\n        uint equippedToken;\r\n    }\r\n\r\n    uint nextId = 0;\r\n\r\n    event newSuperstar(uint tokenId);\r\n\r\n\r\n    mapping (uint => Player ) public _tokenDetails;\r\n\r\n    constructor(address _buddiesCoinAddress, uint _mintCost1, uint _mintCost2, uint _mintCost3, uint _ageoutSeconds) ERC721(\"Pixel Puck Player\", \"PPP\"){\r\n        admin = msg.sender;\r\n        buddies = IERC20(_buddiesCoinAddress);\r\n        mintCost1 = _mintCost1;\r\n        mintCost2 = _mintCost2;\r\n        mintCost3 = _mintCost3;\r\n        ageoutSeconds = _ageoutSeconds;\r\n    }\r\n\r\n    modifier onlyAdmin() {\r\n        require(admin == msg.sender, \"A1\" );\r\n        _;\r\n    }\r\n\r\n    modifier onlyTeams() {\r\n        require(pbTeamsAddress == msg.sender, \"T1\" );\r\n        _;\r\n    }\r\n\r\n    modifier onlyPBXP() {\r\n        require(pbxpAddress == msg.sender, \"X1\" );\r\n        _;\r\n    }\r\n\r\n    function isAdmin() public view returns (bool){\r\n        if(admin == msg.sender){\r\n            return true;\r\n        } else return false;\r\n    }\r\n\r\n    function getPBPlayersAddress() public view returns(address){\r\n        return address(this);\r\n    }\r\n    \r\n    function updateBuddiesCoinAddress(address _buddiesCoinAddress) onlyAdmin external {\r\n        buddies = IERC20(_buddiesCoinAddress);\r\n    }\r\n\r\n    function updatePBTeamsAddress(address _pbTeamsAddress) external onlyAdmin {\r\n        pbTeams = PBTeams(_pbTeamsAddress);\r\n        pbTeamsAddress = _pbTeamsAddress;\r\n    }\r\n\r\n    function updatePBProShopFactoryAddress(address _proshopAddress) external onlyAdmin {\r\n        pbProShopFactory = PBProShopFactory(_proshopAddress);\r\n    }\r\n\r\n    function updatePBPlayerMarketplaceAddress(address _pbPlayerMarketplaceAddress) external onlyAdmin {\r\n        pbPlayerMarketplace = PBPlayerMarketplace(_pbPlayerMarketplaceAddress);\r\n    }\r\n\r\n    function updatePBXPaddress(address _pbxpAddress) external onlyAdmin {\r\n        pbxp = PBXP(_pbxpAddress);\r\n        pbxpAddress = _pbxpAddress;\r\n    }\r\n\r\n    function updateVariables(uint _mintCost1, uint _mintCost2, uint _mintCost3, uint _ageoutSeconds) external onlyAdmin {\r\n        mintCost1 = _mintCost1;\r\n        mintCost2 = _mintCost2;\r\n        mintCost3 = _mintCost3;\r\n        ageoutSeconds = _ageoutSeconds;\r\n    }\r\n\r\n    function getMintingCosts() public view returns (uint, uint, uint){\r\n            return (mintCost1, mintCost2, mintCost3);\r\n    }\r\n\r\n    function getNextId() public view returns (uint){\r\n        return nextId;\r\n    }\r\n\r\n    function getTokenDetails(uint tokenId) public view returns (Player memory){\r\n        return _tokenDetails[tokenId];\r\n    }\r\n\r\n    function mintPlayer(uint value, uint playerType) external {\r\n        if(nextId == 0){\r\n            require(msg.sender == admin, \"A1\");\r\n        }\r\n        uint allowance = buddies.allowance(msg.sender, address(this));\r\n        require(allowance >= value, \"B1\");\r\n        buddies.transferFrom(msg.sender, address(this), value);\r\n        if(playerType == 1){\r\n            _tokenDetails[nextId] = Player(_generateRandAtrrib(msg.sender, 50, 50, _randHelper(1)), _generateRandAtrrib(msg.sender, 50, 0, _randHelper(2)), _generateRandDna(msg.sender, _randHelper(1)), playerType, 0,0,0,0,block.timestamp + ageoutSeconds,block.timestamp,0,0);\r\n        }else if(playerType == 2){\r\n             _tokenDetails[nextId] = Player(_generateRandAtrrib(msg.sender, 50, 0, _randHelper(3)), _generateRandAtrrib(msg.sender, 50, 50, _randHelper(4)), _generateRandDna(msg.sender, _randHelper(3)), playerType, 0,0,0,0,block.timestamp + ageoutSeconds,block.timestamp,0,0);\r\n        }else if (playerType == 3){\r\n             _tokenDetails[nextId] = Player(0, _generateRandAtrrib(msg.sender, 25, 75, _randHelper(5)), _generateRandDna(msg.sender, _randHelper(5)), playerType, 0,0,0,0,block.timestamp + ageoutSeconds,block.timestamp,0,0);\r\n        } \r\n        _safeMint(msg.sender, nextId);\r\n        setApprovalForAll(marketplaceAddress, true);\r\n        nextId++;\r\n    }\r\n\r\n     function mintPlayerToTeam(uint _op, uint _dp, address minter, uint playerType, uint teamId, uint teamDna, uint teamPos) public onlyTeams returns (uint, uint) {\r\n        if(nextId == 0){\r\n            require(msg.sender == admin, \"A1\");\r\n        }\r\n        if(playerType == 1) {\r\n            _tokenDetails[nextId] = Player(_op,_dp, _generateRandDna(minter, _randHelper(1)), playerType, teamId,teamDna,teamPos,0,block.timestamp + ageoutSeconds,block.timestamp,0,0);\r\n        } else if (playerType == 2){\r\n            _tokenDetails[nextId] = Player(_op,_dp, _generateRandDna(minter, _randHelper(3)), playerType, teamId,teamDna,teamPos,0,block.timestamp + ageoutSeconds,block.timestamp,0,0);\r\n        } else if (playerType == 3) {\r\n            _tokenDetails[nextId] = Player(_op,_dp, _generateRandDna(minter, _randHelper(5)), playerType, teamId,teamDna,teamPos,0,block.timestamp + ageoutSeconds,block.timestamp,0,0);\r\n        }        \r\n        _safeMint(minter, nextId);\r\n        setApprovalForAll(marketplaceAddress, true);\r\n        nextId++;\r\n        return (_tokenDetails[nextId].offence, _tokenDetails[nextId].defence);\r\n    }\r\n\r\n    function _randHelper(uint a) public view returns (uint){\r\n        return a + nextId;\r\n    }\r\n\r\n    function mintSuperstar(address playerOwner, uint opScore, uint dpScore, uint dna, uint playerType) external onlyAdmin {\r\n        if(playerType == 1){\r\n            _tokenDetails[nextId] = Player(opScore, dpScore, dna, playerType, 0,0,0,0,block.timestamp + ageoutSeconds,block.timestamp,0,0);\r\n        }else if(playerType == 2){\r\n            _tokenDetails[nextId] = Player(opScore, dpScore, dna, playerType, 0,0,0,0,block.timestamp + ageoutSeconds,block.timestamp,0,0);\r\n        }else if(playerType == 3){\r\n            _tokenDetails[nextId] = Player(opScore, dpScore, dna, playerType, 0,0,0,0,block.timestamp + ageoutSeconds,block.timestamp,0,0);\r\n        }\r\n        _safeMint(playerOwner, nextId);\r\n        setApprovalForAll(marketplaceAddress, true);\r\n        nextId++;\r\n        emit newSuperstar(nextId-1);\r\n    }\r\n\r\n    function getAllTokensForUser(address user) public view returns (uint256[] memory){\r\n        uint256 tokenCount = balanceOf(user);\r\n        if(tokenCount == 0){\r\n            return new uint256[](0);\r\n        }\r\n        else{\r\n            uint[] memory result = new uint256[](tokenCount);\r\n            uint256 totalPlayers = nextId;\r\n            uint256 resultIndex = 0;\r\n            uint256 i;\r\n            for(i = 0; i < totalPlayers; i++){\r\n                if(ownerOf(i) == user){\r\n                    result[resultIndex] = i;\r\n                    resultIndex++;\r\n                }\r\n                \r\n            }\r\n            return result;\r\n        }\r\n    }\r\n\r\n    function giftPlayer(uint tokenId, address newOwner) public {\r\n        require (ownerOf(tokenId) == msg.sender);\r\n        safeTransferFrom(msg.sender, newOwner, tokenId, \"\");\r\n    }\r\n\r\n    function updateEquipment(uint token, uint sku, uint playerid) public {\r\n        uint tokenBalance = pbProShopFactory.balanceOf(msg.sender, token);\r\n        require(tokenBalance >= 1);\r\n        _tokenDetails[playerid].equippedJersey = sku;\r\n        _tokenDetails[playerid].equippedToken = token;    \r\n        pbProShopFactory.burnOnEquip(msg.sender, token);\r\n    }\r\n\r\n    function removeEquipment(uint playerid) public {\r\n        require(_tokenDetails[playerid].equippedToken != 0);\r\n        uint returnToken;\r\n        returnToken = _tokenDetails[playerid].equippedToken;\r\n        _tokenDetails[playerid].equippedJersey = 0;\r\n        _tokenDetails[playerid].equippedToken = 0;    \r\n        pbProShopFactory.mintOnUnequip(msg.sender, returnToken);\r\n    }\r\n\r\n    function assignToTeam(uint teamId, uint position, uint playerid, uint teamDna) public {\r\n        require(ownerOf(playerid) == msg.sender);\r\n        require(pbTeams.getTokenDetails(teamId).ownerAddress == msg.sender);\r\n         _tokenDetails[playerid].teamId = teamId;\r\n         _tokenDetails[playerid].position = position;\r\n         _tokenDetails[playerid].teamDna = teamDna;\r\n         uint playerOp = _tokenDetails[playerid].offence;\r\n         uint playerDp = _tokenDetails[playerid].defence;\r\n         pbTeams.addStatsToTeam(teamId, msg.sender, playerOp, playerDp);\r\n    }\r\n\r\n    function removeFromTeam(uint teamId, uint playerid) public {\r\n        require(ownerOf(playerid) == msg.sender);\r\n        require(pbTeams.getTokenDetails(teamId).ownerAddress == msg.sender);\r\n         _tokenDetails[playerid].teamId = 0;\r\n         _tokenDetails[playerid].position = 0;\r\n         _tokenDetails[playerid].teamDna = 0;\r\n         uint playerOp = _tokenDetails[playerid].offence;\r\n         uint playerDp = _tokenDetails[playerid].defence;\r\n         pbTeams.removeStatsFromTeam(teamId, msg.sender, playerOp, playerDp);\r\n    }\r\n\r\n    function addOp(uint tokenId, uint qty, address owner) public onlyPBXP {\r\n       _tokenDetails[tokenId].offence = _tokenDetails[tokenId].offence + qty;\r\n       if(_tokenDetails[tokenId].teamId != 0){\r\n        pbTeams.addOPToTeam(_tokenDetails[tokenId].teamId,owner, qty);\r\n       }\r\n    }\r\n\r\n    function addDp(uint tokenId, uint qty, address owner) public onlyPBXP {\r\n       _tokenDetails[tokenId].defence = _tokenDetails[tokenId].defence + qty;\r\n       if(_tokenDetails[tokenId].teamId != 0){\r\n           pbTeams.addDPToTeam(_tokenDetails[tokenId].teamId, owner, qty);\r\n       }\r\n    }\r\n\r\n    function _generateRandDna (address sender, uint randHelper) public view returns (uint){\r\n        uint rand = uint(keccak256(abi.encodePacked(block.timestamp, block.difficulty, sender, randHelper)));\r\n        return rand % dnaModulus;\r\n    }\r\n\r\n    function _generateRandAtrrib (address sender, uint mod, uint base, uint randHelper) public view returns (uint){\r\n        uint operator = 0;\r\n        uint i;\r\n        for( i = 0; i < bellCurveIterations; i++) {\r\n            operator = operator + (uint(keccak256(abi.encodePacked(randHelper, i, block.difficulty, block.timestamp, sender))) % mod);\r\n        }\r\n        uint primaryAttrib = operator/bellCurveIterations;\r\n        return primaryAttrib + base;\r\n    }\r\n\r\n    function getTeamOP (uint _teamId) public view returns (uint) {\r\n            uint resultIndex = 0;\r\n            uint i;\r\n            for(i = 0; i < nextId; i++){\r\n                if(getTokenDetails(i).teamId == _teamId){\r\n                    resultIndex = resultIndex + getTokenDetails(i).offence; \r\n            }\r\n        }\r\n        return resultIndex;\r\n    }\r\n\r\n    function getTeamDP (uint _teamId) public view returns (uint) {\r\n            uint resultIndex = 0;\r\n            uint i;\r\n            for(i = 0; i < nextId; i++){\r\n                if(getTokenDetails(i).teamId == _teamId){\r\n                    resultIndex = resultIndex + getTokenDetails(i).defence; \r\n            }\r\n        }\r\n        return resultIndex;\r\n    }\r\n\r\n    // function withdrawBuddies(address payable _to, uint _amount) public onlyAdmin {\r\n    //     _to.transfer(_amount);\r\n    // }\r\n\r\n}\r\n",
  "sourcePath": "O:\\Projects\\puck-buddies\\contracts\\PBPlayers.sol",
  "compiler": {
    "name": "solc",
    "version": "0.8.6+commit.11564f7e.Emscripten.clang"
  },
  "schemaVersion": "3.4.3",
  "updatedAt": "2021-11-09T03:35:07.155Z",
  "networkType": "ethereum",
  "devdoc": {
    "kind": "dev",
    "methods": {
      "approve(address,uint256)": {
        "details": "See {IERC721-approve}."
      },
      "balanceOf(address)": {
        "details": "See {IERC721-balanceOf}."
      },
      "getApproved(uint256)": {
        "details": "See {IERC721-getApproved}."
      },
      "isApprovedForAll(address,address)": {
        "details": "See {IERC721-isApprovedForAll}."
      },
      "name()": {
        "details": "See {IERC721Metadata-name}."
      },
      "ownerOf(uint256)": {
        "details": "See {IERC721-ownerOf}."
      },
      "safeTransferFrom(address,address,uint256)": {
        "details": "See {IERC721-safeTransferFrom}."
      },
      "safeTransferFrom(address,address,uint256,bytes)": {
        "details": "See {IERC721-safeTransferFrom}."
      },
      "setApprovalForAll(address,bool)": {
        "details": "See {IERC721-setApprovalForAll}."
      },
      "supportsInterface(bytes4)": {
        "details": "See {IERC165-supportsInterface}."
      },
      "symbol()": {
        "details": "See {IERC721Metadata-symbol}."
      },
      "tokenURI(uint256)": {
        "details": "See {IERC721Metadata-tokenURI}."
      },
      "transferFrom(address,address,uint256)": {
        "details": "See {IERC721-transferFrom}."
      }
    },
    "version": 1
  },
  "userdoc": {
    "kind": "user",
    "methods": {},
    "version": 1
  }
}