{
  "contractName": "PBPlayers",
  "abi": [
    {
      "inputs": [
        {
          "internalType": "address",
          "name": "_buddiesCoinAddress",
          "type": "address"
        },
        {
          "internalType": "uint256",
          "name": "_mintCost1",
          "type": "uint256"
        },
        {
          "internalType": "uint256",
          "name": "_mintCost2",
          "type": "uint256"
        },
        {
          "internalType": "uint256",
          "name": "_mintCost3",
          "type": "uint256"
        },
        {
          "internalType": "uint256",
          "name": "_ageoutSeconds",
          "type": "uint256"
        }
      ],
      "stateMutability": "nonpayable",
      "type": "constructor"
    },
    {
      "anonymous": false,
      "inputs": [
        {
          "indexed": true,
          "internalType": "address",
          "name": "owner",
          "type": "address"
        },
        {
          "indexed": true,
          "internalType": "address",
          "name": "approved",
          "type": "address"
        },
        {
          "indexed": true,
          "internalType": "uint256",
          "name": "tokenId",
          "type": "uint256"
        }
      ],
      "name": "Approval",
      "type": "event"
    },
    {
      "anonymous": false,
      "inputs": [
        {
          "indexed": true,
          "internalType": "address",
          "name": "owner",
          "type": "address"
        },
        {
          "indexed": true,
          "internalType": "address",
          "name": "operator",
          "type": "address"
        },
        {
          "indexed": false,
          "internalType": "bool",
          "name": "approved",
          "type": "bool"
        }
      ],
      "name": "ApprovalForAll",
      "type": "event"
    },
    {
      "anonymous": false,
      "inputs": [
        {
          "indexed": true,
          "internalType": "address",
          "name": "from",
          "type": "address"
        },
        {
          "indexed": true,
          "internalType": "address",
          "name": "to",
          "type": "address"
        },
        {
          "indexed": true,
          "internalType": "uint256",
          "name": "tokenId",
          "type": "uint256"
        }
      ],
      "name": "Transfer",
      "type": "event"
    },
    {
      "anonymous": false,
      "inputs": [
        {
          "indexed": false,
          "internalType": "uint256",
          "name": "tokenId",
          "type": "uint256"
        }
      ],
      "name": "newSuperstar",
      "type": "event"
    },
    {
      "inputs": [
        {
          "internalType": "uint256",
          "name": "",
          "type": "uint256"
        }
      ],
      "name": "_tokenDetails",
      "outputs": [
        {
          "internalType": "uint256",
          "name": "offence",
          "type": "uint256"
        },
        {
          "internalType": "uint256",
          "name": "defence",
          "type": "uint256"
        },
        {
          "internalType": "uint256",
          "name": "dna",
          "type": "uint256"
        },
        {
          "internalType": "uint256",
          "name": "playertype",
          "type": "uint256"
        },
        {
          "internalType": "uint256",
          "name": "mainColor",
          "type": "uint256"
        },
        {
          "internalType": "uint256",
          "name": "ageoutTimestamp",
          "type": "uint256"
        },
        {
          "internalType": "uint256",
          "name": "draftTimestamp",
          "type": "uint256"
        },
        {
          "internalType": "uint256",
          "name": "equippedJersey",
          "type": "uint256"
        },
        {
          "internalType": "uint256",
          "name": "equippedToken",
          "type": "uint256"
        }
      ],
      "stateMutability": "view",
      "type": "function",
      "constant": true
    },
    {
      "inputs": [
        {
          "internalType": "address",
          "name": "to",
          "type": "address"
        },
        {
          "internalType": "uint256",
          "name": "tokenId",
          "type": "uint256"
        }
      ],
      "name": "approve",
      "outputs": [],
      "stateMutability": "nonpayable",
      "type": "function"
    },
    {
      "inputs": [
        {
          "internalType": "address",
          "name": "owner",
          "type": "address"
        }
      ],
      "name": "balanceOf",
      "outputs": [
        {
          "internalType": "uint256",
          "name": "",
          "type": "uint256"
        }
      ],
      "stateMutability": "view",
      "type": "function",
      "constant": true
    },
    {
      "inputs": [],
      "name": "buddies",
      "outputs": [
        {
          "internalType": "contract IERC20",
          "name": "",
          "type": "address"
        }
      ],
      "stateMutability": "view",
      "type": "function",
      "constant": true
    },
    {
      "inputs": [
        {
          "internalType": "uint256",
          "name": "tokenId",
          "type": "uint256"
        }
      ],
      "name": "getApproved",
      "outputs": [
        {
          "internalType": "address",
          "name": "",
          "type": "address"
        }
      ],
      "stateMutability": "view",
      "type": "function",
      "constant": true
    },
    {
      "inputs": [
        {
          "internalType": "address",
          "name": "owner",
          "type": "address"
        },
        {
          "internalType": "address",
          "name": "operator",
          "type": "address"
        }
      ],
      "name": "isApprovedForAll",
      "outputs": [
        {
          "internalType": "bool",
          "name": "",
          "type": "bool"
        }
      ],
      "stateMutability": "view",
      "type": "function",
      "constant": true
    },
    {
      "inputs": [],
      "name": "name",
      "outputs": [
        {
          "internalType": "string",
          "name": "",
          "type": "string"
        }
      ],
      "stateMutability": "view",
      "type": "function",
      "constant": true
    },
    {
      "inputs": [
        {
          "internalType": "uint256",
          "name": "tokenId",
          "type": "uint256"
        }
      ],
      "name": "ownerOf",
      "outputs": [
        {
          "internalType": "address",
          "name": "",
          "type": "address"
        }
      ],
      "stateMutability": "view",
      "type": "function",
      "constant": true
    },
    {
      "inputs": [],
      "name": "pbPlayerMarketplace",
      "outputs": [
        {
          "internalType": "contract PBPlayerMarketplace",
          "name": "",
          "type": "address"
        }
      ],
      "stateMutability": "view",
      "type": "function",
      "constant": true
    },
    {
      "inputs": [],
      "name": "pbProShopFactory",
      "outputs": [
        {
          "internalType": "contract PBProShopFactory",
          "name": "",
          "type": "address"
        }
      ],
      "stateMutability": "view",
      "type": "function",
      "constant": true
    },
    {
      "inputs": [],
      "name": "pbTeams",
      "outputs": [
        {
          "internalType": "contract PBTeams",
          "name": "",
          "type": "address"
        }
      ],
      "stateMutability": "view",
      "type": "function",
      "constant": true
    },
    {
      "inputs": [],
      "name": "pbxp",
      "outputs": [
        {
          "internalType": "contract PBXP",
          "name": "",
          "type": "address"
        }
      ],
      "stateMutability": "view",
      "type": "function",
      "constant": true
    },
    {
      "inputs": [
        {
          "internalType": "address",
          "name": "from",
          "type": "address"
        },
        {
          "internalType": "address",
          "name": "to",
          "type": "address"
        },
        {
          "internalType": "uint256",
          "name": "tokenId",
          "type": "uint256"
        }
      ],
      "name": "safeTransferFrom",
      "outputs": [],
      "stateMutability": "nonpayable",
      "type": "function"
    },
    {
      "inputs": [
        {
          "internalType": "address",
          "name": "from",
          "type": "address"
        },
        {
          "internalType": "address",
          "name": "to",
          "type": "address"
        },
        {
          "internalType": "uint256",
          "name": "tokenId",
          "type": "uint256"
        },
        {
          "internalType": "bytes",
          "name": "_data",
          "type": "bytes"
        }
      ],
      "name": "safeTransferFrom",
      "outputs": [],
      "stateMutability": "nonpayable",
      "type": "function"
    },
    {
      "inputs": [
        {
          "internalType": "address",
          "name": "operator",
          "type": "address"
        },
        {
          "internalType": "bool",
          "name": "approved",
          "type": "bool"
        }
      ],
      "name": "setApprovalForAll",
      "outputs": [],
      "stateMutability": "nonpayable",
      "type": "function"
    },
    {
      "inputs": [
        {
          "internalType": "bytes4",
          "name": "interfaceId",
          "type": "bytes4"
        }
      ],
      "name": "supportsInterface",
      "outputs": [
        {
          "internalType": "bool",
          "name": "",
          "type": "bool"
        }
      ],
      "stateMutability": "view",
      "type": "function",
      "constant": true
    },
    {
      "inputs": [],
      "name": "symbol",
      "outputs": [
        {
          "internalType": "string",
          "name": "",
          "type": "string"
        }
      ],
      "stateMutability": "view",
      "type": "function",
      "constant": true
    },
    {
      "inputs": [
        {
          "internalType": "uint256",
          "name": "tokenId",
          "type": "uint256"
        }
      ],
      "name": "tokenURI",
      "outputs": [
        {
          "internalType": "string",
          "name": "",
          "type": "string"
        }
      ],
      "stateMutability": "view",
      "type": "function",
      "constant": true
    },
    {
      "inputs": [
        {
          "internalType": "address",
          "name": "from",
          "type": "address"
        },
        {
          "internalType": "address",
          "name": "to",
          "type": "address"
        },
        {
          "internalType": "uint256",
          "name": "tokenId",
          "type": "uint256"
        }
      ],
      "name": "transferFrom",
      "outputs": [],
      "stateMutability": "nonpayable",
      "type": "function"
    },
    {
      "inputs": [],
      "name": "isAdmin",
      "outputs": [
        {
          "internalType": "bool",
          "name": "",
          "type": "bool"
        }
      ],
      "stateMutability": "view",
      "type": "function",
      "constant": true
    },
    {
      "inputs": [],
      "name": "getPBPlayersAddress",
      "outputs": [
        {
          "internalType": "address",
          "name": "",
          "type": "address"
        }
      ],
      "stateMutability": "view",
      "type": "function",
      "constant": true
    },
    {
      "inputs": [
        {
          "internalType": "address",
          "name": "_buddiesCoinAddress",
          "type": "address"
        }
      ],
      "name": "updateBuddiesCoinAddress",
      "outputs": [],
      "stateMutability": "nonpayable",
      "type": "function"
    },
    {
      "inputs": [
        {
          "internalType": "address",
          "name": "_pbTeamsAddress",
          "type": "address"
        }
      ],
      "name": "updatePBTeamsAddress",
      "outputs": [],
      "stateMutability": "nonpayable",
      "type": "function"
    },
    {
      "inputs": [
        {
          "internalType": "address",
          "name": "_proshopAddress",
          "type": "address"
        }
      ],
      "name": "updatePBProShopFactoryAddress",
      "outputs": [],
      "stateMutability": "nonpayable",
      "type": "function"
    },
    {
      "inputs": [
        {
          "internalType": "address",
          "name": "_pbPlayerMarketplaceAddress",
          "type": "address"
        }
      ],
      "name": "updatePBPlayerMarketplaceAddress",
      "outputs": [],
      "stateMutability": "nonpayable",
      "type": "function"
    },
    {
      "inputs": [
        {
          "internalType": "address",
          "name": "_pbxpAddress",
          "type": "address"
        }
      ],
      "name": "updatePBXPaddress",
      "outputs": [],
      "stateMutability": "nonpayable",
      "type": "function"
    },
    {
      "inputs": [
        {
          "internalType": "uint256",
          "name": "_mintCost1",
          "type": "uint256"
        },
        {
          "internalType": "uint256",
          "name": "_mintCost2",
          "type": "uint256"
        },
        {
          "internalType": "uint256",
          "name": "_mintCost3",
          "type": "uint256"
        },
        {
          "internalType": "uint256",
          "name": "_ageoutSeconds",
          "type": "uint256"
        }
      ],
      "name": "updateVariables",
      "outputs": [],
      "stateMutability": "nonpayable",
      "type": "function"
    },
    {
      "inputs": [],
      "name": "getMintingCosts",
      "outputs": [
        {
          "internalType": "uint256",
          "name": "",
          "type": "uint256"
        },
        {
          "internalType": "uint256",
          "name": "",
          "type": "uint256"
        },
        {
          "internalType": "uint256",
          "name": "",
          "type": "uint256"
        },
        {
          "internalType": "uint256",
          "name": "",
          "type": "uint256"
        }
      ],
      "stateMutability": "view",
      "type": "function",
      "constant": true
    },
    {
      "inputs": [],
      "name": "getNextId",
      "outputs": [
        {
          "internalType": "uint256",
          "name": "",
          "type": "uint256"
        }
      ],
      "stateMutability": "view",
      "type": "function",
      "constant": true
    },
    {
      "inputs": [
        {
          "internalType": "uint256",
          "name": "tokenId",
          "type": "uint256"
        }
      ],
      "name": "getTokenDetails",
      "outputs": [
        {
          "components": [
            {
              "internalType": "uint256",
              "name": "offence",
              "type": "uint256"
            },
            {
              "internalType": "uint256",
              "name": "defence",
              "type": "uint256"
            },
            {
              "internalType": "uint256",
              "name": "dna",
              "type": "uint256"
            },
            {
              "internalType": "uint256",
              "name": "playertype",
              "type": "uint256"
            },
            {
              "internalType": "uint256",
              "name": "mainColor",
              "type": "uint256"
            },
            {
              "internalType": "uint256",
              "name": "ageoutTimestamp",
              "type": "uint256"
            },
            {
              "internalType": "uint256",
              "name": "draftTimestamp",
              "type": "uint256"
            },
            {
              "internalType": "uint256",
              "name": "equippedJersey",
              "type": "uint256"
            },
            {
              "internalType": "uint256",
              "name": "equippedToken",
              "type": "uint256"
            }
          ],
          "internalType": "struct PBPlayers.Player",
          "name": "",
          "type": "tuple"
        }
      ],
      "stateMutability": "view",
      "type": "function",
      "constant": true
    },
    {
      "inputs": [
        {
          "internalType": "uint256",
          "name": "value",
          "type": "uint256"
        },
        {
          "internalType": "uint256",
          "name": "playerType",
          "type": "uint256"
        }
      ],
      "name": "mintPlayer",
      "outputs": [],
      "stateMutability": "nonpayable",
      "type": "function"
    },
    {
      "inputs": [
        {
          "internalType": "uint256",
          "name": "_op",
          "type": "uint256"
        },
        {
          "internalType": "uint256",
          "name": "_dp",
          "type": "uint256"
        },
        {
          "internalType": "address",
          "name": "minter",
          "type": "address"
        },
        {
          "internalType": "uint256",
          "name": "playerType",
          "type": "uint256"
        }
      ],
      "name": "mintSixPackPlayer",
      "outputs": [
        {
          "internalType": "uint256",
          "name": "",
          "type": "uint256"
        }
      ],
      "stateMutability": "nonpayable",
      "type": "function"
    },
    {
      "inputs": [
        {
          "internalType": "uint256",
          "name": "a",
          "type": "uint256"
        }
      ],
      "name": "_randHelper",
      "outputs": [
        {
          "internalType": "uint256",
          "name": "",
          "type": "uint256"
        }
      ],
      "stateMutability": "view",
      "type": "function",
      "constant": true
    },
    {
      "inputs": [
        {
          "internalType": "address",
          "name": "playerOwner",
          "type": "address"
        },
        {
          "internalType": "uint256",
          "name": "opScore",
          "type": "uint256"
        },
        {
          "internalType": "uint256",
          "name": "dpScore",
          "type": "uint256"
        },
        {
          "internalType": "uint256",
          "name": "dna",
          "type": "uint256"
        },
        {
          "internalType": "uint256",
          "name": "playerType",
          "type": "uint256"
        }
      ],
      "name": "mintSuperstar",
      "outputs": [],
      "stateMutability": "nonpayable",
      "type": "function"
    },
    {
      "inputs": [
        {
          "internalType": "address",
          "name": "user",
          "type": "address"
        }
      ],
      "name": "getAllTokensForUser",
      "outputs": [
        {
          "internalType": "uint256[]",
          "name": "",
          "type": "uint256[]"
        }
      ],
      "stateMutability": "view",
      "type": "function",
      "constant": true
    },
    {
      "inputs": [
        {
          "internalType": "uint256",
          "name": "tokenId",
          "type": "uint256"
        },
        {
          "internalType": "address",
          "name": "newOwner",
          "type": "address"
        }
      ],
      "name": "giftPlayer",
      "outputs": [],
      "stateMutability": "nonpayable",
      "type": "function"
    },
    {
      "inputs": [
        {
          "internalType": "uint256",
          "name": "token",
          "type": "uint256"
        },
        {
          "internalType": "uint256",
          "name": "sku",
          "type": "uint256"
        },
        {
          "internalType": "uint256",
          "name": "playerid",
          "type": "uint256"
        }
      ],
      "name": "updateEquipment",
      "outputs": [],
      "stateMutability": "nonpayable",
      "type": "function"
    },
    {
      "inputs": [
        {
          "internalType": "uint256",
          "name": "playerid",
          "type": "uint256"
        }
      ],
      "name": "removeEquipment",
      "outputs": [],
      "stateMutability": "nonpayable",
      "type": "function"
    },
    {
      "inputs": [
        {
          "internalType": "uint256",
          "name": "tokenId",
          "type": "uint256"
        },
        {
          "internalType": "uint256",
          "name": "qty",
          "type": "uint256"
        },
        {
          "internalType": "address",
          "name": "owner",
          "type": "address"
        }
      ],
      "name": "addOp",
      "outputs": [],
      "stateMutability": "nonpayable",
      "type": "function"
    },
    {
      "inputs": [
        {
          "internalType": "uint256",
          "name": "tokenId",
          "type": "uint256"
        },
        {
          "internalType": "uint256",
          "name": "qty",
          "type": "uint256"
        },
        {
          "internalType": "address",
          "name": "owner",
          "type": "address"
        }
      ],
      "name": "addDp",
      "outputs": [],
      "stateMutability": "nonpayable",
      "type": "function"
    },
    {
      "inputs": [
        {
          "internalType": "address",
          "name": "sender",
          "type": "address"
        },
        {
          "internalType": "uint256",
          "name": "randHelper",
          "type": "uint256"
        }
      ],
      "name": "_generateRandDna",
      "outputs": [
        {
          "internalType": "uint256",
          "name": "",
          "type": "uint256"
        }
      ],
      "stateMutability": "view",
      "type": "function",
      "constant": true
    },
    {
      "inputs": [
        {
          "internalType": "address",
          "name": "sender",
          "type": "address"
        },
        {
          "internalType": "uint256",
          "name": "mod",
          "type": "uint256"
        },
        {
          "internalType": "uint256",
          "name": "base",
          "type": "uint256"
        },
        {
          "internalType": "uint256",
          "name": "randHelper",
          "type": "uint256"
        }
      ],
      "name": "_generateRandAtrrib",
      "outputs": [
        {
          "internalType": "uint256",
          "name": "",
          "type": "uint256"
        }
      ],
      "stateMutability": "view",
      "type": "function",
      "constant": true
    },
    {
      "inputs": [],
      "name": "getBuddiesOnContract",
      "outputs": [
        {
          "internalType": "uint256",
          "name": "",
          "type": "uint256"
        }
      ],
      "stateMutability": "view",
      "type": "function",
      "constant": true
    },
    {
      "inputs": [
        {
          "internalType": "uint256",
          "name": "value",
          "type": "uint256"
        }
      ],
      "name": "withdrawBuddies",
      "outputs": [],
      "stateMutability": "nonpayable",
      "type": "function"
    }
  ],
  "bytecode": "0x6080604052601c600e55600e54600a6200001a919062000364565b600f55600460105560006017553480156200003457600080fd5b5060405162005ebe38038062005ebe83398181016040528101906200005a919062000281565b6040518060400160405280601181526020017f506978656c205075636b20506c617965720000000000000000000000000000008152506040518060400160405280600381526020017f50505000000000000000000000000000000000000000000000000000000000008152508160009080519060200190620000de929190620001a3565b508060019080519060200190620000f7929190620001a3565b50505033600660006101000a81548173ffffffffffffffffffffffffffffffffffffffff021916908373ffffffffffffffffffffffffffffffffffffffff16021790555084601260006101000a81548173ffffffffffffffffffffffffffffffffffffffff021916908373ffffffffffffffffffffffffffffffffffffffff1602179055508360098190555082600a8190555081600b81905550806011819055505050505050620005b9565b828054620001b190620004df565b90600052602060002090601f016020900481019282620001d5576000855562000221565b82601f10620001f057805160ff191683800117855562000221565b8280016001018555821562000221579182015b828111156200022057825182559160200191906001019062000203565b5b50905062000230919062000234565b5090565b5b808211156200024f57600081600090555060010162000235565b5090565b600081519050620002648162000585565b92915050565b6000815190506200027b816200059f565b92915050565b600080600080600060a08688031215620002a0576200029f62000573565b5b6000620002b08882890162000253565b9550506020620002c3888289016200026a565b9450506040620002d6888289016200026a565b9350506060620002e9888289016200026a565b9250506080620002fc888289016200026a565b9150509295509295909350565b6000808291508390505b60018511156200035b5780860481111562000333576200033262000515565b5b6001851615620003435780820291505b8081029050620003538562000578565b945062000313565b94509492505050565b60006200037182620004d5565b91506200037e83620004d5565b9250620003ad7fffffffffffffffffffffffffffffffffffffffffffffffffffffffffffffffff8484620003b5565b905092915050565b600082620003c757600190506200049a565b81620003d757600090506200049a565b8160018114620003f05760028114620003fb5762000431565b60019150506200049a565b60ff84111562000410576200040f62000515565b5b8360020a9150848211156200042a576200042962000515565b5b506200049a565b5060208310610133831016604e8410600b84101617156200046b5782820a90508381111562000465576200046462000515565b5b6200049a565b6200047a848484600162000309565b9250905081840481111562000494576200049362000515565b5b81810290505b9392505050565b6000620004ae82620004b5565b9050919050565b600073ffffffffffffffffffffffffffffffffffffffff82169050919050565b6000819050919050565b60006002820490506001821680620004f857607f821691505b602082108114156200050f576200050e62000544565b5b50919050565b7f4e487b7100000000000000000000000000000000000000000000000000000000600052601160045260246000fd5b7f4e487b7100000000000000000000000000000000000000000000000000000000600052602260045260246000fd5b600080fd5b60008160011c9050919050565b6200059081620004a1565b81146200059c57600080fd5b50565b620005aa81620004d5565b8114620005b657600080fd5b50565b6158f580620005c96000396000f3fe608060405234801561001057600080fd5b50600436106102745760003560e01c80637a560b2211610151578063b88d4fde116100c3578063d4536c4e11610087578063d4536c4e146107ad578063e00c01c5146107ce578063e985e9c5146107ec578063efe6e41c1461081c578063f0258a7814610838578063f8966c4f1461085457610274565b8063b88d4fde146106e3578063bc968326146106ff578063c1e037281461071d578063c87b56dd1461074d578063c94833831461077d57610274565b8063a22cb46511610115578063a22cb46514610623578063a2a8728d1461063f578063a561c8511461065b578063a8de071e14610679578063b42f6eb2146106a9578063b6db75a0146106c557610274565b80637a560b22146105515780637c6e686f1461058157806382de8fe91461059d57806385f7229a146105cd57806395d89b411461060557610274565b80633f064841116101ea5780636352211e116101ae5780636352211e146104695780636ba1df63146104995780636bf082da146104c957806370a08231146104e5578063721f77971461051557806373034d081461053357610274565b80633f064841146103d957806342842e0e146103f75780634a594c12146104135780635d632faf14610431578063622681691461044d57610274565b806318894cf81161023c57806318894cf81461032f5780631ebc19361461034d57806323b872dd1461036957806326d58a7b146103855780632919e4ff146103a15780632bc3c2f9146103bd57610274565b806301ffc9a71461027957806306fdde03146102a9578063081812fc146102c7578063095ea7b3146102f7578063143c806314610313575b600080fd5b610293600480360381019061028e9190613fe9565b610870565b6040516102a091906149d8565b60405180910390f35b6102b1610952565b6040516102be9190614a7a565b60405180910390f35b6102e160048036038101906102dc9190614043565b6109e4565b6040516102ee91906148c6565b60405180910390f35b610311600480360381019061030c9190613e9a565b610a69565b005b61032d60048036038101906103289190613d17565b610b81565b005b610337610c96565b6040516103449190614a5f565b60405180910390f35b61036760048036038101906103629190614043565b610cbc565b005b610383600480360381019061037e9190613d84565b610e01565b005b61039f600480360381019061039a9190613d17565b610e61565b005b6103bb60048036038101906103b69190613f41565b610f35565b005b6103d760048036038101906103d291906141d7565b6112d3565b005b6103e161145c565b6040516103ee9190614d58565b60405180910390f35b610411600480360381019061040c9190613d84565b61159e565b005b61041b6115be565b60405161042891906149f3565b60405180910390f35b61044b60048036038101906104469190613d17565b6115e4565b005b610467600480360381019061046291906140dd565b6116b8565b005b610483600480360381019061047e9190614043565b611c64565b60405161049091906148c6565b60405180910390f35b6104b360048036038101906104ae9190613e9a565b611d16565b6040516104c09190614d58565b60405180910390f35b6104e360048036038101906104de9190613d17565b611d62565b005b6104ff60048036038101906104fa9190613d17565b611e77565b60405161050c9190614d58565b60405180910390f35b61051d611f2f565b60405161052a9190614a29565b60405180910390f35b61053b611f55565b6040516105489190614a0e565b60405180910390f35b61056b60048036038101906105669190614170565b611f7b565b6040516105789190614d58565b60405180910390f35b61059b6004803603810190610596919061409d565b6123ac565b005b6105b760048036038101906105b29190613d17565b61240b565b6040516105c491906149b6565b60405180910390f35b6105e760048036038101906105e29190614043565b612561565b6040516105fc99989796959493929190614db8565b60405180910390f35b61060d6125af565b60405161061a9190614a7a565b60405180910390f35b61063d60048036038101906106389190613e5a565b612641565b005b61065960048036038101906106549190613d17565b6127c2565b005b610663612896565b60405161067091906148c6565b60405180910390f35b610693600480360381019061068e9190613eda565b61289e565b6040516106a09190614d58565b60405180910390f35b6106c360048036038101906106be919061422a565b61293a565b005b6106cd6129ec565b6040516106da91906149d8565b60405180910390f35b6106fd60048036038101906106f89190613dd7565b612a55565b005b610707612ab7565b6040516107149190614d58565b60405180910390f35b61073760048036038101906107329190614043565b612ac1565b6040516107449190614d3c565b60405180910390f35b61076760048036038101906107629190614043565b612b49565b6040516107749190614a7a565b60405180910390f35b61079760048036038101906107929190614043565b612bf0565b6040516107a49190614d58565b60405180910390f35b6107b5612c07565b6040516107c59493929190614d73565b60405180910390f35b6107d6612c27565b6040516107e39190614a44565b60405180910390f35b61080660048036038101906108019190613d44565b612c4d565b60405161081391906149d8565b60405180910390f35b6108366004803603810190610831919061411d565b612ce1565b005b610852600480360381019061084d919061411d565b612e82565b005b61086e60048036038101906108699190614043565b613023565b005b60007f80ac58cd000000000000000000000000000000000000000000000000000000007bffffffffffffffffffffffffffffffffffffffffffffffffffffffff1916827bffffffffffffffffffffffffffffffffffffffffffffffffffffffff1916148061093b57507f5b5e139f000000000000000000000000000000000000000000000000000000007bffffffffffffffffffffffffffffffffffffffffffffffffffffffff1916827bffffffffffffffffffffffffffffffffffffffffffffffffffffffff1916145b8061094b575061094a8261312d565b5b9050919050565b6060600080546109619061513c565b80601f016020809104026020016040519081016040528092919081815260200182805461098d9061513c565b80156109da5780601f106109af576101008083540402835291602001916109da565b820191906000526020600020905b8154815290600101906020018083116109bd57829003601f168201915b5050505050905090565b60006109ef82613197565b610a2e576040517f08c379a0000000000000000000000000000000000000000000000000000000008152600401610a2590614c5c565b60405180910390fd5b6004600083815260200190815260200160002060009054906101000a900473ffffffffffffffffffffffffffffffffffffffff169050919050565b6000610a7482611c64565b90508073ffffffffffffffffffffffffffffffffffffffff168373ffffffffffffffffffffffffffffffffffffffff161415610ae5576040517f08c379a0000000000000000000000000000000000000000000000000000000008152600401610adc90614cbc565b60405180910390fd5b8073ffffffffffffffffffffffffffffffffffffffff16610b04613203565b73ffffffffffffffffffffffffffffffffffffffff161480610b335750610b3281610b2d613203565b612c4d565b5b610b72576040517f08c379a0000000000000000000000000000000000000000000000000000000008152600401610b6990614bdc565b60405180910390fd5b610b7c838361320b565b505050565b3373ffffffffffffffffffffffffffffffffffffffff16600660009054906101000a900473ffffffffffffffffffffffffffffffffffffffff1673ffffffffffffffffffffffffffffffffffffffff1614610c11576040517f08c379a0000000000000000000000000000000000000000000000000000000008152600401610c0890614b1c565b60405180910390fd5b80601660006101000a81548173ffffffffffffffffffffffffffffffffffffffff021916908373ffffffffffffffffffffffffffffffffffffffff16021790555080600860006101000a81548173ffffffffffffffffffffffffffffffffffffffff021916908373ffffffffffffffffffffffffffffffffffffffff16021790555050565b601660009054906101000a900473ffffffffffffffffffffffffffffffffffffffff1681565b3373ffffffffffffffffffffffffffffffffffffffff16600660009054906101000a900473ffffffffffffffffffffffffffffffffffffffff1673ffffffffffffffffffffffffffffffffffffffff1614610d4c576040517f08c379a0000000000000000000000000000000000000000000000000000000008152600401610d4390614b1c565b60405180910390fd5b601260009054906101000a900473ffffffffffffffffffffffffffffffffffffffff1673ffffffffffffffffffffffffffffffffffffffff166323b872dd3033846040518463ffffffff1660e01b8152600401610dab9392919061490a565b602060405180830381600087803b158015610dc557600080fd5b505af1158015610dd9573d6000803e3d6000fd5b505050506040513d601f19601f82011682018060405250810190610dfd9190613fbc565b5050565b610e12610e0c613203565b826132c4565b610e51576040517f08c379a0000000000000000000000000000000000000000000000000000000008152600401610e4890614cdc565b60405180910390fd5b610e5c8383836133a2565b505050565b3373ffffffffffffffffffffffffffffffffffffffff16600660009054906101000a900473ffffffffffffffffffffffffffffffffffffffff1673ffffffffffffffffffffffffffffffffffffffff1614610ef1576040517f08c379a0000000000000000000000000000000000000000000000000000000008152600401610ee890614b1c565b60405180910390fd5b80601360006101000a81548173ffffffffffffffffffffffffffffffffffffffff021916908373ffffffffffffffffffffffffffffffffffffffff16021790555050565b3373ffffffffffffffffffffffffffffffffffffffff16600660009054906101000a900473ffffffffffffffffffffffffffffffffffffffff1673ffffffffffffffffffffffffffffffffffffffff1614610fc5576040517f08c379a0000000000000000000000000000000000000000000000000000000008152600401610fbc90614b1c565b60405180910390fd5b60018114156110965760405180610120016040528085815260200184815260200183815260200182815260200160008152602001601154426110079190614f17565b8152602001428152602001600081526020016000815250601860006017548152602001908152602001600020600082015181600001556020820151816001015560408201518160020155606082015181600301556080820151816004015560a0820151816005015560c0820151816006015560e082015181600701556101008201518160080155905050611236565b60028114156111675760405180610120016040528085815260200184815260200183815260200182815260200160008152602001601154426110d89190614f17565b8152602001428152602001600081526020016000815250601860006017548152602001908152602001600020600082015181600001556020820151816001015560408201518160020155606082015181600301556080820151816004015560a0820151816005015560c0820151816006015560e082015181600701556101008201518160080155905050611235565b60038114156112345760405180610120016040528085815260200184815260200183815260200182815260200160008152602001601154426111a99190614f17565b8152602001428152602001600081526020016000815250601860006017548152602001908152602001600020600082015181600001556020820151816001015560408201518160020155606082015181600301556080820151816004015560a0820151816005015560c0820151816006015560e0820151816007015561010082015181600801559050505b5b5b611242856017546135fe565b61126f600c60009054906101000a900473ffffffffffffffffffffffffffffffffffffffff166001612641565b601760008154809291906112829061519f565b91905055507f411b384f004565f47f0c20647f30c2d3554c24b48f62090ff947f6607ca96d5660016017546112b79190614f9e565b6040516112c49190614d58565b60405180910390a15050505050565b6000601360009054906101000a900473ffffffffffffffffffffffffffffffffffffffff1673ffffffffffffffffffffffffffffffffffffffff1662fdd58e33866040518363ffffffff1660e01b815260040161133192919061498d565b60206040518083038186803b15801561134957600080fd5b505afa15801561135d573d6000803e3d6000fd5b505050506040513d601f19601f820116820180604052508101906113819190614070565b9050600181101561139157600080fd5b826018600084815260200190815260200160002060070181905550836018600084815260200190815260200160002060080181905550601360009054906101000a900473ffffffffffffffffffffffffffffffffffffffff1673ffffffffffffffffffffffffffffffffffffffff1663f367f20c33866040518363ffffffff1660e01b815260040161142492919061498d565b600060405180830381600087803b15801561143e57600080fd5b505af1158015611452573d6000803e3d6000fd5b5050505050505050565b60003373ffffffffffffffffffffffffffffffffffffffff16600660009054906101000a900473ffffffffffffffffffffffffffffffffffffffff1673ffffffffffffffffffffffffffffffffffffffff16146114ee576040517f08c379a00000000000000000000000000000000000000000000000000000000081526004016114e590614b1c565b60405180910390fd5b601260009054906101000a900473ffffffffffffffffffffffffffffffffffffffff1673ffffffffffffffffffffffffffffffffffffffff166370a08231306040518263ffffffff1660e01b815260040161154991906148c6565b60206040518083038186803b15801561156157600080fd5b505afa158015611575573d6000803e3d6000fd5b505050506040513d601f19601f820116820180604052508101906115999190614070565b905090565b6115b983838360405180602001604052806000815250612a55565b505050565b601260009054906101000a900473ffffffffffffffffffffffffffffffffffffffff1681565b3373ffffffffffffffffffffffffffffffffffffffff16600660009054906101000a900473ffffffffffffffffffffffffffffffffffffffff1673ffffffffffffffffffffffffffffffffffffffff1614611674576040517f08c379a000000000000000000000000000000000000000000000000000000000815260040161166b90614b1c565b60405180910390fd5b80601260006101000a81548173ffffffffffffffffffffffffffffffffffffffff021916908373ffffffffffffffffffffffffffffffffffffffff16021790555050565b6000601754141561175457600660009054906101000a900473ffffffffffffffffffffffffffffffffffffffff1673ffffffffffffffffffffffffffffffffffffffff163373ffffffffffffffffffffffffffffffffffffffff1614611753576040517f08c379a000000000000000000000000000000000000000000000000000000000815260040161174a90614b1c565b60405180910390fd5b5b6000601260009054906101000a900473ffffffffffffffffffffffffffffffffffffffff1673ffffffffffffffffffffffffffffffffffffffff1663dd62ed3e33306040518363ffffffff1660e01b81526004016117b39291906148e1565b60206040518083038186803b1580156117cb57600080fd5b505afa1580156117df573d6000803e3d6000fd5b505050506040513d601f19601f820116820180604052508101906118039190614070565b905082811015611848576040517f08c379a000000000000000000000000000000000000000000000000000000000815260040161183f90614a9c565b60405180910390fd5b601260009054906101000a900473ffffffffffffffffffffffffffffffffffffffff1673ffffffffffffffffffffffffffffffffffffffff166323b872dd3330866040518463ffffffff1660e01b81526004016118a79392919061490a565b602060405180830381600087803b1580156118c157600080fd5b505af11580156118d5573d6000803e3d6000fd5b505050506040513d601f19601f820116820180604052508101906118f99190613fbc565b506001821415611a0857604051806101200160405280611925336032806119206001612bf0565b61289e565b8152602001611941336032600061193c6002612bf0565b61289e565b8152602001611959336119546001612bf0565b611d16565b815260200183815260200160008152602001601154426119799190614f17565b8152602001428152602001600081526020016000815250601860006017548152602001908152602001600020600082015181600001556020820151816001015560408201518160020155606082015181600301556080820151816004015560a0820151816005015560c0820151816006015560e082015181600701556101008201518160080155905050611c0e565b6002821415611b1657604051806101200160405280611a343360326000611a2f6003612bf0565b61289e565b8152602001611a4f33603280611a4a6004612bf0565b61289e565b8152602001611a6733611a626003612bf0565b611d16565b81526020018381526020016000815260200160115442611a879190614f17565b8152602001428152602001600081526020016000815250601860006017548152602001908152602001600020600082015181600001556020820151816001015560408201518160020155606082015181600301556080820151816004015560a0820151816005015560c0820151816006015560e082015181600701556101008201518160080155905050611c0d565b6003821415611c0c5760405180610120016040528060008152602001611b49336019604b611b446005612bf0565b61289e565b8152602001611b6133611b5c6005612bf0565b611d16565b81526020018381526020016000815260200160115442611b819190614f17565b8152602001428152602001600081526020016000815250601860006017548152602001908152602001600020600082015181600001556020820151816001015560408201518160020155606082015181600301556080820151816004015560a0820151816005015560c0820151816006015560e0820151816007015561010082015181600801559050505b5b5b611c1a336017546135fe565b611c47600c60009054906101000a900473ffffffffffffffffffffffffffffffffffffffff166001612641565b60176000815480929190611c5a9061519f565b9190505550505050565b6000806002600084815260200190815260200160002060009054906101000a900473ffffffffffffffffffffffffffffffffffffffff169050600073ffffffffffffffffffffffffffffffffffffffff168173ffffffffffffffffffffffffffffffffffffffff161415611d0d576040517f08c379a0000000000000000000000000000000000000000000000000000000008152600401611d0490614c1c565b60405180910390fd5b80915050919050565b60008042448585604051602001611d309493929190614819565b6040516020818303038152906040528051906020012060001c9050600f5481611d599190615216565b91505092915050565b3373ffffffffffffffffffffffffffffffffffffffff16600660009054906101000a900473ffffffffffffffffffffffffffffffffffffffff1673ffffffffffffffffffffffffffffffffffffffff1614611df2576040517f08c379a0000000000000000000000000000000000000000000000000000000008152600401611de990614b1c565b60405180910390fd5b80601460006101000a81548173ffffffffffffffffffffffffffffffffffffffff021916908373ffffffffffffffffffffffffffffffffffffffff16021790555080600760006101000a81548173ffffffffffffffffffffffffffffffffffffffff021916908373ffffffffffffffffffffffffffffffffffffffff16021790555050565b60008073ffffffffffffffffffffffffffffffffffffffff168273ffffffffffffffffffffffffffffffffffffffff161415611ee8576040517f08c379a0000000000000000000000000000000000000000000000000000000008152600401611edf90614bfc565b60405180910390fd5b600360008373ffffffffffffffffffffffffffffffffffffffff1673ffffffffffffffffffffffffffffffffffffffff168152602001908152602001600020549050919050565b601360009054906101000a900473ffffffffffffffffffffffffffffffffffffffff1681565b601560009054906101000a900473ffffffffffffffffffffffffffffffffffffffff1681565b60003373ffffffffffffffffffffffffffffffffffffffff16600760009054906101000a900473ffffffffffffffffffffffffffffffffffffffff1673ffffffffffffffffffffffffffffffffffffffff161461200d576040517f08c379a000000000000000000000000000000000000000000000000000000000815260040161200490614afc565b60405180910390fd5b600060175414156120a957600660009054906101000a900473ffffffffffffffffffffffffffffffffffffffff1673ffffffffffffffffffffffffffffffffffffffff163373ffffffffffffffffffffffffffffffffffffffff16146120a8576040517f08c379a000000000000000000000000000000000000000000000000000000000815260040161209f90614b1c565b60405180910390fd5b5b600060175490506001831415612191576040518061012001604052808781526020018681526020016120e4866120df6001612bf0565b611d16565b815260200184815260200160008152602001601154426121049190614f17565b815260200142815260200160008152602001600081525060186000838152602001908152602001600020600082015181600001556020820151816001015560408201518160020155606082015181600301556080820151816004015560a0820151816005015560c0820151816006015560e082015181600701556101008201518160080155905050612351565b6002831415612272576040518061012001604052808781526020018681526020016121c5866121c06003612bf0565b611d16565b815260200184815260200160008152602001601154426121e59190614f17565b815260200142815260200160008152602001600081525060186000838152602001908152602001600020600082015181600001556020820151816001015560408201518160020155606082015181600301556080820151816004015560a0820151816005015560c0820151816006015560e082015181600701556101008201518160080155905050612350565b600383141561234f576040518061012001604052808781526020018681526020016122a6866122a16005612bf0565b611d16565b815260200184815260200160008152602001601154426122c69190614f17565b815260200142815260200160008152602001600081525060186000838152602001908152602001600020600082015181600001556020820151816001015560408201518160020155606082015181600301556080820151816004015560a0820151816005015560c0820151816006015560e0820151816007015561010082015181600801559050505b5b5b61235b84826135fe565b612388600c60009054906101000a900473ffffffffffffffffffffffffffffffffffffffff166001612641565b6017600081548092919061239b9061519f565b919050555080915050949350505050565b3373ffffffffffffffffffffffffffffffffffffffff166123cc83611c64565b73ffffffffffffffffffffffffffffffffffffffff16146123ec57600080fd5b61240733828460405180602001604052806000815250612a55565b5050565b6060600061241883611e77565b9050600081141561247557600067ffffffffffffffff81111561243e5761243d615303565b5b60405190808252806020026020018201604052801561246c5781602001602082028036833780820191505090505b5091505061255c565b60008167ffffffffffffffff81111561249157612490615303565b5b6040519080825280602002602001820160405280156124bf5781602001602082028036833780820191505090505b509050600060175490506000805b82811015612553578673ffffffffffffffffffffffffffffffffffffffff166124f582611c64565b73ffffffffffffffffffffffffffffffffffffffff1614156125405780848381518110612525576125246152d4565b5b602002602001018181525050818061253c9061519f565b9250505b808061254b9061519f565b9150506124cd565b83955050505050505b919050565b60186020528060005260406000206000915090508060000154908060010154908060020154908060030154908060040154908060050154908060060154908060070154908060080154905089565b6060600180546125be9061513c565b80601f01602080910402602001604051908101604052809291908181526020018280546125ea9061513c565b80156126375780601f1061260c57610100808354040283529160200191612637565b820191906000526020600020905b81548152906001019060200180831161261a57829003601f168201915b5050505050905090565b612649613203565b73ffffffffffffffffffffffffffffffffffffffff168273ffffffffffffffffffffffffffffffffffffffff1614156126b7576040517f08c379a00000000000000000000000000000000000000000000000000000000081526004016126ae90614b7c565b60405180910390fd5b80600560006126c4613203565b73ffffffffffffffffffffffffffffffffffffffff1673ffffffffffffffffffffffffffffffffffffffff16815260200190815260200160002060008473ffffffffffffffffffffffffffffffffffffffff1673ffffffffffffffffffffffffffffffffffffffff16815260200190815260200160002060006101000a81548160ff0219169083151502179055508173ffffffffffffffffffffffffffffffffffffffff16612771613203565b73ffffffffffffffffffffffffffffffffffffffff167f17307eab39ab6107e8899845ad3d59bd9653f200f220920489ca2b5937696c31836040516127b691906149d8565b60405180910390a35050565b3373ffffffffffffffffffffffffffffffffffffffff16600660009054906101000a900473ffffffffffffffffffffffffffffffffffffffff1673ffffffffffffffffffffffffffffffffffffffff1614612852576040517f08c379a000000000000000000000000000000000000000000000000000000000815260040161284990614b1c565b60405180910390fd5b80601560006101000a81548173ffffffffffffffffffffffffffffffffffffffff021916908373ffffffffffffffffffffffffffffffffffffffff16021790555050565b600030905090565b6000806000905060005b60105481101561290f5785848244428b6040516020016128cc959493929190614867565b6040516020818303038152906040528051906020012060001c6128ef9190615216565b826128fa9190614f17565b915080806129079061519f565b9150506128a8565b60006010548361291f9190614f6d565b9050858161292d9190614f17565b9350505050949350505050565b3373ffffffffffffffffffffffffffffffffffffffff16600660009054906101000a900473ffffffffffffffffffffffffffffffffffffffff1673ffffffffffffffffffffffffffffffffffffffff16146129ca576040517f08c379a00000000000000000000000000000000000000000000000000000000081526004016129c190614b1c565b60405180910390fd5b8360098190555082600a8190555081600b819055508060118190555050505050565b60003373ffffffffffffffffffffffffffffffffffffffff16600660009054906101000a900473ffffffffffffffffffffffffffffffffffffffff1673ffffffffffffffffffffffffffffffffffffffff161415612a4d5760019050612a52565b600090505b90565b612a66612a60613203565b836132c4565b612aa5576040517f08c379a0000000000000000000000000000000000000000000000000000000008152600401612a9c90614cdc565b60405180910390fd5b612ab18484848461361c565b50505050565b6000601754905090565b612ac9613bc8565b601860008381526020019081526020016000206040518061012001604052908160008201548152602001600182015481526020016002820154815260200160038201548152602001600482015481526020016005820154815260200160068201548152602001600782015481526020016008820154815250509050919050565b6060612b5482613197565b612b93576040517f08c379a0000000000000000000000000000000000000000000000000000000008152600401612b8a90614c9c565b60405180910390fd5b6000612b9d613678565b90506000815111612bbd5760405180602001604052806000815250612be8565b80612bc78461368f565b604051602001612bd89291906147f5565b6040516020818303038152906040525b915050919050565b600060175482612c009190614f17565b9050919050565b600080600080600954600a54600b54601154935093509350935090919293565b601460009054906101000a900473ffffffffffffffffffffffffffffffffffffffff1681565b6000600560008473ffffffffffffffffffffffffffffffffffffffff1673ffffffffffffffffffffffffffffffffffffffff16815260200190815260200160002060008373ffffffffffffffffffffffffffffffffffffffff1673ffffffffffffffffffffffffffffffffffffffff16815260200190815260200160002060009054906101000a900460ff16905092915050565b3373ffffffffffffffffffffffffffffffffffffffff16600860009054906101000a900473ffffffffffffffffffffffffffffffffffffffff1673ffffffffffffffffffffffffffffffffffffffff1614612d71576040517f08c379a0000000000000000000000000000000000000000000000000000000008152600401612d6890614b3c565b60405180910390fd5b8073ffffffffffffffffffffffffffffffffffffffff16612d9184611c64565b73ffffffffffffffffffffffffffffffffffffffff1614612de7576040517f08c379a0000000000000000000000000000000000000000000000000000000008152600401612dde90614d1c565b60405180910390fd5b606360186000858152602001908152602001600020600001541115612e41576040517f08c379a0000000000000000000000000000000000000000000000000000000008152600401612e3890614cfc565b60405180910390fd5b816018600085815260200190815260200160002060000154612e639190614f17565b6018600085815260200190815260200160002060000181905550505050565b3373ffffffffffffffffffffffffffffffffffffffff16600860009054906101000a900473ffffffffffffffffffffffffffffffffffffffff1673ffffffffffffffffffffffffffffffffffffffff1614612f12576040517f08c379a0000000000000000000000000000000000000000000000000000000008152600401612f0990614b3c565b60405180910390fd5b8073ffffffffffffffffffffffffffffffffffffffff16612f3284611c64565b73ffffffffffffffffffffffffffffffffffffffff1614612f88576040517f08c379a0000000000000000000000000000000000000000000000000000000008152600401612f7f90614d1c565b60405180910390fd5b606360186000858152602001908152602001600020600101541115612fe2576040517f08c379a0000000000000000000000000000000000000000000000000000000008152600401612fd990614bbc565b60405180910390fd5b8160186000858152602001908152602001600020600101546130049190614f17565b6018600085815260200190815260200160002060010181905550505050565b60006018600083815260200190815260200160002060080154141561304757600080fd5b6000601860008381526020019081526020016000206008015490506000601860008481526020019081526020016000206007018190555060006018600084815260200190815260200160002060080181905550601360009054906101000a900473ffffffffffffffffffffffffffffffffffffffff1673ffffffffffffffffffffffffffffffffffffffff16634391d2b133836040518363ffffffff1660e01b81526004016130f792919061498d565b600060405180830381600087803b15801561311157600080fd5b505af1158015613125573d6000803e3d6000fd5b505050505050565b60007f01ffc9a7000000000000000000000000000000000000000000000000000000007bffffffffffffffffffffffffffffffffffffffffffffffffffffffff1916827bffffffffffffffffffffffffffffffffffffffffffffffffffffffff1916149050919050565b60008073ffffffffffffffffffffffffffffffffffffffff166002600084815260200190815260200160002060009054906101000a900473ffffffffffffffffffffffffffffffffffffffff1673ffffffffffffffffffffffffffffffffffffffff1614159050919050565b600033905090565b816004600083815260200190815260200160002060006101000a81548173ffffffffffffffffffffffffffffffffffffffff021916908373ffffffffffffffffffffffffffffffffffffffff160217905550808273ffffffffffffffffffffffffffffffffffffffff1661327e83611c64565b73ffffffffffffffffffffffffffffffffffffffff167f8c5be1e5ebec7d5bd14f71427d1e84f3dd0314c0f7b2291e5b200ac8c7c3b92560405160405180910390a45050565b60006132cf82613197565b61330e576040517f08c379a000000000000000000000000000000000000000000000000000000000815260040161330590614b9c565b60405180910390fd5b600061331983611c64565b90508073ffffffffffffffffffffffffffffffffffffffff168473ffffffffffffffffffffffffffffffffffffffff16148061338857508373ffffffffffffffffffffffffffffffffffffffff16613370846109e4565b73ffffffffffffffffffffffffffffffffffffffff16145b8061339957506133988185612c4d565b5b91505092915050565b8273ffffffffffffffffffffffffffffffffffffffff166133c282611c64565b73ffffffffffffffffffffffffffffffffffffffff1614613418576040517f08c379a000000000000000000000000000000000000000000000000000000000815260040161340f90614c7c565b60405180910390fd5b600073ffffffffffffffffffffffffffffffffffffffff168273ffffffffffffffffffffffffffffffffffffffff161415613488576040517f08c379a000000000000000000000000000000000000000000000000000000000815260040161347f90614b5c565b60405180910390fd5b6134938383836137f0565b61349e60008261320b565b6001600360008573ffffffffffffffffffffffffffffffffffffffff1673ffffffffffffffffffffffffffffffffffffffff16815260200190815260200160002060008282546134ee9190614f9e565b925050819055506001600360008473ffffffffffffffffffffffffffffffffffffffff1673ffffffffffffffffffffffffffffffffffffffff16815260200190815260200160002060008282546135459190614f17565b92505081905550816002600083815260200190815260200160002060006101000a81548173ffffffffffffffffffffffffffffffffffffffff021916908373ffffffffffffffffffffffffffffffffffffffff160217905550808273ffffffffffffffffffffffffffffffffffffffff168473ffffffffffffffffffffffffffffffffffffffff167fddf252ad1be2c89b69c2b068fc378daa952ba7f163c4a11628f55a4df523b3ef60405160405180910390a4505050565b6136188282604051806020016040528060008152506137f5565b5050565b6136278484846133a2565b61363384848484613850565b613672576040517f08c379a000000000000000000000000000000000000000000000000000000000815260040161366990614abc565b60405180910390fd5b50505050565b606060405180602001604052806000815250905090565b606060008214156136d7576040518060400160405280600181526020017f300000000000000000000000000000000000000000000000000000000000000081525090506137eb565b600082905060005b600082146137095780806136f29061519f565b915050600a826137029190614f6d565b91506136df565b60008167ffffffffffffffff81111561372557613724615303565b5b6040519080825280601f01601f1916602001820160405280156137575781602001600182028036833780820191505090505b5090505b600085146137e4576001826137709190614f9e565b9150600a8561377f9190615216565b603061378b9190614f17565b60f81b8183815181106137a1576137a06152d4565b5b60200101907effffffffffffffffffffffffffffffffffffffffffffffffffffffffffffff1916908160001a905350600a856137dd9190614f6d565b945061375b565b8093505050505b919050565b505050565b6137ff83836139e7565b61380c6000848484613850565b61384b576040517f08c379a000000000000000000000000000000000000000000000000000000000815260040161384290614abc565b60405180910390fd5b505050565b60006138718473ffffffffffffffffffffffffffffffffffffffff16613bb5565b156139da578373ffffffffffffffffffffffffffffffffffffffff1663150b7a0261389a613203565b8786866040518563ffffffff1660e01b81526004016138bc9493929190614941565b602060405180830381600087803b1580156138d657600080fd5b505af192505050801561390757506040513d601f19601f820116820180604052508101906139049190614016565b60015b61398a573d8060008114613937576040519150601f19603f3d011682016040523d82523d6000602084013e61393c565b606091505b50600081511415613982576040517f08c379a000000000000000000000000000000000000000000000000000000000815260040161397990614abc565b60405180910390fd5b805181602001fd5b63150b7a0260e01b7bffffffffffffffffffffffffffffffffffffffffffffffffffffffff1916817bffffffffffffffffffffffffffffffffffffffffffffffffffffffff1916149150506139df565b600190505b949350505050565b600073ffffffffffffffffffffffffffffffffffffffff168273ffffffffffffffffffffffffffffffffffffffff161415613a57576040517f08c379a0000000000000000000000000000000000000000000000000000000008152600401613a4e90614c3c565b60405180910390fd5b613a6081613197565b15613aa0576040517f08c379a0000000000000000000000000000000000000000000000000000000008152600401613a9790614adc565b60405180910390fd5b613aac600083836137f0565b6001600360008473ffffffffffffffffffffffffffffffffffffffff1673ffffffffffffffffffffffffffffffffffffffff1681526020019081526020016000206000828254613afc9190614f17565b92505081905550816002600083815260200190815260200160002060006101000a81548173ffffffffffffffffffffffffffffffffffffffff021916908373ffffffffffffffffffffffffffffffffffffffff160217905550808273ffffffffffffffffffffffffffffffffffffffff16600073ffffffffffffffffffffffffffffffffffffffff167fddf252ad1be2c89b69c2b068fc378daa952ba7f163c4a11628f55a4df523b3ef60405160405180910390a45050565b600080823b905060008111915050919050565b6040518061012001604052806000815260200160008152602001600081526020016000815260200160008152602001600081526020016000815260200160008152602001600081525090565b6000613c27613c2284614e6a565b614e45565b905082815260208101848484011115613c4357613c42615337565b5b613c4e8482856150fa565b509392505050565b600081359050613c6581615863565b92915050565b600081359050613c7a8161587a565b92915050565b600081519050613c8f8161587a565b92915050565b600081359050613ca481615891565b92915050565b600081519050613cb981615891565b92915050565b600082601f830112613cd457613cd3615332565b5b8135613ce4848260208601613c14565b91505092915050565b600081359050613cfc816158a8565b92915050565b600081519050613d11816158a8565b92915050565b600060208284031215613d2d57613d2c615341565b5b6000613d3b84828501613c56565b91505092915050565b60008060408385031215613d5b57613d5a615341565b5b6000613d6985828601613c56565b9250506020613d7a85828601613c56565b9150509250929050565b600080600060608486031215613d9d57613d9c615341565b5b6000613dab86828701613c56565b9350506020613dbc86828701613c56565b9250506040613dcd86828701613ced565b9150509250925092565b60008060008060808587031215613df157613df0615341565b5b6000613dff87828801613c56565b9450506020613e1087828801613c56565b9350506040613e2187828801613ced565b925050606085013567ffffffffffffffff811115613e4257613e4161533c565b5b613e4e87828801613cbf565b91505092959194509250565b60008060408385031215613e7157613e70615341565b5b6000613e7f85828601613c56565b9250506020613e9085828601613c6b565b9150509250929050565b60008060408385031215613eb157613eb0615341565b5b6000613ebf85828601613c56565b9250506020613ed085828601613ced565b9150509250929050565b60008060008060808587031215613ef457613ef3615341565b5b6000613f0287828801613c56565b9450506020613f1387828801613ced565b9350506040613f2487828801613ced565b9250506060613f3587828801613ced565b91505092959194509250565b600080600080600060a08688031215613f5d57613f5c615341565b5b6000613f6b88828901613c56565b9550506020613f7c88828901613ced565b9450506040613f8d88828901613ced565b9350506060613f9e88828901613ced565b9250506080613faf88828901613ced565b9150509295509295909350565b600060208284031215613fd257613fd1615341565b5b6000613fe084828501613c80565b91505092915050565b600060208284031215613fff57613ffe615341565b5b600061400d84828501613c95565b91505092915050565b60006020828403121561402c5761402b615341565b5b600061403a84828501613caa565b91505092915050565b60006020828403121561405957614058615341565b5b600061406784828501613ced565b91505092915050565b60006020828403121561408657614085615341565b5b600061409484828501613d02565b91505092915050565b600080604083850312156140b4576140b3615341565b5b60006140c285828601613ced565b92505060206140d385828601613c56565b9150509250929050565b600080604083850312156140f4576140f3615341565b5b600061410285828601613ced565b925050602061411385828601613ced565b9150509250929050565b60008060006060848603121561413657614135615341565b5b600061414486828701613ced565b935050602061415586828701613ced565b925050604061416686828701613c56565b9150509250925092565b6000806000806080858703121561418a57614189615341565b5b600061419887828801613ced565b94505060206141a987828801613ced565b93505060406141ba87828801613c56565b92505060606141cb87828801613ced565b91505092959194509250565b6000806000606084860312156141f0576141ef615341565b5b60006141fe86828701613ced565b935050602061420f86828701613ced565b925050604061422086828701613ced565b9150509250925092565b6000806000806080858703121561424457614243615341565b5b600061425287828801613ced565b945050602061426387828801613ced565b935050604061427487828801613ced565b925050606061428587828801613ced565b91505092959194509250565b600061429d83836147c0565b60208301905092915050565b6142b281614fd2565b82525050565b6142c96142c482614fd2565b6151e8565b82525050565b60006142da82614eab565b6142e48185614ed9565b93506142ef83614e9b565b8060005b838110156143205781516143078882614291565b975061431283614ecc565b9250506001810190506142f3565b5085935050505092915050565b61433681614fe4565b82525050565b600061434782614eb6565b6143518185614eea565b9350614361818560208601615109565b61436a81615346565b840191505092915050565b61437e81615046565b82525050565b61438d8161506a565b82525050565b61439c8161508e565b82525050565b6143ab816150b2565b82525050565b6143ba816150d6565b82525050565b60006143cb82614ec1565b6143d58185614efb565b93506143e5818560208601615109565b6143ee81615346565b840191505092915050565b600061440482614ec1565b61440e8185614f0c565b935061441e818560208601615109565b80840191505092915050565b6000614437600283614efb565b915061444282615364565b602082019050919050565b600061445a603283614efb565b91506144658261538d565b604082019050919050565b600061447d601c83614efb565b9150614488826153dc565b602082019050919050565b60006144a0600283614efb565b91506144ab82615405565b602082019050919050565b60006144c3600283614efb565b91506144ce8261542e565b602082019050919050565b60006144e6600283614efb565b91506144f182615457565b602082019050919050565b6000614509602483614efb565b915061451482615480565b604082019050919050565b600061452c601983614efb565b9150614537826154cf565b602082019050919050565b600061454f602c83614efb565b915061455a826154f8565b604082019050919050565b6000614572600283614efb565b915061457d82615547565b602082019050919050565b6000614595603883614efb565b91506145a082615570565b604082019050919050565b60006145b8602a83614efb565b91506145c3826155bf565b604082019050919050565b60006145db602983614efb565b91506145e68261560e565b604082019050919050565b60006145fe602083614efb565b91506146098261565d565b602082019050919050565b6000614621602c83614efb565b915061462c82615686565b604082019050919050565b6000614644602983614efb565b915061464f826156d5565b604082019050919050565b6000614667602f83614efb565b915061467282615724565b604082019050919050565b600061468a602183614efb565b915061469582615773565b604082019050919050565b60006146ad603183614efb565b91506146b8826157c2565b604082019050919050565b60006146d0600283614efb565b91506146db82615811565b602082019050919050565b60006146f3600283614efb565b91506146fe8261583a565b602082019050919050565b6101208201600082015161472060008501826147c0565b50602082015161473360208501826147c0565b50604082015161474660408501826147c0565b50606082015161475960608501826147c0565b50608082015161476c60808501826147c0565b5060a082015161477f60a08501826147c0565b5060c082015161479260c08501826147c0565b5060e08201516147a560e08501826147c0565b506101008201516147ba6101008501826147c0565b50505050565b6147c98161503c565b82525050565b6147d88161503c565b82525050565b6147ef6147ea8261503c565b61520c565b82525050565b600061480182856143f9565b915061480d82846143f9565b91508190509392505050565b600061482582876147de565b60208201915061483582866147de565b60208201915061484582856142b8565b60148201915061485582846147de565b60208201915081905095945050505050565b600061487382886147de565b60208201915061488382876147de565b60208201915061489382866147de565b6020820191506148a382856147de565b6020820191506148b382846142b8565b6014820191508190509695505050505050565b60006020820190506148db60008301846142a9565b92915050565b60006040820190506148f660008301856142a9565b61490360208301846142a9565b9392505050565b600060608201905061491f60008301866142a9565b61492c60208301856142a9565b61493960408301846147cf565b949350505050565b600060808201905061495660008301876142a9565b61496360208301866142a9565b61497060408301856147cf565b8181036060830152614982818461433c565b905095945050505050565b60006040820190506149a260008301856142a9565b6149af60208301846147cf565b9392505050565b600060208201905081810360008301526149d081846142cf565b905092915050565b60006020820190506149ed600083018461432d565b92915050565b6000602082019050614a086000830184614375565b92915050565b6000602082019050614a236000830184614384565b92915050565b6000602082019050614a3e6000830184614393565b92915050565b6000602082019050614a5960008301846143a2565b92915050565b6000602082019050614a7460008301846143b1565b92915050565b60006020820190508181036000830152614a9481846143c0565b905092915050565b60006020820190508181036000830152614ab58161442a565b9050919050565b60006020820190508181036000830152614ad58161444d565b9050919050565b60006020820190508181036000830152614af581614470565b9050919050565b60006020820190508181036000830152614b1581614493565b9050919050565b60006020820190508181036000830152614b35816144b6565b9050919050565b60006020820190508181036000830152614b55816144d9565b9050919050565b60006020820190508181036000830152614b75816144fc565b9050919050565b60006020820190508181036000830152614b958161451f565b9050919050565b60006020820190508181036000830152614bb581614542565b9050919050565b60006020820190508181036000830152614bd581614565565b9050919050565b60006020820190508181036000830152614bf581614588565b9050919050565b60006020820190508181036000830152614c15816145ab565b9050919050565b60006020820190508181036000830152614c35816145ce565b9050919050565b60006020820190508181036000830152614c55816145f1565b9050919050565b60006020820190508181036000830152614c7581614614565b9050919050565b60006020820190508181036000830152614c9581614637565b9050919050565b60006020820190508181036000830152614cb58161465a565b9050919050565b60006020820190508181036000830152614cd58161467d565b9050919050565b60006020820190508181036000830152614cf5816146a0565b9050919050565b60006020820190508181036000830152614d15816146c3565b9050919050565b60006020820190508181036000830152614d35816146e6565b9050919050565b600061012082019050614d526000830184614709565b92915050565b6000602082019050614d6d60008301846147cf565b92915050565b6000608082019050614d8860008301876147cf565b614d9560208301866147cf565b614da260408301856147cf565b614daf60608301846147cf565b95945050505050565b600061012082019050614dce600083018c6147cf565b614ddb602083018b6147cf565b614de8604083018a6147cf565b614df560608301896147cf565b614e0260808301886147cf565b614e0f60a08301876147cf565b614e1c60c08301866147cf565b614e2960e08301856147cf565b614e376101008301846147cf565b9a9950505050505050505050565b6000614e4f614e60565b9050614e5b828261516e565b919050565b6000604051905090565b600067ffffffffffffffff821115614e8557614e84615303565b5b614e8e82615346565b9050602081019050919050565b6000819050602082019050919050565b600081519050919050565b600081519050919050565b600081519050919050565b6000602082019050919050565b600082825260208201905092915050565b600082825260208201905092915050565b600082825260208201905092915050565b600081905092915050565b6000614f228261503c565b9150614f2d8361503c565b9250827fffffffffffffffffffffffffffffffffffffffffffffffffffffffffffffffff03821115614f6257614f61615247565b5b828201905092915050565b6000614f788261503c565b9150614f838361503c565b925082614f9357614f92615276565b5b828204905092915050565b6000614fa98261503c565b9150614fb48361503c565b925082821015614fc757614fc6615247565b5b828203905092915050565b6000614fdd8261501c565b9050919050565b60008115159050919050565b60007fffffffff0000000000000000000000000000000000000000000000000000000082169050919050565b600073ffffffffffffffffffffffffffffffffffffffff82169050919050565b6000819050919050565b600061505182615058565b9050919050565b60006150638261501c565b9050919050565b60006150758261507c565b9050919050565b60006150878261501c565b9050919050565b6000615099826150a0565b9050919050565b60006150ab8261501c565b9050919050565b60006150bd826150c4565b9050919050565b60006150cf8261501c565b9050919050565b60006150e1826150e8565b9050919050565b60006150f38261501c565b9050919050565b82818337600083830152505050565b60005b8381101561512757808201518184015260208101905061510c565b83811115615136576000848401525b50505050565b6000600282049050600182168061515457607f821691505b60208210811415615168576151676152a5565b5b50919050565b61517782615346565b810181811067ffffffffffffffff8211171561519657615195615303565b5b80604052505050565b60006151aa8261503c565b91507fffffffffffffffffffffffffffffffffffffffffffffffffffffffffffffffff8214156151dd576151dc615247565b5b600182019050919050565b60006151f3826151fa565b9050919050565b600061520582615357565b9050919050565b6000819050919050565b60006152218261503c565b915061522c8361503c565b92508261523c5761523b615276565b5b828206905092915050565b7f4e487b7100000000000000000000000000000000000000000000000000000000600052601160045260246000fd5b7f4e487b7100000000000000000000000000000000000000000000000000000000600052601260045260246000fd5b7f4e487b7100000000000000000000000000000000000000000000000000000000600052602260045260246000fd5b7f4e487b7100000000000000000000000000000000000000000000000000000000600052603260045260246000fd5b7f4e487b7100000000000000000000000000000000000000000000000000000000600052604160045260246000fd5b600080fd5b600080fd5b600080fd5b600080fd5b6000601f19601f8301169050919050565b60008160601b9050919050565b7f4231000000000000000000000000000000000000000000000000000000000000600082015250565b7f4552433732313a207472616e7366657220746f206e6f6e20455243373231526560008201527f63656976657220696d706c656d656e7465720000000000000000000000000000602082015250565b7f4552433732313a20746f6b656e20616c7265616479206d696e74656400000000600082015250565b7f5431000000000000000000000000000000000000000000000000000000000000600082015250565b7f4131000000000000000000000000000000000000000000000000000000000000600082015250565b7f5831000000000000000000000000000000000000000000000000000000000000600082015250565b7f4552433732313a207472616e7366657220746f20746865207a65726f2061646460008201527f7265737300000000000000000000000000000000000000000000000000000000602082015250565b7f4552433732313a20617070726f766520746f2063616c6c657200000000000000600082015250565b7f4552433732313a206f70657261746f7220717565727920666f72206e6f6e657860008201527f697374656e7420746f6b656e0000000000000000000000000000000000000000602082015250565b7f5332000000000000000000000000000000000000000000000000000000000000600082015250565b7f4552433732313a20617070726f76652063616c6c6572206973206e6f74206f7760008201527f6e6572206e6f7220617070726f76656420666f7220616c6c0000000000000000602082015250565b7f4552433732313a2062616c616e636520717565727920666f7220746865207a6560008201527f726f206164647265737300000000000000000000000000000000000000000000602082015250565b7f4552433732313a206f776e657220717565727920666f72206e6f6e657869737460008201527f656e7420746f6b656e0000000000000000000000000000000000000000000000602082015250565b7f4552433732313a206d696e7420746f20746865207a65726f2061646472657373600082015250565b7f4552433732313a20617070726f76656420717565727920666f72206e6f6e657860008201527f697374656e7420746f6b656e0000000000000000000000000000000000000000602082015250565b7f4552433732313a207472616e73666572206f6620746f6b656e2074686174206960008201527f73206e6f74206f776e0000000000000000000000000000000000000000000000602082015250565b7f4552433732314d657461646174613a2055524920717565727920666f72206e6f60008201527f6e6578697374656e7420746f6b656e0000000000000000000000000000000000602082015250565b7f4552433732313a20617070726f76616c20746f2063757272656e74206f776e6560008201527f7200000000000000000000000000000000000000000000000000000000000000602082015250565b7f4552433732313a207472616e736665722063616c6c6572206973206e6f74206f60008201527f776e6572206e6f7220617070726f766564000000000000000000000000000000602082015250565b7f5331000000000000000000000000000000000000000000000000000000000000600082015250565b7f4f31000000000000000000000000000000000000000000000000000000000000600082015250565b61586c81614fd2565b811461587757600080fd5b50565b61588381614fe4565b811461588e57600080fd5b50565b61589a81614ff0565b81146158a557600080fd5b50565b6158b18161503c565b81146158bc57600080fd5b5056fea2646970667358221220b51ce9a536c29cf06db58fb40ddf29d83b7d7e494f88f2ede6194fafd6a4294464736f6c63430008060033",
  "immutableReferences": {},
  "source": "// SPDX-License-Identifier: MIT\r\npragma solidity >=0.4.22 <0.9.0;\r\nimport \"../node_modules/@openzeppelin/contracts/token/ERC20/IERC20.sol\";\r\nimport \"../node_modules/@openzeppelin/contracts/token/ERC721/ERC721.sol\";\r\nimport \"../contracts/PBTeams.sol\";\r\nimport \"../contracts/PBProShopFactory.sol\";\r\nimport \"../contracts/PBPlayerMarketplace.sol\";\r\nimport \"../contracts/PBXP.sol\";\r\n\r\ncontract PBPlayers is ERC721 {\r\n\r\n    address admin;\r\n    address pbTeamsAddress;\r\n    address pbxpAddress;\r\n    uint mintCost1;\r\n    uint mintCost2;\r\n    uint mintCost3;\r\n    address marketplaceAddress;\r\n    address proshopAddress;\r\n    uint dnaDigits = 28;\r\n    uint dnaModulus = 10 ** dnaDigits;\r\n    uint bellCurveIterations = 4;\r\n    uint ageoutSeconds;\r\n    \r\n    IERC20 public buddies;\r\n    PBProShopFactory public pbProShopFactory;\r\n    PBTeams public pbTeams;\r\n    PBPlayerMarketplace public pbPlayerMarketplace;\r\n    PBXP public pbxp;\r\n    \r\n\r\n    struct Player{\r\n        uint offence;\r\n        uint defence;\r\n        uint dna;\r\n        uint playertype;\r\n        uint mainColor;\r\n        uint ageoutTimestamp;\r\n        uint draftTimestamp;\r\n        uint equippedJersey;\r\n        uint equippedToken;\r\n    }\r\n\r\n    uint nextId = 0;\r\n\r\n    event newSuperstar(uint tokenId);\r\n\r\n\r\n    mapping (uint => Player ) public _tokenDetails;\r\n\r\n    constructor(address _buddiesCoinAddress, uint _mintCost1, uint _mintCost2, uint _mintCost3, uint _ageoutSeconds) ERC721(\"Pixel Puck Player\", \"PPP\"){\r\n        admin = msg.sender;\r\n        buddies = IERC20(_buddiesCoinAddress);\r\n        mintCost1 = _mintCost1;\r\n        mintCost2 = _mintCost2;\r\n        mintCost3 = _mintCost3;\r\n        ageoutSeconds = _ageoutSeconds;\r\n    }\r\n\r\n    modifier onlyAdmin() {\r\n        require(admin == msg.sender, \"A1\" );\r\n        _;\r\n    }\r\n\r\n    modifier onlyTeams() {\r\n        require(pbTeamsAddress == msg.sender, \"T1\" );\r\n        _;\r\n    }\r\n\r\n    modifier onlyPBXP() {\r\n        require(pbxpAddress == msg.sender, \"X1\" );\r\n        _;\r\n    }\r\n\r\n    function isAdmin() public view returns (bool){\r\n        if(admin == msg.sender){\r\n            return true;\r\n        } else return false;\r\n    }\r\n\r\n    function getPBPlayersAddress() public view returns(address){\r\n        return address(this);\r\n    }\r\n    \r\n    function updateBuddiesCoinAddress(address _buddiesCoinAddress) onlyAdmin external {\r\n        buddies = IERC20(_buddiesCoinAddress);\r\n    }\r\n\r\n    function updatePBTeamsAddress(address _pbTeamsAddress) external onlyAdmin {\r\n        pbTeams = PBTeams(_pbTeamsAddress);\r\n        pbTeamsAddress = _pbTeamsAddress;\r\n    }\r\n\r\n    function updatePBProShopFactoryAddress(address _proshopAddress) external onlyAdmin {\r\n        pbProShopFactory = PBProShopFactory(_proshopAddress);\r\n    }\r\n\r\n    function updatePBPlayerMarketplaceAddress(address _pbPlayerMarketplaceAddress) external onlyAdmin {\r\n        pbPlayerMarketplace = PBPlayerMarketplace(_pbPlayerMarketplaceAddress);\r\n    }\r\n\r\n    function updatePBXPaddress(address _pbxpAddress) external onlyAdmin {\r\n        pbxp = PBXP(_pbxpAddress);\r\n        pbxpAddress = _pbxpAddress;\r\n    }\r\n\r\n    function updateVariables(uint _mintCost1, uint _mintCost2, uint _mintCost3, uint _ageoutSeconds) external onlyAdmin {\r\n        mintCost1 = _mintCost1;\r\n        mintCost2 = _mintCost2;\r\n        mintCost3 = _mintCost3;\r\n        ageoutSeconds = _ageoutSeconds;\r\n    }\r\n\r\n    function getMintingCosts() public view returns (uint, uint, uint, uint){\r\n            return (mintCost1, mintCost2, mintCost3, ageoutSeconds);\r\n    }\r\n\r\n    function getNextId() public view returns (uint){\r\n        return nextId;\r\n    }\r\n\r\n    function getTokenDetails(uint tokenId) public view returns (Player memory){\r\n        return _tokenDetails[tokenId];\r\n    }\r\n\r\n    function mintPlayer(uint value, uint playerType) external {\r\n        if(nextId == 0){\r\n            require(msg.sender == admin, \"A1\");\r\n        }\r\n        uint allowance = buddies.allowance(msg.sender, address(this));\r\n        require(allowance >= value, \"B1\");\r\n        buddies.transferFrom(msg.sender, address(this), value);\r\n        if(playerType == 1){\r\n            _tokenDetails[nextId] = Player(_generateRandAtrrib(msg.sender, 50, 50, _randHelper(1)), _generateRandAtrrib(msg.sender, 50, 0, _randHelper(2)), _generateRandDna(msg.sender, _randHelper(1)), playerType,0,block.timestamp + ageoutSeconds,block.timestamp,0,0);\r\n        }else if(playerType == 2){\r\n             _tokenDetails[nextId] = Player(_generateRandAtrrib(msg.sender, 50, 0, _randHelper(3)), _generateRandAtrrib(msg.sender, 50, 50, _randHelper(4)), _generateRandDna(msg.sender, _randHelper(3)), playerType,0,block.timestamp + ageoutSeconds,block.timestamp,0,0);\r\n        }else if (playerType == 3){\r\n             _tokenDetails[nextId] = Player(0, _generateRandAtrrib(msg.sender, 25, 75, _randHelper(5)), _generateRandDna(msg.sender, _randHelper(5)), playerType,0,block.timestamp + ageoutSeconds,block.timestamp,0,0);\r\n        } \r\n        _safeMint(msg.sender, nextId);\r\n        setApprovalForAll(marketplaceAddress, true);\r\n        nextId++;\r\n    }\r\n\r\n     function mintSixPackPlayer(uint _op, uint _dp, address minter, uint playerType) public onlyTeams returns (uint) {\r\n        if(nextId == 0){\r\n            require(msg.sender == admin, \"A1\");\r\n        }\r\n        uint currentId = nextId;\r\n        if(playerType == 1) {\r\n            _tokenDetails[currentId] = Player(_op,_dp, _generateRandDna(minter, _randHelper(1)), playerType,0,block.timestamp + ageoutSeconds,block.timestamp,0,0);\r\n        } else if (playerType == 2){\r\n            _tokenDetails[currentId] = Player(_op,_dp, _generateRandDna(minter, _randHelper(3)), playerType,0,block.timestamp + ageoutSeconds,block.timestamp,0,0);\r\n        } else if (playerType == 3) {\r\n            _tokenDetails[currentId] = Player(_op,_dp, _generateRandDna(minter, _randHelper(5)), playerType,0,block.timestamp + ageoutSeconds,block.timestamp,0,0);\r\n        }        \r\n        _safeMint(minter, currentId);\r\n        setApprovalForAll(marketplaceAddress, true);\r\n        nextId++;\r\n        return (currentId);\r\n    }\r\n\r\n    function _randHelper(uint a) public view returns (uint){\r\n        return a + nextId;\r\n    }\r\n\r\n    function mintSuperstar(address playerOwner, uint opScore, uint dpScore, uint dna, uint playerType) external onlyAdmin {\r\n        if(playerType == 1){\r\n            _tokenDetails[nextId] = Player(opScore, dpScore, dna, playerType,0,block.timestamp + ageoutSeconds,block.timestamp,0,0);\r\n        }else if(playerType == 2){\r\n            _tokenDetails[nextId] = Player(opScore, dpScore, dna, playerType,0,block.timestamp + ageoutSeconds,block.timestamp,0,0);\r\n        }else if(playerType == 3){\r\n            _tokenDetails[nextId] = Player(opScore, dpScore, dna, playerType,0,block.timestamp + ageoutSeconds,block.timestamp,0,0);\r\n        }\r\n        _safeMint(playerOwner, nextId);\r\n        setApprovalForAll(marketplaceAddress, true);\r\n        nextId++;\r\n        emit newSuperstar(nextId-1);\r\n    }\r\n\r\n    function getAllTokensForUser(address user) public view returns (uint256[] memory){\r\n        uint256 tokenCount = balanceOf(user);\r\n        if(tokenCount == 0){\r\n            return new uint256[](0);\r\n        }\r\n        else{\r\n            uint[] memory result = new uint256[](tokenCount);\r\n            uint256 totalPlayers = nextId;\r\n            uint256 resultIndex = 0;\r\n            uint256 i;\r\n            for(i = 0; i < totalPlayers; i++){\r\n                if(ownerOf(i) == user){\r\n                    result[resultIndex] = i;\r\n                    resultIndex++;\r\n                }\r\n                \r\n            }\r\n            return result;\r\n        }\r\n    }\r\n\r\n    function giftPlayer(uint tokenId, address newOwner) public {\r\n        require (ownerOf(tokenId) == msg.sender);\r\n        safeTransferFrom(msg.sender, newOwner, tokenId, \"\");\r\n    }\r\n\r\n    function updateEquipment(uint token, uint sku, uint playerid) public {\r\n        uint tokenBalance = pbProShopFactory.balanceOf(msg.sender, token);\r\n        require(tokenBalance >= 1);\r\n        _tokenDetails[playerid].equippedJersey = sku;\r\n        _tokenDetails[playerid].equippedToken = token;    \r\n        pbProShopFactory.burnOnEquip(msg.sender, token);\r\n    }\r\n\r\n    function removeEquipment(uint playerid) public {\r\n        require(_tokenDetails[playerid].equippedToken != 0);\r\n        uint returnToken;\r\n        returnToken = _tokenDetails[playerid].equippedToken;\r\n        _tokenDetails[playerid].equippedJersey = 0;\r\n        _tokenDetails[playerid].equippedToken = 0;    \r\n        pbProShopFactory.mintOnUnequip(msg.sender, returnToken);\r\n    }\r\n\r\n    // function assignToTeam(uint teamId, uint position, uint playerid, uint teamDna) public {\r\n    //     require(ownerOf(playerid) == msg.sender);\r\n    //     require(pbTeams.getTokenDetails(teamId).ownerAddress == msg.sender);\r\n    //      _tokenDetails[playerid].position = position;\r\n    //      uint playerOp = _tokenDetails[playerid].offence;\r\n    //      uint playerDp = _tokenDetails[playerid].defence;\r\n    //      pbTeams.addStatsToTeam(teamId, msg.sender, playerOp, playerDp);\r\n    // }\r\n\r\n    // function removeFromTeam(uint teamId, uint playerid) public {\r\n    //     require(ownerOf(playerid) == msg.sender);\r\n    //     require(pbTeams.getTokenDetails(teamId).ownerAddress == msg.sender);\r\n    //      _tokenDetails[playerid].teamId = 0;\r\n    //      _tokenDetails[playerid].position = 0;\r\n    //      _tokenDetails[playerid].teamDna = 0;\r\n    //      uint playerOp = _tokenDetails[playerid].offence;\r\n    //      uint playerDp = _tokenDetails[playerid].defence;\r\n    //      pbTeams.removeStatsFromTeam(teamId, msg.sender, playerOp, playerDp);\r\n    // }\r\n\r\n    function addOp(uint tokenId, uint qty, address owner) public onlyPBXP {\r\n        require(ownerOf(tokenId) == owner, \"O1\");\r\n        require(_tokenDetails[tokenId].offence <= 99, \"S1\");\r\n       _tokenDetails[tokenId].offence = _tokenDetails[tokenId].offence + qty;\r\n    }\r\n\r\n    function addDp(uint tokenId, uint qty, address owner) public onlyPBXP {\r\n        require(ownerOf(tokenId) == owner, \"O1\");\r\n        require(_tokenDetails[tokenId].defence <= 99, \"S2\");\r\n       _tokenDetails[tokenId].defence = _tokenDetails[tokenId].defence + qty;\r\n    }\r\n\r\n    function _generateRandDna (address sender, uint randHelper) public view returns (uint){\r\n        uint rand = uint(keccak256(abi.encodePacked(block.timestamp, block.difficulty, sender, randHelper)));\r\n        return rand % dnaModulus;\r\n    }\r\n\r\n    function _generateRandAtrrib (address sender, uint mod, uint base, uint randHelper) public view returns (uint){\r\n        uint operator = 0;\r\n        uint i;\r\n        for( i = 0; i < bellCurveIterations; i++) {\r\n            operator = operator + (uint(keccak256(abi.encodePacked(randHelper, i, block.difficulty, block.timestamp, sender))) % mod);\r\n        }\r\n        uint primaryAttrib = operator/bellCurveIterations;\r\n        return primaryAttrib + base;\r\n    }\r\n\r\n    // function getTeamOP (uint _teamId) public view returns (uint) {\r\n    //         uint resultIndex = 0;\r\n    //         uint i;\r\n    //         for(i = 0; i < nextId; i++){\r\n    //             if(getTokenDetails(i).teamId == _teamId){\r\n    //                 resultIndex = resultIndex + getTokenDetails(i).offence; \r\n    //         }\r\n    //     }\r\n    //     return resultIndex;\r\n    // }\r\n\r\n    // function getTeamDP (uint _teamId) public view returns (uint) {\r\n    //         uint resultIndex = 0;\r\n    //         uint i;\r\n    //         for(i = 0; i < nextId; i++){\r\n    //             if(getTokenDetails(i).teamId == _teamId){\r\n    //                 resultIndex = resultIndex + getTokenDetails(i).defence; \r\n    //         }\r\n    //     }\r\n    //     return resultIndex;\r\n    // }\r\n\r\n    function getBuddiesOnContract() public view onlyAdmin returns (uint){\r\n       return buddies.balanceOf(address(this));\r\n    }\r\n\r\n    function withdrawBuddies(uint value) public onlyAdmin {\r\n        buddies.transferFrom(address(this), msg.sender, value);\r\n    }\r\n\r\n}\r\n",
  "sourcePath": "D:\\Projects\\puck-buddies\\contracts\\PBPlayers.sol",
  "compiler": {
    "name": "solc",
    "version": "0.8.6+commit.11564f7e.Emscripten.clang"
  },
  "schemaVersion": "3.4.3",
  "updatedAt": "2021-12-29T02:49:36.766Z",
  "networkType": "ethereum",
  "devdoc": {
    "kind": "dev",
    "methods": {
      "approve(address,uint256)": {
        "details": "See {IERC721-approve}."
      },
      "balanceOf(address)": {
        "details": "See {IERC721-balanceOf}."
      },
      "getApproved(uint256)": {
        "details": "See {IERC721-getApproved}."
      },
      "isApprovedForAll(address,address)": {
        "details": "See {IERC721-isApprovedForAll}."
      },
      "name()": {
        "details": "See {IERC721Metadata-name}."
      },
      "ownerOf(uint256)": {
        "details": "See {IERC721-ownerOf}."
      },
      "safeTransferFrom(address,address,uint256)": {
        "details": "See {IERC721-safeTransferFrom}."
      },
      "safeTransferFrom(address,address,uint256,bytes)": {
        "details": "See {IERC721-safeTransferFrom}."
      },
      "setApprovalForAll(address,bool)": {
        "details": "See {IERC721-setApprovalForAll}."
      },
      "supportsInterface(bytes4)": {
        "details": "See {IERC165-supportsInterface}."
      },
      "symbol()": {
        "details": "See {IERC721Metadata-symbol}."
      },
      "tokenURI(uint256)": {
        "details": "See {IERC721Metadata-tokenURI}."
      },
      "transferFrom(address,address,uint256)": {
        "details": "See {IERC721-transferFrom}."
      }
    },
    "version": 1
  },
  "userdoc": {
    "kind": "user",
    "methods": {},
    "version": 1
  }
}