{
  "contractName": "PBPlayers",
  "abi": [
    {
      "inputs": [
        {
          "internalType": "address",
          "name": "_buddiesCoinAddress",
          "type": "address"
        },
        {
          "internalType": "uint256",
          "name": "_mintCost1",
          "type": "uint256"
        },
        {
          "internalType": "uint256",
          "name": "_mintCost2",
          "type": "uint256"
        },
        {
          "internalType": "uint256",
          "name": "_mintCost3",
          "type": "uint256"
        },
        {
          "internalType": "uint256",
          "name": "_ageoutSeconds",
          "type": "uint256"
        }
      ],
      "stateMutability": "nonpayable",
      "type": "constructor"
    },
    {
      "anonymous": false,
      "inputs": [
        {
          "indexed": true,
          "internalType": "address",
          "name": "owner",
          "type": "address"
        },
        {
          "indexed": true,
          "internalType": "address",
          "name": "approved",
          "type": "address"
        },
        {
          "indexed": true,
          "internalType": "uint256",
          "name": "tokenId",
          "type": "uint256"
        }
      ],
      "name": "Approval",
      "type": "event"
    },
    {
      "anonymous": false,
      "inputs": [
        {
          "indexed": true,
          "internalType": "address",
          "name": "owner",
          "type": "address"
        },
        {
          "indexed": true,
          "internalType": "address",
          "name": "operator",
          "type": "address"
        },
        {
          "indexed": false,
          "internalType": "bool",
          "name": "approved",
          "type": "bool"
        }
      ],
      "name": "ApprovalForAll",
      "type": "event"
    },
    {
      "anonymous": false,
      "inputs": [
        {
          "indexed": true,
          "internalType": "address",
          "name": "from",
          "type": "address"
        },
        {
          "indexed": true,
          "internalType": "address",
          "name": "to",
          "type": "address"
        },
        {
          "indexed": true,
          "internalType": "uint256",
          "name": "tokenId",
          "type": "uint256"
        }
      ],
      "name": "Transfer",
      "type": "event"
    },
    {
      "anonymous": false,
      "inputs": [
        {
          "indexed": false,
          "internalType": "uint256",
          "name": "tokenId",
          "type": "uint256"
        }
      ],
      "name": "newSuperstar",
      "type": "event"
    },
    {
      "inputs": [
        {
          "internalType": "uint256",
          "name": "",
          "type": "uint256"
        }
      ],
      "name": "_tokenDetails",
      "outputs": [
        {
          "internalType": "uint256",
          "name": "offence",
          "type": "uint256"
        },
        {
          "internalType": "uint256",
          "name": "defence",
          "type": "uint256"
        },
        {
          "internalType": "uint256",
          "name": "dna",
          "type": "uint256"
        },
        {
          "internalType": "uint256",
          "name": "playertype",
          "type": "uint256"
        },
        {
          "internalType": "uint256",
          "name": "mainColor",
          "type": "uint256"
        },
        {
          "internalType": "uint256",
          "name": "ageoutTimestamp",
          "type": "uint256"
        },
        {
          "internalType": "uint256",
          "name": "draftTimestamp",
          "type": "uint256"
        },
        {
          "internalType": "uint256",
          "name": "equippedJersey",
          "type": "uint256"
        },
        {
          "internalType": "uint256",
          "name": "equippedToken",
          "type": "uint256"
        },
        {
          "internalType": "uint256",
          "name": "equippedItem",
          "type": "uint256"
        },
        {
          "internalType": "uint256",
          "name": "itemToken",
          "type": "uint256"
        }
      ],
      "stateMutability": "view",
      "type": "function",
      "constant": true
    },
    {
      "inputs": [
        {
          "internalType": "address",
          "name": "to",
          "type": "address"
        },
        {
          "internalType": "uint256",
          "name": "tokenId",
          "type": "uint256"
        }
      ],
      "name": "approve",
      "outputs": [],
      "stateMutability": "nonpayable",
      "type": "function"
    },
    {
      "inputs": [
        {
          "internalType": "address",
          "name": "owner",
          "type": "address"
        }
      ],
      "name": "balanceOf",
      "outputs": [
        {
          "internalType": "uint256",
          "name": "",
          "type": "uint256"
        }
      ],
      "stateMutability": "view",
      "type": "function",
      "constant": true
    },
    {
      "inputs": [],
      "name": "buddies",
      "outputs": [
        {
          "internalType": "contract IERC20",
          "name": "",
          "type": "address"
        }
      ],
      "stateMutability": "view",
      "type": "function",
      "constant": true
    },
    {
      "inputs": [
        {
          "internalType": "uint256",
          "name": "tokenId",
          "type": "uint256"
        }
      ],
      "name": "getApproved",
      "outputs": [
        {
          "internalType": "address",
          "name": "",
          "type": "address"
        }
      ],
      "stateMutability": "view",
      "type": "function",
      "constant": true
    },
    {
      "inputs": [
        {
          "internalType": "address",
          "name": "owner",
          "type": "address"
        },
        {
          "internalType": "address",
          "name": "operator",
          "type": "address"
        }
      ],
      "name": "isApprovedForAll",
      "outputs": [
        {
          "internalType": "bool",
          "name": "",
          "type": "bool"
        }
      ],
      "stateMutability": "view",
      "type": "function",
      "constant": true
    },
    {
      "inputs": [],
      "name": "name",
      "outputs": [
        {
          "internalType": "string",
          "name": "",
          "type": "string"
        }
      ],
      "stateMutability": "view",
      "type": "function",
      "constant": true
    },
    {
      "inputs": [
        {
          "internalType": "uint256",
          "name": "tokenId",
          "type": "uint256"
        }
      ],
      "name": "ownerOf",
      "outputs": [
        {
          "internalType": "address",
          "name": "",
          "type": "address"
        }
      ],
      "stateMutability": "view",
      "type": "function",
      "constant": true
    },
    {
      "inputs": [],
      "name": "pbPlayerMarketplace",
      "outputs": [
        {
          "internalType": "contract PBPlayerMarketplace",
          "name": "",
          "type": "address"
        }
      ],
      "stateMutability": "view",
      "type": "function",
      "constant": true
    },
    {
      "inputs": [],
      "name": "pbProShopFactory",
      "outputs": [
        {
          "internalType": "contract PBProShopFactory",
          "name": "",
          "type": "address"
        }
      ],
      "stateMutability": "view",
      "type": "function",
      "constant": true
    },
    {
      "inputs": [],
      "name": "pbTeams",
      "outputs": [
        {
          "internalType": "contract PBTeams",
          "name": "",
          "type": "address"
        }
      ],
      "stateMutability": "view",
      "type": "function",
      "constant": true
    },
    {
      "inputs": [],
      "name": "pbxp",
      "outputs": [
        {
          "internalType": "contract PBXP",
          "name": "",
          "type": "address"
        }
      ],
      "stateMutability": "view",
      "type": "function",
      "constant": true
    },
    {
      "inputs": [
        {
          "internalType": "address",
          "name": "from",
          "type": "address"
        },
        {
          "internalType": "address",
          "name": "to",
          "type": "address"
        },
        {
          "internalType": "uint256",
          "name": "tokenId",
          "type": "uint256"
        }
      ],
      "name": "safeTransferFrom",
      "outputs": [],
      "stateMutability": "nonpayable",
      "type": "function"
    },
    {
      "inputs": [
        {
          "internalType": "address",
          "name": "from",
          "type": "address"
        },
        {
          "internalType": "address",
          "name": "to",
          "type": "address"
        },
        {
          "internalType": "uint256",
          "name": "tokenId",
          "type": "uint256"
        },
        {
          "internalType": "bytes",
          "name": "_data",
          "type": "bytes"
        }
      ],
      "name": "safeTransferFrom",
      "outputs": [],
      "stateMutability": "nonpayable",
      "type": "function"
    },
    {
      "inputs": [
        {
          "internalType": "address",
          "name": "operator",
          "type": "address"
        },
        {
          "internalType": "bool",
          "name": "approved",
          "type": "bool"
        }
      ],
      "name": "setApprovalForAll",
      "outputs": [],
      "stateMutability": "nonpayable",
      "type": "function"
    },
    {
      "inputs": [
        {
          "internalType": "bytes4",
          "name": "interfaceId",
          "type": "bytes4"
        }
      ],
      "name": "supportsInterface",
      "outputs": [
        {
          "internalType": "bool",
          "name": "",
          "type": "bool"
        }
      ],
      "stateMutability": "view",
      "type": "function",
      "constant": true
    },
    {
      "inputs": [],
      "name": "symbol",
      "outputs": [
        {
          "internalType": "string",
          "name": "",
          "type": "string"
        }
      ],
      "stateMutability": "view",
      "type": "function",
      "constant": true
    },
    {
      "inputs": [
        {
          "internalType": "uint256",
          "name": "tokenId",
          "type": "uint256"
        }
      ],
      "name": "tokenURI",
      "outputs": [
        {
          "internalType": "string",
          "name": "",
          "type": "string"
        }
      ],
      "stateMutability": "view",
      "type": "function",
      "constant": true
    },
    {
      "inputs": [
        {
          "internalType": "address",
          "name": "from",
          "type": "address"
        },
        {
          "internalType": "address",
          "name": "to",
          "type": "address"
        },
        {
          "internalType": "uint256",
          "name": "tokenId",
          "type": "uint256"
        }
      ],
      "name": "transferFrom",
      "outputs": [],
      "stateMutability": "nonpayable",
      "type": "function"
    },
    {
      "inputs": [],
      "name": "isAdmin",
      "outputs": [
        {
          "internalType": "bool",
          "name": "",
          "type": "bool"
        }
      ],
      "stateMutability": "view",
      "type": "function",
      "constant": true
    },
    {
      "inputs": [],
      "name": "getPBPlayersAddress",
      "outputs": [
        {
          "internalType": "address",
          "name": "",
          "type": "address"
        }
      ],
      "stateMutability": "view",
      "type": "function",
      "constant": true
    },
    {
      "inputs": [
        {
          "internalType": "address",
          "name": "_buddiesCoinAddress",
          "type": "address"
        }
      ],
      "name": "updateBuddiesCoinAddress",
      "outputs": [],
      "stateMutability": "nonpayable",
      "type": "function"
    },
    {
      "inputs": [
        {
          "internalType": "address",
          "name": "_pbTeamsAddress",
          "type": "address"
        }
      ],
      "name": "updatePBTeamsAddress",
      "outputs": [],
      "stateMutability": "nonpayable",
      "type": "function"
    },
    {
      "inputs": [
        {
          "internalType": "address",
          "name": "_proshopAddress",
          "type": "address"
        }
      ],
      "name": "updatePBProShopFactoryAddress",
      "outputs": [],
      "stateMutability": "nonpayable",
      "type": "function"
    },
    {
      "inputs": [
        {
          "internalType": "address",
          "name": "_pbPlayerMarketplaceAddress",
          "type": "address"
        }
      ],
      "name": "updatePBPlayerMarketplaceAddress",
      "outputs": [],
      "stateMutability": "nonpayable",
      "type": "function"
    },
    {
      "inputs": [
        {
          "internalType": "address",
          "name": "_pbxpAddress",
          "type": "address"
        }
      ],
      "name": "updatePBXPaddress",
      "outputs": [],
      "stateMutability": "nonpayable",
      "type": "function"
    },
    {
      "inputs": [
        {
          "internalType": "uint256",
          "name": "_mintCost1",
          "type": "uint256"
        },
        {
          "internalType": "uint256",
          "name": "_mintCost2",
          "type": "uint256"
        },
        {
          "internalType": "uint256",
          "name": "_mintCost3",
          "type": "uint256"
        },
        {
          "internalType": "uint256",
          "name": "_ageoutSeconds",
          "type": "uint256"
        }
      ],
      "name": "updateVariables",
      "outputs": [],
      "stateMutability": "nonpayable",
      "type": "function"
    },
    {
      "inputs": [],
      "name": "getMintingCosts",
      "outputs": [
        {
          "internalType": "uint256",
          "name": "",
          "type": "uint256"
        },
        {
          "internalType": "uint256",
          "name": "",
          "type": "uint256"
        },
        {
          "internalType": "uint256",
          "name": "",
          "type": "uint256"
        },
        {
          "internalType": "uint256",
          "name": "",
          "type": "uint256"
        }
      ],
      "stateMutability": "view",
      "type": "function",
      "constant": true
    },
    {
      "inputs": [],
      "name": "getNextId",
      "outputs": [
        {
          "internalType": "uint256",
          "name": "",
          "type": "uint256"
        }
      ],
      "stateMutability": "view",
      "type": "function",
      "constant": true
    },
    {
      "inputs": [
        {
          "internalType": "uint256",
          "name": "tokenId",
          "type": "uint256"
        }
      ],
      "name": "getTokenDetails",
      "outputs": [
        {
          "components": [
            {
              "internalType": "uint256",
              "name": "offence",
              "type": "uint256"
            },
            {
              "internalType": "uint256",
              "name": "defence",
              "type": "uint256"
            },
            {
              "internalType": "uint256",
              "name": "dna",
              "type": "uint256"
            },
            {
              "internalType": "uint256",
              "name": "playertype",
              "type": "uint256"
            },
            {
              "internalType": "uint256",
              "name": "mainColor",
              "type": "uint256"
            },
            {
              "internalType": "uint256",
              "name": "ageoutTimestamp",
              "type": "uint256"
            },
            {
              "internalType": "uint256",
              "name": "draftTimestamp",
              "type": "uint256"
            },
            {
              "internalType": "uint256",
              "name": "equippedJersey",
              "type": "uint256"
            },
            {
              "internalType": "uint256",
              "name": "equippedToken",
              "type": "uint256"
            },
            {
              "internalType": "uint256",
              "name": "equippedItem",
              "type": "uint256"
            },
            {
              "internalType": "uint256",
              "name": "itemToken",
              "type": "uint256"
            }
          ],
          "internalType": "struct PBPlayers.Player",
          "name": "",
          "type": "tuple"
        }
      ],
      "stateMutability": "view",
      "type": "function",
      "constant": true
    },
    {
      "inputs": [
        {
          "internalType": "uint256",
          "name": "value",
          "type": "uint256"
        },
        {
          "internalType": "uint256",
          "name": "playerType",
          "type": "uint256"
        }
      ],
      "name": "mintPlayer",
      "outputs": [],
      "stateMutability": "nonpayable",
      "type": "function"
    },
    {
      "inputs": [
        {
          "internalType": "uint256",
          "name": "_op",
          "type": "uint256"
        },
        {
          "internalType": "uint256",
          "name": "_dp",
          "type": "uint256"
        },
        {
          "internalType": "address",
          "name": "minter",
          "type": "address"
        },
        {
          "internalType": "uint256",
          "name": "playerType",
          "type": "uint256"
        }
      ],
      "name": "mintSixPackPlayer",
      "outputs": [
        {
          "internalType": "uint256",
          "name": "",
          "type": "uint256"
        }
      ],
      "stateMutability": "nonpayable",
      "type": "function"
    },
    {
      "inputs": [
        {
          "internalType": "uint256",
          "name": "a",
          "type": "uint256"
        }
      ],
      "name": "_randHelper",
      "outputs": [
        {
          "internalType": "uint256",
          "name": "",
          "type": "uint256"
        }
      ],
      "stateMutability": "view",
      "type": "function",
      "constant": true
    },
    {
      "inputs": [
        {
          "internalType": "address",
          "name": "playerOwner",
          "type": "address"
        },
        {
          "internalType": "uint256",
          "name": "opScore",
          "type": "uint256"
        },
        {
          "internalType": "uint256",
          "name": "dpScore",
          "type": "uint256"
        },
        {
          "internalType": "uint256",
          "name": "dna",
          "type": "uint256"
        },
        {
          "internalType": "uint256",
          "name": "playerType",
          "type": "uint256"
        }
      ],
      "name": "mintSuperstar",
      "outputs": [],
      "stateMutability": "nonpayable",
      "type": "function"
    },
    {
      "inputs": [
        {
          "internalType": "address",
          "name": "user",
          "type": "address"
        }
      ],
      "name": "getAllTokensForUser",
      "outputs": [
        {
          "internalType": "uint256[]",
          "name": "",
          "type": "uint256[]"
        }
      ],
      "stateMutability": "view",
      "type": "function",
      "constant": true
    },
    {
      "inputs": [
        {
          "internalType": "uint256",
          "name": "tokenId",
          "type": "uint256"
        },
        {
          "internalType": "address",
          "name": "newOwner",
          "type": "address"
        }
      ],
      "name": "giftPlayer",
      "outputs": [],
      "stateMutability": "nonpayable",
      "type": "function"
    },
    {
      "inputs": [
        {
          "internalType": "uint256",
          "name": "token",
          "type": "uint256"
        },
        {
          "internalType": "uint256",
          "name": "sku",
          "type": "uint256"
        },
        {
          "internalType": "uint256",
          "name": "playerid",
          "type": "uint256"
        }
      ],
      "name": "updateEquipment",
      "outputs": [],
      "stateMutability": "nonpayable",
      "type": "function"
    },
    {
      "inputs": [
        {
          "internalType": "uint256",
          "name": "playerid",
          "type": "uint256"
        }
      ],
      "name": "removeEquipment",
      "outputs": [],
      "stateMutability": "nonpayable",
      "type": "function"
    },
    {
      "inputs": [
        {
          "internalType": "uint256",
          "name": "token",
          "type": "uint256"
        },
        {
          "internalType": "uint256",
          "name": "sku",
          "type": "uint256"
        },
        {
          "internalType": "uint256",
          "name": "playerid",
          "type": "uint256"
        }
      ],
      "name": "updateItem",
      "outputs": [],
      "stateMutability": "nonpayable",
      "type": "function"
    },
    {
      "inputs": [
        {
          "internalType": "uint256",
          "name": "playerid",
          "type": "uint256"
        }
      ],
      "name": "removeItem",
      "outputs": [],
      "stateMutability": "nonpayable",
      "type": "function"
    },
    {
      "inputs": [
        {
          "internalType": "uint256",
          "name": "tokenId",
          "type": "uint256"
        },
        {
          "internalType": "uint256",
          "name": "qty",
          "type": "uint256"
        },
        {
          "internalType": "address",
          "name": "owner",
          "type": "address"
        }
      ],
      "name": "addOp",
      "outputs": [],
      "stateMutability": "nonpayable",
      "type": "function"
    },
    {
      "inputs": [
        {
          "internalType": "uint256",
          "name": "tokenId",
          "type": "uint256"
        },
        {
          "internalType": "uint256",
          "name": "qty",
          "type": "uint256"
        },
        {
          "internalType": "address",
          "name": "owner",
          "type": "address"
        }
      ],
      "name": "addDp",
      "outputs": [],
      "stateMutability": "nonpayable",
      "type": "function"
    },
    {
      "inputs": [
        {
          "internalType": "address",
          "name": "sender",
          "type": "address"
        },
        {
          "internalType": "uint256",
          "name": "randHelper",
          "type": "uint256"
        }
      ],
      "name": "_generateRandDna",
      "outputs": [
        {
          "internalType": "uint256",
          "name": "",
          "type": "uint256"
        }
      ],
      "stateMutability": "view",
      "type": "function",
      "constant": true
    },
    {
      "inputs": [
        {
          "internalType": "address",
          "name": "sender",
          "type": "address"
        },
        {
          "internalType": "uint256",
          "name": "mod",
          "type": "uint256"
        },
        {
          "internalType": "uint256",
          "name": "base",
          "type": "uint256"
        },
        {
          "internalType": "uint256",
          "name": "randHelper",
          "type": "uint256"
        }
      ],
      "name": "_generateRandAtrrib",
      "outputs": [
        {
          "internalType": "uint256",
          "name": "",
          "type": "uint256"
        }
      ],
      "stateMutability": "view",
      "type": "function",
      "constant": true
    },
    {
      "inputs": [],
      "name": "getBuddiesOnContract",
      "outputs": [
        {
          "internalType": "uint256",
          "name": "",
          "type": "uint256"
        }
      ],
      "stateMutability": "view",
      "type": "function",
      "constant": true
    },
    {
      "inputs": [
        {
          "internalType": "uint256",
          "name": "value",
          "type": "uint256"
        }
      ],
      "name": "withdrawBuddies",
      "outputs": [],
      "stateMutability": "nonpayable",
      "type": "function"
    }
  ],
  "bytecode": "0x6080604052601e600e55600e54600a6200001a919062000364565b600f55600460105560006017553480156200003457600080fd5b506040516200635b3803806200635b83398181016040528101906200005a919062000281565b6040518060400160405280601181526020017f506978656c205075636b20506c617965720000000000000000000000000000008152506040518060400160405280600381526020017f50505000000000000000000000000000000000000000000000000000000000008152508160009080519060200190620000de929190620001a3565b508060019080519060200190620000f7929190620001a3565b50505033600660006101000a81548173ffffffffffffffffffffffffffffffffffffffff021916908373ffffffffffffffffffffffffffffffffffffffff16021790555084601260006101000a81548173ffffffffffffffffffffffffffffffffffffffff021916908373ffffffffffffffffffffffffffffffffffffffff1602179055508360098190555082600a8190555081600b81905550806011819055505050505050620005b9565b828054620001b190620004df565b90600052602060002090601f016020900481019282620001d5576000855562000221565b82601f10620001f057805160ff191683800117855562000221565b8280016001018555821562000221579182015b828111156200022057825182559160200191906001019062000203565b5b50905062000230919062000234565b5090565b5b808211156200024f57600081600090555060010162000235565b5090565b600081519050620002648162000585565b92915050565b6000815190506200027b816200059f565b92915050565b600080600080600060a08688031215620002a0576200029f62000573565b5b6000620002b08882890162000253565b9550506020620002c3888289016200026a565b9450506040620002d6888289016200026a565b9350506060620002e9888289016200026a565b9250506080620002fc888289016200026a565b9150509295509295909350565b6000808291508390505b60018511156200035b5780860481111562000333576200033262000515565b5b6001851615620003435780820291505b8081029050620003538562000578565b945062000313565b94509492505050565b60006200037182620004d5565b91506200037e83620004d5565b9250620003ad7fffffffffffffffffffffffffffffffffffffffffffffffffffffffffffffffff8484620003b5565b905092915050565b600082620003c757600190506200049a565b81620003d757600090506200049a565b8160018114620003f05760028114620003fb5762000431565b60019150506200049a565b60ff84111562000410576200040f62000515565b5b8360020a9150848211156200042a576200042962000515565b5b506200049a565b5060208310610133831016604e8410600b84101617156200046b5782820a90508381111562000465576200046462000515565b5b6200049a565b6200047a848484600162000309565b9250905081840481111562000494576200049362000515565b5b81810290505b9392505050565b6000620004ae82620004b5565b9050919050565b600073ffffffffffffffffffffffffffffffffffffffff82169050919050565b6000819050919050565b60006002820490506001821680620004f857607f821691505b602082108114156200050f576200050e62000544565b5b50919050565b7f4e487b7100000000000000000000000000000000000000000000000000000000600052601160045260246000fd5b7f4e487b7100000000000000000000000000000000000000000000000000000000600052602260045260246000fd5b600080fd5b60008160011c9050919050565b6200059081620004a1565b81146200059c57600080fd5b50565b620005aa81620004d5565b8114620005b657600080fd5b50565b615d9280620005c96000396000f3fe608060405234801561001057600080fd5b506004361061028a5760003560e01c806373034d081161015c578063b6db75a0116100ce578063d4536c4e11610087578063d4536c4e146107fd578063e00c01c51461081e578063e985e9c51461083c578063efe6e41c1461086c578063f0258a7814610888578063f8966c4f146108a45761028a565b8063b6db75a014610715578063b88d4fde14610733578063bc9683261461074f578063c1e037281461076d578063c87b56dd1461079d578063c9483383146107cd5761028a565b806395d89b411161012057806395d89b4114610655578063a22cb46514610673578063a2a8728d1461068f578063a561c851146106ab578063a8de071e146106c9578063b42f6eb2146106f95761028a565b806373034d08146105815780637a560b221461059f5780637c6e686f146105cf57806382de8fe9146105eb57806385f7229a1461061b5761028a565b80633f064841116102005780636352211e116101b95780636352211e1461049b5780636ba1df63146104cb5780636bf082da146104fb57806370a08231146105175780637132917114610547578063721f7797146105635761028a565b80633f064841146103ef57806342842e0e1461040d5780634a594c1214610429578063539447d4146104475780635d632faf14610463578063622681691461047f5761028a565b806318894cf81161025257806318894cf8146103455780631ebc19361461036357806323b872dd1461037f57806326d58a7b1461039b5780632919e4ff146103b75780632bc3c2f9146103d35761028a565b806301ffc9a71461028f57806306fdde03146102bf578063081812fc146102dd578063095ea7b31461030d578063143c806314610329575b600080fd5b6102a960048036038101906102a4919061443e565b6108c0565b6040516102b69190614e57565b60405180910390f35b6102c76109a2565b6040516102d49190614ef9565b60405180910390f35b6102f760048036038101906102f29190614498565b610a34565b6040516103049190614d45565b60405180910390f35b610327600480360381019061032291906142ef565b610ab9565b005b610343600480360381019061033e919061416c565b610bd1565b005b61034d610ce6565b60405161035a9190614ede565b60405180910390f35b61037d60048036038101906103789190614498565b610d0c565b005b610399600480360381019061039491906141d9565b610e51565b005b6103b560048036038101906103b0919061416c565b610eb1565b005b6103d160048036038101906103cc9190614396565b610f85565b005b6103ed60048036038101906103e8919061462c565b61138f565b005b6103f7611518565b60405161040491906151d7565b60405180910390f35b610427600480360381019061042291906141d9565b61165a565b005b61043161167a565b60405161043e9190614e72565b60405180910390f35b610461600480360381019061045c919061462c565b6116a0565b005b61047d6004803603810190610478919061416c565b611829565b005b61049960048036038101906104949190614532565b6118fd565b005b6104b560048036038101906104b09190614498565b611f15565b6040516104c29190614d45565b60405180910390f35b6104e560048036038101906104e091906142ef565b611fc7565b6040516104f291906151d7565b60405180910390f35b6105156004803603810190610510919061416c565b612013565b005b610531600480360381019061052c919061416c565b612128565b60405161053e91906151d7565b60405180910390f35b610561600480360381019061055c9190614498565b6121e0565b005b61056b6122ea565b6040516105789190614ea8565b60405180910390f35b610589612310565b6040516105969190614e8d565b60405180910390f35b6105b960048036038101906105b491906145c5565b612336565b6040516105c691906151d7565b60405180910390f35b6105e960048036038101906105e491906144f2565b6127d3565b005b6106056004803603810190610600919061416c565b612832565b6040516106129190614e35565b60405180910390f35b61063560048036038101906106309190614498565b612988565b60405161064c9b9a99989796959493929190615237565b60405180910390f35b61065d6129e2565b60405161066a9190614ef9565b60405180910390f35b61068d600480360381019061068891906142af565b612a74565b005b6106a960048036038101906106a4919061416c565b612bf5565b005b6106b3612cc9565b6040516106c09190614d45565b60405180910390f35b6106e360048036038101906106de919061432f565b612cd1565b6040516106f091906151d7565b60405180910390f35b610713600480360381019061070e919061467f565b612d6d565b005b61071d612e1f565b60405161072a9190614e57565b60405180910390f35b61074d6004803603810190610748919061422c565b612e88565b005b610757612eea565b60405161076491906151d7565b60405180910390f35b61078760048036038101906107829190614498565b612ef4565b60405161079491906151bb565b60405180910390f35b6107b760048036038101906107b29190614498565b612f90565b6040516107c49190614ef9565b60405180910390f35b6107e760048036038101906107e29190614498565b613037565b6040516107f491906151d7565b60405180910390f35b61080561304e565b60405161081594939291906151f2565b60405180910390f35b61082661306e565b6040516108339190614ec3565b60405180910390f35b61085660048036038101906108519190614199565b613094565b6040516108639190614e57565b60405180910390f35b61088660048036038101906108819190614572565b613128565b005b6108a2600480360381019061089d9190614572565b6132c9565b005b6108be60048036038101906108b99190614498565b61346a565b005b60007f80ac58cd000000000000000000000000000000000000000000000000000000007bffffffffffffffffffffffffffffffffffffffffffffffffffffffff1916827bffffffffffffffffffffffffffffffffffffffffffffffffffffffff1916148061098b57507f5b5e139f000000000000000000000000000000000000000000000000000000007bffffffffffffffffffffffffffffffffffffffffffffffffffffffff1916827bffffffffffffffffffffffffffffffffffffffffffffffffffffffff1916145b8061099b575061099a82613574565b5b9050919050565b6060600080546109b1906155d9565b80601f01602080910402602001604051908101604052809291908181526020018280546109dd906155d9565b8015610a2a5780601f106109ff57610100808354040283529160200191610a2a565b820191906000526020600020905b815481529060010190602001808311610a0d57829003601f168201915b5050505050905090565b6000610a3f826135de565b610a7e576040517f08c379a0000000000000000000000000000000000000000000000000000000008152600401610a75906150db565b60405180910390fd5b6004600083815260200190815260200160002060009054906101000a900473ffffffffffffffffffffffffffffffffffffffff169050919050565b6000610ac482611f15565b90508073ffffffffffffffffffffffffffffffffffffffff168373ffffffffffffffffffffffffffffffffffffffff161415610b35576040517f08c379a0000000000000000000000000000000000000000000000000000000008152600401610b2c9061513b565b60405180910390fd5b8073ffffffffffffffffffffffffffffffffffffffff16610b5461364a565b73ffffffffffffffffffffffffffffffffffffffff161480610b835750610b8281610b7d61364a565b613094565b5b610bc2576040517f08c379a0000000000000000000000000000000000000000000000000000000008152600401610bb99061505b565b60405180910390fd5b610bcc8383613652565b505050565b3373ffffffffffffffffffffffffffffffffffffffff16600660009054906101000a900473ffffffffffffffffffffffffffffffffffffffff1673ffffffffffffffffffffffffffffffffffffffff1614610c61576040517f08c379a0000000000000000000000000000000000000000000000000000000008152600401610c5890614f9b565b60405180910390fd5b80601660006101000a81548173ffffffffffffffffffffffffffffffffffffffff021916908373ffffffffffffffffffffffffffffffffffffffff16021790555080600860006101000a81548173ffffffffffffffffffffffffffffffffffffffff021916908373ffffffffffffffffffffffffffffffffffffffff16021790555050565b601660009054906101000a900473ffffffffffffffffffffffffffffffffffffffff1681565b3373ffffffffffffffffffffffffffffffffffffffff16600660009054906101000a900473ffffffffffffffffffffffffffffffffffffffff1673ffffffffffffffffffffffffffffffffffffffff1614610d9c576040517f08c379a0000000000000000000000000000000000000000000000000000000008152600401610d9390614f9b565b60405180910390fd5b601260009054906101000a900473ffffffffffffffffffffffffffffffffffffffff1673ffffffffffffffffffffffffffffffffffffffff166323b872dd3033846040518463ffffffff1660e01b8152600401610dfb93929190614d89565b602060405180830381600087803b158015610e1557600080fd5b505af1158015610e29573d6000803e3d6000fd5b505050506040513d601f19601f82011682018060405250810190610e4d9190614411565b5050565b610e62610e5c61364a565b8261370b565b610ea1576040517f08c379a0000000000000000000000000000000000000000000000000000000008152600401610e989061515b565b60405180910390fd5b610eac8383836137e9565b505050565b3373ffffffffffffffffffffffffffffffffffffffff16600660009054906101000a900473ffffffffffffffffffffffffffffffffffffffff1673ffffffffffffffffffffffffffffffffffffffff1614610f41576040517f08c379a0000000000000000000000000000000000000000000000000000000008152600401610f3890614f9b565b60405180910390fd5b80601360006101000a81548173ffffffffffffffffffffffffffffffffffffffff021916908373ffffffffffffffffffffffffffffffffffffffff16021790555050565b3373ffffffffffffffffffffffffffffffffffffffff16600660009054906101000a900473ffffffffffffffffffffffffffffffffffffffff1673ffffffffffffffffffffffffffffffffffffffff1614611015576040517f08c379a000000000000000000000000000000000000000000000000000000000815260040161100c90614f9b565b60405180910390fd5b600181141561110a57604051806101600160405280858152602001848152602001838152602001828152602001600081526020016011544261105791906153b4565b81526020014281526020016000815260200160008152602001600081526020016000815250601860006017548152602001908152602001600020600082015181600001556020820151816001015560408201518160020155606082015181600301556080820151816004015560a0820151816005015560c0820151816006015560e082015181600701556101008201518160080155610120820151816009015561014082015181600a01559050506112f2565b60028114156111ff57604051806101600160405280858152602001848152602001838152602001828152602001600081526020016011544261114c91906153b4565b81526020014281526020016000815260200160008152602001600081526020016000815250601860006017548152602001908152602001600020600082015181600001556020820151816001015560408201518160020155606082015181600301556080820151816004015560a0820151816005015560c0820151816006015560e082015181600701556101008201518160080155610120820151816009015561014082015181600a01559050506112f1565b60038114156112f057604051806101600160405280858152602001848152602001838152602001828152602001600081526020016011544261124191906153b4565b81526020014281526020016000815260200160008152602001600081526020016000815250601860006017548152602001908152602001600020600082015181600001556020820151816001015560408201518160020155606082015181600301556080820151816004015560a0820151816005015560c0820151816006015560e082015181600701556101008201518160080155610120820151816009015561014082015181600a01559050505b5b5b6112fe85601754613a45565b61132b600c60009054906101000a900473ffffffffffffffffffffffffffffffffffffffff166001612a74565b6017600081548092919061133e9061563c565b91905055507f411b384f004565f47f0c20647f30c2d3554c24b48f62090ff947f6607ca96d566001601754611373919061543b565b60405161138091906151d7565b60405180910390a15050505050565b6000601360009054906101000a900473ffffffffffffffffffffffffffffffffffffffff1673ffffffffffffffffffffffffffffffffffffffff1662fdd58e33866040518363ffffffff1660e01b81526004016113ed929190614e0c565b60206040518083038186803b15801561140557600080fd5b505afa158015611419573d6000803e3d6000fd5b505050506040513d601f19601f8201168201806040525081019061143d91906144c5565b9050600181101561144d57600080fd5b826018600084815260200190815260200160002060070181905550836018600084815260200190815260200160002060080181905550601360009054906101000a900473ffffffffffffffffffffffffffffffffffffffff1673ffffffffffffffffffffffffffffffffffffffff1663f367f20c33866040518363ffffffff1660e01b81526004016114e0929190614e0c565b600060405180830381600087803b1580156114fa57600080fd5b505af115801561150e573d6000803e3d6000fd5b5050505050505050565b60003373ffffffffffffffffffffffffffffffffffffffff16600660009054906101000a900473ffffffffffffffffffffffffffffffffffffffff1673ffffffffffffffffffffffffffffffffffffffff16146115aa576040517f08c379a00000000000000000000000000000000000000000000000000000000081526004016115a190614f9b565b60405180910390fd5b601260009054906101000a900473ffffffffffffffffffffffffffffffffffffffff1673ffffffffffffffffffffffffffffffffffffffff166370a08231306040518263ffffffff1660e01b81526004016116059190614d45565b60206040518083038186803b15801561161d57600080fd5b505afa158015611631573d6000803e3d6000fd5b505050506040513d601f19601f8201168201806040525081019061165591906144c5565b905090565b61167583838360405180602001604052806000815250612e88565b505050565b601260009054906101000a900473ffffffffffffffffffffffffffffffffffffffff1681565b6000601360009054906101000a900473ffffffffffffffffffffffffffffffffffffffff1673ffffffffffffffffffffffffffffffffffffffff1662fdd58e33866040518363ffffffff1660e01b81526004016116fe929190614e0c565b60206040518083038186803b15801561171657600080fd5b505afa15801561172a573d6000803e3d6000fd5b505050506040513d601f19601f8201168201806040525081019061174e91906144c5565b9050600181101561175e57600080fd5b8260186000848152602001908152602001600020600901819055508360186000848152602001908152602001600020600a0181905550601360009054906101000a900473ffffffffffffffffffffffffffffffffffffffff1673ffffffffffffffffffffffffffffffffffffffff1663f367f20c33866040518363ffffffff1660e01b81526004016117f1929190614e0c565b600060405180830381600087803b15801561180b57600080fd5b505af115801561181f573d6000803e3d6000fd5b5050505050505050565b3373ffffffffffffffffffffffffffffffffffffffff16600660009054906101000a900473ffffffffffffffffffffffffffffffffffffffff1673ffffffffffffffffffffffffffffffffffffffff16146118b9576040517f08c379a00000000000000000000000000000000000000000000000000000000081526004016118b090614f9b565b60405180910390fd5b80601260006101000a81548173ffffffffffffffffffffffffffffffffffffffff021916908373ffffffffffffffffffffffffffffffffffffffff16021790555050565b6000601754141561199957600660009054906101000a900473ffffffffffffffffffffffffffffffffffffffff1673ffffffffffffffffffffffffffffffffffffffff163373ffffffffffffffffffffffffffffffffffffffff1614611998576040517f08c379a000000000000000000000000000000000000000000000000000000000815260040161198f90614f9b565b60405180910390fd5b5b6000601260009054906101000a900473ffffffffffffffffffffffffffffffffffffffff1673ffffffffffffffffffffffffffffffffffffffff1663dd62ed3e33306040518363ffffffff1660e01b81526004016119f8929190614d60565b60206040518083038186803b158015611a1057600080fd5b505afa158015611a24573d6000803e3d6000fd5b505050506040513d601f19601f82011682018060405250810190611a4891906144c5565b905082811015611a8d576040517f08c379a0000000000000000000000000000000000000000000000000000000008152600401611a8490614f1b565b60405180910390fd5b601260009054906101000a900473ffffffffffffffffffffffffffffffffffffffff1673ffffffffffffffffffffffffffffffffffffffff166323b872dd3330866040518463ffffffff1660e01b8152600401611aec93929190614d89565b602060405180830381600087803b158015611b0657600080fd5b505af1158015611b1a573d6000803e3d6000fd5b505050506040513d601f19601f82011682018060405250810190611b3e9190614411565b506001821415611c7157604051806101600160405280611b6a33603280611b656001613037565b612cd1565b8152602001611b863360326000611b816002613037565b612cd1565b8152602001611b9e33611b996001613037565b611fc7565b81526020018381526020016000815260200160115442611bbe91906153b4565b81526020014281526020016000815260200160008152602001600081526020016000815250601860006017548152602001908152602001600020600082015181600001556020820151816001015560408201518160020155606082015181600301556080820151816004015560a0820151816005015560c0820151816006015560e082015181600701556101008201518160080155610120820151816009015561014082015181600a0155905050611ebf565b6002821415611da357604051806101600160405280611c9d3360326000611c986003613037565b612cd1565b8152602001611cb833603280611cb36004613037565b612cd1565b8152602001611cd033611ccb6003613037565b611fc7565b81526020018381526020016000815260200160115442611cf091906153b4565b81526020014281526020016000815260200160008152602001600081526020016000815250601860006017548152602001908152602001600020600082015181600001556020820151816001015560408201518160020155606082015181600301556080820151816004015560a0820151816005015560c0820151816006015560e082015181600701556101008201518160080155610120820151816009015561014082015181600a0155905050611ebe565b6003821415611ebd5760405180610160016040528060008152602001611dd6336019604b611dd16005613037565b612cd1565b8152602001611dee33611de96005613037565b611fc7565b81526020018381526020016000815260200160115442611e0e91906153b4565b81526020014281526020016000815260200160008152602001600081526020016000815250601860006017548152602001908152602001600020600082015181600001556020820151816001015560408201518160020155606082015181600301556080820151816004015560a0820151816005015560c0820151816006015560e082015181600701556101008201518160080155610120820151816009015561014082015181600a01559050505b5b5b611ecb33601754613a45565b611ef8600c60009054906101000a900473ffffffffffffffffffffffffffffffffffffffff166001612a74565b60176000815480929190611f0b9061563c565b9190505550505050565b6000806002600084815260200190815260200160002060009054906101000a900473ffffffffffffffffffffffffffffffffffffffff169050600073ffffffffffffffffffffffffffffffffffffffff168173ffffffffffffffffffffffffffffffffffffffff161415611fbe576040517f08c379a0000000000000000000000000000000000000000000000000000000008152600401611fb59061509b565b60405180910390fd5b80915050919050565b60008042448585604051602001611fe19493929190614c98565b6040516020818303038152906040528051906020012060001c9050600f548161200a91906156b3565b91505092915050565b3373ffffffffffffffffffffffffffffffffffffffff16600660009054906101000a900473ffffffffffffffffffffffffffffffffffffffff1673ffffffffffffffffffffffffffffffffffffffff16146120a3576040517f08c379a000000000000000000000000000000000000000000000000000000000815260040161209a90614f9b565b60405180910390fd5b80601460006101000a81548173ffffffffffffffffffffffffffffffffffffffff021916908373ffffffffffffffffffffffffffffffffffffffff16021790555080600760006101000a81548173ffffffffffffffffffffffffffffffffffffffff021916908373ffffffffffffffffffffffffffffffffffffffff16021790555050565b60008073ffffffffffffffffffffffffffffffffffffffff168273ffffffffffffffffffffffffffffffffffffffff161415612199576040517f08c379a00000000000000000000000000000000000000000000000000000000081526004016121909061507b565b60405180910390fd5b600360008373ffffffffffffffffffffffffffffffffffffffff1673ffffffffffffffffffffffffffffffffffffffff168152602001908152602001600020549050919050565b600060186000838152602001908152602001600020600a0154141561220457600080fd5b600060186000838152602001908152602001600020600a0154905060006018600084815260200190815260200160002060090181905550600060186000848152602001908152602001600020600a0181905550601360009054906101000a900473ffffffffffffffffffffffffffffffffffffffff1673ffffffffffffffffffffffffffffffffffffffff16634391d2b133836040518363ffffffff1660e01b81526004016122b4929190614e0c565b600060405180830381600087803b1580156122ce57600080fd5b505af11580156122e2573d6000803e3d6000fd5b505050505050565b601360009054906101000a900473ffffffffffffffffffffffffffffffffffffffff1681565b601560009054906101000a900473ffffffffffffffffffffffffffffffffffffffff1681565b60003373ffffffffffffffffffffffffffffffffffffffff16600760009054906101000a900473ffffffffffffffffffffffffffffffffffffffff1673ffffffffffffffffffffffffffffffffffffffff16146123c8576040517f08c379a00000000000000000000000000000000000000000000000000000000081526004016123bf90614f7b565b60405180910390fd5b6000601754141561246457600660009054906101000a900473ffffffffffffffffffffffffffffffffffffffff1673ffffffffffffffffffffffffffffffffffffffff163373ffffffffffffffffffffffffffffffffffffffff1614612463576040517f08c379a000000000000000000000000000000000000000000000000000000000815260040161245a90614f9b565b60405180910390fd5b5b6000601754905060018314156125705760405180610160016040528087815260200186815260200161249f8661249a6001613037565b611fc7565b815260200184815260200160008152602001601154426124bf91906153b4565b8152602001428152602001600081526020016000815260200160008152602001600081525060186000838152602001908152602001600020600082015181600001556020820151816001015560408201518160020155606082015181600301556080820151816004015560a0820151816005015560c0820151816006015560e082015181600701556101008201518160080155610120820151816009015561014082015181600a0155905050612778565b6002831415612675576040518061016001604052808781526020018681526020016125a48661259f6003613037565b611fc7565b815260200184815260200160008152602001601154426125c491906153b4565b8152602001428152602001600081526020016000815260200160008152602001600081525060186000838152602001908152602001600020600082015181600001556020820151816001015560408201518160020155606082015181600301556080820151816004015560a0820151816005015560c0820151816006015560e082015181600701556101008201518160080155610120820151816009015561014082015181600a0155905050612777565b6003831415612776576040518061016001604052808781526020018681526020016126a9866126a46005613037565b611fc7565b815260200184815260200160008152602001601154426126c991906153b4565b8152602001428152602001600081526020016000815260200160008152602001600081525060186000838152602001908152602001600020600082015181600001556020820151816001015560408201518160020155606082015181600301556080820151816004015560a0820151816005015560c0820151816006015560e082015181600701556101008201518160080155610120820151816009015561014082015181600a01559050505b5b5b6127828482613a45565b6127af600c60009054906101000a900473ffffffffffffffffffffffffffffffffffffffff166001612a74565b601760008154809291906127c29061563c565b919050555080915050949350505050565b3373ffffffffffffffffffffffffffffffffffffffff166127f383611f15565b73ffffffffffffffffffffffffffffffffffffffff161461281357600080fd5b61282e33828460405180602001604052806000815250612e88565b5050565b6060600061283f83612128565b9050600081141561289c57600067ffffffffffffffff811115612865576128646157a0565b5b6040519080825280602002602001820160405280156128935781602001602082028036833780820191505090505b50915050612983565b60008167ffffffffffffffff8111156128b8576128b76157a0565b5b6040519080825280602002602001820160405280156128e65781602001602082028036833780820191505090505b509050600060175490506000805b8281101561297a578673ffffffffffffffffffffffffffffffffffffffff1661291c82611f15565b73ffffffffffffffffffffffffffffffffffffffff161415612967578084838151811061294c5761294b615771565b5b60200260200101818152505081806129639061563c565b9250505b80806129729061563c565b9150506128f4565b83955050505050505b919050565b601860205280600052604060002060009150905080600001549080600101549080600201549080600301549080600401549080600501549080600601549080600701549080600801549080600901549080600a015490508b565b6060600180546129f1906155d9565b80601f0160208091040260200160405190810160405280929190818152602001828054612a1d906155d9565b8015612a6a5780601f10612a3f57610100808354040283529160200191612a6a565b820191906000526020600020905b815481529060010190602001808311612a4d57829003601f168201915b5050505050905090565b612a7c61364a565b73ffffffffffffffffffffffffffffffffffffffff168273ffffffffffffffffffffffffffffffffffffffff161415612aea576040517f08c379a0000000000000000000000000000000000000000000000000000000008152600401612ae190614ffb565b60405180910390fd5b8060056000612af761364a565b73ffffffffffffffffffffffffffffffffffffffff1673ffffffffffffffffffffffffffffffffffffffff16815260200190815260200160002060008473ffffffffffffffffffffffffffffffffffffffff1673ffffffffffffffffffffffffffffffffffffffff16815260200190815260200160002060006101000a81548160ff0219169083151502179055508173ffffffffffffffffffffffffffffffffffffffff16612ba461364a565b73ffffffffffffffffffffffffffffffffffffffff167f17307eab39ab6107e8899845ad3d59bd9653f200f220920489ca2b5937696c3183604051612be99190614e57565b60405180910390a35050565b3373ffffffffffffffffffffffffffffffffffffffff16600660009054906101000a900473ffffffffffffffffffffffffffffffffffffffff1673ffffffffffffffffffffffffffffffffffffffff1614612c85576040517f08c379a0000000000000000000000000000000000000000000000000000000008152600401612c7c90614f9b565b60405180910390fd5b80601560006101000a81548173ffffffffffffffffffffffffffffffffffffffff021916908373ffffffffffffffffffffffffffffffffffffffff16021790555050565b600030905090565b6000806000905060005b601054811015612d425785848244428b604051602001612cff959493929190614ce6565b6040516020818303038152906040528051906020012060001c612d2291906156b3565b82612d2d91906153b4565b91508080612d3a9061563c565b915050612cdb565b600060105483612d52919061540a565b90508581612d6091906153b4565b9350505050949350505050565b3373ffffffffffffffffffffffffffffffffffffffff16600660009054906101000a900473ffffffffffffffffffffffffffffffffffffffff1673ffffffffffffffffffffffffffffffffffffffff1614612dfd576040517f08c379a0000000000000000000000000000000000000000000000000000000008152600401612df490614f9b565b60405180910390fd5b8360098190555082600a8190555081600b819055508060118190555050505050565b60003373ffffffffffffffffffffffffffffffffffffffff16600660009054906101000a900473ffffffffffffffffffffffffffffffffffffffff1673ffffffffffffffffffffffffffffffffffffffff161415612e805760019050612e85565b600090505b90565b612e99612e9361364a565b8361370b565b612ed8576040517f08c379a0000000000000000000000000000000000000000000000000000000008152600401612ecf9061515b565b60405180910390fd5b612ee484848484613a63565b50505050565b6000601754905090565b612efc61400f565b601860008381526020019081526020016000206040518061016001604052908160008201548152602001600182015481526020016002820154815260200160038201548152602001600482015481526020016005820154815260200160068201548152602001600782015481526020016008820154815260200160098201548152602001600a820154815250509050919050565b6060612f9b826135de565b612fda576040517f08c379a0000000000000000000000000000000000000000000000000000000008152600401612fd19061511b565b60405180910390fd5b6000612fe4613abf565b90506000815111613004576040518060200160405280600081525061302f565b8061300e84613ad6565b60405160200161301f929190614c74565b6040516020818303038152906040525b915050919050565b60006017548261304791906153b4565b9050919050565b600080600080600954600a54600b54601154935093509350935090919293565b601460009054906101000a900473ffffffffffffffffffffffffffffffffffffffff1681565b6000600560008473ffffffffffffffffffffffffffffffffffffffff1673ffffffffffffffffffffffffffffffffffffffff16815260200190815260200160002060008373ffffffffffffffffffffffffffffffffffffffff1673ffffffffffffffffffffffffffffffffffffffff16815260200190815260200160002060009054906101000a900460ff16905092915050565b3373ffffffffffffffffffffffffffffffffffffffff16600860009054906101000a900473ffffffffffffffffffffffffffffffffffffffff1673ffffffffffffffffffffffffffffffffffffffff16146131b8576040517f08c379a00000000000000000000000000000000000000000000000000000000081526004016131af90614fbb565b60405180910390fd5b8073ffffffffffffffffffffffffffffffffffffffff166131d884611f15565b73ffffffffffffffffffffffffffffffffffffffff161461322e576040517f08c379a00000000000000000000000000000000000000000000000000000000081526004016132259061519b565b60405180910390fd5b606360186000858152602001908152602001600020600001541115613288576040517f08c379a000000000000000000000000000000000000000000000000000000000815260040161327f9061517b565b60405180910390fd5b8160186000858152602001908152602001600020600001546132aa91906153b4565b6018600085815260200190815260200160002060000181905550505050565b3373ffffffffffffffffffffffffffffffffffffffff16600860009054906101000a900473ffffffffffffffffffffffffffffffffffffffff1673ffffffffffffffffffffffffffffffffffffffff1614613359576040517f08c379a000000000000000000000000000000000000000000000000000000000815260040161335090614fbb565b60405180910390fd5b8073ffffffffffffffffffffffffffffffffffffffff1661337984611f15565b73ffffffffffffffffffffffffffffffffffffffff16146133cf576040517f08c379a00000000000000000000000000000000000000000000000000000000081526004016133c69061519b565b60405180910390fd5b606360186000858152602001908152602001600020600101541115613429576040517f08c379a00000000000000000000000000000000000000000000000000000000081526004016134209061503b565b60405180910390fd5b81601860008581526020019081526020016000206001015461344b91906153b4565b6018600085815260200190815260200160002060010181905550505050565b60006018600083815260200190815260200160002060080154141561348e57600080fd5b6000601860008381526020019081526020016000206008015490506000601860008481526020019081526020016000206007018190555060006018600084815260200190815260200160002060080181905550601360009054906101000a900473ffffffffffffffffffffffffffffffffffffffff1673ffffffffffffffffffffffffffffffffffffffff16634391d2b133836040518363ffffffff1660e01b815260040161353e929190614e0c565b600060405180830381600087803b15801561355857600080fd5b505af115801561356c573d6000803e3d6000fd5b505050505050565b60007f01ffc9a7000000000000000000000000000000000000000000000000000000007bffffffffffffffffffffffffffffffffffffffffffffffffffffffff1916827bffffffffffffffffffffffffffffffffffffffffffffffffffffffff1916149050919050565b60008073ffffffffffffffffffffffffffffffffffffffff166002600084815260200190815260200160002060009054906101000a900473ffffffffffffffffffffffffffffffffffffffff1673ffffffffffffffffffffffffffffffffffffffff1614159050919050565b600033905090565b816004600083815260200190815260200160002060006101000a81548173ffffffffffffffffffffffffffffffffffffffff021916908373ffffffffffffffffffffffffffffffffffffffff160217905550808273ffffffffffffffffffffffffffffffffffffffff166136c583611f15565b73ffffffffffffffffffffffffffffffffffffffff167f8c5be1e5ebec7d5bd14f71427d1e84f3dd0314c0f7b2291e5b200ac8c7c3b92560405160405180910390a45050565b6000613716826135de565b613755576040517f08c379a000000000000000000000000000000000000000000000000000000000815260040161374c9061501b565b60405180910390fd5b600061376083611f15565b90508073ffffffffffffffffffffffffffffffffffffffff168473ffffffffffffffffffffffffffffffffffffffff1614806137cf57508373ffffffffffffffffffffffffffffffffffffffff166137b784610a34565b73ffffffffffffffffffffffffffffffffffffffff16145b806137e057506137df8185613094565b5b91505092915050565b8273ffffffffffffffffffffffffffffffffffffffff1661380982611f15565b73ffffffffffffffffffffffffffffffffffffffff161461385f576040517f08c379a0000000000000000000000000000000000000000000000000000000008152600401613856906150fb565b60405180910390fd5b600073ffffffffffffffffffffffffffffffffffffffff168273ffffffffffffffffffffffffffffffffffffffff1614156138cf576040517f08c379a00000000000000000000000000000000000000000000000000000000081526004016138c690614fdb565b60405180910390fd5b6138da838383613c37565b6138e5600082613652565b6001600360008573ffffffffffffffffffffffffffffffffffffffff1673ffffffffffffffffffffffffffffffffffffffff1681526020019081526020016000206000828254613935919061543b565b925050819055506001600360008473ffffffffffffffffffffffffffffffffffffffff1673ffffffffffffffffffffffffffffffffffffffff168152602001908152602001600020600082825461398c91906153b4565b92505081905550816002600083815260200190815260200160002060006101000a81548173ffffffffffffffffffffffffffffffffffffffff021916908373ffffffffffffffffffffffffffffffffffffffff160217905550808273ffffffffffffffffffffffffffffffffffffffff168473ffffffffffffffffffffffffffffffffffffffff167fddf252ad1be2c89b69c2b068fc378daa952ba7f163c4a11628f55a4df523b3ef60405160405180910390a4505050565b613a5f828260405180602001604052806000815250613c3c565b5050565b613a6e8484846137e9565b613a7a84848484613c97565b613ab9576040517f08c379a0000000000000000000000000000000000000000000000000000000008152600401613ab090614f3b565b60405180910390fd5b50505050565b606060405180602001604052806000815250905090565b60606000821415613b1e576040518060400160405280600181526020017f30000000000000000000000000000000000000000000000000000000000000008152509050613c32565b600082905060005b60008214613b50578080613b399061563c565b915050600a82613b49919061540a565b9150613b26565b60008167ffffffffffffffff811115613b6c57613b6b6157a0565b5b6040519080825280601f01601f191660200182016040528015613b9e5781602001600182028036833780820191505090505b5090505b60008514613c2b57600182613bb7919061543b565b9150600a85613bc691906156b3565b6030613bd291906153b4565b60f81b818381518110613be857613be7615771565b5b60200101907effffffffffffffffffffffffffffffffffffffffffffffffffffffffffffff1916908160001a905350600a85613c24919061540a565b9450613ba2565b8093505050505b919050565b505050565b613c468383613e2e565b613c536000848484613c97565b613c92576040517f08c379a0000000000000000000000000000000000000000000000000000000008152600401613c8990614f3b565b60405180910390fd5b505050565b6000613cb88473ffffffffffffffffffffffffffffffffffffffff16613ffc565b15613e21578373ffffffffffffffffffffffffffffffffffffffff1663150b7a02613ce161364a565b8786866040518563ffffffff1660e01b8152600401613d039493929190614dc0565b602060405180830381600087803b158015613d1d57600080fd5b505af1925050508015613d4e57506040513d601f19601f82011682018060405250810190613d4b919061446b565b60015b613dd1573d8060008114613d7e576040519150601f19603f3d011682016040523d82523d6000602084013e613d83565b606091505b50600081511415613dc9576040517f08c379a0000000000000000000000000000000000000000000000000000000008152600401613dc090614f3b565b60405180910390fd5b805181602001fd5b63150b7a0260e01b7bffffffffffffffffffffffffffffffffffffffffffffffffffffffff1916817bffffffffffffffffffffffffffffffffffffffffffffffffffffffff191614915050613e26565b600190505b949350505050565b600073ffffffffffffffffffffffffffffffffffffffff168273ffffffffffffffffffffffffffffffffffffffff161415613e9e576040517f08c379a0000000000000000000000000000000000000000000000000000000008152600401613e95906150bb565b60405180910390fd5b613ea7816135de565b15613ee7576040517f08c379a0000000000000000000000000000000000000000000000000000000008152600401613ede90614f5b565b60405180910390fd5b613ef360008383613c37565b6001600360008473ffffffffffffffffffffffffffffffffffffffff1673ffffffffffffffffffffffffffffffffffffffff1681526020019081526020016000206000828254613f4391906153b4565b92505081905550816002600083815260200190815260200160002060006101000a81548173ffffffffffffffffffffffffffffffffffffffff021916908373ffffffffffffffffffffffffffffffffffffffff160217905550808273ffffffffffffffffffffffffffffffffffffffff16600073ffffffffffffffffffffffffffffffffffffffff167fddf252ad1be2c89b69c2b068fc378daa952ba7f163c4a11628f55a4df523b3ef60405160405180910390a45050565b600080823b905060008111915050919050565b60405180610160016040528060008152602001600081526020016000815260200160008152602001600081526020016000815260200160008152602001600081526020016000815260200160008152602001600081525090565b600061407c61407784615307565b6152e2565b905082815260208101848484011115614098576140976157d4565b5b6140a3848285615597565b509392505050565b6000813590506140ba81615d00565b92915050565b6000813590506140cf81615d17565b92915050565b6000815190506140e481615d17565b92915050565b6000813590506140f981615d2e565b92915050565b60008151905061410e81615d2e565b92915050565b600082601f830112614129576141286157cf565b5b8135614139848260208601614069565b91505092915050565b60008135905061415181615d45565b92915050565b60008151905061416681615d45565b92915050565b600060208284031215614182576141816157de565b5b6000614190848285016140ab565b91505092915050565b600080604083850312156141b0576141af6157de565b5b60006141be858286016140ab565b92505060206141cf858286016140ab565b9150509250929050565b6000806000606084860312156141f2576141f16157de565b5b6000614200868287016140ab565b9350506020614211868287016140ab565b925050604061422286828701614142565b9150509250925092565b60008060008060808587031215614246576142456157de565b5b6000614254878288016140ab565b9450506020614265878288016140ab565b935050604061427687828801614142565b925050606085013567ffffffffffffffff811115614297576142966157d9565b5b6142a387828801614114565b91505092959194509250565b600080604083850312156142c6576142c56157de565b5b60006142d4858286016140ab565b92505060206142e5858286016140c0565b9150509250929050565b60008060408385031215614306576143056157de565b5b6000614314858286016140ab565b925050602061432585828601614142565b9150509250929050565b60008060008060808587031215614349576143486157de565b5b6000614357878288016140ab565b945050602061436887828801614142565b935050604061437987828801614142565b925050606061438a87828801614142565b91505092959194509250565b600080600080600060a086880312156143b2576143b16157de565b5b60006143c0888289016140ab565b95505060206143d188828901614142565b94505060406143e288828901614142565b93505060606143f388828901614142565b925050608061440488828901614142565b9150509295509295909350565b600060208284031215614427576144266157de565b5b6000614435848285016140d5565b91505092915050565b600060208284031215614454576144536157de565b5b6000614462848285016140ea565b91505092915050565b600060208284031215614481576144806157de565b5b600061448f848285016140ff565b91505092915050565b6000602082840312156144ae576144ad6157de565b5b60006144bc84828501614142565b91505092915050565b6000602082840312156144db576144da6157de565b5b60006144e984828501614157565b91505092915050565b60008060408385031215614509576145086157de565b5b600061451785828601614142565b9250506020614528858286016140ab565b9150509250929050565b60008060408385031215614549576145486157de565b5b600061455785828601614142565b925050602061456885828601614142565b9150509250929050565b60008060006060848603121561458b5761458a6157de565b5b600061459986828701614142565b93505060206145aa86828701614142565b92505060406145bb868287016140ab565b9150509250925092565b600080600080608085870312156145df576145de6157de565b5b60006145ed87828801614142565b94505060206145fe87828801614142565b935050604061460f878288016140ab565b925050606061462087828801614142565b91505092959194509250565b600080600060608486031215614645576146446157de565b5b600061465386828701614142565b935050602061466486828701614142565b925050604061467586828701614142565b9150509250925092565b60008060008060808587031215614699576146986157de565b5b60006146a787828801614142565b94505060206146b887828801614142565b93505060406146c987828801614142565b92505060606146da87828801614142565b91505092959194509250565b60006146f28383614c3f565b60208301905092915050565b6147078161546f565b82525050565b61471e6147198261546f565b615685565b82525050565b600061472f82615348565b6147398185615376565b935061474483615338565b8060005b8381101561477557815161475c88826146e6565b975061476783615369565b925050600181019050614748565b5085935050505092915050565b61478b81615481565b82525050565b600061479c82615353565b6147a68185615387565b93506147b68185602086016155a6565b6147bf816157e3565b840191505092915050565b6147d3816154e3565b82525050565b6147e281615507565b82525050565b6147f18161552b565b82525050565b6148008161554f565b82525050565b61480f81615573565b82525050565b60006148208261535e565b61482a8185615398565b935061483a8185602086016155a6565b614843816157e3565b840191505092915050565b60006148598261535e565b61486381856153a9565b93506148738185602086016155a6565b80840191505092915050565b600061488c600283615398565b915061489782615801565b602082019050919050565b60006148af603283615398565b91506148ba8261582a565b604082019050919050565b60006148d2601c83615398565b91506148dd82615879565b602082019050919050565b60006148f5600283615398565b9150614900826158a2565b602082019050919050565b6000614918600283615398565b9150614923826158cb565b602082019050919050565b600061493b600283615398565b9150614946826158f4565b602082019050919050565b600061495e602483615398565b91506149698261591d565b604082019050919050565b6000614981601983615398565b915061498c8261596c565b602082019050919050565b60006149a4602c83615398565b91506149af82615995565b604082019050919050565b60006149c7600283615398565b91506149d2826159e4565b602082019050919050565b60006149ea603883615398565b91506149f582615a0d565b604082019050919050565b6000614a0d602a83615398565b9150614a1882615a5c565b604082019050919050565b6000614a30602983615398565b9150614a3b82615aab565b604082019050919050565b6000614a53602083615398565b9150614a5e82615afa565b602082019050919050565b6000614a76602c83615398565b9150614a8182615b23565b604082019050919050565b6000614a99602983615398565b9150614aa482615b72565b604082019050919050565b6000614abc602f83615398565b9150614ac782615bc1565b604082019050919050565b6000614adf602183615398565b9150614aea82615c10565b604082019050919050565b6000614b02603183615398565b9150614b0d82615c5f565b604082019050919050565b6000614b25600283615398565b9150614b3082615cae565b602082019050919050565b6000614b48600283615398565b9150614b5382615cd7565b602082019050919050565b61016082016000820151614b756000850182614c3f565b506020820151614b886020850182614c3f565b506040820151614b9b6040850182614c3f565b506060820151614bae6060850182614c3f565b506080820151614bc16080850182614c3f565b5060a0820151614bd460a0850182614c3f565b5060c0820151614be760c0850182614c3f565b5060e0820151614bfa60e0850182614c3f565b50610100820151614c0f610100850182614c3f565b50610120820151614c24610120850182614c3f565b50610140820151614c39610140850182614c3f565b50505050565b614c48816154d9565b82525050565b614c57816154d9565b82525050565b614c6e614c69826154d9565b6156a9565b82525050565b6000614c80828561484e565b9150614c8c828461484e565b91508190509392505050565b6000614ca48287614c5d565b602082019150614cb48286614c5d565b602082019150614cc4828561470d565b601482019150614cd48284614c5d565b60208201915081905095945050505050565b6000614cf28288614c5d565b602082019150614d028287614c5d565b602082019150614d128286614c5d565b602082019150614d228285614c5d565b602082019150614d32828461470d565b6014820191508190509695505050505050565b6000602082019050614d5a60008301846146fe565b92915050565b6000604082019050614d7560008301856146fe565b614d8260208301846146fe565b9392505050565b6000606082019050614d9e60008301866146fe565b614dab60208301856146fe565b614db86040830184614c4e565b949350505050565b6000608082019050614dd560008301876146fe565b614de260208301866146fe565b614def6040830185614c4e565b8181036060830152614e018184614791565b905095945050505050565b6000604082019050614e2160008301856146fe565b614e2e6020830184614c4e565b9392505050565b60006020820190508181036000830152614e4f8184614724565b905092915050565b6000602082019050614e6c6000830184614782565b92915050565b6000602082019050614e8760008301846147ca565b92915050565b6000602082019050614ea260008301846147d9565b92915050565b6000602082019050614ebd60008301846147e8565b92915050565b6000602082019050614ed860008301846147f7565b92915050565b6000602082019050614ef36000830184614806565b92915050565b60006020820190508181036000830152614f138184614815565b905092915050565b60006020820190508181036000830152614f348161487f565b9050919050565b60006020820190508181036000830152614f54816148a2565b9050919050565b60006020820190508181036000830152614f74816148c5565b9050919050565b60006020820190508181036000830152614f94816148e8565b9050919050565b60006020820190508181036000830152614fb48161490b565b9050919050565b60006020820190508181036000830152614fd48161492e565b9050919050565b60006020820190508181036000830152614ff481614951565b9050919050565b6000602082019050818103600083015261501481614974565b9050919050565b6000602082019050818103600083015261503481614997565b9050919050565b60006020820190508181036000830152615054816149ba565b9050919050565b60006020820190508181036000830152615074816149dd565b9050919050565b6000602082019050818103600083015261509481614a00565b9050919050565b600060208201905081810360008301526150b481614a23565b9050919050565b600060208201905081810360008301526150d481614a46565b9050919050565b600060208201905081810360008301526150f481614a69565b9050919050565b6000602082019050818103600083015261511481614a8c565b9050919050565b6000602082019050818103600083015261513481614aaf565b9050919050565b6000602082019050818103600083015261515481614ad2565b9050919050565b6000602082019050818103600083015261517481614af5565b9050919050565b6000602082019050818103600083015261519481614b18565b9050919050565b600060208201905081810360008301526151b481614b3b565b9050919050565b6000610160820190506151d16000830184614b5e565b92915050565b60006020820190506151ec6000830184614c4e565b92915050565b60006080820190506152076000830187614c4e565b6152146020830186614c4e565b6152216040830185614c4e565b61522e6060830184614c4e565b95945050505050565b60006101608201905061524d600083018e614c4e565b61525a602083018d614c4e565b615267604083018c614c4e565b615274606083018b614c4e565b615281608083018a614c4e565b61528e60a0830189614c4e565b61529b60c0830188614c4e565b6152a860e0830187614c4e565b6152b6610100830186614c4e565b6152c4610120830185614c4e565b6152d2610140830184614c4e565b9c9b505050505050505050505050565b60006152ec6152fd565b90506152f8828261560b565b919050565b6000604051905090565b600067ffffffffffffffff821115615322576153216157a0565b5b61532b826157e3565b9050602081019050919050565b6000819050602082019050919050565b600081519050919050565b600081519050919050565b600081519050919050565b6000602082019050919050565b600082825260208201905092915050565b600082825260208201905092915050565b600082825260208201905092915050565b600081905092915050565b60006153bf826154d9565b91506153ca836154d9565b9250827fffffffffffffffffffffffffffffffffffffffffffffffffffffffffffffffff038211156153ff576153fe6156e4565b5b828201905092915050565b6000615415826154d9565b9150615420836154d9565b9250826154305761542f615713565b5b828204905092915050565b6000615446826154d9565b9150615451836154d9565b925082821015615464576154636156e4565b5b828203905092915050565b600061547a826154b9565b9050919050565b60008115159050919050565b60007fffffffff0000000000000000000000000000000000000000000000000000000082169050919050565b600073ffffffffffffffffffffffffffffffffffffffff82169050919050565b6000819050919050565b60006154ee826154f5565b9050919050565b6000615500826154b9565b9050919050565b600061551282615519565b9050919050565b6000615524826154b9565b9050919050565b60006155368261553d565b9050919050565b6000615548826154b9565b9050919050565b600061555a82615561565b9050919050565b600061556c826154b9565b9050919050565b600061557e82615585565b9050919050565b6000615590826154b9565b9050919050565b82818337600083830152505050565b60005b838110156155c45780820151818401526020810190506155a9565b838111156155d3576000848401525b50505050565b600060028204905060018216806155f157607f821691505b6020821081141561560557615604615742565b5b50919050565b615614826157e3565b810181811067ffffffffffffffff82111715615633576156326157a0565b5b80604052505050565b6000615647826154d9565b91507fffffffffffffffffffffffffffffffffffffffffffffffffffffffffffffffff82141561567a576156796156e4565b5b600182019050919050565b600061569082615697565b9050919050565b60006156a2826157f4565b9050919050565b6000819050919050565b60006156be826154d9565b91506156c9836154d9565b9250826156d9576156d8615713565b5b828206905092915050565b7f4e487b7100000000000000000000000000000000000000000000000000000000600052601160045260246000fd5b7f4e487b7100000000000000000000000000000000000000000000000000000000600052601260045260246000fd5b7f4e487b7100000000000000000000000000000000000000000000000000000000600052602260045260246000fd5b7f4e487b7100000000000000000000000000000000000000000000000000000000600052603260045260246000fd5b7f4e487b7100000000000000000000000000000000000000000000000000000000600052604160045260246000fd5b600080fd5b600080fd5b600080fd5b600080fd5b6000601f19601f8301169050919050565b60008160601b9050919050565b7f4231000000000000000000000000000000000000000000000000000000000000600082015250565b7f4552433732313a207472616e7366657220746f206e6f6e20455243373231526560008201527f63656976657220696d706c656d656e7465720000000000000000000000000000602082015250565b7f4552433732313a20746f6b656e20616c7265616479206d696e74656400000000600082015250565b7f5431000000000000000000000000000000000000000000000000000000000000600082015250565b7f4131000000000000000000000000000000000000000000000000000000000000600082015250565b7f5831000000000000000000000000000000000000000000000000000000000000600082015250565b7f4552433732313a207472616e7366657220746f20746865207a65726f2061646460008201527f7265737300000000000000000000000000000000000000000000000000000000602082015250565b7f4552433732313a20617070726f766520746f2063616c6c657200000000000000600082015250565b7f4552433732313a206f70657261746f7220717565727920666f72206e6f6e657860008201527f697374656e7420746f6b656e0000000000000000000000000000000000000000602082015250565b7f5332000000000000000000000000000000000000000000000000000000000000600082015250565b7f4552433732313a20617070726f76652063616c6c6572206973206e6f74206f7760008201527f6e6572206e6f7220617070726f76656420666f7220616c6c0000000000000000602082015250565b7f4552433732313a2062616c616e636520717565727920666f7220746865207a6560008201527f726f206164647265737300000000000000000000000000000000000000000000602082015250565b7f4552433732313a206f776e657220717565727920666f72206e6f6e657869737460008201527f656e7420746f6b656e0000000000000000000000000000000000000000000000602082015250565b7f4552433732313a206d696e7420746f20746865207a65726f2061646472657373600082015250565b7f4552433732313a20617070726f76656420717565727920666f72206e6f6e657860008201527f697374656e7420746f6b656e0000000000000000000000000000000000000000602082015250565b7f4552433732313a207472616e73666572206f6620746f6b656e2074686174206960008201527f73206e6f74206f776e0000000000000000000000000000000000000000000000602082015250565b7f4552433732314d657461646174613a2055524920717565727920666f72206e6f60008201527f6e6578697374656e7420746f6b656e0000000000000000000000000000000000602082015250565b7f4552433732313a20617070726f76616c20746f2063757272656e74206f776e6560008201527f7200000000000000000000000000000000000000000000000000000000000000602082015250565b7f4552433732313a207472616e736665722063616c6c6572206973206e6f74206f60008201527f776e6572206e6f7220617070726f766564000000000000000000000000000000602082015250565b7f5331000000000000000000000000000000000000000000000000000000000000600082015250565b7f4f31000000000000000000000000000000000000000000000000000000000000600082015250565b615d098161546f565b8114615d1457600080fd5b50565b615d2081615481565b8114615d2b57600080fd5b50565b615d378161548d565b8114615d4257600080fd5b50565b615d4e816154d9565b8114615d5957600080fd5b5056fea26469706673582212207e3adea9919a390f78e946d838327ca00c6a0203a6948dd07c4cd699e09526ae64736f6c63430008060033",
  "immutableReferences": {},
  "source": "// SPDX-License-Identifier: MIT\r\npragma solidity >=0.4.22 <0.9.0;\r\nimport \"../node_modules/@openzeppelin/contracts/token/ERC20/IERC20.sol\";\r\nimport \"../node_modules/@openzeppelin/contracts/token/ERC721/ERC721.sol\";\r\nimport \"../contracts/PBTeams.sol\";\r\nimport \"../contracts/PBProShopFactory.sol\";\r\nimport \"../contracts/PBPlayerMarketplace.sol\";\r\nimport \"../contracts/PBXP.sol\";\r\n\r\ncontract PBPlayers is ERC721 {\r\n\r\n    address admin;\r\n    address pbTeamsAddress;\r\n    address pbxpAddress;\r\n    uint mintCost1;\r\n    uint mintCost2;\r\n    uint mintCost3;\r\n    address marketplaceAddress;\r\n    address proshopAddress;\r\n    uint dnaDigits = 30;\r\n    uint dnaModulus = 10 ** dnaDigits;\r\n    uint bellCurveIterations = 4;\r\n    uint ageoutSeconds;\r\n    \r\n    IERC20 public buddies;\r\n    PBProShopFactory public pbProShopFactory;\r\n    PBTeams public pbTeams;\r\n    PBPlayerMarketplace public pbPlayerMarketplace;\r\n    PBXP public pbxp;\r\n    \r\n\r\n    struct Player{\r\n        uint offence;\r\n        uint defence;\r\n        uint dna;\r\n        uint playertype;\r\n        uint mainColor;\r\n        uint ageoutTimestamp;\r\n        uint draftTimestamp;\r\n        uint equippedJersey;\r\n        uint equippedToken;\r\n        uint equippedItem;\r\n        uint itemToken;\r\n        \r\n    }\r\n\r\n    uint nextId = 0;\r\n\r\n    event newSuperstar(uint tokenId);\r\n\r\n\r\n    mapping (uint => Player ) public _tokenDetails;\r\n\r\n    constructor(address _buddiesCoinAddress, uint _mintCost1, uint _mintCost2, uint _mintCost3, uint _ageoutSeconds) ERC721(\"Pixel Puck Player\", \"PPP\"){\r\n        admin = msg.sender;\r\n        buddies = IERC20(_buddiesCoinAddress);\r\n        mintCost1 = _mintCost1;\r\n        mintCost2 = _mintCost2;\r\n        mintCost3 = _mintCost3;\r\n        ageoutSeconds = _ageoutSeconds;\r\n    }\r\n\r\n    modifier onlyAdmin() {\r\n        require(admin == msg.sender, \"A1\" );\r\n        _;\r\n    }\r\n\r\n    modifier onlyTeams() {\r\n        require(pbTeamsAddress == msg.sender, \"T1\" );\r\n        _;\r\n    }\r\n\r\n    modifier onlyPBXP() {\r\n        require(pbxpAddress == msg.sender, \"X1\" );\r\n        _;\r\n    }\r\n\r\n    function isAdmin() public view returns (bool){\r\n        if(admin == msg.sender){\r\n            return true;\r\n        } else return false;\r\n    }\r\n\r\n    function getPBPlayersAddress() public view returns(address){\r\n        return address(this);\r\n    }\r\n    \r\n    function updateBuddiesCoinAddress(address _buddiesCoinAddress) onlyAdmin external {\r\n        buddies = IERC20(_buddiesCoinAddress);\r\n    }\r\n\r\n    function updatePBTeamsAddress(address _pbTeamsAddress) external onlyAdmin {\r\n        pbTeams = PBTeams(_pbTeamsAddress);\r\n        pbTeamsAddress = _pbTeamsAddress;\r\n    }\r\n\r\n    function updatePBProShopFactoryAddress(address _proshopAddress) external onlyAdmin {\r\n        pbProShopFactory = PBProShopFactory(_proshopAddress);\r\n    }\r\n\r\n    function updatePBPlayerMarketplaceAddress(address _pbPlayerMarketplaceAddress) external onlyAdmin {\r\n        pbPlayerMarketplace = PBPlayerMarketplace(_pbPlayerMarketplaceAddress);\r\n    }\r\n\r\n    function updatePBXPaddress(address _pbxpAddress) external onlyAdmin {\r\n        pbxp = PBXP(_pbxpAddress);\r\n        pbxpAddress = _pbxpAddress;\r\n    }\r\n\r\n    function updateVariables(uint _mintCost1, uint _mintCost2, uint _mintCost3, uint _ageoutSeconds) external onlyAdmin {\r\n        mintCost1 = _mintCost1;\r\n        mintCost2 = _mintCost2;\r\n        mintCost3 = _mintCost3;\r\n        ageoutSeconds = _ageoutSeconds;\r\n    }\r\n\r\n    function getMintingCosts() public view returns (uint, uint, uint, uint){\r\n            return (mintCost1, mintCost2, mintCost3, ageoutSeconds);\r\n    }\r\n\r\n    function getNextId() public view returns (uint){\r\n        return nextId;\r\n    }\r\n\r\n    function getTokenDetails(uint tokenId) public view returns (Player memory){\r\n        return _tokenDetails[tokenId];\r\n    }\r\n\r\n    function mintPlayer(uint value, uint playerType) external {\r\n        if(nextId == 0){\r\n            require(msg.sender == admin, \"A1\");\r\n        }\r\n        uint allowance = buddies.allowance(msg.sender, address(this));\r\n        require(allowance >= value, \"B1\");\r\n        buddies.transferFrom(msg.sender, address(this), value);\r\n        if(playerType == 1){\r\n            _tokenDetails[nextId] = Player(_generateRandAtrrib(msg.sender, 50, 50, _randHelper(1)), _generateRandAtrrib(msg.sender, 50, 0, _randHelper(2)), _generateRandDna(msg.sender, _randHelper(1)), playerType,0,block.timestamp + ageoutSeconds,block.timestamp,0,0,0,0);\r\n        }else if(playerType == 2){\r\n             _tokenDetails[nextId] = Player(_generateRandAtrrib(msg.sender, 50, 0, _randHelper(3)), _generateRandAtrrib(msg.sender, 50, 50, _randHelper(4)), _generateRandDna(msg.sender, _randHelper(3)), playerType,0,block.timestamp + ageoutSeconds,block.timestamp,0,0,0,0);\r\n        }else if (playerType == 3){\r\n             _tokenDetails[nextId] = Player(0, _generateRandAtrrib(msg.sender, 25, 75, _randHelper(5)), _generateRandDna(msg.sender, _randHelper(5)), playerType,0,block.timestamp + ageoutSeconds,block.timestamp,0,0,0,0);\r\n        } \r\n        _safeMint(msg.sender, nextId);\r\n        setApprovalForAll(marketplaceAddress, true);\r\n        nextId++;\r\n    }\r\n\r\n     function mintSixPackPlayer(uint _op, uint _dp, address minter, uint playerType) public onlyTeams returns (uint) {\r\n        if(nextId == 0){\r\n            require(msg.sender == admin, \"A1\");\r\n        }\r\n        uint currentId = nextId;\r\n        if(playerType == 1) {\r\n            _tokenDetails[currentId] = Player(_op,_dp, _generateRandDna(minter, _randHelper(1)), playerType,0,block.timestamp + ageoutSeconds,block.timestamp,0,0,0,0);\r\n        } else if (playerType == 2){\r\n            _tokenDetails[currentId] = Player(_op,_dp, _generateRandDna(minter, _randHelper(3)), playerType,0,block.timestamp + ageoutSeconds,block.timestamp,0,0,0,0);\r\n        } else if (playerType == 3) {\r\n            _tokenDetails[currentId] = Player(_op,_dp, _generateRandDna(minter, _randHelper(5)), playerType,0,block.timestamp + ageoutSeconds,block.timestamp,0,0,0,0);\r\n        }        \r\n        _safeMint(minter, currentId);\r\n        setApprovalForAll(marketplaceAddress, true);\r\n        nextId++;\r\n        return (currentId);\r\n    }\r\n\r\n    function _randHelper(uint a) public view returns (uint){\r\n        return a + nextId;\r\n    }\r\n\r\n    function mintSuperstar(address playerOwner, uint opScore, uint dpScore, uint dna, uint playerType) external onlyAdmin {\r\n        if(playerType == 1){\r\n            _tokenDetails[nextId] = Player(opScore, dpScore, dna, playerType,0,block.timestamp + ageoutSeconds,block.timestamp,0,0,0,0);\r\n        }else if(playerType == 2){\r\n            _tokenDetails[nextId] = Player(opScore, dpScore, dna, playerType,0,block.timestamp + ageoutSeconds,block.timestamp,0,0,0,0);\r\n        }else if(playerType == 3){\r\n            _tokenDetails[nextId] = Player(opScore, dpScore, dna, playerType,0,block.timestamp + ageoutSeconds,block.timestamp,0,0,0,0);\r\n        }\r\n        _safeMint(playerOwner, nextId);\r\n        setApprovalForAll(marketplaceAddress, true);\r\n        nextId++;\r\n        emit newSuperstar(nextId-1);\r\n    }\r\n\r\n    function getAllTokensForUser(address user) public view returns (uint256[] memory){\r\n        uint256 tokenCount = balanceOf(user);\r\n        if(tokenCount == 0){\r\n            return new uint256[](0);\r\n        }\r\n        else{\r\n            uint[] memory result = new uint256[](tokenCount);\r\n            uint256 totalPlayers = nextId;\r\n            uint256 resultIndex = 0;\r\n            uint256 i;\r\n            for(i = 0; i < totalPlayers; i++){\r\n                if(ownerOf(i) == user){\r\n                    result[resultIndex] = i;\r\n                    resultIndex++;\r\n                }\r\n                \r\n            }\r\n            return result;\r\n        }\r\n    }\r\n\r\n    function giftPlayer(uint tokenId, address newOwner) public {\r\n        require (ownerOf(tokenId) == msg.sender);\r\n        safeTransferFrom(msg.sender, newOwner, tokenId, \"\");\r\n    }\r\n\r\n    function updateEquipment(uint token, uint sku, uint playerid) public {\r\n        uint tokenBalance = pbProShopFactory.balanceOf(msg.sender, token);\r\n        require(tokenBalance >= 1);\r\n        _tokenDetails[playerid].equippedJersey = sku;\r\n        _tokenDetails[playerid].equippedToken = token;     \r\n        pbProShopFactory.burnOnEquip(msg.sender, token);\r\n    }\r\n\r\n    function removeEquipment(uint playerid) public {\r\n        require(_tokenDetails[playerid].equippedToken != 0);\r\n        uint returnToken;\r\n        returnToken = _tokenDetails[playerid].equippedToken;\r\n        _tokenDetails[playerid].equippedJersey = 0;\r\n        _tokenDetails[playerid].equippedToken = 0;\r\n        pbProShopFactory.mintOnUnequip(msg.sender, returnToken);\r\n    }\r\n\r\n    function updateItem(uint token, uint sku, uint playerid) public {\r\n        uint tokenBalance = pbProShopFactory.balanceOf(msg.sender, token);\r\n        require(tokenBalance >= 1);\r\n        _tokenDetails[playerid].equippedItem = sku;\r\n        _tokenDetails[playerid].itemToken = token;     \r\n        pbProShopFactory.burnOnEquip(msg.sender, token);\r\n    }\r\n\r\n    function removeItem(uint playerid) public {\r\n        require(_tokenDetails[playerid].itemToken != 0);\r\n        uint returnToken;\r\n        returnToken = _tokenDetails[playerid].itemToken;\r\n        _tokenDetails[playerid].equippedItem = 0;\r\n        _tokenDetails[playerid].itemToken = 0;\r\n        pbProShopFactory.mintOnUnequip(msg.sender, returnToken);\r\n    }\r\n\r\n    function addOp(uint tokenId, uint qty, address owner) public onlyPBXP {\r\n        require(ownerOf(tokenId) == owner, \"O1\");\r\n        require(_tokenDetails[tokenId].offence <= 99, \"S1\");\r\n       _tokenDetails[tokenId].offence = _tokenDetails[tokenId].offence + qty;\r\n    }\r\n\r\n    function addDp(uint tokenId, uint qty, address owner) public onlyPBXP {\r\n        require(ownerOf(tokenId) == owner, \"O1\");\r\n        require(_tokenDetails[tokenId].defence <= 99, \"S2\");\r\n       _tokenDetails[tokenId].defence = _tokenDetails[tokenId].defence + qty;\r\n    }\r\n\r\n    function _generateRandDna (address sender, uint randHelper) public view returns (uint){\r\n        uint rand = uint(keccak256(abi.encodePacked(block.timestamp, block.difficulty, sender, randHelper)));\r\n        return rand % dnaModulus;\r\n    }\r\n\r\n    function _generateRandAtrrib (address sender, uint mod, uint base, uint randHelper) public view returns (uint){\r\n        uint operator = 0;\r\n        uint i;\r\n        for( i = 0; i < bellCurveIterations; i++) {\r\n            operator = operator + (uint(keccak256(abi.encodePacked(randHelper, i, block.difficulty, block.timestamp, sender))) % mod);\r\n        }\r\n        uint primaryAttrib = operator/bellCurveIterations;\r\n        return primaryAttrib + base;\r\n    }\r\n\r\n    function getBuddiesOnContract() public view onlyAdmin returns (uint){\r\n       return buddies.balanceOf(address(this));\r\n    }\r\n\r\n    function withdrawBuddies(uint value) public onlyAdmin {\r\n        buddies.transferFrom(address(this), msg.sender, value);\r\n    }\r\n\r\n}\r\n",
  "sourcePath": "O:\\Projects\\puck-buddies\\contracts\\PBPlayers.sol",
  "compiler": {
    "name": "solc",
    "version": "0.8.6+commit.11564f7e.Emscripten.clang"
  },
  "schemaVersion": "3.4.3",
  "updatedAt": "2022-01-07T04:17:56.746Z",
  "networkType": "ethereum",
  "devdoc": {
    "kind": "dev",
    "methods": {
      "approve(address,uint256)": {
        "details": "See {IERC721-approve}."
      },
      "balanceOf(address)": {
        "details": "See {IERC721-balanceOf}."
      },
      "getApproved(uint256)": {
        "details": "See {IERC721-getApproved}."
      },
      "isApprovedForAll(address,address)": {
        "details": "See {IERC721-isApprovedForAll}."
      },
      "name()": {
        "details": "See {IERC721Metadata-name}."
      },
      "ownerOf(uint256)": {
        "details": "See {IERC721-ownerOf}."
      },
      "safeTransferFrom(address,address,uint256)": {
        "details": "See {IERC721-safeTransferFrom}."
      },
      "safeTransferFrom(address,address,uint256,bytes)": {
        "details": "See {IERC721-safeTransferFrom}."
      },
      "setApprovalForAll(address,bool)": {
        "details": "See {IERC721-setApprovalForAll}."
      },
      "supportsInterface(bytes4)": {
        "details": "See {IERC165-supportsInterface}."
      },
      "symbol()": {
        "details": "See {IERC721Metadata-symbol}."
      },
      "tokenURI(uint256)": {
        "details": "See {IERC721Metadata-tokenURI}."
      },
      "transferFrom(address,address,uint256)": {
        "details": "See {IERC721-transferFrom}."
      }
    },
    "version": 1
  },
  "userdoc": {
    "kind": "user",
    "methods": {},
    "version": 1
  }
}