{
  "contractName": "PBPlayerMarketplace",
  "abi": [
    {
      "inputs": [
        {
          "internalType": "address",
          "name": "_buddiesCoinAddress",
          "type": "address"
        },
        {
          "internalType": "address",
          "name": "_pbPlayersAddress",
          "type": "address"
        },
        {
          "internalType": "address",
          "name": "_feesAddress",
          "type": "address"
        }
      ],
      "stateMutability": "nonpayable",
      "type": "constructor"
    },
    {
      "anonymous": false,
      "inputs": [
        {
          "indexed": true,
          "internalType": "uint256",
          "name": "itemId",
          "type": "uint256"
        },
        {
          "indexed": false,
          "internalType": "bool",
          "name": "valid",
          "type": "bool"
        },
        {
          "indexed": true,
          "internalType": "address",
          "name": "nftContract",
          "type": "address"
        },
        {
          "indexed": true,
          "internalType": "uint256",
          "name": "tokenId",
          "type": "uint256"
        },
        {
          "indexed": false,
          "internalType": "address",
          "name": "seller",
          "type": "address"
        },
        {
          "indexed": false,
          "internalType": "address",
          "name": "owner",
          "type": "address"
        },
        {
          "indexed": false,
          "internalType": "uint256",
          "name": "totalprice",
          "type": "uint256"
        },
        {
          "indexed": false,
          "internalType": "uint256",
          "name": "price",
          "type": "uint256"
        },
        {
          "indexed": false,
          "internalType": "uint256",
          "name": "fee",
          "type": "uint256"
        }
      ],
      "name": "MarketItemCreated",
      "type": "event"
    },
    {
      "inputs": [],
      "name": "buddies",
      "outputs": [
        {
          "internalType": "contract IERC20",
          "name": "",
          "type": "address"
        }
      ],
      "stateMutability": "view",
      "type": "function"
    },
    {
      "inputs": [],
      "name": "isAdmin",
      "outputs": [
        {
          "internalType": "bool",
          "name": "",
          "type": "bool"
        }
      ],
      "stateMutability": "view",
      "type": "function"
    },
    {
      "inputs": [
        {
          "internalType": "address",
          "name": "_buddiesCoinAddress",
          "type": "address"
        }
      ],
      "name": "updateBuddiesCoinAddress",
      "outputs": [],
      "stateMutability": "nonpayable",
      "type": "function"
    },
    {
      "inputs": [],
      "name": "getPBMarketplaceAddress",
      "outputs": [
        {
          "internalType": "address",
          "name": "",
          "type": "address"
        }
      ],
      "stateMutability": "view",
      "type": "function"
    },
    {
      "inputs": [],
      "name": "getMarketFeePercent",
      "outputs": [
        {
          "internalType": "uint256",
          "name": "",
          "type": "uint256"
        }
      ],
      "stateMutability": "view",
      "type": "function"
    },
    {
      "inputs": [
        {
          "internalType": "uint256",
          "name": "value",
          "type": "uint256"
        }
      ],
      "name": "updateMarketFeePercent",
      "outputs": [
        {
          "internalType": "uint256",
          "name": "",
          "type": "uint256"
        }
      ],
      "stateMutability": "nonpayable",
      "type": "function"
    },
    {
      "inputs": [],
      "name": "getMarketFeePayableAddress",
      "outputs": [
        {
          "internalType": "address",
          "name": "",
          "type": "address"
        }
      ],
      "stateMutability": "view",
      "type": "function"
    },
    {
      "inputs": [
        {
          "internalType": "address payable",
          "name": "newaddress",
          "type": "address"
        }
      ],
      "name": "updateFeePayableAddress",
      "outputs": [
        {
          "internalType": "address",
          "name": "",
          "type": "address"
        }
      ],
      "stateMutability": "nonpayable",
      "type": "function"
    },
    {
      "inputs": [
        {
          "internalType": "address",
          "name": "nftContract",
          "type": "address"
        },
        {
          "internalType": "uint256",
          "name": "tokenId",
          "type": "uint256"
        },
        {
          "internalType": "uint256",
          "name": "sellerprice",
          "type": "uint256"
        },
        {
          "internalType": "uint256",
          "name": "fee",
          "type": "uint256"
        }
      ],
      "name": "createMarketItem",
      "outputs": [],
      "stateMutability": "payable",
      "type": "function"
    },
    {
      "inputs": [
        {
          "internalType": "address",
          "name": "nftContract",
          "type": "address"
        },
        {
          "internalType": "uint256",
          "name": "_itemId",
          "type": "uint256"
        },
        {
          "internalType": "uint256",
          "name": "_sellPrice",
          "type": "uint256"
        },
        {
          "internalType": "uint256",
          "name": "_fee",
          "type": "uint256"
        }
      ],
      "name": "createMarketSale",
      "outputs": [],
      "stateMutability": "nonpayable",
      "type": "function"
    },
    {
      "inputs": [
        {
          "internalType": "address",
          "name": "nftContract",
          "type": "address"
        },
        {
          "internalType": "uint256",
          "name": "_itemId",
          "type": "uint256"
        }
      ],
      "name": "cancelMarketSale",
      "outputs": [],
      "stateMutability": "nonpayable",
      "type": "function"
    },
    {
      "inputs": [],
      "name": "getMarketItems",
      "outputs": [
        {
          "components": [
            {
              "internalType": "uint256",
              "name": "itemId",
              "type": "uint256"
            },
            {
              "internalType": "bool",
              "name": "valid",
              "type": "bool"
            },
            {
              "internalType": "address",
              "name": "nftContract",
              "type": "address"
            },
            {
              "internalType": "uint256",
              "name": "tokenId",
              "type": "uint256"
            },
            {
              "internalType": "address",
              "name": "seller",
              "type": "address"
            },
            {
              "internalType": "address",
              "name": "owner",
              "type": "address"
            },
            {
              "internalType": "uint256",
              "name": "totalPrice",
              "type": "uint256"
            },
            {
              "internalType": "uint256",
              "name": "sellerPrice",
              "type": "uint256"
            },
            {
              "internalType": "uint256",
              "name": "marketfee",
              "type": "uint256"
            }
          ],
          "internalType": "struct PBPlayerMarketplace.MarketItem[]",
          "name": "",
          "type": "tuple[]"
        }
      ],
      "stateMutability": "view",
      "type": "function"
    }
  ],
  "bytecode": "0x60806040526101906007553480156200001757600080fd5b50604051620020323803806200203283398181016040528101906200003d919062000169565b600160008190555033600160006101000a81548173ffffffffffffffffffffffffffffffffffffffff021916908373ffffffffffffffffffffffffffffffffffffffff16021790555082600860006101000a81548173ffffffffffffffffffffffffffffffffffffffff021916908373ffffffffffffffffffffffffffffffffffffffff16021790555081600260006101000a81548173ffffffffffffffffffffffffffffffffffffffff021916908373ffffffffffffffffffffffffffffffffffffffff16021790555080600360006101000a81548173ffffffffffffffffffffffffffffffffffffffff021916908373ffffffffffffffffffffffffffffffffffffffff16021790555050505062000218565b6000815190506200016381620001fe565b92915050565b600080600060608486031215620001855762000184620001f9565b5b6000620001958682870162000152565b9350506020620001a88682870162000152565b9250506040620001bb8682870162000152565b9150509250925092565b6000620001d282620001d9565b9050919050565b600073ffffffffffffffffffffffffffffffffffffffff82169050919050565b600080fd5b6200020981620001c5565b81146200021557600080fd5b50565b611e0a80620002286000396000f3fe6080604052600436106100a75760003560e01c80635d632faf116100645780635d632faf146101c15780636d221aa0146101ea578063b6db75a014610215578063d511c03714610240578063d89f7ad714610269578063e9ab2ae914610294576100a7565b80631dd9cf86146100ac57806321465622146100d557806329aa3a4214610112578063329c4b5e1461013d5780634a594c121461017a578063599ba234146101a5575b600080fd5b3480156100b857600080fd5b506100d360048036038101906100ce91906114af565b6102bf565b005b3480156100e157600080fd5b506100fc60048036038101906100f79190611482565b6104d0565b6040516101099190611846565b60405180910390f35b34801561011e57600080fd5b506101276105cd565b60405161013491906118c1565b60405180910390f35b34801561014957600080fd5b50610164600480360381019061015f9190611583565b6108cd565b6040516101719190611a3a565b60405180910390f35b34801561018657600080fd5b5061018f610970565b60405161019c919061195f565b60405180910390f35b6101bf60048036038101906101ba91906114ef565b610996565b005b3480156101cd57600080fd5b506101e860048036038101906101e39190611455565b610d31565b005b3480156101f657600080fd5b506101ff610e05565b60405161020c9190611a3a565b60405180910390f35b34801561022157600080fd5b5061022a610e0f565b60405161023791906118e3565b60405180910390f35b34801561024c57600080fd5b50610267600480360381019061026291906114ef565b610e78565b005b34801561027557600080fd5b5061027e611301565b60405161028b9190611846565b60405180910390f35b3480156102a057600080fd5b506102a961132b565b6040516102b69190611846565b60405180910390f35b60026000541415610305576040517f08c379a00000000000000000000000000000000000000000000000000000000081526004016102fc90611a1a565b60405180910390fd5b60026000819055506009600082815260200190815260200160002060030160009054906101000a900473ffffffffffffffffffffffffffffffffffffffff1673ffffffffffffffffffffffffffffffffffffffff163373ffffffffffffffffffffffffffffffffffffffff16146103b1576040517f08c379a00000000000000000000000000000000000000000000000000000000081526004016103a8906119ba565b60405180910390fd5b336009600083815260200190815260200160002060040160006101000a81548173ffffffffffffffffffffffffffffffffffffffff021916908373ffffffffffffffffffffffffffffffffffffffff16021790555060006009600083815260200190815260200160002060010160006101000a81548160ff0219169083151502179055508173ffffffffffffffffffffffffffffffffffffffff166342842e0e303360096000868152602001908152602001600020600201546040518463ffffffff1660e01b81526004016104889392919061188a565b600060405180830381600087803b1580156104a257600080fd5b505af11580156104b6573d6000803e3d6000fd5b505050506104c46006611338565b60016000819055505050565b60003373ffffffffffffffffffffffffffffffffffffffff16600160009054906101000a900473ffffffffffffffffffffffffffffffffffffffff1673ffffffffffffffffffffffffffffffffffffffff1614610562576040517f08c379a00000000000000000000000000000000000000000000000000000000081526004016105599061199a565b60405180910390fd5b81600360006101000a81548173ffffffffffffffffffffffffffffffffffffffff021916908373ffffffffffffffffffffffffffffffffffffffff160217905550600360009054906101000a900473ffffffffffffffffffffffffffffffffffffffff169050919050565b606060006105db600461134e565b905060006105e9600661134e565b6105f3600561134e565b836105fe9190611af5565b6106089190611af5565b90506000808267ffffffffffffffff81111561062757610626611c4e565b5b60405190808252806020026020018201604052801561066057816020015b61064d61135c565b8152602001906001900390816106455790505b50905060005b848110156108c257600073ffffffffffffffffffffffffffffffffffffffff16600960006001846106979190611a9f565b815260200190815260200160002060040160009054906101000a900473ffffffffffffffffffffffffffffffffffffffff1673ffffffffffffffffffffffffffffffffffffffff1614156108af576000600960006001846106f89190611a9f565b815260200190815260200160002060000154905060006009600083815260200190815260200160002090508060405180610120016040529081600082015481526020016001820160009054906101000a900460ff161515151581526020016001820160019054906101000a900473ffffffffffffffffffffffffffffffffffffffff1673ffffffffffffffffffffffffffffffffffffffff1673ffffffffffffffffffffffffffffffffffffffff168152602001600282015481526020016003820160009054906101000a900473ffffffffffffffffffffffffffffffffffffffff1673ffffffffffffffffffffffffffffffffffffffff1673ffffffffffffffffffffffffffffffffffffffff1681526020016004820160009054906101000a900473ffffffffffffffffffffffffffffffffffffffff1673ffffffffffffffffffffffffffffffffffffffff1673ffffffffffffffffffffffffffffffffffffffff168152602001600582015481526020016006820154815260200160078201548152505084868151811061089257610891611c1f565b5b60200260200101819052506001856108aa9190611a9f565b945050505b80806108ba90611ba7565b915050610666565b508094505050505090565b60003373ffffffffffffffffffffffffffffffffffffffff16600160009054906101000a900473ffffffffffffffffffffffffffffffffffffffff1673ffffffffffffffffffffffffffffffffffffffff161461095f576040517f08c379a00000000000000000000000000000000000000000000000000000000081526004016109569061199a565b60405180910390fd5b816007819055506007549050919050565b600860009054906101000a900473ffffffffffffffffffffffffffffffffffffffff1681565b600260005414156109dc576040517f08c379a00000000000000000000000000000000000000000000000000000000081526004016109d390611a1a565b60405180910390fd5b600260008190555060008211610a27576040517f08c379a0000000000000000000000000000000000000000000000000000000008152600401610a1e906119da565b60405180910390fd5b60008111610a6a576040517f08c379a0000000000000000000000000000000000000000000000000000000008152600401610a619061197a565b60405180910390fd5b60008183610a789190611a9f565b9050610a846004611338565b6000610a90600461134e565b90506040518061012001604052808281526020016001151581526020018773ffffffffffffffffffffffffffffffffffffffff1681526020018681526020013373ffffffffffffffffffffffffffffffffffffffff168152602001600073ffffffffffffffffffffffffffffffffffffffff16815260200183815260200185815260200184815250600960008381526020019081526020016000206000820151816000015560208201518160010160006101000a81548160ff02191690831515021790555060408201518160010160016101000a81548173ffffffffffffffffffffffffffffffffffffffff021916908373ffffffffffffffffffffffffffffffffffffffff1602179055506060820151816002015560808201518160030160006101000a81548173ffffffffffffffffffffffffffffffffffffffff021916908373ffffffffffffffffffffffffffffffffffffffff16021790555060a08201518160040160006101000a81548173ffffffffffffffffffffffffffffffffffffffff021916908373ffffffffffffffffffffffffffffffffffffffff16021790555060c0820151816005015560e0820151816006015561010082015181600701559050508573ffffffffffffffffffffffffffffffffffffffff166323b872dd3330886040518463ffffffff1660e01b8152600401610c939392919061188a565b600060405180830381600087803b158015610cad57600080fd5b505af1158015610cc1573d6000803e3d6000fd5b50505050848673ffffffffffffffffffffffffffffffffffffffff16827f92c60316cdb566cc45367fce94b8a51545e7273fce9c797b51ed6ae12eb341786001336000888b8b604051610d19969594939291906118fe565b60405180910390a45050600160008190555050505050565b3373ffffffffffffffffffffffffffffffffffffffff16600160009054906101000a900473ffffffffffffffffffffffffffffffffffffffff1673ffffffffffffffffffffffffffffffffffffffff1614610dc1576040517f08c379a0000000000000000000000000000000000000000000000000000000008152600401610db89061199a565b60405180910390fd5b80600860006101000a81548173ffffffffffffffffffffffffffffffffffffffff021916908373ffffffffffffffffffffffffffffffffffffffff16021790555050565b6000600754905090565b60003373ffffffffffffffffffffffffffffffffffffffff16600160009054906101000a900473ffffffffffffffffffffffffffffffffffffffff1673ffffffffffffffffffffffffffffffffffffffff161415610e705760019050610e75565b600090505b90565b60026000541415610ebe576040517f08c379a0000000000000000000000000000000000000000000000000000000008152600401610eb590611a1a565b60405180910390fd5b600260008190555060008183610ed49190611a9f565b905060096000858152602001908152602001600020600501548114610f2e576040517f08c379a0000000000000000000000000000000000000000000000000000000008152600401610f25906119fa565b60405180910390fd5b6000600860009054906101000a900473ffffffffffffffffffffffffffffffffffffffff1673ffffffffffffffffffffffffffffffffffffffff1663dd62ed3e33306040518363ffffffff1660e01b8152600401610f8d929190611861565b60206040518083038186803b158015610fa557600080fd5b505afa158015610fb9573d6000803e3d6000fd5b505050506040513d601f19601f82011682018060405250810190610fdd91906115b0565b905081811015611022576040517f08c379a00000000000000000000000000000000000000000000000000000000081526004016110199061199a565b60405180910390fd5b600860009054906101000a900473ffffffffffffffffffffffffffffffffffffffff1673ffffffffffffffffffffffffffffffffffffffff166323b872dd33600360009054906101000a900473ffffffffffffffffffffffffffffffffffffffff16866040518463ffffffff1660e01b81526004016110a39392919061188a565b602060405180830381600087803b1580156110bd57600080fd5b505af11580156110d1573d6000803e3d6000fd5b505050506040513d601f19601f820116820180604052508101906110f59190611556565b50600860009054906101000a900473ffffffffffffffffffffffffffffffffffffffff1673ffffffffffffffffffffffffffffffffffffffff166323b872dd336009600089815260200190815260200160002060030160009054906101000a900473ffffffffffffffffffffffffffffffffffffffff16876040518463ffffffff1660e01b815260040161118b9392919061188a565b602060405180830381600087803b1580156111a557600080fd5b505af11580156111b9573d6000803e3d6000fd5b505050506040513d601f19601f820116820180604052508101906111dd9190611556565b50336009600087815260200190815260200160002060040160006101000a81548173ffffffffffffffffffffffffffffffffffffffff021916908373ffffffffffffffffffffffffffffffffffffffff16021790555060006009600087815260200190815260200160002060010160006101000a81548160ff0219169083151502179055508573ffffffffffffffffffffffffffffffffffffffff166342842e0e3033600960008a8152602001908152602001600020600201546040518463ffffffff1660e01b81526004016112b59392919061188a565b600060405180830381600087803b1580156112cf57600080fd5b505af11580156112e3573d6000803e3d6000fd5b505050506112f16005611338565b5050600160008190555050505050565b6000600360009054906101000a900473ffffffffffffffffffffffffffffffffffffffff16905090565b6000803090508091505090565b6001816000016000828254019250508190555050565b600081600001549050919050565b60405180610120016040528060008152602001600015158152602001600073ffffffffffffffffffffffffffffffffffffffff16815260200160008152602001600073ffffffffffffffffffffffffffffffffffffffff168152602001600073ffffffffffffffffffffffffffffffffffffffff1681526020016000815260200160008152602001600081525090565b6000813590506113fb81611d78565b92915050565b60008135905061141081611d8f565b92915050565b60008151905061142581611da6565b92915050565b60008135905061143a81611dbd565b92915050565b60008151905061144f81611dbd565b92915050565b60006020828403121561146b5761146a611c7d565b5b6000611479848285016113ec565b91505092915050565b60006020828403121561149857611497611c7d565b5b60006114a684828501611401565b91505092915050565b600080604083850312156114c6576114c5611c7d565b5b60006114d4858286016113ec565b92505060206114e58582860161142b565b9150509250929050565b6000806000806080858703121561150957611508611c7d565b5b6000611517878288016113ec565b94505060206115288782880161142b565b93505060406115398782880161142b565b925050606061154a8782880161142b565b91505092959194509250565b60006020828403121561156c5761156b611c7d565b5b600061157a84828501611416565b91505092915050565b60006020828403121561159957611598611c7d565b5b60006115a78482850161142b565b91505092915050565b6000602082840312156115c6576115c5611c7d565b5b60006115d484828501611440565b91505092915050565b60006115e98383611771565b6101208301905092915050565b6115ff81611b29565b82525050565b61160e81611b29565b82525050565b600061161f82611a65565b6116298185611a7d565b935061163483611a55565b8060005b8381101561166557815161164c88826115dd565b975061165783611a70565b925050600181019050611638565b5085935050505092915050565b61167b81611b4d565b82525050565b61168a81611b4d565b82525050565b61169981611b83565b82525050565b60006116ac600283611a8e565b91506116b782611c82565b602082019050919050565b60006116cf600283611a8e565b91506116da82611cab565b602082019050919050565b60006116f2600283611a8e565b91506116fd82611cd4565b602082019050919050565b6000611715600283611a8e565b915061172082611cfd565b602082019050919050565b6000611738600283611a8e565b915061174382611d26565b602082019050919050565b600061175b601f83611a8e565b915061176682611d4f565b602082019050919050565b610120820160008201516117886000850182611828565b50602082015161179b6020850182611672565b5060408201516117ae60408501826115f6565b5060608201516117c16060850182611828565b5060808201516117d460808501826115f6565b5060a08201516117e760a08501826115f6565b5060c08201516117fa60c0850182611828565b5060e082015161180d60e0850182611828565b50610100820151611822610100850182611828565b50505050565b61183181611b79565b82525050565b61184081611b79565b82525050565b600060208201905061185b6000830184611605565b92915050565b60006040820190506118766000830185611605565b6118836020830184611605565b9392505050565b600060608201905061189f6000830186611605565b6118ac6020830185611605565b6118b96040830184611837565b949350505050565b600060208201905081810360008301526118db8184611614565b905092915050565b60006020820190506118f86000830184611681565b92915050565b600060c0820190506119136000830189611681565b6119206020830188611605565b61192d6040830187611605565b61193a6060830186611837565b6119476080830185611837565b61195460a0830184611837565b979650505050505050565b60006020820190506119746000830184611690565b92915050565b600060208201905081810360008301526119938161169f565b9050919050565b600060208201905081810360008301526119b3816116c2565b9050919050565b600060208201905081810360008301526119d3816116e5565b9050919050565b600060208201905081810360008301526119f381611708565b9050919050565b60006020820190508181036000830152611a138161172b565b9050919050565b60006020820190508181036000830152611a338161174e565b9050919050565b6000602082019050611a4f6000830184611837565b92915050565b6000819050602082019050919050565b600081519050919050565b6000602082019050919050565b600082825260208201905092915050565b600082825260208201905092915050565b6000611aaa82611b79565b9150611ab583611b79565b9250827fffffffffffffffffffffffffffffffffffffffffffffffffffffffffffffffff03821115611aea57611ae9611bf0565b5b828201905092915050565b6000611b0082611b79565b9150611b0b83611b79565b925082821015611b1e57611b1d611bf0565b5b828203905092915050565b6000611b3482611b59565b9050919050565b6000611b4682611b59565b9050919050565b60008115159050919050565b600073ffffffffffffffffffffffffffffffffffffffff82169050919050565b6000819050919050565b6000611b8e82611b95565b9050919050565b6000611ba082611b59565b9050919050565b6000611bb282611b79565b91507fffffffffffffffffffffffffffffffffffffffffffffffffffffffffffffffff821415611be557611be4611bf0565b5b600182019050919050565b7f4e487b7100000000000000000000000000000000000000000000000000000000600052601160045260246000fd5b7f4e487b7100000000000000000000000000000000000000000000000000000000600052603260045260246000fd5b7f4e487b7100000000000000000000000000000000000000000000000000000000600052604160045260246000fd5b600080fd5b7f4630000000000000000000000000000000000000000000000000000000000000600082015250565b7f4131000000000000000000000000000000000000000000000000000000000000600082015250565b7f4d33000000000000000000000000000000000000000000000000000000000000600082015250565b7f4d30000000000000000000000000000000000000000000000000000000000000600082015250565b7f4d32000000000000000000000000000000000000000000000000000000000000600082015250565b7f5265656e7472616e637947756172643a207265656e7472616e742063616c6c00600082015250565b611d8181611b29565b8114611d8c57600080fd5b50565b611d9881611b3b565b8114611da357600080fd5b50565b611daf81611b4d565b8114611dba57600080fd5b50565b611dc681611b79565b8114611dd157600080fd5b5056fea26469706673582212203a93d56e220c7eeb53f4415cb8c864344ca36da3d53fee8a847a016a6c619c9764736f6c63430008060033",
  "immutableReferences": {},
  "source": "// SPDX-License-Identifier: MIT\r\npragma solidity >=0.4.22 <0.9.0;\r\n\r\nimport \"../node_modules/@openzeppelin/contracts/token/ERC721/IERC721.sol\";\r\nimport \"../node_modules/@openzeppelin/contracts/token/ERC20/IERC20.sol\";\r\nimport \"../node_modules/@openzeppelin/contracts/token/ERC20/ERC20.sol\";\r\nimport \"../node_modules/@openzeppelin/contracts/utils/Counters.sol\";\r\nimport \"../node_modules/@openzeppelin/contracts/token/ERC721/ERC721.sol\";\r\nimport \"../node_modules/@openzeppelin/contracts/security/ReentrancyGuard.sol\";\r\n\r\n\r\n\r\ncontract PBPlayerMarketplace is ReentrancyGuard {\r\n  address admin;\r\n  address pbPlayersAddress;\r\n  address feesAddress;\r\n  using Counters for Counters.Counter;\r\n  Counters.Counter private _itemIds;\r\n  Counters.Counter private _itemsSold;\r\n  Counters.Counter private _itemsCancelled;\r\n  uint256 marketFeePercent = 400;\r\n  IERC20 public buddies;\r\n\r\nconstructor(address _buddiesCoinAddress, address _pbPlayersAddress, address _feesAddress) {\r\n    admin = msg.sender;\r\n    buddies = IERC20(_buddiesCoinAddress);\r\n    pbPlayersAddress = _pbPlayersAddress;\r\n    feesAddress = _feesAddress;\r\n }\r\n    \r\n\r\n  struct MarketItem {\r\n    uint256 itemId; \r\n    bool valid; \r\n    address nftContract; \r\n    uint256 tokenId; \r\n    address seller;\r\n    address owner; \r\n    uint256 totalPrice;\r\n    uint256 sellerPrice; \r\n    uint256 marketfee;\r\n  }\r\n  \r\n  mapping(uint256 => MarketItem) private idToMarketItem;\r\n\r\n  event MarketItemCreated (\r\n    uint indexed itemId,\r\n    bool valid,\r\n    address indexed nftContract,\r\n    uint256 indexed tokenId,\r\n    address seller,\r\n    address owner,\r\n    uint256 totalprice,\r\n    uint256 price,\r\n    uint256 fee\r\n  );\r\n\r\n  modifier onlyAdmin() {\r\n        require(admin == msg.sender, \"A1\" );\r\n        _;\r\n  }\r\n\r\n  function isAdmin() public view returns (bool){\r\n        if(admin == msg.sender){\r\n            return true;\r\n        } else return false;\r\n  }\r\n\r\n  function updateBuddiesCoinAddress(address _buddiesCoinAddress) onlyAdmin external {\r\n     buddies = IERC20(_buddiesCoinAddress);\r\n  }\r\n\r\n  function getPBMarketplaceAddress() public view returns (address){\r\n    address result = address(this);\r\n    return result;\r\n  }\r\n\r\n  function getMarketFeePercent() public view returns (uint) {\r\n    return marketFeePercent;\r\n  }\r\n\r\n  function updateMarketFeePercent(uint value) onlyAdmin external returns (uint){\r\n    marketFeePercent = value;\r\n    return marketFeePercent;\r\n  }\r\n\r\n function getMarketFeePayableAddress() public view returns (address) {\r\n      return feesAddress;\r\n  }\r\n\r\n  function updateFeePayableAddress(address payable newaddress) onlyAdmin external returns (address) {\r\n    feesAddress = newaddress;\r\n    return feesAddress;\r\n  } \r\n\r\n  function createMarketItem(address nftContract, uint256 tokenId, uint256 sellerprice, uint256 fee) public payable nonReentrant {\r\n    require(sellerprice > 0, \"M0\");\r\n    require(fee > 0, \"F0\");\r\n    uint totalPrice = sellerprice + fee;\r\n\r\n    //set Marketplace Id\r\n    _itemIds.increment();\r\n    uint256 itemId = _itemIds.current();\r\n\r\n    //create MarketItem mapping\r\n    idToMarketItem[itemId] = MarketItem(\r\n      itemId,\r\n      true,\r\n      nftContract,\r\n      tokenId,\r\n      msg.sender,\r\n      address(0),\r\n      totalPrice,\r\n      sellerprice,\r\n      fee\r\n    );\r\n\r\n    \r\n    IERC721(nftContract).transferFrom(msg.sender, address(this), tokenId);\r\n\r\n    emit MarketItemCreated(\r\n      itemId,\r\n      true,\r\n      nftContract,\r\n      tokenId,\r\n      msg.sender,\r\n      address(0),\r\n      totalPrice,\r\n      sellerprice,\r\n      fee\r\n    );\r\n  }\r\n\r\n  function createMarketSale(address nftContract, uint256 _itemId, uint256 _sellPrice, uint256 _fee) external nonReentrant {\r\n    //ERC20 Transacting\r\n    uint _totalPrice = _sellPrice + _fee;\r\n    require(_totalPrice == idToMarketItem[_itemId].totalPrice, \"M2\");\r\n    uint allowance = buddies.allowance(msg.sender, address(this));\r\n    require(allowance >= _totalPrice, \"A1\");\r\n\r\n    buddies.transferFrom(msg.sender, feesAddress, _fee);\r\n    buddies.transferFrom(msg.sender, idToMarketItem[_itemId].seller, _sellPrice);\r\n\r\n    //ERC721 Transacting\r\n    idToMarketItem[_itemId].owner = payable(msg.sender); //set the final owner of the nft in relation to this market listing\r\n    idToMarketItem[_itemId].valid = false;\r\n    IERC721(nftContract).safeTransferFrom(address(this), msg.sender, idToMarketItem[_itemId].tokenId); //transfer the nft asset to the buyer\r\n    //Update State Variables\r\n    _itemsSold.increment();\r\n  }\r\n\r\n    function cancelMarketSale(address nftContract, uint _itemId) external nonReentrant {\r\n    //ERC721 Transacting\r\n    require(msg.sender == idToMarketItem[_itemId].seller, \"M3\");\r\n    idToMarketItem[_itemId].owner = payable(msg.sender); //set the final owner of the nft in relation to this market listing\r\n    idToMarketItem[_itemId].valid = false;\r\n    IERC721(nftContract).safeTransferFrom(address(this), msg.sender, idToMarketItem[_itemId].tokenId); \r\n    //Update State Variables\r\n    _itemsCancelled.increment(); \r\n  }\r\n\r\n\r\n  function getMarketItems() public view returns (MarketItem[] memory) {\r\n    uint itemCount = _itemIds.current(); \r\n    uint unsoldItemCount = itemCount - _itemsSold.current() - _itemsCancelled.current();\r\n    uint currentIndex = 0;\r\n\r\n    MarketItem[] memory items = new MarketItem[](unsoldItemCount);\r\n    for (uint i = 0; i < itemCount; i++) {\r\n      if (idToMarketItem[i + 1].owner == address(0)) {\r\n        uint currentId = idToMarketItem[i + 1].itemId;\r\n        MarketItem storage currentItem = idToMarketItem[currentId];\r\n        items[currentIndex] = currentItem;\r\n        currentIndex += 1;\r\n      }\r\n    }\r\n    return items;\r\n  }\r\n\r\n}\r\n\r\n\r\n\r\n",
  "sourcePath": "C:\\Users\\Stayers Ben\\Documents\\Projects\\puck-buddies\\contracts\\PBPlayerMarketplace.sol",
  "compiler": {
    "name": "solc",
    "version": "0.8.6+commit.11564f7e.Emscripten.clang"
  },
  "schemaVersion": "3.4.3",
  "updatedAt": "2021-11-03T20:30:09.164Z",
  "devdoc": {
    "kind": "dev",
    "methods": {},
    "version": 1
  },
  "userdoc": {
    "kind": "user",
    "methods": {},
    "version": 1
  }
}