{
  "contractName": "PBProShopMarketplace",
  "abi": [
    {
      "inputs": [
        {
          "internalType": "address",
          "name": "_buddiesCoinAddress",
          "type": "address"
        },
        {
          "internalType": "address",
          "name": "_pbProShopFactoryAddress",
          "type": "address"
        },
        {
          "internalType": "address",
          "name": "_feesAddress",
          "type": "address"
        }
      ],
      "stateMutability": "nonpayable",
      "type": "constructor"
    },
    {
      "inputs": [],
      "name": "buddies",
      "outputs": [
        {
          "internalType": "contract IERC20",
          "name": "",
          "type": "address"
        }
      ],
      "stateMutability": "view",
      "type": "function",
      "constant": true
    },
    {
      "inputs": [
        {
          "internalType": "address",
          "name": "",
          "type": "address"
        },
        {
          "internalType": "address",
          "name": "",
          "type": "address"
        },
        {
          "internalType": "uint256[]",
          "name": "",
          "type": "uint256[]"
        },
        {
          "internalType": "uint256[]",
          "name": "",
          "type": "uint256[]"
        },
        {
          "internalType": "bytes",
          "name": "",
          "type": "bytes"
        }
      ],
      "name": "onERC1155BatchReceived",
      "outputs": [
        {
          "internalType": "bytes4",
          "name": "",
          "type": "bytes4"
        }
      ],
      "stateMutability": "nonpayable",
      "type": "function"
    },
    {
      "inputs": [
        {
          "internalType": "address",
          "name": "",
          "type": "address"
        },
        {
          "internalType": "address",
          "name": "",
          "type": "address"
        },
        {
          "internalType": "uint256",
          "name": "",
          "type": "uint256"
        },
        {
          "internalType": "uint256",
          "name": "",
          "type": "uint256"
        },
        {
          "internalType": "bytes",
          "name": "",
          "type": "bytes"
        }
      ],
      "name": "onERC1155Received",
      "outputs": [
        {
          "internalType": "bytes4",
          "name": "",
          "type": "bytes4"
        }
      ],
      "stateMutability": "nonpayable",
      "type": "function"
    },
    {
      "inputs": [],
      "name": "proShopItems",
      "outputs": [
        {
          "internalType": "contract IERC1155",
          "name": "",
          "type": "address"
        }
      ],
      "stateMutability": "view",
      "type": "function",
      "constant": true
    },
    {
      "inputs": [
        {
          "internalType": "bytes4",
          "name": "interfaceId",
          "type": "bytes4"
        }
      ],
      "name": "supportsInterface",
      "outputs": [
        {
          "internalType": "bool",
          "name": "",
          "type": "bool"
        }
      ],
      "stateMutability": "view",
      "type": "function",
      "constant": true
    },
    {
      "inputs": [],
      "name": "isAdmin",
      "outputs": [
        {
          "internalType": "bool",
          "name": "",
          "type": "bool"
        }
      ],
      "stateMutability": "view",
      "type": "function",
      "constant": true
    },
    {
      "inputs": [
        {
          "internalType": "address",
          "name": "_buddiesCoinAddress",
          "type": "address"
        }
      ],
      "name": "updateBuddiesCoinAddress",
      "outputs": [],
      "stateMutability": "nonpayable",
      "type": "function"
    },
    {
      "inputs": [],
      "name": "getPBProShopMarketplaceAddress",
      "outputs": [
        {
          "internalType": "address",
          "name": "",
          "type": "address"
        }
      ],
      "stateMutability": "view",
      "type": "function",
      "constant": true
    },
    {
      "inputs": [],
      "name": "getProshopMarketFeePercent",
      "outputs": [
        {
          "internalType": "uint256",
          "name": "",
          "type": "uint256"
        }
      ],
      "stateMutability": "view",
      "type": "function",
      "constant": true
    },
    {
      "inputs": [
        {
          "internalType": "uint256",
          "name": "value",
          "type": "uint256"
        }
      ],
      "name": "updateMarketFeePercent",
      "outputs": [
        {
          "internalType": "uint256",
          "name": "",
          "type": "uint256"
        }
      ],
      "stateMutability": "nonpayable",
      "type": "function"
    },
    {
      "inputs": [],
      "name": "getMarketFeePayableAddress",
      "outputs": [
        {
          "internalType": "address",
          "name": "",
          "type": "address"
        }
      ],
      "stateMutability": "view",
      "type": "function",
      "constant": true
    },
    {
      "inputs": [],
      "name": "getMarketplaceStats",
      "outputs": [
        {
          "internalType": "uint256",
          "name": "",
          "type": "uint256"
        },
        {
          "internalType": "uint256",
          "name": "",
          "type": "uint256"
        }
      ],
      "stateMutability": "view",
      "type": "function",
      "constant": true
    },
    {
      "inputs": [
        {
          "internalType": "address payable",
          "name": "newaddress",
          "type": "address"
        }
      ],
      "name": "updateFeePayableAddress",
      "outputs": [
        {
          "internalType": "address",
          "name": "",
          "type": "address"
        }
      ],
      "stateMutability": "nonpayable",
      "type": "function"
    },
    {
      "inputs": [
        {
          "internalType": "uint256",
          "name": "_tokenId",
          "type": "uint256"
        },
        {
          "internalType": "uint256",
          "name": "_sellingPrice",
          "type": "uint256"
        }
      ],
      "name": "createProShopMarketItem",
      "outputs": [],
      "stateMutability": "nonpayable",
      "type": "function"
    },
    {
      "inputs": [
        {
          "internalType": "uint256",
          "name": "_marketTokenId",
          "type": "uint256"
        }
      ],
      "name": "createProShopMarketplaceSale",
      "outputs": [],
      "stateMutability": "nonpayable",
      "type": "function"
    },
    {
      "inputs": [
        {
          "internalType": "uint256",
          "name": "_marketTokenId",
          "type": "uint256"
        }
      ],
      "name": "cancelProShopMarketplaceSale",
      "outputs": [],
      "stateMutability": "nonpayable",
      "type": "function"
    },
    {
      "inputs": [],
      "name": "getProShopMarketItems",
      "outputs": [
        {
          "components": [
            {
              "internalType": "uint256",
              "name": "marketListingId",
              "type": "uint256"
            },
            {
              "internalType": "uint256",
              "name": "tokenId",
              "type": "uint256"
            },
            {
              "internalType": "uint256",
              "name": "sellingPrice",
              "type": "uint256"
            },
            {
              "internalType": "address",
              "name": "seller",
              "type": "address"
            },
            {
              "internalType": "address",
              "name": "buyer",
              "type": "address"
            },
            {
              "internalType": "bool",
              "name": "valid",
              "type": "bool"
            }
          ],
          "internalType": "struct PBProShopMarketplace.ProShopMarketItem[]",
          "name": "",
          "type": "tuple[]"
        }
      ],
      "stateMutability": "view",
      "type": "function",
      "constant": true
    }
  ],
  "bytecode": "0x60806040526101906006553480156200001757600080fd5b50604051620024e9380380620024e983398181016040528101906200003d919062000169565b600160008190555033600160006101000a81548173ffffffffffffffffffffffffffffffffffffffff021916908373ffffffffffffffffffffffffffffffffffffffff16021790555082600860006101000a81548173ffffffffffffffffffffffffffffffffffffffff021916908373ffffffffffffffffffffffffffffffffffffffff16021790555081600760006101000a81548173ffffffffffffffffffffffffffffffffffffffff021916908373ffffffffffffffffffffffffffffffffffffffff16021790555080600360006101000a81548173ffffffffffffffffffffffffffffffffffffffff021916908373ffffffffffffffffffffffffffffffffffffffff16021790555050505062000218565b6000815190506200016381620001fe565b92915050565b600080600060608486031215620001855762000184620001f9565b5b6000620001958682870162000152565b9350506020620001a88682870162000152565b9250506040620001bb8682870162000152565b9150509250925092565b6000620001d282620001d9565b9050919050565b600073ffffffffffffffffffffffffffffffffffffffff82169050919050565b600080fd5b6200020981620001c5565b81146200021557600080fd5b50565b6122c180620002286000396000f3fe608060405234801561001057600080fd5b506004361061010b5760003560e01c8063812d966a116100a2578063c4d9e33111610071578063c4d9e331146102bb578063d89f7ad7146102d9578063eafbe677146102f7578063f23a6e6114610315578063f739f212146103455761010b565b8063812d966a14610230578063b00572ba1461024f578063b6db75a01461026d578063bc197c811461028b5761010b565b80634a594c12116100de5780634a594c12146101bc5780635d632faf146101da57806376c00c25146101f65780637b44b769146102125761010b565b806301ffc9a7146101105780632146562214610140578063329c4b5e146101705780633ce665e4146101a0575b600080fd5b61012a600480360381019061012591906117ac565b610361565b6040516101379190611b6b565b60405180910390f35b61015a600480360381019061015591906115ec565b6103db565b6040516101679190611a9f565b60405180910390f35b61018a600480360381019061018591906117d9565b6104d8565b6040516101979190611c77565b60405180910390f35b6101ba60048036038101906101b591906117d9565b61057b565b005b6101c46107c5565b6040516101d19190611bbc565b60405180910390f35b6101f460048036038101906101ef91906115bf565b6107eb565b005b610210600480360381019061020b9190611806565b6108bf565b005b61021a610b4b565b6040516102279190611b49565b60405180910390f35b610238610d93565b604051610246929190611c92565b60405180910390f35b610257610e42565b6040516102649190611c77565b60405180910390f35b610275610e4c565b6040516102829190611b6b565b60405180910390f35b6102a560048036038101906102a09190611619565b610eb5565b6040516102b29190611b86565b60405180910390f35b6102c3610eca565b6040516102d09190611a9f565b60405180910390f35b6102e1610ed2565b6040516102ee9190611a9f565b60405180910390f35b6102ff610efc565b60405161030c9190611ba1565b60405180910390f35b61032f600480360381019061032a91906116e8565b610f22565b60405161033c9190611b86565b60405180910390f35b61035f600480360381019061035a91906117d9565b610f37565b005b60007f4e2312e0000000000000000000000000000000000000000000000000000000007bffffffffffffffffffffffffffffffffffffffffffffffffffffffff1916827bffffffffffffffffffffffffffffffffffffffffffffffffffffffff191614806103d457506103d382611356565b5b9050919050565b60003373ffffffffffffffffffffffffffffffffffffffff16600160009054906101000a900473ffffffffffffffffffffffffffffffffffffffff1673ffffffffffffffffffffffffffffffffffffffff161461046d576040517f08c379a000000000000000000000000000000000000000000000000000000000815260040161046490611c17565b60405180910390fd5b81600360006101000a81548173ffffffffffffffffffffffffffffffffffffffff021916908373ffffffffffffffffffffffffffffffffffffffff160217905550600360009054906101000a900473ffffffffffffffffffffffffffffffffffffffff169050919050565b60003373ffffffffffffffffffffffffffffffffffffffff16600160009054906101000a900473ffffffffffffffffffffffffffffffffffffffff1673ffffffffffffffffffffffffffffffffffffffff161461056a576040517f08c379a000000000000000000000000000000000000000000000000000000000815260040161056190611c17565b60405180910390fd5b816006819055506006549050919050565b600260005414156105c1576040517f08c379a00000000000000000000000000000000000000000000000000000000081526004016105b890611c57565b60405180910390fd5b6002600081905550600115156009600083815260200190815260200160002060040160149054906101000a900460ff16151514610633576040517f08c379a000000000000000000000000000000000000000000000000000000000815260040161062a90611c37565b60405180910390fd5b3373ffffffffffffffffffffffffffffffffffffffff166009600083815260200190815260200160002060030160009054906101000a900473ffffffffffffffffffffffffffffffffffffffff1673ffffffffffffffffffffffffffffffffffffffff16146106d7576040517f08c379a00000000000000000000000000000000000000000000000000000000081526004016106ce90611bd7565b60405180910390fd5b60006009600083815260200190815260200160002060040160146101000a81548160ff021916908315150217905550600760009054906101000a900473ffffffffffffffffffffffffffffffffffffffff1673ffffffffffffffffffffffffffffffffffffffff1663f242432a3033600960008681526020019081526020016000206001015460016040518563ffffffff1660e01b815260040161077e9493929190611af1565b600060405180830381600087803b15801561079857600080fd5b505af11580156107ac573d6000803e3d6000fd5b505050506107ba60056113c0565b600160008190555050565b600860009054906101000a900473ffffffffffffffffffffffffffffffffffffffff1681565b3373ffffffffffffffffffffffffffffffffffffffff16600160009054906101000a900473ffffffffffffffffffffffffffffffffffffffff1673ffffffffffffffffffffffffffffffffffffffff161461087b576040517f08c379a000000000000000000000000000000000000000000000000000000000815260040161087290611c17565b60405180910390fd5b80600860006101000a81548173ffffffffffffffffffffffffffffffffffffffff021916908373ffffffffffffffffffffffffffffffffffffffff16021790555050565b60026000541415610905576040517f08c379a00000000000000000000000000000000000000000000000000000000081526004016108fc90611c57565b60405180910390fd5b600260008190555060008111610950576040517f08c379a000000000000000000000000000000000000000000000000000000000815260040161094790611bf7565b60405180910390fd5b61095a60046113c0565b6040518060c0016040528061096f60046113d6565b81526020018381526020018281526020013373ffffffffffffffffffffffffffffffffffffffff168152602001600073ffffffffffffffffffffffffffffffffffffffff16815260200160011515815250600960006109ce60046113d6565b815260200190815260200160002060008201518160000155602082015181600101556040820151816002015560608201518160030160006101000a81548173ffffffffffffffffffffffffffffffffffffffff021916908373ffffffffffffffffffffffffffffffffffffffff16021790555060808201518160040160006101000a81548173ffffffffffffffffffffffffffffffffffffffff021916908373ffffffffffffffffffffffffffffffffffffffff16021790555060a08201518160040160146101000a81548160ff021916908315150217905550905050600760009054906101000a900473ffffffffffffffffffffffffffffffffffffffff1673ffffffffffffffffffffffffffffffffffffffff1663f242432a33308560016040518563ffffffff1660e01b8152600401610b0d9493929190611af1565b600060405180830381600087803b158015610b2757600080fd5b505af1158015610b3b573d6000803e3d6000fd5b5050505060016000819055505050565b60606000610b5960056113d6565b610b6360046113d6565b610b6d9190611e79565b90506000808267ffffffffffffffff811115610b8c57610b8b6120a3565b5b604051908082528060200260200182016040528015610bc557816020015b610bb26113e4565b815260200190600190039081610baa5790505b50905060005b610bd560046113d6565b811015610d89576001151560096000600184610bf19190611d98565b815260200190815260200160002060040160149054906101000a900460ff1615151415610d7657600060096000600184610c2b9190611d98565b81526020019081526020016000206000015490506000600960008381526020019081526020016000209050806040518060c00160405290816000820154815260200160018201548152602001600282015481526020016003820160009054906101000a900473ffffffffffffffffffffffffffffffffffffffff1673ffffffffffffffffffffffffffffffffffffffff1673ffffffffffffffffffffffffffffffffffffffff1681526020016004820160009054906101000a900473ffffffffffffffffffffffffffffffffffffffff1673ffffffffffffffffffffffffffffffffffffffff1673ffffffffffffffffffffffffffffffffffffffff1681526020016004820160149054906101000a900460ff161515151581525050848681518110610d5a57610d59612074565b5b60200260200101819052508480610d7090611fcd565b95505050505b8080610d8190611fcd565b915050610bcb565b5080935050505090565b6000803373ffffffffffffffffffffffffffffffffffffffff16600160009054906101000a900473ffffffffffffffffffffffffffffffffffffffff1673ffffffffffffffffffffffffffffffffffffffff1614610e26576040517f08c379a0000000000000000000000000000000000000000000000000000000008152600401610e1d90611c17565b60405180910390fd5b610e3060046113d6565b610e3a60056113d6565b915091509091565b6000600654905090565b60003373ffffffffffffffffffffffffffffffffffffffff16600160009054906101000a900473ffffffffffffffffffffffffffffffffffffffff1673ffffffffffffffffffffffffffffffffffffffff161415610ead5760019050610eb2565b600090505b90565b600063bc197c8160e01b905095945050505050565b600030905090565b6000600360009054906101000a900473ffffffffffffffffffffffffffffffffffffffff16905090565b600760009054906101000a900473ffffffffffffffffffffffffffffffffffffffff1681565b600063f23a6e6160e01b905095945050505050565b60026000541415610f7d576040517f08c379a0000000000000000000000000000000000000000000000000000000008152600401610f7490611c57565b60405180910390fd5b6002600081905550600115156009600083815260200190815260200160002060040160149054906101000a900460ff16151514610fef576040517f08c379a0000000000000000000000000000000000000000000000000000000008152600401610fe690611c37565b60405180910390fd5b6000612710806006546110029190611d98565b60096000858152602001908152602001600020600201546110239190611dee565b61102d9190611e1f565b905060008160096000858152602001908152602001600020600201546110539190611e79565b9050336009600085815260200190815260200160002060040160006101000a81548173ffffffffffffffffffffffffffffffffffffffff021916908373ffffffffffffffffffffffffffffffffffffffff16021790555060006009600085815260200190815260200160002060040160146101000a81548160ff021916908315150217905550600860009054906101000a900473ffffffffffffffffffffffffffffffffffffffff1673ffffffffffffffffffffffffffffffffffffffff166323b872dd336009600087815260200190815260200160002060030160009054906101000a900473ffffffffffffffffffffffffffffffffffffffff16856040518463ffffffff1660e01b815260040161116e93929190611aba565b602060405180830381600087803b15801561118857600080fd5b505af115801561119c573d6000803e3d6000fd5b505050506040513d601f19601f820116820180604052508101906111c0919061177f565b50600860009054906101000a900473ffffffffffffffffffffffffffffffffffffffff1673ffffffffffffffffffffffffffffffffffffffff166323b872dd33600360009054906101000a900473ffffffffffffffffffffffffffffffffffffffff16846040518463ffffffff1660e01b815260040161124293929190611aba565b602060405180830381600087803b15801561125c57600080fd5b505af1158015611270573d6000803e3d6000fd5b505050506040513d601f19601f82011682018060405250810190611294919061177f565b50600760009054906101000a900473ffffffffffffffffffffffffffffffffffffffff1673ffffffffffffffffffffffffffffffffffffffff1663f242432a3033600960008881526020019081526020016000206001015460016040518563ffffffff1660e01b815260040161130d9493929190611af1565b600060405180830381600087803b15801561132757600080fd5b505af115801561133b573d6000803e3d6000fd5b5050505061134960056113c0565b5050600160008190555050565b60007f01ffc9a7000000000000000000000000000000000000000000000000000000007bffffffffffffffffffffffffffffffffffffffffffffffffffffffff1916827bffffffffffffffffffffffffffffffffffffffffffffffffffffffff1916149050919050565b6001816000016000828254019250508190555050565b600081600001549050919050565b6040518060c00160405280600081526020016000815260200160008152602001600073ffffffffffffffffffffffffffffffffffffffff168152602001600073ffffffffffffffffffffffffffffffffffffffff1681526020016000151581525090565b600061145b61145684611ce0565b611cbb565b9050808382526020820190508285602086028201111561147e5761147d6120d7565b5b60005b858110156114ae578161149488826115aa565b845260208401935060208301925050600181019050611481565b5050509392505050565b60006114cb6114c684611d0c565b611cbb565b9050828152602081018484840111156114e7576114e66120dc565b5b6114f2848285611f8d565b509392505050565b60008135905061150981612218565b92915050565b60008135905061151e8161222f565b92915050565b600082601f830112611539576115386120d2565b5b8135611549848260208601611448565b91505092915050565b60008151905061156181612246565b92915050565b6000813590506115768161225d565b92915050565b600082601f830112611591576115906120d2565b5b81356115a18482602086016114b8565b91505092915050565b6000813590506115b981612274565b92915050565b6000602082840312156115d5576115d46120e6565b5b60006115e3848285016114fa565b91505092915050565b600060208284031215611602576116016120e6565b5b60006116108482850161150f565b91505092915050565b600080600080600060a08688031215611635576116346120e6565b5b6000611643888289016114fa565b9550506020611654888289016114fa565b945050604086013567ffffffffffffffff811115611675576116746120e1565b5b61168188828901611524565b935050606086013567ffffffffffffffff8111156116a2576116a16120e1565b5b6116ae88828901611524565b925050608086013567ffffffffffffffff8111156116cf576116ce6120e1565b5b6116db8882890161157c565b9150509295509295909350565b600080600080600060a08688031215611704576117036120e6565b5b6000611712888289016114fa565b9550506020611723888289016114fa565b9450506040611734888289016115aa565b9350506060611745888289016115aa565b925050608086013567ffffffffffffffff811115611766576117656120e1565b5b6117728882890161157c565b9150509295509295909350565b600060208284031215611795576117946120e6565b5b60006117a384828501611552565b91505092915050565b6000602082840312156117c2576117c16120e6565b5b60006117d084828501611567565b91505092915050565b6000602082840312156117ef576117ee6120e6565b5b60006117fd848285016115aa565b91505092915050565b6000806040838503121561181d5761181c6120e6565b5b600061182b858286016115aa565b925050602061183c858286016115aa565b9150509250929050565b60006118528383611a06565b60c08301905092915050565b61186781611ead565b82525050565b61187681611ead565b82525050565b600061188782611d4d565b6118918185611d65565b935061189c83611d3d565b8060005b838110156118cd5781516118b48882611846565b97506118bf83611d58565b9250506001810190506118a0565b5085935050505092915050565b6118e381611ed1565b82525050565b6118f281611ed1565b82525050565b61190181611edd565b82525050565b61191081611f33565b82525050565b61191f81611f57565b82525050565b61192e81611f7b565b82525050565b6000611941603083611d87565b915061194c826120fc565b604082019050919050565b6000611964601183611d87565b915061196f8261214b565b602082019050919050565b6000611987603d83611d87565b915061199282612174565b604082019050919050565b60006119aa600083611d76565b91506119b5826121c3565b600082019050919050565b60006119cd601f83611d87565b91506119d8826121c6565b602082019050919050565b60006119f0601f83611d87565b91506119fb826121ef565b602082019050919050565b60c082016000820151611a1c6000850182611a81565b506020820151611a2f6020850182611a81565b506040820151611a426040850182611a81565b506060820151611a55606085018261185e565b506080820151611a68608085018261185e565b5060a0820151611a7b60a08501826118da565b50505050565b611a8a81611f29565b82525050565b611a9981611f29565b82525050565b6000602082019050611ab4600083018461186d565b92915050565b6000606082019050611acf600083018661186d565b611adc602083018561186d565b611ae96040830184611a90565b949350505050565b600060a082019050611b06600083018761186d565b611b13602083018661186d565b611b206040830185611a90565b611b2d6060830184611925565b8181036080830152611b3e8161199d565b905095945050505050565b60006020820190508181036000830152611b63818461187c565b905092915050565b6000602082019050611b8060008301846118e9565b92915050565b6000602082019050611b9b60008301846118f8565b92915050565b6000602082019050611bb66000830184611907565b92915050565b6000602082019050611bd16000830184611916565b92915050565b60006020820190508181036000830152611bf081611934565b9050919050565b60006020820190508181036000830152611c1081611957565b9050919050565b60006020820190508181036000830152611c308161197a565b9050919050565b60006020820190508181036000830152611c50816119c0565b9050919050565b60006020820190508181036000830152611c70816119e3565b9050919050565b6000602082019050611c8c6000830184611a90565b92915050565b6000604082019050611ca76000830185611a90565b611cb46020830184611a90565b9392505050565b6000611cc5611cd6565b9050611cd18282611f9c565b919050565b6000604051905090565b600067ffffffffffffffff821115611cfb57611cfa6120a3565b5b602082029050602081019050919050565b600067ffffffffffffffff821115611d2757611d266120a3565b5b611d30826120eb565b9050602081019050919050565b6000819050602082019050919050565b600081519050919050565b6000602082019050919050565b600082825260208201905092915050565b600082825260208201905092915050565b600082825260208201905092915050565b6000611da382611f29565b9150611dae83611f29565b9250827fffffffffffffffffffffffffffffffffffffffffffffffffffffffffffffffff03821115611de357611de2612016565b5b828201905092915050565b6000611df982611f29565b9150611e0483611f29565b925082611e1457611e13612045565b5b828204905092915050565b6000611e2a82611f29565b9150611e3583611f29565b9250817fffffffffffffffffffffffffffffffffffffffffffffffffffffffffffffffff0483118215151615611e6e57611e6d612016565b5b828202905092915050565b6000611e8482611f29565b9150611e8f83611f29565b925082821015611ea257611ea1612016565b5b828203905092915050565b6000611eb882611f09565b9050919050565b6000611eca82611f09565b9050919050565b60008115159050919050565b60007fffffffff0000000000000000000000000000000000000000000000000000000082169050919050565b600073ffffffffffffffffffffffffffffffffffffffff82169050919050565b6000819050919050565b6000611f3e82611f45565b9050919050565b6000611f5082611f09565b9050919050565b6000611f6282611f69565b9050919050565b6000611f7482611f09565b9050919050565b6000611f8682611f29565b9050919050565b82818337600083830152505050565b611fa5826120eb565b810181811067ffffffffffffffff82111715611fc457611fc36120a3565b5b80604052505050565b6000611fd882611f29565b91507fffffffffffffffffffffffffffffffffffffffffffffffffffffffffffffffff82141561200b5761200a612016565b5b600182019050919050565b7f4e487b7100000000000000000000000000000000000000000000000000000000600052601160045260246000fd5b7f4e487b7100000000000000000000000000000000000000000000000000000000600052601260045260246000fd5b7f4e487b7100000000000000000000000000000000000000000000000000000000600052603260045260246000fd5b7f4e487b7100000000000000000000000000000000000000000000000000000000600052604160045260246000fd5b600080fd5b600080fd5b600080fd5b600080fd5b600080fd5b6000601f19601f8301169050919050565b7f4f6e6c7920746865206f776e6572206f6620746869732073616c652063616e2060008201527f63616e63656c20746869732073616c6500000000000000000000000000000000602082015250565b7f50726963652063616e6e6f742062652030000000000000000000000000000000600082015250565b7f546869732066756e6374696f6e206973206f6e6c792061636365737361626c6560008201527f206279207468652061646d696e206f662074686520636f6e7472616374000000602082015250565b50565b7f5468697320697320616e20696e76616c6964206d61726b657420546f6b656e00600082015250565b7f5265656e7472616e637947756172643a207265656e7472616e742063616c6c00600082015250565b61222181611ead565b811461222c57600080fd5b50565b61223881611ebf565b811461224357600080fd5b50565b61224f81611ed1565b811461225a57600080fd5b50565b61226681611edd565b811461227157600080fd5b50565b61227d81611f29565b811461228857600080fd5b5056fea26469706673582212203afbb8f309a7ae42dff1b731baac6a7a2a7fdeb590b94405017e970b436f98f764736f6c63430008060033",
  "immutableReferences": {},
  "source": "// SPDX-License-Identifier: MIT\r\npragma solidity >=0.4.22 <0.9.0;\r\n\r\nimport \"../node_modules/@openzeppelin/contracts/security/ReentrancyGuard.sol\";\r\nimport \"../node_modules/@openzeppelin/contracts/token/ERC1155/IERC1155.sol\";\r\nimport \"../node_modules/@openzeppelin/contracts/token/ERC1155/utils/ERC1155Holder.sol\";\r\nimport \"../node_modules/@openzeppelin/contracts/token/ERC20/IERC20.sol\";\r\nimport \"../node_modules/@openzeppelin/contracts/utils/Counters.sol\";\r\n\r\ncontract PBProShopMarketplace is ERC1155Holder, ReentrancyGuard {\r\n    address admin;\r\n    address pbProShopFactoryAddress;\r\n    address feesAddress;\r\n    using Counters for Counters.Counter;\r\n    Counters.Counter private _itemIds;\r\n    Counters.Counter private _itemsComplete;\r\n    uint256 marketFeePercent = 400;\r\n    IERC1155 public proShopItems;\r\n    IERC20 public buddies;\r\n\r\nconstructor(address _buddiesCoinAddress, address _pbProShopFactoryAddress, address _feesAddress) {\r\n    admin = msg.sender;\r\n    buddies = IERC20(_buddiesCoinAddress);\r\n    proShopItems = IERC1155(_pbProShopFactoryAddress);\r\n    feesAddress = _feesAddress;\r\n}\r\n\r\nstruct ProShopMarketItem {\r\n    uint marketListingId;\r\n    uint tokenId;\r\n    uint sellingPrice;\r\n    address seller;\r\n    address buyer;\r\n    bool valid;\r\n}\r\n\r\nmapping(uint => ProShopMarketItem) private _proShopMarketItems;\r\n\r\n modifier onlyAdmin() {\r\n        require(admin == msg.sender, \"This function is only accessable by the admin of the contract\" );\r\n        _;\r\n  }\r\n\r\nfunction isAdmin() public view returns (bool){\r\n        if(admin == msg.sender){\r\n            return true;\r\n        } else return false;\r\n  }\r\n\r\nfunction updateBuddiesCoinAddress(address _buddiesCoinAddress) onlyAdmin external {\r\n     buddies = IERC20(_buddiesCoinAddress);\r\n  }\r\n\r\nfunction getPBProShopMarketplaceAddress() public view returns (address){\r\n    return address(this);\r\n  }\r\n\r\nfunction getProshopMarketFeePercent() public view returns (uint) {\r\n    return marketFeePercent;\r\n  }\r\n\r\nfunction updateMarketFeePercent(uint value) onlyAdmin external returns (uint){\r\n    marketFeePercent = value;\r\n    return marketFeePercent;\r\n  }\r\n\r\nfunction getMarketFeePayableAddress() public view returns (address) {\r\n      return feesAddress;\r\n  }\r\n\r\nfunction getMarketplaceStats() external view onlyAdmin returns (uint, uint) {\r\n    return (_itemIds.current(), _itemsComplete.current());\r\n}\r\n\r\nfunction updateFeePayableAddress(address payable newaddress) onlyAdmin external returns (address) {\r\n    feesAddress = newaddress;\r\n    return feesAddress;\r\n  }\r\n\r\nfunction createProShopMarketItem(uint _tokenId, uint _sellingPrice) public nonReentrant {\r\n    require(_sellingPrice > 0, \"Price cannot be 0\");\r\n    _itemIds.increment();\r\n    _proShopMarketItems[_itemIds.current()] = ProShopMarketItem(\r\n        _itemIds.current(),\r\n        _tokenId,\r\n        _sellingPrice,\r\n        msg.sender,\r\n        address(0),\r\n        true\r\n        );\r\n    proShopItems.safeTransferFrom(msg.sender, address(this), _tokenId, 1, \"\");\r\n\r\n}\r\n\r\nfunction createProShopMarketplaceSale(uint _marketTokenId) external nonReentrant {\r\n    require(_proShopMarketItems[_marketTokenId].valid == true, \"This is an invalid market Token\");\r\n    uint buddiesPayout = ((_proShopMarketItems[_marketTokenId].sellingPrice/(marketFeePercent+10000))*10000);\r\n    uint feesPayout = _proShopMarketItems[_marketTokenId].sellingPrice - buddiesPayout;\r\n    _proShopMarketItems[_marketTokenId].buyer = msg.sender;\r\n    _proShopMarketItems[_marketTokenId].valid = false;\r\n    buddies.transferFrom(msg.sender, _proShopMarketItems[_marketTokenId].seller, buddiesPayout);\r\n    buddies.transferFrom(msg.sender, feesAddress, feesPayout);\r\n    proShopItems.safeTransferFrom(address(this), msg.sender,  _proShopMarketItems[_marketTokenId].tokenId, 1, \"\");\r\n    _itemsComplete.increment();\r\n}\r\n\r\nfunction cancelProShopMarketplaceSale(uint _marketTokenId) external nonReentrant {\r\n    require(_proShopMarketItems[_marketTokenId].valid == true, \"This is an invalid market Token\");\r\n    require(_proShopMarketItems[_marketTokenId].seller == msg.sender, \"Only the owner of this sale can cancel this sale\");\r\n     _proShopMarketItems[_marketTokenId].valid = false;\r\n    proShopItems.safeTransferFrom(address(this), msg.sender,  _proShopMarketItems[_marketTokenId].tokenId, 1, \"\");\r\n    _itemsComplete.increment(); \r\n}\r\n\r\nfunction getProShopMarketItems() public view returns (ProShopMarketItem[] memory) {\r\n    uint unsoldItemCount = _itemIds.current() - _itemsComplete.current();\r\n    uint currentIndex = 0;\r\n\r\n    ProShopMarketItem[] memory items = new ProShopMarketItem[](unsoldItemCount);\r\n    for (uint i = 0; i < _itemIds.current(); i++) {\r\n        if (_proShopMarketItems[i + 1].valid == true) {\r\n            uint currentId = _proShopMarketItems[i + 1].marketListingId;\r\n            ProShopMarketItem storage currentItem = _proShopMarketItems[currentId];\r\n            items[currentIndex] = currentItem;\r\n            currentIndex++;\r\n    }\r\n}\r\nreturn items;\r\n}\r\n\r\n\r\n}",
  "sourcePath": "O:\\Projects\\puck-buddies\\contracts\\PBProShopMarketplace.sol",
  "compiler": {
    "name": "solc",
    "version": "0.8.6+commit.11564f7e.Emscripten.clang"
  },
  "schemaVersion": "3.4.3",
  "updatedAt": "2021-11-22T07:37:44.753Z",
  "networkType": "ethereum",
  "devdoc": {
    "kind": "dev",
    "methods": {
      "supportsInterface(bytes4)": {
        "details": "See {IERC165-supportsInterface}."
      }
    },
    "version": 1
  },
  "userdoc": {
    "kind": "user",
    "methods": {},
    "version": 1
  }
}