{
  "contractName": "PBProShopEquippedHolder",
  "abi": [
    {
      "inputs": [
        {
          "internalType": "address",
          "name": "_buddiesCoinAddress",
          "type": "address"
        },
        {
          "internalType": "address",
          "name": "_pbproshopfactoryaddress",
          "type": "address"
        },
        {
          "internalType": "address",
          "name": "_pbproshopholderaddress",
          "type": "address"
        }
      ],
      "stateMutability": "nonpayable",
      "type": "constructor"
    },
    {
      "inputs": [],
      "name": "admin",
      "outputs": [
        {
          "internalType": "address",
          "name": "",
          "type": "address"
        }
      ],
      "stateMutability": "view",
      "type": "function",
      "constant": true
    },
    {
      "inputs": [],
      "name": "buddies",
      "outputs": [
        {
          "internalType": "contract IERC20",
          "name": "",
          "type": "address"
        }
      ],
      "stateMutability": "view",
      "type": "function",
      "constant": true
    },
    {
      "inputs": [
        {
          "internalType": "address",
          "name": "",
          "type": "address"
        },
        {
          "internalType": "address",
          "name": "",
          "type": "address"
        },
        {
          "internalType": "uint256[]",
          "name": "",
          "type": "uint256[]"
        },
        {
          "internalType": "uint256[]",
          "name": "",
          "type": "uint256[]"
        },
        {
          "internalType": "bytes",
          "name": "",
          "type": "bytes"
        }
      ],
      "name": "onERC1155BatchReceived",
      "outputs": [
        {
          "internalType": "bytes4",
          "name": "",
          "type": "bytes4"
        }
      ],
      "stateMutability": "nonpayable",
      "type": "function"
    },
    {
      "inputs": [
        {
          "internalType": "address",
          "name": "",
          "type": "address"
        },
        {
          "internalType": "address",
          "name": "",
          "type": "address"
        },
        {
          "internalType": "uint256",
          "name": "",
          "type": "uint256"
        },
        {
          "internalType": "uint256",
          "name": "",
          "type": "uint256"
        },
        {
          "internalType": "bytes",
          "name": "",
          "type": "bytes"
        }
      ],
      "name": "onERC1155Received",
      "outputs": [
        {
          "internalType": "bytes4",
          "name": "",
          "type": "bytes4"
        }
      ],
      "stateMutability": "nonpayable",
      "type": "function"
    },
    {
      "inputs": [
        {
          "internalType": "bytes4",
          "name": "interfaceId",
          "type": "bytes4"
        }
      ],
      "name": "supportsInterface",
      "outputs": [
        {
          "internalType": "bool",
          "name": "",
          "type": "bool"
        }
      ],
      "stateMutability": "view",
      "type": "function",
      "constant": true
    },
    {
      "inputs": [],
      "name": "getPBProShopEquippedHolderAddress",
      "outputs": [
        {
          "internalType": "address",
          "name": "",
          "type": "address"
        }
      ],
      "stateMutability": "view",
      "type": "function",
      "constant": true
    },
    {
      "inputs": [
        {
          "internalType": "address",
          "name": "_pbproshopfactoryaddress",
          "type": "address"
        }
      ],
      "name": "updateProShopFactoryAddress",
      "outputs": [],
      "stateMutability": "nonpayable",
      "type": "function"
    },
    {
      "inputs": [
        {
          "internalType": "address",
          "name": "_pbproshopholderaddress",
          "type": "address"
        }
      ],
      "name": "updateProShopHolderAddress",
      "outputs": [],
      "stateMutability": "nonpayable",
      "type": "function"
    }
  ],
  "bytecode": "0x608060405234801561001057600080fd5b50604051610d15380380610d1583398181016040528101906100329190610152565b336000806101000a81548173ffffffffffffffffffffffffffffffffffffffff021916908373ffffffffffffffffffffffffffffffffffffffff16021790555082600360006101000a81548173ffffffffffffffffffffffffffffffffffffffff021916908373ffffffffffffffffffffffffffffffffffffffff16021790555081600160006101000a81548173ffffffffffffffffffffffffffffffffffffffff021916908373ffffffffffffffffffffffffffffffffffffffff16021790555080600260006101000a81548173ffffffffffffffffffffffffffffffffffffffff021916908373ffffffffffffffffffffffffffffffffffffffff1602179055505050506101f3565b60008151905061014c816101dc565b92915050565b60008060006060848603121561016b5761016a6101d7565b5b60006101798682870161013d565b935050602061018a8682870161013d565b925050604061019b8682870161013d565b9150509250925092565b60006101b0826101b7565b9050919050565b600073ffffffffffffffffffffffffffffffffffffffff82169050919050565b600080fd5b6101e5816101a5565b81146101f057600080fd5b50565b610b13806102026000396000f3fe608060405234801561001057600080fd5b50600436106100885760003560e01c806396f0c7371161005b57806396f0c73714610115578063bc197c8114610131578063f23a6e6114610161578063f851a4401461019157610088565b806301ffc9a71461008d57806303b3882e146100bd57806312cc9184146100db5780634a594c12146100f7575b600080fd5b6100a760048036038101906100a29190610793565b6101af565b6040516100b4919061083a565b60405180910390f35b6100c5610229565b6040516100d2919061081f565b60405180910390f35b6100f560048036038101906100f09190610600565b610231565b005b6100ff610303565b60405161010c9190610870565b60405180910390f35b61012f600480360381019061012a9190610600565b610329565b005b61014b6004803603810190610146919061062d565b6103fb565b6040516101589190610855565b60405180910390f35b61017b600480360381019061017691906106fc565b610410565b6040516101889190610855565b60405180910390f35b610199610425565b6040516101a6919061081f565b60405180910390f35b60007f4e2312e0000000000000000000000000000000000000000000000000000000007bffffffffffffffffffffffffffffffffffffffffffffffffffffffff1916827bffffffffffffffffffffffffffffffffffffffffffffffffffffffff19161480610222575061022182610449565b5b9050919050565b600030905090565b60008054906101000a900473ffffffffffffffffffffffffffffffffffffffff1673ffffffffffffffffffffffffffffffffffffffff163373ffffffffffffffffffffffffffffffffffffffff16146102bf576040517f08c379a00000000000000000000000000000000000000000000000000000000081526004016102b69061088b565b60405180910390fd5b80600260006101000a81548173ffffffffffffffffffffffffffffffffffffffff021916908373ffffffffffffffffffffffffffffffffffffffff16021790555050565b600360009054906101000a900473ffffffffffffffffffffffffffffffffffffffff1681565b60008054906101000a900473ffffffffffffffffffffffffffffffffffffffff1673ffffffffffffffffffffffffffffffffffffffff163373ffffffffffffffffffffffffffffffffffffffff16146103b7576040517f08c379a00000000000000000000000000000000000000000000000000000000081526004016103ae9061088b565b60405180910390fd5b80600160006101000a81548173ffffffffffffffffffffffffffffffffffffffff021916908373ffffffffffffffffffffffffffffffffffffffff16021790555050565b600063bc197c8160e01b905095945050505050565b600063f23a6e6160e01b905095945050505050565b60008054906101000a900473ffffffffffffffffffffffffffffffffffffffff1681565b60007f01ffc9a7000000000000000000000000000000000000000000000000000000007bffffffffffffffffffffffffffffffffffffffffffffffffffffffff1916827bffffffffffffffffffffffffffffffffffffffffffffffffffffffff1916149050919050565b60006104c66104c1846108d0565b6108ab565b905080838252602082019050828560208602820111156104e9576104e8610a4a565b5b60005b8581101561051957816104ff88826105eb565b8452602084019350602083019250506001810190506104ec565b5050509392505050565b6000610536610531846108fc565b6108ab565b90508281526020810184848401111561055257610551610a4f565b5b61055d8482856109d6565b509392505050565b60008135905061057481610a98565b92915050565b600082601f83011261058f5761058e610a45565b5b813561059f8482602086016104b3565b91505092915050565b6000813590506105b781610aaf565b92915050565b600082601f8301126105d2576105d1610a45565b5b81356105e2848260208601610523565b91505092915050565b6000813590506105fa81610ac6565b92915050565b60006020828403121561061657610615610a59565b5b600061062484828501610565565b91505092915050565b600080600080600060a0868803121561064957610648610a59565b5b600061065788828901610565565b955050602061066888828901610565565b945050604086013567ffffffffffffffff81111561068957610688610a54565b5b6106958882890161057a565b935050606086013567ffffffffffffffff8111156106b6576106b5610a54565b5b6106c28882890161057a565b925050608086013567ffffffffffffffff8111156106e3576106e2610a54565b5b6106ef888289016105bd565b9150509295509295909350565b600080600080600060a0868803121561071857610717610a59565b5b600061072688828901610565565b955050602061073788828901610565565b9450506040610748888289016105eb565b9350506060610759888289016105eb565b925050608086013567ffffffffffffffff81111561077a57610779610a54565b5b610786888289016105bd565b9150509295509295909350565b6000602082840312156107a9576107a8610a59565b5b60006107b7848285016105a8565b91505092915050565b6107c98161093e565b82525050565b6107d881610950565b82525050565b6107e78161095c565b82525050565b6107f6816109b2565b82525050565b600061080960208361092d565b915061081482610a6f565b602082019050919050565b600060208201905061083460008301846107c0565b92915050565b600060208201905061084f60008301846107cf565b92915050565b600060208201905061086a60008301846107de565b92915050565b600060208201905061088560008301846107ed565b92915050565b600060208201905081810360008301526108a4816107fc565b9050919050565b60006108b56108c6565b90506108c182826109e5565b919050565b6000604051905090565b600067ffffffffffffffff8211156108eb576108ea610a16565b5b602082029050602081019050919050565b600067ffffffffffffffff82111561091757610916610a16565b5b61092082610a5e565b9050602081019050919050565b600082825260208201905092915050565b600061094982610988565b9050919050565b60008115159050919050565b60007fffffffff0000000000000000000000000000000000000000000000000000000082169050919050565b600073ffffffffffffffffffffffffffffffffffffffff82169050919050565b6000819050919050565b60006109bd826109c4565b9050919050565b60006109cf82610988565b9050919050565b82818337600083830152505050565b6109ee82610a5e565b810181811067ffffffffffffffff82111715610a0d57610a0c610a16565b5b80604052505050565b7f4e487b7100000000000000000000000000000000000000000000000000000000600052604160045260246000fd5b600080fd5b600080fd5b600080fd5b600080fd5b600080fd5b6000601f19601f8301169050919050565b7f4f6e6c792041646d696e2063616e20706572666f726d20746869732063616c6c600082015250565b610aa18161093e565b8114610aac57600080fd5b50565b610ab88161095c565b8114610ac357600080fd5b50565b610acf816109a8565b8114610ada57600080fd5b5056fea2646970667358221220153cdd959b7ddbd614c8cda001f9dcf03868085cabd2045d052e15397b8c33b864736f6c63430008060033",
  "immutableReferences": {},
  "source": "// SPDX-License-Identifier: MIT\r\npragma solidity >=0.4.22 <0.9.0;\r\nimport \"../node_modules/@openzeppelin/contracts/token/ERC20/IERC20.sol\";\r\nimport '../node_modules/@openzeppelin/contracts/token/ERC1155/IERC1155.sol';\r\nimport \"../node_modules/@openzeppelin/contracts/token/ERC1155/utils/ERC1155Holder.sol\";\r\n\r\ncontract PBProShopEquippedHolder is ERC1155Holder{\r\n    \r\n    address public admin;\r\n    IERC1155 private pbproshopfactoryaddress;\r\n    IERC1155 private pbproshopholderaddress;\r\n    IERC20 public buddies;\r\n        \r\n    modifier onlyAdmin() {\r\n        require(msg.sender == admin, \"Only Admin can perform this call\");\r\n        _;\r\n    }\r\n\r\n    constructor(address _buddiesCoinAddress, address _pbproshopfactoryaddress, address _pbproshopholderaddress) ERC1155Holder() {\r\n        admin = msg.sender;\r\n        buddies = IERC20(_buddiesCoinAddress);\r\n        pbproshopfactoryaddress = IERC1155(_pbproshopfactoryaddress);\r\n        pbproshopholderaddress = IERC1155(_pbproshopholderaddress);\r\n    }\r\n\r\n    function getPBProShopEquippedHolderAddress() public view returns (address) {\r\n        return address(this);\r\n    }\r\n    \r\n   function updateProShopFactoryAddress(address _pbproshopfactoryaddress) external onlyAdmin {\r\n       pbproshopfactoryaddress = IERC1155(_pbproshopfactoryaddress);\r\n   }\r\n\r\n    function updateProShopHolderAddress(address _pbproshopholderaddress) external onlyAdmin {\r\n       pbproshopholderaddress = IERC1155(_pbproshopholderaddress);\r\n   }\r\n\r\n   //function returnEquippedItem  \r\n    \r\n    \r\n}\r\n\r\n",
  "sourcePath": "C:\\Zprojects\\puck-buddies\\contracts\\PBProShopEquippedHolder.sol",
  "compiler": {
    "name": "solc",
    "version": "0.8.6+commit.11564f7e.Emscripten.clang"
  },
  "schemaVersion": "3.4.2",
  "updatedAt": "2021-09-26T21:23:11.113Z",
  "networkType": "ethereum",
  "devdoc": {
    "kind": "dev",
    "methods": {
      "supportsInterface(bytes4)": {
        "details": "See {IERC165-supportsInterface}."
      }
    },
    "version": 1
  },
  "userdoc": {
    "kind": "user",
    "methods": {},
    "version": 1
  }
}