{
  "contractName": "PBProShopMarketplace",
  "abi": [
    {
      "inputs": [
        {
          "internalType": "address",
          "name": "_buddiesCoinAddress",
          "type": "address"
        },
        {
          "internalType": "address",
          "name": "_pbProShopFactoryAddress",
          "type": "address"
        },
        {
          "internalType": "address",
          "name": "_feesAddress",
          "type": "address"
        }
      ],
      "stateMutability": "nonpayable",
      "type": "constructor"
    },
    {
      "inputs": [],
      "name": "buddies",
      "outputs": [
        {
          "internalType": "contract IERC20",
          "name": "",
          "type": "address"
        }
      ],
      "stateMutability": "view",
      "type": "function",
      "constant": true
    },
    {
      "inputs": [
        {
          "internalType": "address",
          "name": "",
          "type": "address"
        },
        {
          "internalType": "address",
          "name": "",
          "type": "address"
        },
        {
          "internalType": "uint256[]",
          "name": "",
          "type": "uint256[]"
        },
        {
          "internalType": "uint256[]",
          "name": "",
          "type": "uint256[]"
        },
        {
          "internalType": "bytes",
          "name": "",
          "type": "bytes"
        }
      ],
      "name": "onERC1155BatchReceived",
      "outputs": [
        {
          "internalType": "bytes4",
          "name": "",
          "type": "bytes4"
        }
      ],
      "stateMutability": "nonpayable",
      "type": "function"
    },
    {
      "inputs": [
        {
          "internalType": "address",
          "name": "",
          "type": "address"
        },
        {
          "internalType": "address",
          "name": "",
          "type": "address"
        },
        {
          "internalType": "uint256",
          "name": "",
          "type": "uint256"
        },
        {
          "internalType": "uint256",
          "name": "",
          "type": "uint256"
        },
        {
          "internalType": "bytes",
          "name": "",
          "type": "bytes"
        }
      ],
      "name": "onERC1155Received",
      "outputs": [
        {
          "internalType": "bytes4",
          "name": "",
          "type": "bytes4"
        }
      ],
      "stateMutability": "nonpayable",
      "type": "function"
    },
    {
      "inputs": [],
      "name": "proShopItems",
      "outputs": [
        {
          "internalType": "contract IERC1155",
          "name": "",
          "type": "address"
        }
      ],
      "stateMutability": "view",
      "type": "function",
      "constant": true
    },
    {
      "inputs": [
        {
          "internalType": "bytes4",
          "name": "interfaceId",
          "type": "bytes4"
        }
      ],
      "name": "supportsInterface",
      "outputs": [
        {
          "internalType": "bool",
          "name": "",
          "type": "bool"
        }
      ],
      "stateMutability": "view",
      "type": "function",
      "constant": true
    },
    {
      "inputs": [],
      "name": "isAdmin",
      "outputs": [
        {
          "internalType": "bool",
          "name": "",
          "type": "bool"
        }
      ],
      "stateMutability": "view",
      "type": "function",
      "constant": true
    },
    {
      "inputs": [
        {
          "internalType": "address",
          "name": "_buddiesCoinAddress",
          "type": "address"
        }
      ],
      "name": "updateBuddiesCoinAddress",
      "outputs": [],
      "stateMutability": "nonpayable",
      "type": "function"
    },
    {
      "inputs": [],
      "name": "getPBProShopMarketplaceAddress",
      "outputs": [
        {
          "internalType": "address",
          "name": "",
          "type": "address"
        }
      ],
      "stateMutability": "view",
      "type": "function",
      "constant": true
    },
    {
      "inputs": [],
      "name": "getProshopMarketFeePercent",
      "outputs": [
        {
          "internalType": "uint256",
          "name": "",
          "type": "uint256"
        }
      ],
      "stateMutability": "view",
      "type": "function",
      "constant": true
    },
    {
      "inputs": [
        {
          "internalType": "uint256",
          "name": "value",
          "type": "uint256"
        }
      ],
      "name": "updateMarketFeePercent",
      "outputs": [
        {
          "internalType": "uint256",
          "name": "",
          "type": "uint256"
        }
      ],
      "stateMutability": "nonpayable",
      "type": "function"
    },
    {
      "inputs": [],
      "name": "getMarketFeePayableAddress",
      "outputs": [
        {
          "internalType": "address",
          "name": "",
          "type": "address"
        }
      ],
      "stateMutability": "view",
      "type": "function",
      "constant": true
    },
    {
      "inputs": [
        {
          "internalType": "address payable",
          "name": "newaddress",
          "type": "address"
        }
      ],
      "name": "updateFeePayableAddress",
      "outputs": [
        {
          "internalType": "address",
          "name": "",
          "type": "address"
        }
      ],
      "stateMutability": "nonpayable",
      "type": "function"
    },
    {
      "inputs": [
        {
          "internalType": "uint256",
          "name": "_tokenId",
          "type": "uint256"
        },
        {
          "internalType": "uint256",
          "name": "_sellingPrice",
          "type": "uint256"
        }
      ],
      "name": "createProShopMarketItem",
      "outputs": [],
      "stateMutability": "nonpayable",
      "type": "function"
    },
    {
      "inputs": [
        {
          "internalType": "uint256",
          "name": "_marketTokenId",
          "type": "uint256"
        }
      ],
      "name": "createProShopMarketplaceSale",
      "outputs": [],
      "stateMutability": "nonpayable",
      "type": "function"
    },
    {
      "inputs": [
        {
          "internalType": "uint256",
          "name": "_marketTokenId",
          "type": "uint256"
        }
      ],
      "name": "cancelProShopMarketplaceSale",
      "outputs": [],
      "stateMutability": "nonpayable",
      "type": "function"
    },
    {
      "inputs": [],
      "name": "getProShopMarketItems",
      "outputs": [
        {
          "components": [
            {
              "internalType": "uint256",
              "name": "marketListingId",
              "type": "uint256"
            },
            {
              "internalType": "uint256",
              "name": "tokenId",
              "type": "uint256"
            },
            {
              "internalType": "uint256",
              "name": "sellingPrice",
              "type": "uint256"
            },
            {
              "internalType": "address",
              "name": "seller",
              "type": "address"
            },
            {
              "internalType": "address",
              "name": "buyer",
              "type": "address"
            },
            {
              "internalType": "bool",
              "name": "valid",
              "type": "bool"
            }
          ],
          "internalType": "struct PBProShopMarketplace.ProShopMarketItem[]",
          "name": "",
          "type": "tuple[]"
        }
      ],
      "stateMutability": "view",
      "type": "function",
      "constant": true
    }
  ],
  "bytecode": "0x60806040526101906006553480156200001757600080fd5b50604051620023ec380380620023ec83398181016040528101906200003d919062000169565b600160008190555033600160006101000a81548173ffffffffffffffffffffffffffffffffffffffff021916908373ffffffffffffffffffffffffffffffffffffffff16021790555082600860006101000a81548173ffffffffffffffffffffffffffffffffffffffff021916908373ffffffffffffffffffffffffffffffffffffffff16021790555081600760006101000a81548173ffffffffffffffffffffffffffffffffffffffff021916908373ffffffffffffffffffffffffffffffffffffffff16021790555080600360006101000a81548173ffffffffffffffffffffffffffffffffffffffff021916908373ffffffffffffffffffffffffffffffffffffffff16021790555050505062000218565b6000815190506200016381620001fe565b92915050565b600080600060608486031215620001855762000184620001f9565b5b6000620001958682870162000152565b9350506020620001a88682870162000152565b9250506040620001bb8682870162000152565b9150509250925092565b6000620001d282620001d9565b9050919050565b600073ffffffffffffffffffffffffffffffffffffffff82169050919050565b600080fd5b6200020981620001c5565b81146200021557600080fd5b50565b6121c480620002286000396000f3fe608060405234801561001057600080fd5b50600436106101005760003560e01c8063b00572ba11610097578063d89f7ad711610066578063d89f7ad7146102af578063eafbe677146102cd578063f23a6e61146102eb578063f739f2121461031b57610100565b8063b00572ba14610225578063b6db75a014610243578063bc197c8114610261578063c4d9e3311461029157610100565b80634a594c12116100d35780634a594c12146101b15780635d632faf146101cf57806376c00c25146101eb5780637b44b7691461020757610100565b806301ffc9a7146101055780632146562214610135578063329c4b5e146101655780633ce665e414610195575b600080fd5b61011f600480360381019061011a91906116d8565b610337565b60405161012c9190611a97565b60405180910390f35b61014f600480360381019061014a9190611518565b6103b1565b60405161015c91906119cb565b60405180910390f35b61017f600480360381019061017a9190611705565b6104ae565b60405161018c9190611ba3565b60405180910390f35b6101af60048036038101906101aa9190611705565b610551565b005b6101b961079b565b6040516101c69190611ae8565b60405180910390f35b6101e960048036038101906101e491906114eb565b6107c1565b005b61020560048036038101906102009190611732565b610895565b005b61020f610b21565b60405161021c9190611a75565b60405180910390f35b61022d610d69565b60405161023a9190611ba3565b60405180910390f35b61024b610d73565b6040516102589190611a97565b60405180910390f35b61027b60048036038101906102769190611545565b610ddc565b6040516102889190611ab2565b60405180910390f35b610299610df1565b6040516102a691906119cb565b60405180910390f35b6102b7610dfe565b6040516102c491906119cb565b60405180910390f35b6102d5610e28565b6040516102e29190611acd565b60405180910390f35b61030560048036038101906103009190611614565b610e4e565b6040516103129190611ab2565b60405180910390f35b61033560048036038101906103309190611705565b610e63565b005b60007f4e2312e0000000000000000000000000000000000000000000000000000000007bffffffffffffffffffffffffffffffffffffffffffffffffffffffff1916827bffffffffffffffffffffffffffffffffffffffffffffffffffffffff191614806103aa57506103a982611282565b5b9050919050565b60003373ffffffffffffffffffffffffffffffffffffffff16600160009054906101000a900473ffffffffffffffffffffffffffffffffffffffff1673ffffffffffffffffffffffffffffffffffffffff1614610443576040517f08c379a000000000000000000000000000000000000000000000000000000000815260040161043a90611b43565b60405180910390fd5b81600360006101000a81548173ffffffffffffffffffffffffffffffffffffffff021916908373ffffffffffffffffffffffffffffffffffffffff160217905550600360009054906101000a900473ffffffffffffffffffffffffffffffffffffffff169050919050565b60003373ffffffffffffffffffffffffffffffffffffffff16600160009054906101000a900473ffffffffffffffffffffffffffffffffffffffff1673ffffffffffffffffffffffffffffffffffffffff1614610540576040517f08c379a000000000000000000000000000000000000000000000000000000000815260040161053790611b43565b60405180910390fd5b816006819055506006549050919050565b60026000541415610597576040517f08c379a000000000000000000000000000000000000000000000000000000000815260040161058e90611b83565b60405180910390fd5b6002600081905550600115156009600083815260200190815260200160002060040160149054906101000a900460ff16151514610609576040517f08c379a000000000000000000000000000000000000000000000000000000000815260040161060090611b63565b60405180910390fd5b3373ffffffffffffffffffffffffffffffffffffffff166009600083815260200190815260200160002060030160009054906101000a900473ffffffffffffffffffffffffffffffffffffffff1673ffffffffffffffffffffffffffffffffffffffff16146106ad576040517f08c379a00000000000000000000000000000000000000000000000000000000081526004016106a490611b03565b60405180910390fd5b60006009600083815260200190815260200160002060040160146101000a81548160ff021916908315150217905550600760009054906101000a900473ffffffffffffffffffffffffffffffffffffffff1673ffffffffffffffffffffffffffffffffffffffff1663f242432a3033600960008681526020019081526020016000206001015460016040518563ffffffff1660e01b81526004016107549493929190611a1d565b600060405180830381600087803b15801561076e57600080fd5b505af1158015610782573d6000803e3d6000fd5b5050505061079060056112ec565b600160008190555050565b600860009054906101000a900473ffffffffffffffffffffffffffffffffffffffff1681565b3373ffffffffffffffffffffffffffffffffffffffff16600160009054906101000a900473ffffffffffffffffffffffffffffffffffffffff1673ffffffffffffffffffffffffffffffffffffffff1614610851576040517f08c379a000000000000000000000000000000000000000000000000000000000815260040161084890611b43565b60405180910390fd5b80600860006101000a81548173ffffffffffffffffffffffffffffffffffffffff021916908373ffffffffffffffffffffffffffffffffffffffff16021790555050565b600260005414156108db576040517f08c379a00000000000000000000000000000000000000000000000000000000081526004016108d290611b83565b60405180910390fd5b600260008190555060008111610926576040517f08c379a000000000000000000000000000000000000000000000000000000000815260040161091d90611b23565b60405180910390fd5b61093060046112ec565b6040518060c001604052806109456004611302565b81526020018381526020018281526020013373ffffffffffffffffffffffffffffffffffffffff168152602001600073ffffffffffffffffffffffffffffffffffffffff16815260200160011515815250600960006109a46004611302565b815260200190815260200160002060008201518160000155602082015181600101556040820151816002015560608201518160030160006101000a81548173ffffffffffffffffffffffffffffffffffffffff021916908373ffffffffffffffffffffffffffffffffffffffff16021790555060808201518160040160006101000a81548173ffffffffffffffffffffffffffffffffffffffff021916908373ffffffffffffffffffffffffffffffffffffffff16021790555060a08201518160040160146101000a81548160ff021916908315150217905550905050600760009054906101000a900473ffffffffffffffffffffffffffffffffffffffff1673ffffffffffffffffffffffffffffffffffffffff1663f242432a33308560016040518563ffffffff1660e01b8152600401610ae39493929190611a1d565b600060405180830381600087803b158015610afd57600080fd5b505af1158015610b11573d6000803e3d6000fd5b5050505060016000819055505050565b60606000610b2f6005611302565b610b396004611302565b610b439190611d7c565b90506000808267ffffffffffffffff811115610b6257610b61611fa6565b5b604051908082528060200260200182016040528015610b9b57816020015b610b88611310565b815260200190600190039081610b805790505b50905060005b610bab6004611302565b811015610d5f576001151560096000600184610bc79190611c9b565b815260200190815260200160002060040160149054906101000a900460ff1615151415610d4c57600060096000600184610c019190611c9b565b81526020019081526020016000206000015490506000600960008381526020019081526020016000209050806040518060c00160405290816000820154815260200160018201548152602001600282015481526020016003820160009054906101000a900473ffffffffffffffffffffffffffffffffffffffff1673ffffffffffffffffffffffffffffffffffffffff1673ffffffffffffffffffffffffffffffffffffffff1681526020016004820160009054906101000a900473ffffffffffffffffffffffffffffffffffffffff1673ffffffffffffffffffffffffffffffffffffffff1673ffffffffffffffffffffffffffffffffffffffff1681526020016004820160149054906101000a900460ff161515151581525050848681518110610d3057610d2f611f77565b5b60200260200101819052508480610d4690611ed0565b95505050505b8080610d5790611ed0565b915050610ba1565b5080935050505090565b6000600654905090565b60003373ffffffffffffffffffffffffffffffffffffffff16600160009054906101000a900473ffffffffffffffffffffffffffffffffffffffff1673ffffffffffffffffffffffffffffffffffffffff161415610dd45760019050610dd9565b600090505b90565b600063bc197c8160e01b905095945050505050565b6000803090508091505090565b6000600360009054906101000a900473ffffffffffffffffffffffffffffffffffffffff16905090565b600760009054906101000a900473ffffffffffffffffffffffffffffffffffffffff1681565b600063f23a6e6160e01b905095945050505050565b60026000541415610ea9576040517f08c379a0000000000000000000000000000000000000000000000000000000008152600401610ea090611b83565b60405180910390fd5b6002600081905550600115156009600083815260200190815260200160002060040160149054906101000a900460ff16151514610f1b576040517f08c379a0000000000000000000000000000000000000000000000000000000008152600401610f1290611b63565b60405180910390fd5b600061271080600654610f2e9190611c9b565b6009600085815260200190815260200160002060020154610f4f9190611cf1565b610f599190611d22565b90506000816009600085815260200190815260200160002060020154610f7f9190611d7c565b9050336009600085815260200190815260200160002060040160006101000a81548173ffffffffffffffffffffffffffffffffffffffff021916908373ffffffffffffffffffffffffffffffffffffffff16021790555060006009600085815260200190815260200160002060040160146101000a81548160ff021916908315150217905550600860009054906101000a900473ffffffffffffffffffffffffffffffffffffffff1673ffffffffffffffffffffffffffffffffffffffff166323b872dd336009600087815260200190815260200160002060030160009054906101000a900473ffffffffffffffffffffffffffffffffffffffff16856040518463ffffffff1660e01b815260040161109a939291906119e6565b602060405180830381600087803b1580156110b457600080fd5b505af11580156110c8573d6000803e3d6000fd5b505050506040513d601f19601f820116820180604052508101906110ec91906116ab565b50600860009054906101000a900473ffffffffffffffffffffffffffffffffffffffff1673ffffffffffffffffffffffffffffffffffffffff166323b872dd33600360009054906101000a900473ffffffffffffffffffffffffffffffffffffffff16846040518463ffffffff1660e01b815260040161116e939291906119e6565b602060405180830381600087803b15801561118857600080fd5b505af115801561119c573d6000803e3d6000fd5b505050506040513d601f19601f820116820180604052508101906111c091906116ab565b50600760009054906101000a900473ffffffffffffffffffffffffffffffffffffffff1673ffffffffffffffffffffffffffffffffffffffff1663f242432a3033600960008881526020019081526020016000206001015460016040518563ffffffff1660e01b81526004016112399493929190611a1d565b600060405180830381600087803b15801561125357600080fd5b505af1158015611267573d6000803e3d6000fd5b5050505061127560056112ec565b5050600160008190555050565b60007f01ffc9a7000000000000000000000000000000000000000000000000000000007bffffffffffffffffffffffffffffffffffffffffffffffffffffffff1916827bffffffffffffffffffffffffffffffffffffffffffffffffffffffff1916149050919050565b6001816000016000828254019250508190555050565b600081600001549050919050565b6040518060c00160405280600081526020016000815260200160008152602001600073ffffffffffffffffffffffffffffffffffffffff168152602001600073ffffffffffffffffffffffffffffffffffffffff1681526020016000151581525090565b600061138761138284611be3565b611bbe565b905080838252602082019050828560208602820111156113aa576113a9611fda565b5b60005b858110156113da57816113c088826114d6565b8452602084019350602083019250506001810190506113ad565b5050509392505050565b60006113f76113f284611c0f565b611bbe565b90508281526020810184848401111561141357611412611fdf565b5b61141e848285611e90565b509392505050565b6000813590506114358161211b565b92915050565b60008135905061144a81612132565b92915050565b600082601f83011261146557611464611fd5565b5b8135611475848260208601611374565b91505092915050565b60008151905061148d81612149565b92915050565b6000813590506114a281612160565b92915050565b600082601f8301126114bd576114bc611fd5565b5b81356114cd8482602086016113e4565b91505092915050565b6000813590506114e581612177565b92915050565b60006020828403121561150157611500611fe9565b5b600061150f84828501611426565b91505092915050565b60006020828403121561152e5761152d611fe9565b5b600061153c8482850161143b565b91505092915050565b600080600080600060a0868803121561156157611560611fe9565b5b600061156f88828901611426565b955050602061158088828901611426565b945050604086013567ffffffffffffffff8111156115a1576115a0611fe4565b5b6115ad88828901611450565b935050606086013567ffffffffffffffff8111156115ce576115cd611fe4565b5b6115da88828901611450565b925050608086013567ffffffffffffffff8111156115fb576115fa611fe4565b5b611607888289016114a8565b9150509295509295909350565b600080600080600060a086880312156116305761162f611fe9565b5b600061163e88828901611426565b955050602061164f88828901611426565b9450506040611660888289016114d6565b9350506060611671888289016114d6565b925050608086013567ffffffffffffffff81111561169257611691611fe4565b5b61169e888289016114a8565b9150509295509295909350565b6000602082840312156116c1576116c0611fe9565b5b60006116cf8482850161147e565b91505092915050565b6000602082840312156116ee576116ed611fe9565b5b60006116fc84828501611493565b91505092915050565b60006020828403121561171b5761171a611fe9565b5b6000611729848285016114d6565b91505092915050565b6000806040838503121561174957611748611fe9565b5b6000611757858286016114d6565b9250506020611768858286016114d6565b9150509250929050565b600061177e8383611932565b60c08301905092915050565b61179381611db0565b82525050565b6117a281611db0565b82525050565b60006117b382611c50565b6117bd8185611c68565b93506117c883611c40565b8060005b838110156117f95781516117e08882611772565b97506117eb83611c5b565b9250506001810190506117cc565b5085935050505092915050565b61180f81611dd4565b82525050565b61181e81611dd4565b82525050565b61182d81611de0565b82525050565b61183c81611e36565b82525050565b61184b81611e5a565b82525050565b61185a81611e7e565b82525050565b600061186d603083611c8a565b915061187882611fff565b604082019050919050565b6000611890601183611c8a565b915061189b8261204e565b602082019050919050565b60006118b3603d83611c8a565b91506118be82612077565b604082019050919050565b60006118d6600083611c79565b91506118e1826120c6565b600082019050919050565b60006118f9601f83611c8a565b9150611904826120c9565b602082019050919050565b600061191c601f83611c8a565b9150611927826120f2565b602082019050919050565b60c08201600082015161194860008501826119ad565b50602082015161195b60208501826119ad565b50604082015161196e60408501826119ad565b506060820151611981606085018261178a565b506080820151611994608085018261178a565b5060a08201516119a760a0850182611806565b50505050565b6119b681611e2c565b82525050565b6119c581611e2c565b82525050565b60006020820190506119e06000830184611799565b92915050565b60006060820190506119fb6000830186611799565b611a086020830185611799565b611a1560408301846119bc565b949350505050565b600060a082019050611a326000830187611799565b611a3f6020830186611799565b611a4c60408301856119bc565b611a596060830184611851565b8181036080830152611a6a816118c9565b905095945050505050565b60006020820190508181036000830152611a8f81846117a8565b905092915050565b6000602082019050611aac6000830184611815565b92915050565b6000602082019050611ac76000830184611824565b92915050565b6000602082019050611ae26000830184611833565b92915050565b6000602082019050611afd6000830184611842565b92915050565b60006020820190508181036000830152611b1c81611860565b9050919050565b60006020820190508181036000830152611b3c81611883565b9050919050565b60006020820190508181036000830152611b5c816118a6565b9050919050565b60006020820190508181036000830152611b7c816118ec565b9050919050565b60006020820190508181036000830152611b9c8161190f565b9050919050565b6000602082019050611bb860008301846119bc565b92915050565b6000611bc8611bd9565b9050611bd48282611e9f565b919050565b6000604051905090565b600067ffffffffffffffff821115611bfe57611bfd611fa6565b5b602082029050602081019050919050565b600067ffffffffffffffff821115611c2a57611c29611fa6565b5b611c3382611fee565b9050602081019050919050565b6000819050602082019050919050565b600081519050919050565b6000602082019050919050565b600082825260208201905092915050565b600082825260208201905092915050565b600082825260208201905092915050565b6000611ca682611e2c565b9150611cb183611e2c565b9250827fffffffffffffffffffffffffffffffffffffffffffffffffffffffffffffffff03821115611ce657611ce5611f19565b5b828201905092915050565b6000611cfc82611e2c565b9150611d0783611e2c565b925082611d1757611d16611f48565b5b828204905092915050565b6000611d2d82611e2c565b9150611d3883611e2c565b9250817fffffffffffffffffffffffffffffffffffffffffffffffffffffffffffffffff0483118215151615611d7157611d70611f19565b5b828202905092915050565b6000611d8782611e2c565b9150611d9283611e2c565b925082821015611da557611da4611f19565b5b828203905092915050565b6000611dbb82611e0c565b9050919050565b6000611dcd82611e0c565b9050919050565b60008115159050919050565b60007fffffffff0000000000000000000000000000000000000000000000000000000082169050919050565b600073ffffffffffffffffffffffffffffffffffffffff82169050919050565b6000819050919050565b6000611e4182611e48565b9050919050565b6000611e5382611e0c565b9050919050565b6000611e6582611e6c565b9050919050565b6000611e7782611e0c565b9050919050565b6000611e8982611e2c565b9050919050565b82818337600083830152505050565b611ea882611fee565b810181811067ffffffffffffffff82111715611ec757611ec6611fa6565b5b80604052505050565b6000611edb82611e2c565b91507fffffffffffffffffffffffffffffffffffffffffffffffffffffffffffffffff821415611f0e57611f0d611f19565b5b600182019050919050565b7f4e487b7100000000000000000000000000000000000000000000000000000000600052601160045260246000fd5b7f4e487b7100000000000000000000000000000000000000000000000000000000600052601260045260246000fd5b7f4e487b7100000000000000000000000000000000000000000000000000000000600052603260045260246000fd5b7f4e487b7100000000000000000000000000000000000000000000000000000000600052604160045260246000fd5b600080fd5b600080fd5b600080fd5b600080fd5b600080fd5b6000601f19601f8301169050919050565b7f4f6e6c7920746865206f776e6572206f6620746869732073616c652063616e2060008201527f63616e63656c20746869732073616c6500000000000000000000000000000000602082015250565b7f50726963652063616e6e6f742062652030000000000000000000000000000000600082015250565b7f546869732066756e6374696f6e206973206f6e6c792061636365737361626c6560008201527f206279207468652061646d696e206f662074686520636f6e7472616374000000602082015250565b50565b7f5468697320697320616e20696e76616c6964206d61726b657420546f6b656e00600082015250565b7f5265656e7472616e637947756172643a207265656e7472616e742063616c6c00600082015250565b61212481611db0565b811461212f57600080fd5b50565b61213b81611dc2565b811461214657600080fd5b50565b61215281611dd4565b811461215d57600080fd5b50565b61216981611de0565b811461217457600080fd5b50565b61218081611e2c565b811461218b57600080fd5b5056fea2646970667358221220030cdfc5c8bd0ea1eda2e46772ec0e0a29711802d9697906ac11fd7d1951332364736f6c63430008060033",
  "immutableReferences": {},
  "source": "// SPDX-License-Identifier: MIT\r\npragma solidity >=0.4.22 <0.9.0;\r\n\r\nimport \"../node_modules/@openzeppelin/contracts/security/ReentrancyGuard.sol\";\r\nimport \"../node_modules/@openzeppelin/contracts/token/ERC1155/IERC1155.sol\";\r\nimport \"../node_modules/@openzeppelin/contracts/token/ERC1155/utils/ERC1155Holder.sol\";\r\nimport \"../node_modules/@openzeppelin/contracts/token/ERC20/IERC20.sol\";\r\nimport \"../node_modules/@openzeppelin/contracts/utils/Counters.sol\";\r\n\r\ncontract PBProShopMarketplace is ERC1155Holder, ReentrancyGuard {\r\n    address admin;\r\n    address pbProShopFactoryAddress;\r\n    address feesAddress;\r\n    using Counters for Counters.Counter;\r\n    Counters.Counter private _itemIds;\r\n    Counters.Counter private _itemsComplete;\r\n    uint256 marketFeePercent = 400;\r\n    IERC1155 public proShopItems;\r\n    IERC20 public buddies;\r\n\r\nconstructor(address _buddiesCoinAddress, address _pbProShopFactoryAddress, address _feesAddress) {\r\n    admin = msg.sender;\r\n    buddies = IERC20(_buddiesCoinAddress);\r\n    proShopItems = IERC1155(_pbProShopFactoryAddress);\r\n    feesAddress = _feesAddress;\r\n}\r\n\r\nstruct ProShopMarketItem {\r\n    uint marketListingId;\r\n    uint tokenId;\r\n    uint sellingPrice;\r\n    address seller;\r\n    address buyer;\r\n    bool valid;\r\n}\r\n\r\nmapping(uint => ProShopMarketItem) private _proShopMarketItems;\r\n\r\n modifier onlyAdmin() {\r\n        require(admin == msg.sender, \"This function is only accessable by the admin of the contract\" );\r\n        _;\r\n  }\r\n\r\nfunction isAdmin() public view returns (bool){\r\n        if(admin == msg.sender){\r\n            return true;\r\n        } else return false;\r\n  }\r\n\r\nfunction updateBuddiesCoinAddress(address _buddiesCoinAddress) onlyAdmin external {\r\n     buddies = IERC20(_buddiesCoinAddress);\r\n  }\r\n\r\nfunction getPBProShopMarketplaceAddress() public view returns (address){\r\n    address result = address(this);\r\n    return result;\r\n  }\r\n\r\nfunction getProshopMarketFeePercent() public view returns (uint) {\r\n    return marketFeePercent;\r\n  }\r\n\r\nfunction updateMarketFeePercent(uint value) onlyAdmin external returns (uint){\r\n    marketFeePercent = value;\r\n    return marketFeePercent;\r\n  }\r\n\r\nfunction getMarketFeePayableAddress() public view returns (address) {\r\n      return feesAddress;\r\n  }\r\n\r\nfunction updateFeePayableAddress(address payable newaddress) onlyAdmin external returns (address) {\r\n    feesAddress = newaddress;\r\n    return feesAddress;\r\n  }\r\n\r\nfunction createProShopMarketItem(uint _tokenId, uint _sellingPrice) public nonReentrant {\r\n    require(_sellingPrice > 0, \"Price cannot be 0\");\r\n    _itemIds.increment();\r\n    _proShopMarketItems[_itemIds.current()] = ProShopMarketItem(\r\n        _itemIds.current(),\r\n        _tokenId,\r\n        _sellingPrice,\r\n        msg.sender,\r\n        address(0),\r\n        true\r\n        );\r\n    proShopItems.safeTransferFrom(msg.sender, address(this), _tokenId, 1, \"\");\r\n\r\n}\r\n\r\nfunction createProShopMarketplaceSale(uint _marketTokenId) external nonReentrant {\r\n    require(_proShopMarketItems[_marketTokenId].valid == true, \"This is an invalid market Token\");\r\n    uint buddiesPayout = ((_proShopMarketItems[_marketTokenId].sellingPrice/(marketFeePercent+10000))*10000);\r\n    uint feesPayout = _proShopMarketItems[_marketTokenId].sellingPrice - buddiesPayout;\r\n    _proShopMarketItems[_marketTokenId].buyer = msg.sender;\r\n    _proShopMarketItems[_marketTokenId].valid = false;\r\n    buddies.transferFrom(msg.sender, _proShopMarketItems[_marketTokenId].seller, buddiesPayout);\r\n    buddies.transferFrom(msg.sender, feesAddress, feesPayout);\r\n    proShopItems.safeTransferFrom(address(this), msg.sender,  _proShopMarketItems[_marketTokenId].tokenId, 1, \"\");\r\n    _itemsComplete.increment();\r\n}\r\n\r\nfunction cancelProShopMarketplaceSale(uint _marketTokenId) external nonReentrant {\r\n    require(_proShopMarketItems[_marketTokenId].valid == true, \"This is an invalid market Token\");\r\n    require(_proShopMarketItems[_marketTokenId].seller == msg.sender, \"Only the owner of this sale can cancel this sale\");\r\n     _proShopMarketItems[_marketTokenId].valid = false;\r\n    proShopItems.safeTransferFrom(address(this), msg.sender,  _proShopMarketItems[_marketTokenId].tokenId, 1, \"\");\r\n    _itemsComplete.increment(); \r\n}\r\n\r\nfunction getProShopMarketItems() public view returns (ProShopMarketItem[] memory) {\r\n    uint unsoldItemCount = _itemIds.current() - _itemsComplete.current();\r\n    uint currentIndex = 0;\r\n\r\n    ProShopMarketItem[] memory items = new ProShopMarketItem[](unsoldItemCount);\r\n    for (uint i = 0; i < _itemIds.current(); i++) {\r\n        if (_proShopMarketItems[i + 1].valid == true) {\r\n            uint currentId = _proShopMarketItems[i + 1].marketListingId;\r\n            ProShopMarketItem storage currentItem = _proShopMarketItems[currentId];\r\n            items[currentIndex] = currentItem;\r\n            currentIndex++;\r\n    }\r\n}\r\nreturn items;\r\n}\r\n\r\n\r\n}",
  "sourcePath": "O:\\Projects\\puck-buddies\\contracts\\PBProShopMarketplace.sol",
  "compiler": {
    "name": "solc",
    "version": "0.8.6+commit.11564f7e.Emscripten.clang"
  },
  "schemaVersion": "3.4.3",
  "updatedAt": "2021-11-05T12:07:33.665Z",
  "networkType": "ethereum",
  "devdoc": {
    "kind": "dev",
    "methods": {
      "supportsInterface(bytes4)": {
        "details": "See {IERC165-supportsInterface}."
      }
    },
    "version": 1
  },
  "userdoc": {
    "kind": "user",
    "methods": {},
    "version": 1
  }
}