{
  "contractName": "PBProShopMarketplace",
  "abi": [
    {
      "inputs": [
        {
          "internalType": "address",
          "name": "_buddiesCoinAddress",
          "type": "address"
        },
        {
          "internalType": "address",
          "name": "_pbProShopFactoryAddress",
          "type": "address"
        },
        {
          "internalType": "address",
          "name": "_feesAddress",
          "type": "address"
        }
      ],
      "stateMutability": "nonpayable",
      "type": "constructor"
    },
    {
      "inputs": [],
      "name": "buddies",
      "outputs": [
        {
          "internalType": "contract IERC20",
          "name": "",
          "type": "address"
        }
      ],
      "stateMutability": "view",
      "type": "function",
      "constant": true
    },
    {
      "inputs": [
        {
          "internalType": "address",
          "name": "",
          "type": "address"
        },
        {
          "internalType": "address",
          "name": "",
          "type": "address"
        },
        {
          "internalType": "uint256[]",
          "name": "",
          "type": "uint256[]"
        },
        {
          "internalType": "uint256[]",
          "name": "",
          "type": "uint256[]"
        },
        {
          "internalType": "bytes",
          "name": "",
          "type": "bytes"
        }
      ],
      "name": "onERC1155BatchReceived",
      "outputs": [
        {
          "internalType": "bytes4",
          "name": "",
          "type": "bytes4"
        }
      ],
      "stateMutability": "nonpayable",
      "type": "function"
    },
    {
      "inputs": [
        {
          "internalType": "address",
          "name": "",
          "type": "address"
        },
        {
          "internalType": "address",
          "name": "",
          "type": "address"
        },
        {
          "internalType": "uint256",
          "name": "",
          "type": "uint256"
        },
        {
          "internalType": "uint256",
          "name": "",
          "type": "uint256"
        },
        {
          "internalType": "bytes",
          "name": "",
          "type": "bytes"
        }
      ],
      "name": "onERC1155Received",
      "outputs": [
        {
          "internalType": "bytes4",
          "name": "",
          "type": "bytes4"
        }
      ],
      "stateMutability": "nonpayable",
      "type": "function"
    },
    {
      "inputs": [],
      "name": "proShopItems",
      "outputs": [
        {
          "internalType": "contract IERC1155",
          "name": "",
          "type": "address"
        }
      ],
      "stateMutability": "view",
      "type": "function",
      "constant": true
    },
    {
      "inputs": [
        {
          "internalType": "bytes4",
          "name": "interfaceId",
          "type": "bytes4"
        }
      ],
      "name": "supportsInterface",
      "outputs": [
        {
          "internalType": "bool",
          "name": "",
          "type": "bool"
        }
      ],
      "stateMutability": "view",
      "type": "function",
      "constant": true
    },
    {
      "inputs": [],
      "name": "isAdmin",
      "outputs": [
        {
          "internalType": "bool",
          "name": "",
          "type": "bool"
        }
      ],
      "stateMutability": "view",
      "type": "function",
      "constant": true
    },
    {
      "inputs": [
        {
          "internalType": "address",
          "name": "_buddiesCoinAddress",
          "type": "address"
        }
      ],
      "name": "updateBuddiesCoinAddress",
      "outputs": [],
      "stateMutability": "nonpayable",
      "type": "function"
    },
    {
      "inputs": [],
      "name": "getPBProShopMarketplaceAddress",
      "outputs": [
        {
          "internalType": "address",
          "name": "",
          "type": "address"
        }
      ],
      "stateMutability": "view",
      "type": "function",
      "constant": true
    },
    {
      "inputs": [],
      "name": "getProshopMarketFeePercent",
      "outputs": [
        {
          "internalType": "uint256",
          "name": "",
          "type": "uint256"
        }
      ],
      "stateMutability": "view",
      "type": "function",
      "constant": true
    },
    {
      "inputs": [
        {
          "internalType": "uint256",
          "name": "value",
          "type": "uint256"
        }
      ],
      "name": "updateMarketFeePercent",
      "outputs": [
        {
          "internalType": "uint256",
          "name": "",
          "type": "uint256"
        }
      ],
      "stateMutability": "nonpayable",
      "type": "function"
    },
    {
      "inputs": [],
      "name": "getMarketFeePayableAddress",
      "outputs": [
        {
          "internalType": "address",
          "name": "",
          "type": "address"
        }
      ],
      "stateMutability": "view",
      "type": "function",
      "constant": true
    },
    {
      "inputs": [],
      "name": "getMarketplaceStats",
      "outputs": [
        {
          "internalType": "uint256",
          "name": "",
          "type": "uint256"
        },
        {
          "internalType": "uint256",
          "name": "",
          "type": "uint256"
        }
      ],
      "stateMutability": "view",
      "type": "function",
      "constant": true
    },
    {
      "inputs": [
        {
          "internalType": "address payable",
          "name": "newaddress",
          "type": "address"
        }
      ],
      "name": "updateFeePayableAddress",
      "outputs": [
        {
          "internalType": "address",
          "name": "",
          "type": "address"
        }
      ],
      "stateMutability": "nonpayable",
      "type": "function"
    },
    {
      "inputs": [
        {
          "internalType": "uint256",
          "name": "_tokenId",
          "type": "uint256"
        },
        {
          "internalType": "uint256",
          "name": "_sellingPrice",
          "type": "uint256"
        }
      ],
      "name": "createProShopMarketItem",
      "outputs": [],
      "stateMutability": "nonpayable",
      "type": "function"
    },
    {
      "inputs": [
        {
          "internalType": "uint256",
          "name": "_marketTokenId",
          "type": "uint256"
        }
      ],
      "name": "createProShopMarketplaceSale",
      "outputs": [],
      "stateMutability": "nonpayable",
      "type": "function"
    },
    {
      "inputs": [
        {
          "internalType": "uint256",
          "name": "_marketTokenId",
          "type": "uint256"
        }
      ],
      "name": "cancelProShopMarketplaceSale",
      "outputs": [],
      "stateMutability": "nonpayable",
      "type": "function"
    },
    {
      "inputs": [],
      "name": "getProShopMarketItems",
      "outputs": [
        {
          "components": [
            {
              "internalType": "uint256",
              "name": "marketListingId",
              "type": "uint256"
            },
            {
              "internalType": "uint256",
              "name": "tokenId",
              "type": "uint256"
            },
            {
              "internalType": "uint256",
              "name": "sellingPrice",
              "type": "uint256"
            },
            {
              "internalType": "address",
              "name": "seller",
              "type": "address"
            },
            {
              "internalType": "address",
              "name": "buyer",
              "type": "address"
            },
            {
              "internalType": "bool",
              "name": "valid",
              "type": "bool"
            }
          ],
          "internalType": "struct PBProShopMarketplace.ProShopMarketItem[]",
          "name": "",
          "type": "tuple[]"
        }
      ],
      "stateMutability": "view",
      "type": "function",
      "constant": true
    },
    {
      "inputs": [],
      "name": "getBNBBalance",
      "outputs": [
        {
          "internalType": "uint256",
          "name": "",
          "type": "uint256"
        }
      ],
      "stateMutability": "view",
      "type": "function",
      "constant": true
    },
    {
      "inputs": [],
      "name": "getBudsBalance",
      "outputs": [
        {
          "internalType": "uint256",
          "name": "",
          "type": "uint256"
        }
      ],
      "stateMutability": "view",
      "type": "function",
      "constant": true
    },
    {
      "inputs": [
        {
          "internalType": "address payable",
          "name": "_to",
          "type": "address"
        },
        {
          "internalType": "uint256",
          "name": "_amount",
          "type": "uint256"
        }
      ],
      "name": "transferBNB",
      "outputs": [],
      "stateMutability": "nonpayable",
      "type": "function"
    },
    {
      "inputs": [
        {
          "internalType": "uint256",
          "name": "_amount",
          "type": "uint256"
        }
      ],
      "name": "transferBUDS",
      "outputs": [],
      "stateMutability": "nonpayable",
      "type": "function"
    }
  ],
  "bytecode": "0x60806040526101906006553480156200001757600080fd5b50604051620029bc380380620029bc83398181016040528101906200003d919062000169565b600160008190555033600160006101000a81548173ffffffffffffffffffffffffffffffffffffffff021916908373ffffffffffffffffffffffffffffffffffffffff16021790555082600860006101000a81548173ffffffffffffffffffffffffffffffffffffffff021916908373ffffffffffffffffffffffffffffffffffffffff16021790555081600760006101000a81548173ffffffffffffffffffffffffffffffffffffffff021916908373ffffffffffffffffffffffffffffffffffffffff16021790555080600360006101000a81548173ffffffffffffffffffffffffffffffffffffffff021916908373ffffffffffffffffffffffffffffffffffffffff16021790555050505062000218565b6000815190506200016381620001fe565b92915050565b600080600060608486031215620001855762000184620001f9565b5b6000620001958682870162000152565b9350506020620001a88682870162000152565b9250506040620001bb8682870162000152565b9150509250925092565b6000620001d282620001d9565b9050919050565b600073ffffffffffffffffffffffffffffffffffffffff82169050919050565b600080fd5b6200020981620001c5565b81146200021557600080fd5b50565b61279480620002286000396000f3fe608060405234801561001057600080fd5b50600436106101375760003560e01c806395e03eb4116100b8578063d89f7ad71161007c578063d89f7ad71461033f578063eafbe6771461035d578063eb17fba31461037b578063f23a6e6114610397578063f739f212146103c7578063f89879aa146103e357610137565b806395e03eb414610299578063b00572ba146102b5578063b6db75a0146102d3578063bc197c81146102f1578063c4d9e3311461032157610137565b80635d632faf116100ff5780635d632faf1461020657806376c00c25146102225780637b44b7691461023e578063812d966a1461025c5780638491f2141461027b57610137565b806301ffc9a71461013c578063214656221461016c578063329c4b5e1461019c5780633ce665e4146101cc5780634a594c12146101e8575b600080fd5b61015660048036038101906101519190611c09565b610401565b6040516101639190612041565b60405180910390f35b61018660048036038101906101819190611a09565b61047b565b6040516101939190611f4c565b60405180910390f35b6101b660048036038101906101b19190611c36565b610578565b6040516101c3919061216d565b60405180910390f35b6101e660048036038101906101e19190611c36565b61061b565b005b6101f0610865565b6040516101fd9190612092565b60405180910390f35b610220600480360381019061021b91906119dc565b61088b565b005b61023c60048036038101906102379190611c90565b61095f565b005b610246610beb565b604051610253919061201f565b60405180910390f35b610264610e33565b604051610272929190612188565b60405180910390f35b610283610ee2565b604051610290919061216d565b60405180910390f35b6102b360048036038101906102ae9190611c36565b610f94565b005b6102bd6110d7565b6040516102ca919061216d565b60405180910390f35b6102db6110e1565b6040516102e89190612041565b60405180910390f35b61030b60048036038101906103069190611a76565b61114a565b604051610318919061205c565b60405180910390f35b61032961115f565b6040516103369190611f4c565b60405180910390f35b610347611167565b6040516103549190611f4c565b60405180910390f35b610365611191565b6040516103729190612077565b60405180910390f35b61039560048036038101906103909190611a36565b6111b7565b005b6103b160048036038101906103ac9190611b45565b611292565b6040516103be919061205c565b60405180910390f35b6103e160048036038101906103dc9190611c36565b6112a7565b005b6103eb6116c6565b6040516103f8919061216d565b60405180910390f35b60007f4e2312e0000000000000000000000000000000000000000000000000000000007bffffffffffffffffffffffffffffffffffffffffffffffffffffffff1916827bffffffffffffffffffffffffffffffffffffffffffffffffffffffff1916148061047457506104738261175e565b5b9050919050565b60003373ffffffffffffffffffffffffffffffffffffffff16600160009054906101000a900473ffffffffffffffffffffffffffffffffffffffff1673ffffffffffffffffffffffffffffffffffffffff161461050d576040517f08c379a0000000000000000000000000000000000000000000000000000000008152600401610504906120ad565b60405180910390fd5b81600360006101000a81548173ffffffffffffffffffffffffffffffffffffffff021916908373ffffffffffffffffffffffffffffffffffffffff160217905550600360009054906101000a900473ffffffffffffffffffffffffffffffffffffffff169050919050565b60003373ffffffffffffffffffffffffffffffffffffffff16600160009054906101000a900473ffffffffffffffffffffffffffffffffffffffff1673ffffffffffffffffffffffffffffffffffffffff161461060a576040517f08c379a0000000000000000000000000000000000000000000000000000000008152600401610601906120ad565b60405180910390fd5b816006819055506006549050919050565b60026000541415610661576040517f08c379a00000000000000000000000000000000000000000000000000000000081526004016106589061212d565b60405180910390fd5b6002600081905550600115156009600083815260200190815260200160002060040160149054906101000a900460ff161515146106d3576040517f08c379a00000000000000000000000000000000000000000000000000000000081526004016106ca9061210d565b60405180910390fd5b3373ffffffffffffffffffffffffffffffffffffffff166009600083815260200190815260200160002060030160009054906101000a900473ffffffffffffffffffffffffffffffffffffffff1673ffffffffffffffffffffffffffffffffffffffff1614610777576040517f08c379a000000000000000000000000000000000000000000000000000000000815260040161076e9061214d565b60405180910390fd5b60006009600083815260200190815260200160002060040160146101000a81548160ff021916908315150217905550600760009054906101000a900473ffffffffffffffffffffffffffffffffffffffff1673ffffffffffffffffffffffffffffffffffffffff1663f242432a3033600960008681526020019081526020016000206001015460016040518563ffffffff1660e01b815260040161081e9493929190611f9e565b600060405180830381600087803b15801561083857600080fd5b505af115801561084c573d6000803e3d6000fd5b5050505061085a60056117c8565b600160008190555050565b600860009054906101000a900473ffffffffffffffffffffffffffffffffffffffff1681565b3373ffffffffffffffffffffffffffffffffffffffff16600160009054906101000a900473ffffffffffffffffffffffffffffffffffffffff1673ffffffffffffffffffffffffffffffffffffffff161461091b576040517f08c379a0000000000000000000000000000000000000000000000000000000008152600401610912906120ad565b60405180910390fd5b80600860006101000a81548173ffffffffffffffffffffffffffffffffffffffff021916908373ffffffffffffffffffffffffffffffffffffffff16021790555050565b600260005414156109a5576040517f08c379a000000000000000000000000000000000000000000000000000000000815260040161099c9061212d565b60405180910390fd5b6002600081905550600081116109f0576040517f08c379a00000000000000000000000000000000000000000000000000000000081526004016109e7906120ed565b60405180910390fd5b6109fa60046117c8565b6040518060c00160405280610a0f60046117de565b81526020018381526020018281526020013373ffffffffffffffffffffffffffffffffffffffff168152602001600073ffffffffffffffffffffffffffffffffffffffff1681526020016001151581525060096000610a6e60046117de565b815260200190815260200160002060008201518160000155602082015181600101556040820151816002015560608201518160030160006101000a81548173ffffffffffffffffffffffffffffffffffffffff021916908373ffffffffffffffffffffffffffffffffffffffff16021790555060808201518160040160006101000a81548173ffffffffffffffffffffffffffffffffffffffff021916908373ffffffffffffffffffffffffffffffffffffffff16021790555060a08201518160040160146101000a81548160ff021916908315150217905550905050600760009054906101000a900473ffffffffffffffffffffffffffffffffffffffff1673ffffffffffffffffffffffffffffffffffffffff1663f242432a33308560016040518563ffffffff1660e01b8152600401610bad9493929190611f9e565b600060405180830381600087803b158015610bc757600080fd5b505af1158015610bdb573d6000803e3d6000fd5b5050505060016000819055505050565b60606000610bf960056117de565b610c0360046117de565b610c0d919061236f565b90506000808267ffffffffffffffff811115610c2c57610c2b612599565b5b604051908082528060200260200182016040528015610c6557816020015b610c526117ec565b815260200190600190039081610c4a5790505b50905060005b610c7560046117de565b811015610e29576001151560096000600184610c91919061228e565b815260200190815260200160002060040160149054906101000a900460ff1615151415610e1657600060096000600184610ccb919061228e565b81526020019081526020016000206000015490506000600960008381526020019081526020016000209050806040518060c00160405290816000820154815260200160018201548152602001600282015481526020016003820160009054906101000a900473ffffffffffffffffffffffffffffffffffffffff1673ffffffffffffffffffffffffffffffffffffffff1673ffffffffffffffffffffffffffffffffffffffff1681526020016004820160009054906101000a900473ffffffffffffffffffffffffffffffffffffffff1673ffffffffffffffffffffffffffffffffffffffff1673ffffffffffffffffffffffffffffffffffffffff1681526020016004820160149054906101000a900460ff161515151581525050848681518110610dfa57610df961256a565b5b60200260200101819052508480610e10906124c3565b95505050505b8080610e21906124c3565b915050610c6b565b5080935050505090565b6000803373ffffffffffffffffffffffffffffffffffffffff16600160009054906101000a900473ffffffffffffffffffffffffffffffffffffffff1673ffffffffffffffffffffffffffffffffffffffff1614610ec6576040517f08c379a0000000000000000000000000000000000000000000000000000000008152600401610ebd906120ad565b60405180910390fd5b610ed060046117de565b610eda60056117de565b915091509091565b6000600860009054906101000a900473ffffffffffffffffffffffffffffffffffffffff1673ffffffffffffffffffffffffffffffffffffffff166370a08231306040518263ffffffff1660e01b8152600401610f3f9190611f4c565b60206040518083038186803b158015610f5757600080fd5b505afa158015610f6b573d6000803e3d6000fd5b505050506040513d601f19601f82011682018060405250810190610f8f9190611c63565b905090565b3373ffffffffffffffffffffffffffffffffffffffff16600160009054906101000a900473ffffffffffffffffffffffffffffffffffffffff1673ffffffffffffffffffffffffffffffffffffffff1614611024576040517f08c379a000000000000000000000000000000000000000000000000000000000815260040161101b906120ad565b60405180910390fd5b600860009054906101000a900473ffffffffffffffffffffffffffffffffffffffff1673ffffffffffffffffffffffffffffffffffffffff1663a9059cbb33836040518363ffffffff1660e01b8152600401611081929190611ff6565b602060405180830381600087803b15801561109b57600080fd5b505af11580156110af573d6000803e3d6000fd5b505050506040513d601f19601f820116820180604052508101906110d39190611bdc565b5050565b6000600654905090565b60003373ffffffffffffffffffffffffffffffffffffffff16600160009054906101000a900473ffffffffffffffffffffffffffffffffffffffff1673ffffffffffffffffffffffffffffffffffffffff1614156111425760019050611147565b600090505b90565b600063bc197c8160e01b905095945050505050565b600030905090565b6000600360009054906101000a900473ffffffffffffffffffffffffffffffffffffffff16905090565b600760009054906101000a900473ffffffffffffffffffffffffffffffffffffffff1681565b3373ffffffffffffffffffffffffffffffffffffffff16600160009054906101000a900473ffffffffffffffffffffffffffffffffffffffff1673ffffffffffffffffffffffffffffffffffffffff1614611247576040517f08c379a000000000000000000000000000000000000000000000000000000000815260040161123e906120ad565b60405180910390fd5b8173ffffffffffffffffffffffffffffffffffffffff166108fc829081150290604051600060405180830381858888f1935050505015801561128d573d6000803e3d6000fd5b505050565b600063f23a6e6160e01b905095945050505050565b600260005414156112ed576040517f08c379a00000000000000000000000000000000000000000000000000000000081526004016112e49061212d565b60405180910390fd5b6002600081905550600115156009600083815260200190815260200160002060040160149054906101000a900460ff1615151461135f576040517f08c379a0000000000000000000000000000000000000000000000000000000008152600401611356906120cd565b60405180910390fd5b600061271080600654611372919061228e565b600960008581526020019081526020016000206002015461139391906122e4565b61139d9190612315565b905060008160096000858152602001908152602001600020600201546113c3919061236f565b9050336009600085815260200190815260200160002060040160006101000a81548173ffffffffffffffffffffffffffffffffffffffff021916908373ffffffffffffffffffffffffffffffffffffffff16021790555060006009600085815260200190815260200160002060040160146101000a81548160ff021916908315150217905550600860009054906101000a900473ffffffffffffffffffffffffffffffffffffffff1673ffffffffffffffffffffffffffffffffffffffff166323b872dd336009600087815260200190815260200160002060030160009054906101000a900473ffffffffffffffffffffffffffffffffffffffff16856040518463ffffffff1660e01b81526004016114de93929190611f67565b602060405180830381600087803b1580156114f857600080fd5b505af115801561150c573d6000803e3d6000fd5b505050506040513d601f19601f820116820180604052508101906115309190611bdc565b50600860009054906101000a900473ffffffffffffffffffffffffffffffffffffffff1673ffffffffffffffffffffffffffffffffffffffff166323b872dd33600360009054906101000a900473ffffffffffffffffffffffffffffffffffffffff16846040518463ffffffff1660e01b81526004016115b293929190611f67565b602060405180830381600087803b1580156115cc57600080fd5b505af11580156115e0573d6000803e3d6000fd5b505050506040513d601f19601f820116820180604052508101906116049190611bdc565b50600760009054906101000a900473ffffffffffffffffffffffffffffffffffffffff1673ffffffffffffffffffffffffffffffffffffffff1663f242432a3033600960008881526020019081526020016000206001015460016040518563ffffffff1660e01b815260040161167d9493929190611f9e565b600060405180830381600087803b15801561169757600080fd5b505af11580156116ab573d6000803e3d6000fd5b505050506116b960056117c8565b5050600160008190555050565b60003373ffffffffffffffffffffffffffffffffffffffff16600160009054906101000a900473ffffffffffffffffffffffffffffffffffffffff1673ffffffffffffffffffffffffffffffffffffffff1614611758576040517f08c379a000000000000000000000000000000000000000000000000000000000815260040161174f906120ad565b60405180910390fd5b47905090565b60007f01ffc9a7000000000000000000000000000000000000000000000000000000007bffffffffffffffffffffffffffffffffffffffffffffffffffffffff1916827bffffffffffffffffffffffffffffffffffffffffffffffffffffffff1916149050919050565b6001816000016000828254019250508190555050565b600081600001549050919050565b6040518060c00160405280600081526020016000815260200160008152602001600073ffffffffffffffffffffffffffffffffffffffff168152602001600073ffffffffffffffffffffffffffffffffffffffff1681526020016000151581525090565b600061186361185e846121d6565b6121b1565b90508083825260208201905082856020860282011115611886576118856125cd565b5b60005b858110156118b6578161189c88826119b2565b845260208401935060208301925050600181019050611889565b5050509392505050565b60006118d36118ce84612202565b6121b1565b9050828152602081018484840111156118ef576118ee6125d2565b5b6118fa848285612483565b509392505050565b600081359050611911816126eb565b92915050565b60008135905061192681612702565b92915050565b600082601f830112611941576119406125c8565b5b8135611951848260208601611850565b91505092915050565b60008151905061196981612719565b92915050565b60008135905061197e81612730565b92915050565b600082601f830112611999576119986125c8565b5b81356119a98482602086016118c0565b91505092915050565b6000813590506119c181612747565b92915050565b6000815190506119d681612747565b92915050565b6000602082840312156119f2576119f16125dc565b5b6000611a0084828501611902565b91505092915050565b600060208284031215611a1f57611a1e6125dc565b5b6000611a2d84828501611917565b91505092915050565b60008060408385031215611a4d57611a4c6125dc565b5b6000611a5b85828601611917565b9250506020611a6c858286016119b2565b9150509250929050565b600080600080600060a08688031215611a9257611a916125dc565b5b6000611aa088828901611902565b9550506020611ab188828901611902565b945050604086013567ffffffffffffffff811115611ad257611ad16125d7565b5b611ade8882890161192c565b935050606086013567ffffffffffffffff811115611aff57611afe6125d7565b5b611b0b8882890161192c565b925050608086013567ffffffffffffffff811115611b2c57611b2b6125d7565b5b611b3888828901611984565b9150509295509295909350565b600080600080600060a08688031215611b6157611b606125dc565b5b6000611b6f88828901611902565b9550506020611b8088828901611902565b9450506040611b91888289016119b2565b9350506060611ba2888289016119b2565b925050608086013567ffffffffffffffff811115611bc357611bc26125d7565b5b611bcf88828901611984565b9150509295509295909350565b600060208284031215611bf257611bf16125dc565b5b6000611c008482850161195a565b91505092915050565b600060208284031215611c1f57611c1e6125dc565b5b6000611c2d8482850161196f565b91505092915050565b600060208284031215611c4c57611c4b6125dc565b5b6000611c5a848285016119b2565b91505092915050565b600060208284031215611c7957611c786125dc565b5b6000611c87848285016119c7565b91505092915050565b60008060408385031215611ca757611ca66125dc565b5b6000611cb5858286016119b2565b9250506020611cc6858286016119b2565b9150509250929050565b6000611cdc8383611eb3565b60c08301905092915050565b611cf1816123a3565b82525050565b611d00816123a3565b82525050565b6000611d1182612243565b611d1b818561225b565b9350611d2683612233565b8060005b83811015611d57578151611d3e8882611cd0565b9750611d498361224e565b925050600181019050611d2a565b5085935050505092915050565b611d6d816123c7565b82525050565b611d7c816123c7565b82525050565b611d8b816123d3565b82525050565b611d9a81612429565b82525050565b611da98161244d565b82525050565b611db881612471565b82525050565b6000611dcb60028361227d565b9150611dd6826125f2565b602082019050919050565b6000611dee60028361227d565b9150611df98261261b565b602082019050919050565b6000611e1160008361226c565b9150611e1c82612644565b600082019050919050565b6000611e3460028361227d565b9150611e3f82612647565b602082019050919050565b6000611e5760028361227d565b9150611e6282612670565b602082019050919050565b6000611e7a601f8361227d565b9150611e8582612699565b602082019050919050565b6000611e9d60028361227d565b9150611ea8826126c2565b602082019050919050565b60c082016000820151611ec96000850182611f2e565b506020820151611edc6020850182611f2e565b506040820151611eef6040850182611f2e565b506060820151611f026060850182611ce8565b506080820151611f156080850182611ce8565b5060a0820151611f2860a0850182611d64565b50505050565b611f378161241f565b82525050565b611f468161241f565b82525050565b6000602082019050611f616000830184611cf7565b92915050565b6000606082019050611f7c6000830186611cf7565b611f896020830185611cf7565b611f966040830184611f3d565b949350505050565b600060a082019050611fb36000830187611cf7565b611fc06020830186611cf7565b611fcd6040830185611f3d565b611fda6060830184611daf565b8181036080830152611feb81611e04565b905095945050505050565b600060408201905061200b6000830185611cf7565b6120186020830184611f3d565b9392505050565b600060208201905081810360008301526120398184611d06565b905092915050565b60006020820190506120566000830184611d73565b92915050565b60006020820190506120716000830184611d82565b92915050565b600060208201905061208c6000830184611d91565b92915050565b60006020820190506120a76000830184611da0565b92915050565b600060208201905081810360008301526120c681611dbe565b9050919050565b600060208201905081810360008301526120e681611de1565b9050919050565b6000602082019050818103600083015261210681611e27565b9050919050565b6000602082019050818103600083015261212681611e4a565b9050919050565b6000602082019050818103600083015261214681611e6d565b9050919050565b6000602082019050818103600083015261216681611e90565b9050919050565b60006020820190506121826000830184611f3d565b92915050565b600060408201905061219d6000830185611f3d565b6121aa6020830184611f3d565b9392505050565b60006121bb6121cc565b90506121c78282612492565b919050565b6000604051905090565b600067ffffffffffffffff8211156121f1576121f0612599565b5b602082029050602081019050919050565b600067ffffffffffffffff82111561221d5761221c612599565b5b612226826125e1565b9050602081019050919050565b6000819050602082019050919050565b600081519050919050565b6000602082019050919050565b600082825260208201905092915050565b600082825260208201905092915050565b600082825260208201905092915050565b60006122998261241f565b91506122a48361241f565b9250827fffffffffffffffffffffffffffffffffffffffffffffffffffffffffffffffff038211156122d9576122d861250c565b5b828201905092915050565b60006122ef8261241f565b91506122fa8361241f565b92508261230a5761230961253b565b5b828204905092915050565b60006123208261241f565b915061232b8361241f565b9250817fffffffffffffffffffffffffffffffffffffffffffffffffffffffffffffffff04831182151516156123645761236361250c565b5b828202905092915050565b600061237a8261241f565b91506123858361241f565b9250828210156123985761239761250c565b5b828203905092915050565b60006123ae826123ff565b9050919050565b60006123c0826123ff565b9050919050565b60008115159050919050565b60007fffffffff0000000000000000000000000000000000000000000000000000000082169050919050565b600073ffffffffffffffffffffffffffffffffffffffff82169050919050565b6000819050919050565b60006124348261243b565b9050919050565b6000612446826123ff565b9050919050565b60006124588261245f565b9050919050565b600061246a826123ff565b9050919050565b600061247c8261241f565b9050919050565b82818337600083830152505050565b61249b826125e1565b810181811067ffffffffffffffff821117156124ba576124b9612599565b5b80604052505050565b60006124ce8261241f565b91507fffffffffffffffffffffffffffffffffffffffffffffffffffffffffffffffff8214156125015761250061250c565b5b600182019050919050565b7f4e487b7100000000000000000000000000000000000000000000000000000000600052601160045260246000fd5b7f4e487b7100000000000000000000000000000000000000000000000000000000600052601260045260246000fd5b7f4e487b7100000000000000000000000000000000000000000000000000000000600052603260045260246000fd5b7f4e487b7100000000000000000000000000000000000000000000000000000000600052604160045260246000fd5b600080fd5b600080fd5b600080fd5b600080fd5b600080fd5b6000601f19601f8301169050919050565b7f4131000000000000000000000000000000000000000000000000000000000000600082015250565b7f4d31000000000000000000000000000000000000000000000000000000000000600082015250565b50565b7f5a31000000000000000000000000000000000000000000000000000000000000600082015250565b7f4d21000000000000000000000000000000000000000000000000000000000000600082015250565b7f5265656e7472616e637947756172643a207265656e7472616e742063616c6c00600082015250565b7f4f31000000000000000000000000000000000000000000000000000000000000600082015250565b6126f4816123a3565b81146126ff57600080fd5b50565b61270b816123b5565b811461271657600080fd5b50565b612722816123c7565b811461272d57600080fd5b50565b612739816123d3565b811461274457600080fd5b50565b6127508161241f565b811461275b57600080fd5b5056fea264697066735822122039dea8c0403d302db36348db2df0cd90bfd6d3da417b01a3b4c3828fac35425b64736f6c63430008060033",
  "immutableReferences": {},
  "source": "// SPDX-License-Identifier: MIT\r\npragma solidity >=0.4.22 <0.9.0;\r\n\r\nimport \"../node_modules/@openzeppelin/contracts/security/ReentrancyGuard.sol\";\r\nimport \"../node_modules/@openzeppelin/contracts/token/ERC1155/IERC1155.sol\";\r\nimport \"../node_modules/@openzeppelin/contracts/token/ERC1155/utils/ERC1155Holder.sol\";\r\nimport \"../node_modules/@openzeppelin/contracts/token/ERC20/IERC20.sol\";\r\nimport \"../node_modules/@openzeppelin/contracts/utils/Counters.sol\";\r\n\r\ncontract PBProShopMarketplace is ERC1155Holder, ReentrancyGuard {\r\n    address admin;\r\n    address pbProShopFactoryAddress;\r\n    address feesAddress;\r\n    using Counters for Counters.Counter;\r\n    Counters.Counter private _itemIds;\r\n    Counters.Counter private _itemsComplete;\r\n    uint256 marketFeePercent = 400;\r\n    IERC1155 public proShopItems;\r\n    IERC20 public buddies;\r\n\r\nconstructor(address _buddiesCoinAddress, address _pbProShopFactoryAddress, address _feesAddress) {\r\n    admin = msg.sender;\r\n    buddies = IERC20(_buddiesCoinAddress);\r\n    proShopItems = IERC1155(_pbProShopFactoryAddress);\r\n    feesAddress = _feesAddress;\r\n}\r\n\r\nstruct ProShopMarketItem {\r\n    uint marketListingId;\r\n    uint tokenId;\r\n    uint sellingPrice;\r\n    address seller;\r\n    address buyer;\r\n    bool valid;\r\n}\r\n\r\nmapping(uint => ProShopMarketItem) private _proShopMarketItems;\r\n\r\n modifier onlyAdmin() {\r\n        require(admin == msg.sender, \"A1\" );\r\n        _;\r\n  }\r\n\r\nfunction isAdmin() public view returns (bool){\r\n        if(admin == msg.sender){\r\n            return true;\r\n        } else return false;\r\n  }\r\n\r\nfunction updateBuddiesCoinAddress(address _buddiesCoinAddress) onlyAdmin external {\r\n     buddies = IERC20(_buddiesCoinAddress);\r\n  }\r\n\r\nfunction getPBProShopMarketplaceAddress() public view returns (address){\r\n    return address(this);\r\n  }\r\n\r\nfunction getProshopMarketFeePercent() public view returns (uint) {\r\n    return marketFeePercent;\r\n  }\r\n\r\nfunction updateMarketFeePercent(uint value) onlyAdmin external returns (uint){\r\n    marketFeePercent = value;\r\n    return marketFeePercent;\r\n  }\r\n\r\nfunction getMarketFeePayableAddress() public view returns (address) {\r\n      return feesAddress;\r\n  }\r\n\r\nfunction getMarketplaceStats() external view onlyAdmin returns (uint, uint) {\r\n    return (_itemIds.current(), _itemsComplete.current());\r\n}\r\n\r\nfunction updateFeePayableAddress(address payable newaddress) onlyAdmin external returns (address) {\r\n    feesAddress = newaddress;\r\n    return feesAddress;\r\n  }\r\n\r\nfunction createProShopMarketItem(uint _tokenId, uint _sellingPrice) public nonReentrant {\r\n    require(_sellingPrice > 0, \"Z1\");\r\n    _itemIds.increment();\r\n    _proShopMarketItems[_itemIds.current()] = ProShopMarketItem(\r\n        _itemIds.current(),\r\n        _tokenId,\r\n        _sellingPrice,\r\n        msg.sender,\r\n        address(0),\r\n        true\r\n        );\r\n    proShopItems.safeTransferFrom(msg.sender, address(this), _tokenId, 1, \"\");\r\n\r\n}\r\n\r\nfunction createProShopMarketplaceSale(uint _marketTokenId) external nonReentrant {\r\n    require(_proShopMarketItems[_marketTokenId].valid == true, \"M1\");\r\n    uint buddiesPayout = ((_proShopMarketItems[_marketTokenId].sellingPrice/(marketFeePercent+10000))*10000);\r\n    uint feesPayout = _proShopMarketItems[_marketTokenId].sellingPrice - buddiesPayout;\r\n    _proShopMarketItems[_marketTokenId].buyer = msg.sender;\r\n    _proShopMarketItems[_marketTokenId].valid = false;\r\n    buddies.transferFrom(msg.sender, _proShopMarketItems[_marketTokenId].seller, buddiesPayout);\r\n    buddies.transferFrom(msg.sender, feesAddress, feesPayout);\r\n    proShopItems.safeTransferFrom(address(this), msg.sender,  _proShopMarketItems[_marketTokenId].tokenId, 1, \"\");\r\n    _itemsComplete.increment();\r\n}\r\n\r\nfunction cancelProShopMarketplaceSale(uint _marketTokenId) external nonReentrant {\r\n    require(_proShopMarketItems[_marketTokenId].valid == true, \"M!\");\r\n    require(_proShopMarketItems[_marketTokenId].seller == msg.sender, \"O1\");\r\n     _proShopMarketItems[_marketTokenId].valid = false;\r\n    proShopItems.safeTransferFrom(address(this), msg.sender,  _proShopMarketItems[_marketTokenId].tokenId, 1, \"\");\r\n    _itemsComplete.increment(); \r\n}\r\n\r\nfunction getProShopMarketItems() public view returns (ProShopMarketItem[] memory) {\r\n    uint unsoldItemCount = _itemIds.current() - _itemsComplete.current();\r\n    uint currentIndex = 0;\r\n\r\n    ProShopMarketItem[] memory items = new ProShopMarketItem[](unsoldItemCount);\r\n    for (uint i = 0; i < _itemIds.current(); i++) {\r\n        if (_proShopMarketItems[i + 1].valid == true) {\r\n            uint currentId = _proShopMarketItems[i + 1].marketListingId;\r\n            ProShopMarketItem storage currentItem = _proShopMarketItems[currentId];\r\n            items[currentIndex] = currentItem;\r\n            currentIndex++;\r\n    }\r\n}\r\nreturn items;\r\n}\r\n\r\n    function getBNBBalance() external view onlyAdmin returns (uint) {\r\n        return address(this).balance;\r\n    }\r\n    \r\n    function getBudsBalance() external view returns (uint) {\r\n        return buddies.balanceOf(address(this));\r\n    }\r\n\r\n    function transferBNB(address payable _to, uint _amount) external onlyAdmin {\r\n        _to.transfer(_amount);\r\n    }\r\n\r\n    function transferBUDS(uint _amount) external onlyAdmin {\r\n        buddies.transfer(msg.sender, _amount);\r\n    }\r\n\r\n}",
  "sourcePath": "O:\\Projects\\puck-buddies\\contracts\\PBProShopMarketplace.sol",
  "compiler": {
    "name": "solc",
    "version": "0.8.6+commit.11564f7e.Emscripten.clang"
  },
  "schemaVersion": "3.4.3",
  "updatedAt": "2022-01-07T21:58:19.951Z",
  "networkType": "ethereum",
  "devdoc": {
    "kind": "dev",
    "methods": {
      "supportsInterface(bytes4)": {
        "details": "See {IERC165-supportsInterface}."
      }
    },
    "version": 1
  },
  "userdoc": {
    "kind": "user",
    "methods": {},
    "version": 1
  }
}