{
  "contractName": "PBProShopFactory",
  "abi": [
    {
      "inputs": [
        {
          "internalType": "address",
          "name": "_buddiesCoinAddress",
          "type": "address"
        },
        {
          "internalType": "address",
          "name": "_puckbuddiesplayeraddress",
          "type": "address"
        }
      ],
      "stateMutability": "nonpayable",
      "type": "constructor"
    },
    {
      "anonymous": false,
      "inputs": [
        {
          "indexed": true,
          "internalType": "address",
          "name": "account",
          "type": "address"
        },
        {
          "indexed": true,
          "internalType": "address",
          "name": "operator",
          "type": "address"
        },
        {
          "indexed": false,
          "internalType": "bool",
          "name": "approved",
          "type": "bool"
        }
      ],
      "name": "ApprovalForAll",
      "type": "event"
    },
    {
      "anonymous": false,
      "inputs": [
        {
          "indexed": false,
          "internalType": "address",
          "name": "account",
          "type": "address"
        }
      ],
      "name": "Paused",
      "type": "event"
    },
    {
      "anonymous": false,
      "inputs": [
        {
          "indexed": true,
          "internalType": "bytes32",
          "name": "role",
          "type": "bytes32"
        },
        {
          "indexed": true,
          "internalType": "bytes32",
          "name": "previousAdminRole",
          "type": "bytes32"
        },
        {
          "indexed": true,
          "internalType": "bytes32",
          "name": "newAdminRole",
          "type": "bytes32"
        }
      ],
      "name": "RoleAdminChanged",
      "type": "event"
    },
    {
      "anonymous": false,
      "inputs": [
        {
          "indexed": true,
          "internalType": "bytes32",
          "name": "role",
          "type": "bytes32"
        },
        {
          "indexed": true,
          "internalType": "address",
          "name": "account",
          "type": "address"
        },
        {
          "indexed": true,
          "internalType": "address",
          "name": "sender",
          "type": "address"
        }
      ],
      "name": "RoleGranted",
      "type": "event"
    },
    {
      "anonymous": false,
      "inputs": [
        {
          "indexed": true,
          "internalType": "bytes32",
          "name": "role",
          "type": "bytes32"
        },
        {
          "indexed": true,
          "internalType": "address",
          "name": "account",
          "type": "address"
        },
        {
          "indexed": true,
          "internalType": "address",
          "name": "sender",
          "type": "address"
        }
      ],
      "name": "RoleRevoked",
      "type": "event"
    },
    {
      "anonymous": false,
      "inputs": [
        {
          "indexed": true,
          "internalType": "address",
          "name": "operator",
          "type": "address"
        },
        {
          "indexed": true,
          "internalType": "address",
          "name": "from",
          "type": "address"
        },
        {
          "indexed": true,
          "internalType": "address",
          "name": "to",
          "type": "address"
        },
        {
          "indexed": false,
          "internalType": "uint256[]",
          "name": "ids",
          "type": "uint256[]"
        },
        {
          "indexed": false,
          "internalType": "uint256[]",
          "name": "values",
          "type": "uint256[]"
        }
      ],
      "name": "TransferBatch",
      "type": "event"
    },
    {
      "anonymous": false,
      "inputs": [
        {
          "indexed": true,
          "internalType": "address",
          "name": "operator",
          "type": "address"
        },
        {
          "indexed": true,
          "internalType": "address",
          "name": "from",
          "type": "address"
        },
        {
          "indexed": true,
          "internalType": "address",
          "name": "to",
          "type": "address"
        },
        {
          "indexed": false,
          "internalType": "uint256",
          "name": "id",
          "type": "uint256"
        },
        {
          "indexed": false,
          "internalType": "uint256",
          "name": "value",
          "type": "uint256"
        }
      ],
      "name": "TransferSingle",
      "type": "event"
    },
    {
      "anonymous": false,
      "inputs": [
        {
          "indexed": false,
          "internalType": "string",
          "name": "value",
          "type": "string"
        },
        {
          "indexed": true,
          "internalType": "uint256",
          "name": "id",
          "type": "uint256"
        }
      ],
      "name": "URI",
      "type": "event"
    },
    {
      "anonymous": false,
      "inputs": [
        {
          "indexed": false,
          "internalType": "address",
          "name": "account",
          "type": "address"
        }
      ],
      "name": "Unpaused",
      "type": "event"
    },
    {
      "inputs": [],
      "name": "DEFAULT_ADMIN_ROLE",
      "outputs": [
        {
          "internalType": "bytes32",
          "name": "",
          "type": "bytes32"
        }
      ],
      "stateMutability": "view",
      "type": "function",
      "constant": true
    },
    {
      "inputs": [],
      "name": "MINTER_ROLE",
      "outputs": [
        {
          "internalType": "bytes32",
          "name": "",
          "type": "bytes32"
        }
      ],
      "stateMutability": "view",
      "type": "function",
      "constant": true
    },
    {
      "inputs": [],
      "name": "PAUSER_ROLE",
      "outputs": [
        {
          "internalType": "bytes32",
          "name": "",
          "type": "bytes32"
        }
      ],
      "stateMutability": "view",
      "type": "function",
      "constant": true
    },
    {
      "inputs": [],
      "name": "admin",
      "outputs": [
        {
          "internalType": "address",
          "name": "",
          "type": "address"
        }
      ],
      "stateMutability": "view",
      "type": "function",
      "constant": true
    },
    {
      "inputs": [
        {
          "internalType": "address",
          "name": "account",
          "type": "address"
        },
        {
          "internalType": "uint256",
          "name": "id",
          "type": "uint256"
        }
      ],
      "name": "balanceOf",
      "outputs": [
        {
          "internalType": "uint256",
          "name": "",
          "type": "uint256"
        }
      ],
      "stateMutability": "view",
      "type": "function",
      "constant": true
    },
    {
      "inputs": [
        {
          "internalType": "address[]",
          "name": "accounts",
          "type": "address[]"
        },
        {
          "internalType": "uint256[]",
          "name": "ids",
          "type": "uint256[]"
        }
      ],
      "name": "balanceOfBatch",
      "outputs": [
        {
          "internalType": "uint256[]",
          "name": "",
          "type": "uint256[]"
        }
      ],
      "stateMutability": "view",
      "type": "function",
      "constant": true
    },
    {
      "inputs": [],
      "name": "buddies",
      "outputs": [
        {
          "internalType": "contract IERC20",
          "name": "",
          "type": "address"
        }
      ],
      "stateMutability": "view",
      "type": "function",
      "constant": true
    },
    {
      "inputs": [
        {
          "internalType": "address",
          "name": "account",
          "type": "address"
        },
        {
          "internalType": "uint256",
          "name": "id",
          "type": "uint256"
        },
        {
          "internalType": "uint256",
          "name": "value",
          "type": "uint256"
        }
      ],
      "name": "burn",
      "outputs": [],
      "stateMutability": "nonpayable",
      "type": "function"
    },
    {
      "inputs": [
        {
          "internalType": "address",
          "name": "account",
          "type": "address"
        },
        {
          "internalType": "uint256[]",
          "name": "ids",
          "type": "uint256[]"
        },
        {
          "internalType": "uint256[]",
          "name": "values",
          "type": "uint256[]"
        }
      ],
      "name": "burnBatch",
      "outputs": [],
      "stateMutability": "nonpayable",
      "type": "function"
    },
    {
      "inputs": [
        {
          "internalType": "bytes32",
          "name": "role",
          "type": "bytes32"
        }
      ],
      "name": "getRoleAdmin",
      "outputs": [
        {
          "internalType": "bytes32",
          "name": "",
          "type": "bytes32"
        }
      ],
      "stateMutability": "view",
      "type": "function",
      "constant": true
    },
    {
      "inputs": [
        {
          "internalType": "bytes32",
          "name": "role",
          "type": "bytes32"
        },
        {
          "internalType": "uint256",
          "name": "index",
          "type": "uint256"
        }
      ],
      "name": "getRoleMember",
      "outputs": [
        {
          "internalType": "address",
          "name": "",
          "type": "address"
        }
      ],
      "stateMutability": "view",
      "type": "function",
      "constant": true
    },
    {
      "inputs": [
        {
          "internalType": "bytes32",
          "name": "role",
          "type": "bytes32"
        }
      ],
      "name": "getRoleMemberCount",
      "outputs": [
        {
          "internalType": "uint256",
          "name": "",
          "type": "uint256"
        }
      ],
      "stateMutability": "view",
      "type": "function",
      "constant": true
    },
    {
      "inputs": [
        {
          "internalType": "bytes32",
          "name": "role",
          "type": "bytes32"
        },
        {
          "internalType": "address",
          "name": "account",
          "type": "address"
        }
      ],
      "name": "grantRole",
      "outputs": [],
      "stateMutability": "nonpayable",
      "type": "function"
    },
    {
      "inputs": [
        {
          "internalType": "bytes32",
          "name": "role",
          "type": "bytes32"
        },
        {
          "internalType": "address",
          "name": "account",
          "type": "address"
        }
      ],
      "name": "hasRole",
      "outputs": [
        {
          "internalType": "bool",
          "name": "",
          "type": "bool"
        }
      ],
      "stateMutability": "view",
      "type": "function",
      "constant": true
    },
    {
      "inputs": [
        {
          "internalType": "address",
          "name": "account",
          "type": "address"
        },
        {
          "internalType": "address",
          "name": "operator",
          "type": "address"
        }
      ],
      "name": "isApprovedForAll",
      "outputs": [
        {
          "internalType": "bool",
          "name": "",
          "type": "bool"
        }
      ],
      "stateMutability": "view",
      "type": "function",
      "constant": true
    },
    {
      "inputs": [
        {
          "internalType": "address",
          "name": "to",
          "type": "address"
        },
        {
          "internalType": "uint256",
          "name": "id",
          "type": "uint256"
        },
        {
          "internalType": "uint256",
          "name": "amount",
          "type": "uint256"
        },
        {
          "internalType": "bytes",
          "name": "data",
          "type": "bytes"
        }
      ],
      "name": "mint",
      "outputs": [],
      "stateMutability": "nonpayable",
      "type": "function"
    },
    {
      "inputs": [
        {
          "internalType": "address",
          "name": "to",
          "type": "address"
        },
        {
          "internalType": "uint256[]",
          "name": "ids",
          "type": "uint256[]"
        },
        {
          "internalType": "uint256[]",
          "name": "amounts",
          "type": "uint256[]"
        },
        {
          "internalType": "bytes",
          "name": "data",
          "type": "bytes"
        }
      ],
      "name": "mintBatch",
      "outputs": [],
      "stateMutability": "nonpayable",
      "type": "function"
    },
    {
      "inputs": [],
      "name": "pause",
      "outputs": [],
      "stateMutability": "nonpayable",
      "type": "function"
    },
    {
      "inputs": [],
      "name": "paused",
      "outputs": [
        {
          "internalType": "bool",
          "name": "",
          "type": "bool"
        }
      ],
      "stateMutability": "view",
      "type": "function",
      "constant": true
    },
    {
      "inputs": [],
      "name": "pbPlayers",
      "outputs": [
        {
          "internalType": "contract PBPlayers",
          "name": "",
          "type": "address"
        }
      ],
      "stateMutability": "view",
      "type": "function",
      "constant": true
    },
    {
      "inputs": [],
      "name": "pbProShopHolder",
      "outputs": [
        {
          "internalType": "contract PBProShopHolder",
          "name": "",
          "type": "address"
        }
      ],
      "stateMutability": "view",
      "type": "function",
      "constant": true
    },
    {
      "inputs": [
        {
          "internalType": "bytes32",
          "name": "role",
          "type": "bytes32"
        },
        {
          "internalType": "address",
          "name": "account",
          "type": "address"
        }
      ],
      "name": "renounceRole",
      "outputs": [],
      "stateMutability": "nonpayable",
      "type": "function"
    },
    {
      "inputs": [
        {
          "internalType": "bytes32",
          "name": "role",
          "type": "bytes32"
        },
        {
          "internalType": "address",
          "name": "account",
          "type": "address"
        }
      ],
      "name": "revokeRole",
      "outputs": [],
      "stateMutability": "nonpayable",
      "type": "function"
    },
    {
      "inputs": [
        {
          "internalType": "address",
          "name": "from",
          "type": "address"
        },
        {
          "internalType": "address",
          "name": "to",
          "type": "address"
        },
        {
          "internalType": "uint256[]",
          "name": "ids",
          "type": "uint256[]"
        },
        {
          "internalType": "uint256[]",
          "name": "amounts",
          "type": "uint256[]"
        },
        {
          "internalType": "bytes",
          "name": "data",
          "type": "bytes"
        }
      ],
      "name": "safeBatchTransferFrom",
      "outputs": [],
      "stateMutability": "nonpayable",
      "type": "function"
    },
    {
      "inputs": [
        {
          "internalType": "address",
          "name": "from",
          "type": "address"
        },
        {
          "internalType": "address",
          "name": "to",
          "type": "address"
        },
        {
          "internalType": "uint256",
          "name": "id",
          "type": "uint256"
        },
        {
          "internalType": "uint256",
          "name": "amount",
          "type": "uint256"
        },
        {
          "internalType": "bytes",
          "name": "data",
          "type": "bytes"
        }
      ],
      "name": "safeTransferFrom",
      "outputs": [],
      "stateMutability": "nonpayable",
      "type": "function"
    },
    {
      "inputs": [
        {
          "internalType": "address",
          "name": "operator",
          "type": "address"
        },
        {
          "internalType": "bool",
          "name": "approved",
          "type": "bool"
        }
      ],
      "name": "setApprovalForAll",
      "outputs": [],
      "stateMutability": "nonpayable",
      "type": "function"
    },
    {
      "inputs": [],
      "name": "skuCount",
      "outputs": [
        {
          "internalType": "uint256",
          "name": "",
          "type": "uint256"
        }
      ],
      "stateMutability": "view",
      "type": "function",
      "constant": true
    },
    {
      "inputs": [
        {
          "internalType": "bytes4",
          "name": "interfaceId",
          "type": "bytes4"
        }
      ],
      "name": "supportsInterface",
      "outputs": [
        {
          "internalType": "bool",
          "name": "",
          "type": "bool"
        }
      ],
      "stateMutability": "view",
      "type": "function",
      "constant": true
    },
    {
      "inputs": [],
      "name": "unpause",
      "outputs": [],
      "stateMutability": "nonpayable",
      "type": "function"
    },
    {
      "inputs": [
        {
          "internalType": "uint256",
          "name": "",
          "type": "uint256"
        }
      ],
      "name": "uri",
      "outputs": [
        {
          "internalType": "string",
          "name": "",
          "type": "string"
        }
      ],
      "stateMutability": "view",
      "type": "function",
      "constant": true
    },
    {
      "inputs": [],
      "name": "isAdmin",
      "outputs": [
        {
          "internalType": "bool",
          "name": "",
          "type": "bool"
        }
      ],
      "stateMutability": "view",
      "type": "function",
      "constant": true
    },
    {
      "inputs": [],
      "name": "getProShopStats",
      "outputs": [
        {
          "internalType": "uint256",
          "name": "",
          "type": "uint256"
        }
      ],
      "stateMutability": "view",
      "type": "function",
      "constant": true
    },
    {
      "inputs": [
        {
          "internalType": "address",
          "name": "_buddiesCoinAddress",
          "type": "address"
        }
      ],
      "name": "updateBuddiesCoinAddress",
      "outputs": [],
      "stateMutability": "nonpayable",
      "type": "function"
    },
    {
      "inputs": [
        {
          "internalType": "address",
          "name": "_pbProshopHolderAddress",
          "type": "address"
        }
      ],
      "name": "updateProshopHolderAddress",
      "outputs": [],
      "stateMutability": "nonpayable",
      "type": "function"
    },
    {
      "inputs": [
        {
          "internalType": "address",
          "name": "_pbProshopMarketplaceAddress",
          "type": "address"
        }
      ],
      "name": "updateProshopMarketplaceAddress",
      "outputs": [],
      "stateMutability": "nonpayable",
      "type": "function"
    },
    {
      "inputs": [
        {
          "internalType": "address",
          "name": "_puckbuddiesplayeraddress",
          "type": "address"
        }
      ],
      "name": "updatePuckBuddiesPlayerAddress",
      "outputs": [],
      "stateMutability": "nonpayable",
      "type": "function"
    },
    {
      "inputs": [],
      "name": "getPBProShopFactoryAddress",
      "outputs": [
        {
          "internalType": "address",
          "name": "",
          "type": "address"
        }
      ],
      "stateMutability": "view",
      "type": "function",
      "constant": true
    },
    {
      "inputs": [
        {
          "internalType": "uint256",
          "name": "sku",
          "type": "uint256"
        },
        {
          "internalType": "uint256",
          "name": "qty",
          "type": "uint256"
        }
      ],
      "name": "newProduct",
      "outputs": [],
      "stateMutability": "nonpayable",
      "type": "function"
    },
    {
      "inputs": [
        {
          "internalType": "uint256[]",
          "name": "tokenId",
          "type": "uint256[]"
        },
        {
          "internalType": "uint256[]",
          "name": "qty",
          "type": "uint256[]"
        },
        {
          "internalType": "address",
          "name": "newOwner",
          "type": "address"
        }
      ],
      "name": "giftItem",
      "outputs": [],
      "stateMutability": "nonpayable",
      "type": "function"
    },
    {
      "inputs": [
        {
          "internalType": "uint256",
          "name": "token",
          "type": "uint256"
        },
        {
          "internalType": "uint256",
          "name": "qty",
          "type": "uint256"
        }
      ],
      "name": "burnItems",
      "outputs": [],
      "stateMutability": "nonpayable",
      "type": "function"
    },
    {
      "inputs": [
        {
          "internalType": "address",
          "name": "owner",
          "type": "address"
        },
        {
          "internalType": "uint256",
          "name": "token",
          "type": "uint256"
        }
      ],
      "name": "burnOnEquip",
      "outputs": [],
      "stateMutability": "nonpayable",
      "type": "function"
    },
    {
      "inputs": [
        {
          "internalType": "address",
          "name": "owner",
          "type": "address"
        },
        {
          "internalType": "uint256",
          "name": "token",
          "type": "uint256"
        }
      ],
      "name": "mintOnUnequip",
      "outputs": [],
      "stateMutability": "nonpayable",
      "type": "function"
    },
    {
      "inputs": [],
      "name": "getTimestamp",
      "outputs": [
        {
          "internalType": "uint256",
          "name": "",
          "type": "uint256"
        }
      ],
      "stateMutability": "view",
      "type": "function",
      "constant": true
    }
  ],
  "bytecode": "0x60806040523480156200001157600080fd5b50604051620060dd380380620060dd833981810160405281019062000037919062000570565b60405180602001604052806000815250806200005981620001f760201b60201c565b506000600560006101000a81548160ff021916908315150217905550620000996000801b6200008d6200021360201b60201c565b6200021b60201b60201c565b620000da7f9f2df0fed2c77648de5860a4cc508cd0818c85b8b8a1ab4ceeef8d981c8956a6620000ce6200021360201b60201c565b6200021b60201b60201c565b6200011b7f65d7a28e3265b37a6474929f336521b332c1681b933f6cb9f3376673440d862a6200010f6200021360201b60201c565b6200021b60201b60201c565b50600160068190555033600760006101000a81548173ffffffffffffffffffffffffffffffffffffffff021916908373ffffffffffffffffffffffffffffffffffffffff1602179055506000600c8190555081600e60006101000a81548173ffffffffffffffffffffffffffffffffffffffff021916908373ffffffffffffffffffffffffffffffffffffffff16021790555080600f60006101000a81548173ffffffffffffffffffffffffffffffffffffffff021916908373ffffffffffffffffffffffffffffffffffffffff16021790555050506200066f565b80600490805190602001906200020f929190620004a9565b5050565b600033905090565b6200023282826200026360201b62001b411760201c565b6200025e81600160008581526020019081526020016000206200027960201b62001b4f1790919060201c565b505050565b620002758282620002b160201b60201c565b5050565b6000620002a9836000018373ffffffffffffffffffffffffffffffffffffffff1660001b620003a260201b60201c565b905092915050565b620002c382826200041c60201b60201c565b6200039e57600160008084815260200190815260200160002060000160008373ffffffffffffffffffffffffffffffffffffffff1673ffffffffffffffffffffffffffffffffffffffff16815260200190815260200160002060006101000a81548160ff021916908315150217905550620003436200021360201b60201c565b73ffffffffffffffffffffffffffffffffffffffff168173ffffffffffffffffffffffffffffffffffffffff16837f2f8788117e7eff1d82e926ec794901d17c78024a50270940304540a733656f0d60405160405180910390a45b5050565b6000620003b683836200048660201b60201c565b6200041157826000018290806001815401808255809150506001900390600052602060002001600090919091909150558260000180549050836001016000848152602001908152602001600020819055506001905062000416565b600090505b92915050565b600080600084815260200190815260200160002060000160008373ffffffffffffffffffffffffffffffffffffffff1673ffffffffffffffffffffffffffffffffffffffff16815260200190815260200160002060009054906101000a900460ff16905092915050565b600080836001016000848152602001908152602001600020541415905092915050565b828054620004b790620005eb565b90600052602060002090601f016020900481019282620004db576000855562000527565b82601f10620004f657805160ff191683800117855562000527565b8280016001018555821562000527579182015b828111156200052657825182559160200191906001019062000509565b5b5090506200053691906200053a565b5090565b5b80821115620005555760008160009055506001016200053b565b5090565b6000815190506200056a8162000655565b92915050565b600080604083850312156200058a576200058962000650565b5b60006200059a8582860162000559565b9250506020620005ad8582860162000559565b9150509250929050565b6000620005c482620005cb565b9050919050565b600073ffffffffffffffffffffffffffffffffffffffff82169050919050565b600060028204905060018216806200060457607f821691505b602082108114156200061b576200061a62000621565b5b50919050565b7f4e487b7100000000000000000000000000000000000000000000000000000000600052602260045260246000fd5b600080fd5b6200066081620005b7565b81146200066c57600080fd5b50565b615a5e806200067f6000396000f3fe608060405234801561001057600080fd5b50600436106102685760003560e01c80636dd8553a11610151578063d5391393116100c3578063f242432a11610087578063f242432a14610721578063f367f20c1461073d578063f5298aca14610759578063f5f2e54b14610775578063f851a44014610791578063fab85302146107af57610268565b8063d53913931461067d578063d547741f1461069b578063e63ab1e9146106b7578063e9240984146106d5578063e985e9c5146106f157610268565b8063a217fddf11610115578063a217fddf146105bb578063a22cb465146105d9578063a55012bb146105f5578063a748de1b14610613578063b6db75a01461062f578063ca15c8731461064d57610268565b80636dd8553a14610517578063731133e9146105355780638456cb59146105515780639010d07c1461055b57806391d148541461058b57610268565b80633f4ba83a116101ea5780634f04e276116101ae5780634f04e2761461046b57806350421109146104875780635c975abb146104a35780635d632faf146104c157806363eaef5a146104dd5780636b20c454146104fb57610268565b80633f4ba83a146103d95780634391d2b1146103e35780634a594c12146103ff5780634a70f6171461041d5780634e1273f41461043b57610268565b806322702473116102315780632270247314610337578063248a9ca3146103555780632eb2c2d6146103855780632f2ff15d146103a157806336568abe146103bd57610268565b8062fdd58e1461026d57806301ffc9a71461029d5780630e89341c146102cd578063188ec356146102fd5780631f7fdffa1461031b575b600080fd5b61028760048036038101906102829190613fb5565b6107cb565b6040516102949190614cfe565b60405180910390f35b6102b760048036038101906102b29190614285565b610895565b6040516102c49190614995565b60405180910390f35b6102e760048036038101906102e291906142df565b6108a7565b6040516102f49190614a1c565b60405180910390f35b61030561093b565b6040516103129190614cfe565b60405180910390f35b61033560048036038101906103309190613eba565b610943565b005b61033f6109c5565b60405161034c9190614cfe565b60405180910390f35b61036f600480360381019061036a91906141d8565b6109cb565b60405161037c91906149b0565b60405180910390f35b61039f600480360381019061039a9190613cc9565b6109ea565b005b6103bb60048036038101906103b69190614205565b610a8b565b005b6103d760048036038101906103d29190614205565b610abf565b005b6103e1610af3565b005b6103fd60048036038101906103f89190613fb5565b610b6d565b005b610407610b8d565b60405161041491906149cb565b60405180910390f35b610425610bb3565b6040516104329190614a01565b60405180910390f35b610455600480360381019061045091906140cb565b610bd9565b604051610462919061493c565b60405180910390f35b61048560048036038101906104809190613c5c565b610cf2565b005b6104a1600480360381019061049c9190614143565b610e07565b005b6104ab610eac565b6040516104b89190614995565b60405180910390f35b6104db60048036038101906104d69190613c5c565b610ec3565b005b6104e5610f97565b6040516104f291906149e6565b60405180910390f35b61051560048036038101906105109190613e2f565b610fbd565b005b61051f61105a565b60405161052c9190614cfe565b60405180910390f35b61054f600480360381019061054a9190614048565b6110fb565b005b61055961117d565b005b61057560048036038101906105709190614245565b6111f7565b604051610582919061485f565b60405180910390f35b6105a560048036038101906105a09190614205565b611226565b6040516105b29190614995565b60405180910390f35b6105c3611290565b6040516105d091906149b0565b60405180910390f35b6105f360048036038101906105ee9190613f75565b611297565b005b6105fd611418565b60405161060a919061485f565b60405180910390f35b61062d6004803603810190610628919061430c565b611420565b005b6106376115c7565b6040516106449190614995565b60405180910390f35b610667600480360381019061066291906141d8565b611630565b6040516106749190614cfe565b60405180910390f35b610685611654565b60405161069291906149b0565b60405180910390f35b6106b560048036038101906106b09190614205565b611678565b005b6106bf6116ac565b6040516106cc91906149b0565b60405180910390f35b6106ef60048036038101906106ea919061430c565b6116d0565b005b61070b60048036038101906107069190613c89565b611791565b6040516107189190614995565b60405180910390f35b61073b60048036038101906107369190613d98565b611825565b005b61075760048036038101906107529190613fb5565b6118c6565b005b610773600480360381019061076e9190613ff5565b6118d6565b005b61078f600480360381019061078a9190613c5c565b611973565b005b610799611a47565b6040516107a6919061485f565b60405180910390f35b6107c960048036038101906107c49190613c5c565b611a6d565b005b60008073ffffffffffffffffffffffffffffffffffffffff168373ffffffffffffffffffffffffffffffffffffffff16141561083c576040517f08c379a000000000000000000000000000000000000000000000000000000000815260040161083390614abe565b60405180910390fd5b6002600083815260200190815260200160002060008473ffffffffffffffffffffffffffffffffffffffff1673ffffffffffffffffffffffffffffffffffffffff16815260200190815260200160002054905092915050565b60006108a082611b7f565b9050919050565b6060600480546108b6906150a6565b80601f01602080910402602001604051908101604052809291908181526020018280546108e2906150a6565b801561092f5780601f106109045761010080835404028352916020019161092f565b820191906000526020600020905b81548152906001019060200180831161091257829003601f168201915b50505050509050919050565b600042905090565b6109747f9f2df0fed2c77648de5860a4cc508cd0818c85b8b8a1ab4ceeef8d981c8956a661096f611c61565b611226565b6109b3576040517f08c379a00000000000000000000000000000000000000000000000000000000081526004016109aa90614bbe565b60405180910390fd5b6109bf84848484611c69565b50505050565b600c5481565b6000806000838152602001908152602001600020600101549050919050565b6109f2611c61565b73ffffffffffffffffffffffffffffffffffffffff168573ffffffffffffffffffffffffffffffffffffffff161480610a385750610a3785610a32611c61565b611791565b5b610a77576040517f08c379a0000000000000000000000000000000000000000000000000000000008152600401610a6e90614b7e565b60405180910390fd5b610a848585858585611e88565b5050505050565b610a95828261219f565b610aba8160016000858152602001908152602001600020611b4f90919063ffffffff16565b505050565b610ac982826121c8565b610aee816001600085815260200190815260200160002061224b90919063ffffffff16565b505050565b610b247f65d7a28e3265b37a6474929f336521b332c1681b933f6cb9f3376673440d862a610b1f611c61565b611226565b610b63576040517f08c379a0000000000000000000000000000000000000000000000000000000008152600401610b5a90614bfe565b60405180910390fd5b610b6b61227b565b565b610b89828260016040518060200160405280600081525061231d565b5050565b600e60009054906101000a900473ffffffffffffffffffffffffffffffffffffffff1681565b601060009054906101000a900473ffffffffffffffffffffffffffffffffffffffff1681565b60608151835114610c1f576040517f08c379a0000000000000000000000000000000000000000000000000000000008152600401610c1690614c7e565b60405180910390fd5b6000835167ffffffffffffffff811115610c3c57610c3b61520e565b5b604051908082528060200260200182016040528015610c6a5781602001602082028036833780820191505090505b50905060005b8451811015610ce757610cb7858281518110610c8f57610c8e6151df565b5b6020026020010151858381518110610caa57610ca96151df565b5b60200260200101516107cb565b828281518110610cca57610cc96151df565b5b60200260200101818152505080610ce090615109565b9050610c70565b508091505092915050565b600760009054906101000a900473ffffffffffffffffffffffffffffffffffffffff1673ffffffffffffffffffffffffffffffffffffffff163373ffffffffffffffffffffffffffffffffffffffff1614610d82576040517f08c379a0000000000000000000000000000000000000000000000000000000008152600401610d7990614c3e565b60405180910390fd5b80601060006101000a81548173ffffffffffffffffffffffffffffffffffffffff021916908373ffffffffffffffffffffffffffffffffffffffff16021790555080600a60006101000a81548173ffffffffffffffffffffffffffffffffffffffff021916908373ffffffffffffffffffffffffffffffffffffffff16021790555050565b610ea53382878780806020026020016040519081016040528093929190818152602001838360200280828437600081840152601f19601f82011690508083019250505050505050868680806020026020016040519081016040528093929190818152602001838360200280828437600081840152601f19601f82011690508083019250505050505050604051806020016040528060008152506109ea565b5050505050565b6000600560009054906101000a900460ff16905090565b600760009054906101000a900473ffffffffffffffffffffffffffffffffffffffff1673ffffffffffffffffffffffffffffffffffffffff163373ffffffffffffffffffffffffffffffffffffffff1614610f53576040517f08c379a0000000000000000000000000000000000000000000000000000000008152600401610f4a90614c3e565b60405180910390fd5b80600e60006101000a81548173ffffffffffffffffffffffffffffffffffffffff021916908373ffffffffffffffffffffffffffffffffffffffff16021790555050565b600f60009054906101000a900473ffffffffffffffffffffffffffffffffffffffff1681565b610fc5611c61565b73ffffffffffffffffffffffffffffffffffffffff168373ffffffffffffffffffffffffffffffffffffffff16148061100b575061100a83611005611c61565b611791565b5b61104a576040517f08c379a000000000000000000000000000000000000000000000000000000000815260040161104190614b1e565b60405180910390fd5b6110558383836124b4565b505050565b6000600760009054906101000a900473ffffffffffffffffffffffffffffffffffffffff1673ffffffffffffffffffffffffffffffffffffffff163373ffffffffffffffffffffffffffffffffffffffff16146110ec576040517f08c379a00000000000000000000000000000000000000000000000000000000081526004016110e390614c3e565b60405180910390fd5b6110f6600d612767565b905090565b61112c7f9f2df0fed2c77648de5860a4cc508cd0818c85b8b8a1ab4ceeef8d981c8956a6611127611c61565b611226565b61116b576040517f08c379a000000000000000000000000000000000000000000000000000000000815260040161116290614bbe565b60405180910390fd5b6111778484848461231d565b50505050565b6111ae7f65d7a28e3265b37a6474929f336521b332c1681b933f6cb9f3376673440d862a6111a9611c61565b611226565b6111ed576040517f08c379a00000000000000000000000000000000000000000000000000000000081526004016111e490614c1e565b60405180910390fd5b6111f5612775565b565b600061121e826001600086815260200190815260200160002061281890919063ffffffff16565b905092915050565b600080600084815260200190815260200160002060000160008373ffffffffffffffffffffffffffffffffffffffff1673ffffffffffffffffffffffffffffffffffffffff16815260200190815260200160002060009054906101000a900460ff16905092915050565b6000801b81565b8173ffffffffffffffffffffffffffffffffffffffff166112b6611c61565b73ffffffffffffffffffffffffffffffffffffffff16141561130d576040517f08c379a000000000000000000000000000000000000000000000000000000000815260040161130490614c5e565b60405180910390fd5b806003600061131a611c61565b73ffffffffffffffffffffffffffffffffffffffff1673ffffffffffffffffffffffffffffffffffffffff16815260200190815260200160002060008473ffffffffffffffffffffffffffffffffffffffff1673ffffffffffffffffffffffffffffffffffffffff16815260200190815260200160002060006101000a81548160ff0219169083151502179055508173ffffffffffffffffffffffffffffffffffffffff166113c7611c61565b73ffffffffffffffffffffffffffffffffffffffff167f17307eab39ab6107e8899845ad3d59bd9653f200f220920489ca2b5937696c318360405161140c9190614995565b60405180910390a35050565b600030905090565b600760009054906101000a900473ffffffffffffffffffffffffffffffffffffffff1673ffffffffffffffffffffffffffffffffffffffff163373ffffffffffffffffffffffffffffffffffffffff16146114b0576040517f08c379a00000000000000000000000000000000000000000000000000000000081526004016114a790614c3e565b60405180910390fd5b600c60008154809291906114c390615109565b9190505550611505600a60009054906101000a900473ffffffffffffffffffffffffffffffffffffffff1683836040518060200160405280600081525061231d565b611532600860009054906101000a900473ffffffffffffffffffffffffffffffffffffffff166001611297565b61155f600a60009054906101000a900473ffffffffffffffffffffffffffffffffffffffff166001611297565b61158c600b60009054906101000a900473ffffffffffffffffffffffffffffffffffffffff166001611297565b6115b9600960009054906101000a900473ffffffffffffffffffffffffffffffffffffffff166001611297565b6115c3600d612832565b5050565b60003373ffffffffffffffffffffffffffffffffffffffff16600760009054906101000a900473ffffffffffffffffffffffffffffffffffffffff1673ffffffffffffffffffffffffffffffffffffffff161415611628576001905061162d565b600090505b90565b600061164d60016000848152602001908152602001600020612848565b9050919050565b7f9f2df0fed2c77648de5860a4cc508cd0818c85b8b8a1ab4ceeef8d981c8956a681565b611682828261285d565b6116a7816001600085815260200190815260200160002061224b90919063ffffffff16565b505050565b7f65d7a28e3265b37a6474929f336521b332c1681b933f6cb9f3376673440d862a81565b600760009054906101000a900473ffffffffffffffffffffffffffffffffffffffff1673ffffffffffffffffffffffffffffffffffffffff163373ffffffffffffffffffffffffffffffffffffffff1614611760576040517f08c379a000000000000000000000000000000000000000000000000000000000815260040161175790614c3e565b60405180910390fd5b61178d600a60009054906101000a900473ffffffffffffffffffffffffffffffffffffffff168383612886565b5050565b6000600360008473ffffffffffffffffffffffffffffffffffffffff1673ffffffffffffffffffffffffffffffffffffffff16815260200190815260200160002060008373ffffffffffffffffffffffffffffffffffffffff1673ffffffffffffffffffffffffffffffffffffffff16815260200190815260200160002060009054906101000a900460ff16905092915050565b61182d611c61565b73ffffffffffffffffffffffffffffffffffffffff168573ffffffffffffffffffffffffffffffffffffffff16148061187357506118728561186d611c61565b611791565b5b6118b2576040517f08c379a00000000000000000000000000000000000000000000000000000000081526004016118a990614b1e565b60405180910390fd5b6118bf8585858585612aa5565b5050505050565b6118d282826001612886565b5050565b6118de611c61565b73ffffffffffffffffffffffffffffffffffffffff168373ffffffffffffffffffffffffffffffffffffffff16148061192457506119238361191e611c61565b611791565b5b611963576040517f08c379a000000000000000000000000000000000000000000000000000000000815260040161195a90614b1e565b60405180910390fd5b61196e838383612886565b505050565b600760009054906101000a900473ffffffffffffffffffffffffffffffffffffffff1673ffffffffffffffffffffffffffffffffffffffff163373ffffffffffffffffffffffffffffffffffffffff1614611a03576040517f08c379a00000000000000000000000000000000000000000000000000000000081526004016119fa90614c3e565b60405180910390fd5b80600b60006101000a81548173ffffffffffffffffffffffffffffffffffffffff021916908373ffffffffffffffffffffffffffffffffffffffff16021790555050565b600760009054906101000a900473ffffffffffffffffffffffffffffffffffffffff1681565b600760009054906101000a900473ffffffffffffffffffffffffffffffffffffffff1673ffffffffffffffffffffffffffffffffffffffff163373ffffffffffffffffffffffffffffffffffffffff1614611afd576040517f08c379a0000000000000000000000000000000000000000000000000000000008152600401611af490614c3e565b60405180910390fd5b80600f60006101000a81548173ffffffffffffffffffffffffffffffffffffffff021916908373ffffffffffffffffffffffffffffffffffffffff16021790555050565b611b4b8282612d2a565b5050565b6000611b77836000018373ffffffffffffffffffffffffffffffffffffffff1660001b612e0a565b905092915050565b60007fd9b67a26000000000000000000000000000000000000000000000000000000007bffffffffffffffffffffffffffffffffffffffffffffffffffffffff1916827bffffffffffffffffffffffffffffffffffffffffffffffffffffffff19161480611c4a57507f0e89341c000000000000000000000000000000000000000000000000000000007bffffffffffffffffffffffffffffffffffffffffffffffffffffffff1916827bffffffffffffffffffffffffffffffffffffffffffffffffffffffff1916145b80611c5a5750611c5982612e7a565b5b9050919050565b600033905090565b600073ffffffffffffffffffffffffffffffffffffffff168473ffffffffffffffffffffffffffffffffffffffff161415611cd9576040517f08c379a0000000000000000000000000000000000000000000000000000000008152600401611cd090614cbe565b60405180910390fd5b8151835114611d1d576040517f08c379a0000000000000000000000000000000000000000000000000000000008152600401611d1490614c9e565b60405180910390fd5b6000611d27611c61565b9050611d3881600087878787612ef4565b60005b8451811015611df257838181518110611d5757611d566151df565b5b602002602001015160026000878481518110611d7657611d756151df565b5b6020026020010151815260200190815260200160002060008873ffffffffffffffffffffffffffffffffffffffff1673ffffffffffffffffffffffffffffffffffffffff1681526020019081526020016000206000828254611dd89190614e6c565b925050819055508080611dea90615109565b915050611d3b565b508473ffffffffffffffffffffffffffffffffffffffff16600073ffffffffffffffffffffffffffffffffffffffff168273ffffffffffffffffffffffffffffffffffffffff167f4a39dc06d4c0dbc64b70af90fd698a233a518aa5d07e595d983b8c0526c8f7fb8787604051611e6a92919061495e565b60405180910390a4611e8181600087878787612f0a565b5050505050565b8151835114611ecc576040517f08c379a0000000000000000000000000000000000000000000000000000000008152600401611ec390614c9e565b60405180910390fd5b600073ffffffffffffffffffffffffffffffffffffffff168473ffffffffffffffffffffffffffffffffffffffff161415611f3c576040517f08c379a0000000000000000000000000000000000000000000000000000000008152600401611f3390614b5e565b60405180910390fd5b6000611f46611c61565b9050611f56818787878787612ef4565b60005b845181101561210a576000858281518110611f7757611f766151df565b5b602002602001015190506000858381518110611f9657611f956151df565b5b6020026020010151905060006002600084815260200190815260200160002060008b73ffffffffffffffffffffffffffffffffffffffff1673ffffffffffffffffffffffffffffffffffffffff16815260200190815260200160002054905081811015612038576040517f08c379a000000000000000000000000000000000000000000000000000000000815260040161202f90614bde565b60405180910390fd5b8181036002600085815260200190815260200160002060008c73ffffffffffffffffffffffffffffffffffffffff1673ffffffffffffffffffffffffffffffffffffffff16815260200190815260200160002081905550816002600085815260200190815260200160002060008b73ffffffffffffffffffffffffffffffffffffffff1673ffffffffffffffffffffffffffffffffffffffff16815260200190815260200160002060008282546120ef9190614e6c565b925050819055505050508061210390615109565b9050611f59565b508473ffffffffffffffffffffffffffffffffffffffff168673ffffffffffffffffffffffffffffffffffffffff168273ffffffffffffffffffffffffffffffffffffffff167f4a39dc06d4c0dbc64b70af90fd698a233a518aa5d07e595d983b8c0526c8f7fb878760405161218192919061495e565b60405180910390a4612197818787878787612f0a565b505050505050565b6121a8826109cb565b6121b9816121b4611c61565b6130f1565b6121c38383612d2a565b505050565b6121d0611c61565b73ffffffffffffffffffffffffffffffffffffffff168173ffffffffffffffffffffffffffffffffffffffff161461223d576040517f08c379a000000000000000000000000000000000000000000000000000000000815260040161223490614cde565b60405180910390fd5b612247828261318e565b5050565b6000612273836000018373ffffffffffffffffffffffffffffffffffffffff1660001b61326f565b905092915050565b612283610eac565b6122c2576040517f08c379a00000000000000000000000000000000000000000000000000000000081526004016122b990614a9e565b60405180910390fd5b6000600560006101000a81548160ff0219169083151502179055507f5db9ee0a495bf2e6ff9c91a7834c1ba4fdd244a5e8aa4e537bd38aeae4b073aa612306611c61565b604051612313919061485f565b60405180910390a1565b600073ffffffffffffffffffffffffffffffffffffffff168473ffffffffffffffffffffffffffffffffffffffff16141561238d576040517f08c379a000000000000000000000000000000000000000000000000000000000815260040161238490614cbe565b60405180910390fd5b6000612397611c61565b90506123b8816000876123a988613383565b6123b288613383565b87612ef4565b826002600086815260200190815260200160002060008773ffffffffffffffffffffffffffffffffffffffff1673ffffffffffffffffffffffffffffffffffffffff16815260200190815260200160002060008282546124189190614e6c565b925050819055508473ffffffffffffffffffffffffffffffffffffffff16600073ffffffffffffffffffffffffffffffffffffffff168273ffffffffffffffffffffffffffffffffffffffff167fc3d58168c5ae7397731d063d5bbf3d657854427343f4c083240f7aacaa2d0f628787604051612496929190614d19565b60405180910390a46124ad816000878787876133fd565b5050505050565b600073ffffffffffffffffffffffffffffffffffffffff168373ffffffffffffffffffffffffffffffffffffffff161415612524576040517f08c379a000000000000000000000000000000000000000000000000000000000815260040161251b90614b9e565b60405180910390fd5b8051825114612568576040517f08c379a000000000000000000000000000000000000000000000000000000000815260040161255f90614c9e565b60405180910390fd5b6000612572611c61565b905061259281856000868660405180602001604052806000815250612ef4565b60005b83518110156126e15760008482815181106125b3576125b26151df565b5b6020026020010151905060008483815181106125d2576125d16151df565b5b6020026020010151905060006002600084815260200190815260200160002060008973ffffffffffffffffffffffffffffffffffffffff1673ffffffffffffffffffffffffffffffffffffffff16815260200190815260200160002054905081811015612674576040517f08c379a000000000000000000000000000000000000000000000000000000000815260040161266b90614ade565b60405180910390fd5b8181036002600085815260200190815260200160002060008a73ffffffffffffffffffffffffffffffffffffffff1673ffffffffffffffffffffffffffffffffffffffff1681526020019081526020016000208190555050505080806126d990615109565b915050612595565b50600073ffffffffffffffffffffffffffffffffffffffff168473ffffffffffffffffffffffffffffffffffffffff168273ffffffffffffffffffffffffffffffffffffffff167f4a39dc06d4c0dbc64b70af90fd698a233a518aa5d07e595d983b8c0526c8f7fb868660405161275992919061495e565b60405180910390a450505050565b600081600001549050919050565b61277d610eac565b156127bd576040517f08c379a00000000000000000000000000000000000000000000000000000000081526004016127b490614b3e565b60405180910390fd5b6001600560006101000a81548160ff0219169083151502179055507f62e78cea01bee320cd4e420270b5ea74000d11b0c9f74754ebdbfc544b05a258612801611c61565b60405161280e919061485f565b60405180910390a1565b600061282783600001836135e4565b60001c905092915050565b6001816000016000828254019250508190555050565b60006128568260000161360f565b9050919050565b612866826109cb565b61287781612872611c61565b6130f1565b612881838361318e565b505050565b600073ffffffffffffffffffffffffffffffffffffffff168373ffffffffffffffffffffffffffffffffffffffff1614156128f6576040517f08c379a00000000000000000000000000000000000000000000000000000000081526004016128ed90614b9e565b60405180910390fd5b6000612900611c61565b90506129308185600061291287613383565b61291b87613383565b60405180602001604052806000815250612ef4565b60006002600085815260200190815260200160002060008673ffffffffffffffffffffffffffffffffffffffff1673ffffffffffffffffffffffffffffffffffffffff168152602001908152602001600020549050828110156129c8576040517f08c379a00000000000000000000000000000000000000000000000000000000081526004016129bf90614ade565b60405180910390fd5b8281036002600086815260200190815260200160002060008773ffffffffffffffffffffffffffffffffffffffff1673ffffffffffffffffffffffffffffffffffffffff16815260200190815260200160002081905550600073ffffffffffffffffffffffffffffffffffffffff168573ffffffffffffffffffffffffffffffffffffffff168373ffffffffffffffffffffffffffffffffffffffff167fc3d58168c5ae7397731d063d5bbf3d657854427343f4c083240f7aacaa2d0f628787604051612a96929190614d19565b60405180910390a45050505050565b600073ffffffffffffffffffffffffffffffffffffffff168473ffffffffffffffffffffffffffffffffffffffff161415612b15576040517f08c379a0000000000000000000000000000000000000000000000000000000008152600401612b0c90614b5e565b60405180910390fd5b6000612b1f611c61565b9050612b3f818787612b3088613383565b612b3988613383565b87612ef4565b60006002600086815260200190815260200160002060008873ffffffffffffffffffffffffffffffffffffffff1673ffffffffffffffffffffffffffffffffffffffff16815260200190815260200160002054905083811015612bd7576040517f08c379a0000000000000000000000000000000000000000000000000000000008152600401612bce90614bde565b60405180910390fd5b8381036002600087815260200190815260200160002060008973ffffffffffffffffffffffffffffffffffffffff1673ffffffffffffffffffffffffffffffffffffffff16815260200190815260200160002081905550836002600087815260200190815260200160002060008873ffffffffffffffffffffffffffffffffffffffff1673ffffffffffffffffffffffffffffffffffffffff1681526020019081526020016000206000828254612c8e9190614e6c565b925050819055508573ffffffffffffffffffffffffffffffffffffffff168773ffffffffffffffffffffffffffffffffffffffff168373ffffffffffffffffffffffffffffffffffffffff167fc3d58168c5ae7397731d063d5bbf3d657854427343f4c083240f7aacaa2d0f628888604051612d0b929190614d19565b60405180910390a4612d218288888888886133fd565b50505050505050565b612d348282611226565b612e0657600160008084815260200190815260200160002060000160008373ffffffffffffffffffffffffffffffffffffffff1673ffffffffffffffffffffffffffffffffffffffff16815260200190815260200160002060006101000a81548160ff021916908315150217905550612dab611c61565b73ffffffffffffffffffffffffffffffffffffffff168173ffffffffffffffffffffffffffffffffffffffff16837f2f8788117e7eff1d82e926ec794901d17c78024a50270940304540a733656f0d60405160405180910390a45b5050565b6000612e168383613620565b612e6f578260000182908060018154018082558091505060019003906000526020600020016000909190919091505582600001805490508360010160008481526020019081526020016000208190555060019050612e74565b600090505b92915050565b60007f5a05180f000000000000000000000000000000000000000000000000000000007bffffffffffffffffffffffffffffffffffffffffffffffffffffffff1916827bffffffffffffffffffffffffffffffffffffffffffffffffffffffff19161480612eed5750612eec82613643565b5b9050919050565b612f028686868686866136bd565b505050505050565b612f298473ffffffffffffffffffffffffffffffffffffffff1661371b565b156130e9578373ffffffffffffffffffffffffffffffffffffffff1663bc197c8187878686866040518663ffffffff1660e01b8152600401612f6f95949392919061487a565b602060405180830381600087803b158015612f8957600080fd5b505af1925050508015612fba57506040513d601f19601f82011682018060405250810190612fb791906142b2565b60015b61306057612fc661523d565b806308c379a014156130235750612fdb61591f565b80612fe65750613025565b806040517f08c379a000000000000000000000000000000000000000000000000000000000815260040161301a9190614a1c565b60405180910390fd5b505b6040517f08c379a000000000000000000000000000000000000000000000000000000000815260040161305790614a3e565b60405180910390fd5b63bc197c8160e01b7bffffffffffffffffffffffffffffffffffffffffffffffffffffffff1916817bffffffffffffffffffffffffffffffffffffffffffffffffffffffff1916146130e7576040517f08c379a00000000000000000000000000000000000000000000000000000000081526004016130de90614a7e565b60405180910390fd5b505b505050505050565b6130fb8282611226565b61318a576131208173ffffffffffffffffffffffffffffffffffffffff16601461372e565b61312e8360001c602061372e565b60405160200161313f929190614825565b6040516020818303038152906040526040517f08c379a00000000000000000000000000000000000000000000000000000000081526004016131819190614a1c565b60405180910390fd5b5050565b6131988282611226565b1561326b57600080600084815260200190815260200160002060000160008373ffffffffffffffffffffffffffffffffffffffff1673ffffffffffffffffffffffffffffffffffffffff16815260200190815260200160002060006101000a81548160ff021916908315150217905550613210611c61565b73ffffffffffffffffffffffffffffffffffffffff168173ffffffffffffffffffffffffffffffffffffffff16837ff6391f5c32d9c69d2a47ea670b442974b53935d1edc7fd64eb21e047a839171b60405160405180910390a45b5050565b600080836001016000848152602001908152602001600020549050600081146133775760006001826132a19190614f1c565b90506000600186600001805490506132b99190614f1c565b90508181146133285760008660000182815481106132da576132d96151df565b5b90600052602060002001549050808760000184815481106132fe576132fd6151df565b5b90600052602060002001819055508387600101600083815260200190815260200160002081905550505b8560000180548061333c5761333b6151b0565b5b60019003818190600052602060002001600090559055856001016000868152602001908152602001600020600090556001935050505061337d565b60009150505b92915050565b60606000600167ffffffffffffffff8111156133a2576133a161520e565b5b6040519080825280602002602001820160405280156133d05781602001602082028036833780820191505090505b50905082816000815181106133e8576133e76151df565b5b60200260200101818152505080915050919050565b61341c8473ffffffffffffffffffffffffffffffffffffffff1661371b565b156135dc578373ffffffffffffffffffffffffffffffffffffffff1663f23a6e6187878686866040518663ffffffff1660e01b81526004016134629594939291906148e2565b602060405180830381600087803b15801561347c57600080fd5b505af19250505080156134ad57506040513d601f19601f820116820180604052508101906134aa91906142b2565b60015b613553576134b961523d565b806308c379a0141561351657506134ce61591f565b806134d95750613518565b806040517f08c379a000000000000000000000000000000000000000000000000000000000815260040161350d9190614a1c565b60405180910390fd5b505b6040517f08c379a000000000000000000000000000000000000000000000000000000000815260040161354a90614a3e565b60405180910390fd5b63f23a6e6160e01b7bffffffffffffffffffffffffffffffffffffffffffffffffffffffff1916817bffffffffffffffffffffffffffffffffffffffffffffffffffffffff1916146135da576040517f08c379a00000000000000000000000000000000000000000000000000000000081526004016135d190614a7e565b60405180910390fd5b505b505050505050565b60008260000182815481106135fc576135fb6151df565b5b9060005260206000200154905092915050565b600081600001805490509050919050565b600080836001016000848152602001908152602001600020541415905092915050565b60007f7965db0b000000000000000000000000000000000000000000000000000000007bffffffffffffffffffffffffffffffffffffffffffffffffffffffff1916827bffffffffffffffffffffffffffffffffffffffffffffffffffffffff191614806136b657506136b58261396a565b5b9050919050565b6136cb8686868686866139d4565b6136d3610eac565b15613713576040517f08c379a000000000000000000000000000000000000000000000000000000000815260040161370a90614afe565b60405180910390fd5b505050505050565b600080823b905060008111915050919050565b6060600060028360026137419190614ec2565b61374b9190614e6c565b67ffffffffffffffff8111156137645761376361520e565b5b6040519080825280601f01601f1916602001820160405280156137965781602001600182028036833780820191505090505b5090507f3000000000000000000000000000000000000000000000000000000000000000816000815181106137ce576137cd6151df565b5b60200101907effffffffffffffffffffffffffffffffffffffffffffffffffffffffffffff1916908160001a9053507f780000000000000000000000000000000000000000000000000000000000000081600181518110613832576138316151df565b5b60200101907effffffffffffffffffffffffffffffffffffffffffffffffffffffffffffff1916908160001a905350600060018460026138729190614ec2565b61387c9190614e6c565b90505b600181111561391c577f3031323334353637383961626364656600000000000000000000000000000000600f8616601081106138be576138bd6151df565b5b1a60f81b8282815181106138d5576138d46151df565b5b60200101907effffffffffffffffffffffffffffffffffffffffffffffffffffffffffffff1916908160001a905350600485901c9450806139159061507c565b905061387f565b5060008414613960576040517f08c379a000000000000000000000000000000000000000000000000000000000815260040161395790614a5e565b60405180910390fd5b8091505092915050565b60007f01ffc9a7000000000000000000000000000000000000000000000000000000007bffffffffffffffffffffffffffffffffffffffffffffffffffffffff1916827bffffffffffffffffffffffffffffffffffffffffffffffffffffffff1916149050919050565b505050505050565b60006139ef6139ea84614d67565b614d42565b90508083825260208201905082856020860282011115613a1257613a11615269565b5b60005b85811015613a425781613a288882613afe565b845260208401935060208301925050600181019050613a15565b5050509392505050565b6000613a5f613a5a84614d93565b614d42565b90508083825260208201905082856020860282011115613a8257613a81615269565b5b60005b85811015613ab25781613a988882613c47565b845260208401935060208301925050600181019050613a85565b5050509392505050565b6000613acf613aca84614dbf565b614d42565b905082815260208101848484011115613aeb57613aea61526e565b5b613af684828561503a565b509392505050565b600081359050613b0d816159b5565b92915050565b600082601f830112613b2857613b27615264565b5b8135613b388482602086016139dc565b91505092915050565b60008083601f840112613b5757613b56615264565b5b8235905067ffffffffffffffff811115613b7457613b7361525f565b5b602083019150836020820283011115613b9057613b8f615269565b5b9250929050565b600082601f830112613bac57613bab615264565b5b8135613bbc848260208601613a4c565b91505092915050565b600081359050613bd4816159cc565b92915050565b600081359050613be9816159e3565b92915050565b600081359050613bfe816159fa565b92915050565b600081519050613c13816159fa565b92915050565b600082601f830112613c2e57613c2d615264565b5b8135613c3e848260208601613abc565b91505092915050565b600081359050613c5681615a11565b92915050565b600060208284031215613c7257613c71615278565b5b6000613c8084828501613afe565b91505092915050565b60008060408385031215613ca057613c9f615278565b5b6000613cae85828601613afe565b9250506020613cbf85828601613afe565b9150509250929050565b600080600080600060a08688031215613ce557613ce4615278565b5b6000613cf388828901613afe565b9550506020613d0488828901613afe565b945050604086013567ffffffffffffffff811115613d2557613d24615273565b5b613d3188828901613b97565b935050606086013567ffffffffffffffff811115613d5257613d51615273565b5b613d5e88828901613b97565b925050608086013567ffffffffffffffff811115613d7f57613d7e615273565b5b613d8b88828901613c19565b9150509295509295909350565b600080600080600060a08688031215613db457613db3615278565b5b6000613dc288828901613afe565b9550506020613dd388828901613afe565b9450506040613de488828901613c47565b9350506060613df588828901613c47565b925050608086013567ffffffffffffffff811115613e1657613e15615273565b5b613e2288828901613c19565b9150509295509295909350565b600080600060608486031215613e4857613e47615278565b5b6000613e5686828701613afe565b935050602084013567ffffffffffffffff811115613e7757613e76615273565b5b613e8386828701613b97565b925050604084013567ffffffffffffffff811115613ea457613ea3615273565b5b613eb086828701613b97565b9150509250925092565b60008060008060808587031215613ed457613ed3615278565b5b6000613ee287828801613afe565b945050602085013567ffffffffffffffff811115613f0357613f02615273565b5b613f0f87828801613b97565b935050604085013567ffffffffffffffff811115613f3057613f2f615273565b5b613f3c87828801613b97565b925050606085013567ffffffffffffffff811115613f5d57613f5c615273565b5b613f6987828801613c19565b91505092959194509250565b60008060408385031215613f8c57613f8b615278565b5b6000613f9a85828601613afe565b9250506020613fab85828601613bc5565b9150509250929050565b60008060408385031215613fcc57613fcb615278565b5b6000613fda85828601613afe565b9250506020613feb85828601613c47565b9150509250929050565b60008060006060848603121561400e5761400d615278565b5b600061401c86828701613afe565b935050602061402d86828701613c47565b925050604061403e86828701613c47565b9150509250925092565b6000806000806080858703121561406257614061615278565b5b600061407087828801613afe565b945050602061408187828801613c47565b935050604061409287828801613c47565b925050606085013567ffffffffffffffff8111156140b3576140b2615273565b5b6140bf87828801613c19565b91505092959194509250565b600080604083850312156140e2576140e1615278565b5b600083013567ffffffffffffffff811115614100576140ff615273565b5b61410c85828601613b13565b925050602083013567ffffffffffffffff81111561412d5761412c615273565b5b61413985828601613b97565b9150509250929050565b60008060008060006060868803121561415f5761415e615278565b5b600086013567ffffffffffffffff81111561417d5761417c615273565b5b61418988828901613b41565b9550955050602086013567ffffffffffffffff8111156141ac576141ab615273565b5b6141b888828901613b41565b935093505060406141cb88828901613afe565b9150509295509295909350565b6000602082840312156141ee576141ed615278565b5b60006141fc84828501613bda565b91505092915050565b6000806040838503121561421c5761421b615278565b5b600061422a85828601613bda565b925050602061423b85828601613afe565b9150509250929050565b6000806040838503121561425c5761425b615278565b5b600061426a85828601613bda565b925050602061427b85828601613c47565b9150509250929050565b60006020828403121561429b5761429a615278565b5b60006142a984828501613bef565b91505092915050565b6000602082840312156142c8576142c7615278565b5b60006142d684828501613c04565b91505092915050565b6000602082840312156142f5576142f4615278565b5b600061430384828501613c47565b91505092915050565b6000806040838503121561432357614322615278565b5b600061433185828601613c47565b925050602061434285828601613c47565b9150509250929050565b60006143588383614807565b60208301905092915050565b61436d81614f50565b82525050565b600061437e82614e00565b6143888185614e2e565b935061439383614df0565b8060005b838110156143c45781516143ab888261434c565b97506143b683614e21565b925050600181019050614397565b5085935050505092915050565b6143da81614f62565b82525050565b6143e981614f6e565b82525050565b60006143fa82614e0b565b6144048185614e3f565b9350614414818560208601615049565b61441d8161527d565b840191505092915050565b61443181614fce565b82525050565b61444081614ff2565b82525050565b61444f81615016565b82525050565b600061446082614e16565b61446a8185614e50565b935061447a818560208601615049565b6144838161527d565b840191505092915050565b600061449982614e16565b6144a38185614e61565b93506144b3818560208601615049565b80840191505092915050565b60006144cc603483614e50565b91506144d78261529b565b604082019050919050565b60006144ef602083614e50565b91506144fa826152ea565b602082019050919050565b6000614512602883614e50565b915061451d82615313565b604082019050919050565b6000614535601483614e50565b915061454082615362565b602082019050919050565b6000614558602b83614e50565b91506145638261538b565b604082019050919050565b600061457b602483614e50565b9150614586826153da565b604082019050919050565b600061459e602c83614e50565b91506145a982615429565b604082019050919050565b60006145c1602983614e50565b91506145cc82615478565b604082019050919050565b60006145e4601083614e50565b91506145ef826154c7565b602082019050919050565b6000614607602583614e50565b9150614612826154f0565b604082019050919050565b600061462a603283614e50565b91506146358261553f565b604082019050919050565b600061464d602383614e50565b91506146588261558e565b604082019050919050565b6000614670603883614e50565b915061467b826155dd565b604082019050919050565b6000614693602a83614e50565b915061469e8261562c565b604082019050919050565b60006146b6603b83614e50565b91506146c18261567b565b604082019050919050565b60006146d9603983614e50565b91506146e4826156ca565b604082019050919050565b60006146fc601783614e61565b915061470782615719565b601782019050919050565b600061471f602083614e50565b915061472a82615742565b602082019050919050565b6000614742602983614e50565b915061474d8261576b565b604082019050919050565b6000614765602983614e50565b9150614770826157ba565b604082019050919050565b6000614788602883614e50565b915061479382615809565b604082019050919050565b60006147ab602183614e50565b91506147b682615858565b604082019050919050565b60006147ce601183614e61565b91506147d9826158a7565b601182019050919050565b60006147f1602f83614e50565b91506147fc826158d0565b604082019050919050565b61481081614fc4565b82525050565b61481f81614fc4565b82525050565b6000614830826146ef565b915061483c828561448e565b9150614847826147c1565b9150614853828461448e565b91508190509392505050565b60006020820190506148746000830184614364565b92915050565b600060a08201905061488f6000830188614364565b61489c6020830187614364565b81810360408301526148ae8186614373565b905081810360608301526148c28185614373565b905081810360808301526148d681846143ef565b90509695505050505050565b600060a0820190506148f76000830188614364565b6149046020830187614364565b6149116040830186614816565b61491e6060830185614816565b818103608083015261493081846143ef565b90509695505050505050565b600060208201905081810360008301526149568184614373565b905092915050565b600060408201905081810360008301526149788185614373565b9050818103602083015261498c8184614373565b90509392505050565b60006020820190506149aa60008301846143d1565b92915050565b60006020820190506149c560008301846143e0565b92915050565b60006020820190506149e06000830184614428565b92915050565b60006020820190506149fb6000830184614437565b92915050565b6000602082019050614a166000830184614446565b92915050565b60006020820190508181036000830152614a368184614455565b905092915050565b60006020820190508181036000830152614a57816144bf565b9050919050565b60006020820190508181036000830152614a77816144e2565b9050919050565b60006020820190508181036000830152614a9781614505565b9050919050565b60006020820190508181036000830152614ab781614528565b9050919050565b60006020820190508181036000830152614ad78161454b565b9050919050565b60006020820190508181036000830152614af78161456e565b9050919050565b60006020820190508181036000830152614b1781614591565b9050919050565b60006020820190508181036000830152614b37816145b4565b9050919050565b60006020820190508181036000830152614b57816145d7565b9050919050565b60006020820190508181036000830152614b77816145fa565b9050919050565b60006020820190508181036000830152614b978161461d565b9050919050565b60006020820190508181036000830152614bb781614640565b9050919050565b60006020820190508181036000830152614bd781614663565b9050919050565b60006020820190508181036000830152614bf781614686565b9050919050565b60006020820190508181036000830152614c17816146a9565b9050919050565b60006020820190508181036000830152614c37816146cc565b9050919050565b60006020820190508181036000830152614c5781614712565b9050919050565b60006020820190508181036000830152614c7781614735565b9050919050565b60006020820190508181036000830152614c9781614758565b9050919050565b60006020820190508181036000830152614cb78161477b565b9050919050565b60006020820190508181036000830152614cd78161479e565b9050919050565b60006020820190508181036000830152614cf7816147e4565b9050919050565b6000602082019050614d136000830184614816565b92915050565b6000604082019050614d2e6000830185614816565b614d3b6020830184614816565b9392505050565b6000614d4c614d5d565b9050614d5882826150d8565b919050565b6000604051905090565b600067ffffffffffffffff821115614d8257614d8161520e565b5b602082029050602081019050919050565b600067ffffffffffffffff821115614dae57614dad61520e565b5b602082029050602081019050919050565b600067ffffffffffffffff821115614dda57614dd961520e565b5b614de38261527d565b9050602081019050919050565b6000819050602082019050919050565b600081519050919050565b600081519050919050565b600081519050919050565b6000602082019050919050565b600082825260208201905092915050565b600082825260208201905092915050565b600082825260208201905092915050565b600081905092915050565b6000614e7782614fc4565b9150614e8283614fc4565b9250827fffffffffffffffffffffffffffffffffffffffffffffffffffffffffffffffff03821115614eb757614eb6615152565b5b828201905092915050565b6000614ecd82614fc4565b9150614ed883614fc4565b9250817fffffffffffffffffffffffffffffffffffffffffffffffffffffffffffffffff0483118215151615614f1157614f10615152565b5b828202905092915050565b6000614f2782614fc4565b9150614f3283614fc4565b925082821015614f4557614f44615152565b5b828203905092915050565b6000614f5b82614fa4565b9050919050565b60008115159050919050565b6000819050919050565b60007fffffffff0000000000000000000000000000000000000000000000000000000082169050919050565b600073ffffffffffffffffffffffffffffffffffffffff82169050919050565b6000819050919050565b6000614fd982614fe0565b9050919050565b6000614feb82614fa4565b9050919050565b6000614ffd82615004565b9050919050565b600061500f82614fa4565b9050919050565b600061502182615028565b9050919050565b600061503382614fa4565b9050919050565b82818337600083830152505050565b60005b8381101561506757808201518184015260208101905061504c565b83811115615076576000848401525b50505050565b600061508782614fc4565b9150600082141561509b5761509a615152565b5b600182039050919050565b600060028204905060018216806150be57607f821691505b602082108114156150d2576150d1615181565b5b50919050565b6150e18261527d565b810181811067ffffffffffffffff82111715615100576150ff61520e565b5b80604052505050565b600061511482614fc4565b91507fffffffffffffffffffffffffffffffffffffffffffffffffffffffffffffffff82141561514757615146615152565b5b600182019050919050565b7f4e487b7100000000000000000000000000000000000000000000000000000000600052601160045260246000fd5b7f4e487b7100000000000000000000000000000000000000000000000000000000600052602260045260246000fd5b7f4e487b7100000000000000000000000000000000000000000000000000000000600052603160045260246000fd5b7f4e487b7100000000000000000000000000000000000000000000000000000000600052603260045260246000fd5b7f4e487b7100000000000000000000000000000000000000000000000000000000600052604160045260246000fd5b600060033d111561525c5760046000803e61525960005161528e565b90505b90565b600080fd5b600080fd5b600080fd5b600080fd5b600080fd5b600080fd5b6000601f19601f8301169050919050565b60008160e01c9050919050565b7f455243313135353a207472616e7366657220746f206e6f6e204552433131353560008201527f526563656976657220696d706c656d656e746572000000000000000000000000602082015250565b7f537472696e67733a20686578206c656e67746820696e73756666696369656e74600082015250565b7f455243313135353a204552433131353552656365697665722072656a6563746560008201527f6420746f6b656e73000000000000000000000000000000000000000000000000602082015250565b7f5061757361626c653a206e6f7420706175736564000000000000000000000000600082015250565b7f455243313135353a2062616c616e636520717565727920666f7220746865207a60008201527f65726f2061646472657373000000000000000000000000000000000000000000602082015250565b7f455243313135353a206275726e20616d6f756e7420657863656564732062616c60008201527f616e636500000000000000000000000000000000000000000000000000000000602082015250565b7f455243313135355061757361626c653a20746f6b656e207472616e736665722060008201527f7768696c65207061757365640000000000000000000000000000000000000000602082015250565b7f455243313135353a2063616c6c6572206973206e6f74206f776e6572206e6f7260008201527f20617070726f7665640000000000000000000000000000000000000000000000602082015250565b7f5061757361626c653a2070617573656400000000000000000000000000000000600082015250565b7f455243313135353a207472616e7366657220746f20746865207a65726f20616460008201527f6472657373000000000000000000000000000000000000000000000000000000602082015250565b7f455243313135353a207472616e736665722063616c6c6572206973206e6f742060008201527f6f776e6572206e6f7220617070726f7665640000000000000000000000000000602082015250565b7f455243313135353a206275726e2066726f6d20746865207a65726f206164647260008201527f6573730000000000000000000000000000000000000000000000000000000000602082015250565b7f455243313135355072657365744d696e7465725061757365723a206d7573742060008201527f68617665206d696e74657220726f6c6520746f206d696e740000000000000000602082015250565b7f455243313135353a20696e73756666696369656e742062616c616e636520666f60008201527f72207472616e7366657200000000000000000000000000000000000000000000602082015250565b7f455243313135355072657365744d696e7465725061757365723a206d7573742060008201527f686176652070617573657220726f6c6520746f20756e70617573650000000000602082015250565b7f455243313135355072657365744d696e7465725061757365723a206d7573742060008201527f686176652070617573657220726f6c6520746f20706175736500000000000000602082015250565b7f416363657373436f6e74726f6c3a206163636f756e7420000000000000000000600082015250565b7f4f6e6c792041646d696e2063616e20706572666f726d20746869732063616c6c600082015250565b7f455243313135353a2073657474696e6720617070726f76616c2073746174757360008201527f20666f722073656c660000000000000000000000000000000000000000000000602082015250565b7f455243313135353a206163636f756e747320616e6420696473206c656e67746860008201527f206d69736d617463680000000000000000000000000000000000000000000000602082015250565b7f455243313135353a2069647320616e6420616d6f756e7473206c656e6774682060008201527f6d69736d61746368000000000000000000000000000000000000000000000000602082015250565b7f455243313135353a206d696e7420746f20746865207a65726f2061646472657360008201527f7300000000000000000000000000000000000000000000000000000000000000602082015250565b7f206973206d697373696e6720726f6c6520000000000000000000000000000000600082015250565b7f416363657373436f6e74726f6c3a2063616e206f6e6c792072656e6f756e636560008201527f20726f6c657320666f722073656c660000000000000000000000000000000000602082015250565b600060443d101561592f576159b2565b615937614d5d565b60043d036004823e80513d602482011167ffffffffffffffff8211171561595f5750506159b2565b808201805167ffffffffffffffff81111561597d57505050506159b2565b80602083010160043d03850181111561599a5750505050506159b2565b6159a9826020018501866150d8565b82955050505050505b90565b6159be81614f50565b81146159c957600080fd5b50565b6159d581614f62565b81146159e057600080fd5b50565b6159ec81614f6e565b81146159f757600080fd5b50565b615a0381614f78565b8114615a0e57600080fd5b50565b615a1a81614fc4565b8114615a2557600080fd5b5056fea264697066735822122051d6cf9336822dab6daeee2f4f3ab72247d9fad259e7c6446b07860d36e8bfd964736f6c63430008060033",
  "immutableReferences": {},
  "source": "// SPDX-License-Identifier: MIT\r\npragma solidity >=0.4.22 <0.9.0;\r\n\r\nimport \"../node_modules/@openzeppelin/contracts/security/ReentrancyGuard.sol\";\r\nimport \"../node_modules/@openzeppelin/contracts/token/ERC20/IERC20.sol\";\r\nimport \"../node_modules/@openzeppelin/contracts/token/ERC1155/IERC1155.sol\";\r\nimport \"../node_modules/@openzeppelin/contracts/token/ERC1155/presets/ERC1155PresetMinterPauser.sol\";\r\nimport \"../node_modules/@openzeppelin/contracts/access/AccessControl.sol\";\r\nimport \"../node_modules/@openzeppelin/contracts/utils/Counters.sol\";\r\nimport \"../contracts/PBPlayers.sol\";\r\nimport \"../contracts/PBProShopHolder.sol\";\r\n\r\n\r\n\r\ncontract PBProShopFactory is ERC1155PresetMinterPauser, ReentrancyGuard {\r\n\r\n    address public admin;\r\n    address proshopaddress;\r\n    address puckbuddiesplayeraddress;\r\n    address proshopholder;\r\n    address proshopmarketplaceaddress;\r\n    uint256 public skuCount;\r\n    using Counters for Counters.Counter;\r\n    Counters.Counter private _proshopItemsCreated;\r\n    IERC20 public buddies;\r\n    PBPlayers public pbPlayers;\r\n    PBProShopHolder public pbProShopHolder;\r\n\r\n    modifier onlyAdmin() {\r\n        require(msg.sender == admin, \"Only Admin can perform this call\");\r\n        _;\r\n    }\r\n\r\n    constructor(address _buddiesCoinAddress, address _puckbuddiesplayeraddress) ERC1155PresetMinterPauser(\"\") {\r\n        admin = msg.sender;\r\n        skuCount = 0;\r\n        buddies = IERC20(_buddiesCoinAddress);\r\n        pbPlayers = PBPlayers(_puckbuddiesplayeraddress);\r\n    }\r\n\r\n    function isAdmin() public view returns (bool){\r\n        if(admin == msg.sender){\r\n            return true;\r\n        } else return false;\r\n    }\r\n\r\n    function getProShopStats() public view onlyAdmin returns (uint) {\r\n        return (_proshopItemsCreated.current());\r\n    }\r\n\r\n    function updateBuddiesCoinAddress(address _buddiesCoinAddress) onlyAdmin external {\r\n     buddies = IERC20(_buddiesCoinAddress);\r\n    }\r\n\r\n    function updateProshopHolderAddress(address _pbProshopHolderAddress) external onlyAdmin {\r\n        pbProShopHolder = PBProShopHolder(_pbProshopHolderAddress);\r\n        proshopholder = _pbProshopHolderAddress;\r\n    }\r\n\r\n        function updateProshopMarketplaceAddress(address _pbProshopMarketplaceAddress) external onlyAdmin {\r\n        proshopmarketplaceaddress = _pbProshopMarketplaceAddress;\r\n    }\r\n\r\n    function updatePuckBuddiesPlayerAddress(address _puckbuddiesplayeraddress) external onlyAdmin {\r\n        pbPlayers = PBPlayers(_puckbuddiesplayeraddress);\r\n    }\r\n\r\n    function getPBProShopFactoryAddress() public view returns (address){\r\n        return address(this);\r\n    }\r\n\r\n    function newProduct(uint sku, uint qty) external onlyAdmin {\r\n        skuCount++;\r\n        _mint(proshopholder, sku, qty, \"\");\r\n        setApprovalForAll(proshopaddress, true);\r\n        setApprovalForAll(proshopholder, true);\r\n        setApprovalForAll(proshopmarketplaceaddress, true);\r\n        setApprovalForAll(puckbuddiesplayeraddress, true);\r\n        _proshopItemsCreated.increment();\r\n    }\r\n\r\n    function giftItem(uint[] calldata tokenId, uint[] calldata qty, address newOwner) public {\r\n        safeBatchTransferFrom(msg.sender, newOwner, tokenId, qty, \"\" );\r\n    }\r\n\r\n    function burnItems(uint token, uint qty ) external onlyAdmin {\r\n        _burn(proshopholder, token, qty);\r\n    }\r\n\r\n    function burnOnEquip(address owner, uint token) external {\r\n        _burn(owner,token, 1);\r\n    }\r\n\r\n    function mintOnUnequip(address owner, uint token) external {\r\n        _mint(owner, token, 1, \"\");\r\n    }\r\n\r\n    function getTimestamp() external view returns (uint){\r\n        return block.timestamp;\r\n    }\r\n\r\n\r\n} ",
  "sourcePath": "O:\\Projects\\puck-buddies\\contracts\\PBProShopFactory.sol",
  "compiler": {
    "name": "solc",
    "version": "0.8.6+commit.11564f7e.Emscripten.clang"
  },
  "schemaVersion": "3.4.3",
  "updatedAt": "2022-01-04T04:51:34.722Z",
  "networkType": "ethereum",
  "devdoc": {
    "kind": "dev",
    "methods": {
      "balanceOf(address,uint256)": {
        "details": "See {IERC1155-balanceOf}. Requirements: - `account` cannot be the zero address."
      },
      "balanceOfBatch(address[],uint256[])": {
        "details": "See {IERC1155-balanceOfBatch}. Requirements: - `accounts` and `ids` must have the same length."
      },
      "getRoleAdmin(bytes32)": {
        "details": "Returns the admin role that controls `role`. See {grantRole} and {revokeRole}. To change a role's admin, use {_setRoleAdmin}."
      },
      "getRoleMember(bytes32,uint256)": {
        "details": "Returns one of the accounts that have `role`. `index` must be a value between 0 and {getRoleMemberCount}, non-inclusive. Role bearers are not sorted in any particular way, and their ordering may change at any point. WARNING: When using {getRoleMember} and {getRoleMemberCount}, make sure you perform all queries on the same block. See the following https://forum.openzeppelin.com/t/iterating-over-elements-on-enumerableset-in-openzeppelin-contracts/2296[forum post] for more information."
      },
      "getRoleMemberCount(bytes32)": {
        "details": "Returns the number of accounts that have `role`. Can be used together with {getRoleMember} to enumerate all bearers of a role."
      },
      "grantRole(bytes32,address)": {
        "details": "Overload {grantRole} to track enumerable memberships"
      },
      "hasRole(bytes32,address)": {
        "details": "Returns `true` if `account` has been granted `role`."
      },
      "isApprovedForAll(address,address)": {
        "details": "See {IERC1155-isApprovedForAll}."
      },
      "mint(address,uint256,uint256,bytes)": {
        "details": "Creates `amount` new tokens for `to`, of token type `id`. See {ERC1155-_mint}. Requirements: - the caller must have the `MINTER_ROLE`."
      },
      "mintBatch(address,uint256[],uint256[],bytes)": {
        "details": "xref:ROOT:erc1155.adoc#batch-operations[Batched] variant of {mint}."
      },
      "pause()": {
        "details": "Pauses all token transfers. See {ERC1155Pausable} and {Pausable-_pause}. Requirements: - the caller must have the `PAUSER_ROLE`."
      },
      "paused()": {
        "details": "Returns true if the contract is paused, and false otherwise."
      },
      "renounceRole(bytes32,address)": {
        "details": "Overload {renounceRole} to track enumerable memberships"
      },
      "revokeRole(bytes32,address)": {
        "details": "Overload {revokeRole} to track enumerable memberships"
      },
      "safeBatchTransferFrom(address,address,uint256[],uint256[],bytes)": {
        "details": "See {IERC1155-safeBatchTransferFrom}."
      },
      "safeTransferFrom(address,address,uint256,uint256,bytes)": {
        "details": "See {IERC1155-safeTransferFrom}."
      },
      "setApprovalForAll(address,bool)": {
        "details": "See {IERC1155-setApprovalForAll}."
      },
      "supportsInterface(bytes4)": {
        "details": "See {IERC165-supportsInterface}."
      },
      "unpause()": {
        "details": "Unpauses all token transfers. See {ERC1155Pausable} and {Pausable-_unpause}. Requirements: - the caller must have the `PAUSER_ROLE`."
      },
      "uri(uint256)": {
        "details": "See {IERC1155MetadataURI-uri}. This implementation returns the same URI for *all* token types. It relies on the token type ID substitution mechanism https://eips.ethereum.org/EIPS/eip-1155#metadata[defined in the EIP]. Clients calling this function must replace the `\\{id\\}` substring with the actual token type ID."
      }
    },
    "version": 1
  },
  "userdoc": {
    "kind": "user",
    "methods": {},
    "version": 1
  }
}