{
  "contractName": "PBProShopFactory",
  "abi": [
    {
      "inputs": [
        {
          "internalType": "address",
          "name": "_buddiesCoinAddress",
          "type": "address"
        },
        {
          "internalType": "address",
          "name": "_puckbuddiesplayeraddress",
          "type": "address"
        }
      ],
      "stateMutability": "nonpayable",
      "type": "constructor"
    },
    {
      "anonymous": false,
      "inputs": [
        {
          "indexed": true,
          "internalType": "address",
          "name": "account",
          "type": "address"
        },
        {
          "indexed": true,
          "internalType": "address",
          "name": "operator",
          "type": "address"
        },
        {
          "indexed": false,
          "internalType": "bool",
          "name": "approved",
          "type": "bool"
        }
      ],
      "name": "ApprovalForAll",
      "type": "event"
    },
    {
      "anonymous": false,
      "inputs": [
        {
          "indexed": false,
          "internalType": "address",
          "name": "account",
          "type": "address"
        }
      ],
      "name": "Paused",
      "type": "event"
    },
    {
      "anonymous": false,
      "inputs": [
        {
          "indexed": true,
          "internalType": "bytes32",
          "name": "role",
          "type": "bytes32"
        },
        {
          "indexed": true,
          "internalType": "bytes32",
          "name": "previousAdminRole",
          "type": "bytes32"
        },
        {
          "indexed": true,
          "internalType": "bytes32",
          "name": "newAdminRole",
          "type": "bytes32"
        }
      ],
      "name": "RoleAdminChanged",
      "type": "event"
    },
    {
      "anonymous": false,
      "inputs": [
        {
          "indexed": true,
          "internalType": "bytes32",
          "name": "role",
          "type": "bytes32"
        },
        {
          "indexed": true,
          "internalType": "address",
          "name": "account",
          "type": "address"
        },
        {
          "indexed": true,
          "internalType": "address",
          "name": "sender",
          "type": "address"
        }
      ],
      "name": "RoleGranted",
      "type": "event"
    },
    {
      "anonymous": false,
      "inputs": [
        {
          "indexed": true,
          "internalType": "bytes32",
          "name": "role",
          "type": "bytes32"
        },
        {
          "indexed": true,
          "internalType": "address",
          "name": "account",
          "type": "address"
        },
        {
          "indexed": true,
          "internalType": "address",
          "name": "sender",
          "type": "address"
        }
      ],
      "name": "RoleRevoked",
      "type": "event"
    },
    {
      "anonymous": false,
      "inputs": [
        {
          "indexed": true,
          "internalType": "address",
          "name": "operator",
          "type": "address"
        },
        {
          "indexed": true,
          "internalType": "address",
          "name": "from",
          "type": "address"
        },
        {
          "indexed": true,
          "internalType": "address",
          "name": "to",
          "type": "address"
        },
        {
          "indexed": false,
          "internalType": "uint256[]",
          "name": "ids",
          "type": "uint256[]"
        },
        {
          "indexed": false,
          "internalType": "uint256[]",
          "name": "values",
          "type": "uint256[]"
        }
      ],
      "name": "TransferBatch",
      "type": "event"
    },
    {
      "anonymous": false,
      "inputs": [
        {
          "indexed": true,
          "internalType": "address",
          "name": "operator",
          "type": "address"
        },
        {
          "indexed": true,
          "internalType": "address",
          "name": "from",
          "type": "address"
        },
        {
          "indexed": true,
          "internalType": "address",
          "name": "to",
          "type": "address"
        },
        {
          "indexed": false,
          "internalType": "uint256",
          "name": "id",
          "type": "uint256"
        },
        {
          "indexed": false,
          "internalType": "uint256",
          "name": "value",
          "type": "uint256"
        }
      ],
      "name": "TransferSingle",
      "type": "event"
    },
    {
      "anonymous": false,
      "inputs": [
        {
          "indexed": false,
          "internalType": "string",
          "name": "value",
          "type": "string"
        },
        {
          "indexed": true,
          "internalType": "uint256",
          "name": "id",
          "type": "uint256"
        }
      ],
      "name": "URI",
      "type": "event"
    },
    {
      "anonymous": false,
      "inputs": [
        {
          "indexed": false,
          "internalType": "address",
          "name": "account",
          "type": "address"
        }
      ],
      "name": "Unpaused",
      "type": "event"
    },
    {
      "inputs": [],
      "name": "DEFAULT_ADMIN_ROLE",
      "outputs": [
        {
          "internalType": "bytes32",
          "name": "",
          "type": "bytes32"
        }
      ],
      "stateMutability": "view",
      "type": "function",
      "constant": true
    },
    {
      "inputs": [],
      "name": "MINTER_ROLE",
      "outputs": [
        {
          "internalType": "bytes32",
          "name": "",
          "type": "bytes32"
        }
      ],
      "stateMutability": "view",
      "type": "function",
      "constant": true
    },
    {
      "inputs": [],
      "name": "PAUSER_ROLE",
      "outputs": [
        {
          "internalType": "bytes32",
          "name": "",
          "type": "bytes32"
        }
      ],
      "stateMutability": "view",
      "type": "function",
      "constant": true
    },
    {
      "inputs": [],
      "name": "admin",
      "outputs": [
        {
          "internalType": "address",
          "name": "",
          "type": "address"
        }
      ],
      "stateMutability": "view",
      "type": "function",
      "constant": true
    },
    {
      "inputs": [
        {
          "internalType": "address",
          "name": "account",
          "type": "address"
        },
        {
          "internalType": "uint256",
          "name": "id",
          "type": "uint256"
        }
      ],
      "name": "balanceOf",
      "outputs": [
        {
          "internalType": "uint256",
          "name": "",
          "type": "uint256"
        }
      ],
      "stateMutability": "view",
      "type": "function",
      "constant": true
    },
    {
      "inputs": [
        {
          "internalType": "address[]",
          "name": "accounts",
          "type": "address[]"
        },
        {
          "internalType": "uint256[]",
          "name": "ids",
          "type": "uint256[]"
        }
      ],
      "name": "balanceOfBatch",
      "outputs": [
        {
          "internalType": "uint256[]",
          "name": "",
          "type": "uint256[]"
        }
      ],
      "stateMutability": "view",
      "type": "function",
      "constant": true
    },
    {
      "inputs": [],
      "name": "buddies",
      "outputs": [
        {
          "internalType": "contract IERC20",
          "name": "",
          "type": "address"
        }
      ],
      "stateMutability": "view",
      "type": "function",
      "constant": true
    },
    {
      "inputs": [
        {
          "internalType": "address",
          "name": "account",
          "type": "address"
        },
        {
          "internalType": "uint256",
          "name": "id",
          "type": "uint256"
        },
        {
          "internalType": "uint256",
          "name": "value",
          "type": "uint256"
        }
      ],
      "name": "burn",
      "outputs": [],
      "stateMutability": "nonpayable",
      "type": "function"
    },
    {
      "inputs": [
        {
          "internalType": "address",
          "name": "account",
          "type": "address"
        },
        {
          "internalType": "uint256[]",
          "name": "ids",
          "type": "uint256[]"
        },
        {
          "internalType": "uint256[]",
          "name": "values",
          "type": "uint256[]"
        }
      ],
      "name": "burnBatch",
      "outputs": [],
      "stateMutability": "nonpayable",
      "type": "function"
    },
    {
      "inputs": [
        {
          "internalType": "bytes32",
          "name": "role",
          "type": "bytes32"
        }
      ],
      "name": "getRoleAdmin",
      "outputs": [
        {
          "internalType": "bytes32",
          "name": "",
          "type": "bytes32"
        }
      ],
      "stateMutability": "view",
      "type": "function",
      "constant": true
    },
    {
      "inputs": [
        {
          "internalType": "bytes32",
          "name": "role",
          "type": "bytes32"
        },
        {
          "internalType": "uint256",
          "name": "index",
          "type": "uint256"
        }
      ],
      "name": "getRoleMember",
      "outputs": [
        {
          "internalType": "address",
          "name": "",
          "type": "address"
        }
      ],
      "stateMutability": "view",
      "type": "function",
      "constant": true
    },
    {
      "inputs": [
        {
          "internalType": "bytes32",
          "name": "role",
          "type": "bytes32"
        }
      ],
      "name": "getRoleMemberCount",
      "outputs": [
        {
          "internalType": "uint256",
          "name": "",
          "type": "uint256"
        }
      ],
      "stateMutability": "view",
      "type": "function",
      "constant": true
    },
    {
      "inputs": [
        {
          "internalType": "bytes32",
          "name": "role",
          "type": "bytes32"
        },
        {
          "internalType": "address",
          "name": "account",
          "type": "address"
        }
      ],
      "name": "grantRole",
      "outputs": [],
      "stateMutability": "nonpayable",
      "type": "function"
    },
    {
      "inputs": [
        {
          "internalType": "bytes32",
          "name": "role",
          "type": "bytes32"
        },
        {
          "internalType": "address",
          "name": "account",
          "type": "address"
        }
      ],
      "name": "hasRole",
      "outputs": [
        {
          "internalType": "bool",
          "name": "",
          "type": "bool"
        }
      ],
      "stateMutability": "view",
      "type": "function",
      "constant": true
    },
    {
      "inputs": [
        {
          "internalType": "address",
          "name": "account",
          "type": "address"
        },
        {
          "internalType": "address",
          "name": "operator",
          "type": "address"
        }
      ],
      "name": "isApprovedForAll",
      "outputs": [
        {
          "internalType": "bool",
          "name": "",
          "type": "bool"
        }
      ],
      "stateMutability": "view",
      "type": "function",
      "constant": true
    },
    {
      "inputs": [
        {
          "internalType": "address",
          "name": "to",
          "type": "address"
        },
        {
          "internalType": "uint256",
          "name": "id",
          "type": "uint256"
        },
        {
          "internalType": "uint256",
          "name": "amount",
          "type": "uint256"
        },
        {
          "internalType": "bytes",
          "name": "data",
          "type": "bytes"
        }
      ],
      "name": "mint",
      "outputs": [],
      "stateMutability": "nonpayable",
      "type": "function"
    },
    {
      "inputs": [
        {
          "internalType": "address",
          "name": "to",
          "type": "address"
        },
        {
          "internalType": "uint256[]",
          "name": "ids",
          "type": "uint256[]"
        },
        {
          "internalType": "uint256[]",
          "name": "amounts",
          "type": "uint256[]"
        },
        {
          "internalType": "bytes",
          "name": "data",
          "type": "bytes"
        }
      ],
      "name": "mintBatch",
      "outputs": [],
      "stateMutability": "nonpayable",
      "type": "function"
    },
    {
      "inputs": [],
      "name": "pause",
      "outputs": [],
      "stateMutability": "nonpayable",
      "type": "function"
    },
    {
      "inputs": [],
      "name": "paused",
      "outputs": [
        {
          "internalType": "bool",
          "name": "",
          "type": "bool"
        }
      ],
      "stateMutability": "view",
      "type": "function",
      "constant": true
    },
    {
      "inputs": [],
      "name": "pbPlayers",
      "outputs": [
        {
          "internalType": "contract PBPlayers",
          "name": "",
          "type": "address"
        }
      ],
      "stateMutability": "view",
      "type": "function",
      "constant": true
    },
    {
      "inputs": [],
      "name": "pbProShopHolder",
      "outputs": [
        {
          "internalType": "contract PBProShopHolder",
          "name": "",
          "type": "address"
        }
      ],
      "stateMutability": "view",
      "type": "function",
      "constant": true
    },
    {
      "inputs": [
        {
          "internalType": "bytes32",
          "name": "role",
          "type": "bytes32"
        },
        {
          "internalType": "address",
          "name": "account",
          "type": "address"
        }
      ],
      "name": "renounceRole",
      "outputs": [],
      "stateMutability": "nonpayable",
      "type": "function"
    },
    {
      "inputs": [
        {
          "internalType": "bytes32",
          "name": "role",
          "type": "bytes32"
        },
        {
          "internalType": "address",
          "name": "account",
          "type": "address"
        }
      ],
      "name": "revokeRole",
      "outputs": [],
      "stateMutability": "nonpayable",
      "type": "function"
    },
    {
      "inputs": [
        {
          "internalType": "address",
          "name": "from",
          "type": "address"
        },
        {
          "internalType": "address",
          "name": "to",
          "type": "address"
        },
        {
          "internalType": "uint256[]",
          "name": "ids",
          "type": "uint256[]"
        },
        {
          "internalType": "uint256[]",
          "name": "amounts",
          "type": "uint256[]"
        },
        {
          "internalType": "bytes",
          "name": "data",
          "type": "bytes"
        }
      ],
      "name": "safeBatchTransferFrom",
      "outputs": [],
      "stateMutability": "nonpayable",
      "type": "function"
    },
    {
      "inputs": [
        {
          "internalType": "address",
          "name": "from",
          "type": "address"
        },
        {
          "internalType": "address",
          "name": "to",
          "type": "address"
        },
        {
          "internalType": "uint256",
          "name": "id",
          "type": "uint256"
        },
        {
          "internalType": "uint256",
          "name": "amount",
          "type": "uint256"
        },
        {
          "internalType": "bytes",
          "name": "data",
          "type": "bytes"
        }
      ],
      "name": "safeTransferFrom",
      "outputs": [],
      "stateMutability": "nonpayable",
      "type": "function"
    },
    {
      "inputs": [
        {
          "internalType": "address",
          "name": "operator",
          "type": "address"
        },
        {
          "internalType": "bool",
          "name": "approved",
          "type": "bool"
        }
      ],
      "name": "setApprovalForAll",
      "outputs": [],
      "stateMutability": "nonpayable",
      "type": "function"
    },
    {
      "inputs": [],
      "name": "skuCount",
      "outputs": [
        {
          "internalType": "uint256",
          "name": "",
          "type": "uint256"
        }
      ],
      "stateMutability": "view",
      "type": "function",
      "constant": true
    },
    {
      "inputs": [
        {
          "internalType": "bytes4",
          "name": "interfaceId",
          "type": "bytes4"
        }
      ],
      "name": "supportsInterface",
      "outputs": [
        {
          "internalType": "bool",
          "name": "",
          "type": "bool"
        }
      ],
      "stateMutability": "view",
      "type": "function",
      "constant": true
    },
    {
      "inputs": [],
      "name": "unpause",
      "outputs": [],
      "stateMutability": "nonpayable",
      "type": "function"
    },
    {
      "inputs": [
        {
          "internalType": "uint256",
          "name": "",
          "type": "uint256"
        }
      ],
      "name": "uri",
      "outputs": [
        {
          "internalType": "string",
          "name": "",
          "type": "string"
        }
      ],
      "stateMutability": "view",
      "type": "function",
      "constant": true
    },
    {
      "inputs": [],
      "name": "isAdmin",
      "outputs": [
        {
          "internalType": "bool",
          "name": "",
          "type": "bool"
        }
      ],
      "stateMutability": "view",
      "type": "function",
      "constant": true
    },
    {
      "inputs": [],
      "name": "getProShopStats",
      "outputs": [
        {
          "internalType": "uint256",
          "name": "",
          "type": "uint256"
        }
      ],
      "stateMutability": "view",
      "type": "function",
      "constant": true
    },
    {
      "inputs": [
        {
          "internalType": "address",
          "name": "_buddiesCoinAddress",
          "type": "address"
        }
      ],
      "name": "updateBuddiesCoinAddress",
      "outputs": [],
      "stateMutability": "nonpayable",
      "type": "function"
    },
    {
      "inputs": [
        {
          "internalType": "address",
          "name": "_pbProshopHolderAddress",
          "type": "address"
        }
      ],
      "name": "updateProshopHolderAddress",
      "outputs": [],
      "stateMutability": "nonpayable",
      "type": "function"
    },
    {
      "inputs": [
        {
          "internalType": "address",
          "name": "_pbProshopMarketplaceAddress",
          "type": "address"
        }
      ],
      "name": "updateProshopMarketplaceAddress",
      "outputs": [],
      "stateMutability": "nonpayable",
      "type": "function"
    },
    {
      "inputs": [
        {
          "internalType": "address",
          "name": "_puckbuddiesplayeraddress",
          "type": "address"
        }
      ],
      "name": "updatePuckBuddiesPlayerAddress",
      "outputs": [],
      "stateMutability": "nonpayable",
      "type": "function"
    },
    {
      "inputs": [],
      "name": "getPBProShopFactoryAddress",
      "outputs": [
        {
          "internalType": "address",
          "name": "",
          "type": "address"
        }
      ],
      "stateMutability": "view",
      "type": "function",
      "constant": true
    },
    {
      "inputs": [
        {
          "internalType": "uint256",
          "name": "sku",
          "type": "uint256"
        },
        {
          "internalType": "uint256",
          "name": "qty",
          "type": "uint256"
        }
      ],
      "name": "newProduct",
      "outputs": [],
      "stateMutability": "nonpayable",
      "type": "function"
    },
    {
      "inputs": [
        {
          "internalType": "uint256[]",
          "name": "tokenId",
          "type": "uint256[]"
        },
        {
          "internalType": "uint256[]",
          "name": "qty",
          "type": "uint256[]"
        },
        {
          "internalType": "address",
          "name": "newOwner",
          "type": "address"
        }
      ],
      "name": "giftItem",
      "outputs": [],
      "stateMutability": "nonpayable",
      "type": "function"
    },
    {
      "inputs": [
        {
          "internalType": "uint256",
          "name": "token",
          "type": "uint256"
        },
        {
          "internalType": "uint256",
          "name": "qty",
          "type": "uint256"
        }
      ],
      "name": "burnItems",
      "outputs": [],
      "stateMutability": "nonpayable",
      "type": "function"
    },
    {
      "inputs": [
        {
          "internalType": "address",
          "name": "owner",
          "type": "address"
        },
        {
          "internalType": "uint256",
          "name": "token",
          "type": "uint256"
        }
      ],
      "name": "burnOnEquip",
      "outputs": [],
      "stateMutability": "nonpayable",
      "type": "function"
    },
    {
      "inputs": [
        {
          "internalType": "address",
          "name": "owner",
          "type": "address"
        },
        {
          "internalType": "uint256",
          "name": "token",
          "type": "uint256"
        }
      ],
      "name": "mintOnUnequip",
      "outputs": [],
      "stateMutability": "nonpayable",
      "type": "function"
    },
    {
      "inputs": [],
      "name": "getTimestamp",
      "outputs": [
        {
          "internalType": "uint256",
          "name": "",
          "type": "uint256"
        }
      ],
      "stateMutability": "view",
      "type": "function",
      "constant": true
    },
    {
      "inputs": [],
      "name": "getBNBBalance",
      "outputs": [
        {
          "internalType": "uint256",
          "name": "",
          "type": "uint256"
        }
      ],
      "stateMutability": "view",
      "type": "function",
      "constant": true
    },
    {
      "inputs": [],
      "name": "getBudsBalance",
      "outputs": [
        {
          "internalType": "uint256",
          "name": "",
          "type": "uint256"
        }
      ],
      "stateMutability": "view",
      "type": "function",
      "constant": true
    },
    {
      "inputs": [
        {
          "internalType": "address payable",
          "name": "_to",
          "type": "address"
        },
        {
          "internalType": "uint256",
          "name": "_amount",
          "type": "uint256"
        }
      ],
      "name": "transferBNB",
      "outputs": [],
      "stateMutability": "nonpayable",
      "type": "function"
    },
    {
      "inputs": [
        {
          "internalType": "uint256",
          "name": "_amount",
          "type": "uint256"
        }
      ],
      "name": "transferBUDS",
      "outputs": [],
      "stateMutability": "nonpayable",
      "type": "function"
    }
  ],
  "bytecode": "0x60806040523480156200001157600080fd5b506040516200661038038062006610833981810160405281019062000037919062000570565b60405180602001604052806000815250806200005981620001f760201b60201c565b506000600560006101000a81548160ff021916908315150217905550620000996000801b6200008d6200021360201b60201c565b6200021b60201b60201c565b620000da7f9f2df0fed2c77648de5860a4cc508cd0818c85b8b8a1ab4ceeef8d981c8956a6620000ce6200021360201b60201c565b6200021b60201b60201c565b6200011b7f65d7a28e3265b37a6474929f336521b332c1681b933f6cb9f3376673440d862a6200010f6200021360201b60201c565b6200021b60201b60201c565b50600160068190555033600760006101000a81548173ffffffffffffffffffffffffffffffffffffffff021916908373ffffffffffffffffffffffffffffffffffffffff1602179055506000600c8190555081600e60006101000a81548173ffffffffffffffffffffffffffffffffffffffff021916908373ffffffffffffffffffffffffffffffffffffffff16021790555080600f60006101000a81548173ffffffffffffffffffffffffffffffffffffffff021916908373ffffffffffffffffffffffffffffffffffffffff16021790555050506200066f565b80600490805190602001906200020f929190620004a9565b5050565b600033905090565b6200023282826200026360201b62001f491760201c565b6200025e81600160008581526020019081526020016000206200027960201b62001f571790919060201c565b505050565b620002758282620002b160201b60201c565b5050565b6000620002a9836000018373ffffffffffffffffffffffffffffffffffffffff1660001b620003a260201b60201c565b905092915050565b620002c382826200041c60201b60201c565b6200039e57600160008084815260200190815260200160002060000160008373ffffffffffffffffffffffffffffffffffffffff1673ffffffffffffffffffffffffffffffffffffffff16815260200190815260200160002060006101000a81548160ff021916908315150217905550620003436200021360201b60201c565b73ffffffffffffffffffffffffffffffffffffffff168173ffffffffffffffffffffffffffffffffffffffff16837f2f8788117e7eff1d82e926ec794901d17c78024a50270940304540a733656f0d60405160405180910390a45b5050565b6000620003b683836200048660201b60201c565b6200041157826000018290806001815401808255809150506001900390600052602060002001600090919091909150558260000180549050836001016000848152602001908152602001600020819055506001905062000416565b600090505b92915050565b600080600084815260200190815260200160002060000160008373ffffffffffffffffffffffffffffffffffffffff1673ffffffffffffffffffffffffffffffffffffffff16815260200190815260200160002060009054906101000a900460ff16905092915050565b600080836001016000848152602001908152602001600020541415905092915050565b828054620004b790620005eb565b90600052602060002090601f016020900481019282620004db576000855562000527565b82601f10620004f657805160ff191683800117855562000527565b8280016001018555821562000527579182015b828111156200052657825182559160200191906001019062000509565b5b5090506200053691906200053a565b5090565b5b80821115620005555760008160009055506001016200053b565b5090565b6000815190506200056a8162000655565b92915050565b600080604083850312156200058a576200058962000650565b5b60006200059a8582860162000559565b9250506020620005ad8582860162000559565b9150509250929050565b6000620005c482620005cb565b9050919050565b600073ffffffffffffffffffffffffffffffffffffffff82169050919050565b600060028204905060018216806200060457607f821691505b602082108114156200061b576200061a62000621565b5b50919050565b7f4e487b7100000000000000000000000000000000000000000000000000000000600052602260045260246000fd5b600080fd5b6200066081620005b7565b81146200066c57600080fd5b50565b615f91806200067f6000396000f3fe608060405234801561001057600080fd5b50600436106102945760003560e01c80638456cb5911610167578063d547741f116100ce578063f367f20c11610087578063f367f20c146107bf578063f5298aca146107db578063f5f2e54b146107f7578063f851a44014610813578063f89879aa14610831578063fab853021461084f57610294565b8063d547741f14610701578063e63ab1e91461071d578063e92409841461073b578063e985e9c514610757578063eb17fba314610787578063f242432a146107a357610294565b8063a22cb46511610120578063a22cb4651461063f578063a55012bb1461065b578063a748de1b14610679578063b6db75a014610695578063ca15c873146106b3578063d5391393146106e357610294565b80638456cb591461057d5780638491f214146105875780639010d07c146105a557806391d14854146105d557806395e03eb414610605578063a217fddf1461062157610294565b80634391d2b11161020b5780635c975abb116101c45780635c975abb146104cf5780635d632faf146104ed57806363eaef5a146105095780636b20c454146105275780636dd8553a14610543578063731133e91461056157610294565b80634391d2b11461040f5780634a594c121461042b5780634a70f617146104495780634e1273f4146104675780634f04e2761461049757806350421109146104b357610294565b8063227024731161025d5780632270247314610363578063248a9ca3146103815780632eb2c2d6146103b15780632f2ff15d146103cd57806336568abe146103e95780633f4ba83a1461040557610294565b8062fdd58e1461029957806301ffc9a7146102c95780630e89341c146102f9578063188ec356146103295780631f7fdffa14610347575b600080fd5b6102b360048036038101906102ae919061443c565b61086b565b6040516102c09190615208565b60405180910390f35b6102e360048036038101906102de9190614739565b610935565b6040516102f09190614e9f565b60405180910390f35b610313600480360381019061030e9190614793565b610947565b6040516103209190614f26565b60405180910390f35b6103316109db565b60405161033e9190615208565b60405180910390f35b610361600480360381019061035c9190614341565b6109e3565b005b61036b610a65565b6040516103789190615208565b60405180910390f35b61039b6004803603810190610396919061468c565b610a6b565b6040516103a89190614eba565b60405180910390f35b6103cb60048036038101906103c69190614150565b610a8a565b005b6103e760048036038101906103e291906146b9565b610b2b565b005b61040360048036038101906103fe91906146b9565b610b5f565b005b61040d610b93565b005b6104296004803603810190610424919061443c565b610c0d565b005b610433610c2d565b6040516104409190614ed5565b60405180910390f35b610451610c53565b60405161045e9190614f0b565b60405180910390f35b610481600480360381019061047c9190614552565b610c79565b60405161048e9190614e46565b60405180910390f35b6104b160048036038101906104ac91906140a3565b610d92565b005b6104cd60048036038101906104c891906145ca565b610ea7565b005b6104d7610f4c565b6040516104e49190614e9f565b60405180910390f35b610507600480360381019061050291906140a3565b610f63565b005b610511611037565b60405161051e9190614ef0565b60405180910390f35b610541600480360381019061053c91906142b6565b61105d565b005b61054b6110fa565b6040516105589190615208565b60405180910390f35b61057b600480360381019061057691906144cf565b61119b565b005b61058561121d565b005b61058f611297565b60405161059c9190615208565b60405180910390f35b6105bf60048036038101906105ba91906146f9565b611349565b6040516105cc9190614d40565b60405180910390f35b6105ef60048036038101906105ea91906146b9565b611378565b6040516105fc9190614e9f565b60405180910390f35b61061f600480360381019061061a9190614793565b6113e2565b005b610629611525565b6040516106369190614eba565b60405180910390f35b610659600480360381019061065491906143fc565b61152c565b005b6106636116ad565b6040516106709190614d40565b60405180910390f35b610693600480360381019061068e91906147ed565b6116b5565b005b61069d61185c565b6040516106aa9190614e9f565b60405180910390f35b6106cd60048036038101906106c8919061468c565b6118c5565b6040516106da9190615208565b60405180910390f35b6106eb6118e9565b6040516106f89190614eba565b60405180910390f35b61071b600480360381019061071691906146b9565b61190d565b005b610725611941565b6040516107329190614eba565b60405180910390f35b610755600480360381019061075091906147ed565b611965565b005b610771600480360381019061076c9190614110565b611a26565b60405161077e9190614e9f565b60405180910390f35b6107a1600480360381019061079c91906140d0565b611aba565b005b6107bd60048036038101906107b8919061421f565b611b95565b005b6107d960048036038101906107d4919061443c565b611c36565b005b6107f560048036038101906107f0919061447c565b611c46565b005b610811600480360381019061080c91906140a3565b611ce3565b005b61081b611db7565b6040516108289190614d40565b60405180910390f35b610839611ddd565b6040516108469190615208565b60405180910390f35b610869600480360381019061086491906140a3565b611e75565b005b60008073ffffffffffffffffffffffffffffffffffffffff168373ffffffffffffffffffffffffffffffffffffffff1614156108dc576040517f08c379a00000000000000000000000000000000000000000000000000000000081526004016108d390614fc8565b60405180910390fd5b6002600083815260200190815260200160002060008473ffffffffffffffffffffffffffffffffffffffff1673ffffffffffffffffffffffffffffffffffffffff16815260200190815260200160002054905092915050565b600061094082611f87565b9050919050565b606060048054610956906155c2565b80601f0160208091040260200160405190810160405280929190818152602001828054610982906155c2565b80156109cf5780601f106109a4576101008083540402835291602001916109cf565b820191906000526020600020905b8154815290600101906020018083116109b257829003601f168201915b50505050509050919050565b600042905090565b610a147f9f2df0fed2c77648de5860a4cc508cd0818c85b8b8a1ab4ceeef8d981c8956a6610a0f612069565b611378565b610a53576040517f08c379a0000000000000000000000000000000000000000000000000000000008152600401610a4a906150e8565b60405180910390fd5b610a5f84848484612071565b50505050565b600c5481565b6000806000838152602001908152602001600020600101549050919050565b610a92612069565b73ffffffffffffffffffffffffffffffffffffffff168573ffffffffffffffffffffffffffffffffffffffff161480610ad85750610ad785610ad2612069565b611a26565b5b610b17576040517f08c379a0000000000000000000000000000000000000000000000000000000008152600401610b0e906150a8565b60405180910390fd5b610b248585858585612290565b5050505050565b610b3582826125a7565b610b5a8160016000858152602001908152602001600020611f5790919063ffffffff16565b505050565b610b6982826125d0565b610b8e816001600085815260200190815260200160002061265390919063ffffffff16565b505050565b610bc47f65d7a28e3265b37a6474929f336521b332c1681b933f6cb9f3376673440d862a610bbf612069565b611378565b610c03576040517f08c379a0000000000000000000000000000000000000000000000000000000008152600401610bfa90615128565b60405180910390fd5b610c0b612683565b565b610c298282600160405180602001604052806000815250612725565b5050565b600e60009054906101000a900473ffffffffffffffffffffffffffffffffffffffff1681565b601060009054906101000a900473ffffffffffffffffffffffffffffffffffffffff1681565b60608151835114610cbf576040517f08c379a0000000000000000000000000000000000000000000000000000000008152600401610cb690615188565b60405180910390fd5b6000835167ffffffffffffffff811115610cdc57610cdb61572a565b5b604051908082528060200260200182016040528015610d0a5781602001602082028036833780820191505090505b50905060005b8451811015610d8757610d57858281518110610d2f57610d2e6156fb565b5b6020026020010151858381518110610d4a57610d496156fb565b5b602002602001015161086b565b828281518110610d6a57610d696156fb565b5b60200260200101818152505080610d8090615625565b9050610d10565b508091505092915050565b600760009054906101000a900473ffffffffffffffffffffffffffffffffffffffff1673ffffffffffffffffffffffffffffffffffffffff163373ffffffffffffffffffffffffffffffffffffffff1614610e22576040517f08c379a0000000000000000000000000000000000000000000000000000000008152600401610e1990615048565b60405180910390fd5b80601060006101000a81548173ffffffffffffffffffffffffffffffffffffffff021916908373ffffffffffffffffffffffffffffffffffffffff16021790555080600a60006101000a81548173ffffffffffffffffffffffffffffffffffffffff021916908373ffffffffffffffffffffffffffffffffffffffff16021790555050565b610f453382878780806020026020016040519081016040528093929190818152602001838360200280828437600081840152601f19601f82011690508083019250505050505050868680806020026020016040519081016040528093929190818152602001838360200280828437600081840152601f19601f8201169050808301925050505050505060405180602001604052806000815250610a8a565b5050505050565b6000600560009054906101000a900460ff16905090565b600760009054906101000a900473ffffffffffffffffffffffffffffffffffffffff1673ffffffffffffffffffffffffffffffffffffffff163373ffffffffffffffffffffffffffffffffffffffff1614610ff3576040517f08c379a0000000000000000000000000000000000000000000000000000000008152600401610fea90615048565b60405180910390fd5b80600e60006101000a81548173ffffffffffffffffffffffffffffffffffffffff021916908373ffffffffffffffffffffffffffffffffffffffff16021790555050565b600f60009054906101000a900473ffffffffffffffffffffffffffffffffffffffff1681565b611065612069565b73ffffffffffffffffffffffffffffffffffffffff168373ffffffffffffffffffffffffffffffffffffffff1614806110ab57506110aa836110a5612069565b611a26565b5b6110ea576040517f08c379a00000000000000000000000000000000000000000000000000000000081526004016110e190615028565b60405180910390fd5b6110f58383836128bc565b505050565b6000600760009054906101000a900473ffffffffffffffffffffffffffffffffffffffff1673ffffffffffffffffffffffffffffffffffffffff163373ffffffffffffffffffffffffffffffffffffffff161461118c576040517f08c379a000000000000000000000000000000000000000000000000000000000815260040161118390615048565b60405180910390fd5b611196600d612b6f565b905090565b6111cc7f9f2df0fed2c77648de5860a4cc508cd0818c85b8b8a1ab4ceeef8d981c8956a66111c7612069565b611378565b61120b576040517f08c379a0000000000000000000000000000000000000000000000000000000008152600401611202906150e8565b60405180910390fd5b61121784848484612725565b50505050565b61124e7f65d7a28e3265b37a6474929f336521b332c1681b933f6cb9f3376673440d862a611249612069565b611378565b61128d576040517f08c379a000000000000000000000000000000000000000000000000000000000815260040161128490615148565b60405180910390fd5b611295612b7d565b565b6000600e60009054906101000a900473ffffffffffffffffffffffffffffffffffffffff1673ffffffffffffffffffffffffffffffffffffffff166370a08231306040518263ffffffff1660e01b81526004016112f49190614d40565b60206040518083038186803b15801561130c57600080fd5b505afa158015611320573d6000803e3d6000fd5b505050506040513d601f19601f8201168201806040525081019061134491906147c0565b905090565b60006113708260016000868152602001908152602001600020612c2090919063ffffffff16565b905092915050565b600080600084815260200190815260200160002060000160008373ffffffffffffffffffffffffffffffffffffffff1673ffffffffffffffffffffffffffffffffffffffff16815260200190815260200160002060009054906101000a900460ff16905092915050565b600760009054906101000a900473ffffffffffffffffffffffffffffffffffffffff1673ffffffffffffffffffffffffffffffffffffffff163373ffffffffffffffffffffffffffffffffffffffff1614611472576040517f08c379a000000000000000000000000000000000000000000000000000000000815260040161146990615048565b60405180910390fd5b600e60009054906101000a900473ffffffffffffffffffffffffffffffffffffffff1673ffffffffffffffffffffffffffffffffffffffff1663a9059cbb33836040518363ffffffff1660e01b81526004016114cf929190614e1d565b602060405180830381600087803b1580156114e957600080fd5b505af11580156114fd573d6000803e3d6000fd5b505050506040513d601f19601f82011682018060405250810190611521919061465f565b5050565b6000801b81565b8173ffffffffffffffffffffffffffffffffffffffff1661154b612069565b73ffffffffffffffffffffffffffffffffffffffff1614156115a2576040517f08c379a000000000000000000000000000000000000000000000000000000000815260040161159990615168565b60405180910390fd5b80600360006115af612069565b73ffffffffffffffffffffffffffffffffffffffff1673ffffffffffffffffffffffffffffffffffffffff16815260200190815260200160002060008473ffffffffffffffffffffffffffffffffffffffff1673ffffffffffffffffffffffffffffffffffffffff16815260200190815260200160002060006101000a81548160ff0219169083151502179055508173ffffffffffffffffffffffffffffffffffffffff1661165c612069565b73ffffffffffffffffffffffffffffffffffffffff167f17307eab39ab6107e8899845ad3d59bd9653f200f220920489ca2b5937696c31836040516116a19190614e9f565b60405180910390a35050565b600030905090565b600760009054906101000a900473ffffffffffffffffffffffffffffffffffffffff1673ffffffffffffffffffffffffffffffffffffffff163373ffffffffffffffffffffffffffffffffffffffff1614611745576040517f08c379a000000000000000000000000000000000000000000000000000000000815260040161173c90615048565b60405180910390fd5b600c600081548092919061175890615625565b919050555061179a600a60009054906101000a900473ffffffffffffffffffffffffffffffffffffffff16838360405180602001604052806000815250612725565b6117c7600860009054906101000a900473ffffffffffffffffffffffffffffffffffffffff16600161152c565b6117f4600a60009054906101000a900473ffffffffffffffffffffffffffffffffffffffff16600161152c565b611821600b60009054906101000a900473ffffffffffffffffffffffffffffffffffffffff16600161152c565b61184e600960009054906101000a900473ffffffffffffffffffffffffffffffffffffffff16600161152c565b611858600d612c3a565b5050565b60003373ffffffffffffffffffffffffffffffffffffffff16600760009054906101000a900473ffffffffffffffffffffffffffffffffffffffff1673ffffffffffffffffffffffffffffffffffffffff1614156118bd57600190506118c2565b600090505b90565b60006118e260016000848152602001908152602001600020612c50565b9050919050565b7f9f2df0fed2c77648de5860a4cc508cd0818c85b8b8a1ab4ceeef8d981c8956a681565b6119178282612c65565b61193c816001600085815260200190815260200160002061265390919063ffffffff16565b505050565b7f65d7a28e3265b37a6474929f336521b332c1681b933f6cb9f3376673440d862a81565b600760009054906101000a900473ffffffffffffffffffffffffffffffffffffffff1673ffffffffffffffffffffffffffffffffffffffff163373ffffffffffffffffffffffffffffffffffffffff16146119f5576040517f08c379a00000000000000000000000000000000000000000000000000000000081526004016119ec90615048565b60405180910390fd5b611a22600a60009054906101000a900473ffffffffffffffffffffffffffffffffffffffff168383612c8e565b5050565b6000600360008473ffffffffffffffffffffffffffffffffffffffff1673ffffffffffffffffffffffffffffffffffffffff16815260200190815260200160002060008373ffffffffffffffffffffffffffffffffffffffff1673ffffffffffffffffffffffffffffffffffffffff16815260200190815260200160002060009054906101000a900460ff16905092915050565b600760009054906101000a900473ffffffffffffffffffffffffffffffffffffffff1673ffffffffffffffffffffffffffffffffffffffff163373ffffffffffffffffffffffffffffffffffffffff1614611b4a576040517f08c379a0000000000000000000000000000000000000000000000000000000008152600401611b4190615048565b60405180910390fd5b8173ffffffffffffffffffffffffffffffffffffffff166108fc829081150290604051600060405180830381858888f19350505050158015611b90573d6000803e3d6000fd5b505050565b611b9d612069565b73ffffffffffffffffffffffffffffffffffffffff168573ffffffffffffffffffffffffffffffffffffffff161480611be35750611be285611bdd612069565b611a26565b5b611c22576040517f08c379a0000000000000000000000000000000000000000000000000000000008152600401611c1990615028565b60405180910390fd5b611c2f8585858585612ead565b5050505050565b611c4282826001612c8e565b5050565b611c4e612069565b73ffffffffffffffffffffffffffffffffffffffff168373ffffffffffffffffffffffffffffffffffffffff161480611c945750611c9383611c8e612069565b611a26565b5b611cd3576040517f08c379a0000000000000000000000000000000000000000000000000000000008152600401611cca90615028565b60405180910390fd5b611cde838383612c8e565b505050565b600760009054906101000a900473ffffffffffffffffffffffffffffffffffffffff1673ffffffffffffffffffffffffffffffffffffffff163373ffffffffffffffffffffffffffffffffffffffff1614611d73576040517f08c379a0000000000000000000000000000000000000000000000000000000008152600401611d6a90615048565b60405180910390fd5b80600b60006101000a81548173ffffffffffffffffffffffffffffffffffffffff021916908373ffffffffffffffffffffffffffffffffffffffff16021790555050565b600760009054906101000a900473ffffffffffffffffffffffffffffffffffffffff1681565b6000600760009054906101000a900473ffffffffffffffffffffffffffffffffffffffff1673ffffffffffffffffffffffffffffffffffffffff163373ffffffffffffffffffffffffffffffffffffffff1614611e6f576040517f08c379a0000000000000000000000000000000000000000000000000000000008152600401611e6690615048565b60405180910390fd5b47905090565b600760009054906101000a900473ffffffffffffffffffffffffffffffffffffffff1673ffffffffffffffffffffffffffffffffffffffff163373ffffffffffffffffffffffffffffffffffffffff1614611f05576040517f08c379a0000000000000000000000000000000000000000000000000000000008152600401611efc90615048565b60405180910390fd5b80600f60006101000a81548173ffffffffffffffffffffffffffffffffffffffff021916908373ffffffffffffffffffffffffffffffffffffffff16021790555050565b611f538282613132565b5050565b6000611f7f836000018373ffffffffffffffffffffffffffffffffffffffff1660001b613212565b905092915050565b60007fd9b67a26000000000000000000000000000000000000000000000000000000007bffffffffffffffffffffffffffffffffffffffffffffffffffffffff1916827bffffffffffffffffffffffffffffffffffffffffffffffffffffffff1916148061205257507f0e89341c000000000000000000000000000000000000000000000000000000007bffffffffffffffffffffffffffffffffffffffffffffffffffffffff1916827bffffffffffffffffffffffffffffffffffffffffffffffffffffffff1916145b80612062575061206182613282565b5b9050919050565b600033905090565b600073ffffffffffffffffffffffffffffffffffffffff168473ffffffffffffffffffffffffffffffffffffffff1614156120e1576040517f08c379a00000000000000000000000000000000000000000000000000000000081526004016120d8906151c8565b60405180910390fd5b8151835114612125576040517f08c379a000000000000000000000000000000000000000000000000000000000815260040161211c906151a8565b60405180910390fd5b600061212f612069565b9050612140816000878787876132fc565b60005b84518110156121fa5783818151811061215f5761215e6156fb565b5b60200260200101516002600087848151811061217e5761217d6156fb565b5b6020026020010151815260200190815260200160002060008873ffffffffffffffffffffffffffffffffffffffff1673ffffffffffffffffffffffffffffffffffffffff16815260200190815260200160002060008282546121e09190615376565b9250508190555080806121f290615625565b915050612143565b508473ffffffffffffffffffffffffffffffffffffffff16600073ffffffffffffffffffffffffffffffffffffffff168273ffffffffffffffffffffffffffffffffffffffff167f4a39dc06d4c0dbc64b70af90fd698a233a518aa5d07e595d983b8c0526c8f7fb8787604051612272929190614e68565b60405180910390a461228981600087878787613312565b5050505050565b81518351146122d4576040517f08c379a00000000000000000000000000000000000000000000000000000000081526004016122cb906151a8565b60405180910390fd5b600073ffffffffffffffffffffffffffffffffffffffff168473ffffffffffffffffffffffffffffffffffffffff161415612344576040517f08c379a000000000000000000000000000000000000000000000000000000000815260040161233b90615088565b60405180910390fd5b600061234e612069565b905061235e8187878787876132fc565b60005b845181101561251257600085828151811061237f5761237e6156fb565b5b60200260200101519050600085838151811061239e5761239d6156fb565b5b6020026020010151905060006002600084815260200190815260200160002060008b73ffffffffffffffffffffffffffffffffffffffff1673ffffffffffffffffffffffffffffffffffffffff16815260200190815260200160002054905081811015612440576040517f08c379a000000000000000000000000000000000000000000000000000000000815260040161243790615108565b60405180910390fd5b8181036002600085815260200190815260200160002060008c73ffffffffffffffffffffffffffffffffffffffff1673ffffffffffffffffffffffffffffffffffffffff16815260200190815260200160002081905550816002600085815260200190815260200160002060008b73ffffffffffffffffffffffffffffffffffffffff1673ffffffffffffffffffffffffffffffffffffffff16815260200190815260200160002060008282546124f79190615376565b925050819055505050508061250b90615625565b9050612361565b508473ffffffffffffffffffffffffffffffffffffffff168673ffffffffffffffffffffffffffffffffffffffff168273ffffffffffffffffffffffffffffffffffffffff167f4a39dc06d4c0dbc64b70af90fd698a233a518aa5d07e595d983b8c0526c8f7fb8787604051612589929190614e68565b60405180910390a461259f818787878787613312565b505050505050565b6125b082610a6b565b6125c1816125bc612069565b6134f9565b6125cb8383613132565b505050565b6125d8612069565b73ffffffffffffffffffffffffffffffffffffffff168173ffffffffffffffffffffffffffffffffffffffff1614612645576040517f08c379a000000000000000000000000000000000000000000000000000000000815260040161263c906151e8565b60405180910390fd5b61264f8282613596565b5050565b600061267b836000018373ffffffffffffffffffffffffffffffffffffffff1660001b613677565b905092915050565b61268b610f4c565b6126ca576040517f08c379a00000000000000000000000000000000000000000000000000000000081526004016126c190614fa8565b60405180910390fd5b6000600560006101000a81548160ff0219169083151502179055507f5db9ee0a495bf2e6ff9c91a7834c1ba4fdd244a5e8aa4e537bd38aeae4b073aa61270e612069565b60405161271b9190614d40565b60405180910390a1565b600073ffffffffffffffffffffffffffffffffffffffff168473ffffffffffffffffffffffffffffffffffffffff161415612795576040517f08c379a000000000000000000000000000000000000000000000000000000000815260040161278c906151c8565b60405180910390fd5b600061279f612069565b90506127c0816000876127b18861378b565b6127ba8861378b565b876132fc565b826002600086815260200190815260200160002060008773ffffffffffffffffffffffffffffffffffffffff1673ffffffffffffffffffffffffffffffffffffffff16815260200190815260200160002060008282546128209190615376565b925050819055508473ffffffffffffffffffffffffffffffffffffffff16600073ffffffffffffffffffffffffffffffffffffffff168273ffffffffffffffffffffffffffffffffffffffff167fc3d58168c5ae7397731d063d5bbf3d657854427343f4c083240f7aacaa2d0f62878760405161289e929190615223565b60405180910390a46128b581600087878787613805565b5050505050565b600073ffffffffffffffffffffffffffffffffffffffff168373ffffffffffffffffffffffffffffffffffffffff16141561292c576040517f08c379a0000000000000000000000000000000000000000000000000000000008152600401612923906150c8565b60405180910390fd5b8051825114612970576040517f08c379a0000000000000000000000000000000000000000000000000000000008152600401612967906151a8565b60405180910390fd5b600061297a612069565b905061299a818560008686604051806020016040528060008152506132fc565b60005b8351811015612ae95760008482815181106129bb576129ba6156fb565b5b6020026020010151905060008483815181106129da576129d96156fb565b5b6020026020010151905060006002600084815260200190815260200160002060008973ffffffffffffffffffffffffffffffffffffffff1673ffffffffffffffffffffffffffffffffffffffff16815260200190815260200160002054905081811015612a7c576040517f08c379a0000000000000000000000000000000000000000000000000000000008152600401612a7390614fe8565b60405180910390fd5b8181036002600085815260200190815260200160002060008a73ffffffffffffffffffffffffffffffffffffffff1673ffffffffffffffffffffffffffffffffffffffff168152602001908152602001600020819055505050508080612ae190615625565b91505061299d565b50600073ffffffffffffffffffffffffffffffffffffffff168473ffffffffffffffffffffffffffffffffffffffff168273ffffffffffffffffffffffffffffffffffffffff167f4a39dc06d4c0dbc64b70af90fd698a233a518aa5d07e595d983b8c0526c8f7fb8686604051612b61929190614e68565b60405180910390a450505050565b600081600001549050919050565b612b85610f4c565b15612bc5576040517f08c379a0000000000000000000000000000000000000000000000000000000008152600401612bbc90615068565b60405180910390fd5b6001600560006101000a81548160ff0219169083151502179055507f62e78cea01bee320cd4e420270b5ea74000d11b0c9f74754ebdbfc544b05a258612c09612069565b604051612c169190614d40565b60405180910390a1565b6000612c2f83600001836139ec565b60001c905092915050565b6001816000016000828254019250508190555050565b6000612c5e82600001613a17565b9050919050565b612c6e82610a6b565b612c7f81612c7a612069565b6134f9565b612c898383613596565b505050565b600073ffffffffffffffffffffffffffffffffffffffff168373ffffffffffffffffffffffffffffffffffffffff161415612cfe576040517f08c379a0000000000000000000000000000000000000000000000000000000008152600401612cf5906150c8565b60405180910390fd5b6000612d08612069565b9050612d3881856000612d1a8761378b565b612d238761378b565b604051806020016040528060008152506132fc565b60006002600085815260200190815260200160002060008673ffffffffffffffffffffffffffffffffffffffff1673ffffffffffffffffffffffffffffffffffffffff16815260200190815260200160002054905082811015612dd0576040517f08c379a0000000000000000000000000000000000000000000000000000000008152600401612dc790614fe8565b60405180910390fd5b8281036002600086815260200190815260200160002060008773ffffffffffffffffffffffffffffffffffffffff1673ffffffffffffffffffffffffffffffffffffffff16815260200190815260200160002081905550600073ffffffffffffffffffffffffffffffffffffffff168573ffffffffffffffffffffffffffffffffffffffff168373ffffffffffffffffffffffffffffffffffffffff167fc3d58168c5ae7397731d063d5bbf3d657854427343f4c083240f7aacaa2d0f628787604051612e9e929190615223565b60405180910390a45050505050565b600073ffffffffffffffffffffffffffffffffffffffff168473ffffffffffffffffffffffffffffffffffffffff161415612f1d576040517f08c379a0000000000000000000000000000000000000000000000000000000008152600401612f1490615088565b60405180910390fd5b6000612f27612069565b9050612f47818787612f388861378b565b612f418861378b565b876132fc565b60006002600086815260200190815260200160002060008873ffffffffffffffffffffffffffffffffffffffff1673ffffffffffffffffffffffffffffffffffffffff16815260200190815260200160002054905083811015612fdf576040517f08c379a0000000000000000000000000000000000000000000000000000000008152600401612fd690615108565b60405180910390fd5b8381036002600087815260200190815260200160002060008973ffffffffffffffffffffffffffffffffffffffff1673ffffffffffffffffffffffffffffffffffffffff16815260200190815260200160002081905550836002600087815260200190815260200160002060008873ffffffffffffffffffffffffffffffffffffffff1673ffffffffffffffffffffffffffffffffffffffff16815260200190815260200160002060008282546130969190615376565b925050819055508573ffffffffffffffffffffffffffffffffffffffff168773ffffffffffffffffffffffffffffffffffffffff168373ffffffffffffffffffffffffffffffffffffffff167fc3d58168c5ae7397731d063d5bbf3d657854427343f4c083240f7aacaa2d0f628888604051613113929190615223565b60405180910390a4613129828888888888613805565b50505050505050565b61313c8282611378565b61320e57600160008084815260200190815260200160002060000160008373ffffffffffffffffffffffffffffffffffffffff1673ffffffffffffffffffffffffffffffffffffffff16815260200190815260200160002060006101000a81548160ff0219169083151502179055506131b3612069565b73ffffffffffffffffffffffffffffffffffffffff168173ffffffffffffffffffffffffffffffffffffffff16837f2f8788117e7eff1d82e926ec794901d17c78024a50270940304540a733656f0d60405160405180910390a45b5050565b600061321e8383613a28565b61327757826000018290806001815401808255809150506001900390600052602060002001600090919091909150558260000180549050836001016000848152602001908152602001600020819055506001905061327c565b600090505b92915050565b60007f5a05180f000000000000000000000000000000000000000000000000000000007bffffffffffffffffffffffffffffffffffffffffffffffffffffffff1916827bffffffffffffffffffffffffffffffffffffffffffffffffffffffff191614806132f557506132f482613a4b565b5b9050919050565b61330a868686868686613ac5565b505050505050565b6133318473ffffffffffffffffffffffffffffffffffffffff16613b23565b156134f1578373ffffffffffffffffffffffffffffffffffffffff1663bc197c8187878686866040518663ffffffff1660e01b8152600401613377959493929190614d5b565b602060405180830381600087803b15801561339157600080fd5b505af19250505080156133c257506040513d601f19601f820116820180604052508101906133bf9190614766565b60015b613468576133ce615759565b806308c379a0141561342b57506133e3615e3b565b806133ee575061342d565b806040517f08c379a00000000000000000000000000000000000000000000000000000000081526004016134229190614f26565b60405180910390fd5b505b6040517f08c379a000000000000000000000000000000000000000000000000000000000815260040161345f90614f48565b60405180910390fd5b63bc197c8160e01b7bffffffffffffffffffffffffffffffffffffffffffffffffffffffff1916817bffffffffffffffffffffffffffffffffffffffffffffffffffffffff1916146134ef576040517f08c379a00000000000000000000000000000000000000000000000000000000081526004016134e690614f88565b60405180910390fd5b505b505050505050565b6135038282611378565b613592576135288173ffffffffffffffffffffffffffffffffffffffff166014613b36565b6135368360001c6020613b36565b604051602001613547929190614d06565b6040516020818303038152906040526040517f08c379a00000000000000000000000000000000000000000000000000000000081526004016135899190614f26565b60405180910390fd5b5050565b6135a08282611378565b1561367357600080600084815260200190815260200160002060000160008373ffffffffffffffffffffffffffffffffffffffff1673ffffffffffffffffffffffffffffffffffffffff16815260200190815260200160002060006101000a81548160ff021916908315150217905550613618612069565b73ffffffffffffffffffffffffffffffffffffffff168173ffffffffffffffffffffffffffffffffffffffff16837ff6391f5c32d9c69d2a47ea670b442974b53935d1edc7fd64eb21e047a839171b60405160405180910390a45b5050565b6000808360010160008481526020019081526020016000205490506000811461377f5760006001826136a99190615426565b90506000600186600001805490506136c19190615426565b90508181146137305760008660000182815481106136e2576136e16156fb565b5b9060005260206000200154905080876000018481548110613706576137056156fb565b5b90600052602060002001819055508387600101600083815260200190815260200160002081905550505b85600001805480613744576137436156cc565b5b600190038181906000526020600020016000905590558560010160008681526020019081526020016000206000905560019350505050613785565b60009150505b92915050565b60606000600167ffffffffffffffff8111156137aa576137a961572a565b5b6040519080825280602002602001820160405280156137d85781602001602082028036833780820191505090505b50905082816000815181106137f0576137ef6156fb565b5b60200260200101818152505080915050919050565b6138248473ffffffffffffffffffffffffffffffffffffffff16613b23565b156139e4578373ffffffffffffffffffffffffffffffffffffffff1663f23a6e6187878686866040518663ffffffff1660e01b815260040161386a959493929190614dc3565b602060405180830381600087803b15801561388457600080fd5b505af19250505080156138b557506040513d601f19601f820116820180604052508101906138b29190614766565b60015b61395b576138c1615759565b806308c379a0141561391e57506138d6615e3b565b806138e15750613920565b806040517f08c379a00000000000000000000000000000000000000000000000000000000081526004016139159190614f26565b60405180910390fd5b505b6040517f08c379a000000000000000000000000000000000000000000000000000000000815260040161395290614f48565b60405180910390fd5b63f23a6e6160e01b7bffffffffffffffffffffffffffffffffffffffffffffffffffffffff1916817bffffffffffffffffffffffffffffffffffffffffffffffffffffffff1916146139e2576040517f08c379a00000000000000000000000000000000000000000000000000000000081526004016139d990614f88565b60405180910390fd5b505b505050505050565b6000826000018281548110613a0457613a036156fb565b5b9060005260206000200154905092915050565b600081600001805490509050919050565b600080836001016000848152602001908152602001600020541415905092915050565b60007f7965db0b000000000000000000000000000000000000000000000000000000007bffffffffffffffffffffffffffffffffffffffffffffffffffffffff1916827bffffffffffffffffffffffffffffffffffffffffffffffffffffffff19161480613abe5750613abd82613d72565b5b9050919050565b613ad3868686868686613ddc565b613adb610f4c565b15613b1b576040517f08c379a0000000000000000000000000000000000000000000000000000000008152600401613b1290615008565b60405180910390fd5b505050505050565b600080823b905060008111915050919050565b606060006002836002613b4991906153cc565b613b539190615376565b67ffffffffffffffff811115613b6c57613b6b61572a565b5b6040519080825280601f01601f191660200182016040528015613b9e5781602001600182028036833780820191505090505b5090507f300000000000000000000000000000000000000000000000000000000000000081600081518110613bd657613bd56156fb565b5b60200101907effffffffffffffffffffffffffffffffffffffffffffffffffffffffffffff1916908160001a9053507f780000000000000000000000000000000000000000000000000000000000000081600181518110613c3a57613c396156fb565b5b60200101907effffffffffffffffffffffffffffffffffffffffffffffffffffffffffffff1916908160001a90535060006001846002613c7a91906153cc565b613c849190615376565b90505b6001811115613d24577f3031323334353637383961626364656600000000000000000000000000000000600f861660108110613cc657613cc56156fb565b5b1a60f81b828281518110613cdd57613cdc6156fb565b5b60200101907effffffffffffffffffffffffffffffffffffffffffffffffffffffffffffff1916908160001a905350600485901c945080613d1d90615598565b9050613c87565b5060008414613d68576040517f08c379a0000000000000000000000000000000000000000000000000000000008152600401613d5f90614f68565b60405180910390fd5b8091505092915050565b60007f01ffc9a7000000000000000000000000000000000000000000000000000000007bffffffffffffffffffffffffffffffffffffffffffffffffffffffff1916827bffffffffffffffffffffffffffffffffffffffffffffffffffffffff1916149050919050565b505050505050565b6000613df7613df284615271565b61524c565b90508083825260208201905082856020860282011115613e1a57613e19615785565b5b60005b85811015613e4a5781613e308882613f06565b845260208401935060208301925050600181019050613e1d565b5050509392505050565b6000613e67613e628461529d565b61524c565b90508083825260208201905082856020860282011115613e8a57613e89615785565b5b60005b85811015613eba5781613ea08882614079565b845260208401935060208301925050600181019050613e8d565b5050509392505050565b6000613ed7613ed2846152c9565b61524c565b905082815260208101848484011115613ef357613ef261578a565b5b613efe848285615556565b509392505050565b600081359050613f1581615ed1565b92915050565b600081359050613f2a81615ee8565b92915050565b600082601f830112613f4557613f44615780565b5b8135613f55848260208601613de4565b91505092915050565b60008083601f840112613f7457613f73615780565b5b8235905067ffffffffffffffff811115613f9157613f9061577b565b5b602083019150836020820283011115613fad57613fac615785565b5b9250929050565b600082601f830112613fc957613fc8615780565b5b8135613fd9848260208601613e54565b91505092915050565b600081359050613ff181615eff565b92915050565b60008151905061400681615eff565b92915050565b60008135905061401b81615f16565b92915050565b60008135905061403081615f2d565b92915050565b60008151905061404581615f2d565b92915050565b600082601f8301126140605761405f615780565b5b8135614070848260208601613ec4565b91505092915050565b60008135905061408881615f44565b92915050565b60008151905061409d81615f44565b92915050565b6000602082840312156140b9576140b8615794565b5b60006140c784828501613f06565b91505092915050565b600080604083850312156140e7576140e6615794565b5b60006140f585828601613f1b565b925050602061410685828601614079565b9150509250929050565b6000806040838503121561412757614126615794565b5b600061413585828601613f06565b925050602061414685828601613f06565b9150509250929050565b600080600080600060a0868803121561416c5761416b615794565b5b600061417a88828901613f06565b955050602061418b88828901613f06565b945050604086013567ffffffffffffffff8111156141ac576141ab61578f565b5b6141b888828901613fb4565b935050606086013567ffffffffffffffff8111156141d9576141d861578f565b5b6141e588828901613fb4565b925050608086013567ffffffffffffffff8111156142065761420561578f565b5b6142128882890161404b565b9150509295509295909350565b600080600080600060a0868803121561423b5761423a615794565b5b600061424988828901613f06565b955050602061425a88828901613f06565b945050604061426b88828901614079565b935050606061427c88828901614079565b925050608086013567ffffffffffffffff81111561429d5761429c61578f565b5b6142a98882890161404b565b9150509295509295909350565b6000806000606084860312156142cf576142ce615794565b5b60006142dd86828701613f06565b935050602084013567ffffffffffffffff8111156142fe576142fd61578f565b5b61430a86828701613fb4565b925050604084013567ffffffffffffffff81111561432b5761432a61578f565b5b61433786828701613fb4565b9150509250925092565b6000806000806080858703121561435b5761435a615794565b5b600061436987828801613f06565b945050602085013567ffffffffffffffff81111561438a5761438961578f565b5b61439687828801613fb4565b935050604085013567ffffffffffffffff8111156143b7576143b661578f565b5b6143c387828801613fb4565b925050606085013567ffffffffffffffff8111156143e4576143e361578f565b5b6143f08782880161404b565b91505092959194509250565b6000806040838503121561441357614412615794565b5b600061442185828601613f06565b925050602061443285828601613fe2565b9150509250929050565b6000806040838503121561445357614452615794565b5b600061446185828601613f06565b925050602061447285828601614079565b9150509250929050565b60008060006060848603121561449557614494615794565b5b60006144a386828701613f06565b93505060206144b486828701614079565b92505060406144c586828701614079565b9150509250925092565b600080600080608085870312156144e9576144e8615794565b5b60006144f787828801613f06565b945050602061450887828801614079565b935050604061451987828801614079565b925050606085013567ffffffffffffffff81111561453a5761453961578f565b5b6145468782880161404b565b91505092959194509250565b6000806040838503121561456957614568615794565b5b600083013567ffffffffffffffff8111156145875761458661578f565b5b61459385828601613f30565b925050602083013567ffffffffffffffff8111156145b4576145b361578f565b5b6145c085828601613fb4565b9150509250929050565b6000806000806000606086880312156145e6576145e5615794565b5b600086013567ffffffffffffffff8111156146045761460361578f565b5b61461088828901613f5e565b9550955050602086013567ffffffffffffffff8111156146335761463261578f565b5b61463f88828901613f5e565b9350935050604061465288828901613f06565b9150509295509295909350565b60006020828403121561467557614674615794565b5b600061468384828501613ff7565b91505092915050565b6000602082840312156146a2576146a1615794565b5b60006146b08482850161400c565b91505092915050565b600080604083850312156146d0576146cf615794565b5b60006146de8582860161400c565b92505060206146ef85828601613f06565b9150509250929050565b600080604083850312156147105761470f615794565b5b600061471e8582860161400c565b925050602061472f85828601614079565b9150509250929050565b60006020828403121561474f5761474e615794565b5b600061475d84828501614021565b91505092915050565b60006020828403121561477c5761477b615794565b5b600061478a84828501614036565b91505092915050565b6000602082840312156147a9576147a8615794565b5b60006147b784828501614079565b91505092915050565b6000602082840312156147d6576147d5615794565b5b60006147e48482850161408e565b91505092915050565b6000806040838503121561480457614803615794565b5b600061481285828601614079565b925050602061482385828601614079565b9150509250929050565b60006148398383614ce8565b60208301905092915050565b61484e8161545a565b82525050565b600061485f8261530a565b6148698185615338565b9350614874836152fa565b8060005b838110156148a557815161488c888261482d565b97506148978361532b565b925050600181019050614878565b5085935050505092915050565b6148bb8161547e565b82525050565b6148ca8161548a565b82525050565b60006148db82615315565b6148e58185615349565b93506148f5818560208601615565565b6148fe81615799565b840191505092915050565b614912816154ea565b82525050565b6149218161550e565b82525050565b61493081615532565b82525050565b600061494182615320565b61494b818561535a565b935061495b818560208601615565565b61496481615799565b840191505092915050565b600061497a82615320565b614984818561536b565b9350614994818560208601615565565b80840191505092915050565b60006149ad60348361535a565b91506149b8826157b7565b604082019050919050565b60006149d060208361535a565b91506149db82615806565b602082019050919050565b60006149f360288361535a565b91506149fe8261582f565b604082019050919050565b6000614a1660148361535a565b9150614a218261587e565b602082019050919050565b6000614a39602b8361535a565b9150614a44826158a7565b604082019050919050565b6000614a5c60248361535a565b9150614a67826158f6565b604082019050919050565b6000614a7f602c8361535a565b9150614a8a82615945565b604082019050919050565b6000614aa260298361535a565b9150614aad82615994565b604082019050919050565b6000614ac560028361535a565b9150614ad0826159e3565b602082019050919050565b6000614ae860108361535a565b9150614af382615a0c565b602082019050919050565b6000614b0b60258361535a565b9150614b1682615a35565b604082019050919050565b6000614b2e60328361535a565b9150614b3982615a84565b604082019050919050565b6000614b5160238361535a565b9150614b5c82615ad3565b604082019050919050565b6000614b7460388361535a565b9150614b7f82615b22565b604082019050919050565b6000614b97602a8361535a565b9150614ba282615b71565b604082019050919050565b6000614bba603b8361535a565b9150614bc582615bc0565b604082019050919050565b6000614bdd60398361535a565b9150614be882615c0f565b604082019050919050565b6000614c0060178361536b565b9150614c0b82615c5e565b601782019050919050565b6000614c2360298361535a565b9150614c2e82615c87565b604082019050919050565b6000614c4660298361535a565b9150614c5182615cd6565b604082019050919050565b6000614c6960288361535a565b9150614c7482615d25565b604082019050919050565b6000614c8c60218361535a565b9150614c9782615d74565b604082019050919050565b6000614caf60118361536b565b9150614cba82615dc3565b601182019050919050565b6000614cd2602f8361535a565b9150614cdd82615dec565b604082019050919050565b614cf1816154e0565b82525050565b614d00816154e0565b82525050565b6000614d1182614bf3565b9150614d1d828561496f565b9150614d2882614ca2565b9150614d34828461496f565b91508190509392505050565b6000602082019050614d556000830184614845565b92915050565b600060a082019050614d706000830188614845565b614d7d6020830187614845565b8181036040830152614d8f8186614854565b90508181036060830152614da38185614854565b90508181036080830152614db781846148d0565b90509695505050505050565b600060a082019050614dd86000830188614845565b614de56020830187614845565b614df26040830186614cf7565b614dff6060830185614cf7565b8181036080830152614e1181846148d0565b90509695505050505050565b6000604082019050614e326000830185614845565b614e3f6020830184614cf7565b9392505050565b60006020820190508181036000830152614e608184614854565b905092915050565b60006040820190508181036000830152614e828185614854565b90508181036020830152614e968184614854565b90509392505050565b6000602082019050614eb460008301846148b2565b92915050565b6000602082019050614ecf60008301846148c1565b92915050565b6000602082019050614eea6000830184614909565b92915050565b6000602082019050614f056000830184614918565b92915050565b6000602082019050614f206000830184614927565b92915050565b60006020820190508181036000830152614f408184614936565b905092915050565b60006020820190508181036000830152614f61816149a0565b9050919050565b60006020820190508181036000830152614f81816149c3565b9050919050565b60006020820190508181036000830152614fa1816149e6565b9050919050565b60006020820190508181036000830152614fc181614a09565b9050919050565b60006020820190508181036000830152614fe181614a2c565b9050919050565b6000602082019050818103600083015261500181614a4f565b9050919050565b6000602082019050818103600083015261502181614a72565b9050919050565b6000602082019050818103600083015261504181614a95565b9050919050565b6000602082019050818103600083015261506181614ab8565b9050919050565b6000602082019050818103600083015261508181614adb565b9050919050565b600060208201905081810360008301526150a181614afe565b9050919050565b600060208201905081810360008301526150c181614b21565b9050919050565b600060208201905081810360008301526150e181614b44565b9050919050565b6000602082019050818103600083015261510181614b67565b9050919050565b6000602082019050818103600083015261512181614b8a565b9050919050565b6000602082019050818103600083015261514181614bad565b9050919050565b6000602082019050818103600083015261516181614bd0565b9050919050565b6000602082019050818103600083015261518181614c16565b9050919050565b600060208201905081810360008301526151a181614c39565b9050919050565b600060208201905081810360008301526151c181614c5c565b9050919050565b600060208201905081810360008301526151e181614c7f565b9050919050565b6000602082019050818103600083015261520181614cc5565b9050919050565b600060208201905061521d6000830184614cf7565b92915050565b60006040820190506152386000830185614cf7565b6152456020830184614cf7565b9392505050565b6000615256615267565b905061526282826155f4565b919050565b6000604051905090565b600067ffffffffffffffff82111561528c5761528b61572a565b5b602082029050602081019050919050565b600067ffffffffffffffff8211156152b8576152b761572a565b5b602082029050602081019050919050565b600067ffffffffffffffff8211156152e4576152e361572a565b5b6152ed82615799565b9050602081019050919050565b6000819050602082019050919050565b600081519050919050565b600081519050919050565b600081519050919050565b6000602082019050919050565b600082825260208201905092915050565b600082825260208201905092915050565b600082825260208201905092915050565b600081905092915050565b6000615381826154e0565b915061538c836154e0565b9250827fffffffffffffffffffffffffffffffffffffffffffffffffffffffffffffffff038211156153c1576153c061566e565b5b828201905092915050565b60006153d7826154e0565b91506153e2836154e0565b9250817fffffffffffffffffffffffffffffffffffffffffffffffffffffffffffffffff048311821515161561541b5761541a61566e565b5b828202905092915050565b6000615431826154e0565b915061543c836154e0565b92508282101561544f5761544e61566e565b5b828203905092915050565b6000615465826154c0565b9050919050565b6000615477826154c0565b9050919050565b60008115159050919050565b6000819050919050565b60007fffffffff0000000000000000000000000000000000000000000000000000000082169050919050565b600073ffffffffffffffffffffffffffffffffffffffff82169050919050565b6000819050919050565b60006154f5826154fc565b9050919050565b6000615507826154c0565b9050919050565b600061551982615520565b9050919050565b600061552b826154c0565b9050919050565b600061553d82615544565b9050919050565b600061554f826154c0565b9050919050565b82818337600083830152505050565b60005b83811015615583578082015181840152602081019050615568565b83811115615592576000848401525b50505050565b60006155a3826154e0565b915060008214156155b7576155b661566e565b5b600182039050919050565b600060028204905060018216806155da57607f821691505b602082108114156155ee576155ed61569d565b5b50919050565b6155fd82615799565b810181811067ffffffffffffffff8211171561561c5761561b61572a565b5b80604052505050565b6000615630826154e0565b91507fffffffffffffffffffffffffffffffffffffffffffffffffffffffffffffffff8214156156635761566261566e565b5b600182019050919050565b7f4e487b7100000000000000000000000000000000000000000000000000000000600052601160045260246000fd5b7f4e487b7100000000000000000000000000000000000000000000000000000000600052602260045260246000fd5b7f4e487b7100000000000000000000000000000000000000000000000000000000600052603160045260246000fd5b7f4e487b7100000000000000000000000000000000000000000000000000000000600052603260045260246000fd5b7f4e487b7100000000000000000000000000000000000000000000000000000000600052604160045260246000fd5b600060033d11156157785760046000803e6157756000516157aa565b90505b90565b600080fd5b600080fd5b600080fd5b600080fd5b600080fd5b600080fd5b6000601f19601f8301169050919050565b60008160e01c9050919050565b7f455243313135353a207472616e7366657220746f206e6f6e204552433131353560008201527f526563656976657220696d706c656d656e746572000000000000000000000000602082015250565b7f537472696e67733a20686578206c656e67746820696e73756666696369656e74600082015250565b7f455243313135353a204552433131353552656365697665722072656a6563746560008201527f6420746f6b656e73000000000000000000000000000000000000000000000000602082015250565b7f5061757361626c653a206e6f7420706175736564000000000000000000000000600082015250565b7f455243313135353a2062616c616e636520717565727920666f7220746865207a60008201527f65726f2061646472657373000000000000000000000000000000000000000000602082015250565b7f455243313135353a206275726e20616d6f756e7420657863656564732062616c60008201527f616e636500000000000000000000000000000000000000000000000000000000602082015250565b7f455243313135355061757361626c653a20746f6b656e207472616e736665722060008201527f7768696c65207061757365640000000000000000000000000000000000000000602082015250565b7f455243313135353a2063616c6c6572206973206e6f74206f776e6572206e6f7260008201527f20617070726f7665640000000000000000000000000000000000000000000000602082015250565b7f4131000000000000000000000000000000000000000000000000000000000000600082015250565b7f5061757361626c653a2070617573656400000000000000000000000000000000600082015250565b7f455243313135353a207472616e7366657220746f20746865207a65726f20616460008201527f6472657373000000000000000000000000000000000000000000000000000000602082015250565b7f455243313135353a207472616e736665722063616c6c6572206973206e6f742060008201527f6f776e6572206e6f7220617070726f7665640000000000000000000000000000602082015250565b7f455243313135353a206275726e2066726f6d20746865207a65726f206164647260008201527f6573730000000000000000000000000000000000000000000000000000000000602082015250565b7f455243313135355072657365744d696e7465725061757365723a206d7573742060008201527f68617665206d696e74657220726f6c6520746f206d696e740000000000000000602082015250565b7f455243313135353a20696e73756666696369656e742062616c616e636520666f60008201527f72207472616e7366657200000000000000000000000000000000000000000000602082015250565b7f455243313135355072657365744d696e7465725061757365723a206d7573742060008201527f686176652070617573657220726f6c6520746f20756e70617573650000000000602082015250565b7f455243313135355072657365744d696e7465725061757365723a206d7573742060008201527f686176652070617573657220726f6c6520746f20706175736500000000000000602082015250565b7f416363657373436f6e74726f6c3a206163636f756e7420000000000000000000600082015250565b7f455243313135353a2073657474696e6720617070726f76616c2073746174757360008201527f20666f722073656c660000000000000000000000000000000000000000000000602082015250565b7f455243313135353a206163636f756e747320616e6420696473206c656e67746860008201527f206d69736d617463680000000000000000000000000000000000000000000000602082015250565b7f455243313135353a2069647320616e6420616d6f756e7473206c656e6774682060008201527f6d69736d61746368000000000000000000000000000000000000000000000000602082015250565b7f455243313135353a206d696e7420746f20746865207a65726f2061646472657360008201527f7300000000000000000000000000000000000000000000000000000000000000602082015250565b7f206973206d697373696e6720726f6c6520000000000000000000000000000000600082015250565b7f416363657373436f6e74726f6c3a2063616e206f6e6c792072656e6f756e636560008201527f20726f6c657320666f722073656c660000000000000000000000000000000000602082015250565b600060443d1015615e4b57615ece565b615e53615267565b60043d036004823e80513d602482011167ffffffffffffffff82111715615e7b575050615ece565b808201805167ffffffffffffffff811115615e995750505050615ece565b80602083010160043d038501811115615eb6575050505050615ece565b615ec5826020018501866155f4565b82955050505050505b90565b615eda8161545a565b8114615ee557600080fd5b50565b615ef18161546c565b8114615efc57600080fd5b50565b615f088161547e565b8114615f1357600080fd5b50565b615f1f8161548a565b8114615f2a57600080fd5b50565b615f3681615494565b8114615f4157600080fd5b50565b615f4d816154e0565b8114615f5857600080fd5b5056fea264697066735822122014eef145043401b99dbe1c37e207abb254dacc8e825aacffdd2c3de9e97b529c64736f6c63430008060033",
  "immutableReferences": {},
  "source": "// SPDX-License-Identifier: MIT\r\npragma solidity >=0.4.22 <0.9.0;\r\n\r\nimport \"../node_modules/@openzeppelin/contracts/security/ReentrancyGuard.sol\";\r\nimport \"../node_modules/@openzeppelin/contracts/token/ERC20/IERC20.sol\";\r\nimport \"../node_modules/@openzeppelin/contracts/token/ERC1155/IERC1155.sol\";\r\nimport \"../node_modules/@openzeppelin/contracts/token/ERC1155/presets/ERC1155PresetMinterPauser.sol\";\r\nimport \"../node_modules/@openzeppelin/contracts/access/AccessControl.sol\";\r\nimport \"../node_modules/@openzeppelin/contracts/utils/Counters.sol\";\r\nimport \"../contracts/PBPlayers.sol\";\r\nimport \"../contracts/PBProShopHolder.sol\";\r\n\r\n\r\n\r\ncontract PBProShopFactory is ERC1155PresetMinterPauser, ReentrancyGuard {\r\n\r\n    address public admin;\r\n    address proshopaddress;\r\n    address puckbuddiesplayeraddress;\r\n    address proshopholder;\r\n    address proshopmarketplaceaddress;\r\n    uint256 public skuCount;\r\n    using Counters for Counters.Counter;\r\n    Counters.Counter private _proshopItemsCreated;\r\n    IERC20 public buddies;\r\n    PBPlayers public pbPlayers;\r\n    PBProShopHolder public pbProShopHolder;\r\n\r\n    modifier onlyAdmin() {\r\n        require(msg.sender == admin, \"A1\");\r\n        _;\r\n    }\r\n\r\n    constructor(address _buddiesCoinAddress, address _puckbuddiesplayeraddress) ERC1155PresetMinterPauser(\"\") {\r\n        admin = msg.sender;\r\n        skuCount = 0;\r\n        buddies = IERC20(_buddiesCoinAddress);\r\n        pbPlayers = PBPlayers(_puckbuddiesplayeraddress);\r\n    }\r\n\r\n    function isAdmin() public view returns (bool){\r\n        if(admin == msg.sender){\r\n            return true;\r\n        } else return false;\r\n    }\r\n\r\n    function getProShopStats() public view onlyAdmin returns (uint) {\r\n        return (_proshopItemsCreated.current());\r\n    }\r\n\r\n    function updateBuddiesCoinAddress(address _buddiesCoinAddress) onlyAdmin external {\r\n     buddies = IERC20(_buddiesCoinAddress);\r\n    }\r\n\r\n    function updateProshopHolderAddress(address _pbProshopHolderAddress) external onlyAdmin {\r\n        pbProShopHolder = PBProShopHolder(_pbProshopHolderAddress);\r\n        proshopholder = _pbProshopHolderAddress;\r\n    }\r\n\r\n        function updateProshopMarketplaceAddress(address _pbProshopMarketplaceAddress) external onlyAdmin {\r\n        proshopmarketplaceaddress = _pbProshopMarketplaceAddress;\r\n    }\r\n\r\n    function updatePuckBuddiesPlayerAddress(address _puckbuddiesplayeraddress) external onlyAdmin {\r\n        pbPlayers = PBPlayers(_puckbuddiesplayeraddress);\r\n    }\r\n\r\n    function getPBProShopFactoryAddress() public view returns (address){\r\n        return address(this);\r\n    }\r\n\r\n    function newProduct(uint sku, uint qty) external onlyAdmin {\r\n        skuCount++;\r\n        _mint(proshopholder, sku, qty, \"\");\r\n        setApprovalForAll(proshopaddress, true);\r\n        setApprovalForAll(proshopholder, true);\r\n        setApprovalForAll(proshopmarketplaceaddress, true);\r\n        setApprovalForAll(puckbuddiesplayeraddress, true);\r\n        _proshopItemsCreated.increment();\r\n    }\r\n\r\n    function giftItem(uint[] calldata tokenId, uint[] calldata qty, address newOwner) public {\r\n        safeBatchTransferFrom(msg.sender, newOwner, tokenId, qty, \"\" );\r\n    }\r\n\r\n    function burnItems(uint token, uint qty ) external onlyAdmin {\r\n        _burn(proshopholder, token, qty);\r\n    }\r\n\r\n    function burnOnEquip(address owner, uint token) external {\r\n        _burn(owner,token, 1);\r\n    }\r\n\r\n    function mintOnUnequip(address owner, uint token) external {\r\n        _mint(owner, token, 1, \"\");\r\n    }\r\n\r\n    function getTimestamp() external view returns (uint){\r\n        return block.timestamp;\r\n    }\r\n\r\n    function getBNBBalance() external view onlyAdmin returns (uint) {\r\n        return address(this).balance;\r\n    }\r\n    \r\n    function getBudsBalance() external view returns (uint) {\r\n        return buddies.balanceOf(address(this));\r\n    }\r\n\r\n    function transferBNB(address payable _to, uint _amount) external onlyAdmin {\r\n        _to.transfer(_amount);\r\n    }\r\n\r\n    function transferBUDS(uint _amount) external onlyAdmin {\r\n        buddies.transfer(msg.sender, _amount);\r\n    }\r\n\r\n\r\n} ",
  "sourcePath": "O:\\Projects\\puck-buddies\\contracts\\PBProShopFactory.sol",
  "compiler": {
    "name": "solc",
    "version": "0.8.6+commit.11564f7e.Emscripten.clang"
  },
  "schemaVersion": "3.4.3",
  "updatedAt": "2022-01-07T21:58:19.801Z",
  "networkType": "ethereum",
  "devdoc": {
    "kind": "dev",
    "methods": {
      "balanceOf(address,uint256)": {
        "details": "See {IERC1155-balanceOf}. Requirements: - `account` cannot be the zero address."
      },
      "balanceOfBatch(address[],uint256[])": {
        "details": "See {IERC1155-balanceOfBatch}. Requirements: - `accounts` and `ids` must have the same length."
      },
      "getRoleAdmin(bytes32)": {
        "details": "Returns the admin role that controls `role`. See {grantRole} and {revokeRole}. To change a role's admin, use {_setRoleAdmin}."
      },
      "getRoleMember(bytes32,uint256)": {
        "details": "Returns one of the accounts that have `role`. `index` must be a value between 0 and {getRoleMemberCount}, non-inclusive. Role bearers are not sorted in any particular way, and their ordering may change at any point. WARNING: When using {getRoleMember} and {getRoleMemberCount}, make sure you perform all queries on the same block. See the following https://forum.openzeppelin.com/t/iterating-over-elements-on-enumerableset-in-openzeppelin-contracts/2296[forum post] for more information."
      },
      "getRoleMemberCount(bytes32)": {
        "details": "Returns the number of accounts that have `role`. Can be used together with {getRoleMember} to enumerate all bearers of a role."
      },
      "grantRole(bytes32,address)": {
        "details": "Overload {grantRole} to track enumerable memberships"
      },
      "hasRole(bytes32,address)": {
        "details": "Returns `true` if `account` has been granted `role`."
      },
      "isApprovedForAll(address,address)": {
        "details": "See {IERC1155-isApprovedForAll}."
      },
      "mint(address,uint256,uint256,bytes)": {
        "details": "Creates `amount` new tokens for `to`, of token type `id`. See {ERC1155-_mint}. Requirements: - the caller must have the `MINTER_ROLE`."
      },
      "mintBatch(address,uint256[],uint256[],bytes)": {
        "details": "xref:ROOT:erc1155.adoc#batch-operations[Batched] variant of {mint}."
      },
      "pause()": {
        "details": "Pauses all token transfers. See {ERC1155Pausable} and {Pausable-_pause}. Requirements: - the caller must have the `PAUSER_ROLE`."
      },
      "paused()": {
        "details": "Returns true if the contract is paused, and false otherwise."
      },
      "renounceRole(bytes32,address)": {
        "details": "Overload {renounceRole} to track enumerable memberships"
      },
      "revokeRole(bytes32,address)": {
        "details": "Overload {revokeRole} to track enumerable memberships"
      },
      "safeBatchTransferFrom(address,address,uint256[],uint256[],bytes)": {
        "details": "See {IERC1155-safeBatchTransferFrom}."
      },
      "safeTransferFrom(address,address,uint256,uint256,bytes)": {
        "details": "See {IERC1155-safeTransferFrom}."
      },
      "setApprovalForAll(address,bool)": {
        "details": "See {IERC1155-setApprovalForAll}."
      },
      "supportsInterface(bytes4)": {
        "details": "See {IERC165-supportsInterface}."
      },
      "unpause()": {
        "details": "Unpauses all token transfers. See {ERC1155Pausable} and {Pausable-_unpause}. Requirements: - the caller must have the `PAUSER_ROLE`."
      },
      "uri(uint256)": {
        "details": "See {IERC1155MetadataURI-uri}. This implementation returns the same URI for *all* token types. It relies on the token type ID substitution mechanism https://eips.ethereum.org/EIPS/eip-1155#metadata[defined in the EIP]. Clients calling this function must replace the `\\{id\\}` substring with the actual token type ID."
      }
    },
    "version": 1
  },
  "userdoc": {
    "kind": "user",
    "methods": {},
    "version": 1
  }
}