{
  "contractName": "PBProShopHolder",
  "abi": [
    {
      "inputs": [
        {
          "internalType": "address",
          "name": "_buddiesCoinAddress",
          "type": "address"
        },
        {
          "internalType": "address",
          "name": "_pbProShopAddress",
          "type": "address"
        }
      ],
      "stateMutability": "nonpayable",
      "type": "constructor"
    },
    {
      "inputs": [],
      "name": "admin",
      "outputs": [
        {
          "internalType": "address",
          "name": "",
          "type": "address"
        }
      ],
      "stateMutability": "view",
      "type": "function",
      "constant": true
    },
    {
      "inputs": [],
      "name": "buddies",
      "outputs": [
        {
          "internalType": "contract IERC20",
          "name": "",
          "type": "address"
        }
      ],
      "stateMutability": "view",
      "type": "function",
      "constant": true
    },
    {
      "inputs": [
        {
          "internalType": "address",
          "name": "",
          "type": "address"
        },
        {
          "internalType": "address",
          "name": "",
          "type": "address"
        },
        {
          "internalType": "uint256[]",
          "name": "",
          "type": "uint256[]"
        },
        {
          "internalType": "uint256[]",
          "name": "",
          "type": "uint256[]"
        },
        {
          "internalType": "bytes",
          "name": "",
          "type": "bytes"
        }
      ],
      "name": "onERC1155BatchReceived",
      "outputs": [
        {
          "internalType": "bytes4",
          "name": "",
          "type": "bytes4"
        }
      ],
      "stateMutability": "nonpayable",
      "type": "function"
    },
    {
      "inputs": [
        {
          "internalType": "address",
          "name": "",
          "type": "address"
        },
        {
          "internalType": "address",
          "name": "",
          "type": "address"
        },
        {
          "internalType": "uint256",
          "name": "",
          "type": "uint256"
        },
        {
          "internalType": "uint256",
          "name": "",
          "type": "uint256"
        },
        {
          "internalType": "bytes",
          "name": "",
          "type": "bytes"
        }
      ],
      "name": "onERC1155Received",
      "outputs": [
        {
          "internalType": "bytes4",
          "name": "",
          "type": "bytes4"
        }
      ],
      "stateMutability": "nonpayable",
      "type": "function"
    },
    {
      "inputs": [
        {
          "internalType": "bytes4",
          "name": "interfaceId",
          "type": "bytes4"
        }
      ],
      "name": "supportsInterface",
      "outputs": [
        {
          "internalType": "bool",
          "name": "",
          "type": "bool"
        }
      ],
      "stateMutability": "view",
      "type": "function",
      "constant": true
    },
    {
      "inputs": [],
      "name": "getPBProShopHolderAddress",
      "outputs": [
        {
          "internalType": "address",
          "name": "",
          "type": "address"
        }
      ],
      "stateMutability": "view",
      "type": "function",
      "constant": true
    },
    {
      "inputs": [],
      "name": "getItemsSold",
      "outputs": [
        {
          "internalType": "uint256",
          "name": "",
          "type": "uint256"
        }
      ],
      "stateMutability": "view",
      "type": "function",
      "constant": true
    },
    {
      "inputs": [
        {
          "internalType": "address",
          "name": "proshopaddress",
          "type": "address"
        }
      ],
      "name": "updateProShopAddress",
      "outputs": [],
      "stateMutability": "nonpayable",
      "type": "function"
    },
    {
      "inputs": [
        {
          "internalType": "address",
          "name": "_ProshopMarketplaceAddress",
          "type": "address"
        }
      ],
      "name": "updateProshopMarketplaceAddress",
      "outputs": [],
      "stateMutability": "nonpayable",
      "type": "function"
    },
    {
      "inputs": [
        {
          "internalType": "address",
          "name": "_buddiesCoinAddress",
          "type": "address"
        }
      ],
      "name": "updateBuddiesCoinAddress",
      "outputs": [],
      "stateMutability": "nonpayable",
      "type": "function"
    },
    {
      "inputs": [
        {
          "internalType": "uint256",
          "name": "sku",
          "type": "uint256"
        },
        {
          "internalType": "uint256",
          "name": "value",
          "type": "uint256"
        },
        {
          "internalType": "uint256",
          "name": "qty",
          "type": "uint256"
        }
      ],
      "name": "purchaseFromStore",
      "outputs": [],
      "stateMutability": "nonpayable",
      "type": "function"
    },
    {
      "inputs": [
        {
          "internalType": "uint256",
          "name": "sku",
          "type": "uint256"
        }
      ],
      "name": "transferMatchupToken",
      "outputs": [],
      "stateMutability": "nonpayable",
      "type": "function"
    },
    {
      "inputs": [
        {
          "internalType": "uint256",
          "name": "input",
          "type": "uint256"
        }
      ],
      "name": "calculateWeiFromSku",
      "outputs": [
        {
          "internalType": "uint256",
          "name": "",
          "type": "uint256"
        }
      ],
      "stateMutability": "pure",
      "type": "function",
      "constant": true
    },
    {
      "inputs": [],
      "name": "getBNBBalance",
      "outputs": [
        {
          "internalType": "uint256",
          "name": "",
          "type": "uint256"
        }
      ],
      "stateMutability": "view",
      "type": "function",
      "constant": true
    },
    {
      "inputs": [],
      "name": "getBudsBalance",
      "outputs": [
        {
          "internalType": "uint256",
          "name": "",
          "type": "uint256"
        }
      ],
      "stateMutability": "view",
      "type": "function",
      "constant": true
    },
    {
      "inputs": [
        {
          "internalType": "address payable",
          "name": "_to",
          "type": "address"
        },
        {
          "internalType": "uint256",
          "name": "_amount",
          "type": "uint256"
        }
      ],
      "name": "transferBNB",
      "outputs": [],
      "stateMutability": "nonpayable",
      "type": "function"
    },
    {
      "inputs": [
        {
          "internalType": "uint256",
          "name": "_amount",
          "type": "uint256"
        }
      ],
      "name": "transferBUDS",
      "outputs": [],
      "stateMutability": "nonpayable",
      "type": "function"
    }
  ],
  "bytecode": "0x60806040523480156200001157600080fd5b5060405162001dfd38038062001dfd833981810160405281019062000037919062000120565b336000806101000a81548173ffffffffffffffffffffffffffffffffffffffff021916908373ffffffffffffffffffffffffffffffffffffffff16021790555081600460006101000a81548173ffffffffffffffffffffffffffffffffffffffff021916908373ffffffffffffffffffffffffffffffffffffffff16021790555080600360006101000a81548173ffffffffffffffffffffffffffffffffffffffff021916908373ffffffffffffffffffffffffffffffffffffffff16021790555060006002819055505050620001ba565b6000815190506200011a81620001a0565b92915050565b600080604083850312156200013a57620001396200019b565b5b60006200014a8582860162000109565b92505060206200015d8582860162000109565b9150509250929050565b600062000174826200017b565b9050919050565b600073ffffffffffffffffffffffffffffffffffffffff82169050919050565b600080fd5b620001ab8162000167565b8114620001b757600080fd5b50565b611c3380620001ca6000396000f3fe608060405234801561001057600080fd5b506004361061010b5760003560e01c8063bc197c81116100a2578063f23a6e6111610071578063f23a6e6114610290578063f5f2e54b146102c0578063f61a2ea8146102dc578063f851a4401461030c578063f89879aa1461032a5761010b565b8063bc197c8114610208578063c4b1514114610238578063d8149ab714610256578063eb17fba3146102745761010b565b80637db31711116100de5780637db31711146101965780638491f214146101b257806395e03eb4146101d0578063ae90235a146101ec5761010b565b806301ffc9a7146101105780634a594c12146101405780635d632faf1461015e5780637b853bba1461017a575b600080fd5b61012a600480360381019061012591906113a7565b610348565b60405161013791906116e4565b60405180910390f35b6101486103c2565b604051610155919061171a565b60405180910390f35b610178600480360381019061017391906111a7565b6103e8565b005b610194600480360381019061018f919061142e565b6104ba565b005b6101b060048036038101906101ab91906113d4565b6108dd565b005b6101ba610974565b6040516101c79190611795565b60405180910390f35b6101ea60048036038101906101e591906113d4565b610a26565b005b610206600480360381019061020191906111a7565b610b67565b005b610222600480360381019061021d9190611214565b610c39565b60405161022f91906116ff565b60405180910390f35b610240610c4e565b60405161024d9190611795565b60405180910390f35b61025e610ce7565b60405161026b9190611567565b60405180910390f35b61028e600480360381019061028991906111d4565b610cef565b005b6102aa60048036038101906102a591906112e3565b610dc8565b6040516102b791906116ff565b60405180910390f35b6102da60048036038101906102d591906111a7565b610ddd565b005b6102f660048036038101906102f191906113d4565b610eaf565b6040516103039190611795565b60405180910390f35b610314610ef6565b6040516103219190611567565b60405180910390f35b610332610f1a565b60405161033f9190611795565b60405180910390f35b60007f4e2312e0000000000000000000000000000000000000000000000000000000007bffffffffffffffffffffffffffffffffffffffffffffffffffffffff1916827bffffffffffffffffffffffffffffffffffffffffffffffffffffffff191614806103bb57506103ba82610fb1565b5b9050919050565b600460009054906101000a900473ffffffffffffffffffffffffffffffffffffffff1681565b60008054906101000a900473ffffffffffffffffffffffffffffffffffffffff1673ffffffffffffffffffffffffffffffffffffffff163373ffffffffffffffffffffffffffffffffffffffff1614610476576040517f08c379a000000000000000000000000000000000000000000000000000000000815260040161046d90611735565b60405180910390fd5b80600460006101000a81548173ffffffffffffffffffffffffffffffffffffffff021916908373ffffffffffffffffffffffffffffffffffffffff16021790555050565b60006104c584610eaf565b9050600082826104d59190611885565b9050838114610519576040517f08c379a000000000000000000000000000000000000000000000000000000000815260040161051090611775565b60405180910390fd5b6001600360009054906101000a900473ffffffffffffffffffffffffffffffffffffffff1673ffffffffffffffffffffffffffffffffffffffff1662fdd58e30886040518363ffffffff1660e01b81526004016105779291906116bb565b60206040518083038186803b15801561058f57600080fd5b505afa1580156105a3573d6000803e3d6000fd5b505050506040513d601f19601f820116820180604052508101906105c79190611401565b10156105d257600080fd5b6000600460009054906101000a900473ffffffffffffffffffffffffffffffffffffffff1673ffffffffffffffffffffffffffffffffffffffff1663dd62ed3e33306040518363ffffffff1660e01b8152600401610631929190611582565b60206040518083038186803b15801561064957600080fd5b505afa15801561065d573d6000803e3d6000fd5b505050506040513d601f19601f820116820180604052508101906106819190611401565b9050848110156106c6576040517f08c379a00000000000000000000000000000000000000000000000000000000081526004016106bd90611755565b60405180910390fd5b600460009054906101000a900473ffffffffffffffffffffffffffffffffffffffff1673ffffffffffffffffffffffffffffffffffffffff166323b872dd3330886040518463ffffffff1660e01b8152600401610725939291906115ab565b602060405180830381600087803b15801561073f57600080fd5b505af1158015610753573d6000803e3d6000fd5b505050506040513d601f19601f82011682018060405250810190610777919061137a565b50600360009054906101000a900473ffffffffffffffffffffffffffffffffffffffff1673ffffffffffffffffffffffffffffffffffffffff1663a22cb465600160009054906101000a900473ffffffffffffffffffffffffffffffffffffffff1660016040518363ffffffff1660e01b81526004016107f8929190611692565b600060405180830381600087803b15801561081257600080fd5b505af1158015610826573d6000803e3d6000fd5b50505050600360009054906101000a900473ffffffffffffffffffffffffffffffffffffffff1673ffffffffffffffffffffffffffffffffffffffff1663f242432a303389886040518563ffffffff1660e01b815260040161088b949392919061163a565b600060405180830381600087803b1580156108a557600080fd5b505af11580156108b9573d6000803e3d6000fd5b50505050600260008154809291906108d0906119db565b9190505550505050505050565b600360009054906101000a900473ffffffffffffffffffffffffffffffffffffffff1673ffffffffffffffffffffffffffffffffffffffff1663f242432a30338460016040518563ffffffff1660e01b815260040161093f94939291906115e2565b600060405180830381600087803b15801561095957600080fd5b505af115801561096d573d6000803e3d6000fd5b5050505050565b6000600460009054906101000a900473ffffffffffffffffffffffffffffffffffffffff1673ffffffffffffffffffffffffffffffffffffffff166370a08231306040518263ffffffff1660e01b81526004016109d19190611567565b60206040518083038186803b1580156109e957600080fd5b505afa1580156109fd573d6000803e3d6000fd5b505050506040513d601f19601f82011682018060405250810190610a219190611401565b905090565b60008054906101000a900473ffffffffffffffffffffffffffffffffffffffff1673ffffffffffffffffffffffffffffffffffffffff163373ffffffffffffffffffffffffffffffffffffffff1614610ab4576040517f08c379a0000000000000000000000000000000000000000000000000000000008152600401610aab90611735565b60405180910390fd5b600460009054906101000a900473ffffffffffffffffffffffffffffffffffffffff1673ffffffffffffffffffffffffffffffffffffffff1663a9059cbb33836040518363ffffffff1660e01b8152600401610b119291906116bb565b602060405180830381600087803b158015610b2b57600080fd5b505af1158015610b3f573d6000803e3d6000fd5b505050506040513d601f19601f82011682018060405250810190610b63919061137a565b5050565b60008054906101000a900473ffffffffffffffffffffffffffffffffffffffff1673ffffffffffffffffffffffffffffffffffffffff163373ffffffffffffffffffffffffffffffffffffffff1614610bf5576040517f08c379a0000000000000000000000000000000000000000000000000000000008152600401610bec90611735565b60405180910390fd5b80600360006101000a81548173ffffffffffffffffffffffffffffffffffffffff021916908373ffffffffffffffffffffffffffffffffffffffff16021790555050565b600063bc197c8160e01b905095945050505050565b60008060009054906101000a900473ffffffffffffffffffffffffffffffffffffffff1673ffffffffffffffffffffffffffffffffffffffff163373ffffffffffffffffffffffffffffffffffffffff1614610cdf576040517f08c379a0000000000000000000000000000000000000000000000000000000008152600401610cd690611735565b60405180910390fd5b600254905090565b600030905090565b60008054906101000a900473ffffffffffffffffffffffffffffffffffffffff1673ffffffffffffffffffffffffffffffffffffffff163373ffffffffffffffffffffffffffffffffffffffff1614610d7d576040517f08c379a0000000000000000000000000000000000000000000000000000000008152600401610d7490611735565b60405180910390fd5b8173ffffffffffffffffffffffffffffffffffffffff166108fc829081150290604051600060405180830381858888f19350505050158015610dc3573d6000803e3d6000fd5b505050565b600063f23a6e6160e01b905095945050505050565b60008054906101000a900473ffffffffffffffffffffffffffffffffffffffff1673ffffffffffffffffffffffffffffffffffffffff163373ffffffffffffffffffffffffffffffffffffffff1614610e6b576040517f08c379a0000000000000000000000000000000000000000000000000000000008152600401610e6290611735565b60405180910390fd5b80600160006101000a81548173ffffffffffffffffffffffffffffffffffffffff021916908373ffffffffffffffffffffffffffffffffffffffff16021790555050565b600080606483610ebf9190611854565b905060006305f5e10082610ed39190611a24565b90506000655af3107a400082610ee99190611885565b9050809350505050919050565b60008054906101000a900473ffffffffffffffffffffffffffffffffffffffff1681565b60008060009054906101000a900473ffffffffffffffffffffffffffffffffffffffff1673ffffffffffffffffffffffffffffffffffffffff163373ffffffffffffffffffffffffffffffffffffffff1614610fab576040517f08c379a0000000000000000000000000000000000000000000000000000000008152600401610fa290611735565b60405180910390fd5b47905090565b60007f01ffc9a7000000000000000000000000000000000000000000000000000000007bffffffffffffffffffffffffffffffffffffffffffffffffffffffff1916827bffffffffffffffffffffffffffffffffffffffffffffffffffffffff1916149050919050565b600061102e611029846117d5565b6117b0565b9050808382526020820190508285602086028201111561105157611050611ae7565b5b60005b858110156110815781611067888261117d565b845260208401935060208301925050600181019050611054565b5050509392505050565b600061109e61109984611801565b6117b0565b9050828152602081018484840111156110ba576110b9611aec565b5b6110c584828561199b565b509392505050565b6000813590506110dc81611b8a565b92915050565b6000813590506110f181611ba1565b92915050565b600082601f83011261110c5761110b611ae2565b5b813561111c84826020860161101b565b91505092915050565b60008151905061113481611bb8565b92915050565b60008135905061114981611bcf565b92915050565b600082601f83011261116457611163611ae2565b5b813561117484826020860161108b565b91505092915050565b60008135905061118c81611be6565b92915050565b6000815190506111a181611be6565b92915050565b6000602082840312156111bd576111bc611af6565b5b60006111cb848285016110cd565b91505092915050565b600080604083850312156111eb576111ea611af6565b5b60006111f9858286016110e2565b925050602061120a8582860161117d565b9150509250929050565b600080600080600060a086880312156112305761122f611af6565b5b600061123e888289016110cd565b955050602061124f888289016110cd565b945050604086013567ffffffffffffffff8111156112705761126f611af1565b5b61127c888289016110f7565b935050606086013567ffffffffffffffff81111561129d5761129c611af1565b5b6112a9888289016110f7565b925050608086013567ffffffffffffffff8111156112ca576112c9611af1565b5b6112d68882890161114f565b9150509295509295909350565b600080600080600060a086880312156112ff576112fe611af6565b5b600061130d888289016110cd565b955050602061131e888289016110cd565b945050604061132f8882890161117d565b93505060606113408882890161117d565b925050608086013567ffffffffffffffff81111561136157611360611af1565b5b61136d8882890161114f565b9150509295509295909350565b6000602082840312156113905761138f611af6565b5b600061139e84828501611125565b91505092915050565b6000602082840312156113bd576113bc611af6565b5b60006113cb8482850161113a565b91505092915050565b6000602082840312156113ea576113e9611af6565b5b60006113f88482850161117d565b91505092915050565b60006020828403121561141757611416611af6565b5b600061142584828501611192565b91505092915050565b60008060006060848603121561144757611446611af6565b5b60006114558682870161117d565b93505060206114668682870161117d565b92505060406114778682870161117d565b9150509250925092565b61148a816118df565b82525050565b61149981611903565b82525050565b6114a88161190f565b82525050565b6114b781611965565b82525050565b6114c681611989565b82525050565b60006114d9600283611843565b91506114e482611b0c565b602082019050919050565b60006114fc600283611843565b915061150782611b35565b602082019050919050565b600061151f600283611843565b915061152a82611b5e565b602082019050919050565b6000611542600083611832565b915061154d82611b87565b600082019050919050565b6115618161195b565b82525050565b600060208201905061157c6000830184611481565b92915050565b60006040820190506115976000830185611481565b6115a46020830184611481565b9392505050565b60006060820190506115c06000830186611481565b6115cd6020830185611481565b6115da6040830184611558565b949350505050565b600060a0820190506115f76000830187611481565b6116046020830186611481565b6116116040830185611558565b61161e60608301846114bd565b818103608083015261162f81611535565b905095945050505050565b600060a08201905061164f6000830187611481565b61165c6020830186611481565b6116696040830185611558565b6116766060830184611558565b818103608083015261168781611535565b905095945050505050565b60006040820190506116a76000830185611481565b6116b46020830184611490565b9392505050565b60006040820190506116d06000830185611481565b6116dd6020830184611558565b9392505050565b60006020820190506116f96000830184611490565b92915050565b6000602082019050611714600083018461149f565b92915050565b600060208201905061172f60008301846114ae565b92915050565b6000602082019050818103600083015261174e816114cc565b9050919050565b6000602082019050818103600083015261176e816114ef565b9050919050565b6000602082019050818103600083015261178e81611512565b9050919050565b60006020820190506117aa6000830184611558565b92915050565b60006117ba6117cb565b90506117c682826119aa565b919050565b6000604051905090565b600067ffffffffffffffff8211156117f0576117ef611ab3565b5b602082029050602081019050919050565b600067ffffffffffffffff82111561181c5761181b611ab3565b5b61182582611afb565b9050602081019050919050565b600082825260208201905092915050565b600082825260208201905092915050565b600061185f8261195b565b915061186a8361195b565b92508261187a57611879611a84565b5b828204905092915050565b60006118908261195b565b915061189b8361195b565b9250817fffffffffffffffffffffffffffffffffffffffffffffffffffffffffffffffff04831182151516156118d4576118d3611a55565b5b828202905092915050565b60006118ea8261193b565b9050919050565b60006118fc8261193b565b9050919050565b60008115159050919050565b60007fffffffff0000000000000000000000000000000000000000000000000000000082169050919050565b600073ffffffffffffffffffffffffffffffffffffffff82169050919050565b6000819050919050565b600061197082611977565b9050919050565b60006119828261193b565b9050919050565b60006119948261195b565b9050919050565b82818337600083830152505050565b6119b382611afb565b810181811067ffffffffffffffff821117156119d2576119d1611ab3565b5b80604052505050565b60006119e68261195b565b91507fffffffffffffffffffffffffffffffffffffffffffffffffffffffffffffffff821415611a1957611a18611a55565b5b600182019050919050565b6000611a2f8261195b565b9150611a3a8361195b565b925082611a4a57611a49611a84565b5b828206905092915050565b7f4e487b7100000000000000000000000000000000000000000000000000000000600052601160045260246000fd5b7f4e487b7100000000000000000000000000000000000000000000000000000000600052601260045260246000fd5b7f4e487b7100000000000000000000000000000000000000000000000000000000600052604160045260246000fd5b600080fd5b600080fd5b600080fd5b600080fd5b600080fd5b6000601f19601f8301169050919050565b7f4131000000000000000000000000000000000000000000000000000000000000600082015250565b7f5731000000000000000000000000000000000000000000000000000000000000600082015250565b7f5031000000000000000000000000000000000000000000000000000000000000600082015250565b50565b611b93816118df565b8114611b9e57600080fd5b50565b611baa816118f1565b8114611bb557600080fd5b50565b611bc181611903565b8114611bcc57600080fd5b50565b611bd88161190f565b8114611be357600080fd5b50565b611bef8161195b565b8114611bfa57600080fd5b5056fea26469706673582212203baa92ba4ce64da33ee1cb53585dd7a38aa306a702cd7aeb70879448489c476064736f6c63430008060033",
  "immutableReferences": {},
  "source": "// SPDX-License-Identifier: MIT\r\npragma solidity >=0.4.22 <0.9.0;\r\nimport \"../node_modules/@openzeppelin/contracts/token/ERC20/IERC20.sol\";\r\nimport '../node_modules/@openzeppelin/contracts/token/ERC1155/IERC1155.sol';\r\nimport \"../node_modules/@openzeppelin/contracts/token/ERC1155/utils/ERC1155Holder.sol\";\r\n\r\ncontract PBProShopHolder is ERC1155Holder{\r\n    \r\n    address public admin;\r\n    address proshopmarketplaceaddress;\r\n    uint itemsSold;\r\n    IERC1155 private pbproshopfactory;\r\n    IERC20 public buddies;\r\n        \r\n    modifier onlyAdmin() {\r\n        require(msg.sender == admin, \"A1\");\r\n        _;\r\n    }\r\n\r\n    constructor(address _buddiesCoinAddress, address _pbProShopAddress) ERC1155Holder() {\r\n        admin = msg.sender;\r\n        buddies = IERC20(_buddiesCoinAddress);\r\n        pbproshopfactory = IERC1155(_pbProShopAddress);\r\n        itemsSold = 0;\r\n    }\r\n\r\n    function getPBProShopHolderAddress() public view returns (address){\r\n        return address(this);\r\n    }\r\n\r\n    function getItemsSold() public view onlyAdmin returns (uint) {\r\n        return (itemsSold);\r\n    }\r\n    \r\n   function updateProShopAddress(address proshopaddress) external onlyAdmin {\r\n       pbproshopfactory = IERC1155(proshopaddress);\r\n   }\r\n\r\n   function updateProshopMarketplaceAddress(address _ProshopMarketplaceAddress)external onlyAdmin {\r\n       proshopmarketplaceaddress = _ProshopMarketplaceAddress;\r\n   }\r\n\r\n    function updateBuddiesCoinAddress(address _buddiesCoinAddress) onlyAdmin external {\r\n        buddies = IERC20(_buddiesCoinAddress);\r\n    }\r\n    \r\n    function purchaseFromStore(uint256 sku, uint value, uint qty) external {\r\n        uint weiFromSku = calculateWeiFromSku(sku);\r\n        uint checkValue = weiFromSku * qty;\r\n        require(checkValue == value, \"P1\");\r\n        require(pbproshopfactory.balanceOf(address(this), sku) >= 1);\r\n        uint allowance = buddies.allowance(msg.sender, address(this));\r\n        require(allowance >= value, \"W1\");\r\n        buddies.transferFrom(msg.sender, address(this), value);\r\n        pbproshopfactory.setApprovalForAll(proshopmarketplaceaddress, true);\r\n        pbproshopfactory.safeTransferFrom(address(this), msg.sender, sku, qty, \"\");\r\n        itemsSold++;\r\n    }\r\n\r\n    function transferMatchupToken(uint sku) external {\r\n        pbproshopfactory.safeTransferFrom(address(this), msg.sender, sku, 1, \"\");\r\n    }\r\n\r\n    function calculateWeiFromSku (uint input) public pure returns (uint){\r\n        uint a = input / 100;\r\n        uint b = a % 100000000;\r\n        uint c = b * 10 ** 14;\r\n        return c;\r\n    }\r\n\r\n    function getBNBBalance() external view onlyAdmin returns (uint) {\r\n        return address(this).balance;\r\n    }\r\n    \r\n    function getBudsBalance() external view returns (uint) {\r\n        return buddies.balanceOf(address(this));\r\n    }\r\n\r\n    function transferBNB(address payable _to, uint _amount) external onlyAdmin {\r\n        _to.transfer(_amount);\r\n    }\r\n\r\n    function transferBUDS(uint _amount) external onlyAdmin {\r\n        buddies.transfer(msg.sender, _amount);\r\n    }\r\n    \r\n}\r\n\r\n",
  "sourcePath": "O:\\Projects\\puck-buddies\\contracts\\PBProShopHolder.sol",
  "compiler": {
    "name": "solc",
    "version": "0.8.6+commit.11564f7e.Emscripten.clang"
  },
  "schemaVersion": "3.4.3",
  "updatedAt": "2022-01-07T21:58:19.864Z",
  "networkType": "ethereum",
  "devdoc": {
    "kind": "dev",
    "methods": {
      "supportsInterface(bytes4)": {
        "details": "See {IERC165-supportsInterface}."
      }
    },
    "version": 1
  },
  "userdoc": {
    "kind": "user",
    "methods": {},
    "version": 1
  }
}