{
  "contractName": "PBProShopHolder",
  "abi": [
    {
      "inputs": [
        {
          "internalType": "address",
          "name": "_buddiesCoinAddress",
          "type": "address"
        },
        {
          "internalType": "address",
          "name": "_pbProShopAddress",
          "type": "address"
        }
      ],
      "stateMutability": "nonpayable",
      "type": "constructor"
    },
    {
      "inputs": [],
      "name": "admin",
      "outputs": [
        {
          "internalType": "address",
          "name": "",
          "type": "address"
        }
      ],
      "stateMutability": "view",
      "type": "function",
      "constant": true
    },
    {
      "inputs": [],
      "name": "buddies",
      "outputs": [
        {
          "internalType": "contract IERC20",
          "name": "",
          "type": "address"
        }
      ],
      "stateMutability": "view",
      "type": "function",
      "constant": true
    },
    {
      "inputs": [
        {
          "internalType": "address",
          "name": "",
          "type": "address"
        },
        {
          "internalType": "address",
          "name": "",
          "type": "address"
        },
        {
          "internalType": "uint256[]",
          "name": "",
          "type": "uint256[]"
        },
        {
          "internalType": "uint256[]",
          "name": "",
          "type": "uint256[]"
        },
        {
          "internalType": "bytes",
          "name": "",
          "type": "bytes"
        }
      ],
      "name": "onERC1155BatchReceived",
      "outputs": [
        {
          "internalType": "bytes4",
          "name": "",
          "type": "bytes4"
        }
      ],
      "stateMutability": "nonpayable",
      "type": "function"
    },
    {
      "inputs": [
        {
          "internalType": "address",
          "name": "",
          "type": "address"
        },
        {
          "internalType": "address",
          "name": "",
          "type": "address"
        },
        {
          "internalType": "uint256",
          "name": "",
          "type": "uint256"
        },
        {
          "internalType": "uint256",
          "name": "",
          "type": "uint256"
        },
        {
          "internalType": "bytes",
          "name": "",
          "type": "bytes"
        }
      ],
      "name": "onERC1155Received",
      "outputs": [
        {
          "internalType": "bytes4",
          "name": "",
          "type": "bytes4"
        }
      ],
      "stateMutability": "nonpayable",
      "type": "function"
    },
    {
      "inputs": [
        {
          "internalType": "bytes4",
          "name": "interfaceId",
          "type": "bytes4"
        }
      ],
      "name": "supportsInterface",
      "outputs": [
        {
          "internalType": "bool",
          "name": "",
          "type": "bool"
        }
      ],
      "stateMutability": "view",
      "type": "function",
      "constant": true
    },
    {
      "inputs": [],
      "name": "getPBProShopHolderAddress",
      "outputs": [
        {
          "internalType": "address",
          "name": "",
          "type": "address"
        }
      ],
      "stateMutability": "view",
      "type": "function",
      "constant": true
    },
    {
      "inputs": [
        {
          "internalType": "address",
          "name": "proshopaddress",
          "type": "address"
        }
      ],
      "name": "updateProShopAddress",
      "outputs": [],
      "stateMutability": "nonpayable",
      "type": "function"
    },
    {
      "inputs": [
        {
          "internalType": "address",
          "name": "_ProshopMarketplaceAddress",
          "type": "address"
        }
      ],
      "name": "updateProshopMarketplaceAddress",
      "outputs": [],
      "stateMutability": "nonpayable",
      "type": "function"
    },
    {
      "inputs": [
        {
          "internalType": "address",
          "name": "_buddiesCoinAddress",
          "type": "address"
        }
      ],
      "name": "updateBuddiesCoinAddress",
      "outputs": [],
      "stateMutability": "nonpayable",
      "type": "function"
    },
    {
      "inputs": [
        {
          "internalType": "uint256",
          "name": "sku",
          "type": "uint256"
        },
        {
          "internalType": "uint256",
          "name": "value",
          "type": "uint256"
        },
        {
          "internalType": "uint256",
          "name": "qty",
          "type": "uint256"
        }
      ],
      "name": "purchaseFromStore",
      "outputs": [],
      "stateMutability": "nonpayable",
      "type": "function"
    },
    {
      "inputs": [
        {
          "internalType": "uint256",
          "name": "sku",
          "type": "uint256"
        }
      ],
      "name": "transferMatchupToken",
      "outputs": [],
      "stateMutability": "nonpayable",
      "type": "function"
    },
    {
      "inputs": [
        {
          "internalType": "uint256",
          "name": "input",
          "type": "uint256"
        }
      ],
      "name": "calculateWeiFromSku",
      "outputs": [
        {
          "internalType": "uint256",
          "name": "",
          "type": "uint256"
        }
      ],
      "stateMutability": "pure",
      "type": "function",
      "constant": true
    }
  ],
  "bytecode": "0x60806040523480156200001157600080fd5b506040516200183138038062001831833981810160405281019062000037919062000118565b336000806101000a81548173ffffffffffffffffffffffffffffffffffffffff021916908373ffffffffffffffffffffffffffffffffffffffff16021790555081600360006101000a81548173ffffffffffffffffffffffffffffffffffffffff021916908373ffffffffffffffffffffffffffffffffffffffff16021790555080600260006101000a81548173ffffffffffffffffffffffffffffffffffffffff021916908373ffffffffffffffffffffffffffffffffffffffff1602179055505050620001b2565b600081519050620001128162000198565b92915050565b6000806040838503121562000132576200013162000193565b5b6000620001428582860162000101565b9250506020620001558582860162000101565b9150509250929050565b60006200016c8262000173565b9050919050565b600073ffffffffffffffffffffffffffffffffffffffff82169050919050565b600080fd5b620001a3816200015f565b8114620001af57600080fd5b50565b61166f80620001c26000396000f3fe608060405234801561001057600080fd5b50600436106100b45760003560e01c8063bc197c8111610071578063bc197c8114610177578063d8149ab7146101a7578063f23a6e61146101c5578063f5f2e54b146101f5578063f61a2ea814610211578063f851a44014610241576100b4565b806301ffc9a7146100b95780634a594c12146100e95780635d632faf146101075780637b853bba146101235780637db317111461013f578063ae90235a1461015b575b600080fd5b6100d360048036038101906100ce9190610e55565b61025f565b6040516100e09190611192565b60405180910390f35b6100f16102d9565b6040516100fe91906111c8565b60405180910390f35b610121600480360381019061011c9190610c95565b6102ff565b005b61013d60048036038101906101389190610edc565b6103d1565b005b61015960048036038101906101549190610e82565b6107dc565b005b61017560048036038101906101709190610c95565b610873565b005b610191600480360381019061018c9190610cc2565b610945565b60405161019e91906111ad565b60405180910390f35b6101af61095a565b6040516101bc9190611015565b60405180910390f35b6101df60048036038101906101da9190610d91565b610962565b6040516101ec91906111ad565b60405180910390f35b61020f600480360381019061020a9190610c95565b610977565b005b61022b60048036038101906102269190610e82565b610a49565b6040516102389190611243565b60405180910390f35b610249610a90565b6040516102569190611015565b60405180910390f35b60007f4e2312e0000000000000000000000000000000000000000000000000000000007bffffffffffffffffffffffffffffffffffffffffffffffffffffffff1916827bffffffffffffffffffffffffffffffffffffffffffffffffffffffff191614806102d257506102d182610ab4565b5b9050919050565b600360009054906101000a900473ffffffffffffffffffffffffffffffffffffffff1681565b60008054906101000a900473ffffffffffffffffffffffffffffffffffffffff1673ffffffffffffffffffffffffffffffffffffffff163373ffffffffffffffffffffffffffffffffffffffff161461038d576040517f08c379a000000000000000000000000000000000000000000000000000000000815260040161038490611223565b60405180910390fd5b80600360006101000a81548173ffffffffffffffffffffffffffffffffffffffff021916908373ffffffffffffffffffffffffffffffffffffffff16021790555050565b60006103dc84610a49565b9050600082826103ec9190611333565b9050838114610430576040517f08c379a000000000000000000000000000000000000000000000000000000000815260040161042790611203565b60405180910390fd5b6001600260009054906101000a900473ffffffffffffffffffffffffffffffffffffffff1673ffffffffffffffffffffffffffffffffffffffff1662fdd58e30886040518363ffffffff1660e01b815260040161048e929190611169565b60206040518083038186803b1580156104a657600080fd5b505afa1580156104ba573d6000803e3d6000fd5b505050506040513d601f19601f820116820180604052508101906104de9190610eaf565b10156104e957600080fd5b6000600360009054906101000a900473ffffffffffffffffffffffffffffffffffffffff1673ffffffffffffffffffffffffffffffffffffffff1663dd62ed3e33306040518363ffffffff1660e01b8152600401610548929190611030565b60206040518083038186803b15801561056057600080fd5b505afa158015610574573d6000803e3d6000fd5b505050506040513d601f19601f820116820180604052508101906105989190610eaf565b9050848110156105dd576040517f08c379a00000000000000000000000000000000000000000000000000000000081526004016105d4906111e3565b60405180910390fd5b600360009054906101000a900473ffffffffffffffffffffffffffffffffffffffff1673ffffffffffffffffffffffffffffffffffffffff166323b872dd3330886040518463ffffffff1660e01b815260040161063c93929190611059565b602060405180830381600087803b15801561065657600080fd5b505af115801561066a573d6000803e3d6000fd5b505050506040513d601f19601f8201168201806040525081019061068e9190610e28565b50600260009054906101000a900473ffffffffffffffffffffffffffffffffffffffff1673ffffffffffffffffffffffffffffffffffffffff1663a22cb465600160009054906101000a900473ffffffffffffffffffffffffffffffffffffffff1660016040518363ffffffff1660e01b815260040161070f929190611140565b600060405180830381600087803b15801561072957600080fd5b505af115801561073d573d6000803e3d6000fd5b50505050600260009054906101000a900473ffffffffffffffffffffffffffffffffffffffff1673ffffffffffffffffffffffffffffffffffffffff1663f242432a303389886040518563ffffffff1660e01b81526004016107a294939291906110e8565b600060405180830381600087803b1580156107bc57600080fd5b505af11580156107d0573d6000803e3d6000fd5b50505050505050505050565b600260009054906101000a900473ffffffffffffffffffffffffffffffffffffffff1673ffffffffffffffffffffffffffffffffffffffff1663f242432a30338460016040518563ffffffff1660e01b815260040161083e9493929190611090565b600060405180830381600087803b15801561085857600080fd5b505af115801561086c573d6000803e3d6000fd5b5050505050565b60008054906101000a900473ffffffffffffffffffffffffffffffffffffffff1673ffffffffffffffffffffffffffffffffffffffff163373ffffffffffffffffffffffffffffffffffffffff1614610901576040517f08c379a00000000000000000000000000000000000000000000000000000000081526004016108f890611223565b60405180910390fd5b80600260006101000a81548173ffffffffffffffffffffffffffffffffffffffff021916908373ffffffffffffffffffffffffffffffffffffffff16021790555050565b600063bc197c8160e01b905095945050505050565b600030905090565b600063f23a6e6160e01b905095945050505050565b60008054906101000a900473ffffffffffffffffffffffffffffffffffffffff1673ffffffffffffffffffffffffffffffffffffffff163373ffffffffffffffffffffffffffffffffffffffff1614610a05576040517f08c379a00000000000000000000000000000000000000000000000000000000081526004016109fc90611223565b60405180910390fd5b80600160006101000a81548173ffffffffffffffffffffffffffffffffffffffff021916908373ffffffffffffffffffffffffffffffffffffffff16021790555050565b600080606483610a599190611302565b905060006305f5e10082610a6d9190611477565b90506000655af3107a400082610a839190611333565b9050809350505050919050565b60008054906101000a900473ffffffffffffffffffffffffffffffffffffffff1681565b60007f01ffc9a7000000000000000000000000000000000000000000000000000000007bffffffffffffffffffffffffffffffffffffffffffffffffffffffff1916827bffffffffffffffffffffffffffffffffffffffffffffffffffffffff1916149050919050565b6000610b31610b2c84611283565b61125e565b90508083825260208201905082856020860282011115610b5457610b5361153a565b5b60005b85811015610b845781610b6a8882610c6b565b845260208401935060208301925050600181019050610b57565b5050509392505050565b6000610ba1610b9c846112af565b61125e565b905082815260208101848484011115610bbd57610bbc61153f565b5b610bc8848285611437565b509392505050565b600081359050610bdf816115dd565b92915050565b600082601f830112610bfa57610bf9611535565b5b8135610c0a848260208601610b1e565b91505092915050565b600081519050610c22816115f4565b92915050565b600081359050610c378161160b565b92915050565b600082601f830112610c5257610c51611535565b5b8135610c62848260208601610b8e565b91505092915050565b600081359050610c7a81611622565b92915050565b600081519050610c8f81611622565b92915050565b600060208284031215610cab57610caa611549565b5b6000610cb984828501610bd0565b91505092915050565b600080600080600060a08688031215610cde57610cdd611549565b5b6000610cec88828901610bd0565b9550506020610cfd88828901610bd0565b945050604086013567ffffffffffffffff811115610d1e57610d1d611544565b5b610d2a88828901610be5565b935050606086013567ffffffffffffffff811115610d4b57610d4a611544565b5b610d5788828901610be5565b925050608086013567ffffffffffffffff811115610d7857610d77611544565b5b610d8488828901610c3d565b9150509295509295909350565b600080600080600060a08688031215610dad57610dac611549565b5b6000610dbb88828901610bd0565b9550506020610dcc88828901610bd0565b9450506040610ddd88828901610c6b565b9350506060610dee88828901610c6b565b925050608086013567ffffffffffffffff811115610e0f57610e0e611544565b5b610e1b88828901610c3d565b9150509295509295909350565b600060208284031215610e3e57610e3d611549565b5b6000610e4c84828501610c13565b91505092915050565b600060208284031215610e6b57610e6a611549565b5b6000610e7984828501610c28565b91505092915050565b600060208284031215610e9857610e97611549565b5b6000610ea684828501610c6b565b91505092915050565b600060208284031215610ec557610ec4611549565b5b6000610ed384828501610c80565b91505092915050565b600080600060608486031215610ef557610ef4611549565b5b6000610f0386828701610c6b565b9350506020610f1486828701610c6b565b9250506040610f2586828701610c6b565b9150509250925092565b610f388161138d565b82525050565b610f478161139f565b82525050565b610f56816113ab565b82525050565b610f6581611401565b82525050565b610f7481611425565b82525050565b6000610f876002836112f1565b9150610f928261155f565b602082019050919050565b6000610faa6002836112f1565b9150610fb582611588565b602082019050919050565b6000610fcd6000836112e0565b9150610fd8826115b1565b600082019050919050565b6000610ff06020836112f1565b9150610ffb826115b4565b602082019050919050565b61100f816113f7565b82525050565b600060208201905061102a6000830184610f2f565b92915050565b60006040820190506110456000830185610f2f565b6110526020830184610f2f565b9392505050565b600060608201905061106e6000830186610f2f565b61107b6020830185610f2f565b6110886040830184611006565b949350505050565b600060a0820190506110a56000830187610f2f565b6110b26020830186610f2f565b6110bf6040830185611006565b6110cc6060830184610f6b565b81810360808301526110dd81610fc0565b905095945050505050565b600060a0820190506110fd6000830187610f2f565b61110a6020830186610f2f565b6111176040830185611006565b6111246060830184611006565b818103608083015261113581610fc0565b905095945050505050565b60006040820190506111556000830185610f2f565b6111626020830184610f3e565b9392505050565b600060408201905061117e6000830185610f2f565b61118b6020830184611006565b9392505050565b60006020820190506111a76000830184610f3e565b92915050565b60006020820190506111c26000830184610f4d565b92915050565b60006020820190506111dd6000830184610f5c565b92915050565b600060208201905081810360008301526111fc81610f7a565b9050919050565b6000602082019050818103600083015261121c81610f9d565b9050919050565b6000602082019050818103600083015261123c81610fe3565b9050919050565b60006020820190506112586000830184611006565b92915050565b6000611268611279565b90506112748282611446565b919050565b6000604051905090565b600067ffffffffffffffff82111561129e5761129d611506565b5b602082029050602081019050919050565b600067ffffffffffffffff8211156112ca576112c9611506565b5b6112d38261154e565b9050602081019050919050565b600082825260208201905092915050565b600082825260208201905092915050565b600061130d826113f7565b9150611318836113f7565b925082611328576113276114d7565b5b828204905092915050565b600061133e826113f7565b9150611349836113f7565b9250817fffffffffffffffffffffffffffffffffffffffffffffffffffffffffffffffff0483118215151615611382576113816114a8565b5b828202905092915050565b6000611398826113d7565b9050919050565b60008115159050919050565b60007fffffffff0000000000000000000000000000000000000000000000000000000082169050919050565b600073ffffffffffffffffffffffffffffffffffffffff82169050919050565b6000819050919050565b600061140c82611413565b9050919050565b600061141e826113d7565b9050919050565b6000611430826113f7565b9050919050565b82818337600083830152505050565b61144f8261154e565b810181811067ffffffffffffffff8211171561146e5761146d611506565b5b80604052505050565b6000611482826113f7565b915061148d836113f7565b92508261149d5761149c6114d7565b5b828206905092915050565b7f4e487b7100000000000000000000000000000000000000000000000000000000600052601160045260246000fd5b7f4e487b7100000000000000000000000000000000000000000000000000000000600052601260045260246000fd5b7f4e487b7100000000000000000000000000000000000000000000000000000000600052604160045260246000fd5b600080fd5b600080fd5b600080fd5b600080fd5b600080fd5b6000601f19601f8301169050919050565b7f4131000000000000000000000000000000000000000000000000000000000000600082015250565b7f5031000000000000000000000000000000000000000000000000000000000000600082015250565b50565b7f4f6e6c792041646d696e2063616e20706572666f726d20746869732063616c6c600082015250565b6115e68161138d565b81146115f157600080fd5b50565b6115fd8161139f565b811461160857600080fd5b50565b611614816113ab565b811461161f57600080fd5b50565b61162b816113f7565b811461163657600080fd5b5056fea2646970667358221220310eb4c4eb90d7fed6d983fbaaa359fa291cd82d1f01c6e6d92a15208c8a2fe264736f6c63430008060033",
  "immutableReferences": {},
  "source": "// SPDX-License-Identifier: MIT\r\npragma solidity >=0.4.22 <0.9.0;\r\nimport \"../node_modules/@openzeppelin/contracts/token/ERC20/IERC20.sol\";\r\nimport '../node_modules/@openzeppelin/contracts/token/ERC1155/IERC1155.sol';\r\nimport \"../node_modules/@openzeppelin/contracts/token/ERC1155/utils/ERC1155Holder.sol\";\r\n\r\ncontract PBProShopHolder is ERC1155Holder{\r\n    \r\n    address public admin;\r\n    address proshopmarketplaceaddress;\r\n    IERC1155 private pbproshopfactory;\r\n    IERC20 public buddies;\r\n        \r\n    modifier onlyAdmin() {\r\n        require(msg.sender == admin, \"Only Admin can perform this call\");\r\n        _;\r\n    }\r\n\r\n    constructor(address _buddiesCoinAddress, address _pbProShopAddress) ERC1155Holder() {\r\n        admin = msg.sender;\r\n        buddies = IERC20(_buddiesCoinAddress);\r\n        pbproshopfactory = IERC1155(_pbProShopAddress);\r\n    }\r\n\r\n    function getPBProShopHolderAddress() public view returns (address){\r\n        return address(this);\r\n    }\r\n    \r\n   function updateProShopAddress(address proshopaddress) external onlyAdmin {\r\n       pbproshopfactory = IERC1155(proshopaddress);\r\n   }\r\n\r\n   function updateProshopMarketplaceAddress(address _ProshopMarketplaceAddress)external onlyAdmin {\r\n       proshopmarketplaceaddress = _ProshopMarketplaceAddress;\r\n   }\r\n\r\n    function updateBuddiesCoinAddress(address _buddiesCoinAddress) onlyAdmin external {\r\n        buddies = IERC20(_buddiesCoinAddress);\r\n    }\r\n    \r\n    function purchaseFromStore(uint256 sku, uint value, uint qty) external {\r\n        uint weiFromSku = calculateWeiFromSku(sku);\r\n        uint checkValue = weiFromSku * qty;\r\n        require(checkValue == value, \"P1\");\r\n        require(pbproshopfactory.balanceOf(address(this), sku) >= 1);\r\n        uint allowance = buddies.allowance(msg.sender, address(this));\r\n        require(allowance >= value, \"A1\");\r\n        buddies.transferFrom(msg.sender, address(this), value);\r\n        pbproshopfactory.setApprovalForAll(proshopmarketplaceaddress, true);\r\n        pbproshopfactory.safeTransferFrom(address(this), msg.sender, sku, qty, \"\");\r\n        \r\n    }\r\n\r\n    function transferMatchupToken(uint sku) external {\r\n        pbproshopfactory.safeTransferFrom(address(this), msg.sender, sku, 1, \"\");\r\n    }\r\n\r\n    function calculateWeiFromSku (uint input) public pure returns (uint){\r\n        uint a = input / 100;\r\n        uint b = a % 100000000;\r\n        uint c = b * 10 ** 14;\r\n        return c;\r\n    }\r\n    \r\n}\r\n\r\n",
  "sourcePath": "O:\\Projects\\puck-buddies\\contracts\\PBProShopHolder.sol",
  "compiler": {
    "name": "solc",
    "version": "0.8.6+commit.11564f7e.Emscripten.clang"
  },
  "schemaVersion": "3.4.3",
  "updatedAt": "2021-11-05T12:07:33.635Z",
  "networkType": "ethereum",
  "devdoc": {
    "kind": "dev",
    "methods": {
      "supportsInterface(bytes4)": {
        "details": "See {IERC165-supportsInterface}."
      }
    },
    "version": 1
  },
  "userdoc": {
    "kind": "user",
    "methods": {},
    "version": 1
  }
}