{
  "contractName": "PBProShopHolder",
  "abi": [
    {
      "inputs": [
        {
          "internalType": "address",
          "name": "_buddiesCoinAddress",
          "type": "address"
        },
        {
          "internalType": "address",
          "name": "_pbProShopAddress",
          "type": "address"
        }
      ],
      "stateMutability": "nonpayable",
      "type": "constructor"
    },
    {
      "inputs": [],
      "name": "admin",
      "outputs": [
        {
          "internalType": "address",
          "name": "",
          "type": "address"
        }
      ],
      "stateMutability": "view",
      "type": "function",
      "constant": true
    },
    {
      "inputs": [],
      "name": "buddies",
      "outputs": [
        {
          "internalType": "contract IERC20",
          "name": "",
          "type": "address"
        }
      ],
      "stateMutability": "view",
      "type": "function",
      "constant": true
    },
    {
      "inputs": [
        {
          "internalType": "address",
          "name": "",
          "type": "address"
        },
        {
          "internalType": "address",
          "name": "",
          "type": "address"
        },
        {
          "internalType": "uint256[]",
          "name": "",
          "type": "uint256[]"
        },
        {
          "internalType": "uint256[]",
          "name": "",
          "type": "uint256[]"
        },
        {
          "internalType": "bytes",
          "name": "",
          "type": "bytes"
        }
      ],
      "name": "onERC1155BatchReceived",
      "outputs": [
        {
          "internalType": "bytes4",
          "name": "",
          "type": "bytes4"
        }
      ],
      "stateMutability": "nonpayable",
      "type": "function"
    },
    {
      "inputs": [
        {
          "internalType": "address",
          "name": "",
          "type": "address"
        },
        {
          "internalType": "address",
          "name": "",
          "type": "address"
        },
        {
          "internalType": "uint256",
          "name": "",
          "type": "uint256"
        },
        {
          "internalType": "uint256",
          "name": "",
          "type": "uint256"
        },
        {
          "internalType": "bytes",
          "name": "",
          "type": "bytes"
        }
      ],
      "name": "onERC1155Received",
      "outputs": [
        {
          "internalType": "bytes4",
          "name": "",
          "type": "bytes4"
        }
      ],
      "stateMutability": "nonpayable",
      "type": "function"
    },
    {
      "inputs": [
        {
          "internalType": "bytes4",
          "name": "interfaceId",
          "type": "bytes4"
        }
      ],
      "name": "supportsInterface",
      "outputs": [
        {
          "internalType": "bool",
          "name": "",
          "type": "bool"
        }
      ],
      "stateMutability": "view",
      "type": "function",
      "constant": true
    },
    {
      "inputs": [],
      "name": "getPBProShopHolderAddress",
      "outputs": [
        {
          "internalType": "address",
          "name": "",
          "type": "address"
        }
      ],
      "stateMutability": "view",
      "type": "function",
      "constant": true
    },
    {
      "inputs": [],
      "name": "getItemsSold",
      "outputs": [
        {
          "internalType": "uint256",
          "name": "",
          "type": "uint256"
        }
      ],
      "stateMutability": "view",
      "type": "function",
      "constant": true
    },
    {
      "inputs": [
        {
          "internalType": "address",
          "name": "proshopaddress",
          "type": "address"
        }
      ],
      "name": "updateProShopAddress",
      "outputs": [],
      "stateMutability": "nonpayable",
      "type": "function"
    },
    {
      "inputs": [
        {
          "internalType": "address",
          "name": "_ProshopMarketplaceAddress",
          "type": "address"
        }
      ],
      "name": "updateProshopMarketplaceAddress",
      "outputs": [],
      "stateMutability": "nonpayable",
      "type": "function"
    },
    {
      "inputs": [
        {
          "internalType": "address",
          "name": "_buddiesCoinAddress",
          "type": "address"
        }
      ],
      "name": "updateBuddiesCoinAddress",
      "outputs": [],
      "stateMutability": "nonpayable",
      "type": "function"
    },
    {
      "inputs": [
        {
          "internalType": "uint256",
          "name": "sku",
          "type": "uint256"
        },
        {
          "internalType": "uint256",
          "name": "value",
          "type": "uint256"
        },
        {
          "internalType": "uint256",
          "name": "qty",
          "type": "uint256"
        }
      ],
      "name": "purchaseFromStore",
      "outputs": [],
      "stateMutability": "nonpayable",
      "type": "function"
    },
    {
      "inputs": [
        {
          "internalType": "uint256",
          "name": "sku",
          "type": "uint256"
        }
      ],
      "name": "transferMatchupToken",
      "outputs": [],
      "stateMutability": "nonpayable",
      "type": "function"
    },
    {
      "inputs": [
        {
          "internalType": "uint256",
          "name": "input",
          "type": "uint256"
        }
      ],
      "name": "calculateWeiFromSku",
      "outputs": [
        {
          "internalType": "uint256",
          "name": "",
          "type": "uint256"
        }
      ],
      "stateMutability": "pure",
      "type": "function",
      "constant": true
    }
  ],
  "bytecode": "0x60806040523480156200001157600080fd5b506040516200196c3803806200196c833981810160405281019062000037919062000120565b336000806101000a81548173ffffffffffffffffffffffffffffffffffffffff021916908373ffffffffffffffffffffffffffffffffffffffff16021790555081600460006101000a81548173ffffffffffffffffffffffffffffffffffffffff021916908373ffffffffffffffffffffffffffffffffffffffff16021790555080600360006101000a81548173ffffffffffffffffffffffffffffffffffffffff021916908373ffffffffffffffffffffffffffffffffffffffff16021790555060006002819055505050620001ba565b6000815190506200011a81620001a0565b92915050565b600080604083850312156200013a57620001396200019b565b5b60006200014a8582860162000109565b92505060206200015d8582860162000109565b9150509250929050565b600062000174826200017b565b9050919050565b600073ffffffffffffffffffffffffffffffffffffffff82169050919050565b600080fd5b620001ab8162000167565b8114620001b757600080fd5b50565b6117a280620001ca6000396000f3fe608060405234801561001057600080fd5b50600436106100cf5760003560e01c8063bc197c811161008c578063f23a6e6111610066578063f23a6e61146101fe578063f5f2e54b1461022e578063f61a2ea81461024a578063f851a4401461027a576100cf565b8063bc197c8114610192578063c4b15141146101c2578063d8149ab7146101e0576100cf565b806301ffc9a7146100d45780634a594c12146101045780635d632faf146101225780637b853bba1461013e5780637db317111461015a578063ae90235a14610176575b600080fd5b6100ee60048036038101906100e99190610f3f565b610298565b6040516100fb919061127c565b60405180910390f35b61010c610312565b60405161011991906112b2565b60405180910390f35b61013c60048036038101906101379190610d7f565b610338565b005b61015860048036038101906101539190610fc6565b61040a565b005b610174600480360381019061016f9190610f6c565b61082d565b005b610190600480360381019061018b9190610d7f565b6108c4565b005b6101ac60048036038101906101a79190610dac565b610996565b6040516101b99190611297565b60405180910390f35b6101ca6109ab565b6040516101d7919061132d565b60405180910390f35b6101e8610a44565b6040516101f591906110ff565b60405180910390f35b61021860048036038101906102139190610e7b565b610a4c565b6040516102259190611297565b60405180910390f35b61024860048036038101906102439190610d7f565b610a61565b005b610264600480360381019061025f9190610f6c565b610b33565b604051610271919061132d565b60405180910390f35b610282610b7a565b60405161028f91906110ff565b60405180910390f35b60007f4e2312e0000000000000000000000000000000000000000000000000000000007bffffffffffffffffffffffffffffffffffffffffffffffffffffffff1916827bffffffffffffffffffffffffffffffffffffffffffffffffffffffff1916148061030b575061030a82610b9e565b5b9050919050565b600460009054906101000a900473ffffffffffffffffffffffffffffffffffffffff1681565b60008054906101000a900473ffffffffffffffffffffffffffffffffffffffff1673ffffffffffffffffffffffffffffffffffffffff163373ffffffffffffffffffffffffffffffffffffffff16146103c6576040517f08c379a00000000000000000000000000000000000000000000000000000000081526004016103bd9061130d565b60405180910390fd5b80600460006101000a81548173ffffffffffffffffffffffffffffffffffffffff021916908373ffffffffffffffffffffffffffffffffffffffff16021790555050565b600061041584610b33565b905060008282610425919061141d565b9050838114610469576040517f08c379a0000000000000000000000000000000000000000000000000000000008152600401610460906112ed565b60405180910390fd5b6001600360009054906101000a900473ffffffffffffffffffffffffffffffffffffffff1673ffffffffffffffffffffffffffffffffffffffff1662fdd58e30886040518363ffffffff1660e01b81526004016104c7929190611253565b60206040518083038186803b1580156104df57600080fd5b505afa1580156104f3573d6000803e3d6000fd5b505050506040513d601f19601f820116820180604052508101906105179190610f99565b101561052257600080fd5b6000600460009054906101000a900473ffffffffffffffffffffffffffffffffffffffff1673ffffffffffffffffffffffffffffffffffffffff1663dd62ed3e33306040518363ffffffff1660e01b815260040161058192919061111a565b60206040518083038186803b15801561059957600080fd5b505afa1580156105ad573d6000803e3d6000fd5b505050506040513d601f19601f820116820180604052508101906105d19190610f99565b905084811015610616576040517f08c379a000000000000000000000000000000000000000000000000000000000815260040161060d906112cd565b60405180910390fd5b600460009054906101000a900473ffffffffffffffffffffffffffffffffffffffff1673ffffffffffffffffffffffffffffffffffffffff166323b872dd3330886040518463ffffffff1660e01b815260040161067593929190611143565b602060405180830381600087803b15801561068f57600080fd5b505af11580156106a3573d6000803e3d6000fd5b505050506040513d601f19601f820116820180604052508101906106c79190610f12565b50600360009054906101000a900473ffffffffffffffffffffffffffffffffffffffff1673ffffffffffffffffffffffffffffffffffffffff1663a22cb465600160009054906101000a900473ffffffffffffffffffffffffffffffffffffffff1660016040518363ffffffff1660e01b815260040161074892919061122a565b600060405180830381600087803b15801561076257600080fd5b505af1158015610776573d6000803e3d6000fd5b50505050600360009054906101000a900473ffffffffffffffffffffffffffffffffffffffff1673ffffffffffffffffffffffffffffffffffffffff1663f242432a303389886040518563ffffffff1660e01b81526004016107db94939291906111d2565b600060405180830381600087803b1580156107f557600080fd5b505af1158015610809573d6000803e3d6000fd5b505050506002600081548092919061082090611561565b9190505550505050505050565b600360009054906101000a900473ffffffffffffffffffffffffffffffffffffffff1673ffffffffffffffffffffffffffffffffffffffff1663f242432a30338460016040518563ffffffff1660e01b815260040161088f949392919061117a565b600060405180830381600087803b1580156108a957600080fd5b505af11580156108bd573d6000803e3d6000fd5b5050505050565b60008054906101000a900473ffffffffffffffffffffffffffffffffffffffff1673ffffffffffffffffffffffffffffffffffffffff163373ffffffffffffffffffffffffffffffffffffffff1614610952576040517f08c379a00000000000000000000000000000000000000000000000000000000081526004016109499061130d565b60405180910390fd5b80600360006101000a81548173ffffffffffffffffffffffffffffffffffffffff021916908373ffffffffffffffffffffffffffffffffffffffff16021790555050565b600063bc197c8160e01b905095945050505050565b60008060009054906101000a900473ffffffffffffffffffffffffffffffffffffffff1673ffffffffffffffffffffffffffffffffffffffff163373ffffffffffffffffffffffffffffffffffffffff1614610a3c576040517f08c379a0000000000000000000000000000000000000000000000000000000008152600401610a339061130d565b60405180910390fd5b600254905090565b600030905090565b600063f23a6e6160e01b905095945050505050565b60008054906101000a900473ffffffffffffffffffffffffffffffffffffffff1673ffffffffffffffffffffffffffffffffffffffff163373ffffffffffffffffffffffffffffffffffffffff1614610aef576040517f08c379a0000000000000000000000000000000000000000000000000000000008152600401610ae69061130d565b60405180910390fd5b80600160006101000a81548173ffffffffffffffffffffffffffffffffffffffff021916908373ffffffffffffffffffffffffffffffffffffffff16021790555050565b600080606483610b4391906113ec565b905060006305f5e10082610b5791906115aa565b90506000655af3107a400082610b6d919061141d565b9050809350505050919050565b60008054906101000a900473ffffffffffffffffffffffffffffffffffffffff1681565b60007f01ffc9a7000000000000000000000000000000000000000000000000000000007bffffffffffffffffffffffffffffffffffffffffffffffffffffffff1916827bffffffffffffffffffffffffffffffffffffffffffffffffffffffff1916149050919050565b6000610c1b610c168461136d565b611348565b90508083825260208201905082856020860282011115610c3e57610c3d61166d565b5b60005b85811015610c6e5781610c548882610d55565b845260208401935060208301925050600181019050610c41565b5050509392505050565b6000610c8b610c8684611399565b611348565b905082815260208101848484011115610ca757610ca6611672565b5b610cb2848285611521565b509392505050565b600081359050610cc981611710565b92915050565b600082601f830112610ce457610ce3611668565b5b8135610cf4848260208601610c08565b91505092915050565b600081519050610d0c81611727565b92915050565b600081359050610d218161173e565b92915050565b600082601f830112610d3c57610d3b611668565b5b8135610d4c848260208601610c78565b91505092915050565b600081359050610d6481611755565b92915050565b600081519050610d7981611755565b92915050565b600060208284031215610d9557610d9461167c565b5b6000610da384828501610cba565b91505092915050565b600080600080600060a08688031215610dc857610dc761167c565b5b6000610dd688828901610cba565b9550506020610de788828901610cba565b945050604086013567ffffffffffffffff811115610e0857610e07611677565b5b610e1488828901610ccf565b935050606086013567ffffffffffffffff811115610e3557610e34611677565b5b610e4188828901610ccf565b925050608086013567ffffffffffffffff811115610e6257610e61611677565b5b610e6e88828901610d27565b9150509295509295909350565b600080600080600060a08688031215610e9757610e9661167c565b5b6000610ea588828901610cba565b9550506020610eb688828901610cba565b9450506040610ec788828901610d55565b9350506060610ed888828901610d55565b925050608086013567ffffffffffffffff811115610ef957610ef8611677565b5b610f0588828901610d27565b9150509295509295909350565b600060208284031215610f2857610f2761167c565b5b6000610f3684828501610cfd565b91505092915050565b600060208284031215610f5557610f5461167c565b5b6000610f6384828501610d12565b91505092915050565b600060208284031215610f8257610f8161167c565b5b6000610f9084828501610d55565b91505092915050565b600060208284031215610faf57610fae61167c565b5b6000610fbd84828501610d6a565b91505092915050565b600080600060608486031215610fdf57610fde61167c565b5b6000610fed86828701610d55565b9350506020610ffe86828701610d55565b925050604061100f86828701610d55565b9150509250925092565b61102281611477565b82525050565b61103181611489565b82525050565b61104081611495565b82525050565b61104f816114eb565b82525050565b61105e8161150f565b82525050565b60006110716002836113db565b915061107c82611692565b602082019050919050565b60006110946002836113db565b915061109f826116bb565b602082019050919050565b60006110b76000836113ca565b91506110c2826116e4565b600082019050919050565b60006110da6020836113db565b91506110e5826116e7565b602082019050919050565b6110f9816114e1565b82525050565b60006020820190506111146000830184611019565b92915050565b600060408201905061112f6000830185611019565b61113c6020830184611019565b9392505050565b60006060820190506111586000830186611019565b6111656020830185611019565b61117260408301846110f0565b949350505050565b600060a08201905061118f6000830187611019565b61119c6020830186611019565b6111a960408301856110f0565b6111b66060830184611055565b81810360808301526111c7816110aa565b905095945050505050565b600060a0820190506111e76000830187611019565b6111f46020830186611019565b61120160408301856110f0565b61120e60608301846110f0565b818103608083015261121f816110aa565b905095945050505050565b600060408201905061123f6000830185611019565b61124c6020830184611028565b9392505050565b60006040820190506112686000830185611019565b61127560208301846110f0565b9392505050565b60006020820190506112916000830184611028565b92915050565b60006020820190506112ac6000830184611037565b92915050565b60006020820190506112c76000830184611046565b92915050565b600060208201905081810360008301526112e681611064565b9050919050565b6000602082019050818103600083015261130681611087565b9050919050565b60006020820190508181036000830152611326816110cd565b9050919050565b600060208201905061134260008301846110f0565b92915050565b6000611352611363565b905061135e8282611530565b919050565b6000604051905090565b600067ffffffffffffffff82111561138857611387611639565b5b602082029050602081019050919050565b600067ffffffffffffffff8211156113b4576113b3611639565b5b6113bd82611681565b9050602081019050919050565b600082825260208201905092915050565b600082825260208201905092915050565b60006113f7826114e1565b9150611402836114e1565b9250826114125761141161160a565b5b828204905092915050565b6000611428826114e1565b9150611433836114e1565b9250817fffffffffffffffffffffffffffffffffffffffffffffffffffffffffffffffff048311821515161561146c5761146b6115db565b5b828202905092915050565b6000611482826114c1565b9050919050565b60008115159050919050565b60007fffffffff0000000000000000000000000000000000000000000000000000000082169050919050565b600073ffffffffffffffffffffffffffffffffffffffff82169050919050565b6000819050919050565b60006114f6826114fd565b9050919050565b6000611508826114c1565b9050919050565b600061151a826114e1565b9050919050565b82818337600083830152505050565b61153982611681565b810181811067ffffffffffffffff8211171561155857611557611639565b5b80604052505050565b600061156c826114e1565b91507fffffffffffffffffffffffffffffffffffffffffffffffffffffffffffffffff82141561159f5761159e6115db565b5b600182019050919050565b60006115b5826114e1565b91506115c0836114e1565b9250826115d0576115cf61160a565b5b828206905092915050565b7f4e487b7100000000000000000000000000000000000000000000000000000000600052601160045260246000fd5b7f4e487b7100000000000000000000000000000000000000000000000000000000600052601260045260246000fd5b7f4e487b7100000000000000000000000000000000000000000000000000000000600052604160045260246000fd5b600080fd5b600080fd5b600080fd5b600080fd5b600080fd5b6000601f19601f8301169050919050565b7f4131000000000000000000000000000000000000000000000000000000000000600082015250565b7f5031000000000000000000000000000000000000000000000000000000000000600082015250565b50565b7f4f6e6c792041646d696e2063616e20706572666f726d20746869732063616c6c600082015250565b61171981611477565b811461172457600080fd5b50565b61173081611489565b811461173b57600080fd5b50565b61174781611495565b811461175257600080fd5b50565b61175e816114e1565b811461176957600080fd5b5056fea26469706673582212202b8d08a23defe29c451b3fe14d7299007f1fa5c702679fd99ebd84ff3e8730b664736f6c63430008060033",
  "immutableReferences": {},
  "source": "// SPDX-License-Identifier: MIT\r\npragma solidity >=0.4.22 <0.9.0;\r\nimport \"../node_modules/@openzeppelin/contracts/token/ERC20/IERC20.sol\";\r\nimport '../node_modules/@openzeppelin/contracts/token/ERC1155/IERC1155.sol';\r\nimport \"../node_modules/@openzeppelin/contracts/token/ERC1155/utils/ERC1155Holder.sol\";\r\n\r\ncontract PBProShopHolder is ERC1155Holder{\r\n    \r\n    address public admin;\r\n    address proshopmarketplaceaddress;\r\n    uint itemsSold;\r\n    IERC1155 private pbproshopfactory;\r\n    IERC20 public buddies;\r\n        \r\n    modifier onlyAdmin() {\r\n        require(msg.sender == admin, \"Only Admin can perform this call\");\r\n        _;\r\n    }\r\n\r\n    constructor(address _buddiesCoinAddress, address _pbProShopAddress) ERC1155Holder() {\r\n        admin = msg.sender;\r\n        buddies = IERC20(_buddiesCoinAddress);\r\n        pbproshopfactory = IERC1155(_pbProShopAddress);\r\n        itemsSold = 0;\r\n    }\r\n\r\n    function getPBProShopHolderAddress() public view returns (address){\r\n        return address(this);\r\n    }\r\n\r\n    function getItemsSold() public view onlyAdmin returns (uint) {\r\n        return (itemsSold);\r\n    }\r\n    \r\n   function updateProShopAddress(address proshopaddress) external onlyAdmin {\r\n       pbproshopfactory = IERC1155(proshopaddress);\r\n   }\r\n\r\n   function updateProshopMarketplaceAddress(address _ProshopMarketplaceAddress)external onlyAdmin {\r\n       proshopmarketplaceaddress = _ProshopMarketplaceAddress;\r\n   }\r\n\r\n    function updateBuddiesCoinAddress(address _buddiesCoinAddress) onlyAdmin external {\r\n        buddies = IERC20(_buddiesCoinAddress);\r\n    }\r\n    \r\n    function purchaseFromStore(uint256 sku, uint value, uint qty) external {\r\n        uint weiFromSku = calculateWeiFromSku(sku);\r\n        uint checkValue = weiFromSku * qty;\r\n        require(checkValue == value, \"P1\");\r\n        require(pbproshopfactory.balanceOf(address(this), sku) >= 1);\r\n        uint allowance = buddies.allowance(msg.sender, address(this));\r\n        require(allowance >= value, \"A1\");\r\n        buddies.transferFrom(msg.sender, address(this), value);\r\n        pbproshopfactory.setApprovalForAll(proshopmarketplaceaddress, true);\r\n        pbproshopfactory.safeTransferFrom(address(this), msg.sender, sku, qty, \"\");\r\n        itemsSold++;\r\n    }\r\n\r\n    function transferMatchupToken(uint sku) external {\r\n        pbproshopfactory.safeTransferFrom(address(this), msg.sender, sku, 1, \"\");\r\n    }\r\n\r\n    function calculateWeiFromSku (uint input) public pure returns (uint){\r\n        uint a = input / 100;\r\n        uint b = a % 100000000;\r\n        uint c = b * 10 ** 14;\r\n        return c;\r\n    }\r\n    \r\n}\r\n\r\n",
  "sourcePath": "O:\\Projects\\puck-buddies\\contracts\\PBProShopHolder.sol",
  "compiler": {
    "name": "solc",
    "version": "0.8.6+commit.11564f7e.Emscripten.clang"
  },
  "schemaVersion": "3.4.3",
  "updatedAt": "2021-11-19T19:52:01.605Z",
  "networkType": "ethereum",
  "devdoc": {
    "kind": "dev",
    "methods": {
      "supportsInterface(bytes4)": {
        "details": "See {IERC165-supportsInterface}."
      }
    },
    "version": 1
  },
  "userdoc": {
    "kind": "user",
    "methods": {},
    "version": 1
  }
}