{
  "contractName": "PBPvCMatchups",
  "abi": [
    {
      "inputs": [
        {
          "internalType": "address",
          "name": "_buddiesCoinAddress",
          "type": "address"
        },
        {
          "internalType": "address",
          "name": "_pbxpAddress",
          "type": "address"
        },
        {
          "internalType": "address",
          "name": "_pbTeamsAddress",
          "type": "address"
        },
        {
          "internalType": "address",
          "name": "_pbPvCHelperAddress",
          "type": "address"
        },
        {
          "internalType": "uint256[]",
          "name": "_timeoutSeconds",
          "type": "uint256[]"
        },
        {
          "internalType": "uint256[]",
          "name": "_reward",
          "type": "uint256[]"
        },
        {
          "internalType": "uint256",
          "name": "_xpReward",
          "type": "uint256"
        },
        {
          "internalType": "uint256",
          "name": "_difficultymod",
          "type": "uint256"
        }
      ],
      "stateMutability": "nonpayable",
      "type": "constructor"
    },
    {
      "inputs": [],
      "name": "PBXPToken",
      "outputs": [
        {
          "internalType": "contract PBXP",
          "name": "",
          "type": "address"
        }
      ],
      "stateMutability": "view",
      "type": "function",
      "constant": true
    },
    {
      "inputs": [
        {
          "internalType": "uint256",
          "name": "",
          "type": "uint256"
        }
      ],
      "name": "_teamPvCMatchups",
      "outputs": [
        {
          "internalType": "uint256",
          "name": "teamId",
          "type": "uint256"
        },
        {
          "internalType": "uint256",
          "name": "activeTimestamp1",
          "type": "uint256"
        },
        {
          "internalType": "uint256",
          "name": "activeTimestamp2",
          "type": "uint256"
        },
        {
          "internalType": "uint256",
          "name": "activeTimestamp3",
          "type": "uint256"
        },
        {
          "internalType": "bool",
          "name": "lastMatchWon1",
          "type": "bool"
        },
        {
          "internalType": "bool",
          "name": "lastMatchWon2",
          "type": "bool"
        },
        {
          "internalType": "bool",
          "name": "lastMatchWon3",
          "type": "bool"
        },
        {
          "internalType": "address",
          "name": "ownerAddress",
          "type": "address"
        },
        {
          "internalType": "uint256",
          "name": "nonce1",
          "type": "uint256"
        },
        {
          "internalType": "uint256",
          "name": "nonce2",
          "type": "uint256"
        },
        {
          "internalType": "uint256",
          "name": "nonce3",
          "type": "uint256"
        }
      ],
      "stateMutability": "view",
      "type": "function",
      "constant": true
    },
    {
      "inputs": [],
      "name": "buddies",
      "outputs": [
        {
          "internalType": "contract IERC20",
          "name": "",
          "type": "address"
        }
      ],
      "stateMutability": "view",
      "type": "function",
      "constant": true
    },
    {
      "inputs": [],
      "name": "pbPvCHelper",
      "outputs": [
        {
          "internalType": "contract PBPvCHelper",
          "name": "",
          "type": "address"
        }
      ],
      "stateMutability": "view",
      "type": "function",
      "constant": true
    },
    {
      "inputs": [],
      "name": "pbTeams",
      "outputs": [
        {
          "internalType": "contract PBTeams",
          "name": "",
          "type": "address"
        }
      ],
      "stateMutability": "view",
      "type": "function",
      "constant": true
    },
    {
      "inputs": [
        {
          "internalType": "uint256",
          "name": "val1",
          "type": "uint256"
        },
        {
          "internalType": "uint256",
          "name": "val2",
          "type": "uint256"
        }
      ],
      "name": "updateValidation",
      "outputs": [],
      "stateMutability": "nonpayable",
      "type": "function"
    },
    {
      "inputs": [],
      "name": "getPBPvCMatchupsAddress",
      "outputs": [
        {
          "internalType": "address",
          "name": "",
          "type": "address"
        }
      ],
      "stateMutability": "view",
      "type": "function",
      "constant": true
    },
    {
      "inputs": [],
      "name": "getDifficultyMod",
      "outputs": [
        {
          "internalType": "uint256",
          "name": "",
          "type": "uint256"
        }
      ],
      "stateMutability": "view",
      "type": "function",
      "constant": true
    },
    {
      "inputs": [
        {
          "internalType": "uint256",
          "name": "_difficultymod",
          "type": "uint256"
        }
      ],
      "name": "updateDifficultyMod",
      "outputs": [],
      "stateMutability": "nonpayable",
      "type": "function"
    },
    {
      "inputs": [],
      "name": "getBuddiesReward",
      "outputs": [
        {
          "internalType": "uint256",
          "name": "",
          "type": "uint256"
        },
        {
          "internalType": "uint256",
          "name": "",
          "type": "uint256"
        },
        {
          "internalType": "uint256",
          "name": "",
          "type": "uint256"
        }
      ],
      "stateMutability": "view",
      "type": "function",
      "constant": true
    },
    {
      "inputs": [
        {
          "internalType": "uint256[]",
          "name": "_reward",
          "type": "uint256[]"
        }
      ],
      "name": "updateBuddiesReward",
      "outputs": [],
      "stateMutability": "nonpayable",
      "type": "function"
    },
    {
      "inputs": [
        {
          "internalType": "uint256[]",
          "name": "_timeoutSeconds",
          "type": "uint256[]"
        }
      ],
      "name": "updateTimesOut",
      "outputs": [],
      "stateMutability": "nonpayable",
      "type": "function"
    },
    {
      "inputs": [],
      "name": "getPBXPReward",
      "outputs": [
        {
          "internalType": "uint256",
          "name": "",
          "type": "uint256"
        }
      ],
      "stateMutability": "view",
      "type": "function",
      "constant": true
    },
    {
      "inputs": [
        {
          "internalType": "uint256",
          "name": "_xpReward",
          "type": "uint256"
        }
      ],
      "name": "updatePBXPReward",
      "outputs": [],
      "stateMutability": "nonpayable",
      "type": "function"
    },
    {
      "inputs": [
        {
          "internalType": "address",
          "name": "_widthdrawAddress",
          "type": "address"
        },
        {
          "internalType": "uint256",
          "name": "_amount",
          "type": "uint256"
        }
      ],
      "name": "widthdrawBuddiesFromContract",
      "outputs": [],
      "stateMutability": "nonpayable",
      "type": "function"
    },
    {
      "inputs": [
        {
          "internalType": "uint256",
          "name": "_token",
          "type": "uint256"
        },
        {
          "internalType": "uint256",
          "name": "_difficulty",
          "type": "uint256"
        },
        {
          "internalType": "uint256",
          "name": "_teamId",
          "type": "uint256"
        }
      ],
      "name": "rewardMatchup",
      "outputs": [],
      "stateMutability": "nonpayable",
      "type": "function"
    },
    {
      "inputs": [
        {
          "internalType": "uint256",
          "name": "mod",
          "type": "uint256"
        },
        {
          "internalType": "uint256",
          "name": "difficulty",
          "type": "uint256"
        },
        {
          "internalType": "uint256",
          "name": "teamId",
          "type": "uint256"
        }
      ],
      "name": "generateRandomTeamDNA",
      "outputs": [
        {
          "internalType": "uint256",
          "name": "",
          "type": "uint256"
        }
      ],
      "stateMutability": "view",
      "type": "function",
      "constant": true
    },
    {
      "inputs": [
        {
          "internalType": "uint256",
          "name": "teamId",
          "type": "uint256"
        }
      ],
      "name": "getTimeOuts",
      "outputs": [
        {
          "internalType": "uint256",
          "name": "",
          "type": "uint256"
        },
        {
          "internalType": "uint256",
          "name": "",
          "type": "uint256"
        },
        {
          "internalType": "uint256",
          "name": "",
          "type": "uint256"
        },
        {
          "internalType": "bool",
          "name": "",
          "type": "bool"
        },
        {
          "internalType": "bool",
          "name": "",
          "type": "bool"
        },
        {
          "internalType": "bool",
          "name": "",
          "type": "bool"
        },
        {
          "internalType": "uint256",
          "name": "",
          "type": "uint256"
        },
        {
          "internalType": "uint256",
          "name": "",
          "type": "uint256"
        },
        {
          "internalType": "uint256",
          "name": "",
          "type": "uint256"
        }
      ],
      "stateMutability": "view",
      "type": "function",
      "constant": true
    },
    {
      "inputs": [
        {
          "internalType": "uint256",
          "name": "teamId",
          "type": "uint256"
        }
      ],
      "name": "getNoMatchups",
      "outputs": [
        {
          "internalType": "uint256",
          "name": "",
          "type": "uint256"
        },
        {
          "internalType": "uint256",
          "name": "",
          "type": "uint256"
        },
        {
          "internalType": "uint256",
          "name": "",
          "type": "uint256"
        }
      ],
      "stateMutability": "view",
      "type": "function",
      "constant": true
    },
    {
      "inputs": [],
      "name": "getPvCMatchupsTimestamp",
      "outputs": [
        {
          "internalType": "uint256",
          "name": "",
          "type": "uint256"
        }
      ],
      "stateMutability": "view",
      "type": "function",
      "constant": true
    }
  ],
  "bytecode": "0x60806040526305f4334460025563054e03f3600355662386f26fc1000060045560046005553480156200003157600080fd5b50604051620027f0380380620027f083398181016040528101906200005791906200033f565b600160008190555033600160006101000a81548173ffffffffffffffffffffffffffffffffffffffff021916908373ffffffffffffffffffffffffffffffffffffffff16021790555087600c60006101000a81548173ffffffffffffffffffffffffffffffffffffffff021916908373ffffffffffffffffffffffffffffffffffffffff16021790555086600e60006101000a81548173ffffffffffffffffffffffffffffffffffffffff021916908373ffffffffffffffffffffffffffffffffffffffff16021790555085600d60006101000a81548173ffffffffffffffffffffffffffffffffffffffff021916908373ffffffffffffffffffffffffffffffffffffffff16021790555084600f60006101000a81548173ffffffffffffffffffffffffffffffffffffffff021916908373ffffffffffffffffffffffffffffffffffffffff1602179055508360089080519060200190620001bc929190620001f2565b508260099080519060200190620001d5929190620001f2565b5081600a8190555080600b8190555050505050505050506200059a565b82805482825590600052602060002090810192821562000231579160200282015b828111156200023057825182559160200191906001019062000213565b5b50905062000240919062000244565b5090565b5b808211156200025f57600081600090555060010162000245565b5090565b60006200027a62000274846200046f565b62000446565b90508083825260208201905082856020860282011115620002a0576200029f62000546565b5b60005b85811015620002d45781620002b9888262000328565b845260208401935060208301925050600181019050620002a3565b5050509392505050565b600081519050620002ef8162000566565b92915050565b600082601f8301126200030d576200030c62000541565b5b81516200031f84826020860162000263565b91505092915050565b600081519050620003398162000580565b92915050565b600080600080600080600080610100898b03121562000363576200036262000550565b5b6000620003738b828c01620002de565b9850506020620003868b828c01620002de565b9750506040620003998b828c01620002de565b9650506060620003ac8b828c01620002de565b955050608089015167ffffffffffffffff811115620003d057620003cf6200054b565b5b620003de8b828c01620002f5565b94505060a089015167ffffffffffffffff8111156200040257620004016200054b565b5b620004108b828c01620002f5565b93505060c0620004238b828c0162000328565b92505060e0620004368b828c0162000328565b9150509295985092959890939650565b60006200045262000465565b9050620004608282620004dc565b919050565b6000604051905090565b600067ffffffffffffffff8211156200048d576200048c62000512565b5b602082029050602081019050919050565b6000620004ab82620004b2565b9050919050565b600073ffffffffffffffffffffffffffffffffffffffff82169050919050565b6000819050919050565b620004e78262000555565b810181811067ffffffffffffffff8211171562000509576200050862000512565b5b80604052505050565b7f4e487b7100000000000000000000000000000000000000000000000000000000600052604160045260246000fd5b600080fd5b600080fd5b600080fd5b600080fd5b6000601f19601f8301169050919050565b62000571816200049e565b81146200057d57600080fd5b50565b6200058b81620004d2565b81146200059757600080fd5b50565b61224680620005aa6000396000f3fe608060405234801561001057600080fd5b506004361061012c5760003560e01c8063a0b1a714116100ad578063e00c01c511610071578063e00c01c51461032b578063e245c22d14610349578063e9992a7814610383578063f15e0e9c1461039f578063f8f7bdea146103bd5761012c565b8063a0b1a71414610273578063a6eaa2a31461028f578063b4fad1ff146102ad578063b791841a146102dd578063c09f1232146102f95761012c565b8063532195bb116100f4578063532195bb146101e157806353b7a2e2146101ff5780635b016d6e1461021b57806362170b711461023757806397ede525146102555761012c565b80631df05102146101315780632071a7fb1461014d57806347a69777146101855780634a594c12146101a557806351171af2146101c3575b600080fd5b61014b600480360381019061014691906119cb565b6103d9565b005b6101676004803603810190610162919061195e565b610f08565b60405161017c99989796959493929190611cea565b60405180910390f35b61018d610ff1565b60405161019c93929190611cb3565b60405180910390f35b6101ad611061565b6040516101ba9190611bec565b60405180910390f35b6101cb611087565b6040516101d89190611ba8565b60405180910390f35b6101e961108f565b6040516101f69190611c98565b60405180910390f35b6102196004803603810190610214919061195e565b611099565b005b610235600480360381019061023091906118e8565b611133565b005b61023f6111dd565b60405161024c9190611c98565b60405180910390f35b61025d6111e7565b60405161026a9190611c3d565b60405180910390f35b61028d6004803603810190610288919061198b565b61120d565b005b6102976112af565b6040516102a49190611c98565b60405180910390f35b6102c760048036038101906102c291906119cb565b6112b7565b6040516102d49190611c98565b60405180910390f35b6102f760048036038101906102f2919061195e565b6113b4565b005b610313600480360381019061030e919061195e565b61144e565b60405161032293929190611cb3565b60405180910390f35b610333611486565b6040516103409190611c22565b60405180910390f35b610363600480360381019061035e919061195e565b6114ac565b60405161037a9b9a99989796959493929190611d77565b60405180910390f35b61039d600480360381019061039891906118a8565b61154d565b005b6103a7611691565b6040516103b49190611c07565b60405180910390f35b6103d760048036038101906103d291906118e8565b6116b7565b005b600060106000838152602001908152602001600020905060006001841415610407578160050154905061042f565b600284141561041c578160060154905061042e565b600384141561042d57816007015490505b5b5b60003360025483878760405160200161044c959493929190611afb565b6040516020818303038152906040528051906020012060001c9050600033600354848888604051602001610484959493929190611afb565b6040516020818303038152906040528051906020012060001c905081871415610b075760018614156106c65783600101544210156104f7576040517f08c379a00000000000000000000000000000000000000000000000000000000081526004016104ee90611c78565b60405180910390fd5b600860008154811061050c5761050b6120e9565b5b9060005260206000200154426105229190611e84565b846001018190555060018460040160006101000a81548160ff021916908315150217905550600c60009054906101000a900473ffffffffffffffffffffffffffffffffffffffff1673ffffffffffffffffffffffffffffffffffffffff1663a9059cbb33600960008154811061059b5761059a6120e9565b5b90600052602060002001546040518363ffffffff1660e01b81526004016105c3929190611bc3565b602060405180830381600087803b1580156105dd57600080fd5b505af11580156105f1573d6000803e3d6000fd5b505050506040513d601f19601f820116820180604052508101906106159190611931565b50600e60009054906101000a900473ffffffffffffffffffffffffffffffffffffffff1673ffffffffffffffffffffffffffffffffffffffff1663c43df89a33600a546040518363ffffffff1660e01b8152600401610675929190611bc3565b600060405180830381600087803b15801561068f57600080fd5b505af11580156106a3573d6000803e3d6000fd5b505050508360050160008154809291906106bc90611fe3565b9190505550610b02565b60028614156108e5578360020154421015610716576040517f08c379a000000000000000000000000000000000000000000000000000000000815260040161070d90611c78565b60405180910390fd5b600860018154811061072b5761072a6120e9565b5b9060005260206000200154426107419190611e84565b846002018190555060018460040160016101000a81548160ff021916908315150217905550600c60009054906101000a900473ffffffffffffffffffffffffffffffffffffffff1673ffffffffffffffffffffffffffffffffffffffff1663a9059cbb3360096001815481106107ba576107b96120e9565b5b90600052602060002001546040518363ffffffff1660e01b81526004016107e2929190611bc3565b602060405180830381600087803b1580156107fc57600080fd5b505af1158015610810573d6000803e3d6000fd5b505050506040513d601f19601f820116820180604052508101906108349190611931565b50600e60009054906101000a900473ffffffffffffffffffffffffffffffffffffffff1673ffffffffffffffffffffffffffffffffffffffff1663c43df89a33600a546040518363ffffffff1660e01b8152600401610894929190611bc3565b600060405180830381600087803b1580156108ae57600080fd5b505af11580156108c2573d6000803e3d6000fd5b505050508360060160008154809291906108db90611fe3565b9190505550610b01565b6003861415610b00578360030154421015610935576040517f08c379a000000000000000000000000000000000000000000000000000000000815260040161092c90611c78565b60405180910390fd5b600860028154811061094a576109496120e9565b5b9060005260206000200154426109609190611e84565b846003018190555060018460040160026101000a81548160ff021916908315150217905550600c60009054906101000a900473ffffffffffffffffffffffffffffffffffffffff1673ffffffffffffffffffffffffffffffffffffffff1663a9059cbb3360096002815481106109d9576109d86120e9565b5b90600052602060002001546040518363ffffffff1660e01b8152600401610a01929190611bc3565b602060405180830381600087803b158015610a1b57600080fd5b505af1158015610a2f573d6000803e3d6000fd5b505050506040513d601f19601f82011682018060405250810190610a539190611931565b50600e60009054906101000a900473ffffffffffffffffffffffffffffffffffffffff1673ffffffffffffffffffffffffffffffffffffffff1663c43df89a33600a546040518363ffffffff1660e01b8152600401610ab3929190611bc3565b600060405180830381600087803b158015610acd57600080fd5b505af1158015610ae1573d6000803e3d6000fd5b50505050836007016000815480929190610afa90611fe3565b91905055505b5b5b610eff565b80871415610efe576001861415610c5f578360010154421015610b5f576040517f08c379a0000000000000000000000000000000000000000000000000000000008152600401610b5690611c78565b60405180910390fd5b6008600081548110610b7457610b736120e9565b5b906000526020600020015442610b8a9190611e84565b846001018190555060008460040160006101000a81548160ff021916908315150217905550600e60009054906101000a900473ffffffffffffffffffffffffffffffffffffffff1673ffffffffffffffffffffffffffffffffffffffff1663c43df89a33600a546040518363ffffffff1660e01b8152600401610c0e929190611bc3565b600060405180830381600087803b158015610c2857600080fd5b505af1158015610c3c573d6000803e3d6000fd5b50505050836005016000815480929190610c5590611fe3565b9190505550610efd565b6002861415610daf578360020154421015610caf576040517f08c379a0000000000000000000000000000000000000000000000000000000008152600401610ca690611c78565b60405180910390fd5b6008600181548110610cc457610cc36120e9565b5b906000526020600020015442610cda9190611e84565b846002018190555060008460040160016101000a81548160ff021916908315150217905550600e60009054906101000a900473ffffffffffffffffffffffffffffffffffffffff1673ffffffffffffffffffffffffffffffffffffffff1663c43df89a33600a546040518363ffffffff1660e01b8152600401610d5e929190611bc3565b600060405180830381600087803b158015610d7857600080fd5b505af1158015610d8c573d6000803e3d6000fd5b50505050836006016000815480929190610da590611fe3565b9190505550610efc565b6003861415610efb578360030154421015610dff576040517f08c379a0000000000000000000000000000000000000000000000000000000008152600401610df690611c78565b60405180910390fd5b6008600281548110610e1457610e136120e9565b5b906000526020600020015442610e2a9190611e84565b846003018190555060008460040160026101000a81548160ff021916908315150217905550600e60009054906101000a900473ffffffffffffffffffffffffffffffffffffffff1673ffffffffffffffffffffffffffffffffffffffff1663c43df89a33600a546040518363ffffffff1660e01b8152600401610eae929190611bc3565b600060405180830381600087803b158015610ec857600080fd5b505af1158015610edc573d6000803e3d6000fd5b50505050836007016000815480929190610ef590611fe3565b91905055505b5b5b5b5b50505050505050565b600080600080600080600080600080601060008c815260200190815260200160002090506008600081548110610f4157610f406120e9565b5b90600052602060002001546008600181548110610f6157610f606120e9565b5b90600052602060002001546008600281548110610f8157610f806120e9565b5b90600052602060002001548360040160009054906101000a900460ff168460040160019054906101000a900460ff168560040160029054906101000a900460ff16866001015487600201548860030154995099509950995099509950995099509950509193959799909294969850565b6000806000600960008154811061100b5761100a6120e9565b5b9060005260206000200154600960018154811061102b5761102a6120e9565b5b9060005260206000200154600960028154811061104b5761104a6120e9565b5b9060005260206000200154925092509250909192565b600c60009054906101000a900473ffffffffffffffffffffffffffffffffffffffff1681565b600030905090565b6000600a54905090565b3373ffffffffffffffffffffffffffffffffffffffff16600160009054906101000a900473ffffffffffffffffffffffffffffffffffffffff1673ffffffffffffffffffffffffffffffffffffffff1614611129576040517f08c379a000000000000000000000000000000000000000000000000000000000815260040161112090611c58565b60405180910390fd5b80600a8190555050565b3373ffffffffffffffffffffffffffffffffffffffff16600160009054906101000a900473ffffffffffffffffffffffffffffffffffffffff1673ffffffffffffffffffffffffffffffffffffffff16146111c3576040517f08c379a00000000000000000000000000000000000000000000000000000000081526004016111ba90611c58565b60405180910390fd5b80600990805190602001906111d9929190611761565b5050565b6000600b54905090565b600e60009054906101000a900473ffffffffffffffffffffffffffffffffffffffff1681565b3373ffffffffffffffffffffffffffffffffffffffff16600160009054906101000a900473ffffffffffffffffffffffffffffffffffffffff1673ffffffffffffffffffffffffffffffffffffffff161461129d576040517f08c379a000000000000000000000000000000000000000000000000000000000815260040161129490611c58565b60405180910390fd5b81600281905550806003819055505050565b600042905090565b600080601060008481526020019081526020016000209050600060018514156113155781600501543387876040516020016112f59493929190611b5a565b6040516020818303038152906040528051906020012060001c905061139b565b60028514156113595781600601543387876040516020016113399493929190611b5a565b6040516020818303038152906040528051906020012060001c905061139a565b600385141561139957816007015433878760405160200161137d9493929190611b5a565b6040516020818303038152906040528051906020012060001c90505b5b5b600454816113a9919061205a565b925050509392505050565b3373ffffffffffffffffffffffffffffffffffffffff16600160009054906101000a900473ffffffffffffffffffffffffffffffffffffffff1673ffffffffffffffffffffffffffffffffffffffff1614611444576040517f08c379a000000000000000000000000000000000000000000000000000000000815260040161143b90611c58565b60405180910390fd5b80600b8190555050565b600080600080601060008681526020019081526020016000209050806005015481600601548260070154935093509350509193909250565b600d60009054906101000a900473ffffffffffffffffffffffffffffffffffffffff1681565b60106020528060005260406000206000915090508060000154908060010154908060020154908060030154908060040160009054906101000a900460ff16908060040160019054906101000a900460ff16908060040160029054906101000a900460ff16908060040160039054906101000a900473ffffffffffffffffffffffffffffffffffffffff1690806005015490806006015490806007015490508b565b3373ffffffffffffffffffffffffffffffffffffffff16600160009054906101000a900473ffffffffffffffffffffffffffffffffffffffff1673ffffffffffffffffffffffffffffffffffffffff16146115dd576040517f08c379a00000000000000000000000000000000000000000000000000000000081526004016115d490611c58565b60405180910390fd5b600c60009054906101000a900473ffffffffffffffffffffffffffffffffffffffff1673ffffffffffffffffffffffffffffffffffffffff1663a9059cbb83836040518363ffffffff1660e01b815260040161163a929190611bc3565b602060405180830381600087803b15801561165457600080fd5b505af1158015611668573d6000803e3d6000fd5b505050506040513d601f19601f8201168201806040525081019061168c9190611931565b505050565b600f60009054906101000a900473ffffffffffffffffffffffffffffffffffffffff1681565b3373ffffffffffffffffffffffffffffffffffffffff16600160009054906101000a900473ffffffffffffffffffffffffffffffffffffffff1673ffffffffffffffffffffffffffffffffffffffff1614611747576040517f08c379a000000000000000000000000000000000000000000000000000000000815260040161173e90611c58565b60405180910390fd5b806008908051906020019061175d929190611761565b5050565b82805482825590600052602060002090810192821561179d579160200282015b8281111561179c578251825591602001919060010190611781565b5b5090506117aa91906117ae565b5090565b5b808211156117c75760008160009055506001016117af565b5090565b60006117de6117d984611e47565b611e22565b905080838252602082019050828560208602820111156118015761180061214c565b5b60005b8581101561183157816118178882611893565b845260208401935060208301925050600181019050611804565b5050509392505050565b60008135905061184a816121cb565b92915050565b600082601f83011261186557611864612147565b5b81356118758482602086016117cb565b91505092915050565b60008151905061188d816121e2565b92915050565b6000813590506118a2816121f9565b92915050565b600080604083850312156118bf576118be612156565b5b60006118cd8582860161183b565b92505060206118de85828601611893565b9150509250929050565b6000602082840312156118fe576118fd612156565b5b600082013567ffffffffffffffff81111561191c5761191b612151565b5b61192884828501611850565b91505092915050565b60006020828403121561194757611946612156565b5b60006119558482850161187e565b91505092915050565b60006020828403121561197457611973612156565b5b600061198284828501611893565b91505092915050565b600080604083850312156119a2576119a1612156565b5b60006119b085828601611893565b92505060206119c185828601611893565b9150509250929050565b6000806000606084860312156119e4576119e3612156565b5b60006119f286828701611893565b9350506020611a0386828701611893565b9250506040611a1486828701611893565b9150509250925092565b611a2781611eda565b82525050565b611a3e611a3982611eda565b61202c565b82525050565b611a4d81611eec565b82525050565b611a5c81611f22565b82525050565b611a6b81611f46565b82525050565b611a7a81611f6a565b82525050565b611a8981611f8e565b82525050565b6000611a9c600283611e73565b9150611aa782612179565b602082019050919050565b6000611abf600283611e73565b9150611aca826121a2565b602082019050919050565b611ade81611f18565b82525050565b611af5611af082611f18565b612050565b82525050565b6000611b078288611a2d565b601482019150611b178287611ae4565b602082019150611b278286611ae4565b602082019150611b378285611ae4565b602082019150611b478284611ae4565b6020820191508190509695505050505050565b6000611b668287611ae4565b602082019150611b768286611a2d565b601482019150611b868285611ae4565b602082019150611b968284611ae4565b60208201915081905095945050505050565b6000602082019050611bbd6000830184611a1e565b92915050565b6000604082019050611bd86000830185611a1e565b611be56020830184611ad5565b9392505050565b6000602082019050611c016000830184611a53565b92915050565b6000602082019050611c1c6000830184611a62565b92915050565b6000602082019050611c376000830184611a71565b92915050565b6000602082019050611c526000830184611a80565b92915050565b60006020820190508181036000830152611c7181611a8f565b9050919050565b60006020820190508181036000830152611c9181611ab2565b9050919050565b6000602082019050611cad6000830184611ad5565b92915050565b6000606082019050611cc86000830186611ad5565b611cd56020830185611ad5565b611ce26040830184611ad5565b949350505050565b600061012082019050611d00600083018c611ad5565b611d0d602083018b611ad5565b611d1a604083018a611ad5565b611d276060830189611a44565b611d346080830188611a44565b611d4160a0830187611a44565b611d4e60c0830186611ad5565b611d5b60e0830185611ad5565b611d69610100830184611ad5565b9a9950505050505050505050565b600061016082019050611d8d600083018e611ad5565b611d9a602083018d611ad5565b611da7604083018c611ad5565b611db4606083018b611ad5565b611dc1608083018a611a44565b611dce60a0830189611a44565b611ddb60c0830188611a44565b611de860e0830187611a1e565b611df6610100830186611ad5565b611e04610120830185611ad5565b611e12610140830184611ad5565b9c9b505050505050505050505050565b6000611e2c611e3d565b9050611e388282611fb2565b919050565b6000604051905090565b600067ffffffffffffffff821115611e6257611e61612118565b5b602082029050602081019050919050565b600082825260208201905092915050565b6000611e8f82611f18565b9150611e9a83611f18565b9250827fffffffffffffffffffffffffffffffffffffffffffffffffffffffffffffffff03821115611ecf57611ece61208b565b5b828201905092915050565b6000611ee582611ef8565b9050919050565b60008115159050919050565b600073ffffffffffffffffffffffffffffffffffffffff82169050919050565b6000819050919050565b6000611f2d82611f34565b9050919050565b6000611f3f82611ef8565b9050919050565b6000611f5182611f58565b9050919050565b6000611f6382611ef8565b9050919050565b6000611f7582611f7c565b9050919050565b6000611f8782611ef8565b9050919050565b6000611f9982611fa0565b9050919050565b6000611fab82611ef8565b9050919050565b611fbb8261215b565b810181811067ffffffffffffffff82111715611fda57611fd9612118565b5b80604052505050565b6000611fee82611f18565b91507fffffffffffffffffffffffffffffffffffffffffffffffffffffffffffffffff8214156120215761202061208b565b5b600182019050919050565b60006120378261203e565b9050919050565b60006120498261216c565b9050919050565b6000819050919050565b600061206582611f18565b915061207083611f18565b9250826120805761207f6120ba565b5b828206905092915050565b7f4e487b7100000000000000000000000000000000000000000000000000000000600052601160045260246000fd5b7f4e487b7100000000000000000000000000000000000000000000000000000000600052601260045260246000fd5b7f4e487b7100000000000000000000000000000000000000000000000000000000600052603260045260246000fd5b7f4e487b7100000000000000000000000000000000000000000000000000000000600052604160045260246000fd5b600080fd5b600080fd5b600080fd5b600080fd5b6000601f19601f8301169050919050565b60008160601b9050919050565b7f4131000000000000000000000000000000000000000000000000000000000000600082015250565b7f4e31000000000000000000000000000000000000000000000000000000000000600082015250565b6121d481611eda565b81146121df57600080fd5b50565b6121eb81611eec565b81146121f657600080fd5b50565b61220281611f18565b811461220d57600080fd5b5056fea264697066735822122066c458a09bc585bdae46f75b76cc52eb815580cc043bdc73cb847cafe9aaac5e64736f6c63430008060033",
  "immutableReferences": {},
  "source": "// SPDX-License-Identifier: MIT\r\npragma solidity >=0.4.22 <0.9.0;\r\n\r\nimport \"../node_modules/@openzeppelin/contracts/token/ERC20/IERC20.sol\";\r\nimport \"../node_modules/@openzeppelin/contracts/security/ReentrancyGuard.sol\";\r\nimport \"../contracts/PBTeams.sol\";\r\nimport \"../contracts/PBPvCHelper.sol\";\r\n\r\ncontract PBPvCMatchups is ReentrancyGuard {\r\n\r\naddress admin;\r\nuint private winT = 99889988;\r\nuint private lossT = 88998899;\r\nuint dnaModulus = 10 ** 16;\r\nuint bellCurveIterations = 4;\r\nuint winToken;\r\nuint lossToken;\r\nuint[] timeoutSeconds;\r\nuint[] reward;\r\nuint xpReward;\r\nuint difficultymod;\r\nIERC20 public buddies;\r\nPBTeams public pbTeams;\r\nPBXP public PBXPToken;\r\nPBPvCHelper public pbPvCHelper;\r\n\r\n    struct TeamPvCMatchups {\r\n        uint teamId;\r\n        uint activeTimestamp1;\r\n        uint activeTimestamp2;\r\n        uint activeTimestamp3;\r\n        bool lastMatchWon1;\r\n        bool lastMatchWon2;\r\n        bool lastMatchWon3;\r\n        address ownerAddress;\r\n        uint nonce1;\r\n        uint nonce2;\r\n        uint nonce3;\r\n    }\r\n\r\nconstructor(address _buddiesCoinAddress, address _pbxpAddress, address _pbTeamsAddress, address _pbPvCHelperAddress, uint[] memory _timeoutSeconds, uint[] memory _reward, uint _xpReward, uint _difficultymod){\r\n    admin = msg.sender;\r\n    buddies = IERC20(_buddiesCoinAddress);\r\n    PBXPToken = PBXP(_pbxpAddress);\r\n    pbTeams = PBTeams(_pbTeamsAddress);\r\n    pbPvCHelper = PBPvCHelper(_pbPvCHelperAddress);\r\n    timeoutSeconds = _timeoutSeconds;\r\n    reward = _reward;\r\n    xpReward = _xpReward;\r\n    difficultymod = _difficultymod;\r\n}\r\n\r\nmapping (uint => TeamPvCMatchups) public _teamPvCMatchups;\r\n\r\nmodifier onlyAdmin() {\r\n    require(admin == msg.sender, \"A1\" );\r\n    _;\r\n}\r\n\r\nfunction updateValidation(uint val1, uint val2) external onlyAdmin {\r\n    winT = val1;\r\n    lossT = val2;\r\n}\r\n\r\nfunction getPBPvCMatchupsAddress() public view returns (address){\r\n    return address(this);\r\n}\r\n\r\nfunction getDifficultyMod() public view returns (uint){\r\n    return difficultymod;\r\n}\r\n\r\nfunction updateDifficultyMod(uint _difficultymod) external onlyAdmin {\r\n    difficultymod = _difficultymod;\r\n}\r\n\r\nfunction getBuddiesReward() public view returns (uint, uint, uint){\r\n    return (reward[0], reward[1], reward[2]);\r\n}\r\n\r\nfunction updateBuddiesReward( uint[] memory _reward) external onlyAdmin{\r\n    reward = _reward;\r\n}\r\n\r\nfunction updateTimesOut( uint[] memory _timeoutSeconds) external onlyAdmin {\r\n    timeoutSeconds = _timeoutSeconds;\r\n} \r\n\r\nfunction getPBXPReward() public view returns (uint){\r\n    return xpReward;\r\n}\r\n\r\nfunction updatePBXPReward(uint _xpReward) external onlyAdmin {\r\n    xpReward = _xpReward;\r\n}\r\n\r\nfunction widthdrawBuddiesFromContract(address _widthdrawAddress, uint _amount) external onlyAdmin {\r\n    buddies.transfer(_widthdrawAddress, _amount);\r\n}\r\n\r\n\r\n\r\nfunction rewardMatchup (uint _token, uint _difficulty, uint _teamId) external {\r\n    TeamPvCMatchups storage teamPvCmatchup = _teamPvCMatchups[_teamId];\r\n    uint matchNonce;\r\n    if(_difficulty == 1){\r\n        matchNonce = teamPvCmatchup.nonce1;\r\n    }else if(_difficulty == 2){\r\n        matchNonce = teamPvCmatchup.nonce2;\r\n    }else if(_difficulty == 3){\r\n        matchNonce = teamPvCmatchup.nonce3;\r\n    }\r\n    uint win = uint(keccak256(abi.encodePacked(msg.sender, winT, matchNonce, _difficulty, _teamId)));\r\n    uint loss = uint(keccak256(abi.encodePacked(msg.sender, lossT, matchNonce, _difficulty, _teamId)));\r\n    if(_token == win){\r\n\r\n        if(_difficulty == 1){\r\n            require(block.timestamp >= teamPvCmatchup.activeTimestamp1, \"N1\");\r\n            teamPvCmatchup.activeTimestamp1 = block.timestamp + timeoutSeconds[0];\r\n            teamPvCmatchup.lastMatchWon1 = true;\r\n            buddies.transfer(msg.sender, reward[0]);\r\n            PBXPToken.earnPBXP(msg.sender, xpReward);\r\n            teamPvCmatchup.nonce1++;\r\n        }else if(_difficulty == 2){\r\n            require(block.timestamp >=  teamPvCmatchup.activeTimestamp2, \"N1\");\r\n            teamPvCmatchup.activeTimestamp2 = block.timestamp + timeoutSeconds[1];\r\n            teamPvCmatchup.lastMatchWon2 = true;\r\n            buddies.transfer(msg.sender, reward[1]);\r\n            PBXPToken.earnPBXP(msg.sender, xpReward);\r\n            teamPvCmatchup.nonce2++;\r\n        }else if(_difficulty == 3){\r\n            require(block.timestamp >= teamPvCmatchup.activeTimestamp3, \"N1\");\r\n            teamPvCmatchup.activeTimestamp3 = block.timestamp + timeoutSeconds[2];\r\n            teamPvCmatchup.lastMatchWon3 = true;\r\n            buddies.transfer(msg.sender, reward[2]);\r\n            PBXPToken.earnPBXP(msg.sender, xpReward);\r\n            teamPvCmatchup.nonce3++;\r\n        }\r\n\r\n    }else if(_token == loss){\r\n\r\n        if(_difficulty == 1){\r\n            require(block.timestamp >= teamPvCmatchup.activeTimestamp1, \"N1\");\r\n            teamPvCmatchup.activeTimestamp1 = block.timestamp + timeoutSeconds[0];\r\n            teamPvCmatchup.lastMatchWon1 = false;\r\n            PBXPToken.earnPBXP(msg.sender, xpReward);\r\n            teamPvCmatchup.nonce1++;\r\n        }else if(_difficulty == 2){\r\n            require(block.timestamp >=  teamPvCmatchup.activeTimestamp2, \"N1\");\r\n            teamPvCmatchup.activeTimestamp2 = block.timestamp + timeoutSeconds[1];\r\n            teamPvCmatchup.lastMatchWon2 = false;\r\n            PBXPToken.earnPBXP(msg.sender, xpReward);\r\n            teamPvCmatchup.nonce2++;\r\n        }else if(_difficulty == 3){\r\n            require(block.timestamp >= teamPvCmatchup.activeTimestamp3, \"N1\");\r\n            teamPvCmatchup.activeTimestamp3 = block.timestamp + timeoutSeconds[2];\r\n            teamPvCmatchup.lastMatchWon3 = false;\r\n            PBXPToken.earnPBXP(msg.sender, xpReward);\r\n            teamPvCmatchup.nonce3++;\r\n        }\r\n    }\r\n}\r\n\r\nfunction generateRandomTeamDNA(uint mod, uint difficulty, uint teamId) public view returns (uint){\r\n    TeamPvCMatchups storage teamPvCmatchup = _teamPvCMatchups[teamId];\r\n    uint rand;\r\n    if(difficulty == 1){\r\n        rand = uint(keccak256(abi.encodePacked(teamPvCmatchup.nonce1, msg.sender, mod, difficulty)));\r\n    }else if(difficulty == 2){\r\n        rand = uint(keccak256(abi.encodePacked(teamPvCmatchup.nonce2, msg.sender, mod, difficulty)));  \r\n    }else if(difficulty == 3){\r\n        rand = uint(keccak256(abi.encodePacked(teamPvCmatchup.nonce3, msg.sender, mod, difficulty)));\r\n    } \r\n    return rand % dnaModulus;\r\n}\r\n\r\nfunction getTimeOuts(uint teamId) public view returns (uint, uint, uint, bool, bool, bool, uint, uint, uint){\r\n    TeamPvCMatchups storage teamPvCmatchup = _teamPvCMatchups[teamId];\r\n    return (timeoutSeconds[0], timeoutSeconds[1], timeoutSeconds[2], teamPvCmatchup.lastMatchWon1, teamPvCmatchup.lastMatchWon2, teamPvCmatchup.lastMatchWon3, teamPvCmatchup.activeTimestamp1, teamPvCmatchup.activeTimestamp2, teamPvCmatchup.activeTimestamp3);\r\n}\r\n\r\nfunction getNoMatchups(uint teamId) public view returns (uint, uint, uint){\r\n    TeamPvCMatchups storage teamPvCmatchup = _teamPvCMatchups[teamId];\r\n    return (teamPvCmatchup.nonce1, teamPvCmatchup.nonce2, teamPvCmatchup.nonce3);\r\n}\r\n\r\nfunction getPvCMatchupsTimestamp() public view returns (uint) {\r\n    return block.timestamp;\r\n}\r\n\r\n}\r\n\r\n",
  "sourcePath": "O:\\Projects\\puck-buddies\\contracts\\PBPvCMatchup.sol",
  "compiler": {
    "name": "solc",
    "version": "0.8.6+commit.11564f7e.Emscripten.clang"
  },
  "schemaVersion": "3.4.3",
  "updatedAt": "2021-11-19T19:52:02.001Z",
  "networkType": "ethereum",
  "devdoc": {
    "kind": "dev",
    "methods": {},
    "version": 1
  },
  "userdoc": {
    "kind": "user",
    "methods": {},
    "version": 1
  }
}