{
  "contractName": "PBPvCHelper",
  "abi": [
    {
      "inputs": [
        {
          "internalType": "uint256",
          "name": "_difficultymod",
          "type": "uint256"
        }
      ],
      "stateMutability": "nonpayable",
      "type": "constructor"
    },
    {
      "anonymous": false,
      "inputs": [
        {
          "indexed": false,
          "internalType": "uint256",
          "name": "firstGoalsFor",
          "type": "uint256"
        },
        {
          "indexed": false,
          "internalType": "uint256",
          "name": "firstGoalsAgainst",
          "type": "uint256"
        },
        {
          "indexed": false,
          "internalType": "uint256",
          "name": "sencondGoalsFor",
          "type": "uint256"
        },
        {
          "indexed": false,
          "internalType": "uint256",
          "name": "secondGoalsAgainst",
          "type": "uint256"
        }
      ],
      "name": "gamePlay",
      "type": "event"
    },
    {
      "inputs": [],
      "name": "pbMatchupValidation",
      "outputs": [
        {
          "internalType": "contract PBMatchupValidation",
          "name": "",
          "type": "address"
        }
      ],
      "stateMutability": "view",
      "type": "function",
      "constant": true
    },
    {
      "inputs": [],
      "name": "pbTeams",
      "outputs": [
        {
          "internalType": "contract PBTeams",
          "name": "",
          "type": "address"
        }
      ],
      "stateMutability": "view",
      "type": "function",
      "constant": true
    },
    {
      "inputs": [],
      "name": "getPBPvCHelperAddress",
      "outputs": [
        {
          "internalType": "address",
          "name": "",
          "type": "address"
        }
      ],
      "stateMutability": "view",
      "type": "function",
      "constant": true
    },
    {
      "inputs": [],
      "name": "getTokensAdmin",
      "outputs": [
        {
          "internalType": "uint256",
          "name": "",
          "type": "uint256"
        },
        {
          "internalType": "uint256",
          "name": "",
          "type": "uint256"
        }
      ],
      "stateMutability": "view",
      "type": "function",
      "constant": true
    },
    {
      "inputs": [
        {
          "internalType": "uint256",
          "name": "_winToken",
          "type": "uint256"
        },
        {
          "internalType": "uint256",
          "name": "_lossToken",
          "type": "uint256"
        },
        {
          "internalType": "uint256",
          "name": "_hashToken",
          "type": "uint256"
        }
      ],
      "name": "updateVariables",
      "outputs": [],
      "stateMutability": "nonpayable",
      "type": "function"
    },
    {
      "inputs": [
        {
          "internalType": "address",
          "name": "_pbMatchupValidationAddress",
          "type": "address"
        },
        {
          "internalType": "address",
          "name": "_pbTeamsAddress",
          "type": "address"
        }
      ],
      "name": "updateAddresses",
      "outputs": [],
      "stateMutability": "nonpayable",
      "type": "function"
    },
    {
      "inputs": [
        {
          "internalType": "uint256",
          "name": "mod",
          "type": "uint256"
        },
        {
          "internalType": "uint256",
          "name": "difficulty",
          "type": "uint256"
        },
        {
          "internalType": "uint256",
          "name": "statType",
          "type": "uint256"
        }
      ],
      "name": "generateRandomStat",
      "outputs": [
        {
          "internalType": "uint256",
          "name": "",
          "type": "uint256"
        }
      ],
      "stateMutability": "view",
      "type": "function",
      "constant": true
    }
  ],
  "bytecode": "0x608060405261018d6005556101bf600655600460095534801561002157600080fd5b50604051610b52380380610b52833981810160405281019061004391906100a5565b336000806101000a81548173ffffffffffffffffffffffffffffffffffffffff021916908373ffffffffffffffffffffffffffffffffffffffff16021790555080600481905550506100f8565b60008151905061009f816100e1565b92915050565b6000602082840312156100bb576100ba6100dc565b5b60006100c984828501610090565b91505092915050565b6000819050919050565b600080fd5b6100ea816100d2565b81146100f557600080fd5b50565b610a4b806101076000396000f3fe608060405234801561001057600080fd5b506004361061007d5760003560e01c8063a2cbbed01161005b578063a2cbbed0146100dd578063ac535ffd146100f9578063c1d1103714610129578063e00c01c5146101455761007d565b80631b725830146100825780632a73e656146100a057806369ecb69f146100be575b600080fd5b61008a610163565b60405161009791906106a1565b60405180910390f35b6100a861016b565b6040516100b591906106bc565b60405180910390f35b6100c6610191565b6040516100d492919061072d565b60405180910390f35b6100f760048036038101906100f29190610562565b610230565b005b610113600480360381019061010e9190610562565b6102d8565b6040516101209190610712565b60405180910390f35b610143600480360381019061013e9190610522565b6103be565b005b61014d6104d2565b60405161015a91906106d7565b60405180910390f35b600030905090565b600760009054906101000a900473ffffffffffffffffffffffffffffffffffffffff1681565b6000803373ffffffffffffffffffffffffffffffffffffffff1660008054906101000a900473ffffffffffffffffffffffffffffffffffffffff1673ffffffffffffffffffffffffffffffffffffffff1614610222576040517f08c379a0000000000000000000000000000000000000000000000000000000008152600401610219906106f2565b60405180910390fd5b600154600254915091509091565b3373ffffffffffffffffffffffffffffffffffffffff1660008054906101000a900473ffffffffffffffffffffffffffffffffffffffff1673ffffffffffffffffffffffffffffffffffffffff16146102be576040517f08c379a00000000000000000000000000000000000000000000000000000000081526004016102b5906106f2565b60405180910390fd5b826001819055508160028190555080600381905550505050565b600080600060018414156102fb57856005546102f491906107ee565b9050610316565b6002841415610315578560065461031291906107ee565b90505b5b6000610e104261032691906107bd565b905060005b6009548110156103925782818888853360405160200161034f959493929190610642565b6040516020818303038152906040528051906020012060001c610372919061091d565b8461037d9190610767565b9350808061038a906108a6565b91505061032b565b600088600954866103a391906107bd565b6103ad9190610767565b905080955050505050509392505050565b3373ffffffffffffffffffffffffffffffffffffffff1660008054906101000a900473ffffffffffffffffffffffffffffffffffffffff1673ffffffffffffffffffffffffffffffffffffffff161461044c576040517f08c379a0000000000000000000000000000000000000000000000000000000008152600401610443906106f2565b60405180910390fd5b81600760006101000a81548173ffffffffffffffffffffffffffffffffffffffff021916908373ffffffffffffffffffffffffffffffffffffffff16021790555080600860006101000a81548173ffffffffffffffffffffffffffffffffffffffff021916908373ffffffffffffffffffffffffffffffffffffffff1602179055505050565b600860009054906101000a900473ffffffffffffffffffffffffffffffffffffffff1681565b600081359050610507816109e7565b92915050565b60008135905061051c816109fe565b92915050565b60008060408385031215610539576105386109ac565b5b6000610547858286016104f8565b9250506020610558858286016104f8565b9150509250929050565b60008060006060848603121561057b5761057a6109ac565b5b60006105898682870161050d565b935050602061059a8682870161050d565b92505060406105ab8682870161050d565b9150509250925092565b6105be81610822565b82525050565b6105d56105d082610822565b6108ef565b82525050565b6105e48161085e565b82525050565b6105f381610882565b82525050565b6000610606600283610756565b9150610611826109be565b602082019050919050565b61062581610854565b82525050565b61063c61063782610854565b610913565b82525050565b600061064e828861062b565b60208201915061065e828761062b565b60208201915061066e828661062b565b60208201915061067e828561062b565b60208201915061068e82846105c4565b6014820191508190509695505050505050565b60006020820190506106b660008301846105b5565b92915050565b60006020820190506106d160008301846105db565b92915050565b60006020820190506106ec60008301846105ea565b92915050565b6000602082019050818103600083015261070b816105f9565b9050919050565b6000602082019050610727600083018461061c565b92915050565b6000604082019050610742600083018561061c565b61074f602083018461061c565b9392505050565b600082825260208201905092915050565b600061077282610854565b915061077d83610854565b9250827fffffffffffffffffffffffffffffffffffffffffffffffffffffffffffffffff038211156107b2576107b161094e565b5b828201905092915050565b60006107c882610854565b91506107d383610854565b9250826107e3576107e261097d565b5b828204905092915050565b60006107f982610854565b915061080483610854565b9250828210156108175761081661094e565b5b828203905092915050565b600061082d82610834565b9050919050565b600073ffffffffffffffffffffffffffffffffffffffff82169050919050565b6000819050919050565b600061086982610870565b9050919050565b600061087b82610834565b9050919050565b600061088d82610894565b9050919050565b600061089f82610834565b9050919050565b60006108b182610854565b91507fffffffffffffffffffffffffffffffffffffffffffffffffffffffffffffffff8214156108e4576108e361094e565b5b600182019050919050565b60006108fa82610901565b9050919050565b600061090c826109b1565b9050919050565b6000819050919050565b600061092882610854565b915061093383610854565b9250826109435761094261097d565b5b828206905092915050565b7f4e487b7100000000000000000000000000000000000000000000000000000000600052601160045260246000fd5b7f4e487b7100000000000000000000000000000000000000000000000000000000600052601260045260246000fd5b600080fd5b60008160601b9050919050565b7f4131000000000000000000000000000000000000000000000000000000000000600082015250565b6109f081610822565b81146109fb57600080fd5b50565b610a0781610854565b8114610a1257600080fd5b5056fea2646970667358221220f6758e94368dfc2da71477ad24c5804fb0192d3c2815c3f80a80c2a81bc0cde764736f6c63430008060033",
  "immutableReferences": {},
  "source": "// SPDX-License-Identifier: MIT\r\npragma solidity >=0.4.22 <0.9.0;\r\n\r\nimport \"../contracts/PBTeams.sol\";\r\nimport \"../contracts/PBMatchupValidation.sol\";\r\n\r\ncontract PBPvCHelper {\r\n\r\naddress admin;\r\nuint winToken;\r\nuint lossToken;\r\nuint hashToken;\r\nuint difficultymod;\r\nuint maxOpScore = 397;\r\nuint maxDpScore = 447;\r\nPBMatchupValidation public pbMatchupValidation;\r\nPBTeams public pbTeams;\r\n\r\n\r\n\r\n\r\n\r\n// uint nonce = 0;\r\n// uint dnaModulus = 10 ** 16;\r\nuint bellCurveIterations = 4;\r\n// uint timeoutSeconds;\r\n// uint reward1;\r\n// uint reward2;\r\n// uint reward3;\r\n// uint xpReward;\r\n\r\n\r\nconstructor(uint _difficultymod){\r\n    admin = msg.sender;\r\n    difficultymod = _difficultymod;\r\n}\r\n\r\nevent gamePlay(uint firstGoalsFor, uint firstGoalsAgainst, uint sencondGoalsFor, uint secondGoalsAgainst );\r\n\r\nmodifier onlyAdmin() {\r\n    require(admin == msg.sender, \"A1\" );\r\n    _;\r\n}\r\n\r\nfunction getPBPvCHelperAddress() public view returns (address){\r\n    return address(this);\r\n}\r\n\r\nfunction getTokensAdmin() external view onlyAdmin returns (uint, uint){\r\n    return (winToken, lossToken);\r\n}\r\n\r\nfunction updateVariables(uint _winToken, uint _lossToken, uint _hashToken) external onlyAdmin {\r\n    winToken = _winToken;\r\n    lossToken = _lossToken;\r\n    hashToken = _hashToken;\r\n}\r\n\r\nfunction updateAddresses(address _pbMatchupValidationAddress, address _pbTeamsAddress ) external onlyAdmin {\r\n    pbMatchupValidation = PBMatchupValidation(_pbMatchupValidationAddress);\r\n    pbTeams = PBTeams(_pbTeamsAddress);\r\n}\r\n\r\n\r\n// function performPvCMatchup(uint difficulty, uint teamId, uint[] memory playerIds) external view returns (uint) {\r\n//     require(pbMatchupValidation.varifyPlayerAgesOnTeam(teamId, playerIds) == true, \"N6\");\r\n//     uint playerOP = pbTeams.getTokenDetails(teamId).teamTotalOP;\r\n//     uint playerDP = pbTeams.getTokenDetails(teamId).teamTotalDP;\r\n//     uint cpuOP = generateRandomStat(difficultymod, difficulty, 1);\r\n//     uint cpuDP = generateRandomStat(difficultymod, difficulty, 2);\r\n\r\n// }\r\n\r\nfunction generateRandomStat(uint mod, uint difficulty, uint statType) public view returns (uint){\r\n    uint operator;\r\n    uint range;\r\n    if(statType == 1){\r\n        range = maxOpScore - mod;\r\n    }else if(statType == 2){\r\n        range = maxDpScore - mod;\r\n    }    \r\n    uint hourOfDate = (block.timestamp/3600);\r\n    uint i;\r\n    for(i = 0; i < bellCurveIterations; i++){\r\n        operator = operator + (uint(keccak256(abi.encodePacked(i, difficulty, statType, hourOfDate, msg.sender))) % range);\r\n    }\r\n    uint stat = (operator/bellCurveIterations) + mod;\r\n    return stat;\r\n}\r\n\r\n// function getPBPvCMatchuypHelperAddress() public view returns(address){\r\n//     return address(this);\r\n// }\r\n\r\n// function checkGeneratedStats(uint difficulty, uint cOP, uint cDP) public view returns (bool){\r\n//     uint opStat;\r\n//     uint dpStat;\r\n//      if (difficulty == 1){\r\n//         opStat = generateRandomHourlyStat(difficultymod, difficulty, 1);\r\n//         dpStat = generateRandomHourlyStat(difficultymod, difficulty, 2);\r\n//     }else if(difficulty == 2){\r\n//         opStat = generateRandomHourlyStat(((difficultymod * 15)/10), difficulty, 1);\r\n//         dpStat = generateRandomHourlyStat(((difficultymod * 15)/10), difficulty, 2);\r\n//     }else if(difficulty == 3){\r\n//         opStat = generateRandomHourlyStat(((difficultymod * 20)/10), difficulty, 1);\r\n//         dpStat = generateRandomHourlyStat(((difficultymod * 20)/10), difficulty, 2);\r\n//     }\r\n//     require (opStat == cOP && dpStat == cDP, \"N7\");\r\n//     return true;\r\n// }\r\n\r\n// function getWinningBP(uint pOP, uint pDP, uint cOP, uint cDP) public view returns (uint){\r\n//      uint pOPpercent = (pOP*10000)/maxOpScore;\r\n//      uint pDPpercent = (pDP*10000)/maxDpScore;\r\n//      uint cOPpercent = (((maxOpScore-cOP)*10000)/maxOpScore);\r\n//      uint cDPpercent = (((maxDpScore-cDP)*10000)/maxDpScore);\r\n//      uint pBP = (pOPpercent+pDPpercent)/2;\r\n//      uint cBP = (cOPpercent+cDPpercent)/2;\r\n//      uint winningBreakPoint = (pBP+cBP)/2;\r\n//      return winningBreakPoint;\r\n// }\r\n\r\n// function generateResult() public view returns (uint){\r\n//     uint operator;\r\n//     uint i;\r\n//     for(i = 0; i < bellCurveIterations; i++){\r\n//         operator = operator + (uint(keccak256(abi.encodePacked(i, nonce, block.timestamp, msg.sender))) % 10000);\r\n//     }\r\n//     uint result = operator/bellCurveIterations;\r\n//     return result;\r\n// }\r\n\r\n\r\n\r\n}",
  "sourcePath": "O:\\Projects\\puck-buddies\\contracts\\PBPvCHelper.sol",
  "compiler": {
    "name": "solc",
    "version": "0.8.6+commit.11564f7e.Emscripten.clang"
  },
  "schemaVersion": "3.4.3",
  "updatedAt": "2021-11-21T07:03:20.099Z",
  "networkType": "ethereum",
  "devdoc": {
    "kind": "dev",
    "methods": {},
    "version": 1
  },
  "userdoc": {
    "kind": "user",
    "methods": {},
    "version": 1
  }
}