{
  "contractName": "PBPvCHelper",
  "abi": [
    {
      "inputs": [
        {
          "internalType": "uint256",
          "name": "_difficultymod",
          "type": "uint256"
        }
      ],
      "stateMutability": "nonpayable",
      "type": "constructor"
    },
    {
      "inputs": [
        {
          "internalType": "uint256",
          "name": "mod",
          "type": "uint256"
        },
        {
          "internalType": "uint256",
          "name": "difficulty",
          "type": "uint256"
        },
        {
          "internalType": "uint256",
          "name": "statType",
          "type": "uint256"
        }
      ],
      "name": "generateRandomHourlyStat",
      "outputs": [
        {
          "internalType": "uint256",
          "name": "",
          "type": "uint256"
        }
      ],
      "stateMutability": "view",
      "type": "function"
    },
    {
      "inputs": [],
      "name": "getPBPvCMatchuypHelperAddress",
      "outputs": [
        {
          "internalType": "address",
          "name": "",
          "type": "address"
        }
      ],
      "stateMutability": "view",
      "type": "function"
    },
    {
      "inputs": [
        {
          "internalType": "uint256",
          "name": "difficulty",
          "type": "uint256"
        },
        {
          "internalType": "uint256",
          "name": "cOP",
          "type": "uint256"
        },
        {
          "internalType": "uint256",
          "name": "cDP",
          "type": "uint256"
        }
      ],
      "name": "checkGeneratedStats",
      "outputs": [
        {
          "internalType": "bool",
          "name": "",
          "type": "bool"
        }
      ],
      "stateMutability": "view",
      "type": "function"
    },
    {
      "inputs": [
        {
          "internalType": "uint256",
          "name": "pOP",
          "type": "uint256"
        },
        {
          "internalType": "uint256",
          "name": "pDP",
          "type": "uint256"
        },
        {
          "internalType": "uint256",
          "name": "cOP",
          "type": "uint256"
        },
        {
          "internalType": "uint256",
          "name": "cDP",
          "type": "uint256"
        }
      ],
      "name": "getWinningBP",
      "outputs": [
        {
          "internalType": "uint256",
          "name": "",
          "type": "uint256"
        }
      ],
      "stateMutability": "view",
      "type": "function"
    },
    {
      "inputs": [],
      "name": "generateResult",
      "outputs": [
        {
          "internalType": "uint256",
          "name": "",
          "type": "uint256"
        }
      ],
      "stateMutability": "view",
      "type": "function"
    }
  ],
  "bytecode": "0x608060405261018d6001556101bf6002556000600355662386f26fc10000600455600460055534801561003157600080fd5b50604051610b62380380610b62833981810160405281019061005391906100b5565b336000806101000a81548173ffffffffffffffffffffffffffffffffffffffff021916908373ffffffffffffffffffffffffffffffffffffffff16021790555080600b8190555050610108565b6000815190506100af816100f1565b92915050565b6000602082840312156100cb576100ca6100ec565b5b60006100d9848285016100a0565b91505092915050565b6000819050919050565b600080fd5b6100fa816100e2565b811461010557600080fd5b50565b610a4b806101176000396000f3fe608060405234801561001057600080fd5b50600436106100575760003560e01c8063145e771d1461005c5780631dbe2e0e1461007a57806363bf69ec14610098578063c056e32f146100c8578063e9b0e9a0146100f8575b600080fd5b610064610128565b60405161007191906106de565b60405180910390f35b610082610130565b60405161008f9190610734565b60405180910390f35b6100b260048036038101906100ad919061054c565b6101ba565b6040516100bf9190610734565b60405180910390f35b6100e260048036038101906100dd91906104f9565b6102b7565b6040516100ef9190610734565b60405180910390f35b610112600480360381019061010d91906104f9565b61039d565b60405161011f91906106f9565b60405180910390f35b600030905090565b60008060005b60055481101561019f5761271081600354423360405160200161015c9493929190610631565b6040516020818303038152906040528051906020012060001c61017f9190610934565b8261018a9190610760565b91508080610197906108bd565b915050610136565b6000600554836101af91906107b6565b905080935050505090565b600080600154612710876101ce91906107e7565b6101d891906107b6565b90506000600254612710876101ed91906107e7565b6101f791906107b6565b905060006001546127108760015461020f9190610841565b61021991906107e7565b61022391906107b6565b905060006002546127108760025461023b9190610841565b61024591906107e7565b61024f91906107b6565b90506000600284866102619190610760565b61026b91906107b6565b905060006002838561027d9190610760565b61028791906107b6565b90506000600282846102999190610760565b6102a391906107b6565b905080975050505050505050949350505050565b600080600060018414156102da57856001546102d39190610841565b90506102f5565b60028414156102f457856002546102f19190610841565b90505b5b6000610e104261030591906107b6565b905060005b6005548110156103715782818888853360405160200161032e95949392919061067f565b6040516020818303038152906040528051906020012060001c6103519190610934565b8461035c9190610760565b93508080610369906108bd565b91505061030a565b6000886005548661038291906107b6565b61038c9190610760565b905080955050505050509392505050565b600080600060018614156103d0576103b9600b548760016102b7565b91506103c9600b548760026102b7565b905061048a565b600286141561042e576103ff600a600f600b546103ed91906107e7565b6103f791906107b6565b8760016102b7565b9150610427600a600f600b5461041591906107e7565b61041f91906107b6565b8760026102b7565b9050610489565b60038614156104885761045d600a6014600b5461044b91906107e7565b61045591906107b6565b8760016102b7565b9150610485600a6014600b5461047391906107e7565b61047d91906107b6565b8760026102b7565b90505b5b5b848214801561049857508381145b6104d7576040517f08c379a00000000000000000000000000000000000000000000000000000000081526004016104ce90610714565b60405180910390fd5b6001925050509392505050565b6000813590506104f3816109fe565b92915050565b600080600060608486031215610512576105116109c3565b5b6000610520868287016104e4565b9350506020610531868287016104e4565b9250506040610542868287016104e4565b9150509250925092565b60008060008060808587031215610566576105656109c3565b5b6000610574878288016104e4565b9450506020610585878288016104e4565b9350506040610596878288016104e4565b92505060606105a7878288016104e4565b91505092959194509250565b6105bc81610875565b82525050565b6105d36105ce82610875565b610906565b82525050565b6105e281610887565b82525050565b60006105f560028361074f565b9150610600826109d5565b602082019050919050565b610614816108b3565b82525050565b61062b610626826108b3565b61092a565b82525050565b600061063d828761061a565b60208201915061064d828661061a565b60208201915061065d828561061a565b60208201915061066d82846105c2565b60148201915081905095945050505050565b600061068b828861061a565b60208201915061069b828761061a565b6020820191506106ab828661061a565b6020820191506106bb828561061a565b6020820191506106cb82846105c2565b6014820191508190509695505050505050565b60006020820190506106f360008301846105b3565b92915050565b600060208201905061070e60008301846105d9565b92915050565b6000602082019050818103600083015261072d816105e8565b9050919050565b6000602082019050610749600083018461060b565b92915050565b600082825260208201905092915050565b600061076b826108b3565b9150610776836108b3565b9250827fffffffffffffffffffffffffffffffffffffffffffffffffffffffffffffffff038211156107ab576107aa610965565b5b828201905092915050565b60006107c1826108b3565b91506107cc836108b3565b9250826107dc576107db610994565b5b828204905092915050565b60006107f2826108b3565b91506107fd836108b3565b9250817fffffffffffffffffffffffffffffffffffffffffffffffffffffffffffffffff048311821515161561083657610835610965565b5b828202905092915050565b600061084c826108b3565b9150610857836108b3565b92508282101561086a57610869610965565b5b828203905092915050565b600061088082610893565b9050919050565b60008115159050919050565b600073ffffffffffffffffffffffffffffffffffffffff82169050919050565b6000819050919050565b60006108c8826108b3565b91507fffffffffffffffffffffffffffffffffffffffffffffffffffffffffffffffff8214156108fb576108fa610965565b5b600182019050919050565b600061091182610918565b9050919050565b6000610923826109c8565b9050919050565b6000819050919050565b600061093f826108b3565b915061094a836108b3565b92508261095a57610959610994565b5b828206905092915050565b7f4e487b7100000000000000000000000000000000000000000000000000000000600052601160045260246000fd5b7f4e487b7100000000000000000000000000000000000000000000000000000000600052601260045260246000fd5b600080fd5b60008160601b9050919050565b7f4e37000000000000000000000000000000000000000000000000000000000000600082015250565b610a07816108b3565b8114610a1257600080fd5b5056fea2646970667358221220a96bd475b6df9596b1a6dc35d90b02271d698d66f66197233b380128ee1263ab64736f6c63430008060033",
  "immutableReferences": {},
  "source": "// SPDX-License-Identifier: MIT\r\npragma solidity >=0.4.22 <0.9.0;\r\n\r\ncontract PBPvCHelper {\r\n\r\naddress admin;\r\nuint maxOpScore = 397;\r\nuint maxDpScore = 447;\r\nuint nonce = 0;\r\nuint dnaModulus = 10 ** 16;\r\nuint bellCurveIterations = 4;\r\nuint timeoutSeconds;\r\nuint reward1;\r\nuint reward2;\r\nuint reward3;\r\nuint xpReward;\r\nuint difficultymod;\r\n\r\nconstructor(uint _difficultymod){\r\n    admin = msg.sender;\r\n    difficultymod = _difficultymod;\r\n}\r\n\r\nfunction generateRandomHourlyStat(uint mod, uint difficulty, uint statType) public view returns (uint){\r\n    uint operator;\r\n    uint range;\r\n    if(statType == 1){\r\n        range = maxOpScore - mod;\r\n    }else if(statType == 2){\r\n        range = maxDpScore - mod;\r\n    }    \r\n    uint hourOfDate = (block.timestamp/3600);\r\n    uint i;\r\n    for(i = 0; i < bellCurveIterations; i++){\r\n        operator = operator + (uint(keccak256(abi.encodePacked(i, difficulty, statType, hourOfDate, msg.sender))) % range);\r\n    }\r\n    uint stat = (operator/bellCurveIterations) + mod;\r\n    return stat;\r\n}\r\n\r\nfunction getPBPvCMatchuypHelperAddress() public view returns(address){\r\n    return address(this);\r\n}\r\n\r\nfunction checkGeneratedStats(uint difficulty, uint cOP, uint cDP) public view returns (bool){\r\n    uint opStat;\r\n    uint dpStat;\r\n     if (difficulty == 1){\r\n        opStat = generateRandomHourlyStat(difficultymod, difficulty, 1);\r\n        dpStat = generateRandomHourlyStat(difficultymod, difficulty, 2);\r\n    }else if(difficulty == 2){\r\n        opStat = generateRandomHourlyStat(((difficultymod * 15)/10), difficulty, 1);\r\n        dpStat = generateRandomHourlyStat(((difficultymod * 15)/10), difficulty, 2);\r\n    }else if(difficulty == 3){\r\n        opStat = generateRandomHourlyStat(((difficultymod * 20)/10), difficulty, 1);\r\n        dpStat = generateRandomHourlyStat(((difficultymod * 20)/10), difficulty, 2);\r\n    }\r\n    require (opStat == cOP && dpStat == cDP, \"N7\");\r\n    return true;\r\n}\r\n\r\nfunction getWinningBP(uint pOP, uint pDP, uint cOP, uint cDP) public view returns (uint){\r\n     uint pOPpercent = (pOP*10000)/maxOpScore;\r\n     uint pDPpercent = (pDP*10000)/maxDpScore;\r\n     uint cOPpercent = (((maxOpScore-cOP)*10000)/maxOpScore);\r\n     uint cDPpercent = (((maxDpScore-cDP)*10000)/maxDpScore);\r\n     uint pBP = (pOPpercent+pDPpercent)/2;\r\n     uint cBP = (cOPpercent+cDPpercent)/2;\r\n     uint winningBreakPoint = (pBP+cBP)/2;\r\n     return winningBreakPoint;\r\n}\r\n\r\nfunction generateResult() public view returns (uint){\r\n    uint operator;\r\n    uint i;\r\n    for(i = 0; i < bellCurveIterations; i++){\r\n        operator = operator + (uint(keccak256(abi.encodePacked(i, nonce, block.timestamp, msg.sender))) % 10000);\r\n    }\r\n    uint result = operator/bellCurveIterations;\r\n    return result;\r\n}\r\n\r\n\r\n\r\n}",
  "sourcePath": "C:\\Users\\Stayers Ben\\Documents\\Projects\\puck-buddies\\contracts\\PBPvCHelper.sol",
  "compiler": {
    "name": "solc",
    "version": "0.8.6+commit.11564f7e.Emscripten.clang"
  },
  "schemaVersion": "3.4.3",
  "updatedAt": "2021-11-03T20:30:09.282Z",
  "devdoc": {
    "kind": "dev",
    "methods": {},
    "version": 1
  },
  "userdoc": {
    "kind": "user",
    "methods": {},
    "version": 1
  }
}