{
  "contractName": "PBPvCHelper",
  "abi": [
    {
      "inputs": [
        {
          "internalType": "uint256",
          "name": "_difficultymod",
          "type": "uint256"
        }
      ],
      "stateMutability": "nonpayable",
      "type": "constructor"
    },
    {
      "anonymous": false,
      "inputs": [
        {
          "indexed": false,
          "internalType": "uint256",
          "name": "firstGoalsFor",
          "type": "uint256"
        },
        {
          "indexed": false,
          "internalType": "uint256",
          "name": "firstGoalsAgainst",
          "type": "uint256"
        },
        {
          "indexed": false,
          "internalType": "uint256",
          "name": "sencondGoalsFor",
          "type": "uint256"
        },
        {
          "indexed": false,
          "internalType": "uint256",
          "name": "secondGoalsAgainst",
          "type": "uint256"
        }
      ],
      "name": "gamePlay",
      "type": "event"
    },
    {
      "inputs": [],
      "name": "getPBPvCHelperAddress",
      "outputs": [
        {
          "internalType": "address",
          "name": "",
          "type": "address"
        }
      ],
      "stateMutability": "view",
      "type": "function",
      "constant": true
    },
    {
      "inputs": [],
      "name": "getTokensAdmin",
      "outputs": [
        {
          "internalType": "uint256",
          "name": "",
          "type": "uint256"
        },
        {
          "internalType": "uint256",
          "name": "",
          "type": "uint256"
        }
      ],
      "stateMutability": "view",
      "type": "function",
      "constant": true
    },
    {
      "inputs": [
        {
          "internalType": "uint256",
          "name": "_winToken",
          "type": "uint256"
        },
        {
          "internalType": "uint256",
          "name": "_lossToken",
          "type": "uint256"
        },
        {
          "internalType": "uint256",
          "name": "_hashToken",
          "type": "uint256"
        }
      ],
      "name": "updateVariables",
      "outputs": [],
      "stateMutability": "nonpayable",
      "type": "function"
    },
    {
      "inputs": [
        {
          "internalType": "uint256",
          "name": "mod",
          "type": "uint256"
        },
        {
          "internalType": "uint256",
          "name": "difficulty",
          "type": "uint256"
        },
        {
          "internalType": "uint256",
          "name": "statType",
          "type": "uint256"
        }
      ],
      "name": "generateRandomStat",
      "outputs": [
        {
          "internalType": "uint256",
          "name": "",
          "type": "uint256"
        }
      ],
      "stateMutability": "view",
      "type": "function",
      "constant": true
    }
  ],
  "bytecode": "0x608060405261018d6005556101bf600655600460075534801561002157600080fd5b50604051610861380380610861833981810160405281019061004391906100a5565b336000806101000a81548173ffffffffffffffffffffffffffffffffffffffff021916908373ffffffffffffffffffffffffffffffffffffffff16021790555080600481905550506100f8565b60008151905061009f816100e1565b92915050565b6000602082840312156100bb576100ba6100dc565b5b60006100c984828501610090565b91505092915050565b6000819050919050565b600080fd5b6100ea816100d2565b81146100f557600080fd5b50565b61075a806101076000396000f3fe608060405234801561001057600080fd5b506004361061004c5760003560e01c80631b7258301461005157806369ecb69f1461006f578063a2cbbed01461008e578063ac535ffd146100aa575b600080fd5b6100596100da565b6040516100669190610445565b60405180910390f35b6100776100e2565b60405161008592919061049b565b60405180910390f35b6100a860048036038101906100a39190610324565b610181565b005b6100c460048036038101906100bf9190610324565b610229565b6040516100d19190610480565b60405180910390f35b600030905090565b6000803373ffffffffffffffffffffffffffffffffffffffff1660008054906101000a900473ffffffffffffffffffffffffffffffffffffffff1673ffffffffffffffffffffffffffffffffffffffff1614610173576040517f08c379a000000000000000000000000000000000000000000000000000000000815260040161016a90610460565b60405180910390fd5b600154600254915091509091565b3373ffffffffffffffffffffffffffffffffffffffff1660008054906101000a900473ffffffffffffffffffffffffffffffffffffffff1673ffffffffffffffffffffffffffffffffffffffff161461020f576040517f08c379a000000000000000000000000000000000000000000000000000000000815260040161020690610460565b60405180910390fd5b826001819055508160028190555080600381905550505050565b6000806000600184141561024c5785600554610245919061055c565b9050610267565b60028414156102665785600654610263919061055c565b90505b5b6000610e1042610277919061052b565b905060005b6007548110156102e3578281888885336040516020016102a09594939291906103e6565b6040516020818303038152906040528051906020012060001c6102c39190610643565b846102ce91906104d5565b935080806102db906105cc565b91505061027c565b600088600754866102f4919061052b565b6102fe91906104d5565b905080955050505050509392505050565b60008135905061031e8161070d565b92915050565b60008060006060848603121561033d5761033c6106d2565b5b600061034b8682870161030f565b935050602061035c8682870161030f565b925050604061036d8682870161030f565b9150509250925092565b61038081610590565b82525050565b61039761039282610590565b610615565b82525050565b60006103aa6002836104c4565b91506103b5826106e4565b602082019050919050565b6103c9816105c2565b82525050565b6103e06103db826105c2565b610639565b82525050565b60006103f282886103cf565b60208201915061040282876103cf565b60208201915061041282866103cf565b60208201915061042282856103cf565b6020820191506104328284610386565b6014820191508190509695505050505050565b600060208201905061045a6000830184610377565b92915050565b600060208201905081810360008301526104798161039d565b9050919050565b600060208201905061049560008301846103c0565b92915050565b60006040820190506104b060008301856103c0565b6104bd60208301846103c0565b9392505050565b600082825260208201905092915050565b60006104e0826105c2565b91506104eb836105c2565b9250827fffffffffffffffffffffffffffffffffffffffffffffffffffffffffffffffff038211156105205761051f610674565b5b828201905092915050565b6000610536826105c2565b9150610541836105c2565b925082610551576105506106a3565b5b828204905092915050565b6000610567826105c2565b9150610572836105c2565b92508282101561058557610584610674565b5b828203905092915050565b600061059b826105a2565b9050919050565b600073ffffffffffffffffffffffffffffffffffffffff82169050919050565b6000819050919050565b60006105d7826105c2565b91507fffffffffffffffffffffffffffffffffffffffffffffffffffffffffffffffff82141561060a57610609610674565b5b600182019050919050565b600061062082610627565b9050919050565b6000610632826106d7565b9050919050565b6000819050919050565b600061064e826105c2565b9150610659836105c2565b925082610669576106686106a3565b5b828206905092915050565b7f4e487b7100000000000000000000000000000000000000000000000000000000600052601160045260246000fd5b7f4e487b7100000000000000000000000000000000000000000000000000000000600052601260045260246000fd5b600080fd5b60008160601b9050919050565b7f4131000000000000000000000000000000000000000000000000000000000000600082015250565b610716816105c2565b811461072157600080fd5b5056fea2646970667358221220463cc3f1fe4e0dbfad8176be0ea2522268c3f53b48398a99dfd414104dba8f7f64736f6c63430008060033",
  "immutableReferences": {},
  "source": "// SPDX-License-Identifier: MIT\r\npragma solidity >=0.4.22 <0.9.0;\r\n\r\n\r\ncontract PBPvCHelper {\r\n\r\naddress admin;\r\nuint winToken;\r\nuint lossToken;\r\nuint hashToken;\r\nuint difficultymod;\r\nuint maxOpScore = 397;\r\nuint maxDpScore = 447;\r\n\r\n\r\n\r\n\r\n\r\n// uint nonce = 0;\r\n// uint dnaModulus = 10 ** 16;\r\nuint bellCurveIterations = 4;\r\n// uint timeoutSeconds;\r\n// uint reward1;\r\n// uint reward2;\r\n// uint reward3;\r\n// uint xpReward;\r\n\r\n\r\nconstructor(uint _difficultymod){\r\n    admin = msg.sender;\r\n    difficultymod = _difficultymod;\r\n}\r\n\r\nevent gamePlay(uint firstGoalsFor, uint firstGoalsAgainst, uint sencondGoalsFor, uint secondGoalsAgainst );\r\n\r\nmodifier onlyAdmin() {\r\n    require(admin == msg.sender, \"A1\" );\r\n    _;\r\n}\r\n\r\nfunction getPBPvCHelperAddress() public view returns (address){\r\n    return address(this);\r\n}\r\n\r\nfunction getTokensAdmin() external view onlyAdmin returns (uint, uint){\r\n    return (winToken, lossToken);\r\n}\r\n\r\nfunction updateVariables(uint _winToken, uint _lossToken, uint _hashToken) external onlyAdmin {\r\n    winToken = _winToken;\r\n    lossToken = _lossToken;\r\n    hashToken = _hashToken;\r\n}\r\n\r\n\r\n// function performPvCMatchup(uint difficulty, uint teamId, uint[] memory playerIds) external view returns (uint) {\r\n//     require(pbMatchupValidation.varifyPlayerAgesOnTeam(teamId, playerIds) == true, \"N6\");\r\n//     uint playerOP = pbTeams.getTokenDetails(teamId).teamTotalOP;\r\n//     uint playerDP = pbTeams.getTokenDetails(teamId).teamTotalDP;\r\n//     uint cpuOP = generateRandomStat(difficultymod, difficulty, 1);\r\n//     uint cpuDP = generateRandomStat(difficultymod, difficulty, 2);\r\n\r\n// }\r\n\r\nfunction generateRandomStat(uint mod, uint difficulty, uint statType) public view returns (uint){\r\n    uint operator;\r\n    uint range;\r\n    if(statType == 1){\r\n        range = maxOpScore - mod;\r\n    }else if(statType == 2){\r\n        range = maxDpScore - mod;\r\n    }    \r\n    uint hourOfDate = (block.timestamp/3600);\r\n    uint i;\r\n    for(i = 0; i < bellCurveIterations; i++){\r\n        operator = operator + (uint(keccak256(abi.encodePacked(i, difficulty, statType, hourOfDate, msg.sender))) % range);\r\n    }\r\n    uint stat = (operator/bellCurveIterations) + mod;\r\n    return stat;\r\n}\r\n\r\n// function getPBPvCMatchuypHelperAddress() public view returns(address){\r\n//     return address(this);\r\n// }\r\n\r\n// function checkGeneratedStats(uint difficulty, uint cOP, uint cDP) public view returns (bool){\r\n//     uint opStat;\r\n//     uint dpStat;\r\n//      if (difficulty == 1){\r\n//         opStat = generateRandomHourlyStat(difficultymod, difficulty, 1);\r\n//         dpStat = generateRandomHourlyStat(difficultymod, difficulty, 2);\r\n//     }else if(difficulty == 2){\r\n//         opStat = generateRandomHourlyStat(((difficultymod * 15)/10), difficulty, 1);\r\n//         dpStat = generateRandomHourlyStat(((difficultymod * 15)/10), difficulty, 2);\r\n//     }else if(difficulty == 3){\r\n//         opStat = generateRandomHourlyStat(((difficultymod * 20)/10), difficulty, 1);\r\n//         dpStat = generateRandomHourlyStat(((difficultymod * 20)/10), difficulty, 2);\r\n//     }\r\n//     require (opStat == cOP && dpStat == cDP, \"N7\");\r\n//     return true;\r\n// }\r\n\r\n// function getWinningBP(uint pOP, uint pDP, uint cOP, uint cDP) public view returns (uint){\r\n//      uint pOPpercent = (pOP*10000)/maxOpScore;\r\n//      uint pDPpercent = (pDP*10000)/maxDpScore;\r\n//      uint cOPpercent = (((maxOpScore-cOP)*10000)/maxOpScore);\r\n//      uint cDPpercent = (((maxDpScore-cDP)*10000)/maxDpScore);\r\n//      uint pBP = (pOPpercent+pDPpercent)/2;\r\n//      uint cBP = (cOPpercent+cDPpercent)/2;\r\n//      uint winningBreakPoint = (pBP+cBP)/2;\r\n//      return winningBreakPoint;\r\n// }\r\n\r\n// function generateResult() public view returns (uint){\r\n//     uint operator;\r\n//     uint i;\r\n//     for(i = 0; i < bellCurveIterations; i++){\r\n//         operator = operator + (uint(keccak256(abi.encodePacked(i, nonce, block.timestamp, msg.sender))) % 10000);\r\n//     }\r\n//     uint result = operator/bellCurveIterations;\r\n//     return result;\r\n// }\r\n\r\n\r\n\r\n}",
  "sourcePath": "O:\\Projects\\puck-buddies\\contracts\\PBPvCHelper.sol",
  "compiler": {
    "name": "solc",
    "version": "0.8.6+commit.11564f7e.Emscripten.clang"
  },
  "schemaVersion": "3.4.3",
  "updatedAt": "2022-01-07T04:17:57.081Z",
  "networkType": "ethereum",
  "devdoc": {
    "kind": "dev",
    "methods": {},
    "version": 1
  },
  "userdoc": {
    "kind": "user",
    "methods": {},
    "version": 1
  }
}