{
  "contractName": "PBPvCMatchups",
  "abi": [
    {
      "inputs": [
        {
          "internalType": "address",
          "name": "_buddiesCoinAddress",
          "type": "address"
        },
        {
          "internalType": "address",
          "name": "_pbxpAddress",
          "type": "address"
        },
        {
          "internalType": "address",
          "name": "_pbTeamsAddress",
          "type": "address"
        },
        {
          "internalType": "address",
          "name": "_pbPvCHelperAddress",
          "type": "address"
        },
        {
          "internalType": "uint256[]",
          "name": "_timeoutSeconds",
          "type": "uint256[]"
        },
        {
          "internalType": "uint256[]",
          "name": "_reward",
          "type": "uint256[]"
        },
        {
          "internalType": "uint256",
          "name": "_xpReward",
          "type": "uint256"
        },
        {
          "internalType": "uint256",
          "name": "_difficultymod",
          "type": "uint256"
        }
      ],
      "stateMutability": "nonpayable",
      "type": "constructor"
    },
    {
      "inputs": [],
      "name": "PBXPToken",
      "outputs": [
        {
          "internalType": "contract PBXP",
          "name": "",
          "type": "address"
        }
      ],
      "stateMutability": "view",
      "type": "function",
      "constant": true
    },
    {
      "inputs": [
        {
          "internalType": "uint256",
          "name": "",
          "type": "uint256"
        }
      ],
      "name": "_teamPvCMatchups",
      "outputs": [
        {
          "internalType": "uint256",
          "name": "teamId",
          "type": "uint256"
        },
        {
          "internalType": "uint256",
          "name": "activeTimestamp1",
          "type": "uint256"
        },
        {
          "internalType": "uint256",
          "name": "activeTimestamp2",
          "type": "uint256"
        },
        {
          "internalType": "uint256",
          "name": "activeTimestamp3",
          "type": "uint256"
        },
        {
          "internalType": "bool",
          "name": "lastMatchWon1",
          "type": "bool"
        },
        {
          "internalType": "bool",
          "name": "lastMatchWon2",
          "type": "bool"
        },
        {
          "internalType": "bool",
          "name": "lastMatchWon3",
          "type": "bool"
        },
        {
          "internalType": "address",
          "name": "ownerAddress",
          "type": "address"
        },
        {
          "internalType": "uint256",
          "name": "nonce1",
          "type": "uint256"
        },
        {
          "internalType": "uint256",
          "name": "nonce2",
          "type": "uint256"
        },
        {
          "internalType": "uint256",
          "name": "nonce3",
          "type": "uint256"
        }
      ],
      "stateMutability": "view",
      "type": "function",
      "constant": true
    },
    {
      "inputs": [],
      "name": "buddies",
      "outputs": [
        {
          "internalType": "contract IERC20",
          "name": "",
          "type": "address"
        }
      ],
      "stateMutability": "view",
      "type": "function",
      "constant": true
    },
    {
      "inputs": [],
      "name": "pbPvCHelper",
      "outputs": [
        {
          "internalType": "contract PBPvCHelper",
          "name": "",
          "type": "address"
        }
      ],
      "stateMutability": "view",
      "type": "function",
      "constant": true
    },
    {
      "inputs": [],
      "name": "pbTeams",
      "outputs": [
        {
          "internalType": "contract PBTeams",
          "name": "",
          "type": "address"
        }
      ],
      "stateMutability": "view",
      "type": "function",
      "constant": true
    },
    {
      "inputs": [
        {
          "internalType": "address",
          "name": "_validator",
          "type": "address"
        }
      ],
      "name": "updateValidator",
      "outputs": [],
      "stateMutability": "nonpayable",
      "type": "function"
    },
    {
      "inputs": [],
      "name": "getPBPvCMatchupsAddress",
      "outputs": [
        {
          "internalType": "address",
          "name": "",
          "type": "address"
        }
      ],
      "stateMutability": "view",
      "type": "function",
      "constant": true
    },
    {
      "inputs": [],
      "name": "getDifficultyMod",
      "outputs": [
        {
          "internalType": "uint256",
          "name": "",
          "type": "uint256"
        }
      ],
      "stateMutability": "view",
      "type": "function",
      "constant": true
    },
    {
      "inputs": [
        {
          "internalType": "uint256",
          "name": "_difficultymod",
          "type": "uint256"
        }
      ],
      "name": "updateDifficultyMod",
      "outputs": [],
      "stateMutability": "nonpayable",
      "type": "function"
    },
    {
      "inputs": [],
      "name": "getBuddiesReward",
      "outputs": [
        {
          "internalType": "uint256",
          "name": "",
          "type": "uint256"
        },
        {
          "internalType": "uint256",
          "name": "",
          "type": "uint256"
        },
        {
          "internalType": "uint256",
          "name": "",
          "type": "uint256"
        }
      ],
      "stateMutability": "view",
      "type": "function",
      "constant": true
    },
    {
      "inputs": [
        {
          "internalType": "uint256[]",
          "name": "_reward",
          "type": "uint256[]"
        }
      ],
      "name": "updateBuddiesReward",
      "outputs": [],
      "stateMutability": "nonpayable",
      "type": "function"
    },
    {
      "inputs": [
        {
          "internalType": "uint256[]",
          "name": "_timeoutSeconds",
          "type": "uint256[]"
        }
      ],
      "name": "updateTimesOut",
      "outputs": [],
      "stateMutability": "nonpayable",
      "type": "function"
    },
    {
      "inputs": [],
      "name": "getPBXPReward",
      "outputs": [
        {
          "internalType": "uint256",
          "name": "",
          "type": "uint256"
        }
      ],
      "stateMutability": "view",
      "type": "function",
      "constant": true
    },
    {
      "inputs": [
        {
          "internalType": "uint256",
          "name": "_xpReward",
          "type": "uint256"
        }
      ],
      "name": "updatePBXPReward",
      "outputs": [],
      "stateMutability": "nonpayable",
      "type": "function"
    },
    {
      "inputs": [
        {
          "internalType": "address",
          "name": "_widthdrawAddress",
          "type": "address"
        },
        {
          "internalType": "uint256",
          "name": "_amount",
          "type": "uint256"
        }
      ],
      "name": "widthdrawBuddiesFromContract",
      "outputs": [],
      "stateMutability": "nonpayable",
      "type": "function"
    },
    {
      "inputs": [
        {
          "internalType": "bytes32",
          "name": "_token",
          "type": "bytes32"
        },
        {
          "internalType": "uint256",
          "name": "_difficulty",
          "type": "uint256"
        },
        {
          "internalType": "uint256",
          "name": "_teamId",
          "type": "uint256"
        },
        {
          "internalType": "uint256",
          "name": "t1S",
          "type": "uint256"
        },
        {
          "internalType": "uint256",
          "name": "t2S",
          "type": "uint256"
        }
      ],
      "name": "rewardMatchup",
      "outputs": [],
      "stateMutability": "nonpayable",
      "type": "function"
    },
    {
      "inputs": [
        {
          "internalType": "uint256",
          "name": "mod",
          "type": "uint256"
        },
        {
          "internalType": "uint256",
          "name": "difficulty",
          "type": "uint256"
        },
        {
          "internalType": "uint256",
          "name": "teamId",
          "type": "uint256"
        }
      ],
      "name": "generateRandomTeamDNA",
      "outputs": [
        {
          "internalType": "uint256",
          "name": "",
          "type": "uint256"
        }
      ],
      "stateMutability": "view",
      "type": "function",
      "constant": true
    },
    {
      "inputs": [
        {
          "internalType": "uint256",
          "name": "teamId",
          "type": "uint256"
        }
      ],
      "name": "getTimeOuts",
      "outputs": [
        {
          "internalType": "uint256",
          "name": "",
          "type": "uint256"
        },
        {
          "internalType": "uint256",
          "name": "",
          "type": "uint256"
        },
        {
          "internalType": "uint256",
          "name": "",
          "type": "uint256"
        },
        {
          "internalType": "bool",
          "name": "",
          "type": "bool"
        },
        {
          "internalType": "bool",
          "name": "",
          "type": "bool"
        },
        {
          "internalType": "bool",
          "name": "",
          "type": "bool"
        },
        {
          "internalType": "uint256",
          "name": "",
          "type": "uint256"
        },
        {
          "internalType": "uint256",
          "name": "",
          "type": "uint256"
        },
        {
          "internalType": "uint256",
          "name": "",
          "type": "uint256"
        }
      ],
      "stateMutability": "view",
      "type": "function",
      "constant": true
    },
    {
      "inputs": [
        {
          "internalType": "uint256",
          "name": "teamId",
          "type": "uint256"
        }
      ],
      "name": "getNoMatchups",
      "outputs": [
        {
          "internalType": "uint256",
          "name": "",
          "type": "uint256"
        },
        {
          "internalType": "uint256",
          "name": "",
          "type": "uint256"
        },
        {
          "internalType": "uint256",
          "name": "",
          "type": "uint256"
        }
      ],
      "stateMutability": "view",
      "type": "function",
      "constant": true
    },
    {
      "inputs": [],
      "name": "getPvCMatchupsTimestamp",
      "outputs": [
        {
          "internalType": "uint256",
          "name": "",
          "type": "uint256"
        }
      ],
      "stateMutability": "view",
      "type": "function",
      "constant": true
    }
  ],
  "bytecode": "0x6080604052662386f26fc1000060025560046003553480156200002157600080fd5b5060405162002d6438038062002d6483398181016040528101906200004791906200032f565b600160008190555033600160006101000a81548173ffffffffffffffffffffffffffffffffffffffff021916908373ffffffffffffffffffffffffffffffffffffffff16021790555087600a60006101000a81548173ffffffffffffffffffffffffffffffffffffffff021916908373ffffffffffffffffffffffffffffffffffffffff16021790555086600c60006101000a81548173ffffffffffffffffffffffffffffffffffffffff021916908373ffffffffffffffffffffffffffffffffffffffff16021790555085600b60006101000a81548173ffffffffffffffffffffffffffffffffffffffff021916908373ffffffffffffffffffffffffffffffffffffffff16021790555084600d60006101000a81548173ffffffffffffffffffffffffffffffffffffffff021916908373ffffffffffffffffffffffffffffffffffffffff1602179055508360069080519060200190620001ac929190620001e2565b508260079080519060200190620001c5929190620001e2565b50816008819055508060098190555050505050505050506200058a565b82805482825590600052602060002090810192821562000221579160200282015b828111156200022057825182559160200191906001019062000203565b5b50905062000230919062000234565b5090565b5b808211156200024f57600081600090555060010162000235565b5090565b60006200026a62000264846200045f565b62000436565b9050808382526020820190508285602086028201111562000290576200028f62000536565b5b60005b85811015620002c45781620002a9888262000318565b84526020840193506020830192505060018101905062000293565b5050509392505050565b600081519050620002df8162000556565b92915050565b600082601f830112620002fd57620002fc62000531565b5b81516200030f84826020860162000253565b91505092915050565b600081519050620003298162000570565b92915050565b600080600080600080600080610100898b03121562000353576200035262000540565b5b6000620003638b828c01620002ce565b9850506020620003768b828c01620002ce565b9750506040620003898b828c01620002ce565b96505060606200039c8b828c01620002ce565b955050608089015167ffffffffffffffff811115620003c057620003bf6200053b565b5b620003ce8b828c01620002e5565b94505060a089015167ffffffffffffffff811115620003f257620003f16200053b565b5b620004008b828c01620002e5565b93505060c0620004138b828c0162000318565b92505060e0620004268b828c0162000318565b9150509295985092959890939650565b60006200044262000455565b9050620004508282620004cc565b919050565b6000604051905090565b600067ffffffffffffffff8211156200047d576200047c62000502565b5b602082029050602081019050919050565b60006200049b82620004a2565b9050919050565b600073ffffffffffffffffffffffffffffffffffffffff82169050919050565b6000819050919050565b620004d78262000545565b810181811067ffffffffffffffff82111715620004f957620004f862000502565b5b80604052505050565b7f4e487b7100000000000000000000000000000000000000000000000000000000600052604160045260246000fd5b600080fd5b600080fd5b600080fd5b600080fd5b6000601f19601f8301169050919050565b62000561816200048e565b81146200056d57600080fd5b50565b6200057b81620004c2565b81146200058757600080fd5b50565b6127ca806200059a6000396000f3fe608060405234801561001057600080fd5b506004361061012c5760003560e01c806397ede525116100ad578063e00c01c511610071578063e00c01c51461032b578063e245c22d14610349578063e9992a7814610383578063f15e0e9c1461039f578063f8f7bdea146103bd5761012c565b806397ede52514610271578063a6eaa2a31461028f578063b4fad1ff146102ad578063b791841a146102dd578063c09f1232146102f95761012c565b8063532195bb116100f4578063532195bb146101e157806353b7a2e2146101ff5780635b016d6e1461021b57806362170b7114610237578063635b2770146102555761012c565b8063178d3323146101315780632071a7fb1461014d57806347a69777146101855780634a594c12146101a557806351171af2146101c3575b600080fd5b61014b60048036038101906101469190611b90565b6103d9565b005b61016760048036038101906101629190611c0b565b611084565b60405161017c9998979695949392919061212e565b60405180910390f35b61018d61116d565b60405161019c939291906120f7565b60405180910390f35b6101ad6111dd565b6040516101ba9190611f50565b60405180910390f35b6101cb611203565b6040516101d89190611eab565b60405180910390f35b6101e961120b565b6040516101f691906120dc565b60405180910390f35b61021960048036038101906102149190611c0b565b611215565b005b61023560048036038101906102309190611aed565b6112af565b005b61023f611359565b60405161024c91906120dc565b60405180910390f35b61026f600480360381019061026a9190611a80565b611363565b005b610279611437565b6040516102869190611fa1565b60405180910390f35b61029761145d565b6040516102a491906120dc565b60405180910390f35b6102c760048036038101906102c29190611c38565b611465565b6040516102d491906120dc565b60405180910390f35b6102f760048036038101906102f29190611c0b565b611562565b005b610313600480360381019061030e9190611c0b565b6115fc565b604051610322939291906120f7565b60405180910390f35b610333611634565b6040516103409190611f86565b60405180910390f35b610363600480360381019061035e9190611c0b565b61165a565b60405161037a9b9a999897969594939291906121bb565b60405180910390f35b61039d60048036038101906103989190611aad565b6116fb565b005b6103a761183f565b6040516103b49190611f6b565b60405180910390f35b6103d760048036038101906103d29190611aed565b611865565b005b6000600f6000858152602001908152602001600020905060006001861415610407578160050154905061042f565b600286141561041c578160060154905061042e565b600386141561042d57816007015490505b5b5b82841115610b8d57600e60009054906101000a900473ffffffffffffffffffffffffffffffffffffffff1673ffffffffffffffffffffffffffffffffffffffff166349693c153383898989896040518763ffffffff1660e01b815260040161049c96959493929190611eef565b60206040518083038186803b1580156104b457600080fd5b505afa1580156104c8573d6000803e3d6000fd5b505050506040513d601f19601f820116820180604052508101906104ec9190611b63565b871461052d576040517f08c379a000000000000000000000000000000000000000000000000000000000815260040161052490611ffc565b60405180910390fd5b600186141561074c57816001015442101561057d576040517f08c379a0000000000000000000000000000000000000000000000000000000008152600401610574906120bc565b60405180910390fd5b600660008154811061059257610591612537565b5b9060005260206000200154426105a891906122c8565b826001018190555060018260040160006101000a81548160ff021916908315150217905550600a60009054906101000a900473ffffffffffffffffffffffffffffffffffffffff1673ffffffffffffffffffffffffffffffffffffffff1663a9059cbb33600760008154811061062157610620612537565b5b90600052602060002001546040518363ffffffff1660e01b8152600401610649929190611ec6565b602060405180830381600087803b15801561066357600080fd5b505af1158015610677573d6000803e3d6000fd5b505050506040513d601f19601f8201168201806040525081019061069b9190611b36565b50600c60009054906101000a900473ffffffffffffffffffffffffffffffffffffffff1673ffffffffffffffffffffffffffffffffffffffff1663c43df89a336008546040518363ffffffff1660e01b81526004016106fb929190611ec6565b600060405180830381600087803b15801561071557600080fd5b505af1158015610729573d6000803e3d6000fd5b5050505081600501600081548092919061074290612431565b9190505550610b88565b600286141561096b57816002015442101561079c576040517f08c379a00000000000000000000000000000000000000000000000000000000081526004016107939061207c565b60405180910390fd5b60066001815481106107b1576107b0612537565b5b9060005260206000200154426107c791906122c8565b826002018190555060018260040160016101000a81548160ff021916908315150217905550600a60009054906101000a900473ffffffffffffffffffffffffffffffffffffffff1673ffffffffffffffffffffffffffffffffffffffff1663a9059cbb3360076001815481106108405761083f612537565b5b90600052602060002001546040518363ffffffff1660e01b8152600401610868929190611ec6565b602060405180830381600087803b15801561088257600080fd5b505af1158015610896573d6000803e3d6000fd5b505050506040513d601f19601f820116820180604052508101906108ba9190611b36565b50600c60009054906101000a900473ffffffffffffffffffffffffffffffffffffffff1673ffffffffffffffffffffffffffffffffffffffff1663c43df89a336008546040518363ffffffff1660e01b815260040161091a929190611ec6565b600060405180830381600087803b15801561093457600080fd5b505af1158015610948573d6000803e3d6000fd5b5050505081600601600081548092919061096190612431565b9190505550610b87565b6003861415610b865781600301544210156109bb576040517f08c379a00000000000000000000000000000000000000000000000000000000081526004016109b29061205c565b60405180910390fd5b60066002815481106109d0576109cf612537565b5b9060005260206000200154426109e691906122c8565b826003018190555060018260040160026101000a81548160ff021916908315150217905550600a60009054906101000a900473ffffffffffffffffffffffffffffffffffffffff1673ffffffffffffffffffffffffffffffffffffffff1663a9059cbb336007600281548110610a5f57610a5e612537565b5b90600052602060002001546040518363ffffffff1660e01b8152600401610a87929190611ec6565b602060405180830381600087803b158015610aa157600080fd5b505af1158015610ab5573d6000803e3d6000fd5b505050506040513d601f19601f82011682018060405250810190610ad99190611b36565b50600c60009054906101000a900473ffffffffffffffffffffffffffffffffffffffff1673ffffffffffffffffffffffffffffffffffffffff1663c43df89a336008546040518363ffffffff1660e01b8152600401610b39929190611ec6565b600060405180830381600087803b158015610b5357600080fd5b505af1158015610b67573d6000803e3d6000fd5b50505050816007016000815480929190610b8090612431565b91905055505b5b5b61107b565b8383111561107a57600e60009054906101000a900473ffffffffffffffffffffffffffffffffffffffff1673ffffffffffffffffffffffffffffffffffffffff1663e5f432b83383898989896040518763ffffffff1660e01b8152600401610bfa96959493929190611eef565b60206040518083038186803b158015610c1257600080fd5b505afa158015610c26573d6000803e3d6000fd5b505050506040513d601f19601f82011682018060405250810190610c4a9190611b63565b8714610c8b576040517f08c379a0000000000000000000000000000000000000000000000000000000008152600401610c829061203c565b60405180910390fd5b6001861415610ddb578160010154421015610cdb576040517f08c379a0000000000000000000000000000000000000000000000000000000008152600401610cd290611fdc565b60405180910390fd5b6006600081548110610cf057610cef612537565b5b906000526020600020015442610d0691906122c8565b826001018190555060008260040160006101000a81548160ff021916908315150217905550600c60009054906101000a900473ffffffffffffffffffffffffffffffffffffffff1673ffffffffffffffffffffffffffffffffffffffff1663c43df89a336008546040518363ffffffff1660e01b8152600401610d8a929190611ec6565b600060405180830381600087803b158015610da457600080fd5b505af1158015610db8573d6000803e3d6000fd5b50505050816005016000815480929190610dd190612431565b9190505550611079565b6002861415610f2b578160020154421015610e2b576040517f08c379a0000000000000000000000000000000000000000000000000000000008152600401610e229061209c565b60405180910390fd5b6006600181548110610e4057610e3f612537565b5b906000526020600020015442610e5691906122c8565b826002018190555060008260040160016101000a81548160ff021916908315150217905550600c60009054906101000a900473ffffffffffffffffffffffffffffffffffffffff1673ffffffffffffffffffffffffffffffffffffffff1663c43df89a336008546040518363ffffffff1660e01b8152600401610eda929190611ec6565b600060405180830381600087803b158015610ef457600080fd5b505af1158015610f08573d6000803e3d6000fd5b50505050816006016000815480929190610f2190612431565b9190505550611078565b6003861415611077578160030154421015610f7b576040517f08c379a0000000000000000000000000000000000000000000000000000000008152600401610f7290611fbc565b60405180910390fd5b6006600281548110610f9057610f8f612537565b5b906000526020600020015442610fa691906122c8565b826003018190555060008260040160026101000a81548160ff021916908315150217905550600c60009054906101000a900473ffffffffffffffffffffffffffffffffffffffff1673ffffffffffffffffffffffffffffffffffffffff1663c43df89a336008546040518363ffffffff1660e01b815260040161102a929190611ec6565b600060405180830381600087803b15801561104457600080fd5b505af1158015611058573d6000803e3d6000fd5b5050505081600701600081548092919061107190612431565b91905055505b5b5b5b5b50505050505050565b600080600080600080600080600080600f60008c8152602001908152602001600020905060066000815481106110bd576110bc612537565b5b906000526020600020015460066001815481106110dd576110dc612537565b5b906000526020600020015460066002815481106110fd576110fc612537565b5b90600052602060002001548360040160009054906101000a900460ff168460040160019054906101000a900460ff168560040160029054906101000a900460ff16866001015487600201548860030154995099509950995099509950995099509950509193959799909294969850565b6000806000600760008154811061118757611186612537565b5b906000526020600020015460076001815481106111a7576111a6612537565b5b906000526020600020015460076002815481106111c7576111c6612537565b5b9060005260206000200154925092509250909192565b600a60009054906101000a900473ffffffffffffffffffffffffffffffffffffffff1681565b600030905090565b6000600854905090565b3373ffffffffffffffffffffffffffffffffffffffff16600160009054906101000a900473ffffffffffffffffffffffffffffffffffffffff1673ffffffffffffffffffffffffffffffffffffffff16146112a5576040517f08c379a000000000000000000000000000000000000000000000000000000000815260040161129c9061201c565b60405180910390fd5b8060088190555050565b3373ffffffffffffffffffffffffffffffffffffffff16600160009054906101000a900473ffffffffffffffffffffffffffffffffffffffff1673ffffffffffffffffffffffffffffffffffffffff161461133f576040517f08c379a00000000000000000000000000000000000000000000000000000000081526004016113369061201c565b60405180910390fd5b806007908051906020019061135592919061190f565b5050565b6000600954905090565b3373ffffffffffffffffffffffffffffffffffffffff16600160009054906101000a900473ffffffffffffffffffffffffffffffffffffffff1673ffffffffffffffffffffffffffffffffffffffff16146113f3576040517f08c379a00000000000000000000000000000000000000000000000000000000081526004016113ea9061201c565b60405180910390fd5b80600e60006101000a81548173ffffffffffffffffffffffffffffffffffffffff021916908373ffffffffffffffffffffffffffffffffffffffff16021790555050565b600c60009054906101000a900473ffffffffffffffffffffffffffffffffffffffff1681565b600042905090565b600080600f60008481526020019081526020016000209050600060018514156114c35781600501543387876040516020016114a39493929190611e5d565b6040516020818303038152906040528051906020012060001c9050611549565b60028514156115075781600601543387876040516020016114e79493929190611e5d565b6040516020818303038152906040528051906020012060001c9050611548565b600385141561154757816007015433878760405160200161152b9493929190611e5d565b6040516020818303038152906040528051906020012060001c90505b5b5b6002548161155791906124a8565b925050509392505050565b3373ffffffffffffffffffffffffffffffffffffffff16600160009054906101000a900473ffffffffffffffffffffffffffffffffffffffff1673ffffffffffffffffffffffffffffffffffffffff16146115f2576040517f08c379a00000000000000000000000000000000000000000000000000000000081526004016115e99061201c565b60405180910390fd5b8060098190555050565b600080600080600f60008681526020019081526020016000209050806005015481600601548260070154935093509350509193909250565b600b60009054906101000a900473ffffffffffffffffffffffffffffffffffffffff1681565b600f6020528060005260406000206000915090508060000154908060010154908060020154908060030154908060040160009054906101000a900460ff16908060040160019054906101000a900460ff16908060040160029054906101000a900460ff16908060040160039054906101000a900473ffffffffffffffffffffffffffffffffffffffff1690806005015490806006015490806007015490508b565b3373ffffffffffffffffffffffffffffffffffffffff16600160009054906101000a900473ffffffffffffffffffffffffffffffffffffffff1673ffffffffffffffffffffffffffffffffffffffff161461178b576040517f08c379a00000000000000000000000000000000000000000000000000000000081526004016117829061201c565b60405180910390fd5b600a60009054906101000a900473ffffffffffffffffffffffffffffffffffffffff1673ffffffffffffffffffffffffffffffffffffffff1663a9059cbb83836040518363ffffffff1660e01b81526004016117e8929190611ec6565b602060405180830381600087803b15801561180257600080fd5b505af1158015611816573d6000803e3d6000fd5b505050506040513d601f19601f8201168201806040525081019061183a9190611b36565b505050565b600d60009054906101000a900473ffffffffffffffffffffffffffffffffffffffff1681565b3373ffffffffffffffffffffffffffffffffffffffff16600160009054906101000a900473ffffffffffffffffffffffffffffffffffffffff1673ffffffffffffffffffffffffffffffffffffffff16146118f5576040517f08c379a00000000000000000000000000000000000000000000000000000000081526004016118ec9061201c565b60405180910390fd5b806006908051906020019061190b92919061190f565b5050565b82805482825590600052602060002090810192821561194b579160200282015b8281111561194a57825182559160200191906001019061192f565b5b509050611958919061195c565b5090565b5b8082111561197557600081600090555060010161195d565b5090565b600061198c6119878461228b565b612266565b905080838252602082019050828560208602820111156119af576119ae61259a565b5b60005b858110156119df57816119c58882611a6b565b8452602084019350602083019250506001810190506119b2565b5050509392505050565b6000813590506119f881612738565b92915050565b600082601f830112611a1357611a12612595565b5b8135611a23848260208601611979565b91505092915050565b600081519050611a3b8161274f565b92915050565b600081359050611a5081612766565b92915050565b600081519050611a6581612766565b92915050565b600081359050611a7a8161277d565b92915050565b600060208284031215611a9657611a956125a4565b5b6000611aa4848285016119e9565b91505092915050565b60008060408385031215611ac457611ac36125a4565b5b6000611ad2858286016119e9565b9250506020611ae385828601611a6b565b9150509250929050565b600060208284031215611b0357611b026125a4565b5b600082013567ffffffffffffffff811115611b2157611b2061259f565b5b611b2d848285016119fe565b91505092915050565b600060208284031215611b4c57611b4b6125a4565b5b6000611b5a84828501611a2c565b91505092915050565b600060208284031215611b7957611b786125a4565b5b6000611b8784828501611a56565b91505092915050565b600080600080600060a08688031215611bac57611bab6125a4565b5b6000611bba88828901611a41565b9550506020611bcb88828901611a6b565b9450506040611bdc88828901611a6b565b9350506060611bed88828901611a6b565b9250506080611bfe88828901611a6b565b9150509295509295909350565b600060208284031215611c2157611c206125a4565b5b6000611c2f84828501611a6b565b91505092915050565b600080600060608486031215611c5157611c506125a4565b5b6000611c5f86828701611a6b565b9350506020611c7086828701611a6b565b9250506040611c8186828701611a6b565b9150509250925092565b611c948161231e565b82525050565b611cab611ca68261231e565b61247a565b82525050565b611cba81612330565b82525050565b611cc981612370565b82525050565b611cd881612394565b82525050565b611ce7816123b8565b82525050565b611cf6816123dc565b82525050565b6000611d096002836122b7565b9150611d14826125c7565b602082019050919050565b6000611d2c6002836122b7565b9150611d37826125f0565b602082019050919050565b6000611d4f6002836122b7565b9150611d5a82612619565b602082019050919050565b6000611d726002836122b7565b9150611d7d82612642565b602082019050919050565b6000611d956002836122b7565b9150611da08261266b565b602082019050919050565b6000611db86002836122b7565b9150611dc382612694565b602082019050919050565b6000611ddb6002836122b7565b9150611de6826126bd565b602082019050919050565b6000611dfe6002836122b7565b9150611e09826126e6565b602082019050919050565b6000611e216002836122b7565b9150611e2c8261270f565b602082019050919050565b611e4081612366565b82525050565b611e57611e5282612366565b61249e565b82525050565b6000611e698287611e46565b602082019150611e798286611c9a565b601482019150611e898285611e46565b602082019150611e998284611e46565b60208201915081905095945050505050565b6000602082019050611ec06000830184611c8b565b92915050565b6000604082019050611edb6000830185611c8b565b611ee86020830184611e37565b9392505050565b600060c082019050611f046000830189611c8b565b611f116020830188611e37565b611f1e6040830187611e37565b611f2b6060830186611e37565b611f386080830185611e37565b611f4560a0830184611e37565b979650505050505050565b6000602082019050611f656000830184611cc0565b92915050565b6000602082019050611f806000830184611ccf565b92915050565b6000602082019050611f9b6000830184611cde565b92915050565b6000602082019050611fb66000830184611ced565b92915050565b60006020820190508181036000830152611fd581611cfc565b9050919050565b60006020820190508181036000830152611ff581611d1f565b9050919050565b6000602082019050818103600083015261201581611d42565b9050919050565b6000602082019050818103600083015261203581611d65565b9050919050565b6000602082019050818103600083015261205581611d88565b9050919050565b6000602082019050818103600083015261207581611dab565b9050919050565b6000602082019050818103600083015261209581611dce565b9050919050565b600060208201905081810360008301526120b581611df1565b9050919050565b600060208201905081810360008301526120d581611e14565b9050919050565b60006020820190506120f16000830184611e37565b92915050565b600060608201905061210c6000830186611e37565b6121196020830185611e37565b6121266040830184611e37565b949350505050565b600061012082019050612144600083018c611e37565b612151602083018b611e37565b61215e604083018a611e37565b61216b6060830189611cb1565b6121786080830188611cb1565b61218560a0830187611cb1565b61219260c0830186611e37565b61219f60e0830185611e37565b6121ad610100830184611e37565b9a9950505050505050505050565b6000610160820190506121d1600083018e611e37565b6121de602083018d611e37565b6121eb604083018c611e37565b6121f8606083018b611e37565b612205608083018a611cb1565b61221260a0830189611cb1565b61221f60c0830188611cb1565b61222c60e0830187611c8b565b61223a610100830186611e37565b612248610120830185611e37565b612256610140830184611e37565b9c9b505050505050505050505050565b6000612270612281565b905061227c8282612400565b919050565b6000604051905090565b600067ffffffffffffffff8211156122a6576122a5612566565b5b602082029050602081019050919050565b600082825260208201905092915050565b60006122d382612366565b91506122de83612366565b9250827fffffffffffffffffffffffffffffffffffffffffffffffffffffffffffffffff03821115612313576123126124d9565b5b828201905092915050565b600061232982612346565b9050919050565b60008115159050919050565b6000819050919050565b600073ffffffffffffffffffffffffffffffffffffffff82169050919050565b6000819050919050565b600061237b82612382565b9050919050565b600061238d82612346565b9050919050565b600061239f826123a6565b9050919050565b60006123b182612346565b9050919050565b60006123c3826123ca565b9050919050565b60006123d582612346565b9050919050565b60006123e7826123ee565b9050919050565b60006123f982612346565b9050919050565b612409826125a9565b810181811067ffffffffffffffff8211171561242857612427612566565b5b80604052505050565b600061243c82612366565b91507fffffffffffffffffffffffffffffffffffffffffffffffffffffffffffffffff82141561246f5761246e6124d9565b5b600182019050919050565b60006124858261248c565b9050919050565b6000612497826125ba565b9050919050565b6000819050919050565b60006124b382612366565b91506124be83612366565b9250826124ce576124cd612508565b5b828206905092915050565b7f4e487b7100000000000000000000000000000000000000000000000000000000600052601160045260246000fd5b7f4e487b7100000000000000000000000000000000000000000000000000000000600052601260045260246000fd5b7f4e487b7100000000000000000000000000000000000000000000000000000000600052603260045260246000fd5b7f4e487b7100000000000000000000000000000000000000000000000000000000600052604160045260246000fd5b600080fd5b600080fd5b600080fd5b600080fd5b6000601f19601f8301169050919050565b60008160601b9050919050565b7f4e36000000000000000000000000000000000000000000000000000000000000600082015250565b7f4e34000000000000000000000000000000000000000000000000000000000000600082015250565b7f5431000000000000000000000000000000000000000000000000000000000000600082015250565b7f4131000000000000000000000000000000000000000000000000000000000000600082015250565b7f5432000000000000000000000000000000000000000000000000000000000000600082015250565b7f4e33000000000000000000000000000000000000000000000000000000000000600082015250565b7f4e32000000000000000000000000000000000000000000000000000000000000600082015250565b7f4e35000000000000000000000000000000000000000000000000000000000000600082015250565b7f4e31000000000000000000000000000000000000000000000000000000000000600082015250565b6127418161231e565b811461274c57600080fd5b50565b61275881612330565b811461276357600080fd5b50565b61276f8161233c565b811461277a57600080fd5b50565b61278681612366565b811461279157600080fd5b5056fea264697066735822122026ad381debf24421b12c337e9a113768b053adbeb1cec9b6d5308871804494b564736f6c63430008060033",
  "immutableReferences": {},
  "source": "// SPDX-License-Identifier: MIT\r\npragma solidity >=0.4.22 <0.9.0;\r\n\r\nimport \"../node_modules/@openzeppelin/contracts/token/ERC20/IERC20.sol\";\r\nimport \"../node_modules/@openzeppelin/contracts/security/ReentrancyGuard.sol\";\r\nimport \"../contracts/PBTeams.sol\";\r\nimport \"../contracts/PBPvCHelper.sol\";\r\nimport \"../contracts/validator.sol\";\r\n\r\ncontract PBPvCMatchups is ReentrancyGuard {\r\n\r\naddress admin;\r\nuint dnaModulus = 10 ** 16;\r\nuint bellCurveIterations = 4;\r\nuint winToken;\r\nuint lossToken;\r\nuint[] timeoutSeconds;\r\nuint[] reward;\r\nuint xpReward;\r\nuint difficultymod;\r\nIERC20 public buddies;\r\nPBTeams public pbTeams;\r\nPBXP public PBXPToken;\r\nPBPvCHelper public pbPvCHelper;\r\nValidator private validator;\r\n\r\n    struct TeamPvCMatchups {\r\n        uint teamId;\r\n        uint activeTimestamp1;\r\n        uint activeTimestamp2;\r\n        uint activeTimestamp3;\r\n        bool lastMatchWon1;\r\n        bool lastMatchWon2;\r\n        bool lastMatchWon3;\r\n        address ownerAddress;\r\n        uint nonce1;\r\n        uint nonce2;\r\n        uint nonce3;\r\n    }\r\n\r\nconstructor(address _buddiesCoinAddress, address _pbxpAddress, address _pbTeamsAddress, address _pbPvCHelperAddress, uint[] memory _timeoutSeconds, uint[] memory _reward, uint _xpReward, uint _difficultymod){\r\n    admin = msg.sender;\r\n    buddies = IERC20(_buddiesCoinAddress);\r\n    PBXPToken = PBXP(_pbxpAddress);\r\n    pbTeams = PBTeams(_pbTeamsAddress);\r\n    pbPvCHelper = PBPvCHelper(_pbPvCHelperAddress);\r\n    timeoutSeconds = _timeoutSeconds;\r\n    reward = _reward;\r\n    xpReward = _xpReward;\r\n    difficultymod = _difficultymod;\r\n}\r\n\r\nmapping (uint => TeamPvCMatchups) public _teamPvCMatchups;\r\n\r\nmodifier onlyAdmin() {\r\n    require(admin == msg.sender, \"A1\" );\r\n    _;\r\n}\r\n\r\nfunction updateValidator(address _validator) external onlyAdmin {\r\n    validator = Validator(_validator);\r\n}\r\n\r\nfunction getPBPvCMatchupsAddress() public view returns (address){\r\n    return address(this);\r\n}\r\n\r\nfunction getDifficultyMod() public view returns (uint){\r\n    return difficultymod;\r\n}\r\n\r\nfunction updateDifficultyMod(uint _difficultymod) external onlyAdmin {\r\n    difficultymod = _difficultymod;\r\n}\r\n\r\nfunction getBuddiesReward() public view returns (uint, uint, uint){\r\n    return (reward[0], reward[1], reward[2]);\r\n}\r\n\r\nfunction updateBuddiesReward( uint[] memory _reward) external onlyAdmin{\r\n    reward = _reward;\r\n}\r\n\r\nfunction updateTimesOut( uint[] memory _timeoutSeconds) external onlyAdmin {\r\n    timeoutSeconds = _timeoutSeconds;\r\n} \r\n\r\nfunction getPBXPReward() public view returns (uint){\r\n    return xpReward;\r\n}\r\n\r\nfunction updatePBXPReward(uint _xpReward) external onlyAdmin {\r\n    xpReward = _xpReward;\r\n}\r\n\r\nfunction widthdrawBuddiesFromContract(address _widthdrawAddress, uint _amount) external onlyAdmin {\r\n    buddies.transfer(_widthdrawAddress, _amount);\r\n}\r\n\r\n\r\n\r\nfunction rewardMatchup (bytes32 _token, uint _difficulty, uint _teamId, uint t1S, uint t2S) external {\r\n    TeamPvCMatchups storage teamPvCmatchup = _teamPvCMatchups[_teamId];\r\n    uint matchNonce;\r\n    if(_difficulty == 1){\r\n        matchNonce = teamPvCmatchup.nonce1;\r\n    }else if(_difficulty == 2){\r\n        matchNonce = teamPvCmatchup.nonce2;\r\n    }else if(_difficulty == 3){\r\n        matchNonce = teamPvCmatchup.nonce3;\r\n    }\r\n\r\n    if(t1S > t2S){\r\n        require(_token == validator.validateW(msg.sender, matchNonce, _difficulty, _teamId, t1S, t2S), \"T1\");\r\n\r\n        if(_difficulty == 1){\r\n            require(block.timestamp >= teamPvCmatchup.activeTimestamp1, \"N1\");\r\n            teamPvCmatchup.activeTimestamp1 = block.timestamp + timeoutSeconds[0];\r\n            teamPvCmatchup.lastMatchWon1 = true;\r\n            buddies.transfer(msg.sender, reward[0]);\r\n            PBXPToken.earnPBXP(msg.sender, xpReward);\r\n            teamPvCmatchup.nonce1++;\r\n           \r\n        }else if(_difficulty == 2){\r\n            require(block.timestamp >=  teamPvCmatchup.activeTimestamp2, \"N2\");\r\n            teamPvCmatchup.activeTimestamp2 = block.timestamp + timeoutSeconds[1];\r\n            teamPvCmatchup.lastMatchWon2 = true;\r\n            buddies.transfer(msg.sender, reward[1]);\r\n            PBXPToken.earnPBXP(msg.sender, xpReward);\r\n            teamPvCmatchup.nonce2++;\r\n            \r\n        }else if(_difficulty == 3){\r\n            require(block.timestamp >= teamPvCmatchup.activeTimestamp3, \"N3\");\r\n            teamPvCmatchup.activeTimestamp3 = block.timestamp + timeoutSeconds[2];\r\n            teamPvCmatchup.lastMatchWon3 = true;\r\n            buddies.transfer(msg.sender, reward[2]);\r\n            PBXPToken.earnPBXP(msg.sender, xpReward);\r\n            teamPvCmatchup.nonce3++;\r\n            \r\n        }\r\n\r\n    }else if(t2S > t1S){\r\n        require(_token == validator.validateL(msg.sender, matchNonce, _difficulty, _teamId, t1S, t2S), \"T2\");\r\n\r\n        if(_difficulty == 1){\r\n            require(block.timestamp >= teamPvCmatchup.activeTimestamp1, \"N4\");\r\n            teamPvCmatchup.activeTimestamp1 = block.timestamp + timeoutSeconds[0];\r\n            teamPvCmatchup.lastMatchWon1 = false;\r\n            PBXPToken.earnPBXP(msg.sender, xpReward);\r\n            teamPvCmatchup.nonce1++;\r\n            \r\n        }else if(_difficulty == 2){\r\n            require(block.timestamp >=  teamPvCmatchup.activeTimestamp2, \"N5\");\r\n            teamPvCmatchup.activeTimestamp2 = block.timestamp + timeoutSeconds[1];\r\n            teamPvCmatchup.lastMatchWon2 = false;\r\n            PBXPToken.earnPBXP(msg.sender, xpReward);\r\n            teamPvCmatchup.nonce2++;\r\n            \r\n        }else if(_difficulty == 3){\r\n            require(block.timestamp >= teamPvCmatchup.activeTimestamp3, \"N6\");\r\n            teamPvCmatchup.activeTimestamp3 = block.timestamp + timeoutSeconds[2];\r\n            teamPvCmatchup.lastMatchWon3 = false;\r\n            PBXPToken.earnPBXP(msg.sender, xpReward);\r\n            teamPvCmatchup.nonce3++;\r\n            \r\n        }\r\n    }\r\n}\r\n\r\nfunction generateRandomTeamDNA(uint mod, uint difficulty, uint teamId) public view returns (uint){\r\n    TeamPvCMatchups storage teamPvCmatchup = _teamPvCMatchups[teamId];\r\n    uint rand;\r\n    if(difficulty == 1){\r\n        rand = uint(keccak256(abi.encodePacked(teamPvCmatchup.nonce1, msg.sender, mod, difficulty)));\r\n    }else if(difficulty == 2){\r\n        rand = uint(keccak256(abi.encodePacked(teamPvCmatchup.nonce2, msg.sender, mod, difficulty)));  \r\n    }else if(difficulty == 3){\r\n        rand = uint(keccak256(abi.encodePacked(teamPvCmatchup.nonce3, msg.sender, mod, difficulty)));\r\n    } \r\n    return rand % dnaModulus;\r\n}\r\n\r\nfunction getTimeOuts(uint teamId) public view returns (uint, uint, uint, bool, bool, bool, uint, uint, uint){\r\n    TeamPvCMatchups storage teamPvCmatchup = _teamPvCMatchups[teamId];\r\n    return (timeoutSeconds[0], timeoutSeconds[1], timeoutSeconds[2], teamPvCmatchup.lastMatchWon1, teamPvCmatchup.lastMatchWon2, teamPvCmatchup.lastMatchWon3, teamPvCmatchup.activeTimestamp1, teamPvCmatchup.activeTimestamp2, teamPvCmatchup.activeTimestamp3);\r\n}\r\n\r\nfunction getNoMatchups(uint teamId) public view returns (uint, uint, uint){\r\n    TeamPvCMatchups storage teamPvCmatchup = _teamPvCMatchups[teamId];\r\n    return (teamPvCmatchup.nonce1, teamPvCmatchup.nonce2, teamPvCmatchup.nonce3);\r\n}\r\n\r\nfunction getPvCMatchupsTimestamp() public view returns (uint) {\r\n    return block.timestamp;\r\n}\r\n\r\n}\r\n\r\n",
  "sourcePath": "O:\\Projects\\puck-buddies\\contracts\\PBPvCMatchup.sol",
  "compiler": {
    "name": "solc",
    "version": "0.8.6+commit.11564f7e.Emscripten.clang"
  },
  "schemaVersion": "3.4.3",
  "updatedAt": "2021-11-22T07:37:45.091Z",
  "networkType": "ethereum",
  "devdoc": {
    "kind": "dev",
    "methods": {},
    "version": 1
  },
  "userdoc": {
    "kind": "user",
    "methods": {},
    "version": 1
  }
}