{
  "contractName": "PBPvCMatchups",
  "abi": [
    {
      "inputs": [
        {
          "internalType": "address",
          "name": "_buddiesCoinAddress",
          "type": "address"
        },
        {
          "internalType": "address",
          "name": "_pbxpAddress",
          "type": "address"
        },
        {
          "internalType": "address",
          "name": "_pbTeamsAddress",
          "type": "address"
        },
        {
          "internalType": "address",
          "name": "_pbMatchupValidationAddress",
          "type": "address"
        },
        {
          "internalType": "address",
          "name": "_pbPvCHelperAddress",
          "type": "address"
        },
        {
          "internalType": "uint256[]",
          "name": "_timeoutSeconds",
          "type": "uint256[]"
        },
        {
          "internalType": "uint256[]",
          "name": "_reward",
          "type": "uint256[]"
        },
        {
          "internalType": "uint256",
          "name": "_xpReward",
          "type": "uint256"
        },
        {
          "internalType": "uint256",
          "name": "_difficultymod",
          "type": "uint256"
        }
      ],
      "stateMutability": "nonpayable",
      "type": "constructor"
    },
    {
      "anonymous": false,
      "inputs": [
        {
          "indexed": false,
          "internalType": "bool",
          "name": "isWinner",
          "type": "bool"
        },
        {
          "indexed": false,
          "internalType": "uint256",
          "name": "to1",
          "type": "uint256"
        },
        {
          "indexed": false,
          "internalType": "uint256",
          "name": "to2",
          "type": "uint256"
        },
        {
          "indexed": false,
          "internalType": "uint256",
          "name": "to3",
          "type": "uint256"
        }
      ],
      "name": "gamePlayed",
      "type": "event"
    },
    {
      "inputs": [],
      "name": "PBXPToken",
      "outputs": [
        {
          "internalType": "contract PBXP",
          "name": "",
          "type": "address"
        }
      ],
      "stateMutability": "view",
      "type": "function",
      "constant": true
    },
    {
      "inputs": [
        {
          "internalType": "uint256",
          "name": "",
          "type": "uint256"
        }
      ],
      "name": "_teamPvCMatchups",
      "outputs": [
        {
          "internalType": "uint256",
          "name": "teamId",
          "type": "uint256"
        },
        {
          "internalType": "uint256",
          "name": "activeTimestamp1",
          "type": "uint256"
        },
        {
          "internalType": "uint256",
          "name": "activeTimestamp2",
          "type": "uint256"
        },
        {
          "internalType": "uint256",
          "name": "activeTimestamp3",
          "type": "uint256"
        },
        {
          "internalType": "bool",
          "name": "lastMatchWon1",
          "type": "bool"
        },
        {
          "internalType": "bool",
          "name": "lastMatchWon2",
          "type": "bool"
        },
        {
          "internalType": "bool",
          "name": "lastMatchWon3",
          "type": "bool"
        },
        {
          "internalType": "address",
          "name": "ownerAddress",
          "type": "address"
        },
        {
          "internalType": "uint256",
          "name": "nonce1",
          "type": "uint256"
        },
        {
          "internalType": "uint256",
          "name": "nonce2",
          "type": "uint256"
        },
        {
          "internalType": "uint256",
          "name": "nonce3",
          "type": "uint256"
        }
      ],
      "stateMutability": "view",
      "type": "function",
      "constant": true
    },
    {
      "inputs": [],
      "name": "buddies",
      "outputs": [
        {
          "internalType": "contract IERC20",
          "name": "",
          "type": "address"
        }
      ],
      "stateMutability": "view",
      "type": "function",
      "constant": true
    },
    {
      "inputs": [],
      "name": "pbMatchupValidation",
      "outputs": [
        {
          "internalType": "contract PBMatchupValidation",
          "name": "",
          "type": "address"
        }
      ],
      "stateMutability": "view",
      "type": "function",
      "constant": true
    },
    {
      "inputs": [],
      "name": "pbPvCHelper",
      "outputs": [
        {
          "internalType": "contract PBPvCHelper",
          "name": "",
          "type": "address"
        }
      ],
      "stateMutability": "view",
      "type": "function",
      "constant": true
    },
    {
      "inputs": [],
      "name": "pbTeams",
      "outputs": [
        {
          "internalType": "contract PBTeams",
          "name": "",
          "type": "address"
        }
      ],
      "stateMutability": "view",
      "type": "function",
      "constant": true
    },
    {
      "inputs": [],
      "name": "getPBPvCMatchupsAddress",
      "outputs": [
        {
          "internalType": "address",
          "name": "",
          "type": "address"
        }
      ],
      "stateMutability": "view",
      "type": "function",
      "constant": true
    },
    {
      "inputs": [],
      "name": "getDifficultyMod",
      "outputs": [
        {
          "internalType": "uint256",
          "name": "",
          "type": "uint256"
        }
      ],
      "stateMutability": "view",
      "type": "function",
      "constant": true
    },
    {
      "inputs": [],
      "name": "getBuddiesReward",
      "outputs": [
        {
          "internalType": "uint256",
          "name": "",
          "type": "uint256"
        },
        {
          "internalType": "uint256",
          "name": "",
          "type": "uint256"
        },
        {
          "internalType": "uint256",
          "name": "",
          "type": "uint256"
        }
      ],
      "stateMutability": "view",
      "type": "function",
      "constant": true
    },
    {
      "inputs": [],
      "name": "getPBXPReward",
      "outputs": [
        {
          "internalType": "uint256",
          "name": "",
          "type": "uint256"
        }
      ],
      "stateMutability": "view",
      "type": "function",
      "constant": true
    },
    {
      "inputs": [
        {
          "internalType": "address",
          "name": "_pbMatchupValidationAddress",
          "type": "address"
        }
      ],
      "name": "updatePBMatchupValidationAddress",
      "outputs": [],
      "stateMutability": "nonpayable",
      "type": "function"
    },
    {
      "inputs": [
        {
          "internalType": "uint256",
          "name": "difficulty",
          "type": "uint256"
        },
        {
          "internalType": "uint256",
          "name": "teamId",
          "type": "uint256"
        },
        {
          "internalType": "uint256[]",
          "name": "playerIds",
          "type": "uint256[]"
        }
      ],
      "name": "hitTheIcePvC",
      "outputs": [
        {
          "internalType": "bool",
          "name": "",
          "type": "bool"
        }
      ],
      "stateMutability": "nonpayable",
      "type": "function"
    },
    {
      "inputs": [
        {
          "internalType": "uint256",
          "name": "mod",
          "type": "uint256"
        },
        {
          "internalType": "uint256",
          "name": "difficulty",
          "type": "uint256"
        },
        {
          "internalType": "uint256",
          "name": "teamId",
          "type": "uint256"
        }
      ],
      "name": "generateRandomTeamDNA",
      "outputs": [
        {
          "internalType": "uint256",
          "name": "",
          "type": "uint256"
        }
      ],
      "stateMutability": "view",
      "type": "function",
      "constant": true
    },
    {
      "inputs": [
        {
          "internalType": "uint256",
          "name": "teamId",
          "type": "uint256"
        }
      ],
      "name": "getTimeOuts",
      "outputs": [
        {
          "internalType": "uint256",
          "name": "",
          "type": "uint256"
        },
        {
          "internalType": "uint256",
          "name": "",
          "type": "uint256"
        },
        {
          "internalType": "uint256",
          "name": "",
          "type": "uint256"
        },
        {
          "internalType": "bool",
          "name": "",
          "type": "bool"
        },
        {
          "internalType": "bool",
          "name": "",
          "type": "bool"
        },
        {
          "internalType": "bool",
          "name": "",
          "type": "bool"
        },
        {
          "internalType": "uint256",
          "name": "",
          "type": "uint256"
        },
        {
          "internalType": "uint256",
          "name": "",
          "type": "uint256"
        },
        {
          "internalType": "uint256",
          "name": "",
          "type": "uint256"
        }
      ],
      "stateMutability": "view",
      "type": "function",
      "constant": true
    },
    {
      "inputs": [],
      "name": "getPvCMatchupsTimestamp",
      "outputs": [
        {
          "internalType": "uint256",
          "name": "",
          "type": "uint256"
        }
      ],
      "stateMutability": "view",
      "type": "function",
      "constant": true
    }
  ],
  "bytecode": "0x608060405261018d6002556101bf6003556000600455662386f26fc1000060055560046006553480156200003257600080fd5b50604051620031c4380380620031c4833981810160405281019062000058919062000382565b600160008190555033600160006101000a81548173ffffffffffffffffffffffffffffffffffffffff021916908373ffffffffffffffffffffffffffffffffffffffff16021790555088600b60006101000a81548173ffffffffffffffffffffffffffffffffffffffff021916908373ffffffffffffffffffffffffffffffffffffffff16021790555087600d60006101000a81548173ffffffffffffffffffffffffffffffffffffffff021916908373ffffffffffffffffffffffffffffffffffffffff16021790555086600c60006101000a81548173ffffffffffffffffffffffffffffffffffffffff021916908373ffffffffffffffffffffffffffffffffffffffff16021790555085600e60006101000a81548173ffffffffffffffffffffffffffffffffffffffff021916908373ffffffffffffffffffffffffffffffffffffffff16021790555084600f60006101000a81548173ffffffffffffffffffffffffffffffffffffffff021916908373ffffffffffffffffffffffffffffffffffffffff1602179055508360079080519060200190620001fe92919062000235565b5082600890805190602001906200021792919062000235565b508160098190555080600a81905550505050505050505050620005f3565b82805482825590600052602060002090810192821562000274579160200282015b828111156200027357825182559160200191906001019062000256565b5b50905062000283919062000287565b5090565b5b80821115620002a257600081600090555060010162000288565b5090565b6000620002bd620002b784620004c8565b6200049f565b90508083825260208201905082856020860282011115620002e357620002e26200059f565b5b60005b85811015620003175781620002fc88826200036b565b845260208401935060208301925050600181019050620002e6565b5050509392505050565b6000815190506200033281620005bf565b92915050565b600082601f83011262000350576200034f6200059a565b5b815162000362848260208601620002a6565b91505092915050565b6000815190506200037c81620005d9565b92915050565b60008060008060008060008060006101208a8c031215620003a857620003a7620005a9565b5b6000620003b88c828d0162000321565b9950506020620003cb8c828d0162000321565b9850506040620003de8c828d0162000321565b9750506060620003f18c828d0162000321565b9650506080620004048c828d0162000321565b95505060a08a015167ffffffffffffffff811115620004285762000427620005a4565b5b620004368c828d0162000338565b94505060c08a015167ffffffffffffffff8111156200045a5762000459620005a4565b5b620004688c828d0162000338565b93505060e06200047b8c828d016200036b565b9250506101006200048f8c828d016200036b565b9150509295985092959850929598565b6000620004ab620004be565b9050620004b9828262000535565b919050565b6000604051905090565b600067ffffffffffffffff821115620004e657620004e56200056b565b5b602082029050602081019050919050565b600062000504826200050b565b9050919050565b600073ffffffffffffffffffffffffffffffffffffffff82169050919050565b6000819050919050565b6200054082620005ae565b810181811067ffffffffffffffff821117156200056257620005616200056b565b5b80604052505050565b7f4e487b7100000000000000000000000000000000000000000000000000000000600052604160045260246000fd5b600080fd5b600080fd5b600080fd5b600080fd5b6000601f19601f8301169050919050565b620005ca81620004f7565b8114620005d657600080fd5b50565b620005e4816200052b565b8114620005f057600080fd5b50565b612bc180620006036000396000f3fe608060405234801561001057600080fd5b50600436106100f55760003560e01c806362170b7111610097578063b4fad1ff11610066578063b4fad1ff14610270578063e00c01c5146102a0578063e245c22d146102be578063f15e0e9c146102f8576100f5565b806362170b71146101fa57806389bf0f0d1461021857806397ede52514610234578063a6eaa2a314610252576100f5565b806347a69777116100d357806347a69777146101805780634a594c12146101a057806351171af2146101be578063532195bb146101dc576100f5565b80632071a7fb146100fa5780632a73e6561461013257806346904c4614610150575b600080fd5b610114600480360381019061010f9190611e51565b610316565b6040516101299998979695949392919061246e565b60405180910390f35b61013a6103ff565b6040516101479190612272565b60405180910390f35b61016a60048036038101906101659190611eab565b610425565b60405161017791906121f7565b60405180910390f35b610188611818565b60405161019793929190612437565b60405180910390f35b6101a8611888565b6040516101b59190612257565b60405180910390f35b6101c66118ae565b6040516101d391906121b3565b60405180910390f35b6101e46118b6565b6040516101f1919061237e565b60405180910390f35b6102026118c0565b60405161020f919061237e565b60405180910390f35b610232600480360381019061022d9190611dc9565b6118ca565b005b61023c61199e565b60405161024991906122c3565b60405180910390f35b61025a6119c4565b604051610267919061237e565b60405180910390f35b61028a60048036038101906102859190611f1a565b6119cc565b604051610297919061237e565b60405180910390f35b6102a8611ac9565b6040516102b591906122a8565b60405180910390f35b6102d860048036038101906102d39190611e51565b611aef565b6040516102ef9b9a99989796959493929190612540565b60405180910390f35b610300611b90565b60405161030d919061228d565b60405180910390f35b600080600080600080600080600080601060008c81526020019081526020016000209050600760008154811061034f5761034e6129be565b5b9060005260206000200154600760018154811061036f5761036e6129be565b5b9060005260206000200154600760028154811061038f5761038e6129be565b5b90600052602060002001548360040160009054906101000a900460ff168460040160019054906101000a900460ff168560040160029054906101000a900460ff16866001015487600201548860030154995099509950995099509950995099509950509193959799909294969850565b600e60009054906101000a900473ffffffffffffffffffffffffffffffffffffffff1681565b600060011515600e60009054906101000a900473ffffffffffffffffffffffffffffffffffffffff1673ffffffffffffffffffffffffffffffffffffffff166332dae57285856040518363ffffffff1660e01b8152600401610488929190612399565b60206040518083038186803b1580156104a057600080fd5b505afa1580156104b4573d6000803e3d6000fd5b505050506040513d601f19601f820116820180604052508101906104d89190611df6565b15151461051a576040517f08c379a0000000000000000000000000000000000000000000000000000000008152600401610511906122fe565b60405180910390fd5b6000601060008581526020019081526020016000209050600c60009054906101000a900473ffffffffffffffffffffffffffffffffffffffff1673ffffffffffffffffffffffffffffffffffffffff1663c1e03728856040518263ffffffff1660e01b815260040161058c919061237e565b6101606040518083038186803b1580156105a557600080fd5b505afa1580156105b9573d6000803e3d6000fd5b505050506040513d601f19601f820116820180604052508101906105dd9190611e23565b61014001518160040160036101000a81548173ffffffffffffffffffffffffffffffffffffffff021916908373ffffffffffffffffffffffffffffffffffffffff1602179055503373ffffffffffffffffffffffffffffffffffffffff168160040160039054906101000a900473ffffffffffffffffffffffffffffffffffffffff1673ffffffffffffffffffffffffffffffffffffffff16146106b6576040517f08c379a00000000000000000000000000000000000000000000000000000000081526004016106ad906122de565b60405180910390fd5b6000600c60009054906101000a900473ffffffffffffffffffffffffffffffffffffffff1673ffffffffffffffffffffffffffffffffffffffff1663c1e03728866040518263ffffffff1660e01b8152600401610713919061237e565b6101606040518083038186803b15801561072c57600080fd5b505afa158015610740573d6000803e3d6000fd5b505050506040513d601f19601f820116820180604052508101906107649190611e23565b6040015190506000600c60009054906101000a900473ffffffffffffffffffffffffffffffffffffffff1673ffffffffffffffffffffffffffffffffffffffff1663c1e03728876040518263ffffffff1660e01b81526004016107c7919061237e565b6101606040518083038186803b1580156107e057600080fd5b505afa1580156107f4573d6000803e3d6000fd5b505050506040513d601f19601f820116820180604052508101906108189190611e23565b606001519050600080600060018a141561099957600f60009054906101000a900473ffffffffffffffffffffffffffffffffffffffff1673ffffffffffffffffffffffffffffffffffffffff1663c056e32f600a548c60016040518463ffffffff1660e01b815260040161088e939291906123c9565b60206040518083038186803b1580156108a657600080fd5b505afa1580156108ba573d6000803e3d6000fd5b505050506040513d601f19601f820116820180604052508101906108de9190611e7e565b9250600f60009054906101000a900473ffffffffffffffffffffffffffffffffffffffff1673ffffffffffffffffffffffffffffffffffffffff1663c056e32f600a548c60026040518463ffffffff1660e01b815260040161094293929190612400565b60206040518083038186803b15801561095a57600080fd5b505afa15801561096e573d6000803e3d6000fd5b505050506040513d601f19601f820116820180604052508101906109929190611e7e565b9150610ce3565b60028a1415610b3f57600f60009054906101000a900473ffffffffffffffffffffffffffffffffffffffff1673ffffffffffffffffffffffffffffffffffffffff1663c056e32f600a600f600a546109f1919061270d565b6109fb91906126dc565b8c60016040518463ffffffff1660e01b8152600401610a1c939291906123c9565b60206040518083038186803b158015610a3457600080fd5b505afa158015610a48573d6000803e3d6000fd5b505050506040513d601f19601f82011682018060405250810190610a6c9190611e7e565b9250600f60009054906101000a900473ffffffffffffffffffffffffffffffffffffffff1673ffffffffffffffffffffffffffffffffffffffff1663c056e32f600a600f600a54610abd919061270d565b610ac791906126dc565b8c60026040518463ffffffff1660e01b8152600401610ae893929190612400565b60206040518083038186803b158015610b0057600080fd5b505afa158015610b14573d6000803e3d6000fd5b505050506040513d601f19601f82011682018060405250810190610b389190611e7e565b9150610ce2565b60038a1415610ce157600f60009054906101000a900473ffffffffffffffffffffffffffffffffffffffff1673ffffffffffffffffffffffffffffffffffffffff1663c056e32f600a6014600a54610b97919061270d565b610ba191906126dc565b8c60016040518463ffffffff1660e01b8152600401610bc2939291906123c9565b60206040518083038186803b158015610bda57600080fd5b505afa158015610bee573d6000803e3d6000fd5b505050506040513d601f19601f82011682018060405250810190610c129190611e7e565b9250600f60009054906101000a900473ffffffffffffffffffffffffffffffffffffffff1673ffffffffffffffffffffffffffffffffffffffff1663c056e32f600a6014600a54610c63919061270d565b610c6d91906126dc565b8c60026040518463ffffffff1660e01b8152600401610c8e93929190612400565b60206040518083038186803b158015610ca657600080fd5b505afa158015610cba573d6000803e3d6000fd5b505050506040513d601f19601f82011682018060405250810190610cde9190611e7e565b91505b5b5b60018a1415610d6b578560010154421015610d33576040517f08c379a0000000000000000000000000000000000000000000000000000000008152600401610d2a9061231e565b60405180910390fd5b6007600081548110610d4857610d476129be565b5b906000526020600020015442610d5e9190612686565b8660010181905550610e79565b60028a1415610df3578560020154421015610dbb576040517f08c379a0000000000000000000000000000000000000000000000000000000008152600401610db29061235e565b60405180910390fd5b6007600181548110610dd057610dcf6129be565b5b906000526020600020015442610de69190612686565b8660020181905550610e78565b60038a1415610e77578560030154421015610e43576040517f08c379a0000000000000000000000000000000000000000000000000000000008152600401610e3a9061231e565b60405180910390fd5b6007600281548110610e5857610e576129be565b5b906000526020600020015442610e6e9190612686565b86600301819055505b5b5b6000600f60009054906101000a900473ffffffffffffffffffffffffffffffffffffffff1673ffffffffffffffffffffffffffffffffffffffff166363bf69ec878787876040518563ffffffff1660e01b8152600401610edc94939291906124fb565b60206040518083038186803b158015610ef457600080fd5b505afa158015610f08573d6000803e3d6000fd5b505050506040513d601f19601f82011682018060405250810190610f2c9190611e7e565b90506000600f60009054906101000a900473ffffffffffffffffffffffffffffffffffffffff1673ffffffffffffffffffffffffffffffffffffffff16631dbe2e0e6040518163ffffffff1660e01b815260040160206040518083038186803b158015610f9857600080fd5b505afa158015610fac573d6000803e3d6000fd5b505050506040513d601f19601f82011682018060405250810190610fd09190611e7e565b90508181116114ff5760018c141561117e5760018860040160006101000a81548160ff021916908315150217905550600b60009054906101000a900473ffffffffffffffffffffffffffffffffffffffff1673ffffffffffffffffffffffffffffffffffffffff1663a9059cbb336008600081548110611053576110526129be565b5b90600052602060002001546040518363ffffffff1660e01b815260040161107b9291906121ce565b602060405180830381600087803b15801561109557600080fd5b505af11580156110a9573d6000803e3d6000fd5b505050506040513d601f19601f820116820180604052508101906110cd9190611df6565b50600d60009054906101000a900473ffffffffffffffffffffffffffffffffffffffff1673ffffffffffffffffffffffffffffffffffffffff1663c43df89a336009546040518363ffffffff1660e01b815260040161112d9291906121ce565b600060405180830381600087803b15801561114757600080fd5b505af115801561115b573d6000803e3d6000fd5b50505050876005016000815480929190611174906128b8565b91905055506114f6565b60028c141561133b5760018860040160016101000a81548160ff021916908315150217905550600b60009054906101000a900473ffffffffffffffffffffffffffffffffffffffff1673ffffffffffffffffffffffffffffffffffffffff1663a9059cbb3360086001815481106111f8576111f76129be565b5b90600052602060002001546040518363ffffffff1660e01b81526004016112209291906121ce565b602060405180830381600087803b15801561123a57600080fd5b505af115801561124e573d6000803e3d6000fd5b505050506040513d601f19601f820116820180604052508101906112729190611df6565b50600d60009054906101000a900473ffffffffffffffffffffffffffffffffffffffff1673ffffffffffffffffffffffffffffffffffffffff1663c43df89a33600a600f6009546112c3919061270d565b6112cd91906126dc565b6040518363ffffffff1660e01b81526004016112ea9291906121ce565b600060405180830381600087803b15801561130457600080fd5b505af1158015611318573d6000803e3d6000fd5b50505050876006016000815480929190611331906128b8565b91905055506114f5565b60038c14156114f45760018860040160026101000a81548160ff021916908315150217905550600b60009054906101000a900473ffffffffffffffffffffffffffffffffffffffff1673ffffffffffffffffffffffffffffffffffffffff1663a9059cbb3360086002815481106113b5576113b46129be565b5b90600052602060002001546040518363ffffffff1660e01b81526004016113dd9291906121ce565b602060405180830381600087803b1580156113f757600080fd5b505af115801561140b573d6000803e3d6000fd5b505050506040513d601f19601f8201168201806040525081019061142f9190611df6565b50600d60009054906101000a900473ffffffffffffffffffffffffffffffffffffffff1673ffffffffffffffffffffffffffffffffffffffff1663c43df89a33600a6014600954611480919061270d565b61148a91906126dc565b6040518363ffffffff1660e01b81526004016114a79291906121ce565b600060405180830381600087803b1580156114c157600080fd5b505af11580156114d5573d6000803e3d6000fd5b505050508760070160008154809291906114ee906128b8565b91905055505b5b5b600192506117bd565b818111156117bc5760018c14156115dd5760008860040160006101000a81548160ff021916908315150217905550600d60009054906101000a900473ffffffffffffffffffffffffffffffffffffffff1673ffffffffffffffffffffffffffffffffffffffff1663c43df89a336009546040518363ffffffff1660e01b815260040161158c9291906121ce565b600060405180830381600087803b1580156115a657600080fd5b505af11580156115ba573d6000803e3d6000fd5b505050508760050160008154809291906115d3906128b8565b91905055506117b7565b60028c14156116cb5760008860040160016101000a81548160ff021916908315150217905550600d60009054906101000a900473ffffffffffffffffffffffffffffffffffffffff1673ffffffffffffffffffffffffffffffffffffffff1663c43df89a33600a600f600954611653919061270d565b61165d91906126dc565b6040518363ffffffff1660e01b815260040161167a9291906121ce565b600060405180830381600087803b15801561169457600080fd5b505af11580156116a8573d6000803e3d6000fd5b505050508760060160008154809291906116c1906128b8565b91905055506117b6565b60038c14156117b55760008860040160026101000a81548160ff021916908315150217905550600d60009054906101000a900473ffffffffffffffffffffffffffffffffffffffff1673ffffffffffffffffffffffffffffffffffffffff1663c43df89a33600a6014600954611741919061270d565b61174b91906126dc565b6040518363ffffffff1660e01b81526004016117689291906121ce565b600060405180830381600087803b15801561178257600080fd5b505af1158015611796573d6000803e3d6000fd5b505050508760070160008154809291906117af906128b8565b91905055505b5b5b600092505b5b7fb81d2d6f8c54034d2342369b856d110a09963e04a29cd80af87cd489b48c223a8389600101548a600201548b600301546040516117fe9493929190612212565b60405180910390a182985050505050505050509392505050565b60008060006008600081548110611832576118316129be565b5b90600052602060002001546008600181548110611852576118516129be565b5b90600052602060002001546008600281548110611872576118716129be565b5b9060005260206000200154925092509250909192565b600b60009054906101000a900473ffffffffffffffffffffffffffffffffffffffff1681565b600030905090565b6000600954905090565b6000600a54905090565b3373ffffffffffffffffffffffffffffffffffffffff16600160009054906101000a900473ffffffffffffffffffffffffffffffffffffffff1673ffffffffffffffffffffffffffffffffffffffff161461195a576040517f08c379a00000000000000000000000000000000000000000000000000000000081526004016119519061233e565b60405180910390fd5b80600e60006101000a81548173ffffffffffffffffffffffffffffffffffffffff021916908373ffffffffffffffffffffffffffffffffffffffff16021790555050565b600d60009054906101000a900473ffffffffffffffffffffffffffffffffffffffff1681565b600042905090565b60008060106000848152602001908152602001600020905060006001851415611a2a578160050154338787604051602001611a0a9493929190612165565b6040516020818303038152906040528051906020012060001c9050611ab0565b6002851415611a6e578160060154338787604051602001611a4e9493929190612165565b6040516020818303038152906040528051906020012060001c9050611aaf565b6003851415611aae578160070154338787604051602001611a929493929190612165565b6040516020818303038152906040528051906020012060001c90505b5b5b60055481611abe919061292f565b925050509392505050565b600c60009054906101000a900473ffffffffffffffffffffffffffffffffffffffff1681565b60106020528060005260406000206000915090508060000154908060010154908060020154908060030154908060040160009054906101000a900460ff16908060040160019054906101000a900460ff16908060040160029054906101000a900460ff16908060040160039054906101000a900473ffffffffffffffffffffffffffffffffffffffff1690806005015490806006015490806007015490508b565b600f60009054906101000a900473ffffffffffffffffffffffffffffffffffffffff1681565b6000611bc9611bc484612610565b6125eb565b90508083825260208201905082856020860282011115611bec57611beb612a26565b5b60005b85811015611c1c5781611c028882611d9f565b845260208401935060208301925050600181019050611bef565b5050509392505050565b600081359050611c3581612b46565b92915050565b600081519050611c4a81612b46565b92915050565b600082601f830112611c6557611c64612a1c565b5b8135611c75848260208601611bb6565b91505092915050565b600081519050611c8d81612b5d565b92915050565b60006101608284031215611caa57611ca9612a21565b5b611cb56101606125eb565b90506000611cc584828501611db4565b6000830152506020611cd984828501611db4565b6020830152506040611ced84828501611db4565b6040830152506060611d0184828501611db4565b6060830152506080611d1584828501611db4565b60808301525060a0611d2984828501611db4565b60a08301525060c0611d3d84828501611db4565b60c08301525060e0611d5184828501611c7e565b60e083015250610100611d6684828501611c7e565b61010083015250610120611d7c84828501611c7e565b61012083015250610140611d9284828501611c3b565b6101408301525092915050565b600081359050611dae81612b74565b92915050565b600081519050611dc381612b74565b92915050565b600060208284031215611ddf57611dde612a30565b5b6000611ded84828501611c26565b91505092915050565b600060208284031215611e0c57611e0b612a30565b5b6000611e1a84828501611c7e565b91505092915050565b60006101608284031215611e3a57611e39612a30565b5b6000611e4884828501611c93565b91505092915050565b600060208284031215611e6757611e66612a30565b5b6000611e7584828501611d9f565b91505092915050565b600060208284031215611e9457611e93612a30565b5b6000611ea284828501611db4565b91505092915050565b600080600060608486031215611ec457611ec3612a30565b5b6000611ed286828701611d9f565b9350506020611ee386828701611d9f565b925050604084013567ffffffffffffffff811115611f0457611f03612a2b565b5b611f1086828701611c50565b9150509250925092565b600080600060608486031215611f3357611f32612a30565b5b6000611f4186828701611d9f565b9350506020611f5286828701611d9f565b9250506040611f6386828701611d9f565b9150509250925092565b6000611f798383612130565b60208301905092915050565b611f8e81612767565b82525050565b611fa5611fa082612767565b612901565b82525050565b6000611fb68261264c565b611fc08185612664565b9350611fcb8361263c565b8060005b83811015611ffc578151611fe38882611f6d565b9750611fee83612657565b925050600181019050611fcf565b5085935050505092915050565b61201281612779565b82525050565b612021816127af565b82525050565b612030816127d3565b82525050565b61203f816127f7565b82525050565b61204e8161281b565b82525050565b61205d8161283f565b82525050565b61206c81612863565b82525050565b61207b81612875565b82525050565b600061208e600a83612675565b915061209982612a53565b602082019050919050565b60006120b1600283612675565b91506120bc82612a7c565b602082019050919050565b60006120d4600a83612675565b91506120df82612aa5565b602082019050919050565b60006120f7603d83612675565b915061210282612ace565b604082019050919050565b600061211a600b83612675565b915061212582612b1d565b602082019050919050565b612139816127a5565b82525050565b612148816127a5565b82525050565b61215f61215a826127a5565b612925565b82525050565b6000612171828761214e565b6020820191506121818286611f94565b601482019150612191828561214e565b6020820191506121a1828461214e565b60208201915081905095945050505050565b60006020820190506121c86000830184611f85565b92915050565b60006040820190506121e36000830185611f85565b6121f0602083018461213f565b9392505050565b600060208201905061220c6000830184612009565b92915050565b60006080820190506122276000830187612009565b612234602083018661213f565b612241604083018561213f565b61224e606083018461213f565b95945050505050565b600060208201905061226c6000830184612018565b92915050565b60006020820190506122876000830184612027565b92915050565b60006020820190506122a26000830184612036565b92915050565b60006020820190506122bd6000830184612045565b92915050565b60006020820190506122d86000830184612054565b92915050565b600060208201905081810360008301526122f781612081565b9050919050565b60006020820190508181036000830152612317816120a4565b9050919050565b60006020820190508181036000830152612337816120c7565b9050919050565b60006020820190508181036000830152612357816120ea565b9050919050565b600060208201905081810360008301526123778161210d565b9050919050565b6000602082019050612393600083018461213f565b92915050565b60006040820190506123ae600083018561213f565b81810360208301526123c08184611fab565b90509392505050565b60006060820190506123de600083018661213f565b6123eb602083018561213f565b6123f86040830184612063565b949350505050565b6000606082019050612415600083018661213f565b612422602083018561213f565b61242f6040830184612072565b949350505050565b600060608201905061244c600083018661213f565b612459602083018561213f565b612466604083018461213f565b949350505050565b600061012082019050612484600083018c61213f565b612491602083018b61213f565b61249e604083018a61213f565b6124ab6060830189612009565b6124b86080830188612009565b6124c560a0830187612009565b6124d260c083018661213f565b6124df60e083018561213f565b6124ed61010083018461213f565b9a9950505050505050505050565b6000608082019050612510600083018761213f565b61251d602083018661213f565b61252a604083018561213f565b612537606083018461213f565b95945050505050565b600061016082019050612556600083018e61213f565b612563602083018d61213f565b612570604083018c61213f565b61257d606083018b61213f565b61258a608083018a612009565b61259760a0830189612009565b6125a460c0830188612009565b6125b160e0830187611f85565b6125bf61010083018661213f565b6125cd61012083018561213f565b6125db61014083018461213f565b9c9b505050505050505050505050565b60006125f5612606565b90506126018282612887565b919050565b6000604051905090565b600067ffffffffffffffff82111561262b5761262a6129ed565b5b602082029050602081019050919050565b6000819050602082019050919050565b600081519050919050565b6000602082019050919050565b600082825260208201905092915050565b600082825260208201905092915050565b6000612691826127a5565b915061269c836127a5565b9250827fffffffffffffffffffffffffffffffffffffffffffffffffffffffffffffffff038211156126d1576126d0612960565b5b828201905092915050565b60006126e7826127a5565b91506126f2836127a5565b9250826127025761270161298f565b5b828204905092915050565b6000612718826127a5565b9150612723836127a5565b9250817fffffffffffffffffffffffffffffffffffffffffffffffffffffffffffffffff048311821515161561275c5761275b612960565b5b828202905092915050565b600061277282612785565b9050919050565b60008115159050919050565b600073ffffffffffffffffffffffffffffffffffffffff82169050919050565b6000819050919050565b60006127ba826127c1565b9050919050565b60006127cc82612785565b9050919050565b60006127de826127e5565b9050919050565b60006127f082612785565b9050919050565b600061280282612809565b9050919050565b600061281482612785565b9050919050565b60006128268261282d565b9050919050565b600061283882612785565b9050919050565b600061284a82612851565b9050919050565b600061285c82612785565b9050919050565b600061286e826127a5565b9050919050565b6000612880826127a5565b9050919050565b61289082612a35565b810181811067ffffffffffffffff821117156128af576128ae6129ed565b5b80604052505050565b60006128c3826127a5565b91507fffffffffffffffffffffffffffffffffffffffffffffffffffffffffffffffff8214156128f6576128f5612960565b5b600182019050919050565b600061290c82612913565b9050919050565b600061291e82612a46565b9050919050565b6000819050919050565b600061293a826127a5565b9150612945836127a5565b9250826129555761295461298f565b5b828206905092915050565b7f4e487b7100000000000000000000000000000000000000000000000000000000600052601160045260246000fd5b7f4e487b7100000000000000000000000000000000000000000000000000000000600052601260045260246000fd5b7f4e487b7100000000000000000000000000000000000000000000000000000000600052603260045260246000fd5b7f4e487b7100000000000000000000000000000000000000000000000000000000600052604160045260246000fd5b600080fd5b600080fd5b600080fd5b600080fd5b600080fd5b6000601f19601f8301169050919050565b60008160601b9050919050565b7f4f6e6c79206f776e657200000000000000000000000000000000000000000000600082015250565b7f4e36000000000000000000000000000000000000000000000000000000000000600082015250565b7f4e6f742041637469766500000000000000000000000000000000000000000000600082015250565b7f546869732066756e6374696f6e206973206f6e6c792061636365737361626c6560008201527f206279207468652061646d696e206f662074686520636f6e7472616374000000602082015250565b7f4e6f742041637469766574000000000000000000000000000000000000000000600082015250565b612b4f81612767565b8114612b5a57600080fd5b50565b612b6681612779565b8114612b7157600080fd5b50565b612b7d816127a5565b8114612b8857600080fd5b5056fea264697066735822122062b955b18a5655622af8bc7220646da60f3f002d253bb7d9c7960fc31de7fec764736f6c63430008060033",
  "immutableReferences": {},
  "source": "// SPDX-License-Identifier: MIT\r\npragma solidity >=0.4.22 <0.9.0;\r\n\r\nimport \"../node_modules/@openzeppelin/contracts/token/ERC20/IERC20.sol\";\r\nimport \"../node_modules/@openzeppelin/contracts/security/ReentrancyGuard.sol\";\r\nimport \"../contracts/PBTeams.sol\";\r\nimport \"../contracts/PBMatchupValidation.sol\";\r\nimport \"../contracts/PBPvCHelper.sol\";\r\n\r\ncontract PBPvCMatchups is ReentrancyGuard {\r\n\r\naddress admin;\r\nuint maxOpScore = 397;\r\nuint maxDpScore = 447;\r\nuint nonce = 0;\r\nuint dnaModulus = 10 ** 16;\r\nuint bellCurveIterations = 4;\r\nuint[] timeoutSeconds;\r\nuint[] reward;\r\nuint xpReward;\r\nuint difficultymod;\r\nIERC20 public buddies;\r\nPBTeams public pbTeams;\r\nPBXP public PBXPToken;\r\nPBMatchupValidation public pbMatchupValidation;\r\nPBPvCHelper public pbPvCHelper;\r\n\r\n    struct TeamPvCMatchups {\r\n        uint teamId;\r\n        uint activeTimestamp1;\r\n        uint activeTimestamp2;\r\n        uint activeTimestamp3;\r\n        bool lastMatchWon1;\r\n        bool lastMatchWon2;\r\n        bool lastMatchWon3;\r\n        address ownerAddress;\r\n        uint nonce1;\r\n        uint nonce2;\r\n        uint nonce3;\r\n    }\r\n\r\nconstructor(address _buddiesCoinAddress, address _pbxpAddress, address _pbTeamsAddress, address _pbMatchupValidationAddress, address _pbPvCHelperAddress, uint[] memory _timeoutSeconds, uint[] memory _reward, uint _xpReward, uint _difficultymod){\r\n    admin = msg.sender;\r\n    buddies = IERC20(_buddiesCoinAddress);\r\n    PBXPToken = PBXP(_pbxpAddress);\r\n    pbTeams = PBTeams(_pbTeamsAddress);\r\n    pbMatchupValidation = PBMatchupValidation(_pbMatchupValidationAddress);\r\n    pbPvCHelper = PBPvCHelper(_pbPvCHelperAddress);\r\n    timeoutSeconds = _timeoutSeconds;\r\n    reward = _reward;\r\n    xpReward = _xpReward;\r\n    difficultymod = _difficultymod;\r\n}\r\n\r\nmapping (uint => TeamPvCMatchups) public _teamPvCMatchups;\r\n\r\n\r\nevent gamePlayed(bool isWinner, uint to1, uint to2, uint to3);\r\n\r\nmodifier onlyAdmin() {\r\n    require(admin == msg.sender, \"This function is only accessable by the admin of the contract\" );\r\n    _;\r\n}\r\n\r\nfunction getPBPvCMatchupsAddress() public view returns (address){\r\n    return address(this);\r\n}\r\n\r\nfunction getDifficultyMod() public view returns (uint){\r\n    return difficultymod;\r\n}\r\n\r\nfunction getBuddiesReward() public view returns (uint, uint, uint){\r\n    return (reward[0], reward[1], reward[2]);\r\n}\r\n\r\nfunction getPBXPReward() public view returns (uint){\r\n    return xpReward;\r\n}\r\n\r\nfunction updatePBMatchupValidationAddress(address _pbMatchupValidationAddress) external onlyAdmin {\r\n        pbMatchupValidation = PBMatchupValidation(_pbMatchupValidationAddress);\r\n}\r\n\r\n\r\n\r\nfunction hitTheIcePvC(uint difficulty, uint teamId, uint[] memory playerIds) external returns (bool){\r\n    require(pbMatchupValidation.varifyPlayerAgesOnTeam(teamId, playerIds) == true, \"N6\");\r\n    TeamPvCMatchups storage teamPvCmatchup = _teamPvCMatchups[teamId];\r\n    teamPvCmatchup.ownerAddress = pbTeams.getTokenDetails(teamId).ownerAddress;\r\n    require(teamPvCmatchup.ownerAddress == msg.sender, \"Only owner\");\r\n    uint playerOP = pbTeams.getTokenDetails(teamId).teamTotalOP;\r\n    uint playerDP = pbTeams.getTokenDetails(teamId).teamTotalDP;\r\n    uint computerOP;\r\n    uint computerDP;\r\n    bool isWinner;\r\n     if (difficulty == 1){\r\n        computerOP = pbPvCHelper.generateRandomHourlyStat(difficultymod, difficulty, 1);\r\n        computerDP = pbPvCHelper.generateRandomHourlyStat(difficultymod, difficulty, 2);\r\n    }else if(difficulty == 2){\r\n        computerOP = pbPvCHelper.generateRandomHourlyStat(((difficultymod * 15)/10), difficulty, 1);\r\n        computerDP = pbPvCHelper.generateRandomHourlyStat(((difficultymod * 15)/10), difficulty, 2);\r\n    }else if(difficulty == 3){\r\n        computerOP = pbPvCHelper.generateRandomHourlyStat(((difficultymod * 20)/10), difficulty, 1);\r\n        computerDP = pbPvCHelper.generateRandomHourlyStat(((difficultymod * 20)/10), difficulty, 2);\r\n    }\r\n    \r\n    //require(pbPvCHelper.checkGeneratedStats(difficulty,computerOP,computerDP) == true,\"N8\");\r\n    \r\n    if(difficulty == 1){\r\n        require(block.timestamp >= teamPvCmatchup.activeTimestamp1, \"Not Active\");\r\n        teamPvCmatchup.activeTimestamp1 = block.timestamp + timeoutSeconds[0];\r\n    }else if(difficulty == 2){\r\n        require(block.timestamp >=  teamPvCmatchup.activeTimestamp2, \"Not Activet\");\r\n        teamPvCmatchup.activeTimestamp2 = block.timestamp + timeoutSeconds[1];\r\n    }else if(difficulty == 3){\r\n        require(block.timestamp >= teamPvCmatchup.activeTimestamp3, \"Not Active\");\r\n        teamPvCmatchup.activeTimestamp3 = block.timestamp + timeoutSeconds[2];\r\n    }\r\n    uint winningBP = pbPvCHelper.getWinningBP(playerOP, playerDP, computerOP, computerDP);\r\n    uint randResult = pbPvCHelper.generateResult();\r\n     \r\n    if(randResult <= winningBP){\r\n    \r\n    if(difficulty == 1){\r\n            teamPvCmatchup.lastMatchWon1 = true;\r\n            buddies.transfer(msg.sender, reward[0]);\r\n            PBXPToken.earnPBXP(msg.sender, xpReward);\r\n            teamPvCmatchup.nonce1++;\r\n        }else if(difficulty == 2){\r\n            teamPvCmatchup.lastMatchWon2 = true;\r\n            buddies.transfer(msg.sender, reward[1]);\r\n            PBXPToken.earnPBXP(msg.sender, ((xpReward*15)/10));\r\n            teamPvCmatchup.nonce2++;\r\n        }else if(difficulty == 3){\r\n            teamPvCmatchup.lastMatchWon3 = true;\r\n            buddies.transfer(msg.sender, reward[2]);\r\n            PBXPToken.earnPBXP(msg.sender, ((xpReward*20)/10));\r\n            teamPvCmatchup.nonce3++;\r\n        }        \r\n            isWinner = true;\r\n    }else if(randResult > winningBP){\r\n        \r\n        if(difficulty == 1){\r\n            teamPvCmatchup.lastMatchWon1 = false;\r\n            PBXPToken.earnPBXP(msg.sender, xpReward);\r\n            teamPvCmatchup.nonce1++;\r\n        }else if(difficulty == 2){\r\n            teamPvCmatchup.lastMatchWon2 = false;\r\n            PBXPToken.earnPBXP(msg.sender, ((xpReward*15)/10));\r\n            teamPvCmatchup.nonce2++;\r\n        }else if(difficulty == 3){\r\n            teamPvCmatchup.lastMatchWon3 = false;\r\n            PBXPToken.earnPBXP(msg.sender, ((xpReward*20)/10));\r\n            teamPvCmatchup.nonce3++;\r\n        }  \r\n            isWinner = false;\r\n    }\r\n    emit gamePlayed(isWinner,teamPvCmatchup.activeTimestamp1,teamPvCmatchup.activeTimestamp2,teamPvCmatchup.activeTimestamp3);\r\n    return isWinner;\r\n}\r\n\r\n// function getWinningBP(uint pOP, uint pDP, uint cOP, uint cDP) public view returns (uint){\r\n//      uint pOPpercent = (pOP*10000)/maxOpScore;\r\n//      uint pDPpercent = (pDP*10000)/maxDpScore;\r\n//      uint cOPpercent = (((maxOpScore-cOP)*10000)/maxOpScore);\r\n//      uint cDPpercent = (((maxDpScore-cDP)*10000)/maxDpScore);\r\n//      uint pBP = (pOPpercent+pDPpercent)/2;\r\n//      uint cBP = (cOPpercent+cDPpercent)/2;\r\n//      uint winningBreakPoint = (pBP+cBP)/2;\r\n//      return winningBreakPoint;\r\n// }\r\n\r\n// function generateResult() public view returns (uint){\r\n//     uint operator;\r\n//     uint i;\r\n//     for(i = 0; i < bellCurveIterations; i++){\r\n//         operator = operator + (uint(keccak256(abi.encodePacked(i, nonce, block.timestamp, msg.sender))) % 10000);\r\n//     }\r\n//     uint result = operator/bellCurveIterations;\r\n//     return result;\r\n// }\r\n\r\n// function generateRandomHourlyStat(uint mod, uint difficulty, uint statType) public view returns (uint){\r\n//     uint operator;\r\n//     uint range;\r\n//     if(statType == 1){\r\n//         range = maxOpScore - mod;\r\n//     }else if(statType == 2){\r\n//         range = maxDpScore - mod;\r\n//     }    \r\n//     uint hourOfDate = (block.timestamp/3600);\r\n//     uint i;\r\n//     for(i = 0; i < bellCurveIterations; i++){\r\n//         operator = operator + (uint(keccak256(abi.encodePacked(i, difficulty, statType, hourOfDate, msg.sender))) % range);\r\n//     }\r\n//     uint stat = (operator/bellCurveIterations) + mod;\r\n//     return stat;\r\n// }\r\n\r\n// function checkGeneratedStats(uint difficulty, uint cOP, uint cDP) public view returns (bool){\r\n//     uint opStat;\r\n//     uint dpStat;\r\n//      if (difficulty == 1){\r\n//         opStat = generateRandomHourlyStat(difficultymod, difficulty, 1);\r\n//         dpStat = generateRandomHourlyStat(difficultymod, difficulty, 2);\r\n//     }else if(difficulty == 2){\r\n//         opStat = generateRandomHourlyStat(((difficultymod * 15)/10), difficulty, 1);\r\n//         dpStat = generateRandomHourlyStat(((difficultymod * 15)/10), difficulty, 2);\r\n//     }else if(difficulty == 3){\r\n//         opStat = generateRandomHourlyStat(((difficultymod * 20)/10), difficulty, 1);\r\n//         dpStat = generateRandomHourlyStat(((difficultymod * 20)/10), difficulty, 2);\r\n//     }\r\n//     require (opStat == cOP && dpStat == cDP, \"N7\");\r\n//     return true;\r\n// }\r\n\r\nfunction generateRandomTeamDNA(uint mod, uint difficulty, uint teamId) public view returns (uint){\r\n    TeamPvCMatchups storage teamPvCmatchup = _teamPvCMatchups[teamId];\r\n    uint rand;\r\n    if(difficulty == 1){\r\n        rand = uint(keccak256(abi.encodePacked(teamPvCmatchup.nonce1, msg.sender, mod, difficulty)));\r\n    }else if(difficulty == 2){\r\n        rand = uint(keccak256(abi.encodePacked(teamPvCmatchup.nonce2, msg.sender, mod, difficulty)));  \r\n    }else if(difficulty == 3){\r\n        rand = uint(keccak256(abi.encodePacked(teamPvCmatchup.nonce3, msg.sender, mod, difficulty)));\r\n    } \r\n    return rand % dnaModulus;\r\n}\r\n\r\nfunction getTimeOuts(uint teamId) public view returns (uint, uint, uint, bool, bool, bool, uint, uint, uint){\r\n    TeamPvCMatchups storage teamPvCmatchup = _teamPvCMatchups[teamId];\r\n    return (timeoutSeconds[0], timeoutSeconds[1], timeoutSeconds[2], teamPvCmatchup.lastMatchWon1, teamPvCmatchup.lastMatchWon2, teamPvCmatchup.lastMatchWon3, teamPvCmatchup.activeTimestamp1, teamPvCmatchup.activeTimestamp2, teamPvCmatchup.activeTimestamp3);\r\n}\r\n\r\nfunction getPvCMatchupsTimestamp() public view returns (uint) {\r\n    return block.timestamp;\r\n}\r\n\r\n}\r\n\r\n",
  "sourcePath": "O:\\Projects\\puck-buddies\\contracts\\PBPvCMatchup.sol",
  "compiler": {
    "name": "solc",
    "version": "0.8.6+commit.11564f7e.Emscripten.clang"
  },
  "schemaVersion": "3.4.3",
  "updatedAt": "2021-11-05T12:07:34.001Z",
  "networkType": "ethereum",
  "devdoc": {
    "kind": "dev",
    "methods": {},
    "version": 1
  },
  "userdoc": {
    "kind": "user",
    "methods": {},
    "version": 1
  }
}