{
  "contractName": "PBPvCMatchups",
  "abi": [
    {
      "inputs": [
        {
          "internalType": "address",
          "name": "_buddiesCoinAddress",
          "type": "address"
        },
        {
          "internalType": "address",
          "name": "_pbxpAddress",
          "type": "address"
        },
        {
          "internalType": "address",
          "name": "_pbTeamsAddress",
          "type": "address"
        },
        {
          "internalType": "address",
          "name": "_pbMatchupValidationAddress",
          "type": "address"
        },
        {
          "internalType": "address",
          "name": "_pbPvCHelperAddress",
          "type": "address"
        },
        {
          "internalType": "uint256[]",
          "name": "_timeoutSeconds",
          "type": "uint256[]"
        },
        {
          "internalType": "uint256[]",
          "name": "_reward",
          "type": "uint256[]"
        },
        {
          "internalType": "uint256",
          "name": "_xpReward",
          "type": "uint256"
        },
        {
          "internalType": "uint256",
          "name": "_difficultymod",
          "type": "uint256"
        }
      ],
      "stateMutability": "nonpayable",
      "type": "constructor"
    },
    {
      "anonymous": false,
      "inputs": [
        {
          "indexed": false,
          "internalType": "bool",
          "name": "isWinner",
          "type": "bool"
        },
        {
          "indexed": false,
          "internalType": "uint256",
          "name": "to1",
          "type": "uint256"
        },
        {
          "indexed": false,
          "internalType": "uint256",
          "name": "to2",
          "type": "uint256"
        },
        {
          "indexed": false,
          "internalType": "uint256",
          "name": "to3",
          "type": "uint256"
        }
      ],
      "name": "gamePlayed",
      "type": "event"
    },
    {
      "inputs": [],
      "name": "PBXPToken",
      "outputs": [
        {
          "internalType": "contract PBXP",
          "name": "",
          "type": "address"
        }
      ],
      "stateMutability": "view",
      "type": "function",
      "constant": true
    },
    {
      "inputs": [
        {
          "internalType": "uint256",
          "name": "",
          "type": "uint256"
        }
      ],
      "name": "_teamPvCMatchups",
      "outputs": [
        {
          "internalType": "uint256",
          "name": "teamId",
          "type": "uint256"
        },
        {
          "internalType": "uint256",
          "name": "activeTimestamp1",
          "type": "uint256"
        },
        {
          "internalType": "uint256",
          "name": "activeTimestamp2",
          "type": "uint256"
        },
        {
          "internalType": "uint256",
          "name": "activeTimestamp3",
          "type": "uint256"
        },
        {
          "internalType": "bool",
          "name": "lastMatchWon1",
          "type": "bool"
        },
        {
          "internalType": "bool",
          "name": "lastMatchWon2",
          "type": "bool"
        },
        {
          "internalType": "bool",
          "name": "lastMatchWon3",
          "type": "bool"
        },
        {
          "internalType": "address",
          "name": "ownerAddress",
          "type": "address"
        },
        {
          "internalType": "uint256",
          "name": "nonce1",
          "type": "uint256"
        },
        {
          "internalType": "uint256",
          "name": "nonce2",
          "type": "uint256"
        },
        {
          "internalType": "uint256",
          "name": "nonce3",
          "type": "uint256"
        }
      ],
      "stateMutability": "view",
      "type": "function",
      "constant": true
    },
    {
      "inputs": [],
      "name": "buddies",
      "outputs": [
        {
          "internalType": "contract IERC20",
          "name": "",
          "type": "address"
        }
      ],
      "stateMutability": "view",
      "type": "function",
      "constant": true
    },
    {
      "inputs": [],
      "name": "pbMatchupValidation",
      "outputs": [
        {
          "internalType": "contract PBMatchupValidation",
          "name": "",
          "type": "address"
        }
      ],
      "stateMutability": "view",
      "type": "function",
      "constant": true
    },
    {
      "inputs": [],
      "name": "pbPvCHelper",
      "outputs": [
        {
          "internalType": "contract PBPvCHelper",
          "name": "",
          "type": "address"
        }
      ],
      "stateMutability": "view",
      "type": "function",
      "constant": true
    },
    {
      "inputs": [],
      "name": "pbTeams",
      "outputs": [
        {
          "internalType": "contract PBTeams",
          "name": "",
          "type": "address"
        }
      ],
      "stateMutability": "view",
      "type": "function",
      "constant": true
    },
    {
      "inputs": [],
      "name": "getPBPvCMatchupsAddress",
      "outputs": [
        {
          "internalType": "address",
          "name": "",
          "type": "address"
        }
      ],
      "stateMutability": "view",
      "type": "function",
      "constant": true
    },
    {
      "inputs": [],
      "name": "getDifficultyMod",
      "outputs": [
        {
          "internalType": "uint256",
          "name": "",
          "type": "uint256"
        }
      ],
      "stateMutability": "view",
      "type": "function",
      "constant": true
    },
    {
      "inputs": [
        {
          "internalType": "uint256",
          "name": "_difficultymod",
          "type": "uint256"
        }
      ],
      "name": "updateDifficultyMod",
      "outputs": [],
      "stateMutability": "nonpayable",
      "type": "function"
    },
    {
      "inputs": [],
      "name": "getBuddiesReward",
      "outputs": [
        {
          "internalType": "uint256",
          "name": "",
          "type": "uint256"
        },
        {
          "internalType": "uint256",
          "name": "",
          "type": "uint256"
        },
        {
          "internalType": "uint256",
          "name": "",
          "type": "uint256"
        }
      ],
      "stateMutability": "view",
      "type": "function",
      "constant": true
    },
    {
      "inputs": [
        {
          "internalType": "uint256[]",
          "name": "_reward",
          "type": "uint256[]"
        }
      ],
      "name": "updateBuddiesReward",
      "outputs": [],
      "stateMutability": "nonpayable",
      "type": "function"
    },
    {
      "inputs": [
        {
          "internalType": "uint256[]",
          "name": "_timeoutSeconds",
          "type": "uint256[]"
        }
      ],
      "name": "updateTimesOut",
      "outputs": [],
      "stateMutability": "nonpayable",
      "type": "function"
    },
    {
      "inputs": [],
      "name": "getPBXPReward",
      "outputs": [
        {
          "internalType": "uint256",
          "name": "",
          "type": "uint256"
        }
      ],
      "stateMutability": "view",
      "type": "function",
      "constant": true
    },
    {
      "inputs": [
        {
          "internalType": "uint256",
          "name": "_xpReward",
          "type": "uint256"
        }
      ],
      "name": "updatePBXPReward",
      "outputs": [],
      "stateMutability": "nonpayable",
      "type": "function"
    },
    {
      "inputs": [
        {
          "internalType": "address",
          "name": "_pbMatchupValidationAddress",
          "type": "address"
        }
      ],
      "name": "updatePBMatchupValidationAddress",
      "outputs": [],
      "stateMutability": "nonpayable",
      "type": "function"
    },
    {
      "inputs": [
        {
          "internalType": "address",
          "name": "_widthdrawAddress",
          "type": "address"
        },
        {
          "internalType": "uint256",
          "name": "_amount",
          "type": "uint256"
        }
      ],
      "name": "widthdrawBuddiesFromContract",
      "outputs": [],
      "stateMutability": "nonpayable",
      "type": "function"
    },
    {
      "inputs": [
        {
          "internalType": "uint256",
          "name": "difficulty",
          "type": "uint256"
        },
        {
          "internalType": "uint256",
          "name": "teamId",
          "type": "uint256"
        },
        {
          "internalType": "uint256[]",
          "name": "playerIds",
          "type": "uint256[]"
        }
      ],
      "name": "hitTheIcePvC",
      "outputs": [
        {
          "internalType": "bool",
          "name": "",
          "type": "bool"
        }
      ],
      "stateMutability": "nonpayable",
      "type": "function"
    },
    {
      "inputs": [
        {
          "internalType": "uint256",
          "name": "mod",
          "type": "uint256"
        },
        {
          "internalType": "uint256",
          "name": "difficulty",
          "type": "uint256"
        },
        {
          "internalType": "uint256",
          "name": "teamId",
          "type": "uint256"
        }
      ],
      "name": "generateRandomTeamDNA",
      "outputs": [
        {
          "internalType": "uint256",
          "name": "",
          "type": "uint256"
        }
      ],
      "stateMutability": "view",
      "type": "function",
      "constant": true
    },
    {
      "inputs": [
        {
          "internalType": "uint256",
          "name": "teamId",
          "type": "uint256"
        }
      ],
      "name": "getTimeOuts",
      "outputs": [
        {
          "internalType": "uint256",
          "name": "",
          "type": "uint256"
        },
        {
          "internalType": "uint256",
          "name": "",
          "type": "uint256"
        },
        {
          "internalType": "uint256",
          "name": "",
          "type": "uint256"
        },
        {
          "internalType": "bool",
          "name": "",
          "type": "bool"
        },
        {
          "internalType": "bool",
          "name": "",
          "type": "bool"
        },
        {
          "internalType": "bool",
          "name": "",
          "type": "bool"
        },
        {
          "internalType": "uint256",
          "name": "",
          "type": "uint256"
        },
        {
          "internalType": "uint256",
          "name": "",
          "type": "uint256"
        },
        {
          "internalType": "uint256",
          "name": "",
          "type": "uint256"
        }
      ],
      "stateMutability": "view",
      "type": "function",
      "constant": true
    },
    {
      "inputs": [],
      "name": "getPvCMatchupsTimestamp",
      "outputs": [
        {
          "internalType": "uint256",
          "name": "",
          "type": "uint256"
        }
      ],
      "stateMutability": "view",
      "type": "function",
      "constant": true
    }
  ],
  "bytecode": "0x608060405261018d6002556101bf6003556000600455662386f26fc1000060055560046006553480156200003257600080fd5b506040516200364838038062003648833981810160405281019062000058919062000382565b600160008190555033600160006101000a81548173ffffffffffffffffffffffffffffffffffffffff021916908373ffffffffffffffffffffffffffffffffffffffff16021790555088600b60006101000a81548173ffffffffffffffffffffffffffffffffffffffff021916908373ffffffffffffffffffffffffffffffffffffffff16021790555087600d60006101000a81548173ffffffffffffffffffffffffffffffffffffffff021916908373ffffffffffffffffffffffffffffffffffffffff16021790555086600c60006101000a81548173ffffffffffffffffffffffffffffffffffffffff021916908373ffffffffffffffffffffffffffffffffffffffff16021790555085600e60006101000a81548173ffffffffffffffffffffffffffffffffffffffff021916908373ffffffffffffffffffffffffffffffffffffffff16021790555084600f60006101000a81548173ffffffffffffffffffffffffffffffffffffffff021916908373ffffffffffffffffffffffffffffffffffffffff1602179055508360079080519060200190620001fe92919062000235565b5082600890805190602001906200021792919062000235565b508160098190555080600a81905550505050505050505050620005f3565b82805482825590600052602060002090810192821562000274579160200282015b828111156200027357825182559160200191906001019062000256565b5b50905062000283919062000287565b5090565b5b80821115620002a257600081600090555060010162000288565b5090565b6000620002bd620002b784620004c8565b6200049f565b90508083825260208201905082856020860282011115620002e357620002e26200059f565b5b60005b85811015620003175781620002fc88826200036b565b845260208401935060208301925050600181019050620002e6565b5050509392505050565b6000815190506200033281620005bf565b92915050565b600082601f83011262000350576200034f6200059a565b5b815162000362848260208601620002a6565b91505092915050565b6000815190506200037c81620005d9565b92915050565b60008060008060008060008060006101208a8c031215620003a857620003a7620005a9565b5b6000620003b88c828d0162000321565b9950506020620003cb8c828d0162000321565b9850506040620003de8c828d0162000321565b9750506060620003f18c828d0162000321565b9650506080620004048c828d0162000321565b95505060a08a015167ffffffffffffffff811115620004285762000427620005a4565b5b620004368c828d0162000338565b94505060c08a015167ffffffffffffffff8111156200045a5762000459620005a4565b5b620004688c828d0162000338565b93505060e06200047b8c828d016200036b565b9250506101006200048f8c828d016200036b565b9150509295985092959850929598565b6000620004ab620004be565b9050620004b9828262000535565b919050565b6000604051905090565b600067ffffffffffffffff821115620004e657620004e56200056b565b5b602082029050602081019050919050565b600062000504826200050b565b9050919050565b600073ffffffffffffffffffffffffffffffffffffffff82169050919050565b6000819050919050565b6200054082620005ae565b810181811067ffffffffffffffff821117156200056257620005616200056b565b5b80604052505050565b7f4e487b7100000000000000000000000000000000000000000000000000000000600052604160045260246000fd5b600080fd5b600080fd5b600080fd5b600080fd5b6000601f19601f8301169050919050565b620005ca81620004f7565b8114620005d657600080fd5b50565b620005e4816200052b565b8114620005f057600080fd5b50565b61304580620006036000396000f3fe608060405234801561001057600080fd5b506004361061012c5760003560e01c806389bf0f0d116100ad578063e00c01c511610071578063e00c01c51461032b578063e245c22d14610349578063e9992a7814610383578063f15e0e9c1461039f578063f8f7bdea146103bd5761012c565b806389bf0f0d1461028757806397ede525146102a3578063a6eaa2a3146102c1578063b4fad1ff146102df578063b791841a1461030f5761012c565b806351171af2116100f457806351171af2146101f5578063532195bb1461021357806353b7a2e2146102315780635b016d6e1461024d57806362170b71146102695761012c565b80632071a7fb146101315780632a73e6561461016957806346904c461461018757806347a69777146101b75780634a594c12146101d7575b600080fd5b61014b600480360381019061014691906123d3565b6103d9565b6040516101609998979695949392919061296a565b60405180910390f35b6101716104c2565b60405161017e91906127ae565b60405180910390f35b6101a1600480360381019061019c919061242d565b6104e8565b6040516101ae9190612733565b60405180910390f35b6101bf6118db565b6040516101ce93929190612933565b60405180910390f35b6101df61194b565b6040516101ec9190612793565b60405180910390f35b6101fd611971565b60405161020a91906126ef565b60405180910390f35b61021b611979565b604051610228919061287a565b60405180910390f35b61024b600480360381019061024691906123d3565b611983565b005b6102676004803603810190610262919061232f565b611a1d565b005b610271611ac7565b60405161027e919061287a565b60405180910390f35b6102a1600480360381019061029c91906122c2565b611ad1565b005b6102ab611ba5565b6040516102b891906127ff565b60405180910390f35b6102c9611bcb565b6040516102d6919061287a565b60405180910390f35b6102f960048036038101906102f4919061249c565b611bd3565b604051610306919061287a565b60405180910390f35b610329600480360381019061032491906123d3565b611cd0565b005b610333611d6a565b60405161034091906127e4565b60405180910390f35b610363600480360381019061035e91906123d3565b611d90565b60405161037a9b9a99989796959493929190612a3c565b60405180910390f35b61039d600480360381019061039891906122ef565b611e31565b005b6103a7611f75565b6040516103b491906127c9565b60405180910390f35b6103d760048036038101906103d2919061232f565b611f9b565b005b600080600080600080600080600080601060008c81526020019081526020016000209050600760008154811061041257610411612eba565b5b9060005260206000200154600760018154811061043257610431612eba565b5b9060005260206000200154600760028154811061045257610451612eba565b5b90600052602060002001548360040160009054906101000a900460ff168460040160019054906101000a900460ff168560040160029054906101000a900460ff16866001015487600201548860030154995099509950995099509950995099509950509193959799909294969850565b600e60009054906101000a900473ffffffffffffffffffffffffffffffffffffffff1681565b600060011515600e60009054906101000a900473ffffffffffffffffffffffffffffffffffffffff1673ffffffffffffffffffffffffffffffffffffffff166332dae57285856040518363ffffffff1660e01b815260040161054b929190612895565b60206040518083038186803b15801561056357600080fd5b505afa158015610577573d6000803e3d6000fd5b505050506040513d601f19601f8201168201806040525081019061059b9190612378565b1515146105dd576040517f08c379a00000000000000000000000000000000000000000000000000000000081526004016105d49061281a565b60405180910390fd5b6000601060008581526020019081526020016000209050600c60009054906101000a900473ffffffffffffffffffffffffffffffffffffffff1673ffffffffffffffffffffffffffffffffffffffff1663c1e03728856040518263ffffffff1660e01b815260040161064f919061287a565b6101606040518083038186803b15801561066857600080fd5b505afa15801561067c573d6000803e3d6000fd5b505050506040513d601f19601f820116820180604052508101906106a091906123a5565b61014001518160040160036101000a81548173ffffffffffffffffffffffffffffffffffffffff021916908373ffffffffffffffffffffffffffffffffffffffff1602179055503373ffffffffffffffffffffffffffffffffffffffff168160040160039054906101000a900473ffffffffffffffffffffffffffffffffffffffff1673ffffffffffffffffffffffffffffffffffffffff1614610779576040517f08c379a00000000000000000000000000000000000000000000000000000000081526004016107709061283a565b60405180910390fd5b6000600c60009054906101000a900473ffffffffffffffffffffffffffffffffffffffff1673ffffffffffffffffffffffffffffffffffffffff1663c1e03728866040518263ffffffff1660e01b81526004016107d6919061287a565b6101606040518083038186803b1580156107ef57600080fd5b505afa158015610803573d6000803e3d6000fd5b505050506040513d601f19601f8201168201806040525081019061082791906123a5565b6040015190506000600c60009054906101000a900473ffffffffffffffffffffffffffffffffffffffff1673ffffffffffffffffffffffffffffffffffffffff1663c1e03728876040518263ffffffff1660e01b815260040161088a919061287a565b6101606040518083038186803b1580156108a357600080fd5b505afa1580156108b7573d6000803e3d6000fd5b505050506040513d601f19601f820116820180604052508101906108db91906123a5565b606001519050600080600060018a1415610a5c57600f60009054906101000a900473ffffffffffffffffffffffffffffffffffffffff1673ffffffffffffffffffffffffffffffffffffffff1663c056e32f600a548c60016040518463ffffffff1660e01b8152600401610951939291906128c5565b60206040518083038186803b15801561096957600080fd5b505afa15801561097d573d6000803e3d6000fd5b505050506040513d601f19601f820116820180604052508101906109a19190612400565b9250600f60009054906101000a900473ffffffffffffffffffffffffffffffffffffffff1673ffffffffffffffffffffffffffffffffffffffff1663c056e32f600a548c60026040518463ffffffff1660e01b8152600401610a05939291906128fc565b60206040518083038186803b158015610a1d57600080fd5b505afa158015610a31573d6000803e3d6000fd5b505050506040513d601f19601f82011682018060405250810190610a559190612400565b9150610da6565b60028a1415610c0257600f60009054906101000a900473ffffffffffffffffffffffffffffffffffffffff1673ffffffffffffffffffffffffffffffffffffffff1663c056e32f600a600f600a54610ab49190612c09565b610abe9190612bd8565b8c60016040518463ffffffff1660e01b8152600401610adf939291906128c5565b60206040518083038186803b158015610af757600080fd5b505afa158015610b0b573d6000803e3d6000fd5b505050506040513d601f19601f82011682018060405250810190610b2f9190612400565b9250600f60009054906101000a900473ffffffffffffffffffffffffffffffffffffffff1673ffffffffffffffffffffffffffffffffffffffff1663c056e32f600a600f600a54610b809190612c09565b610b8a9190612bd8565b8c60026040518463ffffffff1660e01b8152600401610bab939291906128fc565b60206040518083038186803b158015610bc357600080fd5b505afa158015610bd7573d6000803e3d6000fd5b505050506040513d601f19601f82011682018060405250810190610bfb9190612400565b9150610da5565b60038a1415610da457600f60009054906101000a900473ffffffffffffffffffffffffffffffffffffffff1673ffffffffffffffffffffffffffffffffffffffff1663c056e32f600a6014600a54610c5a9190612c09565b610c649190612bd8565b8c60016040518463ffffffff1660e01b8152600401610c85939291906128c5565b60206040518083038186803b158015610c9d57600080fd5b505afa158015610cb1573d6000803e3d6000fd5b505050506040513d601f19601f82011682018060405250810190610cd59190612400565b9250600f60009054906101000a900473ffffffffffffffffffffffffffffffffffffffff1673ffffffffffffffffffffffffffffffffffffffff1663c056e32f600a6014600a54610d269190612c09565b610d309190612bd8565b8c60026040518463ffffffff1660e01b8152600401610d51939291906128fc565b60206040518083038186803b158015610d6957600080fd5b505afa158015610d7d573d6000803e3d6000fd5b505050506040513d601f19601f82011682018060405250810190610da19190612400565b91505b5b5b60018a1415610e2e578560010154421015610df6576040517f08c379a0000000000000000000000000000000000000000000000000000000008152600401610ded9061285a565b60405180910390fd5b6007600081548110610e0b57610e0a612eba565b5b906000526020600020015442610e219190612b82565b8660010181905550610f3c565b60028a1415610eb6578560020154421015610e7e576040517f08c379a0000000000000000000000000000000000000000000000000000000008152600401610e759061285a565b60405180910390fd5b6007600181548110610e9357610e92612eba565b5b906000526020600020015442610ea99190612b82565b8660020181905550610f3b565b60038a1415610f3a578560030154421015610f06576040517f08c379a0000000000000000000000000000000000000000000000000000000008152600401610efd9061285a565b60405180910390fd5b6007600281548110610f1b57610f1a612eba565b5b906000526020600020015442610f319190612b82565b86600301819055505b5b5b6000600f60009054906101000a900473ffffffffffffffffffffffffffffffffffffffff1673ffffffffffffffffffffffffffffffffffffffff166363bf69ec878787876040518563ffffffff1660e01b8152600401610f9f94939291906129f7565b60206040518083038186803b158015610fb757600080fd5b505afa158015610fcb573d6000803e3d6000fd5b505050506040513d601f19601f82011682018060405250810190610fef9190612400565b90506000600f60009054906101000a900473ffffffffffffffffffffffffffffffffffffffff1673ffffffffffffffffffffffffffffffffffffffff16631dbe2e0e6040518163ffffffff1660e01b815260040160206040518083038186803b15801561105b57600080fd5b505afa15801561106f573d6000803e3d6000fd5b505050506040513d601f19601f820116820180604052508101906110939190612400565b90508181116115c25760018c14156112415760018860040160006101000a81548160ff021916908315150217905550600b60009054906101000a900473ffffffffffffffffffffffffffffffffffffffff1673ffffffffffffffffffffffffffffffffffffffff1663a9059cbb33600860008154811061111657611115612eba565b5b90600052602060002001546040518363ffffffff1660e01b815260040161113e92919061270a565b602060405180830381600087803b15801561115857600080fd5b505af115801561116c573d6000803e3d6000fd5b505050506040513d601f19601f820116820180604052508101906111909190612378565b50600d60009054906101000a900473ffffffffffffffffffffffffffffffffffffffff1673ffffffffffffffffffffffffffffffffffffffff1663c43df89a336009546040518363ffffffff1660e01b81526004016111f092919061270a565b600060405180830381600087803b15801561120a57600080fd5b505af115801561121e573d6000803e3d6000fd5b5050505087600501600081548092919061123790612db4565b91905055506115b9565b60028c14156113fe5760018860040160016101000a81548160ff021916908315150217905550600b60009054906101000a900473ffffffffffffffffffffffffffffffffffffffff1673ffffffffffffffffffffffffffffffffffffffff1663a9059cbb3360086001815481106112bb576112ba612eba565b5b90600052602060002001546040518363ffffffff1660e01b81526004016112e392919061270a565b602060405180830381600087803b1580156112fd57600080fd5b505af1158015611311573d6000803e3d6000fd5b505050506040513d601f19601f820116820180604052508101906113359190612378565b50600d60009054906101000a900473ffffffffffffffffffffffffffffffffffffffff1673ffffffffffffffffffffffffffffffffffffffff1663c43df89a33600a600f6009546113869190612c09565b6113909190612bd8565b6040518363ffffffff1660e01b81526004016113ad92919061270a565b600060405180830381600087803b1580156113c757600080fd5b505af11580156113db573d6000803e3d6000fd5b505050508760060160008154809291906113f490612db4565b91905055506115b8565b60038c14156115b75760018860040160026101000a81548160ff021916908315150217905550600b60009054906101000a900473ffffffffffffffffffffffffffffffffffffffff1673ffffffffffffffffffffffffffffffffffffffff1663a9059cbb33600860028154811061147857611477612eba565b5b90600052602060002001546040518363ffffffff1660e01b81526004016114a092919061270a565b602060405180830381600087803b1580156114ba57600080fd5b505af11580156114ce573d6000803e3d6000fd5b505050506040513d601f19601f820116820180604052508101906114f29190612378565b50600d60009054906101000a900473ffffffffffffffffffffffffffffffffffffffff1673ffffffffffffffffffffffffffffffffffffffff1663c43df89a33600a60146009546115439190612c09565b61154d9190612bd8565b6040518363ffffffff1660e01b815260040161156a92919061270a565b600060405180830381600087803b15801561158457600080fd5b505af1158015611598573d6000803e3d6000fd5b505050508760070160008154809291906115b190612db4565b91905055505b5b5b60019250611880565b8181111561187f5760018c14156116a05760008860040160006101000a81548160ff021916908315150217905550600d60009054906101000a900473ffffffffffffffffffffffffffffffffffffffff1673ffffffffffffffffffffffffffffffffffffffff1663c43df89a336009546040518363ffffffff1660e01b815260040161164f92919061270a565b600060405180830381600087803b15801561166957600080fd5b505af115801561167d573d6000803e3d6000fd5b5050505087600501600081548092919061169690612db4565b919050555061187a565b60028c141561178e5760008860040160016101000a81548160ff021916908315150217905550600d60009054906101000a900473ffffffffffffffffffffffffffffffffffffffff1673ffffffffffffffffffffffffffffffffffffffff1663c43df89a33600a600f6009546117169190612c09565b6117209190612bd8565b6040518363ffffffff1660e01b815260040161173d92919061270a565b600060405180830381600087803b15801561175757600080fd5b505af115801561176b573d6000803e3d6000fd5b5050505087600601600081548092919061178490612db4565b9190505550611879565b60038c14156118785760008860040160026101000a81548160ff021916908315150217905550600d60009054906101000a900473ffffffffffffffffffffffffffffffffffffffff1673ffffffffffffffffffffffffffffffffffffffff1663c43df89a33600a60146009546118049190612c09565b61180e9190612bd8565b6040518363ffffffff1660e01b815260040161182b92919061270a565b600060405180830381600087803b15801561184557600080fd5b505af1158015611859573d6000803e3d6000fd5b5050505087600701600081548092919061187290612db4565b91905055505b5b5b600092505b5b7fb81d2d6f8c54034d2342369b856d110a09963e04a29cd80af87cd489b48c223a8389600101548a600201548b600301546040516118c1949392919061274e565b60405180910390a182985050505050505050509392505050565b600080600060086000815481106118f5576118f4612eba565b5b9060005260206000200154600860018154811061191557611914612eba565b5b9060005260206000200154600860028154811061193557611934612eba565b5b9060005260206000200154925092509250909192565b600b60009054906101000a900473ffffffffffffffffffffffffffffffffffffffff1681565b600030905090565b6000600954905090565b3373ffffffffffffffffffffffffffffffffffffffff16600160009054906101000a900473ffffffffffffffffffffffffffffffffffffffff1673ffffffffffffffffffffffffffffffffffffffff1614611a13576040517f08c379a0000000000000000000000000000000000000000000000000000000008152600401611a0a9061283a565b60405180910390fd5b8060098190555050565b3373ffffffffffffffffffffffffffffffffffffffff16600160009054906101000a900473ffffffffffffffffffffffffffffffffffffffff1673ffffffffffffffffffffffffffffffffffffffff1614611aad576040517f08c379a0000000000000000000000000000000000000000000000000000000008152600401611aa49061283a565b60405180910390fd5b8060089080519060200190611ac3929190612045565b5050565b6000600a54905090565b3373ffffffffffffffffffffffffffffffffffffffff16600160009054906101000a900473ffffffffffffffffffffffffffffffffffffffff1673ffffffffffffffffffffffffffffffffffffffff1614611b61576040517f08c379a0000000000000000000000000000000000000000000000000000000008152600401611b589061283a565b60405180910390fd5b80600e60006101000a81548173ffffffffffffffffffffffffffffffffffffffff021916908373ffffffffffffffffffffffffffffffffffffffff16021790555050565b600d60009054906101000a900473ffffffffffffffffffffffffffffffffffffffff1681565b600042905090565b60008060106000848152602001908152602001600020905060006001851415611c31578160050154338787604051602001611c1194939291906126a1565b6040516020818303038152906040528051906020012060001c9050611cb7565b6002851415611c75578160060154338787604051602001611c5594939291906126a1565b6040516020818303038152906040528051906020012060001c9050611cb6565b6003851415611cb5578160070154338787604051602001611c9994939291906126a1565b6040516020818303038152906040528051906020012060001c90505b5b5b60055481611cc59190612e2b565b925050509392505050565b3373ffffffffffffffffffffffffffffffffffffffff16600160009054906101000a900473ffffffffffffffffffffffffffffffffffffffff1673ffffffffffffffffffffffffffffffffffffffff1614611d60576040517f08c379a0000000000000000000000000000000000000000000000000000000008152600401611d579061283a565b60405180910390fd5b80600a8190555050565b600c60009054906101000a900473ffffffffffffffffffffffffffffffffffffffff1681565b60106020528060005260406000206000915090508060000154908060010154908060020154908060030154908060040160009054906101000a900460ff16908060040160019054906101000a900460ff16908060040160029054906101000a900460ff16908060040160039054906101000a900473ffffffffffffffffffffffffffffffffffffffff1690806005015490806006015490806007015490508b565b3373ffffffffffffffffffffffffffffffffffffffff16600160009054906101000a900473ffffffffffffffffffffffffffffffffffffffff1673ffffffffffffffffffffffffffffffffffffffff1614611ec1576040517f08c379a0000000000000000000000000000000000000000000000000000000008152600401611eb89061283a565b60405180910390fd5b600b60009054906101000a900473ffffffffffffffffffffffffffffffffffffffff1673ffffffffffffffffffffffffffffffffffffffff1663a9059cbb83836040518363ffffffff1660e01b8152600401611f1e92919061270a565b602060405180830381600087803b158015611f3857600080fd5b505af1158015611f4c573d6000803e3d6000fd5b505050506040513d601f19601f82011682018060405250810190611f709190612378565b505050565b600f60009054906101000a900473ffffffffffffffffffffffffffffffffffffffff1681565b3373ffffffffffffffffffffffffffffffffffffffff16600160009054906101000a900473ffffffffffffffffffffffffffffffffffffffff1673ffffffffffffffffffffffffffffffffffffffff161461202b576040517f08c379a00000000000000000000000000000000000000000000000000000000081526004016120229061283a565b60405180910390fd5b8060079080519060200190612041929190612045565b5050565b828054828255906000526020600020908101928215612081579160200282015b82811115612080578251825591602001919060010190612065565b5b50905061208e9190612092565b5090565b5b808211156120ab576000816000905550600101612093565b5090565b60006120c26120bd84612b0c565b612ae7565b905080838252602082019050828560208602820111156120e5576120e4612f22565b5b60005b8581101561211557816120fb8882612298565b8452602084019350602083019250506001810190506120e8565b5050509392505050565b60008135905061212e81612fca565b92915050565b60008151905061214381612fca565b92915050565b600082601f83011261215e5761215d612f18565b5b813561216e8482602086016120af565b91505092915050565b60008151905061218681612fe1565b92915050565b600061016082840312156121a3576121a2612f1d565b5b6121ae610160612ae7565b905060006121be848285016122ad565b60008301525060206121d2848285016122ad565b60208301525060406121e6848285016122ad565b60408301525060606121fa848285016122ad565b606083015250608061220e848285016122ad565b60808301525060a0612222848285016122ad565b60a08301525060c0612236848285016122ad565b60c08301525060e061224a84828501612177565b60e08301525061010061225f84828501612177565b6101008301525061012061227584828501612177565b6101208301525061014061228b84828501612134565b6101408301525092915050565b6000813590506122a781612ff8565b92915050565b6000815190506122bc81612ff8565b92915050565b6000602082840312156122d8576122d7612f2c565b5b60006122e68482850161211f565b91505092915050565b6000806040838503121561230657612305612f2c565b5b60006123148582860161211f565b925050602061232585828601612298565b9150509250929050565b60006020828403121561234557612344612f2c565b5b600082013567ffffffffffffffff81111561236357612362612f27565b5b61236f84828501612149565b91505092915050565b60006020828403121561238e5761238d612f2c565b5b600061239c84828501612177565b91505092915050565b600061016082840312156123bc576123bb612f2c565b5b60006123ca8482850161218c565b91505092915050565b6000602082840312156123e9576123e8612f2c565b5b60006123f784828501612298565b91505092915050565b60006020828403121561241657612415612f2c565b5b6000612424848285016122ad565b91505092915050565b60008060006060848603121561244657612445612f2c565b5b600061245486828701612298565b935050602061246586828701612298565b925050604084013567ffffffffffffffff81111561248657612485612f27565b5b61249286828701612149565b9150509250925092565b6000806000606084860312156124b5576124b4612f2c565b5b60006124c386828701612298565b93505060206124d486828701612298565b92505060406124e586828701612298565b9150509250925092565b60006124fb838361266c565b60208301905092915050565b61251081612c63565b82525050565b61252761252282612c63565b612dfd565b82525050565b600061253882612b48565b6125428185612b60565b935061254d83612b38565b8060005b8381101561257e57815161256588826124ef565b975061257083612b53565b925050600181019050612551565b5085935050505092915050565b61259481612c75565b82525050565b6125a381612cab565b82525050565b6125b281612ccf565b82525050565b6125c181612cf3565b82525050565b6125d081612d17565b82525050565b6125df81612d3b565b82525050565b6125ee81612d5f565b82525050565b6125fd81612d71565b82525050565b6000612610600283612b71565b915061261b82612f4f565b602082019050919050565b6000612633600283612b71565b915061263e82612f78565b602082019050919050565b6000612656600283612b71565b915061266182612fa1565b602082019050919050565b61267581612ca1565b82525050565b61268481612ca1565b82525050565b61269b61269682612ca1565b612e21565b82525050565b60006126ad828761268a565b6020820191506126bd8286612516565b6014820191506126cd828561268a565b6020820191506126dd828461268a565b60208201915081905095945050505050565b60006020820190506127046000830184612507565b92915050565b600060408201905061271f6000830185612507565b61272c602083018461267b565b9392505050565b6000602082019050612748600083018461258b565b92915050565b6000608082019050612763600083018761258b565b612770602083018661267b565b61277d604083018561267b565b61278a606083018461267b565b95945050505050565b60006020820190506127a8600083018461259a565b92915050565b60006020820190506127c360008301846125a9565b92915050565b60006020820190506127de60008301846125b8565b92915050565b60006020820190506127f960008301846125c7565b92915050565b600060208201905061281460008301846125d6565b92915050565b6000602082019050818103600083015261283381612603565b9050919050565b6000602082019050818103600083015261285381612626565b9050919050565b6000602082019050818103600083015261287381612649565b9050919050565b600060208201905061288f600083018461267b565b92915050565b60006040820190506128aa600083018561267b565b81810360208301526128bc818461252d565b90509392505050565b60006060820190506128da600083018661267b565b6128e7602083018561267b565b6128f460408301846125e5565b949350505050565b6000606082019050612911600083018661267b565b61291e602083018561267b565b61292b60408301846125f4565b949350505050565b6000606082019050612948600083018661267b565b612955602083018561267b565b612962604083018461267b565b949350505050565b600061012082019050612980600083018c61267b565b61298d602083018b61267b565b61299a604083018a61267b565b6129a7606083018961258b565b6129b4608083018861258b565b6129c160a083018761258b565b6129ce60c083018661267b565b6129db60e083018561267b565b6129e961010083018461267b565b9a9950505050505050505050565b6000608082019050612a0c600083018761267b565b612a19602083018661267b565b612a26604083018561267b565b612a33606083018461267b565b95945050505050565b600061016082019050612a52600083018e61267b565b612a5f602083018d61267b565b612a6c604083018c61267b565b612a79606083018b61267b565b612a86608083018a61258b565b612a9360a083018961258b565b612aa060c083018861258b565b612aad60e0830187612507565b612abb61010083018661267b565b612ac961012083018561267b565b612ad761014083018461267b565b9c9b505050505050505050505050565b6000612af1612b02565b9050612afd8282612d83565b919050565b6000604051905090565b600067ffffffffffffffff821115612b2757612b26612ee9565b5b602082029050602081019050919050565b6000819050602082019050919050565b600081519050919050565b6000602082019050919050565b600082825260208201905092915050565b600082825260208201905092915050565b6000612b8d82612ca1565b9150612b9883612ca1565b9250827fffffffffffffffffffffffffffffffffffffffffffffffffffffffffffffffff03821115612bcd57612bcc612e5c565b5b828201905092915050565b6000612be382612ca1565b9150612bee83612ca1565b925082612bfe57612bfd612e8b565b5b828204905092915050565b6000612c1482612ca1565b9150612c1f83612ca1565b9250817fffffffffffffffffffffffffffffffffffffffffffffffffffffffffffffffff0483118215151615612c5857612c57612e5c565b5b828202905092915050565b6000612c6e82612c81565b9050919050565b60008115159050919050565b600073ffffffffffffffffffffffffffffffffffffffff82169050919050565b6000819050919050565b6000612cb682612cbd565b9050919050565b6000612cc882612c81565b9050919050565b6000612cda82612ce1565b9050919050565b6000612cec82612c81565b9050919050565b6000612cfe82612d05565b9050919050565b6000612d1082612c81565b9050919050565b6000612d2282612d29565b9050919050565b6000612d3482612c81565b9050919050565b6000612d4682612d4d565b9050919050565b6000612d5882612c81565b9050919050565b6000612d6a82612ca1565b9050919050565b6000612d7c82612ca1565b9050919050565b612d8c82612f31565b810181811067ffffffffffffffff82111715612dab57612daa612ee9565b5b80604052505050565b6000612dbf82612ca1565b91507fffffffffffffffffffffffffffffffffffffffffffffffffffffffffffffffff821415612df257612df1612e5c565b5b600182019050919050565b6000612e0882612e0f565b9050919050565b6000612e1a82612f42565b9050919050565b6000819050919050565b6000612e3682612ca1565b9150612e4183612ca1565b925082612e5157612e50612e8b565b5b828206905092915050565b7f4e487b7100000000000000000000000000000000000000000000000000000000600052601160045260246000fd5b7f4e487b7100000000000000000000000000000000000000000000000000000000600052601260045260246000fd5b7f4e487b7100000000000000000000000000000000000000000000000000000000600052603260045260246000fd5b7f4e487b7100000000000000000000000000000000000000000000000000000000600052604160045260246000fd5b600080fd5b600080fd5b600080fd5b600080fd5b600080fd5b6000601f19601f8301169050919050565b60008160601b9050919050565b7f4e36000000000000000000000000000000000000000000000000000000000000600082015250565b7f4131000000000000000000000000000000000000000000000000000000000000600082015250565b7f4e31000000000000000000000000000000000000000000000000000000000000600082015250565b612fd381612c63565b8114612fde57600080fd5b50565b612fea81612c75565b8114612ff557600080fd5b50565b61300181612ca1565b811461300c57600080fd5b5056fea26469706673582212204f10f2c530ada8224800490bab010e3c15caa7bd431486b8da33d4bbdd28128164736f6c63430008060033",
  "immutableReferences": {},
  "source": "// SPDX-License-Identifier: MIT\r\npragma solidity >=0.4.22 <0.9.0;\r\n\r\nimport \"../node_modules/@openzeppelin/contracts/token/ERC20/IERC20.sol\";\r\nimport \"../node_modules/@openzeppelin/contracts/security/ReentrancyGuard.sol\";\r\nimport \"../contracts/PBTeams.sol\";\r\nimport \"../contracts/PBMatchupValidation.sol\";\r\nimport \"../contracts/PBPvCHelper.sol\";\r\n\r\ncontract PBPvCMatchups is ReentrancyGuard {\r\n\r\naddress admin;\r\nuint maxOpScore = 397;\r\nuint maxDpScore = 447;\r\nuint nonce = 0;\r\nuint dnaModulus = 10 ** 16;\r\nuint bellCurveIterations = 4;\r\nuint[] timeoutSeconds;\r\nuint[] reward;\r\nuint xpReward;\r\nuint difficultymod;\r\nIERC20 public buddies;\r\nPBTeams public pbTeams;\r\nPBXP public PBXPToken;\r\nPBMatchupValidation public pbMatchupValidation;\r\nPBPvCHelper public pbPvCHelper;\r\n\r\n    struct TeamPvCMatchups {\r\n        uint teamId;\r\n        uint activeTimestamp1;\r\n        uint activeTimestamp2;\r\n        uint activeTimestamp3;\r\n        bool lastMatchWon1;\r\n        bool lastMatchWon2;\r\n        bool lastMatchWon3;\r\n        address ownerAddress;\r\n        uint nonce1;\r\n        uint nonce2;\r\n        uint nonce3;\r\n    }\r\n\r\nconstructor(address _buddiesCoinAddress, address _pbxpAddress, address _pbTeamsAddress, address _pbMatchupValidationAddress, address _pbPvCHelperAddress, uint[] memory _timeoutSeconds, uint[] memory _reward, uint _xpReward, uint _difficultymod){\r\n    admin = msg.sender;\r\n    buddies = IERC20(_buddiesCoinAddress);\r\n    PBXPToken = PBXP(_pbxpAddress);\r\n    pbTeams = PBTeams(_pbTeamsAddress);\r\n    pbMatchupValidation = PBMatchupValidation(_pbMatchupValidationAddress);\r\n    pbPvCHelper = PBPvCHelper(_pbPvCHelperAddress);\r\n    timeoutSeconds = _timeoutSeconds;\r\n    reward = _reward;\r\n    xpReward = _xpReward;\r\n    difficultymod = _difficultymod;\r\n}\r\n\r\nmapping (uint => TeamPvCMatchups) public _teamPvCMatchups;\r\n\r\n\r\nevent gamePlayed(bool isWinner, uint to1, uint to2, uint to3);\r\n\r\nmodifier onlyAdmin() {\r\n    require(admin == msg.sender, \"A1\" );\r\n    _;\r\n}\r\n\r\nfunction getPBPvCMatchupsAddress() public view returns (address){\r\n    return address(this);\r\n}\r\n\r\nfunction getDifficultyMod() public view returns (uint){\r\n    return difficultymod;\r\n}\r\n\r\nfunction updateDifficultyMod(uint _difficultymod) external onlyAdmin {\r\n    difficultymod = _difficultymod;\r\n}\r\n\r\nfunction getBuddiesReward() public view returns (uint, uint, uint){\r\n    return (reward[0], reward[1], reward[2]);\r\n}\r\n\r\nfunction updateBuddiesReward( uint[] memory _reward) external onlyAdmin{\r\n    reward = _reward;\r\n}\r\n\r\nfunction updateTimesOut( uint[] memory _timeoutSeconds) external onlyAdmin {\r\n    timeoutSeconds = _timeoutSeconds;\r\n} \r\n\r\nfunction getPBXPReward() public view returns (uint){\r\n    return xpReward;\r\n}\r\n\r\nfunction updatePBXPReward(uint _xpReward) external onlyAdmin {\r\n    xpReward = _xpReward;\r\n}\r\n\r\nfunction updatePBMatchupValidationAddress(address _pbMatchupValidationAddress) external onlyAdmin {\r\n        pbMatchupValidation = PBMatchupValidation(_pbMatchupValidationAddress);\r\n}\r\n\r\nfunction widthdrawBuddiesFromContract(address _widthdrawAddress, uint _amount) external onlyAdmin {\r\n    buddies.transfer(_widthdrawAddress, _amount);\r\n}\r\n\r\n\r\nfunction hitTheIcePvC(uint difficulty, uint teamId, uint[] memory playerIds) external returns (bool){\r\n    require(pbMatchupValidation.varifyPlayerAgesOnTeam(teamId, playerIds) == true, \"N6\");\r\n    TeamPvCMatchups storage teamPvCmatchup = _teamPvCMatchups[teamId];\r\n    teamPvCmatchup.ownerAddress = pbTeams.getTokenDetails(teamId).ownerAddress;\r\n    require(teamPvCmatchup.ownerAddress == msg.sender, \"A1\");\r\n    uint playerOP = pbTeams.getTokenDetails(teamId).teamTotalOP;\r\n    uint playerDP = pbTeams.getTokenDetails(teamId).teamTotalDP;\r\n    uint computerOP;\r\n    uint computerDP;\r\n    bool isWinner;\r\n     if (difficulty == 1){\r\n        computerOP = pbPvCHelper.generateRandomHourlyStat(difficultymod, difficulty, 1);\r\n        computerDP = pbPvCHelper.generateRandomHourlyStat(difficultymod, difficulty, 2);\r\n    }else if(difficulty == 2){\r\n        computerOP = pbPvCHelper.generateRandomHourlyStat(((difficultymod * 15)/10), difficulty, 1);\r\n        computerDP = pbPvCHelper.generateRandomHourlyStat(((difficultymod * 15)/10), difficulty, 2);\r\n    }else if(difficulty == 3){\r\n        computerOP = pbPvCHelper.generateRandomHourlyStat(((difficultymod * 20)/10), difficulty, 1);\r\n        computerDP = pbPvCHelper.generateRandomHourlyStat(((difficultymod * 20)/10), difficulty, 2);\r\n    }\r\n    \r\n    //require(pbPvCHelper.checkGeneratedStats(difficulty,computerOP,computerDP) == true,\"N8\");\r\n    \r\n    if(difficulty == 1){\r\n        require(block.timestamp >= teamPvCmatchup.activeTimestamp1, \"N1\");\r\n        teamPvCmatchup.activeTimestamp1 = block.timestamp + timeoutSeconds[0];\r\n    }else if(difficulty == 2){\r\n        require(block.timestamp >=  teamPvCmatchup.activeTimestamp2, \"N1\");\r\n        teamPvCmatchup.activeTimestamp2 = block.timestamp + timeoutSeconds[1];\r\n    }else if(difficulty == 3){\r\n        require(block.timestamp >= teamPvCmatchup.activeTimestamp3, \"N1\");\r\n        teamPvCmatchup.activeTimestamp3 = block.timestamp + timeoutSeconds[2];\r\n    }\r\n    uint winningBP = pbPvCHelper.getWinningBP(playerOP, playerDP, computerOP, computerDP);\r\n    uint randResult = pbPvCHelper.generateResult();\r\n     \r\n    if(randResult <= winningBP){\r\n    \r\n    if(difficulty == 1){\r\n            teamPvCmatchup.lastMatchWon1 = true;\r\n            buddies.transfer(msg.sender, reward[0]);\r\n            PBXPToken.earnPBXP(msg.sender, xpReward);\r\n            teamPvCmatchup.nonce1++;\r\n        }else if(difficulty == 2){\r\n            teamPvCmatchup.lastMatchWon2 = true;\r\n            buddies.transfer(msg.sender, reward[1]);\r\n            PBXPToken.earnPBXP(msg.sender, ((xpReward*15)/10));\r\n            teamPvCmatchup.nonce2++;\r\n        }else if(difficulty == 3){\r\n            teamPvCmatchup.lastMatchWon3 = true;\r\n            buddies.transfer(msg.sender, reward[2]);\r\n            PBXPToken.earnPBXP(msg.sender, ((xpReward*20)/10));\r\n            teamPvCmatchup.nonce3++;\r\n        }        \r\n            isWinner = true;\r\n    }else if(randResult > winningBP){\r\n        \r\n        if(difficulty == 1){\r\n            teamPvCmatchup.lastMatchWon1 = false;\r\n            PBXPToken.earnPBXP(msg.sender, xpReward);\r\n            teamPvCmatchup.nonce1++;\r\n        }else if(difficulty == 2){\r\n            teamPvCmatchup.lastMatchWon2 = false;\r\n            PBXPToken.earnPBXP(msg.sender, ((xpReward*15)/10));\r\n            teamPvCmatchup.nonce2++;\r\n        }else if(difficulty == 3){\r\n            teamPvCmatchup.lastMatchWon3 = false;\r\n            PBXPToken.earnPBXP(msg.sender, ((xpReward*20)/10));\r\n            teamPvCmatchup.nonce3++;\r\n        }  \r\n            isWinner = false;\r\n    }\r\n    emit gamePlayed(isWinner,teamPvCmatchup.activeTimestamp1,teamPvCmatchup.activeTimestamp2,teamPvCmatchup.activeTimestamp3);\r\n    return isWinner;\r\n}\r\n\r\nfunction generateRandomTeamDNA(uint mod, uint difficulty, uint teamId) public view returns (uint){\r\n    TeamPvCMatchups storage teamPvCmatchup = _teamPvCMatchups[teamId];\r\n    uint rand;\r\n    if(difficulty == 1){\r\n        rand = uint(keccak256(abi.encodePacked(teamPvCmatchup.nonce1, msg.sender, mod, difficulty)));\r\n    }else if(difficulty == 2){\r\n        rand = uint(keccak256(abi.encodePacked(teamPvCmatchup.nonce2, msg.sender, mod, difficulty)));  \r\n    }else if(difficulty == 3){\r\n        rand = uint(keccak256(abi.encodePacked(teamPvCmatchup.nonce3, msg.sender, mod, difficulty)));\r\n    } \r\n    return rand % dnaModulus;\r\n}\r\n\r\nfunction getTimeOuts(uint teamId) public view returns (uint, uint, uint, bool, bool, bool, uint, uint, uint){\r\n    TeamPvCMatchups storage teamPvCmatchup = _teamPvCMatchups[teamId];\r\n    return (timeoutSeconds[0], timeoutSeconds[1], timeoutSeconds[2], teamPvCmatchup.lastMatchWon1, teamPvCmatchup.lastMatchWon2, teamPvCmatchup.lastMatchWon3, teamPvCmatchup.activeTimestamp1, teamPvCmatchup.activeTimestamp2, teamPvCmatchup.activeTimestamp3);\r\n}\r\n\r\nfunction getPvCMatchupsTimestamp() public view returns (uint) {\r\n    return block.timestamp;\r\n}\r\n\r\n}\r\n\r\n",
  "sourcePath": "O:\\Projects\\puck-buddies\\contracts\\PBPvCMatchup.sol",
  "compiler": {
    "name": "solc",
    "version": "0.8.6+commit.11564f7e.Emscripten.clang"
  },
  "schemaVersion": "3.4.3",
  "updatedAt": "2021-11-09T08:36:05.901Z",
  "networkType": "ethereum",
  "devdoc": {
    "kind": "dev",
    "methods": {},
    "version": 1
  },
  "userdoc": {
    "kind": "user",
    "methods": {},
    "version": 1
  }
}