{
  "contractName": "PBPvCHelper",
  "abi": [
    {
      "inputs": [
        {
          "internalType": "uint256",
          "name": "_difficultymod",
          "type": "uint256"
        }
      ],
      "stateMutability": "nonpayable",
      "type": "constructor"
    },
    {
      "anonymous": false,
      "inputs": [
        {
          "indexed": false,
          "internalType": "uint256",
          "name": "firstGoalsFor",
          "type": "uint256"
        },
        {
          "indexed": false,
          "internalType": "uint256",
          "name": "firstGoalsAgainst",
          "type": "uint256"
        },
        {
          "indexed": false,
          "internalType": "uint256",
          "name": "sencondGoalsFor",
          "type": "uint256"
        },
        {
          "indexed": false,
          "internalType": "uint256",
          "name": "secondGoalsAgainst",
          "type": "uint256"
        }
      ],
      "name": "gamePlay",
      "type": "event"
    },
    {
      "inputs": [],
      "name": "pbMatchupValidation",
      "outputs": [
        {
          "internalType": "contract PBMatchupValidation",
          "name": "",
          "type": "address"
        }
      ],
      "stateMutability": "view",
      "type": "function",
      "constant": true
    },
    {
      "inputs": [],
      "name": "pbTeams",
      "outputs": [
        {
          "internalType": "contract PBTeams",
          "name": "",
          "type": "address"
        }
      ],
      "stateMutability": "view",
      "type": "function",
      "constant": true
    },
    {
      "inputs": [],
      "name": "getPBPvCHelperAddress",
      "outputs": [
        {
          "internalType": "address",
          "name": "",
          "type": "address"
        }
      ],
      "stateMutability": "view",
      "type": "function",
      "constant": true
    },
    {
      "inputs": [],
      "name": "getTokensAdmin",
      "outputs": [
        {
          "internalType": "uint256",
          "name": "",
          "type": "uint256"
        },
        {
          "internalType": "uint256",
          "name": "",
          "type": "uint256"
        }
      ],
      "stateMutability": "view",
      "type": "function",
      "constant": true
    },
    {
      "inputs": [
        {
          "internalType": "uint256",
          "name": "_winToken",
          "type": "uint256"
        },
        {
          "internalType": "uint256",
          "name": "_lossToken",
          "type": "uint256"
        },
        {
          "internalType": "uint256",
          "name": "_hashToken",
          "type": "uint256"
        }
      ],
      "name": "updateVariables",
      "outputs": [],
      "stateMutability": "nonpayable",
      "type": "function"
    },
    {
      "inputs": [
        {
          "internalType": "address",
          "name": "_pbMatchupValidationAddress",
          "type": "address"
        },
        {
          "internalType": "address",
          "name": "_pbTeamsAddress",
          "type": "address"
        }
      ],
      "name": "updateAddresses",
      "outputs": [],
      "stateMutability": "nonpayable",
      "type": "function"
    },
    {
      "inputs": [
        {
          "internalType": "uint256",
          "name": "difficulty",
          "type": "uint256"
        },
        {
          "internalType": "uint256",
          "name": "teamId",
          "type": "uint256"
        },
        {
          "internalType": "uint256[]",
          "name": "playerIds",
          "type": "uint256[]"
        }
      ],
      "name": "performPvCMatchup",
      "outputs": [
        {
          "internalType": "uint256",
          "name": "",
          "type": "uint256"
        }
      ],
      "stateMutability": "view",
      "type": "function",
      "constant": true
    },
    {
      "inputs": [
        {
          "internalType": "uint256",
          "name": "mod",
          "type": "uint256"
        },
        {
          "internalType": "uint256",
          "name": "difficulty",
          "type": "uint256"
        },
        {
          "internalType": "uint256",
          "name": "statType",
          "type": "uint256"
        }
      ],
      "name": "generateRandomStat",
      "outputs": [
        {
          "internalType": "uint256",
          "name": "",
          "type": "uint256"
        }
      ],
      "stateMutability": "view",
      "type": "function",
      "constant": true
    }
  ],
  "bytecode": "0x608060405261018d6005556101bf60065560046009553480156200002257600080fd5b5060405162001330380380620013308339818101604052810190620000489190620000ad565b336000806101000a81548173ffffffffffffffffffffffffffffffffffffffff021916908373ffffffffffffffffffffffffffffffffffffffff160217905550806004819055505062000108565b600081519050620000a781620000ee565b92915050565b600060208284031215620000c657620000c5620000e9565b5b6000620000d68482850162000096565b91505092915050565b6000819050919050565b600080fd5b620000f981620000df565b81146200010557600080fd5b50565b61121880620001186000396000f3fe608060405234801561001057600080fd5b50600436106100885760003560e01c8063a2cbbed01161005b578063a2cbbed014610118578063ac535ffd14610134578063c1d1103714610164578063e00c01c51461018057610088565b80631b7258301461008d5780632a73e656146100ab57806369ecb69f146100c95780636b377c3a146100e8575b600080fd5b61009561019e565b6040516100a29190610cc3565b60405180910390f35b6100b36101a6565b6040516100c09190610cde565b60405180910390f35b6100d16101cc565b6040516100df929190610d9f565b60405180910390f35b61010260048036038101906100fd9190610a6d565b61026b565b60405161010f9190610d54565b60405180910390f35b610132600480360381019061012d9190610adc565b6104f7565b005b61014e60048036038101906101499190610adc565b61059f565b60405161015b9190610d54565b60405180910390f35b61017e600480360381019061017991906109d2565b610685565b005b610188610799565b6040516101959190610cf9565b60405180910390f35b600030905090565b600760009054906101000a900473ffffffffffffffffffffffffffffffffffffffff1681565b6000803373ffffffffffffffffffffffffffffffffffffffff1660008054906101000a900473ffffffffffffffffffffffffffffffffffffffff1673ffffffffffffffffffffffffffffffffffffffff161461025d576040517f08c379a000000000000000000000000000000000000000000000000000000000815260040161025490610d34565b60405180910390fd5b600154600254915091509091565b600060011515600760009054906101000a900473ffffffffffffffffffffffffffffffffffffffff1673ffffffffffffffffffffffffffffffffffffffff166332dae57285856040518363ffffffff1660e01b81526004016102ce929190610d6f565b60206040518083038186803b1580156102e657600080fd5b505afa1580156102fa573d6000803e3d6000fd5b505050506040513d601f19601f8201168201806040525081019061031e9190610a12565b151514610360576040517f08c379a000000000000000000000000000000000000000000000000000000000815260040161035790610d14565b60405180910390fd5b6000600860009054906101000a900473ffffffffffffffffffffffffffffffffffffffff1673ffffffffffffffffffffffffffffffffffffffff1663c1e03728856040518263ffffffff1660e01b81526004016103bd9190610d54565b6101606040518083038186803b1580156103d657600080fd5b505afa1580156103ea573d6000803e3d6000fd5b505050506040513d601f19601f8201168201806040525081019061040e9190610a3f565b6040015190506000600860009054906101000a900473ffffffffffffffffffffffffffffffffffffffff1673ffffffffffffffffffffffffffffffffffffffff1663c1e03728866040518263ffffffff1660e01b81526004016104719190610d54565b6101606040518083038186803b15801561048a57600080fd5b505afa15801561049e573d6000803e3d6000fd5b505050506040513d601f19601f820116820180604052508101906104c29190610a3f565b60600151905060006104d860045488600161059f565b905060006104ea60045489600261059f565b9050505050509392505050565b3373ffffffffffffffffffffffffffffffffffffffff1660008054906101000a900473ffffffffffffffffffffffffffffffffffffffff1673ffffffffffffffffffffffffffffffffffffffff1614610585576040517f08c379a000000000000000000000000000000000000000000000000000000000815260040161057c90610d34565b60405180910390fd5b826001819055508160028190555080600381905550505050565b600080600060018414156105c257856005546105bb9190610eea565b90506105dd565b60028414156105dc57856006546105d99190610eea565b90505b5b6000610e10426105ed9190610eb9565b905060005b60095481101561065957828188888533604051602001610616959493929190610c64565b6040516020818303038152906040528051906020012060001c6106399190611056565b846106449190610e63565b9350808061065190610fdf565b9150506105f2565b6000886009548661066a9190610eb9565b6106749190610e63565b905080955050505050509392505050565b3373ffffffffffffffffffffffffffffffffffffffff1660008054906101000a900473ffffffffffffffffffffffffffffffffffffffff1673ffffffffffffffffffffffffffffffffffffffff1614610713576040517f08c379a000000000000000000000000000000000000000000000000000000000815260040161070a90610d34565b60405180910390fd5b81600760006101000a81548173ffffffffffffffffffffffffffffffffffffffff021916908373ffffffffffffffffffffffffffffffffffffffff16021790555080600860006101000a81548173ffffffffffffffffffffffffffffffffffffffff021916908373ffffffffffffffffffffffffffffffffffffffff1602179055505050565b600860009054906101000a900473ffffffffffffffffffffffffffffffffffffffff1681565b60006107d26107cd84610ded565b610dc8565b905080838252602082019050828560208602820111156107f5576107f461111e565b5b60005b85811015610825578161080b88826109a8565b8452602084019350602083019250506001810190506107f8565b5050509392505050565b60008135905061083e8161119d565b92915050565b6000815190506108538161119d565b92915050565b600082601f83011261086e5761086d611114565b5b813561087e8482602086016107bf565b91505092915050565b600081519050610896816111b4565b92915050565b600061016082840312156108b3576108b2611119565b5b6108be610160610dc8565b905060006108ce848285016109bd565b60008301525060206108e2848285016109bd565b60208301525060406108f6848285016109bd565b604083015250606061090a848285016109bd565b606083015250608061091e848285016109bd565b60808301525060a0610932848285016109bd565b60a08301525060c0610946848285016109bd565b60c08301525060e061095a84828501610887565b60e08301525061010061096f84828501610887565b6101008301525061012061098584828501610887565b6101208301525061014061099b84828501610844565b6101408301525092915050565b6000813590506109b7816111cb565b92915050565b6000815190506109cc816111cb565b92915050565b600080604083850312156109e9576109e8611128565b5b60006109f78582860161082f565b9250506020610a088582860161082f565b9150509250929050565b600060208284031215610a2857610a27611128565b5b6000610a3684828501610887565b91505092915050565b60006101608284031215610a5657610a55611128565b5b6000610a648482850161089c565b91505092915050565b600080600060608486031215610a8657610a85611128565b5b6000610a94868287016109a8565b9350506020610aa5868287016109a8565b925050604084013567ffffffffffffffff811115610ac657610ac5611123565b5b610ad286828701610859565b9150509250925092565b600080600060608486031215610af557610af4611128565b5b6000610b03868287016109a8565b9350506020610b14868287016109a8565b9250506040610b25868287016109a8565b9150509250925092565b6000610b3b8383610c2f565b60208301905092915050565b610b5081610f1e565b82525050565b610b67610b6282610f1e565b611028565b82525050565b6000610b7882610e29565b610b828185610e41565b9350610b8d83610e19565b8060005b83811015610bbe578151610ba58882610b2f565b9750610bb083610e34565b925050600181019050610b91565b5085935050505092915050565b610bd481610f66565b82525050565b610be381610f8a565b82525050565b6000610bf6600283610e52565b9150610c018261114b565b602082019050919050565b6000610c19600283610e52565b9150610c2482611174565b602082019050919050565b610c3881610f5c565b82525050565b610c4781610f5c565b82525050565b610c5e610c5982610f5c565b61104c565b82525050565b6000610c708288610c4d565b602082019150610c808287610c4d565b602082019150610c908286610c4d565b602082019150610ca08285610c4d565b602082019150610cb08284610b56565b6014820191508190509695505050505050565b6000602082019050610cd86000830184610b47565b92915050565b6000602082019050610cf36000830184610bcb565b92915050565b6000602082019050610d0e6000830184610bda565b92915050565b60006020820190508181036000830152610d2d81610be9565b9050919050565b60006020820190508181036000830152610d4d81610c0c565b9050919050565b6000602082019050610d696000830184610c3e565b92915050565b6000604082019050610d846000830185610c3e565b8181036020830152610d968184610b6d565b90509392505050565b6000604082019050610db46000830185610c3e565b610dc16020830184610c3e565b9392505050565b6000610dd2610de3565b9050610dde8282610fae565b919050565b6000604051905090565b600067ffffffffffffffff821115610e0857610e076110e5565b5b602082029050602081019050919050565b6000819050602082019050919050565b600081519050919050565b6000602082019050919050565b600082825260208201905092915050565b600082825260208201905092915050565b6000610e6e82610f5c565b9150610e7983610f5c565b9250827fffffffffffffffffffffffffffffffffffffffffffffffffffffffffffffffff03821115610eae57610ead611087565b5b828201905092915050565b6000610ec482610f5c565b9150610ecf83610f5c565b925082610edf57610ede6110b6565b5b828204905092915050565b6000610ef582610f5c565b9150610f0083610f5c565b925082821015610f1357610f12611087565b5b828203905092915050565b6000610f2982610f3c565b9050919050565b60008115159050919050565b600073ffffffffffffffffffffffffffffffffffffffff82169050919050565b6000819050919050565b6000610f7182610f78565b9050919050565b6000610f8382610f3c565b9050919050565b6000610f9582610f9c565b9050919050565b6000610fa782610f3c565b9050919050565b610fb78261112d565b810181811067ffffffffffffffff82111715610fd657610fd56110e5565b5b80604052505050565b6000610fea82610f5c565b91507fffffffffffffffffffffffffffffffffffffffffffffffffffffffffffffffff82141561101d5761101c611087565b5b600182019050919050565b60006110338261103a565b9050919050565b60006110458261113e565b9050919050565b6000819050919050565b600061106182610f5c565b915061106c83610f5c565b92508261107c5761107b6110b6565b5b828206905092915050565b7f4e487b7100000000000000000000000000000000000000000000000000000000600052601160045260246000fd5b7f4e487b7100000000000000000000000000000000000000000000000000000000600052601260045260246000fd5b7f4e487b7100000000000000000000000000000000000000000000000000000000600052604160045260246000fd5b600080fd5b600080fd5b600080fd5b600080fd5b600080fd5b6000601f19601f8301169050919050565b60008160601b9050919050565b7f4e36000000000000000000000000000000000000000000000000000000000000600082015250565b7f4131000000000000000000000000000000000000000000000000000000000000600082015250565b6111a681610f1e565b81146111b157600080fd5b50565b6111bd81610f30565b81146111c857600080fd5b50565b6111d481610f5c565b81146111df57600080fd5b5056fea26469706673582212200786f77bc2e641a56efb537520fed49b30d0d95d05ff73fbe6a43e35d5dff44a64736f6c63430008060033",
  "immutableReferences": {},
  "source": "// SPDX-License-Identifier: MIT\r\npragma solidity >=0.4.22 <0.9.0;\r\n\r\nimport \"../contracts/PBTeams.sol\";\r\nimport \"../contracts/PBMatchupValidation.sol\";\r\n\r\ncontract PBPvCHelper {\r\n\r\naddress admin;\r\nuint winToken;\r\nuint lossToken;\r\nuint hashToken;\r\nuint difficultymod;\r\nuint maxOpScore = 397;\r\nuint maxDpScore = 447;\r\nPBMatchupValidation public pbMatchupValidation;\r\nPBTeams public pbTeams;\r\n\r\n\r\n\r\n\r\n\r\n// uint nonce = 0;\r\n// uint dnaModulus = 10 ** 16;\r\nuint bellCurveIterations = 4;\r\n// uint timeoutSeconds;\r\n// uint reward1;\r\n// uint reward2;\r\n// uint reward3;\r\n// uint xpReward;\r\n\r\n\r\nconstructor(uint _difficultymod){\r\n    admin = msg.sender;\r\n    difficultymod = _difficultymod;\r\n}\r\n\r\nevent gamePlay(uint firstGoalsFor, uint firstGoalsAgainst, uint sencondGoalsFor, uint secondGoalsAgainst );\r\n\r\nmodifier onlyAdmin() {\r\n    require(admin == msg.sender, \"A1\" );\r\n    _;\r\n}\r\n\r\nfunction getPBPvCHelperAddress() public view returns (address){\r\n    return address(this);\r\n}\r\n\r\nfunction getTokensAdmin() external view onlyAdmin returns (uint, uint){\r\n    return (winToken, lossToken);\r\n}\r\n\r\nfunction updateVariables(uint _winToken, uint _lossToken, uint _hashToken) external onlyAdmin {\r\n    winToken = _winToken;\r\n    lossToken = _lossToken;\r\n    hashToken = _hashToken;\r\n}\r\n\r\nfunction updateAddresses(address _pbMatchupValidationAddress, address _pbTeamsAddress ) external onlyAdmin {\r\n    pbMatchupValidation = PBMatchupValidation(_pbMatchupValidationAddress);\r\n    pbTeams = PBTeams(_pbTeamsAddress);\r\n}\r\n\r\n\r\nfunction performPvCMatchup(uint difficulty, uint teamId, uint[] memory playerIds) external view returns (uint) {\r\n    require(pbMatchupValidation.varifyPlayerAgesOnTeam(teamId, playerIds) == true, \"N6\");\r\n    uint playerOP = pbTeams.getTokenDetails(teamId).teamTotalOP;\r\n    uint playerDP = pbTeams.getTokenDetails(teamId).teamTotalDP;\r\n    uint cpuOP = generateRandomStat(difficultymod, difficulty, 1);\r\n    uint cpuDP = generateRandomStat(difficultymod, difficulty, 2);\r\n\r\n}\r\n\r\nfunction generateRandomStat(uint mod, uint difficulty, uint statType) public view returns (uint){\r\n    uint operator;\r\n    uint range;\r\n    if(statType == 1){\r\n        range = maxOpScore - mod;\r\n    }else if(statType == 2){\r\n        range = maxDpScore - mod;\r\n    }    \r\n    uint hourOfDate = (block.timestamp/3600);\r\n    uint i;\r\n    for(i = 0; i < bellCurveIterations; i++){\r\n        operator = operator + (uint(keccak256(abi.encodePacked(i, difficulty, statType, hourOfDate, msg.sender))) % range);\r\n    }\r\n    uint stat = (operator/bellCurveIterations) + mod;\r\n    return stat;\r\n}\r\n\r\n// function getPBPvCMatchuypHelperAddress() public view returns(address){\r\n//     return address(this);\r\n// }\r\n\r\n// function checkGeneratedStats(uint difficulty, uint cOP, uint cDP) public view returns (bool){\r\n//     uint opStat;\r\n//     uint dpStat;\r\n//      if (difficulty == 1){\r\n//         opStat = generateRandomHourlyStat(difficultymod, difficulty, 1);\r\n//         dpStat = generateRandomHourlyStat(difficultymod, difficulty, 2);\r\n//     }else if(difficulty == 2){\r\n//         opStat = generateRandomHourlyStat(((difficultymod * 15)/10), difficulty, 1);\r\n//         dpStat = generateRandomHourlyStat(((difficultymod * 15)/10), difficulty, 2);\r\n//     }else if(difficulty == 3){\r\n//         opStat = generateRandomHourlyStat(((difficultymod * 20)/10), difficulty, 1);\r\n//         dpStat = generateRandomHourlyStat(((difficultymod * 20)/10), difficulty, 2);\r\n//     }\r\n//     require (opStat == cOP && dpStat == cDP, \"N7\");\r\n//     return true;\r\n// }\r\n\r\n// function getWinningBP(uint pOP, uint pDP, uint cOP, uint cDP) public view returns (uint){\r\n//      uint pOPpercent = (pOP*10000)/maxOpScore;\r\n//      uint pDPpercent = (pDP*10000)/maxDpScore;\r\n//      uint cOPpercent = (((maxOpScore-cOP)*10000)/maxOpScore);\r\n//      uint cDPpercent = (((maxDpScore-cDP)*10000)/maxDpScore);\r\n//      uint pBP = (pOPpercent+pDPpercent)/2;\r\n//      uint cBP = (cOPpercent+cDPpercent)/2;\r\n//      uint winningBreakPoint = (pBP+cBP)/2;\r\n//      return winningBreakPoint;\r\n// }\r\n\r\n// function generateResult() public view returns (uint){\r\n//     uint operator;\r\n//     uint i;\r\n//     for(i = 0; i < bellCurveIterations; i++){\r\n//         operator = operator + (uint(keccak256(abi.encodePacked(i, nonce, block.timestamp, msg.sender))) % 10000);\r\n//     }\r\n//     uint result = operator/bellCurveIterations;\r\n//     return result;\r\n// }\r\n\r\n\r\n\r\n}",
  "sourcePath": "O:\\Projects\\puck-buddies\\contracts\\PBPvCHelper.sol",
  "compiler": {
    "name": "solc",
    "version": "0.8.6+commit.11564f7e.Emscripten.clang"
  },
  "schemaVersion": "3.4.3",
  "updatedAt": "2021-11-19T19:52:01.769Z",
  "networkType": "ethereum",
  "devdoc": {
    "kind": "dev",
    "methods": {},
    "version": 1
  },
  "userdoc": {
    "kind": "user",
    "methods": {},
    "version": 1
  }
}