{
  "contractName": "PBPvCHelper",
  "abi": [
    {
      "inputs": [
        {
          "internalType": "uint256",
          "name": "_difficultymod",
          "type": "uint256"
        }
      ],
      "stateMutability": "nonpayable",
      "type": "constructor"
    },
    {
      "anonymous": false,
      "inputs": [
        {
          "indexed": false,
          "internalType": "uint256",
          "name": "firstGoalsFor",
          "type": "uint256"
        },
        {
          "indexed": false,
          "internalType": "uint256",
          "name": "firstGoalsAgainst",
          "type": "uint256"
        },
        {
          "indexed": false,
          "internalType": "uint256",
          "name": "sencondGoalsFor",
          "type": "uint256"
        },
        {
          "indexed": false,
          "internalType": "uint256",
          "name": "secondGoalsAgainst",
          "type": "uint256"
        }
      ],
      "name": "gamePlay",
      "type": "event"
    },
    {
      "inputs": [],
      "name": "getPBPvCHelperAddress",
      "outputs": [
        {
          "internalType": "address",
          "name": "",
          "type": "address"
        }
      ],
      "stateMutability": "view",
      "type": "function",
      "constant": true
    },
    {
      "inputs": [],
      "name": "getTokensAdmin",
      "outputs": [
        {
          "internalType": "uint256",
          "name": "",
          "type": "uint256"
        },
        {
          "internalType": "uint256",
          "name": "",
          "type": "uint256"
        }
      ],
      "stateMutability": "view",
      "type": "function",
      "constant": true
    },
    {
      "inputs": [
        {
          "internalType": "uint256",
          "name": "_winToken",
          "type": "uint256"
        },
        {
          "internalType": "uint256",
          "name": "_lossToken",
          "type": "uint256"
        },
        {
          "internalType": "uint256",
          "name": "_hashToken",
          "type": "uint256"
        }
      ],
      "name": "updateVariables",
      "outputs": [],
      "stateMutability": "nonpayable",
      "type": "function"
    },
    {
      "inputs": [
        {
          "internalType": "uint256",
          "name": "mod",
          "type": "uint256"
        },
        {
          "internalType": "uint256",
          "name": "difficulty",
          "type": "uint256"
        },
        {
          "internalType": "uint256",
          "name": "statType",
          "type": "uint256"
        }
      ],
      "name": "generateRandomStat",
      "outputs": [
        {
          "internalType": "uint256",
          "name": "",
          "type": "uint256"
        }
      ],
      "stateMutability": "view",
      "type": "function",
      "constant": true
    },
    {
      "inputs": [],
      "name": "getBNBBalance",
      "outputs": [
        {
          "internalType": "uint256",
          "name": "",
          "type": "uint256"
        }
      ],
      "stateMutability": "view",
      "type": "function",
      "constant": true
    },
    {
      "inputs": [
        {
          "internalType": "address payable",
          "name": "_to",
          "type": "address"
        },
        {
          "internalType": "uint256",
          "name": "_amount",
          "type": "uint256"
        }
      ],
      "name": "transferBNB",
      "outputs": [],
      "stateMutability": "nonpayable",
      "type": "function"
    }
  ],
  "bytecode": "0x608060405261018d6005556101bf600655600460075534801561002157600080fd5b50604051610a9e380380610a9e833981810160405281019061004391906100a5565b336000806101000a81548173ffffffffffffffffffffffffffffffffffffffff021916908373ffffffffffffffffffffffffffffffffffffffff16021790555080600481905550506100f8565b60008151905061009f816100e1565b92915050565b6000602082840312156100bb576100ba6100dc565b5b60006100c984828501610090565b91505092915050565b6000819050919050565b600080fd5b6100ea816100d2565b81146100f557600080fd5b50565b610997806101076000396000f3fe608060405234801561001057600080fd5b50600436106100625760003560e01c80631b7258301461006757806369ecb69f14610085578063a2cbbed0146100a4578063ac535ffd146100c0578063eb17fba3146100f0578063f89879aa1461010c575b600080fd5b61006f61012a565b60405161007c9190610659565b60405180910390f35b61008d610132565b60405161009b9291906106af565b60405180910390f35b6100be60048036038101906100b99190610538565b6101d1565b005b6100da60048036038101906100d59190610538565b610279565b6040516100e79190610694565b60405180910390f35b61010a600480360381019061010591906104f8565b61035f565b005b610114610438565b6040516101219190610694565b60405180910390f35b600030905090565b6000803373ffffffffffffffffffffffffffffffffffffffff1660008054906101000a900473ffffffffffffffffffffffffffffffffffffffff1673ffffffffffffffffffffffffffffffffffffffff16146101c3576040517f08c379a00000000000000000000000000000000000000000000000000000000081526004016101ba90610674565b60405180910390fd5b600154600254915091509091565b3373ffffffffffffffffffffffffffffffffffffffff1660008054906101000a900473ffffffffffffffffffffffffffffffffffffffff1673ffffffffffffffffffffffffffffffffffffffff161461025f576040517f08c379a000000000000000000000000000000000000000000000000000000000815260040161025690610674565b60405180910390fd5b826001819055508160028190555080600381905550505050565b6000806000600184141561029c57856005546102959190610770565b90506102b7565b60028414156102b657856006546102b39190610770565b90505b5b6000610e10426102c7919061073f565b905060005b600754811015610333578281888885336040516020016102f09594939291906105fa565b6040516020818303038152906040528051906020012060001c6103139190610869565b8461031e91906106e9565b9350808061032b906107f2565b9150506102cc565b60008860075486610344919061073f565b61034e91906106e9565b905080955050505050509392505050565b3373ffffffffffffffffffffffffffffffffffffffff1660008054906101000a900473ffffffffffffffffffffffffffffffffffffffff1673ffffffffffffffffffffffffffffffffffffffff16146103ed576040517f08c379a00000000000000000000000000000000000000000000000000000000081526004016103e490610674565b60405180910390fd5b8173ffffffffffffffffffffffffffffffffffffffff166108fc829081150290604051600060405180830381858888f19350505050158015610433573d6000803e3d6000fd5b505050565b60003373ffffffffffffffffffffffffffffffffffffffff1660008054906101000a900473ffffffffffffffffffffffffffffffffffffffff1673ffffffffffffffffffffffffffffffffffffffff16146104c8576040517f08c379a00000000000000000000000000000000000000000000000000000000081526004016104bf90610674565b60405180910390fd5b47905090565b6000813590506104dd81610933565b92915050565b6000813590506104f28161094a565b92915050565b6000806040838503121561050f5761050e6108f8565b5b600061051d858286016104ce565b925050602061052e858286016104e3565b9150509250929050565b600080600060608486031215610551576105506108f8565b5b600061055f868287016104e3565b9350506020610570868287016104e3565b9250506040610581868287016104e3565b9150509250925092565b610594816107a4565b82525050565b6105ab6105a6826107a4565b61083b565b82525050565b60006105be6002836106d8565b91506105c98261090a565b602082019050919050565b6105dd816107e8565b82525050565b6105f46105ef826107e8565b61085f565b82525050565b600061060682886105e3565b60208201915061061682876105e3565b60208201915061062682866105e3565b60208201915061063682856105e3565b602082019150610646828461059a565b6014820191508190509695505050505050565b600060208201905061066e600083018461058b565b92915050565b6000602082019050818103600083015261068d816105b1565b9050919050565b60006020820190506106a960008301846105d4565b92915050565b60006040820190506106c460008301856105d4565b6106d160208301846105d4565b9392505050565b600082825260208201905092915050565b60006106f4826107e8565b91506106ff836107e8565b9250827fffffffffffffffffffffffffffffffffffffffffffffffffffffffffffffffff038211156107345761073361089a565b5b828201905092915050565b600061074a826107e8565b9150610755836107e8565b925082610765576107646108c9565b5b828204905092915050565b600061077b826107e8565b9150610786836107e8565b9250828210156107995761079861089a565b5b828203905092915050565b60006107af826107c8565b9050919050565b60006107c1826107c8565b9050919050565b600073ffffffffffffffffffffffffffffffffffffffff82169050919050565b6000819050919050565b60006107fd826107e8565b91507fffffffffffffffffffffffffffffffffffffffffffffffffffffffffffffffff8214156108305761082f61089a565b5b600182019050919050565b60006108468261084d565b9050919050565b6000610858826108fd565b9050919050565b6000819050919050565b6000610874826107e8565b915061087f836107e8565b92508261088f5761088e6108c9565b5b828206905092915050565b7f4e487b7100000000000000000000000000000000000000000000000000000000600052601160045260246000fd5b7f4e487b7100000000000000000000000000000000000000000000000000000000600052601260045260246000fd5b600080fd5b60008160601b9050919050565b7f4131000000000000000000000000000000000000000000000000000000000000600082015250565b61093c816107b6565b811461094757600080fd5b50565b610953816107e8565b811461095e57600080fd5b5056fea264697066735822122074c5baba8f48abd72bcb3a839d2b649ea53f5abc7603040ae6d5a109eb7cd5c864736f6c63430008060033",
  "immutableReferences": {},
  "source": "// SPDX-License-Identifier: MIT\r\npragma solidity >=0.4.22 <0.9.0;\r\n\r\n\r\ncontract PBPvCHelper {\r\n\r\naddress admin;\r\nuint winToken;\r\nuint lossToken;\r\nuint hashToken;\r\nuint difficultymod;\r\nuint maxOpScore = 397;\r\nuint maxDpScore = 447;\r\nuint bellCurveIterations = 4;\r\n\r\nconstructor(uint _difficultymod){\r\n    admin = msg.sender;\r\n    difficultymod = _difficultymod;\r\n}\r\n\r\nevent gamePlay(uint firstGoalsFor, uint firstGoalsAgainst, uint sencondGoalsFor, uint secondGoalsAgainst );\r\n\r\nmodifier onlyAdmin() {\r\n    require(admin == msg.sender, \"A1\" );\r\n    _;\r\n}\r\n\r\nfunction getPBPvCHelperAddress() public view returns (address){\r\n    return address(this);\r\n}\r\n\r\nfunction getTokensAdmin() external view onlyAdmin returns (uint, uint){\r\n    return (winToken, lossToken);\r\n}\r\n\r\nfunction updateVariables(uint _winToken, uint _lossToken, uint _hashToken) external onlyAdmin {\r\n    winToken = _winToken;\r\n    lossToken = _lossToken;\r\n    hashToken = _hashToken;\r\n}\r\n\r\nfunction generateRandomStat(uint mod, uint difficulty, uint statType) public view returns (uint){\r\n    uint operator;\r\n    uint range;\r\n    if(statType == 1){\r\n        range = maxOpScore - mod;\r\n    }else if(statType == 2){\r\n        range = maxDpScore - mod;\r\n    }    \r\n    uint hourOfDate = (block.timestamp/3600);\r\n    uint i;\r\n    for(i = 0; i < bellCurveIterations; i++){\r\n        operator = operator + (uint(keccak256(abi.encodePacked(i, difficulty, statType, hourOfDate, msg.sender))) % range);\r\n    }\r\n    uint stat = (operator/bellCurveIterations) + mod;\r\n    return stat;\r\n}\r\n\r\n    function getBNBBalance() external view onlyAdmin returns (uint) {\r\n        return address(this).balance;\r\n    }\r\n\r\n    function transferBNB(address payable _to, uint _amount) external onlyAdmin {\r\n        _to.transfer(_amount);\r\n    }\r\n\r\n}",
  "sourcePath": "O:\\Projects\\puck-buddies\\contracts\\PBPvCHelper.sol",
  "compiler": {
    "name": "solc",
    "version": "0.8.6+commit.11564f7e.Emscripten.clang"
  },
  "schemaVersion": "3.4.3",
  "updatedAt": "2022-01-07T21:58:20.058Z",
  "networkType": "ethereum",
  "devdoc": {
    "kind": "dev",
    "methods": {},
    "version": 1
  },
  "userdoc": {
    "kind": "user",
    "methods": {},
    "version": 1
  }
}