{
  "contractName": "PBPvCMatchups",
  "abi": [
    {
      "inputs": [
        {
          "internalType": "address",
          "name": "_buddiesCoinAddress",
          "type": "address"
        },
        {
          "internalType": "address",
          "name": "_pbxpAddress",
          "type": "address"
        },
        {
          "internalType": "address",
          "name": "_pbTeamsAddress",
          "type": "address"
        },
        {
          "internalType": "address",
          "name": "_pbPvCHelperAddress",
          "type": "address"
        },
        {
          "internalType": "uint256[]",
          "name": "_timeoutSeconds",
          "type": "uint256[]"
        },
        {
          "internalType": "uint256[]",
          "name": "_reward",
          "type": "uint256[]"
        },
        {
          "internalType": "uint256",
          "name": "_xpReward",
          "type": "uint256"
        },
        {
          "internalType": "uint256",
          "name": "_difficultymod",
          "type": "uint256"
        }
      ],
      "stateMutability": "nonpayable",
      "type": "constructor"
    },
    {
      "inputs": [],
      "name": "PBXPToken",
      "outputs": [
        {
          "internalType": "contract PBXP",
          "name": "",
          "type": "address"
        }
      ],
      "stateMutability": "view",
      "type": "function",
      "constant": true
    },
    {
      "inputs": [
        {
          "internalType": "uint256",
          "name": "",
          "type": "uint256"
        }
      ],
      "name": "_teamPvCMatchups",
      "outputs": [
        {
          "internalType": "uint256",
          "name": "teamId",
          "type": "uint256"
        },
        {
          "internalType": "uint256",
          "name": "activeTimestamp1",
          "type": "uint256"
        },
        {
          "internalType": "uint256",
          "name": "activeTimestamp2",
          "type": "uint256"
        },
        {
          "internalType": "uint256",
          "name": "activeTimestamp3",
          "type": "uint256"
        },
        {
          "internalType": "bool",
          "name": "lastMatchWon1",
          "type": "bool"
        },
        {
          "internalType": "bool",
          "name": "lastMatchWon2",
          "type": "bool"
        },
        {
          "internalType": "bool",
          "name": "lastMatchWon3",
          "type": "bool"
        },
        {
          "internalType": "address",
          "name": "ownerAddress",
          "type": "address"
        },
        {
          "internalType": "uint256",
          "name": "nonce1",
          "type": "uint256"
        },
        {
          "internalType": "uint256",
          "name": "nonce2",
          "type": "uint256"
        },
        {
          "internalType": "uint256",
          "name": "nonce3",
          "type": "uint256"
        }
      ],
      "stateMutability": "view",
      "type": "function",
      "constant": true
    },
    {
      "inputs": [],
      "name": "buddies",
      "outputs": [
        {
          "internalType": "contract IERC20",
          "name": "",
          "type": "address"
        }
      ],
      "stateMutability": "view",
      "type": "function",
      "constant": true
    },
    {
      "inputs": [],
      "name": "pbPvCHelper",
      "outputs": [
        {
          "internalType": "contract PBPvCHelper",
          "name": "",
          "type": "address"
        }
      ],
      "stateMutability": "view",
      "type": "function",
      "constant": true
    },
    {
      "inputs": [],
      "name": "pbTeams",
      "outputs": [
        {
          "internalType": "contract PBTeams",
          "name": "",
          "type": "address"
        }
      ],
      "stateMutability": "view",
      "type": "function",
      "constant": true
    },
    {
      "inputs": [
        {
          "internalType": "address",
          "name": "_validator",
          "type": "address"
        }
      ],
      "name": "updateValidator",
      "outputs": [],
      "stateMutability": "nonpayable",
      "type": "function"
    },
    {
      "inputs": [],
      "name": "getPBPvCMatchupsAddress",
      "outputs": [
        {
          "internalType": "address",
          "name": "",
          "type": "address"
        }
      ],
      "stateMutability": "view",
      "type": "function",
      "constant": true
    },
    {
      "inputs": [],
      "name": "getDifficultyMod",
      "outputs": [
        {
          "internalType": "uint256",
          "name": "",
          "type": "uint256"
        }
      ],
      "stateMutability": "view",
      "type": "function",
      "constant": true
    },
    {
      "inputs": [
        {
          "internalType": "uint256",
          "name": "_difficultymod",
          "type": "uint256"
        }
      ],
      "name": "updateDifficultyMod",
      "outputs": [],
      "stateMutability": "nonpayable",
      "type": "function"
    },
    {
      "inputs": [],
      "name": "getBuddiesReward",
      "outputs": [
        {
          "internalType": "uint256",
          "name": "",
          "type": "uint256"
        },
        {
          "internalType": "uint256",
          "name": "",
          "type": "uint256"
        },
        {
          "internalType": "uint256",
          "name": "",
          "type": "uint256"
        }
      ],
      "stateMutability": "view",
      "type": "function",
      "constant": true
    },
    {
      "inputs": [
        {
          "internalType": "uint256[]",
          "name": "_reward",
          "type": "uint256[]"
        }
      ],
      "name": "updateBuddiesReward",
      "outputs": [],
      "stateMutability": "nonpayable",
      "type": "function"
    },
    {
      "inputs": [
        {
          "internalType": "uint256[]",
          "name": "_timeoutSeconds",
          "type": "uint256[]"
        }
      ],
      "name": "updateTimesOut",
      "outputs": [],
      "stateMutability": "nonpayable",
      "type": "function"
    },
    {
      "inputs": [],
      "name": "getPBXPReward",
      "outputs": [
        {
          "internalType": "uint256",
          "name": "",
          "type": "uint256"
        }
      ],
      "stateMutability": "view",
      "type": "function",
      "constant": true
    },
    {
      "inputs": [
        {
          "internalType": "uint256",
          "name": "_xpReward",
          "type": "uint256"
        }
      ],
      "name": "updatePBXPReward",
      "outputs": [],
      "stateMutability": "nonpayable",
      "type": "function"
    },
    {
      "inputs": [
        {
          "internalType": "address",
          "name": "_widthdrawAddress",
          "type": "address"
        },
        {
          "internalType": "uint256",
          "name": "_amount",
          "type": "uint256"
        }
      ],
      "name": "widthdrawBuddiesFromContract",
      "outputs": [],
      "stateMutability": "nonpayable",
      "type": "function"
    },
    {
      "inputs": [
        {
          "internalType": "bytes32",
          "name": "_token",
          "type": "bytes32"
        },
        {
          "internalType": "uint256",
          "name": "_difficulty",
          "type": "uint256"
        },
        {
          "internalType": "uint256",
          "name": "_teamId",
          "type": "uint256"
        },
        {
          "internalType": "uint256",
          "name": "t1S",
          "type": "uint256"
        },
        {
          "internalType": "uint256",
          "name": "t2S",
          "type": "uint256"
        }
      ],
      "name": "rewardMatchup",
      "outputs": [],
      "stateMutability": "nonpayable",
      "type": "function"
    },
    {
      "inputs": [
        {
          "internalType": "uint256",
          "name": "mod",
          "type": "uint256"
        },
        {
          "internalType": "uint256",
          "name": "difficulty",
          "type": "uint256"
        },
        {
          "internalType": "uint256",
          "name": "teamId",
          "type": "uint256"
        }
      ],
      "name": "generateRandomTeamDNA",
      "outputs": [
        {
          "internalType": "uint256",
          "name": "",
          "type": "uint256"
        }
      ],
      "stateMutability": "view",
      "type": "function",
      "constant": true
    },
    {
      "inputs": [
        {
          "internalType": "uint256",
          "name": "teamId",
          "type": "uint256"
        }
      ],
      "name": "getTimeOuts",
      "outputs": [
        {
          "internalType": "uint256",
          "name": "",
          "type": "uint256"
        },
        {
          "internalType": "uint256",
          "name": "",
          "type": "uint256"
        },
        {
          "internalType": "uint256",
          "name": "",
          "type": "uint256"
        },
        {
          "internalType": "bool",
          "name": "",
          "type": "bool"
        },
        {
          "internalType": "bool",
          "name": "",
          "type": "bool"
        },
        {
          "internalType": "bool",
          "name": "",
          "type": "bool"
        },
        {
          "internalType": "uint256",
          "name": "",
          "type": "uint256"
        },
        {
          "internalType": "uint256",
          "name": "",
          "type": "uint256"
        },
        {
          "internalType": "uint256",
          "name": "",
          "type": "uint256"
        }
      ],
      "stateMutability": "view",
      "type": "function",
      "constant": true
    },
    {
      "inputs": [
        {
          "internalType": "uint256",
          "name": "teamId",
          "type": "uint256"
        }
      ],
      "name": "getNoMatchups",
      "outputs": [
        {
          "internalType": "uint256",
          "name": "",
          "type": "uint256"
        },
        {
          "internalType": "uint256",
          "name": "",
          "type": "uint256"
        },
        {
          "internalType": "uint256",
          "name": "",
          "type": "uint256"
        }
      ],
      "stateMutability": "view",
      "type": "function",
      "constant": true
    },
    {
      "inputs": [],
      "name": "getPvCMatchupsTimestamp",
      "outputs": [
        {
          "internalType": "uint256",
          "name": "",
          "type": "uint256"
        }
      ],
      "stateMutability": "view",
      "type": "function",
      "constant": true
    },
    {
      "inputs": [],
      "name": "getBNBBalance",
      "outputs": [
        {
          "internalType": "uint256",
          "name": "",
          "type": "uint256"
        }
      ],
      "stateMutability": "view",
      "type": "function",
      "constant": true
    },
    {
      "inputs": [],
      "name": "getBudsBalance",
      "outputs": [
        {
          "internalType": "uint256",
          "name": "",
          "type": "uint256"
        }
      ],
      "stateMutability": "view",
      "type": "function",
      "constant": true
    },
    {
      "inputs": [
        {
          "internalType": "address payable",
          "name": "_to",
          "type": "address"
        },
        {
          "internalType": "uint256",
          "name": "_amount",
          "type": "uint256"
        }
      ],
      "name": "transferBNB",
      "outputs": [],
      "stateMutability": "nonpayable",
      "type": "function"
    },
    {
      "inputs": [
        {
          "internalType": "uint256",
          "name": "_amount",
          "type": "uint256"
        }
      ],
      "name": "transferBUDS",
      "outputs": [],
      "stateMutability": "nonpayable",
      "type": "function"
    }
  ],
  "bytecode": "0x6080604052662386f26fc1000060025560046003553480156200002157600080fd5b506040516200322c3803806200322c83398181016040528101906200004791906200032f565b600160008190555033600160006101000a81548173ffffffffffffffffffffffffffffffffffffffff021916908373ffffffffffffffffffffffffffffffffffffffff16021790555087600a60006101000a81548173ffffffffffffffffffffffffffffffffffffffff021916908373ffffffffffffffffffffffffffffffffffffffff16021790555086600c60006101000a81548173ffffffffffffffffffffffffffffffffffffffff021916908373ffffffffffffffffffffffffffffffffffffffff16021790555085600b60006101000a81548173ffffffffffffffffffffffffffffffffffffffff021916908373ffffffffffffffffffffffffffffffffffffffff16021790555084600d60006101000a81548173ffffffffffffffffffffffffffffffffffffffff021916908373ffffffffffffffffffffffffffffffffffffffff1602179055508360069080519060200190620001ac929190620001e2565b508260079080519060200190620001c5929190620001e2565b50816008819055508060098190555050505050505050506200058a565b82805482825590600052602060002090810192821562000221579160200282015b828111156200022057825182559160200191906001019062000203565b5b50905062000230919062000234565b5090565b5b808211156200024f57600081600090555060010162000235565b5090565b60006200026a62000264846200045f565b62000436565b9050808382526020820190508285602086028201111562000290576200028f62000536565b5b60005b85811015620002c45781620002a9888262000318565b84526020840193506020830192505060018101905062000293565b5050509392505050565b600081519050620002df8162000556565b92915050565b600082601f830112620002fd57620002fc62000531565b5b81516200030f84826020860162000253565b91505092915050565b600081519050620003298162000570565b92915050565b600080600080600080600080610100898b03121562000353576200035262000540565b5b6000620003638b828c01620002ce565b9850506020620003768b828c01620002ce565b9750506040620003898b828c01620002ce565b96505060606200039c8b828c01620002ce565b955050608089015167ffffffffffffffff811115620003c057620003bf6200053b565b5b620003ce8b828c01620002e5565b94505060a089015167ffffffffffffffff811115620003f257620003f16200053b565b5b620004008b828c01620002e5565b93505060c0620004138b828c0162000318565b92505060e0620004268b828c0162000318565b9150509295985092959890939650565b60006200044262000455565b9050620004508282620004cc565b919050565b6000604051905090565b600067ffffffffffffffff8211156200047d576200047c62000502565b5b602082029050602081019050919050565b60006200049b82620004a2565b9050919050565b600073ffffffffffffffffffffffffffffffffffffffff82169050919050565b6000819050919050565b620004d78262000545565b810181811067ffffffffffffffff82111715620004f957620004f862000502565b5b80604052505050565b7f4e487b7100000000000000000000000000000000000000000000000000000000600052604160045260246000fd5b600080fd5b600080fd5b600080fd5b600080fd5b6000601f19601f8301169050919050565b62000561816200048e565b81146200056d57600080fd5b50565b6200057b81620004c2565b81146200058757600080fd5b50565b612c92806200059a6000396000f3fe608060405234801561001057600080fd5b50600436106101585760003560e01c806397ede525116100c3578063e245c22d1161007c578063e245c22d146103af578063e9992a78146103e9578063eb17fba314610405578063f15e0e9c14610421578063f89879aa1461043f578063f8f7bdea1461045d57610158565b806397ede525146102d7578063a6eaa2a3146102f5578063b4fad1ff14610313578063b791841a14610343578063c09f12321461035f578063e00c01c51461039157610158565b806353b7a2e21161011557806353b7a2e21461022b5780635b016d6e1461024757806362170b7114610263578063635b2770146102815780638491f2141461029d57806395e03eb4146102bb57610158565b8063178d33231461015d5780632071a7fb1461017957806347a69777146101b15780634a594c12146101d157806351171af2146101ef578063532195bb1461020d575b600080fd5b61017760048036038101906101729190612002565b610479565b005b610193600480360381019061018e919061207d565b611124565b6040516101a8999897969594939291906125cd565b60405180910390f35b6101b961120d565b6040516101c893929190612596565b60405180910390f35b6101d961127d565b6040516101e691906123ef565b60405180910390f35b6101f76112a3565b604051610204919061234a565b60405180910390f35b6102156112ab565b604051610222919061257b565b60405180910390f35b6102456004803603810190610240919061207d565b6112b5565b005b610261600480360381019061025c9190611f5f565b61134f565b005b61026b6113f9565b604051610278919061257b565b60405180910390f35b61029b60048036038101906102969190611eb2565b611403565b005b6102a56114d7565b6040516102b2919061257b565b60405180910390f35b6102d560048036038101906102d0919061207d565b611589565b005b6102df6116cc565b6040516102ec9190612440565b60405180910390f35b6102fd6116f2565b60405161030a919061257b565b60405180910390f35b61032d600480360381019061032891906120d7565b6116fa565b60405161033a919061257b565b60405180910390f35b61035d6004803603810190610358919061207d565b6117f7565b005b6103796004803603810190610374919061207d565b611891565b60405161038893929190612596565b60405180910390f35b6103996118c9565b6040516103a69190612425565b60405180910390f35b6103c960048036038101906103c4919061207d565b6118ef565b6040516103e09b9a9998979695949392919061265a565b60405180910390f35b61040360048036038101906103fe9190611f1f565b611990565b005b61041f600480360381019061041a9190611edf565b611ad4565b005b610429611baf565b604051610436919061240a565b60405180910390f35b610447611bd5565b604051610454919061257b565b60405180910390f35b61047760048036038101906104729190611f5f565b611c6d565b005b6000600f60008581526020019081526020016000209050600060018614156104a757816005015490506104cf565b60028614156104bc57816006015490506104ce565b60038614156104cd57816007015490505b5b5b82841115610c2d57600e60009054906101000a900473ffffffffffffffffffffffffffffffffffffffff1673ffffffffffffffffffffffffffffffffffffffff166349693c153383898989896040518763ffffffff1660e01b815260040161053c9695949392919061238e565b60206040518083038186803b15801561055457600080fd5b505afa158015610568573d6000803e3d6000fd5b505050506040513d601f19601f8201168201806040525081019061058c9190611fd5565b87146105cd576040517f08c379a00000000000000000000000000000000000000000000000000000000081526004016105c49061249b565b60405180910390fd5b60018614156107ec57816001015442101561061d576040517f08c379a00000000000000000000000000000000000000000000000000000000081526004016106149061255b565b60405180910390fd5b6006600081548110610632576106316129e8565b5b9060005260206000200154426106489190612767565b826001018190555060018260040160006101000a81548160ff021916908315150217905550600a60009054906101000a900473ffffffffffffffffffffffffffffffffffffffff1673ffffffffffffffffffffffffffffffffffffffff1663a9059cbb3360076000815481106106c1576106c06129e8565b5b90600052602060002001546040518363ffffffff1660e01b81526004016106e9929190612365565b602060405180830381600087803b15801561070357600080fd5b505af1158015610717573d6000803e3d6000fd5b505050506040513d601f19601f8201168201806040525081019061073b9190611fa8565b50600c60009054906101000a900473ffffffffffffffffffffffffffffffffffffffff1673ffffffffffffffffffffffffffffffffffffffff1663c43df89a336008546040518363ffffffff1660e01b815260040161079b929190612365565b600060405180830381600087803b1580156107b557600080fd5b505af11580156107c9573d6000803e3d6000fd5b505050508160050160008154809291906107e2906128e2565b9190505550610c28565b6002861415610a0b57816002015442101561083c576040517f08c379a00000000000000000000000000000000000000000000000000000000081526004016108339061251b565b60405180910390fd5b6006600181548110610851576108506129e8565b5b9060005260206000200154426108679190612767565b826002018190555060018260040160016101000a81548160ff021916908315150217905550600a60009054906101000a900473ffffffffffffffffffffffffffffffffffffffff1673ffffffffffffffffffffffffffffffffffffffff1663a9059cbb3360076001815481106108e0576108df6129e8565b5b90600052602060002001546040518363ffffffff1660e01b8152600401610908929190612365565b602060405180830381600087803b15801561092257600080fd5b505af1158015610936573d6000803e3d6000fd5b505050506040513d601f19601f8201168201806040525081019061095a9190611fa8565b50600c60009054906101000a900473ffffffffffffffffffffffffffffffffffffffff1673ffffffffffffffffffffffffffffffffffffffff1663c43df89a336008546040518363ffffffff1660e01b81526004016109ba929190612365565b600060405180830381600087803b1580156109d457600080fd5b505af11580156109e8573d6000803e3d6000fd5b50505050816006016000815480929190610a01906128e2565b9190505550610c27565b6003861415610c26578160030154421015610a5b576040517f08c379a0000000000000000000000000000000000000000000000000000000008152600401610a52906124fb565b60405180910390fd5b6006600281548110610a7057610a6f6129e8565b5b906000526020600020015442610a869190612767565b826003018190555060018260040160026101000a81548160ff021916908315150217905550600a60009054906101000a900473ffffffffffffffffffffffffffffffffffffffff1673ffffffffffffffffffffffffffffffffffffffff1663a9059cbb336007600281548110610aff57610afe6129e8565b5b90600052602060002001546040518363ffffffff1660e01b8152600401610b27929190612365565b602060405180830381600087803b158015610b4157600080fd5b505af1158015610b55573d6000803e3d6000fd5b505050506040513d601f19601f82011682018060405250810190610b799190611fa8565b50600c60009054906101000a900473ffffffffffffffffffffffffffffffffffffffff1673ffffffffffffffffffffffffffffffffffffffff1663c43df89a336008546040518363ffffffff1660e01b8152600401610bd9929190612365565b600060405180830381600087803b158015610bf357600080fd5b505af1158015610c07573d6000803e3d6000fd5b50505050816007016000815480929190610c20906128e2565b91905055505b5b5b61111b565b8383111561111a57600e60009054906101000a900473ffffffffffffffffffffffffffffffffffffffff1673ffffffffffffffffffffffffffffffffffffffff1663e5f432b83383898989896040518763ffffffff1660e01b8152600401610c9a9695949392919061238e565b60206040518083038186803b158015610cb257600080fd5b505afa158015610cc6573d6000803e3d6000fd5b505050506040513d601f19601f82011682018060405250810190610cea9190611fd5565b8714610d2b576040517f08c379a0000000000000000000000000000000000000000000000000000000008152600401610d22906124db565b60405180910390fd5b6001861415610e7b578160010154421015610d7b576040517f08c379a0000000000000000000000000000000000000000000000000000000008152600401610d729061247b565b60405180910390fd5b6006600081548110610d9057610d8f6129e8565b5b906000526020600020015442610da69190612767565b826001018190555060008260040160006101000a81548160ff021916908315150217905550600c60009054906101000a900473ffffffffffffffffffffffffffffffffffffffff1673ffffffffffffffffffffffffffffffffffffffff1663c43df89a336008546040518363ffffffff1660e01b8152600401610e2a929190612365565b600060405180830381600087803b158015610e4457600080fd5b505af1158015610e58573d6000803e3d6000fd5b50505050816005016000815480929190610e71906128e2565b9190505550611119565b6002861415610fcb578160020154421015610ecb576040517f08c379a0000000000000000000000000000000000000000000000000000000008152600401610ec29061253b565b60405180910390fd5b6006600181548110610ee057610edf6129e8565b5b906000526020600020015442610ef69190612767565b826002018190555060008260040160016101000a81548160ff021916908315150217905550600c60009054906101000a900473ffffffffffffffffffffffffffffffffffffffff1673ffffffffffffffffffffffffffffffffffffffff1663c43df89a336008546040518363ffffffff1660e01b8152600401610f7a929190612365565b600060405180830381600087803b158015610f9457600080fd5b505af1158015610fa8573d6000803e3d6000fd5b50505050816006016000815480929190610fc1906128e2565b9190505550611118565b600386141561111757816003015442101561101b576040517f08c379a00000000000000000000000000000000000000000000000000000000081526004016110129061245b565b60405180910390fd5b60066002815481106110305761102f6129e8565b5b9060005260206000200154426110469190612767565b826003018190555060008260040160026101000a81548160ff021916908315150217905550600c60009054906101000a900473ffffffffffffffffffffffffffffffffffffffff1673ffffffffffffffffffffffffffffffffffffffff1663c43df89a336008546040518363ffffffff1660e01b81526004016110ca929190612365565b600060405180830381600087803b1580156110e457600080fd5b505af11580156110f8573d6000803e3d6000fd5b50505050816007016000815480929190611111906128e2565b91905055505b5b5b5b5b50505050505050565b600080600080600080600080600080600f60008c81526020019081526020016000209050600660008154811061115d5761115c6129e8565b5b9060005260206000200154600660018154811061117d5761117c6129e8565b5b9060005260206000200154600660028154811061119d5761119c6129e8565b5b90600052602060002001548360040160009054906101000a900460ff168460040160019054906101000a900460ff168560040160029054906101000a900460ff16866001015487600201548860030154995099509950995099509950995099509950509193959799909294969850565b60008060006007600081548110611227576112266129e8565b5b90600052602060002001546007600181548110611247576112466129e8565b5b90600052602060002001546007600281548110611267576112666129e8565b5b9060005260206000200154925092509250909192565b600a60009054906101000a900473ffffffffffffffffffffffffffffffffffffffff1681565b600030905090565b6000600854905090565b3373ffffffffffffffffffffffffffffffffffffffff16600160009054906101000a900473ffffffffffffffffffffffffffffffffffffffff1673ffffffffffffffffffffffffffffffffffffffff1614611345576040517f08c379a000000000000000000000000000000000000000000000000000000000815260040161133c906124bb565b60405180910390fd5b8060088190555050565b3373ffffffffffffffffffffffffffffffffffffffff16600160009054906101000a900473ffffffffffffffffffffffffffffffffffffffff1673ffffffffffffffffffffffffffffffffffffffff16146113df576040517f08c379a00000000000000000000000000000000000000000000000000000000081526004016113d6906124bb565b60405180910390fd5b80600790805190602001906113f5929190611d17565b5050565b6000600954905090565b3373ffffffffffffffffffffffffffffffffffffffff16600160009054906101000a900473ffffffffffffffffffffffffffffffffffffffff1673ffffffffffffffffffffffffffffffffffffffff1614611493576040517f08c379a000000000000000000000000000000000000000000000000000000000815260040161148a906124bb565b60405180910390fd5b80600e60006101000a81548173ffffffffffffffffffffffffffffffffffffffff021916908373ffffffffffffffffffffffffffffffffffffffff16021790555050565b6000600a60009054906101000a900473ffffffffffffffffffffffffffffffffffffffff1673ffffffffffffffffffffffffffffffffffffffff166370a08231306040518263ffffffff1660e01b8152600401611534919061234a565b60206040518083038186803b15801561154c57600080fd5b505afa158015611560573d6000803e3d6000fd5b505050506040513d601f19601f8201168201806040525081019061158491906120aa565b905090565b3373ffffffffffffffffffffffffffffffffffffffff16600160009054906101000a900473ffffffffffffffffffffffffffffffffffffffff1673ffffffffffffffffffffffffffffffffffffffff1614611619576040517f08c379a0000000000000000000000000000000000000000000000000000000008152600401611610906124bb565b60405180910390fd5b600a60009054906101000a900473ffffffffffffffffffffffffffffffffffffffff1673ffffffffffffffffffffffffffffffffffffffff1663a9059cbb33836040518363ffffffff1660e01b8152600401611676929190612365565b602060405180830381600087803b15801561169057600080fd5b505af11580156116a4573d6000803e3d6000fd5b505050506040513d601f19601f820116820180604052508101906116c89190611fa8565b5050565b600c60009054906101000a900473ffffffffffffffffffffffffffffffffffffffff1681565b600042905090565b600080600f600084815260200190815260200160002090506000600185141561175857816005015433878760405160200161173894939291906122fc565b6040516020818303038152906040528051906020012060001c90506117de565b600285141561179c57816006015433878760405160200161177c94939291906122fc565b6040516020818303038152906040528051906020012060001c90506117dd565b60038514156117dc5781600701543387876040516020016117c094939291906122fc565b6040516020818303038152906040528051906020012060001c90505b5b5b600254816117ec9190612959565b925050509392505050565b3373ffffffffffffffffffffffffffffffffffffffff16600160009054906101000a900473ffffffffffffffffffffffffffffffffffffffff1673ffffffffffffffffffffffffffffffffffffffff1614611887576040517f08c379a000000000000000000000000000000000000000000000000000000000815260040161187e906124bb565b60405180910390fd5b8060098190555050565b600080600080600f60008681526020019081526020016000209050806005015481600601548260070154935093509350509193909250565b600b60009054906101000a900473ffffffffffffffffffffffffffffffffffffffff1681565b600f6020528060005260406000206000915090508060000154908060010154908060020154908060030154908060040160009054906101000a900460ff16908060040160019054906101000a900460ff16908060040160029054906101000a900460ff16908060040160039054906101000a900473ffffffffffffffffffffffffffffffffffffffff1690806005015490806006015490806007015490508b565b3373ffffffffffffffffffffffffffffffffffffffff16600160009054906101000a900473ffffffffffffffffffffffffffffffffffffffff1673ffffffffffffffffffffffffffffffffffffffff1614611a20576040517f08c379a0000000000000000000000000000000000000000000000000000000008152600401611a17906124bb565b60405180910390fd5b600a60009054906101000a900473ffffffffffffffffffffffffffffffffffffffff1673ffffffffffffffffffffffffffffffffffffffff1663a9059cbb83836040518363ffffffff1660e01b8152600401611a7d929190612365565b602060405180830381600087803b158015611a9757600080fd5b505af1158015611aab573d6000803e3d6000fd5b505050506040513d601f19601f82011682018060405250810190611acf9190611fa8565b505050565b3373ffffffffffffffffffffffffffffffffffffffff16600160009054906101000a900473ffffffffffffffffffffffffffffffffffffffff1673ffffffffffffffffffffffffffffffffffffffff1614611b64576040517f08c379a0000000000000000000000000000000000000000000000000000000008152600401611b5b906124bb565b60405180910390fd5b8173ffffffffffffffffffffffffffffffffffffffff166108fc829081150290604051600060405180830381858888f19350505050158015611baa573d6000803e3d6000fd5b505050565b600d60009054906101000a900473ffffffffffffffffffffffffffffffffffffffff1681565b60003373ffffffffffffffffffffffffffffffffffffffff16600160009054906101000a900473ffffffffffffffffffffffffffffffffffffffff1673ffffffffffffffffffffffffffffffffffffffff1614611c67576040517f08c379a0000000000000000000000000000000000000000000000000000000008152600401611c5e906124bb565b60405180910390fd5b47905090565b3373ffffffffffffffffffffffffffffffffffffffff16600160009054906101000a900473ffffffffffffffffffffffffffffffffffffffff1673ffffffffffffffffffffffffffffffffffffffff1614611cfd576040517f08c379a0000000000000000000000000000000000000000000000000000000008152600401611cf4906124bb565b60405180910390fd5b8060069080519060200190611d13929190611d17565b5050565b828054828255906000526020600020908101928215611d53579160200282015b82811115611d52578251825591602001919060010190611d37565b5b509050611d609190611d64565b5090565b5b80821115611d7d576000816000905550600101611d65565b5090565b6000611d94611d8f8461272a565b612705565b90508083825260208201905082856020860282011115611db757611db6612a4b565b5b60005b85811015611de75781611dcd8882611e88565b845260208401935060208301925050600181019050611dba565b5050509392505050565b600081359050611e0081612be9565b92915050565b600081359050611e1581612c00565b92915050565b600082601f830112611e3057611e2f612a46565b5b8135611e40848260208601611d81565b91505092915050565b600081519050611e5881612c17565b92915050565b600081359050611e6d81612c2e565b92915050565b600081519050611e8281612c2e565b92915050565b600081359050611e9781612c45565b92915050565b600081519050611eac81612c45565b92915050565b600060208284031215611ec857611ec7612a55565b5b6000611ed684828501611df1565b91505092915050565b60008060408385031215611ef657611ef5612a55565b5b6000611f0485828601611e06565b9250506020611f1585828601611e88565b9150509250929050565b60008060408385031215611f3657611f35612a55565b5b6000611f4485828601611df1565b9250506020611f5585828601611e88565b9150509250929050565b600060208284031215611f7557611f74612a55565b5b600082013567ffffffffffffffff811115611f9357611f92612a50565b5b611f9f84828501611e1b565b91505092915050565b600060208284031215611fbe57611fbd612a55565b5b6000611fcc84828501611e49565b91505092915050565b600060208284031215611feb57611fea612a55565b5b6000611ff984828501611e73565b91505092915050565b600080600080600060a0868803121561201e5761201d612a55565b5b600061202c88828901611e5e565b955050602061203d88828901611e88565b945050604061204e88828901611e88565b935050606061205f88828901611e88565b925050608061207088828901611e88565b9150509295509295909350565b60006020828403121561209357612092612a55565b5b60006120a184828501611e88565b91505092915050565b6000602082840312156120c0576120bf612a55565b5b60006120ce84828501611e9d565b91505092915050565b6000806000606084860312156120f0576120ef612a55565b5b60006120fe86828701611e88565b935050602061210f86828701611e88565b925050604061212086828701611e88565b9150509250925092565b612133816127bd565b82525050565b61214a612145826127bd565b61292b565b82525050565b612159816127e1565b82525050565b61216881612821565b82525050565b61217781612845565b82525050565b61218681612869565b82525050565b6121958161288d565b82525050565b60006121a8600283612756565b91506121b382612a78565b602082019050919050565b60006121cb600283612756565b91506121d682612aa1565b602082019050919050565b60006121ee600283612756565b91506121f982612aca565b602082019050919050565b6000612211600283612756565b915061221c82612af3565b602082019050919050565b6000612234600283612756565b915061223f82612b1c565b602082019050919050565b6000612257600283612756565b915061226282612b45565b602082019050919050565b600061227a600283612756565b915061228582612b6e565b602082019050919050565b600061229d600283612756565b91506122a882612b97565b602082019050919050565b60006122c0600283612756565b91506122cb82612bc0565b602082019050919050565b6122df81612817565b82525050565b6122f66122f182612817565b61294f565b82525050565b600061230882876122e5565b6020820191506123188286612139565b60148201915061232882856122e5565b60208201915061233882846122e5565b60208201915081905095945050505050565b600060208201905061235f600083018461212a565b92915050565b600060408201905061237a600083018561212a565b61238760208301846122d6565b9392505050565b600060c0820190506123a3600083018961212a565b6123b060208301886122d6565b6123bd60408301876122d6565b6123ca60608301866122d6565b6123d760808301856122d6565b6123e460a08301846122d6565b979650505050505050565b6000602082019050612404600083018461215f565b92915050565b600060208201905061241f600083018461216e565b92915050565b600060208201905061243a600083018461217d565b92915050565b6000602082019050612455600083018461218c565b92915050565b600060208201905081810360008301526124748161219b565b9050919050565b60006020820190508181036000830152612494816121be565b9050919050565b600060208201905081810360008301526124b4816121e1565b9050919050565b600060208201905081810360008301526124d481612204565b9050919050565b600060208201905081810360008301526124f481612227565b9050919050565b600060208201905081810360008301526125148161224a565b9050919050565b600060208201905081810360008301526125348161226d565b9050919050565b6000602082019050818103600083015261255481612290565b9050919050565b60006020820190508181036000830152612574816122b3565b9050919050565b600060208201905061259060008301846122d6565b92915050565b60006060820190506125ab60008301866122d6565b6125b860208301856122d6565b6125c560408301846122d6565b949350505050565b6000610120820190506125e3600083018c6122d6565b6125f0602083018b6122d6565b6125fd604083018a6122d6565b61260a6060830189612150565b6126176080830188612150565b61262460a0830187612150565b61263160c08301866122d6565b61263e60e08301856122d6565b61264c6101008301846122d6565b9a9950505050505050505050565b600061016082019050612670600083018e6122d6565b61267d602083018d6122d6565b61268a604083018c6122d6565b612697606083018b6122d6565b6126a4608083018a612150565b6126b160a0830189612150565b6126be60c0830188612150565b6126cb60e083018761212a565b6126d96101008301866122d6565b6126e76101208301856122d6565b6126f56101408301846122d6565b9c9b505050505050505050505050565b600061270f612720565b905061271b82826128b1565b919050565b6000604051905090565b600067ffffffffffffffff82111561274557612744612a17565b5b602082029050602081019050919050565b600082825260208201905092915050565b600061277282612817565b915061277d83612817565b9250827fffffffffffffffffffffffffffffffffffffffffffffffffffffffffffffffff038211156127b2576127b161298a565b5b828201905092915050565b60006127c8826127f7565b9050919050565b60006127da826127f7565b9050919050565b60008115159050919050565b6000819050919050565b600073ffffffffffffffffffffffffffffffffffffffff82169050919050565b6000819050919050565b600061282c82612833565b9050919050565b600061283e826127f7565b9050919050565b600061285082612857565b9050919050565b6000612862826127f7565b9050919050565b60006128748261287b565b9050919050565b6000612886826127f7565b9050919050565b60006128988261289f565b9050919050565b60006128aa826127f7565b9050919050565b6128ba82612a5a565b810181811067ffffffffffffffff821117156128d9576128d8612a17565b5b80604052505050565b60006128ed82612817565b91507fffffffffffffffffffffffffffffffffffffffffffffffffffffffffffffffff8214156129205761291f61298a565b5b600182019050919050565b60006129368261293d565b9050919050565b600061294882612a6b565b9050919050565b6000819050919050565b600061296482612817565b915061296f83612817565b92508261297f5761297e6129b9565b5b828206905092915050565b7f4e487b7100000000000000000000000000000000000000000000000000000000600052601160045260246000fd5b7f4e487b7100000000000000000000000000000000000000000000000000000000600052601260045260246000fd5b7f4e487b7100000000000000000000000000000000000000000000000000000000600052603260045260246000fd5b7f4e487b7100000000000000000000000000000000000000000000000000000000600052604160045260246000fd5b600080fd5b600080fd5b600080fd5b600080fd5b6000601f19601f8301169050919050565b60008160601b9050919050565b7f4e36000000000000000000000000000000000000000000000000000000000000600082015250565b7f4e34000000000000000000000000000000000000000000000000000000000000600082015250565b7f5431000000000000000000000000000000000000000000000000000000000000600082015250565b7f4131000000000000000000000000000000000000000000000000000000000000600082015250565b7f5432000000000000000000000000000000000000000000000000000000000000600082015250565b7f4e33000000000000000000000000000000000000000000000000000000000000600082015250565b7f4e32000000000000000000000000000000000000000000000000000000000000600082015250565b7f4e35000000000000000000000000000000000000000000000000000000000000600082015250565b7f4e31000000000000000000000000000000000000000000000000000000000000600082015250565b612bf2816127bd565b8114612bfd57600080fd5b50565b612c09816127cf565b8114612c1457600080fd5b50565b612c20816127e1565b8114612c2b57600080fd5b50565b612c37816127ed565b8114612c4257600080fd5b50565b612c4e81612817565b8114612c5957600080fd5b5056fea2646970667358221220aa37d60c57a73a4c85975700db34c48d543b81e8a278240990a6e0f0e0db202564736f6c63430008060033",
  "immutableReferences": {},
  "source": "// SPDX-License-Identifier: MIT\r\npragma solidity >=0.4.22 <0.9.0;\r\n\r\nimport \"../node_modules/@openzeppelin/contracts/token/ERC20/IERC20.sol\";\r\nimport \"../node_modules/@openzeppelin/contracts/security/ReentrancyGuard.sol\";\r\nimport \"../contracts/PBTeams.sol\";\r\nimport \"../contracts/PBPvCHelper.sol\";\r\nimport \"../contracts/validator.sol\";\r\n\r\ncontract PBPvCMatchups is ReentrancyGuard {\r\n\r\naddress admin;\r\nuint dnaModulus = 10 ** 16;\r\nuint bellCurveIterations = 4;\r\nuint winToken;\r\nuint lossToken;\r\nuint[] timeoutSeconds;\r\nuint[] reward;\r\nuint xpReward;\r\nuint difficultymod;\r\nIERC20 public buddies;\r\nPBTeams public pbTeams;\r\nPBXP public PBXPToken;\r\nPBPvCHelper public pbPvCHelper;\r\nValidator private validator;\r\n\r\n    struct TeamPvCMatchups {\r\n        uint teamId;\r\n        uint activeTimestamp1;\r\n        uint activeTimestamp2;\r\n        uint activeTimestamp3;\r\n        bool lastMatchWon1;\r\n        bool lastMatchWon2;\r\n        bool lastMatchWon3;\r\n        address ownerAddress;\r\n        uint nonce1;\r\n        uint nonce2;\r\n        uint nonce3;\r\n    }\r\n\r\nconstructor(address _buddiesCoinAddress, address _pbxpAddress, address _pbTeamsAddress, address _pbPvCHelperAddress, uint[] memory _timeoutSeconds, uint[] memory _reward, uint _xpReward, uint _difficultymod){\r\n    admin = msg.sender;\r\n    buddies = IERC20(_buddiesCoinAddress);\r\n    PBXPToken = PBXP(_pbxpAddress);\r\n    pbTeams = PBTeams(_pbTeamsAddress);\r\n    pbPvCHelper = PBPvCHelper(_pbPvCHelperAddress);\r\n    timeoutSeconds = _timeoutSeconds;\r\n    reward = _reward;\r\n    xpReward = _xpReward;\r\n    difficultymod = _difficultymod;\r\n}\r\n\r\nmapping (uint => TeamPvCMatchups) public _teamPvCMatchups;\r\n\r\nmodifier onlyAdmin() {\r\n    require(admin == msg.sender, \"A1\" );\r\n    _;\r\n}\r\n\r\nfunction updateValidator(address _validator) external onlyAdmin {\r\n    validator = Validator(_validator);\r\n}\r\n\r\nfunction getPBPvCMatchupsAddress() public view returns (address){\r\n    return address(this);\r\n}\r\n\r\nfunction getDifficultyMod() public view returns (uint){\r\n    return difficultymod;\r\n}\r\n\r\nfunction updateDifficultyMod(uint _difficultymod) external onlyAdmin {\r\n    difficultymod = _difficultymod;\r\n}\r\n\r\nfunction getBuddiesReward() public view returns (uint, uint, uint){\r\n    return (reward[0], reward[1], reward[2]);\r\n}\r\n\r\nfunction updateBuddiesReward( uint[] memory _reward) external onlyAdmin{\r\n    reward = _reward;\r\n}\r\n\r\nfunction updateTimesOut( uint[] memory _timeoutSeconds) external onlyAdmin {\r\n    timeoutSeconds = _timeoutSeconds;\r\n} \r\n\r\nfunction getPBXPReward() public view returns (uint){\r\n    return xpReward;\r\n}\r\n\r\nfunction updatePBXPReward(uint _xpReward) external onlyAdmin {\r\n    xpReward = _xpReward;\r\n}\r\n\r\nfunction widthdrawBuddiesFromContract(address _widthdrawAddress, uint _amount) external onlyAdmin {\r\n    buddies.transfer(_widthdrawAddress, _amount);\r\n}\r\n\r\nfunction rewardMatchup (bytes32 _token, uint _difficulty, uint _teamId, uint t1S, uint t2S) external {\r\n    TeamPvCMatchups storage teamPvCmatchup = _teamPvCMatchups[_teamId];\r\n    uint matchNonce;\r\n    if(_difficulty == 1){\r\n        matchNonce = teamPvCmatchup.nonce1;\r\n    }else if(_difficulty == 2){\r\n        matchNonce = teamPvCmatchup.nonce2;\r\n    }else if(_difficulty == 3){\r\n        matchNonce = teamPvCmatchup.nonce3;\r\n    }\r\n\r\n    if(t1S > t2S){\r\n        require(_token == validator.validateW(msg.sender, matchNonce, _difficulty, _teamId, t1S, t2S), \"T1\");\r\n\r\n        if(_difficulty == 1){\r\n            require(block.timestamp >= teamPvCmatchup.activeTimestamp1, \"N1\");\r\n            teamPvCmatchup.activeTimestamp1 = block.timestamp + timeoutSeconds[0];\r\n            teamPvCmatchup.lastMatchWon1 = true;\r\n            buddies.transfer(msg.sender, reward[0]);\r\n            PBXPToken.earnPBXP(msg.sender, xpReward);\r\n            teamPvCmatchup.nonce1++;\r\n           \r\n        }else if(_difficulty == 2){\r\n            require(block.timestamp >=  teamPvCmatchup.activeTimestamp2, \"N2\");\r\n            teamPvCmatchup.activeTimestamp2 = block.timestamp + timeoutSeconds[1];\r\n            teamPvCmatchup.lastMatchWon2 = true;\r\n            buddies.transfer(msg.sender, reward[1]);\r\n            PBXPToken.earnPBXP(msg.sender, xpReward);\r\n            teamPvCmatchup.nonce2++;\r\n            \r\n        }else if(_difficulty == 3){\r\n            require(block.timestamp >= teamPvCmatchup.activeTimestamp3, \"N3\");\r\n            teamPvCmatchup.activeTimestamp3 = block.timestamp + timeoutSeconds[2];\r\n            teamPvCmatchup.lastMatchWon3 = true;\r\n            buddies.transfer(msg.sender, reward[2]);\r\n            PBXPToken.earnPBXP(msg.sender, xpReward);\r\n            teamPvCmatchup.nonce3++;\r\n            \r\n        }\r\n\r\n    }else if(t2S > t1S){\r\n        require(_token == validator.validateL(msg.sender, matchNonce, _difficulty, _teamId, t1S, t2S), \"T2\");\r\n\r\n        if(_difficulty == 1){\r\n            require(block.timestamp >= teamPvCmatchup.activeTimestamp1, \"N4\");\r\n            teamPvCmatchup.activeTimestamp1 = block.timestamp + timeoutSeconds[0];\r\n            teamPvCmatchup.lastMatchWon1 = false;\r\n            PBXPToken.earnPBXP(msg.sender, xpReward);\r\n            teamPvCmatchup.nonce1++;\r\n            \r\n        }else if(_difficulty == 2){\r\n            require(block.timestamp >=  teamPvCmatchup.activeTimestamp2, \"N5\");\r\n            teamPvCmatchup.activeTimestamp2 = block.timestamp + timeoutSeconds[1];\r\n            teamPvCmatchup.lastMatchWon2 = false;\r\n            PBXPToken.earnPBXP(msg.sender, xpReward);\r\n            teamPvCmatchup.nonce2++;\r\n            \r\n        }else if(_difficulty == 3){\r\n            require(block.timestamp >= teamPvCmatchup.activeTimestamp3, \"N6\");\r\n            teamPvCmatchup.activeTimestamp3 = block.timestamp + timeoutSeconds[2];\r\n            teamPvCmatchup.lastMatchWon3 = false;\r\n            PBXPToken.earnPBXP(msg.sender, xpReward);\r\n            teamPvCmatchup.nonce3++;\r\n            \r\n        }\r\n    }\r\n}\r\n\r\nfunction generateRandomTeamDNA(uint mod, uint difficulty, uint teamId) public view returns (uint){\r\n    TeamPvCMatchups storage teamPvCmatchup = _teamPvCMatchups[teamId];\r\n    uint rand;\r\n    if(difficulty == 1){\r\n        rand = uint(keccak256(abi.encodePacked(teamPvCmatchup.nonce1, msg.sender, mod, difficulty)));\r\n    }else if(difficulty == 2){\r\n        rand = uint(keccak256(abi.encodePacked(teamPvCmatchup.nonce2, msg.sender, mod, difficulty)));  \r\n    }else if(difficulty == 3){\r\n        rand = uint(keccak256(abi.encodePacked(teamPvCmatchup.nonce3, msg.sender, mod, difficulty)));\r\n    } \r\n    return rand % dnaModulus;\r\n}\r\n\r\nfunction getTimeOuts(uint teamId) public view returns (uint, uint, uint, bool, bool, bool, uint, uint, uint){\r\n    TeamPvCMatchups storage teamPvCmatchup = _teamPvCMatchups[teamId];\r\n    return (timeoutSeconds[0], timeoutSeconds[1], timeoutSeconds[2], teamPvCmatchup.lastMatchWon1, teamPvCmatchup.lastMatchWon2, teamPvCmatchup.lastMatchWon3, teamPvCmatchup.activeTimestamp1, teamPvCmatchup.activeTimestamp2, teamPvCmatchup.activeTimestamp3);\r\n}\r\n\r\nfunction getNoMatchups(uint teamId) public view returns (uint, uint, uint){\r\n    TeamPvCMatchups storage teamPvCmatchup = _teamPvCMatchups[teamId];\r\n    return (teamPvCmatchup.nonce1, teamPvCmatchup.nonce2, teamPvCmatchup.nonce3);\r\n}\r\n\r\nfunction getPvCMatchupsTimestamp() public view returns (uint) {\r\n    return block.timestamp;\r\n}\r\n\r\n    function getBNBBalance() external view onlyAdmin returns (uint) {\r\n        return address(this).balance;\r\n    }\r\n    \r\n    function getBudsBalance() external view returns (uint) {\r\n        return buddies.balanceOf(address(this));\r\n    }\r\n\r\n    function transferBNB(address payable _to, uint _amount) external onlyAdmin {\r\n        _to.transfer(_amount);\r\n    }\r\n\r\n    function transferBUDS(uint _amount) external onlyAdmin {\r\n        buddies.transfer(msg.sender, _amount);\r\n    }\r\n\r\n}\r\n\r\n",
  "sourcePath": "O:\\Projects\\puck-buddies\\contracts\\PBPvCMatchup.sol",
  "compiler": {
    "name": "solc",
    "version": "0.8.6+commit.11564f7e.Emscripten.clang"
  },
  "schemaVersion": "3.4.3",
  "updatedAt": "2022-01-07T21:58:20.262Z",
  "networkType": "ethereum",
  "devdoc": {
    "kind": "dev",
    "methods": {},
    "version": 1
  },
  "userdoc": {
    "kind": "user",
    "methods": {},
    "version": 1
  }
}