{
  "contractName": "PBPvCMatchups",
  "abi": [
    {
      "inputs": [
        {
          "internalType": "address",
          "name": "_buddiesCoinAddress",
          "type": "address"
        },
        {
          "internalType": "address",
          "name": "_pbxpAddress",
          "type": "address"
        },
        {
          "internalType": "address",
          "name": "_pbTeamsAddress",
          "type": "address"
        },
        {
          "internalType": "address",
          "name": "_pbMatchupValidationAddress",
          "type": "address"
        },
        {
          "internalType": "address",
          "name": "_pbPvCHelperAddress",
          "type": "address"
        },
        {
          "internalType": "uint256[]",
          "name": "_timeoutSeconds",
          "type": "uint256[]"
        },
        {
          "internalType": "uint256[]",
          "name": "_reward",
          "type": "uint256[]"
        },
        {
          "internalType": "uint256",
          "name": "_xpReward",
          "type": "uint256"
        },
        {
          "internalType": "uint256",
          "name": "_difficultymod",
          "type": "uint256"
        }
      ],
      "stateMutability": "nonpayable",
      "type": "constructor"
    },
    {
      "anonymous": false,
      "inputs": [
        {
          "indexed": false,
          "internalType": "bool",
          "name": "isWinner",
          "type": "bool"
        },
        {
          "indexed": false,
          "internalType": "uint256",
          "name": "to1",
          "type": "uint256"
        },
        {
          "indexed": false,
          "internalType": "uint256",
          "name": "to2",
          "type": "uint256"
        },
        {
          "indexed": false,
          "internalType": "uint256",
          "name": "to3",
          "type": "uint256"
        }
      ],
      "name": "gamePlayed",
      "type": "event"
    },
    {
      "inputs": [],
      "name": "PBXPToken",
      "outputs": [
        {
          "internalType": "contract PBXP",
          "name": "",
          "type": "address"
        }
      ],
      "stateMutability": "view",
      "type": "function",
      "constant": true
    },
    {
      "inputs": [
        {
          "internalType": "uint256",
          "name": "",
          "type": "uint256"
        }
      ],
      "name": "_teamPvCMatchups",
      "outputs": [
        {
          "internalType": "uint256",
          "name": "teamId",
          "type": "uint256"
        },
        {
          "internalType": "uint256",
          "name": "activeTimestamp1",
          "type": "uint256"
        },
        {
          "internalType": "uint256",
          "name": "activeTimestamp2",
          "type": "uint256"
        },
        {
          "internalType": "uint256",
          "name": "activeTimestamp3",
          "type": "uint256"
        },
        {
          "internalType": "bool",
          "name": "lastMatchWon1",
          "type": "bool"
        },
        {
          "internalType": "bool",
          "name": "lastMatchWon2",
          "type": "bool"
        },
        {
          "internalType": "bool",
          "name": "lastMatchWon3",
          "type": "bool"
        },
        {
          "internalType": "address",
          "name": "ownerAddress",
          "type": "address"
        },
        {
          "internalType": "uint256",
          "name": "nonce1",
          "type": "uint256"
        },
        {
          "internalType": "uint256",
          "name": "nonce2",
          "type": "uint256"
        },
        {
          "internalType": "uint256",
          "name": "nonce3",
          "type": "uint256"
        }
      ],
      "stateMutability": "view",
      "type": "function",
      "constant": true
    },
    {
      "inputs": [],
      "name": "buddies",
      "outputs": [
        {
          "internalType": "contract IERC20",
          "name": "",
          "type": "address"
        }
      ],
      "stateMutability": "view",
      "type": "function",
      "constant": true
    },
    {
      "inputs": [],
      "name": "pbMatchupValidation",
      "outputs": [
        {
          "internalType": "contract PBMatchupValidation",
          "name": "",
          "type": "address"
        }
      ],
      "stateMutability": "view",
      "type": "function",
      "constant": true
    },
    {
      "inputs": [],
      "name": "pbPvCHelper",
      "outputs": [
        {
          "internalType": "contract PBPvCHelper",
          "name": "",
          "type": "address"
        }
      ],
      "stateMutability": "view",
      "type": "function",
      "constant": true
    },
    {
      "inputs": [],
      "name": "pbTeams",
      "outputs": [
        {
          "internalType": "contract PBTeams",
          "name": "",
          "type": "address"
        }
      ],
      "stateMutability": "view",
      "type": "function",
      "constant": true
    },
    {
      "inputs": [],
      "name": "getPBPvCMatchupsAddress",
      "outputs": [
        {
          "internalType": "address",
          "name": "",
          "type": "address"
        }
      ],
      "stateMutability": "view",
      "type": "function",
      "constant": true
    },
    {
      "inputs": [],
      "name": "getDifficultyMod",
      "outputs": [
        {
          "internalType": "uint256",
          "name": "",
          "type": "uint256"
        }
      ],
      "stateMutability": "view",
      "type": "function",
      "constant": true
    },
    {
      "inputs": [
        {
          "internalType": "uint256",
          "name": "_difficultymod",
          "type": "uint256"
        }
      ],
      "name": "updateDifficultyMod",
      "outputs": [],
      "stateMutability": "nonpayable",
      "type": "function"
    },
    {
      "inputs": [],
      "name": "getBuddiesReward",
      "outputs": [
        {
          "internalType": "uint256",
          "name": "",
          "type": "uint256"
        },
        {
          "internalType": "uint256",
          "name": "",
          "type": "uint256"
        },
        {
          "internalType": "uint256",
          "name": "",
          "type": "uint256"
        }
      ],
      "stateMutability": "view",
      "type": "function",
      "constant": true
    },
    {
      "inputs": [
        {
          "internalType": "uint256",
          "name": "r0",
          "type": "uint256"
        },
        {
          "internalType": "uint256",
          "name": "r1",
          "type": "uint256"
        },
        {
          "internalType": "uint256",
          "name": "r2",
          "type": "uint256"
        }
      ],
      "name": "updateBuddiesReward",
      "outputs": [],
      "stateMutability": "nonpayable",
      "type": "function"
    },
    {
      "inputs": [],
      "name": "getPBXPReward",
      "outputs": [
        {
          "internalType": "uint256",
          "name": "",
          "type": "uint256"
        }
      ],
      "stateMutability": "view",
      "type": "function",
      "constant": true
    },
    {
      "inputs": [
        {
          "internalType": "uint256",
          "name": "_xpReward",
          "type": "uint256"
        }
      ],
      "name": "updatePBXPReward",
      "outputs": [],
      "stateMutability": "nonpayable",
      "type": "function"
    },
    {
      "inputs": [
        {
          "internalType": "address",
          "name": "_pbMatchupValidationAddress",
          "type": "address"
        }
      ],
      "name": "updatePBMatchupValidationAddress",
      "outputs": [],
      "stateMutability": "nonpayable",
      "type": "function"
    },
    {
      "inputs": [
        {
          "internalType": "address",
          "name": "_widthdrawAddress",
          "type": "address"
        },
        {
          "internalType": "uint256",
          "name": "_amount",
          "type": "uint256"
        }
      ],
      "name": "widthdrawBuddiesFromContract",
      "outputs": [],
      "stateMutability": "nonpayable",
      "type": "function"
    },
    {
      "inputs": [
        {
          "internalType": "uint256",
          "name": "difficulty",
          "type": "uint256"
        },
        {
          "internalType": "uint256",
          "name": "teamId",
          "type": "uint256"
        },
        {
          "internalType": "uint256[]",
          "name": "playerIds",
          "type": "uint256[]"
        }
      ],
      "name": "hitTheIcePvC",
      "outputs": [
        {
          "internalType": "bool",
          "name": "",
          "type": "bool"
        }
      ],
      "stateMutability": "nonpayable",
      "type": "function"
    },
    {
      "inputs": [
        {
          "internalType": "uint256",
          "name": "mod",
          "type": "uint256"
        },
        {
          "internalType": "uint256",
          "name": "difficulty",
          "type": "uint256"
        },
        {
          "internalType": "uint256",
          "name": "teamId",
          "type": "uint256"
        }
      ],
      "name": "generateRandomTeamDNA",
      "outputs": [
        {
          "internalType": "uint256",
          "name": "",
          "type": "uint256"
        }
      ],
      "stateMutability": "view",
      "type": "function",
      "constant": true
    },
    {
      "inputs": [
        {
          "internalType": "uint256",
          "name": "teamId",
          "type": "uint256"
        }
      ],
      "name": "getTimeOuts",
      "outputs": [
        {
          "internalType": "uint256",
          "name": "",
          "type": "uint256"
        },
        {
          "internalType": "uint256",
          "name": "",
          "type": "uint256"
        },
        {
          "internalType": "uint256",
          "name": "",
          "type": "uint256"
        },
        {
          "internalType": "bool",
          "name": "",
          "type": "bool"
        },
        {
          "internalType": "bool",
          "name": "",
          "type": "bool"
        },
        {
          "internalType": "bool",
          "name": "",
          "type": "bool"
        },
        {
          "internalType": "uint256",
          "name": "",
          "type": "uint256"
        },
        {
          "internalType": "uint256",
          "name": "",
          "type": "uint256"
        },
        {
          "internalType": "uint256",
          "name": "",
          "type": "uint256"
        }
      ],
      "stateMutability": "view",
      "type": "function",
      "constant": true
    },
    {
      "inputs": [],
      "name": "getPvCMatchupsTimestamp",
      "outputs": [
        {
          "internalType": "uint256",
          "name": "",
          "type": "uint256"
        }
      ],
      "stateMutability": "view",
      "type": "function",
      "constant": true
    }
  ],
  "bytecode": "0x608060405261018d6002556101bf6003556000600455662386f26fc1000060055560046006553480156200003257600080fd5b506040516200351b3803806200351b833981810160405281019062000058919062000382565b600160008190555033600160006101000a81548173ffffffffffffffffffffffffffffffffffffffff021916908373ffffffffffffffffffffffffffffffffffffffff16021790555088600b60006101000a81548173ffffffffffffffffffffffffffffffffffffffff021916908373ffffffffffffffffffffffffffffffffffffffff16021790555087600d60006101000a81548173ffffffffffffffffffffffffffffffffffffffff021916908373ffffffffffffffffffffffffffffffffffffffff16021790555086600c60006101000a81548173ffffffffffffffffffffffffffffffffffffffff021916908373ffffffffffffffffffffffffffffffffffffffff16021790555085600e60006101000a81548173ffffffffffffffffffffffffffffffffffffffff021916908373ffffffffffffffffffffffffffffffffffffffff16021790555084600f60006101000a81548173ffffffffffffffffffffffffffffffffffffffff021916908373ffffffffffffffffffffffffffffffffffffffff1602179055508360079080519060200190620001fe92919062000235565b5082600890805190602001906200021792919062000235565b508160098190555080600a81905550505050505050505050620005f3565b82805482825590600052602060002090810192821562000274579160200282015b828111156200027357825182559160200191906001019062000256565b5b50905062000283919062000287565b5090565b5b80821115620002a257600081600090555060010162000288565b5090565b6000620002bd620002b784620004c8565b6200049f565b90508083825260208201905082856020860282011115620002e357620002e26200059f565b5b60005b85811015620003175781620002fc88826200036b565b845260208401935060208301925050600181019050620002e6565b5050509392505050565b6000815190506200033281620005bf565b92915050565b600082601f83011262000350576200034f6200059a565b5b815162000362848260208601620002a6565b91505092915050565b6000815190506200037c81620005d9565b92915050565b60008060008060008060008060006101208a8c031215620003a857620003a7620005a9565b5b6000620003b88c828d0162000321565b9950506020620003cb8c828d0162000321565b9850506040620003de8c828d0162000321565b9750506060620003f18c828d0162000321565b9650506080620004048c828d0162000321565b95505060a08a015167ffffffffffffffff811115620004285762000427620005a4565b5b620004368c828d0162000338565b94505060c08a015167ffffffffffffffff8111156200045a5762000459620005a4565b5b620004688c828d0162000338565b93505060e06200047b8c828d016200036b565b9250506101006200048f8c828d016200036b565b9150509295985092959850929598565b6000620004ab620004be565b9050620004b9828262000535565b919050565b6000604051905090565b600067ffffffffffffffff821115620004e657620004e56200056b565b5b602082029050602081019050919050565b600062000504826200050b565b9050919050565b600073ffffffffffffffffffffffffffffffffffffffff82169050919050565b6000819050919050565b6200054082620005ae565b810181811067ffffffffffffffff821117156200056257620005616200056b565b5b80604052505050565b7f4e487b7100000000000000000000000000000000000000000000000000000000600052604160045260246000fd5b600080fd5b600080fd5b600080fd5b600080fd5b6000601f19601f8301169050919050565b620005ca81620004f7565b8114620005d657600080fd5b50565b620005e4816200052b565b8114620005f057600080fd5b50565b612f1880620006036000396000f3fe608060405234801561001057600080fd5b50600436106101215760003560e01c806367d16a7b116100ad578063b791841a11610071578063b791841a14610304578063e00c01c514610320578063e245c22d1461033e578063e9992a7814610378578063f15e0e9c1461039457610121565b806367d16a7b1461026057806389bf0f0d1461027c57806397ede52514610298578063a6eaa2a3146102b6578063b4fad1ff146102d457610121565b80634a594c12116100f45780634a594c12146101cc57806351171af2146101ea578063532195bb1461020857806353b7a2e21461022657806362170b711461024257610121565b80632071a7fb146101265780632a73e6561461015e57806346904c461461017c57806347a69777146101ac575b600080fd5b610140600480360381019061013b91906122a6565b6103b2565b6040516101559998979695949392919061283d565b60405180910390f35b61016661049b565b6040516101739190612681565b60405180910390f35b61019660048036038101906101919190612300565b6104c1565b6040516101a39190612606565b60405180910390f35b6101b46118b4565b6040516101c393929190612806565b60405180910390f35b6101d4611924565b6040516101e19190612666565b60405180910390f35b6101f261194a565b6040516101ff91906125c2565b60405180910390f35b610210611952565b60405161021d919061274d565b60405180910390f35b610240600480360381019061023b91906122a6565b61195c565b005b61024a6119f6565b604051610257919061274d565b60405180910390f35b61027a6004803603810190610275919061236f565b611a00565b005b610296600480360381019061029191906121de565b611b01565b005b6102a0611bd5565b6040516102ad91906126d2565b60405180910390f35b6102be611bfb565b6040516102cb919061274d565b60405180910390f35b6102ee60048036038101906102e9919061236f565b611c03565b6040516102fb919061274d565b60405180910390f35b61031e600480360381019061031991906122a6565b611d00565b005b610328611d9a565b60405161033591906126b7565b60405180910390f35b610358600480360381019061035391906122a6565b611dc0565b60405161036f9b9a9998979695949392919061290f565b60405180910390f35b610392600480360381019061038d919061220b565b611e61565b005b61039c611fa5565b6040516103a9919061269c565b60405180910390f35b600080600080600080600080600080601060008c8152602001908152602001600020905060076000815481106103eb576103ea612d8d565b5b9060005260206000200154600760018154811061040b5761040a612d8d565b5b9060005260206000200154600760028154811061042b5761042a612d8d565b5b90600052602060002001548360040160009054906101000a900460ff168460040160019054906101000a900460ff168560040160029054906101000a900460ff16866001015487600201548860030154995099509950995099509950995099509950509193959799909294969850565b600e60009054906101000a900473ffffffffffffffffffffffffffffffffffffffff1681565b600060011515600e60009054906101000a900473ffffffffffffffffffffffffffffffffffffffff1673ffffffffffffffffffffffffffffffffffffffff166332dae57285856040518363ffffffff1660e01b8152600401610524929190612768565b60206040518083038186803b15801561053c57600080fd5b505afa158015610550573d6000803e3d6000fd5b505050506040513d601f19601f82011682018060405250810190610574919061224b565b1515146105b6576040517f08c379a00000000000000000000000000000000000000000000000000000000081526004016105ad906126ed565b60405180910390fd5b6000601060008581526020019081526020016000209050600c60009054906101000a900473ffffffffffffffffffffffffffffffffffffffff1673ffffffffffffffffffffffffffffffffffffffff1663c1e03728856040518263ffffffff1660e01b8152600401610628919061274d565b6101606040518083038186803b15801561064157600080fd5b505afa158015610655573d6000803e3d6000fd5b505050506040513d601f19601f820116820180604052508101906106799190612278565b61014001518160040160036101000a81548173ffffffffffffffffffffffffffffffffffffffff021916908373ffffffffffffffffffffffffffffffffffffffff1602179055503373ffffffffffffffffffffffffffffffffffffffff168160040160039054906101000a900473ffffffffffffffffffffffffffffffffffffffff1673ffffffffffffffffffffffffffffffffffffffff1614610752576040517f08c379a00000000000000000000000000000000000000000000000000000000081526004016107499061270d565b60405180910390fd5b6000600c60009054906101000a900473ffffffffffffffffffffffffffffffffffffffff1673ffffffffffffffffffffffffffffffffffffffff1663c1e03728866040518263ffffffff1660e01b81526004016107af919061274d565b6101606040518083038186803b1580156107c857600080fd5b505afa1580156107dc573d6000803e3d6000fd5b505050506040513d601f19601f820116820180604052508101906108009190612278565b6040015190506000600c60009054906101000a900473ffffffffffffffffffffffffffffffffffffffff1673ffffffffffffffffffffffffffffffffffffffff1663c1e03728876040518263ffffffff1660e01b8152600401610863919061274d565b6101606040518083038186803b15801561087c57600080fd5b505afa158015610890573d6000803e3d6000fd5b505050506040513d601f19601f820116820180604052508101906108b49190612278565b606001519050600080600060018a1415610a3557600f60009054906101000a900473ffffffffffffffffffffffffffffffffffffffff1673ffffffffffffffffffffffffffffffffffffffff1663c056e32f600a548c60016040518463ffffffff1660e01b815260040161092a93929190612798565b60206040518083038186803b15801561094257600080fd5b505afa158015610956573d6000803e3d6000fd5b505050506040513d601f19601f8201168201806040525081019061097a91906122d3565b9250600f60009054906101000a900473ffffffffffffffffffffffffffffffffffffffff1673ffffffffffffffffffffffffffffffffffffffff1663c056e32f600a548c60026040518463ffffffff1660e01b81526004016109de939291906127cf565b60206040518083038186803b1580156109f657600080fd5b505afa158015610a0a573d6000803e3d6000fd5b505050506040513d601f19601f82011682018060405250810190610a2e91906122d3565b9150610d7f565b60028a1415610bdb57600f60009054906101000a900473ffffffffffffffffffffffffffffffffffffffff1673ffffffffffffffffffffffffffffffffffffffff1663c056e32f600a600f600a54610a8d9190612adc565b610a979190612aab565b8c60016040518463ffffffff1660e01b8152600401610ab893929190612798565b60206040518083038186803b158015610ad057600080fd5b505afa158015610ae4573d6000803e3d6000fd5b505050506040513d601f19601f82011682018060405250810190610b0891906122d3565b9250600f60009054906101000a900473ffffffffffffffffffffffffffffffffffffffff1673ffffffffffffffffffffffffffffffffffffffff1663c056e32f600a600f600a54610b599190612adc565b610b639190612aab565b8c60026040518463ffffffff1660e01b8152600401610b84939291906127cf565b60206040518083038186803b158015610b9c57600080fd5b505afa158015610bb0573d6000803e3d6000fd5b505050506040513d601f19601f82011682018060405250810190610bd491906122d3565b9150610d7e565b60038a1415610d7d57600f60009054906101000a900473ffffffffffffffffffffffffffffffffffffffff1673ffffffffffffffffffffffffffffffffffffffff1663c056e32f600a6014600a54610c339190612adc565b610c3d9190612aab565b8c60016040518463ffffffff1660e01b8152600401610c5e93929190612798565b60206040518083038186803b158015610c7657600080fd5b505afa158015610c8a573d6000803e3d6000fd5b505050506040513d601f19601f82011682018060405250810190610cae91906122d3565b9250600f60009054906101000a900473ffffffffffffffffffffffffffffffffffffffff1673ffffffffffffffffffffffffffffffffffffffff1663c056e32f600a6014600a54610cff9190612adc565b610d099190612aab565b8c60026040518463ffffffff1660e01b8152600401610d2a939291906127cf565b60206040518083038186803b158015610d4257600080fd5b505afa158015610d56573d6000803e3d6000fd5b505050506040513d601f19601f82011682018060405250810190610d7a91906122d3565b91505b5b5b60018a1415610e07578560010154421015610dcf576040517f08c379a0000000000000000000000000000000000000000000000000000000008152600401610dc69061272d565b60405180910390fd5b6007600081548110610de457610de3612d8d565b5b906000526020600020015442610dfa9190612a55565b8660010181905550610f15565b60028a1415610e8f578560020154421015610e57576040517f08c379a0000000000000000000000000000000000000000000000000000000008152600401610e4e9061272d565b60405180910390fd5b6007600181548110610e6c57610e6b612d8d565b5b906000526020600020015442610e829190612a55565b8660020181905550610f14565b60038a1415610f13578560030154421015610edf576040517f08c379a0000000000000000000000000000000000000000000000000000000008152600401610ed69061272d565b60405180910390fd5b6007600281548110610ef457610ef3612d8d565b5b906000526020600020015442610f0a9190612a55565b86600301819055505b5b5b6000600f60009054906101000a900473ffffffffffffffffffffffffffffffffffffffff1673ffffffffffffffffffffffffffffffffffffffff166363bf69ec878787876040518563ffffffff1660e01b8152600401610f7894939291906128ca565b60206040518083038186803b158015610f9057600080fd5b505afa158015610fa4573d6000803e3d6000fd5b505050506040513d601f19601f82011682018060405250810190610fc891906122d3565b90506000600f60009054906101000a900473ffffffffffffffffffffffffffffffffffffffff1673ffffffffffffffffffffffffffffffffffffffff16631dbe2e0e6040518163ffffffff1660e01b815260040160206040518083038186803b15801561103457600080fd5b505afa158015611048573d6000803e3d6000fd5b505050506040513d601f19601f8201168201806040525081019061106c91906122d3565b905081811161159b5760018c141561121a5760018860040160006101000a81548160ff021916908315150217905550600b60009054906101000a900473ffffffffffffffffffffffffffffffffffffffff1673ffffffffffffffffffffffffffffffffffffffff1663a9059cbb3360086000815481106110ef576110ee612d8d565b5b90600052602060002001546040518363ffffffff1660e01b81526004016111179291906125dd565b602060405180830381600087803b15801561113157600080fd5b505af1158015611145573d6000803e3d6000fd5b505050506040513d601f19601f82011682018060405250810190611169919061224b565b50600d60009054906101000a900473ffffffffffffffffffffffffffffffffffffffff1673ffffffffffffffffffffffffffffffffffffffff1663c43df89a336009546040518363ffffffff1660e01b81526004016111c99291906125dd565b600060405180830381600087803b1580156111e357600080fd5b505af11580156111f7573d6000803e3d6000fd5b5050505087600501600081548092919061121090612c87565b9190505550611592565b60028c14156113d75760018860040160016101000a81548160ff021916908315150217905550600b60009054906101000a900473ffffffffffffffffffffffffffffffffffffffff1673ffffffffffffffffffffffffffffffffffffffff1663a9059cbb33600860018154811061129457611293612d8d565b5b90600052602060002001546040518363ffffffff1660e01b81526004016112bc9291906125dd565b602060405180830381600087803b1580156112d657600080fd5b505af11580156112ea573d6000803e3d6000fd5b505050506040513d601f19601f8201168201806040525081019061130e919061224b565b50600d60009054906101000a900473ffffffffffffffffffffffffffffffffffffffff1673ffffffffffffffffffffffffffffffffffffffff1663c43df89a33600a600f60095461135f9190612adc565b6113699190612aab565b6040518363ffffffff1660e01b81526004016113869291906125dd565b600060405180830381600087803b1580156113a057600080fd5b505af11580156113b4573d6000803e3d6000fd5b505050508760060160008154809291906113cd90612c87565b9190505550611591565b60038c14156115905760018860040160026101000a81548160ff021916908315150217905550600b60009054906101000a900473ffffffffffffffffffffffffffffffffffffffff1673ffffffffffffffffffffffffffffffffffffffff1663a9059cbb33600860028154811061145157611450612d8d565b5b90600052602060002001546040518363ffffffff1660e01b81526004016114799291906125dd565b602060405180830381600087803b15801561149357600080fd5b505af11580156114a7573d6000803e3d6000fd5b505050506040513d601f19601f820116820180604052508101906114cb919061224b565b50600d60009054906101000a900473ffffffffffffffffffffffffffffffffffffffff1673ffffffffffffffffffffffffffffffffffffffff1663c43df89a33600a601460095461151c9190612adc565b6115269190612aab565b6040518363ffffffff1660e01b81526004016115439291906125dd565b600060405180830381600087803b15801561155d57600080fd5b505af1158015611571573d6000803e3d6000fd5b5050505087600701600081548092919061158a90612c87565b91905055505b5b5b60019250611859565b818111156118585760018c14156116795760008860040160006101000a81548160ff021916908315150217905550600d60009054906101000a900473ffffffffffffffffffffffffffffffffffffffff1673ffffffffffffffffffffffffffffffffffffffff1663c43df89a336009546040518363ffffffff1660e01b81526004016116289291906125dd565b600060405180830381600087803b15801561164257600080fd5b505af1158015611656573d6000803e3d6000fd5b5050505087600501600081548092919061166f90612c87565b9190505550611853565b60028c14156117675760008860040160016101000a81548160ff021916908315150217905550600d60009054906101000a900473ffffffffffffffffffffffffffffffffffffffff1673ffffffffffffffffffffffffffffffffffffffff1663c43df89a33600a600f6009546116ef9190612adc565b6116f99190612aab565b6040518363ffffffff1660e01b81526004016117169291906125dd565b600060405180830381600087803b15801561173057600080fd5b505af1158015611744573d6000803e3d6000fd5b5050505087600601600081548092919061175d90612c87565b9190505550611852565b60038c14156118515760008860040160026101000a81548160ff021916908315150217905550600d60009054906101000a900473ffffffffffffffffffffffffffffffffffffffff1673ffffffffffffffffffffffffffffffffffffffff1663c43df89a33600a60146009546117dd9190612adc565b6117e79190612aab565b6040518363ffffffff1660e01b81526004016118049291906125dd565b600060405180830381600087803b15801561181e57600080fd5b505af1158015611832573d6000803e3d6000fd5b5050505087600701600081548092919061184b90612c87565b91905055505b5b5b600092505b5b7fb81d2d6f8c54034d2342369b856d110a09963e04a29cd80af87cd489b48c223a8389600101548a600201548b6003015460405161189a9493929190612621565b60405180910390a182985050505050505050509392505050565b600080600060086000815481106118ce576118cd612d8d565b5b906000526020600020015460086001815481106118ee576118ed612d8d565b5b9060005260206000200154600860028154811061190e5761190d612d8d565b5b9060005260206000200154925092509250909192565b600b60009054906101000a900473ffffffffffffffffffffffffffffffffffffffff1681565b600030905090565b6000600954905090565b3373ffffffffffffffffffffffffffffffffffffffff16600160009054906101000a900473ffffffffffffffffffffffffffffffffffffffff1673ffffffffffffffffffffffffffffffffffffffff16146119ec576040517f08c379a00000000000000000000000000000000000000000000000000000000081526004016119e39061270d565b60405180910390fd5b8060098190555050565b6000600a54905090565b3373ffffffffffffffffffffffffffffffffffffffff16600160009054906101000a900473ffffffffffffffffffffffffffffffffffffffff1673ffffffffffffffffffffffffffffffffffffffff1614611a90576040517f08c379a0000000000000000000000000000000000000000000000000000000008152600401611a879061270d565b60405180910390fd5b826008600081548110611aa657611aa5612d8d565b5b9060005260206000200181905550816008600181548110611aca57611ac9612d8d565b5b9060005260206000200181905550806008600281548110611aee57611aed612d8d565b5b9060005260206000200181905550505050565b3373ffffffffffffffffffffffffffffffffffffffff16600160009054906101000a900473ffffffffffffffffffffffffffffffffffffffff1673ffffffffffffffffffffffffffffffffffffffff1614611b91576040517f08c379a0000000000000000000000000000000000000000000000000000000008152600401611b889061270d565b60405180910390fd5b80600e60006101000a81548173ffffffffffffffffffffffffffffffffffffffff021916908373ffffffffffffffffffffffffffffffffffffffff16021790555050565b600d60009054906101000a900473ffffffffffffffffffffffffffffffffffffffff1681565b600042905090565b60008060106000848152602001908152602001600020905060006001851415611c61578160050154338787604051602001611c419493929190612574565b6040516020818303038152906040528051906020012060001c9050611ce7565b6002851415611ca5578160060154338787604051602001611c859493929190612574565b6040516020818303038152906040528051906020012060001c9050611ce6565b6003851415611ce5578160070154338787604051602001611cc99493929190612574565b6040516020818303038152906040528051906020012060001c90505b5b5b60055481611cf59190612cfe565b925050509392505050565b3373ffffffffffffffffffffffffffffffffffffffff16600160009054906101000a900473ffffffffffffffffffffffffffffffffffffffff1673ffffffffffffffffffffffffffffffffffffffff1614611d90576040517f08c379a0000000000000000000000000000000000000000000000000000000008152600401611d879061270d565b60405180910390fd5b80600a8190555050565b600c60009054906101000a900473ffffffffffffffffffffffffffffffffffffffff1681565b60106020528060005260406000206000915090508060000154908060010154908060020154908060030154908060040160009054906101000a900460ff16908060040160019054906101000a900460ff16908060040160029054906101000a900460ff16908060040160039054906101000a900473ffffffffffffffffffffffffffffffffffffffff1690806005015490806006015490806007015490508b565b3373ffffffffffffffffffffffffffffffffffffffff16600160009054906101000a900473ffffffffffffffffffffffffffffffffffffffff1673ffffffffffffffffffffffffffffffffffffffff1614611ef1576040517f08c379a0000000000000000000000000000000000000000000000000000000008152600401611ee89061270d565b60405180910390fd5b600b60009054906101000a900473ffffffffffffffffffffffffffffffffffffffff1673ffffffffffffffffffffffffffffffffffffffff1663a9059cbb83836040518363ffffffff1660e01b8152600401611f4e9291906125dd565b602060405180830381600087803b158015611f6857600080fd5b505af1158015611f7c573d6000803e3d6000fd5b505050506040513d601f19601f82011682018060405250810190611fa0919061224b565b505050565b600f60009054906101000a900473ffffffffffffffffffffffffffffffffffffffff1681565b6000611fde611fd9846129df565b6129ba565b9050808382526020820190508285602086028201111561200157612000612df5565b5b60005b85811015612031578161201788826121b4565b845260208401935060208301925050600181019050612004565b5050509392505050565b60008135905061204a81612e9d565b92915050565b60008151905061205f81612e9d565b92915050565b600082601f83011261207a57612079612deb565b5b813561208a848260208601611fcb565b91505092915050565b6000815190506120a281612eb4565b92915050565b600061016082840312156120bf576120be612df0565b5b6120ca6101606129ba565b905060006120da848285016121c9565b60008301525060206120ee848285016121c9565b6020830152506040612102848285016121c9565b6040830152506060612116848285016121c9565b606083015250608061212a848285016121c9565b60808301525060a061213e848285016121c9565b60a08301525060c0612152848285016121c9565b60c08301525060e061216684828501612093565b60e08301525061010061217b84828501612093565b6101008301525061012061219184828501612093565b610120830152506101406121a784828501612050565b6101408301525092915050565b6000813590506121c381612ecb565b92915050565b6000815190506121d881612ecb565b92915050565b6000602082840312156121f4576121f3612dff565b5b60006122028482850161203b565b91505092915050565b6000806040838503121561222257612221612dff565b5b60006122308582860161203b565b9250506020612241858286016121b4565b9150509250929050565b60006020828403121561226157612260612dff565b5b600061226f84828501612093565b91505092915050565b6000610160828403121561228f5761228e612dff565b5b600061229d848285016120a8565b91505092915050565b6000602082840312156122bc576122bb612dff565b5b60006122ca848285016121b4565b91505092915050565b6000602082840312156122e9576122e8612dff565b5b60006122f7848285016121c9565b91505092915050565b60008060006060848603121561231957612318612dff565b5b6000612327868287016121b4565b9350506020612338868287016121b4565b925050604084013567ffffffffffffffff81111561235957612358612dfa565b5b61236586828701612065565b9150509250925092565b60008060006060848603121561238857612387612dff565b5b6000612396868287016121b4565b93505060206123a7868287016121b4565b92505060406123b8868287016121b4565b9150509250925092565b60006123ce838361253f565b60208301905092915050565b6123e381612b36565b82525050565b6123fa6123f582612b36565b612cd0565b82525050565b600061240b82612a1b565b6124158185612a33565b935061242083612a0b565b8060005b8381101561245157815161243888826123c2565b975061244383612a26565b925050600181019050612424565b5085935050505092915050565b61246781612b48565b82525050565b61247681612b7e565b82525050565b61248581612ba2565b82525050565b61249481612bc6565b82525050565b6124a381612bea565b82525050565b6124b281612c0e565b82525050565b6124c181612c32565b82525050565b6124d081612c44565b82525050565b60006124e3600283612a44565b91506124ee82612e22565b602082019050919050565b6000612506600283612a44565b915061251182612e4b565b602082019050919050565b6000612529600283612a44565b915061253482612e74565b602082019050919050565b61254881612b74565b82525050565b61255781612b74565b82525050565b61256e61256982612b74565b612cf4565b82525050565b6000612580828761255d565b60208201915061259082866123e9565b6014820191506125a0828561255d565b6020820191506125b0828461255d565b60208201915081905095945050505050565b60006020820190506125d760008301846123da565b92915050565b60006040820190506125f260008301856123da565b6125ff602083018461254e565b9392505050565b600060208201905061261b600083018461245e565b92915050565b6000608082019050612636600083018761245e565b612643602083018661254e565b612650604083018561254e565b61265d606083018461254e565b95945050505050565b600060208201905061267b600083018461246d565b92915050565b6000602082019050612696600083018461247c565b92915050565b60006020820190506126b1600083018461248b565b92915050565b60006020820190506126cc600083018461249a565b92915050565b60006020820190506126e760008301846124a9565b92915050565b60006020820190508181036000830152612706816124d6565b9050919050565b60006020820190508181036000830152612726816124f9565b9050919050565b600060208201905081810360008301526127468161251c565b9050919050565b6000602082019050612762600083018461254e565b92915050565b600060408201905061277d600083018561254e565b818103602083015261278f8184612400565b90509392505050565b60006060820190506127ad600083018661254e565b6127ba602083018561254e565b6127c760408301846124b8565b949350505050565b60006060820190506127e4600083018661254e565b6127f1602083018561254e565b6127fe60408301846124c7565b949350505050565b600060608201905061281b600083018661254e565b612828602083018561254e565b612835604083018461254e565b949350505050565b600061012082019050612853600083018c61254e565b612860602083018b61254e565b61286d604083018a61254e565b61287a606083018961245e565b612887608083018861245e565b61289460a083018761245e565b6128a160c083018661254e565b6128ae60e083018561254e565b6128bc61010083018461254e565b9a9950505050505050505050565b60006080820190506128df600083018761254e565b6128ec602083018661254e565b6128f9604083018561254e565b612906606083018461254e565b95945050505050565b600061016082019050612925600083018e61254e565b612932602083018d61254e565b61293f604083018c61254e565b61294c606083018b61254e565b612959608083018a61245e565b61296660a083018961245e565b61297360c083018861245e565b61298060e08301876123da565b61298e61010083018661254e565b61299c61012083018561254e565b6129aa61014083018461254e565b9c9b505050505050505050505050565b60006129c46129d5565b90506129d08282612c56565b919050565b6000604051905090565b600067ffffffffffffffff8211156129fa576129f9612dbc565b5b602082029050602081019050919050565b6000819050602082019050919050565b600081519050919050565b6000602082019050919050565b600082825260208201905092915050565b600082825260208201905092915050565b6000612a6082612b74565b9150612a6b83612b74565b9250827fffffffffffffffffffffffffffffffffffffffffffffffffffffffffffffffff03821115612aa057612a9f612d2f565b5b828201905092915050565b6000612ab682612b74565b9150612ac183612b74565b925082612ad157612ad0612d5e565b5b828204905092915050565b6000612ae782612b74565b9150612af283612b74565b9250817fffffffffffffffffffffffffffffffffffffffffffffffffffffffffffffffff0483118215151615612b2b57612b2a612d2f565b5b828202905092915050565b6000612b4182612b54565b9050919050565b60008115159050919050565b600073ffffffffffffffffffffffffffffffffffffffff82169050919050565b6000819050919050565b6000612b8982612b90565b9050919050565b6000612b9b82612b54565b9050919050565b6000612bad82612bb4565b9050919050565b6000612bbf82612b54565b9050919050565b6000612bd182612bd8565b9050919050565b6000612be382612b54565b9050919050565b6000612bf582612bfc565b9050919050565b6000612c0782612b54565b9050919050565b6000612c1982612c20565b9050919050565b6000612c2b82612b54565b9050919050565b6000612c3d82612b74565b9050919050565b6000612c4f82612b74565b9050919050565b612c5f82612e04565b810181811067ffffffffffffffff82111715612c7e57612c7d612dbc565b5b80604052505050565b6000612c9282612b74565b91507fffffffffffffffffffffffffffffffffffffffffffffffffffffffffffffffff821415612cc557612cc4612d2f565b5b600182019050919050565b6000612cdb82612ce2565b9050919050565b6000612ced82612e15565b9050919050565b6000819050919050565b6000612d0982612b74565b9150612d1483612b74565b925082612d2457612d23612d5e565b5b828206905092915050565b7f4e487b7100000000000000000000000000000000000000000000000000000000600052601160045260246000fd5b7f4e487b7100000000000000000000000000000000000000000000000000000000600052601260045260246000fd5b7f4e487b7100000000000000000000000000000000000000000000000000000000600052603260045260246000fd5b7f4e487b7100000000000000000000000000000000000000000000000000000000600052604160045260246000fd5b600080fd5b600080fd5b600080fd5b600080fd5b600080fd5b6000601f19601f8301169050919050565b60008160601b9050919050565b7f4e36000000000000000000000000000000000000000000000000000000000000600082015250565b7f4131000000000000000000000000000000000000000000000000000000000000600082015250565b7f4e31000000000000000000000000000000000000000000000000000000000000600082015250565b612ea681612b36565b8114612eb157600080fd5b50565b612ebd81612b48565b8114612ec857600080fd5b50565b612ed481612b74565b8114612edf57600080fd5b5056fea2646970667358221220a61ded4b82a7943222af5fb2d46253a52a9cc77ddcd64dc757547fbbfbf4fb6664736f6c63430008060033",
  "immutableReferences": {},
  "source": "// SPDX-License-Identifier: MIT\r\npragma solidity >=0.4.22 <0.9.0;\r\n\r\nimport \"../node_modules/@openzeppelin/contracts/token/ERC20/IERC20.sol\";\r\nimport \"../node_modules/@openzeppelin/contracts/security/ReentrancyGuard.sol\";\r\nimport \"../contracts/PBTeams.sol\";\r\nimport \"../contracts/PBMatchupValidation.sol\";\r\nimport \"../contracts/PBPvCHelper.sol\";\r\n\r\ncontract PBPvCMatchups is ReentrancyGuard {\r\n\r\naddress admin;\r\nuint maxOpScore = 397;\r\nuint maxDpScore = 447;\r\nuint nonce = 0;\r\nuint dnaModulus = 10 ** 16;\r\nuint bellCurveIterations = 4;\r\nuint[] timeoutSeconds;\r\nuint[] reward;\r\nuint xpReward;\r\nuint difficultymod;\r\nIERC20 public buddies;\r\nPBTeams public pbTeams;\r\nPBXP public PBXPToken;\r\nPBMatchupValidation public pbMatchupValidation;\r\nPBPvCHelper public pbPvCHelper;\r\n\r\n    struct TeamPvCMatchups {\r\n        uint teamId;\r\n        uint activeTimestamp1;\r\n        uint activeTimestamp2;\r\n        uint activeTimestamp3;\r\n        bool lastMatchWon1;\r\n        bool lastMatchWon2;\r\n        bool lastMatchWon3;\r\n        address ownerAddress;\r\n        uint nonce1;\r\n        uint nonce2;\r\n        uint nonce3;\r\n    }\r\n\r\nconstructor(address _buddiesCoinAddress, address _pbxpAddress, address _pbTeamsAddress, address _pbMatchupValidationAddress, address _pbPvCHelperAddress, uint[] memory _timeoutSeconds, uint[] memory _reward, uint _xpReward, uint _difficultymod){\r\n    admin = msg.sender;\r\n    buddies = IERC20(_buddiesCoinAddress);\r\n    PBXPToken = PBXP(_pbxpAddress);\r\n    pbTeams = PBTeams(_pbTeamsAddress);\r\n    pbMatchupValidation = PBMatchupValidation(_pbMatchupValidationAddress);\r\n    pbPvCHelper = PBPvCHelper(_pbPvCHelperAddress);\r\n    timeoutSeconds = _timeoutSeconds;\r\n    reward = _reward;\r\n    xpReward = _xpReward;\r\n    difficultymod = _difficultymod;\r\n}\r\n\r\nmapping (uint => TeamPvCMatchups) public _teamPvCMatchups;\r\n\r\n\r\nevent gamePlayed(bool isWinner, uint to1, uint to2, uint to3);\r\n\r\nmodifier onlyAdmin() {\r\n    require(admin == msg.sender, \"A1\" );\r\n    _;\r\n}\r\n\r\nfunction getPBPvCMatchupsAddress() public view returns (address){\r\n    return address(this);\r\n}\r\n\r\nfunction getDifficultyMod() public view returns (uint){\r\n    return difficultymod;\r\n}\r\n\r\nfunction updateDifficultyMod(uint _difficultymod) external onlyAdmin {\r\n    difficultymod = _difficultymod;\r\n}\r\n\r\nfunction getBuddiesReward() public view returns (uint, uint, uint){\r\n    return (reward[0], reward[1], reward[2]);\r\n}\r\n\r\nfunction updateBuddiesReward(uint r0, uint r1, uint r2) external onlyAdmin{\r\n    reward[0] = r0;\r\n    reward[1] = r1;\r\n    reward[2] = r2;\r\n}\r\n\r\nfunction getPBXPReward() public view returns (uint){\r\n    return xpReward;\r\n}\r\n\r\nfunction updatePBXPReward(uint _xpReward) external onlyAdmin {\r\n    xpReward = _xpReward;\r\n}\r\n\r\nfunction updatePBMatchupValidationAddress(address _pbMatchupValidationAddress) external onlyAdmin {\r\n        pbMatchupValidation = PBMatchupValidation(_pbMatchupValidationAddress);\r\n}\r\n\r\nfunction widthdrawBuddiesFromContract(address _widthdrawAddress, uint _amount) external onlyAdmin {\r\n    buddies.transfer(_widthdrawAddress, _amount);\r\n}\r\n\r\n\r\nfunction hitTheIcePvC(uint difficulty, uint teamId, uint[] memory playerIds) external returns (bool){\r\n    require(pbMatchupValidation.varifyPlayerAgesOnTeam(teamId, playerIds) == true, \"N6\");\r\n    TeamPvCMatchups storage teamPvCmatchup = _teamPvCMatchups[teamId];\r\n    teamPvCmatchup.ownerAddress = pbTeams.getTokenDetails(teamId).ownerAddress;\r\n    require(teamPvCmatchup.ownerAddress == msg.sender, \"A1\");\r\n    uint playerOP = pbTeams.getTokenDetails(teamId).teamTotalOP;\r\n    uint playerDP = pbTeams.getTokenDetails(teamId).teamTotalDP;\r\n    uint computerOP;\r\n    uint computerDP;\r\n    bool isWinner;\r\n     if (difficulty == 1){\r\n        computerOP = pbPvCHelper.generateRandomHourlyStat(difficultymod, difficulty, 1);\r\n        computerDP = pbPvCHelper.generateRandomHourlyStat(difficultymod, difficulty, 2);\r\n    }else if(difficulty == 2){\r\n        computerOP = pbPvCHelper.generateRandomHourlyStat(((difficultymod * 15)/10), difficulty, 1);\r\n        computerDP = pbPvCHelper.generateRandomHourlyStat(((difficultymod * 15)/10), difficulty, 2);\r\n    }else if(difficulty == 3){\r\n        computerOP = pbPvCHelper.generateRandomHourlyStat(((difficultymod * 20)/10), difficulty, 1);\r\n        computerDP = pbPvCHelper.generateRandomHourlyStat(((difficultymod * 20)/10), difficulty, 2);\r\n    }\r\n    \r\n    //require(pbPvCHelper.checkGeneratedStats(difficulty,computerOP,computerDP) == true,\"N8\");\r\n    \r\n    if(difficulty == 1){\r\n        require(block.timestamp >= teamPvCmatchup.activeTimestamp1, \"N1\");\r\n        teamPvCmatchup.activeTimestamp1 = block.timestamp + timeoutSeconds[0];\r\n    }else if(difficulty == 2){\r\n        require(block.timestamp >=  teamPvCmatchup.activeTimestamp2, \"N1\");\r\n        teamPvCmatchup.activeTimestamp2 = block.timestamp + timeoutSeconds[1];\r\n    }else if(difficulty == 3){\r\n        require(block.timestamp >= teamPvCmatchup.activeTimestamp3, \"N1\");\r\n        teamPvCmatchup.activeTimestamp3 = block.timestamp + timeoutSeconds[2];\r\n    }\r\n    uint winningBP = pbPvCHelper.getWinningBP(playerOP, playerDP, computerOP, computerDP);\r\n    uint randResult = pbPvCHelper.generateResult();\r\n     \r\n    if(randResult <= winningBP){\r\n    \r\n    if(difficulty == 1){\r\n            teamPvCmatchup.lastMatchWon1 = true;\r\n            buddies.transfer(msg.sender, reward[0]);\r\n            PBXPToken.earnPBXP(msg.sender, xpReward);\r\n            teamPvCmatchup.nonce1++;\r\n        }else if(difficulty == 2){\r\n            teamPvCmatchup.lastMatchWon2 = true;\r\n            buddies.transfer(msg.sender, reward[1]);\r\n            PBXPToken.earnPBXP(msg.sender, ((xpReward*15)/10));\r\n            teamPvCmatchup.nonce2++;\r\n        }else if(difficulty == 3){\r\n            teamPvCmatchup.lastMatchWon3 = true;\r\n            buddies.transfer(msg.sender, reward[2]);\r\n            PBXPToken.earnPBXP(msg.sender, ((xpReward*20)/10));\r\n            teamPvCmatchup.nonce3++;\r\n        }        \r\n            isWinner = true;\r\n    }else if(randResult > winningBP){\r\n        \r\n        if(difficulty == 1){\r\n            teamPvCmatchup.lastMatchWon1 = false;\r\n            PBXPToken.earnPBXP(msg.sender, xpReward);\r\n            teamPvCmatchup.nonce1++;\r\n        }else if(difficulty == 2){\r\n            teamPvCmatchup.lastMatchWon2 = false;\r\n            PBXPToken.earnPBXP(msg.sender, ((xpReward*15)/10));\r\n            teamPvCmatchup.nonce2++;\r\n        }else if(difficulty == 3){\r\n            teamPvCmatchup.lastMatchWon3 = false;\r\n            PBXPToken.earnPBXP(msg.sender, ((xpReward*20)/10));\r\n            teamPvCmatchup.nonce3++;\r\n        }  \r\n            isWinner = false;\r\n    }\r\n    emit gamePlayed(isWinner,teamPvCmatchup.activeTimestamp1,teamPvCmatchup.activeTimestamp2,teamPvCmatchup.activeTimestamp3);\r\n    return isWinner;\r\n}\r\n\r\nfunction generateRandomTeamDNA(uint mod, uint difficulty, uint teamId) public view returns (uint){\r\n    TeamPvCMatchups storage teamPvCmatchup = _teamPvCMatchups[teamId];\r\n    uint rand;\r\n    if(difficulty == 1){\r\n        rand = uint(keccak256(abi.encodePacked(teamPvCmatchup.nonce1, msg.sender, mod, difficulty)));\r\n    }else if(difficulty == 2){\r\n        rand = uint(keccak256(abi.encodePacked(teamPvCmatchup.nonce2, msg.sender, mod, difficulty)));  \r\n    }else if(difficulty == 3){\r\n        rand = uint(keccak256(abi.encodePacked(teamPvCmatchup.nonce3, msg.sender, mod, difficulty)));\r\n    } \r\n    return rand % dnaModulus;\r\n}\r\n\r\nfunction getTimeOuts(uint teamId) public view returns (uint, uint, uint, bool, bool, bool, uint, uint, uint){\r\n    TeamPvCMatchups storage teamPvCmatchup = _teamPvCMatchups[teamId];\r\n    return (timeoutSeconds[0], timeoutSeconds[1], timeoutSeconds[2], teamPvCmatchup.lastMatchWon1, teamPvCmatchup.lastMatchWon2, teamPvCmatchup.lastMatchWon3, teamPvCmatchup.activeTimestamp1, teamPvCmatchup.activeTimestamp2, teamPvCmatchup.activeTimestamp3);\r\n}\r\n\r\nfunction getPvCMatchupsTimestamp() public view returns (uint) {\r\n    return block.timestamp;\r\n}\r\n\r\n}\r\n\r\n",
  "sourcePath": "O:\\Projects\\puck-buddies\\contracts\\PBPvCMatchup.sol",
  "compiler": {
    "name": "solc",
    "version": "0.8.6+commit.11564f7e.Emscripten.clang"
  },
  "schemaVersion": "3.4.3",
  "updatedAt": "2021-11-09T06:05:32.665Z",
  "networkType": "ethereum",
  "devdoc": {
    "kind": "dev",
    "methods": {},
    "version": 1
  },
  "userdoc": {
    "kind": "user",
    "methods": {},
    "version": 1
  }
}