{
  "contractName": "PBPvCMatchups",
  "abi": [
    {
      "inputs": [
        {
          "internalType": "address",
          "name": "_buddiesCoinAddress",
          "type": "address"
        },
        {
          "internalType": "address",
          "name": "_pbxpAddress",
          "type": "address"
        },
        {
          "internalType": "address",
          "name": "_pbTeamsAddress",
          "type": "address"
        },
        {
          "internalType": "address",
          "name": "_pbPvCHelperAddress",
          "type": "address"
        },
        {
          "internalType": "uint256[]",
          "name": "_timeoutSeconds",
          "type": "uint256[]"
        },
        {
          "internalType": "uint256[]",
          "name": "_reward",
          "type": "uint256[]"
        },
        {
          "internalType": "uint256",
          "name": "_xpReward",
          "type": "uint256"
        },
        {
          "internalType": "uint256",
          "name": "_difficultymod",
          "type": "uint256"
        }
      ],
      "stateMutability": "nonpayable",
      "type": "constructor"
    },
    {
      "inputs": [],
      "name": "PBXPToken",
      "outputs": [
        {
          "internalType": "contract PBXP",
          "name": "",
          "type": "address"
        }
      ],
      "stateMutability": "view",
      "type": "function",
      "constant": true
    },
    {
      "inputs": [
        {
          "internalType": "uint256",
          "name": "",
          "type": "uint256"
        }
      ],
      "name": "_teamPvCMatchups",
      "outputs": [
        {
          "internalType": "uint256",
          "name": "teamId",
          "type": "uint256"
        },
        {
          "internalType": "uint256",
          "name": "activeTimestamp1",
          "type": "uint256"
        },
        {
          "internalType": "uint256",
          "name": "activeTimestamp2",
          "type": "uint256"
        },
        {
          "internalType": "uint256",
          "name": "activeTimestamp3",
          "type": "uint256"
        },
        {
          "internalType": "bool",
          "name": "lastMatchWon1",
          "type": "bool"
        },
        {
          "internalType": "bool",
          "name": "lastMatchWon2",
          "type": "bool"
        },
        {
          "internalType": "bool",
          "name": "lastMatchWon3",
          "type": "bool"
        },
        {
          "internalType": "address",
          "name": "ownerAddress",
          "type": "address"
        },
        {
          "internalType": "uint256",
          "name": "nonce1",
          "type": "uint256"
        },
        {
          "internalType": "uint256",
          "name": "nonce2",
          "type": "uint256"
        },
        {
          "internalType": "uint256",
          "name": "nonce3",
          "type": "uint256"
        }
      ],
      "stateMutability": "view",
      "type": "function",
      "constant": true
    },
    {
      "inputs": [],
      "name": "buddies",
      "outputs": [
        {
          "internalType": "contract IERC20",
          "name": "",
          "type": "address"
        }
      ],
      "stateMutability": "view",
      "type": "function",
      "constant": true
    },
    {
      "inputs": [],
      "name": "pbPvCHelper",
      "outputs": [
        {
          "internalType": "contract PBPvCHelper",
          "name": "",
          "type": "address"
        }
      ],
      "stateMutability": "view",
      "type": "function",
      "constant": true
    },
    {
      "inputs": [],
      "name": "pbTeams",
      "outputs": [
        {
          "internalType": "contract PBTeams",
          "name": "",
          "type": "address"
        }
      ],
      "stateMutability": "view",
      "type": "function",
      "constant": true
    },
    {
      "inputs": [
        {
          "internalType": "uint256",
          "name": "val1",
          "type": "uint256"
        },
        {
          "internalType": "uint256",
          "name": "val2",
          "type": "uint256"
        }
      ],
      "name": "updateValidation",
      "outputs": [],
      "stateMutability": "nonpayable",
      "type": "function"
    },
    {
      "inputs": [],
      "name": "getPBPvCMatchupsAddress",
      "outputs": [
        {
          "internalType": "address",
          "name": "",
          "type": "address"
        }
      ],
      "stateMutability": "view",
      "type": "function",
      "constant": true
    },
    {
      "inputs": [],
      "name": "getDifficultyMod",
      "outputs": [
        {
          "internalType": "uint256",
          "name": "",
          "type": "uint256"
        }
      ],
      "stateMutability": "view",
      "type": "function",
      "constant": true
    },
    {
      "inputs": [
        {
          "internalType": "uint256",
          "name": "_difficultymod",
          "type": "uint256"
        }
      ],
      "name": "updateDifficultyMod",
      "outputs": [],
      "stateMutability": "nonpayable",
      "type": "function"
    },
    {
      "inputs": [],
      "name": "getBuddiesReward",
      "outputs": [
        {
          "internalType": "uint256",
          "name": "",
          "type": "uint256"
        },
        {
          "internalType": "uint256",
          "name": "",
          "type": "uint256"
        },
        {
          "internalType": "uint256",
          "name": "",
          "type": "uint256"
        }
      ],
      "stateMutability": "view",
      "type": "function",
      "constant": true
    },
    {
      "inputs": [
        {
          "internalType": "uint256[]",
          "name": "_reward",
          "type": "uint256[]"
        }
      ],
      "name": "updateBuddiesReward",
      "outputs": [],
      "stateMutability": "nonpayable",
      "type": "function"
    },
    {
      "inputs": [
        {
          "internalType": "uint256[]",
          "name": "_timeoutSeconds",
          "type": "uint256[]"
        }
      ],
      "name": "updateTimesOut",
      "outputs": [],
      "stateMutability": "nonpayable",
      "type": "function"
    },
    {
      "inputs": [],
      "name": "getPBXPReward",
      "outputs": [
        {
          "internalType": "uint256",
          "name": "",
          "type": "uint256"
        }
      ],
      "stateMutability": "view",
      "type": "function",
      "constant": true
    },
    {
      "inputs": [
        {
          "internalType": "uint256",
          "name": "_xpReward",
          "type": "uint256"
        }
      ],
      "name": "updatePBXPReward",
      "outputs": [],
      "stateMutability": "nonpayable",
      "type": "function"
    },
    {
      "inputs": [
        {
          "internalType": "address",
          "name": "_widthdrawAddress",
          "type": "address"
        },
        {
          "internalType": "uint256",
          "name": "_amount",
          "type": "uint256"
        }
      ],
      "name": "widthdrawBuddiesFromContract",
      "outputs": [],
      "stateMutability": "nonpayable",
      "type": "function"
    },
    {
      "inputs": [
        {
          "internalType": "bytes32",
          "name": "_token",
          "type": "bytes32"
        },
        {
          "internalType": "uint256",
          "name": "_difficulty",
          "type": "uint256"
        },
        {
          "internalType": "uint256",
          "name": "_teamId",
          "type": "uint256"
        },
        {
          "internalType": "uint256",
          "name": "t1S",
          "type": "uint256"
        },
        {
          "internalType": "uint256",
          "name": "t2S",
          "type": "uint256"
        }
      ],
      "name": "rewardMatchup",
      "outputs": [
        {
          "internalType": "uint256",
          "name": "resultIndex",
          "type": "uint256"
        }
      ],
      "stateMutability": "nonpayable",
      "type": "function"
    },
    {
      "inputs": [
        {
          "internalType": "uint256",
          "name": "mod",
          "type": "uint256"
        },
        {
          "internalType": "uint256",
          "name": "difficulty",
          "type": "uint256"
        },
        {
          "internalType": "uint256",
          "name": "teamId",
          "type": "uint256"
        }
      ],
      "name": "generateRandomTeamDNA",
      "outputs": [
        {
          "internalType": "uint256",
          "name": "",
          "type": "uint256"
        }
      ],
      "stateMutability": "view",
      "type": "function",
      "constant": true
    },
    {
      "inputs": [
        {
          "internalType": "uint256",
          "name": "teamId",
          "type": "uint256"
        }
      ],
      "name": "getTimeOuts",
      "outputs": [
        {
          "internalType": "uint256",
          "name": "",
          "type": "uint256"
        },
        {
          "internalType": "uint256",
          "name": "",
          "type": "uint256"
        },
        {
          "internalType": "uint256",
          "name": "",
          "type": "uint256"
        },
        {
          "internalType": "bool",
          "name": "",
          "type": "bool"
        },
        {
          "internalType": "bool",
          "name": "",
          "type": "bool"
        },
        {
          "internalType": "bool",
          "name": "",
          "type": "bool"
        },
        {
          "internalType": "uint256",
          "name": "",
          "type": "uint256"
        },
        {
          "internalType": "uint256",
          "name": "",
          "type": "uint256"
        },
        {
          "internalType": "uint256",
          "name": "",
          "type": "uint256"
        }
      ],
      "stateMutability": "view",
      "type": "function",
      "constant": true
    },
    {
      "inputs": [
        {
          "internalType": "uint256",
          "name": "teamId",
          "type": "uint256"
        }
      ],
      "name": "getNoMatchups",
      "outputs": [
        {
          "internalType": "uint256",
          "name": "",
          "type": "uint256"
        },
        {
          "internalType": "uint256",
          "name": "",
          "type": "uint256"
        },
        {
          "internalType": "uint256",
          "name": "",
          "type": "uint256"
        }
      ],
      "stateMutability": "view",
      "type": "function",
      "constant": true
    },
    {
      "inputs": [],
      "name": "getPvCMatchupsTimestamp",
      "outputs": [
        {
          "internalType": "uint256",
          "name": "",
          "type": "uint256"
        }
      ],
      "stateMutability": "view",
      "type": "function",
      "constant": true
    }
  ],
  "bytecode": "0x60806040526305f4334460025563054e03f3600355662386f26fc1000060045560046005553480156200003157600080fd5b5060405162002c8238038062002c8283398181016040528101906200005791906200033f565b600160008190555033600160006101000a81548173ffffffffffffffffffffffffffffffffffffffff021916908373ffffffffffffffffffffffffffffffffffffffff16021790555087600c60006101000a81548173ffffffffffffffffffffffffffffffffffffffff021916908373ffffffffffffffffffffffffffffffffffffffff16021790555086600e60006101000a81548173ffffffffffffffffffffffffffffffffffffffff021916908373ffffffffffffffffffffffffffffffffffffffff16021790555085600d60006101000a81548173ffffffffffffffffffffffffffffffffffffffff021916908373ffffffffffffffffffffffffffffffffffffffff16021790555084600f60006101000a81548173ffffffffffffffffffffffffffffffffffffffff021916908373ffffffffffffffffffffffffffffffffffffffff1602179055508360089080519060200190620001bc929190620001f2565b508260099080519060200190620001d5929190620001f2565b5081600a8190555080600b8190555050505050505050506200059a565b82805482825590600052602060002090810192821562000231579160200282015b828111156200023057825182559160200191906001019062000213565b5b50905062000240919062000244565b5090565b5b808211156200025f57600081600090555060010162000245565b5090565b60006200027a62000274846200046f565b62000446565b90508083825260208201905082856020860282011115620002a0576200029f62000546565b5b60005b85811015620002d45781620002b9888262000328565b845260208401935060208301925050600181019050620002a3565b5050509392505050565b600081519050620002ef8162000566565b92915050565b600082601f8301126200030d576200030c62000541565b5b81516200031f84826020860162000263565b91505092915050565b600081519050620003398162000580565b92915050565b600080600080600080600080610100898b03121562000363576200036262000550565b5b6000620003738b828c01620002de565b9850506020620003868b828c01620002de565b9750506040620003998b828c01620002de565b9650506060620003ac8b828c01620002de565b955050608089015167ffffffffffffffff811115620003d057620003cf6200054b565b5b620003de8b828c01620002f5565b94505060a089015167ffffffffffffffff8111156200040257620004016200054b565b5b620004108b828c01620002f5565b93505060c0620004238b828c0162000328565b92505060e0620004368b828c0162000328565b9150509295985092959890939650565b60006200045262000465565b9050620004608282620004dc565b919050565b6000604051905090565b600067ffffffffffffffff8211156200048d576200048c62000512565b5b602082029050602081019050919050565b6000620004ab82620004b2565b9050919050565b600073ffffffffffffffffffffffffffffffffffffffff82169050919050565b6000819050919050565b620004e78262000555565b810181811067ffffffffffffffff8211171562000509576200050862000512565b5b80604052505050565b7f4e487b7100000000000000000000000000000000000000000000000000000000600052604160045260246000fd5b600080fd5b600080fd5b600080fd5b600080fd5b6000601f19601f8301169050919050565b62000571816200049e565b81146200057d57600080fd5b50565b6200058b81620004d2565b81146200059757600080fd5b50565b6126d880620005aa6000396000f3fe608060405234801561001057600080fd5b506004361061012c5760003560e01c8063a0b1a714116100ad578063e00c01c511610071578063e00c01c51461033f578063e245c22d1461035d578063e9992a7814610397578063f15e0e9c146103b3578063f8f7bdea146103d15761012c565b8063a0b1a71414610287578063a6eaa2a3146102a3578063b4fad1ff146102c1578063b791841a146102f1578063c09f12321461030d5761012c565b8063532195bb116100f4578063532195bb146101f557806353b7a2e2146102135780635b016d6e1461022f57806362170b711461024b57806397ede525146102695761012c565b8063178d3323146101315780632071a7fb1461016157806347a69777146101995780634a594c12146101b957806351171af2146101d7575b600080fd5b61014b60048036038101906101469190611a3e565b6103ed565b6040516101589190611fea565b60405180910390f35b61017b60048036038101906101769190611ab9565b610fd3565b6040516101909998979695949392919061203c565b60405180910390f35b6101a16110bc565b6040516101b093929190612005565b60405180910390f35b6101c161112c565b6040516101ce9190611e5e565b60405180910390f35b6101df611152565b6040516101ec9190611e1a565b60405180910390f35b6101fd61115a565b60405161020a9190611fea565b60405180910390f35b61022d60048036038101906102289190611ab9565b611164565b005b610249600480360381019061024491906119c8565b6111fe565b005b6102536112a8565b6040516102609190611fea565b60405180910390f35b6102716112b2565b60405161027e9190611eaf565b60405180910390f35b6102a1600480360381019061029c9190611ae6565b6112d8565b005b6102ab61137a565b6040516102b89190611fea565b60405180910390f35b6102db60048036038101906102d69190611b26565b611382565b6040516102e89190611fea565b60405180910390f35b61030b60048036038101906103069190611ab9565b61147f565b005b61032760048036038101906103229190611ab9565b611519565b60405161033693929190612005565b60405180910390f35b610347611551565b6040516103549190611e94565b60405180910390f35b61037760048036038101906103729190611ab9565b611577565b60405161038e9b9a999897969594939291906120c9565b60405180910390f35b6103b160048036038101906103ac9190611988565b611618565b005b6103bb61175c565b6040516103c89190611e79565b60405180910390f35b6103eb60048036038101906103e691906119c8565b611782565b005b6000806010600086815260200190815260200160002090506000600187141561041c5781600501549050610444565b60028714156104315781600601549050610443565b600387141561044257816007015490505b5b5b83851115610b365733600254828989898960405160200161046b9796959493929190611d4b565b6040516020818303038152906040528051906020012088146104c2576040517f08c379a00000000000000000000000000000000000000000000000000000000081526004016104b990611f0a565b60405180910390fd5b60018714156106e7578160010154421015610512576040517f08c379a000000000000000000000000000000000000000000000000000000000815260040161050990611fca565b60405180910390fd5b600860008154811061052757610526612445565b5b90600052602060002001544261053d91906121d6565b826001018190555060018260040160006101000a81548160ff021916908315150217905550600c60009054906101000a900473ffffffffffffffffffffffffffffffffffffffff1673ffffffffffffffffffffffffffffffffffffffff1663a9059cbb3360096000815481106105b6576105b5612445565b5b90600052602060002001546040518363ffffffff1660e01b81526004016105de929190611e35565b602060405180830381600087803b1580156105f857600080fd5b505af115801561060c573d6000803e3d6000fd5b505050506040513d601f19601f820116820180604052508101906106309190611a11565b50600e60009054906101000a900473ffffffffffffffffffffffffffffffffffffffff1673ffffffffffffffffffffffffffffffffffffffff1663c43df89a33600a546040518363ffffffff1660e01b8152600401610690929190611e35565b600060405180830381600087803b1580156106aa57600080fd5b505af11580156106be573d6000803e3d6000fd5b505050508160050160008154809291906106d79061233f565b9190505550600192505050610fca565b600287141561090c578160020154421015610737576040517f08c379a000000000000000000000000000000000000000000000000000000000815260040161072e90611f8a565b60405180910390fd5b600860018154811061074c5761074b612445565b5b90600052602060002001544261076291906121d6565b826002018190555060018260040160016101000a81548160ff021916908315150217905550600c60009054906101000a900473ffffffffffffffffffffffffffffffffffffffff1673ffffffffffffffffffffffffffffffffffffffff1663a9059cbb3360096001815481106107db576107da612445565b5b90600052602060002001546040518363ffffffff1660e01b8152600401610803929190611e35565b602060405180830381600087803b15801561081d57600080fd5b505af1158015610831573d6000803e3d6000fd5b505050506040513d601f19601f820116820180604052508101906108559190611a11565b50600e60009054906101000a900473ffffffffffffffffffffffffffffffffffffffff1673ffffffffffffffffffffffffffffffffffffffff1663c43df89a33600a546040518363ffffffff1660e01b81526004016108b5929190611e35565b600060405180830381600087803b1580156108cf57600080fd5b505af11580156108e3573d6000803e3d6000fd5b505050508160060160008154809291906108fc9061233f565b9190505550600292505050610fca565b6003871415610b3157816003015442101561095c576040517f08c379a000000000000000000000000000000000000000000000000000000000815260040161095390611f6a565b60405180910390fd5b600860028154811061097157610970612445565b5b90600052602060002001544261098791906121d6565b826003018190555060018260040160026101000a81548160ff021916908315150217905550600c60009054906101000a900473ffffffffffffffffffffffffffffffffffffffff1673ffffffffffffffffffffffffffffffffffffffff1663a9059cbb336009600281548110610a00576109ff612445565b5b90600052602060002001546040518363ffffffff1660e01b8152600401610a28929190611e35565b602060405180830381600087803b158015610a4257600080fd5b505af1158015610a56573d6000803e3d6000fd5b505050506040513d601f19601f82011682018060405250810190610a7a9190611a11565b50600e60009054906101000a900473ffffffffffffffffffffffffffffffffffffffff1673ffffffffffffffffffffffffffffffffffffffff1663c43df89a33600a546040518363ffffffff1660e01b8152600401610ada929190611e35565b600060405180830381600087803b158015610af457600080fd5b505af1158015610b08573d6000803e3d6000fd5b50505050816007016000815480929190610b219061233f565b9190505550600392505050610fca565b610fc7565b84841115610fbb57336003548289898989604051602001610b5d9796959493929190611d4b565b604051602081830303815290604052805190602001208814610bb4576040517f08c379a0000000000000000000000000000000000000000000000000000000008152600401610bab90611f4a565b60405180910390fd5b6001871415610d0a578160010154421015610c04576040517f08c379a0000000000000000000000000000000000000000000000000000000008152600401610bfb90611eea565b60405180910390fd5b6008600081548110610c1957610c18612445565b5b906000526020600020015442610c2f91906121d6565b826001018190555060008260040160006101000a81548160ff021916908315150217905550600e60009054906101000a900473ffffffffffffffffffffffffffffffffffffffff1673ffffffffffffffffffffffffffffffffffffffff1663c43df89a33600a546040518363ffffffff1660e01b8152600401610cb3929190611e35565b600060405180830381600087803b158015610ccd57600080fd5b505af1158015610ce1573d6000803e3d6000fd5b50505050816005016000815480929190610cfa9061233f565b9190505550600492505050610fca565b6002871415610e60578160020154421015610d5a576040517f08c379a0000000000000000000000000000000000000000000000000000000008152600401610d5190611faa565b60405180910390fd5b6008600181548110610d6f57610d6e612445565b5b906000526020600020015442610d8591906121d6565b826002018190555060008260040160016101000a81548160ff021916908315150217905550600e60009054906101000a900473ffffffffffffffffffffffffffffffffffffffff1673ffffffffffffffffffffffffffffffffffffffff1663c43df89a33600a546040518363ffffffff1660e01b8152600401610e09929190611e35565b600060405180830381600087803b158015610e2357600080fd5b505af1158015610e37573d6000803e3d6000fd5b50505050816006016000815480929190610e509061233f565b9190505550600592505050610fca565b6003871415610fb6578160030154421015610eb0576040517f08c379a0000000000000000000000000000000000000000000000000000000008152600401610ea790611eca565b60405180910390fd5b6008600281548110610ec557610ec4612445565b5b906000526020600020015442610edb91906121d6565b826003018190555060008260040160026101000a81548160ff021916908315150217905550600e60009054906101000a900473ffffffffffffffffffffffffffffffffffffffff1673ffffffffffffffffffffffffffffffffffffffff1663c43df89a33600a546040518363ffffffff1660e01b8152600401610f5f929190611e35565b600060405180830381600087803b158015610f7957600080fd5b505af1158015610f8d573d6000803e3d6000fd5b50505050816007016000815480929190610fa69061233f565b9190505550600692505050610fca565b610fc6565b600092505050610fca565b5b50505b95945050505050565b600080600080600080600080600080601060008c81526020019081526020016000209050600860008154811061100c5761100b612445565b5b9060005260206000200154600860018154811061102c5761102b612445565b5b9060005260206000200154600860028154811061104c5761104b612445565b5b90600052602060002001548360040160009054906101000a900460ff168460040160019054906101000a900460ff168560040160029054906101000a900460ff16866001015487600201548860030154995099509950995099509950995099509950509193959799909294969850565b600080600060096000815481106110d6576110d5612445565b5b906000526020600020015460096001815481106110f6576110f5612445565b5b9060005260206000200154600960028154811061111657611115612445565b5b9060005260206000200154925092509250909192565b600c60009054906101000a900473ffffffffffffffffffffffffffffffffffffffff1681565b600030905090565b6000600a54905090565b3373ffffffffffffffffffffffffffffffffffffffff16600160009054906101000a900473ffffffffffffffffffffffffffffffffffffffff1673ffffffffffffffffffffffffffffffffffffffff16146111f4576040517f08c379a00000000000000000000000000000000000000000000000000000000081526004016111eb90611f2a565b60405180910390fd5b80600a8190555050565b3373ffffffffffffffffffffffffffffffffffffffff16600160009054906101000a900473ffffffffffffffffffffffffffffffffffffffff1673ffffffffffffffffffffffffffffffffffffffff161461128e576040517f08c379a000000000000000000000000000000000000000000000000000000000815260040161128590611f2a565b60405180910390fd5b80600990805190602001906112a492919061182c565b5050565b6000600b54905090565b600e60009054906101000a900473ffffffffffffffffffffffffffffffffffffffff1681565b3373ffffffffffffffffffffffffffffffffffffffff16600160009054906101000a900473ffffffffffffffffffffffffffffffffffffffff1673ffffffffffffffffffffffffffffffffffffffff1614611368576040517f08c379a000000000000000000000000000000000000000000000000000000000815260040161135f90611f2a565b60405180910390fd5b81600281905550806003819055505050565b600042905090565b600080601060008481526020019081526020016000209050600060018514156113e05781600501543387876040516020016113c09493929190611dcc565b6040516020818303038152906040528051906020012060001c9050611466565b60028514156114245781600601543387876040516020016114049493929190611dcc565b6040516020818303038152906040528051906020012060001c9050611465565b60038514156114645781600701543387876040516020016114489493929190611dcc565b6040516020818303038152906040528051906020012060001c90505b5b5b6004548161147491906123b6565b925050509392505050565b3373ffffffffffffffffffffffffffffffffffffffff16600160009054906101000a900473ffffffffffffffffffffffffffffffffffffffff1673ffffffffffffffffffffffffffffffffffffffff161461150f576040517f08c379a000000000000000000000000000000000000000000000000000000000815260040161150690611f2a565b60405180910390fd5b80600b8190555050565b600080600080601060008681526020019081526020016000209050806005015481600601548260070154935093509350509193909250565b600d60009054906101000a900473ffffffffffffffffffffffffffffffffffffffff1681565b60106020528060005260406000206000915090508060000154908060010154908060020154908060030154908060040160009054906101000a900460ff16908060040160019054906101000a900460ff16908060040160029054906101000a900460ff16908060040160039054906101000a900473ffffffffffffffffffffffffffffffffffffffff1690806005015490806006015490806007015490508b565b3373ffffffffffffffffffffffffffffffffffffffff16600160009054906101000a900473ffffffffffffffffffffffffffffffffffffffff1673ffffffffffffffffffffffffffffffffffffffff16146116a8576040517f08c379a000000000000000000000000000000000000000000000000000000000815260040161169f90611f2a565b60405180910390fd5b600c60009054906101000a900473ffffffffffffffffffffffffffffffffffffffff1673ffffffffffffffffffffffffffffffffffffffff1663a9059cbb83836040518363ffffffff1660e01b8152600401611705929190611e35565b602060405180830381600087803b15801561171f57600080fd5b505af1158015611733573d6000803e3d6000fd5b505050506040513d601f19601f820116820180604052508101906117579190611a11565b505050565b600f60009054906101000a900473ffffffffffffffffffffffffffffffffffffffff1681565b3373ffffffffffffffffffffffffffffffffffffffff16600160009054906101000a900473ffffffffffffffffffffffffffffffffffffffff1673ffffffffffffffffffffffffffffffffffffffff1614611812576040517f08c379a000000000000000000000000000000000000000000000000000000000815260040161180990611f2a565b60405180910390fd5b806008908051906020019061182892919061182c565b5050565b828054828255906000526020600020908101928215611868579160200282015b8281111561186757825182559160200191906001019061184c565b5b5090506118759190611879565b5090565b5b8082111561189257600081600090555060010161187a565b5090565b60006118a96118a484612199565b612174565b905080838252602082019050828560208602820111156118cc576118cb6124a8565b5b60005b858110156118fc57816118e28882611973565b8452602084019350602083019250506001810190506118cf565b5050509392505050565b60008135905061191581612646565b92915050565b600082601f8301126119305761192f6124a3565b5b8135611940848260208601611896565b91505092915050565b6000815190506119588161265d565b92915050565b60008135905061196d81612674565b92915050565b6000813590506119828161268b565b92915050565b6000806040838503121561199f5761199e6124b2565b5b60006119ad85828601611906565b92505060206119be85828601611973565b9150509250929050565b6000602082840312156119de576119dd6124b2565b5b600082013567ffffffffffffffff8111156119fc576119fb6124ad565b5b611a088482850161191b565b91505092915050565b600060208284031215611a2757611a266124b2565b5b6000611a3584828501611949565b91505092915050565b600080600080600060a08688031215611a5a57611a596124b2565b5b6000611a688882890161195e565b9550506020611a7988828901611973565b9450506040611a8a88828901611973565b9350506060611a9b88828901611973565b9250506080611aac88828901611973565b9150509295509295909350565b600060208284031215611acf57611ace6124b2565b5b6000611add84828501611973565b91505092915050565b60008060408385031215611afd57611afc6124b2565b5b6000611b0b85828601611973565b9250506020611b1c85828601611973565b9150509250929050565b600080600060608486031215611b3f57611b3e6124b2565b5b6000611b4d86828701611973565b9350506020611b5e86828701611973565b9250506040611b6f86828701611973565b9150509250925092565b611b828161222c565b82525050565b611b99611b948261222c565b612388565b82525050565b611ba88161223e565b82525050565b611bb78161227e565b82525050565b611bc6816122a2565b82525050565b611bd5816122c6565b82525050565b611be4816122ea565b82525050565b6000611bf76002836121c5565b9150611c02826124d5565b602082019050919050565b6000611c1a6002836121c5565b9150611c25826124fe565b602082019050919050565b6000611c3d6002836121c5565b9150611c4882612527565b602082019050919050565b6000611c606002836121c5565b9150611c6b82612550565b602082019050919050565b6000611c836002836121c5565b9150611c8e82612579565b602082019050919050565b6000611ca66002836121c5565b9150611cb1826125a2565b602082019050919050565b6000611cc96002836121c5565b9150611cd4826125cb565b602082019050919050565b6000611cec6002836121c5565b9150611cf7826125f4565b602082019050919050565b6000611d0f6002836121c5565b9150611d1a8261261d565b602082019050919050565b611d2e81612274565b82525050565b611d45611d4082612274565b6123ac565b82525050565b6000611d57828a611b88565b601482019150611d678289611d34565b602082019150611d778288611d34565b602082019150611d878287611d34565b602082019150611d978286611d34565b602082019150611da78285611d34565b602082019150611db78284611d34565b60208201915081905098975050505050505050565b6000611dd88287611d34565b602082019150611de88286611b88565b601482019150611df88285611d34565b602082019150611e088284611d34565b60208201915081905095945050505050565b6000602082019050611e2f6000830184611b79565b92915050565b6000604082019050611e4a6000830185611b79565b611e576020830184611d25565b9392505050565b6000602082019050611e736000830184611bae565b92915050565b6000602082019050611e8e6000830184611bbd565b92915050565b6000602082019050611ea96000830184611bcc565b92915050565b6000602082019050611ec46000830184611bdb565b92915050565b60006020820190508181036000830152611ee381611bea565b9050919050565b60006020820190508181036000830152611f0381611c0d565b9050919050565b60006020820190508181036000830152611f2381611c30565b9050919050565b60006020820190508181036000830152611f4381611c53565b9050919050565b60006020820190508181036000830152611f6381611c76565b9050919050565b60006020820190508181036000830152611f8381611c99565b9050919050565b60006020820190508181036000830152611fa381611cbc565b9050919050565b60006020820190508181036000830152611fc381611cdf565b9050919050565b60006020820190508181036000830152611fe381611d02565b9050919050565b6000602082019050611fff6000830184611d25565b92915050565b600060608201905061201a6000830186611d25565b6120276020830185611d25565b6120346040830184611d25565b949350505050565b600061012082019050612052600083018c611d25565b61205f602083018b611d25565b61206c604083018a611d25565b6120796060830189611b9f565b6120866080830188611b9f565b61209360a0830187611b9f565b6120a060c0830186611d25565b6120ad60e0830185611d25565b6120bb610100830184611d25565b9a9950505050505050505050565b6000610160820190506120df600083018e611d25565b6120ec602083018d611d25565b6120f9604083018c611d25565b612106606083018b611d25565b612113608083018a611b9f565b61212060a0830189611b9f565b61212d60c0830188611b9f565b61213a60e0830187611b79565b612148610100830186611d25565b612156610120830185611d25565b612164610140830184611d25565b9c9b505050505050505050505050565b600061217e61218f565b905061218a828261230e565b919050565b6000604051905090565b600067ffffffffffffffff8211156121b4576121b3612474565b5b602082029050602081019050919050565b600082825260208201905092915050565b60006121e182612274565b91506121ec83612274565b9250827fffffffffffffffffffffffffffffffffffffffffffffffffffffffffffffffff03821115612221576122206123e7565b5b828201905092915050565b600061223782612254565b9050919050565b60008115159050919050565b6000819050919050565b600073ffffffffffffffffffffffffffffffffffffffff82169050919050565b6000819050919050565b600061228982612290565b9050919050565b600061229b82612254565b9050919050565b60006122ad826122b4565b9050919050565b60006122bf82612254565b9050919050565b60006122d1826122d8565b9050919050565b60006122e382612254565b9050919050565b60006122f5826122fc565b9050919050565b600061230782612254565b9050919050565b612317826124b7565b810181811067ffffffffffffffff8211171561233657612335612474565b5b80604052505050565b600061234a82612274565b91507fffffffffffffffffffffffffffffffffffffffffffffffffffffffffffffffff82141561237d5761237c6123e7565b5b600182019050919050565b60006123938261239a565b9050919050565b60006123a5826124c8565b9050919050565b6000819050919050565b60006123c182612274565b91506123cc83612274565b9250826123dc576123db612416565b5b828206905092915050565b7f4e487b7100000000000000000000000000000000000000000000000000000000600052601160045260246000fd5b7f4e487b7100000000000000000000000000000000000000000000000000000000600052601260045260246000fd5b7f4e487b7100000000000000000000000000000000000000000000000000000000600052603260045260246000fd5b7f4e487b7100000000000000000000000000000000000000000000000000000000600052604160045260246000fd5b600080fd5b600080fd5b600080fd5b600080fd5b6000601f19601f8301169050919050565b60008160601b9050919050565b7f4e36000000000000000000000000000000000000000000000000000000000000600082015250565b7f4e34000000000000000000000000000000000000000000000000000000000000600082015250565b7f5431000000000000000000000000000000000000000000000000000000000000600082015250565b7f4131000000000000000000000000000000000000000000000000000000000000600082015250565b7f5432000000000000000000000000000000000000000000000000000000000000600082015250565b7f4e33000000000000000000000000000000000000000000000000000000000000600082015250565b7f4e32000000000000000000000000000000000000000000000000000000000000600082015250565b7f4e35000000000000000000000000000000000000000000000000000000000000600082015250565b7f4e31000000000000000000000000000000000000000000000000000000000000600082015250565b61264f8161222c565b811461265a57600080fd5b50565b6126668161223e565b811461267157600080fd5b50565b61267d8161224a565b811461268857600080fd5b50565b61269481612274565b811461269f57600080fd5b5056fea2646970667358221220e6795b07cacef21d8b75c559de1088bde10ec20ab8d4361b43aacf959bfc23d264736f6c63430008060033",
  "immutableReferences": {},
  "source": "// SPDX-License-Identifier: MIT\r\npragma solidity >=0.4.22 <0.9.0;\r\n\r\nimport \"../node_modules/@openzeppelin/contracts/token/ERC20/IERC20.sol\";\r\nimport \"../node_modules/@openzeppelin/contracts/security/ReentrancyGuard.sol\";\r\nimport \"../contracts/PBTeams.sol\";\r\nimport \"../contracts/PBPvCHelper.sol\";\r\n\r\ncontract PBPvCMatchups is ReentrancyGuard {\r\n\r\naddress admin;\r\nuint private winT = 99889988;\r\nuint private lossT = 88998899;\r\nuint dnaModulus = 10 ** 16;\r\nuint bellCurveIterations = 4;\r\nuint winToken;\r\nuint lossToken;\r\nuint[] timeoutSeconds;\r\nuint[] reward;\r\nuint xpReward;\r\nuint difficultymod;\r\nIERC20 public buddies;\r\nPBTeams public pbTeams;\r\nPBXP public PBXPToken;\r\nPBPvCHelper public pbPvCHelper;\r\n\r\n    struct TeamPvCMatchups {\r\n        uint teamId;\r\n        uint activeTimestamp1;\r\n        uint activeTimestamp2;\r\n        uint activeTimestamp3;\r\n        bool lastMatchWon1;\r\n        bool lastMatchWon2;\r\n        bool lastMatchWon3;\r\n        address ownerAddress;\r\n        uint nonce1;\r\n        uint nonce2;\r\n        uint nonce3;\r\n    }\r\n\r\nconstructor(address _buddiesCoinAddress, address _pbxpAddress, address _pbTeamsAddress, address _pbPvCHelperAddress, uint[] memory _timeoutSeconds, uint[] memory _reward, uint _xpReward, uint _difficultymod){\r\n    admin = msg.sender;\r\n    buddies = IERC20(_buddiesCoinAddress);\r\n    PBXPToken = PBXP(_pbxpAddress);\r\n    pbTeams = PBTeams(_pbTeamsAddress);\r\n    pbPvCHelper = PBPvCHelper(_pbPvCHelperAddress);\r\n    timeoutSeconds = _timeoutSeconds;\r\n    reward = _reward;\r\n    xpReward = _xpReward;\r\n    difficultymod = _difficultymod;\r\n}\r\n\r\nmapping (uint => TeamPvCMatchups) public _teamPvCMatchups;\r\n\r\nmodifier onlyAdmin() {\r\n    require(admin == msg.sender, \"A1\" );\r\n    _;\r\n}\r\n\r\nfunction updateValidation(uint val1, uint val2) external onlyAdmin {\r\n    winT = val1;\r\n    lossT = val2;\r\n}\r\n\r\nfunction getPBPvCMatchupsAddress() public view returns (address){\r\n    return address(this);\r\n}\r\n\r\nfunction getDifficultyMod() public view returns (uint){\r\n    return difficultymod;\r\n}\r\n\r\nfunction updateDifficultyMod(uint _difficultymod) external onlyAdmin {\r\n    difficultymod = _difficultymod;\r\n}\r\n\r\nfunction getBuddiesReward() public view returns (uint, uint, uint){\r\n    return (reward[0], reward[1], reward[2]);\r\n}\r\n\r\nfunction updateBuddiesReward( uint[] memory _reward) external onlyAdmin{\r\n    reward = _reward;\r\n}\r\n\r\nfunction updateTimesOut( uint[] memory _timeoutSeconds) external onlyAdmin {\r\n    timeoutSeconds = _timeoutSeconds;\r\n} \r\n\r\nfunction getPBXPReward() public view returns (uint){\r\n    return xpReward;\r\n}\r\n\r\nfunction updatePBXPReward(uint _xpReward) external onlyAdmin {\r\n    xpReward = _xpReward;\r\n}\r\n\r\nfunction widthdrawBuddiesFromContract(address _widthdrawAddress, uint _amount) external onlyAdmin {\r\n    buddies.transfer(_widthdrawAddress, _amount);\r\n}\r\n\r\n\r\n\r\nfunction rewardMatchup (bytes32 _token, uint _difficulty, uint _teamId, uint t1S, uint t2S) external returns (uint resultIndex) {\r\n    TeamPvCMatchups storage teamPvCmatchup = _teamPvCMatchups[_teamId];\r\n    uint matchNonce;\r\n    if(_difficulty == 1){\r\n        matchNonce = teamPvCmatchup.nonce1;\r\n    }else if(_difficulty == 2){\r\n        matchNonce = teamPvCmatchup.nonce2;\r\n    }else if(_difficulty == 3){\r\n        matchNonce = teamPvCmatchup.nonce3;\r\n    }\r\n\r\n    if(t1S > t2S){\r\n        require(_token == keccak256(abi.encodePacked(msg.sender, winT, matchNonce, _difficulty, _teamId, t1S, t2S)), \"T1\");\r\n\r\n        if(_difficulty == 1){\r\n            require(block.timestamp >= teamPvCmatchup.activeTimestamp1, \"N1\");\r\n            teamPvCmatchup.activeTimestamp1 = block.timestamp + timeoutSeconds[0];\r\n            teamPvCmatchup.lastMatchWon1 = true;\r\n            buddies.transfer(msg.sender, reward[0]);\r\n            PBXPToken.earnPBXP(msg.sender, xpReward);\r\n            teamPvCmatchup.nonce1++;\r\n            return 1;\r\n        }else if(_difficulty == 2){\r\n            require(block.timestamp >=  teamPvCmatchup.activeTimestamp2, \"N2\");\r\n            teamPvCmatchup.activeTimestamp2 = block.timestamp + timeoutSeconds[1];\r\n            teamPvCmatchup.lastMatchWon2 = true;\r\n            buddies.transfer(msg.sender, reward[1]);\r\n            PBXPToken.earnPBXP(msg.sender, xpReward);\r\n            teamPvCmatchup.nonce2++;\r\n            return 2;\r\n        }else if(_difficulty == 3){\r\n            require(block.timestamp >= teamPvCmatchup.activeTimestamp3, \"N3\");\r\n            teamPvCmatchup.activeTimestamp3 = block.timestamp + timeoutSeconds[2];\r\n            teamPvCmatchup.lastMatchWon3 = true;\r\n            buddies.transfer(msg.sender, reward[2]);\r\n            PBXPToken.earnPBXP(msg.sender, xpReward);\r\n            teamPvCmatchup.nonce3++;\r\n            return 3;\r\n        }\r\n\r\n    }else if(t2S > t1S){\r\n        require(_token == keccak256(abi.encodePacked(msg.sender, lossT, matchNonce, _difficulty, _teamId, t1S, t2S)), \"T2\");\r\n\r\n        if(_difficulty == 1){\r\n            require(block.timestamp >= teamPvCmatchup.activeTimestamp1, \"N4\");\r\n            teamPvCmatchup.activeTimestamp1 = block.timestamp + timeoutSeconds[0];\r\n            teamPvCmatchup.lastMatchWon1 = false;\r\n            PBXPToken.earnPBXP(msg.sender, xpReward);\r\n            teamPvCmatchup.nonce1++;\r\n            return 4;\r\n        }else if(_difficulty == 2){\r\n            require(block.timestamp >=  teamPvCmatchup.activeTimestamp2, \"N5\");\r\n            teamPvCmatchup.activeTimestamp2 = block.timestamp + timeoutSeconds[1];\r\n            teamPvCmatchup.lastMatchWon2 = false;\r\n            PBXPToken.earnPBXP(msg.sender, xpReward);\r\n            teamPvCmatchup.nonce2++;\r\n            return 5;\r\n        }else if(_difficulty == 3){\r\n            require(block.timestamp >= teamPvCmatchup.activeTimestamp3, \"N6\");\r\n            teamPvCmatchup.activeTimestamp3 = block.timestamp + timeoutSeconds[2];\r\n            teamPvCmatchup.lastMatchWon3 = false;\r\n            PBXPToken.earnPBXP(msg.sender, xpReward);\r\n            teamPvCmatchup.nonce3++;\r\n            return 6;\r\n        }\r\n    }\r\n    else{\r\n        return 0;\r\n    }\r\n}\r\n\r\nfunction generateRandomTeamDNA(uint mod, uint difficulty, uint teamId) public view returns (uint){\r\n    TeamPvCMatchups storage teamPvCmatchup = _teamPvCMatchups[teamId];\r\n    uint rand;\r\n    if(difficulty == 1){\r\n        rand = uint(keccak256(abi.encodePacked(teamPvCmatchup.nonce1, msg.sender, mod, difficulty)));\r\n    }else if(difficulty == 2){\r\n        rand = uint(keccak256(abi.encodePacked(teamPvCmatchup.nonce2, msg.sender, mod, difficulty)));  \r\n    }else if(difficulty == 3){\r\n        rand = uint(keccak256(abi.encodePacked(teamPvCmatchup.nonce3, msg.sender, mod, difficulty)));\r\n    } \r\n    return rand % dnaModulus;\r\n}\r\n\r\nfunction getTimeOuts(uint teamId) public view returns (uint, uint, uint, bool, bool, bool, uint, uint, uint){\r\n    TeamPvCMatchups storage teamPvCmatchup = _teamPvCMatchups[teamId];\r\n    return (timeoutSeconds[0], timeoutSeconds[1], timeoutSeconds[2], teamPvCmatchup.lastMatchWon1, teamPvCmatchup.lastMatchWon2, teamPvCmatchup.lastMatchWon3, teamPvCmatchup.activeTimestamp1, teamPvCmatchup.activeTimestamp2, teamPvCmatchup.activeTimestamp3);\r\n}\r\n\r\nfunction getNoMatchups(uint teamId) public view returns (uint, uint, uint){\r\n    TeamPvCMatchups storage teamPvCmatchup = _teamPvCMatchups[teamId];\r\n    return (teamPvCmatchup.nonce1, teamPvCmatchup.nonce2, teamPvCmatchup.nonce3);\r\n}\r\n\r\nfunction getPvCMatchupsTimestamp() public view returns (uint) {\r\n    return block.timestamp;\r\n}\r\n\r\n}\r\n\r\n",
  "sourcePath": "O:\\Projects\\puck-buddies\\contracts\\PBPvCMatchup.sol",
  "compiler": {
    "name": "solc",
    "version": "0.8.6+commit.11564f7e.Emscripten.clang"
  },
  "schemaVersion": "3.4.3",
  "updatedAt": "2021-11-21T07:03:20.317Z",
  "networkType": "ethereum",
  "devdoc": {
    "kind": "dev",
    "methods": {},
    "version": 1
  },
  "userdoc": {
    "kind": "user",
    "methods": {},
    "version": 1
  }
}