{
  "contractName": "PBTeams",
  "abi": [
    {
      "inputs": [
        {
          "internalType": "uint256",
          "name": "_teamMintCost",
          "type": "uint256"
        },
        {
          "internalType": "address",
          "name": "_buddiesCoinAddress",
          "type": "address"
        },
        {
          "internalType": "address",
          "name": "_pbxpAddress",
          "type": "address"
        },
        {
          "internalType": "address",
          "name": "_pbPlayersAddress",
          "type": "address"
        }
      ],
      "stateMutability": "nonpayable",
      "type": "constructor"
    },
    {
      "anonymous": false,
      "inputs": [
        {
          "indexed": true,
          "internalType": "address",
          "name": "owner",
          "type": "address"
        },
        {
          "indexed": true,
          "internalType": "address",
          "name": "approved",
          "type": "address"
        },
        {
          "indexed": true,
          "internalType": "uint256",
          "name": "tokenId",
          "type": "uint256"
        }
      ],
      "name": "Approval",
      "type": "event"
    },
    {
      "anonymous": false,
      "inputs": [
        {
          "indexed": true,
          "internalType": "address",
          "name": "owner",
          "type": "address"
        },
        {
          "indexed": true,
          "internalType": "address",
          "name": "operator",
          "type": "address"
        },
        {
          "indexed": false,
          "internalType": "bool",
          "name": "approved",
          "type": "bool"
        }
      ],
      "name": "ApprovalForAll",
      "type": "event"
    },
    {
      "anonymous": false,
      "inputs": [
        {
          "indexed": true,
          "internalType": "address",
          "name": "from",
          "type": "address"
        },
        {
          "indexed": true,
          "internalType": "address",
          "name": "to",
          "type": "address"
        },
        {
          "indexed": true,
          "internalType": "uint256",
          "name": "tokenId",
          "type": "uint256"
        }
      ],
      "name": "Transfer",
      "type": "event"
    },
    {
      "anonymous": false,
      "inputs": [
        {
          "indexed": false,
          "internalType": "uint256",
          "name": "p1",
          "type": "uint256"
        },
        {
          "indexed": false,
          "internalType": "uint256",
          "name": "p2",
          "type": "uint256"
        },
        {
          "indexed": false,
          "internalType": "uint256",
          "name": "p3",
          "type": "uint256"
        },
        {
          "indexed": false,
          "internalType": "uint256",
          "name": "p4",
          "type": "uint256"
        },
        {
          "indexed": false,
          "internalType": "uint256",
          "name": "p5",
          "type": "uint256"
        },
        {
          "indexed": false,
          "internalType": "uint256",
          "name": "p6",
          "type": "uint256"
        }
      ],
      "name": "sixPackPlayer",
      "type": "event"
    },
    {
      "inputs": [],
      "name": "PBXPToken",
      "outputs": [
        {
          "internalType": "contract PBXP",
          "name": "",
          "type": "address"
        }
      ],
      "stateMutability": "view",
      "type": "function",
      "constant": true
    },
    {
      "inputs": [
        {
          "internalType": "address",
          "name": "to",
          "type": "address"
        },
        {
          "internalType": "uint256",
          "name": "tokenId",
          "type": "uint256"
        }
      ],
      "name": "approve",
      "outputs": [],
      "stateMutability": "nonpayable",
      "type": "function"
    },
    {
      "inputs": [
        {
          "internalType": "address",
          "name": "owner",
          "type": "address"
        }
      ],
      "name": "balanceOf",
      "outputs": [
        {
          "internalType": "uint256",
          "name": "",
          "type": "uint256"
        }
      ],
      "stateMutability": "view",
      "type": "function",
      "constant": true
    },
    {
      "inputs": [],
      "name": "buddies",
      "outputs": [
        {
          "internalType": "contract IERC20",
          "name": "",
          "type": "address"
        }
      ],
      "stateMutability": "view",
      "type": "function",
      "constant": true
    },
    {
      "inputs": [
        {
          "internalType": "uint256",
          "name": "tokenId",
          "type": "uint256"
        }
      ],
      "name": "getApproved",
      "outputs": [
        {
          "internalType": "address",
          "name": "",
          "type": "address"
        }
      ],
      "stateMutability": "view",
      "type": "function",
      "constant": true
    },
    {
      "inputs": [
        {
          "internalType": "address",
          "name": "owner",
          "type": "address"
        },
        {
          "internalType": "address",
          "name": "operator",
          "type": "address"
        }
      ],
      "name": "isApprovedForAll",
      "outputs": [
        {
          "internalType": "bool",
          "name": "",
          "type": "bool"
        }
      ],
      "stateMutability": "view",
      "type": "function",
      "constant": true
    },
    {
      "inputs": [],
      "name": "name",
      "outputs": [
        {
          "internalType": "string",
          "name": "",
          "type": "string"
        }
      ],
      "stateMutability": "view",
      "type": "function",
      "constant": true
    },
    {
      "inputs": [
        {
          "internalType": "uint256",
          "name": "tokenId",
          "type": "uint256"
        }
      ],
      "name": "ownerOf",
      "outputs": [
        {
          "internalType": "address",
          "name": "",
          "type": "address"
        }
      ],
      "stateMutability": "view",
      "type": "function",
      "constant": true
    },
    {
      "inputs": [],
      "name": "pbPlayers",
      "outputs": [
        {
          "internalType": "contract PBPlayers",
          "name": "",
          "type": "address"
        }
      ],
      "stateMutability": "view",
      "type": "function",
      "constant": true
    },
    {
      "inputs": [
        {
          "internalType": "address",
          "name": "from",
          "type": "address"
        },
        {
          "internalType": "address",
          "name": "to",
          "type": "address"
        },
        {
          "internalType": "uint256",
          "name": "tokenId",
          "type": "uint256"
        }
      ],
      "name": "safeTransferFrom",
      "outputs": [],
      "stateMutability": "nonpayable",
      "type": "function"
    },
    {
      "inputs": [
        {
          "internalType": "address",
          "name": "from",
          "type": "address"
        },
        {
          "internalType": "address",
          "name": "to",
          "type": "address"
        },
        {
          "internalType": "uint256",
          "name": "tokenId",
          "type": "uint256"
        },
        {
          "internalType": "bytes",
          "name": "_data",
          "type": "bytes"
        }
      ],
      "name": "safeTransferFrom",
      "outputs": [],
      "stateMutability": "nonpayable",
      "type": "function"
    },
    {
      "inputs": [
        {
          "internalType": "address",
          "name": "operator",
          "type": "address"
        },
        {
          "internalType": "bool",
          "name": "approved",
          "type": "bool"
        }
      ],
      "name": "setApprovalForAll",
      "outputs": [],
      "stateMutability": "nonpayable",
      "type": "function"
    },
    {
      "inputs": [
        {
          "internalType": "bytes4",
          "name": "interfaceId",
          "type": "bytes4"
        }
      ],
      "name": "supportsInterface",
      "outputs": [
        {
          "internalType": "bool",
          "name": "",
          "type": "bool"
        }
      ],
      "stateMutability": "view",
      "type": "function",
      "constant": true
    },
    {
      "inputs": [],
      "name": "symbol",
      "outputs": [
        {
          "internalType": "string",
          "name": "",
          "type": "string"
        }
      ],
      "stateMutability": "view",
      "type": "function",
      "constant": true
    },
    {
      "inputs": [
        {
          "internalType": "uint256",
          "name": "tokenId",
          "type": "uint256"
        }
      ],
      "name": "tokenURI",
      "outputs": [
        {
          "internalType": "string",
          "name": "",
          "type": "string"
        }
      ],
      "stateMutability": "view",
      "type": "function",
      "constant": true
    },
    {
      "inputs": [
        {
          "internalType": "address",
          "name": "from",
          "type": "address"
        },
        {
          "internalType": "address",
          "name": "to",
          "type": "address"
        },
        {
          "internalType": "uint256",
          "name": "tokenId",
          "type": "uint256"
        }
      ],
      "name": "transferFrom",
      "outputs": [],
      "stateMutability": "nonpayable",
      "type": "function"
    },
    {
      "inputs": [],
      "name": "isAdmin",
      "outputs": [
        {
          "internalType": "bool",
          "name": "",
          "type": "bool"
        }
      ],
      "stateMutability": "view",
      "type": "function",
      "constant": true
    },
    {
      "inputs": [],
      "name": "getPBTeamsAddress",
      "outputs": [
        {
          "internalType": "address",
          "name": "",
          "type": "address"
        }
      ],
      "stateMutability": "view",
      "type": "function",
      "constant": true
    },
    {
      "inputs": [],
      "name": "getTeamMintCost",
      "outputs": [
        {
          "internalType": "uint256",
          "name": "",
          "type": "uint256"
        }
      ],
      "stateMutability": "view",
      "type": "function",
      "constant": true
    },
    {
      "inputs": [
        {
          "internalType": "address",
          "name": "_buddiesCoinAddress",
          "type": "address"
        }
      ],
      "name": "updateBuddiesCoinAddress",
      "outputs": [],
      "stateMutability": "nonpayable",
      "type": "function"
    },
    {
      "inputs": [
        {
          "internalType": "address",
          "name": "_pbxpAddress",
          "type": "address"
        }
      ],
      "name": "updatePbxpAddress",
      "outputs": [],
      "stateMutability": "nonpayable",
      "type": "function"
    },
    {
      "inputs": [
        {
          "internalType": "address",
          "name": "_pbPlayersAddress",
          "type": "address"
        }
      ],
      "name": "updatePuckBuddiePlayersAddress",
      "outputs": [],
      "stateMutability": "nonpayable",
      "type": "function"
    },
    {
      "inputs": [
        {
          "internalType": "uint256",
          "name": "_teamMintCost",
          "type": "uint256"
        }
      ],
      "name": "updateTeamMintCost",
      "outputs": [],
      "stateMutability": "nonpayable",
      "type": "function"
    },
    {
      "inputs": [
        {
          "internalType": "uint256",
          "name": "value",
          "type": "uint256"
        }
      ],
      "name": "mintSixPack",
      "outputs": [],
      "stateMutability": "nonpayable",
      "type": "function"
    },
    {
      "inputs": [],
      "name": "getBNBBalance",
      "outputs": [
        {
          "internalType": "uint256",
          "name": "",
          "type": "uint256"
        }
      ],
      "stateMutability": "view",
      "type": "function",
      "constant": true
    },
    {
      "inputs": [],
      "name": "getBudsBalance",
      "outputs": [
        {
          "internalType": "uint256",
          "name": "",
          "type": "uint256"
        }
      ],
      "stateMutability": "view",
      "type": "function",
      "constant": true
    },
    {
      "inputs": [
        {
          "internalType": "address payable",
          "name": "_to",
          "type": "address"
        },
        {
          "internalType": "uint256",
          "name": "_amount",
          "type": "uint256"
        }
      ],
      "name": "transferBNB",
      "outputs": [],
      "stateMutability": "nonpayable",
      "type": "function"
    },
    {
      "inputs": [
        {
          "internalType": "uint256",
          "name": "_amount",
          "type": "uint256"
        }
      ],
      "name": "transferBUDS",
      "outputs": [],
      "stateMutability": "nonpayable",
      "type": "function"
    }
  ],
  "bytecode": "0x6080604052662386f26fc10000600a556006600b556004600c556000600d553480156200002b57600080fd5b506040516200505938038062005059833981810160405281019062000051919062000325565b6040518060400160405280601181526020017f5075636b2042756464696573205465616d0000000000000000000000000000008152506040518060400160405280600381526020017f50425400000000000000000000000000000000000000000000000000000000008152508160009080519060200190620000d592919062000247565b508060019080519060200190620000ee92919062000247565b50505033600660006101000a81548173ffffffffffffffffffffffffffffffffffffffff021916908373ffffffffffffffffffffffffffffffffffffffff1602179055508360098190555082600e60006101000a81548173ffffffffffffffffffffffffffffffffffffffff021916908373ffffffffffffffffffffffffffffffffffffffff16021790555081600f60006101000a81548173ffffffffffffffffffffffffffffffffffffffff021916908373ffffffffffffffffffffffffffffffffffffffff16021790555080601060006101000a81548173ffffffffffffffffffffffffffffffffffffffff021916908373ffffffffffffffffffffffffffffffffffffffff16021790555080600860006101000a81548173ffffffffffffffffffffffffffffffffffffffff021916908373ffffffffffffffffffffffffffffffffffffffff1602179055505050505062000473565b8280546200025590620003d5565b90600052602060002090601f016020900481019282620002795760008555620002c5565b82601f106200029457805160ff1916838001178555620002c5565b82800160010185558215620002c5579182015b82811115620002c4578251825591602001919060010190620002a7565b5b509050620002d49190620002d8565b5090565b5b80821115620002f3576000816000905550600101620002d9565b5090565b60008151905062000308816200043f565b92915050565b6000815190506200031f8162000459565b92915050565b600080600080608085870312156200034257620003416200043a565b5b600062000352878288016200030e565b94505060206200036587828801620002f7565b93505060406200037887828801620002f7565b92505060606200038b87828801620002f7565b91505092959194509250565b6000620003a482620003ab565b9050919050565b600073ffffffffffffffffffffffffffffffffffffffff82169050919050565b6000819050919050565b60006002820490506001821680620003ee57607f821691505b602082108114156200040557620004046200040b565b5b50919050565b7f4e487b7100000000000000000000000000000000000000000000000000000000600052602260045260246000fd5b600080fd5b6200044a8162000397565b81146200045657600080fd5b50565b6200046481620003cb565b81146200047057600080fd5b50565b614bd680620004836000396000f3fe608060405234801561001057600080fd5b50600436106101c45760003560e01c80638491f214116100f9578063c87b56dd11610097578063ea1c3c0111610071578063ea1c3c01146104f1578063eb17fba31461050d578063f89879aa14610529578063ff18e68914610547576101c4565b8063c87b56dd14610475578063d034a6de146104a5578063e985e9c5146104c1576101c4565b806397ede525116100d357806397ede52514610401578063a22cb4651461041f578063b6db75a01461043b578063b88d4fde14610459576101c4565b80638491f214146103a957806395d89b41146103c757806395e03eb4146103e5576101c4565b806342842e0e116101665780635d632faf116101405780635d632faf1461030f5780636352211e1461032b57806363eaef5a1461035b57806370a0823114610379576101c4565b806342842e0e146102b95780634a594c12146102d557806356ef3bfc146102f3576101c4565b8063095ea7b3116101a2578063095ea7b314610247578063095fa7ec14610263578063173170eb1461028157806323b872dd1461029d576101c4565b806301ffc9a7146101c957806306fdde03146101f9578063081812fc14610217575b600080fd5b6101e360048036038101906101de9190613838565b610565565b6040516101f09190613e42565b60405180910390f35b610201610647565b60405161020e9190613ee4565b60405180910390f35b610231600480360381019061022c9190613892565b6106d9565b60405161023e9190613c83565b60405180910390f35b610261600480360381019061025c91906137cb565b61075e565b005b61026b610876565b6040516102789190613c83565b60405180910390f35b61029b60048036038101906102969190613892565b61087e565b005b6102b760048036038101906102b291906136b5565b611f5e565b005b6102d360048036038101906102ce91906136b5565b611fbe565b005b6102dd611fde565b6040516102ea9190613e5d565b60405180910390f35b61030d60048036038101906103089190613608565b612004565b005b61032960048036038101906103249190613608565b612119565b005b61034560048036038101906103409190613892565b6121ed565b6040516103529190613c83565b60405180910390f35b61036361229f565b6040516103709190613e78565b60405180910390f35b610393600480360381019061038e9190613608565b6122c5565b6040516103a091906140e6565b60405180910390f35b6103b161237d565b6040516103be91906140e6565b60405180910390f35b6103cf61242f565b6040516103dc9190613ee4565b60405180910390f35b6103ff60048036038101906103fa9190613892565b6124c1565b005b610409612604565b6040516104169190613e93565b60405180910390f35b6104396004803603810190610434919061378b565b61262a565b005b6104436127ab565b6040516104509190613e42565b60405180910390f35b610473600480360381019061046e9190613708565b612814565b005b61048f600480360381019061048a9190613892565b612876565b60405161049c9190613ee4565b60405180910390f35b6104bf60048036038101906104ba9190613892565b61291d565b005b6104db60048036038101906104d69190613675565b6129b7565b6040516104e89190613e42565b60405180910390f35b61050b60048036038101906105069190613608565b612a4b565b005b61052760048036038101906105229190613635565b612b1f565b005b610531612bfa565b60405161053e91906140e6565b60405180910390f35b61054f612c92565b60405161055c91906140e6565b60405180910390f35b60007f80ac58cd000000000000000000000000000000000000000000000000000000007bffffffffffffffffffffffffffffffffffffffffffffffffffffffff1916827bffffffffffffffffffffffffffffffffffffffffffffffffffffffff1916148061063057507f5b5e139f000000000000000000000000000000000000000000000000000000007bffffffffffffffffffffffffffffffffffffffffffffffffffffffff1916827bffffffffffffffffffffffffffffffffffffffffffffffffffffffff1916145b80610640575061063f82612c9c565b5b9050919050565b60606000805461065690614537565b80601f016020809104026020016040519081016040528092919081815260200182805461068290614537565b80156106cf5780601f106106a4576101008083540402835291602001916106cf565b820191906000526020600020905b8154815290600101906020018083116106b257829003601f168201915b5050505050905090565b60006106e482612d06565b610723576040517f08c379a000000000000000000000000000000000000000000000000000000000815260040161071a90614046565b60405180910390fd5b6004600083815260200190815260200160002060009054906101000a900473ffffffffffffffffffffffffffffffffffffffff169050919050565b6000610769826121ed565b90508073ffffffffffffffffffffffffffffffffffffffff168373ffffffffffffffffffffffffffffffffffffffff1614156107da576040517f08c379a00000000000000000000000000000000000000000000000000000000081526004016107d1906140a6565b60405180910390fd5b8073ffffffffffffffffffffffffffffffffffffffff166107f9612d72565b73ffffffffffffffffffffffffffffffffffffffff161480610828575061082781610822612d72565b6129b7565b5b610867576040517f08c379a000000000000000000000000000000000000000000000000000000000815260040161085e90613fe6565b60405180910390fd5b6108718383612d7a565b505050565b600030905090565b60095481146108c2576040517f08c379a00000000000000000000000000000000000000000000000000000000081526004016108b990613fa6565b60405180910390fd5b6000600e60009054906101000a900473ffffffffffffffffffffffffffffffffffffffff1673ffffffffffffffffffffffffffffffffffffffff1663dd62ed3e33306040518363ffffffff1660e01b8152600401610921929190613c9e565b60206040518083038186803b15801561093957600080fd5b505afa15801561094d573d6000803e3d6000fd5b505050506040513d601f19601f8201168201806040525081019061097191906138bf565b9050818110156109b6576040517f08c379a00000000000000000000000000000000000000000000000000000000081526004016109ad90613f06565b60405180910390fd5b600e60009054906101000a900473ffffffffffffffffffffffffffffffffffffffff1673ffffffffffffffffffffffffffffffffffffffff166323b872dd33600860009054906101000a900473ffffffffffffffffffffffffffffffffffffffff16856040518463ffffffff1660e01b8152600401610a3793929190613cc7565b602060405180830381600087803b158015610a5157600080fd5b505af1158015610a65573d6000803e3d6000fd5b505050506040513d601f19601f82011682018060405250810190610a89919061380b565b506000806000600667ffffffffffffffff811115610aaa57610aa96146d0565b5b604051908082528060200260200182016040528015610ad85781602001602082028036833780820191505090505b509050601060009054906101000a900473ffffffffffffffffffffffffffffffffffffffff1673ffffffffffffffffffffffffffffffffffffffff1663a8de071e33603280601060009054906101000a900473ffffffffffffffffffffffffffffffffffffffff1673ffffffffffffffffffffffffffffffffffffffff1663c948338360016040518263ffffffff1660e01b8152600401610b799190613eae565b60206040518083038186803b158015610b9157600080fd5b505afa158015610ba5573d6000803e3d6000fd5b505050506040513d601f19601f82011682018060405250810190610bc991906138bf565b6040518563ffffffff1660e01b8152600401610be89493929190613dd4565b60206040518083038186803b158015610c0057600080fd5b505afa158015610c14573d6000803e3d6000fd5b505050506040513d601f19601f82011682018060405250810190610c3891906138bf565b9250601060009054906101000a900473ffffffffffffffffffffffffffffffffffffffff1673ffffffffffffffffffffffffffffffffffffffff1663a8de071e3360326000601060009054906101000a900473ffffffffffffffffffffffffffffffffffffffff1673ffffffffffffffffffffffffffffffffffffffff1663c948338360026040518263ffffffff1660e01b8152600401610cd99190613ec9565b60206040518083038186803b158015610cf157600080fd5b505afa158015610d05573d6000803e3d6000fd5b505050506040513d601f19601f82011682018060405250810190610d2991906138bf565b6040518563ffffffff1660e01b8152600401610d489493929190613d8f565b60206040518083038186803b158015610d6057600080fd5b505afa158015610d74573d6000803e3d6000fd5b505050506040513d601f19601f82011682018060405250810190610d9891906138bf565b91506000601060009054906101000a900473ffffffffffffffffffffffffffffffffffffffff1673ffffffffffffffffffffffffffffffffffffffff16637a560b2285853360016040518563ffffffff1660e01b8152600401610dfe9493929190614101565b602060405180830381600087803b158015610e1857600080fd5b505af1158015610e2c573d6000803e3d6000fd5b505050506040513d601f19601f82011682018060405250810190610e5091906138bf565b90508082600081518110610e6757610e666146a1565b5b602002602001018181525050601060009054906101000a900473ffffffffffffffffffffffffffffffffffffffff1673ffffffffffffffffffffffffffffffffffffffff1663a8de071e33603280601060009054906101000a900473ffffffffffffffffffffffffffffffffffffffff1673ffffffffffffffffffffffffffffffffffffffff1663c948338360016040518263ffffffff1660e01b8152600401610f119190613eae565b60206040518083038186803b158015610f2957600080fd5b505afa158015610f3d573d6000803e3d6000fd5b505050506040513d601f19601f82011682018060405250810190610f6191906138bf565b6040518563ffffffff1660e01b8152600401610f809493929190613dd4565b60206040518083038186803b158015610f9857600080fd5b505afa158015610fac573d6000803e3d6000fd5b505050506040513d601f19601f82011682018060405250810190610fd091906138bf565b9350601060009054906101000a900473ffffffffffffffffffffffffffffffffffffffff1673ffffffffffffffffffffffffffffffffffffffff1663a8de071e3360326000601060009054906101000a900473ffffffffffffffffffffffffffffffffffffffff1673ffffffffffffffffffffffffffffffffffffffff1663c948338360026040518263ffffffff1660e01b81526004016110719190613ec9565b60206040518083038186803b15801561108957600080fd5b505afa15801561109d573d6000803e3d6000fd5b505050506040513d601f19601f820116820180604052508101906110c191906138bf565b6040518563ffffffff1660e01b81526004016110e09493929190613d8f565b60206040518083038186803b1580156110f857600080fd5b505afa15801561110c573d6000803e3d6000fd5b505050506040513d601f19601f8201168201806040525081019061113091906138bf565b92506000601060009054906101000a900473ffffffffffffffffffffffffffffffffffffffff1673ffffffffffffffffffffffffffffffffffffffff16637a560b2286863360016040518563ffffffff1660e01b81526004016111969493929190614101565b602060405180830381600087803b1580156111b057600080fd5b505af11580156111c4573d6000803e3d6000fd5b505050506040513d601f19601f820116820180604052508101906111e891906138bf565b905080836001815181106111ff576111fe6146a1565b5b602002602001018181525050601060009054906101000a900473ffffffffffffffffffffffffffffffffffffffff1673ffffffffffffffffffffffffffffffffffffffff1663a8de071e33603280601060009054906101000a900473ffffffffffffffffffffffffffffffffffffffff1673ffffffffffffffffffffffffffffffffffffffff1663c948338360016040518263ffffffff1660e01b81526004016112a99190613eae565b60206040518083038186803b1580156112c157600080fd5b505afa1580156112d5573d6000803e3d6000fd5b505050506040513d601f19601f820116820180604052508101906112f991906138bf565b6040518563ffffffff1660e01b81526004016113189493929190613dd4565b60206040518083038186803b15801561133057600080fd5b505afa158015611344573d6000803e3d6000fd5b505050506040513d601f19601f8201168201806040525081019061136891906138bf565b9450601060009054906101000a900473ffffffffffffffffffffffffffffffffffffffff1673ffffffffffffffffffffffffffffffffffffffff1663a8de071e3360326000601060009054906101000a900473ffffffffffffffffffffffffffffffffffffffff1673ffffffffffffffffffffffffffffffffffffffff1663c948338360026040518263ffffffff1660e01b81526004016114099190613ec9565b60206040518083038186803b15801561142157600080fd5b505afa158015611435573d6000803e3d6000fd5b505050506040513d601f19601f8201168201806040525081019061145991906138bf565b6040518563ffffffff1660e01b81526004016114789493929190613d8f565b60206040518083038186803b15801561149057600080fd5b505afa1580156114a4573d6000803e3d6000fd5b505050506040513d601f19601f820116820180604052508101906114c891906138bf565b93506000601060009054906101000a900473ffffffffffffffffffffffffffffffffffffffff1673ffffffffffffffffffffffffffffffffffffffff16637a560b2287873360016040518563ffffffff1660e01b815260040161152e9493929190614101565b602060405180830381600087803b15801561154857600080fd5b505af115801561155c573d6000803e3d6000fd5b505050506040513d601f19601f8201168201806040525081019061158091906138bf565b90508084600281518110611597576115966146a1565b5b602002602001018181525050601060009054906101000a900473ffffffffffffffffffffffffffffffffffffffff1673ffffffffffffffffffffffffffffffffffffffff1663a8de071e3360326000601060009054906101000a900473ffffffffffffffffffffffffffffffffffffffff1673ffffffffffffffffffffffffffffffffffffffff1663c948338360016040518263ffffffff1660e01b81526004016116429190613eae565b60206040518083038186803b15801561165a57600080fd5b505afa15801561166e573d6000803e3d6000fd5b505050506040513d601f19601f8201168201806040525081019061169291906138bf565b6040518563ffffffff1660e01b81526004016116b19493929190613d8f565b60206040518083038186803b1580156116c957600080fd5b505afa1580156116dd573d6000803e3d6000fd5b505050506040513d601f19601f8201168201806040525081019061170191906138bf565b9550601060009054906101000a900473ffffffffffffffffffffffffffffffffffffffff1673ffffffffffffffffffffffffffffffffffffffff1663a8de071e33603280601060009054906101000a900473ffffffffffffffffffffffffffffffffffffffff1673ffffffffffffffffffffffffffffffffffffffff1663c948338360026040518263ffffffff1660e01b81526004016117a19190613ec9565b60206040518083038186803b1580156117b957600080fd5b505afa1580156117cd573d6000803e3d6000fd5b505050506040513d601f19601f820116820180604052508101906117f191906138bf565b6040518563ffffffff1660e01b81526004016118109493929190613dd4565b60206040518083038186803b15801561182857600080fd5b505afa15801561183c573d6000803e3d6000fd5b505050506040513d601f19601f8201168201806040525081019061186091906138bf565b94506000601060009054906101000a900473ffffffffffffffffffffffffffffffffffffffff1673ffffffffffffffffffffffffffffffffffffffff16637a560b2288883360026040518563ffffffff1660e01b81526004016118c69493929190614146565b602060405180830381600087803b1580156118e057600080fd5b505af11580156118f4573d6000803e3d6000fd5b505050506040513d601f19601f8201168201806040525081019061191891906138bf565b9050808560038151811061192f5761192e6146a1565b5b602002602001018181525050601060009054906101000a900473ffffffffffffffffffffffffffffffffffffffff1673ffffffffffffffffffffffffffffffffffffffff1663a8de071e3360326000601060009054906101000a900473ffffffffffffffffffffffffffffffffffffffff1673ffffffffffffffffffffffffffffffffffffffff1663c948338360016040518263ffffffff1660e01b81526004016119da9190613eae565b60206040518083038186803b1580156119f257600080fd5b505afa158015611a06573d6000803e3d6000fd5b505050506040513d601f19601f82011682018060405250810190611a2a91906138bf565b6040518563ffffffff1660e01b8152600401611a499493929190613d8f565b60206040518083038186803b158015611a6157600080fd5b505afa158015611a75573d6000803e3d6000fd5b505050506040513d601f19601f82011682018060405250810190611a9991906138bf565b9650601060009054906101000a900473ffffffffffffffffffffffffffffffffffffffff1673ffffffffffffffffffffffffffffffffffffffff1663a8de071e33603280601060009054906101000a900473ffffffffffffffffffffffffffffffffffffffff1673ffffffffffffffffffffffffffffffffffffffff1663c948338360026040518263ffffffff1660e01b8152600401611b399190613ec9565b60206040518083038186803b158015611b5157600080fd5b505afa158015611b65573d6000803e3d6000fd5b505050506040513d601f19601f82011682018060405250810190611b8991906138bf565b6040518563ffffffff1660e01b8152600401611ba89493929190613dd4565b60206040518083038186803b158015611bc057600080fd5b505afa158015611bd4573d6000803e3d6000fd5b505050506040513d601f19601f82011682018060405250810190611bf891906138bf565b95506000601060009054906101000a900473ffffffffffffffffffffffffffffffffffffffff1673ffffffffffffffffffffffffffffffffffffffff16637a560b2289893360026040518563ffffffff1660e01b8152600401611c5e9493929190614146565b602060405180830381600087803b158015611c7857600080fd5b505af1158015611c8c573d6000803e3d6000fd5b505050506040513d601f19601f82011682018060405250810190611cb091906138bf565b90508086600481518110611cc757611cc66146a1565b5b60200260200101818152505060009750601060009054906101000a900473ffffffffffffffffffffffffffffffffffffffff1673ffffffffffffffffffffffffffffffffffffffff1663a8de071e336019604b601060009054906101000a900473ffffffffffffffffffffffffffffffffffffffff1673ffffffffffffffffffffffffffffffffffffffff1663c948338360026040518263ffffffff1660e01b8152600401611d769190613ec9565b60206040518083038186803b158015611d8e57600080fd5b505afa158015611da2573d6000803e3d6000fd5b505050506040513d601f19601f82011682018060405250810190611dc691906138bf565b6040518563ffffffff1660e01b8152600401611de59493929190613d4a565b60206040518083038186803b158015611dfd57600080fd5b505afa158015611e11573d6000803e3d6000fd5b505050506040513d601f19601f82011682018060405250810190611e3591906138bf565b96506000601060009054906101000a900473ffffffffffffffffffffffffffffffffffffffff1673ffffffffffffffffffffffffffffffffffffffff16637a560b228a8a3360036040518563ffffffff1660e01b8152600401611e9b949392919061418b565b602060405180830381600087803b158015611eb557600080fd5b505af1158015611ec9573d6000803e3d6000fd5b505050506040513d601f19601f82011682018060405250810190611eed91906138bf565b90508087600581518110611f0457611f036146a1565b5b6020026020010181815250507f9ed001aacf9d72d9ee7634796fa0416c8d7cd51277a95b45af692f821ff32cf4868686868686604051611f49969594939291906141d0565b60405180910390a15050505050505050505050565b611f6f611f69612d72565b82612e33565b611fae576040517f08c379a0000000000000000000000000000000000000000000000000000000008152600401611fa5906140c6565b60405180910390fd5b611fb9838383612f11565b505050565b611fd983838360405180602001604052806000815250612814565b505050565b600e60009054906101000a900473ffffffffffffffffffffffffffffffffffffffff1681565b3373ffffffffffffffffffffffffffffffffffffffff16600660009054906101000a900473ffffffffffffffffffffffffffffffffffffffff1673ffffffffffffffffffffffffffffffffffffffff1614612094576040517f08c379a000000000000000000000000000000000000000000000000000000000815260040161208b90613f46565b60405180910390fd5b80601060006101000a81548173ffffffffffffffffffffffffffffffffffffffff021916908373ffffffffffffffffffffffffffffffffffffffff16021790555080600860006101000a81548173ffffffffffffffffffffffffffffffffffffffff021916908373ffffffffffffffffffffffffffffffffffffffff16021790555050565b3373ffffffffffffffffffffffffffffffffffffffff16600660009054906101000a900473ffffffffffffffffffffffffffffffffffffffff1673ffffffffffffffffffffffffffffffffffffffff16146121a9576040517f08c379a00000000000000000000000000000000000000000000000000000000081526004016121a090613f46565b60405180910390fd5b80600e60006101000a81548173ffffffffffffffffffffffffffffffffffffffff021916908373ffffffffffffffffffffffffffffffffffffffff16021790555050565b6000806002600084815260200190815260200160002060009054906101000a900473ffffffffffffffffffffffffffffffffffffffff169050600073ffffffffffffffffffffffffffffffffffffffff168173ffffffffffffffffffffffffffffffffffffffff161415612296576040517f08c379a000000000000000000000000000000000000000000000000000000000815260040161228d90614026565b60405180910390fd5b80915050919050565b601060009054906101000a900473ffffffffffffffffffffffffffffffffffffffff1681565b60008073ffffffffffffffffffffffffffffffffffffffff168273ffffffffffffffffffffffffffffffffffffffff161415612336576040517f08c379a000000000000000000000000000000000000000000000000000000000815260040161232d90614006565b60405180910390fd5b600360008373ffffffffffffffffffffffffffffffffffffffff1673ffffffffffffffffffffffffffffffffffffffff168152602001908152602001600020549050919050565b6000600e60009054906101000a900473ffffffffffffffffffffffffffffffffffffffff1673ffffffffffffffffffffffffffffffffffffffff166370a08231306040518263ffffffff1660e01b81526004016123da9190613c83565b60206040518083038186803b1580156123f257600080fd5b505afa158015612406573d6000803e3d6000fd5b505050506040513d601f19601f8201168201806040525081019061242a91906138bf565b905090565b60606001805461243e90614537565b80601f016020809104026020016040519081016040528092919081815260200182805461246a90614537565b80156124b75780601f1061248c576101008083540402835291602001916124b7565b820191906000526020600020905b81548152906001019060200180831161249a57829003601f168201915b5050505050905090565b3373ffffffffffffffffffffffffffffffffffffffff16600660009054906101000a900473ffffffffffffffffffffffffffffffffffffffff1673ffffffffffffffffffffffffffffffffffffffff1614612551576040517f08c379a000000000000000000000000000000000000000000000000000000000815260040161254890613f46565b60405180910390fd5b600e60009054906101000a900473ffffffffffffffffffffffffffffffffffffffff1673ffffffffffffffffffffffffffffffffffffffff1663a9059cbb33836040518363ffffffff1660e01b81526004016125ae929190613e19565b602060405180830381600087803b1580156125c857600080fd5b505af11580156125dc573d6000803e3d6000fd5b505050506040513d601f19601f82011682018060405250810190612600919061380b565b5050565b600f60009054906101000a900473ffffffffffffffffffffffffffffffffffffffff1681565b612632612d72565b73ffffffffffffffffffffffffffffffffffffffff168273ffffffffffffffffffffffffffffffffffffffff1614156126a0576040517f08c379a000000000000000000000000000000000000000000000000000000000815260040161269790613f86565b60405180910390fd5b80600560006126ad612d72565b73ffffffffffffffffffffffffffffffffffffffff1673ffffffffffffffffffffffffffffffffffffffff16815260200190815260200160002060008473ffffffffffffffffffffffffffffffffffffffff1673ffffffffffffffffffffffffffffffffffffffff16815260200190815260200160002060006101000a81548160ff0219169083151502179055508173ffffffffffffffffffffffffffffffffffffffff1661275a612d72565b73ffffffffffffffffffffffffffffffffffffffff167f17307eab39ab6107e8899845ad3d59bd9653f200f220920489ca2b5937696c318360405161279f9190613e42565b60405180910390a35050565b60003373ffffffffffffffffffffffffffffffffffffffff16600660009054906101000a900473ffffffffffffffffffffffffffffffffffffffff1673ffffffffffffffffffffffffffffffffffffffff16141561280c5760019050612811565b600090505b90565b61282561281f612d72565b83612e33565b612864576040517f08c379a000000000000000000000000000000000000000000000000000000000815260040161285b906140c6565b60405180910390fd5b6128708484848461316d565b50505050565b606061288182612d06565b6128c0576040517f08c379a00000000000000000000000000000000000000000000000000000000081526004016128b790614086565b60405180910390fd5b60006128ca6131c9565b905060008151116128ea5760405180602001604052806000815250612915565b806128f4846131e0565b604051602001612905929190613c5f565b6040516020818303038152906040525b915050919050565b3373ffffffffffffffffffffffffffffffffffffffff16600660009054906101000a900473ffffffffffffffffffffffffffffffffffffffff1673ffffffffffffffffffffffffffffffffffffffff16146129ad576040517f08c379a00000000000000000000000000000000000000000000000000000000081526004016129a490613f46565b60405180910390fd5b8060098190555050565b6000600560008473ffffffffffffffffffffffffffffffffffffffff1673ffffffffffffffffffffffffffffffffffffffff16815260200190815260200160002060008373ffffffffffffffffffffffffffffffffffffffff1673ffffffffffffffffffffffffffffffffffffffff16815260200190815260200160002060009054906101000a900460ff16905092915050565b3373ffffffffffffffffffffffffffffffffffffffff16600660009054906101000a900473ffffffffffffffffffffffffffffffffffffffff1673ffffffffffffffffffffffffffffffffffffffff1614612adb576040517f08c379a0000000000000000000000000000000000000000000000000000000008152600401612ad290613f46565b60405180910390fd5b80600f60006101000a81548173ffffffffffffffffffffffffffffffffffffffff021916908373ffffffffffffffffffffffffffffffffffffffff16021790555050565b3373ffffffffffffffffffffffffffffffffffffffff16600660009054906101000a900473ffffffffffffffffffffffffffffffffffffffff1673ffffffffffffffffffffffffffffffffffffffff1614612baf576040517f08c379a0000000000000000000000000000000000000000000000000000000008152600401612ba690613f46565b60405180910390fd5b8173ffffffffffffffffffffffffffffffffffffffff166108fc829081150290604051600060405180830381858888f19350505050158015612bf5573d6000803e3d6000fd5b505050565b60003373ffffffffffffffffffffffffffffffffffffffff16600660009054906101000a900473ffffffffffffffffffffffffffffffffffffffff1673ffffffffffffffffffffffffffffffffffffffff1614612c8c576040517f08c379a0000000000000000000000000000000000000000000000000000000008152600401612c8390613f46565b60405180910390fd5b47905090565b6000600954905090565b60007f01ffc9a7000000000000000000000000000000000000000000000000000000007bffffffffffffffffffffffffffffffffffffffffffffffffffffffff1916827bffffffffffffffffffffffffffffffffffffffffffffffffffffffff1916149050919050565b60008073ffffffffffffffffffffffffffffffffffffffff166002600084815260200190815260200160002060009054906101000a900473ffffffffffffffffffffffffffffffffffffffff1673ffffffffffffffffffffffffffffffffffffffff1614159050919050565b600033905090565b816004600083815260200190815260200160002060006101000a81548173ffffffffffffffffffffffffffffffffffffffff021916908373ffffffffffffffffffffffffffffffffffffffff160217905550808273ffffffffffffffffffffffffffffffffffffffff16612ded836121ed565b73ffffffffffffffffffffffffffffffffffffffff167f8c5be1e5ebec7d5bd14f71427d1e84f3dd0314c0f7b2291e5b200ac8c7c3b92560405160405180910390a45050565b6000612e3e82612d06565b612e7d576040517f08c379a0000000000000000000000000000000000000000000000000000000008152600401612e7490613fc6565b60405180910390fd5b6000612e88836121ed565b90508073ffffffffffffffffffffffffffffffffffffffff168473ffffffffffffffffffffffffffffffffffffffff161480612ef757508373ffffffffffffffffffffffffffffffffffffffff16612edf846106d9565b73ffffffffffffffffffffffffffffffffffffffff16145b80612f085750612f0781856129b7565b5b91505092915050565b8273ffffffffffffffffffffffffffffffffffffffff16612f31826121ed565b73ffffffffffffffffffffffffffffffffffffffff1614612f87576040517f08c379a0000000000000000000000000000000000000000000000000000000008152600401612f7e90614066565b60405180910390fd5b600073ffffffffffffffffffffffffffffffffffffffff168273ffffffffffffffffffffffffffffffffffffffff161415612ff7576040517f08c379a0000000000000000000000000000000000000000000000000000000008152600401612fee90613f66565b60405180910390fd5b613002838383613341565b61300d600082612d7a565b6001600360008573ffffffffffffffffffffffffffffffffffffffff1673ffffffffffffffffffffffffffffffffffffffff168152602001908152602001600020600082825461305d9190614351565b925050819055506001600360008473ffffffffffffffffffffffffffffffffffffffff1673ffffffffffffffffffffffffffffffffffffffff16815260200190815260200160002060008282546130b491906142ca565b92505081905550816002600083815260200190815260200160002060006101000a81548173ffffffffffffffffffffffffffffffffffffffff021916908373ffffffffffffffffffffffffffffffffffffffff160217905550808273ffffffffffffffffffffffffffffffffffffffff168473ffffffffffffffffffffffffffffffffffffffff167fddf252ad1be2c89b69c2b068fc378daa952ba7f163c4a11628f55a4df523b3ef60405160405180910390a4505050565b613178848484612f11565b61318484848484613346565b6131c3576040517f08c379a00000000000000000000000000000000000000000000000000000000081526004016131ba90613f26565b60405180910390fd5b50505050565b606060405180602001604052806000815250905090565b60606000821415613228576040518060400160405280600181526020017f3000000000000000000000000000000000000000000000000000000000000000815250905061333c565b600082905060005b6000821461325a5780806132439061459a565b915050600a826132539190614320565b9150613230565b60008167ffffffffffffffff811115613276576132756146d0565b5b6040519080825280601f01601f1916602001820160405280156132a85781602001600182028036833780820191505090505b5090505b60008514613335576001826132c19190614351565b9150600a856132d091906145e3565b60306132dc91906142ca565b60f81b8183815181106132f2576132f16146a1565b5b60200101907effffffffffffffffffffffffffffffffffffffffffffffffffffffffffffff1916908160001a905350600a8561332e9190614320565b94506132ac565b8093505050505b919050565b505050565b60006133678473ffffffffffffffffffffffffffffffffffffffff166134dd565b156134d0578373ffffffffffffffffffffffffffffffffffffffff1663150b7a02613390612d72565b8786866040518563ffffffff1660e01b81526004016133b29493929190613cfe565b602060405180830381600087803b1580156133cc57600080fd5b505af19250505080156133fd57506040513d601f19601f820116820180604052508101906133fa9190613865565b60015b613480573d806000811461342d576040519150601f19603f3d011682016040523d82523d6000602084013e613432565b606091505b50600081511415613478576040517f08c379a000000000000000000000000000000000000000000000000000000000815260040161346f90613f26565b60405180910390fd5b805181602001fd5b63150b7a0260e01b7bffffffffffffffffffffffffffffffffffffffffffffffffffffffff1916817bffffffffffffffffffffffffffffffffffffffffffffffffffffffff1916149150506134d5565b600190505b949350505050565b600080823b905060008111915050919050565b60006135036134fe84614256565b614231565b90508281526020810184848401111561351f5761351e614704565b5b61352a8482856144f5565b509392505050565b60008135905061354181614b2d565b92915050565b60008135905061355681614b44565b92915050565b60008135905061356b81614b5b565b92915050565b60008151905061358081614b5b565b92915050565b60008135905061359581614b72565b92915050565b6000815190506135aa81614b72565b92915050565b600082601f8301126135c5576135c46146ff565b5b81356135d58482602086016134f0565b91505092915050565b6000813590506135ed81614b89565b92915050565b60008151905061360281614b89565b92915050565b60006020828403121561361e5761361d61470e565b5b600061362c84828501613532565b91505092915050565b6000806040838503121561364c5761364b61470e565b5b600061365a85828601613547565b925050602061366b858286016135de565b9150509250929050565b6000806040838503121561368c5761368b61470e565b5b600061369a85828601613532565b92505060206136ab85828601613532565b9150509250929050565b6000806000606084860312156136ce576136cd61470e565b5b60006136dc86828701613532565b93505060206136ed86828701613532565b92505060406136fe868287016135de565b9150509250925092565b600080600080608085870312156137225761372161470e565b5b600061373087828801613532565b945050602061374187828801613532565b9350506040613752878288016135de565b925050606085013567ffffffffffffffff81111561377357613772614709565b5b61377f878288016135b0565b91505092959194509250565b600080604083850312156137a2576137a161470e565b5b60006137b085828601613532565b92505060206137c18582860161355c565b9150509250929050565b600080604083850312156137e2576137e161470e565b5b60006137f085828601613532565b9250506020613801858286016135de565b9150509250929050565b6000602082840312156138215761382061470e565b5b600061382f84828501613571565b91505092915050565b60006020828403121561384e5761384d61470e565b5b600061385c84828501613586565b91505092915050565b60006020828403121561387b5761387a61470e565b5b60006138898482850161359b565b91505092915050565b6000602082840312156138a8576138a761470e565b5b60006138b6848285016135de565b91505092915050565b6000602082840312156138d5576138d461470e565b5b60006138e3848285016135f3565b91505092915050565b6138f581614385565b82525050565b613904816143a9565b82525050565b600061391582614287565b61391f818561429d565b935061392f818560208601614504565b61393881614713565b840191505092915050565b61394c8161440b565b82525050565b61395b8161442f565b82525050565b61396a81614453565b82525050565b61397981614477565b82525050565b61398881614489565b82525050565b6139978161449b565b82525050565b6139a6816144ad565b82525050565b6139b5816144bf565b82525050565b6139c4816144d1565b82525050565b6139d3816144e3565b82525050565b60006139e482614292565b6139ee81856142ae565b93506139fe818560208601614504565b613a0781614713565b840191505092915050565b6000613a1d82614292565b613a2781856142bf565b9350613a37818560208601614504565b80840191505092915050565b6000613a506002836142ae565b9150613a5b82614724565b602082019050919050565b6000613a736032836142ae565b9150613a7e8261474d565b604082019050919050565b6000613a966002836142ae565b9150613aa18261479c565b602082019050919050565b6000613ab96024836142ae565b9150613ac4826147c5565b604082019050919050565b6000613adc6019836142ae565b9150613ae782614814565b602082019050919050565b6000613aff6002836142ae565b9150613b0a8261483d565b602082019050919050565b6000613b22602c836142ae565b9150613b2d82614866565b604082019050919050565b6000613b456038836142ae565b9150613b50826148b5565b604082019050919050565b6000613b68602a836142ae565b9150613b7382614904565b604082019050919050565b6000613b8b6029836142ae565b9150613b9682614953565b604082019050919050565b6000613bae602c836142ae565b9150613bb9826149a2565b604082019050919050565b6000613bd16029836142ae565b9150613bdc826149f1565b604082019050919050565b6000613bf4602f836142ae565b9150613bff82614a40565b604082019050919050565b6000613c176021836142ae565b9150613c2282614a8f565b604082019050919050565b6000613c3a6031836142ae565b9150613c4582614ade565b604082019050919050565b613c5981614401565b82525050565b6000613c6b8285613a12565b9150613c778284613a12565b91508190509392505050565b6000602082019050613c9860008301846138ec565b92915050565b6000604082019050613cb360008301856138ec565b613cc060208301846138ec565b9392505050565b6000606082019050613cdc60008301866138ec565b613ce960208301856138ec565b613cf66040830184613c50565b949350505050565b6000608082019050613d1360008301876138ec565b613d2060208301866138ec565b613d2d6040830185613c50565b8181036060830152613d3f818461390a565b905095945050505050565b6000608082019050613d5f60008301876138ec565b613d6c602083018661398e565b613d7960408301856139ca565b613d866060830184613c50565b95945050505050565b6000608082019050613da460008301876138ec565b613db160208301866139bb565b613dbe6040830185613970565b613dcb6060830184613c50565b95945050505050565b6000608082019050613de960008301876138ec565b613df660208301866139bb565b613e0360408301856139bb565b613e106060830184613c50565b95945050505050565b6000604082019050613e2e60008301856138ec565b613e3b6020830184613c50565b9392505050565b6000602082019050613e5760008301846138fb565b92915050565b6000602082019050613e726000830184613943565b92915050565b6000602082019050613e8d6000830184613952565b92915050565b6000602082019050613ea86000830184613961565b92915050565b6000602082019050613ec3600083018461397f565b92915050565b6000602082019050613ede600083018461399d565b92915050565b60006020820190508181036000830152613efe81846139d9565b905092915050565b60006020820190508181036000830152613f1f81613a43565b9050919050565b60006020820190508181036000830152613f3f81613a66565b9050919050565b60006020820190508181036000830152613f5f81613a89565b9050919050565b60006020820190508181036000830152613f7f81613aac565b9050919050565b60006020820190508181036000830152613f9f81613acf565b9050919050565b60006020820190508181036000830152613fbf81613af2565b9050919050565b60006020820190508181036000830152613fdf81613b15565b9050919050565b60006020820190508181036000830152613fff81613b38565b9050919050565b6000602082019050818103600083015261401f81613b5b565b9050919050565b6000602082019050818103600083015261403f81613b7e565b9050919050565b6000602082019050818103600083015261405f81613ba1565b9050919050565b6000602082019050818103600083015261407f81613bc4565b9050919050565b6000602082019050818103600083015261409f81613be7565b9050919050565b600060208201905081810360008301526140bf81613c0a565b9050919050565b600060208201905081810360008301526140df81613c2d565b9050919050565b60006020820190506140fb6000830184613c50565b92915050565b60006080820190506141166000830187613c50565b6141236020830186613c50565b61413060408301856138ec565b61413d606083018461397f565b95945050505050565b600060808201905061415b6000830187613c50565b6141686020830186613c50565b61417560408301856138ec565b614182606083018461399d565b95945050505050565b60006080820190506141a06000830187613c50565b6141ad6020830186613c50565b6141ba60408301856138ec565b6141c760608301846139ac565b95945050505050565b600060c0820190506141e56000830189613c50565b6141f26020830188613c50565b6141ff6040830187613c50565b61420c6060830186613c50565b6142196080830185613c50565b61422660a0830184613c50565b979650505050505050565b600061423b61424c565b90506142478282614569565b919050565b6000604051905090565b600067ffffffffffffffff821115614271576142706146d0565b5b61427a82614713565b9050602081019050919050565b600081519050919050565b600081519050919050565b600082825260208201905092915050565b600082825260208201905092915050565b600081905092915050565b60006142d582614401565b91506142e083614401565b9250827fffffffffffffffffffffffffffffffffffffffffffffffffffffffffffffffff0382111561431557614314614614565b5b828201905092915050565b600061432b82614401565b915061433683614401565b92508261434657614345614643565b5b828204905092915050565b600061435c82614401565b915061436783614401565b92508282101561437a57614379614614565b5b828203905092915050565b6000614390826143e1565b9050919050565b60006143a2826143e1565b9050919050565b60008115159050919050565b60007fffffffff0000000000000000000000000000000000000000000000000000000082169050919050565b600073ffffffffffffffffffffffffffffffffffffffff82169050919050565b6000819050919050565b60006144168261441d565b9050919050565b6000614428826143e1565b9050919050565b600061443a82614441565b9050919050565b600061444c826143e1565b9050919050565b600061445e82614465565b9050919050565b6000614470826143e1565b9050919050565b600061448282614401565b9050919050565b600061449482614401565b9050919050565b60006144a682614401565b9050919050565b60006144b882614401565b9050919050565b60006144ca82614401565b9050919050565b60006144dc82614401565b9050919050565b60006144ee82614401565b9050919050565b82818337600083830152505050565b60005b83811015614522578082015181840152602081019050614507565b83811115614531576000848401525b50505050565b6000600282049050600182168061454f57607f821691505b6020821081141561456357614562614672565b5b50919050565b61457282614713565b810181811067ffffffffffffffff82111715614591576145906146d0565b5b80604052505050565b60006145a582614401565b91507fffffffffffffffffffffffffffffffffffffffffffffffffffffffffffffffff8214156145d8576145d7614614565b5b600182019050919050565b60006145ee82614401565b91506145f983614401565b92508261460957614608614643565b5b828206905092915050565b7f4e487b7100000000000000000000000000000000000000000000000000000000600052601160045260246000fd5b7f4e487b7100000000000000000000000000000000000000000000000000000000600052601260045260246000fd5b7f4e487b7100000000000000000000000000000000000000000000000000000000600052602260045260246000fd5b7f4e487b7100000000000000000000000000000000000000000000000000000000600052603260045260246000fd5b7f4e487b7100000000000000000000000000000000000000000000000000000000600052604160045260246000fd5b600080fd5b600080fd5b600080fd5b600080fd5b6000601f19601f8301169050919050565b7f4231000000000000000000000000000000000000000000000000000000000000600082015250565b7f4552433732313a207472616e7366657220746f206e6f6e20455243373231526560008201527f63656976657220696d706c656d656e7465720000000000000000000000000000602082015250565b7f4131000000000000000000000000000000000000000000000000000000000000600082015250565b7f4552433732313a207472616e7366657220746f20746865207a65726f2061646460008201527f7265737300000000000000000000000000000000000000000000000000000000602082015250565b7f4552433732313a20617070726f766520746f2063616c6c657200000000000000600082015250565b7f5631000000000000000000000000000000000000000000000000000000000000600082015250565b7f4552433732313a206f70657261746f7220717565727920666f72206e6f6e657860008201527f697374656e7420746f6b656e0000000000000000000000000000000000000000602082015250565b7f4552433732313a20617070726f76652063616c6c6572206973206e6f74206f7760008201527f6e6572206e6f7220617070726f76656420666f7220616c6c0000000000000000602082015250565b7f4552433732313a2062616c616e636520717565727920666f7220746865207a6560008201527f726f206164647265737300000000000000000000000000000000000000000000602082015250565b7f4552433732313a206f776e657220717565727920666f72206e6f6e657869737460008201527f656e7420746f6b656e0000000000000000000000000000000000000000000000602082015250565b7f4552433732313a20617070726f76656420717565727920666f72206e6f6e657860008201527f697374656e7420746f6b656e0000000000000000000000000000000000000000602082015250565b7f4552433732313a207472616e73666572206f6620746f6b656e2074686174206960008201527f73206e6f74206f776e0000000000000000000000000000000000000000000000602082015250565b7f4552433732314d657461646174613a2055524920717565727920666f72206e6f60008201527f6e6578697374656e7420746f6b656e0000000000000000000000000000000000602082015250565b7f4552433732313a20617070726f76616c20746f2063757272656e74206f776e6560008201527f7200000000000000000000000000000000000000000000000000000000000000602082015250565b7f4552433732313a207472616e736665722063616c6c6572206973206e6f74206f60008201527f776e6572206e6f7220617070726f766564000000000000000000000000000000602082015250565b614b3681614385565b8114614b4157600080fd5b50565b614b4d81614397565b8114614b5857600080fd5b50565b614b64816143a9565b8114614b6f57600080fd5b50565b614b7b816143b5565b8114614b8657600080fd5b50565b614b9281614401565b8114614b9d57600080fd5b5056fea26469706673582212203b1830bc7dad9e8374be5986fa7bb48d70c3995208307ab0102f14663ccb810464736f6c63430008060033",
  "immutableReferences": {},
  "source": "// SPDX-License-Identifier: MIT\r\npragma solidity >=0.4.22 <0.9.0;\r\n\r\nimport \"../node_modules/@openzeppelin/contracts/token/ERC721/ERC721.sol\";\r\nimport \"../node_modules/@openzeppelin/contracts/token/ERC20/IERC20.sol\";\r\nimport \"../contracts/PBPlayers.sol\";\r\nimport \"../contracts/PBXP.sol\";\r\n\r\ncontract PBTeams is ERC721 {\r\n\r\n    address admin;\r\n    address pbxpAddress;\r\n    address pbPlayersAddress;\r\n    uint teamMintCost;\r\n    uint dnaModulus = 10 ** 16;\r\n    uint playersPerTeam = 6;\r\n    uint bellCurveIterations = 4;\r\n    uint PBXPtokenId = 0;\r\n  \r\n    IERC20 public buddies;\r\n    PBXP public PBXPToken;\r\n    PBPlayers public pbPlayers;\r\n    \r\n\r\n\r\nevent sixPackPlayer(uint p1,\r\n                    uint p2,\r\n                    uint p3,\r\n                    uint p4,\r\n                    uint p5,\r\n                    uint p6);\r\n\r\nconstructor(uint _teamMintCost, address _buddiesCoinAddress, address _pbxpAddress, address _pbPlayersAddress) ERC721(\"Puck Buddies Team\", \"PBT\"){\r\n    admin = msg.sender;\r\n    teamMintCost = _teamMintCost;\r\n    buddies = IERC20(_buddiesCoinAddress);\r\n    PBXPToken = PBXP(_pbxpAddress);\r\n    pbPlayers = PBPlayers(_pbPlayersAddress); \r\n    pbPlayersAddress = _pbPlayersAddress;\r\n}\r\n\r\nmodifier onlyAdmin() {\r\n        require(admin == msg.sender, \"A1\" );\r\n        _;\r\n}\r\n\r\nfunction isAdmin() public view returns (bool){\r\n        if(admin == msg.sender){\r\n            return true;\r\n        } else return false;\r\n}\r\n\r\nfunction getPBTeamsAddress() public view returns (address){\r\n    return address(this);\r\n}\r\n\r\nfunction getTeamMintCost() public view returns (uint){\r\n    return teamMintCost;\r\n}\r\n\r\nfunction updateBuddiesCoinAddress(address _buddiesCoinAddress) external onlyAdmin {\r\n        buddies = IERC20(_buddiesCoinAddress);\r\n}\r\n\r\nfunction updatePbxpAddress(address _pbxpAddress) external onlyAdmin{\r\n        PBXPToken = PBXP(_pbxpAddress);\r\n} \r\n\r\nfunction updatePuckBuddiePlayersAddress(address _pbPlayersAddress) external onlyAdmin{\r\n        pbPlayers = PBPlayers(_pbPlayersAddress);\r\n        pbPlayersAddress = _pbPlayersAddress;        \r\n} \r\nfunction updateTeamMintCost(uint _teamMintCost) public onlyAdmin {\r\n    teamMintCost = _teamMintCost;\r\n}\r\n\r\nfunction _generateRandDna () private view returns (uint){\r\n        uint rand = uint(keccak256(abi.encodePacked(block.timestamp, block.difficulty, msg.sender)));\r\n        return rand % dnaModulus;\r\n}\r\n\r\nfunction mintSixPack(uint value) external {\r\n    require(value == teamMintCost, \"V1\");\r\n    uint allowance = buddies.allowance(msg.sender, address(this));\r\n    require(allowance >= value, \"B1\");\r\n    buddies.transferFrom(msg.sender, pbPlayersAddress, value);\r\n    uint randOp;\r\n    uint randDp;\r\n    uint[] memory result = new uint[](6);\r\n    randOp = pbPlayers._generateRandAtrrib(msg.sender, 50, 50, pbPlayers._randHelper(1));\r\n    randDp = pbPlayers._generateRandAtrrib(msg.sender, 50, 0, pbPlayers._randHelper(2));\r\n    uint p1 = pbPlayers.mintSixPackPlayer(randOp,randDp, msg.sender,1); //Offence 1\r\n    result[0] = p1;\r\n\r\n    randOp = pbPlayers._generateRandAtrrib(msg.sender, 50, 50, pbPlayers._randHelper(1));\r\n    randDp = pbPlayers._generateRandAtrrib(msg.sender, 50, 0, pbPlayers._randHelper(2));\r\n    uint p2 = pbPlayers.mintSixPackPlayer(randOp,randDp,msg.sender,1); //Offence 2\r\n    result[1] = p2;\r\n\r\n    randOp = pbPlayers._generateRandAtrrib(msg.sender, 50, 50, pbPlayers._randHelper(1));\r\n    randDp = pbPlayers._generateRandAtrrib(msg.sender, 50, 0, pbPlayers._randHelper(2));\r\n    uint p3 = pbPlayers.mintSixPackPlayer(randOp,randDp,msg.sender,1); //Offence 3\r\n    result[2] = p3;\r\n\r\n    randOp = pbPlayers._generateRandAtrrib(msg.sender, 50, 0, pbPlayers._randHelper(1));\r\n    randDp = pbPlayers._generateRandAtrrib(msg.sender, 50, 50, pbPlayers._randHelper(2));\r\n    uint p4 = pbPlayers.mintSixPackPlayer(randOp,randDp,msg.sender,2); //Defence 1\r\n    result[3] = p4;\r\n\r\n    randOp = pbPlayers._generateRandAtrrib(msg.sender, 50, 0, pbPlayers._randHelper(1));\r\n    randDp = pbPlayers._generateRandAtrrib(msg.sender, 50, 50, pbPlayers._randHelper(2));\r\n    uint p5 = pbPlayers.mintSixPackPlayer(randOp,randDp,msg.sender,2); //Defence 2\r\n    result[4] = p5;\r\n\r\n    randOp = 0;\r\n    randDp = pbPlayers._generateRandAtrrib(msg.sender, 25, 75, pbPlayers._randHelper(2));\r\n    uint p6 = pbPlayers.mintSixPackPlayer(randOp,randDp,msg.sender,3); //Goalie\r\n    result[5] = p6;\r\n\r\n     emit sixPackPlayer(p1, p2, p3, p4, p5, p6);\r\n}\r\n\r\n    function getBNBBalance() external view onlyAdmin returns (uint) {\r\n        return address(this).balance;\r\n    }\r\n    \r\n    function getBudsBalance() external view returns (uint) {\r\n        return buddies.balanceOf(address(this));\r\n    }\r\n\r\n    function transferBNB(address payable _to, uint _amount) external onlyAdmin {\r\n        _to.transfer(_amount);\r\n    }\r\n\r\n    function transferBUDS(uint _amount) external onlyAdmin {\r\n        buddies.transfer(msg.sender, _amount);\r\n    }\r\n\r\n}",
  "sourcePath": "O:\\Projects\\puck-buddies\\contracts\\PBTeams.sol",
  "compiler": {
    "name": "solc",
    "version": "0.8.6+commit.11564f7e.Emscripten.clang"
  },
  "schemaVersion": "3.4.3",
  "updatedAt": "2022-01-07T21:58:20.105Z",
  "networkType": "ethereum",
  "devdoc": {
    "kind": "dev",
    "methods": {
      "approve(address,uint256)": {
        "details": "See {IERC721-approve}."
      },
      "balanceOf(address)": {
        "details": "See {IERC721-balanceOf}."
      },
      "getApproved(uint256)": {
        "details": "See {IERC721-getApproved}."
      },
      "isApprovedForAll(address,address)": {
        "details": "See {IERC721-isApprovedForAll}."
      },
      "name()": {
        "details": "See {IERC721Metadata-name}."
      },
      "ownerOf(uint256)": {
        "details": "See {IERC721-ownerOf}."
      },
      "safeTransferFrom(address,address,uint256)": {
        "details": "See {IERC721-safeTransferFrom}."
      },
      "safeTransferFrom(address,address,uint256,bytes)": {
        "details": "See {IERC721-safeTransferFrom}."
      },
      "setApprovalForAll(address,bool)": {
        "details": "See {IERC721-setApprovalForAll}."
      },
      "supportsInterface(bytes4)": {
        "details": "See {IERC165-supportsInterface}."
      },
      "symbol()": {
        "details": "See {IERC721Metadata-symbol}."
      },
      "tokenURI(uint256)": {
        "details": "See {IERC721Metadata-tokenURI}."
      },
      "transferFrom(address,address,uint256)": {
        "details": "See {IERC721-transferFrom}."
      }
    },
    "version": 1
  },
  "userdoc": {
    "kind": "user",
    "methods": {},
    "version": 1
  }
}