{
  "contractName": "PBTeams",
  "abi": [
    {
      "inputs": [
        {
          "internalType": "uint256",
          "name": "_teamMintCost",
          "type": "uint256"
        },
        {
          "internalType": "address",
          "name": "_buddiesCoinAddress",
          "type": "address"
        },
        {
          "internalType": "address",
          "name": "_pbxpAddress",
          "type": "address"
        },
        {
          "internalType": "address",
          "name": "_pbPlayersAddress",
          "type": "address"
        }
      ],
      "stateMutability": "nonpayable",
      "type": "constructor"
    },
    {
      "anonymous": false,
      "inputs": [
        {
          "indexed": true,
          "internalType": "address",
          "name": "owner",
          "type": "address"
        },
        {
          "indexed": true,
          "internalType": "address",
          "name": "approved",
          "type": "address"
        },
        {
          "indexed": true,
          "internalType": "uint256",
          "name": "tokenId",
          "type": "uint256"
        }
      ],
      "name": "Approval",
      "type": "event"
    },
    {
      "anonymous": false,
      "inputs": [
        {
          "indexed": true,
          "internalType": "address",
          "name": "owner",
          "type": "address"
        },
        {
          "indexed": true,
          "internalType": "address",
          "name": "operator",
          "type": "address"
        },
        {
          "indexed": false,
          "internalType": "bool",
          "name": "approved",
          "type": "bool"
        }
      ],
      "name": "ApprovalForAll",
      "type": "event"
    },
    {
      "anonymous": false,
      "inputs": [
        {
          "indexed": false,
          "internalType": "uint256",
          "name": "nextId",
          "type": "uint256"
        },
        {
          "indexed": false,
          "internalType": "uint256",
          "name": "dna",
          "type": "uint256"
        }
      ],
      "name": "NewTeam",
      "type": "event"
    },
    {
      "anonymous": false,
      "inputs": [
        {
          "indexed": true,
          "internalType": "address",
          "name": "from",
          "type": "address"
        },
        {
          "indexed": true,
          "internalType": "address",
          "name": "to",
          "type": "address"
        },
        {
          "indexed": true,
          "internalType": "uint256",
          "name": "tokenId",
          "type": "uint256"
        }
      ],
      "name": "Transfer",
      "type": "event"
    },
    {
      "inputs": [],
      "name": "PBXPToken",
      "outputs": [
        {
          "internalType": "contract PBXP",
          "name": "",
          "type": "address"
        }
      ],
      "stateMutability": "view",
      "type": "function",
      "constant": true
    },
    {
      "inputs": [
        {
          "internalType": "uint256",
          "name": "",
          "type": "uint256"
        }
      ],
      "name": "_tokenDetails",
      "outputs": [
        {
          "internalType": "uint256",
          "name": "teamId",
          "type": "uint256"
        },
        {
          "internalType": "uint256",
          "name": "teamDna",
          "type": "uint256"
        },
        {
          "internalType": "uint256",
          "name": "teamTotalOP",
          "type": "uint256"
        },
        {
          "internalType": "uint256",
          "name": "teamTotalDP",
          "type": "uint256"
        },
        {
          "internalType": "uint256",
          "name": "activeTimestamp1",
          "type": "uint256"
        },
        {
          "internalType": "uint256",
          "name": "activeTimestamp2",
          "type": "uint256"
        },
        {
          "internalType": "uint256",
          "name": "activeTimestamp3",
          "type": "uint256"
        },
        {
          "internalType": "bool",
          "name": "lastMatchWon1",
          "type": "bool"
        },
        {
          "internalType": "bool",
          "name": "lastMatchWon2",
          "type": "bool"
        },
        {
          "internalType": "bool",
          "name": "lastMatchWon3",
          "type": "bool"
        },
        {
          "internalType": "address",
          "name": "ownerAddress",
          "type": "address"
        }
      ],
      "stateMutability": "view",
      "type": "function",
      "constant": true
    },
    {
      "inputs": [
        {
          "internalType": "address",
          "name": "to",
          "type": "address"
        },
        {
          "internalType": "uint256",
          "name": "tokenId",
          "type": "uint256"
        }
      ],
      "name": "approve",
      "outputs": [],
      "stateMutability": "nonpayable",
      "type": "function"
    },
    {
      "inputs": [
        {
          "internalType": "address",
          "name": "owner",
          "type": "address"
        }
      ],
      "name": "balanceOf",
      "outputs": [
        {
          "internalType": "uint256",
          "name": "",
          "type": "uint256"
        }
      ],
      "stateMutability": "view",
      "type": "function",
      "constant": true
    },
    {
      "inputs": [],
      "name": "buddies",
      "outputs": [
        {
          "internalType": "contract IERC20",
          "name": "",
          "type": "address"
        }
      ],
      "stateMutability": "view",
      "type": "function",
      "constant": true
    },
    {
      "inputs": [
        {
          "internalType": "uint256",
          "name": "tokenId",
          "type": "uint256"
        }
      ],
      "name": "getApproved",
      "outputs": [
        {
          "internalType": "address",
          "name": "",
          "type": "address"
        }
      ],
      "stateMutability": "view",
      "type": "function",
      "constant": true
    },
    {
      "inputs": [
        {
          "internalType": "address",
          "name": "owner",
          "type": "address"
        },
        {
          "internalType": "address",
          "name": "operator",
          "type": "address"
        }
      ],
      "name": "isApprovedForAll",
      "outputs": [
        {
          "internalType": "bool",
          "name": "",
          "type": "bool"
        }
      ],
      "stateMutability": "view",
      "type": "function",
      "constant": true
    },
    {
      "inputs": [],
      "name": "name",
      "outputs": [
        {
          "internalType": "string",
          "name": "",
          "type": "string"
        }
      ],
      "stateMutability": "view",
      "type": "function",
      "constant": true
    },
    {
      "inputs": [
        {
          "internalType": "uint256",
          "name": "tokenId",
          "type": "uint256"
        }
      ],
      "name": "ownerOf",
      "outputs": [
        {
          "internalType": "address",
          "name": "",
          "type": "address"
        }
      ],
      "stateMutability": "view",
      "type": "function",
      "constant": true
    },
    {
      "inputs": [],
      "name": "pbMatchupValidation",
      "outputs": [
        {
          "internalType": "contract PBMatchupValidation",
          "name": "",
          "type": "address"
        }
      ],
      "stateMutability": "view",
      "type": "function",
      "constant": true
    },
    {
      "inputs": [],
      "name": "pbPlayers",
      "outputs": [
        {
          "internalType": "contract PBPlayers",
          "name": "",
          "type": "address"
        }
      ],
      "stateMutability": "view",
      "type": "function",
      "constant": true
    },
    {
      "inputs": [
        {
          "internalType": "address",
          "name": "from",
          "type": "address"
        },
        {
          "internalType": "address",
          "name": "to",
          "type": "address"
        },
        {
          "internalType": "uint256",
          "name": "tokenId",
          "type": "uint256"
        }
      ],
      "name": "safeTransferFrom",
      "outputs": [],
      "stateMutability": "nonpayable",
      "type": "function"
    },
    {
      "inputs": [
        {
          "internalType": "address",
          "name": "from",
          "type": "address"
        },
        {
          "internalType": "address",
          "name": "to",
          "type": "address"
        },
        {
          "internalType": "uint256",
          "name": "tokenId",
          "type": "uint256"
        },
        {
          "internalType": "bytes",
          "name": "_data",
          "type": "bytes"
        }
      ],
      "name": "safeTransferFrom",
      "outputs": [],
      "stateMutability": "nonpayable",
      "type": "function"
    },
    {
      "inputs": [
        {
          "internalType": "address",
          "name": "operator",
          "type": "address"
        },
        {
          "internalType": "bool",
          "name": "approved",
          "type": "bool"
        }
      ],
      "name": "setApprovalForAll",
      "outputs": [],
      "stateMutability": "nonpayable",
      "type": "function"
    },
    {
      "inputs": [
        {
          "internalType": "bytes4",
          "name": "interfaceId",
          "type": "bytes4"
        }
      ],
      "name": "supportsInterface",
      "outputs": [
        {
          "internalType": "bool",
          "name": "",
          "type": "bool"
        }
      ],
      "stateMutability": "view",
      "type": "function",
      "constant": true
    },
    {
      "inputs": [],
      "name": "symbol",
      "outputs": [
        {
          "internalType": "string",
          "name": "",
          "type": "string"
        }
      ],
      "stateMutability": "view",
      "type": "function",
      "constant": true
    },
    {
      "inputs": [
        {
          "internalType": "uint256",
          "name": "tokenId",
          "type": "uint256"
        }
      ],
      "name": "tokenURI",
      "outputs": [
        {
          "internalType": "string",
          "name": "",
          "type": "string"
        }
      ],
      "stateMutability": "view",
      "type": "function",
      "constant": true
    },
    {
      "inputs": [
        {
          "internalType": "address",
          "name": "from",
          "type": "address"
        },
        {
          "internalType": "address",
          "name": "to",
          "type": "address"
        },
        {
          "internalType": "uint256",
          "name": "tokenId",
          "type": "uint256"
        }
      ],
      "name": "transferFrom",
      "outputs": [],
      "stateMutability": "nonpayable",
      "type": "function"
    },
    {
      "inputs": [],
      "name": "isAdmin",
      "outputs": [
        {
          "internalType": "bool",
          "name": "",
          "type": "bool"
        }
      ],
      "stateMutability": "view",
      "type": "function",
      "constant": true
    },
    {
      "inputs": [],
      "name": "getPBTeamsAddress",
      "outputs": [
        {
          "internalType": "address",
          "name": "",
          "type": "address"
        }
      ],
      "stateMutability": "view",
      "type": "function",
      "constant": true
    },
    {
      "inputs": [],
      "name": "getTeamMintCost",
      "outputs": [
        {
          "internalType": "uint256",
          "name": "",
          "type": "uint256"
        }
      ],
      "stateMutability": "view",
      "type": "function",
      "constant": true
    },
    {
      "inputs": [
        {
          "internalType": "address",
          "name": "_buddiesCoinAddress",
          "type": "address"
        }
      ],
      "name": "updateBuddiesCoinAddress",
      "outputs": [],
      "stateMutability": "nonpayable",
      "type": "function"
    },
    {
      "inputs": [
        {
          "internalType": "address",
          "name": "_pbxpAddress",
          "type": "address"
        }
      ],
      "name": "updatePbxpAddress",
      "outputs": [],
      "stateMutability": "nonpayable",
      "type": "function"
    },
    {
      "inputs": [
        {
          "internalType": "address",
          "name": "_pbPlayersAddress",
          "type": "address"
        }
      ],
      "name": "updatePuckBuddiePlayersAddress",
      "outputs": [],
      "stateMutability": "nonpayable",
      "type": "function"
    },
    {
      "inputs": [
        {
          "internalType": "address",
          "name": "_pbMatchupValidationAddress",
          "type": "address"
        }
      ],
      "name": "updatePBMatchupValidationAddress",
      "outputs": [],
      "stateMutability": "nonpayable",
      "type": "function"
    },
    {
      "inputs": [
        {
          "internalType": "uint256",
          "name": "_teamMintCost",
          "type": "uint256"
        }
      ],
      "name": "updateTeamMintCost",
      "outputs": [],
      "stateMutability": "nonpayable",
      "type": "function"
    },
    {
      "inputs": [
        {
          "internalType": "uint256",
          "name": "tokenId",
          "type": "uint256"
        }
      ],
      "name": "getTokenDetails",
      "outputs": [
        {
          "components": [
            {
              "internalType": "uint256",
              "name": "teamId",
              "type": "uint256"
            },
            {
              "internalType": "uint256",
              "name": "teamDna",
              "type": "uint256"
            },
            {
              "internalType": "uint256",
              "name": "teamTotalOP",
              "type": "uint256"
            },
            {
              "internalType": "uint256",
              "name": "teamTotalDP",
              "type": "uint256"
            },
            {
              "internalType": "uint256",
              "name": "activeTimestamp1",
              "type": "uint256"
            },
            {
              "internalType": "uint256",
              "name": "activeTimestamp2",
              "type": "uint256"
            },
            {
              "internalType": "uint256",
              "name": "activeTimestamp3",
              "type": "uint256"
            },
            {
              "internalType": "bool",
              "name": "lastMatchWon1",
              "type": "bool"
            },
            {
              "internalType": "bool",
              "name": "lastMatchWon2",
              "type": "bool"
            },
            {
              "internalType": "bool",
              "name": "lastMatchWon3",
              "type": "bool"
            },
            {
              "internalType": "address",
              "name": "ownerAddress",
              "type": "address"
            }
          ],
          "internalType": "struct PBTeams.Team",
          "name": "",
          "type": "tuple"
        }
      ],
      "stateMutability": "view",
      "type": "function",
      "constant": true
    },
    {
      "inputs": [
        {
          "internalType": "address",
          "name": "user",
          "type": "address"
        }
      ],
      "name": "getAllTokensForUser",
      "outputs": [
        {
          "internalType": "uint256[]",
          "name": "",
          "type": "uint256[]"
        }
      ],
      "stateMutability": "view",
      "type": "function",
      "constant": true
    },
    {
      "inputs": [
        {
          "internalType": "uint256",
          "name": "value",
          "type": "uint256"
        }
      ],
      "name": "mintTeam",
      "outputs": [],
      "stateMutability": "nonpayable",
      "type": "function"
    },
    {
      "inputs": [
        {
          "internalType": "uint256",
          "name": "teamId",
          "type": "uint256"
        },
        {
          "internalType": "address",
          "name": "teamOwner",
          "type": "address"
        },
        {
          "internalType": "uint256",
          "name": "playerop",
          "type": "uint256"
        },
        {
          "internalType": "uint256",
          "name": "playerdp",
          "type": "uint256"
        }
      ],
      "name": "addStatsToTeam",
      "outputs": [],
      "stateMutability": "nonpayable",
      "type": "function"
    },
    {
      "inputs": [
        {
          "internalType": "uint256",
          "name": "teamId",
          "type": "uint256"
        },
        {
          "internalType": "address",
          "name": "teamOwner",
          "type": "address"
        },
        {
          "internalType": "uint256",
          "name": "playerop",
          "type": "uint256"
        },
        {
          "internalType": "uint256",
          "name": "playerdp",
          "type": "uint256"
        }
      ],
      "name": "removeStatsFromTeam",
      "outputs": [],
      "stateMutability": "nonpayable",
      "type": "function"
    },
    {
      "inputs": [
        {
          "internalType": "uint256",
          "name": "teamId",
          "type": "uint256"
        },
        {
          "internalType": "address",
          "name": "teamOwner",
          "type": "address"
        },
        {
          "internalType": "uint256",
          "name": "playerop",
          "type": "uint256"
        }
      ],
      "name": "addOPToTeam",
      "outputs": [],
      "stateMutability": "nonpayable",
      "type": "function"
    },
    {
      "inputs": [
        {
          "internalType": "uint256",
          "name": "teamId",
          "type": "uint256"
        },
        {
          "internalType": "address",
          "name": "teamOwner",
          "type": "address"
        },
        {
          "internalType": "uint256",
          "name": "playerdp",
          "type": "uint256"
        }
      ],
      "name": "addDPToTeam",
      "outputs": [],
      "stateMutability": "nonpayable",
      "type": "function"
    }
  ],
  "bytecode": "0x6080604052662386f26fc10000600a556006600b556004600c556000600d5560006012553480156200003057600080fd5b50604051620064183803806200641883398181016040528101906200005691906200032a565b6040518060400160405280601181526020017f5075636b2042756464696573205465616d0000000000000000000000000000008152506040518060400160405280600381526020017f50425400000000000000000000000000000000000000000000000000000000008152508160009080519060200190620000da9291906200024c565b508060019080519060200190620000f39291906200024c565b50505033600660006101000a81548173ffffffffffffffffffffffffffffffffffffffff021916908373ffffffffffffffffffffffffffffffffffffffff1602179055508360098190555082600e60006101000a81548173ffffffffffffffffffffffffffffffffffffffff021916908373ffffffffffffffffffffffffffffffffffffffff16021790555081600f60006101000a81548173ffffffffffffffffffffffffffffffffffffffff021916908373ffffffffffffffffffffffffffffffffffffffff16021790555080601060006101000a81548173ffffffffffffffffffffffffffffffffffffffff021916908373ffffffffffffffffffffffffffffffffffffffff16021790555080600860006101000a81548173ffffffffffffffffffffffffffffffffffffffff021916908373ffffffffffffffffffffffffffffffffffffffff1602179055505050505062000478565b8280546200025a90620003da565b90600052602060002090601f0160209004810192826200027e5760008555620002ca565b82601f106200029957805160ff1916838001178555620002ca565b82800160010185558215620002ca579182015b82811115620002c9578251825591602001919060010190620002ac565b5b509050620002d99190620002dd565b5090565b5b80821115620002f8576000816000905550600101620002de565b5090565b6000815190506200030d8162000444565b92915050565b60008151905062000324816200045e565b92915050565b600080600080608085870312156200034757620003466200043f565b5b6000620003578782880162000313565b94505060206200036a87828801620002fc565b93505060406200037d87828801620002fc565b92505060606200039087828801620002fc565b91505092959194509250565b6000620003a982620003b0565b9050919050565b600073ffffffffffffffffffffffffffffffffffffffff82169050919050565b6000819050919050565b60006002820490506001821680620003f357607f821691505b602082108114156200040a576200040962000410565b5b50919050565b7f4e487b7100000000000000000000000000000000000000000000000000000000600052602260045260246000fd5b600080fd5b6200044f816200039c565b81146200045b57600080fd5b50565b6200046981620003d0565b81146200047557600080fd5b50565b615f9080620004886000396000f3fe608060405234801561001057600080fd5b50600436106101fb5760003560e01c806382de8fe91161011a578063b6db75a0116100ad578063d034a6de1161007c578063d034a6de146105ca578063e985e9c5146105e6578063ea1c3c0114610616578063f971a2f814610632578063ff18e6891461064e576101fb565b8063b6db75a014610530578063b88d4fde1461054e578063c1e037281461056a578063c87b56dd1461059a576101fb565b806397ede525116100e957806397ede525146104be578063a1134de1146104dc578063a22cb465146104f8578063a6c456a914610514576101fb565b806382de8fe91461041a57806385f7229a1461044a57806389bf0f0d1461048457806395d89b41146104a0576101fb565b806342842e0e116101925780635d632faf116101615780635d632faf146103805780636352211e1461039c57806363eaef5a146103cc57806370a08231146103ea576101fb565b806342842e0e1461030e5780634a594c121461032a5780635664eb361461034857806356ef3bfc14610364576101fb565b8063095fa7ec116101ce578063095fa7ec1461029a57806323b872dd146102b85780632a73e656146102d4578063342f48aa146102f2576101fb565b806301ffc9a71461020057806306fdde0314610230578063081812fc1461024e578063095ea7b31461027e575b600080fd5b61021a6004803603810190610215919061439e565b61066c565b6040516102279190614d75565b60405180910390f35b61023861074e565b6040516102459190614e32565b60405180910390f35b610268600480360381019061026391906143f8565b6107e0565b6040516102759190614bbd565b60405180910390f35b61029860048036038101906102939190614331565b610865565b005b6102a261097d565b6040516102af9190614bbd565b60405180910390f35b6102d260048036038101906102cd919061421b565b610985565b005b6102dc6109e5565b6040516102e99190614dab565b60405180910390f35b61030c600480360381019061030791906143f8565b610a0b565b005b6103286004803603810190610323919061421b565b612395565b005b6103326123b5565b60405161033f9190614d90565b60405180910390f35b610362600480360381019061035d91906144a5565b6123db565b005b61037e600480360381019061037991906141ae565b61249d565b005b61039a600480360381019061039591906141ae565b6125b2565b005b6103b660048036038101906103b191906143f8565b612686565b6040516103c39190614bbd565b60405180910390f35b6103d4612738565b6040516103e19190614dc6565b60405180910390f35b61040460048036038101906103ff91906141ae565b61275e565b60405161041191906150f0565b60405180910390f35b610434600480360381019061042f91906141ae565b612816565b6040516104419190614d53565b60405180910390f35b610464600480360381019061045f91906143f8565b61296c565b60405161047b9b9a999897969594939291906153ce565b60405180910390f35b61049e600480360381019061049991906141ae565b612a0d565b005b6104a8612ae1565b6040516104b59190614e32565b60405180910390f35b6104c6612b73565b6040516104d39190614de1565b60405180910390f35b6104f660048036038101906104f19190614452565b612b99565b005b610512600480360381019061050d91906142f1565b612d08565b005b61052e60048036038101906105299190614452565b612e89565b005b610538612fc2565b6040516105459190614d75565b60405180910390f35b6105686004803603810190610563919061426e565b61302b565b005b610584600480360381019061057f91906143f8565b61308d565b60405161059191906150d4565b60405180910390f35b6105b460048036038101906105af91906143f8565b6131a8565b6040516105c19190614e32565b60405180910390f35b6105e460048036038101906105df91906143f8565b61324f565b005b61060060048036038101906105fb91906141db565b6132e9565b60405161060d9190614d75565b60405180910390f35b610630600480360381019061062b91906141ae565b61337d565b005b61064c600480360381019061064791906144a5565b613451565b005b610656613549565b60405161066391906150f0565b60405180910390f35b60007f80ac58cd000000000000000000000000000000000000000000000000000000007bffffffffffffffffffffffffffffffffffffffffffffffffffffffff1916827bffffffffffffffffffffffffffffffffffffffffffffffffffffffff1916148061073757507f5b5e139f000000000000000000000000000000000000000000000000000000007bffffffffffffffffffffffffffffffffffffffffffffffffffffffff1916827bffffffffffffffffffffffffffffffffffffffffffffffffffffffff1916145b80610747575061074682613553565b5b9050919050565b60606000805461075d90615800565b80601f016020809104026020016040519081016040528092919081815260200182805461078990615800565b80156107d65780601f106107ab576101008083540402835291602001916107d6565b820191906000526020600020905b8154815290600101906020018083116107b957829003601f168201915b5050505050905090565b60006107eb826135bd565b61082a576040517f08c379a000000000000000000000000000000000000000000000000000000000815260040161082190614ff4565b60405180910390fd5b6004600083815260200190815260200160002060009054906101000a900473ffffffffffffffffffffffffffffffffffffffff169050919050565b600061087082612686565b90508073ffffffffffffffffffffffffffffffffffffffff168373ffffffffffffffffffffffffffffffffffffffff1614156108e1576040517f08c379a00000000000000000000000000000000000000000000000000000000081526004016108d890615094565b60405180910390fd5b8073ffffffffffffffffffffffffffffffffffffffff16610900613629565b73ffffffffffffffffffffffffffffffffffffffff16148061092f575061092e81610929613629565b6132e9565b5b61096e576040517f08c379a000000000000000000000000000000000000000000000000000000000815260040161096590614f74565b60405180910390fd5b6109788383613631565b505050565b600030905090565b610996610990613629565b826136ea565b6109d5576040517f08c379a00000000000000000000000000000000000000000000000000000000081526004016109cc906150b4565b60405180910390fd5b6109e08383836137c8565b505050565b601160009054906101000a900473ffffffffffffffffffffffffffffffffffffffff1681565b60006012541415610aa757600660009054906101000a900473ffffffffffffffffffffffffffffffffffffffff1673ffffffffffffffffffffffffffffffffffffffff163373ffffffffffffffffffffffffffffffffffffffff1614610aa6576040517f08c379a0000000000000000000000000000000000000000000000000000000008152600401610a9d90614f34565b60405180910390fd5b5b6001610ab23361275e565b10610af2576040517f08c379a0000000000000000000000000000000000000000000000000000000008152600401610ae990614f54565b60405180910390fd5b6000600e60009054906101000a900473ffffffffffffffffffffffffffffffffffffffff1673ffffffffffffffffffffffffffffffffffffffff1663dd62ed3e33306040518363ffffffff1660e01b8152600401610b51929190614bd8565b60206040518083038186803b158015610b6957600080fd5b505afa158015610b7d573d6000803e3d6000fd5b505050506040513d601f19601f82011682018060405250810190610ba19190614425565b905081811015610be6576040517f08c379a0000000000000000000000000000000000000000000000000000000008152600401610bdd90614e54565b60405180910390fd5b600e60009054906101000a900473ffffffffffffffffffffffffffffffffffffffff1673ffffffffffffffffffffffffffffffffffffffff166323b872dd33600860009054906101000a900473ffffffffffffffffffffffffffffffffffffffff16856040518463ffffffff1660e01b8152600401610c6793929190614c01565b602060405180830381600087803b158015610c8157600080fd5b505af1158015610c95573d6000803e3d6000fd5b505050506040513d601f19601f82011682018060405250810190610cb99190614371565b506000610cc4613a24565b9050600080600080601060009054906101000a900473ffffffffffffffffffffffffffffffffffffffff1673ffffffffffffffffffffffffffffffffffffffff1663a8de071e33603280601060009054906101000a900473ffffffffffffffffffffffffffffffffffffffff1673ffffffffffffffffffffffffffffffffffffffff1663c948338360016040518263ffffffff1660e01b8152600401610d6a9190614dfc565b60206040518083038186803b158015610d8257600080fd5b505afa158015610d96573d6000803e3d6000fd5b505050506040513d601f19601f82011682018060405250810190610dba9190614425565b6040518563ffffffff1660e01b8152600401610dd99493929190614d0e565b60206040518083038186803b158015610df157600080fd5b505afa158015610e05573d6000803e3d6000fd5b505050506040513d601f19601f82011682018060405250810190610e299190614425565b9350601060009054906101000a900473ffffffffffffffffffffffffffffffffffffffff1673ffffffffffffffffffffffffffffffffffffffff1663a8de071e3360326000601060009054906101000a900473ffffffffffffffffffffffffffffffffffffffff1673ffffffffffffffffffffffffffffffffffffffff1663c948338360026040518263ffffffff1660e01b8152600401610eca9190614e17565b60206040518083038186803b158015610ee257600080fd5b505afa158015610ef6573d6000803e3d6000fd5b505050506040513d601f19601f82011682018060405250810190610f1a9190614425565b6040518563ffffffff1660e01b8152600401610f399493929190614cc9565b60206040518083038186803b158015610f5157600080fd5b505afa158015610f65573d6000803e3d6000fd5b505050506040513d601f19601f82011682018060405250810190610f899190614425565b92508382610f97919061554b565b91508281610fa5919061554b565b9050601060009054906101000a900473ffffffffffffffffffffffffffffffffffffffff1673ffffffffffffffffffffffffffffffffffffffff16637b05f7ac85853360016012548b60016040518863ffffffff1660e01b81526004016110129796959493929190615134565b6040805180830381600087803b15801561102b57600080fd5b505af115801561103f573d6000803e3d6000fd5b505050506040513d601f19601f82011682018060405250810190611063919061450c565b5050601060009054906101000a900473ffffffffffffffffffffffffffffffffffffffff1673ffffffffffffffffffffffffffffffffffffffff1663a8de071e33603280601060009054906101000a900473ffffffffffffffffffffffffffffffffffffffff1673ffffffffffffffffffffffffffffffffffffffff1663c948338360016040518263ffffffff1660e01b81526004016111039190614dfc565b60206040518083038186803b15801561111b57600080fd5b505afa15801561112f573d6000803e3d6000fd5b505050506040513d601f19601f820116820180604052508101906111539190614425565b6040518563ffffffff1660e01b81526004016111729493929190614d0e565b60206040518083038186803b15801561118a57600080fd5b505afa15801561119e573d6000803e3d6000fd5b505050506040513d601f19601f820116820180604052508101906111c29190614425565b9350601060009054906101000a900473ffffffffffffffffffffffffffffffffffffffff1673ffffffffffffffffffffffffffffffffffffffff1663a8de071e3360326000601060009054906101000a900473ffffffffffffffffffffffffffffffffffffffff1673ffffffffffffffffffffffffffffffffffffffff1663c948338360026040518263ffffffff1660e01b81526004016112639190614e17565b60206040518083038186803b15801561127b57600080fd5b505afa15801561128f573d6000803e3d6000fd5b505050506040513d601f19601f820116820180604052508101906112b39190614425565b6040518563ffffffff1660e01b81526004016112d29493929190614cc9565b60206040518083038186803b1580156112ea57600080fd5b505afa1580156112fe573d6000803e3d6000fd5b505050506040513d601f19601f820116820180604052508101906113229190614425565b92508382611330919061554b565b9150828161133e919061554b565b9050601060009054906101000a900473ffffffffffffffffffffffffffffffffffffffff1673ffffffffffffffffffffffffffffffffffffffff16637b05f7ac85853360016012548b60026040518863ffffffff1660e01b81526004016113ab97969594939291906151a3565b6040805180830381600087803b1580156113c457600080fd5b505af11580156113d8573d6000803e3d6000fd5b505050506040513d601f19601f820116820180604052508101906113fc919061450c565b5050601060009054906101000a900473ffffffffffffffffffffffffffffffffffffffff1673ffffffffffffffffffffffffffffffffffffffff1663a8de071e33603280601060009054906101000a900473ffffffffffffffffffffffffffffffffffffffff1673ffffffffffffffffffffffffffffffffffffffff1663c948338360016040518263ffffffff1660e01b815260040161149c9190614dfc565b60206040518083038186803b1580156114b457600080fd5b505afa1580156114c8573d6000803e3d6000fd5b505050506040513d601f19601f820116820180604052508101906114ec9190614425565b6040518563ffffffff1660e01b815260040161150b9493929190614d0e565b60206040518083038186803b15801561152357600080fd5b505afa158015611537573d6000803e3d6000fd5b505050506040513d601f19601f8201168201806040525081019061155b9190614425565b9350601060009054906101000a900473ffffffffffffffffffffffffffffffffffffffff1673ffffffffffffffffffffffffffffffffffffffff1663a8de071e3360326000601060009054906101000a900473ffffffffffffffffffffffffffffffffffffffff1673ffffffffffffffffffffffffffffffffffffffff1663c948338360026040518263ffffffff1660e01b81526004016115fc9190614e17565b60206040518083038186803b15801561161457600080fd5b505afa158015611628573d6000803e3d6000fd5b505050506040513d601f19601f8201168201806040525081019061164c9190614425565b6040518563ffffffff1660e01b815260040161166b9493929190614cc9565b60206040518083038186803b15801561168357600080fd5b505afa158015611697573d6000803e3d6000fd5b505050506040513d601f19601f820116820180604052508101906116bb9190614425565b925083826116c9919061554b565b915082816116d7919061554b565b9050601060009054906101000a900473ffffffffffffffffffffffffffffffffffffffff1673ffffffffffffffffffffffffffffffffffffffff16637b05f7ac85853360016012548b60036040518863ffffffff1660e01b81526004016117449796959493929190615212565b6040805180830381600087803b15801561175d57600080fd5b505af1158015611771573d6000803e3d6000fd5b505050506040513d601f19601f82011682018060405250810190611795919061450c565b5050601060009054906101000a900473ffffffffffffffffffffffffffffffffffffffff1673ffffffffffffffffffffffffffffffffffffffff1663a8de071e3360326000601060009054906101000a900473ffffffffffffffffffffffffffffffffffffffff1673ffffffffffffffffffffffffffffffffffffffff1663c948338360016040518263ffffffff1660e01b81526004016118369190614dfc565b60206040518083038186803b15801561184e57600080fd5b505afa158015611862573d6000803e3d6000fd5b505050506040513d601f19601f820116820180604052508101906118869190614425565b6040518563ffffffff1660e01b81526004016118a59493929190614cc9565b60206040518083038186803b1580156118bd57600080fd5b505afa1580156118d1573d6000803e3d6000fd5b505050506040513d601f19601f820116820180604052508101906118f59190614425565b9350601060009054906101000a900473ffffffffffffffffffffffffffffffffffffffff1673ffffffffffffffffffffffffffffffffffffffff1663a8de071e33603280601060009054906101000a900473ffffffffffffffffffffffffffffffffffffffff1673ffffffffffffffffffffffffffffffffffffffff1663c948338360026040518263ffffffff1660e01b81526004016119959190614e17565b60206040518083038186803b1580156119ad57600080fd5b505afa1580156119c1573d6000803e3d6000fd5b505050506040513d601f19601f820116820180604052508101906119e59190614425565b6040518563ffffffff1660e01b8152600401611a049493929190614d0e565b60206040518083038186803b158015611a1c57600080fd5b505afa158015611a30573d6000803e3d6000fd5b505050506040513d601f19601f82011682018060405250810190611a549190614425565b92508382611a62919061554b565b91508281611a70919061554b565b9050601060009054906101000a900473ffffffffffffffffffffffffffffffffffffffff1673ffffffffffffffffffffffffffffffffffffffff16637b05f7ac85853360026012548b60046040518863ffffffff1660e01b8152600401611add9796959493929190615281565b6040805180830381600087803b158015611af657600080fd5b505af1158015611b0a573d6000803e3d6000fd5b505050506040513d601f19601f82011682018060405250810190611b2e919061450c565b5050601060009054906101000a900473ffffffffffffffffffffffffffffffffffffffff1673ffffffffffffffffffffffffffffffffffffffff1663a8de071e3360326000601060009054906101000a900473ffffffffffffffffffffffffffffffffffffffff1673ffffffffffffffffffffffffffffffffffffffff1663c948338360016040518263ffffffff1660e01b8152600401611bcf9190614dfc565b60206040518083038186803b158015611be757600080fd5b505afa158015611bfb573d6000803e3d6000fd5b505050506040513d601f19601f82011682018060405250810190611c1f9190614425565b6040518563ffffffff1660e01b8152600401611c3e9493929190614cc9565b60206040518083038186803b158015611c5657600080fd5b505afa158015611c6a573d6000803e3d6000fd5b505050506040513d601f19601f82011682018060405250810190611c8e9190614425565b9350601060009054906101000a900473ffffffffffffffffffffffffffffffffffffffff1673ffffffffffffffffffffffffffffffffffffffff1663a8de071e33603280601060009054906101000a900473ffffffffffffffffffffffffffffffffffffffff1673ffffffffffffffffffffffffffffffffffffffff1663c948338360026040518263ffffffff1660e01b8152600401611d2e9190614e17565b60206040518083038186803b158015611d4657600080fd5b505afa158015611d5a573d6000803e3d6000fd5b505050506040513d601f19601f82011682018060405250810190611d7e9190614425565b6040518563ffffffff1660e01b8152600401611d9d9493929190614d0e565b60206040518083038186803b158015611db557600080fd5b505afa158015611dc9573d6000803e3d6000fd5b505050506040513d601f19601f82011682018060405250810190611ded9190614425565b92508382611dfb919061554b565b91508281611e09919061554b565b9050601060009054906101000a900473ffffffffffffffffffffffffffffffffffffffff1673ffffffffffffffffffffffffffffffffffffffff16637b05f7ac85853360026012548b60056040518863ffffffff1660e01b8152600401611e7697969594939291906152f0565b6040805180830381600087803b158015611e8f57600080fd5b505af1158015611ea3573d6000803e3d6000fd5b505050506040513d601f19601f82011682018060405250810190611ec7919061450c565b505060009350601060009054906101000a900473ffffffffffffffffffffffffffffffffffffffff1673ffffffffffffffffffffffffffffffffffffffff1663a8de071e336019604b601060009054906101000a900473ffffffffffffffffffffffffffffffffffffffff1673ffffffffffffffffffffffffffffffffffffffff1663c948338360026040518263ffffffff1660e01b8152600401611f6c9190614e17565b60206040518083038186803b158015611f8457600080fd5b505afa158015611f98573d6000803e3d6000fd5b505050506040513d601f19601f82011682018060405250810190611fbc9190614425565b6040518563ffffffff1660e01b8152600401611fdb9493929190614c84565b60206040518083038186803b158015611ff357600080fd5b505afa158015612007573d6000803e3d6000fd5b505050506040513d601f19601f8201168201806040525081019061202b9190614425565b92508382612039919061554b565b91508281612047919061554b565b9050601060009054906101000a900473ffffffffffffffffffffffffffffffffffffffff1673ffffffffffffffffffffffffffffffffffffffff16637b05f7ac85853360036012548b60066040518863ffffffff1660e01b81526004016120b4979695949392919061535f565b6040805180830381600087803b1580156120cd57600080fd5b505af11580156120e1573d6000803e3d6000fd5b505050506040513d601f19601f82011682018060405250810190612105919061450c565b505060405180610160016040528060125481526020018681526020018381526020018281526020016000815260200160008152602001600081526020016000151581526020016000151581526020016000151581526020013373ffffffffffffffffffffffffffffffffffffffff16815250601360006012548152602001908152602001600020600082015181600001556020820151816001015560408201518160020155606082015181600301556080820151816004015560a0820151816005015560c0820151816006015560e08201518160070160006101000a81548160ff0219169083151502179055506101008201518160070160016101000a81548160ff0219169083151502179055506101208201518160070160026101000a81548160ff0219169083151502179055506101408201518160070160036101000a81548173ffffffffffffffffffffffffffffffffffffffff021916908373ffffffffffffffffffffffffffffffffffffffff16021790555090505061228b33601254613a6b565b600f60009054906101000a900473ffffffffffffffffffffffffffffffffffffffff1673ffffffffffffffffffffffffffffffffffffffff166376e4252c336040518263ffffffff1660e01b81526004016122e69190614bbd565b602060405180830381600087803b15801561230057600080fd5b505af1158015612314573d6000803e3d6000fd5b505050506040513d601f19601f820116820180604052508101906123389190614425565b507fe29769d48b7b642f33d06124abddad8a79b45be22dcf5f112887ad3aba0ecc446012548660405161236c92919061510b565b60405180910390a16012600081548092919061238790615863565b919050555050505050505050565b6123b08383836040518060200160405280600081525061302b565b505050565b600e60009054906101000a900473ffffffffffffffffffffffffffffffffffffffff1681565b600060136000868152602001908152602001600020905060006013600087815260200190815260200160002060070160039054906101000a900473ffffffffffffffffffffffffffffffffffffffff1690508473ffffffffffffffffffffffffffffffffffffffff168173ffffffffffffffffffffffffffffffffffffffff161461246557600080fd5b83826002015461247591906155d2565b826002018190555082826003015461248d91906155d2565b8260030181905550505050505050565b3373ffffffffffffffffffffffffffffffffffffffff16600660009054906101000a900473ffffffffffffffffffffffffffffffffffffffff1673ffffffffffffffffffffffffffffffffffffffff161461252d576040517f08c379a000000000000000000000000000000000000000000000000000000000815260040161252490614eb4565b60405180910390fd5b80601060006101000a81548173ffffffffffffffffffffffffffffffffffffffff021916908373ffffffffffffffffffffffffffffffffffffffff16021790555080600860006101000a81548173ffffffffffffffffffffffffffffffffffffffff021916908373ffffffffffffffffffffffffffffffffffffffff16021790555050565b3373ffffffffffffffffffffffffffffffffffffffff16600660009054906101000a900473ffffffffffffffffffffffffffffffffffffffff1673ffffffffffffffffffffffffffffffffffffffff1614612642576040517f08c379a000000000000000000000000000000000000000000000000000000000815260040161263990614eb4565b60405180910390fd5b80600e60006101000a81548173ffffffffffffffffffffffffffffffffffffffff021916908373ffffffffffffffffffffffffffffffffffffffff16021790555050565b6000806002600084815260200190815260200160002060009054906101000a900473ffffffffffffffffffffffffffffffffffffffff169050600073ffffffffffffffffffffffffffffffffffffffff168173ffffffffffffffffffffffffffffffffffffffff16141561272f576040517f08c379a000000000000000000000000000000000000000000000000000000000815260040161272690614fb4565b60405180910390fd5b80915050919050565b601060009054906101000a900473ffffffffffffffffffffffffffffffffffffffff1681565b60008073ffffffffffffffffffffffffffffffffffffffff168273ffffffffffffffffffffffffffffffffffffffff1614156127cf576040517f08c379a00000000000000000000000000000000000000000000000000000000081526004016127c690614f94565b60405180910390fd5b600360008373ffffffffffffffffffffffffffffffffffffffff1673ffffffffffffffffffffffffffffffffffffffff168152602001908152602001600020549050919050565b606060006128238361275e565b9050600081141561288057600067ffffffffffffffff811115612849576128486159c7565b5b6040519080825280602002602001820160405280156128775781602001602082028036833780820191505090505b50915050612967565b60008167ffffffffffffffff81111561289c5761289b6159c7565b5b6040519080825280602002602001820160405280156128ca5781602001602082028036833780820191505090505b509050600060125490506000805b8281101561295e578673ffffffffffffffffffffffffffffffffffffffff1661290082612686565b73ffffffffffffffffffffffffffffffffffffffff16141561294b57808483815181106129305761292f615998565b5b602002602001018181525050818061294790615863565b9250505b808061295690615863565b9150506128d8565b83955050505050505b919050565b60136020528060005260406000206000915090508060000154908060010154908060020154908060030154908060040154908060050154908060060154908060070160009054906101000a900460ff16908060070160019054906101000a900460ff16908060070160029054906101000a900460ff16908060070160039054906101000a900473ffffffffffffffffffffffffffffffffffffffff1690508b565b3373ffffffffffffffffffffffffffffffffffffffff16600660009054906101000a900473ffffffffffffffffffffffffffffffffffffffff1673ffffffffffffffffffffffffffffffffffffffff1614612a9d576040517f08c379a0000000000000000000000000000000000000000000000000000000008152600401612a9490614eb4565b60405180910390fd5b80601160006101000a81548173ffffffffffffffffffffffffffffffffffffffff021916908373ffffffffffffffffffffffffffffffffffffffff16021790555050565b606060018054612af090615800565b80601f0160208091040260200160405190810160405280929190818152602001828054612b1c90615800565b8015612b695780601f10612b3e57610100808354040283529160200191612b69565b820191906000526020600020905b815481529060010190602001808311612b4c57829003601f168201915b5050505050905090565b600f60009054906101000a900473ffffffffffffffffffffffffffffffffffffffff1681565b600860009054906101000a900473ffffffffffffffffffffffffffffffffffffffff1673ffffffffffffffffffffffffffffffffffffffff163373ffffffffffffffffffffffffffffffffffffffff1614612c29576040517f08c379a0000000000000000000000000000000000000000000000000000000008152600401612c2090615014565b60405180910390fd5b600060136000858152602001908152602001600020905060006013600086815260200190815260200160002060070160039054906101000a900473ffffffffffffffffffffffffffffffffffffffff1690508373ffffffffffffffffffffffffffffffffffffffff168173ffffffffffffffffffffffffffffffffffffffff1614612ce9576040517f08c379a0000000000000000000000000000000000000000000000000000000008152600401612ce090615074565b60405180910390fd5b828260020154612cf9919061554b565b82600201819055505050505050565b612d10613629565b73ffffffffffffffffffffffffffffffffffffffff168273ffffffffffffffffffffffffffffffffffffffff161415612d7e576040517f08c379a0000000000000000000000000000000000000000000000000000000008152600401612d7590614ef4565b60405180910390fd5b8060056000612d8b613629565b73ffffffffffffffffffffffffffffffffffffffff1673ffffffffffffffffffffffffffffffffffffffff16815260200190815260200160002060008473ffffffffffffffffffffffffffffffffffffffff1673ffffffffffffffffffffffffffffffffffffffff16815260200190815260200160002060006101000a81548160ff0219169083151502179055508173ffffffffffffffffffffffffffffffffffffffff16612e38613629565b73ffffffffffffffffffffffffffffffffffffffff167f17307eab39ab6107e8899845ad3d59bd9653f200f220920489ca2b5937696c3183604051612e7d9190614d75565b60405180910390a35050565b600860009054906101000a900473ffffffffffffffffffffffffffffffffffffffff1673ffffffffffffffffffffffffffffffffffffffff163373ffffffffffffffffffffffffffffffffffffffff1614612f19576040517f08c379a0000000000000000000000000000000000000000000000000000000008152600401612f1090615014565b60405180910390fd5b600060136000858152602001908152602001600020905060006013600086815260200190815260200160002060070160039054906101000a900473ffffffffffffffffffffffffffffffffffffffff1690508373ffffffffffffffffffffffffffffffffffffffff168173ffffffffffffffffffffffffffffffffffffffff1614612fa357600080fd5b828260030154612fb3919061554b565b82600301819055505050505050565b60003373ffffffffffffffffffffffffffffffffffffffff16600660009054906101000a900473ffffffffffffffffffffffffffffffffffffffff1673ffffffffffffffffffffffffffffffffffffffff1614156130235760019050613028565b600090505b90565b61303c613036613629565b836136ea565b61307b576040517f08c379a0000000000000000000000000000000000000000000000000000000008152600401613072906150b4565b60405180910390fd5b61308784848484613a89565b50505050565b613095614035565b6013600083815260200190815260200160002060405180610160016040529081600082015481526020016001820154815260200160028201548152602001600382015481526020016004820154815260200160058201548152602001600682015481526020016007820160009054906101000a900460ff161515151581526020016007820160019054906101000a900460ff161515151581526020016007820160029054906101000a900460ff161515151581526020016007820160039054906101000a900473ffffffffffffffffffffffffffffffffffffffff1673ffffffffffffffffffffffffffffffffffffffff1673ffffffffffffffffffffffffffffffffffffffff16815250509050919050565b60606131b3826135bd565b6131f2576040517f08c379a00000000000000000000000000000000000000000000000000000000081526004016131e990615054565b60405180910390fd5b60006131fc613ae5565b9050600081511161321c5760405180602001604052806000815250613247565b8061322684613afc565b604051602001613237929190614b5c565b6040516020818303038152906040525b915050919050565b3373ffffffffffffffffffffffffffffffffffffffff16600660009054906101000a900473ffffffffffffffffffffffffffffffffffffffff1673ffffffffffffffffffffffffffffffffffffffff16146132df576040517f08c379a00000000000000000000000000000000000000000000000000000000081526004016132d690614eb4565b60405180910390fd5b8060098190555050565b6000600560008473ffffffffffffffffffffffffffffffffffffffff1673ffffffffffffffffffffffffffffffffffffffff16815260200190815260200160002060008373ffffffffffffffffffffffffffffffffffffffff1673ffffffffffffffffffffffffffffffffffffffff16815260200190815260200160002060009054906101000a900460ff16905092915050565b3373ffffffffffffffffffffffffffffffffffffffff16600660009054906101000a900473ffffffffffffffffffffffffffffffffffffffff1673ffffffffffffffffffffffffffffffffffffffff161461340d576040517f08c379a000000000000000000000000000000000000000000000000000000000815260040161340490614eb4565b60405180910390fd5b80600f60006101000a81548173ffffffffffffffffffffffffffffffffffffffff021916908373ffffffffffffffffffffffffffffffffffffffff16021790555050565b600060136000868152602001908152602001600020905060006013600087815260200190815260200160002060070160039054906101000a900473ffffffffffffffffffffffffffffffffffffffff1690508473ffffffffffffffffffffffffffffffffffffffff168173ffffffffffffffffffffffffffffffffffffffff1614613511576040517f08c379a000000000000000000000000000000000000000000000000000000000815260040161350890615074565b60405180910390fd5b838260020154613521919061554b565b8260020181905550828260030154613539919061554b565b8260030181905550505050505050565b6000600954905090565b60007f01ffc9a7000000000000000000000000000000000000000000000000000000007bffffffffffffffffffffffffffffffffffffffffffffffffffffffff1916827bffffffffffffffffffffffffffffffffffffffffffffffffffffffff1916149050919050565b60008073ffffffffffffffffffffffffffffffffffffffff166002600084815260200190815260200160002060009054906101000a900473ffffffffffffffffffffffffffffffffffffffff1673ffffffffffffffffffffffffffffffffffffffff1614159050919050565b600033905090565b816004600083815260200190815260200160002060006101000a81548173ffffffffffffffffffffffffffffffffffffffff021916908373ffffffffffffffffffffffffffffffffffffffff160217905550808273ffffffffffffffffffffffffffffffffffffffff166136a483612686565b73ffffffffffffffffffffffffffffffffffffffff167f8c5be1e5ebec7d5bd14f71427d1e84f3dd0314c0f7b2291e5b200ac8c7c3b92560405160405180910390a45050565b60006136f5826135bd565b613734576040517f08c379a000000000000000000000000000000000000000000000000000000000815260040161372b90614f14565b60405180910390fd5b600061373f83612686565b90508073ffffffffffffffffffffffffffffffffffffffff168473ffffffffffffffffffffffffffffffffffffffff1614806137ae57508373ffffffffffffffffffffffffffffffffffffffff16613796846107e0565b73ffffffffffffffffffffffffffffffffffffffff16145b806137bf57506137be81856132e9565b5b91505092915050565b8273ffffffffffffffffffffffffffffffffffffffff166137e882612686565b73ffffffffffffffffffffffffffffffffffffffff161461383e576040517f08c379a000000000000000000000000000000000000000000000000000000000815260040161383590615034565b60405180910390fd5b600073ffffffffffffffffffffffffffffffffffffffff168273ffffffffffffffffffffffffffffffffffffffff1614156138ae576040517f08c379a00000000000000000000000000000000000000000000000000000000081526004016138a590614ed4565b60405180910390fd5b6138b9838383613c5d565b6138c4600082613631565b6001600360008573ffffffffffffffffffffffffffffffffffffffff1673ffffffffffffffffffffffffffffffffffffffff168152602001908152602001600020600082825461391491906155d2565b925050819055506001600360008473ffffffffffffffffffffffffffffffffffffffff1673ffffffffffffffffffffffffffffffffffffffff168152602001908152602001600020600082825461396b919061554b565b92505081905550816002600083815260200190815260200160002060006101000a81548173ffffffffffffffffffffffffffffffffffffffff021916908373ffffffffffffffffffffffffffffffffffffffff160217905550808273ffffffffffffffffffffffffffffffffffffffff168473ffffffffffffffffffffffffffffffffffffffff167fddf252ad1be2c89b69c2b068fc378daa952ba7f163c4a11628f55a4df523b3ef60405160405180910390a4505050565b600080424433604051602001613a3c93929190614b80565b6040516020818303038152906040528051906020012060001c9050600a5481613a6591906158da565b91505090565b613a85828260405180602001604052806000815250613c62565b5050565b613a948484846137c8565b613aa084848484613cbd565b613adf576040517f08c379a0000000000000000000000000000000000000000000000000000000008152600401613ad690614e74565b60405180910390fd5b50505050565b606060405180602001604052806000815250905090565b60606000821415613b44576040518060400160405280600181526020017f30000000000000000000000000000000000000000000000000000000000000008152509050613c58565b600082905060005b60008214613b76578080613b5f90615863565b915050600a82613b6f91906155a1565b9150613b4c565b60008167ffffffffffffffff811115613b9257613b916159c7565b5b6040519080825280601f01601f191660200182016040528015613bc45781602001600182028036833780820191505090505b5090505b60008514613c5157600182613bdd91906155d2565b9150600a85613bec91906158da565b6030613bf8919061554b565b60f81b818381518110613c0e57613c0d615998565b5b60200101907effffffffffffffffffffffffffffffffffffffffffffffffffffffffffffff1916908160001a905350600a85613c4a91906155a1565b9450613bc8565b8093505050505b919050565b505050565b613c6c8383613e54565b613c796000848484613cbd565b613cb8576040517f08c379a0000000000000000000000000000000000000000000000000000000008152600401613caf90614e74565b60405180910390fd5b505050565b6000613cde8473ffffffffffffffffffffffffffffffffffffffff16614022565b15613e47578373ffffffffffffffffffffffffffffffffffffffff1663150b7a02613d07613629565b8786866040518563ffffffff1660e01b8152600401613d299493929190614c38565b602060405180830381600087803b158015613d4357600080fd5b505af1925050508015613d7457506040513d601f19601f82011682018060405250810190613d7191906143cb565b60015b613df7573d8060008114613da4576040519150601f19603f3d011682016040523d82523d6000602084013e613da9565b606091505b50600081511415613def576040517f08c379a0000000000000000000000000000000000000000000000000000000008152600401613de690614e74565b60405180910390fd5b805181602001fd5b63150b7a0260e01b7bffffffffffffffffffffffffffffffffffffffffffffffffffffffff1916817bffffffffffffffffffffffffffffffffffffffffffffffffffffffff191614915050613e4c565b600190505b949350505050565b600073ffffffffffffffffffffffffffffffffffffffff168273ffffffffffffffffffffffffffffffffffffffff161415613ec4576040517f08c379a0000000000000000000000000000000000000000000000000000000008152600401613ebb90614fd4565b60405180910390fd5b613ecd816135bd565b15613f0d576040517f08c379a0000000000000000000000000000000000000000000000000000000008152600401613f0490614e94565b60405180910390fd5b613f1960008383613c5d565b6001600360008473ffffffffffffffffffffffffffffffffffffffff1673ffffffffffffffffffffffffffffffffffffffff1681526020019081526020016000206000828254613f69919061554b565b92505081905550816002600083815260200190815260200160002060006101000a81548173ffffffffffffffffffffffffffffffffffffffff021916908373ffffffffffffffffffffffffffffffffffffffff160217905550808273ffffffffffffffffffffffffffffffffffffffff16600073ffffffffffffffffffffffffffffffffffffffff167fddf252ad1be2c89b69c2b068fc378daa952ba7f163c4a11628f55a4df523b3ef60405160405180910390a45050565b600080823b905060008111915050919050565b60405180610160016040528060008152602001600081526020016000815260200160008152602001600081526020016000815260200160008152602001600015158152602001600015158152602001600015158152602001600073ffffffffffffffffffffffffffffffffffffffff1681525090565b60006140be6140b98461549e565b615479565b9050828152602081018484840111156140da576140d96159fb565b5b6140e58482856157be565b509392505050565b6000813590506140fc81615efe565b92915050565b60008135905061411181615f15565b92915050565b60008151905061412681615f15565b92915050565b60008135905061413b81615f2c565b92915050565b60008151905061415081615f2c565b92915050565b600082601f83011261416b5761416a6159f6565b5b813561417b8482602086016140ab565b91505092915050565b60008135905061419381615f43565b92915050565b6000815190506141a881615f43565b92915050565b6000602082840312156141c4576141c3615a05565b5b60006141d2848285016140ed565b91505092915050565b600080604083850312156141f2576141f1615a05565b5b6000614200858286016140ed565b9250506020614211858286016140ed565b9150509250929050565b60008060006060848603121561423457614233615a05565b5b6000614242868287016140ed565b9350506020614253868287016140ed565b925050604061426486828701614184565b9150509250925092565b6000806000806080858703121561428857614287615a05565b5b6000614296878288016140ed565b94505060206142a7878288016140ed565b93505060406142b887828801614184565b925050606085013567ffffffffffffffff8111156142d9576142d8615a00565b5b6142e587828801614156565b91505092959194509250565b6000806040838503121561430857614307615a05565b5b6000614316858286016140ed565b925050602061432785828601614102565b9150509250929050565b6000806040838503121561434857614347615a05565b5b6000614356858286016140ed565b925050602061436785828601614184565b9150509250929050565b60006020828403121561438757614386615a05565b5b600061439584828501614117565b91505092915050565b6000602082840312156143b4576143b3615a05565b5b60006143c28482850161412c565b91505092915050565b6000602082840312156143e1576143e0615a05565b5b60006143ef84828501614141565b91505092915050565b60006020828403121561440e5761440d615a05565b5b600061441c84828501614184565b91505092915050565b60006020828403121561443b5761443a615a05565b5b600061444984828501614199565b91505092915050565b60008060006060848603121561446b5761446a615a05565b5b600061447986828701614184565b935050602061448a868287016140ed565b925050604061449b86828701614184565b9150509250925092565b600080600080608085870312156144bf576144be615a05565b5b60006144cd87828801614184565b94505060206144de878288016140ed565b93505060406144ef87828801614184565b925050606061450087828801614184565b91505092959194509250565b6000806040838503121561452357614522615a05565b5b600061453185828601614199565b925050602061454285828601614199565b9150509250929050565b60006145588383614b27565b60208301905092915050565b61456d81615606565b82525050565b61457c81615606565b82525050565b61459361458e82615606565b6158ac565b82525050565b60006145a4826154df565b6145ae818561550d565b93506145b9836154cf565b8060005b838110156145ea5781516145d1888261454c565b97506145dc83615500565b9250506001810190506145bd565b5085935050505092915050565b61460081615618565b82525050565b61460f81615618565b82525050565b6000614620826154ea565b61462a818561551e565b935061463a8185602086016157cd565b61464381615a0a565b840191505092915050565b6146578161567a565b82525050565b6146668161569e565b82525050565b614675816156c2565b82525050565b614684816156e6565b82525050565b6146938161570a565b82525050565b6146a28161571c565b82525050565b6146b18161572e565b82525050565b6146c081615740565b82525050565b6146cf81615752565b82525050565b6146de81615764565b82525050565b6146ed81615776565b82525050565b6146fc81615788565b82525050565b61470b8161579a565b82525050565b61471a816157ac565b82525050565b600061472b826154f5565b614735818561552f565b93506147458185602086016157cd565b61474e81615a0a565b840191505092915050565b6000614764826154f5565b61476e8185615540565b935061477e8185602086016157cd565b80840191505092915050565b600061479760028361552f565b91506147a282615a28565b602082019050919050565b60006147ba60328361552f565b91506147c582615a51565b604082019050919050565b60006147dd601c8361552f565b91506147e882615aa0565b602082019050919050565b600061480060028361552f565b915061480b82615ac9565b602082019050919050565b600061482360248361552f565b915061482e82615af2565b604082019050919050565b600061484660198361552f565b915061485182615b41565b602082019050919050565b6000614869602c8361552f565b915061487482615b6a565b604082019050919050565b600061488c60028361552f565b915061489782615bb9565b602082019050919050565b60006148af60028361552f565b91506148ba82615be2565b602082019050919050565b60006148d260388361552f565b91506148dd82615c0b565b604082019050919050565b60006148f5602a8361552f565b915061490082615c5a565b604082019050919050565b600061491860298361552f565b915061492382615ca9565b604082019050919050565b600061493b60208361552f565b915061494682615cf8565b602082019050919050565b600061495e602c8361552f565b915061496982615d21565b604082019050919050565b600061498160028361552f565b915061498c82615d70565b602082019050919050565b60006149a460298361552f565b91506149af82615d99565b604082019050919050565b60006149c7602f8361552f565b91506149d282615de8565b604082019050919050565b60006149ea60028361552f565b91506149f582615e37565b602082019050919050565b6000614a0d60218361552f565b9150614a1882615e60565b604082019050919050565b6000614a3060318361552f565b9150614a3b82615eaf565b604082019050919050565b61016082016000820151614a5d6000850182614b27565b506020820151614a706020850182614b27565b506040820151614a836040850182614b27565b506060820151614a966060850182614b27565b506080820151614aa96080850182614b27565b5060a0820151614abc60a0850182614b27565b5060c0820151614acf60c0850182614b27565b5060e0820151614ae260e08501826145f7565b50610100820151614af76101008501826145f7565b50610120820151614b0c6101208501826145f7565b50610140820151614b21610140850182614564565b50505050565b614b3081615670565b82525050565b614b3f81615670565b82525050565b614b56614b5182615670565b6158d0565b82525050565b6000614b688285614759565b9150614b748284614759565b91508190509392505050565b6000614b8c8286614b45565b602082019150614b9c8285614b45565b602082019150614bac8284614582565b601482019150819050949350505050565b6000602082019050614bd26000830184614573565b92915050565b6000604082019050614bed6000830185614573565b614bfa6020830184614573565b9392505050565b6000606082019050614c166000830186614573565b614c236020830185614573565b614c306040830184614b36565b949350505050565b6000608082019050614c4d6000830187614573565b614c5a6020830186614573565b614c676040830185614b36565b8181036060830152614c798184614615565b905095945050505050565b6000608082019050614c996000830187614573565b614ca660208301866146a8565b614cb36040830185614711565b614cc06060830184614b36565b95945050505050565b6000608082019050614cde6000830187614573565b614ceb60208301866146e4565b614cf8604083018561468a565b614d056060830184614b36565b95945050505050565b6000608082019050614d236000830187614573565b614d3060208301866146e4565b614d3d60408301856146e4565b614d4a6060830184614b36565b95945050505050565b60006020820190508181036000830152614d6d8184614599565b905092915050565b6000602082019050614d8a6000830184614606565b92915050565b6000602082019050614da5600083018461464e565b92915050565b6000602082019050614dc0600083018461465d565b92915050565b6000602082019050614ddb600083018461466c565b92915050565b6000602082019050614df6600083018461467b565b92915050565b6000602082019050614e116000830184614699565b92915050565b6000602082019050614e2c60008301846146b7565b92915050565b60006020820190508181036000830152614e4c8184614720565b905092915050565b60006020820190508181036000830152614e6d8161478a565b9050919050565b60006020820190508181036000830152614e8d816147ad565b9050919050565b60006020820190508181036000830152614ead816147d0565b9050919050565b60006020820190508181036000830152614ecd816147f3565b9050919050565b60006020820190508181036000830152614eed81614816565b9050919050565b60006020820190508181036000830152614f0d81614839565b9050919050565b60006020820190508181036000830152614f2d8161485c565b9050919050565b60006020820190508181036000830152614f4d8161487f565b9050919050565b60006020820190508181036000830152614f6d816148a2565b9050919050565b60006020820190508181036000830152614f8d816148c5565b9050919050565b60006020820190508181036000830152614fad816148e8565b9050919050565b60006020820190508181036000830152614fcd8161490b565b9050919050565b60006020820190508181036000830152614fed8161492e565b9050919050565b6000602082019050818103600083015261500d81614951565b9050919050565b6000602082019050818103600083015261502d81614974565b9050919050565b6000602082019050818103600083015261504d81614997565b9050919050565b6000602082019050818103600083015261506d816149ba565b9050919050565b6000602082019050818103600083015261508d816149dd565b9050919050565b600060208201905081810360008301526150ad81614a00565b9050919050565b600060208201905081810360008301526150cd81614a23565b9050919050565b6000610160820190506150ea6000830184614a46565b92915050565b60006020820190506151056000830184614b36565b92915050565b60006040820190506151206000830185614b36565b61512d6020830184614b36565b9392505050565b600060e082019050615149600083018a614b36565b6151566020830189614b36565b6151636040830188614573565b6151706060830187614699565b61517d6080830186614b36565b61518a60a0830185614b36565b61519760c0830184614699565b98975050505050505050565b600060e0820190506151b8600083018a614b36565b6151c56020830189614b36565b6151d26040830188614573565b6151df6060830187614699565b6151ec6080830186614b36565b6151f960a0830185614b36565b61520660c08301846146b7565b98975050505050505050565b600060e082019050615227600083018a614b36565b6152346020830189614b36565b6152416040830188614573565b61524e6060830187614699565b61525b6080830186614b36565b61526860a0830185614b36565b61527560c08301846146c6565b98975050505050505050565b600060e082019050615296600083018a614b36565b6152a36020830189614b36565b6152b06040830188614573565b6152bd60608301876146b7565b6152ca6080830186614b36565b6152d760a0830185614b36565b6152e460c08301846146d5565b98975050505050505050565b600060e082019050615305600083018a614b36565b6153126020830189614b36565b61531f6040830188614573565b61532c60608301876146b7565b6153396080830186614b36565b61534660a0830185614b36565b61535360c08301846146f3565b98975050505050505050565b600060e082019050615374600083018a614b36565b6153816020830189614b36565b61538e6040830188614573565b61539b60608301876146c6565b6153a86080830186614b36565b6153b560a0830185614b36565b6153c260c0830184614702565b98975050505050505050565b6000610160820190506153e4600083018e614b36565b6153f1602083018d614b36565b6153fe604083018c614b36565b61540b606083018b614b36565b615418608083018a614b36565b61542560a0830189614b36565b61543260c0830188614b36565b61543f60e0830187614606565b61544d610100830186614606565b61545b610120830185614606565b615469610140830184614573565b9c9b505050505050505050505050565b6000615483615494565b905061548f8282615832565b919050565b6000604051905090565b600067ffffffffffffffff8211156154b9576154b86159c7565b5b6154c282615a0a565b9050602081019050919050565b6000819050602082019050919050565b600081519050919050565b600081519050919050565b600081519050919050565b6000602082019050919050565b600082825260208201905092915050565b600082825260208201905092915050565b600082825260208201905092915050565b600081905092915050565b600061555682615670565b915061556183615670565b9250827fffffffffffffffffffffffffffffffffffffffffffffffffffffffffffffffff038211156155965761559561590b565b5b828201905092915050565b60006155ac82615670565b91506155b783615670565b9250826155c7576155c661593a565b5b828204905092915050565b60006155dd82615670565b91506155e883615670565b9250828210156155fb576155fa61590b565b5b828203905092915050565b600061561182615650565b9050919050565b60008115159050919050565b60007fffffffff0000000000000000000000000000000000000000000000000000000082169050919050565b600073ffffffffffffffffffffffffffffffffffffffff82169050919050565b6000819050919050565b60006156858261568c565b9050919050565b600061569782615650565b9050919050565b60006156a9826156b0565b9050919050565b60006156bb82615650565b9050919050565b60006156cd826156d4565b9050919050565b60006156df82615650565b9050919050565b60006156f1826156f8565b9050919050565b600061570382615650565b9050919050565b600061571582615670565b9050919050565b600061572782615670565b9050919050565b600061573982615670565b9050919050565b600061574b82615670565b9050919050565b600061575d82615670565b9050919050565b600061576f82615670565b9050919050565b600061578182615670565b9050919050565b600061579382615670565b9050919050565b60006157a582615670565b9050919050565b60006157b782615670565b9050919050565b82818337600083830152505050565b60005b838110156157eb5780820151818401526020810190506157d0565b838111156157fa576000848401525b50505050565b6000600282049050600182168061581857607f821691505b6020821081141561582c5761582b615969565b5b50919050565b61583b82615a0a565b810181811067ffffffffffffffff8211171561585a576158596159c7565b5b80604052505050565b600061586e82615670565b91507fffffffffffffffffffffffffffffffffffffffffffffffffffffffffffffffff8214156158a1576158a061590b565b5b600182019050919050565b60006158b7826158be565b9050919050565b60006158c982615a1b565b9050919050565b6000819050919050565b60006158e582615670565b91506158f083615670565b925082615900576158ff61593a565b5b828206905092915050565b7f4e487b7100000000000000000000000000000000000000000000000000000000600052601160045260246000fd5b7f4e487b7100000000000000000000000000000000000000000000000000000000600052601260045260246000fd5b7f4e487b7100000000000000000000000000000000000000000000000000000000600052602260045260246000fd5b7f4e487b7100000000000000000000000000000000000000000000000000000000600052603260045260246000fd5b7f4e487b7100000000000000000000000000000000000000000000000000000000600052604160045260246000fd5b600080fd5b600080fd5b600080fd5b600080fd5b6000601f19601f8301169050919050565b60008160601b9050919050565b7f4231000000000000000000000000000000000000000000000000000000000000600082015250565b7f4552433732313a207472616e7366657220746f206e6f6e20455243373231526560008201527f63656976657220696d706c656d656e7465720000000000000000000000000000602082015250565b7f4552433732313a20746f6b656e20616c7265616479206d696e74656400000000600082015250565b7f4131000000000000000000000000000000000000000000000000000000000000600082015250565b7f4552433732313a207472616e7366657220746f20746865207a65726f2061646460008201527f7265737300000000000000000000000000000000000000000000000000000000602082015250565b7f4552433732313a20617070726f766520746f2063616c6c657200000000000000600082015250565b7f4552433732313a206f70657261746f7220717565727920666f72206e6f6e657860008201527f697374656e7420746f6b656e0000000000000000000000000000000000000000602082015250565b7f4130000000000000000000000000000000000000000000000000000000000000600082015250565b7f5430000000000000000000000000000000000000000000000000000000000000600082015250565b7f4552433732313a20617070726f76652063616c6c6572206973206e6f74206f7760008201527f6e6572206e6f7220617070726f76656420666f7220616c6c0000000000000000602082015250565b7f4552433732313a2062616c616e636520717565727920666f7220746865207a6560008201527f726f206164647265737300000000000000000000000000000000000000000000602082015250565b7f4552433732313a206f776e657220717565727920666f72206e6f6e657869737460008201527f656e7420746f6b656e0000000000000000000000000000000000000000000000602082015250565b7f4552433732313a206d696e7420746f20746865207a65726f2061646472657373600082015250565b7f4552433732313a20617070726f76656420717565727920666f72206e6f6e657860008201527f697374656e7420746f6b656e0000000000000000000000000000000000000000602082015250565b7f5035000000000000000000000000000000000000000000000000000000000000600082015250565b7f4552433732313a207472616e73666572206f6620746f6b656e2074686174206960008201527f73206e6f74206f776e0000000000000000000000000000000000000000000000602082015250565b7f4552433732314d657461646174613a2055524920717565727920666f72206e6f60008201527f6e6578697374656e7420746f6b656e0000000000000000000000000000000000602082015250565b7f5036000000000000000000000000000000000000000000000000000000000000600082015250565b7f4552433732313a20617070726f76616c20746f2063757272656e74206f776e6560008201527f7200000000000000000000000000000000000000000000000000000000000000602082015250565b7f4552433732313a207472616e736665722063616c6c6572206973206e6f74206f60008201527f776e6572206e6f7220617070726f766564000000000000000000000000000000602082015250565b615f0781615606565b8114615f1257600080fd5b50565b615f1e81615618565b8114615f2957600080fd5b50565b615f3581615624565b8114615f4057600080fd5b50565b615f4c81615670565b8114615f5757600080fd5b5056fea2646970667358221220bd88a8bb1ea683dd0a12b3a4a3dc95e4f7729da01359b80eb299038b0eb6393c64736f6c63430008060033",
  "immutableReferences": {},
  "source": "// SPDX-License-Identifier: MIT\r\npragma solidity >=0.4.22 <0.9.0;\r\n\r\nimport \"../node_modules/@openzeppelin/contracts/token/ERC721/ERC721.sol\";\r\n//import \"../node_modules/@openzeppelin/contracts/token/ERC721/IERC721.sol\";\r\nimport \"../node_modules/@openzeppelin/contracts/token/ERC20/IERC20.sol\";\r\n// import \"../node_modules/@openzeppelin/contracts/access/Ownable.sol\";\r\n// import \"../node_modules/@openzeppelin/contracts/security/ReentrancyGuard.sol\";\r\n//import \"../node_modules/@openzeppelin/contracts/token/ERC1155/IERC1155.sol\";\r\nimport \"../contracts/PBPlayers.sol\";\r\nimport \"../contracts/PBXP.sol\";\r\nimport \"../contracts/PBMatchupValidation.sol\";\r\n\r\ncontract PBTeams is ERC721 {\r\n\r\n    address admin;\r\n    address pbxpAddress;\r\n    address pbPlayersAddress;\r\n    uint teamMintCost;\r\n    uint dnaModulus = 10 ** 16;\r\n    uint playersPerTeam = 6;\r\n    uint bellCurveIterations = 4;\r\n    uint PBXPtokenId = 0;\r\n  \r\n    IERC20 public buddies;\r\n    PBXP public PBXPToken;\r\n    PBPlayers public pbPlayers;\r\n    PBMatchupValidation public pbMatchupValidation;\r\n    \r\n\r\n\r\nevent NewTeam(uint nextId, uint dna);\r\n\r\nstruct Team{\r\n    uint teamId;\r\n    uint teamDna;\r\n    uint teamTotalOP;\r\n    uint teamTotalDP;\r\n    uint activeTimestamp1;\r\n    uint activeTimestamp2;\r\n    uint activeTimestamp3;\r\n    bool lastMatchWon1;\r\n    bool lastMatchWon2;\r\n    bool lastMatchWon3;\r\n    address ownerAddress;\r\n\r\n}\r\n\r\nuint nextId = 0;\r\n\r\nmapping (uint => Team) public _tokenDetails;\r\n\r\n\r\nconstructor(uint _teamMintCost, address _buddiesCoinAddress, address _pbxpAddress, address _pbPlayersAddress) ERC721(\"Puck Buddies Team\", \"PBT\"){\r\n    admin = msg.sender;\r\n    teamMintCost = _teamMintCost;\r\n    buddies = IERC20(_buddiesCoinAddress);\r\n    PBXPToken = PBXP(_pbxpAddress);\r\n    pbPlayers = PBPlayers(_pbPlayersAddress); \r\n    pbPlayersAddress = _pbPlayersAddress;\r\n}\r\n\r\nmodifier onlyAdmin() {\r\n        require(admin == msg.sender, \"A1\" );\r\n        _;\r\n}\r\n\r\nfunction isAdmin() public view returns (bool){\r\n        if(admin == msg.sender){\r\n            return true;\r\n        } else return false;\r\n}\r\n\r\nfunction getPBTeamsAddress() public view returns (address){\r\n    return address(this);\r\n}\r\n\r\nfunction getTeamMintCost() public view returns (uint){\r\n    return teamMintCost;\r\n}\r\n\r\nfunction updateBuddiesCoinAddress(address _buddiesCoinAddress) external onlyAdmin {\r\n        buddies = IERC20(_buddiesCoinAddress);\r\n}\r\n\r\nfunction updatePbxpAddress(address _pbxpAddress) external onlyAdmin{\r\n        PBXPToken = PBXP(_pbxpAddress);\r\n} \r\n\r\nfunction updatePuckBuddiePlayersAddress(address _pbPlayersAddress) external onlyAdmin{\r\n        pbPlayers = PBPlayers(_pbPlayersAddress);\r\n        pbPlayersAddress = _pbPlayersAddress;        \r\n} \r\n\r\nfunction updatePBMatchupValidationAddress(address _pbMatchupValidationAddress) external onlyAdmin {\r\n        pbMatchupValidation = PBMatchupValidation(_pbMatchupValidationAddress);\r\n}\r\n\r\nfunction updateTeamMintCost(uint _teamMintCost) public onlyAdmin {\r\n    teamMintCost = _teamMintCost;\r\n}\r\n\r\nfunction getTokenDetails(uint tokenId) public view returns (Team memory){\r\n        return _tokenDetails[tokenId];\r\n}\r\n\r\nfunction getAllTokensForUser(address user) public view returns (uint256[] memory){\r\n        uint256 tokenCount = balanceOf(user);\r\n        if(tokenCount == 0){\r\n            return new uint256[](0);\r\n        }\r\n        else{\r\n            uint[] memory result = new uint256[](tokenCount);\r\n            uint256 totalTeams = nextId;\r\n            uint256 resultIndex = 0;\r\n            uint256 i;\r\n            for(i = 0; i < totalTeams; i++){\r\n                if(ownerOf(i) == user){\r\n                    result[resultIndex] = i;\r\n                    resultIndex++;\r\n                }\r\n            }\r\n            return result;\r\n        }\r\n    }\r\n\r\nfunction _generateRandDna () private view returns (uint){\r\n        uint rand = uint(keccak256(abi.encodePacked(block.timestamp, block.difficulty, msg.sender)));\r\n        return rand % dnaModulus;\r\n}\r\n\r\nfunction mintTeam(uint value) external {\r\n    if(nextId == 0){\r\n        require(msg.sender == admin, \"A0\");\r\n    }\r\n    require(balanceOf(msg.sender) < 1, \"T0\");\r\n    uint allowance = buddies.allowance(msg.sender, address(this));\r\n    require(allowance >= value, \"B1\");\r\n    buddies.transferFrom(msg.sender, pbPlayersAddress, value);\r\n    uint dna = _generateRandDna();\r\n    uint randOp;\r\n    uint randDp;\r\n    uint totOp = 0;\r\n    uint totDp = 0;\r\n    //New Stuff\r\n    randOp = pbPlayers._generateRandAtrrib(msg.sender, 50, 50, pbPlayers._randHelper(1));\r\n    randDp = pbPlayers._generateRandAtrrib(msg.sender, 50, 0, pbPlayers._randHelper(2));\r\n    totOp = totOp + randOp;\r\n    totDp = totDp + randDp;\r\n    pbPlayers.mintPlayerToTeam(randOp,randDp, msg.sender,1,nextId,dna,1); //Offence 1\r\n\r\n    randOp = pbPlayers._generateRandAtrrib(msg.sender, 50, 50, pbPlayers._randHelper(1));\r\n    randDp = pbPlayers._generateRandAtrrib(msg.sender, 50, 0, pbPlayers._randHelper(2));\r\n    totOp = totOp + randOp;\r\n    totDp = totDp + randDp;\r\n    pbPlayers.mintPlayerToTeam(randOp,randDp,msg.sender,1,nextId,dna,2); //Offence 2\r\n\r\n    randOp = pbPlayers._generateRandAtrrib(msg.sender, 50, 50, pbPlayers._randHelper(1));\r\n    randDp = pbPlayers._generateRandAtrrib(msg.sender, 50, 0, pbPlayers._randHelper(2));\r\n    totOp = totOp + randOp;\r\n    totDp = totDp + randDp;\r\n    pbPlayers.mintPlayerToTeam(randOp,randDp,msg.sender,1,nextId,dna,3); //Offence 3\r\n\r\n    randOp = pbPlayers._generateRandAtrrib(msg.sender, 50, 0, pbPlayers._randHelper(1));\r\n    randDp = pbPlayers._generateRandAtrrib(msg.sender, 50, 50, pbPlayers._randHelper(2));\r\n    totOp = totOp + randOp;\r\n    totDp = totDp + randDp;\r\n    pbPlayers.mintPlayerToTeam(randOp,randDp,msg.sender,2,nextId,dna,4); //Defence 1\r\n\r\n    randOp = pbPlayers._generateRandAtrrib(msg.sender, 50, 0, pbPlayers._randHelper(1));\r\n    randDp = pbPlayers._generateRandAtrrib(msg.sender, 50, 50, pbPlayers._randHelper(2));\r\n    totOp = totOp + randOp;\r\n    totDp = totDp + randDp;\r\n    pbPlayers.mintPlayerToTeam(randOp,randDp,msg.sender,2,nextId,dna,5); //Defence 2\r\n\r\n    randOp = 0;\r\n    randDp = pbPlayers._generateRandAtrrib(msg.sender, 25, 75, pbPlayers._randHelper(2));\r\n    totOp = totOp + randOp;\r\n    totDp = totDp + randDp;\r\n    pbPlayers.mintPlayerToTeam(randOp,randDp,msg.sender,3,nextId,dna,6); //Goalie\r\n\r\n    _tokenDetails[nextId] = Team(nextId, dna,totOp,totDp,0,0,0,false,false,false,msg.sender);\r\n    _safeMint(msg.sender, nextId);\r\n    PBXPToken.newTeamPBXP(msg.sender);\r\n    //End New stuff\r\n    emit NewTeam(nextId, dna);\r\n    nextId++;\r\n}\r\n\r\nfunction addStatsToTeam(uint teamId, address teamOwner, uint playerop, uint playerdp) public {\r\n    Team storage team = _tokenDetails[teamId];\r\n    address ownersAddress = _tokenDetails[teamId].ownerAddress;\r\n    require(ownersAddress == teamOwner, \"P6\");\r\n    team.teamTotalOP = team.teamTotalOP + playerop;\r\n    team.teamTotalDP = team.teamTotalDP + playerdp;    \r\n}\r\n\r\nfunction removeStatsFromTeam(uint teamId, address teamOwner, uint playerop, uint playerdp) public {\r\n    Team storage team = _tokenDetails[teamId];\r\n    address ownersAddress = _tokenDetails[teamId].ownerAddress;\r\n    require(ownersAddress == teamOwner);\r\n    team.teamTotalOP = team.teamTotalOP - playerop;\r\n    team.teamTotalDP = team.teamTotalDP - playerdp;      \r\n}\r\n\r\nfunction addOPToTeam(uint teamId, address teamOwner, uint playerop) public  {\r\n    require(msg.sender == pbPlayersAddress,\"P5\");\r\n    Team storage team = _tokenDetails[teamId];\r\n    address ownersAddress = _tokenDetails[teamId].ownerAddress;\r\n    require(ownersAddress == teamOwner, \"P6\");\r\n    team.teamTotalOP = team.teamTotalOP + playerop;   \r\n}\r\n\r\nfunction addDPToTeam(uint teamId, address teamOwner, uint playerdp) public  {\r\n    require(msg.sender == pbPlayersAddress,\"P5\");\r\n    Team storage team = _tokenDetails[teamId];\r\n    address ownersAddress = _tokenDetails[teamId].ownerAddress;\r\n    require(ownersAddress == teamOwner);\r\n    team.teamTotalDP = team.teamTotalDP + playerdp;    \r\n}\r\n\r\n\r\n}",
  "sourcePath": "O:\\Projects\\puck-buddies\\contracts\\PBTeams.sol",
  "compiler": {
    "name": "solc",
    "version": "0.8.6+commit.11564f7e.Emscripten.clang"
  },
  "schemaVersion": "3.4.3",
  "updatedAt": "2021-11-09T03:35:07.573Z",
  "networkType": "ethereum",
  "devdoc": {
    "kind": "dev",
    "methods": {
      "approve(address,uint256)": {
        "details": "See {IERC721-approve}."
      },
      "balanceOf(address)": {
        "details": "See {IERC721-balanceOf}."
      },
      "getApproved(uint256)": {
        "details": "See {IERC721-getApproved}."
      },
      "isApprovedForAll(address,address)": {
        "details": "See {IERC721-isApprovedForAll}."
      },
      "name()": {
        "details": "See {IERC721Metadata-name}."
      },
      "ownerOf(uint256)": {
        "details": "See {IERC721-ownerOf}."
      },
      "safeTransferFrom(address,address,uint256)": {
        "details": "See {IERC721-safeTransferFrom}."
      },
      "safeTransferFrom(address,address,uint256,bytes)": {
        "details": "See {IERC721-safeTransferFrom}."
      },
      "setApprovalForAll(address,bool)": {
        "details": "See {IERC721-setApprovalForAll}."
      },
      "supportsInterface(bytes4)": {
        "details": "See {IERC165-supportsInterface}."
      },
      "symbol()": {
        "details": "See {IERC721Metadata-symbol}."
      },
      "tokenURI(uint256)": {
        "details": "See {IERC721Metadata-tokenURI}."
      },
      "transferFrom(address,address,uint256)": {
        "details": "See {IERC721-transferFrom}."
      }
    },
    "version": 1
  },
  "userdoc": {
    "kind": "user",
    "methods": {},
    "version": 1
  }
}