{
  "contractName": "PBTeams",
  "abi": [
    {
      "inputs": [
        {
          "internalType": "uint256",
          "name": "_teamMintCost",
          "type": "uint256"
        },
        {
          "internalType": "address",
          "name": "_buddiesCoinAddress",
          "type": "address"
        },
        {
          "internalType": "address",
          "name": "_pbxpAddress",
          "type": "address"
        },
        {
          "internalType": "address",
          "name": "_pbPlayersAddress",
          "type": "address"
        }
      ],
      "stateMutability": "nonpayable",
      "type": "constructor"
    },
    {
      "anonymous": false,
      "inputs": [
        {
          "indexed": true,
          "internalType": "address",
          "name": "owner",
          "type": "address"
        },
        {
          "indexed": true,
          "internalType": "address",
          "name": "approved",
          "type": "address"
        },
        {
          "indexed": true,
          "internalType": "uint256",
          "name": "tokenId",
          "type": "uint256"
        }
      ],
      "name": "Approval",
      "type": "event"
    },
    {
      "anonymous": false,
      "inputs": [
        {
          "indexed": true,
          "internalType": "address",
          "name": "owner",
          "type": "address"
        },
        {
          "indexed": true,
          "internalType": "address",
          "name": "operator",
          "type": "address"
        },
        {
          "indexed": false,
          "internalType": "bool",
          "name": "approved",
          "type": "bool"
        }
      ],
      "name": "ApprovalForAll",
      "type": "event"
    },
    {
      "anonymous": false,
      "inputs": [
        {
          "indexed": true,
          "internalType": "address",
          "name": "from",
          "type": "address"
        },
        {
          "indexed": true,
          "internalType": "address",
          "name": "to",
          "type": "address"
        },
        {
          "indexed": true,
          "internalType": "uint256",
          "name": "tokenId",
          "type": "uint256"
        }
      ],
      "name": "Transfer",
      "type": "event"
    },
    {
      "anonymous": false,
      "inputs": [
        {
          "indexed": false,
          "internalType": "uint256",
          "name": "p1",
          "type": "uint256"
        },
        {
          "indexed": false,
          "internalType": "uint256",
          "name": "p2",
          "type": "uint256"
        },
        {
          "indexed": false,
          "internalType": "uint256",
          "name": "p3",
          "type": "uint256"
        },
        {
          "indexed": false,
          "internalType": "uint256",
          "name": "p4",
          "type": "uint256"
        },
        {
          "indexed": false,
          "internalType": "uint256",
          "name": "p5",
          "type": "uint256"
        },
        {
          "indexed": false,
          "internalType": "uint256",
          "name": "p6",
          "type": "uint256"
        }
      ],
      "name": "sixPackPlayer",
      "type": "event"
    },
    {
      "inputs": [],
      "name": "PBXPToken",
      "outputs": [
        {
          "internalType": "contract PBXP",
          "name": "",
          "type": "address"
        }
      ],
      "stateMutability": "view",
      "type": "function",
      "constant": true
    },
    {
      "inputs": [
        {
          "internalType": "address",
          "name": "to",
          "type": "address"
        },
        {
          "internalType": "uint256",
          "name": "tokenId",
          "type": "uint256"
        }
      ],
      "name": "approve",
      "outputs": [],
      "stateMutability": "nonpayable",
      "type": "function"
    },
    {
      "inputs": [
        {
          "internalType": "address",
          "name": "owner",
          "type": "address"
        }
      ],
      "name": "balanceOf",
      "outputs": [
        {
          "internalType": "uint256",
          "name": "",
          "type": "uint256"
        }
      ],
      "stateMutability": "view",
      "type": "function",
      "constant": true
    },
    {
      "inputs": [],
      "name": "buddies",
      "outputs": [
        {
          "internalType": "contract IERC20",
          "name": "",
          "type": "address"
        }
      ],
      "stateMutability": "view",
      "type": "function",
      "constant": true
    },
    {
      "inputs": [
        {
          "internalType": "uint256",
          "name": "tokenId",
          "type": "uint256"
        }
      ],
      "name": "getApproved",
      "outputs": [
        {
          "internalType": "address",
          "name": "",
          "type": "address"
        }
      ],
      "stateMutability": "view",
      "type": "function",
      "constant": true
    },
    {
      "inputs": [
        {
          "internalType": "address",
          "name": "owner",
          "type": "address"
        },
        {
          "internalType": "address",
          "name": "operator",
          "type": "address"
        }
      ],
      "name": "isApprovedForAll",
      "outputs": [
        {
          "internalType": "bool",
          "name": "",
          "type": "bool"
        }
      ],
      "stateMutability": "view",
      "type": "function",
      "constant": true
    },
    {
      "inputs": [],
      "name": "name",
      "outputs": [
        {
          "internalType": "string",
          "name": "",
          "type": "string"
        }
      ],
      "stateMutability": "view",
      "type": "function",
      "constant": true
    },
    {
      "inputs": [
        {
          "internalType": "uint256",
          "name": "tokenId",
          "type": "uint256"
        }
      ],
      "name": "ownerOf",
      "outputs": [
        {
          "internalType": "address",
          "name": "",
          "type": "address"
        }
      ],
      "stateMutability": "view",
      "type": "function",
      "constant": true
    },
    {
      "inputs": [],
      "name": "pbPlayers",
      "outputs": [
        {
          "internalType": "contract PBPlayers",
          "name": "",
          "type": "address"
        }
      ],
      "stateMutability": "view",
      "type": "function",
      "constant": true
    },
    {
      "inputs": [
        {
          "internalType": "address",
          "name": "from",
          "type": "address"
        },
        {
          "internalType": "address",
          "name": "to",
          "type": "address"
        },
        {
          "internalType": "uint256",
          "name": "tokenId",
          "type": "uint256"
        }
      ],
      "name": "safeTransferFrom",
      "outputs": [],
      "stateMutability": "nonpayable",
      "type": "function"
    },
    {
      "inputs": [
        {
          "internalType": "address",
          "name": "from",
          "type": "address"
        },
        {
          "internalType": "address",
          "name": "to",
          "type": "address"
        },
        {
          "internalType": "uint256",
          "name": "tokenId",
          "type": "uint256"
        },
        {
          "internalType": "bytes",
          "name": "_data",
          "type": "bytes"
        }
      ],
      "name": "safeTransferFrom",
      "outputs": [],
      "stateMutability": "nonpayable",
      "type": "function"
    },
    {
      "inputs": [
        {
          "internalType": "address",
          "name": "operator",
          "type": "address"
        },
        {
          "internalType": "bool",
          "name": "approved",
          "type": "bool"
        }
      ],
      "name": "setApprovalForAll",
      "outputs": [],
      "stateMutability": "nonpayable",
      "type": "function"
    },
    {
      "inputs": [
        {
          "internalType": "bytes4",
          "name": "interfaceId",
          "type": "bytes4"
        }
      ],
      "name": "supportsInterface",
      "outputs": [
        {
          "internalType": "bool",
          "name": "",
          "type": "bool"
        }
      ],
      "stateMutability": "view",
      "type": "function",
      "constant": true
    },
    {
      "inputs": [],
      "name": "symbol",
      "outputs": [
        {
          "internalType": "string",
          "name": "",
          "type": "string"
        }
      ],
      "stateMutability": "view",
      "type": "function",
      "constant": true
    },
    {
      "inputs": [
        {
          "internalType": "uint256",
          "name": "tokenId",
          "type": "uint256"
        }
      ],
      "name": "tokenURI",
      "outputs": [
        {
          "internalType": "string",
          "name": "",
          "type": "string"
        }
      ],
      "stateMutability": "view",
      "type": "function",
      "constant": true
    },
    {
      "inputs": [
        {
          "internalType": "address",
          "name": "from",
          "type": "address"
        },
        {
          "internalType": "address",
          "name": "to",
          "type": "address"
        },
        {
          "internalType": "uint256",
          "name": "tokenId",
          "type": "uint256"
        }
      ],
      "name": "transferFrom",
      "outputs": [],
      "stateMutability": "nonpayable",
      "type": "function"
    },
    {
      "inputs": [],
      "name": "isAdmin",
      "outputs": [
        {
          "internalType": "bool",
          "name": "",
          "type": "bool"
        }
      ],
      "stateMutability": "view",
      "type": "function",
      "constant": true
    },
    {
      "inputs": [],
      "name": "getPBTeamsAddress",
      "outputs": [
        {
          "internalType": "address",
          "name": "",
          "type": "address"
        }
      ],
      "stateMutability": "view",
      "type": "function",
      "constant": true
    },
    {
      "inputs": [],
      "name": "getTeamMintCost",
      "outputs": [
        {
          "internalType": "uint256",
          "name": "",
          "type": "uint256"
        }
      ],
      "stateMutability": "view",
      "type": "function",
      "constant": true
    },
    {
      "inputs": [
        {
          "internalType": "address",
          "name": "_buddiesCoinAddress",
          "type": "address"
        }
      ],
      "name": "updateBuddiesCoinAddress",
      "outputs": [],
      "stateMutability": "nonpayable",
      "type": "function"
    },
    {
      "inputs": [
        {
          "internalType": "address",
          "name": "_pbxpAddress",
          "type": "address"
        }
      ],
      "name": "updatePbxpAddress",
      "outputs": [],
      "stateMutability": "nonpayable",
      "type": "function"
    },
    {
      "inputs": [
        {
          "internalType": "address",
          "name": "_pbPlayersAddress",
          "type": "address"
        }
      ],
      "name": "updatePuckBuddiePlayersAddress",
      "outputs": [],
      "stateMutability": "nonpayable",
      "type": "function"
    },
    {
      "inputs": [
        {
          "internalType": "uint256",
          "name": "_teamMintCost",
          "type": "uint256"
        }
      ],
      "name": "updateTeamMintCost",
      "outputs": [],
      "stateMutability": "nonpayable",
      "type": "function"
    },
    {
      "inputs": [
        {
          "internalType": "uint256",
          "name": "value",
          "type": "uint256"
        }
      ],
      "name": "mintSixPack",
      "outputs": [],
      "stateMutability": "nonpayable",
      "type": "function"
    }
  ],
  "bytecode": "0x6080604052662386f26fc10000600a556006600b556004600c556000600d553480156200002b57600080fd5b5060405162004b6a38038062004b6a833981810160405281019062000051919062000325565b6040518060400160405280601181526020017f5075636b2042756464696573205465616d0000000000000000000000000000008152506040518060400160405280600381526020017f50425400000000000000000000000000000000000000000000000000000000008152508160009080519060200190620000d592919062000247565b508060019080519060200190620000ee92919062000247565b50505033600660006101000a81548173ffffffffffffffffffffffffffffffffffffffff021916908373ffffffffffffffffffffffffffffffffffffffff1602179055508360098190555082600e60006101000a81548173ffffffffffffffffffffffffffffffffffffffff021916908373ffffffffffffffffffffffffffffffffffffffff16021790555081600f60006101000a81548173ffffffffffffffffffffffffffffffffffffffff021916908373ffffffffffffffffffffffffffffffffffffffff16021790555080601060006101000a81548173ffffffffffffffffffffffffffffffffffffffff021916908373ffffffffffffffffffffffffffffffffffffffff16021790555080600860006101000a81548173ffffffffffffffffffffffffffffffffffffffff021916908373ffffffffffffffffffffffffffffffffffffffff1602179055505050505062000473565b8280546200025590620003d5565b90600052602060002090601f016020900481019282620002795760008555620002c5565b82601f106200029457805160ff1916838001178555620002c5565b82800160010185558215620002c5579182015b82811115620002c4578251825591602001919060010190620002a7565b5b509050620002d49190620002d8565b5090565b5b80821115620002f3576000816000905550600101620002d9565b5090565b60008151905062000308816200043f565b92915050565b6000815190506200031f8162000459565b92915050565b600080600080608085870312156200034257620003416200043a565b5b600062000352878288016200030e565b94505060206200036587828801620002f7565b93505060406200037887828801620002f7565b92505060606200038b87828801620002f7565b91505092959194509250565b6000620003a482620003ab565b9050919050565b600073ffffffffffffffffffffffffffffffffffffffff82169050919050565b6000819050919050565b60006002820490506001821680620003ee57607f821691505b602082108114156200040557620004046200040b565b5b50919050565b7f4e487b7100000000000000000000000000000000000000000000000000000000600052602260045260246000fd5b600080fd5b6200044a8162000397565b81146200045657600080fd5b50565b6200046481620003cb565b81146200047057600080fd5b50565b6146e780620004836000396000f3fe608060405234801561001057600080fd5b50600436106101585760003560e01c806363eaef5a116100c3578063b88d4fde1161007c578063b88d4fde146103b3578063c87b56dd146103cf578063d034a6de146103ff578063e985e9c51461041b578063ea1c3c011461044b578063ff18e6891461046757610158565b806363eaef5a146102ef57806370a082311461030d57806395d89b411461033d57806397ede5251461035b578063a22cb46514610379578063b6db75a01461039557610158565b806323b872dd1161011557806323b872dd1461023157806342842e0e1461024d5780634a594c121461026957806356ef3bfc146102875780635d632faf146102a35780636352211e146102bf57610158565b806301ffc9a71461015d57806306fdde031461018d578063081812fc146101ab578063095ea7b3146101db578063095fa7ec146101f7578063173170eb14610215575b600080fd5b6101776004803603810190610172919061339b565b610485565b604051610184919061397c565b60405180910390f35b610195610567565b6040516101a29190613a1e565b60405180910390f35b6101c560048036038101906101c091906133f5565b6105f9565b6040516101d291906137e6565b60405180910390f35b6101f560048036038101906101f0919061332e565b61067e565b005b6101ff610796565b60405161020c91906137e6565b60405180910390f35b61022f600480360381019061022a91906133f5565b61079e565b005b61024b60048036038101906102469190613218565b611e7e565b005b61026760048036038101906102629190613218565b611ede565b005b610271611efe565b60405161027e9190613997565b60405180910390f35b6102a1600480360381019061029c91906131ab565b611f24565b005b6102bd60048036038101906102b891906131ab565b612039565b005b6102d960048036038101906102d491906133f5565b61210d565b6040516102e691906137e6565b60405180910390f35b6102f76121bf565b60405161030491906139b2565b60405180910390f35b610327600480360381019061032291906131ab565b6121e5565b6040516103349190613c20565b60405180910390f35b61034561229d565b6040516103529190613a1e565b60405180910390f35b61036361232f565b60405161037091906139cd565b60405180910390f35b610393600480360381019061038e91906132ee565b612355565b005b61039d6124d6565b6040516103aa919061397c565b60405180910390f35b6103cd60048036038101906103c8919061326b565b61253f565b005b6103e960048036038101906103e491906133f5565b6125a1565b6040516103f69190613a1e565b60405180910390f35b610419600480360381019061041491906133f5565b612648565b005b610435600480360381019061043091906131d8565b6126e2565b604051610442919061397c565b60405180910390f35b610465600480360381019061046091906131ab565b612776565b005b61046f61284a565b60405161047c9190613c20565b60405180910390f35b60007f80ac58cd000000000000000000000000000000000000000000000000000000007bffffffffffffffffffffffffffffffffffffffffffffffffffffffff1916827bffffffffffffffffffffffffffffffffffffffffffffffffffffffff1916148061055057507f5b5e139f000000000000000000000000000000000000000000000000000000007bffffffffffffffffffffffffffffffffffffffffffffffffffffffff1916827bffffffffffffffffffffffffffffffffffffffffffffffffffffffff1916145b80610560575061055f82612854565b5b9050919050565b6060600080546105769061405f565b80601f01602080910402602001604051908101604052809291908181526020018280546105a29061405f565b80156105ef5780601f106105c4576101008083540402835291602001916105ef565b820191906000526020600020905b8154815290600101906020018083116105d257829003601f168201915b5050505050905090565b6000610604826128be565b610643576040517f08c379a000000000000000000000000000000000000000000000000000000000815260040161063a90613b80565b60405180910390fd5b6004600083815260200190815260200160002060009054906101000a900473ffffffffffffffffffffffffffffffffffffffff169050919050565b60006106898261210d565b90508073ffffffffffffffffffffffffffffffffffffffff168373ffffffffffffffffffffffffffffffffffffffff1614156106fa576040517f08c379a00000000000000000000000000000000000000000000000000000000081526004016106f190613be0565b60405180910390fd5b8073ffffffffffffffffffffffffffffffffffffffff1661071961292a565b73ffffffffffffffffffffffffffffffffffffffff16148061074857506107478161074261292a565b6126e2565b5b610787576040517f08c379a000000000000000000000000000000000000000000000000000000000815260040161077e90613b20565b60405180910390fd5b6107918383612932565b505050565b600030905090565b60095481146107e2576040517f08c379a00000000000000000000000000000000000000000000000000000000081526004016107d990613ae0565b60405180910390fd5b6000600e60009054906101000a900473ffffffffffffffffffffffffffffffffffffffff1673ffffffffffffffffffffffffffffffffffffffff1663dd62ed3e33306040518363ffffffff1660e01b8152600401610841929190613801565b60206040518083038186803b15801561085957600080fd5b505afa15801561086d573d6000803e3d6000fd5b505050506040513d601f19601f820116820180604052508101906108919190613422565b9050818110156108d6576040517f08c379a00000000000000000000000000000000000000000000000000000000081526004016108cd90613a40565b60405180910390fd5b600e60009054906101000a900473ffffffffffffffffffffffffffffffffffffffff1673ffffffffffffffffffffffffffffffffffffffff166323b872dd33600860009054906101000a900473ffffffffffffffffffffffffffffffffffffffff16856040518463ffffffff1660e01b81526004016109579392919061382a565b602060405180830381600087803b15801561097157600080fd5b505af1158015610985573d6000803e3d6000fd5b505050506040513d601f19601f820116820180604052508101906109a9919061336e565b506000806000600667ffffffffffffffff8111156109ca576109c96141f8565b5b6040519080825280602002602001820160405280156109f85781602001602082028036833780820191505090505b509050601060009054906101000a900473ffffffffffffffffffffffffffffffffffffffff1673ffffffffffffffffffffffffffffffffffffffff1663a8de071e33603280601060009054906101000a900473ffffffffffffffffffffffffffffffffffffffff1673ffffffffffffffffffffffffffffffffffffffff1663c948338360016040518263ffffffff1660e01b8152600401610a9991906139e8565b60206040518083038186803b158015610ab157600080fd5b505afa158015610ac5573d6000803e3d6000fd5b505050506040513d601f19601f82011682018060405250810190610ae99190613422565b6040518563ffffffff1660e01b8152600401610b089493929190613937565b60206040518083038186803b158015610b2057600080fd5b505afa158015610b34573d6000803e3d6000fd5b505050506040513d601f19601f82011682018060405250810190610b589190613422565b9250601060009054906101000a900473ffffffffffffffffffffffffffffffffffffffff1673ffffffffffffffffffffffffffffffffffffffff1663a8de071e3360326000601060009054906101000a900473ffffffffffffffffffffffffffffffffffffffff1673ffffffffffffffffffffffffffffffffffffffff1663c948338360026040518263ffffffff1660e01b8152600401610bf99190613a03565b60206040518083038186803b158015610c1157600080fd5b505afa158015610c25573d6000803e3d6000fd5b505050506040513d601f19601f82011682018060405250810190610c499190613422565b6040518563ffffffff1660e01b8152600401610c6894939291906138f2565b60206040518083038186803b158015610c8057600080fd5b505afa158015610c94573d6000803e3d6000fd5b505050506040513d601f19601f82011682018060405250810190610cb89190613422565b91506000601060009054906101000a900473ffffffffffffffffffffffffffffffffffffffff1673ffffffffffffffffffffffffffffffffffffffff16637a560b2285853360016040518563ffffffff1660e01b8152600401610d1e9493929190613c3b565b602060405180830381600087803b158015610d3857600080fd5b505af1158015610d4c573d6000803e3d6000fd5b505050506040513d601f19601f82011682018060405250810190610d709190613422565b90508082600081518110610d8757610d866141c9565b5b602002602001018181525050601060009054906101000a900473ffffffffffffffffffffffffffffffffffffffff1673ffffffffffffffffffffffffffffffffffffffff1663a8de071e33603280601060009054906101000a900473ffffffffffffffffffffffffffffffffffffffff1673ffffffffffffffffffffffffffffffffffffffff1663c948338360016040518263ffffffff1660e01b8152600401610e3191906139e8565b60206040518083038186803b158015610e4957600080fd5b505afa158015610e5d573d6000803e3d6000fd5b505050506040513d601f19601f82011682018060405250810190610e819190613422565b6040518563ffffffff1660e01b8152600401610ea09493929190613937565b60206040518083038186803b158015610eb857600080fd5b505afa158015610ecc573d6000803e3d6000fd5b505050506040513d601f19601f82011682018060405250810190610ef09190613422565b9350601060009054906101000a900473ffffffffffffffffffffffffffffffffffffffff1673ffffffffffffffffffffffffffffffffffffffff1663a8de071e3360326000601060009054906101000a900473ffffffffffffffffffffffffffffffffffffffff1673ffffffffffffffffffffffffffffffffffffffff1663c948338360026040518263ffffffff1660e01b8152600401610f919190613a03565b60206040518083038186803b158015610fa957600080fd5b505afa158015610fbd573d6000803e3d6000fd5b505050506040513d601f19601f82011682018060405250810190610fe19190613422565b6040518563ffffffff1660e01b815260040161100094939291906138f2565b60206040518083038186803b15801561101857600080fd5b505afa15801561102c573d6000803e3d6000fd5b505050506040513d601f19601f820116820180604052508101906110509190613422565b92506000601060009054906101000a900473ffffffffffffffffffffffffffffffffffffffff1673ffffffffffffffffffffffffffffffffffffffff16637a560b2286863360016040518563ffffffff1660e01b81526004016110b69493929190613c3b565b602060405180830381600087803b1580156110d057600080fd5b505af11580156110e4573d6000803e3d6000fd5b505050506040513d601f19601f820116820180604052508101906111089190613422565b9050808360018151811061111f5761111e6141c9565b5b602002602001018181525050601060009054906101000a900473ffffffffffffffffffffffffffffffffffffffff1673ffffffffffffffffffffffffffffffffffffffff1663a8de071e33603280601060009054906101000a900473ffffffffffffffffffffffffffffffffffffffff1673ffffffffffffffffffffffffffffffffffffffff1663c948338360016040518263ffffffff1660e01b81526004016111c991906139e8565b60206040518083038186803b1580156111e157600080fd5b505afa1580156111f5573d6000803e3d6000fd5b505050506040513d601f19601f820116820180604052508101906112199190613422565b6040518563ffffffff1660e01b81526004016112389493929190613937565b60206040518083038186803b15801561125057600080fd5b505afa158015611264573d6000803e3d6000fd5b505050506040513d601f19601f820116820180604052508101906112889190613422565b9450601060009054906101000a900473ffffffffffffffffffffffffffffffffffffffff1673ffffffffffffffffffffffffffffffffffffffff1663a8de071e3360326000601060009054906101000a900473ffffffffffffffffffffffffffffffffffffffff1673ffffffffffffffffffffffffffffffffffffffff1663c948338360026040518263ffffffff1660e01b81526004016113299190613a03565b60206040518083038186803b15801561134157600080fd5b505afa158015611355573d6000803e3d6000fd5b505050506040513d601f19601f820116820180604052508101906113799190613422565b6040518563ffffffff1660e01b815260040161139894939291906138f2565b60206040518083038186803b1580156113b057600080fd5b505afa1580156113c4573d6000803e3d6000fd5b505050506040513d601f19601f820116820180604052508101906113e89190613422565b93506000601060009054906101000a900473ffffffffffffffffffffffffffffffffffffffff1673ffffffffffffffffffffffffffffffffffffffff16637a560b2287873360016040518563ffffffff1660e01b815260040161144e9493929190613c3b565b602060405180830381600087803b15801561146857600080fd5b505af115801561147c573d6000803e3d6000fd5b505050506040513d601f19601f820116820180604052508101906114a09190613422565b905080846002815181106114b7576114b66141c9565b5b602002602001018181525050601060009054906101000a900473ffffffffffffffffffffffffffffffffffffffff1673ffffffffffffffffffffffffffffffffffffffff1663a8de071e3360326000601060009054906101000a900473ffffffffffffffffffffffffffffffffffffffff1673ffffffffffffffffffffffffffffffffffffffff1663c948338360016040518263ffffffff1660e01b815260040161156291906139e8565b60206040518083038186803b15801561157a57600080fd5b505afa15801561158e573d6000803e3d6000fd5b505050506040513d601f19601f820116820180604052508101906115b29190613422565b6040518563ffffffff1660e01b81526004016115d194939291906138f2565b60206040518083038186803b1580156115e957600080fd5b505afa1580156115fd573d6000803e3d6000fd5b505050506040513d601f19601f820116820180604052508101906116219190613422565b9550601060009054906101000a900473ffffffffffffffffffffffffffffffffffffffff1673ffffffffffffffffffffffffffffffffffffffff1663a8de071e33603280601060009054906101000a900473ffffffffffffffffffffffffffffffffffffffff1673ffffffffffffffffffffffffffffffffffffffff1663c948338360026040518263ffffffff1660e01b81526004016116c19190613a03565b60206040518083038186803b1580156116d957600080fd5b505afa1580156116ed573d6000803e3d6000fd5b505050506040513d601f19601f820116820180604052508101906117119190613422565b6040518563ffffffff1660e01b81526004016117309493929190613937565b60206040518083038186803b15801561174857600080fd5b505afa15801561175c573d6000803e3d6000fd5b505050506040513d601f19601f820116820180604052508101906117809190613422565b94506000601060009054906101000a900473ffffffffffffffffffffffffffffffffffffffff1673ffffffffffffffffffffffffffffffffffffffff16637a560b2288883360026040518563ffffffff1660e01b81526004016117e69493929190613c80565b602060405180830381600087803b15801561180057600080fd5b505af1158015611814573d6000803e3d6000fd5b505050506040513d601f19601f820116820180604052508101906118389190613422565b9050808560038151811061184f5761184e6141c9565b5b602002602001018181525050601060009054906101000a900473ffffffffffffffffffffffffffffffffffffffff1673ffffffffffffffffffffffffffffffffffffffff1663a8de071e3360326000601060009054906101000a900473ffffffffffffffffffffffffffffffffffffffff1673ffffffffffffffffffffffffffffffffffffffff1663c948338360016040518263ffffffff1660e01b81526004016118fa91906139e8565b60206040518083038186803b15801561191257600080fd5b505afa158015611926573d6000803e3d6000fd5b505050506040513d601f19601f8201168201806040525081019061194a9190613422565b6040518563ffffffff1660e01b815260040161196994939291906138f2565b60206040518083038186803b15801561198157600080fd5b505afa158015611995573d6000803e3d6000fd5b505050506040513d601f19601f820116820180604052508101906119b99190613422565b9650601060009054906101000a900473ffffffffffffffffffffffffffffffffffffffff1673ffffffffffffffffffffffffffffffffffffffff1663a8de071e33603280601060009054906101000a900473ffffffffffffffffffffffffffffffffffffffff1673ffffffffffffffffffffffffffffffffffffffff1663c948338360026040518263ffffffff1660e01b8152600401611a599190613a03565b60206040518083038186803b158015611a7157600080fd5b505afa158015611a85573d6000803e3d6000fd5b505050506040513d601f19601f82011682018060405250810190611aa99190613422565b6040518563ffffffff1660e01b8152600401611ac89493929190613937565b60206040518083038186803b158015611ae057600080fd5b505afa158015611af4573d6000803e3d6000fd5b505050506040513d601f19601f82011682018060405250810190611b189190613422565b95506000601060009054906101000a900473ffffffffffffffffffffffffffffffffffffffff1673ffffffffffffffffffffffffffffffffffffffff16637a560b2289893360026040518563ffffffff1660e01b8152600401611b7e9493929190613c80565b602060405180830381600087803b158015611b9857600080fd5b505af1158015611bac573d6000803e3d6000fd5b505050506040513d601f19601f82011682018060405250810190611bd09190613422565b90508086600481518110611be757611be66141c9565b5b60200260200101818152505060009750601060009054906101000a900473ffffffffffffffffffffffffffffffffffffffff1673ffffffffffffffffffffffffffffffffffffffff1663a8de071e336019604b601060009054906101000a900473ffffffffffffffffffffffffffffffffffffffff1673ffffffffffffffffffffffffffffffffffffffff1663c948338360026040518263ffffffff1660e01b8152600401611c969190613a03565b60206040518083038186803b158015611cae57600080fd5b505afa158015611cc2573d6000803e3d6000fd5b505050506040513d601f19601f82011682018060405250810190611ce69190613422565b6040518563ffffffff1660e01b8152600401611d0594939291906138ad565b60206040518083038186803b158015611d1d57600080fd5b505afa158015611d31573d6000803e3d6000fd5b505050506040513d601f19601f82011682018060405250810190611d559190613422565b96506000601060009054906101000a900473ffffffffffffffffffffffffffffffffffffffff1673ffffffffffffffffffffffffffffffffffffffff16637a560b228a8a3360036040518563ffffffff1660e01b8152600401611dbb9493929190613cc5565b602060405180830381600087803b158015611dd557600080fd5b505af1158015611de9573d6000803e3d6000fd5b505050506040513d601f19601f82011682018060405250810190611e0d9190613422565b90508087600581518110611e2457611e236141c9565b5b6020026020010181815250507f9ed001aacf9d72d9ee7634796fa0416c8d7cd51277a95b45af692f821ff32cf4868686868686604051611e6996959493929190613d0a565b60405180910390a15050505050505050505050565b611e8f611e8961292a565b826129eb565b611ece576040517f08c379a0000000000000000000000000000000000000000000000000000000008152600401611ec590613c00565b60405180910390fd5b611ed9838383612ac9565b505050565b611ef98383836040518060200160405280600081525061253f565b505050565b600e60009054906101000a900473ffffffffffffffffffffffffffffffffffffffff1681565b3373ffffffffffffffffffffffffffffffffffffffff16600660009054906101000a900473ffffffffffffffffffffffffffffffffffffffff1673ffffffffffffffffffffffffffffffffffffffff1614611fb4576040517f08c379a0000000000000000000000000000000000000000000000000000000008152600401611fab90613a80565b60405180910390fd5b80601060006101000a81548173ffffffffffffffffffffffffffffffffffffffff021916908373ffffffffffffffffffffffffffffffffffffffff16021790555080600860006101000a81548173ffffffffffffffffffffffffffffffffffffffff021916908373ffffffffffffffffffffffffffffffffffffffff16021790555050565b3373ffffffffffffffffffffffffffffffffffffffff16600660009054906101000a900473ffffffffffffffffffffffffffffffffffffffff1673ffffffffffffffffffffffffffffffffffffffff16146120c9576040517f08c379a00000000000000000000000000000000000000000000000000000000081526004016120c090613a80565b60405180910390fd5b80600e60006101000a81548173ffffffffffffffffffffffffffffffffffffffff021916908373ffffffffffffffffffffffffffffffffffffffff16021790555050565b6000806002600084815260200190815260200160002060009054906101000a900473ffffffffffffffffffffffffffffffffffffffff169050600073ffffffffffffffffffffffffffffffffffffffff168173ffffffffffffffffffffffffffffffffffffffff1614156121b6576040517f08c379a00000000000000000000000000000000000000000000000000000000081526004016121ad90613b60565b60405180910390fd5b80915050919050565b601060009054906101000a900473ffffffffffffffffffffffffffffffffffffffff1681565b60008073ffffffffffffffffffffffffffffffffffffffff168273ffffffffffffffffffffffffffffffffffffffff161415612256576040517f08c379a000000000000000000000000000000000000000000000000000000000815260040161224d90613b40565b60405180910390fd5b600360008373ffffffffffffffffffffffffffffffffffffffff1673ffffffffffffffffffffffffffffffffffffffff168152602001908152602001600020549050919050565b6060600180546122ac9061405f565b80601f01602080910402602001604051908101604052809291908181526020018280546122d89061405f565b80156123255780601f106122fa57610100808354040283529160200191612325565b820191906000526020600020905b81548152906001019060200180831161230857829003601f168201915b5050505050905090565b600f60009054906101000a900473ffffffffffffffffffffffffffffffffffffffff1681565b61235d61292a565b73ffffffffffffffffffffffffffffffffffffffff168273ffffffffffffffffffffffffffffffffffffffff1614156123cb576040517f08c379a00000000000000000000000000000000000000000000000000000000081526004016123c290613ac0565b60405180910390fd5b80600560006123d861292a565b73ffffffffffffffffffffffffffffffffffffffff1673ffffffffffffffffffffffffffffffffffffffff16815260200190815260200160002060008473ffffffffffffffffffffffffffffffffffffffff1673ffffffffffffffffffffffffffffffffffffffff16815260200190815260200160002060006101000a81548160ff0219169083151502179055508173ffffffffffffffffffffffffffffffffffffffff1661248561292a565b73ffffffffffffffffffffffffffffffffffffffff167f17307eab39ab6107e8899845ad3d59bd9653f200f220920489ca2b5937696c31836040516124ca919061397c565b60405180910390a35050565b60003373ffffffffffffffffffffffffffffffffffffffff16600660009054906101000a900473ffffffffffffffffffffffffffffffffffffffff1673ffffffffffffffffffffffffffffffffffffffff161415612537576001905061253c565b600090505b90565b61255061254a61292a565b836129eb565b61258f576040517f08c379a000000000000000000000000000000000000000000000000000000000815260040161258690613c00565b60405180910390fd5b61259b84848484612d25565b50505050565b60606125ac826128be565b6125eb576040517f08c379a00000000000000000000000000000000000000000000000000000000081526004016125e290613bc0565b60405180910390fd5b60006125f5612d81565b905060008151116126155760405180602001604052806000815250612640565b8061261f84612d98565b6040516020016126309291906137c2565b6040516020818303038152906040525b915050919050565b3373ffffffffffffffffffffffffffffffffffffffff16600660009054906101000a900473ffffffffffffffffffffffffffffffffffffffff1673ffffffffffffffffffffffffffffffffffffffff16146126d8576040517f08c379a00000000000000000000000000000000000000000000000000000000081526004016126cf90613a80565b60405180910390fd5b8060098190555050565b6000600560008473ffffffffffffffffffffffffffffffffffffffff1673ffffffffffffffffffffffffffffffffffffffff16815260200190815260200160002060008373ffffffffffffffffffffffffffffffffffffffff1673ffffffffffffffffffffffffffffffffffffffff16815260200190815260200160002060009054906101000a900460ff16905092915050565b3373ffffffffffffffffffffffffffffffffffffffff16600660009054906101000a900473ffffffffffffffffffffffffffffffffffffffff1673ffffffffffffffffffffffffffffffffffffffff1614612806576040517f08c379a00000000000000000000000000000000000000000000000000000000081526004016127fd90613a80565b60405180910390fd5b80600f60006101000a81548173ffffffffffffffffffffffffffffffffffffffff021916908373ffffffffffffffffffffffffffffffffffffffff16021790555050565b6000600954905090565b60007f01ffc9a7000000000000000000000000000000000000000000000000000000007bffffffffffffffffffffffffffffffffffffffffffffffffffffffff1916827bffffffffffffffffffffffffffffffffffffffffffffffffffffffff1916149050919050565b60008073ffffffffffffffffffffffffffffffffffffffff166002600084815260200190815260200160002060009054906101000a900473ffffffffffffffffffffffffffffffffffffffff1673ffffffffffffffffffffffffffffffffffffffff1614159050919050565b600033905090565b816004600083815260200190815260200160002060006101000a81548173ffffffffffffffffffffffffffffffffffffffff021916908373ffffffffffffffffffffffffffffffffffffffff160217905550808273ffffffffffffffffffffffffffffffffffffffff166129a58361210d565b73ffffffffffffffffffffffffffffffffffffffff167f8c5be1e5ebec7d5bd14f71427d1e84f3dd0314c0f7b2291e5b200ac8c7c3b92560405160405180910390a45050565b60006129f6826128be565b612a35576040517f08c379a0000000000000000000000000000000000000000000000000000000008152600401612a2c90613b00565b60405180910390fd5b6000612a408361210d565b90508073ffffffffffffffffffffffffffffffffffffffff168473ffffffffffffffffffffffffffffffffffffffff161480612aaf57508373ffffffffffffffffffffffffffffffffffffffff16612a97846105f9565b73ffffffffffffffffffffffffffffffffffffffff16145b80612ac05750612abf81856126e2565b5b91505092915050565b8273ffffffffffffffffffffffffffffffffffffffff16612ae98261210d565b73ffffffffffffffffffffffffffffffffffffffff1614612b3f576040517f08c379a0000000000000000000000000000000000000000000000000000000008152600401612b3690613ba0565b60405180910390fd5b600073ffffffffffffffffffffffffffffffffffffffff168273ffffffffffffffffffffffffffffffffffffffff161415612baf576040517f08c379a0000000000000000000000000000000000000000000000000000000008152600401612ba690613aa0565b60405180910390fd5b612bba838383612ef9565b612bc5600082612932565b6001600360008573ffffffffffffffffffffffffffffffffffffffff1673ffffffffffffffffffffffffffffffffffffffff1681526020019081526020016000206000828254612c159190613e8b565b925050819055506001600360008473ffffffffffffffffffffffffffffffffffffffff1673ffffffffffffffffffffffffffffffffffffffff1681526020019081526020016000206000828254612c6c9190613e04565b92505081905550816002600083815260200190815260200160002060006101000a81548173ffffffffffffffffffffffffffffffffffffffff021916908373ffffffffffffffffffffffffffffffffffffffff160217905550808273ffffffffffffffffffffffffffffffffffffffff168473ffffffffffffffffffffffffffffffffffffffff167fddf252ad1be2c89b69c2b068fc378daa952ba7f163c4a11628f55a4df523b3ef60405160405180910390a4505050565b612d30848484612ac9565b612d3c84848484612efe565b612d7b576040517f08c379a0000000000000000000000000000000000000000000000000000000008152600401612d7290613a60565b60405180910390fd5b50505050565b606060405180602001604052806000815250905090565b60606000821415612de0576040518060400160405280600181526020017f30000000000000000000000000000000000000000000000000000000000000008152509050612ef4565b600082905060005b60008214612e12578080612dfb906140c2565b915050600a82612e0b9190613e5a565b9150612de8565b60008167ffffffffffffffff811115612e2e57612e2d6141f8565b5b6040519080825280601f01601f191660200182016040528015612e605781602001600182028036833780820191505090505b5090505b60008514612eed57600182612e799190613e8b565b9150600a85612e88919061410b565b6030612e949190613e04565b60f81b818381518110612eaa57612ea96141c9565b5b60200101907effffffffffffffffffffffffffffffffffffffffffffffffffffffffffffff1916908160001a905350600a85612ee69190613e5a565b9450612e64565b8093505050505b919050565b505050565b6000612f1f8473ffffffffffffffffffffffffffffffffffffffff16613095565b15613088578373ffffffffffffffffffffffffffffffffffffffff1663150b7a02612f4861292a565b8786866040518563ffffffff1660e01b8152600401612f6a9493929190613861565b602060405180830381600087803b158015612f8457600080fd5b505af1925050508015612fb557506040513d601f19601f82011682018060405250810190612fb291906133c8565b60015b613038573d8060008114612fe5576040519150601f19603f3d011682016040523d82523d6000602084013e612fea565b606091505b50600081511415613030576040517f08c379a000000000000000000000000000000000000000000000000000000000815260040161302790613a60565b60405180910390fd5b805181602001fd5b63150b7a0260e01b7bffffffffffffffffffffffffffffffffffffffffffffffffffffffff1916817bffffffffffffffffffffffffffffffffffffffffffffffffffffffff19161491505061308d565b600190505b949350505050565b600080823b905060008111915050919050565b60006130bb6130b684613d90565b613d6b565b9050828152602081018484840111156130d7576130d661422c565b5b6130e284828561401d565b509392505050565b6000813590506130f981614655565b92915050565b60008135905061310e8161466c565b92915050565b6000815190506131238161466c565b92915050565b60008135905061313881614683565b92915050565b60008151905061314d81614683565b92915050565b600082601f83011261316857613167614227565b5b81356131788482602086016130a8565b91505092915050565b6000813590506131908161469a565b92915050565b6000815190506131a58161469a565b92915050565b6000602082840312156131c1576131c0614236565b5b60006131cf848285016130ea565b91505092915050565b600080604083850312156131ef576131ee614236565b5b60006131fd858286016130ea565b925050602061320e858286016130ea565b9150509250929050565b60008060006060848603121561323157613230614236565b5b600061323f868287016130ea565b9350506020613250868287016130ea565b925050604061326186828701613181565b9150509250925092565b6000806000806080858703121561328557613284614236565b5b6000613293878288016130ea565b94505060206132a4878288016130ea565b93505060406132b587828801613181565b925050606085013567ffffffffffffffff8111156132d6576132d5614231565b5b6132e287828801613153565b91505092959194509250565b6000806040838503121561330557613304614236565b5b6000613313858286016130ea565b9250506020613324858286016130ff565b9150509250929050565b6000806040838503121561334557613344614236565b5b6000613353858286016130ea565b925050602061336485828601613181565b9150509250929050565b60006020828403121561338457613383614236565b5b600061339284828501613114565b91505092915050565b6000602082840312156133b1576133b0614236565b5b60006133bf84828501613129565b91505092915050565b6000602082840312156133de576133dd614236565b5b60006133ec8482850161313e565b91505092915050565b60006020828403121561340b5761340a614236565b5b600061341984828501613181565b91505092915050565b60006020828403121561343857613437614236565b5b600061344684828501613196565b91505092915050565b61345881613ebf565b82525050565b61346781613ed1565b82525050565b600061347882613dc1565b6134828185613dd7565b935061349281856020860161402c565b61349b8161423b565b840191505092915050565b6134af81613f33565b82525050565b6134be81613f57565b82525050565b6134cd81613f7b565b82525050565b6134dc81613f9f565b82525050565b6134eb81613fb1565b82525050565b6134fa81613fc3565b82525050565b61350981613fd5565b82525050565b61351881613fe7565b82525050565b61352781613ff9565b82525050565b6135368161400b565b82525050565b600061354782613dcc565b6135518185613de8565b935061356181856020860161402c565b61356a8161423b565b840191505092915050565b600061358082613dcc565b61358a8185613df9565b935061359a81856020860161402c565b80840191505092915050565b60006135b3600283613de8565b91506135be8261424c565b602082019050919050565b60006135d6603283613de8565b91506135e182614275565b604082019050919050565b60006135f9600283613de8565b9150613604826142c4565b602082019050919050565b600061361c602483613de8565b9150613627826142ed565b604082019050919050565b600061363f601983613de8565b915061364a8261433c565b602082019050919050565b6000613662600283613de8565b915061366d82614365565b602082019050919050565b6000613685602c83613de8565b91506136908261438e565b604082019050919050565b60006136a8603883613de8565b91506136b3826143dd565b604082019050919050565b60006136cb602a83613de8565b91506136d68261442c565b604082019050919050565b60006136ee602983613de8565b91506136f98261447b565b604082019050919050565b6000613711602c83613de8565b915061371c826144ca565b604082019050919050565b6000613734602983613de8565b915061373f82614519565b604082019050919050565b6000613757602f83613de8565b915061376282614568565b604082019050919050565b600061377a602183613de8565b9150613785826145b7565b604082019050919050565b600061379d603183613de8565b91506137a882614606565b604082019050919050565b6137bc81613f29565b82525050565b60006137ce8285613575565b91506137da8284613575565b91508190509392505050565b60006020820190506137fb600083018461344f565b92915050565b6000604082019050613816600083018561344f565b613823602083018461344f565b9392505050565b600060608201905061383f600083018661344f565b61384c602083018561344f565b61385960408301846137b3565b949350505050565b6000608082019050613876600083018761344f565b613883602083018661344f565b61389060408301856137b3565b81810360608301526138a2818461346d565b905095945050505050565b60006080820190506138c2600083018761344f565b6138cf60208301866134f1565b6138dc604083018561352d565b6138e960608301846137b3565b95945050505050565b6000608082019050613907600083018761344f565b613914602083018661351e565b61392160408301856134d3565b61392e60608301846137b3565b95945050505050565b600060808201905061394c600083018761344f565b613959602083018661351e565b613966604083018561351e565b61397360608301846137b3565b95945050505050565b6000602082019050613991600083018461345e565b92915050565b60006020820190506139ac60008301846134a6565b92915050565b60006020820190506139c760008301846134b5565b92915050565b60006020820190506139e260008301846134c4565b92915050565b60006020820190506139fd60008301846134e2565b92915050565b6000602082019050613a186000830184613500565b92915050565b60006020820190508181036000830152613a38818461353c565b905092915050565b60006020820190508181036000830152613a59816135a6565b9050919050565b60006020820190508181036000830152613a79816135c9565b9050919050565b60006020820190508181036000830152613a99816135ec565b9050919050565b60006020820190508181036000830152613ab98161360f565b9050919050565b60006020820190508181036000830152613ad981613632565b9050919050565b60006020820190508181036000830152613af981613655565b9050919050565b60006020820190508181036000830152613b1981613678565b9050919050565b60006020820190508181036000830152613b398161369b565b9050919050565b60006020820190508181036000830152613b59816136be565b9050919050565b60006020820190508181036000830152613b79816136e1565b9050919050565b60006020820190508181036000830152613b9981613704565b9050919050565b60006020820190508181036000830152613bb981613727565b9050919050565b60006020820190508181036000830152613bd98161374a565b9050919050565b60006020820190508181036000830152613bf98161376d565b9050919050565b60006020820190508181036000830152613c1981613790565b9050919050565b6000602082019050613c3560008301846137b3565b92915050565b6000608082019050613c5060008301876137b3565b613c5d60208301866137b3565b613c6a604083018561344f565b613c7760608301846134e2565b95945050505050565b6000608082019050613c9560008301876137b3565b613ca260208301866137b3565b613caf604083018561344f565b613cbc6060830184613500565b95945050505050565b6000608082019050613cda60008301876137b3565b613ce760208301866137b3565b613cf4604083018561344f565b613d01606083018461350f565b95945050505050565b600060c082019050613d1f60008301896137b3565b613d2c60208301886137b3565b613d3960408301876137b3565b613d4660608301866137b3565b613d5360808301856137b3565b613d6060a08301846137b3565b979650505050505050565b6000613d75613d86565b9050613d818282614091565b919050565b6000604051905090565b600067ffffffffffffffff821115613dab57613daa6141f8565b5b613db48261423b565b9050602081019050919050565b600081519050919050565b600081519050919050565b600082825260208201905092915050565b600082825260208201905092915050565b600081905092915050565b6000613e0f82613f29565b9150613e1a83613f29565b9250827fffffffffffffffffffffffffffffffffffffffffffffffffffffffffffffffff03821115613e4f57613e4e61413c565b5b828201905092915050565b6000613e6582613f29565b9150613e7083613f29565b925082613e8057613e7f61416b565b5b828204905092915050565b6000613e9682613f29565b9150613ea183613f29565b925082821015613eb457613eb361413c565b5b828203905092915050565b6000613eca82613f09565b9050919050565b60008115159050919050565b60007fffffffff0000000000000000000000000000000000000000000000000000000082169050919050565b600073ffffffffffffffffffffffffffffffffffffffff82169050919050565b6000819050919050565b6000613f3e82613f45565b9050919050565b6000613f5082613f09565b9050919050565b6000613f6282613f69565b9050919050565b6000613f7482613f09565b9050919050565b6000613f8682613f8d565b9050919050565b6000613f9882613f09565b9050919050565b6000613faa82613f29565b9050919050565b6000613fbc82613f29565b9050919050565b6000613fce82613f29565b9050919050565b6000613fe082613f29565b9050919050565b6000613ff282613f29565b9050919050565b600061400482613f29565b9050919050565b600061401682613f29565b9050919050565b82818337600083830152505050565b60005b8381101561404a57808201518184015260208101905061402f565b83811115614059576000848401525b50505050565b6000600282049050600182168061407757607f821691505b6020821081141561408b5761408a61419a565b5b50919050565b61409a8261423b565b810181811067ffffffffffffffff821117156140b9576140b86141f8565b5b80604052505050565b60006140cd82613f29565b91507fffffffffffffffffffffffffffffffffffffffffffffffffffffffffffffffff821415614100576140ff61413c565b5b600182019050919050565b600061411682613f29565b915061412183613f29565b9250826141315761413061416b565b5b828206905092915050565b7f4e487b7100000000000000000000000000000000000000000000000000000000600052601160045260246000fd5b7f4e487b7100000000000000000000000000000000000000000000000000000000600052601260045260246000fd5b7f4e487b7100000000000000000000000000000000000000000000000000000000600052602260045260246000fd5b7f4e487b7100000000000000000000000000000000000000000000000000000000600052603260045260246000fd5b7f4e487b7100000000000000000000000000000000000000000000000000000000600052604160045260246000fd5b600080fd5b600080fd5b600080fd5b600080fd5b6000601f19601f8301169050919050565b7f4231000000000000000000000000000000000000000000000000000000000000600082015250565b7f4552433732313a207472616e7366657220746f206e6f6e20455243373231526560008201527f63656976657220696d706c656d656e7465720000000000000000000000000000602082015250565b7f4131000000000000000000000000000000000000000000000000000000000000600082015250565b7f4552433732313a207472616e7366657220746f20746865207a65726f2061646460008201527f7265737300000000000000000000000000000000000000000000000000000000602082015250565b7f4552433732313a20617070726f766520746f2063616c6c657200000000000000600082015250565b7f5631000000000000000000000000000000000000000000000000000000000000600082015250565b7f4552433732313a206f70657261746f7220717565727920666f72206e6f6e657860008201527f697374656e7420746f6b656e0000000000000000000000000000000000000000602082015250565b7f4552433732313a20617070726f76652063616c6c6572206973206e6f74206f7760008201527f6e6572206e6f7220617070726f76656420666f7220616c6c0000000000000000602082015250565b7f4552433732313a2062616c616e636520717565727920666f7220746865207a6560008201527f726f206164647265737300000000000000000000000000000000000000000000602082015250565b7f4552433732313a206f776e657220717565727920666f72206e6f6e657869737460008201527f656e7420746f6b656e0000000000000000000000000000000000000000000000602082015250565b7f4552433732313a20617070726f76656420717565727920666f72206e6f6e657860008201527f697374656e7420746f6b656e0000000000000000000000000000000000000000602082015250565b7f4552433732313a207472616e73666572206f6620746f6b656e2074686174206960008201527f73206e6f74206f776e0000000000000000000000000000000000000000000000602082015250565b7f4552433732314d657461646174613a2055524920717565727920666f72206e6f60008201527f6e6578697374656e7420746f6b656e0000000000000000000000000000000000602082015250565b7f4552433732313a20617070726f76616c20746f2063757272656e74206f776e6560008201527f7200000000000000000000000000000000000000000000000000000000000000602082015250565b7f4552433732313a207472616e736665722063616c6c6572206973206e6f74206f60008201527f776e6572206e6f7220617070726f766564000000000000000000000000000000602082015250565b61465e81613ebf565b811461466957600080fd5b50565b61467581613ed1565b811461468057600080fd5b50565b61468c81613edd565b811461469757600080fd5b50565b6146a381613f29565b81146146ae57600080fd5b5056fea2646970667358221220c3e3aec88d4a9c82837477cec1b76ecea82f06b15d8f738c423f886601527c9064736f6c63430008060033",
  "immutableReferences": {},
  "source": "// SPDX-License-Identifier: MIT\r\npragma solidity >=0.4.22 <0.9.0;\r\n\r\nimport \"../node_modules/@openzeppelin/contracts/token/ERC721/ERC721.sol\";\r\n//import \"../node_modules/@openzeppelin/contracts/token/ERC721/IERC721.sol\";\r\nimport \"../node_modules/@openzeppelin/contracts/token/ERC20/IERC20.sol\";\r\n// import \"../node_modules/@openzeppelin/contracts/access/Ownable.sol\";\r\n// import \"../node_modules/@openzeppelin/contracts/security/ReentrancyGuard.sol\";\r\n//import \"../node_modules/@openzeppelin/contracts/token/ERC1155/IERC1155.sol\";\r\nimport \"../contracts/PBPlayers.sol\";\r\nimport \"../contracts/PBXP.sol\";\r\n\r\ncontract PBTeams is ERC721 {\r\n\r\n    address admin;\r\n    address pbxpAddress;\r\n    address pbPlayersAddress;\r\n    uint teamMintCost;\r\n    uint dnaModulus = 10 ** 16;\r\n    uint playersPerTeam = 6;\r\n    uint bellCurveIterations = 4;\r\n    uint PBXPtokenId = 0;\r\n  \r\n    IERC20 public buddies;\r\n    PBXP public PBXPToken;\r\n    PBPlayers public pbPlayers;\r\n    \r\n\r\n\r\nevent sixPackPlayer(uint p1,\r\n                    uint p2,\r\n                    uint p3,\r\n                    uint p4,\r\n                    uint p5,\r\n                    uint p6);\r\n\r\n// struct Team{\r\n//     uint teamId;\r\n//     uint teamDna;\r\n//     uint teamTotalOP;\r\n//     uint teamTotalDP;\r\n//     uint activeTimestamp1;\r\n//     uint activeTimestamp2;\r\n//     uint activeTimestamp3;\r\n//     bool lastMatchWon1;\r\n//     bool lastMatchWon2;\r\n//     bool lastMatchWon3;\r\n//     address ownerAddress;\r\n\r\n// }\r\n\r\n// uint nextId = 0;\r\n\r\n// mapping (uint => Team) public _tokenDetails;\r\n\r\n\r\nconstructor(uint _teamMintCost, address _buddiesCoinAddress, address _pbxpAddress, address _pbPlayersAddress) ERC721(\"Puck Buddies Team\", \"PBT\"){\r\n    admin = msg.sender;\r\n    teamMintCost = _teamMintCost;\r\n    buddies = IERC20(_buddiesCoinAddress);\r\n    PBXPToken = PBXP(_pbxpAddress);\r\n    pbPlayers = PBPlayers(_pbPlayersAddress); \r\n    pbPlayersAddress = _pbPlayersAddress;\r\n}\r\n\r\nmodifier onlyAdmin() {\r\n        require(admin == msg.sender, \"A1\" );\r\n        _;\r\n}\r\n\r\nfunction isAdmin() public view returns (bool){\r\n        if(admin == msg.sender){\r\n            return true;\r\n        } else return false;\r\n}\r\n\r\nfunction getPBTeamsAddress() public view returns (address){\r\n    return address(this);\r\n}\r\n\r\nfunction getTeamMintCost() public view returns (uint){\r\n    return teamMintCost;\r\n}\r\n\r\n// function getTeamsCount() public view onlyAdmin returns(uint){\r\n//     return nextId;\r\n// }\r\n\r\nfunction updateBuddiesCoinAddress(address _buddiesCoinAddress) external onlyAdmin {\r\n        buddies = IERC20(_buddiesCoinAddress);\r\n}\r\n\r\nfunction updatePbxpAddress(address _pbxpAddress) external onlyAdmin{\r\n        PBXPToken = PBXP(_pbxpAddress);\r\n} \r\n\r\nfunction updatePuckBuddiePlayersAddress(address _pbPlayersAddress) external onlyAdmin{\r\n        pbPlayers = PBPlayers(_pbPlayersAddress);\r\n        pbPlayersAddress = _pbPlayersAddress;        \r\n} \r\n\r\n// function updatePBMatchupValidationAddress(address _pbMatchupValidationAddress) external onlyAdmin {\r\n//         pbMatchupValidation = PBMatchupValidation(_pbMatchupValidationAddress);\r\n// }\r\n\r\nfunction updateTeamMintCost(uint _teamMintCost) public onlyAdmin {\r\n    teamMintCost = _teamMintCost;\r\n}\r\n\r\n// function getTokenDetails(uint tokenId) public view returns (Team memory){\r\n//         return _tokenDetails[tokenId];\r\n// }\r\n\r\n// function getAllTokensForUser(address user) public view returns (uint256[] memory){\r\n//         uint256 tokenCount = balanceOf(user);\r\n//         if(tokenCount == 0){\r\n//             return new uint256[](0);\r\n//         }\r\n//         else{\r\n//             uint[] memory result = new uint256[](tokenCount);\r\n//             uint256 totalTeams = nextId;\r\n//             uint256 resultIndex = 0;\r\n//             uint256 i;\r\n//             for(i = 0; i < totalTeams; i++){\r\n//                 if(ownerOf(i) == user){\r\n//                     result[resultIndex] = i;\r\n//                     resultIndex++;\r\n//                 }\r\n//             }\r\n//             return result;\r\n//         }\r\n//     }\r\n\r\nfunction _generateRandDna () private view returns (uint){\r\n        uint rand = uint(keccak256(abi.encodePacked(block.timestamp, block.difficulty, msg.sender)));\r\n        return rand % dnaModulus;\r\n}\r\n\r\nfunction mintSixPack(uint value) external {\r\n    require(value == teamMintCost, \"V1\");\r\n    uint allowance = buddies.allowance(msg.sender, address(this));\r\n    require(allowance >= value, \"B1\");\r\n    buddies.transferFrom(msg.sender, pbPlayersAddress, value);\r\n    uint randOp;\r\n    uint randDp;\r\n    uint[] memory result = new uint[](6);\r\n    randOp = pbPlayers._generateRandAtrrib(msg.sender, 50, 50, pbPlayers._randHelper(1));\r\n    randDp = pbPlayers._generateRandAtrrib(msg.sender, 50, 0, pbPlayers._randHelper(2));\r\n    uint p1 = pbPlayers.mintSixPackPlayer(randOp,randDp, msg.sender,1); //Offence 1\r\n    result[0] = p1;\r\n\r\n    randOp = pbPlayers._generateRandAtrrib(msg.sender, 50, 50, pbPlayers._randHelper(1));\r\n    randDp = pbPlayers._generateRandAtrrib(msg.sender, 50, 0, pbPlayers._randHelper(2));\r\n    uint p2 = pbPlayers.mintSixPackPlayer(randOp,randDp,msg.sender,1); //Offence 2\r\n    result[1] = p2;\r\n\r\n    randOp = pbPlayers._generateRandAtrrib(msg.sender, 50, 50, pbPlayers._randHelper(1));\r\n    randDp = pbPlayers._generateRandAtrrib(msg.sender, 50, 0, pbPlayers._randHelper(2));\r\n    uint p3 = pbPlayers.mintSixPackPlayer(randOp,randDp,msg.sender,1); //Offence 3\r\n    result[2] = p3;\r\n\r\n    randOp = pbPlayers._generateRandAtrrib(msg.sender, 50, 0, pbPlayers._randHelper(1));\r\n    randDp = pbPlayers._generateRandAtrrib(msg.sender, 50, 50, pbPlayers._randHelper(2));\r\n    uint p4 = pbPlayers.mintSixPackPlayer(randOp,randDp,msg.sender,2); //Defence 1\r\n    result[3] = p4;\r\n\r\n    randOp = pbPlayers._generateRandAtrrib(msg.sender, 50, 0, pbPlayers._randHelper(1));\r\n    randDp = pbPlayers._generateRandAtrrib(msg.sender, 50, 50, pbPlayers._randHelper(2));\r\n    uint p5 = pbPlayers.mintSixPackPlayer(randOp,randDp,msg.sender,2); //Defence 2\r\n    result[4] = p5;\r\n\r\n    randOp = 0;\r\n    randDp = pbPlayers._generateRandAtrrib(msg.sender, 25, 75, pbPlayers._randHelper(2));\r\n    uint p6 = pbPlayers.mintSixPackPlayer(randOp,randDp,msg.sender,3); //Goalie\r\n    result[5] = p6;\r\n\r\n     emit sixPackPlayer(p1, p2, p3, p4, p5, p6);\r\n}\r\n\r\n// function mintTeam(uint value) external {\r\n//     if(nextId == 0){\r\n//         require(msg.sender == admin, \"A0\");\r\n//     }\r\n//     require(balanceOf(msg.sender) < 1, \"T0\");\r\n//     uint allowance = buddies.allowance(msg.sender, address(this));\r\n//     require(allowance >= value, \"B1\");\r\n//     buddies.transferFrom(msg.sender, pbPlayersAddress, value);\r\n//     uint dna = _generateRandDna();\r\n//     uint randOp;\r\n//     uint randDp;\r\n//     uint totOp = 0;\r\n//     uint totDp = 0;\r\n//     //New Stuff\r\n//     randOp = pbPlayers._generateRandAtrrib(msg.sender, 50, 50, pbPlayers._randHelper(1));\r\n//     randDp = pbPlayers._generateRandAtrrib(msg.sender, 50, 0, pbPlayers._randHelper(2));\r\n//     totOp = totOp + randOp;\r\n//     totDp = totDp + randDp;\r\n//     pbPlayers.mintPlayerToTeam(randOp,randDp, msg.sender,1,nextId,dna,1); //Offence 1\r\n\r\n//     randOp = pbPlayers._generateRandAtrrib(msg.sender, 50, 50, pbPlayers._randHelper(1));\r\n//     randDp = pbPlayers._generateRandAtrrib(msg.sender, 50, 0, pbPlayers._randHelper(2));\r\n//     totOp = totOp + randOp;\r\n//     totDp = totDp + randDp;\r\n//     pbPlayers.mintPlayerToTeam(randOp,randDp,msg.sender,1,nextId,dna,2); //Offence 2\r\n\r\n//     randOp = pbPlayers._generateRandAtrrib(msg.sender, 50, 50, pbPlayers._randHelper(1));\r\n//     randDp = pbPlayers._generateRandAtrrib(msg.sender, 50, 0, pbPlayers._randHelper(2));\r\n//     totOp = totOp + randOp;\r\n//     totDp = totDp + randDp;\r\n//     pbPlayers.mintPlayerToTeam(randOp,randDp,msg.sender,1,nextId,dna,3); //Offence 3\r\n\r\n//     randOp = pbPlayers._generateRandAtrrib(msg.sender, 50, 0, pbPlayers._randHelper(1));\r\n//     randDp = pbPlayers._generateRandAtrrib(msg.sender, 50, 50, pbPlayers._randHelper(2));\r\n//     totOp = totOp + randOp;\r\n//     totDp = totDp + randDp;\r\n//     pbPlayers.mintPlayerToTeam(randOp,randDp,msg.sender,2,nextId,dna,4); //Defence 1\r\n\r\n//     randOp = pbPlayers._generateRandAtrrib(msg.sender, 50, 0, pbPlayers._randHelper(1));\r\n//     randDp = pbPlayers._generateRandAtrrib(msg.sender, 50, 50, pbPlayers._randHelper(2));\r\n//     totOp = totOp + randOp;\r\n//     totDp = totDp + randDp;\r\n//     pbPlayers.mintPlayerToTeam(randOp,randDp,msg.sender,2,nextId,dna,5); //Defence 2\r\n\r\n//     randOp = 0;\r\n//     randDp = pbPlayers._generateRandAtrrib(msg.sender, 25, 75, pbPlayers._randHelper(2));\r\n//     totOp = totOp + randOp;\r\n//     totDp = totDp + randDp;\r\n//     pbPlayers.mintPlayerToTeam(randOp,randDp,msg.sender,3,nextId,dna,6); //Goalie\r\n\r\n//     _tokenDetails[nextId] = Team(nextId, dna,totOp,totDp,0,0,0,false,false,false,msg.sender);\r\n//     _safeMint(msg.sender, nextId);\r\n//     PBXPToken.newTeamPBXP(msg.sender);\r\n//     //End New stuff\r\n//     emit NewTeam(nextId, dna);\r\n//     nextId++;\r\n// }\r\n\r\n// function addStatsToTeam(uint teamId, address teamOwner, uint playerop, uint playerdp) public {\r\n//     Team storage team = _tokenDetails[teamId];\r\n//     address ownersAddress = _tokenDetails[teamId].ownerAddress;\r\n//     require(ownersAddress == teamOwner);\r\n//     team.teamTotalOP = team.teamTotalOP + playerop;\r\n//     team.teamTotalDP = team.teamTotalDP + playerdp;    \r\n// }\r\n\r\n// function removeStatsFromTeam(uint teamId, address teamOwner, uint playerop, uint playerdp) public {\r\n//     Team storage team = _tokenDetails[teamId];\r\n//     address ownersAddress = _tokenDetails[teamId].ownerAddress;\r\n//     require(ownersAddress == teamOwner);\r\n//     team.teamTotalOP = team.teamTotalOP - playerop;\r\n//     team.teamTotalDP = team.teamTotalDP - playerdp;      \r\n// }\r\n\r\n// function addOPToTeam(uint teamId, address teamOwner, uint playerop) public  {\r\n//     require(msg.sender == pbPlayersAddress);\r\n//     Team storage team = _tokenDetails[teamId];\r\n//     address ownersAddress = _tokenDetails[teamId].ownerAddress;\r\n//     require(ownersAddress == teamOwner);\r\n//     team.teamTotalOP = team.teamTotalOP + playerop;   \r\n// }\r\n\r\n// function addDPToTeam(uint teamId, address teamOwner, uint playerdp) public  {\r\n//     require(msg.sender == pbPlayersAddress);\r\n//     Team storage team = _tokenDetails[teamId];\r\n//     address ownersAddress = _tokenDetails[teamId].ownerAddress;\r\n//     require(ownersAddress == teamOwner);\r\n//     team.teamTotalDP = team.teamTotalDP + playerdp;    \r\n// }\r\n\r\n\r\n}",
  "sourcePath": "D:\\Projects\\puck-buddies\\contracts\\PBTeams.sol",
  "compiler": {
    "name": "solc",
    "version": "0.8.6+commit.11564f7e.Emscripten.clang"
  },
  "schemaVersion": "3.4.3",
  "updatedAt": "2021-12-29T02:49:37.087Z",
  "networkType": "ethereum",
  "devdoc": {
    "kind": "dev",
    "methods": {
      "approve(address,uint256)": {
        "details": "See {IERC721-approve}."
      },
      "balanceOf(address)": {
        "details": "See {IERC721-balanceOf}."
      },
      "getApproved(uint256)": {
        "details": "See {IERC721-getApproved}."
      },
      "isApprovedForAll(address,address)": {
        "details": "See {IERC721-isApprovedForAll}."
      },
      "name()": {
        "details": "See {IERC721Metadata-name}."
      },
      "ownerOf(uint256)": {
        "details": "See {IERC721-ownerOf}."
      },
      "safeTransferFrom(address,address,uint256)": {
        "details": "See {IERC721-safeTransferFrom}."
      },
      "safeTransferFrom(address,address,uint256,bytes)": {
        "details": "See {IERC721-safeTransferFrom}."
      },
      "setApprovalForAll(address,bool)": {
        "details": "See {IERC721-setApprovalForAll}."
      },
      "supportsInterface(bytes4)": {
        "details": "See {IERC165-supportsInterface}."
      },
      "symbol()": {
        "details": "See {IERC721Metadata-symbol}."
      },
      "tokenURI(uint256)": {
        "details": "See {IERC721Metadata-tokenURI}."
      },
      "transferFrom(address,address,uint256)": {
        "details": "See {IERC721-transferFrom}."
      }
    },
    "version": 1
  },
  "userdoc": {
    "kind": "user",
    "methods": {},
    "version": 1
  }
}