{
  "contractName": "PBTeams",
  "abi": [
    {
      "inputs": [
        {
          "internalType": "uint256",
          "name": "_teamMintCost",
          "type": "uint256"
        },
        {
          "internalType": "address",
          "name": "_buddiesCoinAddress",
          "type": "address"
        },
        {
          "internalType": "address",
          "name": "_pbxpAddress",
          "type": "address"
        },
        {
          "internalType": "address",
          "name": "_pbPlayersAddress",
          "type": "address"
        }
      ],
      "stateMutability": "nonpayable",
      "type": "constructor"
    },
    {
      "anonymous": false,
      "inputs": [
        {
          "indexed": true,
          "internalType": "address",
          "name": "owner",
          "type": "address"
        },
        {
          "indexed": true,
          "internalType": "address",
          "name": "approved",
          "type": "address"
        },
        {
          "indexed": true,
          "internalType": "uint256",
          "name": "tokenId",
          "type": "uint256"
        }
      ],
      "name": "Approval",
      "type": "event"
    },
    {
      "anonymous": false,
      "inputs": [
        {
          "indexed": true,
          "internalType": "address",
          "name": "owner",
          "type": "address"
        },
        {
          "indexed": true,
          "internalType": "address",
          "name": "operator",
          "type": "address"
        },
        {
          "indexed": false,
          "internalType": "bool",
          "name": "approved",
          "type": "bool"
        }
      ],
      "name": "ApprovalForAll",
      "type": "event"
    },
    {
      "anonymous": false,
      "inputs": [
        {
          "indexed": false,
          "internalType": "uint256",
          "name": "nextId",
          "type": "uint256"
        },
        {
          "indexed": false,
          "internalType": "uint256",
          "name": "dna",
          "type": "uint256"
        }
      ],
      "name": "NewTeam",
      "type": "event"
    },
    {
      "anonymous": false,
      "inputs": [
        {
          "indexed": true,
          "internalType": "address",
          "name": "from",
          "type": "address"
        },
        {
          "indexed": true,
          "internalType": "address",
          "name": "to",
          "type": "address"
        },
        {
          "indexed": true,
          "internalType": "uint256",
          "name": "tokenId",
          "type": "uint256"
        }
      ],
      "name": "Transfer",
      "type": "event"
    },
    {
      "inputs": [],
      "name": "PBXPToken",
      "outputs": [
        {
          "internalType": "contract PBXP",
          "name": "",
          "type": "address"
        }
      ],
      "stateMutability": "view",
      "type": "function",
      "constant": true
    },
    {
      "inputs": [
        {
          "internalType": "uint256",
          "name": "",
          "type": "uint256"
        }
      ],
      "name": "_tokenDetails",
      "outputs": [
        {
          "internalType": "uint256",
          "name": "teamId",
          "type": "uint256"
        },
        {
          "internalType": "uint256",
          "name": "teamDna",
          "type": "uint256"
        },
        {
          "internalType": "uint256",
          "name": "teamTotalOP",
          "type": "uint256"
        },
        {
          "internalType": "uint256",
          "name": "teamTotalDP",
          "type": "uint256"
        },
        {
          "internalType": "uint256",
          "name": "activeTimestamp1",
          "type": "uint256"
        },
        {
          "internalType": "uint256",
          "name": "activeTimestamp2",
          "type": "uint256"
        },
        {
          "internalType": "uint256",
          "name": "activeTimestamp3",
          "type": "uint256"
        },
        {
          "internalType": "bool",
          "name": "lastMatchWon1",
          "type": "bool"
        },
        {
          "internalType": "bool",
          "name": "lastMatchWon2",
          "type": "bool"
        },
        {
          "internalType": "bool",
          "name": "lastMatchWon3",
          "type": "bool"
        },
        {
          "internalType": "address",
          "name": "ownerAddress",
          "type": "address"
        }
      ],
      "stateMutability": "view",
      "type": "function",
      "constant": true
    },
    {
      "inputs": [
        {
          "internalType": "address",
          "name": "to",
          "type": "address"
        },
        {
          "internalType": "uint256",
          "name": "tokenId",
          "type": "uint256"
        }
      ],
      "name": "approve",
      "outputs": [],
      "stateMutability": "nonpayable",
      "type": "function"
    },
    {
      "inputs": [
        {
          "internalType": "address",
          "name": "owner",
          "type": "address"
        }
      ],
      "name": "balanceOf",
      "outputs": [
        {
          "internalType": "uint256",
          "name": "",
          "type": "uint256"
        }
      ],
      "stateMutability": "view",
      "type": "function",
      "constant": true
    },
    {
      "inputs": [],
      "name": "buddies",
      "outputs": [
        {
          "internalType": "contract IERC20",
          "name": "",
          "type": "address"
        }
      ],
      "stateMutability": "view",
      "type": "function",
      "constant": true
    },
    {
      "inputs": [
        {
          "internalType": "uint256",
          "name": "tokenId",
          "type": "uint256"
        }
      ],
      "name": "getApproved",
      "outputs": [
        {
          "internalType": "address",
          "name": "",
          "type": "address"
        }
      ],
      "stateMutability": "view",
      "type": "function",
      "constant": true
    },
    {
      "inputs": [
        {
          "internalType": "address",
          "name": "owner",
          "type": "address"
        },
        {
          "internalType": "address",
          "name": "operator",
          "type": "address"
        }
      ],
      "name": "isApprovedForAll",
      "outputs": [
        {
          "internalType": "bool",
          "name": "",
          "type": "bool"
        }
      ],
      "stateMutability": "view",
      "type": "function",
      "constant": true
    },
    {
      "inputs": [],
      "name": "name",
      "outputs": [
        {
          "internalType": "string",
          "name": "",
          "type": "string"
        }
      ],
      "stateMutability": "view",
      "type": "function",
      "constant": true
    },
    {
      "inputs": [
        {
          "internalType": "uint256",
          "name": "tokenId",
          "type": "uint256"
        }
      ],
      "name": "ownerOf",
      "outputs": [
        {
          "internalType": "address",
          "name": "",
          "type": "address"
        }
      ],
      "stateMutability": "view",
      "type": "function",
      "constant": true
    },
    {
      "inputs": [],
      "name": "pbMatchupValidation",
      "outputs": [
        {
          "internalType": "contract PBMatchupValidation",
          "name": "",
          "type": "address"
        }
      ],
      "stateMutability": "view",
      "type": "function",
      "constant": true
    },
    {
      "inputs": [],
      "name": "pbPlayers",
      "outputs": [
        {
          "internalType": "contract PBPlayers",
          "name": "",
          "type": "address"
        }
      ],
      "stateMutability": "view",
      "type": "function",
      "constant": true
    },
    {
      "inputs": [
        {
          "internalType": "address",
          "name": "from",
          "type": "address"
        },
        {
          "internalType": "address",
          "name": "to",
          "type": "address"
        },
        {
          "internalType": "uint256",
          "name": "tokenId",
          "type": "uint256"
        }
      ],
      "name": "safeTransferFrom",
      "outputs": [],
      "stateMutability": "nonpayable",
      "type": "function"
    },
    {
      "inputs": [
        {
          "internalType": "address",
          "name": "from",
          "type": "address"
        },
        {
          "internalType": "address",
          "name": "to",
          "type": "address"
        },
        {
          "internalType": "uint256",
          "name": "tokenId",
          "type": "uint256"
        },
        {
          "internalType": "bytes",
          "name": "_data",
          "type": "bytes"
        }
      ],
      "name": "safeTransferFrom",
      "outputs": [],
      "stateMutability": "nonpayable",
      "type": "function"
    },
    {
      "inputs": [
        {
          "internalType": "address",
          "name": "operator",
          "type": "address"
        },
        {
          "internalType": "bool",
          "name": "approved",
          "type": "bool"
        }
      ],
      "name": "setApprovalForAll",
      "outputs": [],
      "stateMutability": "nonpayable",
      "type": "function"
    },
    {
      "inputs": [
        {
          "internalType": "bytes4",
          "name": "interfaceId",
          "type": "bytes4"
        }
      ],
      "name": "supportsInterface",
      "outputs": [
        {
          "internalType": "bool",
          "name": "",
          "type": "bool"
        }
      ],
      "stateMutability": "view",
      "type": "function",
      "constant": true
    },
    {
      "inputs": [],
      "name": "symbol",
      "outputs": [
        {
          "internalType": "string",
          "name": "",
          "type": "string"
        }
      ],
      "stateMutability": "view",
      "type": "function",
      "constant": true
    },
    {
      "inputs": [
        {
          "internalType": "uint256",
          "name": "tokenId",
          "type": "uint256"
        }
      ],
      "name": "tokenURI",
      "outputs": [
        {
          "internalType": "string",
          "name": "",
          "type": "string"
        }
      ],
      "stateMutability": "view",
      "type": "function",
      "constant": true
    },
    {
      "inputs": [
        {
          "internalType": "address",
          "name": "from",
          "type": "address"
        },
        {
          "internalType": "address",
          "name": "to",
          "type": "address"
        },
        {
          "internalType": "uint256",
          "name": "tokenId",
          "type": "uint256"
        }
      ],
      "name": "transferFrom",
      "outputs": [],
      "stateMutability": "nonpayable",
      "type": "function"
    },
    {
      "inputs": [],
      "name": "isAdmin",
      "outputs": [
        {
          "internalType": "bool",
          "name": "",
          "type": "bool"
        }
      ],
      "stateMutability": "view",
      "type": "function",
      "constant": true
    },
    {
      "inputs": [],
      "name": "getPBTeamsAddress",
      "outputs": [
        {
          "internalType": "address",
          "name": "",
          "type": "address"
        }
      ],
      "stateMutability": "view",
      "type": "function",
      "constant": true
    },
    {
      "inputs": [],
      "name": "getTeamMintCost",
      "outputs": [
        {
          "internalType": "uint256",
          "name": "",
          "type": "uint256"
        }
      ],
      "stateMutability": "view",
      "type": "function",
      "constant": true
    },
    {
      "inputs": [],
      "name": "getTeamsCount",
      "outputs": [
        {
          "internalType": "uint256",
          "name": "",
          "type": "uint256"
        }
      ],
      "stateMutability": "view",
      "type": "function",
      "constant": true
    },
    {
      "inputs": [
        {
          "internalType": "address",
          "name": "_buddiesCoinAddress",
          "type": "address"
        }
      ],
      "name": "updateBuddiesCoinAddress",
      "outputs": [],
      "stateMutability": "nonpayable",
      "type": "function"
    },
    {
      "inputs": [
        {
          "internalType": "address",
          "name": "_pbxpAddress",
          "type": "address"
        }
      ],
      "name": "updatePbxpAddress",
      "outputs": [],
      "stateMutability": "nonpayable",
      "type": "function"
    },
    {
      "inputs": [
        {
          "internalType": "address",
          "name": "_pbPlayersAddress",
          "type": "address"
        }
      ],
      "name": "updatePuckBuddiePlayersAddress",
      "outputs": [],
      "stateMutability": "nonpayable",
      "type": "function"
    },
    {
      "inputs": [
        {
          "internalType": "address",
          "name": "_pbMatchupValidationAddress",
          "type": "address"
        }
      ],
      "name": "updatePBMatchupValidationAddress",
      "outputs": [],
      "stateMutability": "nonpayable",
      "type": "function"
    },
    {
      "inputs": [
        {
          "internalType": "uint256",
          "name": "_teamMintCost",
          "type": "uint256"
        }
      ],
      "name": "updateTeamMintCost",
      "outputs": [],
      "stateMutability": "nonpayable",
      "type": "function"
    },
    {
      "inputs": [
        {
          "internalType": "uint256",
          "name": "tokenId",
          "type": "uint256"
        }
      ],
      "name": "getTokenDetails",
      "outputs": [
        {
          "components": [
            {
              "internalType": "uint256",
              "name": "teamId",
              "type": "uint256"
            },
            {
              "internalType": "uint256",
              "name": "teamDna",
              "type": "uint256"
            },
            {
              "internalType": "uint256",
              "name": "teamTotalOP",
              "type": "uint256"
            },
            {
              "internalType": "uint256",
              "name": "teamTotalDP",
              "type": "uint256"
            },
            {
              "internalType": "uint256",
              "name": "activeTimestamp1",
              "type": "uint256"
            },
            {
              "internalType": "uint256",
              "name": "activeTimestamp2",
              "type": "uint256"
            },
            {
              "internalType": "uint256",
              "name": "activeTimestamp3",
              "type": "uint256"
            },
            {
              "internalType": "bool",
              "name": "lastMatchWon1",
              "type": "bool"
            },
            {
              "internalType": "bool",
              "name": "lastMatchWon2",
              "type": "bool"
            },
            {
              "internalType": "bool",
              "name": "lastMatchWon3",
              "type": "bool"
            },
            {
              "internalType": "address",
              "name": "ownerAddress",
              "type": "address"
            }
          ],
          "internalType": "struct PBTeams.Team",
          "name": "",
          "type": "tuple"
        }
      ],
      "stateMutability": "view",
      "type": "function",
      "constant": true
    },
    {
      "inputs": [
        {
          "internalType": "address",
          "name": "user",
          "type": "address"
        }
      ],
      "name": "getAllTokensForUser",
      "outputs": [
        {
          "internalType": "uint256[]",
          "name": "",
          "type": "uint256[]"
        }
      ],
      "stateMutability": "view",
      "type": "function",
      "constant": true
    },
    {
      "inputs": [
        {
          "internalType": "uint256",
          "name": "value",
          "type": "uint256"
        }
      ],
      "name": "mintTeam",
      "outputs": [],
      "stateMutability": "nonpayable",
      "type": "function"
    },
    {
      "inputs": [
        {
          "internalType": "uint256",
          "name": "teamId",
          "type": "uint256"
        },
        {
          "internalType": "address",
          "name": "teamOwner",
          "type": "address"
        },
        {
          "internalType": "uint256",
          "name": "playerop",
          "type": "uint256"
        },
        {
          "internalType": "uint256",
          "name": "playerdp",
          "type": "uint256"
        }
      ],
      "name": "addStatsToTeam",
      "outputs": [],
      "stateMutability": "nonpayable",
      "type": "function"
    },
    {
      "inputs": [
        {
          "internalType": "uint256",
          "name": "teamId",
          "type": "uint256"
        },
        {
          "internalType": "address",
          "name": "teamOwner",
          "type": "address"
        },
        {
          "internalType": "uint256",
          "name": "playerop",
          "type": "uint256"
        },
        {
          "internalType": "uint256",
          "name": "playerdp",
          "type": "uint256"
        }
      ],
      "name": "removeStatsFromTeam",
      "outputs": [],
      "stateMutability": "nonpayable",
      "type": "function"
    },
    {
      "inputs": [
        {
          "internalType": "uint256",
          "name": "teamId",
          "type": "uint256"
        },
        {
          "internalType": "address",
          "name": "teamOwner",
          "type": "address"
        },
        {
          "internalType": "uint256",
          "name": "playerop",
          "type": "uint256"
        }
      ],
      "name": "addOPToTeam",
      "outputs": [],
      "stateMutability": "nonpayable",
      "type": "function"
    },
    {
      "inputs": [
        {
          "internalType": "uint256",
          "name": "teamId",
          "type": "uint256"
        },
        {
          "internalType": "address",
          "name": "teamOwner",
          "type": "address"
        },
        {
          "internalType": "uint256",
          "name": "playerdp",
          "type": "uint256"
        }
      ],
      "name": "addDPToTeam",
      "outputs": [],
      "stateMutability": "nonpayable",
      "type": "function"
    }
  ],
  "bytecode": "0x6080604052662386f26fc10000600a556006600b556004600c556000600d5560006012553480156200003057600080fd5b506040516200632b3803806200632b83398181016040528101906200005691906200032a565b6040518060400160405280601181526020017f5075636b2042756464696573205465616d0000000000000000000000000000008152506040518060400160405280600381526020017f50425400000000000000000000000000000000000000000000000000000000008152508160009080519060200190620000da9291906200024c565b508060019080519060200190620000f39291906200024c565b50505033600660006101000a81548173ffffffffffffffffffffffffffffffffffffffff021916908373ffffffffffffffffffffffffffffffffffffffff1602179055508360098190555082600e60006101000a81548173ffffffffffffffffffffffffffffffffffffffff021916908373ffffffffffffffffffffffffffffffffffffffff16021790555081600f60006101000a81548173ffffffffffffffffffffffffffffffffffffffff021916908373ffffffffffffffffffffffffffffffffffffffff16021790555080601060006101000a81548173ffffffffffffffffffffffffffffffffffffffff021916908373ffffffffffffffffffffffffffffffffffffffff16021790555080600860006101000a81548173ffffffffffffffffffffffffffffffffffffffff021916908373ffffffffffffffffffffffffffffffffffffffff1602179055505050505062000478565b8280546200025a90620003da565b90600052602060002090601f0160209004810192826200027e5760008555620002ca565b82601f106200029957805160ff1916838001178555620002ca565b82800160010185558215620002ca579182015b82811115620002c9578251825591602001919060010190620002ac565b5b509050620002d99190620002dd565b5090565b5b80821115620002f8576000816000905550600101620002de565b5090565b6000815190506200030d8162000444565b92915050565b60008151905062000324816200045e565b92915050565b600080600080608085870312156200034757620003466200043f565b5b6000620003578782880162000313565b94505060206200036a87828801620002fc565b93505060406200037d87828801620002fc565b92505060606200039087828801620002fc565b91505092959194509250565b6000620003a982620003b0565b9050919050565b600073ffffffffffffffffffffffffffffffffffffffff82169050919050565b6000819050919050565b60006002820490506001821680620003f357607f821691505b602082108114156200040a576200040962000410565b5b50919050565b7f4e487b7100000000000000000000000000000000000000000000000000000000600052602260045260246000fd5b600080fd5b6200044f816200039c565b81146200045b57600080fd5b50565b6200046981620003d0565b81146200047557600080fd5b50565b615ea380620004886000396000f3fe608060405234801561001057600080fd5b50600436106102065760003560e01c806382de8fe91161011a578063b6db75a0116100ad578063d034a6de1161007c578063d034a6de146105f3578063e985e9c51461060f578063ea1c3c011461063f578063f971a2f81461065b578063ff18e6891461067757610206565b8063b6db75a014610559578063b88d4fde14610577578063c1e0372814610593578063c87b56dd146105c357610206565b806397ede525116100e957806397ede525146104e7578063a1134de114610505578063a22cb46514610521578063a6c456a91461053d57610206565b806382de8fe91461044357806385f7229a1461047357806389bf0f0d146104ad57806395d89b41146104c957610206565b806342842e0e1161019d5780635d632faf1161016c5780635d632faf1461038b5780636352211e146103a757806363eaef5a146103d757806370a08231146103f55780637bfd6f6a1461042557610206565b806342842e0e146103195780634a594c12146103355780635664eb361461035357806356ef3bfc1461036f57610206565b8063095fa7ec116101d9578063095fa7ec146102a557806323b872dd146102c35780632a73e656146102df578063342f48aa146102fd57610206565b806301ffc9a71461020b57806306fdde031461023b578063081812fc14610259578063095ea7b314610289575b600080fd5b61022560048036038101906102209190614389565b610695565b6040516102329190614d1a565b60405180910390f35b610243610777565b6040516102509190614dd7565b60405180910390f35b610273600480360381019061026e91906143e3565b610809565b6040516102809190614b62565b60405180910390f35b6102a3600480360381019061029e919061431c565b61088e565b005b6102ad6109a6565b6040516102ba9190614b62565b60405180910390f35b6102dd60048036038101906102d89190614206565b6109ae565b005b6102e7610a0e565b6040516102f49190614d50565b60405180910390f35b610317600480360381019061031291906143e3565b610a34565b005b610333600480360381019061032e9190614206565b6123be565b005b61033d6123de565b60405161034a9190614d35565b60405180910390f35b61036d60048036038101906103689190614490565b612404565b005b61038960048036038101906103849190614199565b6124c6565b005b6103a560048036038101906103a09190614199565b6125db565b005b6103c160048036038101906103bc91906143e3565b6126af565b6040516103ce9190614b62565b60405180910390f35b6103df612761565b6040516103ec9190614d6b565b60405180910390f35b61040f600480360381019061040a9190614199565b612787565b60405161041c9190615055565b60405180910390f35b61042d61283f565b60405161043a9190615055565b60405180910390f35b61045d60048036038101906104589190614199565b6128d9565b60405161046a9190614cf8565b60405180910390f35b61048d600480360381019061048891906143e3565b612a2f565b6040516104a49b9a99989796959493929190615333565b60405180910390f35b6104c760048036038101906104c29190614199565b612ad0565b005b6104d1612ba4565b6040516104de9190614dd7565b60405180910390f35b6104ef612c36565b6040516104fc9190614d86565b60405180910390f35b61051f600480360381019061051a919061443d565b612c5c565b005b61053b600480360381019061053691906142dc565b612d5f565b005b6105576004803603810190610552919061443d565b612ee0565b005b610561612fe3565b60405161056e9190614d1a565b60405180910390f35b610591600480360381019061058c9190614259565b61304c565b005b6105ad60048036038101906105a891906143e3565b6130ae565b6040516105ba9190615039565b60405180910390f35b6105dd60048036038101906105d891906143e3565b6131c9565b6040516105ea9190614dd7565b60405180910390f35b61060d600480360381019061060891906143e3565b613270565b005b610629600480360381019061062491906141c6565b61330a565b6040516106369190614d1a565b60405180910390f35b61065960048036038101906106549190614199565b61339e565b005b61067560048036038101906106709190614490565b613472565b005b61067f613534565b60405161068c9190615055565b60405180910390f35b60007f80ac58cd000000000000000000000000000000000000000000000000000000007bffffffffffffffffffffffffffffffffffffffffffffffffffffffff1916827bffffffffffffffffffffffffffffffffffffffffffffffffffffffff1916148061076057507f5b5e139f000000000000000000000000000000000000000000000000000000007bffffffffffffffffffffffffffffffffffffffffffffffffffffffff1916827bffffffffffffffffffffffffffffffffffffffffffffffffffffffff1916145b80610770575061076f8261353e565b5b9050919050565b60606000805461078690615765565b80601f01602080910402602001604051908101604052809291908181526020018280546107b290615765565b80156107ff5780601f106107d4576101008083540402835291602001916107ff565b820191906000526020600020905b8154815290600101906020018083116107e257829003601f168201915b5050505050905090565b6000610814826135a8565b610853576040517f08c379a000000000000000000000000000000000000000000000000000000000815260040161084a90614f99565b60405180910390fd5b6004600083815260200190815260200160002060009054906101000a900473ffffffffffffffffffffffffffffffffffffffff169050919050565b6000610899826126af565b90508073ffffffffffffffffffffffffffffffffffffffff168373ffffffffffffffffffffffffffffffffffffffff16141561090a576040517f08c379a000000000000000000000000000000000000000000000000000000000815260040161090190614ff9565b60405180910390fd5b8073ffffffffffffffffffffffffffffffffffffffff16610929613614565b73ffffffffffffffffffffffffffffffffffffffff161480610958575061095781610952613614565b61330a565b5b610997576040517f08c379a000000000000000000000000000000000000000000000000000000000815260040161098e90614f19565b60405180910390fd5b6109a1838361361c565b505050565b600030905090565b6109bf6109b9613614565b826136d5565b6109fe576040517f08c379a00000000000000000000000000000000000000000000000000000000081526004016109f590615019565b60405180910390fd5b610a098383836137b3565b505050565b601160009054906101000a900473ffffffffffffffffffffffffffffffffffffffff1681565b60006012541415610ad057600660009054906101000a900473ffffffffffffffffffffffffffffffffffffffff1673ffffffffffffffffffffffffffffffffffffffff163373ffffffffffffffffffffffffffffffffffffffff1614610acf576040517f08c379a0000000000000000000000000000000000000000000000000000000008152600401610ac690614ed9565b60405180910390fd5b5b6001610adb33612787565b10610b1b576040517f08c379a0000000000000000000000000000000000000000000000000000000008152600401610b1290614ef9565b60405180910390fd5b6000600e60009054906101000a900473ffffffffffffffffffffffffffffffffffffffff1673ffffffffffffffffffffffffffffffffffffffff1663dd62ed3e33306040518363ffffffff1660e01b8152600401610b7a929190614b7d565b60206040518083038186803b158015610b9257600080fd5b505afa158015610ba6573d6000803e3d6000fd5b505050506040513d601f19601f82011682018060405250810190610bca9190614410565b905081811015610c0f576040517f08c379a0000000000000000000000000000000000000000000000000000000008152600401610c0690614df9565b60405180910390fd5b600e60009054906101000a900473ffffffffffffffffffffffffffffffffffffffff1673ffffffffffffffffffffffffffffffffffffffff166323b872dd33600860009054906101000a900473ffffffffffffffffffffffffffffffffffffffff16856040518463ffffffff1660e01b8152600401610c9093929190614ba6565b602060405180830381600087803b158015610caa57600080fd5b505af1158015610cbe573d6000803e3d6000fd5b505050506040513d601f19601f82011682018060405250810190610ce2919061435c565b506000610ced613a0f565b9050600080600080601060009054906101000a900473ffffffffffffffffffffffffffffffffffffffff1673ffffffffffffffffffffffffffffffffffffffff1663a8de071e33603280601060009054906101000a900473ffffffffffffffffffffffffffffffffffffffff1673ffffffffffffffffffffffffffffffffffffffff1663c948338360016040518263ffffffff1660e01b8152600401610d939190614da1565b60206040518083038186803b158015610dab57600080fd5b505afa158015610dbf573d6000803e3d6000fd5b505050506040513d601f19601f82011682018060405250810190610de39190614410565b6040518563ffffffff1660e01b8152600401610e029493929190614cb3565b60206040518083038186803b158015610e1a57600080fd5b505afa158015610e2e573d6000803e3d6000fd5b505050506040513d601f19601f82011682018060405250810190610e529190614410565b9350601060009054906101000a900473ffffffffffffffffffffffffffffffffffffffff1673ffffffffffffffffffffffffffffffffffffffff1663a8de071e3360326000601060009054906101000a900473ffffffffffffffffffffffffffffffffffffffff1673ffffffffffffffffffffffffffffffffffffffff1663c948338360026040518263ffffffff1660e01b8152600401610ef39190614dbc565b60206040518083038186803b158015610f0b57600080fd5b505afa158015610f1f573d6000803e3d6000fd5b505050506040513d601f19601f82011682018060405250810190610f439190614410565b6040518563ffffffff1660e01b8152600401610f629493929190614c6e565b60206040518083038186803b158015610f7a57600080fd5b505afa158015610f8e573d6000803e3d6000fd5b505050506040513d601f19601f82011682018060405250810190610fb29190614410565b92508382610fc091906154b0565b91508281610fce91906154b0565b9050601060009054906101000a900473ffffffffffffffffffffffffffffffffffffffff1673ffffffffffffffffffffffffffffffffffffffff16637b05f7ac85853360016012548b60016040518863ffffffff1660e01b815260040161103b9796959493929190615099565b6040805180830381600087803b15801561105457600080fd5b505af1158015611068573d6000803e3d6000fd5b505050506040513d601f19601f8201168201806040525081019061108c91906144f7565b5050601060009054906101000a900473ffffffffffffffffffffffffffffffffffffffff1673ffffffffffffffffffffffffffffffffffffffff1663a8de071e33603280601060009054906101000a900473ffffffffffffffffffffffffffffffffffffffff1673ffffffffffffffffffffffffffffffffffffffff1663c948338360016040518263ffffffff1660e01b815260040161112c9190614da1565b60206040518083038186803b15801561114457600080fd5b505afa158015611158573d6000803e3d6000fd5b505050506040513d601f19601f8201168201806040525081019061117c9190614410565b6040518563ffffffff1660e01b815260040161119b9493929190614cb3565b60206040518083038186803b1580156111b357600080fd5b505afa1580156111c7573d6000803e3d6000fd5b505050506040513d601f19601f820116820180604052508101906111eb9190614410565b9350601060009054906101000a900473ffffffffffffffffffffffffffffffffffffffff1673ffffffffffffffffffffffffffffffffffffffff1663a8de071e3360326000601060009054906101000a900473ffffffffffffffffffffffffffffffffffffffff1673ffffffffffffffffffffffffffffffffffffffff1663c948338360026040518263ffffffff1660e01b815260040161128c9190614dbc565b60206040518083038186803b1580156112a457600080fd5b505afa1580156112b8573d6000803e3d6000fd5b505050506040513d601f19601f820116820180604052508101906112dc9190614410565b6040518563ffffffff1660e01b81526004016112fb9493929190614c6e565b60206040518083038186803b15801561131357600080fd5b505afa158015611327573d6000803e3d6000fd5b505050506040513d601f19601f8201168201806040525081019061134b9190614410565b9250838261135991906154b0565b9150828161136791906154b0565b9050601060009054906101000a900473ffffffffffffffffffffffffffffffffffffffff1673ffffffffffffffffffffffffffffffffffffffff16637b05f7ac85853360016012548b60026040518863ffffffff1660e01b81526004016113d49796959493929190615108565b6040805180830381600087803b1580156113ed57600080fd5b505af1158015611401573d6000803e3d6000fd5b505050506040513d601f19601f8201168201806040525081019061142591906144f7565b5050601060009054906101000a900473ffffffffffffffffffffffffffffffffffffffff1673ffffffffffffffffffffffffffffffffffffffff1663a8de071e33603280601060009054906101000a900473ffffffffffffffffffffffffffffffffffffffff1673ffffffffffffffffffffffffffffffffffffffff1663c948338360016040518263ffffffff1660e01b81526004016114c59190614da1565b60206040518083038186803b1580156114dd57600080fd5b505afa1580156114f1573d6000803e3d6000fd5b505050506040513d601f19601f820116820180604052508101906115159190614410565b6040518563ffffffff1660e01b81526004016115349493929190614cb3565b60206040518083038186803b15801561154c57600080fd5b505afa158015611560573d6000803e3d6000fd5b505050506040513d601f19601f820116820180604052508101906115849190614410565b9350601060009054906101000a900473ffffffffffffffffffffffffffffffffffffffff1673ffffffffffffffffffffffffffffffffffffffff1663a8de071e3360326000601060009054906101000a900473ffffffffffffffffffffffffffffffffffffffff1673ffffffffffffffffffffffffffffffffffffffff1663c948338360026040518263ffffffff1660e01b81526004016116259190614dbc565b60206040518083038186803b15801561163d57600080fd5b505afa158015611651573d6000803e3d6000fd5b505050506040513d601f19601f820116820180604052508101906116759190614410565b6040518563ffffffff1660e01b81526004016116949493929190614c6e565b60206040518083038186803b1580156116ac57600080fd5b505afa1580156116c0573d6000803e3d6000fd5b505050506040513d601f19601f820116820180604052508101906116e49190614410565b925083826116f291906154b0565b9150828161170091906154b0565b9050601060009054906101000a900473ffffffffffffffffffffffffffffffffffffffff1673ffffffffffffffffffffffffffffffffffffffff16637b05f7ac85853360016012548b60036040518863ffffffff1660e01b815260040161176d9796959493929190615177565b6040805180830381600087803b15801561178657600080fd5b505af115801561179a573d6000803e3d6000fd5b505050506040513d601f19601f820116820180604052508101906117be91906144f7565b5050601060009054906101000a900473ffffffffffffffffffffffffffffffffffffffff1673ffffffffffffffffffffffffffffffffffffffff1663a8de071e3360326000601060009054906101000a900473ffffffffffffffffffffffffffffffffffffffff1673ffffffffffffffffffffffffffffffffffffffff1663c948338360016040518263ffffffff1660e01b815260040161185f9190614da1565b60206040518083038186803b15801561187757600080fd5b505afa15801561188b573d6000803e3d6000fd5b505050506040513d601f19601f820116820180604052508101906118af9190614410565b6040518563ffffffff1660e01b81526004016118ce9493929190614c6e565b60206040518083038186803b1580156118e657600080fd5b505afa1580156118fa573d6000803e3d6000fd5b505050506040513d601f19601f8201168201806040525081019061191e9190614410565b9350601060009054906101000a900473ffffffffffffffffffffffffffffffffffffffff1673ffffffffffffffffffffffffffffffffffffffff1663a8de071e33603280601060009054906101000a900473ffffffffffffffffffffffffffffffffffffffff1673ffffffffffffffffffffffffffffffffffffffff1663c948338360026040518263ffffffff1660e01b81526004016119be9190614dbc565b60206040518083038186803b1580156119d657600080fd5b505afa1580156119ea573d6000803e3d6000fd5b505050506040513d601f19601f82011682018060405250810190611a0e9190614410565b6040518563ffffffff1660e01b8152600401611a2d9493929190614cb3565b60206040518083038186803b158015611a4557600080fd5b505afa158015611a59573d6000803e3d6000fd5b505050506040513d601f19601f82011682018060405250810190611a7d9190614410565b92508382611a8b91906154b0565b91508281611a9991906154b0565b9050601060009054906101000a900473ffffffffffffffffffffffffffffffffffffffff1673ffffffffffffffffffffffffffffffffffffffff16637b05f7ac85853360026012548b60046040518863ffffffff1660e01b8152600401611b0697969594939291906151e6565b6040805180830381600087803b158015611b1f57600080fd5b505af1158015611b33573d6000803e3d6000fd5b505050506040513d601f19601f82011682018060405250810190611b5791906144f7565b5050601060009054906101000a900473ffffffffffffffffffffffffffffffffffffffff1673ffffffffffffffffffffffffffffffffffffffff1663a8de071e3360326000601060009054906101000a900473ffffffffffffffffffffffffffffffffffffffff1673ffffffffffffffffffffffffffffffffffffffff1663c948338360016040518263ffffffff1660e01b8152600401611bf89190614da1565b60206040518083038186803b158015611c1057600080fd5b505afa158015611c24573d6000803e3d6000fd5b505050506040513d601f19601f82011682018060405250810190611c489190614410565b6040518563ffffffff1660e01b8152600401611c679493929190614c6e565b60206040518083038186803b158015611c7f57600080fd5b505afa158015611c93573d6000803e3d6000fd5b505050506040513d601f19601f82011682018060405250810190611cb79190614410565b9350601060009054906101000a900473ffffffffffffffffffffffffffffffffffffffff1673ffffffffffffffffffffffffffffffffffffffff1663a8de071e33603280601060009054906101000a900473ffffffffffffffffffffffffffffffffffffffff1673ffffffffffffffffffffffffffffffffffffffff1663c948338360026040518263ffffffff1660e01b8152600401611d579190614dbc565b60206040518083038186803b158015611d6f57600080fd5b505afa158015611d83573d6000803e3d6000fd5b505050506040513d601f19601f82011682018060405250810190611da79190614410565b6040518563ffffffff1660e01b8152600401611dc69493929190614cb3565b60206040518083038186803b158015611dde57600080fd5b505afa158015611df2573d6000803e3d6000fd5b505050506040513d601f19601f82011682018060405250810190611e169190614410565b92508382611e2491906154b0565b91508281611e3291906154b0565b9050601060009054906101000a900473ffffffffffffffffffffffffffffffffffffffff1673ffffffffffffffffffffffffffffffffffffffff16637b05f7ac85853360026012548b60056040518863ffffffff1660e01b8152600401611e9f9796959493929190615255565b6040805180830381600087803b158015611eb857600080fd5b505af1158015611ecc573d6000803e3d6000fd5b505050506040513d601f19601f82011682018060405250810190611ef091906144f7565b505060009350601060009054906101000a900473ffffffffffffffffffffffffffffffffffffffff1673ffffffffffffffffffffffffffffffffffffffff1663a8de071e336019604b601060009054906101000a900473ffffffffffffffffffffffffffffffffffffffff1673ffffffffffffffffffffffffffffffffffffffff1663c948338360026040518263ffffffff1660e01b8152600401611f959190614dbc565b60206040518083038186803b158015611fad57600080fd5b505afa158015611fc1573d6000803e3d6000fd5b505050506040513d601f19601f82011682018060405250810190611fe59190614410565b6040518563ffffffff1660e01b81526004016120049493929190614c29565b60206040518083038186803b15801561201c57600080fd5b505afa158015612030573d6000803e3d6000fd5b505050506040513d601f19601f820116820180604052508101906120549190614410565b9250838261206291906154b0565b9150828161207091906154b0565b9050601060009054906101000a900473ffffffffffffffffffffffffffffffffffffffff1673ffffffffffffffffffffffffffffffffffffffff16637b05f7ac85853360036012548b60066040518863ffffffff1660e01b81526004016120dd97969594939291906152c4565b6040805180830381600087803b1580156120f657600080fd5b505af115801561210a573d6000803e3d6000fd5b505050506040513d601f19601f8201168201806040525081019061212e91906144f7565b505060405180610160016040528060125481526020018681526020018381526020018281526020016000815260200160008152602001600081526020016000151581526020016000151581526020016000151581526020013373ffffffffffffffffffffffffffffffffffffffff16815250601360006012548152602001908152602001600020600082015181600001556020820151816001015560408201518160020155606082015181600301556080820151816004015560a0820151816005015560c0820151816006015560e08201518160070160006101000a81548160ff0219169083151502179055506101008201518160070160016101000a81548160ff0219169083151502179055506101208201518160070160026101000a81548160ff0219169083151502179055506101408201518160070160036101000a81548173ffffffffffffffffffffffffffffffffffffffff021916908373ffffffffffffffffffffffffffffffffffffffff1602179055509050506122b433601254613a56565b600f60009054906101000a900473ffffffffffffffffffffffffffffffffffffffff1673ffffffffffffffffffffffffffffffffffffffff166376e4252c336040518263ffffffff1660e01b815260040161230f9190614b62565b602060405180830381600087803b15801561232957600080fd5b505af115801561233d573d6000803e3d6000fd5b505050506040513d601f19601f820116820180604052508101906123619190614410565b507fe29769d48b7b642f33d06124abddad8a79b45be22dcf5f112887ad3aba0ecc4460125486604051612395929190615070565b60405180910390a1601260008154809291906123b0906157c8565b919050555050505050505050565b6123d98383836040518060200160405280600081525061304c565b505050565b600e60009054906101000a900473ffffffffffffffffffffffffffffffffffffffff1681565b600060136000868152602001908152602001600020905060006013600087815260200190815260200160002060070160039054906101000a900473ffffffffffffffffffffffffffffffffffffffff1690508473ffffffffffffffffffffffffffffffffffffffff168173ffffffffffffffffffffffffffffffffffffffff161461248e57600080fd5b83826002015461249e9190615537565b82600201819055508282600301546124b69190615537565b8260030181905550505050505050565b3373ffffffffffffffffffffffffffffffffffffffff16600660009054906101000a900473ffffffffffffffffffffffffffffffffffffffff1673ffffffffffffffffffffffffffffffffffffffff1614612556576040517f08c379a000000000000000000000000000000000000000000000000000000000815260040161254d90614e59565b60405180910390fd5b80601060006101000a81548173ffffffffffffffffffffffffffffffffffffffff021916908373ffffffffffffffffffffffffffffffffffffffff16021790555080600860006101000a81548173ffffffffffffffffffffffffffffffffffffffff021916908373ffffffffffffffffffffffffffffffffffffffff16021790555050565b3373ffffffffffffffffffffffffffffffffffffffff16600660009054906101000a900473ffffffffffffffffffffffffffffffffffffffff1673ffffffffffffffffffffffffffffffffffffffff161461266b576040517f08c379a000000000000000000000000000000000000000000000000000000000815260040161266290614e59565b60405180910390fd5b80600e60006101000a81548173ffffffffffffffffffffffffffffffffffffffff021916908373ffffffffffffffffffffffffffffffffffffffff16021790555050565b6000806002600084815260200190815260200160002060009054906101000a900473ffffffffffffffffffffffffffffffffffffffff169050600073ffffffffffffffffffffffffffffffffffffffff168173ffffffffffffffffffffffffffffffffffffffff161415612758576040517f08c379a000000000000000000000000000000000000000000000000000000000815260040161274f90614f59565b60405180910390fd5b80915050919050565b601060009054906101000a900473ffffffffffffffffffffffffffffffffffffffff1681565b60008073ffffffffffffffffffffffffffffffffffffffff168273ffffffffffffffffffffffffffffffffffffffff1614156127f8576040517f08c379a00000000000000000000000000000000000000000000000000000000081526004016127ef90614f39565b60405180910390fd5b600360008373ffffffffffffffffffffffffffffffffffffffff1673ffffffffffffffffffffffffffffffffffffffff168152602001908152602001600020549050919050565b60003373ffffffffffffffffffffffffffffffffffffffff16600660009054906101000a900473ffffffffffffffffffffffffffffffffffffffff1673ffffffffffffffffffffffffffffffffffffffff16146128d1576040517f08c379a00000000000000000000000000000000000000000000000000000000081526004016128c890614e59565b60405180910390fd5b601254905090565b606060006128e683612787565b9050600081141561294357600067ffffffffffffffff81111561290c5761290b61592c565b5b60405190808252806020026020018201604052801561293a5781602001602082028036833780820191505090505b50915050612a2a565b60008167ffffffffffffffff81111561295f5761295e61592c565b5b60405190808252806020026020018201604052801561298d5781602001602082028036833780820191505090505b509050600060125490506000805b82811015612a21578673ffffffffffffffffffffffffffffffffffffffff166129c3826126af565b73ffffffffffffffffffffffffffffffffffffffff161415612a0e57808483815181106129f3576129f26158fd565b5b6020026020010181815250508180612a0a906157c8565b9250505b8080612a19906157c8565b91505061299b565b83955050505050505b919050565b60136020528060005260406000206000915090508060000154908060010154908060020154908060030154908060040154908060050154908060060154908060070160009054906101000a900460ff16908060070160019054906101000a900460ff16908060070160029054906101000a900460ff16908060070160039054906101000a900473ffffffffffffffffffffffffffffffffffffffff1690508b565b3373ffffffffffffffffffffffffffffffffffffffff16600660009054906101000a900473ffffffffffffffffffffffffffffffffffffffff1673ffffffffffffffffffffffffffffffffffffffff1614612b60576040517f08c379a0000000000000000000000000000000000000000000000000000000008152600401612b5790614e59565b60405180910390fd5b80601160006101000a81548173ffffffffffffffffffffffffffffffffffffffff021916908373ffffffffffffffffffffffffffffffffffffffff16021790555050565b606060018054612bb390615765565b80601f0160208091040260200160405190810160405280929190818152602001828054612bdf90615765565b8015612c2c5780601f10612c0157610100808354040283529160200191612c2c565b820191906000526020600020905b815481529060010190602001808311612c0f57829003601f168201915b5050505050905090565b600f60009054906101000a900473ffffffffffffffffffffffffffffffffffffffff1681565b600860009054906101000a900473ffffffffffffffffffffffffffffffffffffffff1673ffffffffffffffffffffffffffffffffffffffff163373ffffffffffffffffffffffffffffffffffffffff1614612cb657600080fd5b600060136000858152602001908152602001600020905060006013600086815260200190815260200160002060070160039054906101000a900473ffffffffffffffffffffffffffffffffffffffff1690508373ffffffffffffffffffffffffffffffffffffffff168173ffffffffffffffffffffffffffffffffffffffff1614612d4057600080fd5b828260020154612d5091906154b0565b82600201819055505050505050565b612d67613614565b73ffffffffffffffffffffffffffffffffffffffff168273ffffffffffffffffffffffffffffffffffffffff161415612dd5576040517f08c379a0000000000000000000000000000000000000000000000000000000008152600401612dcc90614e99565b60405180910390fd5b8060056000612de2613614565b73ffffffffffffffffffffffffffffffffffffffff1673ffffffffffffffffffffffffffffffffffffffff16815260200190815260200160002060008473ffffffffffffffffffffffffffffffffffffffff1673ffffffffffffffffffffffffffffffffffffffff16815260200190815260200160002060006101000a81548160ff0219169083151502179055508173ffffffffffffffffffffffffffffffffffffffff16612e8f613614565b73ffffffffffffffffffffffffffffffffffffffff167f17307eab39ab6107e8899845ad3d59bd9653f200f220920489ca2b5937696c3183604051612ed49190614d1a565b60405180910390a35050565b600860009054906101000a900473ffffffffffffffffffffffffffffffffffffffff1673ffffffffffffffffffffffffffffffffffffffff163373ffffffffffffffffffffffffffffffffffffffff1614612f3a57600080fd5b600060136000858152602001908152602001600020905060006013600086815260200190815260200160002060070160039054906101000a900473ffffffffffffffffffffffffffffffffffffffff1690508373ffffffffffffffffffffffffffffffffffffffff168173ffffffffffffffffffffffffffffffffffffffff1614612fc457600080fd5b828260030154612fd491906154b0565b82600301819055505050505050565b60003373ffffffffffffffffffffffffffffffffffffffff16600660009054906101000a900473ffffffffffffffffffffffffffffffffffffffff1673ffffffffffffffffffffffffffffffffffffffff1614156130445760019050613049565b600090505b90565b61305d613057613614565b836136d5565b61309c576040517f08c379a000000000000000000000000000000000000000000000000000000000815260040161309390615019565b60405180910390fd5b6130a884848484613a74565b50505050565b6130b6614020565b6013600083815260200190815260200160002060405180610160016040529081600082015481526020016001820154815260200160028201548152602001600382015481526020016004820154815260200160058201548152602001600682015481526020016007820160009054906101000a900460ff161515151581526020016007820160019054906101000a900460ff161515151581526020016007820160029054906101000a900460ff161515151581526020016007820160039054906101000a900473ffffffffffffffffffffffffffffffffffffffff1673ffffffffffffffffffffffffffffffffffffffff1673ffffffffffffffffffffffffffffffffffffffff16815250509050919050565b60606131d4826135a8565b613213576040517f08c379a000000000000000000000000000000000000000000000000000000000815260040161320a90614fd9565b60405180910390fd5b600061321d613ad0565b9050600081511161323d5760405180602001604052806000815250613268565b8061324784613ae7565b604051602001613258929190614b01565b6040516020818303038152906040525b915050919050565b3373ffffffffffffffffffffffffffffffffffffffff16600660009054906101000a900473ffffffffffffffffffffffffffffffffffffffff1673ffffffffffffffffffffffffffffffffffffffff1614613300576040517f08c379a00000000000000000000000000000000000000000000000000000000081526004016132f790614e59565b60405180910390fd5b8060098190555050565b6000600560008473ffffffffffffffffffffffffffffffffffffffff1673ffffffffffffffffffffffffffffffffffffffff16815260200190815260200160002060008373ffffffffffffffffffffffffffffffffffffffff1673ffffffffffffffffffffffffffffffffffffffff16815260200190815260200160002060009054906101000a900460ff16905092915050565b3373ffffffffffffffffffffffffffffffffffffffff16600660009054906101000a900473ffffffffffffffffffffffffffffffffffffffff1673ffffffffffffffffffffffffffffffffffffffff161461342e576040517f08c379a000000000000000000000000000000000000000000000000000000000815260040161342590614e59565b60405180910390fd5b80600f60006101000a81548173ffffffffffffffffffffffffffffffffffffffff021916908373ffffffffffffffffffffffffffffffffffffffff16021790555050565b600060136000868152602001908152602001600020905060006013600087815260200190815260200160002060070160039054906101000a900473ffffffffffffffffffffffffffffffffffffffff1690508473ffffffffffffffffffffffffffffffffffffffff168173ffffffffffffffffffffffffffffffffffffffff16146134fc57600080fd5b83826002015461350c91906154b0565b826002018190555082826003015461352491906154b0565b8260030181905550505050505050565b6000600954905090565b60007f01ffc9a7000000000000000000000000000000000000000000000000000000007bffffffffffffffffffffffffffffffffffffffffffffffffffffffff1916827bffffffffffffffffffffffffffffffffffffffffffffffffffffffff1916149050919050565b60008073ffffffffffffffffffffffffffffffffffffffff166002600084815260200190815260200160002060009054906101000a900473ffffffffffffffffffffffffffffffffffffffff1673ffffffffffffffffffffffffffffffffffffffff1614159050919050565b600033905090565b816004600083815260200190815260200160002060006101000a81548173ffffffffffffffffffffffffffffffffffffffff021916908373ffffffffffffffffffffffffffffffffffffffff160217905550808273ffffffffffffffffffffffffffffffffffffffff1661368f836126af565b73ffffffffffffffffffffffffffffffffffffffff167f8c5be1e5ebec7d5bd14f71427d1e84f3dd0314c0f7b2291e5b200ac8c7c3b92560405160405180910390a45050565b60006136e0826135a8565b61371f576040517f08c379a000000000000000000000000000000000000000000000000000000000815260040161371690614eb9565b60405180910390fd5b600061372a836126af565b90508073ffffffffffffffffffffffffffffffffffffffff168473ffffffffffffffffffffffffffffffffffffffff16148061379957508373ffffffffffffffffffffffffffffffffffffffff1661378184610809565b73ffffffffffffffffffffffffffffffffffffffff16145b806137aa57506137a9818561330a565b5b91505092915050565b8273ffffffffffffffffffffffffffffffffffffffff166137d3826126af565b73ffffffffffffffffffffffffffffffffffffffff1614613829576040517f08c379a000000000000000000000000000000000000000000000000000000000815260040161382090614fb9565b60405180910390fd5b600073ffffffffffffffffffffffffffffffffffffffff168273ffffffffffffffffffffffffffffffffffffffff161415613899576040517f08c379a000000000000000000000000000000000000000000000000000000000815260040161389090614e79565b60405180910390fd5b6138a4838383613c48565b6138af60008261361c565b6001600360008573ffffffffffffffffffffffffffffffffffffffff1673ffffffffffffffffffffffffffffffffffffffff16815260200190815260200160002060008282546138ff9190615537565b925050819055506001600360008473ffffffffffffffffffffffffffffffffffffffff1673ffffffffffffffffffffffffffffffffffffffff168152602001908152602001600020600082825461395691906154b0565b92505081905550816002600083815260200190815260200160002060006101000a81548173ffffffffffffffffffffffffffffffffffffffff021916908373ffffffffffffffffffffffffffffffffffffffff160217905550808273ffffffffffffffffffffffffffffffffffffffff168473ffffffffffffffffffffffffffffffffffffffff167fddf252ad1be2c89b69c2b068fc378daa952ba7f163c4a11628f55a4df523b3ef60405160405180910390a4505050565b600080424433604051602001613a2793929190614b25565b6040516020818303038152906040528051906020012060001c9050600a5481613a50919061583f565b91505090565b613a70828260405180602001604052806000815250613c4d565b5050565b613a7f8484846137b3565b613a8b84848484613ca8565b613aca576040517f08c379a0000000000000000000000000000000000000000000000000000000008152600401613ac190614e19565b60405180910390fd5b50505050565b606060405180602001604052806000815250905090565b60606000821415613b2f576040518060400160405280600181526020017f30000000000000000000000000000000000000000000000000000000000000008152509050613c43565b600082905060005b60008214613b61578080613b4a906157c8565b915050600a82613b5a9190615506565b9150613b37565b60008167ffffffffffffffff811115613b7d57613b7c61592c565b5b6040519080825280601f01601f191660200182016040528015613baf5781602001600182028036833780820191505090505b5090505b60008514613c3c57600182613bc89190615537565b9150600a85613bd7919061583f565b6030613be391906154b0565b60f81b818381518110613bf957613bf86158fd565b5b60200101907effffffffffffffffffffffffffffffffffffffffffffffffffffffffffffff1916908160001a905350600a85613c359190615506565b9450613bb3565b8093505050505b919050565b505050565b613c578383613e3f565b613c646000848484613ca8565b613ca3576040517f08c379a0000000000000000000000000000000000000000000000000000000008152600401613c9a90614e19565b60405180910390fd5b505050565b6000613cc98473ffffffffffffffffffffffffffffffffffffffff1661400d565b15613e32578373ffffffffffffffffffffffffffffffffffffffff1663150b7a02613cf2613614565b8786866040518563ffffffff1660e01b8152600401613d149493929190614bdd565b602060405180830381600087803b158015613d2e57600080fd5b505af1925050508015613d5f57506040513d601f19601f82011682018060405250810190613d5c91906143b6565b60015b613de2573d8060008114613d8f576040519150601f19603f3d011682016040523d82523d6000602084013e613d94565b606091505b50600081511415613dda576040517f08c379a0000000000000000000000000000000000000000000000000000000008152600401613dd190614e19565b60405180910390fd5b805181602001fd5b63150b7a0260e01b7bffffffffffffffffffffffffffffffffffffffffffffffffffffffff1916817bffffffffffffffffffffffffffffffffffffffffffffffffffffffff191614915050613e37565b600190505b949350505050565b600073ffffffffffffffffffffffffffffffffffffffff168273ffffffffffffffffffffffffffffffffffffffff161415613eaf576040517f08c379a0000000000000000000000000000000000000000000000000000000008152600401613ea690614f79565b60405180910390fd5b613eb8816135a8565b15613ef8576040517f08c379a0000000000000000000000000000000000000000000000000000000008152600401613eef90614e39565b60405180910390fd5b613f0460008383613c48565b6001600360008473ffffffffffffffffffffffffffffffffffffffff1673ffffffffffffffffffffffffffffffffffffffff1681526020019081526020016000206000828254613f5491906154b0565b92505081905550816002600083815260200190815260200160002060006101000a81548173ffffffffffffffffffffffffffffffffffffffff021916908373ffffffffffffffffffffffffffffffffffffffff160217905550808273ffffffffffffffffffffffffffffffffffffffff16600073ffffffffffffffffffffffffffffffffffffffff167fddf252ad1be2c89b69c2b068fc378daa952ba7f163c4a11628f55a4df523b3ef60405160405180910390a45050565b600080823b905060008111915050919050565b60405180610160016040528060008152602001600081526020016000815260200160008152602001600081526020016000815260200160008152602001600015158152602001600015158152602001600015158152602001600073ffffffffffffffffffffffffffffffffffffffff1681525090565b60006140a96140a484615403565b6153de565b9050828152602081018484840111156140c5576140c4615960565b5b6140d0848285615723565b509392505050565b6000813590506140e781615e11565b92915050565b6000813590506140fc81615e28565b92915050565b60008151905061411181615e28565b92915050565b60008135905061412681615e3f565b92915050565b60008151905061413b81615e3f565b92915050565b600082601f8301126141565761415561595b565b5b8135614166848260208601614096565b91505092915050565b60008135905061417e81615e56565b92915050565b60008151905061419381615e56565b92915050565b6000602082840312156141af576141ae61596a565b5b60006141bd848285016140d8565b91505092915050565b600080604083850312156141dd576141dc61596a565b5b60006141eb858286016140d8565b92505060206141fc858286016140d8565b9150509250929050565b60008060006060848603121561421f5761421e61596a565b5b600061422d868287016140d8565b935050602061423e868287016140d8565b925050604061424f8682870161416f565b9150509250925092565b600080600080608085870312156142735761427261596a565b5b6000614281878288016140d8565b9450506020614292878288016140d8565b93505060406142a38782880161416f565b925050606085013567ffffffffffffffff8111156142c4576142c3615965565b5b6142d087828801614141565b91505092959194509250565b600080604083850312156142f3576142f261596a565b5b6000614301858286016140d8565b9250506020614312858286016140ed565b9150509250929050565b600080604083850312156143335761433261596a565b5b6000614341858286016140d8565b92505060206143528582860161416f565b9150509250929050565b6000602082840312156143725761437161596a565b5b600061438084828501614102565b91505092915050565b60006020828403121561439f5761439e61596a565b5b60006143ad84828501614117565b91505092915050565b6000602082840312156143cc576143cb61596a565b5b60006143da8482850161412c565b91505092915050565b6000602082840312156143f9576143f861596a565b5b60006144078482850161416f565b91505092915050565b6000602082840312156144265761442561596a565b5b600061443484828501614184565b91505092915050565b6000806000606084860312156144565761445561596a565b5b60006144648682870161416f565b9350506020614475868287016140d8565b92505060406144868682870161416f565b9150509250925092565b600080600080608085870312156144aa576144a961596a565b5b60006144b88782880161416f565b94505060206144c9878288016140d8565b93505060406144da8782880161416f565b92505060606144eb8782880161416f565b91505092959194509250565b6000806040838503121561450e5761450d61596a565b5b600061451c85828601614184565b925050602061452d85828601614184565b9150509250929050565b60006145438383614acc565b60208301905092915050565b6145588161556b565b82525050565b6145678161556b565b82525050565b61457e6145798261556b565b615811565b82525050565b600061458f82615444565b6145998185615472565b93506145a483615434565b8060005b838110156145d55781516145bc8882614537565b97506145c783615465565b9250506001810190506145a8565b5085935050505092915050565b6145eb8161557d565b82525050565b6145fa8161557d565b82525050565b600061460b8261544f565b6146158185615483565b9350614625818560208601615732565b61462e8161596f565b840191505092915050565b614642816155df565b82525050565b61465181615603565b82525050565b61466081615627565b82525050565b61466f8161564b565b82525050565b61467e8161566f565b82525050565b61468d81615681565b82525050565b61469c81615693565b82525050565b6146ab816156a5565b82525050565b6146ba816156b7565b82525050565b6146c9816156c9565b82525050565b6146d8816156db565b82525050565b6146e7816156ed565b82525050565b6146f6816156ff565b82525050565b61470581615711565b82525050565b60006147168261545a565b6147208185615494565b9350614730818560208601615732565b6147398161596f565b840191505092915050565b600061474f8261545a565b61475981856154a5565b9350614769818560208601615732565b80840191505092915050565b6000614782600283615494565b915061478d8261598d565b602082019050919050565b60006147a5603283615494565b91506147b0826159b6565b604082019050919050565b60006147c8601c83615494565b91506147d382615a05565b602082019050919050565b60006147eb600283615494565b91506147f682615a2e565b602082019050919050565b600061480e602483615494565b915061481982615a57565b604082019050919050565b6000614831601983615494565b915061483c82615aa6565b602082019050919050565b6000614854602c83615494565b915061485f82615acf565b604082019050919050565b6000614877600283615494565b915061488282615b1e565b602082019050919050565b600061489a600283615494565b91506148a582615b47565b602082019050919050565b60006148bd603883615494565b91506148c882615b70565b604082019050919050565b60006148e0602a83615494565b91506148eb82615bbf565b604082019050919050565b6000614903602983615494565b915061490e82615c0e565b604082019050919050565b6000614926602083615494565b915061493182615c5d565b602082019050919050565b6000614949602c83615494565b915061495482615c86565b604082019050919050565b600061496c602983615494565b915061497782615cd5565b604082019050919050565b600061498f602f83615494565b915061499a82615d24565b604082019050919050565b60006149b2602183615494565b91506149bd82615d73565b604082019050919050565b60006149d5603183615494565b91506149e082615dc2565b604082019050919050565b61016082016000820151614a026000850182614acc565b506020820151614a156020850182614acc565b506040820151614a286040850182614acc565b506060820151614a3b6060850182614acc565b506080820151614a4e6080850182614acc565b5060a0820151614a6160a0850182614acc565b5060c0820151614a7460c0850182614acc565b5060e0820151614a8760e08501826145e2565b50610100820151614a9c6101008501826145e2565b50610120820151614ab16101208501826145e2565b50610140820151614ac661014085018261454f565b50505050565b614ad5816155d5565b82525050565b614ae4816155d5565b82525050565b614afb614af6826155d5565b615835565b82525050565b6000614b0d8285614744565b9150614b198284614744565b91508190509392505050565b6000614b318286614aea565b602082019150614b418285614aea565b602082019150614b51828461456d565b601482019150819050949350505050565b6000602082019050614b77600083018461455e565b92915050565b6000604082019050614b92600083018561455e565b614b9f602083018461455e565b9392505050565b6000606082019050614bbb600083018661455e565b614bc8602083018561455e565b614bd56040830184614adb565b949350505050565b6000608082019050614bf2600083018761455e565b614bff602083018661455e565b614c0c6040830185614adb565b8181036060830152614c1e8184614600565b905095945050505050565b6000608082019050614c3e600083018761455e565b614c4b6020830186614693565b614c5860408301856146fc565b614c656060830184614adb565b95945050505050565b6000608082019050614c83600083018761455e565b614c9060208301866146cf565b614c9d6040830185614675565b614caa6060830184614adb565b95945050505050565b6000608082019050614cc8600083018761455e565b614cd560208301866146cf565b614ce260408301856146cf565b614cef6060830184614adb565b95945050505050565b60006020820190508181036000830152614d128184614584565b905092915050565b6000602082019050614d2f60008301846145f1565b92915050565b6000602082019050614d4a6000830184614639565b92915050565b6000602082019050614d656000830184614648565b92915050565b6000602082019050614d806000830184614657565b92915050565b6000602082019050614d9b6000830184614666565b92915050565b6000602082019050614db66000830184614684565b92915050565b6000602082019050614dd160008301846146a2565b92915050565b60006020820190508181036000830152614df1818461470b565b905092915050565b60006020820190508181036000830152614e1281614775565b9050919050565b60006020820190508181036000830152614e3281614798565b9050919050565b60006020820190508181036000830152614e52816147bb565b9050919050565b60006020820190508181036000830152614e72816147de565b9050919050565b60006020820190508181036000830152614e9281614801565b9050919050565b60006020820190508181036000830152614eb281614824565b9050919050565b60006020820190508181036000830152614ed281614847565b9050919050565b60006020820190508181036000830152614ef28161486a565b9050919050565b60006020820190508181036000830152614f128161488d565b9050919050565b60006020820190508181036000830152614f32816148b0565b9050919050565b60006020820190508181036000830152614f52816148d3565b9050919050565b60006020820190508181036000830152614f72816148f6565b9050919050565b60006020820190508181036000830152614f9281614919565b9050919050565b60006020820190508181036000830152614fb28161493c565b9050919050565b60006020820190508181036000830152614fd28161495f565b9050919050565b60006020820190508181036000830152614ff281614982565b9050919050565b60006020820190508181036000830152615012816149a5565b9050919050565b60006020820190508181036000830152615032816149c8565b9050919050565b60006101608201905061504f60008301846149eb565b92915050565b600060208201905061506a6000830184614adb565b92915050565b60006040820190506150856000830185614adb565b6150926020830184614adb565b9392505050565b600060e0820190506150ae600083018a614adb565b6150bb6020830189614adb565b6150c8604083018861455e565b6150d56060830187614684565b6150e26080830186614adb565b6150ef60a0830185614adb565b6150fc60c0830184614684565b98975050505050505050565b600060e08201905061511d600083018a614adb565b61512a6020830189614adb565b615137604083018861455e565b6151446060830187614684565b6151516080830186614adb565b61515e60a0830185614adb565b61516b60c08301846146a2565b98975050505050505050565b600060e08201905061518c600083018a614adb565b6151996020830189614adb565b6151a6604083018861455e565b6151b36060830187614684565b6151c06080830186614adb565b6151cd60a0830185614adb565b6151da60c08301846146b1565b98975050505050505050565b600060e0820190506151fb600083018a614adb565b6152086020830189614adb565b615215604083018861455e565b61522260608301876146a2565b61522f6080830186614adb565b61523c60a0830185614adb565b61524960c08301846146c0565b98975050505050505050565b600060e08201905061526a600083018a614adb565b6152776020830189614adb565b615284604083018861455e565b61529160608301876146a2565b61529e6080830186614adb565b6152ab60a0830185614adb565b6152b860c08301846146de565b98975050505050505050565b600060e0820190506152d9600083018a614adb565b6152e66020830189614adb565b6152f3604083018861455e565b61530060608301876146b1565b61530d6080830186614adb565b61531a60a0830185614adb565b61532760c08301846146ed565b98975050505050505050565b600061016082019050615349600083018e614adb565b615356602083018d614adb565b615363604083018c614adb565b615370606083018b614adb565b61537d608083018a614adb565b61538a60a0830189614adb565b61539760c0830188614adb565b6153a460e08301876145f1565b6153b26101008301866145f1565b6153c06101208301856145f1565b6153ce61014083018461455e565b9c9b505050505050505050505050565b60006153e86153f9565b90506153f48282615797565b919050565b6000604051905090565b600067ffffffffffffffff82111561541e5761541d61592c565b5b6154278261596f565b9050602081019050919050565b6000819050602082019050919050565b600081519050919050565b600081519050919050565b600081519050919050565b6000602082019050919050565b600082825260208201905092915050565b600082825260208201905092915050565b600082825260208201905092915050565b600081905092915050565b60006154bb826155d5565b91506154c6836155d5565b9250827fffffffffffffffffffffffffffffffffffffffffffffffffffffffffffffffff038211156154fb576154fa615870565b5b828201905092915050565b6000615511826155d5565b915061551c836155d5565b92508261552c5761552b61589f565b5b828204905092915050565b6000615542826155d5565b915061554d836155d5565b9250828210156155605761555f615870565b5b828203905092915050565b6000615576826155b5565b9050919050565b60008115159050919050565b60007fffffffff0000000000000000000000000000000000000000000000000000000082169050919050565b600073ffffffffffffffffffffffffffffffffffffffff82169050919050565b6000819050919050565b60006155ea826155f1565b9050919050565b60006155fc826155b5565b9050919050565b600061560e82615615565b9050919050565b6000615620826155b5565b9050919050565b600061563282615639565b9050919050565b6000615644826155b5565b9050919050565b60006156568261565d565b9050919050565b6000615668826155b5565b9050919050565b600061567a826155d5565b9050919050565b600061568c826155d5565b9050919050565b600061569e826155d5565b9050919050565b60006156b0826155d5565b9050919050565b60006156c2826155d5565b9050919050565b60006156d4826155d5565b9050919050565b60006156e6826155d5565b9050919050565b60006156f8826155d5565b9050919050565b600061570a826155d5565b9050919050565b600061571c826155d5565b9050919050565b82818337600083830152505050565b60005b83811015615750578082015181840152602081019050615735565b8381111561575f576000848401525b50505050565b6000600282049050600182168061577d57607f821691505b60208210811415615791576157906158ce565b5b50919050565b6157a08261596f565b810181811067ffffffffffffffff821117156157bf576157be61592c565b5b80604052505050565b60006157d3826155d5565b91507fffffffffffffffffffffffffffffffffffffffffffffffffffffffffffffffff82141561580657615805615870565b5b600182019050919050565b600061581c82615823565b9050919050565b600061582e82615980565b9050919050565b6000819050919050565b600061584a826155d5565b9150615855836155d5565b9250826158655761586461589f565b5b828206905092915050565b7f4e487b7100000000000000000000000000000000000000000000000000000000600052601160045260246000fd5b7f4e487b7100000000000000000000000000000000000000000000000000000000600052601260045260246000fd5b7f4e487b7100000000000000000000000000000000000000000000000000000000600052602260045260246000fd5b7f4e487b7100000000000000000000000000000000000000000000000000000000600052603260045260246000fd5b7f4e487b7100000000000000000000000000000000000000000000000000000000600052604160045260246000fd5b600080fd5b600080fd5b600080fd5b600080fd5b6000601f19601f8301169050919050565b60008160601b9050919050565b7f4231000000000000000000000000000000000000000000000000000000000000600082015250565b7f4552433732313a207472616e7366657220746f206e6f6e20455243373231526560008201527f63656976657220696d706c656d656e7465720000000000000000000000000000602082015250565b7f4552433732313a20746f6b656e20616c7265616479206d696e74656400000000600082015250565b7f4131000000000000000000000000000000000000000000000000000000000000600082015250565b7f4552433732313a207472616e7366657220746f20746865207a65726f2061646460008201527f7265737300000000000000000000000000000000000000000000000000000000602082015250565b7f4552433732313a20617070726f766520746f2063616c6c657200000000000000600082015250565b7f4552433732313a206f70657261746f7220717565727920666f72206e6f6e657860008201527f697374656e7420746f6b656e0000000000000000000000000000000000000000602082015250565b7f4130000000000000000000000000000000000000000000000000000000000000600082015250565b7f5430000000000000000000000000000000000000000000000000000000000000600082015250565b7f4552433732313a20617070726f76652063616c6c6572206973206e6f74206f7760008201527f6e6572206e6f7220617070726f76656420666f7220616c6c0000000000000000602082015250565b7f4552433732313a2062616c616e636520717565727920666f7220746865207a6560008201527f726f206164647265737300000000000000000000000000000000000000000000602082015250565b7f4552433732313a206f776e657220717565727920666f72206e6f6e657869737460008201527f656e7420746f6b656e0000000000000000000000000000000000000000000000602082015250565b7f4552433732313a206d696e7420746f20746865207a65726f2061646472657373600082015250565b7f4552433732313a20617070726f76656420717565727920666f72206e6f6e657860008201527f697374656e7420746f6b656e0000000000000000000000000000000000000000602082015250565b7f4552433732313a207472616e73666572206f6620746f6b656e2074686174206960008201527f73206e6f74206f776e0000000000000000000000000000000000000000000000602082015250565b7f4552433732314d657461646174613a2055524920717565727920666f72206e6f60008201527f6e6578697374656e7420746f6b656e0000000000000000000000000000000000602082015250565b7f4552433732313a20617070726f76616c20746f2063757272656e74206f776e6560008201527f7200000000000000000000000000000000000000000000000000000000000000602082015250565b7f4552433732313a207472616e736665722063616c6c6572206973206e6f74206f60008201527f776e6572206e6f7220617070726f766564000000000000000000000000000000602082015250565b615e1a8161556b565b8114615e2557600080fd5b50565b615e318161557d565b8114615e3c57600080fd5b50565b615e4881615589565b8114615e5357600080fd5b50565b615e5f816155d5565b8114615e6a57600080fd5b5056fea2646970667358221220e5dd7f670a414d7f2b157d749df205cff775384f9f79f23d82545246eb2ed47464736f6c63430008060033",
  "immutableReferences": {},
  "source": "// SPDX-License-Identifier: MIT\r\npragma solidity >=0.4.22 <0.9.0;\r\n\r\nimport \"../node_modules/@openzeppelin/contracts/token/ERC721/ERC721.sol\";\r\n//import \"../node_modules/@openzeppelin/contracts/token/ERC721/IERC721.sol\";\r\nimport \"../node_modules/@openzeppelin/contracts/token/ERC20/IERC20.sol\";\r\n// import \"../node_modules/@openzeppelin/contracts/access/Ownable.sol\";\r\n// import \"../node_modules/@openzeppelin/contracts/security/ReentrancyGuard.sol\";\r\n//import \"../node_modules/@openzeppelin/contracts/token/ERC1155/IERC1155.sol\";\r\nimport \"../contracts/PBPlayers.sol\";\r\nimport \"../contracts/PBXP.sol\";\r\nimport \"../contracts/PBMatchupValidation.sol\";\r\n\r\ncontract PBTeams is ERC721 {\r\n\r\n    address admin;\r\n    address pbxpAddress;\r\n    address pbPlayersAddress;\r\n    uint teamMintCost;\r\n    uint dnaModulus = 10 ** 16;\r\n    uint playersPerTeam = 6;\r\n    uint bellCurveIterations = 4;\r\n    uint PBXPtokenId = 0;\r\n  \r\n    IERC20 public buddies;\r\n    PBXP public PBXPToken;\r\n    PBPlayers public pbPlayers;\r\n    PBMatchupValidation public pbMatchupValidation;\r\n    \r\n\r\n\r\nevent NewTeam(uint nextId, uint dna);\r\n\r\nstruct Team{\r\n    uint teamId;\r\n    uint teamDna;\r\n    uint teamTotalOP;\r\n    uint teamTotalDP;\r\n    uint activeTimestamp1;\r\n    uint activeTimestamp2;\r\n    uint activeTimestamp3;\r\n    bool lastMatchWon1;\r\n    bool lastMatchWon2;\r\n    bool lastMatchWon3;\r\n    address ownerAddress;\r\n\r\n}\r\n\r\nuint nextId = 0;\r\n\r\nmapping (uint => Team) public _tokenDetails;\r\n\r\n\r\nconstructor(uint _teamMintCost, address _buddiesCoinAddress, address _pbxpAddress, address _pbPlayersAddress) ERC721(\"Puck Buddies Team\", \"PBT\"){\r\n    admin = msg.sender;\r\n    teamMintCost = _teamMintCost;\r\n    buddies = IERC20(_buddiesCoinAddress);\r\n    PBXPToken = PBXP(_pbxpAddress);\r\n    pbPlayers = PBPlayers(_pbPlayersAddress); \r\n    pbPlayersAddress = _pbPlayersAddress;\r\n}\r\n\r\nmodifier onlyAdmin() {\r\n        require(admin == msg.sender, \"A1\" );\r\n        _;\r\n}\r\n\r\nfunction isAdmin() public view returns (bool){\r\n        if(admin == msg.sender){\r\n            return true;\r\n        } else return false;\r\n}\r\n\r\nfunction getPBTeamsAddress() public view returns (address){\r\n    return address(this);\r\n}\r\n\r\nfunction getTeamMintCost() public view returns (uint){\r\n    return teamMintCost;\r\n}\r\n\r\nfunction getTeamsCount() public view onlyAdmin returns(uint){\r\n    return nextId;\r\n}\r\n\r\nfunction updateBuddiesCoinAddress(address _buddiesCoinAddress) external onlyAdmin {\r\n        buddies = IERC20(_buddiesCoinAddress);\r\n}\r\n\r\nfunction updatePbxpAddress(address _pbxpAddress) external onlyAdmin{\r\n        PBXPToken = PBXP(_pbxpAddress);\r\n} \r\n\r\nfunction updatePuckBuddiePlayersAddress(address _pbPlayersAddress) external onlyAdmin{\r\n        pbPlayers = PBPlayers(_pbPlayersAddress);\r\n        pbPlayersAddress = _pbPlayersAddress;        \r\n} \r\n\r\nfunction updatePBMatchupValidationAddress(address _pbMatchupValidationAddress) external onlyAdmin {\r\n        pbMatchupValidation = PBMatchupValidation(_pbMatchupValidationAddress);\r\n}\r\n\r\nfunction updateTeamMintCost(uint _teamMintCost) public onlyAdmin {\r\n    teamMintCost = _teamMintCost;\r\n}\r\n\r\nfunction getTokenDetails(uint tokenId) public view returns (Team memory){\r\n        return _tokenDetails[tokenId];\r\n}\r\n\r\nfunction getAllTokensForUser(address user) public view returns (uint256[] memory){\r\n        uint256 tokenCount = balanceOf(user);\r\n        if(tokenCount == 0){\r\n            return new uint256[](0);\r\n        }\r\n        else{\r\n            uint[] memory result = new uint256[](tokenCount);\r\n            uint256 totalTeams = nextId;\r\n            uint256 resultIndex = 0;\r\n            uint256 i;\r\n            for(i = 0; i < totalTeams; i++){\r\n                if(ownerOf(i) == user){\r\n                    result[resultIndex] = i;\r\n                    resultIndex++;\r\n                }\r\n            }\r\n            return result;\r\n        }\r\n    }\r\n\r\nfunction _generateRandDna () private view returns (uint){\r\n        uint rand = uint(keccak256(abi.encodePacked(block.timestamp, block.difficulty, msg.sender)));\r\n        return rand % dnaModulus;\r\n}\r\n\r\nfunction mintTeam(uint value) external {\r\n    if(nextId == 0){\r\n        require(msg.sender == admin, \"A0\");\r\n    }\r\n    require(balanceOf(msg.sender) < 1, \"T0\");\r\n    uint allowance = buddies.allowance(msg.sender, address(this));\r\n    require(allowance >= value, \"B1\");\r\n    buddies.transferFrom(msg.sender, pbPlayersAddress, value);\r\n    uint dna = _generateRandDna();\r\n    uint randOp;\r\n    uint randDp;\r\n    uint totOp = 0;\r\n    uint totDp = 0;\r\n    //New Stuff\r\n    randOp = pbPlayers._generateRandAtrrib(msg.sender, 50, 50, pbPlayers._randHelper(1));\r\n    randDp = pbPlayers._generateRandAtrrib(msg.sender, 50, 0, pbPlayers._randHelper(2));\r\n    totOp = totOp + randOp;\r\n    totDp = totDp + randDp;\r\n    pbPlayers.mintPlayerToTeam(randOp,randDp, msg.sender,1,nextId,dna,1); //Offence 1\r\n\r\n    randOp = pbPlayers._generateRandAtrrib(msg.sender, 50, 50, pbPlayers._randHelper(1));\r\n    randDp = pbPlayers._generateRandAtrrib(msg.sender, 50, 0, pbPlayers._randHelper(2));\r\n    totOp = totOp + randOp;\r\n    totDp = totDp + randDp;\r\n    pbPlayers.mintPlayerToTeam(randOp,randDp,msg.sender,1,nextId,dna,2); //Offence 2\r\n\r\n    randOp = pbPlayers._generateRandAtrrib(msg.sender, 50, 50, pbPlayers._randHelper(1));\r\n    randDp = pbPlayers._generateRandAtrrib(msg.sender, 50, 0, pbPlayers._randHelper(2));\r\n    totOp = totOp + randOp;\r\n    totDp = totDp + randDp;\r\n    pbPlayers.mintPlayerToTeam(randOp,randDp,msg.sender,1,nextId,dna,3); //Offence 3\r\n\r\n    randOp = pbPlayers._generateRandAtrrib(msg.sender, 50, 0, pbPlayers._randHelper(1));\r\n    randDp = pbPlayers._generateRandAtrrib(msg.sender, 50, 50, pbPlayers._randHelper(2));\r\n    totOp = totOp + randOp;\r\n    totDp = totDp + randDp;\r\n    pbPlayers.mintPlayerToTeam(randOp,randDp,msg.sender,2,nextId,dna,4); //Defence 1\r\n\r\n    randOp = pbPlayers._generateRandAtrrib(msg.sender, 50, 0, pbPlayers._randHelper(1));\r\n    randDp = pbPlayers._generateRandAtrrib(msg.sender, 50, 50, pbPlayers._randHelper(2));\r\n    totOp = totOp + randOp;\r\n    totDp = totDp + randDp;\r\n    pbPlayers.mintPlayerToTeam(randOp,randDp,msg.sender,2,nextId,dna,5); //Defence 2\r\n\r\n    randOp = 0;\r\n    randDp = pbPlayers._generateRandAtrrib(msg.sender, 25, 75, pbPlayers._randHelper(2));\r\n    totOp = totOp + randOp;\r\n    totDp = totDp + randDp;\r\n    pbPlayers.mintPlayerToTeam(randOp,randDp,msg.sender,3,nextId,dna,6); //Goalie\r\n\r\n    _tokenDetails[nextId] = Team(nextId, dna,totOp,totDp,0,0,0,false,false,false,msg.sender);\r\n    _safeMint(msg.sender, nextId);\r\n    PBXPToken.newTeamPBXP(msg.sender);\r\n    //End New stuff\r\n    emit NewTeam(nextId, dna);\r\n    nextId++;\r\n}\r\n\r\nfunction addStatsToTeam(uint teamId, address teamOwner, uint playerop, uint playerdp) public {\r\n    Team storage team = _tokenDetails[teamId];\r\n    address ownersAddress = _tokenDetails[teamId].ownerAddress;\r\n    require(ownersAddress == teamOwner);\r\n    team.teamTotalOP = team.teamTotalOP + playerop;\r\n    team.teamTotalDP = team.teamTotalDP + playerdp;    \r\n}\r\n\r\nfunction removeStatsFromTeam(uint teamId, address teamOwner, uint playerop, uint playerdp) public {\r\n    Team storage team = _tokenDetails[teamId];\r\n    address ownersAddress = _tokenDetails[teamId].ownerAddress;\r\n    require(ownersAddress == teamOwner);\r\n    team.teamTotalOP = team.teamTotalOP - playerop;\r\n    team.teamTotalDP = team.teamTotalDP - playerdp;      \r\n}\r\n\r\nfunction addOPToTeam(uint teamId, address teamOwner, uint playerop) public  {\r\n    require(msg.sender == pbPlayersAddress);\r\n    Team storage team = _tokenDetails[teamId];\r\n    address ownersAddress = _tokenDetails[teamId].ownerAddress;\r\n    require(ownersAddress == teamOwner);\r\n    team.teamTotalOP = team.teamTotalOP + playerop;   \r\n}\r\n\r\nfunction addDPToTeam(uint teamId, address teamOwner, uint playerdp) public  {\r\n    require(msg.sender == pbPlayersAddress);\r\n    Team storage team = _tokenDetails[teamId];\r\n    address ownersAddress = _tokenDetails[teamId].ownerAddress;\r\n    require(ownersAddress == teamOwner);\r\n    team.teamTotalDP = team.teamTotalDP + playerdp;    \r\n}\r\n\r\n\r\n}",
  "sourcePath": "O:\\Projects\\puck-buddies\\contracts\\PBTeams.sol",
  "compiler": {
    "name": "solc",
    "version": "0.8.6+commit.11564f7e.Emscripten.clang"
  },
  "schemaVersion": "3.4.3",
  "updatedAt": "2021-11-09T06:05:32.472Z",
  "networkType": "ethereum",
  "devdoc": {
    "kind": "dev",
    "methods": {
      "approve(address,uint256)": {
        "details": "See {IERC721-approve}."
      },
      "balanceOf(address)": {
        "details": "See {IERC721-balanceOf}."
      },
      "getApproved(uint256)": {
        "details": "See {IERC721-getApproved}."
      },
      "isApprovedForAll(address,address)": {
        "details": "See {IERC721-isApprovedForAll}."
      },
      "name()": {
        "details": "See {IERC721Metadata-name}."
      },
      "ownerOf(uint256)": {
        "details": "See {IERC721-ownerOf}."
      },
      "safeTransferFrom(address,address,uint256)": {
        "details": "See {IERC721-safeTransferFrom}."
      },
      "safeTransferFrom(address,address,uint256,bytes)": {
        "details": "See {IERC721-safeTransferFrom}."
      },
      "setApprovalForAll(address,bool)": {
        "details": "See {IERC721-setApprovalForAll}."
      },
      "supportsInterface(bytes4)": {
        "details": "See {IERC165-supportsInterface}."
      },
      "symbol()": {
        "details": "See {IERC721Metadata-symbol}."
      },
      "tokenURI(uint256)": {
        "details": "See {IERC721Metadata-tokenURI}."
      },
      "transferFrom(address,address,uint256)": {
        "details": "See {IERC721-transferFrom}."
      }
    },
    "version": 1
  },
  "userdoc": {
    "kind": "user",
    "methods": {},
    "version": 1
  }
}