{
  "contractName": "PBXP",
  "abi": [
    {
      "inputs": [
        {
          "internalType": "address",
          "name": "_buddiesCoinAddress",
          "type": "address"
        },
        {
          "internalType": "address",
          "name": "_pbPlayersAddress",
          "type": "address"
        },
        {
          "internalType": "uint256",
          "name": "_upgradeCost",
          "type": "uint256"
        }
      ],
      "stateMutability": "nonpayable",
      "type": "constructor"
    },
    {
      "anonymous": false,
      "inputs": [
        {
          "indexed": true,
          "internalType": "address",
          "name": "account",
          "type": "address"
        },
        {
          "indexed": true,
          "internalType": "address",
          "name": "operator",
          "type": "address"
        },
        {
          "indexed": false,
          "internalType": "bool",
          "name": "approved",
          "type": "bool"
        }
      ],
      "name": "ApprovalForAll",
      "type": "event"
    },
    {
      "anonymous": false,
      "inputs": [
        {
          "indexed": true,
          "internalType": "address",
          "name": "operator",
          "type": "address"
        },
        {
          "indexed": true,
          "internalType": "address",
          "name": "from",
          "type": "address"
        },
        {
          "indexed": true,
          "internalType": "address",
          "name": "to",
          "type": "address"
        },
        {
          "indexed": false,
          "internalType": "uint256[]",
          "name": "ids",
          "type": "uint256[]"
        },
        {
          "indexed": false,
          "internalType": "uint256[]",
          "name": "values",
          "type": "uint256[]"
        }
      ],
      "name": "TransferBatch",
      "type": "event"
    },
    {
      "anonymous": false,
      "inputs": [
        {
          "indexed": true,
          "internalType": "address",
          "name": "operator",
          "type": "address"
        },
        {
          "indexed": true,
          "internalType": "address",
          "name": "from",
          "type": "address"
        },
        {
          "indexed": true,
          "internalType": "address",
          "name": "to",
          "type": "address"
        },
        {
          "indexed": false,
          "internalType": "uint256",
          "name": "id",
          "type": "uint256"
        },
        {
          "indexed": false,
          "internalType": "uint256",
          "name": "value",
          "type": "uint256"
        }
      ],
      "name": "TransferSingle",
      "type": "event"
    },
    {
      "anonymous": false,
      "inputs": [
        {
          "indexed": false,
          "internalType": "string",
          "name": "value",
          "type": "string"
        },
        {
          "indexed": true,
          "internalType": "uint256",
          "name": "id",
          "type": "uint256"
        }
      ],
      "name": "URI",
      "type": "event"
    },
    {
      "inputs": [],
      "name": "PBXPTokenId",
      "outputs": [
        {
          "internalType": "uint256",
          "name": "",
          "type": "uint256"
        }
      ],
      "stateMutability": "view",
      "type": "function"
    },
    {
      "inputs": [],
      "name": "admin",
      "outputs": [
        {
          "internalType": "address",
          "name": "",
          "type": "address"
        }
      ],
      "stateMutability": "view",
      "type": "function"
    },
    {
      "inputs": [
        {
          "internalType": "address",
          "name": "account",
          "type": "address"
        },
        {
          "internalType": "uint256",
          "name": "id",
          "type": "uint256"
        }
      ],
      "name": "balanceOf",
      "outputs": [
        {
          "internalType": "uint256",
          "name": "",
          "type": "uint256"
        }
      ],
      "stateMutability": "view",
      "type": "function"
    },
    {
      "inputs": [
        {
          "internalType": "address[]",
          "name": "accounts",
          "type": "address[]"
        },
        {
          "internalType": "uint256[]",
          "name": "ids",
          "type": "uint256[]"
        }
      ],
      "name": "balanceOfBatch",
      "outputs": [
        {
          "internalType": "uint256[]",
          "name": "",
          "type": "uint256[]"
        }
      ],
      "stateMutability": "view",
      "type": "function"
    },
    {
      "inputs": [],
      "name": "buddies",
      "outputs": [
        {
          "internalType": "contract IERC20",
          "name": "",
          "type": "address"
        }
      ],
      "stateMutability": "view",
      "type": "function"
    },
    {
      "inputs": [
        {
          "internalType": "address",
          "name": "account",
          "type": "address"
        },
        {
          "internalType": "address",
          "name": "operator",
          "type": "address"
        }
      ],
      "name": "isApprovedForAll",
      "outputs": [
        {
          "internalType": "bool",
          "name": "",
          "type": "bool"
        }
      ],
      "stateMutability": "view",
      "type": "function"
    },
    {
      "inputs": [],
      "name": "myTeamsContract",
      "outputs": [
        {
          "internalType": "contract IERC721",
          "name": "",
          "type": "address"
        }
      ],
      "stateMutability": "view",
      "type": "function"
    },
    {
      "inputs": [],
      "name": "pbPlayers",
      "outputs": [
        {
          "internalType": "contract PBPlayers",
          "name": "",
          "type": "address"
        }
      ],
      "stateMutability": "view",
      "type": "function"
    },
    {
      "inputs": [
        {
          "internalType": "address",
          "name": "from",
          "type": "address"
        },
        {
          "internalType": "address",
          "name": "to",
          "type": "address"
        },
        {
          "internalType": "uint256[]",
          "name": "ids",
          "type": "uint256[]"
        },
        {
          "internalType": "uint256[]",
          "name": "amounts",
          "type": "uint256[]"
        },
        {
          "internalType": "bytes",
          "name": "data",
          "type": "bytes"
        }
      ],
      "name": "safeBatchTransferFrom",
      "outputs": [],
      "stateMutability": "nonpayable",
      "type": "function"
    },
    {
      "inputs": [
        {
          "internalType": "address",
          "name": "from",
          "type": "address"
        },
        {
          "internalType": "address",
          "name": "to",
          "type": "address"
        },
        {
          "internalType": "uint256",
          "name": "id",
          "type": "uint256"
        },
        {
          "internalType": "uint256",
          "name": "amount",
          "type": "uint256"
        },
        {
          "internalType": "bytes",
          "name": "data",
          "type": "bytes"
        }
      ],
      "name": "safeTransferFrom",
      "outputs": [],
      "stateMutability": "nonpayable",
      "type": "function"
    },
    {
      "inputs": [
        {
          "internalType": "address",
          "name": "operator",
          "type": "address"
        },
        {
          "internalType": "bool",
          "name": "approved",
          "type": "bool"
        }
      ],
      "name": "setApprovalForAll",
      "outputs": [],
      "stateMutability": "nonpayable",
      "type": "function"
    },
    {
      "inputs": [
        {
          "internalType": "bytes4",
          "name": "interfaceId",
          "type": "bytes4"
        }
      ],
      "name": "supportsInterface",
      "outputs": [
        {
          "internalType": "bool",
          "name": "",
          "type": "bool"
        }
      ],
      "stateMutability": "view",
      "type": "function"
    },
    {
      "inputs": [
        {
          "internalType": "uint256",
          "name": "",
          "type": "uint256"
        }
      ],
      "name": "uri",
      "outputs": [
        {
          "internalType": "string",
          "name": "",
          "type": "string"
        }
      ],
      "stateMutability": "view",
      "type": "function"
    },
    {
      "inputs": [],
      "name": "isAdmin",
      "outputs": [
        {
          "internalType": "bool",
          "name": "",
          "type": "bool"
        }
      ],
      "stateMutability": "view",
      "type": "function"
    },
    {
      "inputs": [],
      "name": "getPBXPAddress",
      "outputs": [
        {
          "internalType": "address",
          "name": "",
          "type": "address"
        }
      ],
      "stateMutability": "view",
      "type": "function"
    },
    {
      "inputs": [
        {
          "internalType": "address",
          "name": "_buddiesCoinAddress",
          "type": "address"
        }
      ],
      "name": "updateBuddiesCoinAddress",
      "outputs": [],
      "stateMutability": "nonpayable",
      "type": "function"
    },
    {
      "inputs": [
        {
          "internalType": "uint256",
          "name": "_PBXPTokenId",
          "type": "uint256"
        }
      ],
      "name": "updatePBXPTokenId",
      "outputs": [],
      "stateMutability": "nonpayable",
      "type": "function"
    },
    {
      "inputs": [
        {
          "internalType": "address",
          "name": "_pbTeamsAddress",
          "type": "address"
        }
      ],
      "name": "updatePBTeamsAddress",
      "outputs": [],
      "stateMutability": "nonpayable",
      "type": "function"
    },
    {
      "inputs": [
        {
          "internalType": "address",
          "name": "_pbPlayersAddress",
          "type": "address"
        }
      ],
      "name": "updatePBPlayersAddress",
      "outputs": [],
      "stateMutability": "nonpayable",
      "type": "function"
    },
    {
      "inputs": [
        {
          "internalType": "address",
          "name": "_pbPvCAddress",
          "type": "address"
        }
      ],
      "name": "updatePBPvCAddress",
      "outputs": [],
      "stateMutability": "nonpayable",
      "type": "function"
    },
    {
      "inputs": [
        {
          "internalType": "address",
          "name": "_pbMatchupsAddress",
          "type": "address"
        }
      ],
      "name": "updatePBMatchupsAddress",
      "outputs": [],
      "stateMutability": "nonpayable",
      "type": "function"
    },
    {
      "inputs": [],
      "name": "getUpgradeCost",
      "outputs": [
        {
          "internalType": "uint256",
          "name": "",
          "type": "uint256"
        }
      ],
      "stateMutability": "view",
      "type": "function"
    },
    {
      "inputs": [
        {
          "internalType": "uint256",
          "name": "token",
          "type": "uint256"
        },
        {
          "internalType": "uint256",
          "name": "initalSupply",
          "type": "uint256"
        }
      ],
      "name": "newProduct",
      "outputs": [],
      "stateMutability": "nonpayable",
      "type": "function"
    },
    {
      "inputs": [
        {
          "internalType": "address",
          "name": "mintToAddress",
          "type": "address"
        },
        {
          "internalType": "uint256",
          "name": "qty",
          "type": "uint256"
        },
        {
          "internalType": "uint256",
          "name": "token",
          "type": "uint256"
        }
      ],
      "name": "newPBXPtoAddress",
      "outputs": [
        {
          "internalType": "uint256",
          "name": "",
          "type": "uint256"
        }
      ],
      "stateMutability": "nonpayable",
      "type": "function"
    },
    {
      "inputs": [
        {
          "internalType": "address",
          "name": "owner",
          "type": "address"
        },
        {
          "internalType": "uint256",
          "name": "token",
          "type": "uint256"
        },
        {
          "internalType": "uint256",
          "name": "qty",
          "type": "uint256"
        }
      ],
      "name": "burnItems",
      "outputs": [],
      "stateMutability": "nonpayable",
      "type": "function"
    },
    {
      "inputs": [
        {
          "internalType": "address",
          "name": "earnerAddress",
          "type": "address"
        },
        {
          "internalType": "uint256",
          "name": "qty",
          "type": "uint256"
        }
      ],
      "name": "earnPBXP",
      "outputs": [],
      "stateMutability": "nonpayable",
      "type": "function"
    },
    {
      "inputs": [
        {
          "internalType": "uint256",
          "name": "tokenId",
          "type": "uint256"
        },
        {
          "internalType": "uint256",
          "name": "statType",
          "type": "uint256"
        },
        {
          "internalType": "uint256",
          "name": "qty",
          "type": "uint256"
        },
        {
          "internalType": "uint256",
          "name": "xp",
          "type": "uint256"
        }
      ],
      "name": "increaseStats",
      "outputs": [],
      "stateMutability": "nonpayable",
      "type": "function"
    }
  ],
  "bytecode": "0x608060405260006003553480156200001657600080fd5b50604051620044da380380620044da83398181016040528101906200003c91906200022b565b604051806020016040528060008152506200005d816200013160201b60201c565b5033600460006101000a81548173ffffffffffffffffffffffffffffffffffffffff021916908373ffffffffffffffffffffffffffffffffffffffff16021790555082600b60006101000a81548173ffffffffffffffffffffffffffffffffffffffff021916908373ffffffffffffffffffffffffffffffffffffffff16021790555081600a60006101000a81548173ffffffffffffffffffffffffffffffffffffffff021916908373ffffffffffffffffffffffffffffffffffffffff1602179055508060088190555050505062000363565b8060029080519060200190620001499291906200014d565b5050565b8280546200015b90620002c5565b90600052602060002090601f0160209004810192826200017f5760008555620001cb565b82601f106200019a57805160ff1916838001178555620001cb565b82800160010185558215620001cb579182015b82811115620001ca578251825591602001919060010190620001ad565b5b509050620001da9190620001de565b5090565b5b80821115620001f9576000816000905550600101620001df565b5090565b6000815190506200020e816200032f565b92915050565b600081519050620002258162000349565b92915050565b6000806000606084860312156200024757620002466200032a565b5b60006200025786828701620001fd565b93505060206200026a86828701620001fd565b92505060406200027d8682870162000214565b9150509250925092565b600062000294826200029b565b9050919050565b600073ffffffffffffffffffffffffffffffffffffffff82169050919050565b6000819050919050565b60006002820490506001821680620002de57607f821691505b60208210811415620002f557620002f4620002fb565b5b50919050565b7f4e487b7100000000000000000000000000000000000000000000000000000000600052602260045260246000fd5b600080fd5b6200033a8162000287565b81146200034657600080fd5b50565b6200035481620002bb565b81146200036057600080fd5b50565b61416780620003736000396000f3fe608060405234801561001057600080fd5b50600436106101a85760003560e01c806363eaef5a116100f9578063c43df89a11610097578063e985e9c511610071578063e985e9c5146104a3578063f242432a146104d3578063f7e7b207146104ef578063f851a4401461050b576101a8565b8063c43df89a1461044d578063c654594314610469578063d0ffcce314610485576101a8565b8063a22cb465116100d3578063a22cb465146103d9578063a748de1b146103f5578063a87b14f514610411578063b6db75a01461042f576101a8565b806363eaef5a146103835780636bf082da146103a15780639616cc94146103bd576101a8565b80633775d177116101665780634c97073c116101405780634c97073c146102eb5780634e1273f414610307578063502d949c146103375780635d632faf14610367576101a8565b80633775d17714610293578063408581a6146102b15780634a594c12146102cd576101a8565b8062fdd58e146101ad57806301ffc9a7146101dd5780630e89341c1461020d578063120754d01461023d57806329fe5ebc1461025b5780632eb2c2d614610277575b600080fd5b6101c760048036038101906101c29190612dbb565b610529565b6040516101d491906136e1565b60405180910390f35b6101f760048036038101906101f29190612ec6565b6105f2565b6040516102049190613493565b60405180910390f35b61022760048036038101906102229190612f4e565b6106d4565b60405161023491906134ff565b60405180910390f35b610245610768565b60405161025291906136e1565b60405180910390f35b61027560048036038101906102709190612b7b565b610772565b005b610291600480360381019061028c9190612c15565b610846565b005b61029b6108e7565b6040516102a891906136e1565b60405180910390f35b6102cb60048036038101906102c69190612f4e565b6108ed565b005b6102d5610987565b6040516102e291906134ae565b60405180910390f35b61030560048036038101906103009190612dfb565b6109ad565b005b610321600480360381019061031c9190612e4e565b610a4d565b60405161032e919061343a565b60405180910390f35b610351600480360381019061034c9190612dfb565b610b66565b60405161035e91906136e1565b60405180910390f35b610381600480360381019061037c9190612b7b565b610c2c565b005b61038b610d00565b60405161039891906134e4565b60405180910390f35b6103bb60048036038101906103b69190612b7b565b610d26565b005b6103d760048036038101906103d29190612b7b565b610dfa565b005b6103f360048036038101906103ee9190612d7b565b610ece565b005b61040f600480360381019061040a9190612f7b565b61104f565b005b6104196110fe565b60405161042691906134c9565b60405180910390f35b610437611124565b6040516104449190613493565b60405180910390f35b61046760048036038101906104629190612dbb565b61118d565b005b610483600480360381019061047e9190612b7b565b6112b8565b005b61048d61138c565b60405161049a919061335d565b60405180910390f35b6104bd60048036038101906104b89190612bd5565b611394565b6040516104ca9190613493565b60405180910390f35b6104ed60048036038101906104e89190612ce4565b611428565b005b61050960048036038101906105049190612fbb565b6114c9565b005b610513611a18565b604051610520919061335d565b60405180910390f35b60008073ffffffffffffffffffffffffffffffffffffffff168373ffffffffffffffffffffffffffffffffffffffff16141561059a576040517f08c379a000000000000000000000000000000000000000000000000000000000815260040161059190613561565b60405180910390fd5b60008083815260200190815260200160002060008473ffffffffffffffffffffffffffffffffffffffff1673ffffffffffffffffffffffffffffffffffffffff16815260200190815260200160002054905092915050565b60007fd9b67a26000000000000000000000000000000000000000000000000000000007bffffffffffffffffffffffffffffffffffffffffffffffffffffffff1916827bffffffffffffffffffffffffffffffffffffffffffffffffffffffff191614806106bd57507f0e89341c000000000000000000000000000000000000000000000000000000007bffffffffffffffffffffffffffffffffffffffffffffffffffffffff1916827bffffffffffffffffffffffffffffffffffffffffffffffffffffffff1916145b806106cd57506106cc82611a3e565b5b9050919050565b6060600280546106e390613a4d565b80601f016020809104026020016040519081016040528092919081815260200182805461070f90613a4d565b801561075c5780601f106107315761010080835404028352916020019161075c565b820191906000526020600020905b81548152906001019060200180831161073f57829003601f168201915b50505050509050919050565b6000600854905090565b600460009054906101000a900473ffffffffffffffffffffffffffffffffffffffff1673ffffffffffffffffffffffffffffffffffffffff163373ffffffffffffffffffffffffffffffffffffffff1614610802576040517f08c379a00000000000000000000000000000000000000000000000000000000081526004016107f9906135c1565b60405180910390fd5b80600660006101000a81548173ffffffffffffffffffffffffffffffffffffffff021916908373ffffffffffffffffffffffffffffffffffffffff16021790555050565b61084e611aa8565b73ffffffffffffffffffffffffffffffffffffffff168573ffffffffffffffffffffffffffffffffffffffff16148061089457506108938561088e611aa8565b611394565b5b6108d3576040517f08c379a00000000000000000000000000000000000000000000000000000000081526004016108ca90613601565b60405180910390fd5b6108e08585858585611ab0565b5050505050565b60035481565b600460009054906101000a900473ffffffffffffffffffffffffffffffffffffffff1673ffffffffffffffffffffffffffffffffffffffff163373ffffffffffffffffffffffffffffffffffffffff161461097d576040517f08c379a0000000000000000000000000000000000000000000000000000000008152600401610974906135c1565b60405180910390fd5b8060038190555050565b600b60009054906101000a900473ffffffffffffffffffffffffffffffffffffffff1681565b600460009054906101000a900473ffffffffffffffffffffffffffffffffffffffff1673ffffffffffffffffffffffffffffffffffffffff163373ffffffffffffffffffffffffffffffffffffffff1614610a3d576040517f08c379a0000000000000000000000000000000000000000000000000000000008152600401610a34906135c1565b60405180910390fd5b610a48838383611dc4565b505050565b60608151835114610a93576040517f08c379a0000000000000000000000000000000000000000000000000000000008152600401610a8a90613681565b60405180910390fd5b6000835167ffffffffffffffff811115610ab057610aaf613b86565b5b604051908082528060200260200182016040528015610ade5781602001602082028036833780820191505090505b50905060005b8451811015610b5b57610b2b858281518110610b0357610b02613b57565b5b6020026020010151858381518110610b1e57610b1d613b57565b5b6020026020010151610529565b828281518110610b3e57610b3d613b57565b5b60200260200101818152505080610b5490613ab0565b9050610ae4565b508091505092915050565b6000600460009054906101000a900473ffffffffffffffffffffffffffffffffffffffff1673ffffffffffffffffffffffffffffffffffffffff163373ffffffffffffffffffffffffffffffffffffffff1614610bf8576040517f08c379a0000000000000000000000000000000000000000000000000000000008152600401610bef906135c1565b60405180910390fd5b610c1384838560405180602001604052806000815250611fe1565b6000610c1f8584610529565b9050809150509392505050565b600460009054906101000a900473ffffffffffffffffffffffffffffffffffffffff1673ffffffffffffffffffffffffffffffffffffffff163373ffffffffffffffffffffffffffffffffffffffff1614610cbc576040517f08c379a0000000000000000000000000000000000000000000000000000000008152600401610cb3906135c1565b60405180910390fd5b80600b60006101000a81548173ffffffffffffffffffffffffffffffffffffffff021916908373ffffffffffffffffffffffffffffffffffffffff16021790555050565b600a60009054906101000a900473ffffffffffffffffffffffffffffffffffffffff1681565b600460009054906101000a900473ffffffffffffffffffffffffffffffffffffffff1673ffffffffffffffffffffffffffffffffffffffff163373ffffffffffffffffffffffffffffffffffffffff1614610db6576040517f08c379a0000000000000000000000000000000000000000000000000000000008152600401610dad906135c1565b60405180910390fd5b80600560006101000a81548173ffffffffffffffffffffffffffffffffffffffff021916908373ffffffffffffffffffffffffffffffffffffffff16021790555050565b600460009054906101000a900473ffffffffffffffffffffffffffffffffffffffff1673ffffffffffffffffffffffffffffffffffffffff163373ffffffffffffffffffffffffffffffffffffffff1614610e8a576040517f08c379a0000000000000000000000000000000000000000000000000000000008152600401610e81906135c1565b60405180910390fd5b80600a60006101000a81548173ffffffffffffffffffffffffffffffffffffffff021916908373ffffffffffffffffffffffffffffffffffffffff16021790555050565b8173ffffffffffffffffffffffffffffffffffffffff16610eed611aa8565b73ffffffffffffffffffffffffffffffffffffffff161415610f44576040517f08c379a0000000000000000000000000000000000000000000000000000000008152600401610f3b90613661565b60405180910390fd5b8060016000610f51611aa8565b73ffffffffffffffffffffffffffffffffffffffff1673ffffffffffffffffffffffffffffffffffffffff16815260200190815260200160002060008473ffffffffffffffffffffffffffffffffffffffff1673ffffffffffffffffffffffffffffffffffffffff16815260200190815260200160002060006101000a81548160ff0219169083151502179055508173ffffffffffffffffffffffffffffffffffffffff16610ffe611aa8565b73ffffffffffffffffffffffffffffffffffffffff167f17307eab39ab6107e8899845ad3d59bd9653f200f220920489ca2b5937696c31836040516110439190613493565b60405180910390a35050565b600460009054906101000a900473ffffffffffffffffffffffffffffffffffffffff1673ffffffffffffffffffffffffffffffffffffffff163373ffffffffffffffffffffffffffffffffffffffff16146110df576040517f08c379a00000000000000000000000000000000000000000000000000000000081526004016110d6906135c1565b60405180910390fd5b6110fa33838360405180602001604052806000815250611fe1565b5050565b600960009054906101000a900473ffffffffffffffffffffffffffffffffffffffff1681565b60003373ffffffffffffffffffffffffffffffffffffffff16600460009054906101000a900473ffffffffffffffffffffffffffffffffffffffff1673ffffffffffffffffffffffffffffffffffffffff161415611185576001905061118a565b600090505b90565b600560009054906101000a900473ffffffffffffffffffffffffffffffffffffffff1673ffffffffffffffffffffffffffffffffffffffff163373ffffffffffffffffffffffffffffffffffffffff1614806112365750600660009054906101000a900473ffffffffffffffffffffffffffffffffffffffff1673ffffffffffffffffffffffffffffffffffffffff163373ffffffffffffffffffffffffffffffffffffffff16145b8061128e5750600760009054906101000a900473ffffffffffffffffffffffffffffffffffffffff1673ffffffffffffffffffffffffffffffffffffffff163373ffffffffffffffffffffffffffffffffffffffff16145b61129757600080fd5b6112b4826003548360405180602001604052806000815250611fe1565b5050565b600460009054906101000a900473ffffffffffffffffffffffffffffffffffffffff1673ffffffffffffffffffffffffffffffffffffffff163373ffffffffffffffffffffffffffffffffffffffff1614611348576040517f08c379a000000000000000000000000000000000000000000000000000000000815260040161133f906135c1565b60405180910390fd5b80600760006101000a81548173ffffffffffffffffffffffffffffffffffffffff021916908373ffffffffffffffffffffffffffffffffffffffff16021790555050565b600030905090565b6000600160008473ffffffffffffffffffffffffffffffffffffffff1673ffffffffffffffffffffffffffffffffffffffff16815260200190815260200160002060008373ffffffffffffffffffffffffffffffffffffffff1673ffffffffffffffffffffffffffffffffffffffff16815260200190815260200160002060009054906101000a900460ff16905092915050565b611430611aa8565b73ffffffffffffffffffffffffffffffffffffffff168573ffffffffffffffffffffffffffffffffffffffff161480611476575061147585611470611aa8565b611394565b5b6114b5576040517f08c379a00000000000000000000000000000000000000000000000000000000081526004016114ac906135a1565b60405180910390fd5b6114c28585858585612177565b5050505050565b816008546114d791906138d1565b81146114e257600080fd5b806114ee336000610529565b10156114f957600080fd5b42600a60009054906101000a900473ffffffffffffffffffffffffffffffffffffffff1673ffffffffffffffffffffffffffffffffffffffff1663c1e03728866040518263ffffffff1660e01b815260040161155591906136e1565b6101206040518083038186803b15801561156e57600080fd5b505afa158015611582573d6000803e3d6000fd5b505050506040513d601f19601f820116820180604052508101906115a69190612f20565b60a00151116115b457600080fd5b3373ffffffffffffffffffffffffffffffffffffffff16600a60009054906101000a900473ffffffffffffffffffffffffffffffffffffffff1673ffffffffffffffffffffffffffffffffffffffff16636352211e866040518263ffffffff1660e01b815260040161162691906136e1565b60206040518083038186803b15801561163e57600080fd5b505afa158015611652573d6000803e3d6000fd5b505050506040513d601f19601f820116820180604052508101906116769190612ba8565b73ffffffffffffffffffffffffffffffffffffffff161461169657600080fd5b60018314156118ae576003600a60009054906101000a900473ffffffffffffffffffffffffffffffffffffffff1673ffffffffffffffffffffffffffffffffffffffff1663c1e03728866040518263ffffffff1660e01b81526004016116fc91906136e1565b6101206040518083038186803b15801561171557600080fd5b505afa158015611729573d6000803e3d6000fd5b505050506040513d601f19601f8201168201806040525081019061174d9190612f20565b60600151141561175c57600080fd5b6063600a60009054906101000a900473ffffffffffffffffffffffffffffffffffffffff1673ffffffffffffffffffffffffffffffffffffffff1663c1e03728866040518263ffffffff1660e01b81526004016117b991906136e1565b6101206040518083038186803b1580156117d257600080fd5b505afa1580156117e6573d6000803e3d6000fd5b505050506040513d601f19601f8201168201806040525081019061180a9190612f20565b600001511061181857600080fd5b600a60009054906101000a900473ffffffffffffffffffffffffffffffffffffffff1673ffffffffffffffffffffffffffffffffffffffff1663efe6e41c8584336040518463ffffffff1660e01b815260040161187793929190613725565b600060405180830381600087803b15801561189157600080fd5b505af11580156118a5573d6000803e3d6000fd5b50505050611a06565b6002831415611a05576063600a60009054906101000a900473ffffffffffffffffffffffffffffffffffffffff1673ffffffffffffffffffffffffffffffffffffffff1663c1e03728866040518263ffffffff1660e01b815260040161191491906136e1565b6101206040518083038186803b15801561192d57600080fd5b505afa158015611941573d6000803e3d6000fd5b505050506040513d601f19601f820116820180604052508101906119659190612f20565b602001511061197357600080fd5b600a60009054906101000a900473ffffffffffffffffffffffffffffffffffffffff1673ffffffffffffffffffffffffffffffffffffffff1663f0258a788584336040518463ffffffff1660e01b81526004016119d293929190613725565b600060405180830381600087803b1580156119ec57600080fd5b505af1158015611a00573d6000803e3d6000fd5b505050505b5b611a1233600083611dc4565b50505050565b600460009054906101000a900473ffffffffffffffffffffffffffffffffffffffff1681565b60007f01ffc9a7000000000000000000000000000000000000000000000000000000007bffffffffffffffffffffffffffffffffffffffffffffffffffffffff1916827bffffffffffffffffffffffffffffffffffffffffffffffffffffffff1916149050919050565b600033905090565b8151835114611af4576040517f08c379a0000000000000000000000000000000000000000000000000000000008152600401611aeb906136a1565b60405180910390fd5b600073ffffffffffffffffffffffffffffffffffffffff168473ffffffffffffffffffffffffffffffffffffffff161415611b64576040517f08c379a0000000000000000000000000000000000000000000000000000000008152600401611b5b906135e1565b60405180910390fd5b6000611b6e611aa8565b9050611b7e8187878787876123f9565b60005b8451811015611d2f576000858281518110611b9f57611b9e613b57565b5b602002602001015190506000858381518110611bbe57611bbd613b57565b5b60200260200101519050600080600084815260200190815260200160002060008b73ffffffffffffffffffffffffffffffffffffffff1673ffffffffffffffffffffffffffffffffffffffff16815260200190815260200160002054905081811015611c5f576040517f08c379a0000000000000000000000000000000000000000000000000000000008152600401611c5690613641565b60405180910390fd5b81810360008085815260200190815260200160002060008c73ffffffffffffffffffffffffffffffffffffffff1673ffffffffffffffffffffffffffffffffffffffff168152602001908152602001600020819055508160008085815260200190815260200160002060008b73ffffffffffffffffffffffffffffffffffffffff1673ffffffffffffffffffffffffffffffffffffffff1681526020019081526020016000206000828254611d14919061387b565b9250508190555050505080611d2890613ab0565b9050611b81565b508473ffffffffffffffffffffffffffffffffffffffff168673ffffffffffffffffffffffffffffffffffffffff168273ffffffffffffffffffffffffffffffffffffffff167f4a39dc06d4c0dbc64b70af90fd698a233a518aa5d07e595d983b8c0526c8f7fb8787604051611da692919061345c565b60405180910390a4611dbc818787878787612401565b505050505050565b600073ffffffffffffffffffffffffffffffffffffffff168373ffffffffffffffffffffffffffffffffffffffff161415611e34576040517f08c379a0000000000000000000000000000000000000000000000000000000008152600401611e2b90613621565b60405180910390fd5b6000611e3e611aa8565b9050611e6e81856000611e50876125e8565b611e59876125e8565b604051806020016040528060008152506123f9565b600080600085815260200190815260200160002060008673ffffffffffffffffffffffffffffffffffffffff1673ffffffffffffffffffffffffffffffffffffffff16815260200190815260200160002054905082811015611f05576040517f08c379a0000000000000000000000000000000000000000000000000000000008152600401611efc90613581565b60405180910390fd5b82810360008086815260200190815260200160002060008773ffffffffffffffffffffffffffffffffffffffff1673ffffffffffffffffffffffffffffffffffffffff16815260200190815260200160002081905550600073ffffffffffffffffffffffffffffffffffffffff168573ffffffffffffffffffffffffffffffffffffffff168373ffffffffffffffffffffffffffffffffffffffff167fc3d58168c5ae7397731d063d5bbf3d657854427343f4c083240f7aacaa2d0f628787604051611fd29291906136fc565b60405180910390a45050505050565b600073ffffffffffffffffffffffffffffffffffffffff168473ffffffffffffffffffffffffffffffffffffffff161415612051576040517f08c379a0000000000000000000000000000000000000000000000000000000008152600401612048906136c1565b60405180910390fd5b600061205b611aa8565b905061207c8160008761206d886125e8565b612076886125e8565b876123f9565b8260008086815260200190815260200160002060008773ffffffffffffffffffffffffffffffffffffffff1673ffffffffffffffffffffffffffffffffffffffff16815260200190815260200160002060008282546120db919061387b565b925050819055508473ffffffffffffffffffffffffffffffffffffffff16600073ffffffffffffffffffffffffffffffffffffffff168273ffffffffffffffffffffffffffffffffffffffff167fc3d58168c5ae7397731d063d5bbf3d657854427343f4c083240f7aacaa2d0f6287876040516121599291906136fc565b60405180910390a461217081600087878787612662565b5050505050565b600073ffffffffffffffffffffffffffffffffffffffff168473ffffffffffffffffffffffffffffffffffffffff1614156121e7576040517f08c379a00000000000000000000000000000000000000000000000000000000081526004016121de906135e1565b60405180910390fd5b60006121f1611aa8565b9050612211818787612202886125e8565b61220b886125e8565b876123f9565b600080600086815260200190815260200160002060008873ffffffffffffffffffffffffffffffffffffffff1673ffffffffffffffffffffffffffffffffffffffff168152602001908152602001600020549050838110156122a8576040517f08c379a000000000000000000000000000000000000000000000000000000000815260040161229f90613641565b60405180910390fd5b83810360008087815260200190815260200160002060008973ffffffffffffffffffffffffffffffffffffffff1673ffffffffffffffffffffffffffffffffffffffff168152602001908152602001600020819055508360008087815260200190815260200160002060008873ffffffffffffffffffffffffffffffffffffffff1673ffffffffffffffffffffffffffffffffffffffff168152602001908152602001600020600082825461235d919061387b565b925050819055508573ffffffffffffffffffffffffffffffffffffffff168773ffffffffffffffffffffffffffffffffffffffff168373ffffffffffffffffffffffffffffffffffffffff167fc3d58168c5ae7397731d063d5bbf3d657854427343f4c083240f7aacaa2d0f6288886040516123da9291906136fc565b60405180910390a46123f0828888888888612662565b50505050505050565b505050505050565b6124208473ffffffffffffffffffffffffffffffffffffffff16612849565b156125e0578373ffffffffffffffffffffffffffffffffffffffff1663bc197c8187878686866040518663ffffffff1660e01b8152600401612466959493929190613378565b602060405180830381600087803b15801561248057600080fd5b505af19250505080156124b157506040513d601f19601f820116820180604052508101906124ae9190612ef3565b60015b612557576124bd613bb5565b806308c379a0141561251a57506124d261403f565b806124dd575061251c565b806040517f08c379a000000000000000000000000000000000000000000000000000000000815260040161251191906134ff565b60405180910390fd5b505b6040517f08c379a000000000000000000000000000000000000000000000000000000000815260040161254e90613521565b60405180910390fd5b63bc197c8160e01b7bffffffffffffffffffffffffffffffffffffffffffffffffffffffff1916817bffffffffffffffffffffffffffffffffffffffffffffffffffffffff1916146125de576040517f08c379a00000000000000000000000000000000000000000000000000000000081526004016125d590613541565b60405180910390fd5b505b505050505050565b60606000600167ffffffffffffffff81111561260757612606613b86565b5b6040519080825280602002602001820160405280156126355781602001602082028036833780820191505090505b509050828160008151811061264d5761264c613b57565b5b60200260200101818152505080915050919050565b6126818473ffffffffffffffffffffffffffffffffffffffff16612849565b15612841578373ffffffffffffffffffffffffffffffffffffffff1663f23a6e6187878686866040518663ffffffff1660e01b81526004016126c79594939291906133e0565b602060405180830381600087803b1580156126e157600080fd5b505af192505050801561271257506040513d601f19601f8201168201806040525081019061270f9190612ef3565b60015b6127b85761271e613bb5565b806308c379a0141561277b575061273361403f565b8061273e575061277d565b806040517f08c379a000000000000000000000000000000000000000000000000000000000815260040161277291906134ff565b60405180910390fd5b505b6040517f08c379a00000000000000000000000000000000000000000000000000000000081526004016127af90613521565b60405180910390fd5b63f23a6e6160e01b7bffffffffffffffffffffffffffffffffffffffffffffffffffffffff1916817bffffffffffffffffffffffffffffffffffffffffffffffffffffffff19161461283f576040517f08c379a000000000000000000000000000000000000000000000000000000000815260040161283690613541565b60405180910390fd5b505b505050505050565b600080823b905060008111915050919050565b600061286f61286a84613781565b61375c565b9050808382526020820190508285602086028201111561289257612891613be1565b5b60005b858110156128c257816128a8888261297e565b845260208401935060208301925050600181019050612895565b5050509392505050565b60006128df6128da846137ad565b61375c565b9050808382526020820190508285602086028201111561290257612901613be1565b5b60005b8581101561293257816129188882612b51565b845260208401935060208301925050600181019050612905565b5050509392505050565b600061294f61294a846137d9565b61375c565b90508281526020810184848401111561296b5761296a613be6565b5b612976848285613a0b565b509392505050565b60008135905061298d816140d5565b92915050565b6000815190506129a2816140d5565b92915050565b600082601f8301126129bd576129bc613bd7565b5b81356129cd84826020860161285c565b91505092915050565b600082601f8301126129eb576129ea613bd7565b5b81356129fb8482602086016128cc565b91505092915050565b600081359050612a13816140ec565b92915050565b600081359050612a2881614103565b92915050565b600081519050612a3d81614103565b92915050565b600082601f830112612a5857612a57613bd7565b5b8135612a6884826020860161293c565b91505092915050565b60006101208284031215612a8857612a87613bdc565b5b612a9361012061375c565b90506000612aa384828501612b66565b6000830152506020612ab784828501612b66565b6020830152506040612acb84828501612b66565b6040830152506060612adf84828501612b66565b6060830152506080612af384828501612b66565b60808301525060a0612b0784828501612b66565b60a08301525060c0612b1b84828501612b66565b60c08301525060e0612b2f84828501612b66565b60e083015250610100612b4484828501612b66565b6101008301525092915050565b600081359050612b608161411a565b92915050565b600081519050612b758161411a565b92915050565b600060208284031215612b9157612b90613bf0565b5b6000612b9f8482850161297e565b91505092915050565b600060208284031215612bbe57612bbd613bf0565b5b6000612bcc84828501612993565b91505092915050565b60008060408385031215612bec57612beb613bf0565b5b6000612bfa8582860161297e565b9250506020612c0b8582860161297e565b9150509250929050565b600080600080600060a08688031215612c3157612c30613bf0565b5b6000612c3f8882890161297e565b9550506020612c508882890161297e565b945050604086013567ffffffffffffffff811115612c7157612c70613beb565b5b612c7d888289016129d6565b935050606086013567ffffffffffffffff811115612c9e57612c9d613beb565b5b612caa888289016129d6565b925050608086013567ffffffffffffffff811115612ccb57612cca613beb565b5b612cd788828901612a43565b9150509295509295909350565b600080600080600060a08688031215612d0057612cff613bf0565b5b6000612d0e8882890161297e565b9550506020612d1f8882890161297e565b9450506040612d3088828901612b51565b9350506060612d4188828901612b51565b925050608086013567ffffffffffffffff811115612d6257612d61613beb565b5b612d6e88828901612a43565b9150509295509295909350565b60008060408385031215612d9257612d91613bf0565b5b6000612da08582860161297e565b9250506020612db185828601612a04565b9150509250929050565b60008060408385031215612dd257612dd1613bf0565b5b6000612de08582860161297e565b9250506020612df185828601612b51565b9150509250929050565b600080600060608486031215612e1457612e13613bf0565b5b6000612e228682870161297e565b9350506020612e3386828701612b51565b9250506040612e4486828701612b51565b9150509250925092565b60008060408385031215612e6557612e64613bf0565b5b600083013567ffffffffffffffff811115612e8357612e82613beb565b5b612e8f858286016129a8565b925050602083013567ffffffffffffffff811115612eb057612eaf613beb565b5b612ebc858286016129d6565b9150509250929050565b600060208284031215612edc57612edb613bf0565b5b6000612eea84828501612a19565b91505092915050565b600060208284031215612f0957612f08613bf0565b5b6000612f1784828501612a2e565b91505092915050565b60006101208284031215612f3757612f36613bf0565b5b6000612f4584828501612a71565b91505092915050565b600060208284031215612f6457612f63613bf0565b5b6000612f7284828501612b51565b91505092915050565b60008060408385031215612f9257612f91613bf0565b5b6000612fa085828601612b51565b9250506020612fb185828601612b51565b9150509250929050565b60008060008060808587031215612fd557612fd4613bf0565b5b6000612fe387828801612b51565b9450506020612ff487828801612b51565b935050604061300587828801612b51565b925050606061301687828801612b51565b91505092959194509250565b600061302e838361333f565b60208301905092915050565b6130438161392b565b82525050565b60006130548261381a565b61305e8185613848565b93506130698361380a565b8060005b8381101561309a5781516130818882613022565b975061308c8361383b565b92505060018101905061306d565b5085935050505092915050565b6130b08161393d565b82525050565b60006130c182613825565b6130cb8185613859565b93506130db818560208601613a1a565b6130e481613bf5565b840191505092915050565b6130f88161399f565b82525050565b613107816139c3565b82525050565b613116816139e7565b82525050565b600061312782613830565b613131818561386a565b9350613141818560208601613a1a565b61314a81613bf5565b840191505092915050565b600061316260348361386a565b915061316d82613c13565b604082019050919050565b600061318560288361386a565b915061319082613c62565b604082019050919050565b60006131a8602b8361386a565b91506131b382613cb1565b604082019050919050565b60006131cb60248361386a565b91506131d682613d00565b604082019050919050565b60006131ee60298361386a565b91506131f982613d4f565b604082019050919050565b600061321160028361386a565b915061321c82613d9e565b602082019050919050565b600061323460258361386a565b915061323f82613dc7565b604082019050919050565b600061325760328361386a565b915061326282613e16565b604082019050919050565b600061327a60238361386a565b915061328582613e65565b604082019050919050565b600061329d602a8361386a565b91506132a882613eb4565b604082019050919050565b60006132c060298361386a565b91506132cb82613f03565b604082019050919050565b60006132e360298361386a565b91506132ee82613f52565b604082019050919050565b600061330660288361386a565b915061331182613fa1565b604082019050919050565b600061332960218361386a565b915061333482613ff0565b604082019050919050565b61334881613995565b82525050565b61335781613995565b82525050565b6000602082019050613372600083018461303a565b92915050565b600060a08201905061338d600083018861303a565b61339a602083018761303a565b81810360408301526133ac8186613049565b905081810360608301526133c08185613049565b905081810360808301526133d481846130b6565b90509695505050505050565b600060a0820190506133f5600083018861303a565b613402602083018761303a565b61340f604083018661334e565b61341c606083018561334e565b818103608083015261342e81846130b6565b90509695505050505050565b600060208201905081810360008301526134548184613049565b905092915050565b600060408201905081810360008301526134768185613049565b9050818103602083015261348a8184613049565b90509392505050565b60006020820190506134a860008301846130a7565b92915050565b60006020820190506134c360008301846130ef565b92915050565b60006020820190506134de60008301846130fe565b92915050565b60006020820190506134f9600083018461310d565b92915050565b60006020820190508181036000830152613519818461311c565b905092915050565b6000602082019050818103600083015261353a81613155565b9050919050565b6000602082019050818103600083015261355a81613178565b9050919050565b6000602082019050818103600083015261357a8161319b565b9050919050565b6000602082019050818103600083015261359a816131be565b9050919050565b600060208201905081810360008301526135ba816131e1565b9050919050565b600060208201905081810360008301526135da81613204565b9050919050565b600060208201905081810360008301526135fa81613227565b9050919050565b6000602082019050818103600083015261361a8161324a565b9050919050565b6000602082019050818103600083015261363a8161326d565b9050919050565b6000602082019050818103600083015261365a81613290565b9050919050565b6000602082019050818103600083015261367a816132b3565b9050919050565b6000602082019050818103600083015261369a816132d6565b9050919050565b600060208201905081810360008301526136ba816132f9565b9050919050565b600060208201905081810360008301526136da8161331c565b9050919050565b60006020820190506136f6600083018461334e565b92915050565b6000604082019050613711600083018561334e565b61371e602083018461334e565b9392505050565b600060608201905061373a600083018661334e565b613747602083018561334e565b613754604083018461303a565b949350505050565b6000613766613777565b90506137728282613a7f565b919050565b6000604051905090565b600067ffffffffffffffff82111561379c5761379b613b86565b5b602082029050602081019050919050565b600067ffffffffffffffff8211156137c8576137c7613b86565b5b602082029050602081019050919050565b600067ffffffffffffffff8211156137f4576137f3613b86565b5b6137fd82613bf5565b9050602081019050919050565b6000819050602082019050919050565b600081519050919050565b600081519050919050565b600081519050919050565b6000602082019050919050565b600082825260208201905092915050565b600082825260208201905092915050565b600082825260208201905092915050565b600061388682613995565b915061389183613995565b9250827fffffffffffffffffffffffffffffffffffffffffffffffffffffffffffffffff038211156138c6576138c5613af9565b5b828201905092915050565b60006138dc82613995565b91506138e783613995565b9250817fffffffffffffffffffffffffffffffffffffffffffffffffffffffffffffffff04831182151516156139205761391f613af9565b5b828202905092915050565b600061393682613975565b9050919050565b60008115159050919050565b60007fffffffff0000000000000000000000000000000000000000000000000000000082169050919050565b600073ffffffffffffffffffffffffffffffffffffffff82169050919050565b6000819050919050565b60006139aa826139b1565b9050919050565b60006139bc82613975565b9050919050565b60006139ce826139d5565b9050919050565b60006139e082613975565b9050919050565b60006139f2826139f9565b9050919050565b6000613a0482613975565b9050919050565b82818337600083830152505050565b60005b83811015613a38578082015181840152602081019050613a1d565b83811115613a47576000848401525b50505050565b60006002820490506001821680613a6557607f821691505b60208210811415613a7957613a78613b28565b5b50919050565b613a8882613bf5565b810181811067ffffffffffffffff82111715613aa757613aa6613b86565b5b80604052505050565b6000613abb82613995565b91507fffffffffffffffffffffffffffffffffffffffffffffffffffffffffffffffff821415613aee57613aed613af9565b5b600182019050919050565b7f4e487b7100000000000000000000000000000000000000000000000000000000600052601160045260246000fd5b7f4e487b7100000000000000000000000000000000000000000000000000000000600052602260045260246000fd5b7f4e487b7100000000000000000000000000000000000000000000000000000000600052603260045260246000fd5b7f4e487b7100000000000000000000000000000000000000000000000000000000600052604160045260246000fd5b600060033d1115613bd45760046000803e613bd1600051613c06565b90505b90565b600080fd5b600080fd5b600080fd5b600080fd5b600080fd5b600080fd5b6000601f19601f8301169050919050565b60008160e01c9050919050565b7f455243313135353a207472616e7366657220746f206e6f6e204552433131353560008201527f526563656976657220696d706c656d656e746572000000000000000000000000602082015250565b7f455243313135353a204552433131353552656365697665722072656a6563746560008201527f6420746f6b656e73000000000000000000000000000000000000000000000000602082015250565b7f455243313135353a2062616c616e636520717565727920666f7220746865207a60008201527f65726f2061646472657373000000000000000000000000000000000000000000602082015250565b7f455243313135353a206275726e20616d6f756e7420657863656564732062616c60008201527f616e636500000000000000000000000000000000000000000000000000000000602082015250565b7f455243313135353a2063616c6c6572206973206e6f74206f776e6572206e6f7260008201527f20617070726f7665640000000000000000000000000000000000000000000000602082015250565b7f4131000000000000000000000000000000000000000000000000000000000000600082015250565b7f455243313135353a207472616e7366657220746f20746865207a65726f20616460008201527f6472657373000000000000000000000000000000000000000000000000000000602082015250565b7f455243313135353a207472616e736665722063616c6c6572206973206e6f742060008201527f6f776e6572206e6f7220617070726f7665640000000000000000000000000000602082015250565b7f455243313135353a206275726e2066726f6d20746865207a65726f206164647260008201527f6573730000000000000000000000000000000000000000000000000000000000602082015250565b7f455243313135353a20696e73756666696369656e742062616c616e636520666f60008201527f72207472616e7366657200000000000000000000000000000000000000000000602082015250565b7f455243313135353a2073657474696e6720617070726f76616c2073746174757360008201527f20666f722073656c660000000000000000000000000000000000000000000000602082015250565b7f455243313135353a206163636f756e747320616e6420696473206c656e67746860008201527f206d69736d617463680000000000000000000000000000000000000000000000602082015250565b7f455243313135353a2069647320616e6420616d6f756e7473206c656e6774682060008201527f6d69736d61746368000000000000000000000000000000000000000000000000602082015250565b7f455243313135353a206d696e7420746f20746865207a65726f2061646472657360008201527f7300000000000000000000000000000000000000000000000000000000000000602082015250565b600060443d101561404f576140d2565b614057613777565b60043d036004823e80513d602482011167ffffffffffffffff8211171561407f5750506140d2565b808201805167ffffffffffffffff81111561409d57505050506140d2565b80602083010160043d0385018111156140ba5750505050506140d2565b6140c982602001850186613a7f565b82955050505050505b90565b6140de8161392b565b81146140e957600080fd5b50565b6140f58161393d565b811461410057600080fd5b50565b61410c81613949565b811461411757600080fd5b50565b61412381613995565b811461412e57600080fd5b5056fea264697066735822122017aa0fce2138d2ca0ad2b7ec847a472d30dad103e4319ef54d5084c1f404004c64736f6c63430008060033",
  "immutableReferences": {},
  "source": "// SPDX-License-Identifier: MIT\r\npragma solidity >=0.4.22 <0.9.0;\r\n\r\nimport \"../node_modules/@openzeppelin/contracts/token/ERC20/IERC20.sol\";\r\nimport \"../node_modules/@openzeppelin/contracts/token/ERC721/IERC721.sol\";\r\nimport \"../node_modules/@openzeppelin/contracts/token/ERC1155/ERC1155.sol\";\r\nimport \"../contracts/PBPlayers.sol\";\r\n\r\ncontract PBXP is ERC1155 {\r\n\r\n    uint public PBXPTokenId = 0;\r\n    address public admin;\r\n    address pbTeamsAddress;\r\n    address pbPvCAddress;\r\n    address pbMatchupsAddress;\r\n    uint upgradeCost;\r\n    IERC721 public myTeamsContract;\r\n    PBPlayers public pbPlayers;\r\n    IERC20 public buddies;\r\n\r\n    modifier onlyAdmin() {\r\n        require(msg.sender == admin, \"A1\");\r\n        _;\r\n    }\r\n\r\n     modifier onlyTeams() {\r\n        require(msg.sender == pbTeamsAddress, \"T1\");\r\n        _;\r\n    }\r\n\r\n    constructor(address _buddiesCoinAddress, address _pbPlayersAddress, uint _upgradeCost) ERC1155 (\"\") {\r\n        admin = msg.sender;\r\n        buddies = IERC20(_buddiesCoinAddress);\r\n        pbPlayers = PBPlayers(_pbPlayersAddress);\r\n        upgradeCost = _upgradeCost;\r\n    }\r\n\r\n    function isAdmin() public view returns (bool){\r\n        if(admin == msg.sender){\r\n            return true;\r\n        } else return false;\r\n    } \r\n\r\n    function getPBXPAddress() external view returns(address){\r\n        return address(this);\r\n    }\r\n\r\n    function updateBuddiesCoinAddress(address _buddiesCoinAddress) external onlyAdmin {\r\n        buddies = IERC20(_buddiesCoinAddress);\r\n    }\r\n\r\n    function updatePBXPTokenId(uint _PBXPTokenId) external onlyAdmin{\r\n        PBXPTokenId = _PBXPTokenId;\r\n    }\r\n\r\n    function updatePBTeamsAddress(address _pbTeamsAddress) external onlyAdmin {\r\n        pbTeamsAddress = _pbTeamsAddress;\r\n    }\r\n\r\n    function updatePBPlayersAddress(address _pbPlayersAddress)  external onlyAdmin {\r\n        pbPlayers = PBPlayers(_pbPlayersAddress);\r\n    }\r\n\r\n    function updatePBPvCAddress(address _pbPvCAddress) external onlyAdmin {\r\n        pbPvCAddress = _pbPvCAddress;\r\n    }\r\n\r\n    function updatePBMatchupsAddress(address _pbMatchupsAddress) external onlyAdmin {\r\n        pbMatchupsAddress = _pbMatchupsAddress;\r\n    }\r\n\r\n    function getUpgradeCost() public view returns(uint){\r\n        return upgradeCost;\r\n    }\r\n\r\n    function newProduct(uint token, uint initalSupply) external onlyAdmin {\r\n        _mint(msg.sender, token, initalSupply, \"\");\r\n    }\r\n\r\n    function newPBXPtoAddress(address mintToAddress, uint qty, uint token) external onlyAdmin returns (uint){\r\n        _mint(mintToAddress, token, qty, \"\");\r\n        uint balance = balanceOf(mintToAddress, token);\r\n        return balance;\r\n    }\r\n\r\n    //  function newTeamPBXP(address mintToAddress) external onlyTeams returns (uint){\r\n    //     _mint(mintToAddress, 0, (upgradeCost * 2), \"\");\r\n    //     uint balance = balanceOf(mintToAddress, 0);\r\n    //     return balance;\r\n    // }\r\n\r\n    function burnItems(address owner, uint token, uint qty ) external onlyAdmin {\r\n        _burn(owner, token, qty);\r\n    }\r\n\r\n    function earnPBXP(address earnerAddress, uint qty) external {\r\n        require(msg.sender == pbTeamsAddress || msg.sender == pbPvCAddress || msg.sender == pbMatchupsAddress);\r\n        _mint(earnerAddress, PBXPTokenId, qty, \"\");\r\n    }\r\n\r\n    function increaseStats(uint tokenId, uint statType, uint qty, uint xp) public {\r\n        require(xp == upgradeCost * qty);\r\n        require(balanceOf(msg.sender, 0) >= xp);\r\n        require(pbPlayers.getTokenDetails(tokenId).ageoutTimestamp > block.timestamp);\r\n        require(pbPlayers.ownerOf(tokenId) == msg.sender);\r\n        if(statType == 1){\r\n            require(pbPlayers.getTokenDetails(tokenId).playertype != 3);\r\n            require(pbPlayers.getTokenDetails(tokenId).offence < 99);\r\n            pbPlayers.addOp(tokenId, qty, msg.sender);\r\n        }else if (statType == 2) {\r\n            require(pbPlayers.getTokenDetails(tokenId).defence < 99);\r\n            pbPlayers.addDp(tokenId, qty, msg.sender);\r\n        }\r\n        _burn(msg.sender, 0, xp);\r\n    }\r\n\r\n}",
  "sourcePath": "O:\\Projects\\puck-buddies\\contracts\\PBXP.sol",
  "compiler": {
    "name": "solc",
    "version": "0.8.6+commit.11564f7e.Emscripten.clang"
  },
  "schemaVersion": "3.4.3",
  "updatedAt": "2021-12-28T10:17:04.834Z",
  "devdoc": {
    "kind": "dev",
    "methods": {
      "balanceOf(address,uint256)": {
        "details": "See {IERC1155-balanceOf}. Requirements: - `account` cannot be the zero address."
      },
      "balanceOfBatch(address[],uint256[])": {
        "details": "See {IERC1155-balanceOfBatch}. Requirements: - `accounts` and `ids` must have the same length."
      },
      "isApprovedForAll(address,address)": {
        "details": "See {IERC1155-isApprovedForAll}."
      },
      "safeBatchTransferFrom(address,address,uint256[],uint256[],bytes)": {
        "details": "See {IERC1155-safeBatchTransferFrom}."
      },
      "safeTransferFrom(address,address,uint256,uint256,bytes)": {
        "details": "See {IERC1155-safeTransferFrom}."
      },
      "setApprovalForAll(address,bool)": {
        "details": "See {IERC1155-setApprovalForAll}."
      },
      "supportsInterface(bytes4)": {
        "details": "See {IERC165-supportsInterface}."
      },
      "uri(uint256)": {
        "details": "See {IERC1155MetadataURI-uri}. This implementation returns the same URI for *all* token types. It relies on the token type ID substitution mechanism https://eips.ethereum.org/EIPS/eip-1155#metadata[defined in the EIP]. Clients calling this function must replace the `\\{id\\}` substring with the actual token type ID."
      }
    },
    "version": 1
  },
  "userdoc": {
    "kind": "user",
    "methods": {},
    "version": 1
  }
}