{
  "contractName": "PBXPShopHolder",
  "abi": [
    {
      "inputs": [
        {
          "internalType": "address",
          "name": "_pbxpAddress",
          "type": "address"
        },
        {
          "internalType": "address",
          "name": "_pbxpShopaddress",
          "type": "address"
        }
      ],
      "stateMutability": "nonpayable",
      "type": "constructor"
    },
    {
      "inputs": [],
      "name": "admin",
      "outputs": [
        {
          "internalType": "address",
          "name": "",
          "type": "address"
        }
      ],
      "stateMutability": "view",
      "type": "function"
    },
    {
      "inputs": [
        {
          "internalType": "address",
          "name": "",
          "type": "address"
        },
        {
          "internalType": "address",
          "name": "",
          "type": "address"
        },
        {
          "internalType": "uint256[]",
          "name": "",
          "type": "uint256[]"
        },
        {
          "internalType": "uint256[]",
          "name": "",
          "type": "uint256[]"
        },
        {
          "internalType": "bytes",
          "name": "",
          "type": "bytes"
        }
      ],
      "name": "onERC1155BatchReceived",
      "outputs": [
        {
          "internalType": "bytes4",
          "name": "",
          "type": "bytes4"
        }
      ],
      "stateMutability": "nonpayable",
      "type": "function"
    },
    {
      "inputs": [
        {
          "internalType": "address",
          "name": "",
          "type": "address"
        },
        {
          "internalType": "address",
          "name": "",
          "type": "address"
        },
        {
          "internalType": "uint256",
          "name": "",
          "type": "uint256"
        },
        {
          "internalType": "uint256",
          "name": "",
          "type": "uint256"
        },
        {
          "internalType": "bytes",
          "name": "",
          "type": "bytes"
        }
      ],
      "name": "onERC1155Received",
      "outputs": [
        {
          "internalType": "bytes4",
          "name": "",
          "type": "bytes4"
        }
      ],
      "stateMutability": "nonpayable",
      "type": "function"
    },
    {
      "inputs": [
        {
          "internalType": "bytes4",
          "name": "interfaceId",
          "type": "bytes4"
        }
      ],
      "name": "supportsInterface",
      "outputs": [
        {
          "internalType": "bool",
          "name": "",
          "type": "bool"
        }
      ],
      "stateMutability": "view",
      "type": "function"
    },
    {
      "inputs": [],
      "name": "getPBXPShopHolderAddress",
      "outputs": [
        {
          "internalType": "address",
          "name": "",
          "type": "address"
        }
      ],
      "stateMutability": "view",
      "type": "function"
    },
    {
      "inputs": [
        {
          "internalType": "address",
          "name": "_pbxpAddress",
          "type": "address"
        }
      ],
      "name": "updatePBXPTokenAddress",
      "outputs": [],
      "stateMutability": "nonpayable",
      "type": "function"
    },
    {
      "inputs": [
        {
          "internalType": "address",
          "name": "_pbxpShopaddress",
          "type": "address"
        }
      ],
      "name": "updateProShopAddress",
      "outputs": [],
      "stateMutability": "nonpayable",
      "type": "function"
    },
    {
      "inputs": [
        {
          "internalType": "uint256",
          "name": "sku",
          "type": "uint256"
        },
        {
          "internalType": "uint256",
          "name": "value",
          "type": "uint256"
        }
      ],
      "name": "buyItems",
      "outputs": [],
      "stateMutability": "nonpayable",
      "type": "function"
    },
    {
      "inputs": [
        {
          "internalType": "uint256",
          "name": "sku",
          "type": "uint256"
        }
      ],
      "name": "transferMatchupToken",
      "outputs": [],
      "stateMutability": "nonpayable",
      "type": "function"
    },
    {
      "inputs": [
        {
          "internalType": "uint256",
          "name": "input",
          "type": "uint256"
        }
      ],
      "name": "calculateWeiFromSku",
      "outputs": [
        {
          "internalType": "uint256",
          "name": "",
          "type": "uint256"
        }
      ],
      "stateMutability": "pure",
      "type": "function"
    }
  ],
  "bytecode": "0x60806040523480156200001157600080fd5b50604051620013aa380380620013aa833981810160405281019062000037919062000118565b336000806101000a81548173ffffffffffffffffffffffffffffffffffffffff021916908373ffffffffffffffffffffffffffffffffffffffff16021790555081600260006101000a81548173ffffffffffffffffffffffffffffffffffffffff021916908373ffffffffffffffffffffffffffffffffffffffff16021790555080600160006101000a81548173ffffffffffffffffffffffffffffffffffffffff021916908373ffffffffffffffffffffffffffffffffffffffff1602179055505050620001b2565b600081519050620001128162000198565b92915050565b6000806040838503121562000132576200013162000193565b5b6000620001428582860162000101565b9250506020620001558582860162000101565b9150509250929050565b60006200016c8262000173565b9050919050565b600073ffffffffffffffffffffffffffffffffffffffff82169050919050565b600080fd5b620001a3816200015f565b8114620001af57600080fd5b50565b6111e880620001c26000396000f3fe608060405234801561001057600080fd5b506004361061009e5760003560e01c8063e638ded311610066578063e638ded314610157578063ec1de0c214610173578063f23a6e6114610191578063f61a2ea8146101c1578063f851a440146101f15761009e565b806301ffc9a7146100a357806321d7dc3d146100d35780637db31711146100ef578063ae90235a1461010b578063bc197c8114610127575b600080fd5b6100bd60048036038101906100b89190610af4565b61020f565b6040516100ca9190610d72565b60405180910390f35b6100ed60048036038101906100e89190610b7b565b610289565b005b61010960048036038101906101049190610b21565b6104bd565b005b61012560048036038101906101209190610961565b610554565b005b610141600480360381019061013c919061098e565b610626565b60405161014e9190610d8d565b60405180910390f35b610171600480360381019061016c9190610961565b61063b565b005b61017b61070d565b6040516101889190610c7e565b60405180910390f35b6101ab60048036038101906101a69190610a5d565b610715565b6040516101b89190610d8d565b60405180910390f35b6101db60048036038101906101d69190610b21565b61072a565b6040516101e89190610de8565b60405180910390f35b6101f9610771565b6040516102069190610c7e565b60405180910390f35b60007f4e2312e0000000000000000000000000000000000000000000000000000000007bffffffffffffffffffffffffffffffffffffffffffffffffffffffff1916827bffffffffffffffffffffffffffffffffffffffffffffffffffffffff19161480610282575061028182610795565b5b9050919050565b60006102948361072a565b90508181146102d8576040517f08c379a00000000000000000000000000000000000000000000000000000000081526004016102cf90610da8565b60405180910390fd5b60018060009054906101000a900473ffffffffffffffffffffffffffffffffffffffff1673ffffffffffffffffffffffffffffffffffffffff1662fdd58e30866040518363ffffffff1660e01b8152600401610335929190610d49565b60206040518083038186803b15801561034d57600080fd5b505afa158015610361573d6000803e3d6000fd5b505050506040513d601f19601f820116820180604052508101906103859190610b4e565b101561039057600080fd5b600260009054906101000a900473ffffffffffffffffffffffffffffffffffffffff1673ffffffffffffffffffffffffffffffffffffffff1663f242432a33306000866040518563ffffffff1660e01b81526004016103f29493929190610c99565b600060405180830381600087803b15801561040c57600080fd5b505af1158015610420573d6000803e3d6000fd5b50505050600160009054906101000a900473ffffffffffffffffffffffffffffffffffffffff1673ffffffffffffffffffffffffffffffffffffffff1663f242432a30338660016040518563ffffffff1660e01b81526004016104869493929190610cf1565b600060405180830381600087803b1580156104a057600080fd5b505af11580156104b4573d6000803e3d6000fd5b50505050505050565b600160009054906101000a900473ffffffffffffffffffffffffffffffffffffffff1673ffffffffffffffffffffffffffffffffffffffff1663f242432a30338460016040518563ffffffff1660e01b815260040161051f9493929190610cf1565b600060405180830381600087803b15801561053957600080fd5b505af115801561054d573d6000803e3d6000fd5b5050505050565b60008054906101000a900473ffffffffffffffffffffffffffffffffffffffff1673ffffffffffffffffffffffffffffffffffffffff163373ffffffffffffffffffffffffffffffffffffffff16146105e2576040517f08c379a00000000000000000000000000000000000000000000000000000000081526004016105d990610dc8565b60405180910390fd5b80600160006101000a81548173ffffffffffffffffffffffffffffffffffffffff021916908373ffffffffffffffffffffffffffffffffffffffff16021790555050565b600063bc197c8160e01b905095945050505050565b60008054906101000a900473ffffffffffffffffffffffffffffffffffffffff1673ffffffffffffffffffffffffffffffffffffffff163373ffffffffffffffffffffffffffffffffffffffff16146106c9576040517f08c379a00000000000000000000000000000000000000000000000000000000081526004016106c090610dc8565b60405180910390fd5b80600260006101000a81548173ffffffffffffffffffffffffffffffffffffffff021916908373ffffffffffffffffffffffffffffffffffffffff16021790555050565b600030905090565b600063f23a6e6160e01b905095945050505050565b60008060648361073a9190610ea7565b905060006305f5e1008261074e919061100a565b90506000655af3107a4000826107649190610ed8565b9050809350505050919050565b60008054906101000a900473ffffffffffffffffffffffffffffffffffffffff1681565b60007f01ffc9a7000000000000000000000000000000000000000000000000000000007bffffffffffffffffffffffffffffffffffffffffffffffffffffffff1916827bffffffffffffffffffffffffffffffffffffffffffffffffffffffff1916149050919050565b600061081261080d84610e28565b610e03565b90508083825260208201905082856020860282011115610835576108346110cd565b5b60005b85811015610865578161084b8882610937565b845260208401935060208301925050600181019050610838565b5050509392505050565b600061088261087d84610e54565b610e03565b90508281526020810184848401111561089e5761089d6110d2565b5b6108a9848285610fca565b509392505050565b6000813590506108c08161116d565b92915050565b600082601f8301126108db576108da6110c8565b5b81356108eb8482602086016107ff565b91505092915050565b60008135905061090381611184565b92915050565b600082601f83011261091e5761091d6110c8565b5b813561092e84826020860161086f565b91505092915050565b6000813590506109468161119b565b92915050565b60008151905061095b8161119b565b92915050565b600060208284031215610977576109766110dc565b5b6000610985848285016108b1565b91505092915050565b600080600080600060a086880312156109aa576109a96110dc565b5b60006109b8888289016108b1565b95505060206109c9888289016108b1565b945050604086013567ffffffffffffffff8111156109ea576109e96110d7565b5b6109f6888289016108c6565b935050606086013567ffffffffffffffff811115610a1757610a166110d7565b5b610a23888289016108c6565b925050608086013567ffffffffffffffff811115610a4457610a436110d7565b5b610a5088828901610909565b9150509295509295909350565b600080600080600060a08688031215610a7957610a786110dc565b5b6000610a87888289016108b1565b9550506020610a98888289016108b1565b9450506040610aa988828901610937565b9350506060610aba88828901610937565b925050608086013567ffffffffffffffff811115610adb57610ada6110d7565b5b610ae788828901610909565b9150509295509295909350565b600060208284031215610b0a57610b096110dc565b5b6000610b18848285016108f4565b91505092915050565b600060208284031215610b3757610b366110dc565b5b6000610b4584828501610937565b91505092915050565b600060208284031215610b6457610b636110dc565b5b6000610b728482850161094c565b91505092915050565b60008060408385031215610b9257610b916110dc565b5b6000610ba085828601610937565b9250506020610bb185828601610937565b9150509250929050565b610bc481610f32565b82525050565b610bd381610f44565b82525050565b610be281610f50565b82525050565b610bf181610fa6565b82525050565b610c0081610fb8565b82525050565b6000610c13602883610e96565b9150610c1e826110f2565b604082019050919050565b6000610c36600083610e85565b9150610c4182611141565b600082019050919050565b6000610c59602083610e96565b9150610c6482611144565b602082019050919050565b610c7881610f9c565b82525050565b6000602082019050610c936000830184610bbb565b92915050565b600060a082019050610cae6000830187610bbb565b610cbb6020830186610bbb565b610cc86040830185610be8565b610cd56060830184610c6f565b8181036080830152610ce681610c29565b905095945050505050565b600060a082019050610d066000830187610bbb565b610d136020830186610bbb565b610d206040830185610c6f565b610d2d6060830184610bf7565b8181036080830152610d3e81610c29565b905095945050505050565b6000604082019050610d5e6000830185610bbb565b610d6b6020830184610c6f565b9392505050565b6000602082019050610d876000830184610bca565b92915050565b6000602082019050610da26000830184610bd9565b92915050565b60006020820190508181036000830152610dc181610c06565b9050919050565b60006020820190508181036000830152610de181610c4c565b9050919050565b6000602082019050610dfd6000830184610c6f565b92915050565b6000610e0d610e1e565b9050610e198282610fd9565b919050565b6000604051905090565b600067ffffffffffffffff821115610e4357610e42611099565b5b602082029050602081019050919050565b600067ffffffffffffffff821115610e6f57610e6e611099565b5b610e78826110e1565b9050602081019050919050565b600082825260208201905092915050565b600082825260208201905092915050565b6000610eb282610f9c565b9150610ebd83610f9c565b925082610ecd57610ecc61106a565b5b828204905092915050565b6000610ee382610f9c565b9150610eee83610f9c565b9250817fffffffffffffffffffffffffffffffffffffffffffffffffffffffffffffffff0483118215151615610f2757610f2661103b565b5b828202905092915050565b6000610f3d82610f7c565b9050919050565b60008115159050919050565b60007fffffffff0000000000000000000000000000000000000000000000000000000082169050919050565b600073ffffffffffffffffffffffffffffffffffffffff82169050919050565b6000819050919050565b6000610fb182610f9c565b9050919050565b6000610fc382610f9c565b9050919050565b82818337600083830152505050565b610fe2826110e1565b810181811067ffffffffffffffff8211171561100157611000611099565b5b80604052505050565b600061101582610f9c565b915061102083610f9c565b9250826110305761102f61106a565b5b828206905092915050565b7f4e487b7100000000000000000000000000000000000000000000000000000000600052601160045260246000fd5b7f4e487b7100000000000000000000000000000000000000000000000000000000600052601260045260246000fd5b7f4e487b7100000000000000000000000000000000000000000000000000000000600052604160045260246000fd5b600080fd5b600080fd5b600080fd5b600080fd5b600080fd5b6000601f19601f8301169050919050565b7f56616c75652073656e7420646f6573206e6f74206d617463682072657175697260008201527f65642076616c7565000000000000000000000000000000000000000000000000602082015250565b50565b7f4f6e6c792041646d696e2063616e20706572666f726d20746869732063616c6c600082015250565b61117681610f32565b811461118157600080fd5b50565b61118d81610f50565b811461119857600080fd5b50565b6111a481610f9c565b81146111af57600080fd5b5056fea2646970667358221220a66efa12351e56944c3612bff0736601ba35614b9d5aeb4430a44df7963c497464736f6c63430008060033",
  "immutableReferences": {},
  "source": "// SPDX-License-Identifier: MIT\r\npragma solidity >=0.4.22 <0.9.0;\r\nimport \"../node_modules/@openzeppelin/contracts/token/ERC20/IERC20.sol\";\r\nimport '../node_modules/@openzeppelin/contracts/token/ERC1155/IERC1155.sol';\r\nimport \"../node_modules/@openzeppelin/contracts/token/ERC1155/utils/ERC1155Holder.sol\";\r\nimport \"../contracts/PBXP.sol\";\r\n\r\ncontract PBXPShopHolder is ERC1155Holder{\r\n    \r\n    address public admin;\r\n    IERC1155 private pbxpShopFactory;\r\n    PBXP private PBXPToken;\r\n    \r\n        \r\n    modifier onlyAdmin() {\r\n        require(msg.sender == admin, \"Only Admin can perform this call\");\r\n        _;\r\n    }\r\n\r\n    constructor(address _pbxpAddress, address _pbxpShopaddress) ERC1155Holder() {\r\n        admin = msg.sender;\r\n        PBXPToken = PBXP(_pbxpAddress);\r\n        pbxpShopFactory = IERC1155(_pbxpShopaddress);\r\n    }\r\n\r\n    function getPBXPShopHolderAddress() public view returns (address) {\r\n        return address(this);\r\n    }\r\n\r\n    function updatePBXPTokenAddress(address _pbxpAddress) external onlyAdmin{\r\n        PBXPToken = PBXP(_pbxpAddress);\r\n    }\r\n    \r\n   function updateProShopAddress(address _pbxpShopaddress) external onlyAdmin {\r\n       pbxpShopFactory = IERC1155(_pbxpShopaddress);\r\n   }\r\n    \r\n    function buyItems(uint256 sku, uint value) external {\r\n        uint weiFromSku = calculateWeiFromSku(sku);\r\n        require(weiFromSku == value, \"Value sent does not match required value\");\r\n        require(pbxpShopFactory.balanceOf(address(this), sku) >= 1);\r\n        PBXPToken.safeTransferFrom(msg.sender, address(this), 0, value,\"\");\r\n        pbxpShopFactory.safeTransferFrom(address(this), msg.sender, sku, 1, \"\");\r\n    }\r\n\r\n    function transferMatchupToken(uint sku) external {\r\n        pbxpShopFactory.safeTransferFrom(address(this), msg.sender, sku, 1, \"\");\r\n    }\r\n\r\n    function calculateWeiFromSku (uint input) public pure returns (uint){\r\n        uint a = input / 100;\r\n        uint b = a % 100000000;\r\n        uint c = b * 10 ** 14;\r\n        return c;\r\n    }\r\n    \r\n}",
  "sourcePath": "O:\\Projects\\puck-buddies\\contracts\\PBXPShopHolder.sol",
  "compiler": {
    "name": "solc",
    "version": "0.8.6+commit.11564f7e.Emscripten.clang"
  },
  "schemaVersion": "3.4.3",
  "updatedAt": "2021-11-05T11:16:30.402Z",
  "devdoc": {
    "kind": "dev",
    "methods": {
      "supportsInterface(bytes4)": {
        "details": "See {IERC165-supportsInterface}."
      }
    },
    "version": 1
  },
  "userdoc": {
    "kind": "user",
    "methods": {},
    "version": 1
  }
}