{
  "contractName": "PBXPShopFactory",
  "abi": [
    {
      "inputs": [
        {
          "internalType": "address",
          "name": "_pbxpAddress",
          "type": "address"
        },
        {
          "internalType": "address",
          "name": "_puckbuddiesplayeraddress",
          "type": "address"
        }
      ],
      "stateMutability": "nonpayable",
      "type": "constructor"
    },
    {
      "anonymous": false,
      "inputs": [
        {
          "indexed": true,
          "internalType": "address",
          "name": "account",
          "type": "address"
        },
        {
          "indexed": true,
          "internalType": "address",
          "name": "operator",
          "type": "address"
        },
        {
          "indexed": false,
          "internalType": "bool",
          "name": "approved",
          "type": "bool"
        }
      ],
      "name": "ApprovalForAll",
      "type": "event"
    },
    {
      "anonymous": false,
      "inputs": [
        {
          "indexed": false,
          "internalType": "address",
          "name": "account",
          "type": "address"
        }
      ],
      "name": "Paused",
      "type": "event"
    },
    {
      "anonymous": false,
      "inputs": [
        {
          "indexed": true,
          "internalType": "bytes32",
          "name": "role",
          "type": "bytes32"
        },
        {
          "indexed": true,
          "internalType": "bytes32",
          "name": "previousAdminRole",
          "type": "bytes32"
        },
        {
          "indexed": true,
          "internalType": "bytes32",
          "name": "newAdminRole",
          "type": "bytes32"
        }
      ],
      "name": "RoleAdminChanged",
      "type": "event"
    },
    {
      "anonymous": false,
      "inputs": [
        {
          "indexed": true,
          "internalType": "bytes32",
          "name": "role",
          "type": "bytes32"
        },
        {
          "indexed": true,
          "internalType": "address",
          "name": "account",
          "type": "address"
        },
        {
          "indexed": true,
          "internalType": "address",
          "name": "sender",
          "type": "address"
        }
      ],
      "name": "RoleGranted",
      "type": "event"
    },
    {
      "anonymous": false,
      "inputs": [
        {
          "indexed": true,
          "internalType": "bytes32",
          "name": "role",
          "type": "bytes32"
        },
        {
          "indexed": true,
          "internalType": "address",
          "name": "account",
          "type": "address"
        },
        {
          "indexed": true,
          "internalType": "address",
          "name": "sender",
          "type": "address"
        }
      ],
      "name": "RoleRevoked",
      "type": "event"
    },
    {
      "anonymous": false,
      "inputs": [
        {
          "indexed": true,
          "internalType": "address",
          "name": "operator",
          "type": "address"
        },
        {
          "indexed": true,
          "internalType": "address",
          "name": "from",
          "type": "address"
        },
        {
          "indexed": true,
          "internalType": "address",
          "name": "to",
          "type": "address"
        },
        {
          "indexed": false,
          "internalType": "uint256[]",
          "name": "ids",
          "type": "uint256[]"
        },
        {
          "indexed": false,
          "internalType": "uint256[]",
          "name": "values",
          "type": "uint256[]"
        }
      ],
      "name": "TransferBatch",
      "type": "event"
    },
    {
      "anonymous": false,
      "inputs": [
        {
          "indexed": true,
          "internalType": "address",
          "name": "operator",
          "type": "address"
        },
        {
          "indexed": true,
          "internalType": "address",
          "name": "from",
          "type": "address"
        },
        {
          "indexed": true,
          "internalType": "address",
          "name": "to",
          "type": "address"
        },
        {
          "indexed": false,
          "internalType": "uint256",
          "name": "id",
          "type": "uint256"
        },
        {
          "indexed": false,
          "internalType": "uint256",
          "name": "value",
          "type": "uint256"
        }
      ],
      "name": "TransferSingle",
      "type": "event"
    },
    {
      "anonymous": false,
      "inputs": [
        {
          "indexed": false,
          "internalType": "string",
          "name": "value",
          "type": "string"
        },
        {
          "indexed": true,
          "internalType": "uint256",
          "name": "id",
          "type": "uint256"
        }
      ],
      "name": "URI",
      "type": "event"
    },
    {
      "anonymous": false,
      "inputs": [
        {
          "indexed": false,
          "internalType": "address",
          "name": "account",
          "type": "address"
        }
      ],
      "name": "Unpaused",
      "type": "event"
    },
    {
      "inputs": [],
      "name": "DEFAULT_ADMIN_ROLE",
      "outputs": [
        {
          "internalType": "bytes32",
          "name": "",
          "type": "bytes32"
        }
      ],
      "stateMutability": "view",
      "type": "function"
    },
    {
      "inputs": [],
      "name": "MINTER_ROLE",
      "outputs": [
        {
          "internalType": "bytes32",
          "name": "",
          "type": "bytes32"
        }
      ],
      "stateMutability": "view",
      "type": "function"
    },
    {
      "inputs": [],
      "name": "PAUSER_ROLE",
      "outputs": [
        {
          "internalType": "bytes32",
          "name": "",
          "type": "bytes32"
        }
      ],
      "stateMutability": "view",
      "type": "function"
    },
    {
      "inputs": [],
      "name": "PBXPToken",
      "outputs": [
        {
          "internalType": "contract PBXP",
          "name": "",
          "type": "address"
        }
      ],
      "stateMutability": "view",
      "type": "function"
    },
    {
      "inputs": [],
      "name": "admin",
      "outputs": [
        {
          "internalType": "address",
          "name": "",
          "type": "address"
        }
      ],
      "stateMutability": "view",
      "type": "function"
    },
    {
      "inputs": [
        {
          "internalType": "address",
          "name": "account",
          "type": "address"
        },
        {
          "internalType": "uint256",
          "name": "id",
          "type": "uint256"
        }
      ],
      "name": "balanceOf",
      "outputs": [
        {
          "internalType": "uint256",
          "name": "",
          "type": "uint256"
        }
      ],
      "stateMutability": "view",
      "type": "function"
    },
    {
      "inputs": [
        {
          "internalType": "address[]",
          "name": "accounts",
          "type": "address[]"
        },
        {
          "internalType": "uint256[]",
          "name": "ids",
          "type": "uint256[]"
        }
      ],
      "name": "balanceOfBatch",
      "outputs": [
        {
          "internalType": "uint256[]",
          "name": "",
          "type": "uint256[]"
        }
      ],
      "stateMutability": "view",
      "type": "function"
    },
    {
      "inputs": [
        {
          "internalType": "address",
          "name": "account",
          "type": "address"
        },
        {
          "internalType": "uint256",
          "name": "id",
          "type": "uint256"
        },
        {
          "internalType": "uint256",
          "name": "value",
          "type": "uint256"
        }
      ],
      "name": "burn",
      "outputs": [],
      "stateMutability": "nonpayable",
      "type": "function"
    },
    {
      "inputs": [
        {
          "internalType": "address",
          "name": "account",
          "type": "address"
        },
        {
          "internalType": "uint256[]",
          "name": "ids",
          "type": "uint256[]"
        },
        {
          "internalType": "uint256[]",
          "name": "values",
          "type": "uint256[]"
        }
      ],
      "name": "burnBatch",
      "outputs": [],
      "stateMutability": "nonpayable",
      "type": "function"
    },
    {
      "inputs": [
        {
          "internalType": "bytes32",
          "name": "role",
          "type": "bytes32"
        }
      ],
      "name": "getRoleAdmin",
      "outputs": [
        {
          "internalType": "bytes32",
          "name": "",
          "type": "bytes32"
        }
      ],
      "stateMutability": "view",
      "type": "function"
    },
    {
      "inputs": [
        {
          "internalType": "bytes32",
          "name": "role",
          "type": "bytes32"
        },
        {
          "internalType": "uint256",
          "name": "index",
          "type": "uint256"
        }
      ],
      "name": "getRoleMember",
      "outputs": [
        {
          "internalType": "address",
          "name": "",
          "type": "address"
        }
      ],
      "stateMutability": "view",
      "type": "function"
    },
    {
      "inputs": [
        {
          "internalType": "bytes32",
          "name": "role",
          "type": "bytes32"
        }
      ],
      "name": "getRoleMemberCount",
      "outputs": [
        {
          "internalType": "uint256",
          "name": "",
          "type": "uint256"
        }
      ],
      "stateMutability": "view",
      "type": "function"
    },
    {
      "inputs": [
        {
          "internalType": "bytes32",
          "name": "role",
          "type": "bytes32"
        },
        {
          "internalType": "address",
          "name": "account",
          "type": "address"
        }
      ],
      "name": "grantRole",
      "outputs": [],
      "stateMutability": "nonpayable",
      "type": "function"
    },
    {
      "inputs": [
        {
          "internalType": "bytes32",
          "name": "role",
          "type": "bytes32"
        },
        {
          "internalType": "address",
          "name": "account",
          "type": "address"
        }
      ],
      "name": "hasRole",
      "outputs": [
        {
          "internalType": "bool",
          "name": "",
          "type": "bool"
        }
      ],
      "stateMutability": "view",
      "type": "function"
    },
    {
      "inputs": [
        {
          "internalType": "address",
          "name": "account",
          "type": "address"
        },
        {
          "internalType": "address",
          "name": "operator",
          "type": "address"
        }
      ],
      "name": "isApprovedForAll",
      "outputs": [
        {
          "internalType": "bool",
          "name": "",
          "type": "bool"
        }
      ],
      "stateMutability": "view",
      "type": "function"
    },
    {
      "inputs": [
        {
          "internalType": "address",
          "name": "to",
          "type": "address"
        },
        {
          "internalType": "uint256",
          "name": "id",
          "type": "uint256"
        },
        {
          "internalType": "uint256",
          "name": "amount",
          "type": "uint256"
        },
        {
          "internalType": "bytes",
          "name": "data",
          "type": "bytes"
        }
      ],
      "name": "mint",
      "outputs": [],
      "stateMutability": "nonpayable",
      "type": "function"
    },
    {
      "inputs": [
        {
          "internalType": "address",
          "name": "to",
          "type": "address"
        },
        {
          "internalType": "uint256[]",
          "name": "ids",
          "type": "uint256[]"
        },
        {
          "internalType": "uint256[]",
          "name": "amounts",
          "type": "uint256[]"
        },
        {
          "internalType": "bytes",
          "name": "data",
          "type": "bytes"
        }
      ],
      "name": "mintBatch",
      "outputs": [],
      "stateMutability": "nonpayable",
      "type": "function"
    },
    {
      "inputs": [],
      "name": "pause",
      "outputs": [],
      "stateMutability": "nonpayable",
      "type": "function"
    },
    {
      "inputs": [],
      "name": "paused",
      "outputs": [
        {
          "internalType": "bool",
          "name": "",
          "type": "bool"
        }
      ],
      "stateMutability": "view",
      "type": "function"
    },
    {
      "inputs": [],
      "name": "pbPlayers",
      "outputs": [
        {
          "internalType": "contract PBPlayers",
          "name": "",
          "type": "address"
        }
      ],
      "stateMutability": "view",
      "type": "function"
    },
    {
      "inputs": [],
      "name": "pbxpShopFactory",
      "outputs": [
        {
          "internalType": "contract PBXPShopFactory",
          "name": "",
          "type": "address"
        }
      ],
      "stateMutability": "view",
      "type": "function"
    },
    {
      "inputs": [
        {
          "internalType": "bytes32",
          "name": "role",
          "type": "bytes32"
        },
        {
          "internalType": "address",
          "name": "account",
          "type": "address"
        }
      ],
      "name": "renounceRole",
      "outputs": [],
      "stateMutability": "nonpayable",
      "type": "function"
    },
    {
      "inputs": [
        {
          "internalType": "bytes32",
          "name": "role",
          "type": "bytes32"
        },
        {
          "internalType": "address",
          "name": "account",
          "type": "address"
        }
      ],
      "name": "revokeRole",
      "outputs": [],
      "stateMutability": "nonpayable",
      "type": "function"
    },
    {
      "inputs": [
        {
          "internalType": "address",
          "name": "from",
          "type": "address"
        },
        {
          "internalType": "address",
          "name": "to",
          "type": "address"
        },
        {
          "internalType": "uint256[]",
          "name": "ids",
          "type": "uint256[]"
        },
        {
          "internalType": "uint256[]",
          "name": "amounts",
          "type": "uint256[]"
        },
        {
          "internalType": "bytes",
          "name": "data",
          "type": "bytes"
        }
      ],
      "name": "safeBatchTransferFrom",
      "outputs": [],
      "stateMutability": "nonpayable",
      "type": "function"
    },
    {
      "inputs": [
        {
          "internalType": "address",
          "name": "from",
          "type": "address"
        },
        {
          "internalType": "address",
          "name": "to",
          "type": "address"
        },
        {
          "internalType": "uint256",
          "name": "id",
          "type": "uint256"
        },
        {
          "internalType": "uint256",
          "name": "amount",
          "type": "uint256"
        },
        {
          "internalType": "bytes",
          "name": "data",
          "type": "bytes"
        }
      ],
      "name": "safeTransferFrom",
      "outputs": [],
      "stateMutability": "nonpayable",
      "type": "function"
    },
    {
      "inputs": [
        {
          "internalType": "address",
          "name": "operator",
          "type": "address"
        },
        {
          "internalType": "bool",
          "name": "approved",
          "type": "bool"
        }
      ],
      "name": "setApprovalForAll",
      "outputs": [],
      "stateMutability": "nonpayable",
      "type": "function"
    },
    {
      "inputs": [],
      "name": "skuCount",
      "outputs": [
        {
          "internalType": "uint256",
          "name": "",
          "type": "uint256"
        }
      ],
      "stateMutability": "view",
      "type": "function"
    },
    {
      "inputs": [
        {
          "internalType": "bytes4",
          "name": "interfaceId",
          "type": "bytes4"
        }
      ],
      "name": "supportsInterface",
      "outputs": [
        {
          "internalType": "bool",
          "name": "",
          "type": "bool"
        }
      ],
      "stateMutability": "view",
      "type": "function"
    },
    {
      "inputs": [],
      "name": "unpause",
      "outputs": [],
      "stateMutability": "nonpayable",
      "type": "function"
    },
    {
      "inputs": [
        {
          "internalType": "uint256",
          "name": "",
          "type": "uint256"
        }
      ],
      "name": "uri",
      "outputs": [
        {
          "internalType": "string",
          "name": "",
          "type": "string"
        }
      ],
      "stateMutability": "view",
      "type": "function"
    },
    {
      "inputs": [],
      "name": "isAdmin",
      "outputs": [
        {
          "internalType": "bool",
          "name": "",
          "type": "bool"
        }
      ],
      "stateMutability": "view",
      "type": "function"
    },
    {
      "inputs": [
        {
          "internalType": "address",
          "name": "_pbxpAddress",
          "type": "address"
        }
      ],
      "name": "updatePBXPTokenAddress",
      "outputs": [],
      "stateMutability": "nonpayable",
      "type": "function"
    },
    {
      "inputs": [
        {
          "internalType": "address",
          "name": "_pbxpHolderAddress",
          "type": "address"
        }
      ],
      "name": "updatePBXPHolderAddress",
      "outputs": [],
      "stateMutability": "nonpayable",
      "type": "function"
    },
    {
      "inputs": [
        {
          "internalType": "address",
          "name": "_puckbuddiesplayeraddress",
          "type": "address"
        }
      ],
      "name": "updatePuckBuddiesPlayerAddress",
      "outputs": [],
      "stateMutability": "nonpayable",
      "type": "function"
    },
    {
      "inputs": [],
      "name": "getPBXPFactoryAddress",
      "outputs": [
        {
          "internalType": "address",
          "name": "",
          "type": "address"
        }
      ],
      "stateMutability": "view",
      "type": "function"
    },
    {
      "inputs": [
        {
          "internalType": "uint256",
          "name": "sku",
          "type": "uint256"
        },
        {
          "internalType": "uint256",
          "name": "initalSupply",
          "type": "uint256"
        }
      ],
      "name": "newProduct",
      "outputs": [],
      "stateMutability": "nonpayable",
      "type": "function"
    },
    {
      "inputs": [
        {
          "internalType": "uint256",
          "name": "token",
          "type": "uint256"
        },
        {
          "internalType": "uint256",
          "name": "qty",
          "type": "uint256"
        }
      ],
      "name": "burnItems",
      "outputs": [],
      "stateMutability": "nonpayable",
      "type": "function"
    },
    {
      "inputs": [],
      "name": "getTimestamp",
      "outputs": [
        {
          "internalType": "uint256",
          "name": "",
          "type": "uint256"
        }
      ],
      "stateMutability": "view",
      "type": "function"
    },
    {
      "inputs": [],
      "name": "getBNBBalance",
      "outputs": [
        {
          "internalType": "uint256",
          "name": "",
          "type": "uint256"
        }
      ],
      "stateMutability": "view",
      "type": "function"
    },
    {
      "inputs": [
        {
          "internalType": "address payable",
          "name": "_to",
          "type": "address"
        },
        {
          "internalType": "uint256",
          "name": "_amount",
          "type": "uint256"
        }
      ],
      "name": "transferBNB",
      "outputs": [],
      "stateMutability": "nonpayable",
      "type": "function"
    }
  ],
  "bytecode": "0x60806040523480156200001157600080fd5b5060405162005e8138038062005e81833981810160405281019062000037919062000570565b60405180602001604052806000815250806200005981620001f760201b60201c565b506000600560006101000a81548160ff021916908315150217905550620000996000801b6200008d6200021360201b60201c565b6200021b60201b60201c565b620000da7f9f2df0fed2c77648de5860a4cc508cd0818c85b8b8a1ab4ceeef8d981c8956a6620000ce6200021360201b60201c565b6200021b60201b60201c565b6200011b7f65d7a28e3265b37a6474929f336521b332c1681b933f6cb9f3376673440d862a6200010f6200021360201b60201c565b6200021b60201b60201c565b50600160068190555033600760006101000a81548173ffffffffffffffffffffffffffffffffffffffff021916908373ffffffffffffffffffffffffffffffffffffffff16021790555081600d60006101000a81548173ffffffffffffffffffffffffffffffffffffffff021916908373ffffffffffffffffffffffffffffffffffffffff16021790555080600f60006101000a81548173ffffffffffffffffffffffffffffffffffffffff021916908373ffffffffffffffffffffffffffffffffffffffff1602179055506000600a8190555050506200066f565b80600490805190602001906200020f929190620004a9565b5050565b600033905090565b6200023282826200026360201b620019651760201c565b6200025e81600160008581526020019081526020016000206200027960201b620019731790919060201c565b505050565b620002758282620002b160201b60201c565b5050565b6000620002a9836000018373ffffffffffffffffffffffffffffffffffffffff1660001b620003a260201b60201c565b905092915050565b620002c382826200041c60201b60201c565b6200039e57600160008084815260200190815260200160002060000160008373ffffffffffffffffffffffffffffffffffffffff1673ffffffffffffffffffffffffffffffffffffffff16815260200190815260200160002060006101000a81548160ff021916908315150217905550620003436200021360201b60201c565b73ffffffffffffffffffffffffffffffffffffffff168173ffffffffffffffffffffffffffffffffffffffff16837f2f8788117e7eff1d82e926ec794901d17c78024a50270940304540a733656f0d60405160405180910390a45b5050565b6000620003b683836200048660201b60201c565b6200041157826000018290806001815401808255809150506001900390600052602060002001600090919091909150558260000180549050836001016000848152602001908152602001600020819055506001905062000416565b600090505b92915050565b600080600084815260200190815260200160002060000160008373ffffffffffffffffffffffffffffffffffffffff1673ffffffffffffffffffffffffffffffffffffffff16815260200190815260200160002060009054906101000a900460ff16905092915050565b600080836001016000848152602001908152602001600020541415905092915050565b828054620004b790620005eb565b90600052602060002090601f016020900481019282620004db576000855562000527565b82601f10620004f657805160ff191683800117855562000527565b8280016001018555821562000527579182015b828111156200052657825182559160200191906001019062000509565b5b5090506200053691906200053a565b5090565b5b80821115620005555760008160009055506001016200053b565b5090565b6000815190506200056a8162000655565b92915050565b600080604083850312156200058a576200058962000650565b5b60006200059a8582860162000559565b9250506020620005ad8582860162000559565b9150509250929050565b6000620005c482620005cb565b9050919050565b600073ffffffffffffffffffffffffffffffffffffffff82169050919050565b600060028204905060018216806200060457607f821691505b602082108114156200061b576200061a62000621565b5b50919050565b7f4e487b7100000000000000000000000000000000000000000000000000000000600052602260045260246000fd5b600080fd5b6200066081620005b7565b81146200066c57600080fd5b50565b615802806200067f6000396000f3fe608060405234801561001057600080fd5b50600436106102475760003560e01c806397ede5251161013b578063e638ded3116100b8578063f242432a1161007c578063f242432a146106c6578063f5298aca146106e2578063f851a440146106fe578063f89879aa1461071c578063fab853021461073a57610247565b8063e638ded314610624578063e63ab1e914610640578063e92409841461065e578063e985e9c51461067a578063eb17fba3146106aa57610247565b8063b6db75a0116100ff578063b6db75a01461057e578063bb521dc51461059c578063ca15c873146105ba578063d5391393146105ea578063d547741f1461060857610247565b806397ede525146104ee578063a217fddf1461050c578063a22cb4651461052a578063a514cf0714610546578063a748de1b1461056257610247565b806336568abe116101c95780636b20c4541161018d5780636b20c4541461044c578063731133e9146104685780638456cb59146104845780639010d07c1461048e57806391d14854146104be57610247565b806336568abe146103ba5780633f4ba83a146103d65780634e1273f4146103e05780635c975abb1461041057806363eaef5a1461042e57610247565b806322702473116102105780632270247314610316578063248a9ca3146103345780632eb2c2d6146103645780632f2ff15d146103805780632f74e1d61461039c57610247565b8062fdd58e1461024c57806301ffc9a71461027c5780630e89341c146102ac578063188ec356146102dc5780631f7fdffa146102fa575b600080fd5b61026660048036038101906102619190613dca565b610756565b6040516102739190614a7e565b60405180910390f35b61029660048036038101906102919190614005565b610820565b6040516102a39190614715565b60405180910390f35b6102c660048036038101906102c1919061405f565b610832565b6040516102d3919061479c565b60405180910390f35b6102e46108c6565b6040516102f19190614a7e565b60405180910390f35b610314600480360381019061030f9190613ccf565b6108ce565b005b61031e610950565b60405161032b9190614a7e565b60405180910390f35b61034e60048036038101906103499190613f58565b610956565b60405161035b9190614730565b60405180910390f35b61037e60048036038101906103799190613ade565b610975565b005b61039a60048036038101906103959190613f85565b610a16565b005b6103a4610a4a565b6040516103b19190614766565b60405180910390f35b6103d460048036038101906103cf9190613f85565b610a70565b005b6103de610aa4565b005b6103fa60048036038101906103f59190613ee0565b610b1e565b60405161040791906146bc565b60405180910390f35b610418610c37565b6040516104259190614715565b60405180910390f35b610436610c4e565b604051610443919061474b565b60405180910390f35b61046660048036038101906104619190613c44565b610c74565b005b610482600480360381019061047d9190613e5d565b610d11565b005b61048c610d93565b005b6104a860048036038101906104a39190613fc5565b610e0d565b6040516104b591906145df565b60405180910390f35b6104d860048036038101906104d39190613f85565b610e3c565b6040516104e59190614715565b60405180910390f35b6104f6610ea6565b6040516105039190614781565b60405180910390f35b610514610ecc565b6040516105219190614730565b60405180910390f35b610544600480360381019061053f9190613d8a565b610ed3565b005b610560600480360381019061055b9190613a31565b611054565b005b61057c6004803603810190610577919061408c565b611128565b005b610586611280565b6040516105939190614715565b60405180910390f35b6105a46112e9565b6040516105b191906145df565b60405180910390f35b6105d460048036038101906105cf9190613f58565b6112f1565b6040516105e19190614a7e565b60405180910390f35b6105f2611315565b6040516105ff9190614730565b60405180910390f35b610622600480360381019061061d9190613f85565b611339565b005b61063e60048036038101906106399190613a31565b61136d565b005b610648611441565b6040516106559190614730565b60405180910390f35b6106786004803603810190610673919061408c565b611465565b005b610694600480360381019061068f9190613a9e565b611526565b6040516106a19190614715565b60405180910390f35b6106c460048036038101906106bf9190613a5e565b6115ba565b005b6106e060048036038101906106db9190613bad565b611695565b005b6106fc60048036038101906106f79190613e0a565b611736565b005b6107066117d3565b60405161071391906145df565b60405180910390f35b6107246117f9565b6040516107319190614a7e565b60405180910390f35b610754600480360381019061074f9190613a31565b611891565b005b60008073ffffffffffffffffffffffffffffffffffffffff168373ffffffffffffffffffffffffffffffffffffffff1614156107c7576040517f08c379a00000000000000000000000000000000000000000000000000000000081526004016107be9061483e565b60405180910390fd5b6002600083815260200190815260200160002060008473ffffffffffffffffffffffffffffffffffffffff1673ffffffffffffffffffffffffffffffffffffffff16815260200190815260200160002054905092915050565b600061082b826119a3565b9050919050565b60606004805461084190614e38565b80601f016020809104026020016040519081016040528092919081815260200182805461086d90614e38565b80156108ba5780601f1061088f576101008083540402835291602001916108ba565b820191906000526020600020905b81548152906001019060200180831161089d57829003601f168201915b50505050509050919050565b600042905090565b6108ff7f9f2df0fed2c77648de5860a4cc508cd0818c85b8b8a1ab4ceeef8d981c8956a66108fa611a85565b610e3c565b61093e576040517f08c379a00000000000000000000000000000000000000000000000000000000081526004016109359061495e565b60405180910390fd5b61094a84848484611a8d565b50505050565b600a5481565b6000806000838152602001908152602001600020600101549050919050565b61097d611a85565b73ffffffffffffffffffffffffffffffffffffffff168573ffffffffffffffffffffffffffffffffffffffff1614806109c357506109c2856109bd611a85565b611526565b5b610a02576040517f08c379a00000000000000000000000000000000000000000000000000000000081526004016109f99061491e565b60405180910390fd5b610a0f8585858585611cac565b5050505050565b610a208282611fc3565b610a45816001600085815260200190815260200160002061197390919063ffffffff16565b505050565b600e60009054906101000a900473ffffffffffffffffffffffffffffffffffffffff1681565b610a7a8282611fec565b610a9f816001600085815260200190815260200160002061206f90919063ffffffff16565b505050565b610ad57f65d7a28e3265b37a6474929f336521b332c1681b933f6cb9f3376673440d862a610ad0611a85565b610e3c565b610b14576040517f08c379a0000000000000000000000000000000000000000000000000000000008152600401610b0b9061499e565b60405180910390fd5b610b1c61209f565b565b60608151835114610b64576040517f08c379a0000000000000000000000000000000000000000000000000000000008152600401610b5b906149fe565b60405180910390fd5b6000835167ffffffffffffffff811115610b8157610b80614fa0565b5b604051908082528060200260200182016040528015610baf5781602001602082028036833780820191505090505b50905060005b8451811015610c2c57610bfc858281518110610bd457610bd3614f71565b5b6020026020010151858381518110610bef57610bee614f71565b5b6020026020010151610756565b828281518110610c0f57610c0e614f71565b5b60200260200101818152505080610c2590614e9b565b9050610bb5565b508091505092915050565b6000600560009054906101000a900460ff16905090565b600f60009054906101000a900473ffffffffffffffffffffffffffffffffffffffff1681565b610c7c611a85565b73ffffffffffffffffffffffffffffffffffffffff168373ffffffffffffffffffffffffffffffffffffffff161480610cc25750610cc183610cbc611a85565b611526565b5b610d01576040517f08c379a0000000000000000000000000000000000000000000000000000000008152600401610cf89061489e565b60405180910390fd5b610d0c838383612141565b505050565b610d427f9f2df0fed2c77648de5860a4cc508cd0818c85b8b8a1ab4ceeef8d981c8956a6610d3d611a85565b610e3c565b610d81576040517f08c379a0000000000000000000000000000000000000000000000000000000008152600401610d789061495e565b60405180910390fd5b610d8d848484846123f4565b50505050565b610dc47f65d7a28e3265b37a6474929f336521b332c1681b933f6cb9f3376673440d862a610dbf611a85565b610e3c565b610e03576040517f08c379a0000000000000000000000000000000000000000000000000000000008152600401610dfa906149be565b60405180910390fd5b610e0b61258b565b565b6000610e34826001600086815260200190815260200160002061262e90919063ffffffff16565b905092915050565b600080600084815260200190815260200160002060000160008373ffffffffffffffffffffffffffffffffffffffff1673ffffffffffffffffffffffffffffffffffffffff16815260200190815260200160002060009054906101000a900460ff16905092915050565b600d60009054906101000a900473ffffffffffffffffffffffffffffffffffffffff1681565b6000801b81565b8173ffffffffffffffffffffffffffffffffffffffff16610ef2611a85565b73ffffffffffffffffffffffffffffffffffffffff161415610f49576040517f08c379a0000000000000000000000000000000000000000000000000000000008152600401610f40906149de565b60405180910390fd5b8060036000610f56611a85565b73ffffffffffffffffffffffffffffffffffffffff1673ffffffffffffffffffffffffffffffffffffffff16815260200190815260200160002060008473ffffffffffffffffffffffffffffffffffffffff1673ffffffffffffffffffffffffffffffffffffffff16815260200190815260200160002060006101000a81548160ff0219169083151502179055508173ffffffffffffffffffffffffffffffffffffffff16611003611a85565b73ffffffffffffffffffffffffffffffffffffffff167f17307eab39ab6107e8899845ad3d59bd9653f200f220920489ca2b5937696c31836040516110489190614715565b60405180910390a35050565b600760009054906101000a900473ffffffffffffffffffffffffffffffffffffffff1673ffffffffffffffffffffffffffffffffffffffff163373ffffffffffffffffffffffffffffffffffffffff16146110e4576040517f08c379a00000000000000000000000000000000000000000000000000000000081526004016110db906148be565b60405180910390fd5b80600e60006101000a81548173ffffffffffffffffffffffffffffffffffffffff021916908373ffffffffffffffffffffffffffffffffffffffff16021790555050565b600760009054906101000a900473ffffffffffffffffffffffffffffffffffffffff1673ffffffffffffffffffffffffffffffffffffffff163373ffffffffffffffffffffffffffffffffffffffff16146111b8576040517f08c379a00000000000000000000000000000000000000000000000000000000081526004016111af906148be565b60405180910390fd5b600a60008154809291906111cb90614e9b565b919050555061120d600860009054906101000a900473ffffffffffffffffffffffffffffffffffffffff168383604051806020016040528060008152506123f4565b61123a600860009054906101000a900473ffffffffffffffffffffffffffffffffffffffff166001610ed3565b611245306001610ed3565b611272600960009054906101000a900473ffffffffffffffffffffffffffffffffffffffff166001610ed3565b61127c600b612648565b5050565b60003373ffffffffffffffffffffffffffffffffffffffff16600760009054906101000a900473ffffffffffffffffffffffffffffffffffffffff1673ffffffffffffffffffffffffffffffffffffffff1614156112e157600190506112e6565b600090505b90565b600030905090565b600061130e6001600084815260200190815260200160002061265e565b9050919050565b7f9f2df0fed2c77648de5860a4cc508cd0818c85b8b8a1ab4ceeef8d981c8956a681565b6113438282612673565b611368816001600085815260200190815260200160002061206f90919063ffffffff16565b505050565b600760009054906101000a900473ffffffffffffffffffffffffffffffffffffffff1673ffffffffffffffffffffffffffffffffffffffff163373ffffffffffffffffffffffffffffffffffffffff16146113fd576040517f08c379a00000000000000000000000000000000000000000000000000000000081526004016113f4906148be565b60405180910390fd5b80600d60006101000a81548173ffffffffffffffffffffffffffffffffffffffff021916908373ffffffffffffffffffffffffffffffffffffffff16021790555050565b7f65d7a28e3265b37a6474929f336521b332c1681b933f6cb9f3376673440d862a81565b600760009054906101000a900473ffffffffffffffffffffffffffffffffffffffff1673ffffffffffffffffffffffffffffffffffffffff163373ffffffffffffffffffffffffffffffffffffffff16146114f5576040517f08c379a00000000000000000000000000000000000000000000000000000000081526004016114ec906148be565b60405180910390fd5b611522600860009054906101000a900473ffffffffffffffffffffffffffffffffffffffff16838361269c565b5050565b6000600360008473ffffffffffffffffffffffffffffffffffffffff1673ffffffffffffffffffffffffffffffffffffffff16815260200190815260200160002060008373ffffffffffffffffffffffffffffffffffffffff1673ffffffffffffffffffffffffffffffffffffffff16815260200190815260200160002060009054906101000a900460ff16905092915050565b600760009054906101000a900473ffffffffffffffffffffffffffffffffffffffff1673ffffffffffffffffffffffffffffffffffffffff163373ffffffffffffffffffffffffffffffffffffffff161461164a576040517f08c379a0000000000000000000000000000000000000000000000000000000008152600401611641906148be565b60405180910390fd5b8173ffffffffffffffffffffffffffffffffffffffff166108fc829081150290604051600060405180830381858888f19350505050158015611690573d6000803e3d6000fd5b505050565b61169d611a85565b73ffffffffffffffffffffffffffffffffffffffff168573ffffffffffffffffffffffffffffffffffffffff1614806116e357506116e2856116dd611a85565b611526565b5b611722576040517f08c379a00000000000000000000000000000000000000000000000000000000081526004016117199061489e565b60405180910390fd5b61172f85858585856128bb565b5050505050565b61173e611a85565b73ffffffffffffffffffffffffffffffffffffffff168373ffffffffffffffffffffffffffffffffffffffff16148061178457506117838361177e611a85565b611526565b5b6117c3576040517f08c379a00000000000000000000000000000000000000000000000000000000081526004016117ba9061489e565b60405180910390fd5b6117ce83838361269c565b505050565b600760009054906101000a900473ffffffffffffffffffffffffffffffffffffffff1681565b6000600760009054906101000a900473ffffffffffffffffffffffffffffffffffffffff1673ffffffffffffffffffffffffffffffffffffffff163373ffffffffffffffffffffffffffffffffffffffff161461188b576040517f08c379a0000000000000000000000000000000000000000000000000000000008152600401611882906148be565b60405180910390fd5b47905090565b600760009054906101000a900473ffffffffffffffffffffffffffffffffffffffff1673ffffffffffffffffffffffffffffffffffffffff163373ffffffffffffffffffffffffffffffffffffffff1614611921576040517f08c379a0000000000000000000000000000000000000000000000000000000008152600401611918906148be565b60405180910390fd5b80600f60006101000a81548173ffffffffffffffffffffffffffffffffffffffff021916908373ffffffffffffffffffffffffffffffffffffffff16021790555050565b61196f8282612b40565b5050565b600061199b836000018373ffffffffffffffffffffffffffffffffffffffff1660001b612c20565b905092915050565b60007fd9b67a26000000000000000000000000000000000000000000000000000000007bffffffffffffffffffffffffffffffffffffffffffffffffffffffff1916827bffffffffffffffffffffffffffffffffffffffffffffffffffffffff19161480611a6e57507f0e89341c000000000000000000000000000000000000000000000000000000007bffffffffffffffffffffffffffffffffffffffffffffffffffffffff1916827bffffffffffffffffffffffffffffffffffffffffffffffffffffffff1916145b80611a7e5750611a7d82612c90565b5b9050919050565b600033905090565b600073ffffffffffffffffffffffffffffffffffffffff168473ffffffffffffffffffffffffffffffffffffffff161415611afd576040517f08c379a0000000000000000000000000000000000000000000000000000000008152600401611af490614a3e565b60405180910390fd5b8151835114611b41576040517f08c379a0000000000000000000000000000000000000000000000000000000008152600401611b3890614a1e565b60405180910390fd5b6000611b4b611a85565b9050611b5c81600087878787612d0a565b60005b8451811015611c1657838181518110611b7b57611b7a614f71565b5b602002602001015160026000878481518110611b9a57611b99614f71565b5b6020026020010151815260200190815260200160002060008873ffffffffffffffffffffffffffffffffffffffff1673ffffffffffffffffffffffffffffffffffffffff1681526020019081526020016000206000828254611bfc9190614bec565b925050819055508080611c0e90614e9b565b915050611b5f565b508473ffffffffffffffffffffffffffffffffffffffff16600073ffffffffffffffffffffffffffffffffffffffff168273ffffffffffffffffffffffffffffffffffffffff167f4a39dc06d4c0dbc64b70af90fd698a233a518aa5d07e595d983b8c0526c8f7fb8787604051611c8e9291906146de565b60405180910390a4611ca581600087878787612d20565b5050505050565b8151835114611cf0576040517f08c379a0000000000000000000000000000000000000000000000000000000008152600401611ce790614a1e565b60405180910390fd5b600073ffffffffffffffffffffffffffffffffffffffff168473ffffffffffffffffffffffffffffffffffffffff161415611d60576040517f08c379a0000000000000000000000000000000000000000000000000000000008152600401611d57906148fe565b60405180910390fd5b6000611d6a611a85565b9050611d7a818787878787612d0a565b60005b8451811015611f2e576000858281518110611d9b57611d9a614f71565b5b602002602001015190506000858381518110611dba57611db9614f71565b5b6020026020010151905060006002600084815260200190815260200160002060008b73ffffffffffffffffffffffffffffffffffffffff1673ffffffffffffffffffffffffffffffffffffffff16815260200190815260200160002054905081811015611e5c576040517f08c379a0000000000000000000000000000000000000000000000000000000008152600401611e539061497e565b60405180910390fd5b8181036002600085815260200190815260200160002060008c73ffffffffffffffffffffffffffffffffffffffff1673ffffffffffffffffffffffffffffffffffffffff16815260200190815260200160002081905550816002600085815260200190815260200160002060008b73ffffffffffffffffffffffffffffffffffffffff1673ffffffffffffffffffffffffffffffffffffffff1681526020019081526020016000206000828254611f139190614bec565b9250508190555050505080611f2790614e9b565b9050611d7d565b508473ffffffffffffffffffffffffffffffffffffffff168673ffffffffffffffffffffffffffffffffffffffff168273ffffffffffffffffffffffffffffffffffffffff167f4a39dc06d4c0dbc64b70af90fd698a233a518aa5d07e595d983b8c0526c8f7fb8787604051611fa59291906146de565b60405180910390a4611fbb818787878787612d20565b505050505050565b611fcc82610956565b611fdd81611fd8611a85565b612f07565b611fe78383612b40565b505050565b611ff4611a85565b73ffffffffffffffffffffffffffffffffffffffff168173ffffffffffffffffffffffffffffffffffffffff1614612061576040517f08c379a000000000000000000000000000000000000000000000000000000000815260040161205890614a5e565b60405180910390fd5b61206b8282612fa4565b5050565b6000612097836000018373ffffffffffffffffffffffffffffffffffffffff1660001b613085565b905092915050565b6120a7610c37565b6120e6576040517f08c379a00000000000000000000000000000000000000000000000000000000081526004016120dd9061481e565b60405180910390fd5b6000600560006101000a81548160ff0219169083151502179055507f5db9ee0a495bf2e6ff9c91a7834c1ba4fdd244a5e8aa4e537bd38aeae4b073aa61212a611a85565b60405161213791906145df565b60405180910390a1565b600073ffffffffffffffffffffffffffffffffffffffff168373ffffffffffffffffffffffffffffffffffffffff1614156121b1576040517f08c379a00000000000000000000000000000000000000000000000000000000081526004016121a89061493e565b60405180910390fd5b80518251146121f5576040517f08c379a00000000000000000000000000000000000000000000000000000000081526004016121ec90614a1e565b60405180910390fd5b60006121ff611a85565b905061221f81856000868660405180602001604052806000815250612d0a565b60005b835181101561236e5760008482815181106122405761223f614f71565b5b60200260200101519050600084838151811061225f5761225e614f71565b5b6020026020010151905060006002600084815260200190815260200160002060008973ffffffffffffffffffffffffffffffffffffffff1673ffffffffffffffffffffffffffffffffffffffff16815260200190815260200160002054905081811015612301576040517f08c379a00000000000000000000000000000000000000000000000000000000081526004016122f89061485e565b60405180910390fd5b8181036002600085815260200190815260200160002060008a73ffffffffffffffffffffffffffffffffffffffff1673ffffffffffffffffffffffffffffffffffffffff16815260200190815260200160002081905550505050808061236690614e9b565b915050612222565b50600073ffffffffffffffffffffffffffffffffffffffff168473ffffffffffffffffffffffffffffffffffffffff168273ffffffffffffffffffffffffffffffffffffffff167f4a39dc06d4c0dbc64b70af90fd698a233a518aa5d07e595d983b8c0526c8f7fb86866040516123e69291906146de565b60405180910390a450505050565b600073ffffffffffffffffffffffffffffffffffffffff168473ffffffffffffffffffffffffffffffffffffffff161415612464576040517f08c379a000000000000000000000000000000000000000000000000000000000815260040161245b90614a3e565b60405180910390fd5b600061246e611a85565b905061248f8160008761248088613199565b61248988613199565b87612d0a565b826002600086815260200190815260200160002060008773ffffffffffffffffffffffffffffffffffffffff1673ffffffffffffffffffffffffffffffffffffffff16815260200190815260200160002060008282546124ef9190614bec565b925050819055508473ffffffffffffffffffffffffffffffffffffffff16600073ffffffffffffffffffffffffffffffffffffffff168273ffffffffffffffffffffffffffffffffffffffff167fc3d58168c5ae7397731d063d5bbf3d657854427343f4c083240f7aacaa2d0f62878760405161256d929190614a99565b60405180910390a461258481600087878787613213565b5050505050565b612593610c37565b156125d3576040517f08c379a00000000000000000000000000000000000000000000000000000000081526004016125ca906148de565b60405180910390fd5b6001600560006101000a81548160ff0219169083151502179055507f62e78cea01bee320cd4e420270b5ea74000d11b0c9f74754ebdbfc544b05a258612617611a85565b60405161262491906145df565b60405180910390a1565b600061263d83600001836133fa565b60001c905092915050565b6001816000016000828254019250508190555050565b600061266c82600001613425565b9050919050565b61267c82610956565b61268d81612688611a85565b612f07565b6126978383612fa4565b505050565b600073ffffffffffffffffffffffffffffffffffffffff168373ffffffffffffffffffffffffffffffffffffffff16141561270c576040517f08c379a00000000000000000000000000000000000000000000000000000000081526004016127039061493e565b60405180910390fd5b6000612716611a85565b90506127468185600061272887613199565b61273187613199565b60405180602001604052806000815250612d0a565b60006002600085815260200190815260200160002060008673ffffffffffffffffffffffffffffffffffffffff1673ffffffffffffffffffffffffffffffffffffffff168152602001908152602001600020549050828110156127de576040517f08c379a00000000000000000000000000000000000000000000000000000000081526004016127d59061485e565b60405180910390fd5b8281036002600086815260200190815260200160002060008773ffffffffffffffffffffffffffffffffffffffff1673ffffffffffffffffffffffffffffffffffffffff16815260200190815260200160002081905550600073ffffffffffffffffffffffffffffffffffffffff168573ffffffffffffffffffffffffffffffffffffffff168373ffffffffffffffffffffffffffffffffffffffff167fc3d58168c5ae7397731d063d5bbf3d657854427343f4c083240f7aacaa2d0f6287876040516128ac929190614a99565b60405180910390a45050505050565b600073ffffffffffffffffffffffffffffffffffffffff168473ffffffffffffffffffffffffffffffffffffffff16141561292b576040517f08c379a0000000000000000000000000000000000000000000000000000000008152600401612922906148fe565b60405180910390fd5b6000612935611a85565b905061295581878761294688613199565b61294f88613199565b87612d0a565b60006002600086815260200190815260200160002060008873ffffffffffffffffffffffffffffffffffffffff1673ffffffffffffffffffffffffffffffffffffffff168152602001908152602001600020549050838110156129ed576040517f08c379a00000000000000000000000000000000000000000000000000000000081526004016129e49061497e565b60405180910390fd5b8381036002600087815260200190815260200160002060008973ffffffffffffffffffffffffffffffffffffffff1673ffffffffffffffffffffffffffffffffffffffff16815260200190815260200160002081905550836002600087815260200190815260200160002060008873ffffffffffffffffffffffffffffffffffffffff1673ffffffffffffffffffffffffffffffffffffffff1681526020019081526020016000206000828254612aa49190614bec565b925050819055508573ffffffffffffffffffffffffffffffffffffffff168773ffffffffffffffffffffffffffffffffffffffff168373ffffffffffffffffffffffffffffffffffffffff167fc3d58168c5ae7397731d063d5bbf3d657854427343f4c083240f7aacaa2d0f628888604051612b21929190614a99565b60405180910390a4612b37828888888888613213565b50505050505050565b612b4a8282610e3c565b612c1c57600160008084815260200190815260200160002060000160008373ffffffffffffffffffffffffffffffffffffffff1673ffffffffffffffffffffffffffffffffffffffff16815260200190815260200160002060006101000a81548160ff021916908315150217905550612bc1611a85565b73ffffffffffffffffffffffffffffffffffffffff168173ffffffffffffffffffffffffffffffffffffffff16837f2f8788117e7eff1d82e926ec794901d17c78024a50270940304540a733656f0d60405160405180910390a45b5050565b6000612c2c8383613436565b612c85578260000182908060018154018082558091505060019003906000526020600020016000909190919091505582600001805490508360010160008481526020019081526020016000208190555060019050612c8a565b600090505b92915050565b60007f5a05180f000000000000000000000000000000000000000000000000000000007bffffffffffffffffffffffffffffffffffffffffffffffffffffffff1916827bffffffffffffffffffffffffffffffffffffffffffffffffffffffff19161480612d035750612d0282613459565b5b9050919050565b612d188686868686866134d3565b505050505050565b612d3f8473ffffffffffffffffffffffffffffffffffffffff16613531565b15612eff578373ffffffffffffffffffffffffffffffffffffffff1663bc197c8187878686866040518663ffffffff1660e01b8152600401612d859594939291906145fa565b602060405180830381600087803b158015612d9f57600080fd5b505af1925050508015612dd057506040513d601f19601f82011682018060405250810190612dcd9190614032565b60015b612e7657612ddc614fcf565b806308c379a01415612e395750612df16156ac565b80612dfc5750612e3b565b806040517f08c379a0000000000000000000000000000000000000000000000000000000008152600401612e30919061479c565b60405180910390fd5b505b6040517f08c379a0000000000000000000000000000000000000000000000000000000008152600401612e6d906147be565b60405180910390fd5b63bc197c8160e01b7bffffffffffffffffffffffffffffffffffffffffffffffffffffffff1916817bffffffffffffffffffffffffffffffffffffffffffffffffffffffff191614612efd576040517f08c379a0000000000000000000000000000000000000000000000000000000008152600401612ef4906147fe565b60405180910390fd5b505b505050505050565b612f118282610e3c565b612fa057612f368173ffffffffffffffffffffffffffffffffffffffff166014613544565b612f448360001c6020613544565b604051602001612f559291906145a5565b6040516020818303038152906040526040517f08c379a0000000000000000000000000000000000000000000000000000000008152600401612f97919061479c565b60405180910390fd5b5050565b612fae8282610e3c565b1561308157600080600084815260200190815260200160002060000160008373ffffffffffffffffffffffffffffffffffffffff1673ffffffffffffffffffffffffffffffffffffffff16815260200190815260200160002060006101000a81548160ff021916908315150217905550613026611a85565b73ffffffffffffffffffffffffffffffffffffffff168173ffffffffffffffffffffffffffffffffffffffff16837ff6391f5c32d9c69d2a47ea670b442974b53935d1edc7fd64eb21e047a839171b60405160405180910390a45b5050565b6000808360010160008481526020019081526020016000205490506000811461318d5760006001826130b79190614c9c565b90506000600186600001805490506130cf9190614c9c565b905081811461313e5760008660000182815481106130f0576130ef614f71565b5b906000526020600020015490508087600001848154811061311457613113614f71565b5b90600052602060002001819055508387600101600083815260200190815260200160002081905550505b8560000180548061315257613151614f42565b5b600190038181906000526020600020016000905590558560010160008681526020019081526020016000206000905560019350505050613193565b60009150505b92915050565b60606000600167ffffffffffffffff8111156131b8576131b7614fa0565b5b6040519080825280602002602001820160405280156131e65781602001602082028036833780820191505090505b50905082816000815181106131fe576131fd614f71565b5b60200260200101818152505080915050919050565b6132328473ffffffffffffffffffffffffffffffffffffffff16613531565b156133f2578373ffffffffffffffffffffffffffffffffffffffff1663f23a6e6187878686866040518663ffffffff1660e01b8152600401613278959493929190614662565b602060405180830381600087803b15801561329257600080fd5b505af19250505080156132c357506040513d601f19601f820116820180604052508101906132c09190614032565b60015b613369576132cf614fcf565b806308c379a0141561332c57506132e46156ac565b806132ef575061332e565b806040517f08c379a0000000000000000000000000000000000000000000000000000000008152600401613323919061479c565b60405180910390fd5b505b6040517f08c379a0000000000000000000000000000000000000000000000000000000008152600401613360906147be565b60405180910390fd5b63f23a6e6160e01b7bffffffffffffffffffffffffffffffffffffffffffffffffffffffff1916817bffffffffffffffffffffffffffffffffffffffffffffffffffffffff1916146133f0576040517f08c379a00000000000000000000000000000000000000000000000000000000081526004016133e7906147fe565b60405180910390fd5b505b505050505050565b600082600001828154811061341257613411614f71565b5b9060005260206000200154905092915050565b600081600001805490509050919050565b600080836001016000848152602001908152602001600020541415905092915050565b60007f7965db0b000000000000000000000000000000000000000000000000000000007bffffffffffffffffffffffffffffffffffffffffffffffffffffffff1916827bffffffffffffffffffffffffffffffffffffffffffffffffffffffff191614806134cc57506134cb82613780565b5b9050919050565b6134e18686868686866137ea565b6134e9610c37565b15613529576040517f08c379a00000000000000000000000000000000000000000000000000000000081526004016135209061487e565b60405180910390fd5b505050505050565b600080823b905060008111915050919050565b6060600060028360026135579190614c42565b6135619190614bec565b67ffffffffffffffff81111561357a57613579614fa0565b5b6040519080825280601f01601f1916602001820160405280156135ac5781602001600182028036833780820191505090505b5090507f3000000000000000000000000000000000000000000000000000000000000000816000815181106135e4576135e3614f71565b5b60200101907effffffffffffffffffffffffffffffffffffffffffffffffffffffffffffff1916908160001a9053507f78000000000000000000000000000000000000000000000000000000000000008160018151811061364857613647614f71565b5b60200101907effffffffffffffffffffffffffffffffffffffffffffffffffffffffffffff1916908160001a905350600060018460026136889190614c42565b6136929190614bec565b90505b6001811115613732577f3031323334353637383961626364656600000000000000000000000000000000600f8616601081106136d4576136d3614f71565b5b1a60f81b8282815181106136eb576136ea614f71565b5b60200101907effffffffffffffffffffffffffffffffffffffffffffffffffffffffffffff1916908160001a905350600485901c94508061372b90614e0e565b9050613695565b5060008414613776576040517f08c379a000000000000000000000000000000000000000000000000000000000815260040161376d906147de565b60405180910390fd5b8091505092915050565b60007f01ffc9a7000000000000000000000000000000000000000000000000000000007bffffffffffffffffffffffffffffffffffffffffffffffffffffffff1916827bffffffffffffffffffffffffffffffffffffffffffffffffffffffff1916149050919050565b505050505050565b600061380561380084614ae7565b614ac2565b9050808382526020820190508285602086028201111561382857613827614ff6565b5b60005b85811015613858578161383e8882613914565b84526020840193506020830192505060018101905061382b565b5050509392505050565b600061387561387084614b13565b614ac2565b9050808382526020820190508285602086028201111561389857613897614ff6565b5b60005b858110156138c857816138ae8882613a1c565b84526020840193506020830192505060018101905061389b565b5050509392505050565b60006138e56138e084614b3f565b614ac2565b90508281526020810184848401111561390157613900614ffb565b5b61390c848285614dcc565b509392505050565b60008135905061392381615742565b92915050565b60008135905061393881615759565b92915050565b600082601f83011261395357613952614ff1565b5b81356139638482602086016137f2565b91505092915050565b600082601f83011261398157613980614ff1565b5b8135613991848260208601613862565b91505092915050565b6000813590506139a981615770565b92915050565b6000813590506139be81615787565b92915050565b6000813590506139d38161579e565b92915050565b6000815190506139e88161579e565b92915050565b600082601f830112613a0357613a02614ff1565b5b8135613a138482602086016138d2565b91505092915050565b600081359050613a2b816157b5565b92915050565b600060208284031215613a4757613a46615005565b5b6000613a5584828501613914565b91505092915050565b60008060408385031215613a7557613a74615005565b5b6000613a8385828601613929565b9250506020613a9485828601613a1c565b9150509250929050565b60008060408385031215613ab557613ab4615005565b5b6000613ac385828601613914565b9250506020613ad485828601613914565b9150509250929050565b600080600080600060a08688031215613afa57613af9615005565b5b6000613b0888828901613914565b9550506020613b1988828901613914565b945050604086013567ffffffffffffffff811115613b3a57613b39615000565b5b613b468882890161396c565b935050606086013567ffffffffffffffff811115613b6757613b66615000565b5b613b738882890161396c565b925050608086013567ffffffffffffffff811115613b9457613b93615000565b5b613ba0888289016139ee565b9150509295509295909350565b600080600080600060a08688031215613bc957613bc8615005565b5b6000613bd788828901613914565b9550506020613be888828901613914565b9450506040613bf988828901613a1c565b9350506060613c0a88828901613a1c565b925050608086013567ffffffffffffffff811115613c2b57613c2a615000565b5b613c37888289016139ee565b9150509295509295909350565b600080600060608486031215613c5d57613c5c615005565b5b6000613c6b86828701613914565b935050602084013567ffffffffffffffff811115613c8c57613c8b615000565b5b613c988682870161396c565b925050604084013567ffffffffffffffff811115613cb957613cb8615000565b5b613cc58682870161396c565b9150509250925092565b60008060008060808587031215613ce957613ce8615005565b5b6000613cf787828801613914565b945050602085013567ffffffffffffffff811115613d1857613d17615000565b5b613d248782880161396c565b935050604085013567ffffffffffffffff811115613d4557613d44615000565b5b613d518782880161396c565b925050606085013567ffffffffffffffff811115613d7257613d71615000565b5b613d7e878288016139ee565b91505092959194509250565b60008060408385031215613da157613da0615005565b5b6000613daf85828601613914565b9250506020613dc08582860161399a565b9150509250929050565b60008060408385031215613de157613de0615005565b5b6000613def85828601613914565b9250506020613e0085828601613a1c565b9150509250929050565b600080600060608486031215613e2357613e22615005565b5b6000613e3186828701613914565b9350506020613e4286828701613a1c565b9250506040613e5386828701613a1c565b9150509250925092565b60008060008060808587031215613e7757613e76615005565b5b6000613e8587828801613914565b9450506020613e9687828801613a1c565b9350506040613ea787828801613a1c565b925050606085013567ffffffffffffffff811115613ec857613ec7615000565b5b613ed4878288016139ee565b91505092959194509250565b60008060408385031215613ef757613ef6615005565b5b600083013567ffffffffffffffff811115613f1557613f14615000565b5b613f218582860161393e565b925050602083013567ffffffffffffffff811115613f4257613f41615000565b5b613f4e8582860161396c565b9150509250929050565b600060208284031215613f6e57613f6d615005565b5b6000613f7c848285016139af565b91505092915050565b60008060408385031215613f9c57613f9b615005565b5b6000613faa858286016139af565b9250506020613fbb85828601613914565b9150509250929050565b60008060408385031215613fdc57613fdb615005565b5b6000613fea858286016139af565b9250506020613ffb85828601613a1c565b9150509250929050565b60006020828403121561401b5761401a615005565b5b6000614029848285016139c4565b91505092915050565b60006020828403121561404857614047615005565b5b6000614056848285016139d9565b91505092915050565b60006020828403121561407557614074615005565b5b600061408384828501613a1c565b91505092915050565b600080604083850312156140a3576140a2615005565b5b60006140b185828601613a1c565b92505060206140c285828601613a1c565b9150509250929050565b60006140d88383614587565b60208301905092915050565b6140ed81614cd0565b82525050565b60006140fe82614b80565b6141088185614bae565b935061411383614b70565b8060005b8381101561414457815161412b88826140cc565b975061413683614ba1565b925050600181019050614117565b5085935050505092915050565b61415a81614cf4565b82525050565b61416981614d00565b82525050565b600061417a82614b8b565b6141848185614bbf565b9350614194818560208601614ddb565b61419d8161500a565b840191505092915050565b6141b181614d60565b82525050565b6141c081614d84565b82525050565b6141cf81614da8565b82525050565b60006141e082614b96565b6141ea8185614bd0565b93506141fa818560208601614ddb565b6142038161500a565b840191505092915050565b600061421982614b96565b6142238185614be1565b9350614233818560208601614ddb565b80840191505092915050565b600061424c603483614bd0565b915061425782615028565b604082019050919050565b600061426f602083614bd0565b915061427a82615077565b602082019050919050565b6000614292602883614bd0565b915061429d826150a0565b604082019050919050565b60006142b5601483614bd0565b91506142c0826150ef565b602082019050919050565b60006142d8602b83614bd0565b91506142e382615118565b604082019050919050565b60006142fb602483614bd0565b915061430682615167565b604082019050919050565b600061431e602c83614bd0565b9150614329826151b6565b604082019050919050565b6000614341602983614bd0565b915061434c82615205565b604082019050919050565b6000614364600283614bd0565b915061436f82615254565b602082019050919050565b6000614387601083614bd0565b91506143928261527d565b602082019050919050565b60006143aa602583614bd0565b91506143b5826152a6565b604082019050919050565b60006143cd603283614bd0565b91506143d8826152f5565b604082019050919050565b60006143f0602383614bd0565b91506143fb82615344565b604082019050919050565b6000614413603883614bd0565b915061441e82615393565b604082019050919050565b6000614436602a83614bd0565b9150614441826153e2565b604082019050919050565b6000614459603b83614bd0565b915061446482615431565b604082019050919050565b600061447c603983614bd0565b915061448782615480565b604082019050919050565b600061449f601783614be1565b91506144aa826154cf565b601782019050919050565b60006144c2602983614bd0565b91506144cd826154f8565b604082019050919050565b60006144e5602983614bd0565b91506144f082615547565b604082019050919050565b6000614508602883614bd0565b915061451382615596565b604082019050919050565b600061452b602183614bd0565b9150614536826155e5565b604082019050919050565b600061454e601183614be1565b915061455982615634565b601182019050919050565b6000614571602f83614bd0565b915061457c8261565d565b604082019050919050565b61459081614d56565b82525050565b61459f81614d56565b82525050565b60006145b082614492565b91506145bc828561420e565b91506145c782614541565b91506145d3828461420e565b91508190509392505050565b60006020820190506145f460008301846140e4565b92915050565b600060a08201905061460f60008301886140e4565b61461c60208301876140e4565b818103604083015261462e81866140f3565b9050818103606083015261464281856140f3565b90508181036080830152614656818461416f565b90509695505050505050565b600060a08201905061467760008301886140e4565b61468460208301876140e4565b6146916040830186614596565b61469e6060830185614596565b81810360808301526146b0818461416f565b90509695505050505050565b600060208201905081810360008301526146d681846140f3565b905092915050565b600060408201905081810360008301526146f881856140f3565b9050818103602083015261470c81846140f3565b90509392505050565b600060208201905061472a6000830184614151565b92915050565b60006020820190506147456000830184614160565b92915050565b600060208201905061476060008301846141a8565b92915050565b600060208201905061477b60008301846141b7565b92915050565b600060208201905061479660008301846141c6565b92915050565b600060208201905081810360008301526147b681846141d5565b905092915050565b600060208201905081810360008301526147d78161423f565b9050919050565b600060208201905081810360008301526147f781614262565b9050919050565b6000602082019050818103600083015261481781614285565b9050919050565b60006020820190508181036000830152614837816142a8565b9050919050565b60006020820190508181036000830152614857816142cb565b9050919050565b60006020820190508181036000830152614877816142ee565b9050919050565b6000602082019050818103600083015261489781614311565b9050919050565b600060208201905081810360008301526148b781614334565b9050919050565b600060208201905081810360008301526148d781614357565b9050919050565b600060208201905081810360008301526148f78161437a565b9050919050565b600060208201905081810360008301526149178161439d565b9050919050565b60006020820190508181036000830152614937816143c0565b9050919050565b60006020820190508181036000830152614957816143e3565b9050919050565b6000602082019050818103600083015261497781614406565b9050919050565b6000602082019050818103600083015261499781614429565b9050919050565b600060208201905081810360008301526149b78161444c565b9050919050565b600060208201905081810360008301526149d78161446f565b9050919050565b600060208201905081810360008301526149f7816144b5565b9050919050565b60006020820190508181036000830152614a17816144d8565b9050919050565b60006020820190508181036000830152614a37816144fb565b9050919050565b60006020820190508181036000830152614a578161451e565b9050919050565b60006020820190508181036000830152614a7781614564565b9050919050565b6000602082019050614a936000830184614596565b92915050565b6000604082019050614aae6000830185614596565b614abb6020830184614596565b9392505050565b6000614acc614add565b9050614ad88282614e6a565b919050565b6000604051905090565b600067ffffffffffffffff821115614b0257614b01614fa0565b5b602082029050602081019050919050565b600067ffffffffffffffff821115614b2e57614b2d614fa0565b5b602082029050602081019050919050565b600067ffffffffffffffff821115614b5a57614b59614fa0565b5b614b638261500a565b9050602081019050919050565b6000819050602082019050919050565b600081519050919050565b600081519050919050565b600081519050919050565b6000602082019050919050565b600082825260208201905092915050565b600082825260208201905092915050565b600082825260208201905092915050565b600081905092915050565b6000614bf782614d56565b9150614c0283614d56565b9250827fffffffffffffffffffffffffffffffffffffffffffffffffffffffffffffffff03821115614c3757614c36614ee4565b5b828201905092915050565b6000614c4d82614d56565b9150614c5883614d56565b9250817fffffffffffffffffffffffffffffffffffffffffffffffffffffffffffffffff0483118215151615614c9157614c90614ee4565b5b828202905092915050565b6000614ca782614d56565b9150614cb283614d56565b925082821015614cc557614cc4614ee4565b5b828203905092915050565b6000614cdb82614d36565b9050919050565b6000614ced82614d36565b9050919050565b60008115159050919050565b6000819050919050565b60007fffffffff0000000000000000000000000000000000000000000000000000000082169050919050565b600073ffffffffffffffffffffffffffffffffffffffff82169050919050565b6000819050919050565b6000614d6b82614d72565b9050919050565b6000614d7d82614d36565b9050919050565b6000614d8f82614d96565b9050919050565b6000614da182614d36565b9050919050565b6000614db382614dba565b9050919050565b6000614dc582614d36565b9050919050565b82818337600083830152505050565b60005b83811015614df9578082015181840152602081019050614dde565b83811115614e08576000848401525b50505050565b6000614e1982614d56565b91506000821415614e2d57614e2c614ee4565b5b600182039050919050565b60006002820490506001821680614e5057607f821691505b60208210811415614e6457614e63614f13565b5b50919050565b614e738261500a565b810181811067ffffffffffffffff82111715614e9257614e91614fa0565b5b80604052505050565b6000614ea682614d56565b91507fffffffffffffffffffffffffffffffffffffffffffffffffffffffffffffffff821415614ed957614ed8614ee4565b5b600182019050919050565b7f4e487b7100000000000000000000000000000000000000000000000000000000600052601160045260246000fd5b7f4e487b7100000000000000000000000000000000000000000000000000000000600052602260045260246000fd5b7f4e487b7100000000000000000000000000000000000000000000000000000000600052603160045260246000fd5b7f4e487b7100000000000000000000000000000000000000000000000000000000600052603260045260246000fd5b7f4e487b7100000000000000000000000000000000000000000000000000000000600052604160045260246000fd5b600060033d1115614fee5760046000803e614feb60005161501b565b90505b90565b600080fd5b600080fd5b600080fd5b600080fd5b600080fd5b6000601f19601f8301169050919050565b60008160e01c9050919050565b7f455243313135353a207472616e7366657220746f206e6f6e204552433131353560008201527f526563656976657220696d706c656d656e746572000000000000000000000000602082015250565b7f537472696e67733a20686578206c656e67746820696e73756666696369656e74600082015250565b7f455243313135353a204552433131353552656365697665722072656a6563746560008201527f6420746f6b656e73000000000000000000000000000000000000000000000000602082015250565b7f5061757361626c653a206e6f7420706175736564000000000000000000000000600082015250565b7f455243313135353a2062616c616e636520717565727920666f7220746865207a60008201527f65726f2061646472657373000000000000000000000000000000000000000000602082015250565b7f455243313135353a206275726e20616d6f756e7420657863656564732062616c60008201527f616e636500000000000000000000000000000000000000000000000000000000602082015250565b7f455243313135355061757361626c653a20746f6b656e207472616e736665722060008201527f7768696c65207061757365640000000000000000000000000000000000000000602082015250565b7f455243313135353a2063616c6c6572206973206e6f74206f776e6572206e6f7260008201527f20617070726f7665640000000000000000000000000000000000000000000000602082015250565b7f4131000000000000000000000000000000000000000000000000000000000000600082015250565b7f5061757361626c653a2070617573656400000000000000000000000000000000600082015250565b7f455243313135353a207472616e7366657220746f20746865207a65726f20616460008201527f6472657373000000000000000000000000000000000000000000000000000000602082015250565b7f455243313135353a207472616e736665722063616c6c6572206973206e6f742060008201527f6f776e6572206e6f7220617070726f7665640000000000000000000000000000602082015250565b7f455243313135353a206275726e2066726f6d20746865207a65726f206164647260008201527f6573730000000000000000000000000000000000000000000000000000000000602082015250565b7f455243313135355072657365744d696e7465725061757365723a206d7573742060008201527f68617665206d696e74657220726f6c6520746f206d696e740000000000000000602082015250565b7f455243313135353a20696e73756666696369656e742062616c616e636520666f60008201527f72207472616e7366657200000000000000000000000000000000000000000000602082015250565b7f455243313135355072657365744d696e7465725061757365723a206d7573742060008201527f686176652070617573657220726f6c6520746f20756e70617573650000000000602082015250565b7f455243313135355072657365744d696e7465725061757365723a206d7573742060008201527f686176652070617573657220726f6c6520746f20706175736500000000000000602082015250565b7f416363657373436f6e74726f6c3a206163636f756e7420000000000000000000600082015250565b7f455243313135353a2073657474696e6720617070726f76616c2073746174757360008201527f20666f722073656c660000000000000000000000000000000000000000000000602082015250565b7f455243313135353a206163636f756e747320616e6420696473206c656e67746860008201527f206d69736d617463680000000000000000000000000000000000000000000000602082015250565b7f455243313135353a2069647320616e6420616d6f756e7473206c656e6774682060008201527f6d69736d61746368000000000000000000000000000000000000000000000000602082015250565b7f455243313135353a206d696e7420746f20746865207a65726f2061646472657360008201527f7300000000000000000000000000000000000000000000000000000000000000602082015250565b7f206973206d697373696e6720726f6c6520000000000000000000000000000000600082015250565b7f416363657373436f6e74726f6c3a2063616e206f6e6c792072656e6f756e636560008201527f20726f6c657320666f722073656c660000000000000000000000000000000000602082015250565b600060443d10156156bc5761573f565b6156c4614add565b60043d036004823e80513d602482011167ffffffffffffffff821117156156ec57505061573f565b808201805167ffffffffffffffff81111561570a575050505061573f565b80602083010160043d03850181111561572757505050505061573f565b61573682602001850186614e6a565b82955050505050505b90565b61574b81614cd0565b811461575657600080fd5b50565b61576281614ce2565b811461576d57600080fd5b50565b61577981614cf4565b811461578457600080fd5b50565b61579081614d00565b811461579b57600080fd5b50565b6157a781614d0a565b81146157b257600080fd5b50565b6157be81614d56565b81146157c957600080fd5b5056fea26469706673582212200079432e182cdd3a985ff7f015ae3b01ac2222b48a94e059a0bca9fb56edb1f764736f6c63430008060033",
  "immutableReferences": {},
  "source": "// SPDX-License-Identifier: MIT\r\npragma solidity >=0.4.22 <0.9.0;\r\n\r\nimport \"../node_modules/@openzeppelin/contracts/security/ReentrancyGuard.sol\";\r\nimport \"../node_modules/@openzeppelin/contracts/token/ERC20/IERC20.sol\";\r\nimport \"../node_modules/@openzeppelin/contracts/token/ERC1155/IERC1155.sol\";\r\nimport \"../node_modules/@openzeppelin/contracts/token/ERC1155/presets/ERC1155PresetMinterPauser.sol\";\r\nimport \"../node_modules/@openzeppelin/contracts/access/AccessControl.sol\";\r\nimport \"../node_modules/@openzeppelin/contracts/utils/Counters.sol\";\r\nimport \"../contracts/PBXP.sol\";\r\nimport \"../contracts/PBXPShopFactory.sol\";\r\nimport \"../contracts/PBPlayers.sol\";\r\n\r\n\r\n\r\ncontract PBXPShopFactory is ERC1155PresetMinterPauser, ReentrancyGuard {\r\n\r\n    address public admin;\r\n    address pbxpHolderAddress;\r\n    address puckbuddiesplayeraddress;\r\n    uint256 public skuCount;\r\n    using Counters for Counters.Counter;\r\n    Counters.Counter private _xpItemsCreated;\r\n    Counters.Counter private _xpItemsSold;\r\n    PBXP public PBXPToken;\r\n    PBXPShopFactory public pbxpShopFactory;\r\n    PBPlayers public pbPlayers;\r\n   \r\n\r\n    modifier onlyAdmin() {\r\n        require(msg.sender == admin, \"A1\");\r\n        _;\r\n    }\r\n\r\n    constructor(address _pbxpAddress, address _puckbuddiesplayeraddress) ERC1155PresetMinterPauser(\"\") {\r\n        admin = msg.sender;\r\n        PBXPToken = PBXP(_pbxpAddress);\r\n        pbPlayers = PBPlayers(_puckbuddiesplayeraddress);\r\n        skuCount = 0;\r\n    }\r\n\r\n    function isAdmin() public view returns (bool){\r\n        if(admin == msg.sender){\r\n            return true;\r\n        } else return false;\r\n    } \r\n\r\n    function updatePBXPTokenAddress(address _pbxpAddress) external onlyAdmin {\r\n        PBXPToken = PBXP(_pbxpAddress);\r\n    }\r\n\r\n    function updatePBXPHolderAddress(address _pbxpHolderAddress) external onlyAdmin {\r\n        pbxpShopFactory = PBXPShopFactory(_pbxpHolderAddress);\r\n    }\r\n\r\n    function updatePuckBuddiesPlayerAddress(address _puckbuddiesplayeraddress) external onlyAdmin {\r\n        pbPlayers = PBPlayers(_puckbuddiesplayeraddress);\r\n    }\r\n\r\n    function getPBXPFactoryAddress() public view returns (address){\r\n        return address(this);\r\n    }\r\n\r\n    function newProduct(uint sku, uint initalSupply) external onlyAdmin {\r\n        skuCount++;\r\n        _mint(pbxpHolderAddress, sku, initalSupply, \"\");\r\n        setApprovalForAll(pbxpHolderAddress, true);\r\n        setApprovalForAll(address(this), true);\r\n        setApprovalForAll(puckbuddiesplayeraddress, true);\r\n        _xpItemsCreated.increment();\r\n    }\r\n\r\n    function burnItems(uint token, uint qty ) external onlyAdmin {\r\n        _burn(pbxpHolderAddress, token, qty);\r\n    }\r\n\r\n    function getTimestamp() external view returns (uint){\r\n        return block.timestamp;\r\n    }\r\n\r\n    function getBNBBalance() external view onlyAdmin returns (uint) {\r\n        return address(this).balance;\r\n    }\r\n\r\n    function transferBNB(address payable _to, uint _amount) external onlyAdmin {\r\n        _to.transfer(_amount);\r\n    }\r\n\r\n\r\n} ",
  "sourcePath": "O:\\Projects\\puck-buddies\\contracts\\PBXPShopFactory.sol",
  "compiler": {
    "name": "solc",
    "version": "0.8.6+commit.11564f7e.Emscripten.clang"
  },
  "schemaVersion": "3.4.3",
  "updatedAt": "2022-01-07T21:41:40.810Z",
  "devdoc": {
    "kind": "dev",
    "methods": {
      "balanceOf(address,uint256)": {
        "details": "See {IERC1155-balanceOf}. Requirements: - `account` cannot be the zero address."
      },
      "balanceOfBatch(address[],uint256[])": {
        "details": "See {IERC1155-balanceOfBatch}. Requirements: - `accounts` and `ids` must have the same length."
      },
      "getRoleAdmin(bytes32)": {
        "details": "Returns the admin role that controls `role`. See {grantRole} and {revokeRole}. To change a role's admin, use {_setRoleAdmin}."
      },
      "getRoleMember(bytes32,uint256)": {
        "details": "Returns one of the accounts that have `role`. `index` must be a value between 0 and {getRoleMemberCount}, non-inclusive. Role bearers are not sorted in any particular way, and their ordering may change at any point. WARNING: When using {getRoleMember} and {getRoleMemberCount}, make sure you perform all queries on the same block. See the following https://forum.openzeppelin.com/t/iterating-over-elements-on-enumerableset-in-openzeppelin-contracts/2296[forum post] for more information."
      },
      "getRoleMemberCount(bytes32)": {
        "details": "Returns the number of accounts that have `role`. Can be used together with {getRoleMember} to enumerate all bearers of a role."
      },
      "grantRole(bytes32,address)": {
        "details": "Overload {grantRole} to track enumerable memberships"
      },
      "hasRole(bytes32,address)": {
        "details": "Returns `true` if `account` has been granted `role`."
      },
      "isApprovedForAll(address,address)": {
        "details": "See {IERC1155-isApprovedForAll}."
      },
      "mint(address,uint256,uint256,bytes)": {
        "details": "Creates `amount` new tokens for `to`, of token type `id`. See {ERC1155-_mint}. Requirements: - the caller must have the `MINTER_ROLE`."
      },
      "mintBatch(address,uint256[],uint256[],bytes)": {
        "details": "xref:ROOT:erc1155.adoc#batch-operations[Batched] variant of {mint}."
      },
      "pause()": {
        "details": "Pauses all token transfers. See {ERC1155Pausable} and {Pausable-_pause}. Requirements: - the caller must have the `PAUSER_ROLE`."
      },
      "paused()": {
        "details": "Returns true if the contract is paused, and false otherwise."
      },
      "renounceRole(bytes32,address)": {
        "details": "Overload {renounceRole} to track enumerable memberships"
      },
      "revokeRole(bytes32,address)": {
        "details": "Overload {revokeRole} to track enumerable memberships"
      },
      "safeBatchTransferFrom(address,address,uint256[],uint256[],bytes)": {
        "details": "See {IERC1155-safeBatchTransferFrom}."
      },
      "safeTransferFrom(address,address,uint256,uint256,bytes)": {
        "details": "See {IERC1155-safeTransferFrom}."
      },
      "setApprovalForAll(address,bool)": {
        "details": "See {IERC1155-setApprovalForAll}."
      },
      "supportsInterface(bytes4)": {
        "details": "See {IERC165-supportsInterface}."
      },
      "unpause()": {
        "details": "Unpauses all token transfers. See {ERC1155Pausable} and {Pausable-_unpause}. Requirements: - the caller must have the `PAUSER_ROLE`."
      },
      "uri(uint256)": {
        "details": "See {IERC1155MetadataURI-uri}. This implementation returns the same URI for *all* token types. It relies on the token type ID substitution mechanism https://eips.ethereum.org/EIPS/eip-1155#metadata[defined in the EIP]. Clients calling this function must replace the `\\{id\\}` substring with the actual token type ID."
      }
    },
    "version": 1
  },
  "userdoc": {
    "kind": "user",
    "methods": {},
    "version": 1
  }
}