{
  "contractName": "PBXPShopFactory",
  "abi": [
    {
      "inputs": [
        {
          "internalType": "address",
          "name": "_pbxpAddress",
          "type": "address"
        },
        {
          "internalType": "address",
          "name": "_puckbuddiesplayeraddress",
          "type": "address"
        }
      ],
      "stateMutability": "nonpayable",
      "type": "constructor"
    },
    {
      "anonymous": false,
      "inputs": [
        {
          "indexed": true,
          "internalType": "address",
          "name": "account",
          "type": "address"
        },
        {
          "indexed": true,
          "internalType": "address",
          "name": "operator",
          "type": "address"
        },
        {
          "indexed": false,
          "internalType": "bool",
          "name": "approved",
          "type": "bool"
        }
      ],
      "name": "ApprovalForAll",
      "type": "event"
    },
    {
      "anonymous": false,
      "inputs": [
        {
          "indexed": false,
          "internalType": "address",
          "name": "account",
          "type": "address"
        }
      ],
      "name": "Paused",
      "type": "event"
    },
    {
      "anonymous": false,
      "inputs": [
        {
          "indexed": true,
          "internalType": "bytes32",
          "name": "role",
          "type": "bytes32"
        },
        {
          "indexed": true,
          "internalType": "bytes32",
          "name": "previousAdminRole",
          "type": "bytes32"
        },
        {
          "indexed": true,
          "internalType": "bytes32",
          "name": "newAdminRole",
          "type": "bytes32"
        }
      ],
      "name": "RoleAdminChanged",
      "type": "event"
    },
    {
      "anonymous": false,
      "inputs": [
        {
          "indexed": true,
          "internalType": "bytes32",
          "name": "role",
          "type": "bytes32"
        },
        {
          "indexed": true,
          "internalType": "address",
          "name": "account",
          "type": "address"
        },
        {
          "indexed": true,
          "internalType": "address",
          "name": "sender",
          "type": "address"
        }
      ],
      "name": "RoleGranted",
      "type": "event"
    },
    {
      "anonymous": false,
      "inputs": [
        {
          "indexed": true,
          "internalType": "bytes32",
          "name": "role",
          "type": "bytes32"
        },
        {
          "indexed": true,
          "internalType": "address",
          "name": "account",
          "type": "address"
        },
        {
          "indexed": true,
          "internalType": "address",
          "name": "sender",
          "type": "address"
        }
      ],
      "name": "RoleRevoked",
      "type": "event"
    },
    {
      "anonymous": false,
      "inputs": [
        {
          "indexed": true,
          "internalType": "address",
          "name": "operator",
          "type": "address"
        },
        {
          "indexed": true,
          "internalType": "address",
          "name": "from",
          "type": "address"
        },
        {
          "indexed": true,
          "internalType": "address",
          "name": "to",
          "type": "address"
        },
        {
          "indexed": false,
          "internalType": "uint256[]",
          "name": "ids",
          "type": "uint256[]"
        },
        {
          "indexed": false,
          "internalType": "uint256[]",
          "name": "values",
          "type": "uint256[]"
        }
      ],
      "name": "TransferBatch",
      "type": "event"
    },
    {
      "anonymous": false,
      "inputs": [
        {
          "indexed": true,
          "internalType": "address",
          "name": "operator",
          "type": "address"
        },
        {
          "indexed": true,
          "internalType": "address",
          "name": "from",
          "type": "address"
        },
        {
          "indexed": true,
          "internalType": "address",
          "name": "to",
          "type": "address"
        },
        {
          "indexed": false,
          "internalType": "uint256",
          "name": "id",
          "type": "uint256"
        },
        {
          "indexed": false,
          "internalType": "uint256",
          "name": "value",
          "type": "uint256"
        }
      ],
      "name": "TransferSingle",
      "type": "event"
    },
    {
      "anonymous": false,
      "inputs": [
        {
          "indexed": false,
          "internalType": "string",
          "name": "value",
          "type": "string"
        },
        {
          "indexed": true,
          "internalType": "uint256",
          "name": "id",
          "type": "uint256"
        }
      ],
      "name": "URI",
      "type": "event"
    },
    {
      "anonymous": false,
      "inputs": [
        {
          "indexed": false,
          "internalType": "address",
          "name": "account",
          "type": "address"
        }
      ],
      "name": "Unpaused",
      "type": "event"
    },
    {
      "inputs": [],
      "name": "DEFAULT_ADMIN_ROLE",
      "outputs": [
        {
          "internalType": "bytes32",
          "name": "",
          "type": "bytes32"
        }
      ],
      "stateMutability": "view",
      "type": "function"
    },
    {
      "inputs": [],
      "name": "MINTER_ROLE",
      "outputs": [
        {
          "internalType": "bytes32",
          "name": "",
          "type": "bytes32"
        }
      ],
      "stateMutability": "view",
      "type": "function"
    },
    {
      "inputs": [],
      "name": "PAUSER_ROLE",
      "outputs": [
        {
          "internalType": "bytes32",
          "name": "",
          "type": "bytes32"
        }
      ],
      "stateMutability": "view",
      "type": "function"
    },
    {
      "inputs": [],
      "name": "PBXPToken",
      "outputs": [
        {
          "internalType": "contract PBXP",
          "name": "",
          "type": "address"
        }
      ],
      "stateMutability": "view",
      "type": "function"
    },
    {
      "inputs": [],
      "name": "admin",
      "outputs": [
        {
          "internalType": "address",
          "name": "",
          "type": "address"
        }
      ],
      "stateMutability": "view",
      "type": "function"
    },
    {
      "inputs": [
        {
          "internalType": "address",
          "name": "account",
          "type": "address"
        },
        {
          "internalType": "uint256",
          "name": "id",
          "type": "uint256"
        }
      ],
      "name": "balanceOf",
      "outputs": [
        {
          "internalType": "uint256",
          "name": "",
          "type": "uint256"
        }
      ],
      "stateMutability": "view",
      "type": "function"
    },
    {
      "inputs": [
        {
          "internalType": "address[]",
          "name": "accounts",
          "type": "address[]"
        },
        {
          "internalType": "uint256[]",
          "name": "ids",
          "type": "uint256[]"
        }
      ],
      "name": "balanceOfBatch",
      "outputs": [
        {
          "internalType": "uint256[]",
          "name": "",
          "type": "uint256[]"
        }
      ],
      "stateMutability": "view",
      "type": "function"
    },
    {
      "inputs": [
        {
          "internalType": "address",
          "name": "account",
          "type": "address"
        },
        {
          "internalType": "uint256",
          "name": "id",
          "type": "uint256"
        },
        {
          "internalType": "uint256",
          "name": "value",
          "type": "uint256"
        }
      ],
      "name": "burn",
      "outputs": [],
      "stateMutability": "nonpayable",
      "type": "function"
    },
    {
      "inputs": [
        {
          "internalType": "address",
          "name": "account",
          "type": "address"
        },
        {
          "internalType": "uint256[]",
          "name": "ids",
          "type": "uint256[]"
        },
        {
          "internalType": "uint256[]",
          "name": "values",
          "type": "uint256[]"
        }
      ],
      "name": "burnBatch",
      "outputs": [],
      "stateMutability": "nonpayable",
      "type": "function"
    },
    {
      "inputs": [
        {
          "internalType": "bytes32",
          "name": "role",
          "type": "bytes32"
        }
      ],
      "name": "getRoleAdmin",
      "outputs": [
        {
          "internalType": "bytes32",
          "name": "",
          "type": "bytes32"
        }
      ],
      "stateMutability": "view",
      "type": "function"
    },
    {
      "inputs": [
        {
          "internalType": "bytes32",
          "name": "role",
          "type": "bytes32"
        },
        {
          "internalType": "uint256",
          "name": "index",
          "type": "uint256"
        }
      ],
      "name": "getRoleMember",
      "outputs": [
        {
          "internalType": "address",
          "name": "",
          "type": "address"
        }
      ],
      "stateMutability": "view",
      "type": "function"
    },
    {
      "inputs": [
        {
          "internalType": "bytes32",
          "name": "role",
          "type": "bytes32"
        }
      ],
      "name": "getRoleMemberCount",
      "outputs": [
        {
          "internalType": "uint256",
          "name": "",
          "type": "uint256"
        }
      ],
      "stateMutability": "view",
      "type": "function"
    },
    {
      "inputs": [
        {
          "internalType": "bytes32",
          "name": "role",
          "type": "bytes32"
        },
        {
          "internalType": "address",
          "name": "account",
          "type": "address"
        }
      ],
      "name": "grantRole",
      "outputs": [],
      "stateMutability": "nonpayable",
      "type": "function"
    },
    {
      "inputs": [
        {
          "internalType": "bytes32",
          "name": "role",
          "type": "bytes32"
        },
        {
          "internalType": "address",
          "name": "account",
          "type": "address"
        }
      ],
      "name": "hasRole",
      "outputs": [
        {
          "internalType": "bool",
          "name": "",
          "type": "bool"
        }
      ],
      "stateMutability": "view",
      "type": "function"
    },
    {
      "inputs": [
        {
          "internalType": "address",
          "name": "account",
          "type": "address"
        },
        {
          "internalType": "address",
          "name": "operator",
          "type": "address"
        }
      ],
      "name": "isApprovedForAll",
      "outputs": [
        {
          "internalType": "bool",
          "name": "",
          "type": "bool"
        }
      ],
      "stateMutability": "view",
      "type": "function"
    },
    {
      "inputs": [
        {
          "internalType": "address",
          "name": "to",
          "type": "address"
        },
        {
          "internalType": "uint256",
          "name": "id",
          "type": "uint256"
        },
        {
          "internalType": "uint256",
          "name": "amount",
          "type": "uint256"
        },
        {
          "internalType": "bytes",
          "name": "data",
          "type": "bytes"
        }
      ],
      "name": "mint",
      "outputs": [],
      "stateMutability": "nonpayable",
      "type": "function"
    },
    {
      "inputs": [
        {
          "internalType": "address",
          "name": "to",
          "type": "address"
        },
        {
          "internalType": "uint256[]",
          "name": "ids",
          "type": "uint256[]"
        },
        {
          "internalType": "uint256[]",
          "name": "amounts",
          "type": "uint256[]"
        },
        {
          "internalType": "bytes",
          "name": "data",
          "type": "bytes"
        }
      ],
      "name": "mintBatch",
      "outputs": [],
      "stateMutability": "nonpayable",
      "type": "function"
    },
    {
      "inputs": [],
      "name": "pause",
      "outputs": [],
      "stateMutability": "nonpayable",
      "type": "function"
    },
    {
      "inputs": [],
      "name": "paused",
      "outputs": [
        {
          "internalType": "bool",
          "name": "",
          "type": "bool"
        }
      ],
      "stateMutability": "view",
      "type": "function"
    },
    {
      "inputs": [],
      "name": "pbPlayers",
      "outputs": [
        {
          "internalType": "contract PBPlayers",
          "name": "",
          "type": "address"
        }
      ],
      "stateMutability": "view",
      "type": "function"
    },
    {
      "inputs": [],
      "name": "pbxpShopFactory",
      "outputs": [
        {
          "internalType": "contract PBXPShopFactory",
          "name": "",
          "type": "address"
        }
      ],
      "stateMutability": "view",
      "type": "function"
    },
    {
      "inputs": [
        {
          "internalType": "bytes32",
          "name": "role",
          "type": "bytes32"
        },
        {
          "internalType": "address",
          "name": "account",
          "type": "address"
        }
      ],
      "name": "renounceRole",
      "outputs": [],
      "stateMutability": "nonpayable",
      "type": "function"
    },
    {
      "inputs": [
        {
          "internalType": "bytes32",
          "name": "role",
          "type": "bytes32"
        },
        {
          "internalType": "address",
          "name": "account",
          "type": "address"
        }
      ],
      "name": "revokeRole",
      "outputs": [],
      "stateMutability": "nonpayable",
      "type": "function"
    },
    {
      "inputs": [
        {
          "internalType": "address",
          "name": "from",
          "type": "address"
        },
        {
          "internalType": "address",
          "name": "to",
          "type": "address"
        },
        {
          "internalType": "uint256[]",
          "name": "ids",
          "type": "uint256[]"
        },
        {
          "internalType": "uint256[]",
          "name": "amounts",
          "type": "uint256[]"
        },
        {
          "internalType": "bytes",
          "name": "data",
          "type": "bytes"
        }
      ],
      "name": "safeBatchTransferFrom",
      "outputs": [],
      "stateMutability": "nonpayable",
      "type": "function"
    },
    {
      "inputs": [
        {
          "internalType": "address",
          "name": "from",
          "type": "address"
        },
        {
          "internalType": "address",
          "name": "to",
          "type": "address"
        },
        {
          "internalType": "uint256",
          "name": "id",
          "type": "uint256"
        },
        {
          "internalType": "uint256",
          "name": "amount",
          "type": "uint256"
        },
        {
          "internalType": "bytes",
          "name": "data",
          "type": "bytes"
        }
      ],
      "name": "safeTransferFrom",
      "outputs": [],
      "stateMutability": "nonpayable",
      "type": "function"
    },
    {
      "inputs": [
        {
          "internalType": "address",
          "name": "operator",
          "type": "address"
        },
        {
          "internalType": "bool",
          "name": "approved",
          "type": "bool"
        }
      ],
      "name": "setApprovalForAll",
      "outputs": [],
      "stateMutability": "nonpayable",
      "type": "function"
    },
    {
      "inputs": [],
      "name": "skuCount",
      "outputs": [
        {
          "internalType": "uint256",
          "name": "",
          "type": "uint256"
        }
      ],
      "stateMutability": "view",
      "type": "function"
    },
    {
      "inputs": [
        {
          "internalType": "bytes4",
          "name": "interfaceId",
          "type": "bytes4"
        }
      ],
      "name": "supportsInterface",
      "outputs": [
        {
          "internalType": "bool",
          "name": "",
          "type": "bool"
        }
      ],
      "stateMutability": "view",
      "type": "function"
    },
    {
      "inputs": [],
      "name": "unpause",
      "outputs": [],
      "stateMutability": "nonpayable",
      "type": "function"
    },
    {
      "inputs": [
        {
          "internalType": "uint256",
          "name": "",
          "type": "uint256"
        }
      ],
      "name": "uri",
      "outputs": [
        {
          "internalType": "string",
          "name": "",
          "type": "string"
        }
      ],
      "stateMutability": "view",
      "type": "function"
    },
    {
      "inputs": [],
      "name": "isAdmin",
      "outputs": [
        {
          "internalType": "bool",
          "name": "",
          "type": "bool"
        }
      ],
      "stateMutability": "view",
      "type": "function"
    },
    {
      "inputs": [
        {
          "internalType": "address",
          "name": "_pbxpAddress",
          "type": "address"
        }
      ],
      "name": "updatePBXPTokenAddress",
      "outputs": [],
      "stateMutability": "nonpayable",
      "type": "function"
    },
    {
      "inputs": [
        {
          "internalType": "address",
          "name": "_pbxpHolderAddress",
          "type": "address"
        }
      ],
      "name": "updatePBXPHolderAddress",
      "outputs": [],
      "stateMutability": "nonpayable",
      "type": "function"
    },
    {
      "inputs": [
        {
          "internalType": "address",
          "name": "_puckbuddiesplayeraddress",
          "type": "address"
        }
      ],
      "name": "updatePuckBuddiesPlayerAddress",
      "outputs": [],
      "stateMutability": "nonpayable",
      "type": "function"
    },
    {
      "inputs": [],
      "name": "getPBXPFactoryAddress",
      "outputs": [
        {
          "internalType": "address",
          "name": "",
          "type": "address"
        }
      ],
      "stateMutability": "view",
      "type": "function"
    },
    {
      "inputs": [
        {
          "internalType": "uint256",
          "name": "sku",
          "type": "uint256"
        },
        {
          "internalType": "uint256",
          "name": "initalSupply",
          "type": "uint256"
        }
      ],
      "name": "newProduct",
      "outputs": [],
      "stateMutability": "nonpayable",
      "type": "function"
    },
    {
      "inputs": [
        {
          "internalType": "uint256",
          "name": "token",
          "type": "uint256"
        },
        {
          "internalType": "uint256",
          "name": "qty",
          "type": "uint256"
        }
      ],
      "name": "burnItems",
      "outputs": [],
      "stateMutability": "nonpayable",
      "type": "function"
    },
    {
      "inputs": [],
      "name": "getTimestamp",
      "outputs": [
        {
          "internalType": "uint256",
          "name": "",
          "type": "uint256"
        }
      ],
      "stateMutability": "view",
      "type": "function"
    }
  ],
  "bytecode": "0x60806040523480156200001157600080fd5b5060405162005c4038038062005c40833981810160405281019062000037919062000570565b60405180602001604052806000815250806200005981620001f760201b60201c565b506000600560006101000a81548160ff021916908315150217905550620000996000801b6200008d6200021360201b60201c565b6200021b60201b60201c565b620000da7f9f2df0fed2c77648de5860a4cc508cd0818c85b8b8a1ab4ceeef8d981c8956a6620000ce6200021360201b60201c565b6200021b60201b60201c565b6200011b7f65d7a28e3265b37a6474929f336521b332c1681b933f6cb9f3376673440d862a6200010f6200021360201b60201c565b6200021b60201b60201c565b50600160068190555033600760006101000a81548173ffffffffffffffffffffffffffffffffffffffff021916908373ffffffffffffffffffffffffffffffffffffffff16021790555081600d60006101000a81548173ffffffffffffffffffffffffffffffffffffffff021916908373ffffffffffffffffffffffffffffffffffffffff16021790555080600f60006101000a81548173ffffffffffffffffffffffffffffffffffffffff021916908373ffffffffffffffffffffffffffffffffffffffff1602179055506000600a8190555050506200066f565b80600490805190602001906200020f929190620004a9565b5050565b600033905090565b6200023282826200026360201b620017a21760201c565b6200025e81600160008581526020019081526020016000206200027960201b620017b01790919060201c565b505050565b620002758282620002b160201b60201c565b5050565b6000620002a9836000018373ffffffffffffffffffffffffffffffffffffffff1660001b620003a260201b60201c565b905092915050565b620002c382826200041c60201b60201c565b6200039e57600160008084815260200190815260200160002060000160008373ffffffffffffffffffffffffffffffffffffffff1673ffffffffffffffffffffffffffffffffffffffff16815260200190815260200160002060006101000a81548160ff021916908315150217905550620003436200021360201b60201c565b73ffffffffffffffffffffffffffffffffffffffff168173ffffffffffffffffffffffffffffffffffffffff16837f2f8788117e7eff1d82e926ec794901d17c78024a50270940304540a733656f0d60405160405180910390a45b5050565b6000620003b683836200048660201b60201c565b6200041157826000018290806001815401808255809150506001900390600052602060002001600090919091909150558260000180549050836001016000848152602001908152602001600020819055506001905062000416565b600090505b92915050565b600080600084815260200190815260200160002060000160008373ffffffffffffffffffffffffffffffffffffffff1673ffffffffffffffffffffffffffffffffffffffff16815260200190815260200160002060009054906101000a900460ff16905092915050565b600080836001016000848152602001908152602001600020541415905092915050565b828054620004b790620005eb565b90600052602060002090601f016020900481019282620004db576000855562000527565b82601f10620004f657805160ff191683800117855562000527565b8280016001018555821562000527579182015b828111156200052657825182559160200191906001019062000509565b5b5090506200053691906200053a565b5090565b5b80821115620005555760008160009055506001016200053b565b5090565b6000815190506200056a8162000655565b92915050565b600080604083850312156200058a576200058962000650565b5b60006200059a8582860162000559565b9250506020620005ad8582860162000559565b9150509250929050565b6000620005c482620005cb565b9050919050565b600073ffffffffffffffffffffffffffffffffffffffff82169050919050565b600060028204905060018216806200060457607f821691505b602082108114156200061b576200061a62000621565b5b50919050565b7f4e487b7100000000000000000000000000000000000000000000000000000000600052602260045260246000fd5b600080fd5b6200066081620005b7565b81146200066c57600080fd5b50565b6155c1806200067f6000396000f3fe608060405234801561001057600080fd5b50600436106102315760003560e01c806391d1485411610130578063d5391393116100b8578063e985e9c51161007c578063e985e9c514610664578063f242432a14610694578063f5298aca146106b0578063f851a440146106cc578063fab85302146106ea57610231565b8063d5391393146105d4578063d547741f146105f2578063e638ded31461060e578063e63ab1e91461062a578063e92409841461064857610231565b8063a514cf07116100ff578063a514cf0714610530578063a748de1b1461054c578063b6db75a014610568578063bb521dc514610586578063ca15c873146105a457610231565b806391d14854146104a857806397ede525146104d8578063a217fddf146104f6578063a22cb4651461051457610231565b80632f74e1d6116101be57806363eaef5a1161018257806363eaef5a146104185780636b20c45414610436578063731133e9146104525780638456cb591461046e5780639010d07c1461047857610231565b80632f74e1d61461038657806336568abe146103a45780633f4ba83a146103c05780634e1273f4146103ca5780635c975abb146103fa57610231565b80631f7fdffa116102055780631f7fdffa146102e45780632270247314610300578063248a9ca31461031e5780632eb2c2d61461034e5780632f2ff15d1461036a57610231565b8062fdd58e1461023657806301ffc9a7146102665780630e89341c14610296578063188ec356146102c6575b600080fd5b610250600480360381019061024b9190613bb2565b610706565b60405161025d9190614866565b60405180910390f35b610280600480360381019061027b9190613ded565b6107d0565b60405161028d91906144fd565b60405180910390f35b6102b060048036038101906102ab9190613e47565b6107e2565b6040516102bd9190614584565b60405180910390f35b6102ce610876565b6040516102db9190614866565b60405180910390f35b6102fe60048036038101906102f99190613ab7565b61087e565b005b610308610900565b6040516103159190614866565b60405180910390f35b61033860048036038101906103339190613d40565b610906565b6040516103459190614518565b60405180910390f35b610368600480360381019061036391906138c6565b610925565b005b610384600480360381019061037f9190613d6d565b6109c6565b005b61038e6109fa565b60405161039b919061454e565b60405180910390f35b6103be60048036038101906103b99190613d6d565b610a20565b005b6103c8610a54565b005b6103e460048036038101906103df9190613cc8565b610ace565b6040516103f191906144a4565b60405180910390f35b610402610be7565b60405161040f91906144fd565b60405180910390f35b610420610bfe565b60405161042d9190614533565b60405180910390f35b610450600480360381019061044b9190613a2c565b610c24565b005b61046c60048036038101906104679190613c45565b610cc1565b005b610476610d43565b005b610492600480360381019061048d9190613dad565b610dbd565b60405161049f91906143c7565b60405180910390f35b6104c260048036038101906104bd9190613d6d565b610dec565b6040516104cf91906144fd565b60405180910390f35b6104e0610e56565b6040516104ed9190614569565b60405180910390f35b6104fe610e7c565b60405161050b9190614518565b60405180910390f35b61052e60048036038101906105299190613b72565b610e83565b005b61054a60048036038101906105459190613859565b611004565b005b61056660048036038101906105619190613e74565b6110d8565b005b610570611230565b60405161057d91906144fd565b60405180910390f35b61058e611299565b60405161059b91906143c7565b60405180910390f35b6105be60048036038101906105b99190613d40565b6112a1565b6040516105cb9190614866565b60405180910390f35b6105dc6112c5565b6040516105e99190614518565b60405180910390f35b61060c60048036038101906106079190613d6d565b6112e9565b005b61062860048036038101906106239190613859565b61131d565b005b6106326113f1565b60405161063f9190614518565b60405180910390f35b610662600480360381019061065d9190613e74565b611415565b005b61067e60048036038101906106799190613886565b6114d6565b60405161068b91906144fd565b60405180910390f35b6106ae60048036038101906106a99190613995565b61156a565b005b6106ca60048036038101906106c59190613bf2565b61160b565b005b6106d46116a8565b6040516106e191906143c7565b60405180910390f35b61070460048036038101906106ff9190613859565b6116ce565b005b60008073ffffffffffffffffffffffffffffffffffffffff168373ffffffffffffffffffffffffffffffffffffffff161415610777576040517f08c379a000000000000000000000000000000000000000000000000000000000815260040161076e90614626565b60405180910390fd5b6002600083815260200190815260200160002060008473ffffffffffffffffffffffffffffffffffffffff1673ffffffffffffffffffffffffffffffffffffffff16815260200190815260200160002054905092915050565b60006107db826117e0565b9050919050565b6060600480546107f190614c0e565b80601f016020809104026020016040519081016040528092919081815260200182805461081d90614c0e565b801561086a5780601f1061083f5761010080835404028352916020019161086a565b820191906000526020600020905b81548152906001019060200180831161084d57829003601f168201915b50505050509050919050565b600042905090565b6108af7f9f2df0fed2c77648de5860a4cc508cd0818c85b8b8a1ab4ceeef8d981c8956a66108aa6118c2565b610dec565b6108ee576040517f08c379a00000000000000000000000000000000000000000000000000000000081526004016108e590614726565b60405180910390fd5b6108fa848484846118ca565b50505050565b600a5481565b6000806000838152602001908152602001600020600101549050919050565b61092d6118c2565b73ffffffffffffffffffffffffffffffffffffffff168573ffffffffffffffffffffffffffffffffffffffff16148061097357506109728561096d6118c2565b6114d6565b5b6109b2576040517f08c379a00000000000000000000000000000000000000000000000000000000081526004016109a9906146e6565b60405180910390fd5b6109bf8585858585611ae9565b5050505050565b6109d08282611e00565b6109f581600160008581526020019081526020016000206117b090919063ffffffff16565b505050565b600e60009054906101000a900473ffffffffffffffffffffffffffffffffffffffff1681565b610a2a8282611e29565b610a4f8160016000858152602001908152602001600020611eac90919063ffffffff16565b505050565b610a857f65d7a28e3265b37a6474929f336521b332c1681b933f6cb9f3376673440d862a610a806118c2565b610dec565b610ac4576040517f08c379a0000000000000000000000000000000000000000000000000000000008152600401610abb90614766565b60405180910390fd5b610acc611edc565b565b60608151835114610b14576040517f08c379a0000000000000000000000000000000000000000000000000000000008152600401610b0b906147e6565b60405180910390fd5b6000835167ffffffffffffffff811115610b3157610b30614d76565b5b604051908082528060200260200182016040528015610b5f5781602001602082028036833780820191505090505b50905060005b8451811015610bdc57610bac858281518110610b8457610b83614d47565b5b6020026020010151858381518110610b9f57610b9e614d47565b5b6020026020010151610706565b828281518110610bbf57610bbe614d47565b5b60200260200101818152505080610bd590614c71565b9050610b65565b508091505092915050565b6000600560009054906101000a900460ff16905090565b600f60009054906101000a900473ffffffffffffffffffffffffffffffffffffffff1681565b610c2c6118c2565b73ffffffffffffffffffffffffffffffffffffffff168373ffffffffffffffffffffffffffffffffffffffff161480610c725750610c7183610c6c6118c2565b6114d6565b5b610cb1576040517f08c379a0000000000000000000000000000000000000000000000000000000008152600401610ca890614686565b60405180910390fd5b610cbc838383611f7e565b505050565b610cf27f9f2df0fed2c77648de5860a4cc508cd0818c85b8b8a1ab4ceeef8d981c8956a6610ced6118c2565b610dec565b610d31576040517f08c379a0000000000000000000000000000000000000000000000000000000008152600401610d2890614726565b60405180910390fd5b610d3d84848484612231565b50505050565b610d747f65d7a28e3265b37a6474929f336521b332c1681b933f6cb9f3376673440d862a610d6f6118c2565b610dec565b610db3576040517f08c379a0000000000000000000000000000000000000000000000000000000008152600401610daa90614786565b60405180910390fd5b610dbb6123c8565b565b6000610de4826001600086815260200190815260200160002061246b90919063ffffffff16565b905092915050565b600080600084815260200190815260200160002060000160008373ffffffffffffffffffffffffffffffffffffffff1673ffffffffffffffffffffffffffffffffffffffff16815260200190815260200160002060009054906101000a900460ff16905092915050565b600d60009054906101000a900473ffffffffffffffffffffffffffffffffffffffff1681565b6000801b81565b8173ffffffffffffffffffffffffffffffffffffffff16610ea26118c2565b73ffffffffffffffffffffffffffffffffffffffff161415610ef9576040517f08c379a0000000000000000000000000000000000000000000000000000000008152600401610ef0906147c6565b60405180910390fd5b8060036000610f066118c2565b73ffffffffffffffffffffffffffffffffffffffff1673ffffffffffffffffffffffffffffffffffffffff16815260200190815260200160002060008473ffffffffffffffffffffffffffffffffffffffff1673ffffffffffffffffffffffffffffffffffffffff16815260200190815260200160002060006101000a81548160ff0219169083151502179055508173ffffffffffffffffffffffffffffffffffffffff16610fb36118c2565b73ffffffffffffffffffffffffffffffffffffffff167f17307eab39ab6107e8899845ad3d59bd9653f200f220920489ca2b5937696c3183604051610ff891906144fd565b60405180910390a35050565b600760009054906101000a900473ffffffffffffffffffffffffffffffffffffffff1673ffffffffffffffffffffffffffffffffffffffff163373ffffffffffffffffffffffffffffffffffffffff1614611094576040517f08c379a000000000000000000000000000000000000000000000000000000000815260040161108b906147a6565b60405180910390fd5b80600e60006101000a81548173ffffffffffffffffffffffffffffffffffffffff021916908373ffffffffffffffffffffffffffffffffffffffff16021790555050565b600760009054906101000a900473ffffffffffffffffffffffffffffffffffffffff1673ffffffffffffffffffffffffffffffffffffffff163373ffffffffffffffffffffffffffffffffffffffff1614611168576040517f08c379a000000000000000000000000000000000000000000000000000000000815260040161115f906147a6565b60405180910390fd5b600a600081548092919061117b90614c71565b91905055506111bd600860009054906101000a900473ffffffffffffffffffffffffffffffffffffffff16838360405180602001604052806000815250612231565b6111ea600860009054906101000a900473ffffffffffffffffffffffffffffffffffffffff166001610e83565b6111f5306001610e83565b611222600960009054906101000a900473ffffffffffffffffffffffffffffffffffffffff166001610e83565b61122c600b612485565b5050565b60003373ffffffffffffffffffffffffffffffffffffffff16600760009054906101000a900473ffffffffffffffffffffffffffffffffffffffff1673ffffffffffffffffffffffffffffffffffffffff1614156112915760019050611296565b600090505b90565b600030905090565b60006112be6001600084815260200190815260200160002061249b565b9050919050565b7f9f2df0fed2c77648de5860a4cc508cd0818c85b8b8a1ab4ceeef8d981c8956a681565b6112f382826124b0565b6113188160016000858152602001908152602001600020611eac90919063ffffffff16565b505050565b600760009054906101000a900473ffffffffffffffffffffffffffffffffffffffff1673ffffffffffffffffffffffffffffffffffffffff163373ffffffffffffffffffffffffffffffffffffffff16146113ad576040517f08c379a00000000000000000000000000000000000000000000000000000000081526004016113a4906147a6565b60405180910390fd5b80600d60006101000a81548173ffffffffffffffffffffffffffffffffffffffff021916908373ffffffffffffffffffffffffffffffffffffffff16021790555050565b7f65d7a28e3265b37a6474929f336521b332c1681b933f6cb9f3376673440d862a81565b600760009054906101000a900473ffffffffffffffffffffffffffffffffffffffff1673ffffffffffffffffffffffffffffffffffffffff163373ffffffffffffffffffffffffffffffffffffffff16146114a5576040517f08c379a000000000000000000000000000000000000000000000000000000000815260040161149c906147a6565b60405180910390fd5b6114d2600860009054906101000a900473ffffffffffffffffffffffffffffffffffffffff1683836124d9565b5050565b6000600360008473ffffffffffffffffffffffffffffffffffffffff1673ffffffffffffffffffffffffffffffffffffffff16815260200190815260200160002060008373ffffffffffffffffffffffffffffffffffffffff1673ffffffffffffffffffffffffffffffffffffffff16815260200190815260200160002060009054906101000a900460ff16905092915050565b6115726118c2565b73ffffffffffffffffffffffffffffffffffffffff168573ffffffffffffffffffffffffffffffffffffffff1614806115b857506115b7856115b26118c2565b6114d6565b5b6115f7576040517f08c379a00000000000000000000000000000000000000000000000000000000081526004016115ee90614686565b60405180910390fd5b61160485858585856126f8565b5050505050565b6116136118c2565b73ffffffffffffffffffffffffffffffffffffffff168373ffffffffffffffffffffffffffffffffffffffff1614806116595750611658836116536118c2565b6114d6565b5b611698576040517f08c379a000000000000000000000000000000000000000000000000000000000815260040161168f90614686565b60405180910390fd5b6116a38383836124d9565b505050565b600760009054906101000a900473ffffffffffffffffffffffffffffffffffffffff1681565b600760009054906101000a900473ffffffffffffffffffffffffffffffffffffffff1673ffffffffffffffffffffffffffffffffffffffff163373ffffffffffffffffffffffffffffffffffffffff161461175e576040517f08c379a0000000000000000000000000000000000000000000000000000000008152600401611755906147a6565b60405180910390fd5b80600f60006101000a81548173ffffffffffffffffffffffffffffffffffffffff021916908373ffffffffffffffffffffffffffffffffffffffff16021790555050565b6117ac828261297d565b5050565b60006117d8836000018373ffffffffffffffffffffffffffffffffffffffff1660001b612a5d565b905092915050565b60007fd9b67a26000000000000000000000000000000000000000000000000000000007bffffffffffffffffffffffffffffffffffffffffffffffffffffffff1916827bffffffffffffffffffffffffffffffffffffffffffffffffffffffff191614806118ab57507f0e89341c000000000000000000000000000000000000000000000000000000007bffffffffffffffffffffffffffffffffffffffffffffffffffffffff1916827bffffffffffffffffffffffffffffffffffffffffffffffffffffffff1916145b806118bb57506118ba82612acd565b5b9050919050565b600033905090565b600073ffffffffffffffffffffffffffffffffffffffff168473ffffffffffffffffffffffffffffffffffffffff16141561193a576040517f08c379a000000000000000000000000000000000000000000000000000000000815260040161193190614826565b60405180910390fd5b815183511461197e576040517f08c379a000000000000000000000000000000000000000000000000000000000815260040161197590614806565b60405180910390fd5b60006119886118c2565b905061199981600087878787612b47565b60005b8451811015611a53578381815181106119b8576119b7614d47565b5b6020026020010151600260008784815181106119d7576119d6614d47565b5b6020026020010151815260200190815260200160002060008873ffffffffffffffffffffffffffffffffffffffff1673ffffffffffffffffffffffffffffffffffffffff1681526020019081526020016000206000828254611a3991906149d4565b925050819055508080611a4b90614c71565b91505061199c565b508473ffffffffffffffffffffffffffffffffffffffff16600073ffffffffffffffffffffffffffffffffffffffff168273ffffffffffffffffffffffffffffffffffffffff167f4a39dc06d4c0dbc64b70af90fd698a233a518aa5d07e595d983b8c0526c8f7fb8787604051611acb9291906144c6565b60405180910390a4611ae281600087878787612b5d565b5050505050565b8151835114611b2d576040517f08c379a0000000000000000000000000000000000000000000000000000000008152600401611b2490614806565b60405180910390fd5b600073ffffffffffffffffffffffffffffffffffffffff168473ffffffffffffffffffffffffffffffffffffffff161415611b9d576040517f08c379a0000000000000000000000000000000000000000000000000000000008152600401611b94906146c6565b60405180910390fd5b6000611ba76118c2565b9050611bb7818787878787612b47565b60005b8451811015611d6b576000858281518110611bd857611bd7614d47565b5b602002602001015190506000858381518110611bf757611bf6614d47565b5b6020026020010151905060006002600084815260200190815260200160002060008b73ffffffffffffffffffffffffffffffffffffffff1673ffffffffffffffffffffffffffffffffffffffff16815260200190815260200160002054905081811015611c99576040517f08c379a0000000000000000000000000000000000000000000000000000000008152600401611c9090614746565b60405180910390fd5b8181036002600085815260200190815260200160002060008c73ffffffffffffffffffffffffffffffffffffffff1673ffffffffffffffffffffffffffffffffffffffff16815260200190815260200160002081905550816002600085815260200190815260200160002060008b73ffffffffffffffffffffffffffffffffffffffff1673ffffffffffffffffffffffffffffffffffffffff1681526020019081526020016000206000828254611d5091906149d4565b9250508190555050505080611d6490614c71565b9050611bba565b508473ffffffffffffffffffffffffffffffffffffffff168673ffffffffffffffffffffffffffffffffffffffff168273ffffffffffffffffffffffffffffffffffffffff167f4a39dc06d4c0dbc64b70af90fd698a233a518aa5d07e595d983b8c0526c8f7fb8787604051611de29291906144c6565b60405180910390a4611df8818787878787612b5d565b505050505050565b611e0982610906565b611e1a81611e156118c2565b612d44565b611e24838361297d565b505050565b611e316118c2565b73ffffffffffffffffffffffffffffffffffffffff168173ffffffffffffffffffffffffffffffffffffffff1614611e9e576040517f08c379a0000000000000000000000000000000000000000000000000000000008152600401611e9590614846565b60405180910390fd5b611ea88282612de1565b5050565b6000611ed4836000018373ffffffffffffffffffffffffffffffffffffffff1660001b612ec2565b905092915050565b611ee4610be7565b611f23576040517f08c379a0000000000000000000000000000000000000000000000000000000008152600401611f1a90614606565b60405180910390fd5b6000600560006101000a81548160ff0219169083151502179055507f5db9ee0a495bf2e6ff9c91a7834c1ba4fdd244a5e8aa4e537bd38aeae4b073aa611f676118c2565b604051611f7491906143c7565b60405180910390a1565b600073ffffffffffffffffffffffffffffffffffffffff168373ffffffffffffffffffffffffffffffffffffffff161415611fee576040517f08c379a0000000000000000000000000000000000000000000000000000000008152600401611fe590614706565b60405180910390fd5b8051825114612032576040517f08c379a000000000000000000000000000000000000000000000000000000000815260040161202990614806565b60405180910390fd5b600061203c6118c2565b905061205c81856000868660405180602001604052806000815250612b47565b60005b83518110156121ab57600084828151811061207d5761207c614d47565b5b60200260200101519050600084838151811061209c5761209b614d47565b5b6020026020010151905060006002600084815260200190815260200160002060008973ffffffffffffffffffffffffffffffffffffffff1673ffffffffffffffffffffffffffffffffffffffff1681526020019081526020016000205490508181101561213e576040517f08c379a000000000000000000000000000000000000000000000000000000000815260040161213590614646565b60405180910390fd5b8181036002600085815260200190815260200160002060008a73ffffffffffffffffffffffffffffffffffffffff1673ffffffffffffffffffffffffffffffffffffffff1681526020019081526020016000208190555050505080806121a390614c71565b91505061205f565b50600073ffffffffffffffffffffffffffffffffffffffff168473ffffffffffffffffffffffffffffffffffffffff168273ffffffffffffffffffffffffffffffffffffffff167f4a39dc06d4c0dbc64b70af90fd698a233a518aa5d07e595d983b8c0526c8f7fb86866040516122239291906144c6565b60405180910390a450505050565b600073ffffffffffffffffffffffffffffffffffffffff168473ffffffffffffffffffffffffffffffffffffffff1614156122a1576040517f08c379a000000000000000000000000000000000000000000000000000000000815260040161229890614826565b60405180910390fd5b60006122ab6118c2565b90506122cc816000876122bd88612fd6565b6122c688612fd6565b87612b47565b826002600086815260200190815260200160002060008773ffffffffffffffffffffffffffffffffffffffff1673ffffffffffffffffffffffffffffffffffffffff168152602001908152602001600020600082825461232c91906149d4565b925050819055508473ffffffffffffffffffffffffffffffffffffffff16600073ffffffffffffffffffffffffffffffffffffffff168273ffffffffffffffffffffffffffffffffffffffff167fc3d58168c5ae7397731d063d5bbf3d657854427343f4c083240f7aacaa2d0f6287876040516123aa929190614881565b60405180910390a46123c181600087878787613050565b5050505050565b6123d0610be7565b15612410576040517f08c379a0000000000000000000000000000000000000000000000000000000008152600401612407906146a6565b60405180910390fd5b6001600560006101000a81548160ff0219169083151502179055507f62e78cea01bee320cd4e420270b5ea74000d11b0c9f74754ebdbfc544b05a2586124546118c2565b60405161246191906143c7565b60405180910390a1565b600061247a8360000183613237565b60001c905092915050565b6001816000016000828254019250508190555050565b60006124a982600001613262565b9050919050565b6124b982610906565b6124ca816124c56118c2565b612d44565b6124d48383612de1565b505050565b600073ffffffffffffffffffffffffffffffffffffffff168373ffffffffffffffffffffffffffffffffffffffff161415612549576040517f08c379a000000000000000000000000000000000000000000000000000000000815260040161254090614706565b60405180910390fd5b60006125536118c2565b90506125838185600061256587612fd6565b61256e87612fd6565b60405180602001604052806000815250612b47565b60006002600085815260200190815260200160002060008673ffffffffffffffffffffffffffffffffffffffff1673ffffffffffffffffffffffffffffffffffffffff1681526020019081526020016000205490508281101561261b576040517f08c379a000000000000000000000000000000000000000000000000000000000815260040161261290614646565b60405180910390fd5b8281036002600086815260200190815260200160002060008773ffffffffffffffffffffffffffffffffffffffff1673ffffffffffffffffffffffffffffffffffffffff16815260200190815260200160002081905550600073ffffffffffffffffffffffffffffffffffffffff168573ffffffffffffffffffffffffffffffffffffffff168373ffffffffffffffffffffffffffffffffffffffff167fc3d58168c5ae7397731d063d5bbf3d657854427343f4c083240f7aacaa2d0f6287876040516126e9929190614881565b60405180910390a45050505050565b600073ffffffffffffffffffffffffffffffffffffffff168473ffffffffffffffffffffffffffffffffffffffff161415612768576040517f08c379a000000000000000000000000000000000000000000000000000000000815260040161275f906146c6565b60405180910390fd5b60006127726118c2565b905061279281878761278388612fd6565b61278c88612fd6565b87612b47565b60006002600086815260200190815260200160002060008873ffffffffffffffffffffffffffffffffffffffff1673ffffffffffffffffffffffffffffffffffffffff1681526020019081526020016000205490508381101561282a576040517f08c379a000000000000000000000000000000000000000000000000000000000815260040161282190614746565b60405180910390fd5b8381036002600087815260200190815260200160002060008973ffffffffffffffffffffffffffffffffffffffff1673ffffffffffffffffffffffffffffffffffffffff16815260200190815260200160002081905550836002600087815260200190815260200160002060008873ffffffffffffffffffffffffffffffffffffffff1673ffffffffffffffffffffffffffffffffffffffff16815260200190815260200160002060008282546128e191906149d4565b925050819055508573ffffffffffffffffffffffffffffffffffffffff168773ffffffffffffffffffffffffffffffffffffffff168373ffffffffffffffffffffffffffffffffffffffff167fc3d58168c5ae7397731d063d5bbf3d657854427343f4c083240f7aacaa2d0f62888860405161295e929190614881565b60405180910390a4612974828888888888613050565b50505050505050565b6129878282610dec565b612a5957600160008084815260200190815260200160002060000160008373ffffffffffffffffffffffffffffffffffffffff1673ffffffffffffffffffffffffffffffffffffffff16815260200190815260200160002060006101000a81548160ff0219169083151502179055506129fe6118c2565b73ffffffffffffffffffffffffffffffffffffffff168173ffffffffffffffffffffffffffffffffffffffff16837f2f8788117e7eff1d82e926ec794901d17c78024a50270940304540a733656f0d60405160405180910390a45b5050565b6000612a698383613273565b612ac2578260000182908060018154018082558091505060019003906000526020600020016000909190919091505582600001805490508360010160008481526020019081526020016000208190555060019050612ac7565b600090505b92915050565b60007f5a05180f000000000000000000000000000000000000000000000000000000007bffffffffffffffffffffffffffffffffffffffffffffffffffffffff1916827bffffffffffffffffffffffffffffffffffffffffffffffffffffffff19161480612b405750612b3f82613296565b5b9050919050565b612b55868686868686613310565b505050505050565b612b7c8473ffffffffffffffffffffffffffffffffffffffff1661336e565b15612d3c578373ffffffffffffffffffffffffffffffffffffffff1663bc197c8187878686866040518663ffffffff1660e01b8152600401612bc29594939291906143e2565b602060405180830381600087803b158015612bdc57600080fd5b505af1925050508015612c0d57506040513d601f19601f82011682018060405250810190612c0a9190613e1a565b60015b612cb357612c19614da5565b806308c379a01415612c765750612c2e615482565b80612c395750612c78565b806040517f08c379a0000000000000000000000000000000000000000000000000000000008152600401612c6d9190614584565b60405180910390fd5b505b6040517f08c379a0000000000000000000000000000000000000000000000000000000008152600401612caa906145a6565b60405180910390fd5b63bc197c8160e01b7bffffffffffffffffffffffffffffffffffffffffffffffffffffffff1916817bffffffffffffffffffffffffffffffffffffffffffffffffffffffff191614612d3a576040517f08c379a0000000000000000000000000000000000000000000000000000000008152600401612d31906145e6565b60405180910390fd5b505b505050505050565b612d4e8282610dec565b612ddd57612d738173ffffffffffffffffffffffffffffffffffffffff166014613381565b612d818360001c6020613381565b604051602001612d9292919061438d565b6040516020818303038152906040526040517f08c379a0000000000000000000000000000000000000000000000000000000008152600401612dd49190614584565b60405180910390fd5b5050565b612deb8282610dec565b15612ebe57600080600084815260200190815260200160002060000160008373ffffffffffffffffffffffffffffffffffffffff1673ffffffffffffffffffffffffffffffffffffffff16815260200190815260200160002060006101000a81548160ff021916908315150217905550612e636118c2565b73ffffffffffffffffffffffffffffffffffffffff168173ffffffffffffffffffffffffffffffffffffffff16837ff6391f5c32d9c69d2a47ea670b442974b53935d1edc7fd64eb21e047a839171b60405160405180910390a45b5050565b60008083600101600084815260200190815260200160002054905060008114612fca576000600182612ef49190614a84565b9050600060018660000180549050612f0c9190614a84565b9050818114612f7b576000866000018281548110612f2d57612f2c614d47565b5b9060005260206000200154905080876000018481548110612f5157612f50614d47565b5b90600052602060002001819055508387600101600083815260200190815260200160002081905550505b85600001805480612f8f57612f8e614d18565b5b600190038181906000526020600020016000905590558560010160008681526020019081526020016000206000905560019350505050612fd0565b60009150505b92915050565b60606000600167ffffffffffffffff811115612ff557612ff4614d76565b5b6040519080825280602002602001820160405280156130235781602001602082028036833780820191505090505b509050828160008151811061303b5761303a614d47565b5b60200260200101818152505080915050919050565b61306f8473ffffffffffffffffffffffffffffffffffffffff1661336e565b1561322f578373ffffffffffffffffffffffffffffffffffffffff1663f23a6e6187878686866040518663ffffffff1660e01b81526004016130b595949392919061444a565b602060405180830381600087803b1580156130cf57600080fd5b505af192505050801561310057506040513d601f19601f820116820180604052508101906130fd9190613e1a565b60015b6131a65761310c614da5565b806308c379a014156131695750613121615482565b8061312c575061316b565b806040517f08c379a00000000000000000000000000000000000000000000000000000000081526004016131609190614584565b60405180910390fd5b505b6040517f08c379a000000000000000000000000000000000000000000000000000000000815260040161319d906145a6565b60405180910390fd5b63f23a6e6160e01b7bffffffffffffffffffffffffffffffffffffffffffffffffffffffff1916817bffffffffffffffffffffffffffffffffffffffffffffffffffffffff19161461322d576040517f08c379a0000000000000000000000000000000000000000000000000000000008152600401613224906145e6565b60405180910390fd5b505b505050505050565b600082600001828154811061324f5761324e614d47565b5b9060005260206000200154905092915050565b600081600001805490509050919050565b600080836001016000848152602001908152602001600020541415905092915050565b60007f7965db0b000000000000000000000000000000000000000000000000000000007bffffffffffffffffffffffffffffffffffffffffffffffffffffffff1916827bffffffffffffffffffffffffffffffffffffffffffffffffffffffff191614806133095750613308826135bd565b5b9050919050565b61331e868686868686613627565b613326610be7565b15613366576040517f08c379a000000000000000000000000000000000000000000000000000000000815260040161335d90614666565b60405180910390fd5b505050505050565b600080823b905060008111915050919050565b6060600060028360026133949190614a2a565b61339e91906149d4565b67ffffffffffffffff8111156133b7576133b6614d76565b5b6040519080825280601f01601f1916602001820160405280156133e95781602001600182028036833780820191505090505b5090507f30000000000000000000000000000000000000000000000000000000000000008160008151811061342157613420614d47565b5b60200101907effffffffffffffffffffffffffffffffffffffffffffffffffffffffffffff1916908160001a9053507f78000000000000000000000000000000000000000000000000000000000000008160018151811061348557613484614d47565b5b60200101907effffffffffffffffffffffffffffffffffffffffffffffffffffffffffffff1916908160001a905350600060018460026134c59190614a2a565b6134cf91906149d4565b90505b600181111561356f577f3031323334353637383961626364656600000000000000000000000000000000600f86166010811061351157613510614d47565b5b1a60f81b82828151811061352857613527614d47565b5b60200101907effffffffffffffffffffffffffffffffffffffffffffffffffffffffffffff1916908160001a905350600485901c94508061356890614be4565b90506134d2565b50600084146135b3576040517f08c379a00000000000000000000000000000000000000000000000000000000081526004016135aa906145c6565b60405180910390fd5b8091505092915050565b60007f01ffc9a7000000000000000000000000000000000000000000000000000000007bffffffffffffffffffffffffffffffffffffffffffffffffffffffff1916827bffffffffffffffffffffffffffffffffffffffffffffffffffffffff1916149050919050565b505050505050565b600061364261363d846148cf565b6148aa565b9050808382526020820190508285602086028201111561366557613664614dcc565b5b60005b85811015613695578161367b8882613751565b845260208401935060208301925050600181019050613668565b5050509392505050565b60006136b26136ad846148fb565b6148aa565b905080838252602082019050828560208602820111156136d5576136d4614dcc565b5b60005b8581101561370557816136eb8882613844565b8452602084019350602083019250506001810190506136d8565b5050509392505050565b600061372261371d84614927565b6148aa565b90508281526020810184848401111561373e5761373d614dd1565b5b613749848285614ba2565b509392505050565b60008135905061376081615518565b92915050565b600082601f83011261377b5761377a614dc7565b5b813561378b84826020860161362f565b91505092915050565b600082601f8301126137a9576137a8614dc7565b5b81356137b984826020860161369f565b91505092915050565b6000813590506137d18161552f565b92915050565b6000813590506137e681615546565b92915050565b6000813590506137fb8161555d565b92915050565b6000815190506138108161555d565b92915050565b600082601f83011261382b5761382a614dc7565b5b813561383b84826020860161370f565b91505092915050565b60008135905061385381615574565b92915050565b60006020828403121561386f5761386e614ddb565b5b600061387d84828501613751565b91505092915050565b6000806040838503121561389d5761389c614ddb565b5b60006138ab85828601613751565b92505060206138bc85828601613751565b9150509250929050565b600080600080600060a086880312156138e2576138e1614ddb565b5b60006138f088828901613751565b955050602061390188828901613751565b945050604086013567ffffffffffffffff81111561392257613921614dd6565b5b61392e88828901613794565b935050606086013567ffffffffffffffff81111561394f5761394e614dd6565b5b61395b88828901613794565b925050608086013567ffffffffffffffff81111561397c5761397b614dd6565b5b61398888828901613816565b9150509295509295909350565b600080600080600060a086880312156139b1576139b0614ddb565b5b60006139bf88828901613751565b95505060206139d088828901613751565b94505060406139e188828901613844565b93505060606139f288828901613844565b925050608086013567ffffffffffffffff811115613a1357613a12614dd6565b5b613a1f88828901613816565b9150509295509295909350565b600080600060608486031215613a4557613a44614ddb565b5b6000613a5386828701613751565b935050602084013567ffffffffffffffff811115613a7457613a73614dd6565b5b613a8086828701613794565b925050604084013567ffffffffffffffff811115613aa157613aa0614dd6565b5b613aad86828701613794565b9150509250925092565b60008060008060808587031215613ad157613ad0614ddb565b5b6000613adf87828801613751565b945050602085013567ffffffffffffffff811115613b0057613aff614dd6565b5b613b0c87828801613794565b935050604085013567ffffffffffffffff811115613b2d57613b2c614dd6565b5b613b3987828801613794565b925050606085013567ffffffffffffffff811115613b5a57613b59614dd6565b5b613b6687828801613816565b91505092959194509250565b60008060408385031215613b8957613b88614ddb565b5b6000613b9785828601613751565b9250506020613ba8858286016137c2565b9150509250929050565b60008060408385031215613bc957613bc8614ddb565b5b6000613bd785828601613751565b9250506020613be885828601613844565b9150509250929050565b600080600060608486031215613c0b57613c0a614ddb565b5b6000613c1986828701613751565b9350506020613c2a86828701613844565b9250506040613c3b86828701613844565b9150509250925092565b60008060008060808587031215613c5f57613c5e614ddb565b5b6000613c6d87828801613751565b9450506020613c7e87828801613844565b9350506040613c8f87828801613844565b925050606085013567ffffffffffffffff811115613cb057613caf614dd6565b5b613cbc87828801613816565b91505092959194509250565b60008060408385031215613cdf57613cde614ddb565b5b600083013567ffffffffffffffff811115613cfd57613cfc614dd6565b5b613d0985828601613766565b925050602083013567ffffffffffffffff811115613d2a57613d29614dd6565b5b613d3685828601613794565b9150509250929050565b600060208284031215613d5657613d55614ddb565b5b6000613d64848285016137d7565b91505092915050565b60008060408385031215613d8457613d83614ddb565b5b6000613d92858286016137d7565b9250506020613da385828601613751565b9150509250929050565b60008060408385031215613dc457613dc3614ddb565b5b6000613dd2858286016137d7565b9250506020613de385828601613844565b9150509250929050565b600060208284031215613e0357613e02614ddb565b5b6000613e11848285016137ec565b91505092915050565b600060208284031215613e3057613e2f614ddb565b5b6000613e3e84828501613801565b91505092915050565b600060208284031215613e5d57613e5c614ddb565b5b6000613e6b84828501613844565b91505092915050565b60008060408385031215613e8b57613e8a614ddb565b5b6000613e9985828601613844565b9250506020613eaa85828601613844565b9150509250929050565b6000613ec0838361436f565b60208301905092915050565b613ed581614ab8565b82525050565b6000613ee682614968565b613ef08185614996565b9350613efb83614958565b8060005b83811015613f2c578151613f138882613eb4565b9750613f1e83614989565b925050600181019050613eff565b5085935050505092915050565b613f4281614aca565b82525050565b613f5181614ad6565b82525050565b6000613f6282614973565b613f6c81856149a7565b9350613f7c818560208601614bb1565b613f8581614de0565b840191505092915050565b613f9981614b36565b82525050565b613fa881614b5a565b82525050565b613fb781614b7e565b82525050565b6000613fc88261497e565b613fd281856149b8565b9350613fe2818560208601614bb1565b613feb81614de0565b840191505092915050565b60006140018261497e565b61400b81856149c9565b935061401b818560208601614bb1565b80840191505092915050565b60006140346034836149b8565b915061403f82614dfe565b604082019050919050565b60006140576020836149b8565b915061406282614e4d565b602082019050919050565b600061407a6028836149b8565b915061408582614e76565b604082019050919050565b600061409d6014836149b8565b91506140a882614ec5565b602082019050919050565b60006140c0602b836149b8565b91506140cb82614eee565b604082019050919050565b60006140e36024836149b8565b91506140ee82614f3d565b604082019050919050565b6000614106602c836149b8565b915061411182614f8c565b604082019050919050565b60006141296029836149b8565b915061413482614fdb565b604082019050919050565b600061414c6010836149b8565b91506141578261502a565b602082019050919050565b600061416f6025836149b8565b915061417a82615053565b604082019050919050565b60006141926032836149b8565b915061419d826150a2565b604082019050919050565b60006141b56023836149b8565b91506141c0826150f1565b604082019050919050565b60006141d86038836149b8565b91506141e382615140565b604082019050919050565b60006141fb602a836149b8565b91506142068261518f565b604082019050919050565b600061421e603b836149b8565b9150614229826151de565b604082019050919050565b60006142416039836149b8565b915061424c8261522d565b604082019050919050565b60006142646017836149c9565b915061426f8261527c565b601782019050919050565b60006142876020836149b8565b9150614292826152a5565b602082019050919050565b60006142aa6029836149b8565b91506142b5826152ce565b604082019050919050565b60006142cd6029836149b8565b91506142d88261531d565b604082019050919050565b60006142f06028836149b8565b91506142fb8261536c565b604082019050919050565b60006143136021836149b8565b915061431e826153bb565b604082019050919050565b60006143366011836149c9565b91506143418261540a565b601182019050919050565b6000614359602f836149b8565b915061436482615433565b604082019050919050565b61437881614b2c565b82525050565b61438781614b2c565b82525050565b600061439882614257565b91506143a48285613ff6565b91506143af82614329565b91506143bb8284613ff6565b91508190509392505050565b60006020820190506143dc6000830184613ecc565b92915050565b600060a0820190506143f76000830188613ecc565b6144046020830187613ecc565b81810360408301526144168186613edb565b9050818103606083015261442a8185613edb565b9050818103608083015261443e8184613f57565b90509695505050505050565b600060a08201905061445f6000830188613ecc565b61446c6020830187613ecc565b614479604083018661437e565b614486606083018561437e565b81810360808301526144988184613f57565b90509695505050505050565b600060208201905081810360008301526144be8184613edb565b905092915050565b600060408201905081810360008301526144e08185613edb565b905081810360208301526144f48184613edb565b90509392505050565b60006020820190506145126000830184613f39565b92915050565b600060208201905061452d6000830184613f48565b92915050565b60006020820190506145486000830184613f90565b92915050565b60006020820190506145636000830184613f9f565b92915050565b600060208201905061457e6000830184613fae565b92915050565b6000602082019050818103600083015261459e8184613fbd565b905092915050565b600060208201905081810360008301526145bf81614027565b9050919050565b600060208201905081810360008301526145df8161404a565b9050919050565b600060208201905081810360008301526145ff8161406d565b9050919050565b6000602082019050818103600083015261461f81614090565b9050919050565b6000602082019050818103600083015261463f816140b3565b9050919050565b6000602082019050818103600083015261465f816140d6565b9050919050565b6000602082019050818103600083015261467f816140f9565b9050919050565b6000602082019050818103600083015261469f8161411c565b9050919050565b600060208201905081810360008301526146bf8161413f565b9050919050565b600060208201905081810360008301526146df81614162565b9050919050565b600060208201905081810360008301526146ff81614185565b9050919050565b6000602082019050818103600083015261471f816141a8565b9050919050565b6000602082019050818103600083015261473f816141cb565b9050919050565b6000602082019050818103600083015261475f816141ee565b9050919050565b6000602082019050818103600083015261477f81614211565b9050919050565b6000602082019050818103600083015261479f81614234565b9050919050565b600060208201905081810360008301526147bf8161427a565b9050919050565b600060208201905081810360008301526147df8161429d565b9050919050565b600060208201905081810360008301526147ff816142c0565b9050919050565b6000602082019050818103600083015261481f816142e3565b9050919050565b6000602082019050818103600083015261483f81614306565b9050919050565b6000602082019050818103600083015261485f8161434c565b9050919050565b600060208201905061487b600083018461437e565b92915050565b6000604082019050614896600083018561437e565b6148a3602083018461437e565b9392505050565b60006148b46148c5565b90506148c08282614c40565b919050565b6000604051905090565b600067ffffffffffffffff8211156148ea576148e9614d76565b5b602082029050602081019050919050565b600067ffffffffffffffff82111561491657614915614d76565b5b602082029050602081019050919050565b600067ffffffffffffffff82111561494257614941614d76565b5b61494b82614de0565b9050602081019050919050565b6000819050602082019050919050565b600081519050919050565b600081519050919050565b600081519050919050565b6000602082019050919050565b600082825260208201905092915050565b600082825260208201905092915050565b600082825260208201905092915050565b600081905092915050565b60006149df82614b2c565b91506149ea83614b2c565b9250827fffffffffffffffffffffffffffffffffffffffffffffffffffffffffffffffff03821115614a1f57614a1e614cba565b5b828201905092915050565b6000614a3582614b2c565b9150614a4083614b2c565b9250817fffffffffffffffffffffffffffffffffffffffffffffffffffffffffffffffff0483118215151615614a7957614a78614cba565b5b828202905092915050565b6000614a8f82614b2c565b9150614a9a83614b2c565b925082821015614aad57614aac614cba565b5b828203905092915050565b6000614ac382614b0c565b9050919050565b60008115159050919050565b6000819050919050565b60007fffffffff0000000000000000000000000000000000000000000000000000000082169050919050565b600073ffffffffffffffffffffffffffffffffffffffff82169050919050565b6000819050919050565b6000614b4182614b48565b9050919050565b6000614b5382614b0c565b9050919050565b6000614b6582614b6c565b9050919050565b6000614b7782614b0c565b9050919050565b6000614b8982614b90565b9050919050565b6000614b9b82614b0c565b9050919050565b82818337600083830152505050565b60005b83811015614bcf578082015181840152602081019050614bb4565b83811115614bde576000848401525b50505050565b6000614bef82614b2c565b91506000821415614c0357614c02614cba565b5b600182039050919050565b60006002820490506001821680614c2657607f821691505b60208210811415614c3a57614c39614ce9565b5b50919050565b614c4982614de0565b810181811067ffffffffffffffff82111715614c6857614c67614d76565b5b80604052505050565b6000614c7c82614b2c565b91507fffffffffffffffffffffffffffffffffffffffffffffffffffffffffffffffff821415614caf57614cae614cba565b5b600182019050919050565b7f4e487b7100000000000000000000000000000000000000000000000000000000600052601160045260246000fd5b7f4e487b7100000000000000000000000000000000000000000000000000000000600052602260045260246000fd5b7f4e487b7100000000000000000000000000000000000000000000000000000000600052603160045260246000fd5b7f4e487b7100000000000000000000000000000000000000000000000000000000600052603260045260246000fd5b7f4e487b7100000000000000000000000000000000000000000000000000000000600052604160045260246000fd5b600060033d1115614dc45760046000803e614dc1600051614df1565b90505b90565b600080fd5b600080fd5b600080fd5b600080fd5b600080fd5b6000601f19601f8301169050919050565b60008160e01c9050919050565b7f455243313135353a207472616e7366657220746f206e6f6e204552433131353560008201527f526563656976657220696d706c656d656e746572000000000000000000000000602082015250565b7f537472696e67733a20686578206c656e67746820696e73756666696369656e74600082015250565b7f455243313135353a204552433131353552656365697665722072656a6563746560008201527f6420746f6b656e73000000000000000000000000000000000000000000000000602082015250565b7f5061757361626c653a206e6f7420706175736564000000000000000000000000600082015250565b7f455243313135353a2062616c616e636520717565727920666f7220746865207a60008201527f65726f2061646472657373000000000000000000000000000000000000000000602082015250565b7f455243313135353a206275726e20616d6f756e7420657863656564732062616c60008201527f616e636500000000000000000000000000000000000000000000000000000000602082015250565b7f455243313135355061757361626c653a20746f6b656e207472616e736665722060008201527f7768696c65207061757365640000000000000000000000000000000000000000602082015250565b7f455243313135353a2063616c6c6572206973206e6f74206f776e6572206e6f7260008201527f20617070726f7665640000000000000000000000000000000000000000000000602082015250565b7f5061757361626c653a2070617573656400000000000000000000000000000000600082015250565b7f455243313135353a207472616e7366657220746f20746865207a65726f20616460008201527f6472657373000000000000000000000000000000000000000000000000000000602082015250565b7f455243313135353a207472616e736665722063616c6c6572206973206e6f742060008201527f6f776e6572206e6f7220617070726f7665640000000000000000000000000000602082015250565b7f455243313135353a206275726e2066726f6d20746865207a65726f206164647260008201527f6573730000000000000000000000000000000000000000000000000000000000602082015250565b7f455243313135355072657365744d696e7465725061757365723a206d7573742060008201527f68617665206d696e74657220726f6c6520746f206d696e740000000000000000602082015250565b7f455243313135353a20696e73756666696369656e742062616c616e636520666f60008201527f72207472616e7366657200000000000000000000000000000000000000000000602082015250565b7f455243313135355072657365744d696e7465725061757365723a206d7573742060008201527f686176652070617573657220726f6c6520746f20756e70617573650000000000602082015250565b7f455243313135355072657365744d696e7465725061757365723a206d7573742060008201527f686176652070617573657220726f6c6520746f20706175736500000000000000602082015250565b7f416363657373436f6e74726f6c3a206163636f756e7420000000000000000000600082015250565b7f4f6e6c792041646d696e2063616e20706572666f726d20746869732063616c6c600082015250565b7f455243313135353a2073657474696e6720617070726f76616c2073746174757360008201527f20666f722073656c660000000000000000000000000000000000000000000000602082015250565b7f455243313135353a206163636f756e747320616e6420696473206c656e67746860008201527f206d69736d617463680000000000000000000000000000000000000000000000602082015250565b7f455243313135353a2069647320616e6420616d6f756e7473206c656e6774682060008201527f6d69736d61746368000000000000000000000000000000000000000000000000602082015250565b7f455243313135353a206d696e7420746f20746865207a65726f2061646472657360008201527f7300000000000000000000000000000000000000000000000000000000000000602082015250565b7f206973206d697373696e6720726f6c6520000000000000000000000000000000600082015250565b7f416363657373436f6e74726f6c3a2063616e206f6e6c792072656e6f756e636560008201527f20726f6c657320666f722073656c660000000000000000000000000000000000602082015250565b600060443d101561549257615515565b61549a6148c5565b60043d036004823e80513d602482011167ffffffffffffffff821117156154c2575050615515565b808201805167ffffffffffffffff8111156154e05750505050615515565b80602083010160043d0385018111156154fd575050505050615515565b61550c82602001850186614c40565b82955050505050505b90565b61552181614ab8565b811461552c57600080fd5b50565b61553881614aca565b811461554357600080fd5b50565b61554f81614ad6565b811461555a57600080fd5b50565b61556681614ae0565b811461557157600080fd5b50565b61557d81614b2c565b811461558857600080fd5b5056fea2646970667358221220406e2ddf61269ccfe5ed32323d8fa9ff11f9d69878620322e498a7ab48b592f764736f6c63430008060033",
  "immutableReferences": {},
  "source": "// SPDX-License-Identifier: MIT\r\npragma solidity >=0.4.22 <0.9.0;\r\n\r\nimport \"../node_modules/@openzeppelin/contracts/security/ReentrancyGuard.sol\";\r\nimport \"../node_modules/@openzeppelin/contracts/token/ERC20/IERC20.sol\";\r\nimport \"../node_modules/@openzeppelin/contracts/token/ERC1155/IERC1155.sol\";\r\nimport \"../node_modules/@openzeppelin/contracts/token/ERC1155/presets/ERC1155PresetMinterPauser.sol\";\r\nimport \"../node_modules/@openzeppelin/contracts/access/AccessControl.sol\";\r\nimport \"../node_modules/@openzeppelin/contracts/utils/Counters.sol\";\r\nimport \"../contracts/PBXP.sol\";\r\nimport \"../contracts/PBXPShopFactory.sol\";\r\nimport \"../contracts/PBPlayers.sol\";\r\n\r\n\r\n\r\ncontract PBXPShopFactory is ERC1155PresetMinterPauser, ReentrancyGuard {\r\n\r\n    address public admin;\r\n    address pbxpHolderAddress;\r\n    address puckbuddiesplayeraddress;\r\n    uint256 public skuCount;\r\n    using Counters for Counters.Counter;\r\n    Counters.Counter private _xpItemsCreated;\r\n    Counters.Counter private _xpItemsSold;\r\n    PBXP public PBXPToken;\r\n    PBXPShopFactory public pbxpShopFactory;\r\n    PBPlayers public pbPlayers;\r\n   \r\n\r\n    modifier onlyAdmin() {\r\n        require(msg.sender == admin, \"Only Admin can perform this call\");\r\n        _;\r\n    }\r\n\r\n    constructor(address _pbxpAddress, address _puckbuddiesplayeraddress) ERC1155PresetMinterPauser(\"\") {\r\n        admin = msg.sender;\r\n        PBXPToken = PBXP(_pbxpAddress);\r\n        pbPlayers = PBPlayers(_puckbuddiesplayeraddress);\r\n        skuCount = 0;\r\n    }\r\n\r\n    function isAdmin() public view returns (bool){\r\n        if(admin == msg.sender){\r\n            return true;\r\n        } else return false;\r\n    } \r\n\r\n    function updatePBXPTokenAddress(address _pbxpAddress) external onlyAdmin {\r\n        PBXPToken = PBXP(_pbxpAddress);\r\n    }\r\n\r\n    function updatePBXPHolderAddress(address _pbxpHolderAddress) external onlyAdmin {\r\n        pbxpShopFactory = PBXPShopFactory(_pbxpHolderAddress);\r\n    }\r\n\r\n    function updatePuckBuddiesPlayerAddress(address _puckbuddiesplayeraddress) external onlyAdmin {\r\n        pbPlayers = PBPlayers(_puckbuddiesplayeraddress);\r\n    }\r\n\r\n    function getPBXPFactoryAddress() public view returns (address){\r\n        return address(this);\r\n    }\r\n\r\n    function newProduct(uint sku, uint initalSupply) external onlyAdmin {\r\n        skuCount++;\r\n        _mint(pbxpHolderAddress, sku, initalSupply, \"\");\r\n        setApprovalForAll(pbxpHolderAddress, true);\r\n        setApprovalForAll(address(this), true);\r\n        setApprovalForAll(puckbuddiesplayeraddress, true);\r\n        _xpItemsCreated.increment();\r\n    }\r\n\r\n    function burnItems(uint token, uint qty ) external onlyAdmin {\r\n        _burn(pbxpHolderAddress, token, qty);\r\n    }\r\n\r\n    function getTimestamp() external view returns (uint){\r\n        return block.timestamp;\r\n    }\r\n\r\n\r\n} ",
  "sourcePath": "C:\\Users\\Stayers Ben\\Documents\\Projects\\puck-buddies\\contracts\\PBXPShopFactory.sol",
  "compiler": {
    "name": "solc",
    "version": "0.8.6+commit.11564f7e.Emscripten.clang"
  },
  "schemaVersion": "3.4.3",
  "updatedAt": "2021-11-03T20:30:09.392Z",
  "devdoc": {
    "kind": "dev",
    "methods": {
      "balanceOf(address,uint256)": {
        "details": "See {IERC1155-balanceOf}. Requirements: - `account` cannot be the zero address."
      },
      "balanceOfBatch(address[],uint256[])": {
        "details": "See {IERC1155-balanceOfBatch}. Requirements: - `accounts` and `ids` must have the same length."
      },
      "getRoleAdmin(bytes32)": {
        "details": "Returns the admin role that controls `role`. See {grantRole} and {revokeRole}. To change a role's admin, use {_setRoleAdmin}."
      },
      "getRoleMember(bytes32,uint256)": {
        "details": "Returns one of the accounts that have `role`. `index` must be a value between 0 and {getRoleMemberCount}, non-inclusive. Role bearers are not sorted in any particular way, and their ordering may change at any point. WARNING: When using {getRoleMember} and {getRoleMemberCount}, make sure you perform all queries on the same block. See the following https://forum.openzeppelin.com/t/iterating-over-elements-on-enumerableset-in-openzeppelin-contracts/2296[forum post] for more information."
      },
      "getRoleMemberCount(bytes32)": {
        "details": "Returns the number of accounts that have `role`. Can be used together with {getRoleMember} to enumerate all bearers of a role."
      },
      "grantRole(bytes32,address)": {
        "details": "Overload {grantRole} to track enumerable memberships"
      },
      "hasRole(bytes32,address)": {
        "details": "Returns `true` if `account` has been granted `role`."
      },
      "isApprovedForAll(address,address)": {
        "details": "See {IERC1155-isApprovedForAll}."
      },
      "mint(address,uint256,uint256,bytes)": {
        "details": "Creates `amount` new tokens for `to`, of token type `id`. See {ERC1155-_mint}. Requirements: - the caller must have the `MINTER_ROLE`."
      },
      "mintBatch(address,uint256[],uint256[],bytes)": {
        "details": "xref:ROOT:erc1155.adoc#batch-operations[Batched] variant of {mint}."
      },
      "pause()": {
        "details": "Pauses all token transfers. See {ERC1155Pausable} and {Pausable-_pause}. Requirements: - the caller must have the `PAUSER_ROLE`."
      },
      "paused()": {
        "details": "Returns true if the contract is paused, and false otherwise."
      },
      "renounceRole(bytes32,address)": {
        "details": "Overload {renounceRole} to track enumerable memberships"
      },
      "revokeRole(bytes32,address)": {
        "details": "Overload {revokeRole} to track enumerable memberships"
      },
      "safeBatchTransferFrom(address,address,uint256[],uint256[],bytes)": {
        "details": "See {IERC1155-safeBatchTransferFrom}."
      },
      "safeTransferFrom(address,address,uint256,uint256,bytes)": {
        "details": "See {IERC1155-safeTransferFrom}."
      },
      "setApprovalForAll(address,bool)": {
        "details": "See {IERC1155-setApprovalForAll}."
      },
      "supportsInterface(bytes4)": {
        "details": "See {IERC165-supportsInterface}."
      },
      "unpause()": {
        "details": "Unpauses all token transfers. See {ERC1155Pausable} and {Pausable-_unpause}. Requirements: - the caller must have the `PAUSER_ROLE`."
      },
      "uri(uint256)": {
        "details": "See {IERC1155MetadataURI-uri}. This implementation returns the same URI for *all* token types. It relies on the token type ID substitution mechanism https://eips.ethereum.org/EIPS/eip-1155#metadata[defined in the EIP]. Clients calling this function must replace the `\\{id\\}` substring with the actual token type ID."
      }
    },
    "version": 1
  },
  "userdoc": {
    "kind": "user",
    "methods": {},
    "version": 1
  }
}