{
  "contractName": "PBXP",
  "abi": [
    {
      "inputs": [
        {
          "internalType": "address",
          "name": "_buddiesCoinAddress",
          "type": "address"
        },
        {
          "internalType": "address",
          "name": "_pbPlayersAddress",
          "type": "address"
        },
        {
          "internalType": "uint256",
          "name": "_upgradeCost",
          "type": "uint256"
        }
      ],
      "stateMutability": "nonpayable",
      "type": "constructor"
    },
    {
      "anonymous": false,
      "inputs": [
        {
          "indexed": true,
          "internalType": "address",
          "name": "account",
          "type": "address"
        },
        {
          "indexed": true,
          "internalType": "address",
          "name": "operator",
          "type": "address"
        },
        {
          "indexed": false,
          "internalType": "bool",
          "name": "approved",
          "type": "bool"
        }
      ],
      "name": "ApprovalForAll",
      "type": "event"
    },
    {
      "anonymous": false,
      "inputs": [
        {
          "indexed": true,
          "internalType": "address",
          "name": "operator",
          "type": "address"
        },
        {
          "indexed": true,
          "internalType": "address",
          "name": "from",
          "type": "address"
        },
        {
          "indexed": true,
          "internalType": "address",
          "name": "to",
          "type": "address"
        },
        {
          "indexed": false,
          "internalType": "uint256[]",
          "name": "ids",
          "type": "uint256[]"
        },
        {
          "indexed": false,
          "internalType": "uint256[]",
          "name": "values",
          "type": "uint256[]"
        }
      ],
      "name": "TransferBatch",
      "type": "event"
    },
    {
      "anonymous": false,
      "inputs": [
        {
          "indexed": true,
          "internalType": "address",
          "name": "operator",
          "type": "address"
        },
        {
          "indexed": true,
          "internalType": "address",
          "name": "from",
          "type": "address"
        },
        {
          "indexed": true,
          "internalType": "address",
          "name": "to",
          "type": "address"
        },
        {
          "indexed": false,
          "internalType": "uint256",
          "name": "id",
          "type": "uint256"
        },
        {
          "indexed": false,
          "internalType": "uint256",
          "name": "value",
          "type": "uint256"
        }
      ],
      "name": "TransferSingle",
      "type": "event"
    },
    {
      "anonymous": false,
      "inputs": [
        {
          "indexed": false,
          "internalType": "string",
          "name": "value",
          "type": "string"
        },
        {
          "indexed": true,
          "internalType": "uint256",
          "name": "id",
          "type": "uint256"
        }
      ],
      "name": "URI",
      "type": "event"
    },
    {
      "inputs": [],
      "name": "PBXPTokenId",
      "outputs": [
        {
          "internalType": "uint256",
          "name": "",
          "type": "uint256"
        }
      ],
      "stateMutability": "view",
      "type": "function",
      "constant": true
    },
    {
      "inputs": [],
      "name": "admin",
      "outputs": [
        {
          "internalType": "address",
          "name": "",
          "type": "address"
        }
      ],
      "stateMutability": "view",
      "type": "function",
      "constant": true
    },
    {
      "inputs": [
        {
          "internalType": "address",
          "name": "account",
          "type": "address"
        },
        {
          "internalType": "uint256",
          "name": "id",
          "type": "uint256"
        }
      ],
      "name": "balanceOf",
      "outputs": [
        {
          "internalType": "uint256",
          "name": "",
          "type": "uint256"
        }
      ],
      "stateMutability": "view",
      "type": "function",
      "constant": true
    },
    {
      "inputs": [
        {
          "internalType": "address[]",
          "name": "accounts",
          "type": "address[]"
        },
        {
          "internalType": "uint256[]",
          "name": "ids",
          "type": "uint256[]"
        }
      ],
      "name": "balanceOfBatch",
      "outputs": [
        {
          "internalType": "uint256[]",
          "name": "",
          "type": "uint256[]"
        }
      ],
      "stateMutability": "view",
      "type": "function",
      "constant": true
    },
    {
      "inputs": [],
      "name": "buddies",
      "outputs": [
        {
          "internalType": "contract IERC20",
          "name": "",
          "type": "address"
        }
      ],
      "stateMutability": "view",
      "type": "function",
      "constant": true
    },
    {
      "inputs": [
        {
          "internalType": "address",
          "name": "account",
          "type": "address"
        },
        {
          "internalType": "address",
          "name": "operator",
          "type": "address"
        }
      ],
      "name": "isApprovedForAll",
      "outputs": [
        {
          "internalType": "bool",
          "name": "",
          "type": "bool"
        }
      ],
      "stateMutability": "view",
      "type": "function",
      "constant": true
    },
    {
      "inputs": [],
      "name": "myTeamsContract",
      "outputs": [
        {
          "internalType": "contract IERC721",
          "name": "",
          "type": "address"
        }
      ],
      "stateMutability": "view",
      "type": "function",
      "constant": true
    },
    {
      "inputs": [],
      "name": "pbPlayers",
      "outputs": [
        {
          "internalType": "contract PBPlayers",
          "name": "",
          "type": "address"
        }
      ],
      "stateMutability": "view",
      "type": "function",
      "constant": true
    },
    {
      "inputs": [
        {
          "internalType": "address",
          "name": "from",
          "type": "address"
        },
        {
          "internalType": "address",
          "name": "to",
          "type": "address"
        },
        {
          "internalType": "uint256[]",
          "name": "ids",
          "type": "uint256[]"
        },
        {
          "internalType": "uint256[]",
          "name": "amounts",
          "type": "uint256[]"
        },
        {
          "internalType": "bytes",
          "name": "data",
          "type": "bytes"
        }
      ],
      "name": "safeBatchTransferFrom",
      "outputs": [],
      "stateMutability": "nonpayable",
      "type": "function"
    },
    {
      "inputs": [
        {
          "internalType": "address",
          "name": "from",
          "type": "address"
        },
        {
          "internalType": "address",
          "name": "to",
          "type": "address"
        },
        {
          "internalType": "uint256",
          "name": "id",
          "type": "uint256"
        },
        {
          "internalType": "uint256",
          "name": "amount",
          "type": "uint256"
        },
        {
          "internalType": "bytes",
          "name": "data",
          "type": "bytes"
        }
      ],
      "name": "safeTransferFrom",
      "outputs": [],
      "stateMutability": "nonpayable",
      "type": "function"
    },
    {
      "inputs": [
        {
          "internalType": "address",
          "name": "operator",
          "type": "address"
        },
        {
          "internalType": "bool",
          "name": "approved",
          "type": "bool"
        }
      ],
      "name": "setApprovalForAll",
      "outputs": [],
      "stateMutability": "nonpayable",
      "type": "function"
    },
    {
      "inputs": [
        {
          "internalType": "bytes4",
          "name": "interfaceId",
          "type": "bytes4"
        }
      ],
      "name": "supportsInterface",
      "outputs": [
        {
          "internalType": "bool",
          "name": "",
          "type": "bool"
        }
      ],
      "stateMutability": "view",
      "type": "function",
      "constant": true
    },
    {
      "inputs": [
        {
          "internalType": "uint256",
          "name": "",
          "type": "uint256"
        }
      ],
      "name": "uri",
      "outputs": [
        {
          "internalType": "string",
          "name": "",
          "type": "string"
        }
      ],
      "stateMutability": "view",
      "type": "function",
      "constant": true
    },
    {
      "inputs": [],
      "name": "isAdmin",
      "outputs": [
        {
          "internalType": "bool",
          "name": "",
          "type": "bool"
        }
      ],
      "stateMutability": "view",
      "type": "function",
      "constant": true
    },
    {
      "inputs": [],
      "name": "getPBXPAddress",
      "outputs": [
        {
          "internalType": "address",
          "name": "",
          "type": "address"
        }
      ],
      "stateMutability": "view",
      "type": "function",
      "constant": true
    },
    {
      "inputs": [
        {
          "internalType": "address",
          "name": "_buddiesCoinAddress",
          "type": "address"
        }
      ],
      "name": "updateBuddiesCoinAddress",
      "outputs": [],
      "stateMutability": "nonpayable",
      "type": "function"
    },
    {
      "inputs": [
        {
          "internalType": "uint256",
          "name": "_PBXPTokenId",
          "type": "uint256"
        }
      ],
      "name": "updatePBXPTokenId",
      "outputs": [],
      "stateMutability": "nonpayable",
      "type": "function"
    },
    {
      "inputs": [
        {
          "internalType": "address",
          "name": "_pbTeamsAddress",
          "type": "address"
        }
      ],
      "name": "updatePBTeamsAddress",
      "outputs": [],
      "stateMutability": "nonpayable",
      "type": "function"
    },
    {
      "inputs": [
        {
          "internalType": "address",
          "name": "_pbPlayersAddress",
          "type": "address"
        }
      ],
      "name": "updatePBPlayersAddress",
      "outputs": [],
      "stateMutability": "nonpayable",
      "type": "function"
    },
    {
      "inputs": [
        {
          "internalType": "address",
          "name": "_pbPvCAddress",
          "type": "address"
        }
      ],
      "name": "updatePBPvCAddress",
      "outputs": [],
      "stateMutability": "nonpayable",
      "type": "function"
    },
    {
      "inputs": [
        {
          "internalType": "address",
          "name": "_pbMatchupsAddress",
          "type": "address"
        }
      ],
      "name": "updatePBMatchupsAddress",
      "outputs": [],
      "stateMutability": "nonpayable",
      "type": "function"
    },
    {
      "inputs": [],
      "name": "getUpgradeCost",
      "outputs": [
        {
          "internalType": "uint256",
          "name": "",
          "type": "uint256"
        }
      ],
      "stateMutability": "view",
      "type": "function",
      "constant": true
    },
    {
      "inputs": [
        {
          "internalType": "uint256",
          "name": "token",
          "type": "uint256"
        },
        {
          "internalType": "uint256",
          "name": "initalSupply",
          "type": "uint256"
        }
      ],
      "name": "newProduct",
      "outputs": [],
      "stateMutability": "nonpayable",
      "type": "function"
    },
    {
      "inputs": [
        {
          "internalType": "address",
          "name": "mintToAddress",
          "type": "address"
        },
        {
          "internalType": "uint256",
          "name": "qty",
          "type": "uint256"
        },
        {
          "internalType": "uint256",
          "name": "token",
          "type": "uint256"
        }
      ],
      "name": "newPBXPtoAddress",
      "outputs": [
        {
          "internalType": "uint256",
          "name": "",
          "type": "uint256"
        }
      ],
      "stateMutability": "nonpayable",
      "type": "function"
    },
    {
      "inputs": [
        {
          "internalType": "address",
          "name": "owner",
          "type": "address"
        },
        {
          "internalType": "uint256",
          "name": "token",
          "type": "uint256"
        },
        {
          "internalType": "uint256",
          "name": "qty",
          "type": "uint256"
        }
      ],
      "name": "burnItems",
      "outputs": [],
      "stateMutability": "nonpayable",
      "type": "function"
    },
    {
      "inputs": [
        {
          "internalType": "address",
          "name": "earnerAddress",
          "type": "address"
        },
        {
          "internalType": "uint256",
          "name": "qty",
          "type": "uint256"
        }
      ],
      "name": "earnPBXP",
      "outputs": [],
      "stateMutability": "nonpayable",
      "type": "function"
    },
    {
      "inputs": [
        {
          "internalType": "address",
          "name": "awardeeAddress",
          "type": "address"
        },
        {
          "internalType": "uint256",
          "name": "qty",
          "type": "uint256"
        }
      ],
      "name": "awardPBXP",
      "outputs": [],
      "stateMutability": "nonpayable",
      "type": "function"
    },
    {
      "inputs": [
        {
          "internalType": "uint256",
          "name": "tokenId",
          "type": "uint256"
        },
        {
          "internalType": "uint256",
          "name": "statType",
          "type": "uint256"
        },
        {
          "internalType": "uint256",
          "name": "qty",
          "type": "uint256"
        },
        {
          "internalType": "uint256",
          "name": "xp",
          "type": "uint256"
        }
      ],
      "name": "increaseStats",
      "outputs": [],
      "stateMutability": "nonpayable",
      "type": "function"
    }
  ],
  "bytecode": "0x608060405260006003553480156200001657600080fd5b50604051620045ee380380620045ee83398181016040528101906200003c91906200022b565b604051806020016040528060008152506200005d816200013160201b60201c565b5033600460006101000a81548173ffffffffffffffffffffffffffffffffffffffff021916908373ffffffffffffffffffffffffffffffffffffffff16021790555082600b60006101000a81548173ffffffffffffffffffffffffffffffffffffffff021916908373ffffffffffffffffffffffffffffffffffffffff16021790555081600a60006101000a81548173ffffffffffffffffffffffffffffffffffffffff021916908373ffffffffffffffffffffffffffffffffffffffff1602179055508060088190555050505062000363565b8060029080519060200190620001499291906200014d565b5050565b8280546200015b90620002c5565b90600052602060002090601f0160209004810192826200017f5760008555620001cb565b82601f106200019a57805160ff1916838001178555620001cb565b82800160010185558215620001cb579182015b82811115620001ca578251825591602001919060010190620001ad565b5b509050620001da9190620001de565b5090565b5b80821115620001f9576000816000905550600101620001df565b5090565b6000815190506200020e816200032f565b92915050565b600081519050620002258162000349565b92915050565b6000806000606084860312156200024757620002466200032a565b5b60006200025786828701620001fd565b93505060206200026a86828701620001fd565b92505060406200027d8682870162000214565b9150509250925092565b600062000294826200029b565b9050919050565b600073ffffffffffffffffffffffffffffffffffffffff82169050919050565b6000819050919050565b60006002820490506001821680620002de57607f821691505b60208210811415620002f557620002f4620002fb565b5b50919050565b7f4e487b7100000000000000000000000000000000000000000000000000000000600052602260045260246000fd5b600080fd5b6200033a8162000287565b81146200034657600080fd5b50565b6200035481620002bb565b81146200036057600080fd5b50565b61427b80620003736000396000f3fe608060405234801561001057600080fd5b50600436106101c35760003560e01c80636bf082da116100f9578063c43df89a11610097578063e985e9c511610071578063e985e9c5146104da578063f242432a1461050a578063f7e7b20714610526578063f851a44014610542576101c3565b8063c43df89a14610484578063c6545943146104a0578063d0ffcce3146104bc576101c3565b8063a22cb465116100d3578063a22cb46514610410578063a748de1b1461042c578063a87b14f514610448578063b6db75a014610466576101c3565b80636bf082da146103bc5780639616cc94146103d85780639ecd7935146103f4576101c3565b8063408581a6116101665780634e1273f4116101405780634e1273f414610322578063502d949c146103525780635d632faf1461038257806363eaef5a1461039e576101c3565b8063408581a6146102cc5780634a594c12146102e85780634c97073c14610306576101c3565b8063120754d0116101a2578063120754d01461025857806329fe5ebc146102765780632eb2c2d6146102925780633775d177146102ae576101c3565b8062fdd58e146101c857806301ffc9a7146101f85780630e89341c14610228575b600080fd5b6101e260048036038101906101dd9190612ecf565b610560565b6040516101ef91906137f5565b60405180910390f35b610212600480360381019061020d9190612fda565b610629565b60405161021f91906135a7565b60405180910390f35b610242600480360381019061023d9190613062565b61070b565b60405161024f9190613613565b60405180910390f35b61026061079f565b60405161026d91906137f5565b60405180910390f35b610290600480360381019061028b9190612c8f565b6107a9565b005b6102ac60048036038101906102a79190612d29565b61087d565b005b6102b661091e565b6040516102c391906137f5565b60405180910390f35b6102e660048036038101906102e19190613062565b610924565b005b6102f06109be565b6040516102fd91906135c2565b60405180910390f35b610320600480360381019061031b9190612f0f565b6109e4565b005b61033c60048036038101906103379190612f62565b610a84565b604051610349919061354e565b60405180910390f35b61036c60048036038101906103679190612f0f565b610b9d565b60405161037991906137f5565b60405180910390f35b61039c60048036038101906103979190612c8f565b610c63565b005b6103a6610d37565b6040516103b391906135f8565b60405180910390f35b6103d660048036038101906103d19190612c8f565b610d5d565b005b6103f260048036038101906103ed9190612c8f565b610e31565b005b61040e60048036038101906104099190612ecf565b610f05565b005b61042a60048036038101906104259190612e8f565b610fb6565b005b6104466004803603810190610441919061308f565b611137565b005b6104506111e6565b60405161045d91906135dd565b60405180910390f35b61046e61120c565b60405161047b91906135a7565b60405180910390f35b61049e60048036038101906104999190612ecf565b611275565b005b6104ba60048036038101906104b59190612c8f565b6113a0565b005b6104c4611474565b6040516104d19190613471565b60405180910390f35b6104f460048036038101906104ef9190612ce9565b61147c565b60405161050191906135a7565b60405180910390f35b610524600480360381019061051f9190612df8565b611510565b005b610540600480360381019061053b91906130cf565b6115b1565b005b61054a611b00565b6040516105579190613471565b60405180910390f35b60008073ffffffffffffffffffffffffffffffffffffffff168373ffffffffffffffffffffffffffffffffffffffff1614156105d1576040517f08c379a00000000000000000000000000000000000000000000000000000000081526004016105c890613675565b60405180910390fd5b60008083815260200190815260200160002060008473ffffffffffffffffffffffffffffffffffffffff1673ffffffffffffffffffffffffffffffffffffffff16815260200190815260200160002054905092915050565b60007fd9b67a26000000000000000000000000000000000000000000000000000000007bffffffffffffffffffffffffffffffffffffffffffffffffffffffff1916827bffffffffffffffffffffffffffffffffffffffffffffffffffffffff191614806106f457507f0e89341c000000000000000000000000000000000000000000000000000000007bffffffffffffffffffffffffffffffffffffffffffffffffffffffff1916827bffffffffffffffffffffffffffffffffffffffffffffffffffffffff1916145b80610704575061070382611b26565b5b9050919050565b60606002805461071a90613b61565b80601f016020809104026020016040519081016040528092919081815260200182805461074690613b61565b80156107935780601f1061076857610100808354040283529160200191610793565b820191906000526020600020905b81548152906001019060200180831161077657829003601f168201915b50505050509050919050565b6000600854905090565b600460009054906101000a900473ffffffffffffffffffffffffffffffffffffffff1673ffffffffffffffffffffffffffffffffffffffff163373ffffffffffffffffffffffffffffffffffffffff1614610839576040517f08c379a0000000000000000000000000000000000000000000000000000000008152600401610830906136d5565b60405180910390fd5b80600660006101000a81548173ffffffffffffffffffffffffffffffffffffffff021916908373ffffffffffffffffffffffffffffffffffffffff16021790555050565b610885611b90565b73ffffffffffffffffffffffffffffffffffffffff168573ffffffffffffffffffffffffffffffffffffffff1614806108cb57506108ca856108c5611b90565b61147c565b5b61090a576040517f08c379a000000000000000000000000000000000000000000000000000000000815260040161090190613715565b60405180910390fd5b6109178585858585611b98565b5050505050565b60035481565b600460009054906101000a900473ffffffffffffffffffffffffffffffffffffffff1673ffffffffffffffffffffffffffffffffffffffff163373ffffffffffffffffffffffffffffffffffffffff16146109b4576040517f08c379a00000000000000000000000000000000000000000000000000000000081526004016109ab906136d5565b60405180910390fd5b8060038190555050565b600b60009054906101000a900473ffffffffffffffffffffffffffffffffffffffff1681565b600460009054906101000a900473ffffffffffffffffffffffffffffffffffffffff1673ffffffffffffffffffffffffffffffffffffffff163373ffffffffffffffffffffffffffffffffffffffff1614610a74576040517f08c379a0000000000000000000000000000000000000000000000000000000008152600401610a6b906136d5565b60405180910390fd5b610a7f838383611eac565b505050565b60608151835114610aca576040517f08c379a0000000000000000000000000000000000000000000000000000000008152600401610ac190613795565b60405180910390fd5b6000835167ffffffffffffffff811115610ae757610ae6613c9a565b5b604051908082528060200260200182016040528015610b155781602001602082028036833780820191505090505b50905060005b8451811015610b9257610b62858281518110610b3a57610b39613c6b565b5b6020026020010151858381518110610b5557610b54613c6b565b5b6020026020010151610560565b828281518110610b7557610b74613c6b565b5b60200260200101818152505080610b8b90613bc4565b9050610b1b565b508091505092915050565b6000600460009054906101000a900473ffffffffffffffffffffffffffffffffffffffff1673ffffffffffffffffffffffffffffffffffffffff163373ffffffffffffffffffffffffffffffffffffffff1614610c2f576040517f08c379a0000000000000000000000000000000000000000000000000000000008152600401610c26906136d5565b60405180910390fd5b610c4a848385604051806020016040528060008152506120c9565b6000610c568584610560565b9050809150509392505050565b600460009054906101000a900473ffffffffffffffffffffffffffffffffffffffff1673ffffffffffffffffffffffffffffffffffffffff163373ffffffffffffffffffffffffffffffffffffffff1614610cf3576040517f08c379a0000000000000000000000000000000000000000000000000000000008152600401610cea906136d5565b60405180910390fd5b80600b60006101000a81548173ffffffffffffffffffffffffffffffffffffffff021916908373ffffffffffffffffffffffffffffffffffffffff16021790555050565b600a60009054906101000a900473ffffffffffffffffffffffffffffffffffffffff1681565b600460009054906101000a900473ffffffffffffffffffffffffffffffffffffffff1673ffffffffffffffffffffffffffffffffffffffff163373ffffffffffffffffffffffffffffffffffffffff1614610ded576040517f08c379a0000000000000000000000000000000000000000000000000000000008152600401610de4906136d5565b60405180910390fd5b80600560006101000a81548173ffffffffffffffffffffffffffffffffffffffff021916908373ffffffffffffffffffffffffffffffffffffffff16021790555050565b600460009054906101000a900473ffffffffffffffffffffffffffffffffffffffff1673ffffffffffffffffffffffffffffffffffffffff163373ffffffffffffffffffffffffffffffffffffffff1614610ec1576040517f08c379a0000000000000000000000000000000000000000000000000000000008152600401610eb8906136d5565b60405180910390fd5b80600a60006101000a81548173ffffffffffffffffffffffffffffffffffffffff021916908373ffffffffffffffffffffffffffffffffffffffff16021790555050565b600460009054906101000a900473ffffffffffffffffffffffffffffffffffffffff1673ffffffffffffffffffffffffffffffffffffffff163373ffffffffffffffffffffffffffffffffffffffff1614610f95576040517f08c379a0000000000000000000000000000000000000000000000000000000008152600401610f8c906136d5565b60405180910390fd5b610fb28260035483604051806020016040528060008152506120c9565b5050565b8173ffffffffffffffffffffffffffffffffffffffff16610fd5611b90565b73ffffffffffffffffffffffffffffffffffffffff16141561102c576040517f08c379a000000000000000000000000000000000000000000000000000000000815260040161102390613775565b60405180910390fd5b8060016000611039611b90565b73ffffffffffffffffffffffffffffffffffffffff1673ffffffffffffffffffffffffffffffffffffffff16815260200190815260200160002060008473ffffffffffffffffffffffffffffffffffffffff1673ffffffffffffffffffffffffffffffffffffffff16815260200190815260200160002060006101000a81548160ff0219169083151502179055508173ffffffffffffffffffffffffffffffffffffffff166110e6611b90565b73ffffffffffffffffffffffffffffffffffffffff167f17307eab39ab6107e8899845ad3d59bd9653f200f220920489ca2b5937696c318360405161112b91906135a7565b60405180910390a35050565b600460009054906101000a900473ffffffffffffffffffffffffffffffffffffffff1673ffffffffffffffffffffffffffffffffffffffff163373ffffffffffffffffffffffffffffffffffffffff16146111c7576040517f08c379a00000000000000000000000000000000000000000000000000000000081526004016111be906136d5565b60405180910390fd5b6111e2338383604051806020016040528060008152506120c9565b5050565b600960009054906101000a900473ffffffffffffffffffffffffffffffffffffffff1681565b60003373ffffffffffffffffffffffffffffffffffffffff16600460009054906101000a900473ffffffffffffffffffffffffffffffffffffffff1673ffffffffffffffffffffffffffffffffffffffff16141561126d5760019050611272565b600090505b90565b600560009054906101000a900473ffffffffffffffffffffffffffffffffffffffff1673ffffffffffffffffffffffffffffffffffffffff163373ffffffffffffffffffffffffffffffffffffffff16148061131e5750600660009054906101000a900473ffffffffffffffffffffffffffffffffffffffff1673ffffffffffffffffffffffffffffffffffffffff163373ffffffffffffffffffffffffffffffffffffffff16145b806113765750600760009054906101000a900473ffffffffffffffffffffffffffffffffffffffff1673ffffffffffffffffffffffffffffffffffffffff163373ffffffffffffffffffffffffffffffffffffffff16145b61137f57600080fd5b61139c8260035483604051806020016040528060008152506120c9565b5050565b600460009054906101000a900473ffffffffffffffffffffffffffffffffffffffff1673ffffffffffffffffffffffffffffffffffffffff163373ffffffffffffffffffffffffffffffffffffffff1614611430576040517f08c379a0000000000000000000000000000000000000000000000000000000008152600401611427906136d5565b60405180910390fd5b80600760006101000a81548173ffffffffffffffffffffffffffffffffffffffff021916908373ffffffffffffffffffffffffffffffffffffffff16021790555050565b600030905090565b6000600160008473ffffffffffffffffffffffffffffffffffffffff1673ffffffffffffffffffffffffffffffffffffffff16815260200190815260200160002060008373ffffffffffffffffffffffffffffffffffffffff1673ffffffffffffffffffffffffffffffffffffffff16815260200190815260200160002060009054906101000a900460ff16905092915050565b611518611b90565b73ffffffffffffffffffffffffffffffffffffffff168573ffffffffffffffffffffffffffffffffffffffff16148061155e575061155d85611558611b90565b61147c565b5b61159d576040517f08c379a0000000000000000000000000000000000000000000000000000000008152600401611594906136b5565b60405180910390fd5b6115aa858585858561225f565b5050505050565b816008546115bf91906139e5565b81146115ca57600080fd5b806115d6336000610560565b10156115e157600080fd5b42600a60009054906101000a900473ffffffffffffffffffffffffffffffffffffffff1673ffffffffffffffffffffffffffffffffffffffff1663c1e03728866040518263ffffffff1660e01b815260040161163d91906137f5565b6101606040518083038186803b15801561165657600080fd5b505afa15801561166a573d6000803e3d6000fd5b505050506040513d601f19601f8201168201806040525081019061168e9190613034565b60a001511161169c57600080fd5b3373ffffffffffffffffffffffffffffffffffffffff16600a60009054906101000a900473ffffffffffffffffffffffffffffffffffffffff1673ffffffffffffffffffffffffffffffffffffffff16636352211e866040518263ffffffff1660e01b815260040161170e91906137f5565b60206040518083038186803b15801561172657600080fd5b505afa15801561173a573d6000803e3d6000fd5b505050506040513d601f19601f8201168201806040525081019061175e9190612cbc565b73ffffffffffffffffffffffffffffffffffffffff161461177e57600080fd5b6001831415611996576003600a60009054906101000a900473ffffffffffffffffffffffffffffffffffffffff1673ffffffffffffffffffffffffffffffffffffffff1663c1e03728866040518263ffffffff1660e01b81526004016117e491906137f5565b6101606040518083038186803b1580156117fd57600080fd5b505afa158015611811573d6000803e3d6000fd5b505050506040513d601f19601f820116820180604052508101906118359190613034565b60600151141561184457600080fd5b6063600a60009054906101000a900473ffffffffffffffffffffffffffffffffffffffff1673ffffffffffffffffffffffffffffffffffffffff1663c1e03728866040518263ffffffff1660e01b81526004016118a191906137f5565b6101606040518083038186803b1580156118ba57600080fd5b505afa1580156118ce573d6000803e3d6000fd5b505050506040513d601f19601f820116820180604052508101906118f29190613034565b600001511061190057600080fd5b600a60009054906101000a900473ffffffffffffffffffffffffffffffffffffffff1673ffffffffffffffffffffffffffffffffffffffff1663efe6e41c8584336040518463ffffffff1660e01b815260040161195f93929190613839565b600060405180830381600087803b15801561197957600080fd5b505af115801561198d573d6000803e3d6000fd5b50505050611aee565b6002831415611aed576063600a60009054906101000a900473ffffffffffffffffffffffffffffffffffffffff1673ffffffffffffffffffffffffffffffffffffffff1663c1e03728866040518263ffffffff1660e01b81526004016119fc91906137f5565b6101606040518083038186803b158015611a1557600080fd5b505afa158015611a29573d6000803e3d6000fd5b505050506040513d601f19601f82011682018060405250810190611a4d9190613034565b6020015110611a5b57600080fd5b600a60009054906101000a900473ffffffffffffffffffffffffffffffffffffffff1673ffffffffffffffffffffffffffffffffffffffff1663f0258a788584336040518463ffffffff1660e01b8152600401611aba93929190613839565b600060405180830381600087803b158015611ad457600080fd5b505af1158015611ae8573d6000803e3d6000fd5b505050505b5b611afa33600083611eac565b50505050565b600460009054906101000a900473ffffffffffffffffffffffffffffffffffffffff1681565b60007f01ffc9a7000000000000000000000000000000000000000000000000000000007bffffffffffffffffffffffffffffffffffffffffffffffffffffffff1916827bffffffffffffffffffffffffffffffffffffffffffffffffffffffff1916149050919050565b600033905090565b8151835114611bdc576040517f08c379a0000000000000000000000000000000000000000000000000000000008152600401611bd3906137b5565b60405180910390fd5b600073ffffffffffffffffffffffffffffffffffffffff168473ffffffffffffffffffffffffffffffffffffffff161415611c4c576040517f08c379a0000000000000000000000000000000000000000000000000000000008152600401611c43906136f5565b60405180910390fd5b6000611c56611b90565b9050611c668187878787876124e1565b60005b8451811015611e17576000858281518110611c8757611c86613c6b565b5b602002602001015190506000858381518110611ca657611ca5613c6b565b5b60200260200101519050600080600084815260200190815260200160002060008b73ffffffffffffffffffffffffffffffffffffffff1673ffffffffffffffffffffffffffffffffffffffff16815260200190815260200160002054905081811015611d47576040517f08c379a0000000000000000000000000000000000000000000000000000000008152600401611d3e90613755565b60405180910390fd5b81810360008085815260200190815260200160002060008c73ffffffffffffffffffffffffffffffffffffffff1673ffffffffffffffffffffffffffffffffffffffff168152602001908152602001600020819055508160008085815260200190815260200160002060008b73ffffffffffffffffffffffffffffffffffffffff1673ffffffffffffffffffffffffffffffffffffffff1681526020019081526020016000206000828254611dfc919061398f565b9250508190555050505080611e1090613bc4565b9050611c69565b508473ffffffffffffffffffffffffffffffffffffffff168673ffffffffffffffffffffffffffffffffffffffff168273ffffffffffffffffffffffffffffffffffffffff167f4a39dc06d4c0dbc64b70af90fd698a233a518aa5d07e595d983b8c0526c8f7fb8787604051611e8e929190613570565b60405180910390a4611ea48187878787876124e9565b505050505050565b600073ffffffffffffffffffffffffffffffffffffffff168373ffffffffffffffffffffffffffffffffffffffff161415611f1c576040517f08c379a0000000000000000000000000000000000000000000000000000000008152600401611f1390613735565b60405180910390fd5b6000611f26611b90565b9050611f5681856000611f38876126d0565b611f41876126d0565b604051806020016040528060008152506124e1565b600080600085815260200190815260200160002060008673ffffffffffffffffffffffffffffffffffffffff1673ffffffffffffffffffffffffffffffffffffffff16815260200190815260200160002054905082811015611fed576040517f08c379a0000000000000000000000000000000000000000000000000000000008152600401611fe490613695565b60405180910390fd5b82810360008086815260200190815260200160002060008773ffffffffffffffffffffffffffffffffffffffff1673ffffffffffffffffffffffffffffffffffffffff16815260200190815260200160002081905550600073ffffffffffffffffffffffffffffffffffffffff168573ffffffffffffffffffffffffffffffffffffffff168373ffffffffffffffffffffffffffffffffffffffff167fc3d58168c5ae7397731d063d5bbf3d657854427343f4c083240f7aacaa2d0f6287876040516120ba929190613810565b60405180910390a45050505050565b600073ffffffffffffffffffffffffffffffffffffffff168473ffffffffffffffffffffffffffffffffffffffff161415612139576040517f08c379a0000000000000000000000000000000000000000000000000000000008152600401612130906137d5565b60405180910390fd5b6000612143611b90565b905061216481600087612155886126d0565b61215e886126d0565b876124e1565b8260008086815260200190815260200160002060008773ffffffffffffffffffffffffffffffffffffffff1673ffffffffffffffffffffffffffffffffffffffff16815260200190815260200160002060008282546121c3919061398f565b925050819055508473ffffffffffffffffffffffffffffffffffffffff16600073ffffffffffffffffffffffffffffffffffffffff168273ffffffffffffffffffffffffffffffffffffffff167fc3d58168c5ae7397731d063d5bbf3d657854427343f4c083240f7aacaa2d0f628787604051612241929190613810565b60405180910390a46122588160008787878761274a565b5050505050565b600073ffffffffffffffffffffffffffffffffffffffff168473ffffffffffffffffffffffffffffffffffffffff1614156122cf576040517f08c379a00000000000000000000000000000000000000000000000000000000081526004016122c6906136f5565b60405180910390fd5b60006122d9611b90565b90506122f98187876122ea886126d0565b6122f3886126d0565b876124e1565b600080600086815260200190815260200160002060008873ffffffffffffffffffffffffffffffffffffffff1673ffffffffffffffffffffffffffffffffffffffff16815260200190815260200160002054905083811015612390576040517f08c379a000000000000000000000000000000000000000000000000000000000815260040161238790613755565b60405180910390fd5b83810360008087815260200190815260200160002060008973ffffffffffffffffffffffffffffffffffffffff1673ffffffffffffffffffffffffffffffffffffffff168152602001908152602001600020819055508360008087815260200190815260200160002060008873ffffffffffffffffffffffffffffffffffffffff1673ffffffffffffffffffffffffffffffffffffffff1681526020019081526020016000206000828254612445919061398f565b925050819055508573ffffffffffffffffffffffffffffffffffffffff168773ffffffffffffffffffffffffffffffffffffffff168373ffffffffffffffffffffffffffffffffffffffff167fc3d58168c5ae7397731d063d5bbf3d657854427343f4c083240f7aacaa2d0f6288886040516124c2929190613810565b60405180910390a46124d882888888888861274a565b50505050505050565b505050505050565b6125088473ffffffffffffffffffffffffffffffffffffffff16612931565b156126c8578373ffffffffffffffffffffffffffffffffffffffff1663bc197c8187878686866040518663ffffffff1660e01b815260040161254e95949392919061348c565b602060405180830381600087803b15801561256857600080fd5b505af192505050801561259957506040513d601f19601f820116820180604052508101906125969190613007565b60015b61263f576125a5613cc9565b806308c379a0141561260257506125ba614153565b806125c55750612604565b806040517f08c379a00000000000000000000000000000000000000000000000000000000081526004016125f99190613613565b60405180910390fd5b505b6040517f08c379a000000000000000000000000000000000000000000000000000000000815260040161263690613635565b60405180910390fd5b63bc197c8160e01b7bffffffffffffffffffffffffffffffffffffffffffffffffffffffff1916817bffffffffffffffffffffffffffffffffffffffffffffffffffffffff1916146126c6576040517f08c379a00000000000000000000000000000000000000000000000000000000081526004016126bd90613655565b60405180910390fd5b505b505050505050565b60606000600167ffffffffffffffff8111156126ef576126ee613c9a565b5b60405190808252806020026020018201604052801561271d5781602001602082028036833780820191505090505b509050828160008151811061273557612734613c6b565b5b60200260200101818152505080915050919050565b6127698473ffffffffffffffffffffffffffffffffffffffff16612931565b15612929578373ffffffffffffffffffffffffffffffffffffffff1663f23a6e6187878686866040518663ffffffff1660e01b81526004016127af9594939291906134f4565b602060405180830381600087803b1580156127c957600080fd5b505af19250505080156127fa57506040513d601f19601f820116820180604052508101906127f79190613007565b60015b6128a057612806613cc9565b806308c379a01415612863575061281b614153565b806128265750612865565b806040517f08c379a000000000000000000000000000000000000000000000000000000000815260040161285a9190613613565b60405180910390fd5b505b6040517f08c379a000000000000000000000000000000000000000000000000000000000815260040161289790613635565b60405180910390fd5b63f23a6e6160e01b7bffffffffffffffffffffffffffffffffffffffffffffffffffffffff1916817bffffffffffffffffffffffffffffffffffffffffffffffffffffffff191614612927576040517f08c379a000000000000000000000000000000000000000000000000000000000815260040161291e90613655565b60405180910390fd5b505b505050505050565b600080823b905060008111915050919050565b600061295761295284613895565b613870565b9050808382526020820190508285602086028201111561297a57612979613cf5565b5b60005b858110156129aa57816129908882612a66565b84526020840193506020830192505060018101905061297d565b5050509392505050565b60006129c76129c2846138c1565b613870565b905080838252602082019050828560208602820111156129ea576129e9613cf5565b5b60005b85811015612a1a5781612a008882612c65565b8452602084019350602083019250506001810190506129ed565b5050509392505050565b6000612a37612a32846138ed565b613870565b905082815260208101848484011115612a5357612a52613cfa565b5b612a5e848285613b1f565b509392505050565b600081359050612a75816141e9565b92915050565b600081519050612a8a816141e9565b92915050565b600082601f830112612aa557612aa4613ceb565b5b8135612ab5848260208601612944565b91505092915050565b600082601f830112612ad357612ad2613ceb565b5b8135612ae38482602086016129b4565b91505092915050565b600081359050612afb81614200565b92915050565b600081359050612b1081614217565b92915050565b600081519050612b2581614217565b92915050565b600082601f830112612b4057612b3f613ceb565b5b8135612b50848260208601612a24565b91505092915050565b60006101608284031215612b7057612b6f613cf0565b5b612b7b610160613870565b90506000612b8b84828501612c7a565b6000830152506020612b9f84828501612c7a565b6020830152506040612bb384828501612c7a565b6040830152506060612bc784828501612c7a565b6060830152506080612bdb84828501612c7a565b60808301525060a0612bef84828501612c7a565b60a08301525060c0612c0384828501612c7a565b60c08301525060e0612c1784828501612c7a565b60e083015250610100612c2c84828501612c7a565b61010083015250610120612c4284828501612c7a565b61012083015250610140612c5884828501612c7a565b6101408301525092915050565b600081359050612c748161422e565b92915050565b600081519050612c898161422e565b92915050565b600060208284031215612ca557612ca4613d04565b5b6000612cb384828501612a66565b91505092915050565b600060208284031215612cd257612cd1613d04565b5b6000612ce084828501612a7b565b91505092915050565b60008060408385031215612d0057612cff613d04565b5b6000612d0e85828601612a66565b9250506020612d1f85828601612a66565b9150509250929050565b600080600080600060a08688031215612d4557612d44613d04565b5b6000612d5388828901612a66565b9550506020612d6488828901612a66565b945050604086013567ffffffffffffffff811115612d8557612d84613cff565b5b612d9188828901612abe565b935050606086013567ffffffffffffffff811115612db257612db1613cff565b5b612dbe88828901612abe565b925050608086013567ffffffffffffffff811115612ddf57612dde613cff565b5b612deb88828901612b2b565b9150509295509295909350565b600080600080600060a08688031215612e1457612e13613d04565b5b6000612e2288828901612a66565b9550506020612e3388828901612a66565b9450506040612e4488828901612c65565b9350506060612e5588828901612c65565b925050608086013567ffffffffffffffff811115612e7657612e75613cff565b5b612e8288828901612b2b565b9150509295509295909350565b60008060408385031215612ea657612ea5613d04565b5b6000612eb485828601612a66565b9250506020612ec585828601612aec565b9150509250929050565b60008060408385031215612ee657612ee5613d04565b5b6000612ef485828601612a66565b9250506020612f0585828601612c65565b9150509250929050565b600080600060608486031215612f2857612f27613d04565b5b6000612f3686828701612a66565b9350506020612f4786828701612c65565b9250506040612f5886828701612c65565b9150509250925092565b60008060408385031215612f7957612f78613d04565b5b600083013567ffffffffffffffff811115612f9757612f96613cff565b5b612fa385828601612a90565b925050602083013567ffffffffffffffff811115612fc457612fc3613cff565b5b612fd085828601612abe565b9150509250929050565b600060208284031215612ff057612fef613d04565b5b6000612ffe84828501612b01565b91505092915050565b60006020828403121561301d5761301c613d04565b5b600061302b84828501612b16565b91505092915050565b6000610160828403121561304b5761304a613d04565b5b600061305984828501612b59565b91505092915050565b60006020828403121561307857613077613d04565b5b600061308684828501612c65565b91505092915050565b600080604083850312156130a6576130a5613d04565b5b60006130b485828601612c65565b92505060206130c585828601612c65565b9150509250929050565b600080600080608085870312156130e9576130e8613d04565b5b60006130f787828801612c65565b945050602061310887828801612c65565b935050604061311987828801612c65565b925050606061312a87828801612c65565b91505092959194509250565b60006131428383613453565b60208301905092915050565b61315781613a3f565b82525050565b60006131688261392e565b613172818561395c565b935061317d8361391e565b8060005b838110156131ae5781516131958882613136565b97506131a08361394f565b925050600181019050613181565b5085935050505092915050565b6131c481613a51565b82525050565b60006131d582613939565b6131df818561396d565b93506131ef818560208601613b2e565b6131f881613d09565b840191505092915050565b61320c81613ab3565b82525050565b61321b81613ad7565b82525050565b61322a81613afb565b82525050565b600061323b82613944565b613245818561397e565b9350613255818560208601613b2e565b61325e81613d09565b840191505092915050565b600061327660348361397e565b915061328182613d27565b604082019050919050565b600061329960288361397e565b91506132a482613d76565b604082019050919050565b60006132bc602b8361397e565b91506132c782613dc5565b604082019050919050565b60006132df60248361397e565b91506132ea82613e14565b604082019050919050565b600061330260298361397e565b915061330d82613e63565b604082019050919050565b600061332560028361397e565b915061333082613eb2565b602082019050919050565b600061334860258361397e565b915061335382613edb565b604082019050919050565b600061336b60328361397e565b915061337682613f2a565b604082019050919050565b600061338e60238361397e565b915061339982613f79565b604082019050919050565b60006133b1602a8361397e565b91506133bc82613fc8565b604082019050919050565b60006133d460298361397e565b91506133df82614017565b604082019050919050565b60006133f760298361397e565b915061340282614066565b604082019050919050565b600061341a60288361397e565b9150613425826140b5565b604082019050919050565b600061343d60218361397e565b915061344882614104565b604082019050919050565b61345c81613aa9565b82525050565b61346b81613aa9565b82525050565b6000602082019050613486600083018461314e565b92915050565b600060a0820190506134a1600083018861314e565b6134ae602083018761314e565b81810360408301526134c0818661315d565b905081810360608301526134d4818561315d565b905081810360808301526134e881846131ca565b90509695505050505050565b600060a082019050613509600083018861314e565b613516602083018761314e565b6135236040830186613462565b6135306060830185613462565b818103608083015261354281846131ca565b90509695505050505050565b60006020820190508181036000830152613568818461315d565b905092915050565b6000604082019050818103600083015261358a818561315d565b9050818103602083015261359e818461315d565b90509392505050565b60006020820190506135bc60008301846131bb565b92915050565b60006020820190506135d76000830184613203565b92915050565b60006020820190506135f26000830184613212565b92915050565b600060208201905061360d6000830184613221565b92915050565b6000602082019050818103600083015261362d8184613230565b905092915050565b6000602082019050818103600083015261364e81613269565b9050919050565b6000602082019050818103600083015261366e8161328c565b9050919050565b6000602082019050818103600083015261368e816132af565b9050919050565b600060208201905081810360008301526136ae816132d2565b9050919050565b600060208201905081810360008301526136ce816132f5565b9050919050565b600060208201905081810360008301526136ee81613318565b9050919050565b6000602082019050818103600083015261370e8161333b565b9050919050565b6000602082019050818103600083015261372e8161335e565b9050919050565b6000602082019050818103600083015261374e81613381565b9050919050565b6000602082019050818103600083015261376e816133a4565b9050919050565b6000602082019050818103600083015261378e816133c7565b9050919050565b600060208201905081810360008301526137ae816133ea565b9050919050565b600060208201905081810360008301526137ce8161340d565b9050919050565b600060208201905081810360008301526137ee81613430565b9050919050565b600060208201905061380a6000830184613462565b92915050565b60006040820190506138256000830185613462565b6138326020830184613462565b9392505050565b600060608201905061384e6000830186613462565b61385b6020830185613462565b613868604083018461314e565b949350505050565b600061387a61388b565b90506138868282613b93565b919050565b6000604051905090565b600067ffffffffffffffff8211156138b0576138af613c9a565b5b602082029050602081019050919050565b600067ffffffffffffffff8211156138dc576138db613c9a565b5b602082029050602081019050919050565b600067ffffffffffffffff82111561390857613907613c9a565b5b61391182613d09565b9050602081019050919050565b6000819050602082019050919050565b600081519050919050565b600081519050919050565b600081519050919050565b6000602082019050919050565b600082825260208201905092915050565b600082825260208201905092915050565b600082825260208201905092915050565b600061399a82613aa9565b91506139a583613aa9565b9250827fffffffffffffffffffffffffffffffffffffffffffffffffffffffffffffffff038211156139da576139d9613c0d565b5b828201905092915050565b60006139f082613aa9565b91506139fb83613aa9565b9250817fffffffffffffffffffffffffffffffffffffffffffffffffffffffffffffffff0483118215151615613a3457613a33613c0d565b5b828202905092915050565b6000613a4a82613a89565b9050919050565b60008115159050919050565b60007fffffffff0000000000000000000000000000000000000000000000000000000082169050919050565b600073ffffffffffffffffffffffffffffffffffffffff82169050919050565b6000819050919050565b6000613abe82613ac5565b9050919050565b6000613ad082613a89565b9050919050565b6000613ae282613ae9565b9050919050565b6000613af482613a89565b9050919050565b6000613b0682613b0d565b9050919050565b6000613b1882613a89565b9050919050565b82818337600083830152505050565b60005b83811015613b4c578082015181840152602081019050613b31565b83811115613b5b576000848401525b50505050565b60006002820490506001821680613b7957607f821691505b60208210811415613b8d57613b8c613c3c565b5b50919050565b613b9c82613d09565b810181811067ffffffffffffffff82111715613bbb57613bba613c9a565b5b80604052505050565b6000613bcf82613aa9565b91507fffffffffffffffffffffffffffffffffffffffffffffffffffffffffffffffff821415613c0257613c01613c0d565b5b600182019050919050565b7f4e487b7100000000000000000000000000000000000000000000000000000000600052601160045260246000fd5b7f4e487b7100000000000000000000000000000000000000000000000000000000600052602260045260246000fd5b7f4e487b7100000000000000000000000000000000000000000000000000000000600052603260045260246000fd5b7f4e487b7100000000000000000000000000000000000000000000000000000000600052604160045260246000fd5b600060033d1115613ce85760046000803e613ce5600051613d1a565b90505b90565b600080fd5b600080fd5b600080fd5b600080fd5b600080fd5b600080fd5b6000601f19601f8301169050919050565b60008160e01c9050919050565b7f455243313135353a207472616e7366657220746f206e6f6e204552433131353560008201527f526563656976657220696d706c656d656e746572000000000000000000000000602082015250565b7f455243313135353a204552433131353552656365697665722072656a6563746560008201527f6420746f6b656e73000000000000000000000000000000000000000000000000602082015250565b7f455243313135353a2062616c616e636520717565727920666f7220746865207a60008201527f65726f2061646472657373000000000000000000000000000000000000000000602082015250565b7f455243313135353a206275726e20616d6f756e7420657863656564732062616c60008201527f616e636500000000000000000000000000000000000000000000000000000000602082015250565b7f455243313135353a2063616c6c6572206973206e6f74206f776e6572206e6f7260008201527f20617070726f7665640000000000000000000000000000000000000000000000602082015250565b7f4131000000000000000000000000000000000000000000000000000000000000600082015250565b7f455243313135353a207472616e7366657220746f20746865207a65726f20616460008201527f6472657373000000000000000000000000000000000000000000000000000000602082015250565b7f455243313135353a207472616e736665722063616c6c6572206973206e6f742060008201527f6f776e6572206e6f7220617070726f7665640000000000000000000000000000602082015250565b7f455243313135353a206275726e2066726f6d20746865207a65726f206164647260008201527f6573730000000000000000000000000000000000000000000000000000000000602082015250565b7f455243313135353a20696e73756666696369656e742062616c616e636520666f60008201527f72207472616e7366657200000000000000000000000000000000000000000000602082015250565b7f455243313135353a2073657474696e6720617070726f76616c2073746174757360008201527f20666f722073656c660000000000000000000000000000000000000000000000602082015250565b7f455243313135353a206163636f756e747320616e6420696473206c656e67746860008201527f206d69736d617463680000000000000000000000000000000000000000000000602082015250565b7f455243313135353a2069647320616e6420616d6f756e7473206c656e6774682060008201527f6d69736d61746368000000000000000000000000000000000000000000000000602082015250565b7f455243313135353a206d696e7420746f20746865207a65726f2061646472657360008201527f7300000000000000000000000000000000000000000000000000000000000000602082015250565b600060443d1015614163576141e6565b61416b61388b565b60043d036004823e80513d602482011167ffffffffffffffff821117156141935750506141e6565b808201805167ffffffffffffffff8111156141b157505050506141e6565b80602083010160043d0385018111156141ce5750505050506141e6565b6141dd82602001850186613b93565b82955050505050505b90565b6141f281613a3f565b81146141fd57600080fd5b50565b61420981613a51565b811461421457600080fd5b50565b61422081613a5d565b811461422b57600080fd5b50565b61423781613aa9565b811461424257600080fd5b5056fea264697066735822122048b930b7868414e84a0945b1cb7ab598a6d741f088b7bd13d68c9f10a510934364736f6c63430008060033",
  "immutableReferences": {},
  "source": "// SPDX-License-Identifier: MIT\r\npragma solidity >=0.4.22 <0.9.0;\r\n\r\nimport \"../node_modules/@openzeppelin/contracts/token/ERC20/IERC20.sol\";\r\nimport \"../node_modules/@openzeppelin/contracts/token/ERC721/IERC721.sol\";\r\nimport \"../node_modules/@openzeppelin/contracts/token/ERC1155/ERC1155.sol\";\r\nimport \"../contracts/PBPlayers.sol\";\r\n\r\ncontract PBXP is ERC1155 {\r\n\r\n    uint public PBXPTokenId = 0;\r\n    address public admin;\r\n    address pbTeamsAddress;\r\n    address pbPvCAddress;\r\n    address pbMatchupsAddress;\r\n    uint upgradeCost;\r\n    IERC721 public myTeamsContract;\r\n    PBPlayers public pbPlayers;\r\n    IERC20 public buddies;\r\n\r\n    modifier onlyAdmin() {\r\n        require(msg.sender == admin, \"A1\");\r\n        _;\r\n    }\r\n\r\n     modifier onlyTeams() {\r\n        require(msg.sender == pbTeamsAddress, \"T1\");\r\n        _;\r\n    }\r\n\r\n    constructor(address _buddiesCoinAddress, address _pbPlayersAddress, uint _upgradeCost) ERC1155 (\"\") {\r\n        admin = msg.sender;\r\n        buddies = IERC20(_buddiesCoinAddress);\r\n        pbPlayers = PBPlayers(_pbPlayersAddress);\r\n        upgradeCost = _upgradeCost;\r\n    }\r\n\r\n    function isAdmin() public view returns (bool){\r\n        if(admin == msg.sender){\r\n            return true;\r\n        } else return false;\r\n    } \r\n\r\n    function getPBXPAddress() external view returns(address){\r\n        return address(this);\r\n    }\r\n\r\n    function updateBuddiesCoinAddress(address _buddiesCoinAddress) external onlyAdmin {\r\n        buddies = IERC20(_buddiesCoinAddress);\r\n    }\r\n\r\n    function updatePBXPTokenId(uint _PBXPTokenId) external onlyAdmin{\r\n        PBXPTokenId = _PBXPTokenId;\r\n    }\r\n\r\n    function updatePBTeamsAddress(address _pbTeamsAddress) external onlyAdmin {\r\n        pbTeamsAddress = _pbTeamsAddress;\r\n    }\r\n\r\n    function updatePBPlayersAddress(address _pbPlayersAddress)  external onlyAdmin {\r\n        pbPlayers = PBPlayers(_pbPlayersAddress);\r\n    }\r\n\r\n    function updatePBPvCAddress(address _pbPvCAddress) external onlyAdmin {\r\n        pbPvCAddress = _pbPvCAddress;\r\n    }\r\n\r\n    function updatePBMatchupsAddress(address _pbMatchupsAddress) external onlyAdmin {\r\n        pbMatchupsAddress = _pbMatchupsAddress;\r\n    }\r\n\r\n    function getUpgradeCost() public view returns(uint){\r\n        return upgradeCost;\r\n    }\r\n\r\n    function newProduct(uint token, uint initalSupply) external onlyAdmin {\r\n        _mint(msg.sender, token, initalSupply, \"\");\r\n    }\r\n\r\n    function newPBXPtoAddress(address mintToAddress, uint qty, uint token) external onlyAdmin returns (uint){\r\n        _mint(mintToAddress, token, qty, \"\");\r\n        uint balance = balanceOf(mintToAddress, token);\r\n        return balance;\r\n    }\r\n\r\n    function burnItems(address owner, uint token, uint qty ) external onlyAdmin {\r\n        _burn(owner, token, qty);\r\n    }\r\n\r\n    function earnPBXP(address earnerAddress, uint qty) external {\r\n        require(msg.sender == pbTeamsAddress || msg.sender == pbPvCAddress || msg.sender == pbMatchupsAddress);\r\n        _mint(earnerAddress, PBXPTokenId, qty, \"\");\r\n    }\r\n\r\n    function awardPBXP(address awardeeAddress, uint qty) external onlyAdmin {\r\n        _mint(awardeeAddress, PBXPTokenId, qty, \"\");\r\n    }\r\n\r\n    function increaseStats(uint tokenId, uint statType, uint qty, uint xp) public {\r\n        require(xp == upgradeCost * qty);\r\n        require(balanceOf(msg.sender, 0) >= xp);\r\n        require(pbPlayers.getTokenDetails(tokenId).ageoutTimestamp > block.timestamp);\r\n        require(pbPlayers.ownerOf(tokenId) == msg.sender);\r\n        if(statType == 1){\r\n            require(pbPlayers.getTokenDetails(tokenId).playertype != 3);\r\n            require(pbPlayers.getTokenDetails(tokenId).offence < 99);\r\n            pbPlayers.addOp(tokenId, qty, msg.sender);\r\n        }else if (statType == 2){\r\n            require(pbPlayers.getTokenDetails(tokenId).defence < 99);\r\n            pbPlayers.addDp(tokenId, qty, msg.sender);\r\n        }\r\n        _burn(msg.sender, 0, xp);\r\n    }\r\n\r\n}",
  "sourcePath": "O:\\Projects\\puck-buddies\\contracts\\PBXP.sol",
  "compiler": {
    "name": "solc",
    "version": "0.8.6+commit.11564f7e.Emscripten.clang"
  },
  "schemaVersion": "3.4.3",
  "updatedAt": "2022-01-07T04:17:57.030Z",
  "networkType": "ethereum",
  "devdoc": {
    "kind": "dev",
    "methods": {
      "balanceOf(address,uint256)": {
        "details": "See {IERC1155-balanceOf}. Requirements: - `account` cannot be the zero address."
      },
      "balanceOfBatch(address[],uint256[])": {
        "details": "See {IERC1155-balanceOfBatch}. Requirements: - `accounts` and `ids` must have the same length."
      },
      "isApprovedForAll(address,address)": {
        "details": "See {IERC1155-isApprovedForAll}."
      },
      "safeBatchTransferFrom(address,address,uint256[],uint256[],bytes)": {
        "details": "See {IERC1155-safeBatchTransferFrom}."
      },
      "safeTransferFrom(address,address,uint256,uint256,bytes)": {
        "details": "See {IERC1155-safeTransferFrom}."
      },
      "setApprovalForAll(address,bool)": {
        "details": "See {IERC1155-setApprovalForAll}."
      },
      "supportsInterface(bytes4)": {
        "details": "See {IERC165-supportsInterface}."
      },
      "uri(uint256)": {
        "details": "See {IERC1155MetadataURI-uri}. This implementation returns the same URI for *all* token types. It relies on the token type ID substitution mechanism https://eips.ethereum.org/EIPS/eip-1155#metadata[defined in the EIP]. Clients calling this function must replace the `\\{id\\}` substring with the actual token type ID."
      }
    },
    "version": 1
  },
  "userdoc": {
    "kind": "user",
    "methods": {},
    "version": 1
  }
}