{
  "contractName": "PBXPShopHolder",
  "abi": [
    {
      "inputs": [
        {
          "internalType": "address",
          "name": "_pbxpAddress",
          "type": "address"
        },
        {
          "internalType": "address",
          "name": "_pbxpShopaddress",
          "type": "address"
        }
      ],
      "stateMutability": "nonpayable",
      "type": "constructor"
    },
    {
      "inputs": [],
      "name": "admin",
      "outputs": [
        {
          "internalType": "address",
          "name": "",
          "type": "address"
        }
      ],
      "stateMutability": "view",
      "type": "function"
    },
    {
      "inputs": [
        {
          "internalType": "address",
          "name": "",
          "type": "address"
        },
        {
          "internalType": "address",
          "name": "",
          "type": "address"
        },
        {
          "internalType": "uint256[]",
          "name": "",
          "type": "uint256[]"
        },
        {
          "internalType": "uint256[]",
          "name": "",
          "type": "uint256[]"
        },
        {
          "internalType": "bytes",
          "name": "",
          "type": "bytes"
        }
      ],
      "name": "onERC1155BatchReceived",
      "outputs": [
        {
          "internalType": "bytes4",
          "name": "",
          "type": "bytes4"
        }
      ],
      "stateMutability": "nonpayable",
      "type": "function"
    },
    {
      "inputs": [
        {
          "internalType": "address",
          "name": "",
          "type": "address"
        },
        {
          "internalType": "address",
          "name": "",
          "type": "address"
        },
        {
          "internalType": "uint256",
          "name": "",
          "type": "uint256"
        },
        {
          "internalType": "uint256",
          "name": "",
          "type": "uint256"
        },
        {
          "internalType": "bytes",
          "name": "",
          "type": "bytes"
        }
      ],
      "name": "onERC1155Received",
      "outputs": [
        {
          "internalType": "bytes4",
          "name": "",
          "type": "bytes4"
        }
      ],
      "stateMutability": "nonpayable",
      "type": "function"
    },
    {
      "inputs": [
        {
          "internalType": "bytes4",
          "name": "interfaceId",
          "type": "bytes4"
        }
      ],
      "name": "supportsInterface",
      "outputs": [
        {
          "internalType": "bool",
          "name": "",
          "type": "bool"
        }
      ],
      "stateMutability": "view",
      "type": "function"
    },
    {
      "inputs": [],
      "name": "getPBXPShopHolderAddress",
      "outputs": [
        {
          "internalType": "address",
          "name": "",
          "type": "address"
        }
      ],
      "stateMutability": "view",
      "type": "function"
    },
    {
      "inputs": [
        {
          "internalType": "address",
          "name": "_pbxpAddress",
          "type": "address"
        }
      ],
      "name": "updatePBXPTokenAddress",
      "outputs": [],
      "stateMutability": "nonpayable",
      "type": "function"
    },
    {
      "inputs": [
        {
          "internalType": "address",
          "name": "_pbxpShopaddress",
          "type": "address"
        }
      ],
      "name": "updateProShopAddress",
      "outputs": [],
      "stateMutability": "nonpayable",
      "type": "function"
    },
    {
      "inputs": [
        {
          "internalType": "uint256",
          "name": "sku",
          "type": "uint256"
        },
        {
          "internalType": "uint256",
          "name": "value",
          "type": "uint256"
        }
      ],
      "name": "buyItems",
      "outputs": [],
      "stateMutability": "nonpayable",
      "type": "function"
    },
    {
      "inputs": [
        {
          "internalType": "uint256",
          "name": "sku",
          "type": "uint256"
        }
      ],
      "name": "transferMatchupToken",
      "outputs": [],
      "stateMutability": "nonpayable",
      "type": "function"
    },
    {
      "inputs": [
        {
          "internalType": "uint256",
          "name": "input",
          "type": "uint256"
        }
      ],
      "name": "calculateWeiFromSku",
      "outputs": [
        {
          "internalType": "uint256",
          "name": "",
          "type": "uint256"
        }
      ],
      "stateMutability": "pure",
      "type": "function"
    },
    {
      "inputs": [],
      "name": "getBNBBalance",
      "outputs": [
        {
          "internalType": "uint256",
          "name": "",
          "type": "uint256"
        }
      ],
      "stateMutability": "view",
      "type": "function"
    },
    {
      "inputs": [
        {
          "internalType": "address payable",
          "name": "_to",
          "type": "address"
        },
        {
          "internalType": "uint256",
          "name": "_amount",
          "type": "uint256"
        }
      ],
      "name": "transferBNB",
      "outputs": [],
      "stateMutability": "nonpayable",
      "type": "function"
    }
  ],
  "bytecode": "0x60806040523480156200001157600080fd5b50604051620015c2380380620015c2833981810160405281019062000037919062000118565b336000806101000a81548173ffffffffffffffffffffffffffffffffffffffff021916908373ffffffffffffffffffffffffffffffffffffffff16021790555081600260006101000a81548173ffffffffffffffffffffffffffffffffffffffff021916908373ffffffffffffffffffffffffffffffffffffffff16021790555080600160006101000a81548173ffffffffffffffffffffffffffffffffffffffff021916908373ffffffffffffffffffffffffffffffffffffffff1602179055505050620001b2565b600081519050620001128162000198565b92915050565b6000806040838503121562000132576200013162000193565b5b6000620001428582860162000101565b9250506020620001558582860162000101565b9150509250929050565b60006200016c8262000173565b9050919050565b600073ffffffffffffffffffffffffffffffffffffffff82169050919050565b600080fd5b620001a3816200015f565b8114620001af57600080fd5b50565b61140080620001c26000396000f3fe608060405234801561001057600080fd5b50600436106100b45760003560e01c8063eb17fba311610071578063eb17fba314610189578063ec1de0c2146101a5578063f23a6e61146101c3578063f61a2ea8146101f3578063f851a44014610223578063f89879aa14610241576100b4565b806301ffc9a7146100b957806321d7dc3d146100e95780637db3171114610105578063ae90235a14610121578063bc197c811461013d578063e638ded31461016d575b600080fd5b6100d360048036038101906100ce9190610d09565b61025f565b6040516100e09190610f87565b60405180910390f35b61010360048036038101906100fe9190610d90565b6102d9565b005b61011f600480360381019061011a9190610d36565b61050d565b005b61013b60048036038101906101369190610b36565b6105a4565b005b61015760048036038101906101529190610ba3565b610676565b6040516101649190610fa2565b60405180910390f35b61018760048036038101906101829190610b36565b61068b565b005b6101a3600480360381019061019e9190610b63565b61075d565b005b6101ad610836565b6040516101ba9190610e93565b60405180910390f35b6101dd60048036038101906101d89190610c72565b61083e565b6040516101ea9190610fa2565b60405180910390f35b61020d60048036038101906102089190610d36565b610853565b60405161021a9190610ffd565b60405180910390f35b61022b61089a565b6040516102389190610e93565b60405180910390f35b6102496108be565b6040516102569190610ffd565b60405180910390f35b60007f4e2312e0000000000000000000000000000000000000000000000000000000007bffffffffffffffffffffffffffffffffffffffffffffffffffffffff1916827bffffffffffffffffffffffffffffffffffffffffffffffffffffffff191614806102d257506102d182610955565b5b9050919050565b60006102e483610853565b9050818114610328576040517f08c379a000000000000000000000000000000000000000000000000000000000815260040161031f90610fdd565b60405180910390fd5b60018060009054906101000a900473ffffffffffffffffffffffffffffffffffffffff1673ffffffffffffffffffffffffffffffffffffffff1662fdd58e30866040518363ffffffff1660e01b8152600401610385929190610f5e565b60206040518083038186803b15801561039d57600080fd5b505afa1580156103b1573d6000803e3d6000fd5b505050506040513d601f19601f820116820180604052508101906103d59190610d63565b10156103e057600080fd5b600260009054906101000a900473ffffffffffffffffffffffffffffffffffffffff1673ffffffffffffffffffffffffffffffffffffffff1663f242432a33306000866040518563ffffffff1660e01b81526004016104429493929190610eae565b600060405180830381600087803b15801561045c57600080fd5b505af1158015610470573d6000803e3d6000fd5b50505050600160009054906101000a900473ffffffffffffffffffffffffffffffffffffffff1673ffffffffffffffffffffffffffffffffffffffff1663f242432a30338660016040518563ffffffff1660e01b81526004016104d69493929190610f06565b600060405180830381600087803b1580156104f057600080fd5b505af1158015610504573d6000803e3d6000fd5b50505050505050565b600160009054906101000a900473ffffffffffffffffffffffffffffffffffffffff1673ffffffffffffffffffffffffffffffffffffffff1663f242432a30338460016040518563ffffffff1660e01b815260040161056f9493929190610f06565b600060405180830381600087803b15801561058957600080fd5b505af115801561059d573d6000803e3d6000fd5b5050505050565b60008054906101000a900473ffffffffffffffffffffffffffffffffffffffff1673ffffffffffffffffffffffffffffffffffffffff163373ffffffffffffffffffffffffffffffffffffffff1614610632576040517f08c379a000000000000000000000000000000000000000000000000000000000815260040161062990610fbd565b60405180910390fd5b80600160006101000a81548173ffffffffffffffffffffffffffffffffffffffff021916908373ffffffffffffffffffffffffffffffffffffffff16021790555050565b600063bc197c8160e01b905095945050505050565b60008054906101000a900473ffffffffffffffffffffffffffffffffffffffff1673ffffffffffffffffffffffffffffffffffffffff163373ffffffffffffffffffffffffffffffffffffffff1614610719576040517f08c379a000000000000000000000000000000000000000000000000000000000815260040161071090610fbd565b60405180910390fd5b80600260006101000a81548173ffffffffffffffffffffffffffffffffffffffff021916908373ffffffffffffffffffffffffffffffffffffffff16021790555050565b60008054906101000a900473ffffffffffffffffffffffffffffffffffffffff1673ffffffffffffffffffffffffffffffffffffffff163373ffffffffffffffffffffffffffffffffffffffff16146107eb576040517f08c379a00000000000000000000000000000000000000000000000000000000081526004016107e290610fbd565b60405180910390fd5b8173ffffffffffffffffffffffffffffffffffffffff166108fc829081150290604051600060405180830381858888f19350505050158015610831573d6000803e3d6000fd5b505050565b600030905090565b600063f23a6e6160e01b905095945050505050565b60008060648361086391906110bc565b905060006305f5e100826108779190611231565b90506000655af3107a40008261088d91906110ed565b9050809350505050919050565b60008054906101000a900473ffffffffffffffffffffffffffffffffffffffff1681565b60008060009054906101000a900473ffffffffffffffffffffffffffffffffffffffff1673ffffffffffffffffffffffffffffffffffffffff163373ffffffffffffffffffffffffffffffffffffffff161461094f576040517f08c379a000000000000000000000000000000000000000000000000000000000815260040161094690610fbd565b60405180910390fd5b47905090565b60007f01ffc9a7000000000000000000000000000000000000000000000000000000007bffffffffffffffffffffffffffffffffffffffffffffffffffffffff1916827bffffffffffffffffffffffffffffffffffffffffffffffffffffffff1916149050919050565b60006109d26109cd8461103d565b611018565b905080838252602082019050828560208602820111156109f5576109f46112f4565b5b60005b85811015610a255781610a0b8882610b0c565b8452602084019350602083019250506001810190506109f8565b5050509392505050565b6000610a42610a3d84611069565b611018565b905082815260208101848484011115610a5e57610a5d6112f9565b5b610a698482856111f1565b509392505050565b600081359050610a808161136e565b92915050565b600081359050610a9581611385565b92915050565b600082601f830112610ab057610aaf6112ef565b5b8135610ac08482602086016109bf565b91505092915050565b600081359050610ad88161139c565b92915050565b600082601f830112610af357610af26112ef565b5b8135610b03848260208601610a2f565b91505092915050565b600081359050610b1b816113b3565b92915050565b600081519050610b30816113b3565b92915050565b600060208284031215610b4c57610b4b611303565b5b6000610b5a84828501610a71565b91505092915050565b60008060408385031215610b7a57610b79611303565b5b6000610b8885828601610a86565b9250506020610b9985828601610b0c565b9150509250929050565b600080600080600060a08688031215610bbf57610bbe611303565b5b6000610bcd88828901610a71565b9550506020610bde88828901610a71565b945050604086013567ffffffffffffffff811115610bff57610bfe6112fe565b5b610c0b88828901610a9b565b935050606086013567ffffffffffffffff811115610c2c57610c2b6112fe565b5b610c3888828901610a9b565b925050608086013567ffffffffffffffff811115610c5957610c586112fe565b5b610c6588828901610ade565b9150509295509295909350565b600080600080600060a08688031215610c8e57610c8d611303565b5b6000610c9c88828901610a71565b9550506020610cad88828901610a71565b9450506040610cbe88828901610b0c565b9350506060610ccf88828901610b0c565b925050608086013567ffffffffffffffff811115610cf057610cef6112fe565b5b610cfc88828901610ade565b9150509295509295909350565b600060208284031215610d1f57610d1e611303565b5b6000610d2d84828501610ac9565b91505092915050565b600060208284031215610d4c57610d4b611303565b5b6000610d5a84828501610b0c565b91505092915050565b600060208284031215610d7957610d78611303565b5b6000610d8784828501610b21565b91505092915050565b60008060408385031215610da757610da6611303565b5b6000610db585828601610b0c565b9250506020610dc685828601610b0c565b9150509250929050565b610dd981611147565b82525050565b610de88161116b565b82525050565b610df781611177565b82525050565b610e06816111cd565b82525050565b610e15816111df565b82525050565b6000610e286002836110ab565b9150610e3382611319565b602082019050919050565b6000610e4b6002836110ab565b9150610e5682611342565b602082019050919050565b6000610e6e60008361109a565b9150610e798261136b565b600082019050919050565b610e8d816111c3565b82525050565b6000602082019050610ea86000830184610dd0565b92915050565b600060a082019050610ec36000830187610dd0565b610ed06020830186610dd0565b610edd6040830185610dfd565b610eea6060830184610e84565b8181036080830152610efb81610e61565b905095945050505050565b600060a082019050610f1b6000830187610dd0565b610f286020830186610dd0565b610f356040830185610e84565b610f426060830184610e0c565b8181036080830152610f5381610e61565b905095945050505050565b6000604082019050610f736000830185610dd0565b610f806020830184610e84565b9392505050565b6000602082019050610f9c6000830184610ddf565b92915050565b6000602082019050610fb76000830184610dee565b92915050565b60006020820190508181036000830152610fd681610e1b565b9050919050565b60006020820190508181036000830152610ff681610e3e565b9050919050565b60006020820190506110126000830184610e84565b92915050565b6000611022611033565b905061102e8282611200565b919050565b6000604051905090565b600067ffffffffffffffff821115611058576110576112c0565b5b602082029050602081019050919050565b600067ffffffffffffffff821115611084576110836112c0565b5b61108d82611308565b9050602081019050919050565b600082825260208201905092915050565b600082825260208201905092915050565b60006110c7826111c3565b91506110d2836111c3565b9250826110e2576110e1611291565b5b828204905092915050565b60006110f8826111c3565b9150611103836111c3565b9250817fffffffffffffffffffffffffffffffffffffffffffffffffffffffffffffffff048311821515161561113c5761113b611262565b5b828202905092915050565b6000611152826111a3565b9050919050565b6000611164826111a3565b9050919050565b60008115159050919050565b60007fffffffff0000000000000000000000000000000000000000000000000000000082169050919050565b600073ffffffffffffffffffffffffffffffffffffffff82169050919050565b6000819050919050565b60006111d8826111c3565b9050919050565b60006111ea826111c3565b9050919050565b82818337600083830152505050565b61120982611308565b810181811067ffffffffffffffff82111715611228576112276112c0565b5b80604052505050565b600061123c826111c3565b9150611247836111c3565b92508261125757611256611291565b5b828206905092915050565b7f4e487b7100000000000000000000000000000000000000000000000000000000600052601160045260246000fd5b7f4e487b7100000000000000000000000000000000000000000000000000000000600052601260045260246000fd5b7f4e487b7100000000000000000000000000000000000000000000000000000000600052604160045260246000fd5b600080fd5b600080fd5b600080fd5b600080fd5b600080fd5b6000601f19601f8301169050919050565b7f4131000000000000000000000000000000000000000000000000000000000000600082015250565b7f5631000000000000000000000000000000000000000000000000000000000000600082015250565b50565b61137781611147565b811461138257600080fd5b50565b61138e81611159565b811461139957600080fd5b50565b6113a581611177565b81146113b057600080fd5b50565b6113bc816111c3565b81146113c757600080fd5b5056fea264697066735822122014e01223d8701685ee50c7cd82b19e57cb7eea48a25d3050e6e619f80cd8882e64736f6c63430008060033",
  "immutableReferences": {},
  "source": "// SPDX-License-Identifier: MIT\r\npragma solidity >=0.4.22 <0.9.0;\r\nimport \"../node_modules/@openzeppelin/contracts/token/ERC20/IERC20.sol\";\r\nimport '../node_modules/@openzeppelin/contracts/token/ERC1155/IERC1155.sol';\r\nimport \"../node_modules/@openzeppelin/contracts/token/ERC1155/utils/ERC1155Holder.sol\";\r\nimport \"../contracts/PBXP.sol\";\r\n\r\ncontract PBXPShopHolder is ERC1155Holder{\r\n    \r\n    address public admin;\r\n    IERC1155 private pbxpShopFactory;\r\n    PBXP private PBXPToken;\r\n    \r\n        \r\n    modifier onlyAdmin() {\r\n        require(msg.sender == admin, \"A1\");\r\n        _;\r\n    }\r\n\r\n    constructor(address _pbxpAddress, address _pbxpShopaddress) ERC1155Holder() {\r\n        admin = msg.sender;\r\n        PBXPToken = PBXP(_pbxpAddress);\r\n        pbxpShopFactory = IERC1155(_pbxpShopaddress);\r\n    }\r\n\r\n    function getPBXPShopHolderAddress() public view returns (address) {\r\n        return address(this);\r\n    }\r\n\r\n    function updatePBXPTokenAddress(address _pbxpAddress) external onlyAdmin{\r\n        PBXPToken = PBXP(_pbxpAddress);\r\n    }\r\n    \r\n   function updateProShopAddress(address _pbxpShopaddress) external onlyAdmin {\r\n       pbxpShopFactory = IERC1155(_pbxpShopaddress);\r\n   }\r\n    \r\n    function buyItems(uint256 sku, uint value) external {\r\n        uint weiFromSku = calculateWeiFromSku(sku);\r\n        require(weiFromSku == value, \"V1\");\r\n        require(pbxpShopFactory.balanceOf(address(this), sku) >= 1);\r\n        PBXPToken.safeTransferFrom(msg.sender, address(this), 0, value,\"\");\r\n        pbxpShopFactory.safeTransferFrom(address(this), msg.sender, sku, 1, \"\");\r\n    }\r\n\r\n    function transferMatchupToken(uint sku) external {\r\n        pbxpShopFactory.safeTransferFrom(address(this), msg.sender, sku, 1, \"\");\r\n    }\r\n\r\n    function calculateWeiFromSku (uint input) public pure returns (uint){\r\n        uint a = input / 100;\r\n        uint b = a % 100000000;\r\n        uint c = b * 10 ** 14;\r\n        return c;\r\n    }\r\n\r\n    function getBNBBalance() external view onlyAdmin returns (uint) {\r\n        return address(this).balance;\r\n    }\r\n\r\n    function transferBNB(address payable _to, uint _amount) external onlyAdmin {\r\n        _to.transfer(_amount);\r\n    }\r\n    \r\n}",
  "sourcePath": "O:\\Projects\\puck-buddies\\contracts\\PBXPShopHolder.sol",
  "compiler": {
    "name": "solc",
    "version": "0.8.6+commit.11564f7e.Emscripten.clang"
  },
  "schemaVersion": "3.4.3",
  "updatedAt": "2022-01-07T21:41:40.865Z",
  "devdoc": {
    "kind": "dev",
    "methods": {
      "supportsInterface(bytes4)": {
        "details": "See {IERC165-supportsInterface}."
      }
    },
    "version": 1
  },
  "userdoc": {
    "kind": "user",
    "methods": {},
    "version": 1
  }
}