{
  "contractName": "PBXP",
  "abi": [
    {
      "inputs": [
        {
          "internalType": "address",
          "name": "_buddiesCoinAddress",
          "type": "address"
        },
        {
          "internalType": "address",
          "name": "_pbPlayersAddress",
          "type": "address"
        },
        {
          "internalType": "uint256",
          "name": "_upgradeCost",
          "type": "uint256"
        }
      ],
      "stateMutability": "nonpayable",
      "type": "constructor"
    },
    {
      "anonymous": false,
      "inputs": [
        {
          "indexed": true,
          "internalType": "address",
          "name": "account",
          "type": "address"
        },
        {
          "indexed": true,
          "internalType": "address",
          "name": "operator",
          "type": "address"
        },
        {
          "indexed": false,
          "internalType": "bool",
          "name": "approved",
          "type": "bool"
        }
      ],
      "name": "ApprovalForAll",
      "type": "event"
    },
    {
      "anonymous": false,
      "inputs": [
        {
          "indexed": true,
          "internalType": "address",
          "name": "operator",
          "type": "address"
        },
        {
          "indexed": true,
          "internalType": "address",
          "name": "from",
          "type": "address"
        },
        {
          "indexed": true,
          "internalType": "address",
          "name": "to",
          "type": "address"
        },
        {
          "indexed": false,
          "internalType": "uint256[]",
          "name": "ids",
          "type": "uint256[]"
        },
        {
          "indexed": false,
          "internalType": "uint256[]",
          "name": "values",
          "type": "uint256[]"
        }
      ],
      "name": "TransferBatch",
      "type": "event"
    },
    {
      "anonymous": false,
      "inputs": [
        {
          "indexed": true,
          "internalType": "address",
          "name": "operator",
          "type": "address"
        },
        {
          "indexed": true,
          "internalType": "address",
          "name": "from",
          "type": "address"
        },
        {
          "indexed": true,
          "internalType": "address",
          "name": "to",
          "type": "address"
        },
        {
          "indexed": false,
          "internalType": "uint256",
          "name": "id",
          "type": "uint256"
        },
        {
          "indexed": false,
          "internalType": "uint256",
          "name": "value",
          "type": "uint256"
        }
      ],
      "name": "TransferSingle",
      "type": "event"
    },
    {
      "anonymous": false,
      "inputs": [
        {
          "indexed": false,
          "internalType": "string",
          "name": "value",
          "type": "string"
        },
        {
          "indexed": true,
          "internalType": "uint256",
          "name": "id",
          "type": "uint256"
        }
      ],
      "name": "URI",
      "type": "event"
    },
    {
      "inputs": [],
      "name": "PBXPTokenId",
      "outputs": [
        {
          "internalType": "uint256",
          "name": "",
          "type": "uint256"
        }
      ],
      "stateMutability": "view",
      "type": "function"
    },
    {
      "inputs": [],
      "name": "admin",
      "outputs": [
        {
          "internalType": "address",
          "name": "",
          "type": "address"
        }
      ],
      "stateMutability": "view",
      "type": "function"
    },
    {
      "inputs": [
        {
          "internalType": "address",
          "name": "account",
          "type": "address"
        },
        {
          "internalType": "uint256",
          "name": "id",
          "type": "uint256"
        }
      ],
      "name": "balanceOf",
      "outputs": [
        {
          "internalType": "uint256",
          "name": "",
          "type": "uint256"
        }
      ],
      "stateMutability": "view",
      "type": "function"
    },
    {
      "inputs": [
        {
          "internalType": "address[]",
          "name": "accounts",
          "type": "address[]"
        },
        {
          "internalType": "uint256[]",
          "name": "ids",
          "type": "uint256[]"
        }
      ],
      "name": "balanceOfBatch",
      "outputs": [
        {
          "internalType": "uint256[]",
          "name": "",
          "type": "uint256[]"
        }
      ],
      "stateMutability": "view",
      "type": "function"
    },
    {
      "inputs": [],
      "name": "buddies",
      "outputs": [
        {
          "internalType": "contract IERC20",
          "name": "",
          "type": "address"
        }
      ],
      "stateMutability": "view",
      "type": "function"
    },
    {
      "inputs": [
        {
          "internalType": "address",
          "name": "account",
          "type": "address"
        },
        {
          "internalType": "address",
          "name": "operator",
          "type": "address"
        }
      ],
      "name": "isApprovedForAll",
      "outputs": [
        {
          "internalType": "bool",
          "name": "",
          "type": "bool"
        }
      ],
      "stateMutability": "view",
      "type": "function"
    },
    {
      "inputs": [],
      "name": "myTeamsContract",
      "outputs": [
        {
          "internalType": "contract IERC721",
          "name": "",
          "type": "address"
        }
      ],
      "stateMutability": "view",
      "type": "function"
    },
    {
      "inputs": [],
      "name": "pbPlayers",
      "outputs": [
        {
          "internalType": "contract PBPlayers",
          "name": "",
          "type": "address"
        }
      ],
      "stateMutability": "view",
      "type": "function"
    },
    {
      "inputs": [
        {
          "internalType": "address",
          "name": "from",
          "type": "address"
        },
        {
          "internalType": "address",
          "name": "to",
          "type": "address"
        },
        {
          "internalType": "uint256[]",
          "name": "ids",
          "type": "uint256[]"
        },
        {
          "internalType": "uint256[]",
          "name": "amounts",
          "type": "uint256[]"
        },
        {
          "internalType": "bytes",
          "name": "data",
          "type": "bytes"
        }
      ],
      "name": "safeBatchTransferFrom",
      "outputs": [],
      "stateMutability": "nonpayable",
      "type": "function"
    },
    {
      "inputs": [
        {
          "internalType": "address",
          "name": "from",
          "type": "address"
        },
        {
          "internalType": "address",
          "name": "to",
          "type": "address"
        },
        {
          "internalType": "uint256",
          "name": "id",
          "type": "uint256"
        },
        {
          "internalType": "uint256",
          "name": "amount",
          "type": "uint256"
        },
        {
          "internalType": "bytes",
          "name": "data",
          "type": "bytes"
        }
      ],
      "name": "safeTransferFrom",
      "outputs": [],
      "stateMutability": "nonpayable",
      "type": "function"
    },
    {
      "inputs": [
        {
          "internalType": "address",
          "name": "operator",
          "type": "address"
        },
        {
          "internalType": "bool",
          "name": "approved",
          "type": "bool"
        }
      ],
      "name": "setApprovalForAll",
      "outputs": [],
      "stateMutability": "nonpayable",
      "type": "function"
    },
    {
      "inputs": [
        {
          "internalType": "bytes4",
          "name": "interfaceId",
          "type": "bytes4"
        }
      ],
      "name": "supportsInterface",
      "outputs": [
        {
          "internalType": "bool",
          "name": "",
          "type": "bool"
        }
      ],
      "stateMutability": "view",
      "type": "function"
    },
    {
      "inputs": [
        {
          "internalType": "uint256",
          "name": "",
          "type": "uint256"
        }
      ],
      "name": "uri",
      "outputs": [
        {
          "internalType": "string",
          "name": "",
          "type": "string"
        }
      ],
      "stateMutability": "view",
      "type": "function"
    },
    {
      "inputs": [],
      "name": "isAdmin",
      "outputs": [
        {
          "internalType": "bool",
          "name": "",
          "type": "bool"
        }
      ],
      "stateMutability": "view",
      "type": "function"
    },
    {
      "inputs": [],
      "name": "getPBXPAddress",
      "outputs": [
        {
          "internalType": "address",
          "name": "",
          "type": "address"
        }
      ],
      "stateMutability": "view",
      "type": "function"
    },
    {
      "inputs": [
        {
          "internalType": "address",
          "name": "_buddiesCoinAddress",
          "type": "address"
        }
      ],
      "name": "updateBuddiesCoinAddress",
      "outputs": [],
      "stateMutability": "nonpayable",
      "type": "function"
    },
    {
      "inputs": [
        {
          "internalType": "uint256",
          "name": "_PBXPTokenId",
          "type": "uint256"
        }
      ],
      "name": "updatePBXPTokenId",
      "outputs": [],
      "stateMutability": "nonpayable",
      "type": "function"
    },
    {
      "inputs": [
        {
          "internalType": "address",
          "name": "_pbTeamsAddress",
          "type": "address"
        }
      ],
      "name": "updatePBTeamsAddress",
      "outputs": [],
      "stateMutability": "nonpayable",
      "type": "function"
    },
    {
      "inputs": [
        {
          "internalType": "address",
          "name": "_pbPlayersAddress",
          "type": "address"
        }
      ],
      "name": "updatePBPlayersAddress",
      "outputs": [],
      "stateMutability": "nonpayable",
      "type": "function"
    },
    {
      "inputs": [
        {
          "internalType": "address",
          "name": "_pbPvCAddress",
          "type": "address"
        }
      ],
      "name": "updatePBPvCAddress",
      "outputs": [],
      "stateMutability": "nonpayable",
      "type": "function"
    },
    {
      "inputs": [
        {
          "internalType": "address",
          "name": "_pbMatchupsAddress",
          "type": "address"
        }
      ],
      "name": "updatePBMatchupsAddress",
      "outputs": [],
      "stateMutability": "nonpayable",
      "type": "function"
    },
    {
      "inputs": [],
      "name": "getUpgradeCost",
      "outputs": [
        {
          "internalType": "uint256",
          "name": "",
          "type": "uint256"
        }
      ],
      "stateMutability": "view",
      "type": "function"
    },
    {
      "inputs": [
        {
          "internalType": "uint256",
          "name": "token",
          "type": "uint256"
        },
        {
          "internalType": "uint256",
          "name": "initalSupply",
          "type": "uint256"
        }
      ],
      "name": "newProduct",
      "outputs": [],
      "stateMutability": "nonpayable",
      "type": "function"
    },
    {
      "inputs": [
        {
          "internalType": "address",
          "name": "mintToAddress",
          "type": "address"
        },
        {
          "internalType": "uint256",
          "name": "qty",
          "type": "uint256"
        },
        {
          "internalType": "uint256",
          "name": "token",
          "type": "uint256"
        }
      ],
      "name": "newPBXPtoAddress",
      "outputs": [
        {
          "internalType": "uint256",
          "name": "",
          "type": "uint256"
        }
      ],
      "stateMutability": "nonpayable",
      "type": "function"
    },
    {
      "inputs": [
        {
          "internalType": "address",
          "name": "mintToAddress",
          "type": "address"
        }
      ],
      "name": "newTeamPBXP",
      "outputs": [
        {
          "internalType": "uint256",
          "name": "",
          "type": "uint256"
        }
      ],
      "stateMutability": "nonpayable",
      "type": "function"
    },
    {
      "inputs": [
        {
          "internalType": "address",
          "name": "owner",
          "type": "address"
        },
        {
          "internalType": "uint256",
          "name": "token",
          "type": "uint256"
        },
        {
          "internalType": "uint256",
          "name": "qty",
          "type": "uint256"
        }
      ],
      "name": "burnItems",
      "outputs": [],
      "stateMutability": "nonpayable",
      "type": "function"
    },
    {
      "inputs": [
        {
          "internalType": "address",
          "name": "earnerAddress",
          "type": "address"
        },
        {
          "internalType": "uint256",
          "name": "qty",
          "type": "uint256"
        }
      ],
      "name": "earnPBXP",
      "outputs": [],
      "stateMutability": "nonpayable",
      "type": "function"
    },
    {
      "inputs": [
        {
          "internalType": "uint256",
          "name": "tokenId",
          "type": "uint256"
        },
        {
          "internalType": "uint256",
          "name": "statType",
          "type": "uint256"
        },
        {
          "internalType": "uint256",
          "name": "qty",
          "type": "uint256"
        },
        {
          "internalType": "uint256",
          "name": "xp",
          "type": "uint256"
        }
      ],
      "name": "increaseStats",
      "outputs": [],
      "stateMutability": "nonpayable",
      "type": "function"
    }
  ],
  "bytecode": "0x608060405260006003553480156200001657600080fd5b50604051620046a8380380620046a883398181016040528101906200003c91906200022b565b604051806020016040528060008152506200005d816200013160201b60201c565b5033600460006101000a81548173ffffffffffffffffffffffffffffffffffffffff021916908373ffffffffffffffffffffffffffffffffffffffff16021790555082600d60006101000a81548173ffffffffffffffffffffffffffffffffffffffff021916908373ffffffffffffffffffffffffffffffffffffffff16021790555081600c60006101000a81548173ffffffffffffffffffffffffffffffffffffffff021916908373ffffffffffffffffffffffffffffffffffffffff1602179055508060088190555050505062000363565b8060029080519060200190620001499291906200014d565b5050565b8280546200015b90620002c5565b90600052602060002090601f0160209004810192826200017f5760008555620001cb565b82601f106200019a57805160ff1916838001178555620001cb565b82800160010185558215620001cb579182015b82811115620001ca578251825591602001919060010190620001ad565b5b509050620001da9190620001de565b5090565b5b80821115620001f9576000816000905550600101620001df565b5090565b6000815190506200020e816200032f565b92915050565b600081519050620002258162000349565b92915050565b6000806000606084860312156200024757620002466200032a565b5b60006200025786828701620001fd565b93505060206200026a86828701620001fd565b92505060406200027d8682870162000214565b9150509250925092565b600062000294826200029b565b9050919050565b600073ffffffffffffffffffffffffffffffffffffffff82169050919050565b6000819050919050565b60006002820490506001821680620002de57607f821691505b60208210811415620002f557620002f4620002fb565b5b50919050565b7f4e487b7100000000000000000000000000000000000000000000000000000000600052602260045260246000fd5b600080fd5b6200033a8162000287565b81146200034657600080fd5b50565b6200035481620002bb565b81146200036057600080fd5b50565b61433580620003736000396000f3fe608060405234801561001057600080fd5b50600436106101c35760003560e01c80636bf082da116100f9578063c43df89a11610097578063e985e9c511610071578063e985e9c5146104ee578063f242432a1461051e578063f7e7b2071461053a578063f851a44014610556576101c3565b8063c43df89a14610498578063c6545943146104b4578063d0ffcce3146104d0576101c3565b8063a22cb465116100d3578063a22cb46514610424578063a748de1b14610440578063a87b14f51461045c578063b6db75a01461047a576101c3565b80636bf082da146103bc57806376e4252c146103d85780639616cc9414610408576101c3565b8063408581a6116101665780634e1273f4116101405780634e1273f414610322578063502d949c146103525780635d632faf1461038257806363eaef5a1461039e576101c3565b8063408581a6146102cc5780634a594c12146102e85780634c97073c14610306576101c3565b8063120754d0116101a2578063120754d01461025857806329fe5ebc146102765780632eb2c2d6146102925780633775d177146102ae576101c3565b8062fdd58e146101c857806301ffc9a7146101f85780630e89341c14610228575b600080fd5b6101e260048036038101906101dd9190612f1d565b610574565b6040516101ef9190613886565b60405180910390f35b610212600480360381019061020d9190613028565b61063d565b60405161021f9190613618565b60405180910390f35b610242600480360381019061023d91906130b0565b61071f565b60405161024f9190613684565b60405180910390f35b6102606107b3565b60405161026d9190613886565b60405180910390f35b610290600480360381019061028b9190612cdd565b6107bd565b005b6102ac60048036038101906102a79190612d77565b610891565b005b6102b6610932565b6040516102c39190613886565b60405180910390f35b6102e660048036038101906102e191906130b0565b610938565b005b6102f06109d2565b6040516102fd9190613633565b60405180910390f35b610320600480360381019061031b9190612f5d565b6109f8565b005b61033c60048036038101906103379190612fb0565b610a98565b60405161034991906135bf565b60405180910390f35b61036c60048036038101906103679190612f5d565b610bb1565b6040516103799190613886565b60405180910390f35b61039c60048036038101906103979190612cdd565b610c77565b005b6103a6610d4b565b6040516103b39190613669565b60405180910390f35b6103d660048036038101906103d19190612cdd565b610d71565b005b6103f260048036038101906103ed9190612cdd565b610e45565b6040516103ff9190613886565b60405180910390f35b610422600480360381019061041d9190612cdd565b610f19565b005b61043e60048036038101906104399190612edd565b610fed565b005b61045a600480360381019061045591906130dd565b61116e565b005b61046461121d565b604051610471919061364e565b60405180910390f35b610482611243565b60405161048f9190613618565b60405180910390f35b6104b260048036038101906104ad9190612f1d565b6112ac565b005b6104ce60048036038101906104c99190612cdd565b6113d7565b005b6104d86114ab565b6040516104e591906134e2565b60405180910390f35b61050860048036038101906105039190612d37565b6114b3565b6040516105159190613618565b60405180910390f35b61053860048036038101906105339190612e46565b611547565b005b610554600480360381019061054f919061311d565b6115e8565b005b61055e611b38565b60405161056b91906134e2565b60405180910390f35b60008073ffffffffffffffffffffffffffffffffffffffff168373ffffffffffffffffffffffffffffffffffffffff1614156105e5576040517f08c379a00000000000000000000000000000000000000000000000000000000081526004016105dc906136e6565b60405180910390fd5b60008083815260200190815260200160002060008473ffffffffffffffffffffffffffffffffffffffff1673ffffffffffffffffffffffffffffffffffffffff16815260200190815260200160002054905092915050565b60007fd9b67a26000000000000000000000000000000000000000000000000000000007bffffffffffffffffffffffffffffffffffffffffffffffffffffffff1916827bffffffffffffffffffffffffffffffffffffffffffffffffffffffff1916148061070857507f0e89341c000000000000000000000000000000000000000000000000000000007bffffffffffffffffffffffffffffffffffffffffffffffffffffffff1916827bffffffffffffffffffffffffffffffffffffffffffffffffffffffff1916145b80610718575061071782611b5e565b5b9050919050565b60606002805461072e90613bf2565b80601f016020809104026020016040519081016040528092919081815260200182805461075a90613bf2565b80156107a75780601f1061077c576101008083540402835291602001916107a7565b820191906000526020600020905b81548152906001019060200180831161078a57829003601f168201915b50505050509050919050565b6000600854905090565b600460009054906101000a900473ffffffffffffffffffffffffffffffffffffffff1673ffffffffffffffffffffffffffffffffffffffff163373ffffffffffffffffffffffffffffffffffffffff161461084d576040517f08c379a000000000000000000000000000000000000000000000000000000000815260040161084490613766565b60405180910390fd5b80600660006101000a81548173ffffffffffffffffffffffffffffffffffffffff021916908373ffffffffffffffffffffffffffffffffffffffff16021790555050565b610899611bc8565b73ffffffffffffffffffffffffffffffffffffffff168573ffffffffffffffffffffffffffffffffffffffff1614806108df57506108de856108d9611bc8565b6114b3565b5b61091e576040517f08c379a0000000000000000000000000000000000000000000000000000000008152600401610915906137a6565b60405180910390fd5b61092b8585858585611bd0565b5050505050565b60035481565b600460009054906101000a900473ffffffffffffffffffffffffffffffffffffffff1673ffffffffffffffffffffffffffffffffffffffff163373ffffffffffffffffffffffffffffffffffffffff16146109c8576040517f08c379a00000000000000000000000000000000000000000000000000000000081526004016109bf90613766565b60405180910390fd5b8060038190555050565b600d60009054906101000a900473ffffffffffffffffffffffffffffffffffffffff1681565b600460009054906101000a900473ffffffffffffffffffffffffffffffffffffffff1673ffffffffffffffffffffffffffffffffffffffff163373ffffffffffffffffffffffffffffffffffffffff1614610a88576040517f08c379a0000000000000000000000000000000000000000000000000000000008152600401610a7f90613766565b60405180910390fd5b610a93838383611ee4565b505050565b60608151835114610ade576040517f08c379a0000000000000000000000000000000000000000000000000000000008152600401610ad590613826565b60405180910390fd5b6000835167ffffffffffffffff811115610afb57610afa613d2b565b5b604051908082528060200260200182016040528015610b295781602001602082028036833780820191505090505b50905060005b8451811015610ba657610b76858281518110610b4e57610b4d613cfc565b5b6020026020010151858381518110610b6957610b68613cfc565b5b6020026020010151610574565b828281518110610b8957610b88613cfc565b5b60200260200101818152505080610b9f90613c55565b9050610b2f565b508091505092915050565b6000600460009054906101000a900473ffffffffffffffffffffffffffffffffffffffff1673ffffffffffffffffffffffffffffffffffffffff163373ffffffffffffffffffffffffffffffffffffffff1614610c43576040517f08c379a0000000000000000000000000000000000000000000000000000000008152600401610c3a90613766565b60405180910390fd5b610c5e84838560405180602001604052806000815250612101565b6000610c6a8584610574565b9050809150509392505050565b600460009054906101000a900473ffffffffffffffffffffffffffffffffffffffff1673ffffffffffffffffffffffffffffffffffffffff163373ffffffffffffffffffffffffffffffffffffffff1614610d07576040517f08c379a0000000000000000000000000000000000000000000000000000000008152600401610cfe90613766565b60405180910390fd5b80600d60006101000a81548173ffffffffffffffffffffffffffffffffffffffff021916908373ffffffffffffffffffffffffffffffffffffffff16021790555050565b600c60009054906101000a900473ffffffffffffffffffffffffffffffffffffffff1681565b600460009054906101000a900473ffffffffffffffffffffffffffffffffffffffff1673ffffffffffffffffffffffffffffffffffffffff163373ffffffffffffffffffffffffffffffffffffffff1614610e01576040517f08c379a0000000000000000000000000000000000000000000000000000000008152600401610df890613766565b60405180910390fd5b80600560006101000a81548173ffffffffffffffffffffffffffffffffffffffff021916908373ffffffffffffffffffffffffffffffffffffffff16021790555050565b6000600560009054906101000a900473ffffffffffffffffffffffffffffffffffffffff1673ffffffffffffffffffffffffffffffffffffffff163373ffffffffffffffffffffffffffffffffffffffff1614610ed7576040517f08c379a0000000000000000000000000000000000000000000000000000000008152600401610ece90613726565b60405180910390fd5b610f018260006002600854610eec9190613a76565b60405180602001604052806000815250612101565b6000610f0e836000610574565b905080915050919050565b600460009054906101000a900473ffffffffffffffffffffffffffffffffffffffff1673ffffffffffffffffffffffffffffffffffffffff163373ffffffffffffffffffffffffffffffffffffffff1614610fa9576040517f08c379a0000000000000000000000000000000000000000000000000000000008152600401610fa090613766565b60405180910390fd5b80600c60006101000a81548173ffffffffffffffffffffffffffffffffffffffff021916908373ffffffffffffffffffffffffffffffffffffffff16021790555050565b8173ffffffffffffffffffffffffffffffffffffffff1661100c611bc8565b73ffffffffffffffffffffffffffffffffffffffff161415611063576040517f08c379a000000000000000000000000000000000000000000000000000000000815260040161105a90613806565b60405180910390fd5b8060016000611070611bc8565b73ffffffffffffffffffffffffffffffffffffffff1673ffffffffffffffffffffffffffffffffffffffff16815260200190815260200160002060008473ffffffffffffffffffffffffffffffffffffffff1673ffffffffffffffffffffffffffffffffffffffff16815260200190815260200160002060006101000a81548160ff0219169083151502179055508173ffffffffffffffffffffffffffffffffffffffff1661111d611bc8565b73ffffffffffffffffffffffffffffffffffffffff167f17307eab39ab6107e8899845ad3d59bd9653f200f220920489ca2b5937696c31836040516111629190613618565b60405180910390a35050565b600460009054906101000a900473ffffffffffffffffffffffffffffffffffffffff1673ffffffffffffffffffffffffffffffffffffffff163373ffffffffffffffffffffffffffffffffffffffff16146111fe576040517f08c379a00000000000000000000000000000000000000000000000000000000081526004016111f590613766565b60405180910390fd5b61121933838360405180602001604052806000815250612101565b5050565b600b60009054906101000a900473ffffffffffffffffffffffffffffffffffffffff1681565b60003373ffffffffffffffffffffffffffffffffffffffff16600460009054906101000a900473ffffffffffffffffffffffffffffffffffffffff1673ffffffffffffffffffffffffffffffffffffffff1614156112a457600190506112a9565b600090505b90565b600560009054906101000a900473ffffffffffffffffffffffffffffffffffffffff1673ffffffffffffffffffffffffffffffffffffffff163373ffffffffffffffffffffffffffffffffffffffff1614806113555750600660009054906101000a900473ffffffffffffffffffffffffffffffffffffffff1673ffffffffffffffffffffffffffffffffffffffff163373ffffffffffffffffffffffffffffffffffffffff16145b806113ad5750600760009054906101000a900473ffffffffffffffffffffffffffffffffffffffff1673ffffffffffffffffffffffffffffffffffffffff163373ffffffffffffffffffffffffffffffffffffffff16145b6113b657600080fd5b6113d3826003548360405180602001604052806000815250612101565b5050565b600460009054906101000a900473ffffffffffffffffffffffffffffffffffffffff1673ffffffffffffffffffffffffffffffffffffffff163373ffffffffffffffffffffffffffffffffffffffff1614611467576040517f08c379a000000000000000000000000000000000000000000000000000000000815260040161145e90613766565b60405180910390fd5b80600760006101000a81548173ffffffffffffffffffffffffffffffffffffffff021916908373ffffffffffffffffffffffffffffffffffffffff16021790555050565b600030905090565b6000600160008473ffffffffffffffffffffffffffffffffffffffff1673ffffffffffffffffffffffffffffffffffffffff16815260200190815260200160002060008373ffffffffffffffffffffffffffffffffffffffff1673ffffffffffffffffffffffffffffffffffffffff16815260200190815260200160002060009054906101000a900460ff16905092915050565b61154f611bc8565b73ffffffffffffffffffffffffffffffffffffffff168573ffffffffffffffffffffffffffffffffffffffff16148061159557506115948561158f611bc8565b6114b3565b5b6115d4576040517f08c379a00000000000000000000000000000000000000000000000000000000081526004016115cb90613746565b60405180910390fd5b6115e18585858585612297565b5050505050565b816008546115f69190613a76565b811461160157600080fd5b8061160d336000610574565b101561161857600080fd5b42600c60009054906101000a900473ffffffffffffffffffffffffffffffffffffffff1673ffffffffffffffffffffffffffffffffffffffff1663c1e03728866040518263ffffffff1660e01b81526004016116749190613886565b6101806040518083038186803b15801561168d57600080fd5b505afa1580156116a1573d6000803e3d6000fd5b505050506040513d601f19601f820116820180604052508101906116c59190613082565b6101000151116116d457600080fd5b3373ffffffffffffffffffffffffffffffffffffffff16600c60009054906101000a900473ffffffffffffffffffffffffffffffffffffffff1673ffffffffffffffffffffffffffffffffffffffff16636352211e866040518263ffffffff1660e01b81526004016117469190613886565b60206040518083038186803b15801561175e57600080fd5b505afa158015611772573d6000803e3d6000fd5b505050506040513d601f19601f820116820180604052508101906117969190612d0a565b73ffffffffffffffffffffffffffffffffffffffff16146117b657600080fd5b60018314156119ce576003600c60009054906101000a900473ffffffffffffffffffffffffffffffffffffffff1673ffffffffffffffffffffffffffffffffffffffff1663c1e03728866040518263ffffffff1660e01b815260040161181c9190613886565b6101806040518083038186803b15801561183557600080fd5b505afa158015611849573d6000803e3d6000fd5b505050506040513d601f19601f8201168201806040525081019061186d9190613082565b60600151141561187c57600080fd5b6063600c60009054906101000a900473ffffffffffffffffffffffffffffffffffffffff1673ffffffffffffffffffffffffffffffffffffffff1663c1e03728866040518263ffffffff1660e01b81526004016118d99190613886565b6101806040518083038186803b1580156118f257600080fd5b505afa158015611906573d6000803e3d6000fd5b505050506040513d601f19601f8201168201806040525081019061192a9190613082565b600001511061193857600080fd5b600c60009054906101000a900473ffffffffffffffffffffffffffffffffffffffff1673ffffffffffffffffffffffffffffffffffffffff1663efe6e41c8584336040518463ffffffff1660e01b8152600401611997939291906138ca565b600060405180830381600087803b1580156119b157600080fd5b505af11580156119c5573d6000803e3d6000fd5b50505050611b26565b6002831415611b25576063600c60009054906101000a900473ffffffffffffffffffffffffffffffffffffffff1673ffffffffffffffffffffffffffffffffffffffff1663c1e03728866040518263ffffffff1660e01b8152600401611a349190613886565b6101806040518083038186803b158015611a4d57600080fd5b505afa158015611a61573d6000803e3d6000fd5b505050506040513d601f19601f82011682018060405250810190611a859190613082565b6020015110611a9357600080fd5b600c60009054906101000a900473ffffffffffffffffffffffffffffffffffffffff1673ffffffffffffffffffffffffffffffffffffffff1663f0258a788584336040518463ffffffff1660e01b8152600401611af2939291906138ca565b600060405180830381600087803b158015611b0c57600080fd5b505af1158015611b20573d6000803e3d6000fd5b505050505b5b611b3233600083611ee4565b50505050565b600460009054906101000a900473ffffffffffffffffffffffffffffffffffffffff1681565b60007f01ffc9a7000000000000000000000000000000000000000000000000000000007bffffffffffffffffffffffffffffffffffffffffffffffffffffffff1916827bffffffffffffffffffffffffffffffffffffffffffffffffffffffff1916149050919050565b600033905090565b8151835114611c14576040517f08c379a0000000000000000000000000000000000000000000000000000000008152600401611c0b90613846565b60405180910390fd5b600073ffffffffffffffffffffffffffffffffffffffff168473ffffffffffffffffffffffffffffffffffffffff161415611c84576040517f08c379a0000000000000000000000000000000000000000000000000000000008152600401611c7b90613786565b60405180910390fd5b6000611c8e611bc8565b9050611c9e818787878787612519565b60005b8451811015611e4f576000858281518110611cbf57611cbe613cfc565b5b602002602001015190506000858381518110611cde57611cdd613cfc565b5b60200260200101519050600080600084815260200190815260200160002060008b73ffffffffffffffffffffffffffffffffffffffff1673ffffffffffffffffffffffffffffffffffffffff16815260200190815260200160002054905081811015611d7f576040517f08c379a0000000000000000000000000000000000000000000000000000000008152600401611d76906137e6565b60405180910390fd5b81810360008085815260200190815260200160002060008c73ffffffffffffffffffffffffffffffffffffffff1673ffffffffffffffffffffffffffffffffffffffff168152602001908152602001600020819055508160008085815260200190815260200160002060008b73ffffffffffffffffffffffffffffffffffffffff1673ffffffffffffffffffffffffffffffffffffffff1681526020019081526020016000206000828254611e349190613a20565b9250508190555050505080611e4890613c55565b9050611ca1565b508473ffffffffffffffffffffffffffffffffffffffff168673ffffffffffffffffffffffffffffffffffffffff168273ffffffffffffffffffffffffffffffffffffffff167f4a39dc06d4c0dbc64b70af90fd698a233a518aa5d07e595d983b8c0526c8f7fb8787604051611ec69291906135e1565b60405180910390a4611edc818787878787612521565b505050505050565b600073ffffffffffffffffffffffffffffffffffffffff168373ffffffffffffffffffffffffffffffffffffffff161415611f54576040517f08c379a0000000000000000000000000000000000000000000000000000000008152600401611f4b906137c6565b60405180910390fd5b6000611f5e611bc8565b9050611f8e81856000611f7087612708565b611f7987612708565b60405180602001604052806000815250612519565b600080600085815260200190815260200160002060008673ffffffffffffffffffffffffffffffffffffffff1673ffffffffffffffffffffffffffffffffffffffff16815260200190815260200160002054905082811015612025576040517f08c379a000000000000000000000000000000000000000000000000000000000815260040161201c90613706565b60405180910390fd5b82810360008086815260200190815260200160002060008773ffffffffffffffffffffffffffffffffffffffff1673ffffffffffffffffffffffffffffffffffffffff16815260200190815260200160002081905550600073ffffffffffffffffffffffffffffffffffffffff168573ffffffffffffffffffffffffffffffffffffffff168373ffffffffffffffffffffffffffffffffffffffff167fc3d58168c5ae7397731d063d5bbf3d657854427343f4c083240f7aacaa2d0f6287876040516120f29291906138a1565b60405180910390a45050505050565b600073ffffffffffffffffffffffffffffffffffffffff168473ffffffffffffffffffffffffffffffffffffffff161415612171576040517f08c379a000000000000000000000000000000000000000000000000000000000815260040161216890613866565b60405180910390fd5b600061217b611bc8565b905061219c8160008761218d88612708565b61219688612708565b87612519565b8260008086815260200190815260200160002060008773ffffffffffffffffffffffffffffffffffffffff1673ffffffffffffffffffffffffffffffffffffffff16815260200190815260200160002060008282546121fb9190613a20565b925050819055508473ffffffffffffffffffffffffffffffffffffffff16600073ffffffffffffffffffffffffffffffffffffffff168273ffffffffffffffffffffffffffffffffffffffff167fc3d58168c5ae7397731d063d5bbf3d657854427343f4c083240f7aacaa2d0f6287876040516122799291906138a1565b60405180910390a461229081600087878787612782565b5050505050565b600073ffffffffffffffffffffffffffffffffffffffff168473ffffffffffffffffffffffffffffffffffffffff161415612307576040517f08c379a00000000000000000000000000000000000000000000000000000000081526004016122fe90613786565b60405180910390fd5b6000612311611bc8565b905061233181878761232288612708565b61232b88612708565b87612519565b600080600086815260200190815260200160002060008873ffffffffffffffffffffffffffffffffffffffff1673ffffffffffffffffffffffffffffffffffffffff168152602001908152602001600020549050838110156123c8576040517f08c379a00000000000000000000000000000000000000000000000000000000081526004016123bf906137e6565b60405180910390fd5b83810360008087815260200190815260200160002060008973ffffffffffffffffffffffffffffffffffffffff1673ffffffffffffffffffffffffffffffffffffffff168152602001908152602001600020819055508360008087815260200190815260200160002060008873ffffffffffffffffffffffffffffffffffffffff1673ffffffffffffffffffffffffffffffffffffffff168152602001908152602001600020600082825461247d9190613a20565b925050819055508573ffffffffffffffffffffffffffffffffffffffff168773ffffffffffffffffffffffffffffffffffffffff168373ffffffffffffffffffffffffffffffffffffffff167fc3d58168c5ae7397731d063d5bbf3d657854427343f4c083240f7aacaa2d0f6288886040516124fa9291906138a1565b60405180910390a4612510828888888888612782565b50505050505050565b505050505050565b6125408473ffffffffffffffffffffffffffffffffffffffff16612969565b15612700578373ffffffffffffffffffffffffffffffffffffffff1663bc197c8187878686866040518663ffffffff1660e01b81526004016125869594939291906134fd565b602060405180830381600087803b1580156125a057600080fd5b505af19250505080156125d157506040513d601f19601f820116820180604052508101906125ce9190613055565b60015b612677576125dd613d5a565b806308c379a0141561263a57506125f261420d565b806125fd575061263c565b806040517f08c379a00000000000000000000000000000000000000000000000000000000081526004016126319190613684565b60405180910390fd5b505b6040517f08c379a000000000000000000000000000000000000000000000000000000000815260040161266e906136a6565b60405180910390fd5b63bc197c8160e01b7bffffffffffffffffffffffffffffffffffffffffffffffffffffffff1916817bffffffffffffffffffffffffffffffffffffffffffffffffffffffff1916146126fe576040517f08c379a00000000000000000000000000000000000000000000000000000000081526004016126f5906136c6565b60405180910390fd5b505b505050505050565b60606000600167ffffffffffffffff81111561272757612726613d2b565b5b6040519080825280602002602001820160405280156127555781602001602082028036833780820191505090505b509050828160008151811061276d5761276c613cfc565b5b60200260200101818152505080915050919050565b6127a18473ffffffffffffffffffffffffffffffffffffffff16612969565b15612961578373ffffffffffffffffffffffffffffffffffffffff1663f23a6e6187878686866040518663ffffffff1660e01b81526004016127e7959493929190613565565b602060405180830381600087803b15801561280157600080fd5b505af192505050801561283257506040513d601f19601f8201168201806040525081019061282f9190613055565b60015b6128d85761283e613d5a565b806308c379a0141561289b575061285361420d565b8061285e575061289d565b806040517f08c379a00000000000000000000000000000000000000000000000000000000081526004016128929190613684565b60405180910390fd5b505b6040517f08c379a00000000000000000000000000000000000000000000000000000000081526004016128cf906136a6565b60405180910390fd5b63f23a6e6160e01b7bffffffffffffffffffffffffffffffffffffffffffffffffffffffff1916817bffffffffffffffffffffffffffffffffffffffffffffffffffffffff19161461295f576040517f08c379a0000000000000000000000000000000000000000000000000000000008152600401612956906136c6565b60405180910390fd5b505b505050505050565b600080823b905060008111915050919050565b600061298f61298a84613926565b613901565b905080838252602082019050828560208602820111156129b2576129b1613d86565b5b60005b858110156129e257816129c88882612a9e565b8452602084019350602083019250506001810190506129b5565b5050509392505050565b60006129ff6129fa84613952565b613901565b90508083825260208201905082856020860282011115612a2257612a21613d86565b5b60005b85811015612a525781612a388882612cb3565b845260208401935060208301925050600181019050612a25565b5050509392505050565b6000612a6f612a6a8461397e565b613901565b905082815260208101848484011115612a8b57612a8a613d8b565b5b612a96848285613bb0565b509392505050565b600081359050612aad816142a3565b92915050565b600081519050612ac2816142a3565b92915050565b600082601f830112612add57612adc613d7c565b5b8135612aed84826020860161297c565b91505092915050565b600082601f830112612b0b57612b0a613d7c565b5b8135612b1b8482602086016129ec565b91505092915050565b600081359050612b33816142ba565b92915050565b600081359050612b48816142d1565b92915050565b600081519050612b5d816142d1565b92915050565b600082601f830112612b7857612b77613d7c565b5b8135612b88848260208601612a5c565b91505092915050565b60006101808284031215612ba857612ba7613d81565b5b612bb3610180613901565b90506000612bc384828501612cc8565b6000830152506020612bd784828501612cc8565b6020830152506040612beb84828501612cc8565b6040830152506060612bff84828501612cc8565b6060830152506080612c1384828501612cc8565b60808301525060a0612c2784828501612cc8565b60a08301525060c0612c3b84828501612cc8565b60c08301525060e0612c4f84828501612cc8565b60e083015250610100612c6484828501612cc8565b61010083015250610120612c7a84828501612cc8565b61012083015250610140612c9084828501612cc8565b61014083015250610160612ca684828501612cc8565b6101608301525092915050565b600081359050612cc2816142e8565b92915050565b600081519050612cd7816142e8565b92915050565b600060208284031215612cf357612cf2613d95565b5b6000612d0184828501612a9e565b91505092915050565b600060208284031215612d2057612d1f613d95565b5b6000612d2e84828501612ab3565b91505092915050565b60008060408385031215612d4e57612d4d613d95565b5b6000612d5c85828601612a9e565b9250506020612d6d85828601612a9e565b9150509250929050565b600080600080600060a08688031215612d9357612d92613d95565b5b6000612da188828901612a9e565b9550506020612db288828901612a9e565b945050604086013567ffffffffffffffff811115612dd357612dd2613d90565b5b612ddf88828901612af6565b935050606086013567ffffffffffffffff811115612e0057612dff613d90565b5b612e0c88828901612af6565b925050608086013567ffffffffffffffff811115612e2d57612e2c613d90565b5b612e3988828901612b63565b9150509295509295909350565b600080600080600060a08688031215612e6257612e61613d95565b5b6000612e7088828901612a9e565b9550506020612e8188828901612a9e565b9450506040612e9288828901612cb3565b9350506060612ea388828901612cb3565b925050608086013567ffffffffffffffff811115612ec457612ec3613d90565b5b612ed088828901612b63565b9150509295509295909350565b60008060408385031215612ef457612ef3613d95565b5b6000612f0285828601612a9e565b9250506020612f1385828601612b24565b9150509250929050565b60008060408385031215612f3457612f33613d95565b5b6000612f4285828601612a9e565b9250506020612f5385828601612cb3565b9150509250929050565b600080600060608486031215612f7657612f75613d95565b5b6000612f8486828701612a9e565b9350506020612f9586828701612cb3565b9250506040612fa686828701612cb3565b9150509250925092565b60008060408385031215612fc757612fc6613d95565b5b600083013567ffffffffffffffff811115612fe557612fe4613d90565b5b612ff185828601612ac8565b925050602083013567ffffffffffffffff81111561301257613011613d90565b5b61301e85828601612af6565b9150509250929050565b60006020828403121561303e5761303d613d95565b5b600061304c84828501612b39565b91505092915050565b60006020828403121561306b5761306a613d95565b5b600061307984828501612b4e565b91505092915050565b6000610180828403121561309957613098613d95565b5b60006130a784828501612b91565b91505092915050565b6000602082840312156130c6576130c5613d95565b5b60006130d484828501612cb3565b91505092915050565b600080604083850312156130f4576130f3613d95565b5b600061310285828601612cb3565b925050602061311385828601612cb3565b9150509250929050565b6000806000806080858703121561313757613136613d95565b5b600061314587828801612cb3565b945050602061315687828801612cb3565b935050604061316787828801612cb3565b925050606061317887828801612cb3565b91505092959194509250565b600061319083836134c4565b60208301905092915050565b6131a581613ad0565b82525050565b60006131b6826139bf565b6131c081856139ed565b93506131cb836139af565b8060005b838110156131fc5781516131e38882613184565b97506131ee836139e0565b9250506001810190506131cf565b5085935050505092915050565b61321281613ae2565b82525050565b6000613223826139ca565b61322d81856139fe565b935061323d818560208601613bbf565b61324681613d9a565b840191505092915050565b61325a81613b44565b82525050565b61326981613b68565b82525050565b61327881613b8c565b82525050565b6000613289826139d5565b6132938185613a0f565b93506132a3818560208601613bbf565b6132ac81613d9a565b840191505092915050565b60006132c4603483613a0f565b91506132cf82613db8565b604082019050919050565b60006132e7602883613a0f565b91506132f282613e07565b604082019050919050565b600061330a602b83613a0f565b915061331582613e56565b604082019050919050565b600061332d602483613a0f565b915061333882613ea5565b604082019050919050565b6000613350600283613a0f565b915061335b82613ef4565b602082019050919050565b6000613373602983613a0f565b915061337e82613f1d565b604082019050919050565b6000613396600283613a0f565b91506133a182613f6c565b602082019050919050565b60006133b9602583613a0f565b91506133c482613f95565b604082019050919050565b60006133dc603283613a0f565b91506133e782613fe4565b604082019050919050565b60006133ff602383613a0f565b915061340a82614033565b604082019050919050565b6000613422602a83613a0f565b915061342d82614082565b604082019050919050565b6000613445602983613a0f565b9150613450826140d1565b604082019050919050565b6000613468602983613a0f565b915061347382614120565b604082019050919050565b600061348b602883613a0f565b91506134968261416f565b604082019050919050565b60006134ae602183613a0f565b91506134b9826141be565b604082019050919050565b6134cd81613b3a565b82525050565b6134dc81613b3a565b82525050565b60006020820190506134f7600083018461319c565b92915050565b600060a082019050613512600083018861319c565b61351f602083018761319c565b818103604083015261353181866131ab565b9050818103606083015261354581856131ab565b905081810360808301526135598184613218565b90509695505050505050565b600060a08201905061357a600083018861319c565b613587602083018761319c565b61359460408301866134d3565b6135a160608301856134d3565b81810360808301526135b38184613218565b90509695505050505050565b600060208201905081810360008301526135d981846131ab565b905092915050565b600060408201905081810360008301526135fb81856131ab565b9050818103602083015261360f81846131ab565b90509392505050565b600060208201905061362d6000830184613209565b92915050565b60006020820190506136486000830184613251565b92915050565b60006020820190506136636000830184613260565b92915050565b600060208201905061367e600083018461326f565b92915050565b6000602082019050818103600083015261369e818461327e565b905092915050565b600060208201905081810360008301526136bf816132b7565b9050919050565b600060208201905081810360008301526136df816132da565b9050919050565b600060208201905081810360008301526136ff816132fd565b9050919050565b6000602082019050818103600083015261371f81613320565b9050919050565b6000602082019050818103600083015261373f81613343565b9050919050565b6000602082019050818103600083015261375f81613366565b9050919050565b6000602082019050818103600083015261377f81613389565b9050919050565b6000602082019050818103600083015261379f816133ac565b9050919050565b600060208201905081810360008301526137bf816133cf565b9050919050565b600060208201905081810360008301526137df816133f2565b9050919050565b600060208201905081810360008301526137ff81613415565b9050919050565b6000602082019050818103600083015261381f81613438565b9050919050565b6000602082019050818103600083015261383f8161345b565b9050919050565b6000602082019050818103600083015261385f8161347e565b9050919050565b6000602082019050818103600083015261387f816134a1565b9050919050565b600060208201905061389b60008301846134d3565b92915050565b60006040820190506138b660008301856134d3565b6138c360208301846134d3565b9392505050565b60006060820190506138df60008301866134d3565b6138ec60208301856134d3565b6138f9604083018461319c565b949350505050565b600061390b61391c565b90506139178282613c24565b919050565b6000604051905090565b600067ffffffffffffffff82111561394157613940613d2b565b5b602082029050602081019050919050565b600067ffffffffffffffff82111561396d5761396c613d2b565b5b602082029050602081019050919050565b600067ffffffffffffffff82111561399957613998613d2b565b5b6139a282613d9a565b9050602081019050919050565b6000819050602082019050919050565b600081519050919050565b600081519050919050565b600081519050919050565b6000602082019050919050565b600082825260208201905092915050565b600082825260208201905092915050565b600082825260208201905092915050565b6000613a2b82613b3a565b9150613a3683613b3a565b9250827fffffffffffffffffffffffffffffffffffffffffffffffffffffffffffffffff03821115613a6b57613a6a613c9e565b5b828201905092915050565b6000613a8182613b3a565b9150613a8c83613b3a565b9250817fffffffffffffffffffffffffffffffffffffffffffffffffffffffffffffffff0483118215151615613ac557613ac4613c9e565b5b828202905092915050565b6000613adb82613b1a565b9050919050565b60008115159050919050565b60007fffffffff0000000000000000000000000000000000000000000000000000000082169050919050565b600073ffffffffffffffffffffffffffffffffffffffff82169050919050565b6000819050919050565b6000613b4f82613b56565b9050919050565b6000613b6182613b1a565b9050919050565b6000613b7382613b7a565b9050919050565b6000613b8582613b1a565b9050919050565b6000613b9782613b9e565b9050919050565b6000613ba982613b1a565b9050919050565b82818337600083830152505050565b60005b83811015613bdd578082015181840152602081019050613bc2565b83811115613bec576000848401525b50505050565b60006002820490506001821680613c0a57607f821691505b60208210811415613c1e57613c1d613ccd565b5b50919050565b613c2d82613d9a565b810181811067ffffffffffffffff82111715613c4c57613c4b613d2b565b5b80604052505050565b6000613c6082613b3a565b91507fffffffffffffffffffffffffffffffffffffffffffffffffffffffffffffffff821415613c9357613c92613c9e565b5b600182019050919050565b7f4e487b7100000000000000000000000000000000000000000000000000000000600052601160045260246000fd5b7f4e487b7100000000000000000000000000000000000000000000000000000000600052602260045260246000fd5b7f4e487b7100000000000000000000000000000000000000000000000000000000600052603260045260246000fd5b7f4e487b7100000000000000000000000000000000000000000000000000000000600052604160045260246000fd5b600060033d1115613d795760046000803e613d76600051613dab565b90505b90565b600080fd5b600080fd5b600080fd5b600080fd5b600080fd5b600080fd5b6000601f19601f8301169050919050565b60008160e01c9050919050565b7f455243313135353a207472616e7366657220746f206e6f6e204552433131353560008201527f526563656976657220696d706c656d656e746572000000000000000000000000602082015250565b7f455243313135353a204552433131353552656365697665722072656a6563746560008201527f6420746f6b656e73000000000000000000000000000000000000000000000000602082015250565b7f455243313135353a2062616c616e636520717565727920666f7220746865207a60008201527f65726f2061646472657373000000000000000000000000000000000000000000602082015250565b7f455243313135353a206275726e20616d6f756e7420657863656564732062616c60008201527f616e636500000000000000000000000000000000000000000000000000000000602082015250565b7f5431000000000000000000000000000000000000000000000000000000000000600082015250565b7f455243313135353a2063616c6c6572206973206e6f74206f776e6572206e6f7260008201527f20617070726f7665640000000000000000000000000000000000000000000000602082015250565b7f4131000000000000000000000000000000000000000000000000000000000000600082015250565b7f455243313135353a207472616e7366657220746f20746865207a65726f20616460008201527f6472657373000000000000000000000000000000000000000000000000000000602082015250565b7f455243313135353a207472616e736665722063616c6c6572206973206e6f742060008201527f6f776e6572206e6f7220617070726f7665640000000000000000000000000000602082015250565b7f455243313135353a206275726e2066726f6d20746865207a65726f206164647260008201527f6573730000000000000000000000000000000000000000000000000000000000602082015250565b7f455243313135353a20696e73756666696369656e742062616c616e636520666f60008201527f72207472616e7366657200000000000000000000000000000000000000000000602082015250565b7f455243313135353a2073657474696e6720617070726f76616c2073746174757360008201527f20666f722073656c660000000000000000000000000000000000000000000000602082015250565b7f455243313135353a206163636f756e747320616e6420696473206c656e67746860008201527f206d69736d617463680000000000000000000000000000000000000000000000602082015250565b7f455243313135353a2069647320616e6420616d6f756e7473206c656e6774682060008201527f6d69736d61746368000000000000000000000000000000000000000000000000602082015250565b7f455243313135353a206d696e7420746f20746865207a65726f2061646472657360008201527f7300000000000000000000000000000000000000000000000000000000000000602082015250565b600060443d101561421d576142a0565b61422561391c565b60043d036004823e80513d602482011167ffffffffffffffff8211171561424d5750506142a0565b808201805167ffffffffffffffff81111561426b57505050506142a0565b80602083010160043d0385018111156142885750505050506142a0565b61429782602001850186613c24565b82955050505050505b90565b6142ac81613ad0565b81146142b757600080fd5b50565b6142c381613ae2565b81146142ce57600080fd5b50565b6142da81613aee565b81146142e557600080fd5b50565b6142f181613b3a565b81146142fc57600080fd5b5056fea2646970667358221220ec8f1f66c76115794b13e47f9185661f542f230b558f211783026e0a1549918264736f6c63430008060033",
  "immutableReferences": {},
  "source": "// SPDX-License-Identifier: MIT\r\npragma solidity >=0.4.22 <0.9.0;\r\n\r\nimport \"../node_modules/@openzeppelin/contracts/token/ERC20/IERC20.sol\";\r\nimport \"../node_modules/@openzeppelin/contracts/token/ERC721/IERC721.sol\";\r\nimport \"../node_modules/@openzeppelin/contracts/token/ERC1155/ERC1155.sol\";\r\nimport \"../node_modules/@openzeppelin/contracts/utils/Counters.sol\";\r\nimport \"../contracts/PBPlayers.sol\";\r\n\r\ncontract PBXP is ERC1155 {\r\n\r\n    uint public PBXPTokenId = 0;\r\n    address public admin;\r\n    address pbTeamsAddress;\r\n    address pbPvCAddress;\r\n    address pbMatchupsAddress;\r\n    uint upgradeCost;\r\n    using Counters for Counters.Counter;\r\n    Counters.Counter private _proshopItemsCreated;\r\n    Counters.Counter private _proShopItemsSold;\r\n    IERC721 public myTeamsContract;\r\n    PBPlayers public pbPlayers;\r\n    IERC20 public buddies;\r\n\r\n    modifier onlyAdmin() {\r\n        require(msg.sender == admin, \"A1\");\r\n        _;\r\n    }\r\n\r\n     modifier onlyTeams() {\r\n        require(msg.sender == pbTeamsAddress, \"T1\");\r\n        _;\r\n    }\r\n\r\n    constructor(address _buddiesCoinAddress, address _pbPlayersAddress, uint _upgradeCost) ERC1155 (\"\") {\r\n        admin = msg.sender;\r\n        buddies = IERC20(_buddiesCoinAddress);\r\n        pbPlayers = PBPlayers(_pbPlayersAddress);\r\n        upgradeCost = _upgradeCost;\r\n    }\r\n\r\n    function isAdmin() public view returns (bool){\r\n        if(admin == msg.sender){\r\n            return true;\r\n        } else return false;\r\n    } \r\n\r\n    function getPBXPAddress() external view returns(address){\r\n        return address(this);\r\n    }\r\n\r\n    function updateBuddiesCoinAddress(address _buddiesCoinAddress) external onlyAdmin {\r\n        buddies = IERC20(_buddiesCoinAddress);\r\n    }\r\n\r\n    function updatePBXPTokenId(uint _PBXPTokenId) external onlyAdmin{\r\n        PBXPTokenId = _PBXPTokenId;\r\n    }\r\n\r\n    function updatePBTeamsAddress(address _pbTeamsAddress) external onlyAdmin {\r\n        pbTeamsAddress = _pbTeamsAddress;\r\n    }\r\n\r\n    function updatePBPlayersAddress(address _pbPlayersAddress)  external onlyAdmin {\r\n        pbPlayers = PBPlayers(_pbPlayersAddress);\r\n    }\r\n\r\n    function updatePBPvCAddress(address _pbPvCAddress) external onlyAdmin {\r\n        pbPvCAddress = _pbPvCAddress;\r\n    }\r\n\r\n    function updatePBMatchupsAddress(address _pbMatchupsAddress) external onlyAdmin {\r\n        pbMatchupsAddress = _pbMatchupsAddress;\r\n    }\r\n\r\n    function getUpgradeCost() public view returns(uint){\r\n        return upgradeCost;\r\n    }\r\n\r\n    function newProduct(uint token, uint initalSupply) external onlyAdmin {\r\n        _mint(msg.sender, token, initalSupply, \"\");\r\n    }\r\n\r\n    function newPBXPtoAddress(address mintToAddress, uint qty, uint token) external onlyAdmin returns (uint){\r\n        _mint(mintToAddress, token, qty, \"\");\r\n        uint balance = balanceOf(mintToAddress, token);\r\n        return balance;\r\n    }\r\n\r\n     function newTeamPBXP(address mintToAddress) external onlyTeams returns (uint){\r\n        _mint(mintToAddress, 0, (upgradeCost * 2), \"\");\r\n        uint balance = balanceOf(mintToAddress, 0);\r\n        return balance;\r\n    }\r\n\r\n    function burnItems(address owner, uint token, uint qty ) external onlyAdmin {\r\n        _burn(owner, token, qty);\r\n    }\r\n\r\n    function earnPBXP(address earnerAddress, uint qty) external {\r\n        require(msg.sender == pbTeamsAddress || msg.sender == pbPvCAddress || msg.sender == pbMatchupsAddress);\r\n        _mint(earnerAddress, PBXPTokenId, qty, \"\");\r\n    }\r\n\r\n    function increaseStats(uint tokenId, uint statType, uint qty, uint xp) public {\r\n        require(xp == upgradeCost * qty);\r\n        require(balanceOf(msg.sender, 0) >= xp);\r\n        require(pbPlayers.getTokenDetails(tokenId).ageoutTimestamp > block.timestamp);\r\n        require(pbPlayers.ownerOf(tokenId) == msg.sender);\r\n        if(statType == 1){\r\n            require(pbPlayers.getTokenDetails(tokenId).playertype != 3);\r\n            require(pbPlayers.getTokenDetails(tokenId).offence < 99);\r\n            pbPlayers.addOp(tokenId, qty, msg.sender);\r\n        }else if (statType == 2) {\r\n            require(pbPlayers.getTokenDetails(tokenId).defence < 99);\r\n            pbPlayers.addDp(tokenId, qty, msg.sender);\r\n        }\r\n        _burn(msg.sender, 0, xp);\r\n    }\r\n\r\n}",
  "sourcePath": "C:\\Users\\Stayers Ben\\Documents\\Projects\\puck-buddies\\contracts\\PBXP.sol",
  "compiler": {
    "name": "solc",
    "version": "0.8.6+commit.11564f7e.Emscripten.clang"
  },
  "schemaVersion": "3.4.3",
  "updatedAt": "2021-11-03T20:30:09.370Z",
  "devdoc": {
    "kind": "dev",
    "methods": {
      "balanceOf(address,uint256)": {
        "details": "See {IERC1155-balanceOf}. Requirements: - `account` cannot be the zero address."
      },
      "balanceOfBatch(address[],uint256[])": {
        "details": "See {IERC1155-balanceOfBatch}. Requirements: - `accounts` and `ids` must have the same length."
      },
      "isApprovedForAll(address,address)": {
        "details": "See {IERC1155-isApprovedForAll}."
      },
      "safeBatchTransferFrom(address,address,uint256[],uint256[],bytes)": {
        "details": "See {IERC1155-safeBatchTransferFrom}."
      },
      "safeTransferFrom(address,address,uint256,uint256,bytes)": {
        "details": "See {IERC1155-safeTransferFrom}."
      },
      "setApprovalForAll(address,bool)": {
        "details": "See {IERC1155-setApprovalForAll}."
      },
      "supportsInterface(bytes4)": {
        "details": "See {IERC165-supportsInterface}."
      },
      "uri(uint256)": {
        "details": "See {IERC1155MetadataURI-uri}. This implementation returns the same URI for *all* token types. It relies on the token type ID substitution mechanism https://eips.ethereum.org/EIPS/eip-1155#metadata[defined in the EIP]. Clients calling this function must replace the `\\{id\\}` substring with the actual token type ID."
      }
    },
    "version": 1
  },
  "userdoc": {
    "kind": "user",
    "methods": {},
    "version": 1
  }
}