{
  "contractName": "PBXP",
  "abi": [
    {
      "inputs": [
        {
          "internalType": "address",
          "name": "_buddiesCoinAddress",
          "type": "address"
        },
        {
          "internalType": "address",
          "name": "_pbPlayersAddress",
          "type": "address"
        },
        {
          "internalType": "uint256",
          "name": "_upgradeCost",
          "type": "uint256"
        }
      ],
      "stateMutability": "nonpayable",
      "type": "constructor"
    },
    {
      "anonymous": false,
      "inputs": [
        {
          "indexed": true,
          "internalType": "address",
          "name": "account",
          "type": "address"
        },
        {
          "indexed": true,
          "internalType": "address",
          "name": "operator",
          "type": "address"
        },
        {
          "indexed": false,
          "internalType": "bool",
          "name": "approved",
          "type": "bool"
        }
      ],
      "name": "ApprovalForAll",
      "type": "event"
    },
    {
      "anonymous": false,
      "inputs": [
        {
          "indexed": true,
          "internalType": "address",
          "name": "operator",
          "type": "address"
        },
        {
          "indexed": true,
          "internalType": "address",
          "name": "from",
          "type": "address"
        },
        {
          "indexed": true,
          "internalType": "address",
          "name": "to",
          "type": "address"
        },
        {
          "indexed": false,
          "internalType": "uint256[]",
          "name": "ids",
          "type": "uint256[]"
        },
        {
          "indexed": false,
          "internalType": "uint256[]",
          "name": "values",
          "type": "uint256[]"
        }
      ],
      "name": "TransferBatch",
      "type": "event"
    },
    {
      "anonymous": false,
      "inputs": [
        {
          "indexed": true,
          "internalType": "address",
          "name": "operator",
          "type": "address"
        },
        {
          "indexed": true,
          "internalType": "address",
          "name": "from",
          "type": "address"
        },
        {
          "indexed": true,
          "internalType": "address",
          "name": "to",
          "type": "address"
        },
        {
          "indexed": false,
          "internalType": "uint256",
          "name": "id",
          "type": "uint256"
        },
        {
          "indexed": false,
          "internalType": "uint256",
          "name": "value",
          "type": "uint256"
        }
      ],
      "name": "TransferSingle",
      "type": "event"
    },
    {
      "anonymous": false,
      "inputs": [
        {
          "indexed": false,
          "internalType": "string",
          "name": "value",
          "type": "string"
        },
        {
          "indexed": true,
          "internalType": "uint256",
          "name": "id",
          "type": "uint256"
        }
      ],
      "name": "URI",
      "type": "event"
    },
    {
      "inputs": [],
      "name": "PBXPTokenId",
      "outputs": [
        {
          "internalType": "uint256",
          "name": "",
          "type": "uint256"
        }
      ],
      "stateMutability": "view",
      "type": "function",
      "constant": true
    },
    {
      "inputs": [],
      "name": "admin",
      "outputs": [
        {
          "internalType": "address",
          "name": "",
          "type": "address"
        }
      ],
      "stateMutability": "view",
      "type": "function",
      "constant": true
    },
    {
      "inputs": [
        {
          "internalType": "address",
          "name": "account",
          "type": "address"
        },
        {
          "internalType": "uint256",
          "name": "id",
          "type": "uint256"
        }
      ],
      "name": "balanceOf",
      "outputs": [
        {
          "internalType": "uint256",
          "name": "",
          "type": "uint256"
        }
      ],
      "stateMutability": "view",
      "type": "function",
      "constant": true
    },
    {
      "inputs": [
        {
          "internalType": "address[]",
          "name": "accounts",
          "type": "address[]"
        },
        {
          "internalType": "uint256[]",
          "name": "ids",
          "type": "uint256[]"
        }
      ],
      "name": "balanceOfBatch",
      "outputs": [
        {
          "internalType": "uint256[]",
          "name": "",
          "type": "uint256[]"
        }
      ],
      "stateMutability": "view",
      "type": "function",
      "constant": true
    },
    {
      "inputs": [],
      "name": "buddies",
      "outputs": [
        {
          "internalType": "contract IERC20",
          "name": "",
          "type": "address"
        }
      ],
      "stateMutability": "view",
      "type": "function",
      "constant": true
    },
    {
      "inputs": [
        {
          "internalType": "address",
          "name": "account",
          "type": "address"
        },
        {
          "internalType": "address",
          "name": "operator",
          "type": "address"
        }
      ],
      "name": "isApprovedForAll",
      "outputs": [
        {
          "internalType": "bool",
          "name": "",
          "type": "bool"
        }
      ],
      "stateMutability": "view",
      "type": "function",
      "constant": true
    },
    {
      "inputs": [],
      "name": "myTeamsContract",
      "outputs": [
        {
          "internalType": "contract IERC721",
          "name": "",
          "type": "address"
        }
      ],
      "stateMutability": "view",
      "type": "function",
      "constant": true
    },
    {
      "inputs": [],
      "name": "pbPlayers",
      "outputs": [
        {
          "internalType": "contract PBPlayers",
          "name": "",
          "type": "address"
        }
      ],
      "stateMutability": "view",
      "type": "function",
      "constant": true
    },
    {
      "inputs": [
        {
          "internalType": "address",
          "name": "from",
          "type": "address"
        },
        {
          "internalType": "address",
          "name": "to",
          "type": "address"
        },
        {
          "internalType": "uint256[]",
          "name": "ids",
          "type": "uint256[]"
        },
        {
          "internalType": "uint256[]",
          "name": "amounts",
          "type": "uint256[]"
        },
        {
          "internalType": "bytes",
          "name": "data",
          "type": "bytes"
        }
      ],
      "name": "safeBatchTransferFrom",
      "outputs": [],
      "stateMutability": "nonpayable",
      "type": "function"
    },
    {
      "inputs": [
        {
          "internalType": "address",
          "name": "from",
          "type": "address"
        },
        {
          "internalType": "address",
          "name": "to",
          "type": "address"
        },
        {
          "internalType": "uint256",
          "name": "id",
          "type": "uint256"
        },
        {
          "internalType": "uint256",
          "name": "amount",
          "type": "uint256"
        },
        {
          "internalType": "bytes",
          "name": "data",
          "type": "bytes"
        }
      ],
      "name": "safeTransferFrom",
      "outputs": [],
      "stateMutability": "nonpayable",
      "type": "function"
    },
    {
      "inputs": [
        {
          "internalType": "address",
          "name": "operator",
          "type": "address"
        },
        {
          "internalType": "bool",
          "name": "approved",
          "type": "bool"
        }
      ],
      "name": "setApprovalForAll",
      "outputs": [],
      "stateMutability": "nonpayable",
      "type": "function"
    },
    {
      "inputs": [
        {
          "internalType": "bytes4",
          "name": "interfaceId",
          "type": "bytes4"
        }
      ],
      "name": "supportsInterface",
      "outputs": [
        {
          "internalType": "bool",
          "name": "",
          "type": "bool"
        }
      ],
      "stateMutability": "view",
      "type": "function",
      "constant": true
    },
    {
      "inputs": [
        {
          "internalType": "uint256",
          "name": "",
          "type": "uint256"
        }
      ],
      "name": "uri",
      "outputs": [
        {
          "internalType": "string",
          "name": "",
          "type": "string"
        }
      ],
      "stateMutability": "view",
      "type": "function",
      "constant": true
    },
    {
      "inputs": [],
      "name": "isAdmin",
      "outputs": [
        {
          "internalType": "bool",
          "name": "",
          "type": "bool"
        }
      ],
      "stateMutability": "view",
      "type": "function",
      "constant": true
    },
    {
      "inputs": [],
      "name": "getPBXPAddress",
      "outputs": [
        {
          "internalType": "address",
          "name": "",
          "type": "address"
        }
      ],
      "stateMutability": "view",
      "type": "function",
      "constant": true
    },
    {
      "inputs": [
        {
          "internalType": "address",
          "name": "_buddiesCoinAddress",
          "type": "address"
        }
      ],
      "name": "updateBuddiesCoinAddress",
      "outputs": [],
      "stateMutability": "nonpayable",
      "type": "function"
    },
    {
      "inputs": [
        {
          "internalType": "uint256",
          "name": "_PBXPTokenId",
          "type": "uint256"
        }
      ],
      "name": "updatePBXPTokenId",
      "outputs": [],
      "stateMutability": "nonpayable",
      "type": "function"
    },
    {
      "inputs": [
        {
          "internalType": "address",
          "name": "_pbTeamsAddress",
          "type": "address"
        }
      ],
      "name": "updatePBTeamsAddress",
      "outputs": [],
      "stateMutability": "nonpayable",
      "type": "function"
    },
    {
      "inputs": [
        {
          "internalType": "address",
          "name": "_pbPlayersAddress",
          "type": "address"
        }
      ],
      "name": "updatePBPlayersAddress",
      "outputs": [],
      "stateMutability": "nonpayable",
      "type": "function"
    },
    {
      "inputs": [
        {
          "internalType": "address",
          "name": "_pbPvCAddress",
          "type": "address"
        }
      ],
      "name": "updatePBPvCAddress",
      "outputs": [],
      "stateMutability": "nonpayable",
      "type": "function"
    },
    {
      "inputs": [
        {
          "internalType": "address",
          "name": "_pbMatchupsAddress",
          "type": "address"
        }
      ],
      "name": "updatePBMatchupsAddress",
      "outputs": [],
      "stateMutability": "nonpayable",
      "type": "function"
    },
    {
      "inputs": [],
      "name": "getUpgradeCost",
      "outputs": [
        {
          "internalType": "uint256",
          "name": "",
          "type": "uint256"
        }
      ],
      "stateMutability": "view",
      "type": "function",
      "constant": true
    },
    {
      "inputs": [
        {
          "internalType": "uint256",
          "name": "token",
          "type": "uint256"
        },
        {
          "internalType": "uint256",
          "name": "initalSupply",
          "type": "uint256"
        }
      ],
      "name": "newProduct",
      "outputs": [],
      "stateMutability": "nonpayable",
      "type": "function"
    },
    {
      "inputs": [
        {
          "internalType": "address",
          "name": "mintToAddress",
          "type": "address"
        },
        {
          "internalType": "uint256",
          "name": "qty",
          "type": "uint256"
        },
        {
          "internalType": "uint256",
          "name": "token",
          "type": "uint256"
        }
      ],
      "name": "newPBXPtoAddress",
      "outputs": [
        {
          "internalType": "uint256",
          "name": "",
          "type": "uint256"
        }
      ],
      "stateMutability": "nonpayable",
      "type": "function"
    },
    {
      "inputs": [
        {
          "internalType": "address",
          "name": "owner",
          "type": "address"
        },
        {
          "internalType": "uint256",
          "name": "token",
          "type": "uint256"
        },
        {
          "internalType": "uint256",
          "name": "qty",
          "type": "uint256"
        }
      ],
      "name": "burnItems",
      "outputs": [],
      "stateMutability": "nonpayable",
      "type": "function"
    },
    {
      "inputs": [
        {
          "internalType": "address",
          "name": "earnerAddress",
          "type": "address"
        },
        {
          "internalType": "uint256",
          "name": "qty",
          "type": "uint256"
        }
      ],
      "name": "earnPBXP",
      "outputs": [],
      "stateMutability": "nonpayable",
      "type": "function"
    },
    {
      "inputs": [
        {
          "internalType": "address",
          "name": "awardeeAddress",
          "type": "address"
        },
        {
          "internalType": "uint256",
          "name": "qty",
          "type": "uint256"
        }
      ],
      "name": "awardPBXP",
      "outputs": [],
      "stateMutability": "nonpayable",
      "type": "function"
    },
    {
      "inputs": [
        {
          "internalType": "uint256",
          "name": "tokenId",
          "type": "uint256"
        },
        {
          "internalType": "uint256",
          "name": "statType",
          "type": "uint256"
        },
        {
          "internalType": "uint256",
          "name": "qty",
          "type": "uint256"
        },
        {
          "internalType": "uint256",
          "name": "xp",
          "type": "uint256"
        }
      ],
      "name": "increaseStats",
      "outputs": [],
      "stateMutability": "nonpayable",
      "type": "function"
    },
    {
      "inputs": [],
      "name": "getBNBBalance",
      "outputs": [
        {
          "internalType": "uint256",
          "name": "",
          "type": "uint256"
        }
      ],
      "stateMutability": "view",
      "type": "function",
      "constant": true
    },
    {
      "inputs": [],
      "name": "getBudsBalance",
      "outputs": [
        {
          "internalType": "uint256",
          "name": "",
          "type": "uint256"
        }
      ],
      "stateMutability": "view",
      "type": "function",
      "constant": true
    },
    {
      "inputs": [
        {
          "internalType": "address payable",
          "name": "_to",
          "type": "address"
        },
        {
          "internalType": "uint256",
          "name": "_amount",
          "type": "uint256"
        }
      ],
      "name": "transferBNB",
      "outputs": [],
      "stateMutability": "nonpayable",
      "type": "function"
    },
    {
      "inputs": [
        {
          "internalType": "uint256",
          "name": "_amount",
          "type": "uint256"
        }
      ],
      "name": "transferBUDS",
      "outputs": [],
      "stateMutability": "nonpayable",
      "type": "function"
    }
  ],
  "bytecode": "0x608060405260006003553480156200001657600080fd5b5060405162004af638038062004af683398181016040528101906200003c91906200022b565b604051806020016040528060008152506200005d816200013160201b60201c565b5033600460006101000a81548173ffffffffffffffffffffffffffffffffffffffff021916908373ffffffffffffffffffffffffffffffffffffffff16021790555082600b60006101000a81548173ffffffffffffffffffffffffffffffffffffffff021916908373ffffffffffffffffffffffffffffffffffffffff16021790555081600a60006101000a81548173ffffffffffffffffffffffffffffffffffffffff021916908373ffffffffffffffffffffffffffffffffffffffff1602179055508060088190555050505062000363565b8060029080519060200190620001499291906200014d565b5050565b8280546200015b90620002c5565b90600052602060002090601f0160209004810192826200017f5760008555620001cb565b82601f106200019a57805160ff1916838001178555620001cb565b82800160010185558215620001cb579182015b82811115620001ca578251825591602001919060010190620001ad565b5b509050620001da9190620001de565b5090565b5b80821115620001f9576000816000905550600101620001df565b5090565b6000815190506200020e816200032f565b92915050565b600081519050620002258162000349565b92915050565b6000806000606084860312156200024757620002466200032a565b5b60006200025786828701620001fd565b93505060206200026a86828701620001fd565b92505060406200027d8682870162000214565b9150509250925092565b600062000294826200029b565b9050919050565b600073ffffffffffffffffffffffffffffffffffffffff82169050919050565b6000819050919050565b60006002820490506001821680620002de57607f821691505b60208210811415620002f557620002f4620002fb565b5b50919050565b7f4e487b7100000000000000000000000000000000000000000000000000000000600052602260045260246000fd5b600080fd5b6200033a8162000287565b81146200034657600080fd5b50565b6200035481620002bb565b81146200036057600080fd5b50565b61478380620003736000396000f3fe608060405234801561001057600080fd5b50600436106101ef5760003560e01c806395e03eb41161010f578063c6545943116100a2578063f242432a11610071578063f242432a1461058c578063f7e7b207146105a8578063f851a440146105c4578063f89879aa146105e2576101ef565b8063c654594314610506578063d0ffcce314610522578063e985e9c514610540578063eb17fba314610570576101ef565b8063a748de1b116100de578063a748de1b14610492578063a87b14f5146104ae578063b6db75a0146104cc578063c43df89a146104ea576101ef565b806395e03eb4146104225780639616cc941461043e5780639ecd79351461045a578063a22cb46514610476576101ef565b80634a594c12116101875780635d632faf116101565780635d632faf146103ae57806363eaef5a146103ca5780636bf082da146103e85780638491f21414610404576101ef565b80634a594c12146103145780634c97073c146103325780634e1273f41461034e578063502d949c1461037e576101ef565b806329fe5ebc116101c357806329fe5ebc146102a25780632eb2c2d6146102be5780633775d177146102da578063408581a6146102f8576101ef565b8062fdd58e146101f457806301ffc9a7146102245780630e89341c14610254578063120754d014610284575b600080fd5b61020e6004803603810190610209919061332b565b610600565b60405161021b9190613cd4565b60405180910390f35b61023e60048036038101906102399190613463565b6106c9565b60405161024b9190613a86565b60405180910390f35b61026e600480360381019061026991906134eb565b6107ab565b60405161027b9190613af2565b60405180910390f35b61028c61083f565b6040516102999190613cd4565b60405180910390f35b6102bc60048036038101906102b791906130ab565b610849565b005b6102d860048036038101906102d39190613185565b61091d565b005b6102e26109be565b6040516102ef9190613cd4565b60405180910390f35b610312600480360381019061030d91906134eb565b6109c4565b005b61031c610a5e565b6040516103299190613aa1565b60405180910390f35b61034c6004803603810190610347919061336b565b610a84565b005b610368600480360381019061036391906133be565b610b24565b6040516103759190613a2d565b60405180910390f35b6103986004803603810190610393919061336b565b610c3d565b6040516103a59190613cd4565b60405180910390f35b6103c860048036038101906103c391906130ab565b610d03565b005b6103d2610dd7565b6040516103df9190613ad7565b60405180910390f35b61040260048036038101906103fd91906130ab565b610dfd565b005b61040c610ed1565b6040516104199190613cd4565b60405180910390f35b61043c600480360381019061043791906134eb565b610f83565b005b610458600480360381019061045391906130ab565b6110c6565b005b610474600480360381019061046f919061332b565b61119a565b005b610490600480360381019061048b91906132eb565b61124b565b005b6104ac60048036038101906104a79190613545565b6113cc565b005b6104b661147b565b6040516104c39190613abc565b60405180910390f35b6104d46114a1565b6040516104e19190613a86565b60405180910390f35b61050460048036038101906104ff919061332b565b61150a565b005b610520600480360381019061051b91906130ab565b611635565b005b61052a611709565b6040516105379190613927565b60405180910390f35b61055a60048036038101906105559190613145565b611711565b6040516105679190613a86565b60405180910390f35b61058a60048036038101906105859190613105565b6117a5565b005b6105a660048036038101906105a19190613254565b611880565b005b6105c260048036038101906105bd9190613585565b611921565b005b6105cc611e70565b6040516105d99190613927565b60405180910390f35b6105ea611e96565b6040516105f79190613cd4565b60405180910390f35b60008073ffffffffffffffffffffffffffffffffffffffff168373ffffffffffffffffffffffffffffffffffffffff161415610671576040517f08c379a000000000000000000000000000000000000000000000000000000000815260040161066890613b54565b60405180910390fd5b60008083815260200190815260200160002060008473ffffffffffffffffffffffffffffffffffffffff1673ffffffffffffffffffffffffffffffffffffffff16815260200190815260200160002054905092915050565b60007fd9b67a26000000000000000000000000000000000000000000000000000000007bffffffffffffffffffffffffffffffffffffffffffffffffffffffff1916827bffffffffffffffffffffffffffffffffffffffffffffffffffffffff1916148061079457507f0e89341c000000000000000000000000000000000000000000000000000000007bffffffffffffffffffffffffffffffffffffffffffffffffffffffff1916827bffffffffffffffffffffffffffffffffffffffffffffffffffffffff1916145b806107a457506107a382611f2e565b5b9050919050565b6060600280546107ba90614052565b80601f01602080910402602001604051908101604052809291908181526020018280546107e690614052565b80156108335780601f1061080857610100808354040283529160200191610833565b820191906000526020600020905b81548152906001019060200180831161081657829003601f168201915b50505050509050919050565b6000600854905090565b600460009054906101000a900473ffffffffffffffffffffffffffffffffffffffff1673ffffffffffffffffffffffffffffffffffffffff163373ffffffffffffffffffffffffffffffffffffffff16146108d9576040517f08c379a00000000000000000000000000000000000000000000000000000000081526004016108d090613bb4565b60405180910390fd5b80600660006101000a81548173ffffffffffffffffffffffffffffffffffffffff021916908373ffffffffffffffffffffffffffffffffffffffff16021790555050565b610925611f98565b73ffffffffffffffffffffffffffffffffffffffff168573ffffffffffffffffffffffffffffffffffffffff16148061096b575061096a85610965611f98565b611711565b5b6109aa576040517f08c379a00000000000000000000000000000000000000000000000000000000081526004016109a190613bf4565b60405180910390fd5b6109b78585858585611fa0565b5050505050565b60035481565b600460009054906101000a900473ffffffffffffffffffffffffffffffffffffffff1673ffffffffffffffffffffffffffffffffffffffff163373ffffffffffffffffffffffffffffffffffffffff1614610a54576040517f08c379a0000000000000000000000000000000000000000000000000000000008152600401610a4b90613bb4565b60405180910390fd5b8060038190555050565b600b60009054906101000a900473ffffffffffffffffffffffffffffffffffffffff1681565b600460009054906101000a900473ffffffffffffffffffffffffffffffffffffffff1673ffffffffffffffffffffffffffffffffffffffff163373ffffffffffffffffffffffffffffffffffffffff1614610b14576040517f08c379a0000000000000000000000000000000000000000000000000000000008152600401610b0b90613bb4565b60405180910390fd5b610b1f8383836122b4565b505050565b60608151835114610b6a576040517f08c379a0000000000000000000000000000000000000000000000000000000008152600401610b6190613c74565b60405180910390fd5b6000835167ffffffffffffffff811115610b8757610b8661418b565b5b604051908082528060200260200182016040528015610bb55781602001602082028036833780820191505090505b50905060005b8451811015610c3257610c02858281518110610bda57610bd961415c565b5b6020026020010151858381518110610bf557610bf461415c565b5b6020026020010151610600565b828281518110610c1557610c1461415c565b5b60200260200101818152505080610c2b906140b5565b9050610bbb565b508091505092915050565b6000600460009054906101000a900473ffffffffffffffffffffffffffffffffffffffff1673ffffffffffffffffffffffffffffffffffffffff163373ffffffffffffffffffffffffffffffffffffffff1614610ccf576040517f08c379a0000000000000000000000000000000000000000000000000000000008152600401610cc690613bb4565b60405180910390fd5b610cea848385604051806020016040528060008152506124d1565b6000610cf68584610600565b9050809150509392505050565b600460009054906101000a900473ffffffffffffffffffffffffffffffffffffffff1673ffffffffffffffffffffffffffffffffffffffff163373ffffffffffffffffffffffffffffffffffffffff1614610d93576040517f08c379a0000000000000000000000000000000000000000000000000000000008152600401610d8a90613bb4565b60405180910390fd5b80600b60006101000a81548173ffffffffffffffffffffffffffffffffffffffff021916908373ffffffffffffffffffffffffffffffffffffffff16021790555050565b600a60009054906101000a900473ffffffffffffffffffffffffffffffffffffffff1681565b600460009054906101000a900473ffffffffffffffffffffffffffffffffffffffff1673ffffffffffffffffffffffffffffffffffffffff163373ffffffffffffffffffffffffffffffffffffffff1614610e8d576040517f08c379a0000000000000000000000000000000000000000000000000000000008152600401610e8490613bb4565b60405180910390fd5b80600560006101000a81548173ffffffffffffffffffffffffffffffffffffffff021916908373ffffffffffffffffffffffffffffffffffffffff16021790555050565b6000600b60009054906101000a900473ffffffffffffffffffffffffffffffffffffffff1673ffffffffffffffffffffffffffffffffffffffff166370a08231306040518263ffffffff1660e01b8152600401610f2e9190613927565b60206040518083038186803b158015610f4657600080fd5b505afa158015610f5a573d6000803e3d6000fd5b505050506040513d601f19601f82011682018060405250810190610f7e9190613518565b905090565b600460009054906101000a900473ffffffffffffffffffffffffffffffffffffffff1673ffffffffffffffffffffffffffffffffffffffff163373ffffffffffffffffffffffffffffffffffffffff1614611013576040517f08c379a000000000000000000000000000000000000000000000000000000000815260040161100a90613bb4565b60405180910390fd5b600b60009054906101000a900473ffffffffffffffffffffffffffffffffffffffff1673ffffffffffffffffffffffffffffffffffffffff1663a9059cbb33836040518363ffffffff1660e01b8152600401611070929190613a04565b602060405180830381600087803b15801561108a57600080fd5b505af115801561109e573d6000803e3d6000fd5b505050506040513d601f19601f820116820180604052508101906110c29190613436565b5050565b600460009054906101000a900473ffffffffffffffffffffffffffffffffffffffff1673ffffffffffffffffffffffffffffffffffffffff163373ffffffffffffffffffffffffffffffffffffffff1614611156576040517f08c379a000000000000000000000000000000000000000000000000000000000815260040161114d90613bb4565b60405180910390fd5b80600a60006101000a81548173ffffffffffffffffffffffffffffffffffffffff021916908373ffffffffffffffffffffffffffffffffffffffff16021790555050565b600460009054906101000a900473ffffffffffffffffffffffffffffffffffffffff1673ffffffffffffffffffffffffffffffffffffffff163373ffffffffffffffffffffffffffffffffffffffff161461122a576040517f08c379a000000000000000000000000000000000000000000000000000000000815260040161122190613bb4565b60405180910390fd5b6112478260035483604051806020016040528060008152506124d1565b5050565b8173ffffffffffffffffffffffffffffffffffffffff1661126a611f98565b73ffffffffffffffffffffffffffffffffffffffff1614156112c1576040517f08c379a00000000000000000000000000000000000000000000000000000000081526004016112b890613c54565b60405180910390fd5b80600160006112ce611f98565b73ffffffffffffffffffffffffffffffffffffffff1673ffffffffffffffffffffffffffffffffffffffff16815260200190815260200160002060008473ffffffffffffffffffffffffffffffffffffffff1673ffffffffffffffffffffffffffffffffffffffff16815260200190815260200160002060006101000a81548160ff0219169083151502179055508173ffffffffffffffffffffffffffffffffffffffff1661137b611f98565b73ffffffffffffffffffffffffffffffffffffffff167f17307eab39ab6107e8899845ad3d59bd9653f200f220920489ca2b5937696c31836040516113c09190613a86565b60405180910390a35050565b600460009054906101000a900473ffffffffffffffffffffffffffffffffffffffff1673ffffffffffffffffffffffffffffffffffffffff163373ffffffffffffffffffffffffffffffffffffffff161461145c576040517f08c379a000000000000000000000000000000000000000000000000000000000815260040161145390613bb4565b60405180910390fd5b611477338383604051806020016040528060008152506124d1565b5050565b600960009054906101000a900473ffffffffffffffffffffffffffffffffffffffff1681565b60003373ffffffffffffffffffffffffffffffffffffffff16600460009054906101000a900473ffffffffffffffffffffffffffffffffffffffff1673ffffffffffffffffffffffffffffffffffffffff1614156115025760019050611507565b600090505b90565b600560009054906101000a900473ffffffffffffffffffffffffffffffffffffffff1673ffffffffffffffffffffffffffffffffffffffff163373ffffffffffffffffffffffffffffffffffffffff1614806115b35750600660009054906101000a900473ffffffffffffffffffffffffffffffffffffffff1673ffffffffffffffffffffffffffffffffffffffff163373ffffffffffffffffffffffffffffffffffffffff16145b8061160b5750600760009054906101000a900473ffffffffffffffffffffffffffffffffffffffff1673ffffffffffffffffffffffffffffffffffffffff163373ffffffffffffffffffffffffffffffffffffffff16145b61161457600080fd5b6116318260035483604051806020016040528060008152506124d1565b5050565b600460009054906101000a900473ffffffffffffffffffffffffffffffffffffffff1673ffffffffffffffffffffffffffffffffffffffff163373ffffffffffffffffffffffffffffffffffffffff16146116c5576040517f08c379a00000000000000000000000000000000000000000000000000000000081526004016116bc90613bb4565b60405180910390fd5b80600760006101000a81548173ffffffffffffffffffffffffffffffffffffffff021916908373ffffffffffffffffffffffffffffffffffffffff16021790555050565b600030905090565b6000600160008473ffffffffffffffffffffffffffffffffffffffff1673ffffffffffffffffffffffffffffffffffffffff16815260200190815260200160002060008373ffffffffffffffffffffffffffffffffffffffff1673ffffffffffffffffffffffffffffffffffffffff16815260200190815260200160002060009054906101000a900460ff16905092915050565b600460009054906101000a900473ffffffffffffffffffffffffffffffffffffffff1673ffffffffffffffffffffffffffffffffffffffff163373ffffffffffffffffffffffffffffffffffffffff1614611835576040517f08c379a000000000000000000000000000000000000000000000000000000000815260040161182c90613bb4565b60405180910390fd5b8173ffffffffffffffffffffffffffffffffffffffff166108fc829081150290604051600060405180830381858888f1935050505015801561187b573d6000803e3d6000fd5b505050565b611888611f98565b73ffffffffffffffffffffffffffffffffffffffff168573ffffffffffffffffffffffffffffffffffffffff1614806118ce57506118cd856118c8611f98565b611711565b5b61190d576040517f08c379a000000000000000000000000000000000000000000000000000000000815260040161190490613b94565b60405180910390fd5b61191a8585858585612667565b5050505050565b8160085461192f9190613ec4565b811461193a57600080fd5b80611946336000610600565b101561195157600080fd5b42600a60009054906101000a900473ffffffffffffffffffffffffffffffffffffffff1673ffffffffffffffffffffffffffffffffffffffff1663c1e03728866040518263ffffffff1660e01b81526004016119ad9190613cd4565b6101406040518083038186803b1580156119c657600080fd5b505afa1580156119da573d6000803e3d6000fd5b505050506040513d601f19601f820116820180604052508101906119fe91906134bd565b60a0015111611a0c57600080fd5b3373ffffffffffffffffffffffffffffffffffffffff16600a60009054906101000a900473ffffffffffffffffffffffffffffffffffffffff1673ffffffffffffffffffffffffffffffffffffffff16636352211e866040518263ffffffff1660e01b8152600401611a7e9190613cd4565b60206040518083038186803b158015611a9657600080fd5b505afa158015611aaa573d6000803e3d6000fd5b505050506040513d601f19601f82011682018060405250810190611ace91906130d8565b73ffffffffffffffffffffffffffffffffffffffff1614611aee57600080fd5b6001831415611d06576003600a60009054906101000a900473ffffffffffffffffffffffffffffffffffffffff1673ffffffffffffffffffffffffffffffffffffffff1663c1e03728866040518263ffffffff1660e01b8152600401611b549190613cd4565b6101406040518083038186803b158015611b6d57600080fd5b505afa158015611b81573d6000803e3d6000fd5b505050506040513d601f19601f82011682018060405250810190611ba591906134bd565b606001511415611bb457600080fd5b6063600a60009054906101000a900473ffffffffffffffffffffffffffffffffffffffff1673ffffffffffffffffffffffffffffffffffffffff1663c1e03728866040518263ffffffff1660e01b8152600401611c119190613cd4565b6101406040518083038186803b158015611c2a57600080fd5b505afa158015611c3e573d6000803e3d6000fd5b505050506040513d601f19601f82011682018060405250810190611c6291906134bd565b6000015110611c7057600080fd5b600a60009054906101000a900473ffffffffffffffffffffffffffffffffffffffff1673ffffffffffffffffffffffffffffffffffffffff1663efe6e41c8584336040518463ffffffff1660e01b8152600401611ccf93929190613d18565b600060405180830381600087803b158015611ce957600080fd5b505af1158015611cfd573d6000803e3d6000fd5b50505050611e5e565b6002831415611e5d576063600a60009054906101000a900473ffffffffffffffffffffffffffffffffffffffff1673ffffffffffffffffffffffffffffffffffffffff1663c1e03728866040518263ffffffff1660e01b8152600401611d6c9190613cd4565b6101406040518083038186803b158015611d8557600080fd5b505afa158015611d99573d6000803e3d6000fd5b505050506040513d601f19601f82011682018060405250810190611dbd91906134bd565b6020015110611dcb57600080fd5b600a60009054906101000a900473ffffffffffffffffffffffffffffffffffffffff1673ffffffffffffffffffffffffffffffffffffffff1663f0258a788584336040518463ffffffff1660e01b8152600401611e2a93929190613d18565b600060405180830381600087803b158015611e4457600080fd5b505af1158015611e58573d6000803e3d6000fd5b505050505b5b611e6a336000836122b4565b50505050565b600460009054906101000a900473ffffffffffffffffffffffffffffffffffffffff1681565b6000600460009054906101000a900473ffffffffffffffffffffffffffffffffffffffff1673ffffffffffffffffffffffffffffffffffffffff163373ffffffffffffffffffffffffffffffffffffffff1614611f28576040517f08c379a0000000000000000000000000000000000000000000000000000000008152600401611f1f90613bb4565b60405180910390fd5b47905090565b60007f01ffc9a7000000000000000000000000000000000000000000000000000000007bffffffffffffffffffffffffffffffffffffffffffffffffffffffff1916827bffffffffffffffffffffffffffffffffffffffffffffffffffffffff1916149050919050565b600033905090565b8151835114611fe4576040517f08c379a0000000000000000000000000000000000000000000000000000000008152600401611fdb90613c94565b60405180910390fd5b600073ffffffffffffffffffffffffffffffffffffffff168473ffffffffffffffffffffffffffffffffffffffff161415612054576040517f08c379a000000000000000000000000000000000000000000000000000000000815260040161204b90613bd4565b60405180910390fd5b600061205e611f98565b905061206e8187878787876128e9565b60005b845181101561221f57600085828151811061208f5761208e61415c565b5b6020026020010151905060008583815181106120ae576120ad61415c565b5b60200260200101519050600080600084815260200190815260200160002060008b73ffffffffffffffffffffffffffffffffffffffff1673ffffffffffffffffffffffffffffffffffffffff1681526020019081526020016000205490508181101561214f576040517f08c379a000000000000000000000000000000000000000000000000000000000815260040161214690613c34565b60405180910390fd5b81810360008085815260200190815260200160002060008c73ffffffffffffffffffffffffffffffffffffffff1673ffffffffffffffffffffffffffffffffffffffff168152602001908152602001600020819055508160008085815260200190815260200160002060008b73ffffffffffffffffffffffffffffffffffffffff1673ffffffffffffffffffffffffffffffffffffffff16815260200190815260200160002060008282546122049190613e6e565b9250508190555050505080612218906140b5565b9050612071565b508473ffffffffffffffffffffffffffffffffffffffff168673ffffffffffffffffffffffffffffffffffffffff168273ffffffffffffffffffffffffffffffffffffffff167f4a39dc06d4c0dbc64b70af90fd698a233a518aa5d07e595d983b8c0526c8f7fb8787604051612296929190613a4f565b60405180910390a46122ac8187878787876128f1565b505050505050565b600073ffffffffffffffffffffffffffffffffffffffff168373ffffffffffffffffffffffffffffffffffffffff161415612324576040517f08c379a000000000000000000000000000000000000000000000000000000000815260040161231b90613c14565b60405180910390fd5b600061232e611f98565b905061235e8185600061234087612ad8565b61234987612ad8565b604051806020016040528060008152506128e9565b600080600085815260200190815260200160002060008673ffffffffffffffffffffffffffffffffffffffff1673ffffffffffffffffffffffffffffffffffffffff168152602001908152602001600020549050828110156123f5576040517f08c379a00000000000000000000000000000000000000000000000000000000081526004016123ec90613b74565b60405180910390fd5b82810360008086815260200190815260200160002060008773ffffffffffffffffffffffffffffffffffffffff1673ffffffffffffffffffffffffffffffffffffffff16815260200190815260200160002081905550600073ffffffffffffffffffffffffffffffffffffffff168573ffffffffffffffffffffffffffffffffffffffff168373ffffffffffffffffffffffffffffffffffffffff167fc3d58168c5ae7397731d063d5bbf3d657854427343f4c083240f7aacaa2d0f6287876040516124c2929190613cef565b60405180910390a45050505050565b600073ffffffffffffffffffffffffffffffffffffffff168473ffffffffffffffffffffffffffffffffffffffff161415612541576040517f08c379a000000000000000000000000000000000000000000000000000000000815260040161253890613cb4565b60405180910390fd5b600061254b611f98565b905061256c8160008761255d88612ad8565b61256688612ad8565b876128e9565b8260008086815260200190815260200160002060008773ffffffffffffffffffffffffffffffffffffffff1673ffffffffffffffffffffffffffffffffffffffff16815260200190815260200160002060008282546125cb9190613e6e565b925050819055508473ffffffffffffffffffffffffffffffffffffffff16600073ffffffffffffffffffffffffffffffffffffffff168273ffffffffffffffffffffffffffffffffffffffff167fc3d58168c5ae7397731d063d5bbf3d657854427343f4c083240f7aacaa2d0f628787604051612649929190613cef565b60405180910390a461266081600087878787612b52565b5050505050565b600073ffffffffffffffffffffffffffffffffffffffff168473ffffffffffffffffffffffffffffffffffffffff1614156126d7576040517f08c379a00000000000000000000000000000000000000000000000000000000081526004016126ce90613bd4565b60405180910390fd5b60006126e1611f98565b90506127018187876126f288612ad8565b6126fb88612ad8565b876128e9565b600080600086815260200190815260200160002060008873ffffffffffffffffffffffffffffffffffffffff1673ffffffffffffffffffffffffffffffffffffffff16815260200190815260200160002054905083811015612798576040517f08c379a000000000000000000000000000000000000000000000000000000000815260040161278f90613c34565b60405180910390fd5b83810360008087815260200190815260200160002060008973ffffffffffffffffffffffffffffffffffffffff1673ffffffffffffffffffffffffffffffffffffffff168152602001908152602001600020819055508360008087815260200190815260200160002060008873ffffffffffffffffffffffffffffffffffffffff1673ffffffffffffffffffffffffffffffffffffffff168152602001908152602001600020600082825461284d9190613e6e565b925050819055508573ffffffffffffffffffffffffffffffffffffffff168773ffffffffffffffffffffffffffffffffffffffff168373ffffffffffffffffffffffffffffffffffffffff167fc3d58168c5ae7397731d063d5bbf3d657854427343f4c083240f7aacaa2d0f6288886040516128ca929190613cef565b60405180910390a46128e0828888888888612b52565b50505050505050565b505050505050565b6129108473ffffffffffffffffffffffffffffffffffffffff16612d39565b15612ad0578373ffffffffffffffffffffffffffffffffffffffff1663bc197c8187878686866040518663ffffffff1660e01b8152600401612956959493929190613942565b602060405180830381600087803b15801561297057600080fd5b505af19250505080156129a157506040513d601f19601f8201168201806040525081019061299e9190613490565b60015b612a47576129ad6141ba565b806308c379a01415612a0a57506129c2614644565b806129cd5750612a0c565b806040517f08c379a0000000000000000000000000000000000000000000000000000000008152600401612a019190613af2565b60405180910390fd5b505b6040517f08c379a0000000000000000000000000000000000000000000000000000000008152600401612a3e90613b14565b60405180910390fd5b63bc197c8160e01b7bffffffffffffffffffffffffffffffffffffffffffffffffffffffff1916817bffffffffffffffffffffffffffffffffffffffffffffffffffffffff191614612ace576040517f08c379a0000000000000000000000000000000000000000000000000000000008152600401612ac590613b34565b60405180910390fd5b505b505050505050565b60606000600167ffffffffffffffff811115612af757612af661418b565b5b604051908082528060200260200182016040528015612b255781602001602082028036833780820191505090505b5090508281600081518110612b3d57612b3c61415c565b5b60200260200101818152505080915050919050565b612b718473ffffffffffffffffffffffffffffffffffffffff16612d39565b15612d31578373ffffffffffffffffffffffffffffffffffffffff1663f23a6e6187878686866040518663ffffffff1660e01b8152600401612bb79594939291906139aa565b602060405180830381600087803b158015612bd157600080fd5b505af1925050508015612c0257506040513d601f19601f82011682018060405250810190612bff9190613490565b60015b612ca857612c0e6141ba565b806308c379a01415612c6b5750612c23614644565b80612c2e5750612c6d565b806040517f08c379a0000000000000000000000000000000000000000000000000000000008152600401612c629190613af2565b60405180910390fd5b505b6040517f08c379a0000000000000000000000000000000000000000000000000000000008152600401612c9f90613b14565b60405180910390fd5b63f23a6e6160e01b7bffffffffffffffffffffffffffffffffffffffffffffffffffffffff1916817bffffffffffffffffffffffffffffffffffffffffffffffffffffffff191614612d2f576040517f08c379a0000000000000000000000000000000000000000000000000000000008152600401612d2690613b34565b60405180910390fd5b505b505050505050565b600080823b905060008111915050919050565b6000612d5f612d5a84613d74565b613d4f565b90508083825260208201905082856020860282011115612d8257612d816141e6565b5b60005b85811015612db25781612d988882612e6e565b845260208401935060208301925050600181019050612d85565b5050509392505050565b6000612dcf612dca84613da0565b613d4f565b90508083825260208201905082856020860282011115612df257612df16141e6565b5b60005b85811015612e225781612e088882613081565b845260208401935060208301925050600181019050612df5565b5050509392505050565b6000612e3f612e3a84613dcc565b613d4f565b905082815260208101848484011115612e5b57612e5a6141eb565b5b612e66848285614010565b509392505050565b600081359050612e7d816146da565b92915050565b600081519050612e92816146da565b92915050565b600081359050612ea7816146f1565b92915050565b600082601f830112612ec257612ec16141dc565b5b8135612ed2848260208601612d4c565b91505092915050565b600082601f830112612ef057612eef6141dc565b5b8135612f00848260208601612dbc565b91505092915050565b600081359050612f1881614708565b92915050565b600081519050612f2d81614708565b92915050565b600081359050612f428161471f565b92915050565b600081519050612f578161471f565b92915050565b600082601f830112612f7257612f716141dc565b5b8135612f82848260208601612e2c565b91505092915050565b60006101408284031215612fa257612fa16141e1565b5b612fad610140613d4f565b90506000612fbd84828501613096565b6000830152506020612fd184828501613096565b6020830152506040612fe584828501613096565b6040830152506060612ff984828501613096565b606083015250608061300d84828501613096565b60808301525060a061302184828501613096565b60a08301525060c061303584828501613096565b60c08301525060e061304984828501613096565b60e08301525061010061305e84828501613096565b6101008301525061012061307484828501613096565b6101208301525092915050565b60008135905061309081614736565b92915050565b6000815190506130a581614736565b92915050565b6000602082840312156130c1576130c06141f5565b5b60006130cf84828501612e6e565b91505092915050565b6000602082840312156130ee576130ed6141f5565b5b60006130fc84828501612e83565b91505092915050565b6000806040838503121561311c5761311b6141f5565b5b600061312a85828601612e98565b925050602061313b85828601613081565b9150509250929050565b6000806040838503121561315c5761315b6141f5565b5b600061316a85828601612e6e565b925050602061317b85828601612e6e565b9150509250929050565b600080600080600060a086880312156131a1576131a06141f5565b5b60006131af88828901612e6e565b95505060206131c088828901612e6e565b945050604086013567ffffffffffffffff8111156131e1576131e06141f0565b5b6131ed88828901612edb565b935050606086013567ffffffffffffffff81111561320e5761320d6141f0565b5b61321a88828901612edb565b925050608086013567ffffffffffffffff81111561323b5761323a6141f0565b5b61324788828901612f5d565b9150509295509295909350565b600080600080600060a086880312156132705761326f6141f5565b5b600061327e88828901612e6e565b955050602061328f88828901612e6e565b94505060406132a088828901613081565b93505060606132b188828901613081565b925050608086013567ffffffffffffffff8111156132d2576132d16141f0565b5b6132de88828901612f5d565b9150509295509295909350565b60008060408385031215613302576133016141f5565b5b600061331085828601612e6e565b925050602061332185828601612f09565b9150509250929050565b60008060408385031215613342576133416141f5565b5b600061335085828601612e6e565b925050602061336185828601613081565b9150509250929050565b600080600060608486031215613384576133836141f5565b5b600061339286828701612e6e565b93505060206133a386828701613081565b92505060406133b486828701613081565b9150509250925092565b600080604083850312156133d5576133d46141f5565b5b600083013567ffffffffffffffff8111156133f3576133f26141f0565b5b6133ff85828601612ead565b925050602083013567ffffffffffffffff8111156134205761341f6141f0565b5b61342c85828601612edb565b9150509250929050565b60006020828403121561344c5761344b6141f5565b5b600061345a84828501612f1e565b91505092915050565b600060208284031215613479576134786141f5565b5b600061348784828501612f33565b91505092915050565b6000602082840312156134a6576134a56141f5565b5b60006134b484828501612f48565b91505092915050565b600061014082840312156134d4576134d36141f5565b5b60006134e284828501612f8b565b91505092915050565b600060208284031215613501576135006141f5565b5b600061350f84828501613081565b91505092915050565b60006020828403121561352e5761352d6141f5565b5b600061353c84828501613096565b91505092915050565b6000806040838503121561355c5761355b6141f5565b5b600061356a85828601613081565b925050602061357b85828601613081565b9150509250929050565b6000806000806080858703121561359f5761359e6141f5565b5b60006135ad87828801613081565b94505060206135be87828801613081565b93505060406135cf87828801613081565b92505060606135e087828801613081565b91505092959194509250565b60006135f88383613909565b60208301905092915050565b61360d81613f1e565b82525050565b600061361e82613e0d565b6136288185613e3b565b935061363383613dfd565b8060005b8381101561366457815161364b88826135ec565b975061365683613e2e565b925050600181019050613637565b5085935050505092915050565b61367a81613f42565b82525050565b600061368b82613e18565b6136958185613e4c565b93506136a581856020860161401f565b6136ae816141fa565b840191505092915050565b6136c281613fa4565b82525050565b6136d181613fc8565b82525050565b6136e081613fec565b82525050565b60006136f182613e23565b6136fb8185613e5d565b935061370b81856020860161401f565b613714816141fa565b840191505092915050565b600061372c603483613e5d565b915061373782614218565b604082019050919050565b600061374f602883613e5d565b915061375a82614267565b604082019050919050565b6000613772602b83613e5d565b915061377d826142b6565b604082019050919050565b6000613795602483613e5d565b91506137a082614305565b604082019050919050565b60006137b8602983613e5d565b91506137c382614354565b604082019050919050565b60006137db600283613e5d565b91506137e6826143a3565b602082019050919050565b60006137fe602583613e5d565b9150613809826143cc565b604082019050919050565b6000613821603283613e5d565b915061382c8261441b565b604082019050919050565b6000613844602383613e5d565b915061384f8261446a565b604082019050919050565b6000613867602a83613e5d565b9150613872826144b9565b604082019050919050565b600061388a602983613e5d565b915061389582614508565b604082019050919050565b60006138ad602983613e5d565b91506138b882614557565b604082019050919050565b60006138d0602883613e5d565b91506138db826145a6565b604082019050919050565b60006138f3602183613e5d565b91506138fe826145f5565b604082019050919050565b61391281613f9a565b82525050565b61392181613f9a565b82525050565b600060208201905061393c6000830184613604565b92915050565b600060a0820190506139576000830188613604565b6139646020830187613604565b81810360408301526139768186613613565b9050818103606083015261398a8185613613565b9050818103608083015261399e8184613680565b90509695505050505050565b600060a0820190506139bf6000830188613604565b6139cc6020830187613604565b6139d96040830186613918565b6139e66060830185613918565b81810360808301526139f88184613680565b90509695505050505050565b6000604082019050613a196000830185613604565b613a266020830184613918565b9392505050565b60006020820190508181036000830152613a478184613613565b905092915050565b60006040820190508181036000830152613a698185613613565b90508181036020830152613a7d8184613613565b90509392505050565b6000602082019050613a9b6000830184613671565b92915050565b6000602082019050613ab660008301846136b9565b92915050565b6000602082019050613ad160008301846136c8565b92915050565b6000602082019050613aec60008301846136d7565b92915050565b60006020820190508181036000830152613b0c81846136e6565b905092915050565b60006020820190508181036000830152613b2d8161371f565b9050919050565b60006020820190508181036000830152613b4d81613742565b9050919050565b60006020820190508181036000830152613b6d81613765565b9050919050565b60006020820190508181036000830152613b8d81613788565b9050919050565b60006020820190508181036000830152613bad816137ab565b9050919050565b60006020820190508181036000830152613bcd816137ce565b9050919050565b60006020820190508181036000830152613bed816137f1565b9050919050565b60006020820190508181036000830152613c0d81613814565b9050919050565b60006020820190508181036000830152613c2d81613837565b9050919050565b60006020820190508181036000830152613c4d8161385a565b9050919050565b60006020820190508181036000830152613c6d8161387d565b9050919050565b60006020820190508181036000830152613c8d816138a0565b9050919050565b60006020820190508181036000830152613cad816138c3565b9050919050565b60006020820190508181036000830152613ccd816138e6565b9050919050565b6000602082019050613ce96000830184613918565b92915050565b6000604082019050613d046000830185613918565b613d116020830184613918565b9392505050565b6000606082019050613d2d6000830186613918565b613d3a6020830185613918565b613d476040830184613604565b949350505050565b6000613d59613d6a565b9050613d658282614084565b919050565b6000604051905090565b600067ffffffffffffffff821115613d8f57613d8e61418b565b5b602082029050602081019050919050565b600067ffffffffffffffff821115613dbb57613dba61418b565b5b602082029050602081019050919050565b600067ffffffffffffffff821115613de757613de661418b565b5b613df0826141fa565b9050602081019050919050565b6000819050602082019050919050565b600081519050919050565b600081519050919050565b600081519050919050565b6000602082019050919050565b600082825260208201905092915050565b600082825260208201905092915050565b600082825260208201905092915050565b6000613e7982613f9a565b9150613e8483613f9a565b9250827fffffffffffffffffffffffffffffffffffffffffffffffffffffffffffffffff03821115613eb957613eb86140fe565b5b828201905092915050565b6000613ecf82613f9a565b9150613eda83613f9a565b9250817fffffffffffffffffffffffffffffffffffffffffffffffffffffffffffffffff0483118215151615613f1357613f126140fe565b5b828202905092915050565b6000613f2982613f7a565b9050919050565b6000613f3b82613f7a565b9050919050565b60008115159050919050565b60007fffffffff0000000000000000000000000000000000000000000000000000000082169050919050565b600073ffffffffffffffffffffffffffffffffffffffff82169050919050565b6000819050919050565b6000613faf82613fb6565b9050919050565b6000613fc182613f7a565b9050919050565b6000613fd382613fda565b9050919050565b6000613fe582613f7a565b9050919050565b6000613ff782613ffe565b9050919050565b600061400982613f7a565b9050919050565b82818337600083830152505050565b60005b8381101561403d578082015181840152602081019050614022565b8381111561404c576000848401525b50505050565b6000600282049050600182168061406a57607f821691505b6020821081141561407e5761407d61412d565b5b50919050565b61408d826141fa565b810181811067ffffffffffffffff821117156140ac576140ab61418b565b5b80604052505050565b60006140c082613f9a565b91507fffffffffffffffffffffffffffffffffffffffffffffffffffffffffffffffff8214156140f3576140f26140fe565b5b600182019050919050565b7f4e487b7100000000000000000000000000000000000000000000000000000000600052601160045260246000fd5b7f4e487b7100000000000000000000000000000000000000000000000000000000600052602260045260246000fd5b7f4e487b7100000000000000000000000000000000000000000000000000000000600052603260045260246000fd5b7f4e487b7100000000000000000000000000000000000000000000000000000000600052604160045260246000fd5b600060033d11156141d95760046000803e6141d660005161420b565b90505b90565b600080fd5b600080fd5b600080fd5b600080fd5b600080fd5b600080fd5b6000601f19601f8301169050919050565b60008160e01c9050919050565b7f455243313135353a207472616e7366657220746f206e6f6e204552433131353560008201527f526563656976657220696d706c656d656e746572000000000000000000000000602082015250565b7f455243313135353a204552433131353552656365697665722072656a6563746560008201527f6420746f6b656e73000000000000000000000000000000000000000000000000602082015250565b7f455243313135353a2062616c616e636520717565727920666f7220746865207a60008201527f65726f2061646472657373000000000000000000000000000000000000000000602082015250565b7f455243313135353a206275726e20616d6f756e7420657863656564732062616c60008201527f616e636500000000000000000000000000000000000000000000000000000000602082015250565b7f455243313135353a2063616c6c6572206973206e6f74206f776e6572206e6f7260008201527f20617070726f7665640000000000000000000000000000000000000000000000602082015250565b7f4131000000000000000000000000000000000000000000000000000000000000600082015250565b7f455243313135353a207472616e7366657220746f20746865207a65726f20616460008201527f6472657373000000000000000000000000000000000000000000000000000000602082015250565b7f455243313135353a207472616e736665722063616c6c6572206973206e6f742060008201527f6f776e6572206e6f7220617070726f7665640000000000000000000000000000602082015250565b7f455243313135353a206275726e2066726f6d20746865207a65726f206164647260008201527f6573730000000000000000000000000000000000000000000000000000000000602082015250565b7f455243313135353a20696e73756666696369656e742062616c616e636520666f60008201527f72207472616e7366657200000000000000000000000000000000000000000000602082015250565b7f455243313135353a2073657474696e6720617070726f76616c2073746174757360008201527f20666f722073656c660000000000000000000000000000000000000000000000602082015250565b7f455243313135353a206163636f756e747320616e6420696473206c656e67746860008201527f206d69736d617463680000000000000000000000000000000000000000000000602082015250565b7f455243313135353a2069647320616e6420616d6f756e7473206c656e6774682060008201527f6d69736d61746368000000000000000000000000000000000000000000000000602082015250565b7f455243313135353a206d696e7420746f20746865207a65726f2061646472657360008201527f7300000000000000000000000000000000000000000000000000000000000000602082015250565b600060443d1015614654576146d7565b61465c613d6a565b60043d036004823e80513d602482011167ffffffffffffffff821117156146845750506146d7565b808201805167ffffffffffffffff8111156146a257505050506146d7565b80602083010160043d0385018111156146bf5750505050506146d7565b6146ce82602001850186614084565b82955050505050505b90565b6146e381613f1e565b81146146ee57600080fd5b50565b6146fa81613f30565b811461470557600080fd5b50565b61471181613f42565b811461471c57600080fd5b50565b61472881613f4e565b811461473357600080fd5b50565b61473f81613f9a565b811461474a57600080fd5b5056fea2646970667358221220b0d6d69460529a5a0e616337e2ed416037617a6b8881eea2b6642ed291fa074064736f6c63430008060033",
  "immutableReferences": {},
  "source": "// SPDX-License-Identifier: MIT\r\npragma solidity >=0.4.22 <0.9.0;\r\n\r\nimport \"../node_modules/@openzeppelin/contracts/token/ERC20/IERC20.sol\";\r\nimport \"../node_modules/@openzeppelin/contracts/token/ERC721/IERC721.sol\";\r\nimport \"../node_modules/@openzeppelin/contracts/token/ERC1155/ERC1155.sol\";\r\nimport \"../contracts/PBPlayers.sol\";\r\n\r\ncontract PBXP is ERC1155 {\r\n\r\n    uint public PBXPTokenId = 0;\r\n    address public admin;\r\n    address pbTeamsAddress;\r\n    address pbPvCAddress;\r\n    address pbMatchupsAddress;\r\n    uint upgradeCost;\r\n    IERC721 public myTeamsContract;\r\n    PBPlayers public pbPlayers;\r\n    IERC20 public buddies;\r\n\r\n    modifier onlyAdmin() {\r\n        require(msg.sender == admin, \"A1\");\r\n        _;\r\n    }\r\n\r\n     modifier onlyTeams() {\r\n        require(msg.sender == pbTeamsAddress, \"T1\");\r\n        _;\r\n    }\r\n\r\n    constructor(address _buddiesCoinAddress, address _pbPlayersAddress, uint _upgradeCost) ERC1155 (\"\") {\r\n        admin = msg.sender;\r\n        buddies = IERC20(_buddiesCoinAddress);\r\n        pbPlayers = PBPlayers(_pbPlayersAddress);\r\n        upgradeCost = _upgradeCost;\r\n    }\r\n\r\n    function isAdmin() public view returns (bool){\r\n        if(admin == msg.sender){\r\n            return true;\r\n        } else return false;\r\n    } \r\n\r\n    function getPBXPAddress() external view returns(address){\r\n        return address(this);\r\n    }\r\n\r\n    function updateBuddiesCoinAddress(address _buddiesCoinAddress) external onlyAdmin {\r\n        buddies = IERC20(_buddiesCoinAddress);\r\n    }\r\n\r\n    function updatePBXPTokenId(uint _PBXPTokenId) external onlyAdmin{\r\n        PBXPTokenId = _PBXPTokenId;\r\n    }\r\n\r\n    function updatePBTeamsAddress(address _pbTeamsAddress) external onlyAdmin {\r\n        pbTeamsAddress = _pbTeamsAddress;\r\n    }\r\n\r\n    function updatePBPlayersAddress(address _pbPlayersAddress)  external onlyAdmin {\r\n        pbPlayers = PBPlayers(_pbPlayersAddress);\r\n    }\r\n\r\n    function updatePBPvCAddress(address _pbPvCAddress) external onlyAdmin {\r\n        pbPvCAddress = _pbPvCAddress;\r\n    }\r\n\r\n    function updatePBMatchupsAddress(address _pbMatchupsAddress) external onlyAdmin {\r\n        pbMatchupsAddress = _pbMatchupsAddress;\r\n    }\r\n\r\n    function getUpgradeCost() public view returns(uint){\r\n        return upgradeCost;\r\n    }\r\n\r\n    function newProduct(uint token, uint initalSupply) external onlyAdmin {\r\n        _mint(msg.sender, token, initalSupply, \"\");\r\n    }\r\n\r\n    function newPBXPtoAddress(address mintToAddress, uint qty, uint token) external onlyAdmin returns (uint){\r\n        _mint(mintToAddress, token, qty, \"\");\r\n        uint balance = balanceOf(mintToAddress, token);\r\n        return balance;\r\n    }\r\n\r\n    function burnItems(address owner, uint token, uint qty ) external onlyAdmin {\r\n        _burn(owner, token, qty);\r\n    }\r\n\r\n    function earnPBXP(address earnerAddress, uint qty) external {\r\n        require(msg.sender == pbTeamsAddress || msg.sender == pbPvCAddress || msg.sender == pbMatchupsAddress);\r\n        _mint(earnerAddress, PBXPTokenId, qty, \"\");\r\n    }\r\n\r\n    function awardPBXP(address awardeeAddress, uint qty) external onlyAdmin {\r\n        _mint(awardeeAddress, PBXPTokenId, qty, \"\");\r\n    }\r\n\r\n    function increaseStats(uint tokenId, uint statType, uint qty, uint xp) public {\r\n        require(xp == upgradeCost * qty);\r\n        require(balanceOf(msg.sender, 0) >= xp);\r\n        require(pbPlayers.getTokenDetails(tokenId).ageoutTimestamp > block.timestamp);\r\n        require(pbPlayers.ownerOf(tokenId) == msg.sender);\r\n        if(statType == 1){\r\n            require(pbPlayers.getTokenDetails(tokenId).playertype != 3);\r\n            require(pbPlayers.getTokenDetails(tokenId).offence < 99);\r\n            pbPlayers.addOp(tokenId, qty, msg.sender);\r\n        }else if (statType == 2){\r\n            require(pbPlayers.getTokenDetails(tokenId).defence < 99);\r\n            pbPlayers.addDp(tokenId, qty, msg.sender);\r\n        }\r\n        _burn(msg.sender, 0, xp);\r\n    }\r\n\r\n    function getBNBBalance() external view onlyAdmin returns (uint) {\r\n        return address(this).balance;\r\n    }\r\n    \r\n    function getBudsBalance() external view returns (uint) {\r\n        return buddies.balanceOf(address(this));\r\n    }\r\n\r\n    function transferBNB(address payable _to, uint _amount) external onlyAdmin {\r\n        _to.transfer(_amount);\r\n    }\r\n\r\n    function transferBUDS(uint _amount) external onlyAdmin {\r\n        buddies.transfer(msg.sender, _amount);\r\n    }\r\n\r\n}",
  "sourcePath": "O:\\Projects\\puck-buddies\\contracts\\PBXP.sol",
  "compiler": {
    "name": "solc",
    "version": "0.8.6+commit.11564f7e.Emscripten.clang"
  },
  "schemaVersion": "3.4.3",
  "updatedAt": "2022-01-07T21:58:20.002Z",
  "networkType": "ethereum",
  "devdoc": {
    "kind": "dev",
    "methods": {
      "balanceOf(address,uint256)": {
        "details": "See {IERC1155-balanceOf}. Requirements: - `account` cannot be the zero address."
      },
      "balanceOfBatch(address[],uint256[])": {
        "details": "See {IERC1155-balanceOfBatch}. Requirements: - `accounts` and `ids` must have the same length."
      },
      "isApprovedForAll(address,address)": {
        "details": "See {IERC1155-isApprovedForAll}."
      },
      "safeBatchTransferFrom(address,address,uint256[],uint256[],bytes)": {
        "details": "See {IERC1155-safeBatchTransferFrom}."
      },
      "safeTransferFrom(address,address,uint256,uint256,bytes)": {
        "details": "See {IERC1155-safeTransferFrom}."
      },
      "setApprovalForAll(address,bool)": {
        "details": "See {IERC1155-setApprovalForAll}."
      },
      "supportsInterface(bytes4)": {
        "details": "See {IERC165-supportsInterface}."
      },
      "uri(uint256)": {
        "details": "See {IERC1155MetadataURI-uri}. This implementation returns the same URI for *all* token types. It relies on the token type ID substitution mechanism https://eips.ethereum.org/EIPS/eip-1155#metadata[defined in the EIP]. Clients calling this function must replace the `\\{id\\}` substring with the actual token type ID."
      }
    },
    "version": 1
  },
  "userdoc": {
    "kind": "user",
    "methods": {},
    "version": 1
  }
}