{
  "contractName": "Validator",
  "abi": [
    {
      "inputs": [
        {
          "internalType": "address",
          "name": "_exContract",
          "type": "address"
        },
        {
          "internalType": "uint256",
          "name": "_wt",
          "type": "uint256"
        },
        {
          "internalType": "uint256",
          "name": "_lt",
          "type": "uint256"
        }
      ],
      "stateMutability": "nonpayable",
      "type": "constructor"
    },
    {
      "inputs": [],
      "name": "getValidatorAddres",
      "outputs": [
        {
          "internalType": "address",
          "name": "",
          "type": "address"
        }
      ],
      "stateMutability": "view",
      "type": "function",
      "constant": true
    },
    {
      "inputs": [
        {
          "internalType": "address",
          "name": "_admin",
          "type": "address"
        }
      ],
      "name": "updateAdmin",
      "outputs": [],
      "stateMutability": "nonpayable",
      "type": "function"
    },
    {
      "inputs": [
        {
          "internalType": "address",
          "name": "_excontract",
          "type": "address"
        }
      ],
      "name": "updateExContract",
      "outputs": [],
      "stateMutability": "nonpayable",
      "type": "function"
    },
    {
      "inputs": [
        {
          "internalType": "uint256",
          "name": "_wt",
          "type": "uint256"
        },
        {
          "internalType": "uint256",
          "name": "_lt",
          "type": "uint256"
        }
      ],
      "name": "updateValidation",
      "outputs": [],
      "stateMutability": "nonpayable",
      "type": "function"
    },
    {
      "inputs": [
        {
          "internalType": "address",
          "name": "_sender",
          "type": "address"
        },
        {
          "internalType": "uint256",
          "name": "_mNonce",
          "type": "uint256"
        },
        {
          "internalType": "uint256",
          "name": "_diff",
          "type": "uint256"
        },
        {
          "internalType": "uint256",
          "name": "_tId",
          "type": "uint256"
        },
        {
          "internalType": "uint256",
          "name": "_t1s",
          "type": "uint256"
        },
        {
          "internalType": "uint256",
          "name": "_t2s",
          "type": "uint256"
        }
      ],
      "name": "validateW",
      "outputs": [
        {
          "internalType": "bytes32",
          "name": "",
          "type": "bytes32"
        }
      ],
      "stateMutability": "view",
      "type": "function",
      "constant": true
    },
    {
      "inputs": [
        {
          "internalType": "address",
          "name": "_sender",
          "type": "address"
        },
        {
          "internalType": "uint256",
          "name": "_mNonce",
          "type": "uint256"
        },
        {
          "internalType": "uint256",
          "name": "_diff",
          "type": "uint256"
        },
        {
          "internalType": "uint256",
          "name": "_tId",
          "type": "uint256"
        },
        {
          "internalType": "uint256",
          "name": "_t1s",
          "type": "uint256"
        },
        {
          "internalType": "uint256",
          "name": "_t2s",
          "type": "uint256"
        }
      ],
      "name": "validateL",
      "outputs": [
        {
          "internalType": "bytes32",
          "name": "",
          "type": "bytes32"
        }
      ],
      "stateMutability": "view",
      "type": "function",
      "constant": true
    }
  ],
  "bytecode": "0x608060405234801561001057600080fd5b5060405162000b7938038062000b79833981810160405281019061003491906100f5565b336000806101000a81548173ffffffffffffffffffffffffffffffffffffffff021916908373ffffffffffffffffffffffffffffffffffffffff16021790555082600160006101000a81548173ffffffffffffffffffffffffffffffffffffffff021916908373ffffffffffffffffffffffffffffffffffffffff16021790555081600281905550806003819055505050506101b7565b6000815190506100da81610189565b92915050565b6000815190506100ef816101a0565b92915050565b60008060006060848603121561010e5761010d610184565b5b600061011c868287016100cb565b935050602061012d868287016100e0565b925050604061013e868287016100e0565b9150509250925092565b60006101538261015a565b9050919050565b600073ffffffffffffffffffffffffffffffffffffffff82169050919050565b6000819050919050565b600080fd5b61019281610148565b811461019d57600080fd5b50565b6101a98161017a565b81146101b457600080fd5b50565b6109b280620001c76000396000f3fe608060405234801561001057600080fd5b50600436106100625760003560e01c806349693c1514610067578063a0b1a71414610097578063bb55d073146100b3578063e2f273bd146100d1578063e5f432b8146100ed578063e7ea37501461011d575b600080fd5b610081600480360381019061007c919061060f565b610139565b60405161008e919061080a565b60405180910390f35b6100b160048036038101906100ac919061069c565b61020c565b005b6100bb6102ac565b6040516100c891906107ef565b60405180910390f35b6100eb60048036038101906100e691906105e2565b610342565b005b6101076004803603810190610102919061060f565b610413565b604051610114919061080a565b60405180910390f35b610137600480360381019061013291906105e2565b6104e6565b005b60003373ffffffffffffffffffffffffffffffffffffffff16600160009054906101000a900473ffffffffffffffffffffffffffffffffffffffff1673ffffffffffffffffffffffffffffffffffffffff16146101cb576040517f08c379a00000000000000000000000000000000000000000000000000000000081526004016101c290610845565b60405180910390fd5b8660025487878787876040516020016101ea979695949392919061076e565b6040516020818303038152906040528051906020012090509695505050505050565b3373ffffffffffffffffffffffffffffffffffffffff1660008054906101000a900473ffffffffffffffffffffffffffffffffffffffff1673ffffffffffffffffffffffffffffffffffffffff161461029a576040517f08c379a000000000000000000000000000000000000000000000000000000000815260040161029190610825565b60405180910390fd5b81600281905550806003819055505050565b60003373ffffffffffffffffffffffffffffffffffffffff1660008054906101000a900473ffffffffffffffffffffffffffffffffffffffff1673ffffffffffffffffffffffffffffffffffffffff161461033c576040517f08c379a000000000000000000000000000000000000000000000000000000000815260040161033390610825565b60405180910390fd5b30905090565b3373ffffffffffffffffffffffffffffffffffffffff1660008054906101000a900473ffffffffffffffffffffffffffffffffffffffff1673ffffffffffffffffffffffffffffffffffffffff16146103d0576040517f08c379a00000000000000000000000000000000000000000000000000000000081526004016103c790610825565b60405180910390fd5b806000806101000a81548173ffffffffffffffffffffffffffffffffffffffff021916908373ffffffffffffffffffffffffffffffffffffffff16021790555050565b60003373ffffffffffffffffffffffffffffffffffffffff16600160009054906101000a900473ffffffffffffffffffffffffffffffffffffffff1673ffffffffffffffffffffffffffffffffffffffff16146104a5576040517f08c379a000000000000000000000000000000000000000000000000000000000815260040161049c90610845565b60405180910390fd5b8660035487878787876040516020016104c4979695949392919061076e565b6040516020818303038152906040528051906020012090509695505050505050565b3373ffffffffffffffffffffffffffffffffffffffff1660008054906101000a900473ffffffffffffffffffffffffffffffffffffffff1673ffffffffffffffffffffffffffffffffffffffff1614610574576040517f08c379a000000000000000000000000000000000000000000000000000000000815260040161056b90610825565b60405180910390fd5b80600160006101000a81548173ffffffffffffffffffffffffffffffffffffffff021916908373ffffffffffffffffffffffffffffffffffffffff16021790555050565b6000813590506105c78161094e565b92915050565b6000813590506105dc81610965565b92915050565b6000602082840312156105f8576105f76108ea565b5b6000610606848285016105b8565b91505092915050565b60008060008060008060c0878903121561062c5761062b6108ea565b5b600061063a89828a016105b8565b965050602061064b89828a016105cd565b955050604061065c89828a016105cd565b945050606061066d89828a016105cd565b935050608061067e89828a016105cd565b92505060a061068f89828a016105cd565b9150509295509295509295565b600080604083850312156106b3576106b26108ea565b5b60006106c1858286016105cd565b92505060206106d2858286016105cd565b9150509250929050565b6106e581610876565b82525050565b6106fc6106f782610876565b6108bc565b82525050565b61070b81610888565b82525050565b600061071e600283610865565b9150610729826108fc565b602082019050919050565b6000610741600283610865565b915061074c82610925565b602082019050919050565b610768610763826108b2565b6108e0565b82525050565b600061077a828a6106eb565b60148201915061078a8289610757565b60208201915061079a8288610757565b6020820191506107aa8287610757565b6020820191506107ba8286610757565b6020820191506107ca8285610757565b6020820191506107da8284610757565b60208201915081905098975050505050505050565b600060208201905061080460008301846106dc565b92915050565b600060208201905061081f6000830184610702565b92915050565b6000602082019050818103600083015261083e81610711565b9050919050565b6000602082019050818103600083015261085e81610734565b9050919050565b600082825260208201905092915050565b600061088182610892565b9050919050565b6000819050919050565b600073ffffffffffffffffffffffffffffffffffffffff82169050919050565b6000819050919050565b60006108c7826108ce565b9050919050565b60006108d9826108ef565b9050919050565b6000819050919050565b600080fd5b60008160601b9050919050565b7f4131000000000000000000000000000000000000000000000000000000000000600082015250565b7f4531000000000000000000000000000000000000000000000000000000000000600082015250565b61095781610876565b811461096257600080fd5b50565b61096e816108b2565b811461097957600080fd5b5056fea264697066735822122030a0fbc6c10a7309088b6ed9ffc06f3fdd22ef196e9983c2568016cbd124f6b964736f6c63430008060033",
  "immutableReferences": {},
  "source": "// SPDX-License-Identifier: MIT\r\npragma solidity >=0.4.22 <0.9.0;\r\n\r\ncontract Validator {\r\n    address admin;\r\n    address exContract;\r\n    uint wt;\r\n    uint lt;\r\n\r\n    constructor(address _exContract, uint _wt, uint _lt){\r\n        admin = msg.sender;\r\n        exContract = _exContract;\r\n        wt = _wt;\r\n        lt = _lt;\r\n    }\r\n\r\n    modifier onlyAdmin() {\r\n    require(admin == msg.sender, \"A1\" );\r\n    _;\r\n    }\r\n\r\n    modifier onlyExcontract() {\r\n    require(exContract == msg.sender, \"E1\" );\r\n    _;\r\n    }\r\n\r\n    function getValidatorAddres() external view onlyAdmin returns (address){\r\n        return address(this);\r\n    }  \r\n\r\n    function updateAdmin(address _admin) external onlyAdmin{\r\n        admin = _admin;\r\n    }\r\n\r\n    function updateExContract(address _excontract) external onlyAdmin{\r\n        exContract = _excontract;\r\n    }\r\n\r\n    function updateValidation(uint _wt, uint _lt) external onlyAdmin {\r\n        wt = _wt;\r\n        lt = _lt;\r\n    }    \r\n\r\n    function validateW(address _sender, uint _mNonce, uint _diff, uint _tId, uint _t1s, uint _t2s) external view onlyExcontract returns (bytes32) {\r\n        return keccak256(abi.encodePacked(_sender, wt, _mNonce, _diff, _tId, _t1s, _t2s));\r\n    }\r\n\r\n    function validateL(address _sender, uint _mNonce, uint _diff, uint _tId, uint _t1s, uint _t2s) external view onlyExcontract returns (bytes32) {\r\n        return keccak256(abi.encodePacked(_sender, lt, _mNonce, _diff, _tId, _t1s, _t2s));\r\n    }\r\n}",
  "sourcePath": "O:\\Projects\\puck-buddies\\contracts\\validator.sol",
  "compiler": {
    "name": "solc",
    "version": "0.8.6+commit.11564f7e.Emscripten.clang"
  },
  "schemaVersion": "3.4.3",
  "updatedAt": "2021-11-22T07:37:45.179Z",
  "networkType": "ethereum",
  "devdoc": {
    "kind": "dev",
    "methods": {},
    "version": 1
  },
  "userdoc": {
    "kind": "user",
    "methods": {},
    "version": 1
  }
}